{
  "_format": "hh-sol-artifact-1",
  "contractName": "SafeMath64Testable",
  "sourceName": "contracts/mocks/SafeMath64Testable.sol",
  "abi": [
    {
      "inputs": [
        {
          "internalType": "uint64",
          "name": "a",
          "type": "uint64"
        },
        {
          "internalType": "uint64",
          "name": "b",
          "type": "uint64"
        }
      ],
      "name": "add",
      "outputs": [
        {
          "internalType": "uint64",
          "name": "r",
          "type": "uint64"
        }
      ],
      "stateMutability": "pure",
      "type": "function"
    },
    {
      "inputs": [
        {
          "internalType": "uint64",
          "name": "a",
          "type": "uint64"
        },
        {
          "internalType": "uint64",
          "name": "b",
          "type": "uint64"
        }
      ],
      "name": "mul",
      "outputs": [
        {
          "internalType": "uint64",
          "name": "r",
          "type": "uint64"
        }
      ],
      "stateMutability": "pure",
      "type": "function"
    },
    {
      "inputs": [
        {
          "internalType": "uint64",
          "name": "a",
          "type": "uint64"
        },
        {
          "internalType": "uint64",
          "name": "b",
          "type": "uint64"
        }
      ],
      "name": "sub",
      "outputs": [
        {
          "internalType": "uint64",
          "name": "r",
          "type": "uint64"
        }
      ],
      "stateMutability": "pure",
      "type": "function"
    }
  ],
  "bytecode": "0x60806040523480156100115760006000fd5b50610017565b61044b806100266000396000f3fe60806040523480156100115760006000fd5b50600436106100465760003560e01c806322c6ae151461004c5780636e2c732d146100b7578063911b5f4e1461012257610046565b60006000fd5b610097600480360360408110156100635760006000fd5b81019080803567ffffffffffffffff169060200190929190803567ffffffffffffffff16906020019092919050505061018d565b604051808267ffffffffffffffff16815260200191505060405180910390f35b610102600480360360408110156100ce5760006000fd5b81019080803567ffffffffffffffff169060200190929190803567ffffffffffffffff1690602001909291905050506101b7565b604051808267ffffffffffffffff16815260200191505060405180910390f35b61016d600480360360408110156101395760006000fd5b81019080803567ffffffffffffffff169060200190929190803567ffffffffffffffff1690602001909291905050506101e1565b604051808267ffffffffffffffff16815260200191505060405180910390f35b60006101ac828467ffffffffffffffff1661020b90919063ffffffff16565b905080505b92915050565b60006101d6828467ffffffffffffffff166102db90919063ffffffff16565b905080505b92915050565b6000610200828467ffffffffffffffff1661037890919063ffffffff16565b905080505b92915050565b600060008267ffffffffffffffff16148061025d57508267ffffffffffffffff168267ffffffffffffffff1683850292508267ffffffffffffffff1681151561025057fe5b0467ffffffffffffffff16145b15156102d4576040517f08c379a000000000000000000000000000000000000000000000000000000000815260040180806020018281038252600c8152602001807f6d756c2d6f766572666c6f77000000000000000000000000000000000000000081526020015060200191505060405180910390fd5b5b92915050565b60008267ffffffffffffffff1682840191508167ffffffffffffffff1610151515610371576040517f08c379a000000000000000000000000000000000000000000000000000000000815260040180806020018281038252600c8152602001807f6164642d6f766572666c6f77000000000000000000000000000000000000000081526020015060200191505060405180910390fd5b5b92915050565b60008267ffffffffffffffff1682840391508167ffffffffffffffff161115151561040e576040517f08c379a000000000000000000000000000000000000000000000000000000000815260040180806020018281038252600d8152602001807f7375622d756e646572666c6f770000000000000000000000000000000000000081526020015060200191505060405180910390fd5b5b9291505056fea2646970667358221220a5c53c51e357f480db238c6fe651cf81e84e5c6f35594f4e8c0ea530a8728a8764736f6c63430007060033",
  "linkReferences": {},
  "deployedLinkReferences": {}
}