{
  "_format": "hh-sol-artifact-1",
  "contractName": "UniswapV3PoolDeployer",
  "sourceName": "contracts/uniswap/uniswap-v3-core/contracts/UniswapV3PoolDeployer.sol",
  "abi": [
    {
      "inputs": [],
      "name": "parameters",
      "outputs": [
        {
          "internalType": "address",
          "name": "factory",
          "type": "address"
        },
        {
          "internalType": "address",
          "name": "token0",
          "type": "address"
        },
        {
          "internalType": "address",
          "name": "token1",
          "type": "address"
        },
        {
          "internalType": "uint24",
          "name": "fee",
          "type": "uint24"
        },
        {
          "internalType": "int24",
          "name": "tickSpacing",
          "type": "int24"
        }
      ],
      "stateMutability": "view",
      "type": "function"
    }
  ],
  "bytecode": "0x60806040523480156100115760006000fd5b50610017565b610193806100266000396000f3fe60806040523480156100115760006000fd5b50600436106100305760003560e01c8063890357301461003657610030565b60006000fd5b61003e6100ba565b604051808673ffffffffffffffffffffffffffffffffffffffff1681526020018573ffffffffffffffffffffffffffffffffffffffff1681526020018473ffffffffffffffffffffffffffffffffffffffff1681526020018362ffffff1681526020018260020b81526020019550505050505060405180910390f35b60006000508060000160009054906101000a900473ffffffffffffffffffffffffffffffffffffffff16908060010160009054906101000a900473ffffffffffffffffffffffffffffffffffffffff16908060020160009054906101000a900473ffffffffffffffffffffffffffffffffffffffff16908060020160149054906101000a900462ffffff16908060020160179054906101000a900460020b90508556fea2646970667358221220f002d579f7a8a4360f907a164f2d435911052f80614360bf3a2f3efa123f579064736f6c63430007060033",
  "linkReferences": {},
  "deployedLinkReferences": {}
}