{
  "_format": "hh-sol-artifact-1",
  "contractName": "TCPGovernorAlpha",
  "sourceName": "contracts/core/governance/TCPGovernorAlpha.sol",
  "abi": [
    {
      "inputs": [
        {
          "internalType": "address",
          "name": "timelock_",
          "type": "address"
        },
        {
          "internalType": "address",
          "name": "votingToken_",
          "type": "address"
        },
        {
          "internalType": "address",
          "name": "guardian_",
          "type": "address"
        },
        {
          "internalType": "uint48",
          "name": "votingPeriodBlocks_",
          "type": "uint48"
        },
        {
          "internalType": "address",
          "name": "governor_",
          "type": "address"
        }
      ],
      "stateMutability": "nonpayable",
      "type": "constructor"
    },
    {
      "anonymous": false,
      "inputs": [
        {
          "indexed": true,
          "internalType": "uint256",
          "name": "id",
          "type": "uint256"
        }
      ],
      "name": "ProposalCanceled",
      "type": "event"
    },
    {
      "anonymous": false,
      "inputs": [
        {
          "indexed": true,
          "internalType": "uint256",
          "name": "id",
          "type": "uint256"
        },
        {
          "indexed": true,
          "internalType": "address",
          "name": "proposer",
          "type": "address"
        }
      ],
      "name": "ProposalCreated",
      "type": "event"
    },
    {
      "anonymous": false,
      "inputs": [
        {
          "indexed": true,
          "internalType": "uint256",
          "name": "id",
          "type": "uint256"
        }
      ],
      "name": "ProposalExecuted",
      "type": "event"
    },
    {
      "anonymous": false,
      "inputs": [
        {
          "indexed": true,
          "internalType": "uint256",
          "name": "id",
          "type": "uint256"
        },
        {
          "indexed": false,
          "internalType": "uint256",
          "name": "eta",
          "type": "uint256"
        }
      ],
      "name": "ProposalQueued",
      "type": "event"
    },
    {
      "anonymous": false,
      "inputs": [
        {
          "indexed": true,
          "internalType": "address",
          "name": "voter",
          "type": "address"
        },
        {
          "indexed": true,
          "internalType": "uint256",
          "name": "proposalId",
          "type": "uint256"
        },
        {
          "indexed": true,
          "internalType": "bool",
          "name": "support",
          "type": "bool"
        },
        {
          "indexed": false,
          "internalType": "uint256",
          "name": "votes",
          "type": "uint256"
        }
      ],
      "name": "VoteCast",
      "type": "event"
    },
    {
      "anonymous": false,
      "inputs": [
        {
          "indexed": true,
          "internalType": "address",
          "name": "voter",
          "type": "address"
        },
        {
          "indexed": false,
          "internalType": "uint256",
          "name": "count",
          "type": "uint256"
        }
      ],
      "name": "VotingRewardsDistributed",
      "type": "event"
    },
    {
      "inputs": [],
      "name": "BALLOT_TYPEHASH",
      "outputs": [
        {
          "internalType": "bytes32",
          "name": "",
          "type": "bytes32"
        }
      ],
      "stateMutability": "view",
      "type": "function"
    },
    {
      "inputs": [],
      "name": "DOMAIN_TYPEHASH",
      "outputs": [
        {
          "internalType": "bytes32",
          "name": "",
          "type": "bytes32"
        }
      ],
      "stateMutability": "view",
      "type": "function"
    },
    {
      "inputs": [],
      "name": "INFLATION_PERCENTAGE",
      "outputs": [
        {
          "internalType": "uint256",
          "name": "",
          "type": "uint256"
        }
      ],
      "stateMutability": "view",
      "type": "function"
    },
    {
      "inputs": [],
      "name": "__abdicate",
      "outputs": [],
      "stateMutability": "nonpayable",
      "type": "function"
    },
    {
      "inputs": [
        {
          "internalType": "uint256",
          "name": "proposalId",
          "type": "uint256"
        }
      ],
      "name": "cancel",
      "outputs": [],
      "stateMutability": "nonpayable",
      "type": "function"
    },
    {
      "inputs": [
        {
          "internalType": "uint256",
          "name": "proposalId",
          "type": "uint256"
        },
        {
          "internalType": "bool",
          "name": "support",
          "type": "bool"
        }
      ],
      "name": "castVote",
      "outputs": [],
      "stateMutability": "nonpayable",
      "type": "function"
    },
    {
      "inputs": [
        {
          "internalType": "uint256",
          "name": "proposalId",
          "type": "uint256"
        },
        {
          "internalType": "bool",
          "name": "support",
          "type": "bool"
        },
        {
          "internalType": "uint8",
          "name": "v",
          "type": "uint8"
        },
        {
          "internalType": "bytes32",
          "name": "r",
          "type": "bytes32"
        },
        {
          "internalType": "bytes32",
          "name": "s",
          "type": "bytes32"
        }
      ],
      "name": "castVoteBySig",
      "outputs": [],
      "stateMutability": "nonpayable",
      "type": "function"
    },
    {
      "inputs": [
        {
          "internalType": "uint256",
          "name": "proposalID",
          "type": "uint256"
        }
      ],
      "name": "claimVotingRewards",
      "outputs": [],
      "stateMutability": "nonpayable",
      "type": "function"
    },
    {
      "inputs": [
        {
          "internalType": "uint256",
          "name": "proposalId",
          "type": "uint256"
        }
      ],
      "name": "execute",
      "outputs": [],
      "stateMutability": "nonpayable",
      "type": "function"
    },
    {
      "inputs": [
        {
          "internalType": "uint256",
          "name": "proposalId",
          "type": "uint256"
        }
      ],
      "name": "getActions",
      "outputs": [
        {
          "internalType": "address[]",
          "name": "targets",
          "type": "address[]"
        },
        {
          "internalType": "string[]",
          "name": "signatures",
          "type": "string[]"
        },
        {
          "internalType": "bytes[]",
          "name": "calldatas",
          "type": "bytes[]"
        }
      ],
      "stateMutability": "view",
      "type": "function"
    },
    {
      "inputs": [
        {
          "internalType": "address",
          "name": "voter",
          "type": "address"
        }
      ],
      "name": "getAllProposals",
      "outputs": [
        {
          "components": [
            {
              "internalType": "address[]",
              "name": "targets",
              "type": "address[]"
            },
            {
              "internalType": "string[]",
              "name": "signatures",
              "type": "string[]"
            },
            {
              "internalType": "bytes[]",
              "name": "calldatas",
              "type": "bytes[]"
            },
            {
              "internalType": "string",
              "name": "ipfsHash",
              "type": "string"
            },
            {
              "internalType": "address",
              "name": "proposer",
              "type": "address"
            },
            {
              "internalType": "uint48",
              "name": "eta",
              "type": "uint48"
            },
            {
              "internalType": "uint48",
              "name": "id",
              "type": "uint48"
            },
            {
              "internalType": "uint128",
              "name": "forVotes",
              "type": "uint128"
            },
            {
              "internalType": "uint48",
              "name": "startBlock",
              "type": "uint48"
            },
            {
              "internalType": "uint48",
              "name": "endBlock",
              "type": "uint48"
            },
            {
              "internalType": "bool",
              "name": "canceled",
              "type": "bool"
            },
            {
              "internalType": "bool",
              "name": "executed",
              "type": "bool"
            },
            {
              "internalType": "uint128",
              "name": "againstVotes",
              "type": "uint128"
            },
            {
              "internalType": "uint128",
              "name": "initialSupply",
              "type": "uint128"
            }
          ],
          "internalType": "struct GovernorAlpha.Proposal[]",
          "name": "_proposals",
          "type": "tuple[]"
        },
        {
          "internalType": "enum GovernorAlpha.ProposalState[]",
          "name": "_proposalStates",
          "type": "uint8[]"
        },
        {
          "components": [
            {
              "internalType": "bool",
              "name": "hasVoted",
              "type": "bool"
            },
            {
              "internalType": "bool",
              "name": "support",
              "type": "bool"
            },
            {
              "internalType": "bool",
              "name": "rewardReceived",
              "type": "bool"
            },
            {
              "internalType": "uint184",
              "name": "votes",
              "type": "uint184"
            }
          ],
          "internalType": "struct GovernorAlpha.Receipt[]",
          "name": "_receipts",
          "type": "tuple[]"
        }
      ],
      "stateMutability": "view",
      "type": "function"
    },
    {
      "inputs": [
        {
          "internalType": "uint256",
          "name": "proposalId",
          "type": "uint256"
        },
        {
          "internalType": "address",
          "name": "voter",
          "type": "address"
        }
      ],
      "name": "getReceipt",
      "outputs": [
        {
          "components": [
            {
              "internalType": "bool",
              "name": "hasVoted",
              "type": "bool"
            },
            {
              "internalType": "bool",
              "name": "support",
              "type": "bool"
            },
            {
              "internalType": "bool",
              "name": "rewardReceived",
              "type": "bool"
            },
            {
              "internalType": "uint184",
              "name": "votes",
              "type": "uint184"
            }
          ],
          "internalType": "struct GovernorAlpha.Receipt",
          "name": "",
          "type": "tuple"
        }
      ],
      "stateMutability": "view",
      "type": "function"
    },
    {
      "inputs": [],
      "name": "governor",
      "outputs": [
        {
          "internalType": "contract IGovernor",
          "name": "",
          "type": "address"
        }
      ],
      "stateMutability": "view",
      "type": "function"
    },
    {
      "inputs": [],
      "name": "guardian",
      "outputs": [
        {
          "internalType": "address",
          "name": "",
          "type": "address"
        }
      ],
      "stateMutability": "view",
      "type": "function"
    },
    {
      "inputs": [],
      "name": "implementsVotingRewardsWithToken",
      "outputs": [
        {
          "internalType": "address",
          "name": "",
          "type": "address"
        }
      ],
      "stateMutability": "view",
      "type": "function"
    },
    {
      "inputs": [
        {
          "internalType": "address",
          "name": "",
          "type": "address"
        }
      ],
      "name": "latestProposalIds",
      "outputs": [
        {
          "internalType": "uint256",
          "name": "",
          "type": "uint256"
        }
      ],
      "stateMutability": "view",
      "type": "function"
    },
    {
      "inputs": [],
      "name": "name",
      "outputs": [
        {
          "internalType": "string",
          "name": "",
          "type": "string"
        }
      ],
      "stateMutability": "view",
      "type": "function"
    },
    {
      "inputs": [],
      "name": "proposalCount",
      "outputs": [
        {
          "internalType": "uint48",
          "name": "",
          "type": "uint48"
        }
      ],
      "stateMutability": "view",
      "type": "function"
    },
    {
      "inputs": [],
      "name": "proposalMaxOperations",
      "outputs": [
        {
          "internalType": "uint256",
          "name": "",
          "type": "uint256"
        }
      ],
      "stateMutability": "pure",
      "type": "function"
    },
    {
      "inputs": [],
      "name": "proposalThreshold",
      "outputs": [
        {
          "internalType": "uint256",
          "name": "",
          "type": "uint256"
        }
      ],
      "stateMutability": "view",
      "type": "function"
    },
    {
      "inputs": [
        {
          "internalType": "uint256",
          "name": "",
          "type": "uint256"
        }
      ],
      "name": "proposals",
      "outputs": [
        {
          "internalType": "string",
          "name": "ipfsHash",
          "type": "string"
        },
        {
          "internalType": "address",
          "name": "proposer",
          "type": "address"
        },
        {
          "internalType": "uint48",
          "name": "eta",
          "type": "uint48"
        },
        {
          "internalType": "uint48",
          "name": "id",
          "type": "uint48"
        },
        {
          "internalType": "uint128",
          "name": "forVotes",
          "type": "uint128"
        },
        {
          "internalType": "uint48",
          "name": "startBlock",
          "type": "uint48"
        },
        {
          "internalType": "uint48",
          "name": "endBlock",
          "type": "uint48"
        },
        {
          "internalType": "bool",
          "name": "canceled",
          "type": "bool"
        },
        {
          "internalType": "bool",
          "name": "executed",
          "type": "bool"
        },
        {
          "internalType": "uint128",
          "name": "againstVotes",
          "type": "uint128"
        },
        {
          "internalType": "uint128",
          "name": "initialSupply",
          "type": "uint128"
        }
      ],
      "stateMutability": "view",
      "type": "function"
    },
    {
      "inputs": [
        {
          "internalType": "address[]",
          "name": "targets",
          "type": "address[]"
        },
        {
          "internalType": "string[]",
          "name": "signatures",
          "type": "string[]"
        },
        {
          "internalType": "bytes[]",
          "name": "calldatas",
          "type": "bytes[]"
        },
        {
          "internalType": "string",
          "name": "ipfsHash",
          "type": "string"
        }
      ],
      "name": "propose",
      "outputs": [
        {
          "internalType": "uint256",
          "name": "",
          "type": "uint256"
        }
      ],
      "stateMutability": "nonpayable",
      "type": "function"
    },
    {
      "inputs": [
        {
          "internalType": "uint256",
          "name": "proposalId",
          "type": "uint256"
        }
      ],
      "name": "queue",
      "outputs": [],
      "stateMutability": "nonpayable",
      "type": "function"
    },
    {
      "inputs": [],
      "name": "quorumVotes",
      "outputs": [
        {
          "internalType": "uint256",
          "name": "",
          "type": "uint256"
        }
      ],
      "stateMutability": "view",
      "type": "function"
    },
    {
      "inputs": [
        {
          "internalType": "uint256",
          "name": "proposalId",
          "type": "uint256"
        }
      ],
      "name": "state",
      "outputs": [
        {
          "internalType": "enum GovernorAlpha.ProposalState",
          "name": "",
          "type": "uint8"
        }
      ],
      "stateMutability": "view",
      "type": "function"
    },
    {
      "inputs": [],
      "name": "timelock",
      "outputs": [
        {
          "internalType": "contract TimelockInterface",
          "name": "",
          "type": "address"
        }
      ],
      "stateMutability": "view",
      "type": "function"
    },
    {
      "inputs": [],
      "name": "votingDelay",
      "outputs": [
        {
          "internalType": "uint256",
          "name": "",
          "type": "uint256"
        }
      ],
      "stateMutability": "pure",
      "type": "function"
    },
    {
      "inputs": [],
      "name": "votingPeriod",
      "outputs": [
        {
          "internalType": "uint256",
          "name": "",
          "type": "uint256"
        }
      ],
      "stateMutability": "view",
      "type": "function"
    },
    {
      "inputs": [],
      "name": "votingPeriodBlocks",
      "outputs": [
        {
          "internalType": "uint48",
          "name": "",
          "type": "uint48"
        }
      ],
      "stateMutability": "view",
      "type": "function"
    },
    {
      "inputs": [],
      "name": "votingToken",
      "outputs": [
        {
          "internalType": "contract VotingTokenInterface",
          "name": "",
          "type": "address"
        }
      ],
      "stateMutability": "view",
      "type": "function"
    }
  ],
  "bytecode": "0x60c0604052348015620000125760006000fd5b50604051620061dc380380620061dc833981810160405281019062000038919062000383565b5b6040518060400160405280601281526020017f54435020476f7665726e6f7220416c7068610000000000000000000000000000815260200150858585855b84848484845b84600060005090805190602001906200009892919062000297565b50600073ffffffffffffffffffffffffffffffffffffffff168473ffffffffffffffffffffffffffffffffffffffff1614158015620001045750600073ffffffffffffffffffffffffffffffffffffffff168373ffffffffffffffffffffffffffffffffffffffff1614155b80156200013e5750600073ffffffffffffffffffffffffffffffffffffffff168273ffffffffffffffffffffffffffffffffffffffff1614155b15156200014b5760006000fd5b83600160006101000a81548173ffffffffffffffffffffffffffffffffffffffff021916908373ffffffffffffffffffffffffffffffffffffffff16021790555082600360006101000a81548173ffffffffffffffffffffffffffffffffffffffff021916908373ffffffffffffffffffffffffffffffffffffffff16021790555081600260006101000a81548173ffffffffffffffffffffffffffffffffffffffff021916908373ffffffffffffffffffffffffffffffffffffffff16021790555060008165ffffffffffff16111515620002275760006000fd5b8065ffffffffffff1660808165ffffffffffff1660d01b815260060150505b50505050505b50505050508073ffffffffffffffffffffffffffffffffffffffff1660a08173ffffffffffffffffffffffffffffffffffffffff1660601b815260140150505b505050505062000405565b828054600181600116156101000203166002900490600052602060002090601f016020900481019282620002cf576000855562000320565b82601f10620002ea57805160ff191683800117855562000320565b8280016001018555821562000320579182015b828111156200031f5782518260005090905591602001919060010190620002fd565b5b5090506200032f919062000333565b5090565b62000339565b8082111562000355576000818150600090555060010162000339565b50905662000404565b6000815190506001600160a01b038116811415156200037d5760006000fd5b5b919050565b6000600060006000600060a086880312156200039d578081fd5b620003a8866200035e565b9450620003b8602087016200035e565b9350620003c8604087016200035e565b9250606086015165ffffffffffff811681141515620003e5578182fd5b80925050620003f7608087016200035e565b90505b9295509295909350565b5b60805160d01c60a05160601c615d99620004436000398061087b528061339d5280613a915280613d095250806107a752806127765250615d996000f3fe60806040523480156100115760006000fd5b50600436106101df5760003560e01c80634634c61f11610105578063b525867f116100a3578063ddf0b00911610072578063ddf0b0091461054f578063deaaa7cc1461056b578063e23a9a5214610589578063fe0d94c1146105b9576101df565b8063b525867f146104d9578063b58131b0146104f5578063d33219b414610513578063da35c66414610531576101df565b80637e90f9ab116100df5780637e90f9ab1461044d5780639853d9221461046b578063b03401231461049d578063b24b7ffd146104bb576101df565b80634634c61f14610409578063760fbc13146104255780637bdbe4d01461042f576101df565b806320606b701161017d5780633932abb11161014c5780633932abb1146103815780633e4f49e61461039f57806340e58ee5146103cf578063452a9320146103eb576101df565b806320606b70146102f557806324bc1a641461031357806329c0e5fd14610331578063328dd9821461034f576101df565b80630c340a24116101b95780630c340a241461025b57806311e91b9a1461027957806315373e3d146102a957806317977c61146102c5576101df565b8063013cf08b146101e557806302a251a31461021f57806306fdde031461023d576101df565b60006000fd5b6101ff60048036038101906101fa919061481b565b6105d5565b6040516102169b9a999897969594939291906151fd565b60405180910390f35b6102276107a3565b6040516102349190615c32565b60405180910390f35b6102456107d8565b60405161025291906151e1565b60405180910390f35b610263610879565b6040516102709190615150565b60405180910390f35b610293600480360381019061028e919061463e565b61089d565b6040516102a09190615c32565b60405180910390f35b6102c360048036038101906102be9190614880565b6111f0565b005b6102df60048036038101906102da919061461b565b61120a565b6040516102ec9190615c32565b60405180910390f35b6102fd611225565b60405161030a91906150b5565b60405180910390f35b61031b611249565b6040516103289190615c32565b60405180910390f35b610339611303565b6040516103469190615c32565b60405180910390f35b6103696004803603810190610364919061481b565b61130e565b60405161037893929190614e97565b60405180910390f35b6103896115b2565b6040516103969190615c32565b60405180910390f35b6103b960048036038101906103b4919061481b565b6115c0565b6040516103c691906151c8565b60405180910390f35b6103e960048036038101906103e4919061481b565b6118f5565b005b6103f3611d0e565b6040516104009190614cf1565b60405180910390f35b610423600480360381019061041e91906148b1565b611d34565b005b61042d611f12565b005b610437611fa7565b6040516104449190615c32565b60405180910390f35b610455611fb5565b6040516104629190614cf1565b60405180910390f35b6104856004803603810190610480919061461b565b611fe4565b60405161049493929190614edc565b60405180910390f35b6104a561274e565b6040516104b291906151a0565b60405180910390f35b6104c3612774565b6040516104d09190615c44565b60405180910390f35b6104f360048036038101906104ee919061481b565b612798565b005b6104fd612b0c565b60405161050a9190615c32565b60405180910390f35b61051b612bc6565b6040516105289190615178565b60405180910390f35b610539612bec565b6040516105469190615c44565b60405180910390f35b6105696004803603810190610564919061481b565b612c04565b005b610573612fa2565b60405161058091906150b5565b60405180910390f35b6105a3600480360381019061059e9190614853565b612fc6565b6040516105b09190615c19565b60405180910390f35b6105d360048036038101906105ce919061481b565b6130f2565b005b6005600050602052806000526040600020600091509050806003016000508054600181600116156101000203166002900480601f0160208091040260200160405190810160405280929190818152602001828054600181600116156101000203166002900480156106875780601f1061065c57610100808354040283529160200191610687565b820191906000526020600020905b81548152906001019060200180831161066a57829003601f168201915b5050505050908060040160009054906101000a900473ffffffffffffffffffffffffffffffffffffffff16908060040160149054906101000a900465ffffffffffff169080600401601a9054906101000a900465ffffffffffff16908060050160009054906101000a90046fffffffffffffffffffffffffffffffff16908060050160109054906101000a900465ffffffffffff16908060050160169054906101000a900465ffffffffffff169080600501601c9054906101000a900460ff169080600501601d9054906101000a900460ff16908060060160009054906101000a90046fffffffffffffffffffffffffffffffff16908060060160109054906101000a90046fffffffffffffffffffffffffffffffff1690508b565b60007f000000000000000000000000000000000000000000000000000000000000000065ffffffffffff1690506107d5565b90565b60006000508054600181600116156101000203166002900480601f0160208091040260200160405190810160405280929190818152602001828054600181600116156101000203166002900480156108715780601f1061084657610100808354040283529160200191610871565b820191906000526020600020905b81548152906001019060200180831161085457829003601f168201915b505050505081565b7f000000000000000000000000000000000000000000000000000000000000000081565b60006108ad612b0c63ffffffff16565b600360009054906101000a900473ffffffffffffffffffffffffffffffffffffffff1673ffffffffffffffffffffffffffffffffffffffff1663782d6fe1336108fd43600161334463ffffffff16565b6040518363ffffffff1660e01b815260040161091a929190614d19565b60206040518083038186803b1580156109335760006000fd5b505afa158015610948573d600060003e3d6000fd5b505050506040513d601f19601f8201168201806040525081019061096c9190614837565b1115156109ae576040517f08c379a00000000000000000000000000000000000000000000000000000000081526004016109a59061593d565b60405180910390fd5b835185511480156109c0575082518551145b1515610a01576040517f08c379a00000000000000000000000000000000000000000000000000000000081526004016109f8906156b9565b60405180910390fd5b60008551111515610a47576040517f08c379a0000000000000000000000000000000000000000000000000000000008152600401610a3e906158d8565b60405180910390fd5b610a55611fa763ffffffff16565b855111151515610a9a576040517f08c379a0000000000000000000000000000000000000000000000000000000008152600401610a9190615615565b60405180910390fd5b6000600660005060003373ffffffffffffffffffffffffffffffffffffffff1673ffffffffffffffffffffffffffffffffffffffff1681526020019081526020016000206000505490506000811115610bba576000610afe826115c063ffffffff16565b905060016007811115610b0d57fe5b816007811115610b1957fe5b14151515610b5c576040517f08c379a0000000000000000000000000000000000000000000000000000000008152600401610b5390615a07565b60405180910390fd5b60006007811115610b6957fe5b816007811115610b7557fe5b14151515610bb8576040517f08c379a0000000000000000000000000000000000000000000000000000000008152600401610baf9061558a565b60405180910390fd5b505b6000600090505b8551811015610c1257610c048782815181101515610bdb57fe5b60200260200101518783815181101515610bf157fe5b602002602001015161339b63ffffffff16565b5b8080600101915050610bc1565b506000610c3243610c276115b263ffffffff16565b61342d63ffffffff16565b90506000610c5382610c486107a363ffffffff16565b61342d63ffffffff16565b90506002601481819054906101000a900465ffffffffffff168092919060010191906101000a81548165ffffffffffff021916908365ffffffffffff160217905550506601000000000000600260149054906101000a900465ffffffffffff1665ffffffffffff16101515610cc85760006000fd5b6000604051806101c001604052808a81526020018981526020018881526020018781526020013373ffffffffffffffffffffffffffffffffffffffff168152602001600065ffffffffffff168152602001600260149054906101000a900465ffffffffffff1665ffffffffffff16815260200160006fffffffffffffffffffffffffffffffff168152602001610d638561348b63ffffffff16565b65ffffffffffff168152602001610d7f8461348b63ffffffff16565b65ffffffffffff16815260200160001515815260200160001515815260200160006fffffffffffffffffffffffffffffffff168152602001610e67600360009054906101000a900473ffffffffffffffffffffffffffffffffffffffff1673ffffffffffffffffffffffffffffffffffffffff166318160ddd6040518163ffffffff1660e01b815260040160206040518083038186803b158015610e235760006000fd5b505afa158015610e38573d600060003e3d6000fd5b505050506040513d601f19601f82011682018060405250810190610e5c9190614837565b6134e563ffffffff16565b6fffffffffffffffffffffffffffffffff16815260200150905080600560005060008360c0015165ffffffffffff1681526020019081526020016000206000506000820151816000016000509080519060200190610ec6929190613fde565b506020820151816001016000509080519060200190610ee6929190614068565b506040820151816002016000509080519060200190610f069291906140c8565b506060820151816003016000509080519060200190610f26929190614128565b5060808201518160040160006101000a81548173ffffffffffffffffffffffffffffffffffffffff021916908373ffffffffffffffffffffffffffffffffffffffff16021790555060a08201518160040160146101000a81548165ffffffffffff021916908365ffffffffffff16021790555060c082015181600401601a6101000a81548165ffffffffffff021916908365ffffffffffff16021790555060e08201518160050160006101000a8154816fffffffffffffffffffffffffffffffff02191690836fffffffffffffffffffffffffffffffff1602179055506101008201518160050160106101000a81548165ffffffffffff021916908365ffffffffffff1602179055506101208201518160050160166101000a81548165ffffffffffff021916908365ffffffffffff16021790555061014082015181600501601c6101000a81548160ff02191690831515021790555061016082015181600501601d6101000a81548160ff0219169083151502179055506101808201518160060160006101000a8154816fffffffffffffffffffffffffffffffff02191690836fffffffffffffffffffffffffffffffff1602179055506101a08201518160060160106101000a8154816fffffffffffffffffffffffffffffffff02191690836fffffffffffffffffffffffffffffffff1602179055509050508060c0015165ffffffffffff1660066000506000836080015173ffffffffffffffffffffffffffffffffffffffff1673ffffffffffffffffffffffffffffffffffffffff1681526020019081526020016000206000508190909055503373ffffffffffffffffffffffffffffffffffffffff168160c0015165ffffffffffff167fcd423cc1203c0af96b9b3d68d73b3064a69de2d14450bb7181c5e5df2132b35860405160405180910390a38060c0015165ffffffffffff169450505050506111e856505050505b949350505050565b61120133838361354963ffffffff16565b611206565b5050565b60066000506020528060005260406000206000915090505481565b7f8cad95687ba82c2ce50e74f7b754645e5117c3a5bec8151c0726d5857980a86681565b60006028600360009054906101000a900473ffffffffffffffffffffffffffffffffffffffff1673ffffffffffffffffffffffffffffffffffffffff166318160ddd6040518163ffffffff1660e01b815260040160206040518083038186803b1580156112b65760006000fd5b505afa1580156112cb573d600060003e3d6000fd5b505050506040513d601f19601f820116820180604052508101906112ef9190614837565b8115156112f857fe5b049050611300565b90565b6611c37937e0800081565b6060606060606000600560005060008681526020019081526020016000206000509050806000016000508160010160005082600201600050828054806020026020016040519081016040528092919081815260200182805480156113c757602002820191906000526020600020905b8160009054906101000a900473ffffffffffffffffffffffffffffffffffffffff1673ffffffffffffffffffffffffffffffffffffffff168152602001906001019080831161137d575b5050505050925081805480602002602001604051908101604052809291908181526020016000905b828210156114b0578382906000526020600020900160005b508054600181600116156101000203166002900480601f01602080910402602001604051908101604052809291908181526020018280546001816001161561010002031660029004801561149c5780601f106114715761010080835404028352916020019161149c565b820191906000526020600020905b81548152906001019060200180831161147f57829003601f168201915b5050505050815260200190600101906113ef565b50505050915080805480602002602001604051908101604052809291908181526020016000905b82821015611598578382906000526020600020900160005b508054600181600116156101000203166002900480601f0160208091040260200160405190810160405280929190818152602001828054600181600116156101000203166002900480156115845780601f1061155957610100808354040283529160200191611584565b820191906000526020600020905b81548152906001019060200180831161156757829003601f168201915b5050505050815260200190600101906114d7565b505050509050935093509350506115ab56505b9193909250565b6000600190506115bd565b90565b600081600260149054906101000a900465ffffffffffff1665ffffffffffff16101580156115ee5750600082115b151561162f576040517f08c379a000000000000000000000000000000000000000000000000000000000815260040161162690615442565b60405180910390fd5b600060056000506000848152602001908152602001600020600050905080600501601c9054906101000a900460ff16156116715760029150506118f0566118ee565b8060050160109054906101000a900465ffffffffffff1665ffffffffffff16431115156116a65760009150506118f0566118ed565b8060050160169054906101000a900465ffffffffffff1665ffffffffffff16431115156116db5760019150506118f0566118ec565b8060060160009054906101000a90046fffffffffffffffffffffffffffffffff166fffffffffffffffffffffffffffffffff168160050160009054906101000a90046fffffffffffffffffffffffffffffffff166fffffffffffffffffffffffffffffffff1611158061178c575061175761124963ffffffff16565b8160050160009054906101000a90046fffffffffffffffffffffffffffffffff166fffffffffffffffffffffffffffffffff16105b1561179f5760039150506118f0566118eb565b60008160040160149054906101000a900465ffffffffffff1665ffffffffffff1614156117d45760049150506118f0566118ea565b80600501601d9054906101000a900460ff16156117f95760079150506118f0566118e9565b6118c88160040160149054906101000a900465ffffffffffff1665ffffffffffff16600160009054906101000a900473ffffffffffffffffffffffffffffffffffffffff1673ffffffffffffffffffffffffffffffffffffffff1663c1a287e26040518163ffffffff1660e01b815260040160206040518083038186803b1580156118845760006000fd5b505afa158015611899573d600060003e3d6000fd5b505050506040513d601f19601f820116820180604052508101906118bd9190614837565b61342d63ffffffff16565b421015156118de5760069150506118f0566118e8565b60059150506118f0565b5b5b5b5b5b5b505b919050565b6007600781111561190257fe5b611911826115c063ffffffff16565b600781111561191c57fe5b1415151561195f576040517f08c379a000000000000000000000000000000000000000000000000000000000815260040161195690615ad1565b60405180910390fd5b60006005600050600083815260200190815260200160002060005090508060050160169054906101000a900465ffffffffffff1665ffffffffffff16431015156119de576040517f08c379a00000000000000000000000000000000000000000000000000000000081526004016119d590615873565b60405180910390fd5b600260009054906101000a900473ffffffffffffffffffffffffffffffffffffffff1673ffffffffffffffffffffffffffffffffffffffff163373ffffffffffffffffffffffffffffffffffffffff161480611b285750611a43612b0c63ffffffff16565b600360009054906101000a900473ffffffffffffffffffffffffffffffffffffffff1673ffffffffffffffffffffffffffffffffffffffff1663782d6fe18360040160009054906101000a900473ffffffffffffffffffffffffffffffffffffffff16611ab743600161334463ffffffff16565b6040518363ffffffff1660e01b8152600401611ad4929190614e31565b60206040518083038186803b158015611aed5760006000fd5b505afa158015611b02573d600060003e3d6000fd5b505050506040513d601f19601f82011682018060405250810190611b269190614837565b105b1515611b69576040517f08c379a0000000000000000000000000000000000000000000000000000000008152600401611b6090615744565b60405180910390fd5b600181600501601c6101000a81548160ff0219169083151502179055506000600090505b8160000160005080549050811015611cdb57600160009054906101000a900473ffffffffffffffffffffffffffffffffffffffff1673ffffffffffffffffffffffffffffffffffffffff16624b1f128360000160005083815481101515611bf057fe5b906000526020600020900160005b9054906101000a900473ffffffffffffffffffffffffffffffffffffffff168460010160005084815481101515611c3157fe5b906000526020600020900160005b508560020160005085815481101515611c5457fe5b906000526020600020900160005b508660040160149054906101000a900465ffffffffffff166040518563ffffffff1660e01b8152600401611c999493929190614dd5565b600060405180830381600087803b158015611cb45760006000fd5b505af1158015611cc9573d600060003e3d6000fd5b505050505b8080600101915050611b8d565b50817f789cf55be980739dad1d0699b93b58e806b51c9d96619bfa8fe0a28abaa7b30c60405160405180910390a2505b50565b600260009054906101000a900473ffffffffffffffffffffffffffffffffffffffff1681565b60007f8cad95687ba82c2ce50e74f7b754645e5117c3a5bec8151c0726d5857980a8666000600050604051611d699190614c1a565b6040518091039020611d7f613a2063ffffffff16565b30604051602001611d9394939291906150c7565b60405160208183030381529060405280519060200120905060007f8e25870c07e0b0b3884c78da52790939a455c275406c44ae8b434b692fb916ee8787604051602001611de293929190615104565b60405160208183030381529060405280519060200120905060008282604051602001611e0f929190614cb2565b604051602081830303815290604052805190602001209050600060018288888860405160008152602001604052604051611e4c9493929190615126565b6020604051602081039080840390855afa158015611e6f573d600060003e3d6000fd5b505050602060405103519050600073ffffffffffffffffffffffffffffffffffffffff168173ffffffffffffffffffffffffffffffffffffffff1614151515611eed576040517f08c379a0000000000000000000000000000000000000000000000000000000008152600401611ee4906159a2565b60405180910390fd5b611efe818a8a61354963ffffffff16565b50505050611f0b56505050505b5050505050565b611f2133613a3463ffffffff16565b1515611f62576040517f08c379a0000000000000000000000000000000000000000000000000000000008152600401611f59906154e6565b60405180910390fd5b6000600260006101000a81548173ffffffffffffffffffffffffffffffffffffffff021916908373ffffffffffffffffffffffffffffffffffffffff1602179055505b565b6000600a9050611fb2565b90565b6000600360009054906101000a900473ffffffffffffffffffffffffffffffffffffffff169050611fe1565b90565b6060606060606000600260149054906101000a900465ffffffffffff1665ffffffffffff1690508067ffffffffffffffff811180156120235760006000fd5b5060405190808252806020026020018201604052801561205d57816020015b61204a6141bb565b8152602001906001900390816120425790505b50935083508067ffffffffffffffff8111801561207a5760006000fd5b506040519080825280602002602001820160405280156120a95781602001602082028036833780820191505090505b50925082508067ffffffffffffffff811180156120c65760006000fd5b5060405190808252806020026020018201604052801561210057816020015b6120ed61429d565b8152602001906001900390816120e55790505b50915081506000600190505b818165ffffffffffff1611151561274457600560005060008265ffffffffffff168152602001908152602001600020600050604051806101c0016040529081600082016000508054806020026020016040519081016040528092919081815260200182805480156121d257602002820191906000526020600020905b8160009054906101000a900473ffffffffffffffffffffffffffffffffffffffff1673ffffffffffffffffffffffffffffffffffffffff1681526020019060010190808311612188575b5050505050815260200160018201600050805480602002602001604051908101604052809291908181526020016000905b828210156122c4578382906000526020600020900160005b508054600181600116156101000203166002900480601f0160208091040260200160405190810160405280929190818152602001828054600181600116156101000203166002900480156122b05780601f10612285576101008083540402835291602001916122b0565b820191906000526020600020905b81548152906001019060200180831161229357829003601f168201915b505050505081526020019060010190612203565b50505050815260200160028201600050805480602002602001604051908101604052809291908181526020016000905b828210156123b5578382906000526020600020900160005b508054600181600116156101000203166002900480601f0160208091040260200160405190810160405280929190818152602001828054600181600116156101000203166002900480156123a15780601f10612376576101008083540402835291602001916123a1565b820191906000526020600020905b81548152906001019060200180831161238457829003601f168201915b5050505050815260200190600101906122f4565b505050508152602001600382016000508054600181600116156101000203166002900480601f0160208091040260200160405190810160405280929190818152602001828054600181600116156101000203166002900480156124595780601f1061242e57610100808354040283529160200191612459565b820191906000526020600020905b81548152906001019060200180831161243c57829003601f168201915b505050505081526020016004820160009054906101000a900473ffffffffffffffffffffffffffffffffffffffff1673ffffffffffffffffffffffffffffffffffffffff1673ffffffffffffffffffffffffffffffffffffffff1681526020016004820160149054906101000a900465ffffffffffff1665ffffffffffff1665ffffffffffff16815260200160048201601a9054906101000a900465ffffffffffff1665ffffffffffff1665ffffffffffff1681526020016005820160009054906101000a90046fffffffffffffffffffffffffffffffff166fffffffffffffffffffffffffffffffff166fffffffffffffffffffffffffffffffff1681526020016005820160109054906101000a900465ffffffffffff1665ffffffffffff1665ffffffffffff1681526020016005820160169054906101000a900465ffffffffffff1665ffffffffffff1665ffffffffffff16815260200160058201601c9054906101000a900460ff1615151515815260200160058201601d9054906101000a900460ff161515151581526020016006820160009054906101000a90046fffffffffffffffffffffffffffffffff166fffffffffffffffffffffffffffffffff166fffffffffffffffffffffffffffffffff1681526020016006820160109054906101000a90046fffffffffffffffffffffffffffffffff166fffffffffffffffffffffffffffffffff166fffffffffffffffffffffffffffffffff1681526020015050856001830365ffffffffffff1681518110151561269857fe5b60200260200101819052506126ba8165ffffffffffff166115c063ffffffff16565b846001830365ffffffffffff168151811015156126d357fe5b602002602001019060078111156126e657fe5b908160078111156126f357fe5b815260200150506127128165ffffffffffff1687612fc663ffffffff16565b836001830365ffffffffffff1681518110151561272b57fe5b60200260200101819052505b808060010191505061210c565b50505b9193909250565b600360009054906101000a900473ffffffffffffffffffffffffffffffffffffffff1681565b7f000000000000000000000000000000000000000000000000000000000000000081565b6127a781613b4063ffffffff16565b15156127e8576040517f08c379a00000000000000000000000000000000000000000000000000000000081526004016127df906153c4565b60405180910390fd5b6004600050600082815260200190815260200160002060005060003373ffffffffffffffffffffffffffffffffffffffff1673ffffffffffffffffffffffffffffffffffffffff16815260200190815260200160002060005060000160009054906101000a900460ff161515612893576040517f08c379a000000000000000000000000000000000000000000000000000000000815260040161288a906154a7565b60405180910390fd5b60006004600050600083815260200190815260200160002060005060003373ffffffffffffffffffffffffffffffffffffffff1673ffffffffffffffffffffffffffffffffffffffff16815260200190815260200160002060005090508060000160029054906101000a900460ff16151515612944576040517f08c379a000000000000000000000000000000000000000000000000000000000815260040161293b906157a9565b60405180910390fd5b60018160000160026101000a81548160ff021916908315150217905550600060056000506000848152602001908152602001600020600050905060008260000160039054906101000a900476ffffffffffffffffffffffffffffffffffffffffffffff1676ffffffffffffffffffffffffffffffffffffffffffffff1690506000612a398360050160009054906101000a90046fffffffffffffffffffffffffffffffff166fffffffffffffffffffffffffffffffff168460060160009054906101000a90046fffffffffffffffffffffffffffffffff166fffffffffffffffffffffffffffffffff1661342d63ffffffff16565b90506000612a896611c37937e080008560060160109054906101000a90046fffffffffffffffffffffffffffffffff166fffffffffffffffffffffffffffffffff16613be090919063ffffffff16565b90506000612aa2848484613c069092919063ffffffff16565b9050612ab43382613d0763ffffffff16565b3373ffffffffffffffffffffffffffffffffffffffff167f56cd411799f8eaf36ff267057223a17836afa0a91a109fe7e102ef919e6fa19d82604051612afa9190615c32565b60405180910390a25050505050505b50565b600060c8600360009054906101000a900473ffffffffffffffffffffffffffffffffffffffff1673ffffffffffffffffffffffffffffffffffffffff166318160ddd6040518163ffffffff1660e01b815260040160206040518083038186803b158015612b795760006000fd5b505afa158015612b8e573d600060003e3d6000fd5b505050506040513d601f19601f82011682018060405250810190612bb29190614837565b811515612bbb57fe5b049050612bc3565b90565b600160009054906101000a900473ffffffffffffffffffffffffffffffffffffffff1681565b600260149054906101000a900465ffffffffffff1681565b60046007811115612c1157fe5b612c20826115c063ffffffff16565b6007811115612c2b57fe5b141515612c6d576040517f08c379a0000000000000000000000000000000000000000000000000000000008152600401612c64906152ae565b60405180910390fd5b60006005600050600083815260200190815260200160002060005090506000612d3d42600160009054906101000a900473ffffffffffffffffffffffffffffffffffffffff1673ffffffffffffffffffffffffffffffffffffffff16636a42b8f86040518163ffffffff1660e01b815260040160206040518083038186803b158015612cf95760006000fd5b505afa158015612d0e573d600060003e3d6000fd5b505050506040513d601f19601f82011682018060405250810190612d329190614837565b61342d63ffffffff16565b90506000600090505b8260000160005080549050811015612f2e57612f208360000160005082815481101515612d6f57fe5b906000526020600020900160005b9054906101000a900473ffffffffffffffffffffffffffffffffffffffff168460010160005083815481101515612db057fe5b906000526020600020900160005b508054600181600116156101000203166002900480601f016020809104026020016040519081016040528092919081815260200182805460018160011615610100020316600290048015612e535780601f10612e2857610100808354040283529160200191612e53565b820191906000526020600020905b815481529060010190602001808311612e3657829003601f168201915b50505050508560020160005084815481101515612e6c57fe5b906000526020600020900160005b508054600181600116156101000203166002900480601f016020809104026020016040519081016040528092919081815260200182805460018160011615610100020316600290048015612f0f5780601f10612ee457610100808354040283529160200191612f0f565b820191906000526020600020905b815481529060010190602001808311612ef257829003601f168201915b505050505085613d9b63ffffffff16565b5b8080600101915050612d46565b50612f3e8161348b63ffffffff16565b8260040160146101000a81548165ffffffffffff021916908365ffffffffffff160217905550827f9a2e42fd6722813d69113e7d0079d3d940171428df7373df9c7f7617cfda289282604051612f949190615c32565b60405180910390a250505b50565b7f8e25870c07e0b0b3884c78da52790939a455c275406c44ae8b434b692fb916ee81565b612fce61429d565b6004600050600084815260200190815260200160002060005060008373ffffffffffffffffffffffffffffffffffffffff1673ffffffffffffffffffffffffffffffffffffffff1681526020019081526020016000206000506040518060800160405290816000820160009054906101000a900460ff161515151581526020016000820160019054906101000a900460ff161515151581526020016000820160029054906101000a900460ff161515151581526020016000820160039054906101000a900476ffffffffffffffffffffffffffffffffffffffffffffff1676ffffffffffffffffffffffffffffffffffffffffffffff1676ffffffffffffffffffffffffffffffffffffffffffffff168152602001505090506130ec565b92915050565b600560078111156130ff57fe5b61310e826115c063ffffffff16565b600781111561311957fe5b14151561315b576040517f08c379a000000000000000000000000000000000000000000000000000000000815260040161315290615339565b60405180910390fd5b6000600560005060008381526020019081526020016000206000509050600181600501601d6101000a81548160ff0219169083151502179055506000600090505b816000016000508054905081101561331157600160009054906101000a900473ffffffffffffffffffffffffffffffffffffffff1673ffffffffffffffffffffffffffffffffffffffff16633ec5ab32836000016000508381548110151561320057fe5b906000526020600020900160005b9054906101000a900473ffffffffffffffffffffffffffffffffffffffff16846001016000508481548110151561324157fe5b906000526020600020900160005b50856002016000508581548110151561326457fe5b906000526020600020900160005b508660040160149054906101000a900465ffffffffffff166040518563ffffffff1660e01b81526004016132a99493929190614dd5565b600060405180830381600087803b1580156132c45760006000fd5b505af11580156132d9573d600060003e3d6000fd5b505050506040513d6000823e3d601f19601f82011682018060405250810190613302919061479a565b505b808060010191505061319c565b50817f712ae1383f79ac853f8d882153778e0260ef8f03b504e2866e0593e04d2b291f60405160405180910390a2505b50565b600082821115151561338b576040517f08c379a000000000000000000000000000000000000000000000000000000000815260040161338290615bda565b60405180910390fd5b8183039050613395565b92915050565b7f000000000000000000000000000000000000000000000000000000000000000073ffffffffffffffffffffffffffffffffffffffff1663a43c36af83836040518363ffffffff1660e01b81526004016133f6929190614d48565b60006040518083038186803b15801561340f5760006000fd5b505afa158015613424573d600060003e3d6000fd5b505050505b5050565b60006000828401905083811015151561347b576040517f08c379a00000000000000000000000000000000000000000000000000000000081526004016134729061567a565b60405180910390fd5b8091505061348556505b92915050565b60006601000000000000821015156134d8576040517f08c379a00000000000000000000000000000000000000000000000000000000081526004016134cf90615a92565b60405180910390fd5b8190506134e0565b919050565b60007001000000000000000000000000000000008210151561353c576040517f08c379a000000000000000000000000000000000000000000000000000000000815260040161353390615403565b60405180910390fd5b819050613544565b919050565b6001600781111561355657fe5b613565836115c063ffffffff16565b600781111561357057fe5b1415156135b2576040517f08c379a00000000000000000000000000000000000000000000000000000000081526004016135a990615b36565b60405180910390fd5b6000600560005060008481526020019081526020016000206000509050600015156004600050600085815260200190815260200160002060005060008673ffffffffffffffffffffffffffffffffffffffff1673ffffffffffffffffffffffffffffffffffffffff16815260200190815260200160002060005060000160009054906101000a900460ff161515141515613681576040517f08c379a000000000000000000000000000000000000000000000000000000000815260040161367890615525565b60405180910390fd5b6000600360009054906101000a900473ffffffffffffffffffffffffffffffffffffffff1673ffffffffffffffffffffffffffffffffffffffff1663782d6fe1868460050160109054906101000a900465ffffffffffff166040518363ffffffff1660e01b81526004016136f6929190614e60565b60206040518083038186803b15801561370f5760006000fd5b505afa158015613724573d600060003e3d6000fd5b505050506040513d601f19601f820116820180604052508101906137489190614837565b905082156137df576137a06137958360050160009054906101000a90046fffffffffffffffffffffffffffffffff166fffffffffffffffffffffffffffffffff168361342d63ffffffff16565b6134e563ffffffff16565b8260050160006101000a8154816fffffffffffffffffffffffffffffffff02191690836fffffffffffffffffffffffffffffffff16021790555061386a565b61382f6138248360060160009054906101000a90046fffffffffffffffffffffffffffffffff166fffffffffffffffffffffffffffffffff168361342d63ffffffff16565b6134e563ffffffff16565b8260060160006101000a8154816fffffffffffffffffffffffffffffffff02191690836fffffffffffffffffffffffffffffffff1602179055505b6040518060800160405280600115158152602001841515815260200160001515815260200161389e83613f7363ffffffff16565b76ffffffffffffffffffffffffffffffffffffffffffffff168152602001506004600050600086815260200190815260200160002060005060008773ffffffffffffffffffffffffffffffffffffffff1673ffffffffffffffffffffffffffffffffffffffff16815260200190815260200160002060005060008201518160000160006101000a81548160ff02191690831515021790555060208201518160000160016101000a81548160ff02191690831515021790555060408201518160000160026101000a81548160ff02191690831515021790555060608201518160000160036101000a81548176ffffffffffffffffffffffffffffffffffffffffffffff021916908376ffffffffffffffffffffffffffffffffffffffffffffff160217905550905050821515848673ffffffffffffffffffffffffffffffffffffffff167f877856338e13f63d0c36822ff0ef736b80934cd90574a3a5bc9262c39d217c4684604051613a109190615c32565b60405180910390a450505b505050565b6000600046905080915050613a3156505b90565b6000600260009054906101000a900473ffffffffffffffffffffffffffffffffffffffff1673ffffffffffffffffffffffffffffffffffffffff168273ffffffffffffffffffffffffffffffffffffffff161480613b34575060017f000000000000000000000000000000000000000000000000000000000000000073ffffffffffffffffffffffffffffffffffffffff1663055ad42e6040518163ffffffff1660e01b815260040160206040518083038186803b158015613af65760006000fd5b505afa158015613b0b573d600060003e3d6000fd5b505050506040513d601f19601f82011682018060405250810190613b2f919061490b565b60ff16115b9050613b3b565b919050565b60006000613b53836115c063ffffffff16565b905060046007811115613b6257fe5b816007811115613b6e57fe5b1480613b90575060036007811115613b8257fe5b816007811115613b8e57fe5b145b80613bb1575060056007811115613ba357fe5b816007811115613baf57fe5b145b80613bd2575060076007811115613bc457fe5b816007811115613bd057fe5b145b915050613bdb56505b919050565b6000613bfb8383670de0b6b3a7640000613c0663ffffffff16565b905080505b92915050565b6000600060006000198587098587029250828110838203039150506000811415613c4957600084111515613c3a5760006000fd5b83820492508292505050613d00565b8084111515613c585760006000fd5b6000848688099050828111820391508083039250600085866000031690508086049550808404935060018182600003040190508083028417935083506000600287600302189050808702600203810290508050808702600203810290508050808702600203810290508050808702600203810290508050808702600203810290508050808702600203810290508050808502955085508595505050505050613d005650505050505b9392505050565b7f000000000000000000000000000000000000000000000000000000000000000073ffffffffffffffffffffffffffffffffffffffff16630793298783836040518363ffffffff1660e01b8152600401613d62929190614e31565b600060405180830381600087803b158015613d7d5760006000fd5b505af1158015613d92573d600060003e3d6000fd5b505050505b5050565b600160009054906101000a900473ffffffffffffffffffffffffffffffffffffffff1673ffffffffffffffffffffffffffffffffffffffff1663f2b0653785858585604051602001613df09493929190614d81565b604051602081830303815290604052805190602001206040518263ffffffff1660e01b8152600401613e2291906150b5565b60206040518083038186803b158015613e3b5760006000fd5b505afa158015613e50573d600060003e3d6000fd5b505050506040513d601f19601f82011682018060405250810190613e749190614757565b151515613eb6576040517f08c379a0000000000000000000000000000000000000000000000000000000008152600401613ead906157e8565b60405180910390fd5b600160009054906101000a900473ffffffffffffffffffffffffffffffffffffffff1673ffffffffffffffffffffffffffffffffffffffff16630e70eace858585856040518563ffffffff1660e01b8152600401613f179493929190614d81565b602060405180830381600087803b158015613f325760006000fd5b505af1158015613f47573d600060003e3d6000fd5b505050506040513d601f19601f82011682018060405250810190613f6b919061477e565b505b50505050565b60007701000000000000000000000000000000000000000000000082101515613fd1576040517f08c379a0000000000000000000000000000000000000000000000000000000008152600401613fc890615b9b565b60405180910390fd5b819050613fd9565b919050565b828054828255906000526020600020908101928215614057579160200282015b828111156140565782518260006101000a81548173ffffffffffffffffffffffffffffffffffffffff021916908373ffffffffffffffffffffffffffffffffffffffff16021790555091602001919060010190613ffe565b5b50905061406491906142e7565b5090565b8280548282559060005260206000209081019282156140b7579160200282015b828111156140b65782518290805190602001906140a6929190614128565b5091602001919060010190614088565b5b5090506140c4919061430a565b5090565b828054828255906000526020600020908101928215614117579160200282015b82811115614116578251829080519060200190614106929190614332565b50916020019190600101906140e8565b5b50905061412491906143c5565b5090565b828054600181600116156101000203166002900490600052602060002090601f01602090048101928261415e57600085556141aa565b82601f1061417757805160ff19168380011785556141aa565b828001600101855582156141aa579182015b828111156141a95782518260005090905591602001919060010190614189565b5b5090506141b791906142e7565b5090565b604051806101c0016040528060608152602001606081526020016060815260200160608152602001600073ffffffffffffffffffffffffffffffffffffffff168152602001600065ffffffffffff168152602001600065ffffffffffff16815260200160006fffffffffffffffffffffffffffffffff168152602001600065ffffffffffff168152602001600065ffffffffffff16815260200160001515815260200160001515815260200160006fffffffffffffffffffffffffffffffff16815260200160006fffffffffffffffffffffffffffffffff1681526020015090565b6040518060800160405280600015158152602001600015158152602001600015158152602001600076ffffffffffffffffffffffffffffffffffffffffffffff1681526020015090565b6142ec565b8082111561430657600081815060009055506001016142ec565b5090565b61430f565b8082111561432e576000818161432591906143ed565b5060010161430f565b5090565b828054600181600116156101000203166002900490600052602060002090601f01602090048101928261436857600085556143b4565b82601f1061438157805160ff19168380011785556143b4565b828001600101855582156143b4579182015b828111156143b35782518260005090905591602001919060010190614393565b5b5090506143c191906142e7565b5090565b6143ca565b808211156143e957600081816143e09190614435565b506001016143ca565b5090565b50805460018160011615610100020316600290046000825580601f106144135750614432565b601f01602090049060005260206000209081019061443191906142e7565b5b50565b50805460018160011615610100020316600290046000825580601f1061445b575061447a565b601f01602090049060005260206000209081019061447991906142e7565b5b5056615d62565b600061449461448f84615cac565b615c5e565b90508281528383830111156144a95760006000fd5b828260208301376000602084830101525b9392505050565b60008135905073ffffffffffffffffffffffffffffffffffffffff8116811415156144ec5760006000fd5b5b919050565b600082601f8301121515614504578081fd5b8135602061451961451483615c89565b615c5e565b808382528282019150828601855b8581101561456d578135880189603f8201121515614543578788fd5b6145548a8783013560408401614481565b855250848401935084820191505b600181019050614527565b5050809450505050505b92915050565b600082601f830112151561458f578081fd5b813560206145a461459f83615c89565b615c5e565b808382528282019150828601855b858110156145e1576145c9898684358b01016145f1565b8452848401935084820191505b6001810190506145b2565b5050809450505050505b92915050565b600082601f8301121515614603578081fd5b61461283833560208501614481565b90505b92915050565b60006020828403121561462c578081fd5b614635826144c1565b90505b92915050565b600060006000600060808587031215614655578283fd5b843567ffffffffffffffff8082111561466c578485fd5b818701915087601f8301121515614681578485fd5b8135602061469661469183615c89565b615c5e565b8083825282820191508286018c8485870289010111156146b457898afd5b8996505b848710156146e1576146c9816144c1565b8352838301925083810190505b6001870196506146b8565b5080995050508089013593505050808211156146fb578485fd5b6147078883890161457d565b9450604087013591508082111561471c578384fd5b614728888389016144f2565b9350606087013591508082111561473d578283fd5b5061474a878288016145f1565b9150505b92959194509250565b600060208284031215614768578081fd5b815161477381615d37565b809150505b92915050565b60006020828403121561478f578081fd5b815190505b92915050565b6000602082840312156147ab578081fd5b815167ffffffffffffffff8111156147c1578182fd5b808301905083601f82011215156147d6578182fd5b80516147e96147e482615cac565b615c5e565b8181528560208385010111156147fd578384fd5b61480e826020830160208601615d02565b8093505050505b92915050565b60006020828403121561482c578081fd5b813590505b92915050565b600060208284031215614848578081fd5b815190505b92915050565b6000600060408385031215614866578182fd5b82359150614876602084016144c1565b90505b9250929050565b6000600060408385031215614893578182fd5b8235915060208301356148a581615d37565b809150505b9250929050565b6000600060006000600060a086880312156148ca578283fd5b8535945060208601356148dc81615d37565b8094505060408601356148ee81615d4c565b8093505060608601359150608086013590505b9295509295909350565b60006020828403121561491c578081fd5b815161492781615d4c565b809150505b92915050565b73ffffffffffffffffffffffffffffffffffffffff811682525b5050565b6000815180845260208085019450808401835b8381101561499b5773ffffffffffffffffffffffffffffffffffffffff8251168752828701965082820191505b600181019050614963565b505050508290505b92915050565b6000815180845260208085018081965082840281019150828601855b858110156149f55782840389526149dd848351614aa4565b9350848201915084890198505b6001810190506149c5565b5050508093505050505b92915050565b6000815180845260208085019450808401835b83811015614a4157614a2b878351614b96565b828701965082820191505b600181019050614a18565b505050508290505b92915050565b6000815180845260208085019450808401835b83811015614a8c57614a75878351614baa565b60808701965082820191505b600181019050614a62565b505050508290505b92915050565b80151582525b5050565b60008151808452614abc816020860160208601615d02565b60207fffffffffffffffffffffffffffffffffffffffffffffffffffffffffffffffe0601f8301168501019150505b92915050565b60008154600180821660008114614b0f5760018114614b4b57614b8c565b607f600284041686527fffffffffffffffffffffffffffffffffffffffffffffffffffffffffffffff0083166020870152604086019350614b8c565b60028304808752614b5b86615cf1565b60005b82811015614b805781546020828b01015284820191505b602081019050614b5e565b6020818a010196505050505b5050505b92915050565b600881101515614ba257fe5b8082525b5050565b80511515825260208101511515602083015260408101511515604083015276ffffffffffffffffffffffffffffffffffffffffffffff60608201511660608301525b5050565b6fffffffffffffffffffffffffffffffff811682525b5050565b65ffffffffffff811682525b5050565b6000808354600180821660008114614c395760018114614c6e57614ca4565b7fffffffffffffffffffffffffffffffffffffffffffffffffffffffffffffff0083168652607f600284041686019350614ca4565b600283048786526020808720875b83811015614c9a578154818b015285820191505b8281019050614c7c565b5050508087019450505b505050809150505b92915050565b60007f190100000000000000000000000000000000000000000000000000000000000082528360028301528260228301526042820190505b9392505050565b600060208201905073ffffffffffffffffffffffffffffffffffffffff831682525b92915050565b600060408201905073ffffffffffffffffffffffffffffffffffffffff841682528260208301525b9392505050565b600073ffffffffffffffffffffffffffffffffffffffff8416825260406020830152614d776040830184614aa4565b90505b9392505050565b600073ffffffffffffffffffffffffffffffffffffffff8616825260806020830152614db06080830186614aa4565b8281036040840152614dc28186614aa4565b9150508260608301525b95945050505050565b600073ffffffffffffffffffffffffffffffffffffffff8616825260806020830152614e046080830186614af1565b8281036040840152614e168186614af1565b91505065ffffffffffff831660608301525b95945050505050565b600060408201905073ffffffffffffffffffffffffffffffffffffffff841682528260208301525b9392505050565b600060408201905073ffffffffffffffffffffffffffffffffffffffff8416825265ffffffffffff831660208301525b9392505050565b600060608252614eaa6060830186614950565b8281036020840152614ebc81866149a9565b90508281036040840152614ed081856149a9565b9150505b949350505050565b60006060808301818452808751808352608092508286019150602083818302880101818b01875b8481101561507d577fffffffffffffffffffffffffffffffffffffffffffffffffffffffffffffff808a840301865281516101c08151818652614f4882870182614950565b9150508582015185820387870152614f6082826149a9565b91505060408083015186830382880152614f7a83826149a9565b92505050898201518582038b870152614f938282614aa4565b91505088820151614fa68a870182614932565b5060a080830151614fb982880182614c0a565b505060c080830151614fcd82880182614c0a565b505060e080830151614fe182880182614bf0565b505061010080830151614ff682880182614c0a565b50506101208083015161500b82880182614c0a565b50506101408083015161502082880182614a9a565b50506101608083015161503582880182614a9a565b50506101808083015161504a82880182614bf0565b50506101a080830151925061506181870184614bf0565b508094505050838201915083860195505b600181019050614f03565b505087810382890152615090818b614a05565b9550505050505082810360408401526150a98185614a4f565b9150505b949350505050565b60006020820190508282525b92915050565b600060808201905085825284602083015283604083015273ffffffffffffffffffffffffffffffffffffffff831660608301525b95945050505050565b600060608201905084825283602083015282151560408301525b949350505050565b600060808201905085825260ff851660208301528360408301528260608301525b95945050505050565b600060208201905073ffffffffffffffffffffffffffffffffffffffff831682525b92915050565b600060208201905073ffffffffffffffffffffffffffffffffffffffff831682525b92915050565b600060208201905073ffffffffffffffffffffffffffffffffffffffff831682525b92915050565b60006020820190506151da8284614b96565b5b92915050565b6000602082526151f46020830184614aa4565b90505b92915050565b60006101608083526152118184018f614aa4565b91505073ffffffffffffffffffffffffffffffffffffffff8c16602083015265ffffffffffff808c166040840152808b1660608401526fffffffffffffffffffffffffffffffff8a16608084015280891660a084015280881660c08401525085151560e083015284151561010083015261528f610120830185614bf0565b61529d610140830184614bf0565b5b9c9b505050505050505050505050565b600060208252604460208301527f476f7665726e6f72416c7068613a3a71756575653a2070726f706f73616c206360408301527f616e206f6e6c792062652071756575656420696620697420697320737563636560608301527f6564656400000000000000000000000000000000000000000000000000000000608083015260a0820190505b919050565b600060208252604560208301527f476f7665726e6f72416c7068613a3a657865637574653a2070726f706f73616c60408301527f2063616e206f6e6c79206265206578656375746564206966206974206973207160608301527f7565756564000000000000000000000000000000000000000000000000000000608083015260a0820190505b919050565b600060208252601560208301527f50726f706f73616c206e6f7420636f6d706c657465000000000000000000000060408301526060820190505b919050565b600060208252601060208301527f457863656564732031323820626974730000000000000000000000000000000060408301526060820190505b919050565b600060208252602960208301527f476f7665726e6f72416c7068613a3a73746174653a20696e76616c696420707260408301527f6f706f73616c206964000000000000000000000000000000000000000000000060608301526080820190505b919050565b600060208252600d60208301527f486173206e6f7420766f7465640000000000000000000000000000000000000060408301526060820190505b919050565b600060208252600e60208301527f4e6f7420417574686f72697a656400000000000000000000000000000000000060408301526060820190505b919050565b600060208252602d60208301527f476f7665726e6f72416c7068613a3a5f63617374566f74653a20766f7465722060408301527f616c726561647920766f7465640000000000000000000000000000000000000060608301526080820190505b919050565b600060208252605960208301527f476f7665726e6f72416c7068613a3a70726f706f73653a206f6e65206c69766560408301527f2070726f706f73616c207065722070726f706f7365722c20666f756e6420616e60608301527f20616c72656164792070656e64696e672070726f706f73616c00000000000000608083015260a0820190505b919050565b600060208252602860208301527f476f7665726e6f72416c7068613a3a70726f706f73653a20746f6f206d616e7960408301527f20616374696f6e7300000000000000000000000000000000000000000000000060608301526080820190505b919050565b600060208252601160208301527f6164646974696f6e206f766572666c6f7700000000000000000000000000000060408301526060820190505b919050565b600060208252604460208301527f476f7665726e6f72416c7068613a3a70726f706f73653a2070726f706f73616c60408301527f2066756e6374696f6e20696e666f726d6174696f6e206172697479206d69736d60608301527f6174636800000000000000000000000000000000000000000000000000000000608083015260a0820190505b919050565b600060208252602f60208301527f476f7665726e6f72416c7068613a3a63616e63656c3a2070726f706f7365722060408301527f61626f7665207468726573686f6c64000000000000000000000000000000000060608301526080820190505b919050565b600060208252601860208301527f5265776172647320616c7265616479207265636569766564000000000000000060408301526060820190505b919050565b600060208252604460208301527f476f7665726e6f72416c7068613a3a5f71756575654f725265766572743a207060408301527f726f706f73616c20616374696f6e20616c72656164792071756575656420617460608301527f2065746100000000000000000000000000000000000000000000000000000000608083015260a0820190505b919050565b600060208252602560208301527f43616e742063616e63656c20616674657220766f74696e6720697320636f6d7060408301527f6c6574656400000000000000000000000000000000000000000000000000000060608301526080820190505b919050565b600060208252602c60208301527f476f7665726e6f72416c7068613a3a70726f706f73653a206d7573742070726f60408301527f7669646520616374696f6e73000000000000000000000000000000000000000060608301526080820190505b919050565b600060208252603f60208301527f476f7665726e6f72416c7068613a3a70726f706f73653a2070726f706f73657260408301527f20766f7465732062656c6f772070726f706f73616c207468726573686f6c640060608301526080820190505b919050565b600060208252602f60208301527f476f7665726e6f72416c7068613a3a63617374566f746542795369673a20696e60408301527f76616c6964207369676e6174757265000000000000000000000000000000000060608301526080820190505b919050565b600060208252605860208301527f476f7665726e6f72416c7068613a3a70726f706f73653a206f6e65206c69766560408301527f2070726f706f73616c207065722070726f706f7365722c20666f756e6420616e60608301527f20616c7265616479206163746976652070726f706f73616c0000000000000000608083015260a0820190505b919050565b600060208252600f60208301527f457863656564732034382062697473000000000000000000000000000000000060408301526060820190505b919050565b600060208252603660208301527f476f7665726e6f72416c7068613a3a63616e63656c3a2063616e6e6f7420636160408301527f6e63656c2065786563757465642070726f706f73616c0000000000000000000060608301526080820190505b919050565b600060208252602a60208301527f476f7665726e6f72416c7068613a3a5f63617374566f74653a20766f74696e6760408301527f20697320636c6f7365640000000000000000000000000000000000000000000060608301526080820190505b919050565b600060208252601060208301527f457863656564732031383420626974730000000000000000000000000000000060408301526060820190505b919050565b600060208252601560208301527f7375627472616374696f6e20756e646572666c6f77000000000000000000000060408301526060820190505b919050565b6000608082019050615c2b8284614baa565b5b92915050565b60006020820190508282525b92915050565b600060208201905065ffffffffffff831682525b92915050565b6000604051905081810181811067ffffffffffffffff82111715615c7e57fe5b80604052505b919050565b600067ffffffffffffffff821115615c9d57fe5b6020602083020190505b919050565b600067ffffffffffffffff821115615cc057fe5b60207fffffffffffffffffffffffffffffffffffffffffffffffffffffffffffffffe0601f8401160190505b919050565b60008181526020812090505b919050565b60005b83811015615d215780820151818401525b602081019050615d05565b83811115615d30576000848401525b505b505050565b80151581141515615d485760006000fd5b5b50565b60ff811681141515615d5e5760006000fd5b5b50565bfea2646970667358221220b4db893555589c9dff8b0175bd560649e0b6f9432c7253a8f0d49175f42d62f664736f6c63430007060033",
  "linkReferences": {},
  "deployedLinkReferences": {}
}