{
  "_format": "hh-sol-artifact-1",
  "contractName": "TcpGovernorAlpha",
  "sourceName": "contracts/core/governance/TcpGovernorAlpha.sol",
  "abi": [
    {
      "inputs": [
        {
          "components": [
            {
              "internalType": "address",
              "name": "TcpTimelock",
              "type": "address"
            },
            {
              "internalType": "address",
              "name": "Tcp",
              "type": "address"
            },
            {
              "internalType": "address",
              "name": "Guardian",
              "type": "address"
            },
            {
              "internalType": "uint48",
              "name": "VoteBlockCount",
              "type": "uint48"
            },
            {
              "internalType": "address",
              "name": "Governor",
              "type": "address"
            }
          ],
          "internalType": "struct TcpGovernorAlpha.ConstructorParams",
          "name": "params",
          "type": "tuple"
        }
      ],
      "stateMutability": "nonpayable",
      "type": "constructor"
    },
    {
      "anonymous": false,
      "inputs": [
        {
          "indexed": true,
          "internalType": "uint256",
          "name": "id",
          "type": "uint256"
        }
      ],
      "name": "ProposalCanceled",
      "type": "event"
    },
    {
      "anonymous": false,
      "inputs": [
        {
          "indexed": true,
          "internalType": "uint256",
          "name": "id",
          "type": "uint256"
        },
        {
          "indexed": true,
          "internalType": "address",
          "name": "proposer",
          "type": "address"
        }
      ],
      "name": "ProposalCreated",
      "type": "event"
    },
    {
      "anonymous": false,
      "inputs": [
        {
          "indexed": true,
          "internalType": "uint256",
          "name": "id",
          "type": "uint256"
        }
      ],
      "name": "ProposalExecuted",
      "type": "event"
    },
    {
      "anonymous": false,
      "inputs": [
        {
          "indexed": true,
          "internalType": "uint256",
          "name": "id",
          "type": "uint256"
        },
        {
          "indexed": false,
          "internalType": "uint256",
          "name": "eta",
          "type": "uint256"
        }
      ],
      "name": "ProposalQueued",
      "type": "event"
    },
    {
      "anonymous": false,
      "inputs": [
        {
          "indexed": true,
          "internalType": "address",
          "name": "voter",
          "type": "address"
        },
        {
          "indexed": true,
          "internalType": "uint256",
          "name": "proposalId",
          "type": "uint256"
        },
        {
          "indexed": true,
          "internalType": "bool",
          "name": "support",
          "type": "bool"
        },
        {
          "indexed": false,
          "internalType": "uint256",
          "name": "votes",
          "type": "uint256"
        }
      ],
      "name": "VoteCast",
      "type": "event"
    },
    {
      "anonymous": false,
      "inputs": [
        {
          "indexed": true,
          "internalType": "address",
          "name": "voter",
          "type": "address"
        },
        {
          "indexed": false,
          "internalType": "uint256",
          "name": "count",
          "type": "uint256"
        }
      ],
      "name": "VotingRewardsDistributed",
      "type": "event"
    },
    {
      "inputs": [],
      "name": "BALLOT_TYPEHASH",
      "outputs": [
        {
          "internalType": "bytes32",
          "name": "",
          "type": "bytes32"
        }
      ],
      "stateMutability": "view",
      "type": "function"
    },
    {
      "inputs": [],
      "name": "DOMAIN_TYPEHASH",
      "outputs": [
        {
          "internalType": "bytes32",
          "name": "",
          "type": "bytes32"
        }
      ],
      "stateMutability": "view",
      "type": "function"
    },
    {
      "inputs": [],
      "name": "INFLATION_PERCENTAGE",
      "outputs": [
        {
          "internalType": "uint256",
          "name": "",
          "type": "uint256"
        }
      ],
      "stateMutability": "view",
      "type": "function"
    },
    {
      "inputs": [],
      "name": "__abdicate",
      "outputs": [],
      "stateMutability": "nonpayable",
      "type": "function"
    },
    {
      "inputs": [
        {
          "internalType": "uint256",
          "name": "proposalId",
          "type": "uint256"
        }
      ],
      "name": "cancel",
      "outputs": [],
      "stateMutability": "nonpayable",
      "type": "function"
    },
    {
      "inputs": [
        {
          "internalType": "uint256",
          "name": "proposalId",
          "type": "uint256"
        },
        {
          "internalType": "bool",
          "name": "support",
          "type": "bool"
        }
      ],
      "name": "castVote",
      "outputs": [],
      "stateMutability": "nonpayable",
      "type": "function"
    },
    {
      "inputs": [
        {
          "internalType": "uint256",
          "name": "proposalId",
          "type": "uint256"
        },
        {
          "internalType": "bool",
          "name": "support",
          "type": "bool"
        },
        {
          "internalType": "uint8",
          "name": "v",
          "type": "uint8"
        },
        {
          "internalType": "bytes32",
          "name": "r",
          "type": "bytes32"
        },
        {
          "internalType": "bytes32",
          "name": "s",
          "type": "bytes32"
        }
      ],
      "name": "castVoteBySig",
      "outputs": [],
      "stateMutability": "nonpayable",
      "type": "function"
    },
    {
      "inputs": [
        {
          "internalType": "uint256",
          "name": "proposalID",
          "type": "uint256"
        }
      ],
      "name": "claimVotingRewards",
      "outputs": [],
      "stateMutability": "nonpayable",
      "type": "function"
    },
    {
      "inputs": [
        {
          "internalType": "uint256",
          "name": "proposalId",
          "type": "uint256"
        }
      ],
      "name": "execute",
      "outputs": [],
      "stateMutability": "nonpayable",
      "type": "function"
    },
    {
      "inputs": [
        {
          "internalType": "uint256",
          "name": "proposalId",
          "type": "uint256"
        }
      ],
      "name": "getActions",
      "outputs": [
        {
          "internalType": "address[]",
          "name": "targets",
          "type": "address[]"
        },
        {
          "internalType": "string[]",
          "name": "signatures",
          "type": "string[]"
        },
        {
          "internalType": "bytes[]",
          "name": "calldatas",
          "type": "bytes[]"
        }
      ],
      "stateMutability": "view",
      "type": "function"
    },
    {
      "inputs": [
        {
          "internalType": "address",
          "name": "voter",
          "type": "address"
        }
      ],
      "name": "getAllProposals",
      "outputs": [
        {
          "components": [
            {
              "internalType": "address[]",
              "name": "targets",
              "type": "address[]"
            },
            {
              "internalType": "string[]",
              "name": "signatures",
              "type": "string[]"
            },
            {
              "internalType": "bytes[]",
              "name": "calldatas",
              "type": "bytes[]"
            },
            {
              "internalType": "string",
              "name": "ipfsHash",
              "type": "string"
            },
            {
              "internalType": "address",
              "name": "proposer",
              "type": "address"
            },
            {
              "internalType": "uint48",
              "name": "eta",
              "type": "uint48"
            },
            {
              "internalType": "uint48",
              "name": "id",
              "type": "uint48"
            },
            {
              "internalType": "uint128",
              "name": "forVotes",
              "type": "uint128"
            },
            {
              "internalType": "uint48",
              "name": "startBlock",
              "type": "uint48"
            },
            {
              "internalType": "uint48",
              "name": "endBlock",
              "type": "uint48"
            },
            {
              "internalType": "bool",
              "name": "canceled",
              "type": "bool"
            },
            {
              "internalType": "bool",
              "name": "executed",
              "type": "bool"
            },
            {
              "internalType": "uint128",
              "name": "againstVotes",
              "type": "uint128"
            },
            {
              "internalType": "uint128",
              "name": "initialSupply",
              "type": "uint128"
            }
          ],
          "internalType": "struct GovernorAlpha.Proposal[]",
          "name": "_proposals",
          "type": "tuple[]"
        },
        {
          "internalType": "enum GovernorAlpha.ProposalState[]",
          "name": "_proposalStates",
          "type": "uint8[]"
        },
        {
          "components": [
            {
              "internalType": "bool",
              "name": "hasVoted",
              "type": "bool"
            },
            {
              "internalType": "bool",
              "name": "support",
              "type": "bool"
            },
            {
              "internalType": "bool",
              "name": "rewardReceived",
              "type": "bool"
            },
            {
              "internalType": "uint184",
              "name": "votes",
              "type": "uint184"
            }
          ],
          "internalType": "struct GovernorAlpha.Receipt[]",
          "name": "_receipts",
          "type": "tuple[]"
        }
      ],
      "stateMutability": "view",
      "type": "function"
    },
    {
      "inputs": [
        {
          "internalType": "uint256",
          "name": "proposalId",
          "type": "uint256"
        },
        {
          "internalType": "address",
          "name": "voter",
          "type": "address"
        }
      ],
      "name": "getReceipt",
      "outputs": [
        {
          "components": [
            {
              "internalType": "bool",
              "name": "hasVoted",
              "type": "bool"
            },
            {
              "internalType": "bool",
              "name": "support",
              "type": "bool"
            },
            {
              "internalType": "bool",
              "name": "rewardReceived",
              "type": "bool"
            },
            {
              "internalType": "uint184",
              "name": "votes",
              "type": "uint184"
            }
          ],
          "internalType": "struct GovernorAlpha.Receipt",
          "name": "",
          "type": "tuple"
        }
      ],
      "stateMutability": "view",
      "type": "function"
    },
    {
      "inputs": [],
      "name": "governor",
      "outputs": [
        {
          "internalType": "contract IGovernor",
          "name": "",
          "type": "address"
        }
      ],
      "stateMutability": "view",
      "type": "function"
    },
    {
      "inputs": [],
      "name": "guardian",
      "outputs": [
        {
          "internalType": "address",
          "name": "",
          "type": "address"
        }
      ],
      "stateMutability": "view",
      "type": "function"
    },
    {
      "inputs": [],
      "name": "implementsVotingRewardsWithToken",
      "outputs": [
        {
          "internalType": "address",
          "name": "",
          "type": "address"
        }
      ],
      "stateMutability": "view",
      "type": "function"
    },
    {
      "inputs": [
        {
          "internalType": "address",
          "name": "",
          "type": "address"
        }
      ],
      "name": "latestProposalIds",
      "outputs": [
        {
          "internalType": "uint256",
          "name": "",
          "type": "uint256"
        }
      ],
      "stateMutability": "view",
      "type": "function"
    },
    {
      "inputs": [],
      "name": "name",
      "outputs": [
        {
          "internalType": "string",
          "name": "",
          "type": "string"
        }
      ],
      "stateMutability": "view",
      "type": "function"
    },
    {
      "inputs": [],
      "name": "proposalCount",
      "outputs": [
        {
          "internalType": "uint48",
          "name": "",
          "type": "uint48"
        }
      ],
      "stateMutability": "view",
      "type": "function"
    },
    {
      "inputs": [],
      "name": "proposalMaxOperations",
      "outputs": [
        {
          "internalType": "uint256",
          "name": "",
          "type": "uint256"
        }
      ],
      "stateMutability": "pure",
      "type": "function"
    },
    {
      "inputs": [],
      "name": "proposalThreshold",
      "outputs": [
        {
          "internalType": "uint256",
          "name": "",
          "type": "uint256"
        }
      ],
      "stateMutability": "view",
      "type": "function"
    },
    {
      "inputs": [
        {
          "internalType": "uint256",
          "name": "",
          "type": "uint256"
        }
      ],
      "name": "proposals",
      "outputs": [
        {
          "internalType": "string",
          "name": "ipfsHash",
          "type": "string"
        },
        {
          "internalType": "address",
          "name": "proposer",
          "type": "address"
        },
        {
          "internalType": "uint48",
          "name": "eta",
          "type": "uint48"
        },
        {
          "internalType": "uint48",
          "name": "id",
          "type": "uint48"
        },
        {
          "internalType": "uint128",
          "name": "forVotes",
          "type": "uint128"
        },
        {
          "internalType": "uint48",
          "name": "startBlock",
          "type": "uint48"
        },
        {
          "internalType": "uint48",
          "name": "endBlock",
          "type": "uint48"
        },
        {
          "internalType": "bool",
          "name": "canceled",
          "type": "bool"
        },
        {
          "internalType": "bool",
          "name": "executed",
          "type": "bool"
        },
        {
          "internalType": "uint128",
          "name": "againstVotes",
          "type": "uint128"
        },
        {
          "internalType": "uint128",
          "name": "initialSupply",
          "type": "uint128"
        }
      ],
      "stateMutability": "view",
      "type": "function"
    },
    {
      "inputs": [
        {
          "internalType": "address[]",
          "name": "targets",
          "type": "address[]"
        },
        {
          "internalType": "string[]",
          "name": "signatures",
          "type": "string[]"
        },
        {
          "internalType": "bytes[]",
          "name": "calldatas",
          "type": "bytes[]"
        },
        {
          "internalType": "string",
          "name": "ipfsHash",
          "type": "string"
        }
      ],
      "name": "propose",
      "outputs": [
        {
          "internalType": "uint256",
          "name": "",
          "type": "uint256"
        }
      ],
      "stateMutability": "nonpayable",
      "type": "function"
    },
    {
      "inputs": [
        {
          "internalType": "uint256",
          "name": "proposalId",
          "type": "uint256"
        }
      ],
      "name": "queue",
      "outputs": [],
      "stateMutability": "nonpayable",
      "type": "function"
    },
    {
      "inputs": [],
      "name": "quorumVotes",
      "outputs": [
        {
          "internalType": "uint256",
          "name": "",
          "type": "uint256"
        }
      ],
      "stateMutability": "view",
      "type": "function"
    },
    {
      "inputs": [
        {
          "internalType": "uint256",
          "name": "proposalId",
          "type": "uint256"
        }
      ],
      "name": "state",
      "outputs": [
        {
          "internalType": "enum GovernorAlpha.ProposalState",
          "name": "",
          "type": "uint8"
        }
      ],
      "stateMutability": "view",
      "type": "function"
    },
    {
      "inputs": [],
      "name": "timelock",
      "outputs": [
        {
          "internalType": "contract TimelockInterface",
          "name": "",
          "type": "address"
        }
      ],
      "stateMutability": "view",
      "type": "function"
    },
    {
      "inputs": [],
      "name": "votingDelay",
      "outputs": [
        {
          "internalType": "uint256",
          "name": "",
          "type": "uint256"
        }
      ],
      "stateMutability": "pure",
      "type": "function"
    },
    {
      "inputs": [],
      "name": "votingPeriod",
      "outputs": [
        {
          "internalType": "uint256",
          "name": "",
          "type": "uint256"
        }
      ],
      "stateMutability": "view",
      "type": "function"
    },
    {
      "inputs": [],
      "name": "votingPeriodBlocks",
      "outputs": [
        {
          "internalType": "uint48",
          "name": "",
          "type": "uint48"
        }
      ],
      "stateMutability": "view",
      "type": "function"
    },
    {
      "inputs": [],
      "name": "votingToken",
      "outputs": [
        {
          "internalType": "contract VotingTokenInterface",
          "name": "",
          "type": "address"
        }
      ],
      "stateMutability": "view",
      "type": "function"
    }
  ],
  "bytecode": "0x610100604052348015620000135760006000fd5b506040516200624038038062006240833981810160405281019062000039919062000386565b5b6040518060400160405280601281526020017f54435020476f7665726e6f7220416c706861000000000000000000000000000081526020015081600001518260200151836040015184606001515b84848484845b8460006000509080519060200190620000a99291906200029a565b50600073ffffffffffffffffffffffffffffffffffffffff168473ffffffffffffffffffffffffffffffffffffffff1614158015620001155750600073ffffffffffffffffffffffffffffffffffffffff168373ffffffffffffffffffffffffffffffffffffffff1614155b80156200014f5750600073ffffffffffffffffffffffffffffffffffffffff168273ffffffffffffffffffffffffffffffffffffffff1614155b15156200015c5760006000fd5b8373ffffffffffffffffffffffffffffffffffffffff1660808173ffffffffffffffffffffffffffffffffffffffff1660601b815260140150508273ffffffffffffffffffffffffffffffffffffffff1660c08173ffffffffffffffffffffffffffffffffffffffff1660601b8152601401505081600160006101000a81548173ffffffffffffffffffffffffffffffffffffffff021916908373ffffffffffffffffffffffffffffffffffffffff16021790555060008165ffffffffffff161115156200022a5760006000fd5b8065ffffffffffff1660a08165ffffffffffff1660d01b815260060150505b50505050505b5050505050806080015173ffffffffffffffffffffffffffffffffffffffff1660e08173ffffffffffffffffffffffffffffffffffffffff1660601b815260140150505b506200042e565b828054600181600116156101000203166002900490600052602060002090601f016020900481019282620002d2576000855562000323565b82601f10620002ed57805160ff191683800117855562000323565b8280016001018555821562000323579182015b8281111562000322578251826000509090559160200191906001019062000300565b5b50905062000332919062000336565b5090565b6200033c565b808211156200035857600081815060009055506001016200033c565b5090566200042d565b6000815190506001600160a01b03811681141515620003805760006000fd5b5b919050565b600060a0828403121562000398578081fd5b60405160a081018181106001600160401b0382111715620003b557fe5b8060405250620003c58362000361565b8152620003d56020840162000361565b6020820152620003e86040840162000361565b6040820152606083015165ffffffffffff81168114151562000408578283fd5b806060830152506200041d6080840162000361565b6080820152809150505b92915050565b5b60805160601c60a05160d01c60c05160601c60e05160601c615d7b620004c56000398061087b52806133855280613a775280613cef5250806108af5280610dba528061124b5280611a3d5280611fad52806127425280612b02528061366d5250806107a752806127665250806118175280611b975280612bb65280612c7e528061319a5280613d835280613e9c5250615d7b6000f3fe60806040523480156100115760006000fd5b50600436106101df5760003560e01c80634634c61f11610105578063b525867f116100a3578063ddf0b00911610072578063ddf0b0091461054f578063deaaa7cc1461056b578063e23a9a5214610589578063fe0d94c1146105b9576101df565b8063b525867f146104d9578063b58131b0146104f5578063d33219b414610513578063da35c66414610531576101df565b80637e90f9ab116100df5780637e90f9ab1461044d5780639853d9221461046b578063b03401231461049d578063b24b7ffd146104bb576101df565b80634634c61f14610409578063760fbc13146104255780637bdbe4d01461042f576101df565b806320606b701161017d5780633932abb11161014c5780633932abb1146103815780633e4f49e61461039f57806340e58ee5146103cf578063452a9320146103eb576101df565b806320606b70146102f557806324bc1a641461031357806329c0e5fd14610331578063328dd9821461034f576101df565b80630c340a24116101b95780630c340a241461025b57806311e91b9a1461027957806315373e3d146102a957806317977c61146102c5576101df565b8063013cf08b146101e557806302a251a31461021f57806306fdde031461023d576101df565b60006000fd5b6101ff60048036038101906101fa91906147fd565b6105d5565b6040516102169b9a999897969594939291906151df565b60405180910390f35b6102276107a3565b6040516102349190615c14565b60405180910390f35b6102456107d8565b60405161025291906151c3565b60405180910390f35b610263610879565b6040516102709190615132565b60405180910390f35b610293600480360381019061028e9190614620565b61089d565b6040516102a09190615c14565b60405180910390f35b6102c360048036038101906102be9190614862565b6111ec565b005b6102df60048036038101906102da91906145fd565b611206565b6040516102ec9190615c14565b60405180910390f35b6102fd611221565b60405161030a9190615097565b60405180910390f35b61031b611245565b6040516103289190615c14565b60405180910390f35b6103396112fd565b6040516103469190615c14565b60405180910390f35b610369600480360381019061036491906147fd565b611308565b60405161037893929190614e79565b60405180910390f35b6103896115ac565b6040516103969190615c14565b60405180910390f35b6103b960048036038101906103b491906147fd565b6115ba565b6040516103c691906151aa565b60405180910390f35b6103e960048036038101906103e491906147fd565b6118ed565b005b6103f3611d02565b6040516104009190614cd3565b60405180910390f35b610423600480360381019061041e9190614893565b611d28565b005b61042d611f06565b005b610437611f9b565b6040516104449190615c14565b60405180910390f35b610455611fa9565b6040516104629190614cd3565b60405180910390f35b610485600480360381019061048091906145fd565b611fd6565b60405161049493929190614ebe565b60405180910390f35b6104a5612740565b6040516104b29190615182565b60405180910390f35b6104c3612764565b6040516104d09190615c26565b60405180910390f35b6104f360048036038101906104ee91906147fd565b612788565b005b6104fd612afc565b60405161050a9190615c14565b60405180910390f35b61051b612bb4565b604051610528919061515a565b60405180910390f35b610539612bd8565b6040516105469190615c26565b60405180910390f35b610569600480360381019061056491906147fd565b612bf0565b005b610573612f8c565b6040516105809190615097565b60405180910390f35b6105a3600480360381019061059e9190614835565b612fb0565b6040516105b09190615bfb565b60405180910390f35b6105d360048036038101906105ce91906147fd565b6130dc565b005b6003600050602052806000526040600020600091509050806003016000508054600181600116156101000203166002900480601f0160208091040260200160405190810160405280929190818152602001828054600181600116156101000203166002900480156106875780601f1061065c57610100808354040283529160200191610687565b820191906000526020600020905b81548152906001019060200180831161066a57829003601f168201915b5050505050908060040160009054906101000a900473ffffffffffffffffffffffffffffffffffffffff16908060040160149054906101000a900465ffffffffffff169080600401601a9054906101000a900465ffffffffffff16908060050160009054906101000a90046fffffffffffffffffffffffffffffffff16908060050160109054906101000a900465ffffffffffff16908060050160169054906101000a900465ffffffffffff169080600501601c9054906101000a900460ff169080600501601d9054906101000a900460ff16908060060160009054906101000a90046fffffffffffffffffffffffffffffffff16908060060160109054906101000a90046fffffffffffffffffffffffffffffffff1690508b565b60007f000000000000000000000000000000000000000000000000000000000000000065ffffffffffff1690506107d5565b90565b60006000508054600181600116156101000203166002900480601f0160208091040260200160405190810160405280929190818152602001828054600181600116156101000203166002900480156108715780601f1061084657610100808354040283529160200191610871565b820191906000526020600020905b81548152906001019060200180831161085457829003601f168201915b505050505081565b7f000000000000000000000000000000000000000000000000000000000000000081565b60006108ad612afc63ffffffff16565b7f000000000000000000000000000000000000000000000000000000000000000073ffffffffffffffffffffffffffffffffffffffff1663782d6fe1336108fb43600161332c63ffffffff16565b6040518363ffffffff1660e01b8152600401610918929190614cfb565b60206040518083038186803b1580156109315760006000fd5b505afa158015610946573d600060003e3d6000fd5b505050506040513d601f19601f8201168201806040525081019061096a9190614819565b1115156109ac576040517f08c379a00000000000000000000000000000000000000000000000000000000081526004016109a39061591f565b60405180910390fd5b835185511480156109be575082518551145b15156109ff576040517f08c379a00000000000000000000000000000000000000000000000000000000081526004016109f69061569b565b60405180910390fd5b60008551111515610a45576040517f08c379a0000000000000000000000000000000000000000000000000000000008152600401610a3c906158ba565b60405180910390fd5b610a53611f9b63ffffffff16565b855111151515610a98576040517f08c379a0000000000000000000000000000000000000000000000000000000008152600401610a8f906155f7565b60405180910390fd5b6000600460005060003373ffffffffffffffffffffffffffffffffffffffff1673ffffffffffffffffffffffffffffffffffffffff1681526020019081526020016000206000505490506000811115610bb8576000610afc826115ba63ffffffff16565b905060016007811115610b0b57fe5b816007811115610b1757fe5b14151515610b5a576040517f08c379a0000000000000000000000000000000000000000000000000000000008152600401610b51906159e9565b60405180910390fd5b60006007811115610b6757fe5b816007811115610b7357fe5b14151515610bb6576040517f08c379a0000000000000000000000000000000000000000000000000000000008152600401610bad9061556c565b60405180910390fd5b505b6000600090505b8551811015610c1057610c028782815181101515610bd957fe5b60200260200101518783815181101515610bef57fe5b602002602001015161338363ffffffff16565b5b8080600101915050610bbf565b506000610c3043610c256115ac63ffffffff16565b61341563ffffffff16565b90506000610c5182610c466107a363ffffffff16565b61341563ffffffff16565b90506001601481819054906101000a900465ffffffffffff168092919060010191906101000a81548165ffffffffffff021916908365ffffffffffff160217905550506601000000000000600160149054906101000a900465ffffffffffff1665ffffffffffff16101515610cc65760006000fd5b6000604051806101c001604052808a81526020018981526020018881526020018781526020013373ffffffffffffffffffffffffffffffffffffffff168152602001600065ffffffffffff168152602001600160149054906101000a900465ffffffffffff1665ffffffffffff16815260200160006fffffffffffffffffffffffffffffffff168152602001610d618561347363ffffffff16565b65ffffffffffff168152602001610d7d8461347363ffffffff16565b65ffffffffffff16815260200160001515815260200160001515815260200160006fffffffffffffffffffffffffffffffff168152602001610e637f000000000000000000000000000000000000000000000000000000000000000073ffffffffffffffffffffffffffffffffffffffff166318160ddd6040518163ffffffff1660e01b815260040160206040518083038186803b158015610e1f5760006000fd5b505afa158015610e34573d600060003e3d6000fd5b505050506040513d601f19601f82011682018060405250810190610e589190614819565b6134cd63ffffffff16565b6fffffffffffffffffffffffffffffffff16815260200150905080600360005060008360c0015165ffffffffffff1681526020019081526020016000206000506000820151816000016000509080519060200190610ec2929190613fc0565b506020820151816001016000509080519060200190610ee292919061404a565b506040820151816002016000509080519060200190610f029291906140aa565b506060820151816003016000509080519060200190610f2292919061410a565b5060808201518160040160006101000a81548173ffffffffffffffffffffffffffffffffffffffff021916908373ffffffffffffffffffffffffffffffffffffffff16021790555060a08201518160040160146101000a81548165ffffffffffff021916908365ffffffffffff16021790555060c082015181600401601a6101000a81548165ffffffffffff021916908365ffffffffffff16021790555060e08201518160050160006101000a8154816fffffffffffffffffffffffffffffffff02191690836fffffffffffffffffffffffffffffffff1602179055506101008201518160050160106101000a81548165ffffffffffff021916908365ffffffffffff1602179055506101208201518160050160166101000a81548165ffffffffffff021916908365ffffffffffff16021790555061014082015181600501601c6101000a81548160ff02191690831515021790555061016082015181600501601d6101000a81548160ff0219169083151502179055506101808201518160060160006101000a8154816fffffffffffffffffffffffffffffffff02191690836fffffffffffffffffffffffffffffffff1602179055506101a08201518160060160106101000a8154816fffffffffffffffffffffffffffffffff02191690836fffffffffffffffffffffffffffffffff1602179055509050508060c0015165ffffffffffff1660046000506000836080015173ffffffffffffffffffffffffffffffffffffffff1673ffffffffffffffffffffffffffffffffffffffff1681526020019081526020016000206000508190909055503373ffffffffffffffffffffffffffffffffffffffff168160c0015165ffffffffffff167fcd423cc1203c0af96b9b3d68d73b3064a69de2d14450bb7181c5e5df2132b35860405160405180910390a38060c0015165ffffffffffff169450505050506111e456505050505b949350505050565b6111fd33838361353163ffffffff16565b611202565b5050565b60046000506020528060005260406000206000915090505481565b7f8cad95687ba82c2ce50e74f7b754645e5117c3a5bec8151c0726d5857980a86681565b600060287f000000000000000000000000000000000000000000000000000000000000000073ffffffffffffffffffffffffffffffffffffffff166318160ddd6040518163ffffffff1660e01b815260040160206040518083038186803b1580156112b05760006000fd5b505afa1580156112c5573d600060003e3d6000fd5b505050506040513d601f19601f820116820180604052508101906112e99190614819565b8115156112f257fe5b0490506112fa565b90565b6611c37937e0800081565b6060606060606000600360005060008681526020019081526020016000206000509050806000016000508160010160005082600201600050828054806020026020016040519081016040528092919081815260200182805480156113c157602002820191906000526020600020905b8160009054906101000a900473ffffffffffffffffffffffffffffffffffffffff1673ffffffffffffffffffffffffffffffffffffffff1681526020019060010190808311611377575b5050505050925081805480602002602001604051908101604052809291908181526020016000905b828210156114aa578382906000526020600020900160005b508054600181600116156101000203166002900480601f0160208091040260200160405190810160405280929190818152602001828054600181600116156101000203166002900480156114965780601f1061146b57610100808354040283529160200191611496565b820191906000526020600020905b81548152906001019060200180831161147957829003601f168201915b5050505050815260200190600101906113e9565b50505050915080805480602002602001604051908101604052809291908181526020016000905b82821015611592578382906000526020600020900160005b508054600181600116156101000203166002900480601f01602080910402602001604051908101604052809291908181526020018280546001816001161561010002031660029004801561157e5780601f106115535761010080835404028352916020019161157e565b820191906000526020600020905b81548152906001019060200180831161156157829003601f168201915b5050505050815260200190600101906114d1565b505050509050935093509350506115a556505b9193909250565b6000600190506115b7565b90565b600081600160149054906101000a900465ffffffffffff1665ffffffffffff16101580156115e85750600082115b1515611629576040517f08c379a000000000000000000000000000000000000000000000000000000000815260040161162090615424565b60405180910390fd5b600060036000506000848152602001908152602001600020600050905080600501601c9054906101000a900460ff161561166b5760029150506118e8566118e6565b8060050160109054906101000a900465ffffffffffff1665ffffffffffff16431115156116a05760009150506118e8566118e5565b8060050160169054906101000a900465ffffffffffff1665ffffffffffff16431115156116d55760019150506118e8566118e4565b8060060160009054906101000a90046fffffffffffffffffffffffffffffffff166fffffffffffffffffffffffffffffffff168160050160009054906101000a90046fffffffffffffffffffffffffffffffff166fffffffffffffffffffffffffffffffff16111580611786575061175161124563ffffffff16565b8160050160009054906101000a90046fffffffffffffffffffffffffffffffff166fffffffffffffffffffffffffffffffff16105b156117995760039150506118e8566118e3565b60008160040160149054906101000a900465ffffffffffff1665ffffffffffff1614156117ce5760049150506118e8566118e2565b80600501601d9054906101000a900460ff16156117f35760079150506118e8566118e1565b6118c08160040160149054906101000a900465ffffffffffff1665ffffffffffff167f000000000000000000000000000000000000000000000000000000000000000073ffffffffffffffffffffffffffffffffffffffff1663c1a287e26040518163ffffffff1660e01b815260040160206040518083038186803b15801561187c5760006000fd5b505afa158015611891573d600060003e3d6000fd5b505050506040513d601f19601f820116820180604052508101906118b59190614819565b61341563ffffffff16565b421015156118d65760069150506118e8566118e0565b60059150506118e8565b5b5b5b5b5b5b505b919050565b600760078111156118fa57fe5b611909826115ba63ffffffff16565b600781111561191457fe5b14151515611957576040517f08c379a000000000000000000000000000000000000000000000000000000000815260040161194e90615ab3565b60405180910390fd5b60006003600050600083815260200190815260200160002060005090508060050160169054906101000a900465ffffffffffff1665ffffffffffff16431015156119d6576040517f08c379a00000000000000000000000000000000000000000000000000000000081526004016119cd90615855565b60405180910390fd5b600160009054906101000a900473ffffffffffffffffffffffffffffffffffffffff1673ffffffffffffffffffffffffffffffffffffffff163373ffffffffffffffffffffffffffffffffffffffff161480611b1e5750611a3b612afc63ffffffff16565b7f000000000000000000000000000000000000000000000000000000000000000073ffffffffffffffffffffffffffffffffffffffff1663782d6fe18360040160009054906101000a900473ffffffffffffffffffffffffffffffffffffffff16611aad43600161332c63ffffffff16565b6040518363ffffffff1660e01b8152600401611aca929190614e13565b60206040518083038186803b158015611ae35760006000fd5b505afa158015611af8573d600060003e3d6000fd5b505050506040513d601f19601f82011682018060405250810190611b1c9190614819565b105b1515611b5f576040517f08c379a0000000000000000000000000000000000000000000000000000000008152600401611b5690615726565b60405180910390fd5b600181600501601c6101000a81548160ff0219169083151502179055506000600090505b8160000160005080549050811015611ccf577f000000000000000000000000000000000000000000000000000000000000000073ffffffffffffffffffffffffffffffffffffffff16624b1f128360000160005083815481101515611be457fe5b906000526020600020900160005b9054906101000a900473ffffffffffffffffffffffffffffffffffffffff168460010160005084815481101515611c2557fe5b906000526020600020900160005b508560020160005085815481101515611c4857fe5b906000526020600020900160005b508660040160149054906101000a900465ffffffffffff166040518563ffffffff1660e01b8152600401611c8d9493929190614db7565b600060405180830381600087803b158015611ca85760006000fd5b505af1158015611cbd573d600060003e3d6000fd5b505050505b8080600101915050611b83565b50817f789cf55be980739dad1d0699b93b58e806b51c9d96619bfa8fe0a28abaa7b30c60405160405180910390a2505b50565b600160009054906101000a900473ffffffffffffffffffffffffffffffffffffffff1681565b60007f8cad95687ba82c2ce50e74f7b754645e5117c3a5bec8151c0726d5857980a8666000600050604051611d5d9190614bfc565b6040518091039020611d73613a0663ffffffff16565b30604051602001611d8794939291906150a9565b60405160208183030381529060405280519060200120905060007f8e25870c07e0b0b3884c78da52790939a455c275406c44ae8b434b692fb916ee8787604051602001611dd6939291906150e6565b60405160208183030381529060405280519060200120905060008282604051602001611e03929190614c94565b604051602081830303815290604052805190602001209050600060018288888860405160008152602001604052604051611e409493929190615108565b6020604051602081039080840390855afa158015611e63573d600060003e3d6000fd5b505050602060405103519050600073ffffffffffffffffffffffffffffffffffffffff168173ffffffffffffffffffffffffffffffffffffffff1614151515611ee1576040517f08c379a0000000000000000000000000000000000000000000000000000000008152600401611ed890615984565b60405180910390fd5b611ef2818a8a61353163ffffffff16565b50505050611eff56505050505b5050505050565b611f1533613a1a63ffffffff16565b1515611f56576040517f08c379a0000000000000000000000000000000000000000000000000000000008152600401611f4d906154c8565b60405180910390fd5b6000600160006101000a81548173ffffffffffffffffffffffffffffffffffffffff021916908373ffffffffffffffffffffffffffffffffffffffff1602179055505b565b6000600a9050611fa6565b90565b60007f00000000000000000000000000000000000000000000000000000000000000009050611fd3565b90565b6060606060606000600160149054906101000a900465ffffffffffff1665ffffffffffff1690508067ffffffffffffffff811180156120155760006000fd5b5060405190808252806020026020018201604052801561204f57816020015b61203c61419d565b8152602001906001900390816120345790505b50935083508067ffffffffffffffff8111801561206c5760006000fd5b5060405190808252806020026020018201604052801561209b5781602001602082028036833780820191505090505b50925082508067ffffffffffffffff811180156120b85760006000fd5b506040519080825280602002602001820160405280156120f257816020015b6120df61427f565b8152602001906001900390816120d75790505b50915081506000600190505b818165ffffffffffff1611151561273657600360005060008265ffffffffffff168152602001908152602001600020600050604051806101c0016040529081600082016000508054806020026020016040519081016040528092919081815260200182805480156121c457602002820191906000526020600020905b8160009054906101000a900473ffffffffffffffffffffffffffffffffffffffff1673ffffffffffffffffffffffffffffffffffffffff168152602001906001019080831161217a575b5050505050815260200160018201600050805480602002602001604051908101604052809291908181526020016000905b828210156122b6578382906000526020600020900160005b508054600181600116156101000203166002900480601f0160208091040260200160405190810160405280929190818152602001828054600181600116156101000203166002900480156122a25780601f10612277576101008083540402835291602001916122a2565b820191906000526020600020905b81548152906001019060200180831161228557829003601f168201915b5050505050815260200190600101906121f5565b50505050815260200160028201600050805480602002602001604051908101604052809291908181526020016000905b828210156123a7578382906000526020600020900160005b508054600181600116156101000203166002900480601f0160208091040260200160405190810160405280929190818152602001828054600181600116156101000203166002900480156123935780601f1061236857610100808354040283529160200191612393565b820191906000526020600020905b81548152906001019060200180831161237657829003601f168201915b5050505050815260200190600101906122e6565b505050508152602001600382016000508054600181600116156101000203166002900480601f01602080910402602001604051908101604052809291908181526020018280546001816001161561010002031660029004801561244b5780601f106124205761010080835404028352916020019161244b565b820191906000526020600020905b81548152906001019060200180831161242e57829003601f168201915b505050505081526020016004820160009054906101000a900473ffffffffffffffffffffffffffffffffffffffff1673ffffffffffffffffffffffffffffffffffffffff1673ffffffffffffffffffffffffffffffffffffffff1681526020016004820160149054906101000a900465ffffffffffff1665ffffffffffff1665ffffffffffff16815260200160048201601a9054906101000a900465ffffffffffff1665ffffffffffff1665ffffffffffff1681526020016005820160009054906101000a90046fffffffffffffffffffffffffffffffff166fffffffffffffffffffffffffffffffff166fffffffffffffffffffffffffffffffff1681526020016005820160109054906101000a900465ffffffffffff1665ffffffffffff1665ffffffffffff1681526020016005820160169054906101000a900465ffffffffffff1665ffffffffffff1665ffffffffffff16815260200160058201601c9054906101000a900460ff1615151515815260200160058201601d9054906101000a900460ff161515151581526020016006820160009054906101000a90046fffffffffffffffffffffffffffffffff166fffffffffffffffffffffffffffffffff166fffffffffffffffffffffffffffffffff1681526020016006820160109054906101000a90046fffffffffffffffffffffffffffffffff166fffffffffffffffffffffffffffffffff166fffffffffffffffffffffffffffffffff1681526020015050856001830365ffffffffffff1681518110151561268a57fe5b60200260200101819052506126ac8165ffffffffffff166115ba63ffffffff16565b846001830365ffffffffffff168151811015156126c557fe5b602002602001019060078111156126d857fe5b908160078111156126e557fe5b815260200150506127048165ffffffffffff1687612fb063ffffffff16565b836001830365ffffffffffff1681518110151561271d57fe5b60200260200101819052505b80806001019150506120fe565b50505b9193909250565b7f000000000000000000000000000000000000000000000000000000000000000081565b7f000000000000000000000000000000000000000000000000000000000000000081565b61279781613b2663ffffffff16565b15156127d8576040517f08c379a00000000000000000000000000000000000000000000000000000000081526004016127cf906153a6565b60405180910390fd5b6002600050600082815260200190815260200160002060005060003373ffffffffffffffffffffffffffffffffffffffff1673ffffffffffffffffffffffffffffffffffffffff16815260200190815260200160002060005060000160009054906101000a900460ff161515612883576040517f08c379a000000000000000000000000000000000000000000000000000000000815260040161287a90615489565b60405180910390fd5b60006002600050600083815260200190815260200160002060005060003373ffffffffffffffffffffffffffffffffffffffff1673ffffffffffffffffffffffffffffffffffffffff16815260200190815260200160002060005090508060000160029054906101000a900460ff16151515612934576040517f08c379a000000000000000000000000000000000000000000000000000000000815260040161292b9061578b565b60405180910390fd5b60018160000160026101000a81548160ff021916908315150217905550600060036000506000848152602001908152602001600020600050905060008260000160039054906101000a900476ffffffffffffffffffffffffffffffffffffffffffffff1676ffffffffffffffffffffffffffffffffffffffffffffff1690506000612a298360050160009054906101000a90046fffffffffffffffffffffffffffffffff166fffffffffffffffffffffffffffffffff168460060160009054906101000a90046fffffffffffffffffffffffffffffffff166fffffffffffffffffffffffffffffffff1661341563ffffffff16565b90506000612a796611c37937e080008560060160109054906101000a90046fffffffffffffffffffffffffffffffff166fffffffffffffffffffffffffffffffff16613bc690919063ffffffff16565b90506000612a92848484613bec9092919063ffffffff16565b9050612aa43382613ced63ffffffff16565b3373ffffffffffffffffffffffffffffffffffffffff167f56cd411799f8eaf36ff267057223a17836afa0a91a109fe7e102ef919e6fa19d82604051612aea9190615c14565b60405180910390a25050505050505b50565b600060c87f000000000000000000000000000000000000000000000000000000000000000073ffffffffffffffffffffffffffffffffffffffff166318160ddd6040518163ffffffff1660e01b815260040160206040518083038186803b158015612b675760006000fd5b505afa158015612b7c573d600060003e3d6000fd5b505050506040513d601f19601f82011682018060405250810190612ba09190614819565b811515612ba957fe5b049050612bb1565b90565b7f000000000000000000000000000000000000000000000000000000000000000081565b600160149054906101000a900465ffffffffffff1681565b60046007811115612bfd57fe5b612c0c826115ba63ffffffff16565b6007811115612c1757fe5b141515612c59576040517f08c379a0000000000000000000000000000000000000000000000000000000008152600401612c5090615290565b60405180910390fd5b60006003600050600083815260200190815260200160002060005090506000612d27427f000000000000000000000000000000000000000000000000000000000000000073ffffffffffffffffffffffffffffffffffffffff16636a42b8f86040518163ffffffff1660e01b815260040160206040518083038186803b158015612ce35760006000fd5b505afa158015612cf8573d600060003e3d6000fd5b505050506040513d601f19601f82011682018060405250810190612d1c9190614819565b61341563ffffffff16565b90506000600090505b8260000160005080549050811015612f1857612f0a8360000160005082815481101515612d5957fe5b906000526020600020900160005b9054906101000a900473ffffffffffffffffffffffffffffffffffffffff168460010160005083815481101515612d9a57fe5b906000526020600020900160005b508054600181600116156101000203166002900480601f016020809104026020016040519081016040528092919081815260200182805460018160011615610100020316600290048015612e3d5780601f10612e1257610100808354040283529160200191612e3d565b820191906000526020600020905b815481529060010190602001808311612e2057829003601f168201915b50505050508560020160005084815481101515612e5657fe5b906000526020600020900160005b508054600181600116156101000203166002900480601f016020809104026020016040519081016040528092919081815260200182805460018160011615610100020316600290048015612ef95780601f10612ece57610100808354040283529160200191612ef9565b820191906000526020600020905b815481529060010190602001808311612edc57829003601f168201915b505050505085613d8163ffffffff16565b5b8080600101915050612d30565b50612f288161347363ffffffff16565b8260040160146101000a81548165ffffffffffff021916908365ffffffffffff160217905550827f9a2e42fd6722813d69113e7d0079d3d940171428df7373df9c7f7617cfda289282604051612f7e9190615c14565b60405180910390a250505b50565b7f8e25870c07e0b0b3884c78da52790939a455c275406c44ae8b434b692fb916ee81565b612fb861427f565b6002600050600084815260200190815260200160002060005060008373ffffffffffffffffffffffffffffffffffffffff1673ffffffffffffffffffffffffffffffffffffffff1681526020019081526020016000206000506040518060800160405290816000820160009054906101000a900460ff161515151581526020016000820160019054906101000a900460ff161515151581526020016000820160029054906101000a900460ff161515151581526020016000820160039054906101000a900476ffffffffffffffffffffffffffffffffffffffffffffff1676ffffffffffffffffffffffffffffffffffffffffffffff1676ffffffffffffffffffffffffffffffffffffffffffffff168152602001505090506130d6565b92915050565b600560078111156130e957fe5b6130f8826115ba63ffffffff16565b600781111561310357fe5b141515613145576040517f08c379a000000000000000000000000000000000000000000000000000000000815260040161313c9061531b565b60405180910390fd5b6000600360005060008381526020019081526020016000206000509050600181600501601d6101000a81548160ff0219169083151502179055506000600090505b81600001600050805490508110156132f9577f000000000000000000000000000000000000000000000000000000000000000073ffffffffffffffffffffffffffffffffffffffff16633ec5ab3283600001600050838154811015156131e857fe5b906000526020600020900160005b9054906101000a900473ffffffffffffffffffffffffffffffffffffffff16846001016000508481548110151561322957fe5b906000526020600020900160005b50856002016000508581548110151561324c57fe5b906000526020600020900160005b508660040160149054906101000a900465ffffffffffff166040518563ffffffff1660e01b81526004016132919493929190614db7565b600060405180830381600087803b1580156132ac5760006000fd5b505af11580156132c1573d600060003e3d6000fd5b505050506040513d6000823e3d601f19601f820116820180604052508101906132ea919061477c565b505b8080600101915050613186565b50817f712ae1383f79ac853f8d882153778e0260ef8f03b504e2866e0593e04d2b291f60405160405180910390a2505b50565b6000828211151515613373576040517f08c379a000000000000000000000000000000000000000000000000000000000815260040161336a90615bbc565b60405180910390fd5b818303905061337d565b92915050565b7f000000000000000000000000000000000000000000000000000000000000000073ffffffffffffffffffffffffffffffffffffffff1663a43c36af83836040518363ffffffff1660e01b81526004016133de929190614d2a565b60006040518083038186803b1580156133f75760006000fd5b505afa15801561340c573d600060003e3d6000fd5b505050505b5050565b600060008284019050838110151515613463576040517f08c379a000000000000000000000000000000000000000000000000000000000815260040161345a9061565c565b60405180910390fd5b8091505061346d56505b92915050565b60006601000000000000821015156134c0576040517f08c379a00000000000000000000000000000000000000000000000000000000081526004016134b790615a74565b60405180910390fd5b8190506134c8565b919050565b600070010000000000000000000000000000000082101515613524576040517f08c379a000000000000000000000000000000000000000000000000000000000815260040161351b906153e5565b60405180910390fd5b81905061352c565b919050565b6001600781111561353e57fe5b61354d836115ba63ffffffff16565b600781111561355857fe5b14151561359a576040517f08c379a000000000000000000000000000000000000000000000000000000000815260040161359190615b18565b60405180910390fd5b6000600360005060008481526020019081526020016000206000509050600015156002600050600085815260200190815260200160002060005060008673ffffffffffffffffffffffffffffffffffffffff1673ffffffffffffffffffffffffffffffffffffffff16815260200190815260200160002060005060000160009054906101000a900460ff161515141515613669576040517f08c379a000000000000000000000000000000000000000000000000000000000815260040161366090615507565b60405180910390fd5b60007f000000000000000000000000000000000000000000000000000000000000000073ffffffffffffffffffffffffffffffffffffffff1663782d6fe1868460050160109054906101000a900465ffffffffffff166040518363ffffffff1660e01b81526004016136dc929190614e42565b60206040518083038186803b1580156136f55760006000fd5b505afa15801561370a573d600060003e3d6000fd5b505050506040513d601f19601f8201168201806040525081019061372e9190614819565b905082156137c55761378661377b8360050160009054906101000a90046fffffffffffffffffffffffffffffffff166fffffffffffffffffffffffffffffffff168361341563ffffffff16565b6134cd63ffffffff16565b8260050160006101000a8154816fffffffffffffffffffffffffffffffff02191690836fffffffffffffffffffffffffffffffff160217905550613850565b61381561380a8360060160009054906101000a90046fffffffffffffffffffffffffffffffff166fffffffffffffffffffffffffffffffff168361341563ffffffff16565b6134cd63ffffffff16565b8260060160006101000a8154816fffffffffffffffffffffffffffffffff02191690836fffffffffffffffffffffffffffffffff1602179055505b6040518060800160405280600115158152602001841515815260200160001515815260200161388483613f5563ffffffff16565b76ffffffffffffffffffffffffffffffffffffffffffffff168152602001506002600050600086815260200190815260200160002060005060008773ffffffffffffffffffffffffffffffffffffffff1673ffffffffffffffffffffffffffffffffffffffff16815260200190815260200160002060005060008201518160000160006101000a81548160ff02191690831515021790555060208201518160000160016101000a81548160ff02191690831515021790555060408201518160000160026101000a81548160ff02191690831515021790555060608201518160000160036101000a81548176ffffffffffffffffffffffffffffffffffffffffffffff021916908376ffffffffffffffffffffffffffffffffffffffffffffff160217905550905050821515848673ffffffffffffffffffffffffffffffffffffffff167f877856338e13f63d0c36822ff0ef736b80934cd90574a3a5bc9262c39d217c46846040516139f69190615c14565b60405180910390a450505b505050565b6000600046905080915050613a1756505b90565b6000600160009054906101000a900473ffffffffffffffffffffffffffffffffffffffff1673ffffffffffffffffffffffffffffffffffffffff168273ffffffffffffffffffffffffffffffffffffffff161480613b1a575060017f000000000000000000000000000000000000000000000000000000000000000073ffffffffffffffffffffffffffffffffffffffff1663055ad42e6040518163ffffffff1660e01b815260040160206040518083038186803b158015613adc5760006000fd5b505afa158015613af1573d600060003e3d6000fd5b505050506040513d601f19601f82011682018060405250810190613b1591906148ed565b60ff16115b9050613b21565b919050565b60006000613b39836115ba63ffffffff16565b905060046007811115613b4857fe5b816007811115613b5457fe5b1480613b76575060036007811115613b6857fe5b816007811115613b7457fe5b145b80613b97575060056007811115613b8957fe5b816007811115613b9557fe5b145b80613bb8575060076007811115613baa57fe5b816007811115613bb657fe5b145b915050613bc156505b919050565b6000613be18383670de0b6b3a7640000613bec63ffffffff16565b905080505b92915050565b6000600060006000198587098587029250828110838203039150506000811415613c2f57600084111515613c205760006000fd5b83820492508292505050613ce6565b8084111515613c3e5760006000fd5b6000848688099050828111820391508083039250600085866000031690508086049550808404935060018182600003040190508083028417935083506000600287600302189050808702600203810290508050808702600203810290508050808702600203810290508050808702600203810290508050808702600203810290508050808702600203810290508050808502955085508595505050505050613ce65650505050505b9392505050565b7f000000000000000000000000000000000000000000000000000000000000000073ffffffffffffffffffffffffffffffffffffffff16630793298783836040518363ffffffff1660e01b8152600401613d48929190614e13565b600060405180830381600087803b158015613d635760006000fd5b505af1158015613d78573d600060003e3d6000fd5b505050505b5050565b7f000000000000000000000000000000000000000000000000000000000000000073ffffffffffffffffffffffffffffffffffffffff1663f2b0653785858585604051602001613dd49493929190614d63565b604051602081830303815290604052805190602001206040518263ffffffff1660e01b8152600401613e069190615097565b60206040518083038186803b158015613e1f5760006000fd5b505afa158015613e34573d600060003e3d6000fd5b505050506040513d601f19601f82011682018060405250810190613e589190614739565b151515613e9a576040517f08c379a0000000000000000000000000000000000000000000000000000000008152600401613e91906157ca565b60405180910390fd5b7f000000000000000000000000000000000000000000000000000000000000000073ffffffffffffffffffffffffffffffffffffffff16630e70eace858585856040518563ffffffff1660e01b8152600401613ef99493929190614d63565b602060405180830381600087803b158015613f145760006000fd5b505af1158015613f29573d600060003e3d6000fd5b505050506040513d601f19601f82011682018060405250810190613f4d9190614760565b505b50505050565b60007701000000000000000000000000000000000000000000000082101515613fb3576040517f08c379a0000000000000000000000000000000000000000000000000000000008152600401613faa90615b7d565b60405180910390fd5b819050613fbb565b919050565b828054828255906000526020600020908101928215614039579160200282015b828111156140385782518260006101000a81548173ffffffffffffffffffffffffffffffffffffffff021916908373ffffffffffffffffffffffffffffffffffffffff16021790555091602001919060010190613fe0565b5b50905061404691906142c9565b5090565b828054828255906000526020600020908101928215614099579160200282015b8281111561409857825182908051906020019061408892919061410a565b509160200191906001019061406a565b5b5090506140a691906142ec565b5090565b8280548282559060005260206000209081019282156140f9579160200282015b828111156140f85782518290805190602001906140e8929190614314565b50916020019190600101906140ca565b5b50905061410691906143a7565b5090565b828054600181600116156101000203166002900490600052602060002090601f016020900481019282614140576000855561418c565b82601f1061415957805160ff191683800117855561418c565b8280016001018555821561418c579182015b8281111561418b578251826000509090559160200191906001019061416b565b5b50905061419991906142c9565b5090565b604051806101c0016040528060608152602001606081526020016060815260200160608152602001600073ffffffffffffffffffffffffffffffffffffffff168152602001600065ffffffffffff168152602001600065ffffffffffff16815260200160006fffffffffffffffffffffffffffffffff168152602001600065ffffffffffff168152602001600065ffffffffffff16815260200160001515815260200160001515815260200160006fffffffffffffffffffffffffffffffff16815260200160006fffffffffffffffffffffffffffffffff1681526020015090565b6040518060800160405280600015158152602001600015158152602001600015158152602001600076ffffffffffffffffffffffffffffffffffffffffffffff1681526020015090565b6142ce565b808211156142e857600081815060009055506001016142ce565b5090565b6142f1565b80821115614310576000818161430791906143cf565b506001016142f1565b5090565b828054600181600116156101000203166002900490600052602060002090601f01602090048101928261434a5760008555614396565b82601f1061436357805160ff1916838001178555614396565b82800160010185558215614396579182015b828111156143955782518260005090905591602001919060010190614375565b5b5090506143a391906142c9565b5090565b6143ac565b808211156143cb57600081816143c29190614417565b506001016143ac565b5090565b50805460018160011615610100020316600290046000825580601f106143f55750614414565b601f01602090049060005260206000209081019061441391906142c9565b5b50565b50805460018160011615610100020316600290046000825580601f1061443d575061445c565b601f01602090049060005260206000209081019061445b91906142c9565b5b5056615d44565b600061447661447184615c8e565b615c40565b905082815283838301111561448b5760006000fd5b828260208301376000602084830101525b9392505050565b60008135905073ffffffffffffffffffffffffffffffffffffffff8116811415156144ce5760006000fd5b5b919050565b600082601f83011215156144e6578081fd5b813560206144fb6144f683615c6b565b615c40565b808382528282019150828601855b8581101561454f578135880189603f8201121515614525578788fd5b6145368a8783013560408401614463565b855250848401935084820191505b600181019050614509565b5050809450505050505b92915050565b600082601f8301121515614571578081fd5b8135602061458661458183615c6b565b615c40565b808382528282019150828601855b858110156145c3576145ab898684358b01016145d3565b8452848401935084820191505b600181019050614594565b5050809450505050505b92915050565b600082601f83011215156145e5578081fd5b6145f483833560208501614463565b90505b92915050565b60006020828403121561460e578081fd5b614617826144a3565b90505b92915050565b600060006000600060808587031215614637578283fd5b843567ffffffffffffffff8082111561464e578485fd5b818701915087601f8301121515614663578485fd5b8135602061467861467383615c6b565b615c40565b8083825282820191508286018c84858702890101111561469657898afd5b8996505b848710156146c3576146ab816144a3565b8352838301925083810190505b60018701965061469a565b5080995050508089013593505050808211156146dd578485fd5b6146e98883890161455f565b945060408701359150808211156146fe578384fd5b61470a888389016144d4565b9350606087013591508082111561471f578283fd5b5061472c878288016145d3565b9150505b92959194509250565b60006020828403121561474a578081fd5b815161475581615d19565b809150505b92915050565b600060208284031215614771578081fd5b815190505b92915050565b60006020828403121561478d578081fd5b815167ffffffffffffffff8111156147a3578182fd5b808301905083601f82011215156147b8578182fd5b80516147cb6147c682615c8e565b615c40565b8181528560208385010111156147df578384fd5b6147f0826020830160208601615ce4565b8093505050505b92915050565b60006020828403121561480e578081fd5b813590505b92915050565b60006020828403121561482a578081fd5b815190505b92915050565b6000600060408385031215614848578182fd5b82359150614858602084016144a3565b90505b9250929050565b6000600060408385031215614875578182fd5b82359150602083013561488781615d19565b809150505b9250929050565b6000600060006000600060a086880312156148ac578283fd5b8535945060208601356148be81615d19565b8094505060408601356148d081615d2e565b8093505060608601359150608086013590505b9295509295909350565b6000602082840312156148fe578081fd5b815161490981615d2e565b809150505b92915050565b73ffffffffffffffffffffffffffffffffffffffff811682525b5050565b6000815180845260208085019450808401835b8381101561497d5773ffffffffffffffffffffffffffffffffffffffff8251168752828701965082820191505b600181019050614945565b505050508290505b92915050565b6000815180845260208085018081965082840281019150828601855b858110156149d75782840389526149bf848351614a86565b9350848201915084890198505b6001810190506149a7565b5050508093505050505b92915050565b6000815180845260208085019450808401835b83811015614a2357614a0d878351614b78565b828701965082820191505b6001810190506149fa565b505050508290505b92915050565b6000815180845260208085019450808401835b83811015614a6e57614a57878351614b8c565b60808701965082820191505b600181019050614a44565b505050508290505b92915050565b80151582525b5050565b60008151808452614a9e816020860160208601615ce4565b60207fffffffffffffffffffffffffffffffffffffffffffffffffffffffffffffffe0601f8301168501019150505b92915050565b60008154600180821660008114614af15760018114614b2d57614b6e565b607f600284041686527fffffffffffffffffffffffffffffffffffffffffffffffffffffffffffffff0083166020870152604086019350614b6e565b60028304808752614b3d86615cd3565b60005b82811015614b625781546020828b01015284820191505b602081019050614b40565b6020818a010196505050505b5050505b92915050565b600881101515614b8457fe5b8082525b5050565b80511515825260208101511515602083015260408101511515604083015276ffffffffffffffffffffffffffffffffffffffffffffff60608201511660608301525b5050565b6fffffffffffffffffffffffffffffffff811682525b5050565b65ffffffffffff811682525b5050565b6000808354600180821660008114614c1b5760018114614c5057614c86565b7fffffffffffffffffffffffffffffffffffffffffffffffffffffffffffffff0083168652607f600284041686019350614c86565b600283048786526020808720875b83811015614c7c578154818b015285820191505b8281019050614c5e565b5050508087019450505b505050809150505b92915050565b60007f190100000000000000000000000000000000000000000000000000000000000082528360028301528260228301526042820190505b9392505050565b600060208201905073ffffffffffffffffffffffffffffffffffffffff831682525b92915050565b600060408201905073ffffffffffffffffffffffffffffffffffffffff841682528260208301525b9392505050565b600073ffffffffffffffffffffffffffffffffffffffff8416825260406020830152614d596040830184614a86565b90505b9392505050565b600073ffffffffffffffffffffffffffffffffffffffff8616825260806020830152614d926080830186614a86565b8281036040840152614da48186614a86565b9150508260608301525b95945050505050565b600073ffffffffffffffffffffffffffffffffffffffff8616825260806020830152614de66080830186614ad3565b8281036040840152614df88186614ad3565b91505065ffffffffffff831660608301525b95945050505050565b600060408201905073ffffffffffffffffffffffffffffffffffffffff841682528260208301525b9392505050565b600060408201905073ffffffffffffffffffffffffffffffffffffffff8416825265ffffffffffff831660208301525b9392505050565b600060608252614e8c6060830186614932565b8281036020840152614e9e818661498b565b90508281036040840152614eb2818561498b565b9150505b949350505050565b60006060808301818452808751808352608092508286019150602083818302880101818b01875b8481101561505f577fffffffffffffffffffffffffffffffffffffffffffffffffffffffffffffff808a840301865281516101c08151818652614f2a82870182614932565b9150508582015185820387870152614f42828261498b565b91505060408083015186830382880152614f5c838261498b565b92505050898201518582038b870152614f758282614a86565b91505088820151614f888a870182614914565b5060a080830151614f9b82880182614bec565b505060c080830151614faf82880182614bec565b505060e080830151614fc382880182614bd2565b505061010080830151614fd882880182614bec565b505061012080830151614fed82880182614bec565b50506101408083015161500282880182614a7c565b50506101608083015161501782880182614a7c565b50506101808083015161502c82880182614bd2565b50506101a080830151925061504381870184614bd2565b508094505050838201915083860195505b600181019050614ee5565b505087810382890152615072818b6149e7565b95505050505050828103604084015261508b8185614a31565b9150505b949350505050565b60006020820190508282525b92915050565b600060808201905085825284602083015283604083015273ffffffffffffffffffffffffffffffffffffffff831660608301525b95945050505050565b600060608201905084825283602083015282151560408301525b949350505050565b600060808201905085825260ff851660208301528360408301528260608301525b95945050505050565b600060208201905073ffffffffffffffffffffffffffffffffffffffff831682525b92915050565b600060208201905073ffffffffffffffffffffffffffffffffffffffff831682525b92915050565b600060208201905073ffffffffffffffffffffffffffffffffffffffff831682525b92915050565b60006020820190506151bc8284614b78565b5b92915050565b6000602082526151d66020830184614a86565b90505b92915050565b60006101608083526151f38184018f614a86565b91505073ffffffffffffffffffffffffffffffffffffffff8c16602083015265ffffffffffff808c166040840152808b1660608401526fffffffffffffffffffffffffffffffff8a16608084015280891660a084015280881660c08401525085151560e0830152841515610100830152615271610120830185614bd2565b61527f610140830184614bd2565b5b9c9b505050505050505050505050565b600060208252604460208301527f476f7665726e6f72416c7068613a3a71756575653a2070726f706f73616c206360408301527f616e206f6e6c792062652071756575656420696620697420697320737563636560608301527f6564656400000000000000000000000000000000000000000000000000000000608083015260a0820190505b919050565b600060208252604560208301527f476f7665726e6f72416c7068613a3a657865637574653a2070726f706f73616c60408301527f2063616e206f6e6c79206265206578656375746564206966206974206973207160608301527f7565756564000000000000000000000000000000000000000000000000000000608083015260a0820190505b919050565b600060208252601560208301527f50726f706f73616c206e6f7420636f6d706c657465000000000000000000000060408301526060820190505b919050565b600060208252601060208301527f457863656564732031323820626974730000000000000000000000000000000060408301526060820190505b919050565b600060208252602960208301527f476f7665726e6f72416c7068613a3a73746174653a20696e76616c696420707260408301527f6f706f73616c206964000000000000000000000000000000000000000000000060608301526080820190505b919050565b600060208252600d60208301527f486173206e6f7420766f7465640000000000000000000000000000000000000060408301526060820190505b919050565b600060208252600e60208301527f4e6f7420417574686f72697a656400000000000000000000000000000000000060408301526060820190505b919050565b600060208252602d60208301527f476f7665726e6f72416c7068613a3a5f63617374566f74653a20766f7465722060408301527f616c726561647920766f7465640000000000000000000000000000000000000060608301526080820190505b919050565b600060208252605960208301527f476f7665726e6f72416c7068613a3a70726f706f73653a206f6e65206c69766560408301527f2070726f706f73616c207065722070726f706f7365722c20666f756e6420616e60608301527f20616c72656164792070656e64696e672070726f706f73616c00000000000000608083015260a0820190505b919050565b600060208252602860208301527f476f7665726e6f72416c7068613a3a70726f706f73653a20746f6f206d616e7960408301527f20616374696f6e7300000000000000000000000000000000000000000000000060608301526080820190505b919050565b600060208252601160208301527f6164646974696f6e206f766572666c6f7700000000000000000000000000000060408301526060820190505b919050565b600060208252604460208301527f476f7665726e6f72416c7068613a3a70726f706f73653a2070726f706f73616c60408301527f2066756e6374696f6e20696e666f726d6174696f6e206172697479206d69736d60608301527f6174636800000000000000000000000000000000000000000000000000000000608083015260a0820190505b919050565b600060208252602f60208301527f476f7665726e6f72416c7068613a3a63616e63656c3a2070726f706f7365722060408301527f61626f7665207468726573686f6c64000000000000000000000000000000000060608301526080820190505b919050565b600060208252601860208301527f5265776172647320616c7265616479207265636569766564000000000000000060408301526060820190505b919050565b600060208252604460208301527f476f7665726e6f72416c7068613a3a5f71756575654f725265766572743a207060408301527f726f706f73616c20616374696f6e20616c72656164792071756575656420617460608301527f2065746100000000000000000000000000000000000000000000000000000000608083015260a0820190505b919050565b600060208252602560208301527f43616e742063616e63656c20616674657220766f74696e6720697320636f6d7060408301527f6c6574656400000000000000000000000000000000000000000000000000000060608301526080820190505b919050565b600060208252602c60208301527f476f7665726e6f72416c7068613a3a70726f706f73653a206d7573742070726f60408301527f7669646520616374696f6e73000000000000000000000000000000000000000060608301526080820190505b919050565b600060208252603f60208301527f476f7665726e6f72416c7068613a3a70726f706f73653a2070726f706f73657260408301527f20766f7465732062656c6f772070726f706f73616c207468726573686f6c640060608301526080820190505b919050565b600060208252602f60208301527f476f7665726e6f72416c7068613a3a63617374566f746542795369673a20696e60408301527f76616c6964207369676e6174757265000000000000000000000000000000000060608301526080820190505b919050565b600060208252605860208301527f476f7665726e6f72416c7068613a3a70726f706f73653a206f6e65206c69766560408301527f2070726f706f73616c207065722070726f706f7365722c20666f756e6420616e60608301527f20616c7265616479206163746976652070726f706f73616c0000000000000000608083015260a0820190505b919050565b600060208252600f60208301527f457863656564732034382062697473000000000000000000000000000000000060408301526060820190505b919050565b600060208252603660208301527f476f7665726e6f72416c7068613a3a63616e63656c3a2063616e6e6f7420636160408301527f6e63656c2065786563757465642070726f706f73616c0000000000000000000060608301526080820190505b919050565b600060208252602a60208301527f476f7665726e6f72416c7068613a3a5f63617374566f74653a20766f74696e6760408301527f20697320636c6f7365640000000000000000000000000000000000000000000060608301526080820190505b919050565b600060208252601060208301527f457863656564732031383420626974730000000000000000000000000000000060408301526060820190505b919050565b600060208252601560208301527f7375627472616374696f6e20756e646572666c6f77000000000000000000000060408301526060820190505b919050565b6000608082019050615c0d8284614b8c565b5b92915050565b60006020820190508282525b92915050565b600060208201905065ffffffffffff831682525b92915050565b6000604051905081810181811067ffffffffffffffff82111715615c6057fe5b80604052505b919050565b600067ffffffffffffffff821115615c7f57fe5b6020602083020190505b919050565b600067ffffffffffffffff821115615ca257fe5b60207fffffffffffffffffffffffffffffffffffffffffffffffffffffffffffffffe0601f8401160190505b919050565b60008181526020812090505b919050565b60005b83811015615d035780820151818401525b602081019050615ce7565b83811115615d12576000848401525b505b505050565b80151581141515615d2a5760006000fd5b5b50565b60ff811681141515615d405760006000fd5b5b50565bfea264697066735822122098b1f12eb49987d6e337c3055eeb7498e516eaeadb37a7f83f997df63c6cd8c564736f6c63430007060033",
  "linkReferences": {},
  "deployedLinkReferences": {}
}