{
  "_format": "hh-sol-artifact-1",
  "contractName": "PricesTestable",
  "sourceName": "contracts/mocks/PricesTestable.sol",
  "abi": [
    {
      "inputs": [
        {
          "components": [
            {
              "internalType": "contract IGovernor",
              "name": "Governor",
              "type": "address"
            },
            {
              "internalType": "address",
              "name": "Weth",
              "type": "address"
            },
            {
              "internalType": "address",
              "name": "Tcp",
              "type": "address"
            },
            {
              "internalType": "address",
              "name": "Hue",
              "type": "address"
            },
            {
              "internalType": "contract IUniswapV3Pool",
              "name": "CollateralPool",
              "type": "address"
            },
            {
              "internalType": "contract IUniswapV3Pool",
              "name": "ProtocolPool",
              "type": "address"
            }
          ],
          "internalType": "struct IPrices.ConstructorParams",
          "name": "params",
          "type": "tuple"
        }
      ],
      "stateMutability": "nonpayable",
      "type": "constructor"
    },
    {
      "anonymous": false,
      "inputs": [
        {
          "indexed": true,
          "internalType": "address",
          "name": "pool",
          "type": "address"
        },
        {
          "indexed": false,
          "internalType": "uint256",
          "name": "price",
          "type": "uint256"
        },
        {
          "indexed": false,
          "internalType": "int24",
          "name": "tick",
          "type": "int24"
        }
      ],
      "name": "PriceUpdated",
      "type": "event"
    },
    {
      "anonymous": false,
      "inputs": [],
      "name": "Stopped",
      "type": "event"
    },
    {
      "inputs": [],
      "name": "__now",
      "outputs": [
        {
          "internalType": "uint32[]",
          "name": "times",
          "type": "uint32[]"
        }
      ],
      "stateMutability": "pure",
      "type": "function"
    },
    {
      "inputs": [
        {
          "internalType": "uint64",
          "name": "input",
          "type": "uint64"
        }
      ],
      "name": "calculate64To32",
      "outputs": [
        {
          "internalType": "uint32",
          "name": "",
          "type": "uint32"
        }
      ],
      "stateMutability": "pure",
      "type": "function"
    },
    {
      "inputs": [
        {
          "internalType": "uint32",
          "name": "twapDuration",
          "type": "uint32"
        }
      ],
      "name": "calculateInstantCollateralPrice",
      "outputs": [
        {
          "internalType": "uint256",
          "name": "",
          "type": "uint256"
        }
      ],
      "stateMutability": "view",
      "type": "function"
    },
    {
      "inputs": [
        {
          "internalType": "contract IUniswapV3Pool",
          "name": "pool",
          "type": "address"
        },
        {
          "internalType": "uint32",
          "name": "twapDuration",
          "type": "uint32"
        }
      ],
      "name": "calculateInstantTwappedPrice",
      "outputs": [
        {
          "internalType": "uint256",
          "name": "",
          "type": "uint256"
        }
      ],
      "stateMutability": "view",
      "type": "function"
    },
    {
      "inputs": [
        {
          "internalType": "contract IUniswapV3Pool",
          "name": "pool",
          "type": "address"
        },
        {
          "internalType": "uint32",
          "name": "twapDuration",
          "type": "uint32"
        }
      ],
      "name": "calculateInstantTwappedTick",
      "outputs": [
        {
          "internalType": "int24",
          "name": "tick",
          "type": "int24"
        }
      ],
      "stateMutability": "view",
      "type": "function"
    },
    {
      "inputs": [
        {
          "internalType": "contract IUniswapV3Pool",
          "name": "pool",
          "type": "address"
        },
        {
          "internalType": "bool",
          "name": "normalizeDecimals",
          "type": "bool"
        }
      ],
      "name": "calculateTwappedPrice",
      "outputs": [
        {
          "internalType": "uint256",
          "name": "price",
          "type": "uint256"
        }
      ],
      "stateMutability": "view",
      "type": "function"
    },
    {
      "inputs": [],
      "name": "collateralPool",
      "outputs": [
        {
          "internalType": "contract IUniswapV3Pool",
          "name": "",
          "type": "address"
        }
      ],
      "stateMutability": "view",
      "type": "function"
    },
    {
      "inputs": [],
      "name": "deployer",
      "outputs": [
        {
          "internalType": "address",
          "name": "",
          "type": "address"
        }
      ],
      "stateMutability": "view",
      "type": "function"
    },
    {
      "inputs": [
        {
          "internalType": "uint160",
          "name": "sqrtPriceX96",
          "type": "uint160"
        }
      ],
      "name": "getE18PriceForSqrtX96Price",
      "outputs": [
        {
          "internalType": "uint256",
          "name": "",
          "type": "uint256"
        }
      ],
      "stateMutability": "pure",
      "type": "function"
    },
    {
      "inputs": [
        {
          "internalType": "int24",
          "name": "tick",
          "type": "int24"
        },
        {
          "internalType": "bool",
          "name": "isToken0",
          "type": "bool"
        }
      ],
      "name": "getPriceForTick",
      "outputs": [
        {
          "internalType": "uint256",
          "name": "price",
          "type": "uint256"
        }
      ],
      "stateMutability": "pure",
      "type": "function"
    },
    {
      "inputs": [
        {
          "internalType": "contract IUniswapV3Pool",
          "name": "pool",
          "type": "address"
        },
        {
          "internalType": "int24",
          "name": "tick",
          "type": "int24"
        },
        {
          "internalType": "int24",
          "name": "tickLower",
          "type": "int24"
        },
        {
          "internalType": "int24",
          "name": "tickUpper",
          "type": "int24"
        },
        {
          "internalType": "uint128",
          "name": "liquidity",
          "type": "uint128"
        },
        {
          "internalType": "uint32",
          "name": "twapDuration",
          "type": "uint32"
        }
      ],
      "name": "getRealHueCountForSinglePoolPosition",
      "outputs": [
        {
          "internalType": "uint256",
          "name": "",
          "type": "uint256"
        }
      ],
      "stateMutability": "view",
      "type": "function"
    },
    {
      "inputs": [
        {
          "internalType": "int56",
          "name": "tickCumulative0",
          "type": "int56"
        },
        {
          "internalType": "int56",
          "name": "tickCumulative1",
          "type": "int56"
        },
        {
          "internalType": "uint32",
          "name": "timeElapsed",
          "type": "uint32"
        }
      ],
      "name": "getTickForCumulators",
      "outputs": [
        {
          "internalType": "int24",
          "name": "tick",
          "type": "int24"
        }
      ],
      "stateMutability": "pure",
      "type": "function"
    },
    {
      "inputs": [],
      "name": "governor",
      "outputs": [
        {
          "internalType": "contract IGovernor",
          "name": "",
          "type": "address"
        }
      ],
      "stateMutability": "view",
      "type": "function"
    },
    {
      "inputs": [],
      "name": "hue",
      "outputs": [
        {
          "internalType": "address",
          "name": "",
          "type": "address"
        }
      ],
      "stateMutability": "view",
      "type": "function"
    },
    {
      "inputs": [
        {
          "internalType": "uint32",
          "name": "twapDuration",
          "type": "uint32"
        }
      ],
      "name": "hueTcpPrice",
      "outputs": [
        {
          "internalType": "uint256",
          "name": "",
          "type": "uint256"
        }
      ],
      "stateMutability": "view",
      "type": "function"
    },
    {
      "inputs": [],
      "name": "init",
      "outputs": [],
      "stateMutability": "nonpayable",
      "type": "function"
    },
    {
      "inputs": [
        {
          "internalType": "contract IUniswapV3Pool",
          "name": "pool",
          "type": "address"
        }
      ],
      "name": "initializePool",
      "outputs": [],
      "stateMutability": "nonpayable",
      "type": "function"
    },
    {
      "inputs": [
        {
          "internalType": "contract IUniswapV3Pool",
          "name": "pool",
          "type": "address"
        }
      ],
      "name": "initializeWethPool",
      "outputs": [],
      "stateMutability": "nonpayable",
      "type": "function"
    },
    {
      "inputs": [
        {
          "internalType": "contract IUniswapV3Pool",
          "name": "pool",
          "type": "address"
        }
      ],
      "name": "isPoolInitialized",
      "outputs": [
        {
          "internalType": "bool",
          "name": "",
          "type": "bool"
        }
      ],
      "stateMutability": "view",
      "type": "function"
    },
    {
      "inputs": [
        {
          "internalType": "uint256",
          "name": "price",
          "type": "uint256"
        },
        {
          "components": [
            {
              "internalType": "uint64",
              "name": "startTime",
              "type": "uint64"
            },
            {
              "internalType": "int56",
              "name": "tickCumulative",
              "type": "int56"
            },
            {
              "internalType": "int24",
              "name": "tick",
              "type": "int24"
            },
            {
              "internalType": "uint8",
              "name": "otherTokenDecimals",
              "type": "uint8"
            },
            {
              "internalType": "bool",
              "name": "isToken0",
              "type": "bool"
            },
            {
              "internalType": "bool",
              "name": "valid",
              "type": "bool"
            }
          ],
          "internalType": "struct IPrices.PriceInfo",
          "name": "pi",
          "type": "tuple"
        }
      ],
      "name": "normalizeDecimals",
      "outputs": [
        {
          "internalType": "uint256",
          "name": "",
          "type": "uint256"
        }
      ],
      "stateMutability": "pure",
      "type": "function"
    },
    {
      "inputs": [
        {
          "internalType": "contract IUniswapV3Pool",
          "name": "",
          "type": "address"
        }
      ],
      "name": "priceInfo",
      "outputs": [
        {
          "internalType": "uint64",
          "name": "startTime",
          "type": "uint64"
        },
        {
          "internalType": "int56",
          "name": "tickCumulative",
          "type": "int56"
        },
        {
          "internalType": "int24",
          "name": "tick",
          "type": "int24"
        },
        {
          "internalType": "uint8",
          "name": "otherTokenDecimals",
          "type": "uint8"
        },
        {
          "internalType": "bool",
          "name": "isToken0",
          "type": "bool"
        },
        {
          "internalType": "bool",
          "name": "valid",
          "type": "bool"
        }
      ],
      "stateMutability": "view",
      "type": "function"
    },
    {
      "inputs": [],
      "name": "protocolPool",
      "outputs": [
        {
          "internalType": "contract IUniswapV3Pool",
          "name": "",
          "type": "address"
        }
      ],
      "stateMutability": "view",
      "type": "function"
    },
    {
      "inputs": [
        {
          "internalType": "bool",
          "name": "valid",
          "type": "bool"
        }
      ],
      "name": "requireValidPool",
      "outputs": [],
      "stateMutability": "pure",
      "type": "function"
    },
    {
      "inputs": [],
      "name": "stop",
      "outputs": [],
      "stateMutability": "nonpayable",
      "type": "function"
    },
    {
      "inputs": [],
      "name": "stopped",
      "outputs": [
        {
          "internalType": "bool",
          "name": "",
          "type": "bool"
        }
      ],
      "stateMutability": "view",
      "type": "function"
    },
    {
      "inputs": [
        {
          "internalType": "contract IUniswapV3Pool",
          "name": "pool",
          "type": "address"
        }
      ],
      "name": "systemObtainReferencePrice",
      "outputs": [
        {
          "internalType": "uint256",
          "name": "",
          "type": "uint256"
        }
      ],
      "stateMutability": "nonpayable",
      "type": "function"
    },
    {
      "inputs": [],
      "name": "tcp",
      "outputs": [
        {
          "internalType": "address",
          "name": "",
          "type": "address"
        }
      ],
      "stateMutability": "view",
      "type": "function"
    },
    {
      "inputs": [
        {
          "internalType": "bytes4",
          "name": "",
          "type": "bytes4"
        }
      ],
      "name": "validUpdate",
      "outputs": [
        {
          "internalType": "bool",
          "name": "",
          "type": "bool"
        }
      ],
      "stateMutability": "view",
      "type": "function"
    },
    {
      "inputs": [],
      "name": "weth",
      "outputs": [
        {
          "internalType": "address",
          "name": "",
          "type": "address"
        }
      ],
      "stateMutability": "view",
      "type": "function"
    }
  ],
  "bytecode": "0x610140604052600160026000509090553480156200001d5760006000fd5b50604051620043a2380380620043a2833981810160405281019062000043919062000227565b5b805b80600001515b8073ffffffffffffffffffffffffffffffffffffffff1660808173ffffffffffffffffffffffffffffffffffffffff1660601b815260140150505b50806020015173ffffffffffffffffffffffffffffffffffffffff1660e08173ffffffffffffffffffffffffffffffffffffffff1660601b81526014015050806040015173ffffffffffffffffffffffffffffffffffffffff166101008173ffffffffffffffffffffffffffffffffffffffff1660601b81526014015050806060015173ffffffffffffffffffffffffffffffffffffffff166101208173ffffffffffffffffffffffffffffffffffffffff1660601b81526014015050806080015173ffffffffffffffffffffffffffffffffffffffff1660a08173ffffffffffffffffffffffffffffffffffffffff1660601b815260140150508060a0015173ffffffffffffffffffffffffffffffffffffffff1660c08173ffffffffffffffffffffffffffffffffffffffff1660601b8152601401505033600460006101000a81548173ffffffffffffffffffffffffffffffffffffffff021916908373ffffffffffffffffffffffffffffffffffffffff1602179055505b505b50620002fc56620002fb565b6000815190506200022181620002de565b5b919050565b600060c0828403121562000239578081fd5b60405160c081018181106001600160401b03821117156200025657fe5b806040525082516200026881620002de565b8082525060208301516200027c81620002de565b8060208301525060408301516200029381620002de565b80604083015250620002a86060840162000210565b6060820152620002bb6080840162000210565b6080820152620002ce60a0840162000210565b60a0820152809150505b92915050565b6001600160a01b03811681141515620002f75760006000fd5b5b50565b5b60805160601c60a05160601c60c05160601c60e05160601c6101005160601c6101205160601c613fe1620003c160003980610b9c5280610fee52806110235280611b3d5280611b8d525080610ac45280610bd352806110c252806110f7525080610a295280610eb75280611058528061108d5280611377525080610b1e52806113a752806113d05280611b6c525080610a835280611b1c5280611bc15280611c195250806106475280610edb528061126452806114365280611c405250613fe16000f3fe60806040523480156100115760006000fd5b50600436106101d45760003560e01c806375f12b2111610105578063d5f39488116100a3578063e1c7392a11610072578063e1c7392a1461059d578063fa42dcf4146105a7578063fcebd71c146105d7578063ff0eccf614610607576101d4565b8063d5f39488146104ef578063d97e64001461050d578063da6e58ce1461053d578063dcaeb11b1461056d576101d4565b80638d02a08a116100df5780638d02a08a1461042f578063ce1378541461045f578063ce403c131461048f578063d00d0bd6146104bf576101d4565b806375f12b21146103d75780637c5b9011146103f55780638396cf6914610411576101d4565b806336fc02f411610172578063407431f71161014c578063407431f71461033857806347453af214610354578063532cec7c146103725780636d048d53146103a2576101d4565b806336fc02f4146102cc5780633c63a9cd146102ea5780633fc8cef31461031a576101d4565b80631fab230e116101ae5780631fab230e1461023257806321b78b771461026257806332374174146102925780633497dcec146102b0576101d4565b806307da68f5146101da5780630c340a24146101e4578063113cf1ab14610202576101d4565b60006000fd5b6101e2610625565b005b6101ec610645565b6040516101f99190613caa565b60405180910390f35b61021c600480360381019061021791906137b1565b610669565b6040516102299190613c96565b60405180910390f35b61024c600480360381019061024791906138af565b61068e565b6040516102599190613e4a565b60405180910390f35b61027c60048036038101906102779190613988565b610b7b565b6040516102899190613e4a565b60405180910390f35b61029a610b9a565b6040516102a79190613c1a565b60405180910390f35b6102ca60048036038101906102c5919061378a565b610bbe565b005b6102d4610bd1565b6040516102e19190613c1a565b60405180910390f35b61030460048036038101906102ff9190613873565b610bf5565b6040516103119190613e4a565b60405180910390f35b610322610eb5565b60405161032f9190613c1a565b60405180910390f35b610352600480360381019061034d919061384c565b610ed9565b005b61035c61113d565b6040516103699190613c42565b60405180910390f35b61038c6004803603810190610387919061384c565b611157565b6040516103999190613c96565b60405180910390f35b6103bc60048036038101906103b7919061384c565b6111bb565b6040516103ce96959493929190613e90565b60405180910390f35b6103df61124f565b6040516103ec9190613c96565b60405180910390f35b61040f600480360381019061040a919061384c565b611262565b005b6104196113a5565b6040516104269190613cd2565b60405180910390f35b61044960048036038101906104449190613bad565b6113c9565b6040516104569190613e4a565b60405180910390f35b61047960048036038101906104749190613a10565b611407565b6040516104869190613e4a565b60405180910390f35b6104a960048036038101906104a4919061384c565b611424565b6040516104b69190613e4a565b60405180910390f35b6104d960048036038101906104d491906139c4565b6119f1565b6040516104e69190613cfa565b60405180910390f35b6104f7611a12565b6040516105049190613c1a565b60405180910390f35b61052760048036038101906105229190613950565b611a38565b6040516105349190613e4a565b60405180910390f35b61055760048036038101906105529190613bd0565b611a57565b6040516105649190613e78565b60405180910390f35b61058760048036038101906105829190613ad0565b611a74565b6040516105949190613e4a565b60405180910390f35b6105a5611a93565b005b6105c160048036038101906105bc9190613bad565b611bba565b6040516105ce9190613e4a565b60405180910390f35b6105f160048036038101906105ec9190613950565b611bf8565b6040516105fe9190613cfa565b60405180910390f35b61060f611c17565b60405161061c9190613cd2565b60405180910390f35b610633611c3b63ffffffff16565b610641611c9b63ffffffff16565b5b5b565b7f000000000000000000000000000000000000000000000000000000000000000081565b600160005060205280600052604060002060009150909054906101000a900460ff1681565b60006000600360005060008973ffffffffffffffffffffffffffffffffffffffff1673ffffffffffffffffffffffffffffffffffffffff1681526020019081526020016000206000506040518060c00160405290816000820160009054906101000a900467ffffffffffffffff1667ffffffffffffffff1667ffffffffffffffff1681526020016000820160089054906101000a900460060b60060b60060b815260200160008201600f9054906101000a900460020b60020b60020b81526020016000820160129054906101000a900460ff1660ff1660ff1681526020016000820160139054906101000a900460ff161515151581526020016000820160149054906101000a900460ff16151515158152602001505090506107b98160a00151611ce563ffffffff16565b60006107ca88611d2b63ffffffff16565b9050600060006107fe836107e38b611d2b63ffffffff16565b6107f28b611d2b63ffffffff16565b8a6121c263ffffffff16565b91509150600084608001516108135781610815565b825b905061091085608001516108945761088f6108658673ffffffffffffffffffffffffffffffffffffffff168773ffffffffffffffffffffffffffffffffffffffff166122d890919063ffffffff16565b7801000000000000000000000000000000000000000000000000866123769092919063ffffffff16565b610901565b61090078010000000000000000000000000000000000000000000000006108f08773ffffffffffffffffffffffffffffffffffffffff168873ffffffffffffffffffffffffffffffffffffffff166122d890919063ffffffff16565b856123769092919063ffffffff16565b5b8261247790919063ffffffff16565b90508050600085608001516109a4578c73ffffffffffffffffffffffffffffffffffffffff1663d21220a76040518163ffffffff1660e01b815260040160206040518083038186803b1580156109665760006000fd5b505afa15801561097b573d600060003e3d6000fd5b505050506040513d601f19601f8201168201806040525081019061099f919061368e565b610a25565b8c73ffffffffffffffffffffffffffffffffffffffff16630dfe16816040518163ffffffff1660e01b815260040160206040518083038186803b1580156109eb5760006000fd5b505afa158015610a00573d600060003e3d6000fd5b505050506040513d601f19601f82011682018060405250810190610a24919061368e565b5b90507f000000000000000000000000000000000000000000000000000000000000000073ffffffffffffffffffffffffffffffffffffffff168173ffffffffffffffffffffffffffffffffffffffff161415610ac257610abd610aae7f00000000000000000000000000000000000000000000000000000000000000008a61250063ffffffff16565b836125cf90919063ffffffff16565b915081505b7f000000000000000000000000000000000000000000000000000000000000000073ffffffffffffffffffffffffffffffffffffffff168173ffffffffffffffffffffffffffffffffffffffff161415610b5d57610b58610b497f00000000000000000000000000000000000000000000000000000000000000008a61250063ffffffff16565b836125cf90919063ffffffff16565b915081505b819650505050505050610b71565050505050505b9695505050505050565b6000610b8d83836125f563ffffffff16565b9050610b94565b92915050565b7f000000000000000000000000000000000000000000000000000000000000000081565b610bcd81611ce563ffffffff16565b5b50565b7f000000000000000000000000000000000000000000000000000000000000000081565b60006000600360005060008573ffffffffffffffffffffffffffffffffffffffff1673ffffffffffffffffffffffffffffffffffffffff1681526020019081526020016000206000506040518060c00160405290816000820160009054906101000a900467ffffffffffffffff1667ffffffffffffffff1667ffffffffffffffff1681526020016000820160089054906101000a900460060b60060b60060b815260200160008201600f9054906101000a900460020b60020b60020b81526020016000820160129054906101000a900460ff1660ff1660ff1681526020016000820160139054906101000a900460ff161515151581526020016000820160149054906101000a900460ff1615151515815260200150509050610d208160a00151611ce563ffffffff16565b6000610d3061263063ffffffff16565b90508067ffffffffffffffff16826000015167ffffffffffffffff16101515610d8e576040517f08c379a0000000000000000000000000000000000000000000000000000000008152600401610d8590613d8d565b60405180910390fd5b60008573ffffffffffffffffffffffffffffffffffffffff1663883bdbfd610dba61264b63ffffffff16565b6040518263ffffffff1660e01b8152600401610dd69190613c42565b60006040518083038186803b158015610def5760006000fd5b505afa158015610e04573d600060003e3d6000fd5b505050506040513d6000823e3d601f19601f82011682018060405250810190610e2d91906136b5565b509050610e82610e728460200151836000815181101515610e4a57fe5b6020026020010151610e67876000015187036126cc63ffffffff16565b61272e63ffffffff16565b84608001516125f563ffffffff16565b9350835084610e915783610ea2565b610ea1848461279d63ffffffff16565b5b9350505050610eaf565050505b92915050565b7f000000000000000000000000000000000000000000000000000000000000000081565b7f000000000000000000000000000000000000000000000000000000000000000073ffffffffffffffffffffffffffffffffffffffff16639ec5a8946040518163ffffffff1660e01b815260040160206040518083038186803b158015610f405760006000fd5b505afa158015610f55573d600060003e3d6000fd5b505050506040513d601f19601f82011682018060405250810190610f799190613825565b73ffffffffffffffffffffffffffffffffffffffff163373ffffffffffffffffffffffffffffffffffffffff16141515610fe8576040517f08c379a0000000000000000000000000000000000000000000000000000000008152600401610fdf90613d4e565b60405180910390fd5b611018817f000000000000000000000000000000000000000000000000000000000000000061283263ffffffff16565b156110525761104d817f00000000000000000000000000000000000000000000000000000000000000006129a463ffffffff16565b611139565b611082817f000000000000000000000000000000000000000000000000000000000000000061283263ffffffff16565b156110bc576110b7817f00000000000000000000000000000000000000000000000000000000000000006129a463ffffffff16565b611138565b6110ec817f000000000000000000000000000000000000000000000000000000000000000061283263ffffffff16565b1561112657611121817f00000000000000000000000000000000000000000000000000000000000000006129a463ffffffff16565b611137565b6111366000611ce563ffffffff16565b5b5b5b5b50565b606061114d61264b63ffffffff16565b9050611154565b90565b6000600360005060008373ffffffffffffffffffffffffffffffffffffffff1673ffffffffffffffffffffffffffffffffffffffff16815260200190815260200160002060005060000160149054906101000a900460ff1690506111b6565b919050565b60036000506020528060005260406000206000915090508060000160009054906101000a900467ffffffffffffffff16908060000160089054906101000a900460060b9080600001600f9054906101000a900460020b908060000160129054906101000a900460ff16908060000160139054906101000a900460ff16908060000160149054906101000a900460ff16905086565b600060009054906101000a900460ff1681565b7f000000000000000000000000000000000000000000000000000000000000000073ffffffffffffffffffffffffffffffffffffffff166343f48fbd6040518163ffffffff1660e01b815260040160206040518083038186803b1580156112c95760006000fd5b505afa1580156112de573d600060003e3d6000fd5b505050506040513d601f19601f8201168201806040525081019061130291906137fe565b73ffffffffffffffffffffffffffffffffffffffff163373ffffffffffffffffffffffffffffffffffffffff16141515611371576040517f08c379a000000000000000000000000000000000000000000000000000000000815260040161136890613d4e565b60405180910390fd5b6113a1817f00000000000000000000000000000000000000000000000000000000000000006129a463ffffffff16565b5b50565b7f000000000000000000000000000000000000000000000000000000000000000081565b60006113fb7f00000000000000000000000000000000000000000000000000000000000000008361250063ffffffff16565b9050611402565b919050565b600061141882612ef863ffffffff16565b905061141f565b919050565b6000611434612f5563ffffffff16565b7f000000000000000000000000000000000000000000000000000000000000000073ffffffffffffffffffffffffffffffffffffffff166343f48fbd6040518163ffffffff1660e01b815260040160206040518083038186803b15801561149b5760006000fd5b505afa1580156114b0573d600060003e3d6000fd5b505050506040513d601f19601f820116820180604052508101906114d491906137fe565b73ffffffffffffffffffffffffffffffffffffffff163373ffffffffffffffffffffffffffffffffffffffff16141515611543576040517f08c379a000000000000000000000000000000000000000000000000000000000815260040161153a90613d4e565b60405180910390fd5b6000600360005060008473ffffffffffffffffffffffffffffffffffffffff1673ffffffffffffffffffffffffffffffffffffffff1681526020019081526020016000206000506040518060c00160405290816000820160009054906101000a900467ffffffffffffffff1667ffffffffffffffff1667ffffffffffffffff1681526020016000820160089054906101000a900460060b60060b60060b815260200160008201600f9054906101000a900460020b60020b60020b81526020016000820160129054906101000a900460ff1660ff1660ff1681526020016000820160139054906101000a900460ff161515151581526020016000820160149054906101000a900460ff161515151581526020015050905061166c8160a00151611ce563ffffffff16565b600061167c61263063ffffffff16565b90508067ffffffffffffffff16826000015167ffffffffffffffff161015156116da576040517f08c379a00000000000000000000000000000000000000000000000000000000081526004016116d190613d8d565b60405180910390fd5b60008473ffffffffffffffffffffffffffffffffffffffff1663883bdbfd61170661264b63ffffffff16565b6040518263ffffffff1660e01b81526004016117229190613c42565b60006040518083038186803b15801561173b5760006000fd5b505afa158015611750573d600060003e3d6000fd5b505050506040513d6000823e3d601f19601f8201168201806040525081019061177991906136b5565b5090506117bb836020015182600081518110151561179357fe5b60200260200101516117b0866000015186036126cc63ffffffff16565b61272e63ffffffff16565b836040019060020b908160020b815260200150508060008151811015156117de57fe5b6020026020010151836020019060060b908160060b8152602001505081836000019067ffffffffffffffff16908167ffffffffffffffff168152602001505082600360005060008773ffffffffffffffffffffffffffffffffffffffff1673ffffffffffffffffffffffffffffffffffffffff16815260200190815260200160002060005060008201518160000160006101000a81548167ffffffffffffffff021916908367ffffffffffffffff16021790555060208201518160000160086101000a81548166ffffffffffffff021916908360060b66ffffffffffffff160217905550604082015181600001600f6101000a81548162ffffff021916908360020b62ffffff16021790555060608201518160000160126101000a81548160ff021916908360ff16021790555060808201518160000160136101000a81548160ff02191690831515021790555060a08201518160000160146101000a81548160ff021916908315150217905550905050600061197761196b856040015186608001516125f563ffffffff16565b8561279d63ffffffff16565b90508573ffffffffffffffffffffffffffffffffffffffff167f4aec2babed558ca204f263d79ac04efaccd05cd4b7bebfa21beeb221330062d38286604001516040516119c5929190613e5c565b60405180910390a2809450505050506119dd56505050505b6119eb612fe663ffffffff16565b5b919050565b6000611a0484848461272e63ffffffff16565b9050611a0b565b9392505050565b600460009054906101000a900473ffffffffffffffffffffffffffffffffffffffff1681565b6000611a4a838361250063ffffffff16565b9050611a51565b92915050565b6000611a68826126cc63ffffffff16565b9050611a6f565b919050565b6000611a86838361279d63ffffffff16565b9050611a8d565b92915050565b611af2600460009054906101000a900473ffffffffffffffffffffffffffffffffffffffff1673ffffffffffffffffffffffffffffffffffffffff163373ffffffffffffffffffffffffffffffffffffffff1614612ff663ffffffff16565b600460006101000a81549073ffffffffffffffffffffffffffffffffffffffff0219169055611b677f00000000000000000000000000000000000000000000000000000000000000007f00000000000000000000000000000000000000000000000000000000000000006129a463ffffffff16565b611bb77f00000000000000000000000000000000000000000000000000000000000000007f00000000000000000000000000000000000000000000000000000000000000006129a463ffffffff16565b5b565b6000611bec7f00000000000000000000000000000000000000000000000000000000000000008361250063ffffffff16565b9050611bf3565b919050565b6000611c0a838361307263ffffffff16565b9050611c11565b92915050565b7f000000000000000000000000000000000000000000000000000000000000000081565b611c987f000000000000000000000000000000000000000000000000000000000000000073ffffffffffffffffffffffffffffffffffffffff163373ffffffffffffffffffffffffffffffffffffffff1614612ff663ffffffff16565b5b565b6001600060006101000a81548160ff0219169083151502179055507f7acc84e34091ae817647a4c49116f5cc07f319078ba80f8f5fde37ea7e25cbd660405160405180910390a15b565b801515611d27576040517f08c379a0000000000000000000000000000000000000000000000000000000008152600401611d1e90613e0b565b60405180910390fd5b5b50565b6000600060008360020b12611d43578260020b611d4b565b8260020b6000035b90507ffffffffffffffffffffffffffffffffffffffffffffffffffffffffffff2761860000360020b8111151515611dee576040517f08c379a00000000000000000000000000000000000000000000000000000000081526004018080602001828103825260018152602001807f540000000000000000000000000000000000000000000000000000000000000081526020015060200191505060405180910390fd5b60006000600183161415611e1357700100000000000000000000000000000000611e25565b6ffffcb933bd6fad37aa2d162d1a5940015b70ffffffffffffffffffffffffffffffffff169050600060028316141515611e635760806ffff97272373d413259a46990580e213a8202901c905080505b600060048316141515611e8c5760806ffff2e50f5f656932ef12357cf3c7fdcc8202901c905080505b600060088316141515611eb55760806fffe5caca7e10e4e61c3624eaa0941cd08202901c905080505b600060108316141515611ede5760806fffcb9843d60f6159c9db58835c9266448202901c905080505b600060208316141515611f075760806fff973b41fa98c081472e6896dfb254c08202901c905080505b600060408316141515611f305760806fff2ea16466c96a3843ec78b326b528618202901c905080505b600060808316141515611f595760806ffe5dee046a99a2a811c461f1969c30538202901c905080505b60006101008316141515611f835760806ffcbe86c7900a88aedcffc83b479aa3a48202901c905080505b60006102008316141515611fad5760806ff987a7253ac413176f2b074cf7815e548202901c905080505b60006104008316141515611fd75760806ff3392b0822b70005940c7a398e4b70f38202901c905080505b600061080083161415156120015760806fe7159475a2c29b7443b29c7fa6e889d98202901c905080505b6000611000831614151561202b5760806fd097f3bdfd2022b8845ad8f792aa58258202901c905080505b600061200083161415156120555760806fa9f746462d870fdf8a65dc1f90e061e58202901c905080505b6000614000831614151561207f5760806f70d869a156d2a1b890bb3df62baf32f78202901c905080505b600061800083161415156120a95760806f31be135f97d08fd981231505542fcfa68202901c905080505b60006201000083161415156120d45760806f09aa508b5b7a84e1c677de54f3e99bc98202901c905080505b60006202000083161415156120fe5760806e5d6af8dedb81196699c329225ee6048202901c905080505b60006204000083161415156121275760806d2216e584f5fa1ea926041bedfe988202901c905080505b600062080000831614151561214e5760806b048a170391f7dc42444e8fa28202901c905080505b60008460020b131561218b57807fffffffffffffffffffffffffffffffffffffffffffffffffffffffffffffffff81151561218557fe5b04905080505b60006401000000008281151561219d57fe5b06146121aa5760016121ad565b60005b60ff16602082901c019250825050505b919050565b600060008373ffffffffffffffffffffffffffffffffffffffff168573ffffffffffffffffffffffffffffffffffffffff16111561220557838580955081965050505b8473ffffffffffffffffffffffffffffffffffffffff168673ffffffffffffffffffffffffffffffffffffffff161115156122545761224b85858561324a63ffffffff16565b915081506122ce565b8373ffffffffffffffffffffffffffffffffffffffff168673ffffffffffffffffffffffffffffffffffffffff1610156122b75761229986858561324a63ffffffff16565b915081506122ae85878561331263ffffffff16565b905080506122cd565b6122c885858561331263ffffffff16565b905080505b5b5b94509492505050565b600060008214806122f8575082828385029250828115156122f557fe5b04145b151561236f576040517f08c379a000000000000000000000000000000000000000000000000000000000815260040180806020018281038252600c8152602001807f6d756c2d6f766572666c6f77000000000000000000000000000000000000000081526020015060200191505060405180910390fd5b5b92915050565b60006000600060001985870985870292508281108382030391505060008114156123b9576000841115156123aa5760006000fd5b83820492508292505050612470565b80841115156123c85760006000fd5b60008486880990508281118203915080830392506000858660000316905080860495508084049350600181826000030401905080830284179350835060006002876003021890508087026002038102905080508087026002038102905080508087026002038102905080508087026002038102905080508087026002038102905080508087026002038102905080508085029550855085955050505050506124705650505050505b9392505050565b600082828401915081101515156124f9576040517f08c379a000000000000000000000000000000000000000000000000000000000815260040180806020018281038252600c8152602001807f6164642d6f766572666c6f77000000000000000000000000000000000000000081526020015060200191505060405180910390fd5b5b92915050565b60006000612578612517858561307263ffffffff16565b600360005060008773ffffffffffffffffffffffffffffffffffffffff1673ffffffffffffffffffffffffffffffffffffffff16815260200190815260200160002060005060000160139054906101000a900460ff166125f563ffffffff16565b90506000811115156125bf576040517f08c379a00000000000000000000000000000000000000000000000000000000081526004016125b690613d0f565b60405180910390fd5b809150506125c956505b92915050565b60006125ea8383670de0b6b3a764000061237663ffffffff16565b905080505b92915050565b600061262361261883612608578461260d565b846000035b611d2b63ffffffff16565b612ef863ffffffff16565b905061262a565b92915050565b6000612643426133a9909063ffffffff16565b905080505b90565b6060600167ffffffffffffffff811180156126665760006000fd5b506040519080825280602002602001820160405280156126955781602001602082028036833780820191505090505b509050805060008160008151811015156126ab57fe5b602002602001019063ffffffff16908163ffffffff16815260200150505b90565b60006401000000008267ffffffffffffffff16101515612721576040517f08c379a000000000000000000000000000000000000000000000000000000000815260040161271890613dcc565b60405180910390fd5b819050612729565b919050565b60006000848403905060008363ffffffff168260060b81151561274d57fe5b05905060008260060b12801561277b575060008463ffffffff168360060b81151561277457fe5b0760060b14155b1561278a578080600190039150505b80925050506127965650505b9392505050565b6000601260ff16826060015160ff1614156127ba5782905061282c565b6000601260ff16836060015160ff161090506000816127e05760128460600151036127e9565b83606001516012035b90508161280e576128098160ff16600a0a866122d890919063ffffffff16565b612821565b8060ff16600a0a8581151561281f57fe5b045b9250505061282c5650505b92915050565b60008173ffffffffffffffffffffffffffffffffffffffff168373ffffffffffffffffffffffffffffffffffffffff16630dfe16816040518163ffffffff1660e01b815260040160206040518083038186803b1580156128925760006000fd5b505afa1580156128a7573d600060003e3d6000fd5b505050506040513d601f19601f820116820180604052508101906128cb919061368e565b73ffffffffffffffffffffffffffffffffffffffff16148061299757508173ffffffffffffffffffffffffffffffffffffffff168373ffffffffffffffffffffffffffffffffffffffff1663d21220a76040518163ffffffff1660e01b815260040160206040518083038186803b1580156129465760006000fd5b505afa15801561295b573d600060003e3d6000fd5b505050506040513d601f19601f8201168201806040525081019061297f919061368e565b73ffffffffffffffffffffffffffffffffffffffff16145b905061299e565b92915050565b6129c26129b7838361283263ffffffff16565b611ce563ffffffff16565b600060008373ffffffffffffffffffffffffffffffffffffffff16633850c7bd6040518163ffffffff1660e01b815260040160e06040518083038186803b158015612a0d5760006000fd5b505afa158015612a22573d600060003e3d6000fd5b505050506040513d601f19601f82011682018060405250810190612a469190613a37565b505050505091509150612a7760008373ffffffffffffffffffffffffffffffffffffffff1611611ce563ffffffff16565b60008473ffffffffffffffffffffffffffffffffffffffff1663883bdbfd612aa361264b63ffffffff16565b6040518263ffffffff1660e01b8152600401612abf9190613c42565b60006040518083038186803b158015612ad85760006000fd5b505afa158015612aed573d600060003e3d6000fd5b505050506040513d6000823e3d601f19601f82011682018060405250810190612b1691906136b5565b50905060008473ffffffffffffffffffffffffffffffffffffffff168673ffffffffffffffffffffffffffffffffffffffff16630dfe16816040518163ffffffff1660e01b815260040160206040518083038186803b158015612b795760006000fd5b505afa158015612b8e573d600060003e3d6000fd5b505050506040513d601f19601f82011682018060405250810190612bb2919061368e565b73ffffffffffffffffffffffffffffffffffffffff161490506040518060c00160405280612be461263063ffffffff16565b67ffffffffffffffff168152602001836000815181101515612c0257fe5b602002602001015160060b81526020018460020b815260200182612ca5578773ffffffffffffffffffffffffffffffffffffffff16630dfe16816040518163ffffffff1660e01b815260040160206040518083038186803b158015612c675760006000fd5b505afa158015612c7c573d600060003e3d6000fd5b505050506040513d601f19601f82011682018060405250810190612ca0919061368e565b612d26565b8773ffffffffffffffffffffffffffffffffffffffff1663d21220a76040518163ffffffff1660e01b815260040160206040518083038186803b158015612cec5760006000fd5b505afa158015612d01573d600060003e3d6000fd5b505050506040513d601f19601f82011682018060405250810190612d25919061368e565b5b73ffffffffffffffffffffffffffffffffffffffff1663313ce5676040518163ffffffff1660e01b815260040160206040518083038186803b158015612d6c5760006000fd5b505afa158015612d81573d600060003e3d6000fd5b505050506040513d601f19601f82011682018060405250810190612da59190613bf3565b60ff168152602001821515815260200160011515815260200150600360005060008873ffffffffffffffffffffffffffffffffffffffff1673ffffffffffffffffffffffffffffffffffffffff16815260200190815260200160002060005060008201518160000160006101000a81548167ffffffffffffffff021916908367ffffffffffffffff16021790555060208201518160000160086101000a81548166ffffffffffffff021916908360060b66ffffffffffffff160217905550604082015181600001600f6101000a81548162ffffff021916908360020b62ffffff16021790555060608201518160000160126101000a81548160ff021916908360ff16021790555060808201518160000160136101000a81548160ff02191690831515021790555060a08201518160000160146101000a81548160ff021916908315150217905550905050505050505b5050565b60006000612f326c010000000000000000000000008473ffffffffffffffffffffffffffffffffffffffff1661343b90919063ffffffff16565b9050612f4781826125cf90919063ffffffff16565b915050612f5056505b919050565b600260026000505414151515612fd6576040517f08c379a000000000000000000000000000000000000000000000000000000000815260040180806020018281038252600d8152602001807f4c43205265656e7472616e63790000000000000000000000000000000000000081526020015060200191505060405180910390fd5b600260026000508190909055505b565b600160026000508190909055505b565b80151561306e576040517f08c379a000000000000000000000000000000000000000000000000000000000815260040180806020018281038252600e8152602001807f4e6f7420417574686f72697a656400000000000000000000000000000000000081526020015060200191505060405180910390fd5b5b50565b600060008263ffffffff161115156130bf576040517f08c379a00000000000000000000000000000000000000000000000000000000081526004016130b690613d8d565b60405180910390fd5b6000600267ffffffffffffffff811180156130da5760006000fd5b506040519080825280602002602001820160405280156131095781602001602082028036833780820191505090505b5090508281600081518110151561311c57fe5b602002602001019063ffffffff16908163ffffffff1681526020015050600081600181518110151561314a57fe5b602002602001019063ffffffff16908163ffffffff168152602001505060008473ffffffffffffffffffffffffffffffffffffffff1663883bdbfd836040518263ffffffff1660e01b81526004016131a29190613c42565b60006040518083038186803b1580156131bb5760006000fd5b505afa1580156131d0573d600060003e3d6000fd5b505050506040513d6000823e3d601f19601f820116820180604052508101906131f991906136b5565b50905061323981600081518110151561320e57fe5b602002602001015182600181518110151561322557fe5b60200260200101518661272e63ffffffff16565b925050506132445650505b92915050565b60008273ffffffffffffffffffffffffffffffffffffffff168473ffffffffffffffffffffffffffffffffffffffff16111561328b57828480945081955050505b8373ffffffffffffffffffffffffffffffffffffffff166132fa606060ff16846fffffffffffffffffffffffffffffffff16901b86860373ffffffffffffffffffffffffffffffffffffffff168673ffffffffffffffffffffffffffffffffffffffff1661346163ffffffff16565b81151561330357fe5b04905061330b565b9392505050565b60008273ffffffffffffffffffffffffffffffffffffffff168473ffffffffffffffffffffffffffffffffffffffff16111561335357828480945081955050505b61339b826fffffffffffffffffffffffffffffffff1685850373ffffffffffffffffffffffffffffffffffffffff166c0100000000000000000000000061346163ffffffff16565b90506133a2565b9392505050565b6000680100000000000000008210151561342e576040517f08c379a00000000000000000000000000000000000000000000000000000000081526004018080602001828103825260118152602001807f6d6f7265207468616e203634206269747300000000000000000000000000000081526020015060200191505060405180910390fd5b819050613436565b919050565b600061345683670de0b6b3a76400008461237663ffffffff16565b905080505b92915050565b60006000600060001985870985870292508281108382030391505060008114156134a4576000841115156134955760006000fd5b8382049250829250505061355b565b80841115156134b35760006000fd5b600084868809905082811182039150808303925060008586600003169050808604955080840493506001818260000304019050808302841793508350600060028760030218905080870260020381029050805080870260020381029050805080870260020381029050805080870260020381029050805080870260020381029050805080870260020381029050805080850295508550859550505050505061355b5650505050505b939250505056613faa565b600082601f8301121515613578578081fd5b8151602061358d61358883613f07565b613edc565b808382528282019150828601878485870289010111156135ab578586fd5b855b858110156135da5781516135c081613f2a565b80855250848401935084820191505b6001810190506135ad565b5050809450505050505b92915050565b6000813590506135f981613f53565b5b919050565b60008135905061360e81613f68565b5b919050565b60008151905061ffff81168114151561362d5760006000fd5b5b919050565b60008135905063ffffffff81168114151561364e5760006000fd5b5b919050565b60008135905067ffffffffffffffff8116811415156136735760006000fd5b5b919050565b60008135905061368881613f94565b5b919050565b60006020828403121561369f578081fd5b81516136aa81613f2a565b809150505b92915050565b60006000604083850312156136c8578081fd5b825167ffffffffffffffff808211156136df578283fd5b818501915085601f83011215156136f4578283fd5b8151602061370961370483613f07565b613edc565b8083825282820191508286018a848587028901011115613727578788fd5b8796505b8487101561375857805161373e81613f7e565b80845250838301925083810190505b60018701965061372b565b508097505050808701519350505080821115613772578283fd5b5061377f85828601613566565b9150505b9250929050565b60006020828403121561379b578081fd5b81356137a681613f53565b809150505b92915050565b6000602082840312156137c2578081fd5b81357fffffffff000000000000000000000000000000000000000000000000000000008116811415156137f3578182fd5b809150505b92915050565b60006020828403121561380f578081fd5b815161381a81613f2a565b809150505b92915050565b600060208284031215613836578081fd5b815161384181613f2a565b809150505b92915050565b60006020828403121561385d578081fd5b813561386881613f2a565b809150505b92915050565b6000600060408385031215613886578182fd5b823561389181613f2a565b8092505060208301356138a381613f53565b809150505b9250929050565b60006000600060006000600060c087890312156138ca578182fd5b86356138d581613f2a565b8096505060208701356138e781613f68565b8095505060408701356138f981613f68565b80945050606087013561390b81613f68565b8093505060808701356fffffffffffffffffffffffffffffffff811681141515613933578283fd5b8092505061394360a08801613633565b90505b9295509295509295565b6000600060408385031215613963578182fd5b823561396e81613f2a565b8092505061397e60208401613633565b90505b9250929050565b600060006040838503121561399b578182fd5b82356139a681613f68565b8092505060208301356139b881613f53565b809150505b9250929050565b600060006000606084860312156139d9578081fd5b83356139e481613f7e565b8093505060208401356139f681613f7e565b80925050613a0660408501613633565b90505b9250925092565b600060208284031215613a21578081fd5b8135613a2c81613f2a565b809150505b92915050565b600060006000600060006000600060e0888a031215613a54578485fd5b8751613a5f81613f2a565b809750506020880151613a7181613f68565b80965050613a8160408901613614565b9450613a8f60608901613614565b9350613a9d60808901613614565b925060a0880151613aad81613f94565b8092505060c0880151613abf81613f53565b809150505b92959891949750929550565b6000600082840360e0811215613ae4578283fd5b8335925060c07fffffffffffffffffffffffffffffffffffffffffffffffffffffffffffffffe082011215613b17578182fd5b5060405160c0810181811067ffffffffffffffff82111715613b3557fe5b8060405250613b4660208501613654565b81526040840135613b5681613f7e565b80602083015250613b69606085016135ff565b6040820152613b7a60808501613679565b6060820152613b8b60a085016135ea565b6080820152613b9c60c085016135ea565b60a0820152809150505b9250929050565b600060208284031215613bbe578081fd5b613bc782613633565b90505b92915050565b600060208284031215613be1578081fd5b613bea82613654565b90505b92915050565b600060208284031215613c04578081fd5b8151613c0f81613f94565b809150505b92915050565b600060208201905073ffffffffffffffffffffffffffffffffffffffff831682525b92915050565b600060208083018184528085518083526040860191508387019250845b81811015613c875763ffffffff8451168352848301925084840193505b600181019050613c5f565b50508093505050505b92915050565b600060208201905082151582525b92915050565b600060208201905073ffffffffffffffffffffffffffffffffffffffff831682525b92915050565b600060208201905073ffffffffffffffffffffffffffffffffffffffff831682525b92915050565b60006020820190508260020b82525b92915050565b600060208252600260208301527f504500000000000000000000000000000000000000000000000000000000000060408301526060820190505b919050565b600060208252600e60208301527f4e6f7420417574686f72697a656400000000000000000000000000000000000060408301526060820190505b919050565b600060208252600260208301527f544500000000000000000000000000000000000000000000000000000000000060408301526060820190505b919050565b600060208252601360208301527f626967676572207468616e20333220626974730000000000000000000000000060408301526060820190505b919050565b600060208252600c60208301527f496e76616c696420706f6f6c000000000000000000000000000000000000000060408301526060820190505b919050565b60006020820190508282525b92915050565b60006040820190508382528260020b60208301525b9392505050565b600060208201905063ffffffff831682525b92915050565b600060c08201905067ffffffffffffffff881682528660060b60208301528560020b604083015260ff85166060830152831515608083015282151560a08301525b979650505050505050565b6000604051905081810181811067ffffffffffffffff82111715613efc57fe5b80604052505b919050565b600067ffffffffffffffff821115613f1b57fe5b6020602083020190505b919050565b73ffffffffffffffffffffffffffffffffffffffff811681141515613f4f5760006000fd5b5b50565b80151581141515613f645760006000fd5b5b50565b8060020b81141515613f7a5760006000fd5b5b50565b8060060b81141515613f905760006000fd5b5b50565b60ff811681141515613fa65760006000fd5b5b50565bfea26469706673582212204bcc12f6c7c23ba38439e82bb6e71333a24c922d9015a60f42481e0302d876df64736f6c63430007060033",
  "linkReferences": {},
  "deployedLinkReferences": {}
}