{
  "_format": "hh-sol-artifact-1",
  "contractName": "PricesTestable",
  "sourceName": "contracts/mocks/PricesTestable.sol",
  "abi": [
    {
      "anonymous": false,
      "inputs": [
        {
          "indexed": true,
          "internalType": "address",
          "name": "governor",
          "type": "address"
        }
      ],
      "name": "Initialized",
      "type": "event"
    },
    {
      "anonymous": false,
      "inputs": [
        {
          "indexed": true,
          "internalType": "address",
          "name": "pool",
          "type": "address"
        },
        {
          "indexed": false,
          "internalType": "uint256",
          "name": "price",
          "type": "uint256"
        },
        {
          "indexed": false,
          "internalType": "int24",
          "name": "tick",
          "type": "int24"
        }
      ],
      "name": "PriceUpdated",
      "type": "event"
    },
    {
      "anonymous": false,
      "inputs": [],
      "name": "Stopped",
      "type": "event"
    },
    {
      "inputs": [],
      "name": "__now",
      "outputs": [
        {
          "internalType": "uint32[]",
          "name": "times",
          "type": "uint32[]"
        }
      ],
      "stateMutability": "pure",
      "type": "function"
    },
    {
      "inputs": [
        {
          "internalType": "uint64",
          "name": "input",
          "type": "uint64"
        }
      ],
      "name": "calculate64To32",
      "outputs": [
        {
          "internalType": "uint32",
          "name": "",
          "type": "uint32"
        }
      ],
      "stateMutability": "pure",
      "type": "function"
    },
    {
      "inputs": [
        {
          "internalType": "uint32",
          "name": "twapDuration",
          "type": "uint32"
        }
      ],
      "name": "calculateInstantCollateralPrice",
      "outputs": [
        {
          "internalType": "uint256",
          "name": "",
          "type": "uint256"
        }
      ],
      "stateMutability": "view",
      "type": "function"
    },
    {
      "inputs": [
        {
          "internalType": "contract IUniswapV3Pool",
          "name": "pool",
          "type": "address"
        },
        {
          "internalType": "uint32",
          "name": "twapDuration",
          "type": "uint32"
        }
      ],
      "name": "calculateInstantTwappedPrice",
      "outputs": [
        {
          "internalType": "uint256",
          "name": "",
          "type": "uint256"
        }
      ],
      "stateMutability": "view",
      "type": "function"
    },
    {
      "inputs": [
        {
          "internalType": "contract IUniswapV3Pool",
          "name": "pool",
          "type": "address"
        },
        {
          "internalType": "uint32",
          "name": "twapDuration",
          "type": "uint32"
        }
      ],
      "name": "calculateInstantTwappedTick",
      "outputs": [
        {
          "internalType": "int24",
          "name": "tick",
          "type": "int24"
        }
      ],
      "stateMutability": "view",
      "type": "function"
    },
    {
      "inputs": [
        {
          "internalType": "contract IUniswapV3Pool",
          "name": "pool",
          "type": "address"
        },
        {
          "internalType": "bool",
          "name": "normalizeDecimals",
          "type": "bool"
        }
      ],
      "name": "calculateTwappedPrice",
      "outputs": [
        {
          "internalType": "uint256",
          "name": "price",
          "type": "uint256"
        }
      ],
      "stateMutability": "view",
      "type": "function"
    },
    {
      "inputs": [],
      "name": "collateralPool",
      "outputs": [
        {
          "internalType": "contract IUniswapV3Pool",
          "name": "",
          "type": "address"
        }
      ],
      "stateMutability": "view",
      "type": "function"
    },
    {
      "inputs": [],
      "name": "deployer",
      "outputs": [
        {
          "internalType": "address",
          "name": "",
          "type": "address"
        }
      ],
      "stateMutability": "view",
      "type": "function"
    },
    {
      "inputs": [
        {
          "internalType": "contract IUniswapV3Pool",
          "name": "_collateralPool",
          "type": "address"
        },
        {
          "internalType": "contract IUniswapV3Pool",
          "name": "_protocolPool",
          "type": "address"
        },
        {
          "internalType": "address",
          "name": "_weth",
          "type": "address"
        }
      ],
      "name": "finalizeInitialization",
      "outputs": [],
      "stateMutability": "nonpayable",
      "type": "function"
    },
    {
      "inputs": [
        {
          "internalType": "uint160",
          "name": "sqrtPriceX96",
          "type": "uint160"
        }
      ],
      "name": "getE18PriceForSqrtX96Price",
      "outputs": [
        {
          "internalType": "uint256",
          "name": "",
          "type": "uint256"
        }
      ],
      "stateMutability": "pure",
      "type": "function"
    },
    {
      "inputs": [
        {
          "internalType": "int24",
          "name": "tick",
          "type": "int24"
        },
        {
          "internalType": "bool",
          "name": "isToken0",
          "type": "bool"
        }
      ],
      "name": "getPriceForTick",
      "outputs": [
        {
          "internalType": "uint256",
          "name": "price",
          "type": "uint256"
        }
      ],
      "stateMutability": "pure",
      "type": "function"
    },
    {
      "inputs": [
        {
          "internalType": "contract IUniswapV3Pool",
          "name": "pool",
          "type": "address"
        },
        {
          "internalType": "int24",
          "name": "tick",
          "type": "int24"
        },
        {
          "internalType": "int24",
          "name": "tickLower",
          "type": "int24"
        },
        {
          "internalType": "int24",
          "name": "tickUpper",
          "type": "int24"
        },
        {
          "internalType": "uint128",
          "name": "liquidity",
          "type": "uint128"
        },
        {
          "internalType": "uint32",
          "name": "twapDuration",
          "type": "uint32"
        }
      ],
      "name": "getRealHueCountForSinglePoolPosition",
      "outputs": [
        {
          "internalType": "uint256",
          "name": "",
          "type": "uint256"
        }
      ],
      "stateMutability": "view",
      "type": "function"
    },
    {
      "inputs": [
        {
          "internalType": "int56",
          "name": "tickCumulative0",
          "type": "int56"
        },
        {
          "internalType": "int56",
          "name": "tickCumulative1",
          "type": "int56"
        },
        {
          "internalType": "uint32",
          "name": "timeElapsed",
          "type": "uint32"
        }
      ],
      "name": "getTickForCumulators",
      "outputs": [
        {
          "internalType": "int24",
          "name": "tick",
          "type": "int24"
        }
      ],
      "stateMutability": "pure",
      "type": "function"
    },
    {
      "inputs": [],
      "name": "governor",
      "outputs": [
        {
          "internalType": "contract IGovernor",
          "name": "",
          "type": "address"
        }
      ],
      "stateMutability": "view",
      "type": "function"
    },
    {
      "inputs": [
        {
          "internalType": "uint32",
          "name": "twapDuration",
          "type": "uint32"
        }
      ],
      "name": "hueTcpPrice",
      "outputs": [
        {
          "internalType": "uint256",
          "name": "",
          "type": "uint256"
        }
      ],
      "stateMutability": "view",
      "type": "function"
    },
    {
      "inputs": [
        {
          "internalType": "contract IGovernor",
          "name": "_governor",
          "type": "address"
        }
      ],
      "name": "init",
      "outputs": [],
      "stateMutability": "nonpayable",
      "type": "function"
    },
    {
      "inputs": [
        {
          "internalType": "contract IUniswapV3Pool",
          "name": "pool",
          "type": "address"
        }
      ],
      "name": "initializePool",
      "outputs": [],
      "stateMutability": "nonpayable",
      "type": "function"
    },
    {
      "inputs": [
        {
          "internalType": "contract IUniswapV3Pool",
          "name": "pool",
          "type": "address"
        }
      ],
      "name": "initializeWethPool",
      "outputs": [],
      "stateMutability": "nonpayable",
      "type": "function"
    },
    {
      "inputs": [
        {
          "internalType": "contract IUniswapV3Pool",
          "name": "pool",
          "type": "address"
        }
      ],
      "name": "isPoolInitialized",
      "outputs": [
        {
          "internalType": "bool",
          "name": "",
          "type": "bool"
        }
      ],
      "stateMutability": "view",
      "type": "function"
    },
    {
      "inputs": [
        {
          "internalType": "uint256",
          "name": "price",
          "type": "uint256"
        },
        {
          "components": [
            {
              "internalType": "uint64",
              "name": "startTime",
              "type": "uint64"
            },
            {
              "internalType": "int56",
              "name": "tickCumulative",
              "type": "int56"
            },
            {
              "internalType": "int24",
              "name": "tick",
              "type": "int24"
            },
            {
              "internalType": "uint8",
              "name": "otherTokenDecimals",
              "type": "uint8"
            },
            {
              "internalType": "bool",
              "name": "isToken0",
              "type": "bool"
            },
            {
              "internalType": "bool",
              "name": "valid",
              "type": "bool"
            }
          ],
          "internalType": "struct IPrices.PriceInfo",
          "name": "pi",
          "type": "tuple"
        }
      ],
      "name": "normalizeDecimals",
      "outputs": [
        {
          "internalType": "uint256",
          "name": "",
          "type": "uint256"
        }
      ],
      "stateMutability": "pure",
      "type": "function"
    },
    {
      "inputs": [
        {
          "internalType": "contract IUniswapV3Pool",
          "name": "",
          "type": "address"
        }
      ],
      "name": "priceInfo",
      "outputs": [
        {
          "internalType": "uint64",
          "name": "startTime",
          "type": "uint64"
        },
        {
          "internalType": "int56",
          "name": "tickCumulative",
          "type": "int56"
        },
        {
          "internalType": "int24",
          "name": "tick",
          "type": "int24"
        },
        {
          "internalType": "uint8",
          "name": "otherTokenDecimals",
          "type": "uint8"
        },
        {
          "internalType": "bool",
          "name": "isToken0",
          "type": "bool"
        },
        {
          "internalType": "bool",
          "name": "valid",
          "type": "bool"
        }
      ],
      "stateMutability": "view",
      "type": "function"
    },
    {
      "inputs": [],
      "name": "protocolPool",
      "outputs": [
        {
          "internalType": "contract IUniswapV3Pool",
          "name": "",
          "type": "address"
        }
      ],
      "stateMutability": "view",
      "type": "function"
    },
    {
      "inputs": [
        {
          "internalType": "bool",
          "name": "valid",
          "type": "bool"
        }
      ],
      "name": "requireValidPool",
      "outputs": [],
      "stateMutability": "pure",
      "type": "function"
    },
    {
      "inputs": [],
      "name": "stop",
      "outputs": [],
      "stateMutability": "nonpayable",
      "type": "function"
    },
    {
      "inputs": [],
      "name": "stopped",
      "outputs": [
        {
          "internalType": "bool",
          "name": "",
          "type": "bool"
        }
      ],
      "stateMutability": "view",
      "type": "function"
    },
    {
      "inputs": [
        {
          "internalType": "contract IUniswapV3Pool",
          "name": "pool",
          "type": "address"
        }
      ],
      "name": "systemObtainReferencePrice",
      "outputs": [
        {
          "internalType": "uint256",
          "name": "",
          "type": "uint256"
        }
      ],
      "stateMutability": "nonpayable",
      "type": "function"
    },
    {
      "inputs": [],
      "name": "tcp",
      "outputs": [
        {
          "internalType": "address",
          "name": "",
          "type": "address"
        }
      ],
      "stateMutability": "view",
      "type": "function"
    },
    {
      "inputs": [
        {
          "internalType": "bytes4",
          "name": "",
          "type": "bytes4"
        }
      ],
      "name": "validUpdate",
      "outputs": [
        {
          "internalType": "bool",
          "name": "",
          "type": "bool"
        }
      ],
      "stateMutability": "view",
      "type": "function"
    },
    {
      "inputs": [],
      "name": "weth",
      "outputs": [
        {
          "internalType": "address",
          "name": "",
          "type": "address"
        }
      ],
      "stateMutability": "view",
      "type": "function"
    }
  ],
  "bytecode": "0x60806040526001600660005090905534801561001b5760006000fd5b505b33600160006101000a81548173ffffffffffffffffffffffffffffffffffffffff021916908373ffffffffffffffffffffffffffffffffffffffff1602179055505b610064565b614ac880620000746000396000f3fe60806040523480156100115760006000fd5b50600436106101d45760003560e01c806375f12b2111610105578063d00d0bd6116100a3578063dcaeb11b11610072578063dcaeb11b14610587578063fa42dcf4146105b7578063fcebd71c146105e7578063ff0eccf614610617576101d4565b8063d00d0bd6146104d9578063d5f3948814610509578063d97e640014610527578063da6e58ce14610557576101d4565b80638d02a08a116100df5780638d02a08a1461042d578063b6759e6d1461045d578063ce13785414610479578063ce403c13146104a9576101d4565b806375f12b21146103d55780637c5b9011146103f35780638396cf691461040f576101d4565b806336fc02f411610172578063407431f71161014c578063407431f71461033657806347453af214610352578063532cec7c146103705780636d048d53146103a0576101d4565b806336fc02f4146102ca5780633c63a9cd146102e85780633fc8cef314610318576101d4565b806319ab453c116101ae57806319ab453c146102325780631fab230e1461024e57806321b78b771461027e5780633497dcec146102ae576101d4565b806307da68f5146101da5780630c340a24146101e4578063113cf1ab14610202576101d4565b60006000fd5b6101e2610635565b005b6101ec610655565b6040516101f9919061490f565b60405180910390f35b61021c60048036038101906102179190614451565b61067b565b60405161022991906148fb565b60405180910390f35b61024c600480360381019061024791906144c5565b6106a0565b005b610268600480360381019061026391906145e9565b610ab1565b60405161027591906149f2565b60405180910390f35b610298600480360381019061029391906146b6565b610fae565b6040516102a591906149f2565b60405180910390f35b6102c860048036038101906102c3919061442e565b610fcd565b005b6102d2610fe0565b6040516102df919061487f565b60405180910390f35b61030260048036038101906102fd9190614561565b611006565b60405161030f91906149f2565b60405180910390f35b610320611475565b60405161032d919061487f565b60405180910390f35b610350600480360381019061034b919061453a565b61149b565b005b61035a611747565b60405161036791906148a7565b60405180910390f35b61038a6004803603810190610385919061453a565b611761565b60405161039791906148fb565b60405180910390f35b6103ba60048036038101906103b5919061453a565b6117c5565b6040516103cc96959493929190614a1c565b60405180910390f35b6103dd611859565b6040516103ea91906148fb565b60405180910390f35b61040d6004803603810190610408919061453a565b61186c565b005b6104176119ed565b6040516104249190614937565b60405180910390f35b61044760048036038101906104429190614839565b611a13565b60405161045491906149f2565b60405180910390f35b61047760048036038101906104729190614599565b611a53565b005b610493600480360381019061048e919061472e565b611d9c565b6040516104a091906149f2565b60405180910390f35b6104c360048036038101906104be919061453a565b611db9565b6040516104d091906149f2565b60405180910390f35b6104f360048036038101906104ee91906146ea565b61257a565b604051610500919061495f565b60405180910390f35b61051161259b565b60405161051e919061487f565b60405180910390f35b610541600480360381019061053c919061467e565b6125c1565b60405161054e91906149f2565b60405180910390f35b610571600480360381019061056c919061485c565b6125e0565b60405161057e9190614a04565b60405180910390f35b6105a1600480360381019061059c9190614755565b6125fd565b6040516105ae91906149f2565b60405180910390f35b6105d160048036038101906105cc9190614839565b61261c565b6040516105de91906149f2565b60405180910390f35b61060160048036038101906105fc919061467e565b61265c565b60405161060e919061495f565b60405180910390f35b61061f61267b565b60405161062c9190614937565b60405180910390f35b6106436126a163ffffffff16565b61065161273663ffffffff16565b5b5b565b600060009054906101000a900473ffffffffffffffffffffffffffffffffffffffff1681565b600560005060205280600052604060002060009150909054906101000a900460ff1681565b600160009054906101000a900473ffffffffffffffffffffffffffffffffffffffff1673ffffffffffffffffffffffffffffffffffffffff163373ffffffffffffffffffffffffffffffffffffffff161415156106fd5760006000fd5b600160159054906101000a900460ff1615151561071a5760006000fd5b80600060006101000a81548173ffffffffffffffffffffffffffffffffffffffff021916908373ffffffffffffffffffffffffffffffffffffffff160217905550600060009054906101000a900473ffffffffffffffffffffffffffffffffffffffff1673ffffffffffffffffffffffffffffffffffffffff16639624e83e6040518163ffffffff1660e01b815260040160206040518083038186803b1580156107c45760006000fd5b505afa1580156107d9573d600060003e3d6000fd5b505050506040513d601f19601f820116820180604052508101906107fd919061449e565b600260006101000a81548173ffffffffffffffffffffffffffffffffffffffff021916908373ffffffffffffffffffffffffffffffffffffffff160217905550600060009054906101000a900473ffffffffffffffffffffffffffffffffffffffff1673ffffffffffffffffffffffffffffffffffffffff1663323741746040518163ffffffff1660e01b815260040160206040518083038186803b1580156108a65760006000fd5b505afa1580156108bb573d600060003e3d6000fd5b505050506040513d601f19601f820116820180604052508101906108df91906144ec565b600360006101000a81548173ffffffffffffffffffffffffffffffffffffffff021916908373ffffffffffffffffffffffffffffffffffffffff160217905550600060009054906101000a900473ffffffffffffffffffffffffffffffffffffffff1673ffffffffffffffffffffffffffffffffffffffff1663d478b0876040518163ffffffff1660e01b815260040160206040518083038186803b1580156109885760006000fd5b505afa15801561099d573d600060003e3d6000fd5b505050506040513d601f19601f820116820180604052508101906109c19190614513565b600460006101000a81548173ffffffffffffffffffffffffffffffffffffffff021916908373ffffffffffffffffffffffffffffffffffffffff160217905550610a0f61278063ffffffff16565b600160149054906101000a900460ff1615610a44576001600160156101000a81548160ff021916908315150217905550610a6a565b600160006101000a81549073ffffffffffffffffffffffffffffffffffffffff02191690555b8073ffffffffffffffffffffffffffffffffffffffff167f908408e307fc569b417f6cbec5d5a06f44a0a505ac0479b47d421a4b2fd6a1e660405160405180910390a25b50565b60006000600760005060008973ffffffffffffffffffffffffffffffffffffffff1673ffffffffffffffffffffffffffffffffffffffff1681526020019081526020016000206000506040518060c00160405290816000820160009054906101000a900467ffffffffffffffff1667ffffffffffffffff1667ffffffffffffffff1681526020016000820160089054906101000a900460060b60060b60060b815260200160008201600f9054906101000a900460020b60020b60020b81526020016000820160129054906101000a900460ff1660ff1660ff1681526020016000820160139054906101000a900460ff161515151581526020016000820160149054906101000a900460ff1615151515815260200150509050610bdc8160a0015161279e63ffffffff16565b6000610bed8861281a63ffffffff16565b905060006000610c2183610c068b61281a63ffffffff16565b610c158b61281a63ffffffff16565b8a612cb163ffffffff16565b9150915060008460800151610c365781610c38565b825b9050610d338560800151610cb757610cb2610c888673ffffffffffffffffffffffffffffffffffffffff168773ffffffffffffffffffffffffffffffffffffffff16612dc790919063ffffffff16565b780100000000000000000000000000000000000000000000000086612e659092919063ffffffff16565b610d24565b610d237801000000000000000000000000000000000000000000000000610d138773ffffffffffffffffffffffffffffffffffffffff168873ffffffffffffffffffffffffffffffffffffffff16612dc790919063ffffffff16565b85612e659092919063ffffffff16565b5b82612f6690919063ffffffff16565b9050805060008560800151610dcb578c73ffffffffffffffffffffffffffffffffffffffff1663d21220a76040518163ffffffff1660e01b815260040160206040518083038186803b158015610d895760006000fd5b505afa158015610d9e573d600060003e3d6000fd5b505050506040513d6020811015610db55760006000fd5b8101908080519060200190929190505050610e50565b8c73ffffffffffffffffffffffffffffffffffffffff16630dfe16816040518163ffffffff1660e01b815260040160206040518083038186803b158015610e125760006000fd5b505afa158015610e27573d600060003e3d6000fd5b505050506040513d6020811015610e3e5760006000fd5b81019080805190602001909291905050505b9050600a60009054906101000a900473ffffffffffffffffffffffffffffffffffffffff1673ffffffffffffffffffffffffffffffffffffffff168173ffffffffffffffffffffffffffffffffffffffff161415610ef157610eec610edd600860009054906101000a900473ffffffffffffffffffffffffffffffffffffffff168a612fef63ffffffff16565b836130f490919063ffffffff16565b915081505b600b60009054906101000a900473ffffffffffffffffffffffffffffffffffffffff1673ffffffffffffffffffffffffffffffffffffffff168173ffffffffffffffffffffffffffffffffffffffff161415610f9057610f8b610f7c600960009054906101000a900473ffffffffffffffffffffffffffffffffffffffff168a612fef63ffffffff16565b836130f490919063ffffffff16565b915081505b819650505050505050610fa4565050505050505b9695505050505050565b6000610fc0838361311a63ffffffff16565b9050610fc7565b92915050565b610fdc8161279e63ffffffff16565b5b50565b600b60009054906101000a900473ffffffffffffffffffffffffffffffffffffffff1681565b60006000600760005060008573ffffffffffffffffffffffffffffffffffffffff1673ffffffffffffffffffffffffffffffffffffffff1681526020019081526020016000206000506040518060c00160405290816000820160009054906101000a900467ffffffffffffffff1667ffffffffffffffff1667ffffffffffffffff1681526020016000820160089054906101000a900460060b60060b60060b815260200160008201600f9054906101000a900460020b60020b60020b81526020016000820160129054906101000a900460ff1660ff1660ff1681526020016000820160139054906101000a900460ff161515151581526020016000820160149054906101000a900460ff16151515158152602001505090506111318160a0015161279e63ffffffff16565b600061114161315563ffffffff16565b90508067ffffffffffffffff16826000015167ffffffffffffffff161015156111d5576040517f08c379a00000000000000000000000000000000000000000000000000000000081526004018080602001828103825260028152602001807f544500000000000000000000000000000000000000000000000000000000000081526020015060200191505060405180910390fd5b60008573ffffffffffffffffffffffffffffffffffffffff1663883bdbfd61120161317063ffffffff16565b6040518263ffffffff1660e01b81526004018080602001828103825283818151815260200191508051906020019060200280838360005b838110156112545780820151818401525b602081019050611238565b505050509050019250505060006040518083038186803b1580156112785760006000fd5b505afa15801561128d573d600060003e3d6000fd5b505050506040513d6000823e3d601f19601f8201168201806040525060408110156112b85760006000fd5b81019080805160405193929190846401000000008211156112d95760006000fd5b838201915060208201858111156112f05760006000fd5b825186602082028301116401000000008211171561130e5760006000fd5b8083526020830192505050908051906020019060200280838360005b838110156113465780820151818401525b60208101905061132a565b50505050905001604052602001805160405193929190846401000000008211156113705760006000fd5b838201915060208201858111156113875760006000fd5b82518660208202830111640100000000821117156113a55760006000fd5b8083526020830192505050908051906020019060200280838360005b838110156113dd5780820151818401525b6020810190506113c1565b50505050905001604052602001505050509050611442611432846020015183600081518110151561140a57fe5b6020026020010151611427876000015187036131f163ffffffff16565b61328963ffffffff16565b846080015161311a63ffffffff16565b93508350846114515783611462565b61146184846132f863ffffffff16565b5b935050505061146f565050505b92915050565b600a60009054906101000a900473ffffffffffffffffffffffffffffffffffffffff1681565b600060009054906101000a900473ffffffffffffffffffffffffffffffffffffffff1673ffffffffffffffffffffffffffffffffffffffff16639ec5a8946040518163ffffffff1660e01b815260040160206040518083038186803b1580156115045760006000fd5b505afa158015611519573d600060003e3d6000fd5b505050506040513d60208110156115305760006000fd5b810190808051906020019092919050505073ffffffffffffffffffffffffffffffffffffffff163373ffffffffffffffffffffffffffffffffffffffff161415156115e6576040517f08c379a000000000000000000000000000000000000000000000000000000000815260040180806020018281038252600e8152602001807f4e6f7420417574686f72697a656400000000000000000000000000000000000081526020015060200191505060405180910390fd5b61161881600360009054906101000a900473ffffffffffffffffffffffffffffffffffffffff1661338d63ffffffff16565b156116545761164f81600360009054906101000a900473ffffffffffffffffffffffffffffffffffffffff1661350763ffffffff16565b611743565b61168681600a60009054906101000a900473ffffffffffffffffffffffffffffffffffffffff1661338d63ffffffff16565b156116c2576116bd81600a60009054906101000a900473ffffffffffffffffffffffffffffffffffffffff1661350763ffffffff16565b611742565b6116f481600b60009054906101000a900473ffffffffffffffffffffffffffffffffffffffff1661338d63ffffffff16565b156117305761172b81600b60009054906101000a900473ffffffffffffffffffffffffffffffffffffffff1661350763ffffffff16565b611741565b611740600061279e63ffffffff16565b5b5b5b5b50565b606061175761317063ffffffff16565b905061175e565b90565b6000600760005060008373ffffffffffffffffffffffffffffffffffffffff1673ffffffffffffffffffffffffffffffffffffffff16815260200190815260200160002060005060000160149054906101000a900460ff1690506117c0565b919050565b60076000506020528060005260406000206000915090508060000160009054906101000a900467ffffffffffffffff16908060000160089054906101000a900460060b9080600001600f9054906101000a900460020b908060000160129054906101000a900460ff16908060000160139054906101000a900460ff16908060000160149054906101000a900460ff16905086565b600060149054906101000a900460ff1681565b600060009054906101000a900473ffffffffffffffffffffffffffffffffffffffff1673ffffffffffffffffffffffffffffffffffffffff166343f48fbd6040518163ffffffff1660e01b815260040160206040518083038186803b1580156118d55760006000fd5b505afa1580156118ea573d600060003e3d6000fd5b505050506040513d60208110156119015760006000fd5b810190808051906020019092919050505073ffffffffffffffffffffffffffffffffffffffff163373ffffffffffffffffffffffffffffffffffffffff161415156119b7576040517f08c379a000000000000000000000000000000000000000000000000000000000815260040180806020018281038252600e8152602001807f4e6f7420417574686f72697a656400000000000000000000000000000000000081526020015060200191505060405180910390fd5b6119e981600a60009054906101000a900473ffffffffffffffffffffffffffffffffffffffff1661350763ffffffff16565b5b50565b600960009054906101000a900473ffffffffffffffffffffffffffffffffffffffff1681565b6000611a47600960009054906101000a900473ffffffffffffffffffffffffffffffffffffffff1683612fef63ffffffff16565b9050611a4e565b919050565b600160149054906101000a900460ff168015611a7b5750600160159054906101000a900460ff165b8015611ad45750600160009054906101000a900473ffffffffffffffffffffffffffffffffffffffff1673ffffffffffffffffffffffffffffffffffffffff163373ffffffffffffffffffffffffffffffffffffffff16145b1515611ae05760006000fd5b600160146101000a81549060ff0219169055600160156101000a81549060ff0219169055600160006101000a81549073ffffffffffffffffffffffffffffffffffffffff0219169055600073ffffffffffffffffffffffffffffffffffffffff16600360009054906101000a900473ffffffffffffffffffffffffffffffffffffffff1673ffffffffffffffffffffffffffffffffffffffff1614151515611b885760006000fd5b611bba83600360009054906101000a900473ffffffffffffffffffffffffffffffffffffffff1661350763ffffffff16565b611bec82600360009054906101000a900473ffffffffffffffffffffffffffffffffffffffff1661350763ffffffff16565b82600860006101000a81548173ffffffffffffffffffffffffffffffffffffffff021916908373ffffffffffffffffffffffffffffffffffffffff16021790555081600960006101000a81548173ffffffffffffffffffffffffffffffffffffffff021916908373ffffffffffffffffffffffffffffffffffffffff16021790555080600a60006101000a81548173ffffffffffffffffffffffffffffffffffffffff021916908373ffffffffffffffffffffffffffffffffffffffff160217905550600060009054906101000a900473ffffffffffffffffffffffffffffffffffffffff1673ffffffffffffffffffffffffffffffffffffffff166336fc02f46040518163ffffffff1660e01b815260040160206040518083038186803b158015611d185760006000fd5b505afa158015611d2d573d600060003e3d6000fd5b505050506040513d6020811015611d445760006000fd5b8101908080519060200190929190505050600b60006101000a81548173ffffffffffffffffffffffffffffffffffffffff021916908373ffffffffffffffffffffffffffffffffffffffff1602179055505b5b505050565b6000611dad82613c2463ffffffff16565b9050611db4565b919050565b6000611dc9613c8163ffffffff16565b600060009054906101000a900473ffffffffffffffffffffffffffffffffffffffff1673ffffffffffffffffffffffffffffffffffffffff166343f48fbd6040518163ffffffff1660e01b815260040160206040518083038186803b158015611e325760006000fd5b505afa158015611e47573d600060003e3d6000fd5b505050506040513d6020811015611e5e5760006000fd5b810190808051906020019092919050505073ffffffffffffffffffffffffffffffffffffffff163373ffffffffffffffffffffffffffffffffffffffff16141515611f14576040517f08c379a000000000000000000000000000000000000000000000000000000000815260040180806020018281038252600e8152602001807f4e6f7420417574686f72697a656400000000000000000000000000000000000081526020015060200191505060405180910390fd5b6000600760005060008473ffffffffffffffffffffffffffffffffffffffff1673ffffffffffffffffffffffffffffffffffffffff1681526020019081526020016000206000506040518060c00160405290816000820160009054906101000a900467ffffffffffffffff1667ffffffffffffffff1667ffffffffffffffff1681526020016000820160089054906101000a900460060b60060b60060b815260200160008201600f9054906101000a900460020b60020b60020b81526020016000820160129054906101000a900460ff1660ff1660ff1681526020016000820160139054906101000a900460ff161515151581526020016000820160149054906101000a900460ff161515151581526020015050905061203d8160a0015161279e63ffffffff16565b600061204d61315563ffffffff16565b90508067ffffffffffffffff16826000015167ffffffffffffffff161015156120e1576040517f08c379a00000000000000000000000000000000000000000000000000000000081526004018080602001828103825260028152602001807f544500000000000000000000000000000000000000000000000000000000000081526020015060200191505060405180910390fd5b60008473ffffffffffffffffffffffffffffffffffffffff1663883bdbfd61210d61317063ffffffff16565b6040518263ffffffff1660e01b81526004018080602001828103825283818151815260200191508051906020019060200280838360005b838110156121605780820151818401525b602081019050612144565b505050509050019250505060006040518083038186803b1580156121845760006000fd5b505afa158015612199573d600060003e3d6000fd5b505050506040513d6000823e3d601f19601f8201168201806040525060408110156121c45760006000fd5b81019080805160405193929190846401000000008211156121e55760006000fd5b838201915060208201858111156121fc5760006000fd5b825186602082028301116401000000008211171561221a5760006000fd5b8083526020830192505050908051906020019060200280838360005b838110156122525780820151818401525b602081019050612236565b505050509050016040526020018051604051939291908464010000000082111561227c5760006000fd5b838201915060208201858111156122935760006000fd5b82518660208202830111640100000000821117156122b15760006000fd5b8083526020830192505050908051906020019060200280838360005b838110156122e95780820151818401525b6020810190506122cd565b5050505090500160405260200150505050905061233b836020015182600081518110151561231357fe5b6020026020010151612330866000015186036131f163ffffffff16565b61328963ffffffff16565b836040019060020b908160020b8152602001505080600081518110151561235e57fe5b6020026020010151836020019060060b908160060b8152602001505081836000019067ffffffffffffffff16908167ffffffffffffffff168152602001505082600760005060008773ffffffffffffffffffffffffffffffffffffffff1673ffffffffffffffffffffffffffffffffffffffff16815260200190815260200160002060005060008201518160000160006101000a81548167ffffffffffffffff021916908367ffffffffffffffff16021790555060208201518160000160086101000a81548166ffffffffffffff021916908360060b66ffffffffffffff160217905550604082015181600001600f6101000a81548162ffffff021916908360020b62ffffff16021790555060608201518160000160126101000a81548160ff021916908360ff16021790555060808201518160000160136101000a81548160ff02191690831515021790555060a08201518160000160146101000a81548160ff02191690831515021790555090505060006124f76124eb8560400151866080015161311a63ffffffff16565b856132f863ffffffff16565b90508573ffffffffffffffffffffffffffffffffffffffff167f4aec2babed558ca204f263d79ac04efaccd05cd4b7bebfa21beeb221330062d3828660400151604051808381526020018260020b81526020019250505060405180910390a28094505050505061256656505050505b612574613cdc63ffffffff16565b5b919050565b600061258d84848461328963ffffffff16565b9050612594565b9392505050565b600160009054906101000a900473ffffffffffffffffffffffffffffffffffffffff1681565b60006125d38383612fef63ffffffff16565b90506125da565b92915050565b60006125f1826131f163ffffffff16565b90506125f8565b919050565b600061260f83836132f863ffffffff16565b9050612616565b92915050565b6000612650600860009054906101000a900473ffffffffffffffffffffffffffffffffffffffff1683612fef63ffffffff16565b9050612657565b919050565b600061266e8383613cec63ffffffff16565b9050612675565b92915050565b600860009054906101000a900473ffffffffffffffffffffffffffffffffffffffff1681565b600060009054906101000a900473ffffffffffffffffffffffffffffffffffffffff1673ffffffffffffffffffffffffffffffffffffffff163373ffffffffffffffffffffffffffffffffffffffff16141515612733576040517f08c379a000000000000000000000000000000000000000000000000000000000815260040161272a906149b3565b60405180910390fd5b5b565b6001600060146101000a81548160ff0219169083151502179055507f7acc84e34091ae817647a4c49116f5cc07f319078ba80f8f5fde37ea7e25cbd660405160405180910390a15b565b6001600160146101000a81548160ff0219169083151502179055505b565b801515612816576040517f08c379a000000000000000000000000000000000000000000000000000000000815260040180806020018281038252600c8152602001807f496e76616c696420706f6f6c000000000000000000000000000000000000000081526020015060200191505060405180910390fd5b5b50565b6000600060008360020b12612832578260020b61283a565b8260020b6000035b90507ffffffffffffffffffffffffffffffffffffffffffffffffffffffffffff2761860000360020b81111515156128dd576040517f08c379a00000000000000000000000000000000000000000000000000000000081526004018080602001828103825260018152602001807f540000000000000000000000000000000000000000000000000000000000000081526020015060200191505060405180910390fd5b6000600060018316141561290257700100000000000000000000000000000000612914565b6ffffcb933bd6fad37aa2d162d1a5940015b70ffffffffffffffffffffffffffffffffff1690506000600283161415156129525760806ffff97272373d413259a46990580e213a8202901c905080505b60006004831614151561297b5760806ffff2e50f5f656932ef12357cf3c7fdcc8202901c905080505b6000600883161415156129a45760806fffe5caca7e10e4e61c3624eaa0941cd08202901c905080505b6000601083161415156129cd5760806fffcb9843d60f6159c9db58835c9266448202901c905080505b6000602083161415156129f65760806fff973b41fa98c081472e6896dfb254c08202901c905080505b600060408316141515612a1f5760806fff2ea16466c96a3843ec78b326b528618202901c905080505b600060808316141515612a485760806ffe5dee046a99a2a811c461f1969c30538202901c905080505b60006101008316141515612a725760806ffcbe86c7900a88aedcffc83b479aa3a48202901c905080505b60006102008316141515612a9c5760806ff987a7253ac413176f2b074cf7815e548202901c905080505b60006104008316141515612ac65760806ff3392b0822b70005940c7a398e4b70f38202901c905080505b60006108008316141515612af05760806fe7159475a2c29b7443b29c7fa6e889d98202901c905080505b60006110008316141515612b1a5760806fd097f3bdfd2022b8845ad8f792aa58258202901c905080505b60006120008316141515612b445760806fa9f746462d870fdf8a65dc1f90e061e58202901c905080505b60006140008316141515612b6e5760806f70d869a156d2a1b890bb3df62baf32f78202901c905080505b60006180008316141515612b985760806f31be135f97d08fd981231505542fcfa68202901c905080505b6000620100008316141515612bc35760806f09aa508b5b7a84e1c677de54f3e99bc98202901c905080505b6000620200008316141515612bed5760806e5d6af8dedb81196699c329225ee6048202901c905080505b6000620400008316141515612c165760806d2216e584f5fa1ea926041bedfe988202901c905080505b6000620800008316141515612c3d5760806b048a170391f7dc42444e8fa28202901c905080505b60008460020b1315612c7a57807fffffffffffffffffffffffffffffffffffffffffffffffffffffffffffffffff811515612c7457fe5b04905080505b600064010000000082811515612c8c57fe5b0614612c99576001612c9c565b60005b60ff16602082901c019250825050505b919050565b600060008373ffffffffffffffffffffffffffffffffffffffff168573ffffffffffffffffffffffffffffffffffffffff161115612cf457838580955081965050505b8473ffffffffffffffffffffffffffffffffffffffff168673ffffffffffffffffffffffffffffffffffffffff16111515612d4357612d3a85858561407363ffffffff16565b91508150612dbd565b8373ffffffffffffffffffffffffffffffffffffffff168673ffffffffffffffffffffffffffffffffffffffff161015612da657612d8886858561407363ffffffff16565b91508150612d9d85878561413b63ffffffff16565b90508050612dbc565b612db785858561413b63ffffffff16565b905080505b5b5b94509492505050565b60006000821480612de757508282838502925082811515612de457fe5b04145b1515612e5e576040517f08c379a000000000000000000000000000000000000000000000000000000000815260040180806020018281038252600c8152602001807f6d756c2d6f766572666c6f77000000000000000000000000000000000000000081526020015060200191505060405180910390fd5b5b92915050565b6000600060006000198587098587029250828110838203039150506000811415612ea857600084111515612e995760006000fd5b83820492508292505050612f5f565b8084111515612eb75760006000fd5b6000848688099050828111820391508083039250600085866000031690508086049550808404935060018182600003040190508083028417935083506000600287600302189050808702600203810290508050808702600203810290508050808702600203810290508050808702600203810290508050808702600203810290508050808702600203810290508050808502955085508595505050505050612f5f5650505050505b9392505050565b60008282840191508110151515612fe8576040517f08c379a000000000000000000000000000000000000000000000000000000000815260040180806020018281038252600c8152602001807f6164642d6f766572666c6f77000000000000000000000000000000000000000081526020015060200191505060405180910390fd5b5b92915050565b600060006130676130068585613cec63ffffffff16565b600760005060008773ffffffffffffffffffffffffffffffffffffffff1673ffffffffffffffffffffffffffffffffffffffff16815260200190815260200160002060005060000160139054906101000a900460ff1661311a63ffffffff16565b90506000811115156130e4576040517f08c379a00000000000000000000000000000000000000000000000000000000081526004018080602001828103825260028152602001807f504500000000000000000000000000000000000000000000000000000000000081526020015060200191505060405180910390fd5b809150506130ee56505b92915050565b600061310f8383670de0b6b3a7640000612e6563ffffffff16565b905080505b92915050565b600061314861313d8361312d5784613132565b846000035b61281a63ffffffff16565b613c2463ffffffff16565b905061314f565b92915050565b6000613168426141d2909063ffffffff16565b905080505b90565b6060600167ffffffffffffffff8111801561318b5760006000fd5b506040519080825280602002602001820160405280156131ba5781602001602082028036833780820191505090505b509050805060008160008151811015156131d057fe5b602002602001019063ffffffff16908163ffffffff16815260200150505b90565b60006401000000008267ffffffffffffffff1610151561327c576040517f08c379a00000000000000000000000000000000000000000000000000000000081526004018080602001828103825260138152602001807f626967676572207468616e20333220626974730000000000000000000000000081526020015060200191505060405180910390fd5b819050613284565b919050565b60006000848403905060008363ffffffff168260060b8115156132a857fe5b05905060008260060b1280156132d6575060008463ffffffff168360060b8115156132cf57fe5b0760060b14155b156132e5578080600190039150505b80925050506132f15650505b9392505050565b6000601260ff16826060015160ff16141561331557829050613387565b6000601260ff16836060015160ff1610905060008161333b576012846060015103613344565b83606001516012035b905081613369576133648160ff16600a0a86612dc790919063ffffffff16565b61337c565b8060ff16600a0a8581151561337a57fe5b045b925050506133875650505b92915050565b60008173ffffffffffffffffffffffffffffffffffffffff168373ffffffffffffffffffffffffffffffffffffffff16630dfe16816040518163ffffffff1660e01b815260040160206040518083038186803b1580156133ed5760006000fd5b505afa158015613402573d600060003e3d6000fd5b505050506040513d60208110156134195760006000fd5b810190808051906020019092919050505073ffffffffffffffffffffffffffffffffffffffff1614806134fa57508173ffffffffffffffffffffffffffffffffffffffff168373ffffffffffffffffffffffffffffffffffffffff1663d21220a76040518163ffffffff1660e01b815260040160206040518083038186803b1580156134a55760006000fd5b505afa1580156134ba573d600060003e3d6000fd5b505050506040513d60208110156134d15760006000fd5b810190808051906020019092919050505073ffffffffffffffffffffffffffffffffffffffff16145b9050613501565b92915050565b61352561351a838361338d63ffffffff16565b61279e63ffffffff16565b600060008373ffffffffffffffffffffffffffffffffffffffff16633850c7bd6040518163ffffffff1660e01b815260040160e06040518083038186803b1580156135705760006000fd5b505afa158015613585573d600060003e3d6000fd5b505050506040513d60e081101561359c5760006000fd5b810190808051906020019092919080519060200190929190805190602001909291908051906020019092919080519060200190929190805190602001909291908051906020019092919050505050505050509150915061361a60008373ffffffffffffffffffffffffffffffffffffffff161161279e63ffffffff16565b60008473ffffffffffffffffffffffffffffffffffffffff1663883bdbfd61364661317063ffffffff16565b6040518263ffffffff1660e01b81526004018080602001828103825283818151815260200191508051906020019060200280838360005b838110156136995780820151818401525b60208101905061367d565b505050509050019250505060006040518083038186803b1580156136bd5760006000fd5b505afa1580156136d2573d600060003e3d6000fd5b505050506040513d6000823e3d601f19601f8201168201806040525060408110156136fd5760006000fd5b810190808051604051939291908464010000000082111561371e5760006000fd5b838201915060208201858111156137355760006000fd5b82518660208202830111640100000000821117156137535760006000fd5b8083526020830192505050908051906020019060200280838360005b8381101561378b5780820151818401525b60208101905061376f565b50505050905001604052602001805160405193929190846401000000008211156137b55760006000fd5b838201915060208201858111156137cc5760006000fd5b82518660208202830111640100000000821117156137ea5760006000fd5b8083526020830192505050908051906020019060200280838360005b838110156138225780820151818401525b602081019050613806565b5050505090500160405260200150505050905060008473ffffffffffffffffffffffffffffffffffffffff168673ffffffffffffffffffffffffffffffffffffffff16630dfe16816040518163ffffffff1660e01b815260040160206040518083038186803b1580156138955760006000fd5b505afa1580156138aa573d600060003e3d6000fd5b505050506040513d60208110156138c15760006000fd5b810190808051906020019092919050505073ffffffffffffffffffffffffffffffffffffffff161490506040518060c0016040528061390461315563ffffffff16565b67ffffffffffffffff16815260200183600081518110151561392257fe5b602002602001015160060b81526020018460020b8152602001826139c9578773ffffffffffffffffffffffffffffffffffffffff16630dfe16816040518163ffffffff1660e01b815260040160206040518083038186803b1580156139875760006000fd5b505afa15801561399c573d600060003e3d6000fd5b505050506040513d60208110156139b35760006000fd5b8101908080519060200190929190505050613a4e565b8773ffffffffffffffffffffffffffffffffffffffff1663d21220a76040518163ffffffff1660e01b815260040160206040518083038186803b158015613a105760006000fd5b505afa158015613a25573d600060003e3d6000fd5b505050506040513d6020811015613a3c5760006000fd5b81019080805190602001909291905050505b73ffffffffffffffffffffffffffffffffffffffff1663313ce5676040518163ffffffff1660e01b815260040160206040518083038186803b158015613a945760006000fd5b505afa158015613aa9573d600060003e3d6000fd5b505050506040513d6020811015613ac05760006000fd5b810190808051906020019092919050505060ff168152602001821515815260200160011515815260200150600760005060008873ffffffffffffffffffffffffffffffffffffffff1673ffffffffffffffffffffffffffffffffffffffff16815260200190815260200160002060005060008201518160000160006101000a81548167ffffffffffffffff021916908367ffffffffffffffff16021790555060208201518160000160086101000a81548166ffffffffffffff021916908360060b66ffffffffffffff160217905550604082015181600001600f6101000a81548162ffffff021916908360020b62ffffff16021790555060608201518160000160126101000a81548160ff021916908360ff16021790555060808201518160000160136101000a81548160ff02191690831515021790555060a08201518160000160146101000a81548160ff021916908315150217905550905050505050505b5050565b60006000613c5e6c010000000000000000000000008473ffffffffffffffffffffffffffffffffffffffff1661426490919063ffffffff16565b9050613c7381826130f490919063ffffffff16565b915050613c7c56505b919050565b600260066000505414151515613ccc576040517f08c379a0000000000000000000000000000000000000000000000000000000008152600401613cc390614974565b60405180910390fd5b600260066000508190909055505b565b600160066000508190909055505b565b600060008263ffffffff16111515613d6f576040517f08c379a00000000000000000000000000000000000000000000000000000000081526004018080602001828103825260028152602001807f544500000000000000000000000000000000000000000000000000000000000081526020015060200191505060405180910390fd5b6000600267ffffffffffffffff81118015613d8a5760006000fd5b50604051908082528060200260200182016040528015613db95781602001602082028036833780820191505090505b50905082816000815181101515613dcc57fe5b602002602001019063ffffffff16908163ffffffff16815260200150506000816001815181101515613dfa57fe5b602002602001019063ffffffff16908163ffffffff168152602001505060008473ffffffffffffffffffffffffffffffffffffffff1663883bdbfd836040518263ffffffff1660e01b81526004018080602001828103825283818151815260200191508051906020019060200280838360005b83811015613e895780820151818401525b602081019050613e6d565b505050509050019250505060006040518083038186803b158015613ead5760006000fd5b505afa158015613ec2573d600060003e3d6000fd5b505050506040513d6000823e3d601f19601f820116820180604052506040811015613eed5760006000fd5b8101908080516040519392919084640100000000821115613f0e5760006000fd5b83820191506020820185811115613f255760006000fd5b8251866020820283011164010000000082111715613f435760006000fd5b8083526020830192505050908051906020019060200280838360005b83811015613f7b5780820151818401525b602081019050613f5f565b5050505090500160405260200180516040519392919084640100000000821115613fa55760006000fd5b83820191506020820185811115613fbc5760006000fd5b8251866020820283011164010000000082111715613fda5760006000fd5b8083526020830192505050908051906020019060200280838360005b838110156140125780820151818401525b602081019050613ff6565b5050505090500160405260200150505050905061406281600081518110151561403757fe5b602002602001015182600181518110151561404e57fe5b60200260200101518661328963ffffffff16565b9250505061406d5650505b92915050565b60008273ffffffffffffffffffffffffffffffffffffffff168473ffffffffffffffffffffffffffffffffffffffff1611156140b457828480945081955050505b8373ffffffffffffffffffffffffffffffffffffffff16614123606060ff16846fffffffffffffffffffffffffffffffff16901b86860373ffffffffffffffffffffffffffffffffffffffff168673ffffffffffffffffffffffffffffffffffffffff1661428a63ffffffff16565b81151561412c57fe5b049050614134565b9392505050565b60008273ffffffffffffffffffffffffffffffffffffffff168473ffffffffffffffffffffffffffffffffffffffff16111561417c57828480945081955050505b6141c4826fffffffffffffffffffffffffffffffff1685850373ffffffffffffffffffffffffffffffffffffffff166c0100000000000000000000000061428a63ffffffff16565b90506141cb565b9392505050565b60006801000000000000000082101515614257576040517f08c379a00000000000000000000000000000000000000000000000000000000081526004018080602001828103825260118152602001807f6d6f7265207468616e203634206269747300000000000000000000000000000081526020015060200191505060405180910390fd5b81905061425f565b919050565b600061427f83670de0b6b3a764000084612e6563ffffffff16565b905080505b92915050565b60006000600060001985870985870292508281108382030391505060008114156142cd576000841115156142be5760006000fd5b83820492508292505050614384565b80841115156142dc5760006000fd5b60008486880990508281118203915080830392506000858660000316905080860495508084049350600181826000030401905080830284179350835060006002876003021890508087026002038102905080508087026002038102905080508087026002038102905080508087026002038102905080508087026002038102905080508087026002038102905080508085029550855085955050505050506143845650505050505b939250505056614a91565b600081359050801515811415156143a65760006000fd5b5b919050565b6000813590508060020b811415156143c45760006000fd5b5b919050565b6000813590508060060b811415156143e25760006000fd5b5b919050565b60008135905063ffffffff8116811415156144035760006000fd5b5b919050565b60008135905067ffffffffffffffff8116811415156144285760006000fd5b5b919050565b60006020828403121561443f578081fd5b6144488261438f565b90505b92915050565b600060208284031215614462578081fd5b81357fffffffff00000000000000000000000000000000000000000000000000000000811681141515614493578182fd5b809150505b92915050565b6000602082840312156144af578081fd5b81516144ba81614a68565b809150505b92915050565b6000602082840312156144d6578081fd5b81356144e181614a68565b809150505b92915050565b6000602082840312156144fd578081fd5b815161450881614a68565b809150505b92915050565b600060208284031215614524578081fd5b815161452f81614a68565b809150505b92915050565b60006020828403121561454b578081fd5b813561455681614a68565b809150505b92915050565b6000600060408385031215614574578081fd5b823561457f81614a68565b8092505061458f6020840161438f565b90505b9250929050565b600060006000606084860312156145ae578081fd5b83356145b981614a68565b8093505060208401356145cb81614a68565b8092505060408401356145dd81614a68565b809150505b9250925092565b60006000600060006000600060c08789031215614604578182fd5b863561460f81614a68565b8096505061461f602088016143ac565b945061462d604088016143ac565b935061463b606088016143ac565b925060808701356fffffffffffffffffffffffffffffffff811681141515614661578283fd5b8092505061467160a088016143e8565b90505b9295509295509295565b6000600060408385031215614691578182fd5b823561469c81614a68565b809250506146ac602084016143e8565b90505b9250929050565b60006000604083850312156146c9578182fd5b6146d2836143ac565b91506146e06020840161438f565b90505b9250929050565b600060006000606084860312156146ff578081fd5b614708846143ca565b9250614716602085016143ca565b9150614724604085016143e8565b90505b9250925092565b60006020828403121561473f578081fd5b813561474a81614a68565b809150505b92915050565b6000600082840360e0811215614769578283fd5b8335925060c07fffffffffffffffffffffffffffffffffffffffffffffffffffffffffffffffe08201121561479c578182fd5b5060405160c0810181811067ffffffffffffffff821117156147ba57fe5b80604052506147cb60208501614409565b81526147d9604085016143ca565b60208201526147ea606085016143ac565b6040820152608084013560ff811681141515614804578283fd5b8060608301525061481760a0850161438f565b608082015261482860c0850161438f565b60a0820152809150505b9250929050565b60006020828403121561484a578081fd5b614853826143e8565b90505b92915050565b60006020828403121561486d578081fd5b61487682614409565b90505b92915050565b600060208201905073ffffffffffffffffffffffffffffffffffffffff831682525b92915050565b600060208083018184528085518083526040860191508387019250845b818110156148ec5763ffffffff8451168352848301925084840193505b6001810190506148c4565b50508093505050505b92915050565b600060208201905082151582525b92915050565b600060208201905073ffffffffffffffffffffffffffffffffffffffff831682525b92915050565b600060208201905073ffffffffffffffffffffffffffffffffffffffff831682525b92915050565b60006020820190508260020b82525b92915050565b600060208252600d60208301527f4c43205265656e7472616e63790000000000000000000000000000000000000060408301526060820190505b919050565b600060208252600e60208301527f4e6f7420417574686f72697a656400000000000000000000000000000000000060408301526060820190505b919050565b60006020820190508282525b92915050565b600060208201905063ffffffff831682525b92915050565b600060c08201905067ffffffffffffffff881682528660060b60208301528560020b604083015260ff85166060830152831515608083015282151560a08301525b979650505050505050565b73ffffffffffffffffffffffffffffffffffffffff811681141515614a8d5760006000fd5b5b50565bfea2646970667358221220e04555c058cee24efbfcba9ef958b2739d65e39b4daf3109d8d6bb1b7d761f2764736f6c63430007060033",
  "linkReferences": {},
  "deployedLinkReferences": {}
}