{
  "_format": "hh-sol-artifact-1",
  "contractName": "PricesTestable",
  "sourceName": "contracts/mocks/PricesTestable.sol",
  "abi": [
    {
      "inputs": [
        {
          "components": [
            {
              "internalType": "contract IGovernor",
              "name": "Governor",
              "type": "address"
            },
            {
              "internalType": "address",
              "name": "Weth",
              "type": "address"
            },
            {
              "internalType": "address",
              "name": "Tcp",
              "type": "address"
            },
            {
              "internalType": "address",
              "name": "Hue",
              "type": "address"
            }
          ],
          "internalType": "struct IPrices.ConstructorParams",
          "name": "params",
          "type": "tuple"
        }
      ],
      "stateMutability": "nonpayable",
      "type": "constructor"
    },
    {
      "anonymous": false,
      "inputs": [
        {
          "indexed": true,
          "internalType": "address",
          "name": "pool",
          "type": "address"
        },
        {
          "indexed": false,
          "internalType": "uint256",
          "name": "price",
          "type": "uint256"
        },
        {
          "indexed": false,
          "internalType": "int24",
          "name": "tick",
          "type": "int24"
        }
      ],
      "name": "PriceUpdated",
      "type": "event"
    },
    {
      "anonymous": false,
      "inputs": [],
      "name": "Stopped",
      "type": "event"
    },
    {
      "inputs": [],
      "name": "__now",
      "outputs": [
        {
          "internalType": "uint32[]",
          "name": "times",
          "type": "uint32[]"
        }
      ],
      "stateMutability": "pure",
      "type": "function"
    },
    {
      "inputs": [
        {
          "internalType": "uint64",
          "name": "input",
          "type": "uint64"
        }
      ],
      "name": "calculate64To32",
      "outputs": [
        {
          "internalType": "uint32",
          "name": "",
          "type": "uint32"
        }
      ],
      "stateMutability": "pure",
      "type": "function"
    },
    {
      "inputs": [
        {
          "internalType": "uint32",
          "name": "twapDuration",
          "type": "uint32"
        }
      ],
      "name": "calculateInstantCollateralPrice",
      "outputs": [
        {
          "internalType": "uint256",
          "name": "",
          "type": "uint256"
        }
      ],
      "stateMutability": "view",
      "type": "function"
    },
    {
      "inputs": [
        {
          "internalType": "contract IUniswapV3Pool",
          "name": "pool",
          "type": "address"
        },
        {
          "internalType": "uint32",
          "name": "twapDuration",
          "type": "uint32"
        }
      ],
      "name": "calculateInstantTwappedPrice",
      "outputs": [
        {
          "internalType": "uint256",
          "name": "",
          "type": "uint256"
        }
      ],
      "stateMutability": "view",
      "type": "function"
    },
    {
      "inputs": [
        {
          "internalType": "contract IUniswapV3Pool",
          "name": "pool",
          "type": "address"
        },
        {
          "internalType": "uint32",
          "name": "twapDuration",
          "type": "uint32"
        }
      ],
      "name": "calculateInstantTwappedTick",
      "outputs": [
        {
          "internalType": "int24",
          "name": "tick",
          "type": "int24"
        }
      ],
      "stateMutability": "view",
      "type": "function"
    },
    {
      "inputs": [
        {
          "internalType": "contract IUniswapV3Pool",
          "name": "pool",
          "type": "address"
        },
        {
          "internalType": "bool",
          "name": "normalizeDecimals",
          "type": "bool"
        }
      ],
      "name": "calculateTwappedPrice",
      "outputs": [
        {
          "internalType": "uint256",
          "name": "price",
          "type": "uint256"
        }
      ],
      "stateMutability": "view",
      "type": "function"
    },
    {
      "inputs": [],
      "name": "collateralPool",
      "outputs": [
        {
          "internalType": "contract IUniswapV3Pool",
          "name": "",
          "type": "address"
        }
      ],
      "stateMutability": "view",
      "type": "function"
    },
    {
      "inputs": [],
      "name": "deployer",
      "outputs": [
        {
          "internalType": "address",
          "name": "",
          "type": "address"
        }
      ],
      "stateMutability": "view",
      "type": "function"
    },
    {
      "inputs": [
        {
          "internalType": "uint160",
          "name": "sqrtPriceX96",
          "type": "uint160"
        }
      ],
      "name": "getE18PriceForSqrtX96Price",
      "outputs": [
        {
          "internalType": "uint256",
          "name": "",
          "type": "uint256"
        }
      ],
      "stateMutability": "pure",
      "type": "function"
    },
    {
      "inputs": [
        {
          "internalType": "int24",
          "name": "tick",
          "type": "int24"
        },
        {
          "internalType": "bool",
          "name": "isToken0",
          "type": "bool"
        }
      ],
      "name": "getPriceForTick",
      "outputs": [
        {
          "internalType": "uint256",
          "name": "price",
          "type": "uint256"
        }
      ],
      "stateMutability": "pure",
      "type": "function"
    },
    {
      "inputs": [
        {
          "internalType": "contract IUniswapV3Pool",
          "name": "pool",
          "type": "address"
        },
        {
          "internalType": "int24",
          "name": "tick",
          "type": "int24"
        },
        {
          "internalType": "int24",
          "name": "tickLower",
          "type": "int24"
        },
        {
          "internalType": "int24",
          "name": "tickUpper",
          "type": "int24"
        },
        {
          "internalType": "uint128",
          "name": "liquidity",
          "type": "uint128"
        },
        {
          "internalType": "uint32",
          "name": "twapDuration",
          "type": "uint32"
        }
      ],
      "name": "getRealHueCountForSinglePoolPosition",
      "outputs": [
        {
          "internalType": "uint256",
          "name": "",
          "type": "uint256"
        }
      ],
      "stateMutability": "view",
      "type": "function"
    },
    {
      "inputs": [
        {
          "internalType": "int56",
          "name": "tickCumulative0",
          "type": "int56"
        },
        {
          "internalType": "int56",
          "name": "tickCumulative1",
          "type": "int56"
        },
        {
          "internalType": "uint32",
          "name": "timeElapsed",
          "type": "uint32"
        }
      ],
      "name": "getTickForCumulators",
      "outputs": [
        {
          "internalType": "int24",
          "name": "tick",
          "type": "int24"
        }
      ],
      "stateMutability": "pure",
      "type": "function"
    },
    {
      "inputs": [],
      "name": "governor",
      "outputs": [
        {
          "internalType": "contract IGovernor",
          "name": "",
          "type": "address"
        }
      ],
      "stateMutability": "view",
      "type": "function"
    },
    {
      "inputs": [
        {
          "internalType": "uint32",
          "name": "twapDuration",
          "type": "uint32"
        }
      ],
      "name": "hueTcpPrice",
      "outputs": [
        {
          "internalType": "uint256",
          "name": "",
          "type": "uint256"
        }
      ],
      "stateMutability": "view",
      "type": "function"
    },
    {
      "inputs": [
        {
          "internalType": "contract IUniswapV3Pool",
          "name": "_collateralPool",
          "type": "address"
        },
        {
          "internalType": "contract IUniswapV3Pool",
          "name": "_protocolPool",
          "type": "address"
        }
      ],
      "name": "init",
      "outputs": [],
      "stateMutability": "nonpayable",
      "type": "function"
    },
    {
      "inputs": [
        {
          "internalType": "contract IUniswapV3Pool",
          "name": "pool",
          "type": "address"
        }
      ],
      "name": "initializePool",
      "outputs": [],
      "stateMutability": "nonpayable",
      "type": "function"
    },
    {
      "inputs": [
        {
          "internalType": "contract IUniswapV3Pool",
          "name": "pool",
          "type": "address"
        }
      ],
      "name": "initializeWethPool",
      "outputs": [],
      "stateMutability": "nonpayable",
      "type": "function"
    },
    {
      "inputs": [
        {
          "internalType": "contract IUniswapV3Pool",
          "name": "pool",
          "type": "address"
        }
      ],
      "name": "isPoolInitialized",
      "outputs": [
        {
          "internalType": "bool",
          "name": "",
          "type": "bool"
        }
      ],
      "stateMutability": "view",
      "type": "function"
    },
    {
      "inputs": [
        {
          "internalType": "uint256",
          "name": "price",
          "type": "uint256"
        },
        {
          "components": [
            {
              "internalType": "uint64",
              "name": "startTime",
              "type": "uint64"
            },
            {
              "internalType": "int56",
              "name": "tickCumulative",
              "type": "int56"
            },
            {
              "internalType": "int24",
              "name": "tick",
              "type": "int24"
            },
            {
              "internalType": "uint8",
              "name": "otherTokenDecimals",
              "type": "uint8"
            },
            {
              "internalType": "bool",
              "name": "isToken0",
              "type": "bool"
            },
            {
              "internalType": "bool",
              "name": "valid",
              "type": "bool"
            }
          ],
          "internalType": "struct IPrices.PriceInfo",
          "name": "pi",
          "type": "tuple"
        }
      ],
      "name": "normalizeDecimals",
      "outputs": [
        {
          "internalType": "uint256",
          "name": "",
          "type": "uint256"
        }
      ],
      "stateMutability": "pure",
      "type": "function"
    },
    {
      "inputs": [
        {
          "internalType": "contract IUniswapV3Pool",
          "name": "",
          "type": "address"
        }
      ],
      "name": "priceInfo",
      "outputs": [
        {
          "internalType": "uint64",
          "name": "startTime",
          "type": "uint64"
        },
        {
          "internalType": "int56",
          "name": "tickCumulative",
          "type": "int56"
        },
        {
          "internalType": "int24",
          "name": "tick",
          "type": "int24"
        },
        {
          "internalType": "uint8",
          "name": "otherTokenDecimals",
          "type": "uint8"
        },
        {
          "internalType": "bool",
          "name": "isToken0",
          "type": "bool"
        },
        {
          "internalType": "bool",
          "name": "valid",
          "type": "bool"
        }
      ],
      "stateMutability": "view",
      "type": "function"
    },
    {
      "inputs": [],
      "name": "protocolPool",
      "outputs": [
        {
          "internalType": "contract IUniswapV3Pool",
          "name": "",
          "type": "address"
        }
      ],
      "stateMutability": "view",
      "type": "function"
    },
    {
      "inputs": [
        {
          "internalType": "bool",
          "name": "valid",
          "type": "bool"
        }
      ],
      "name": "requireValidPool",
      "outputs": [],
      "stateMutability": "pure",
      "type": "function"
    },
    {
      "inputs": [],
      "name": "stop",
      "outputs": [],
      "stateMutability": "nonpayable",
      "type": "function"
    },
    {
      "inputs": [],
      "name": "stopped",
      "outputs": [
        {
          "internalType": "bool",
          "name": "",
          "type": "bool"
        }
      ],
      "stateMutability": "view",
      "type": "function"
    },
    {
      "inputs": [
        {
          "internalType": "contract IUniswapV3Pool",
          "name": "pool",
          "type": "address"
        }
      ],
      "name": "systemObtainReferencePrice",
      "outputs": [
        {
          "internalType": "uint256",
          "name": "",
          "type": "uint256"
        }
      ],
      "stateMutability": "nonpayable",
      "type": "function"
    },
    {
      "inputs": [
        {
          "internalType": "bytes4",
          "name": "",
          "type": "bytes4"
        }
      ],
      "name": "validUpdate",
      "outputs": [
        {
          "internalType": "bool",
          "name": "",
          "type": "bool"
        }
      ],
      "stateMutability": "view",
      "type": "function"
    }
  ],
  "bytecode": "0x610100604052600160026000509090553480156200001d5760006000fd5b506040516200425b3803806200425b833981810160405281019062000043919062000192565b5b805b80600001515b8073ffffffffffffffffffffffffffffffffffffffff1660808173ffffffffffffffffffffffffffffffffffffffff1660601b815260140150505b50806020015173ffffffffffffffffffffffffffffffffffffffff1660a08173ffffffffffffffffffffffffffffffffffffffff1660601b81526014015050806040015173ffffffffffffffffffffffffffffffffffffffff1660c08173ffffffffffffffffffffffffffffffffffffffff1660601b81526014015050806060015173ffffffffffffffffffffffffffffffffffffffff1660e08173ffffffffffffffffffffffffffffffffffffffff1660601b8152601401505033600660006101000a81548173ffffffffffffffffffffffffffffffffffffffff021916908373ffffffffffffffffffffffffffffffffffffffff1602179055505b505b50620002455662000244565b600060808284031215620001a4578081fd5b604051608081018181106001600160401b0382111715620001c157fe5b80604052508251620001d38162000227565b808252506020830151620001e78162000227565b806020830152506040830151620001fe8162000227565b806040830152506060830151620002158162000227565b80606083015250809150505b92915050565b6001600160a01b03811681141515620002405760006000fd5b5b50565b5b60805160601c60a05160601c60c05160601c60e05160601c613f98620002c360003980610f1d5280610f525280611a505280611a80525080610a5d5280610ff152806110265250806109c05280610f875280610fbc52806112a65250806105de5280610e0a528061119352806113695280611bbb5250613f986000f3fe60806040523480156100115760006000fd5b50600436106101b35760003560e01c80638396cf69116100ef578063d97e640011610098578063f09a401611610072578063f09a401614610522578063fa42dcf41461053e578063fcebd71c1461056e578063ff0eccf61461059e576101b3565b8063d97e640014610492578063da6e58ce146104c2578063dcaeb11b146104f2576101b3565b8063ce403c13116100c9578063ce403c1314610414578063d00d0bd614610444578063d5f3948814610474576101b3565b80638396cf69146103965780638d02a08a146103b4578063ce137854146103e4576101b3565b80633c63a9cd1161015c578063532cec7c11610136578063532cec7c146102f75780636d048d531461032757806375f12b211461035c5780637c5b90111461037a576101b3565b80633c63a9cd1461028d578063407431f7146102bd57806347453af2146102d9576101b3565b80631fab230e1161018d5780631fab230e1461021157806321b78b77146102415780633497dcec14610271576101b3565b806307da68f5146101b95780630c340a24146101c3578063113cf1ab146101e1576101b3565b60006000fd5b6101c16105bc565b005b6101cb6105dc565b6040516101d89190613c61565b60405180910390f35b6101fb60048036038101906101f6919061372c565b610600565b6040516102089190613c4d565b60405180910390f35b61022b60048036038101906102269190613866565b610625565b6040516102389190613e01565b60405180910390f35b61025b6004803603810190610256919061393f565b610b16565b6040516102689190613e01565b60405180910390f35b61028b60048036038101906102869190613705565b610b35565b005b6102a760048036038101906102a291906137ee565b610b48565b6040516102b49190613e01565b60405180910390f35b6102d760048036038101906102d291906137c7565b610e08565b005b6102e161106c565b6040516102ee9190613bf9565b60405180910390f35b610311600480360381019061030c91906137c7565b611086565b60405161031e9190613c4d565b60405180910390f35b610341600480360381019061033c91906137c7565b6110ea565b60405161035396959493929190613e47565b60405180910390f35b61036461117e565b6040516103719190613c4d565b60405180910390f35b610394600480360381019061038f91906137c7565b611191565b005b61039e6112d4565b6040516103ab9190613c89565b60405180910390f35b6103ce60048036038101906103c99190613b64565b6112fa565b6040516103db9190613e01565b60405180910390f35b6103fe60048036038101906103f991906139c7565b61133a565b60405161040b9190613e01565b60405180910390f35b61042e600480360381019061042991906137c7565b611357565b60405161043b9190613e01565b60405180910390f35b61045e6004803603810190610459919061397b565b611924565b60405161046b9190613cb1565b60405180910390f35b61047c611945565b6040516104899190613bd1565b60405180910390f35b6104ac60048036038101906104a79190613907565b61196b565b6040516104b99190613e01565b60405180910390f35b6104dc60048036038101906104d79190613b87565b61198a565b6040516104e99190613e2f565b60405180910390f35b61050c60048036038101906105079190613a87565b6119a7565b6040516105199190613e01565b60405180910390f35b61053c6004803603810190610537919061382a565b6119c6565b005b61055860048036038101906105539190613b64565b611b31565b6040516105659190613e01565b60405180910390f35b61058860048036038101906105839190613907565b611b71565b6040516105959190613cb1565b60405180910390f35b6105a6611b90565b6040516105b39190613c89565b60405180910390f35b6105ca611bb663ffffffff16565b6105d8611c1663ffffffff16565b5b5b565b7f000000000000000000000000000000000000000000000000000000000000000081565b600160005060205280600052604060002060009150909054906101000a900460ff1681565b60006000600360005060008973ffffffffffffffffffffffffffffffffffffffff1673ffffffffffffffffffffffffffffffffffffffff1681526020019081526020016000206000506040518060c00160405290816000820160009054906101000a900467ffffffffffffffff1667ffffffffffffffff1667ffffffffffffffff1681526020016000820160089054906101000a900460060b60060b60060b815260200160008201600f9054906101000a900460020b60020b60020b81526020016000820160129054906101000a900460ff1660ff1660ff1681526020016000820160139054906101000a900460ff161515151581526020016000820160149054906101000a900460ff16151515158152602001505090506107508160a00151611c6063ffffffff16565b600061076188611ca663ffffffff16565b9050600060006107958361077a8b611ca663ffffffff16565b6107898b611ca663ffffffff16565b8a61213d63ffffffff16565b91509150600084608001516107aa57816107ac565b825b90506108a7856080015161082b576108266107fc8673ffffffffffffffffffffffffffffffffffffffff168773ffffffffffffffffffffffffffffffffffffffff1661225390919063ffffffff16565b7801000000000000000000000000000000000000000000000000866122f19092919063ffffffff16565b610898565b61089778010000000000000000000000000000000000000000000000006108878773ffffffffffffffffffffffffffffffffffffffff168873ffffffffffffffffffffffffffffffffffffffff1661225390919063ffffffff16565b856122f19092919063ffffffff16565b5b826123f290919063ffffffff16565b905080506000856080015161093b578c73ffffffffffffffffffffffffffffffffffffffff1663d21220a76040518163ffffffff1660e01b815260040160206040518083038186803b1580156108fd5760006000fd5b505afa158015610912573d600060003e3d6000fd5b505050506040513d601f19601f820116820180604052508101906109369190613609565b6109bc565b8c73ffffffffffffffffffffffffffffffffffffffff16630dfe16816040518163ffffffff1660e01b815260040160206040518083038186803b1580156109825760006000fd5b505afa158015610997573d600060003e3d6000fd5b505050506040513d601f19601f820116820180604052508101906109bb9190613609565b5b90507f000000000000000000000000000000000000000000000000000000000000000073ffffffffffffffffffffffffffffffffffffffff168173ffffffffffffffffffffffffffffffffffffffff161415610a5b57610a56610a47600460009054906101000a900473ffffffffffffffffffffffffffffffffffffffff168a61247b63ffffffff16565b8361254a90919063ffffffff16565b915081505b7f000000000000000000000000000000000000000000000000000000000000000073ffffffffffffffffffffffffffffffffffffffff168173ffffffffffffffffffffffffffffffffffffffff161415610af857610af3610ae4600560009054906101000a900473ffffffffffffffffffffffffffffffffffffffff168a61247b63ffffffff16565b8361254a90919063ffffffff16565b915081505b819650505050505050610b0c565050505050505b9695505050505050565b6000610b28838361257063ffffffff16565b9050610b2f565b92915050565b610b4481611c6063ffffffff16565b5b50565b60006000600360005060008573ffffffffffffffffffffffffffffffffffffffff1673ffffffffffffffffffffffffffffffffffffffff1681526020019081526020016000206000506040518060c00160405290816000820160009054906101000a900467ffffffffffffffff1667ffffffffffffffff1667ffffffffffffffff1681526020016000820160089054906101000a900460060b60060b60060b815260200160008201600f9054906101000a900460020b60020b60020b81526020016000820160129054906101000a900460ff1660ff1660ff1681526020016000820160139054906101000a900460ff161515151581526020016000820160149054906101000a900460ff1615151515815260200150509050610c738160a00151611c6063ffffffff16565b6000610c836125ab63ffffffff16565b90508067ffffffffffffffff16826000015167ffffffffffffffff16101515610ce1576040517f08c379a0000000000000000000000000000000000000000000000000000000008152600401610cd890613d44565b60405180910390fd5b60008573ffffffffffffffffffffffffffffffffffffffff1663883bdbfd610d0d6125c663ffffffff16565b6040518263ffffffff1660e01b8152600401610d299190613bf9565b60006040518083038186803b158015610d425760006000fd5b505afa158015610d57573d600060003e3d6000fd5b505050506040513d6000823e3d601f19601f82011682018060405250810190610d809190613630565b509050610dd5610dc58460200151836000815181101515610d9d57fe5b6020026020010151610dba8760000151870361264763ffffffff16565b6126a963ffffffff16565b846080015161257063ffffffff16565b9350835084610de45783610df5565b610df4848461271863ffffffff16565b5b9350505050610e02565050505b92915050565b7f000000000000000000000000000000000000000000000000000000000000000073ffffffffffffffffffffffffffffffffffffffff16639ec5a8946040518163ffffffff1660e01b815260040160206040518083038186803b158015610e6f5760006000fd5b505afa158015610e84573d600060003e3d6000fd5b505050506040513d601f19601f82011682018060405250810190610ea891906137a0565b73ffffffffffffffffffffffffffffffffffffffff163373ffffffffffffffffffffffffffffffffffffffff16141515610f17576040517f08c379a0000000000000000000000000000000000000000000000000000000008152600401610f0e90613d05565b60405180910390fd5b610f47817f00000000000000000000000000000000000000000000000000000000000000006127ad63ffffffff16565b15610f8157610f7c817f000000000000000000000000000000000000000000000000000000000000000061291f63ffffffff16565b611068565b610fb1817f00000000000000000000000000000000000000000000000000000000000000006127ad63ffffffff16565b15610feb57610fe6817f000000000000000000000000000000000000000000000000000000000000000061291f63ffffffff16565b611067565b61101b817f00000000000000000000000000000000000000000000000000000000000000006127ad63ffffffff16565b1561105557611050817f000000000000000000000000000000000000000000000000000000000000000061291f63ffffffff16565b611066565b6110656000611c6063ffffffff16565b5b5b5b5b50565b606061107c6125c663ffffffff16565b9050611083565b90565b6000600360005060008373ffffffffffffffffffffffffffffffffffffffff1673ffffffffffffffffffffffffffffffffffffffff16815260200190815260200160002060005060000160149054906101000a900460ff1690506110e5565b919050565b60036000506020528060005260406000206000915090508060000160009054906101000a900467ffffffffffffffff16908060000160089054906101000a900460060b9080600001600f9054906101000a900460020b908060000160129054906101000a900460ff16908060000160139054906101000a900460ff16908060000160149054906101000a900460ff16905086565b600060009054906101000a900460ff1681565b7f000000000000000000000000000000000000000000000000000000000000000073ffffffffffffffffffffffffffffffffffffffff166343f48fbd6040518163ffffffff1660e01b815260040160206040518083038186803b1580156111f85760006000fd5b505afa15801561120d573d600060003e3d6000fd5b505050506040513d601f19601f820116820180604052508101906112319190613779565b73ffffffffffffffffffffffffffffffffffffffff163373ffffffffffffffffffffffffffffffffffffffff161415156112a0576040517f08c379a000000000000000000000000000000000000000000000000000000000815260040161129790613d05565b60405180910390fd5b6112d0817f000000000000000000000000000000000000000000000000000000000000000061291f63ffffffff16565b5b50565b600560009054906101000a900473ffffffffffffffffffffffffffffffffffffffff1681565b600061132e600560009054906101000a900473ffffffffffffffffffffffffffffffffffffffff168361247b63ffffffff16565b9050611335565b919050565b600061134b82612e7363ffffffff16565b9050611352565b919050565b6000611367612ed063ffffffff16565b7f000000000000000000000000000000000000000000000000000000000000000073ffffffffffffffffffffffffffffffffffffffff166343f48fbd6040518163ffffffff1660e01b815260040160206040518083038186803b1580156113ce5760006000fd5b505afa1580156113e3573d600060003e3d6000fd5b505050506040513d601f19601f820116820180604052508101906114079190613779565b73ffffffffffffffffffffffffffffffffffffffff163373ffffffffffffffffffffffffffffffffffffffff16141515611476576040517f08c379a000000000000000000000000000000000000000000000000000000000815260040161146d90613d05565b60405180910390fd5b6000600360005060008473ffffffffffffffffffffffffffffffffffffffff1673ffffffffffffffffffffffffffffffffffffffff1681526020019081526020016000206000506040518060c00160405290816000820160009054906101000a900467ffffffffffffffff1667ffffffffffffffff1667ffffffffffffffff1681526020016000820160089054906101000a900460060b60060b60060b815260200160008201600f9054906101000a900460020b60020b60020b81526020016000820160129054906101000a900460ff1660ff1660ff1681526020016000820160139054906101000a900460ff161515151581526020016000820160149054906101000a900460ff161515151581526020015050905061159f8160a00151611c6063ffffffff16565b60006115af6125ab63ffffffff16565b90508067ffffffffffffffff16826000015167ffffffffffffffff1610151561160d576040517f08c379a000000000000000000000000000000000000000000000000000000000815260040161160490613d44565b60405180910390fd5b60008473ffffffffffffffffffffffffffffffffffffffff1663883bdbfd6116396125c663ffffffff16565b6040518263ffffffff1660e01b81526004016116559190613bf9565b60006040518083038186803b15801561166e5760006000fd5b505afa158015611683573d600060003e3d6000fd5b505050506040513d6000823e3d601f19601f820116820180604052508101906116ac9190613630565b5090506116ee83602001518260008151811015156116c657fe5b60200260200101516116e38660000151860361264763ffffffff16565b6126a963ffffffff16565b836040019060020b908160020b8152602001505080600081518110151561171157fe5b6020026020010151836020019060060b908160060b8152602001505081836000019067ffffffffffffffff16908167ffffffffffffffff168152602001505082600360005060008773ffffffffffffffffffffffffffffffffffffffff1673ffffffffffffffffffffffffffffffffffffffff16815260200190815260200160002060005060008201518160000160006101000a81548167ffffffffffffffff021916908367ffffffffffffffff16021790555060208201518160000160086101000a81548166ffffffffffffff021916908360060b66ffffffffffffff160217905550604082015181600001600f6101000a81548162ffffff021916908360020b62ffffff16021790555060608201518160000160126101000a81548160ff021916908360ff16021790555060808201518160000160136101000a81548160ff02191690831515021790555060a08201518160000160146101000a81548160ff02191690831515021790555090505060006118aa61189e8560400151866080015161257063ffffffff16565b8561271863ffffffff16565b90508573ffffffffffffffffffffffffffffffffffffffff167f4aec2babed558ca204f263d79ac04efaccd05cd4b7bebfa21beeb221330062d38286604001516040516118f8929190613e13565b60405180910390a28094505050505061191056505050505b61191e612f6163ffffffff16565b5b919050565b60006119378484846126a963ffffffff16565b905061193e565b9392505050565b600660009054906101000a900473ffffffffffffffffffffffffffffffffffffffff1681565b600061197d838361247b63ffffffff16565b9050611984565b92915050565b600061199b8261264763ffffffff16565b90506119a2565b919050565b60006119b9838361271863ffffffff16565b90506119c0565b92915050565b611a25600660009054906101000a900473ffffffffffffffffffffffffffffffffffffffff1673ffffffffffffffffffffffffffffffffffffffff163373ffffffffffffffffffffffffffffffffffffffff1614612f7163ffffffff16565b600660006101000a81549073ffffffffffffffffffffffffffffffffffffffff0219169055611a7a827f000000000000000000000000000000000000000000000000000000000000000061291f63ffffffff16565b611aaa817f000000000000000000000000000000000000000000000000000000000000000061291f63ffffffff16565b81600460006101000a81548173ffffffffffffffffffffffffffffffffffffffff021916908373ffffffffffffffffffffffffffffffffffffffff16021790555080600560006101000a81548173ffffffffffffffffffffffffffffffffffffffff021916908373ffffffffffffffffffffffffffffffffffffffff1602179055505b5050565b6000611b65600460009054906101000a900473ffffffffffffffffffffffffffffffffffffffff168361247b63ffffffff16565b9050611b6c565b919050565b6000611b838383612fed63ffffffff16565b9050611b8a565b92915050565b600460009054906101000a900473ffffffffffffffffffffffffffffffffffffffff1681565b611c137f000000000000000000000000000000000000000000000000000000000000000073ffffffffffffffffffffffffffffffffffffffff163373ffffffffffffffffffffffffffffffffffffffff1614612f7163ffffffff16565b5b565b6001600060006101000a81548160ff0219169083151502179055507f7acc84e34091ae817647a4c49116f5cc07f319078ba80f8f5fde37ea7e25cbd660405160405180910390a15b565b801515611ca2576040517f08c379a0000000000000000000000000000000000000000000000000000000008152600401611c9990613dc2565b60405180910390fd5b5b50565b6000600060008360020b12611cbe578260020b611cc6565b8260020b6000035b90507ffffffffffffffffffffffffffffffffffffffffffffffffffffffffffff2761860000360020b8111151515611d69576040517f08c379a00000000000000000000000000000000000000000000000000000000081526004018080602001828103825260018152602001807f540000000000000000000000000000000000000000000000000000000000000081526020015060200191505060405180910390fd5b60006000600183161415611d8e57700100000000000000000000000000000000611da0565b6ffffcb933bd6fad37aa2d162d1a5940015b70ffffffffffffffffffffffffffffffffff169050600060028316141515611dde5760806ffff97272373d413259a46990580e213a8202901c905080505b600060048316141515611e075760806ffff2e50f5f656932ef12357cf3c7fdcc8202901c905080505b600060088316141515611e305760806fffe5caca7e10e4e61c3624eaa0941cd08202901c905080505b600060108316141515611e595760806fffcb9843d60f6159c9db58835c9266448202901c905080505b600060208316141515611e825760806fff973b41fa98c081472e6896dfb254c08202901c905080505b600060408316141515611eab5760806fff2ea16466c96a3843ec78b326b528618202901c905080505b600060808316141515611ed45760806ffe5dee046a99a2a811c461f1969c30538202901c905080505b60006101008316141515611efe5760806ffcbe86c7900a88aedcffc83b479aa3a48202901c905080505b60006102008316141515611f285760806ff987a7253ac413176f2b074cf7815e548202901c905080505b60006104008316141515611f525760806ff3392b0822b70005940c7a398e4b70f38202901c905080505b60006108008316141515611f7c5760806fe7159475a2c29b7443b29c7fa6e889d98202901c905080505b60006110008316141515611fa65760806fd097f3bdfd2022b8845ad8f792aa58258202901c905080505b60006120008316141515611fd05760806fa9f746462d870fdf8a65dc1f90e061e58202901c905080505b60006140008316141515611ffa5760806f70d869a156d2a1b890bb3df62baf32f78202901c905080505b600061800083161415156120245760806f31be135f97d08fd981231505542fcfa68202901c905080505b600062010000831614151561204f5760806f09aa508b5b7a84e1c677de54f3e99bc98202901c905080505b60006202000083161415156120795760806e5d6af8dedb81196699c329225ee6048202901c905080505b60006204000083161415156120a25760806d2216e584f5fa1ea926041bedfe988202901c905080505b60006208000083161415156120c95760806b048a170391f7dc42444e8fa28202901c905080505b60008460020b131561210657807fffffffffffffffffffffffffffffffffffffffffffffffffffffffffffffffff81151561210057fe5b04905080505b60006401000000008281151561211857fe5b0614612125576001612128565b60005b60ff16602082901c019250825050505b919050565b600060008373ffffffffffffffffffffffffffffffffffffffff168573ffffffffffffffffffffffffffffffffffffffff16111561218057838580955081965050505b8473ffffffffffffffffffffffffffffffffffffffff168673ffffffffffffffffffffffffffffffffffffffff161115156121cf576121c68585856131c563ffffffff16565b91508150612249565b8373ffffffffffffffffffffffffffffffffffffffff168673ffffffffffffffffffffffffffffffffffffffff161015612232576122148685856131c563ffffffff16565b9150815061222985878561328d63ffffffff16565b90508050612248565b61224385858561328d63ffffffff16565b905080505b5b5b94509492505050565b600060008214806122735750828283850292508281151561227057fe5b04145b15156122ea576040517f08c379a000000000000000000000000000000000000000000000000000000000815260040180806020018281038252600c8152602001807f6d756c2d6f766572666c6f77000000000000000000000000000000000000000081526020015060200191505060405180910390fd5b5b92915050565b6000600060006000198587098587029250828110838203039150506000811415612334576000841115156123255760006000fd5b838204925082925050506123eb565b80841115156123435760006000fd5b60008486880990508281118203915080830392506000858660000316905080860495508084049350600181826000030401905080830284179350835060006002876003021890508087026002038102905080508087026002038102905080508087026002038102905080508087026002038102905080508087026002038102905080508087026002038102905080508085029550855085955050505050506123eb5650505050505b9392505050565b60008282840191508110151515612474576040517f08c379a000000000000000000000000000000000000000000000000000000000815260040180806020018281038252600c8152602001807f6164642d6f766572666c6f77000000000000000000000000000000000000000081526020015060200191505060405180910390fd5b5b92915050565b600060006124f36124928585612fed63ffffffff16565b600360005060008773ffffffffffffffffffffffffffffffffffffffff1673ffffffffffffffffffffffffffffffffffffffff16815260200190815260200160002060005060000160139054906101000a900460ff1661257063ffffffff16565b905060008111151561253a576040517f08c379a000000000000000000000000000000000000000000000000000000000815260040161253190613cc6565b60405180910390fd5b8091505061254456505b92915050565b60006125658383670de0b6b3a76400006122f163ffffffff16565b905080505b92915050565b600061259e612593836125835784612588565b846000035b611ca663ffffffff16565b612e7363ffffffff16565b90506125a5565b92915050565b60006125be42613324909063ffffffff16565b905080505b90565b6060600167ffffffffffffffff811180156125e15760006000fd5b506040519080825280602002602001820160405280156126105781602001602082028036833780820191505090505b5090508050600081600081518110151561262657fe5b602002602001019063ffffffff16908163ffffffff16815260200150505b90565b60006401000000008267ffffffffffffffff1610151561269c576040517f08c379a000000000000000000000000000000000000000000000000000000000815260040161269390613d83565b60405180910390fd5b8190506126a4565b919050565b60006000848403905060008363ffffffff168260060b8115156126c857fe5b05905060008260060b1280156126f6575060008463ffffffff168360060b8115156126ef57fe5b0760060b14155b15612705578080600190039150505b80925050506127115650505b9392505050565b6000601260ff16826060015160ff161415612735578290506127a7565b6000601260ff16836060015160ff1610905060008161275b576012846060015103612764565b83606001516012035b905081612789576127848160ff16600a0a8661225390919063ffffffff16565b61279c565b8060ff16600a0a8581151561279a57fe5b045b925050506127a75650505b92915050565b60008173ffffffffffffffffffffffffffffffffffffffff168373ffffffffffffffffffffffffffffffffffffffff16630dfe16816040518163ffffffff1660e01b815260040160206040518083038186803b15801561280d5760006000fd5b505afa158015612822573d600060003e3d6000fd5b505050506040513d601f19601f820116820180604052508101906128469190613609565b73ffffffffffffffffffffffffffffffffffffffff16148061291257508173ffffffffffffffffffffffffffffffffffffffff168373ffffffffffffffffffffffffffffffffffffffff1663d21220a76040518163ffffffff1660e01b815260040160206040518083038186803b1580156128c15760006000fd5b505afa1580156128d6573d600060003e3d6000fd5b505050506040513d601f19601f820116820180604052508101906128fa9190613609565b73ffffffffffffffffffffffffffffffffffffffff16145b9050612919565b92915050565b61293d61293283836127ad63ffffffff16565b611c6063ffffffff16565b600060008373ffffffffffffffffffffffffffffffffffffffff16633850c7bd6040518163ffffffff1660e01b815260040160e06040518083038186803b1580156129885760006000fd5b505afa15801561299d573d600060003e3d6000fd5b505050506040513d601f19601f820116820180604052508101906129c191906139ee565b5050505050915091506129f260008373ffffffffffffffffffffffffffffffffffffffff1611611c6063ffffffff16565b60008473ffffffffffffffffffffffffffffffffffffffff1663883bdbfd612a1e6125c663ffffffff16565b6040518263ffffffff1660e01b8152600401612a3a9190613bf9565b60006040518083038186803b158015612a535760006000fd5b505afa158015612a68573d600060003e3d6000fd5b505050506040513d6000823e3d601f19601f82011682018060405250810190612a919190613630565b50905060008473ffffffffffffffffffffffffffffffffffffffff168673ffffffffffffffffffffffffffffffffffffffff16630dfe16816040518163ffffffff1660e01b815260040160206040518083038186803b158015612af45760006000fd5b505afa158015612b09573d600060003e3d6000fd5b505050506040513d601f19601f82011682018060405250810190612b2d9190613609565b73ffffffffffffffffffffffffffffffffffffffff161490506040518060c00160405280612b5f6125ab63ffffffff16565b67ffffffffffffffff168152602001836000815181101515612b7d57fe5b602002602001015160060b81526020018460020b815260200182612c20578773ffffffffffffffffffffffffffffffffffffffff16630dfe16816040518163ffffffff1660e01b815260040160206040518083038186803b158015612be25760006000fd5b505afa158015612bf7573d600060003e3d6000fd5b505050506040513d601f19601f82011682018060405250810190612c1b9190613609565b612ca1565b8773ffffffffffffffffffffffffffffffffffffffff1663d21220a76040518163ffffffff1660e01b815260040160206040518083038186803b158015612c675760006000fd5b505afa158015612c7c573d600060003e3d6000fd5b505050506040513d601f19601f82011682018060405250810190612ca09190613609565b5b73ffffffffffffffffffffffffffffffffffffffff1663313ce5676040518163ffffffff1660e01b815260040160206040518083038186803b158015612ce75760006000fd5b505afa158015612cfc573d600060003e3d6000fd5b505050506040513d601f19601f82011682018060405250810190612d209190613baa565b60ff168152602001821515815260200160011515815260200150600360005060008873ffffffffffffffffffffffffffffffffffffffff1673ffffffffffffffffffffffffffffffffffffffff16815260200190815260200160002060005060008201518160000160006101000a81548167ffffffffffffffff021916908367ffffffffffffffff16021790555060208201518160000160086101000a81548166ffffffffffffff021916908360060b66ffffffffffffff160217905550604082015181600001600f6101000a81548162ffffff021916908360020b62ffffff16021790555060608201518160000160126101000a81548160ff021916908360ff16021790555060808201518160000160136101000a81548160ff02191690831515021790555060a08201518160000160146101000a81548160ff021916908315150217905550905050505050505b5050565b60006000612ead6c010000000000000000000000008473ffffffffffffffffffffffffffffffffffffffff166133b690919063ffffffff16565b9050612ec2818261254a90919063ffffffff16565b915050612ecb56505b919050565b600260026000505414151515612f51576040517f08c379a000000000000000000000000000000000000000000000000000000000815260040180806020018281038252600d8152602001807f4c43205265656e7472616e63790000000000000000000000000000000000000081526020015060200191505060405180910390fd5b600260026000508190909055505b565b600160026000508190909055505b565b801515612fe9576040517f08c379a000000000000000000000000000000000000000000000000000000000815260040180806020018281038252600e8152602001807f4e6f7420417574686f72697a656400000000000000000000000000000000000081526020015060200191505060405180910390fd5b5b50565b600060008263ffffffff1611151561303a576040517f08c379a000000000000000000000000000000000000000000000000000000000815260040161303190613d44565b60405180910390fd5b6000600267ffffffffffffffff811180156130555760006000fd5b506040519080825280602002602001820160405280156130845781602001602082028036833780820191505090505b5090508281600081518110151561309757fe5b602002602001019063ffffffff16908163ffffffff168152602001505060008160018151811015156130c557fe5b602002602001019063ffffffff16908163ffffffff168152602001505060008473ffffffffffffffffffffffffffffffffffffffff1663883bdbfd836040518263ffffffff1660e01b815260040161311d9190613bf9565b60006040518083038186803b1580156131365760006000fd5b505afa15801561314b573d600060003e3d6000fd5b505050506040513d6000823e3d601f19601f820116820180604052508101906131749190613630565b5090506131b481600081518110151561318957fe5b60200260200101518260018151811015156131a057fe5b6020026020010151866126a963ffffffff16565b925050506131bf5650505b92915050565b60008273ffffffffffffffffffffffffffffffffffffffff168473ffffffffffffffffffffffffffffffffffffffff16111561320657828480945081955050505b8373ffffffffffffffffffffffffffffffffffffffff16613275606060ff16846fffffffffffffffffffffffffffffffff16901b86860373ffffffffffffffffffffffffffffffffffffffff168673ffffffffffffffffffffffffffffffffffffffff166133dc63ffffffff16565b81151561327e57fe5b049050613286565b9392505050565b60008273ffffffffffffffffffffffffffffffffffffffff168473ffffffffffffffffffffffffffffffffffffffff1611156132ce57828480945081955050505b613316826fffffffffffffffffffffffffffffffff1685850373ffffffffffffffffffffffffffffffffffffffff166c010000000000000000000000006133dc63ffffffff16565b905061331d565b9392505050565b600068010000000000000000821015156133a9576040517f08c379a00000000000000000000000000000000000000000000000000000000081526004018080602001828103825260118152602001807f6d6f7265207468616e203634206269747300000000000000000000000000000081526020015060200191505060405180910390fd5b8190506133b1565b919050565b60006133d183670de0b6b3a7640000846122f163ffffffff16565b905080505b92915050565b600060006000600019858709858702925082811083820303915050600081141561341f576000841115156134105760006000fd5b838204925082925050506134d6565b808411151561342e5760006000fd5b60008486880990508281118203915080830392506000858660000316905080860495508084049350600181826000030401905080830284179350835060006002876003021890508087026002038102905080508087026002038102905080508087026002038102905080508087026002038102905080508087026002038102905080508087026002038102905080508085029550855085955050505050506134d65650505050505b939250505056613f61565b600082601f83011215156134f3578081fd5b8151602061350861350383613ebe565b613e93565b80838252828201915082860187848587028901011115613526578586fd5b855b8581101561355557815161353b81613ee1565b80855250848401935084820191505b600181019050613528565b5050809450505050505b92915050565b60008135905061357481613f0a565b5b919050565b60008135905061358981613f1f565b5b919050565b60008151905061ffff8116811415156135a85760006000fd5b5b919050565b60008135905063ffffffff8116811415156135c95760006000fd5b5b919050565b60008135905067ffffffffffffffff8116811415156135ee5760006000fd5b5b919050565b60008135905061360381613f4b565b5b919050565b60006020828403121561361a578081fd5b815161362581613ee1565b809150505b92915050565b6000600060408385031215613643578081fd5b825167ffffffffffffffff8082111561365a578283fd5b818501915085601f830112151561366f578283fd5b8151602061368461367f83613ebe565b613e93565b8083825282820191508286018a8485870289010111156136a2578788fd5b8796505b848710156136d35780516136b981613f35565b80845250838301925083810190505b6001870196506136a6565b5080975050508087015193505050808211156136ed578283fd5b506136fa858286016134e1565b9150505b9250929050565b600060208284031215613716578081fd5b813561372181613f0a565b809150505b92915050565b60006020828403121561373d578081fd5b81357fffffffff0000000000000000000000000000000000000000000000000000000081168114151561376e578182fd5b809150505b92915050565b60006020828403121561378a578081fd5b815161379581613ee1565b809150505b92915050565b6000602082840312156137b1578081fd5b81516137bc81613ee1565b809150505b92915050565b6000602082840312156137d8578081fd5b81356137e381613ee1565b809150505b92915050565b6000600060408385031215613801578182fd5b823561380c81613ee1565b80925050602083013561381e81613f0a565b809150505b9250929050565b600060006040838503121561383d578182fd5b823561384881613ee1565b80925050602083013561385a81613ee1565b809150505b9250929050565b60006000600060006000600060c08789031215613881578182fd5b863561388c81613ee1565b80965050602087013561389e81613f1f565b8095505060408701356138b081613f1f565b8094505060608701356138c281613f1f565b8093505060808701356fffffffffffffffffffffffffffffffff8116811415156138ea578283fd5b809250506138fa60a088016135ae565b90505b9295509295509295565b600060006040838503121561391a578182fd5b823561392581613ee1565b80925050613935602084016135ae565b90505b9250929050565b6000600060408385031215613952578182fd5b823561395d81613f1f565b80925050602083013561396f81613f0a565b809150505b9250929050565b60006000600060608486031215613990578081fd5b833561399b81613f35565b8093505060208401356139ad81613f35565b809250506139bd604085016135ae565b90505b9250925092565b6000602082840312156139d8578081fd5b81356139e381613ee1565b809150505b92915050565b600060006000600060006000600060e0888a031215613a0b578485fd5b8751613a1681613ee1565b809750506020880151613a2881613f1f565b80965050613a386040890161358f565b9450613a466060890161358f565b9350613a546080890161358f565b925060a0880151613a6481613f4b565b8092505060c0880151613a7681613f0a565b809150505b92959891949750929550565b6000600082840360e0811215613a9b578283fd5b8335925060c07fffffffffffffffffffffffffffffffffffffffffffffffffffffffffffffffe082011215613ace578182fd5b5060405160c0810181811067ffffffffffffffff82111715613aec57fe5b8060405250613afd602085016135cf565b81526040840135613b0d81613f35565b80602083015250613b206060850161357a565b6040820152613b31608085016135f4565b6060820152613b4260a08501613565565b6080820152613b5360c08501613565565b60a0820152809150505b9250929050565b600060208284031215613b75578081fd5b613b7e826135ae565b90505b92915050565b600060208284031215613b98578081fd5b613ba1826135cf565b90505b92915050565b600060208284031215613bbb578081fd5b8151613bc681613f4b565b809150505b92915050565b600060208201905073ffffffffffffffffffffffffffffffffffffffff831682525b92915050565b600060208083018184528085518083526040860191508387019250845b81811015613c3e5763ffffffff8451168352848301925084840193505b600181019050613c16565b50508093505050505b92915050565b600060208201905082151582525b92915050565b600060208201905073ffffffffffffffffffffffffffffffffffffffff831682525b92915050565b600060208201905073ffffffffffffffffffffffffffffffffffffffff831682525b92915050565b60006020820190508260020b82525b92915050565b600060208252600260208301527f504500000000000000000000000000000000000000000000000000000000000060408301526060820190505b919050565b600060208252600e60208301527f4e6f7420417574686f72697a656400000000000000000000000000000000000060408301526060820190505b919050565b600060208252600260208301527f544500000000000000000000000000000000000000000000000000000000000060408301526060820190505b919050565b600060208252601360208301527f626967676572207468616e20333220626974730000000000000000000000000060408301526060820190505b919050565b600060208252600c60208301527f496e76616c696420706f6f6c000000000000000000000000000000000000000060408301526060820190505b919050565b60006020820190508282525b92915050565b60006040820190508382528260020b60208301525b9392505050565b600060208201905063ffffffff831682525b92915050565b600060c08201905067ffffffffffffffff881682528660060b60208301528560020b604083015260ff85166060830152831515608083015282151560a08301525b979650505050505050565b6000604051905081810181811067ffffffffffffffff82111715613eb357fe5b80604052505b919050565b600067ffffffffffffffff821115613ed257fe5b6020602083020190505b919050565b73ffffffffffffffffffffffffffffffffffffffff811681141515613f065760006000fd5b5b50565b80151581141515613f1b5760006000fd5b5b50565b8060020b81141515613f315760006000fd5b5b50565b8060060b81141515613f475760006000fd5b5b50565b60ff811681141515613f5d5760006000fd5b5b50565bfea2646970667358221220495488781b0cac404f76026df74dbb0c5d6e85e401c5ca0461ece205f9825e0564736f6c63430007060033",
  "linkReferences": {},
  "deployedLinkReferences": {}
}