{
  "_format": "hh-sol-artifact-1",
  "contractName": "LendHue",
  "sourceName": "contracts/core/tokens/LendHue.sol",
  "abi": [
    {
      "inputs": [
        {
          "components": [
            {
              "internalType": "contract IGovernor",
              "name": "Governor",
              "type": "address"
            }
          ],
          "internalType": "struct ILendHue.ConstructorParams",
          "name": "params",
          "type": "tuple"
        }
      ],
      "stateMutability": "nonpayable",
      "type": "constructor"
    },
    {
      "anonymous": false,
      "inputs": [
        {
          "indexed": true,
          "internalType": "address",
          "name": "owner",
          "type": "address"
        },
        {
          "indexed": true,
          "internalType": "address",
          "name": "spender",
          "type": "address"
        },
        {
          "indexed": false,
          "internalType": "uint256",
          "name": "value",
          "type": "uint256"
        }
      ],
      "name": "Approval",
      "type": "event"
    },
    {
      "anonymous": false,
      "inputs": [],
      "name": "Stopped",
      "type": "event"
    },
    {
      "anonymous": false,
      "inputs": [
        {
          "indexed": true,
          "internalType": "address",
          "name": "from",
          "type": "address"
        },
        {
          "indexed": true,
          "internalType": "address",
          "name": "to",
          "type": "address"
        },
        {
          "indexed": false,
          "internalType": "uint256",
          "name": "value",
          "type": "uint256"
        }
      ],
      "name": "Transfer",
      "type": "event"
    },
    {
      "inputs": [
        {
          "internalType": "address",
          "name": "owner",
          "type": "address"
        },
        {
          "internalType": "address",
          "name": "spender",
          "type": "address"
        }
      ],
      "name": "allowance",
      "outputs": [
        {
          "internalType": "uint256",
          "name": "",
          "type": "uint256"
        }
      ],
      "stateMutability": "view",
      "type": "function"
    },
    {
      "inputs": [
        {
          "internalType": "address",
          "name": "spender",
          "type": "address"
        },
        {
          "internalType": "uint256",
          "name": "amount",
          "type": "uint256"
        }
      ],
      "name": "approve",
      "outputs": [
        {
          "internalType": "bool",
          "name": "",
          "type": "bool"
        }
      ],
      "stateMutability": "nonpayable",
      "type": "function"
    },
    {
      "inputs": [
        {
          "internalType": "address",
          "name": "account",
          "type": "address"
        }
      ],
      "name": "balanceOf",
      "outputs": [
        {
          "internalType": "uint256",
          "name": "",
          "type": "uint256"
        }
      ],
      "stateMutability": "view",
      "type": "function"
    },
    {
      "inputs": [
        {
          "internalType": "address",
          "name": "account",
          "type": "address"
        },
        {
          "internalType": "uint256",
          "name": "amount",
          "type": "uint256"
        }
      ],
      "name": "burnFrom",
      "outputs": [],
      "stateMutability": "nonpayable",
      "type": "function"
    },
    {
      "inputs": [],
      "name": "decimals",
      "outputs": [
        {
          "internalType": "uint8",
          "name": "",
          "type": "uint8"
        }
      ],
      "stateMutability": "view",
      "type": "function"
    },
    {
      "inputs": [
        {
          "internalType": "address",
          "name": "spender",
          "type": "address"
        },
        {
          "internalType": "uint256",
          "name": "subtractedValue",
          "type": "uint256"
        }
      ],
      "name": "decreaseAllowance",
      "outputs": [
        {
          "internalType": "bool",
          "name": "",
          "type": "bool"
        }
      ],
      "stateMutability": "nonpayable",
      "type": "function"
    },
    {
      "inputs": [],
      "name": "governor",
      "outputs": [
        {
          "internalType": "contract IGovernor",
          "name": "",
          "type": "address"
        }
      ],
      "stateMutability": "view",
      "type": "function"
    },
    {
      "inputs": [
        {
          "internalType": "address",
          "name": "spender",
          "type": "address"
        },
        {
          "internalType": "uint256",
          "name": "addedValue",
          "type": "uint256"
        }
      ],
      "name": "increaseAllowance",
      "outputs": [
        {
          "internalType": "bool",
          "name": "",
          "type": "bool"
        }
      ],
      "stateMutability": "nonpayable",
      "type": "function"
    },
    {
      "inputs": [
        {
          "internalType": "address",
          "name": "dest",
          "type": "address"
        },
        {
          "internalType": "uint256",
          "name": "count",
          "type": "uint256"
        }
      ],
      "name": "mintTo",
      "outputs": [],
      "stateMutability": "nonpayable",
      "type": "function"
    },
    {
      "inputs": [],
      "name": "name",
      "outputs": [
        {
          "internalType": "string",
          "name": "",
          "type": "string"
        }
      ],
      "stateMutability": "view",
      "type": "function"
    },
    {
      "inputs": [],
      "name": "stopped",
      "outputs": [
        {
          "internalType": "bool",
          "name": "",
          "type": "bool"
        }
      ],
      "stateMutability": "view",
      "type": "function"
    },
    {
      "inputs": [],
      "name": "symbol",
      "outputs": [
        {
          "internalType": "string",
          "name": "",
          "type": "string"
        }
      ],
      "stateMutability": "view",
      "type": "function"
    },
    {
      "inputs": [],
      "name": "totalSupply",
      "outputs": [
        {
          "internalType": "uint256",
          "name": "",
          "type": "uint256"
        }
      ],
      "stateMutability": "view",
      "type": "function"
    },
    {
      "inputs": [
        {
          "internalType": "address",
          "name": "recipient",
          "type": "address"
        },
        {
          "internalType": "uint256",
          "name": "amount",
          "type": "uint256"
        }
      ],
      "name": "transfer",
      "outputs": [
        {
          "internalType": "bool",
          "name": "",
          "type": "bool"
        }
      ],
      "stateMutability": "nonpayable",
      "type": "function"
    },
    {
      "inputs": [
        {
          "internalType": "address",
          "name": "sender",
          "type": "address"
        },
        {
          "internalType": "address",
          "name": "recipient",
          "type": "address"
        },
        {
          "internalType": "uint256",
          "name": "amount",
          "type": "uint256"
        }
      ],
      "name": "transferFrom",
      "outputs": [
        {
          "internalType": "bool",
          "name": "",
          "type": "bool"
        }
      ],
      "stateMutability": "nonpayable",
      "type": "function"
    },
    {
      "inputs": [
        {
          "internalType": "bytes4",
          "name": "",
          "type": "bytes4"
        }
      ],
      "name": "validUpdate",
      "outputs": [
        {
          "internalType": "bool",
          "name": "",
          "type": "bool"
        }
      ],
      "stateMutability": "view",
      "type": "function"
    }
  ],
  "bytecode": "0x60a0604052600160076000509090553480156200001c5760006000fd5b5060405162001d8e38038062001d8e83398181016040528101906200004291906200021e565b5b80600001515b6040518060400160405280600881526020017f4c656e64204875650000000000000000000000000000000000000000000000008152602001506040518060400160405280600781526020017f4c656e64487565000000000000000000000000000000000000000000000000008152602001505b8160036000509080519060200190620000d792919062000157565b508060046000509080519060200190620000f392919062000157565b506012600560006101000a81548160ff021916908360ff1602179055505b50508073ffffffffffffffffffffffffffffffffffffffff1660808173ffffffffffffffffffffffffffffffffffffffff1660601b815260140150505b505b506200027b565b828054600181600116156101000203166002900490600052602060002090601f0160209004810192826200018f5760008555620001e0565b82601f10620001aa57805160ff1916838001178555620001e0565b82800160010185558215620001e0579182015b82811115620001df5782518260005090905591602001919060010190620001bd565b5b509050620001ef9190620001f3565b5090565b620001f9565b80821115620002155760008181506000905550600101620001f9565b5090566200027a565b60006020828403121562000230578081fd5b604051602081018181106001600160401b03821117156200024d57fe5b806040525082516001600160a01b038116811415156200026b578283fd5b80825250809150505b92915050565b5b60805160601c611af06200029e6000398061045252806106a95250611af06000f3fe60806040523480156100115760006000fd5b50600436106101055760003560e01c8063449a52f81161009857806395d89b411161006757806395d89b41146102c9578063a457c2d7146102e7578063a9059cbb14610317578063dd62ed3e1461034757610105565b8063449a52f81461024357806370a082311461025f57806375f12b211461028f57806379cc6790146102ad57610105565b806318160ddd116100d457806318160ddd146101a757806323b872dd146101c5578063313ce567146101f5578063395093511461021357610105565b806306fdde031461010b578063095ea7b3146101295780630c340a2414610159578063113cf1ab1461017757610105565b60006000fd5b610113610377565b604051610120919061182f565b60405180910390f35b610143600480360381019061013e919061174e565b610421565b60405161015091906117f3565b60405180910390f35b610161610450565b60405161016e9190611807565b60405180910390f35b610191600480360381019061018c919061177f565b610474565b60405161019e91906117f3565b60405180910390f35b6101af610499565b6040516101bc9190611925565b60405180910390f35b6101df60048036038101906101da9190611709565b6104ab565b6040516101ec91906117f3565b60405180910390f35b6101fd6105aa565b60405161020a9190611937565b60405180910390f35b61022d6004803603810190610228919061174e565b6105c6565b60405161023a91906117f3565b60405180910390f35b61025d6004803603810190610258919061174e565b610699565b005b610279600480360381019061027491906116a6565b6107da565b6040516102869190611925565b60405180910390f35b61029761082e565b6040516102a491906117f3565b60405180910390f35b6102c760048036038101906102c2919061174e565b610841565b005b6102d16108ed565b6040516102de919061182f565b60405180910390f35b61030160048036038101906102fc919061174e565b610997565b60405161030e91906117f3565b60405180910390f35b610331600480360381019061032c919061174e565b610a84565b60405161033e91906117f3565b60405180910390f35b610361600480360381019061035c91906116cd565b610ab3565b60405161036e9190611925565b60405180910390f35b606060036000508054600181600116156101000203166002900480601f0160208091040260200160405190810160405280929190818152602001828054600181600116156101000203166002900480156104125780601f106103e757610100808354040283529160200191610412565b820191906000526020600020905b8154815290600101906020018083116103f557829003601f168201915b5050505050905061041e565b90565b6000610441610434610b4863ffffffff16565b8484610b5563ffffffff16565b6001905061044a565b92915050565b7f000000000000000000000000000000000000000000000000000000000000000081565b600660005060205280600052604060002060009150909054906101000a900460ff1681565b600060026000505490506104a8565b90565b60006104be848484610d5c63ffffffff16565b61059a846104d0610b4863ffffffff16565b61058f85604051806060016040528060288152602001611a0460289139600160005060008b73ffffffffffffffffffffffffffffffffffffffff1673ffffffffffffffffffffffffffffffffffffffff1681526020019081526020016000206000506000610542610b4863ffffffff16565b73ffffffffffffffffffffffffffffffffffffffff1673ffffffffffffffffffffffffffffffffffffffff168152602001908152602001600020600050546110489092919063ffffffff16565b610b5563ffffffff16565b600190506105a3565b9392505050565b6000600560009054906101000a900460ff1690506105c3565b90565b600061068a6105d9610b4863ffffffff16565b8461067f85600160005060006105f3610b4863ffffffff16565b73ffffffffffffffffffffffffffffffffffffffff1673ffffffffffffffffffffffffffffffffffffffff16815260200190815260200160002060005060008973ffffffffffffffffffffffffffffffffffffffff1673ffffffffffffffffffffffffffffffffffffffff1681526020019081526020016000206000505461110a90919063ffffffff16565b610b5563ffffffff16565b60019050610693565b92915050565b6106a761119e63ffffffff16565b7f000000000000000000000000000000000000000000000000000000000000000073ffffffffffffffffffffffffffffffffffffffff166380f556056040518163ffffffff1660e01b815260040160206040518083038186803b15801561070e5760006000fd5b505afa158015610723573d600060003e3d6000fd5b505050506040513d601f19601f8201168201806040525081019061074791906117cc565b73ffffffffffffffffffffffffffffffffffffffff163373ffffffffffffffffffffffffffffffffffffffff161415156107b6576040517f08c379a00000000000000000000000000000000000000000000000000000000081526004016107ad906118e6565b60405180910390fd5b6107c6828261122f63ffffffff16565b5b6107d561141a63ffffffff16565b5b5050565b6000600060005060008373ffffffffffffffffffffffffffffffffffffffff1673ffffffffffffffffffffffffffffffffffffffff168152602001908152602001600020600050549050610829565b919050565b600560019054906101000a900460ff1681565b61084f61119e63ffffffff16565b60006108618333610ab363ffffffff16565b90508181101515156108a8576040517f08c379a000000000000000000000000000000000000000000000000000000000815260040161089f906118a7565b60405180910390fd5b6108c8836108ba610b4863ffffffff16565b848403610b5563ffffffff16565b6108d8838361142a63ffffffff16565b505b6108e861141a63ffffffff16565b5b5050565b606060046000508054600181600116156101000203166002900480601f0160208091040260200160405190810160405280929190818152602001828054600181600116156101000203166002900480156109885780601f1061095d57610100808354040283529160200191610988565b820191906000526020600020905b81548152906001019060200180831161096b57829003601f168201915b50505050509050610994565b90565b6000610a756109aa610b4863ffffffff16565b84610a6a85604051806060016040528060258152602001611a9660259139600160005060006109dd610b4863ffffffff16565b73ffffffffffffffffffffffffffffffffffffffff1673ffffffffffffffffffffffffffffffffffffffff16815260200190815260200160002060005060008a73ffffffffffffffffffffffffffffffffffffffff1673ffffffffffffffffffffffffffffffffffffffff168152602001908152602001600020600050546110489092919063ffffffff16565b610b5563ffffffff16565b60019050610a7e565b92915050565b6000610aa4610a97610b4863ffffffff16565b8484610d5c63ffffffff16565b60019050610aad565b92915050565b6000600160005060008473ffffffffffffffffffffffffffffffffffffffff1673ffffffffffffffffffffffffffffffffffffffff16815260200190815260200160002060005060008373ffffffffffffffffffffffffffffffffffffffff1673ffffffffffffffffffffffffffffffffffffffff168152602001908152602001600020600050549050610b42565b92915050565b6000339050610b52565b90565b600073ffffffffffffffffffffffffffffffffffffffff168373ffffffffffffffffffffffffffffffffffffffff1614151515610bdd576040517f08c379a0000000000000000000000000000000000000000000000000000000008152600401808060200182810382526024815260200180611a726024913960400191505060405180910390fd5b600073ffffffffffffffffffffffffffffffffffffffff168273ffffffffffffffffffffffffffffffffffffffff1614151515610c65576040517f08c379a00000000000000000000000000000000000000000000000000000000081526004018080602001828103825260228152602001806119bc6022913960400191505060405180910390fd5b80600160005060008573ffffffffffffffffffffffffffffffffffffffff1673ffffffffffffffffffffffffffffffffffffffff16815260200190815260200160002060005060008473ffffffffffffffffffffffffffffffffffffffff1673ffffffffffffffffffffffffffffffffffffffff1681526020019081526020016000206000508190909055508173ffffffffffffffffffffffffffffffffffffffff168373ffffffffffffffffffffffffffffffffffffffff167f8c5be1e5ebec7d5bd14f71427d1e84f3dd0314c0f7b2291e5b200ac8c7c3b925836040518082815260200191505060405180910390a35b505050565b600073ffffffffffffffffffffffffffffffffffffffff168373ffffffffffffffffffffffffffffffffffffffff1614151515610de4576040517f08c379a0000000000000000000000000000000000000000000000000000000008152600401808060200182810382526025815260200180611a4d6025913960400191505060405180910390fd5b600073ffffffffffffffffffffffffffffffffffffffff168273ffffffffffffffffffffffffffffffffffffffff1614151515610e6c576040517f08c379a00000000000000000000000000000000000000000000000000000000081526004018080602001828103825260238152602001806119776023913960400191505060405180910390fd5b610e7d83838361160f63ffffffff16565b610eef816040518060600160405280602681526020016119de60269139600060005060008773ffffffffffffffffffffffffffffffffffffffff1673ffffffffffffffffffffffffffffffffffffffff168152602001908152602001600020600050546110489092919063ffffffff16565b600060005060008573ffffffffffffffffffffffffffffffffffffffff1673ffffffffffffffffffffffffffffffffffffffff168152602001908152602001600020600050819090905550610f9281600060005060008573ffffffffffffffffffffffffffffffffffffffff1673ffffffffffffffffffffffffffffffffffffffff1681526020019081526020016000206000505461110a90919063ffffffff16565b600060005060008473ffffffffffffffffffffffffffffffffffffffff1673ffffffffffffffffffffffffffffffffffffffff1681526020019081526020016000206000508190909055508173ffffffffffffffffffffffffffffffffffffffff168373ffffffffffffffffffffffffffffffffffffffff167fddf252ad1be2c89b69c2b068fc378daa952ba7f163c4a11628f55a4df523b3ef836040518082815260200191505060405180910390a35b505050565b600083831115829015156110f8576040517f08c379a00000000000000000000000000000000000000000000000000000000081526004018080602001828103825283818151815260200191508051906020019080838360005b838110156110bd5780820151818401525b6020810190506110a1565b50505050905090810190601f1680156110ea5780820380516001836020036101000a031916815260200191505b509250505060405180910390fd5b508284039050611103565b9392505050565b60006000828401905083811015151561118e576040517f08c379a000000000000000000000000000000000000000000000000000000000815260040180806020018281038252601b8152602001807f536166654d6174683a206164646974696f6e206f766572666c6f77000000000081526020015060200191505060405180910390fd5b8091505061119856505b92915050565b60026007600050541415151561121f576040517f08c379a000000000000000000000000000000000000000000000000000000000815260040180806020018281038252600d8152602001807f4c43205265656e7472616e63790000000000000000000000000000000000000081526020015060200191505060405180910390fd5b600260076000508190909055505b565b600073ffffffffffffffffffffffffffffffffffffffff168273ffffffffffffffffffffffffffffffffffffffff16141515156112d7576040517f08c379a000000000000000000000000000000000000000000000000000000000815260040180806020018281038252601f8152602001807f45524332303a206d696e7420746f20746865207a65726f20616464726573730081526020015060200191505060405180910390fd5b6112e96000838361160f63ffffffff16565b6113018160026000505461110a90919063ffffffff16565b600260005081909090555061136481600060005060008573ffffffffffffffffffffffffffffffffffffffff1673ffffffffffffffffffffffffffffffffffffffff1681526020019081526020016000206000505461110a90919063ffffffff16565b600060005060008473ffffffffffffffffffffffffffffffffffffffff1673ffffffffffffffffffffffffffffffffffffffff1681526020019081526020016000206000508190909055508173ffffffffffffffffffffffffffffffffffffffff16600073ffffffffffffffffffffffffffffffffffffffff167fddf252ad1be2c89b69c2b068fc378daa952ba7f163c4a11628f55a4df523b3ef836040518082815260200191505060405180910390a35b5050565b600160076000508190909055505b565b600073ffffffffffffffffffffffffffffffffffffffff168273ffffffffffffffffffffffffffffffffffffffff16141515156114b2576040517f08c379a0000000000000000000000000000000000000000000000000000000008152600401808060200182810382526021815260200180611a2c6021913960400191505060405180910390fd5b6114c48260008361160f63ffffffff16565b6115368160405180606001604052806022815260200161199a60229139600060005060008673ffffffffffffffffffffffffffffffffffffffff1673ffffffffffffffffffffffffffffffffffffffff168152602001908152602001600020600050546110489092919063ffffffff16565b600060005060008473ffffffffffffffffffffffffffffffffffffffff1673ffffffffffffffffffffffffffffffffffffffff1681526020019081526020016000206000508190909055506115998160026000505461161590919063ffffffff16565b6002600050819090905550600073ffffffffffffffffffffffffffffffffffffffff168273ffffffffffffffffffffffffffffffffffffffff167fddf252ad1be2c89b69c2b068fc378daa952ba7f163c4a11628f55a4df523b3ef836040518082815260200191505060405180910390a35b5050565b5b505050565b6000828211151515611692576040517f08c379a000000000000000000000000000000000000000000000000000000000815260040180806020018281038252601e8152602001807f536166654d6174683a207375627472616374696f6e206f766572666c6f77000081526020015060200191505060405180910390fd5b818303905061169c565b9291505056611975565b6000602082840312156116b7578081fd5b81356116c28161194c565b809150505b92915050565b60006000604083850312156116e0578081fd5b82356116eb8161194c565b8092505060208301356116fd8161194c565b809150505b9250929050565b6000600060006060848603121561171e578081fd5b83356117298161194c565b80935050602084013561173b8161194c565b80925050604084013590505b9250925092565b6000600060408385031215611761578182fd5b823561176c8161194c565b80925050602083013590505b9250929050565b600060208284031215611790578081fd5b81357fffffffff000000000000000000000000000000000000000000000000000000008116811415156117c1578182fd5b809150505b92915050565b6000602082840312156117dd578081fd5b81516117e88161194c565b809150505b92915050565b600060208201905082151582525b92915050565b600060208201905073ffffffffffffffffffffffffffffffffffffffff831682525b92915050565b6000602080835283518082850152825b8181101561185f57828187010151604082870101525b828101905061183f565b818111156118705783604083870101525b5060407fffffffffffffffffffffffffffffffffffffffffffffffffffffffffffffffe0601f830116850101925050505b92915050565b600060208252601660208301527f4275726e206578636565647320616c6c6f77616e63650000000000000000000060408301526060820190505b919050565b600060208252600e60208301527f4e6f7420417574686f72697a656400000000000000000000000000000000000060408301526060820190505b919050565b60006020820190508282525b92915050565b600060208201905060ff831682525b92915050565b73ffffffffffffffffffffffffffffffffffffffff8116811415156119715760006000fd5b5b50565bfe45524332303a207472616e7366657220746f20746865207a65726f206164647265737345524332303a206275726e20616d6f756e7420657863656564732062616c616e636545524332303a20617070726f766520746f20746865207a65726f206164647265737345524332303a207472616e7366657220616d6f756e7420657863656564732062616c616e636545524332303a207472616e7366657220616d6f756e74206578636565647320616c6c6f77616e636545524332303a206275726e2066726f6d20746865207a65726f206164647265737345524332303a207472616e736665722066726f6d20746865207a65726f206164647265737345524332303a20617070726f76652066726f6d20746865207a65726f206164647265737345524332303a2064656372656173656420616c6c6f77616e63652062656c6f77207a65726fa26469706673582212200507aa24a2b2cba91bcf698d5e194c2efb6b8a25031adf2709435a1c4f83737964736f6c63430007060033",
  "linkReferences": {},
  "deployedLinkReferences": {}
}