{
  "_format": "hh-sol-artifact-1",
  "contractName": "TDao",
  "sourceName": "contracts/core/TDao/TDao.sol",
  "abi": [
    {
      "inputs": [
        {
          "internalType": "address",
          "name": "_timelock",
          "type": "address"
        },
        {
          "internalType": "address",
          "name": "_admin",
          "type": "address"
        }
      ],
      "stateMutability": "nonpayable",
      "type": "constructor"
    },
    {
      "anonymous": false,
      "inputs": [
        {
          "indexed": true,
          "internalType": "address",
          "name": "token",
          "type": "address"
        },
        {
          "indexed": false,
          "internalType": "uint256",
          "name": "count",
          "type": "uint256"
        }
      ],
      "name": "IncentiveMinted",
      "type": "event"
    },
    {
      "anonymous": false,
      "inputs": [
        {
          "indexed": true,
          "internalType": "uint64",
          "name": "currentPeriod",
          "type": "uint64"
        },
        {
          "indexed": false,
          "internalType": "uint64",
          "name": "periods",
          "type": "uint64"
        }
      ],
      "name": "InflationAccrued",
      "type": "event"
    },
    {
      "anonymous": false,
      "inputs": [
        {
          "indexed": true,
          "internalType": "address",
          "name": "_contract",
          "type": "address"
        }
      ],
      "name": "LiquidationIncentiveContractSet",
      "type": "event"
    },
    {
      "anonymous": false,
      "inputs": [
        {
          "indexed": true,
          "internalType": "uint64",
          "name": "positionNFTTokenID",
          "type": "uint64"
        },
        {
          "indexed": true,
          "internalType": "address",
          "name": "owner",
          "type": "address"
        }
      ],
      "name": "RewardsClaimed",
      "type": "event"
    },
    {
      "anonymous": false,
      "inputs": [],
      "name": "TDaoStarted",
      "type": "event"
    },
    {
      "anonymous": false,
      "inputs": [
        {
          "indexed": true,
          "internalType": "address",
          "name": "token",
          "type": "address"
        }
      ],
      "name": "TokenAdded",
      "type": "event"
    },
    {
      "anonymous": false,
      "inputs": [
        {
          "indexed": true,
          "internalType": "uint16",
          "name": "tokenID",
          "type": "uint16"
        },
        {
          "indexed": true,
          "internalType": "address",
          "name": "initialOwner",
          "type": "address"
        },
        {
          "indexed": true,
          "internalType": "uint8",
          "name": "lockDurationMonths",
          "type": "uint8"
        },
        {
          "indexed": false,
          "internalType": "uint256",
          "name": "count",
          "type": "uint256"
        }
      ],
      "name": "TokensLocked",
      "type": "event"
    },
    {
      "anonymous": false,
      "inputs": [
        {
          "indexed": true,
          "internalType": "uint16",
          "name": "tokenID",
          "type": "uint16"
        },
        {
          "indexed": true,
          "internalType": "address",
          "name": "owner",
          "type": "address"
        },
        {
          "indexed": false,
          "internalType": "uint256",
          "name": "count",
          "type": "uint256"
        }
      ],
      "name": "TokensUnlocked",
      "type": "event"
    },
    {
      "inputs": [],
      "name": "accrueInflation",
      "outputs": [],
      "stateMutability": "nonpayable",
      "type": "function"
    },
    {
      "inputs": [
        {
          "internalType": "contract IERC20",
          "name": "token",
          "type": "address"
        }
      ],
      "name": "addToken",
      "outputs": [],
      "stateMutability": "nonpayable",
      "type": "function"
    },
    {
      "inputs": [],
      "name": "admin",
      "outputs": [
        {
          "internalType": "address",
          "name": "",
          "type": "address"
        }
      ],
      "stateMutability": "view",
      "type": "function"
    },
    {
      "inputs": [
        {
          "internalType": "bytes4",
          "name": "",
          "type": "bytes4"
        }
      ],
      "name": "blacklistedAction",
      "outputs": [
        {
          "internalType": "bool",
          "name": "",
          "type": "bool"
        }
      ],
      "stateMutability": "view",
      "type": "function"
    },
    {
      "inputs": [],
      "name": "countUnderlyingProtocolTokens",
      "outputs": [
        {
          "internalType": "uint16",
          "name": "",
          "type": "uint16"
        }
      ],
      "stateMutability": "view",
      "type": "function"
    },
    {
      "inputs": [],
      "name": "currentPeriod",
      "outputs": [
        {
          "internalType": "uint64",
          "name": "period",
          "type": "uint64"
        }
      ],
      "stateMutability": "view",
      "type": "function"
    },
    {
      "inputs": [],
      "name": "dailyProtocolTDaoIncentiveCount",
      "outputs": [
        {
          "internalType": "uint256",
          "name": "",
          "type": "uint256"
        }
      ],
      "stateMutability": "view",
      "type": "function"
    },
    {
      "inputs": [],
      "name": "deployer",
      "outputs": [
        {
          "internalType": "address",
          "name": "",
          "type": "address"
        }
      ],
      "stateMutability": "view",
      "type": "function"
    },
    {
      "inputs": [
        {
          "internalType": "address",
          "name": "target",
          "type": "address"
        },
        {
          "internalType": "string",
          "name": "signature",
          "type": "string"
        },
        {
          "internalType": "bytes",
          "name": "data",
          "type": "bytes"
        }
      ],
      "name": "execute",
      "outputs": [
        {
          "internalType": "bool",
          "name": "success",
          "type": "bool"
        },
        {
          "internalType": "bytes",
          "name": "returnData",
          "type": "bytes"
        }
      ],
      "stateMutability": "nonpayable",
      "type": "function"
    },
    {
      "inputs": [
        {
          "internalType": "uint256",
          "name": "metaProposalID",
          "type": "uint256"
        }
      ],
      "name": "executeMetaProposalVote",
      "outputs": [],
      "stateMutability": "nonpayable",
      "type": "function"
    },
    {
      "inputs": [],
      "name": "firstPeriod",
      "outputs": [
        {
          "internalType": "uint64",
          "name": "",
          "type": "uint64"
        }
      ],
      "stateMutability": "view",
      "type": "function"
    },
    {
      "inputs": [
        {
          "internalType": "uint64",
          "name": "positionNFTTokenID",
          "type": "uint64"
        }
      ],
      "name": "getPosition",
      "outputs": [
        {
          "components": [
            {
              "internalType": "uint256",
              "name": "count",
              "type": "uint256"
            },
            {
              "internalType": "uint256",
              "name": "startTotalRewards",
              "type": "uint256"
            },
            {
              "internalType": "uint256",
              "name": "startCumulativeVirtualCount",
              "type": "uint256"
            },
            {
              "internalType": "uint64",
              "name": "lastPeriodUpdated",
              "type": "uint64"
            },
            {
              "internalType": "uint64",
              "name": "endPeriod",
              "type": "uint64"
            },
            {
              "internalType": "uint64",
              "name": "durationMonths",
              "type": "uint64"
            },
            {
              "internalType": "uint16",
              "name": "tokenID",
              "type": "uint16"
            }
          ],
          "internalType": "struct ITDao.TokenPosition",
          "name": "",
          "type": "tuple"
        }
      ],
      "stateMutability": "view",
      "type": "function"
    },
    {
      "inputs": [
        {
          "internalType": "uint64",
          "name": "positionNFTTokenID",
          "type": "uint64"
        }
      ],
      "name": "getRewards",
      "outputs": [],
      "stateMutability": "nonpayable",
      "type": "function"
    },
    {
      "inputs": [
        {
          "internalType": "uint16",
          "name": "_tokenID",
          "type": "uint16"
        }
      ],
      "name": "getRewardsStatus",
      "outputs": [
        {
          "components": [
            {
              "internalType": "uint256",
              "name": "cumulativeVirtualCount",
              "type": "uint256"
            },
            {
              "internalType": "uint256",
              "name": "totalRewards",
              "type": "uint256"
            }
          ],
          "internalType": "struct ITDao.TokenRewardsStatus",
          "name": "",
          "type": "tuple"
        }
      ],
      "stateMutability": "view",
      "type": "function"
    },
    {
      "inputs": [
        {
          "internalType": "uint16",
          "name": "",
          "type": "uint16"
        }
      ],
      "name": "idToToken",
      "outputs": [
        {
          "internalType": "contract IERC20",
          "name": "",
          "type": "address"
        }
      ],
      "stateMutability": "view",
      "type": "function"
    },
    {
      "inputs": [],
      "name": "incentiveContract",
      "outputs": [
        {
          "internalType": "address",
          "name": "",
          "type": "address"
        }
      ],
      "stateMutability": "view",
      "type": "function"
    },
    {
      "inputs": [
        {
          "internalType": "address",
          "name": "dest",
          "type": "address"
        },
        {
          "internalType": "uint256",
          "name": "count",
          "type": "uint256"
        }
      ],
      "name": "incentiveContractMint",
      "outputs": [],
      "stateMutability": "nonpayable",
      "type": "function"
    },
    {
      "inputs": [],
      "name": "incentivesStartPeriod",
      "outputs": [
        {
          "internalType": "uint64",
          "name": "",
          "type": "uint64"
        }
      ],
      "stateMutability": "view",
      "type": "function"
    },
    {
      "inputs": [
        {
          "internalType": "contract IPositionNFT",
          "name": "_tDaoPositionNFT",
          "type": "address"
        },
        {
          "internalType": "contract IProtocolToken",
          "name": "_tDaoToken",
          "type": "address"
        },
        {
          "internalType": "address",
          "name": "_tDaoGovernorAlpha",
          "type": "address"
        }
      ],
      "name": "init",
      "outputs": [],
      "stateMutability": "nonpayable",
      "type": "function"
    },
    {
      "inputs": [],
      "name": "lastPeriodGlobalInflationUpdated",
      "outputs": [
        {
          "internalType": "uint64",
          "name": "",
          "type": "uint64"
        }
      ],
      "stateMutability": "view",
      "type": "function"
    },
    {
      "inputs": [
        {
          "internalType": "contract IERC20",
          "name": "token",
          "type": "address"
        },
        {
          "internalType": "uint256",
          "name": "count",
          "type": "uint256"
        },
        {
          "internalType": "uint8",
          "name": "lockDurationMonths",
          "type": "uint8"
        },
        {
          "internalType": "address",
          "name": "to",
          "type": "address"
        }
      ],
      "name": "lockTokens",
      "outputs": [
        {
          "internalType": "uint64",
          "name": "positionNFTTokenID",
          "type": "uint64"
        }
      ],
      "stateMutability": "nonpayable",
      "type": "function"
    },
    {
      "inputs": [
        {
          "internalType": "address",
          "name": "dest",
          "type": "address"
        },
        {
          "internalType": "uint256",
          "name": "count",
          "type": "uint256"
        }
      ],
      "name": "mintIncentive",
      "outputs": [],
      "stateMutability": "nonpayable",
      "type": "function"
    },
    {
      "inputs": [
        {
          "internalType": "address",
          "name": "dest",
          "type": "address"
        },
        {
          "internalType": "uint256",
          "name": "count",
          "type": "uint256"
        }
      ],
      "name": "mintVotingRewards",
      "outputs": [],
      "stateMutability": "nonpayable",
      "type": "function"
    },
    {
      "inputs": [],
      "name": "periodLength",
      "outputs": [
        {
          "internalType": "uint64",
          "name": "",
          "type": "uint64"
        }
      ],
      "stateMutability": "view",
      "type": "function"
    },
    {
      "inputs": [
        {
          "internalType": "contract IERC20",
          "name": "token",
          "type": "address"
        }
      ],
      "name": "selfDelegate",
      "outputs": [],
      "stateMutability": "nonpayable",
      "type": "function"
    },
    {
      "inputs": [
        {
          "internalType": "address",
          "name": "governorAlpha",
          "type": "address"
        },
        {
          "internalType": "uint256",
          "name": "proposalID",
          "type": "uint256"
        },
        {
          "internalType": "address",
          "name": "voter",
          "type": "address"
        },
        {
          "internalType": "uint256",
          "name": "votePortion",
          "type": "uint256"
        }
      ],
      "name": "sendUnderlyingVotingRewards",
      "outputs": [],
      "stateMutability": "nonpayable",
      "type": "function"
    },
    {
      "inputs": [
        {
          "internalType": "contract IERC20",
          "name": "firstToken",
          "type": "address"
        }
      ],
      "name": "setFirstToken",
      "outputs": [],
      "stateMutability": "nonpayable",
      "type": "function"
    },
    {
      "inputs": [
        {
          "internalType": "address",
          "name": "_contract",
          "type": "address"
        }
      ],
      "name": "setIncentiveContract",
      "outputs": [],
      "stateMutability": "nonpayable",
      "type": "function"
    },
    {
      "inputs": [],
      "name": "start",
      "outputs": [],
      "stateMutability": "nonpayable",
      "type": "function"
    },
    {
      "inputs": [],
      "name": "startPeriod",
      "outputs": [
        {
          "internalType": "uint64",
          "name": "",
          "type": "uint64"
        }
      ],
      "stateMutability": "view",
      "type": "function"
    },
    {
      "inputs": [],
      "name": "tDaoGovernorAlpha",
      "outputs": [
        {
          "internalType": "address",
          "name": "",
          "type": "address"
        }
      ],
      "stateMutability": "view",
      "type": "function"
    },
    {
      "inputs": [],
      "name": "tDaoPositionNFT",
      "outputs": [
        {
          "internalType": "contract IPositionNFT",
          "name": "",
          "type": "address"
        }
      ],
      "stateMutability": "view",
      "type": "function"
    },
    {
      "inputs": [],
      "name": "tDaoToken",
      "outputs": [
        {
          "internalType": "contract IProtocolToken",
          "name": "",
          "type": "address"
        }
      ],
      "stateMutability": "view",
      "type": "function"
    },
    {
      "inputs": [],
      "name": "timelock",
      "outputs": [
        {
          "internalType": "address",
          "name": "",
          "type": "address"
        }
      ],
      "stateMutability": "view",
      "type": "function"
    },
    {
      "inputs": [
        {
          "internalType": "contract IERC20",
          "name": "",
          "type": "address"
        }
      ],
      "name": "tokenToID",
      "outputs": [
        {
          "internalType": "uint16",
          "name": "",
          "type": "uint16"
        }
      ],
      "stateMutability": "view",
      "type": "function"
    },
    {
      "inputs": [],
      "name": "totalIncentivesMinted",
      "outputs": [
        {
          "internalType": "uint256",
          "name": "",
          "type": "uint256"
        }
      ],
      "stateMutability": "view",
      "type": "function"
    },
    {
      "inputs": [
        {
          "internalType": "address",
          "name": "",
          "type": "address"
        },
        {
          "internalType": "uint256",
          "name": "",
          "type": "uint256"
        }
      ],
      "name": "underlyingTokenVoteRewardCount",
      "outputs": [
        {
          "internalType": "uint256",
          "name": "count",
          "type": "uint256"
        },
        {
          "internalType": "bool",
          "name": "isSet",
          "type": "bool"
        }
      ],
      "stateMutability": "view",
      "type": "function"
    },
    {
      "inputs": [
        {
          "internalType": "uint64",
          "name": "positionNFTTokenID",
          "type": "uint64"
        }
      ],
      "name": "unlockTokens",
      "outputs": [],
      "stateMutability": "nonpayable",
      "type": "function"
    },
    {
      "inputs": [
        {
          "internalType": "uint16",
          "name": "",
          "type": "uint16"
        }
      ],
      "name": "virtualCount",
      "outputs": [
        {
          "internalType": "uint256",
          "name": "",
          "type": "uint256"
        }
      ],
      "stateMutability": "view",
      "type": "function"
    },
    {
      "inputs": [],
      "name": "votingRewardsSafe",
      "outputs": [
        {
          "internalType": "contract TDaoVotingRewardsSafe",
          "name": "",
          "type": "address"
        }
      ],
      "stateMutability": "view",
      "type": "function"
    }
  ],
  "bytecode": "0x6101006040526001600660006101000a81548167ffffffffffffffff021916908367ffffffffffffffff1602179055503480156200003d5760006000fd5b5060405162005d9238038062005d92833981810160405281019062000063919062000309565b5b5b620151805b60018167ffffffffffffffff16620000876200021b60201b60201c565b67ffffffffffffffff168115156200009b57fe5b040367ffffffffffffffff1660a08167ffffffffffffffff1660c01b815260080150508067ffffffffffffffff1660808167ffffffffffffffff1660c01b815260080150505b50600160006000508190909055505b33600e60006101000a81548173ffffffffffffffffffffffffffffffffffffffff021916908373ffffffffffffffffffffffffffffffffffffffff1602179055508173ffffffffffffffffffffffffffffffffffffffff1660c08173ffffffffffffffffffffffffffffffffffffffff1660601b8152601401505080600f60006101000a81548173ffffffffffffffffffffffffffffffffffffffff021916908373ffffffffffffffffffffffffffffffffffffffff160217905550604051620001ba90620002d1565b604051809103906000f080158015620001d8573d600060003e3d6000fd5b5073ffffffffffffffffffffffffffffffffffffffff1660e08173ffffffffffffffffffffffffffffffffffffffff1660601b815260140150505b505062000343565b600062000235426200023d60201b620031b417909060201c565b905080505b90565b60006801000000000000000082101515620002c3576040517f08c379a00000000000000000000000000000000000000000000000000000000081526004018080602001828103825260118152602001807f6d6f7265207468616e203634206269747300000000000000000000000000000081526020015060200191505060405180910390fd5b819050620002cc565b919050565b6104a980620058e9833901905662000342565b6000815190506001600160a01b03811681141515620003035760006000fd5b5b919050565b60006000604083850312156200031d578182fd5b6200032883620002e4565b91506200033860208401620002e4565b90505b9250929050565b5b60805160c01c60a05160c01c60c05160601c60e05160601c61554b6200039e600039806123e35280612bba5280612c90525080611c845280612f00525080612eb8528061351c525080612edc528061353d525061554b6000f3fe60806040523480156100115760006000fd5b50600436106102cd5760003560e01c806386fa81c71161017c578063c4e3a63b116100d9578063d6c2875d1161008d578063f851a44011610072578063f851a4401461078f578063fcb3fa90146107ad578063fd8067c3146107c9576102cd565b8063d6c2875d14610755578063f0f091c314610773576102cd565b8063d33219b4116100be578063d33219b4146106fd578063d48bfca71461071b578063d5f3948814610737576102cd565b8063c4e3a63b146106c1578063d2ca2115146106df576102cd565b8063ae42983311610130578063b9f8ea6d11610115578063b9f8ea6d1461067d578063be9a655514610699578063c2cc16d9146106a3576102cd565b8063ae42983314610643578063b551a00d14610661576102cd565b80639383ac44116101615780639383ac44146105d95780639645383d146105f55780639d8e090114610613576102cd565b806386fa81c71461058a57806387bbac1b146105bb576102cd565b806330bfb9bb1161022a578063640bb8df116101de578063797250e4116101c3578063797250e4146105205780637ad31c981461055057806382b5e8891461056e576102cd565b8063640bb8df146104d25780636c6a4f36146104f0576102cd565b8063371f3d451161020f578063371f3d45146104685780634cd7a31514610498578063526b8712146104b4576102cd565b806330bfb9bb1461041957806333daf5d414610437576102cd565b80630a889a8b1161028157806314706d851161026657806314706d85146103af578063184b9559146103cd57806327fb0474146103e9576102cd565b80630a889a8b146103635780630f85fc5a1461037f576102cd565b806307818200116102b257806307818200146102fb578063079329871461031757806307e54f1614610333576102cd565b8063020ac54a146102d357806306040618146102dd576102cd565b60006000fd5b6102db6107e7565b005b6102e5610894565b6040516102f2919061547d565b60405180910390f35b61031560048036038101906103109190614a83565b6108ac565b005b610331600480360381019061032c9190614b78565b610a8b565b005b61034d60048036038101906103489190614caa565b610c1c565b60405161035a919061541e565b60405180910390f35b61037d60048036038101906103789190614dea565b610c42565b005b61039960048036038101906103949190614dea565b611181565b6040516103a6919061539c565b60405180910390f35b6103b761145d565b6040516103c49190615434565b60405180910390f35b6103e760048036038101906103e29190614d33565b61151c565b005b61040360048036038101906103fe9190614cd1565b611745565b604051610410919061547d565b60405180910390f35b610421611bd3565b60405161042e919061547d565b60405180910390f35b610451600480360381019061044c9190614ad1565b611bed565b60405161045f929190615006565b60405180910390f35b610482600480360381019061047d9190614c5d565b611e82565b60405161048f9190614ff2565b60405180910390f35b6104b260048036038101906104ad9190614b78565b611ea7565b005b6104bc61210b565b6040516104c9919061541e565b60405180910390f35b6104da61211f565b6040516104e79190614eef565b60405180910390f35b61050a60048036038101906105059190614d83565b612145565b6040516105179190615401565b60405180910390f35b61053a60048036038101906105359190614d83565b612266565b6040516105479190615434565b60405180910390f35b610558612281565b6040516105659190615434565b60405180910390f35b61058860048036038101906105839190614caa565b61228a565b005b6105a4600480360381019061059f9190614b78565b61239a565b6040516105b2929190615446565b60405180910390f35b6105c36123e1565b6040516105d091906150a3565b60405180910390f35b6105f360048036038101906105ee9190614b78565b612405565b005b6105fd612672565b60405161060a919061507b565b60405180910390f35b61062d60048036038101906106289190614d83565b612698565b60405161063a919061502b565b60405180910390f35b61064b6126d0565b6040516106589190615053565b60405180910390f35b61067b60048036038101906106769190614dea565b6126f6565b005b61069760048036038101906106929190614ba9565b6128c5565b005b6106a1612d99565b005b6106ab612e90565b6040516106b89190614eef565b60405180910390f35b6106c9612eb6565b6040516106d6919061547d565b60405180910390f35b6106e7612eda565b6040516106f4919061547d565b60405180910390f35b610705612efe565b6040516107129190614eef565b60405180910390f35b61073560048036038101906107309190614caa565b612f22565b005b61073f612f73565b60405161074c9190614eef565b60405180910390f35b61075d612f99565b60405161076a919061547d565b60405180910390f35b61078d60048036038101906107889190614caa565b612fb3565b005b610797613045565b6040516107a49190614eef565b60405180910390f35b6107c760048036038101906107c29190614db2565b61306b565b005b6107d161319a565b6040516107de919061547d565b60405180910390f35b600260006000505414151515610868576040517f08c379a000000000000000000000000000000000000000000000000000000000815260040180806020018281038252601f8152602001807f5265656e7472616e637947756172643a207265656e7472616e742063616c6c0081526020015060200191505060405180910390fd5b6002600060005081909090555061088361324663ffffffff16565b5b600160006000508190909055505b565b60006108a461351863ffffffff16565b905080505b90565b6108e93073ffffffffffffffffffffffffffffffffffffffff163373ffffffffffffffffffffffffffffffffffffffff161461359163ffffffff16565b600073ffffffffffffffffffffffffffffffffffffffff16600160009054906101000a900473ffffffffffffffffffffffffffffffffffffffff1673ffffffffffffffffffffffffffffffffffffffff1614151561097c576040517f08c379a00000000000000000000000000000000000000000000000000000000081526004016109739061531e565b60405180910390fd5b61098b816135d763ffffffff16565b15156109cc576040517f08c379a00000000000000000000000000000000000000000000000000000000081526004016109c3906152df565b60405180910390fd5b80600160006101000a81548173ffffffffffffffffffffffffffffffffffffffff021916908373ffffffffffffffffffffffffffffffffffffffff160217905550610a1b61351863ffffffff16565b601060006101000a81548167ffffffffffffffff021916908367ffffffffffffffff1602179055508073ffffffffffffffffffffffffffffffffffffffff167f6765bf0cc4e3defc42bfa6ac394241a5f702ee760529c922874f15c4ad35edc760405160405180910390a25b5b50565b600260006000505414151515610b0c576040517f08c379a000000000000000000000000000000000000000000000000000000000815260040180806020018281038252601f8152602001807f5265656e7472616e637947756172643a207265656e7472616e742063616c6c0081526020015060200191505060405180910390fd5b60026000600050819090905550610b78600260009054906101000a900473ffffffffffffffffffffffffffffffffffffffff1673ffffffffffffffffffffffffffffffffffffffff163373ffffffffffffffffffffffffffffffffffffffff161461359163ffffffff16565b600360009054906101000a900473ffffffffffffffffffffffffffffffffffffffff1673ffffffffffffffffffffffffffffffffffffffff1663449a52f883836040518363ffffffff1660e01b8152600401610bd5929190614f8a565b600060405180830381600087803b158015610bf05760006000fd5b505af1158015610c05573d600060003e3d6000fd5b505050505b600160006000508190909055505b5050565b600a60005060205280600052604060002060009150909054906101000a900461ffff1681565b600260006000505414151515610cc3576040517f08c379a000000000000000000000000000000000000000000000000000000000815260040180806020018281038252601f8152602001807f5265656e7472616e637947756172643a207265656e7472616e742063616c6c0081526020015060200191505060405180910390fd5b600260006000508190909055506000339050610d92600460009054906101000a900473ffffffffffffffffffffffffffffffffffffffff1673ffffffffffffffffffffffffffffffffffffffff1663430c208183856040518363ffffffff1660e01b8152600401610d35929190614fb9565b60206040518083038186803b158015610d4e5760006000fd5b505afa158015610d63573d600060003e3d6000fd5b505050506040513d601f19601f82011682018060405250810190610d879190614c3a565b61359163ffffffff16565b6000610da3836135f163ffffffff16565b9050610db361351863ffffffff16565b67ffffffffffffffff16816080015167ffffffffffffffff1611151515610e0f576040517f08c379a0000000000000000000000000000000000000000000000000000000008152600401610e0690615222565b60405180910390fd5b610e5e610e2a82600001518360a001516138ba63ffffffff16565b600860005060008460c0015161ffff1661ffff168152602001908152602001600020600050546138e990919063ffffffff16565b600860005060008360c0015161ffff1661ffff168152602001908152602001600020600050819090905550600c60005060008467ffffffffffffffff1667ffffffffffffffff16815260200190815260200160002060006000820160006101000a8154906fffffffffffffffffffffffffffffffff02191690556000820160106101000a8154906fffffffffffffffffffffffffffffffff02191690556001820160006101000a81549076ffffffffffffffffffffffffffffffffffffffffffffff02191690556001820160176101000a81549061ffff02191690556001820160196101000a81549061ffff021916905560018201601b6101000a81549061ffff021916905560018201601d6101000a81549060ff021916905550506000600460009054906101000a900473ffffffffffffffffffffffffffffffffffffffff1673ffffffffffffffffffffffffffffffffffffffff16636352211e856040518263ffffffff1660e01b8152600401610fd79190615461565b60206040518083038186803b158015610ff05760006000fd5b505afa158015611005573d600060003e3d6000fd5b505050506040513d601f19601f820116820180604052508101906110299190614aaa565b9050600460009054906101000a900473ffffffffffffffffffffffffffffffffffffffff1673ffffffffffffffffffffffffffffffffffffffff16639dbead42856040518263ffffffff1660e01b8152600401611086919061547d565b600060405180830381600087803b1580156110a15760006000fd5b505af11580156110b6573d600060003e3d6000fd5b505050508273ffffffffffffffffffffffffffffffffffffffff168260c0015161ffff167fbf347141bee0ba9c777fbef9a14008be9f56f2b2f90f0e63cfed8a96a3b506c7846000015160405161110d9190615434565b60405180910390a361116c600b60005060008460c0015161ffff1661ffff16815260200190815260200160002060009054906101000a900473ffffffffffffffffffffffffffffffffffffffff1682846000015161397263ffffffff16565b5050505b600160006000508190909055505b50565b61118961495d565b6000600c60005060008467ffffffffffffffff1667ffffffffffffffff1681526020019081526020016000206000506040518060e00160405290816000820160009054906101000a90046fffffffffffffffffffffffffffffffff166fffffffffffffffffffffffffffffffff166fffffffffffffffffffffffffffffffff1681526020016000820160109054906101000a90046fffffffffffffffffffffffffffffffff166fffffffffffffffffffffffffffffffff166fffffffffffffffffffffffffffffffff1681526020016001820160009054906101000a900476ffffffffffffffffffffffffffffffffffffffffffffff1676ffffffffffffffffffffffffffffffffffffffffffffff1676ffffffffffffffffffffffffffffffffffffffffffffff1681526020016001820160179054906101000a900461ffff1661ffff1661ffff1681526020016001820160199054906101000a900461ffff1661ffff1661ffff16815260200160018201601b9054906101000a900461ffff1661ffff1661ffff16815260200160018201601d9054906101000a900460ff1660ff1660ff16815260200150509050600081600001516fffffffffffffffffffffffffffffffff16111515611393576040517f08c379a000000000000000000000000000000000000000000000000000000000815260040161138a90615261565b60405180910390fd5b6040518060e0016040528082600001516fffffffffffffffffffffffffffffffff16815260200182602001516fffffffffffffffffffffffffffffffff168152602001826040015176ffffffffffffffffffffffffffffffffffffffffffffff168152602001826060015161ffff1667ffffffffffffffff168152602001826080015161ffff1667ffffffffffffffff1681526020018260c0015160ff1667ffffffffffffffff1681526020018260a0015161ffff1681526020015091505061145856505b919050565b60006000600f60149054906101000a900467ffffffffffffffff1667ffffffffffffffff1614156114915760009050611519565b600073ffffffffffffffffffffffffffffffffffffffff16600160009054906101000a900473ffffffffffffffffffffffffffffffffffffffff1673ffffffffffffffffffffffffffffffffffffffff161415156115075769021e19e0c9bab240000069152d02c7e14af6800000039050611519565b69152d02c7e14af68000009050611519565b90565b61157b600e60009054906101000a900473ffffffffffffffffffffffffffffffffffffffff1673ffffffffffffffffffffffffffffffffffffffff163373ffffffffffffffffffffffffffffffffffffffff161461359163ffffffff16565b600e60006101000a81549073ffffffffffffffffffffffffffffffffffffffff021916905582600460006101000a81548173ffffffffffffffffffffffffffffffffffffffff021916908373ffffffffffffffffffffffffffffffffffffffff16021790555081600360006101000a81548173ffffffffffffffffffffffffffffffffffffffff021916908373ffffffffffffffffffffffffffffffffffffffff16021790555080600260006101000a81548173ffffffffffffffffffffffffffffffffffffffff021916908373ffffffffffffffffffffffffffffffffffffffff16021790555061167963a9059cbb60e01b613b7e63ffffffff16565b61168f6323b872dd60e01b613b7e63ffffffff16565b6116a563095ea7b360e01b613b7e63ffffffff16565b6116bb63449a52f860e01b613b7e63ffffffff16565b6116d16379cc679060e01b613b7e63ffffffff16565b6116e76342966c6860e01b613b7e63ffffffff16565b6116fd633950935160e01b613b7e63ffffffff16565b61171363a457c2d760e01b613b7e63ffffffff16565b611729633c4a25d060e01b613b7e63ffffffff16565b61173f635c19a95c60e01b613b7e63ffffffff16565b5b505050565b60006002600060005054141515156117c8576040517f08c379a000000000000000000000000000000000000000000000000000000000815260040180806020018281038252601f8152602001807f5265656e7472616e637947756172643a207265656e7472616e742063616c6c0081526020015060200191505060405180910390fd5b600260006000508190909055506000600a60005060008773ffffffffffffffffffffffffffffffffffffffff1673ffffffffffffffffffffffffffffffffffffffff16815260200190815260200160002060009054906101000a900461ffff16905060008161ffff16111515611873576040517f08c379a000000000000000000000000000000000000000000000000000000000815260040161186a90615126565b60405180910390fd5b6000851115156118b8576040517f08c379a00000000000000000000000000000000000000000000000000000000081526004016118af906151a4565b60405180910390fd5b8360ff16600667ffffffffffffffff16111580156118e45750603067ffffffffffffffff168460ff1611155b801561191357506000600667ffffffffffffffff168560ff1681151561190657fe5b0667ffffffffffffffff16145b1515611954576040517f08c379a000000000000000000000000000000000000000000000000000000000815260040161194b906150e7565b60405180910390fd5b61196261324663ffffffff16565b60006119738261214563ffffffff16565b90506119bb61198b878760ff166138ba63ffffffff16565b600860005060008561ffff1661ffff16815260200190815260200160002060005054613bef90919063ffffffff16565b600860005060008461ffff1661ffff168152602001908152602001600020600050819090905550600460009054906101000a900473ffffffffffffffffffffffffffffffffffffffff1673ffffffffffffffffffffffffffffffffffffffff1663755edd17856040518263ffffffff1660e01b8152600401611a3d9190614eef565b602060405180830381600087803b158015611a585760006000fd5b505af1158015611a6d573d600060003e3d6000fd5b505050506040513d601f19601f82011682018060405250810190611a919190614e11565b925082506000611aa561351863ffffffff16565b9050611b46846040518060e001604052808a815260200185602001518152602001856000015181526020018467ffffffffffffffff168152602001611b0e611af58b60ff16613c7863ffffffff16565b8667ffffffffffffffff16613cbb90919063ffffffff16565b67ffffffffffffffff1681526020018960ff1667ffffffffffffffff1681526020018661ffff16815260200150613d5863ffffffff16565b611b588833308a613ffe63ffffffff16565b8560ff168573ffffffffffffffffffffffffffffffffffffffff168461ffff167ffd5af8482cd27088275e2c1370259ff534cf1c987cf2105e24da196377e5c98d8a604051611ba79190615434565b60405180910390a4839350505050611bbd565050505b600160006000508190909055505b949350505050565b600f60149054906101000a900467ffffffffffffffff1681565b60006060600260006000505414151515611c72576040517f08c379a000000000000000000000000000000000000000000000000000000000815260040180806020018281038252601f8152602001807f5265656e7472616e637947756172643a207265656e7472616e742063616c6c0081526020015060200191505060405180910390fd5b60026000600050819090905550611cdc7f000000000000000000000000000000000000000000000000000000000000000073ffffffffffffffffffffffffffffffffffffffff163373ffffffffffffffffffffffffffffffffffffffff161461359163ffffffff16565b6000611ced8561422963ffffffff16565b9050600d6000506000827bffffffffffffffffffffffffffffffffffffffffffffffffffffffff19167bffffffffffffffffffffffffffffffffffffffffffffffffffffffff1916815260200190815260200160002060009054906101000a900460ff16151515611d93576040517f08c379a0000000000000000000000000000000000000000000000000000000008152600401611d8a906151e3565b60405180910390fd5b8573ffffffffffffffffffffffffffffffffffffffff168185604051602001611dbd929190614e85565b604051602081830303815290604052604051611dd99190614ed0565b6000604051808303816000865af19150503d8060008114611e16576040519150601f19603f3d011682016040523d82523d6000602084013e611e1b565b606091505b5080935081945050508282901515611e69576040517f08c379a0000000000000000000000000000000000000000000000000000000008152600401611e6091906150cb565b60405180910390fd5b50505b600160006000508190909055505b935093915050565b600d60005060205280600052604060002060009150909054906101000a900460ff1681565b611ee43073ffffffffffffffffffffffffffffffffffffffff163373ffffffffffffffffffffffffffffffffffffffff161461359163ffffffff16565b6032600360009054906101000a900473ffffffffffffffffffffffffffffffffffffffff1673ffffffffffffffffffffffffffffffffffffffff166318160ddd6040518163ffffffff1660e01b815260040160206040518083038186803b158015611f4f5760006000fd5b505afa158015611f64573d600060003e3d6000fd5b505050506040513d601f19601f82011682018060405250810190611f889190614dce565b811515611f9157fe5b048111151515611fd6576040517f08c379a0000000000000000000000000000000000000000000000000000000008152600401611fcd9061535d565b60405180910390fd5b611fe5826135d763ffffffff16565b1515612026576040517f08c379a000000000000000000000000000000000000000000000000000000000815260040161201d906152df565b60405180910390fd5b600360009054906101000a900473ffffffffffffffffffffffffffffffffffffffff1673ffffffffffffffffffffffffffffffffffffffff1663449a52f883836040518363ffffffff1660e01b8152600401612083929190614f8a565b600060405180830381600087803b15801561209e5760006000fd5b505af11580156120b3573d600060003e3d6000fd5b505050508173ffffffffffffffffffffffffffffffffffffffff167f15c222d39f56077620782fcc367cdd020fddac1f6129c77ec7ca1c5025659dda826040516120fd9190615434565b60405180910390a25b5b5050565b600960009054906101000a900461ffff1681565b600260009054906101000a900473ffffffffffffffffffffffffffffffffffffffff1681565b61214d6149bf565b6000600760005060008461ffff1661ffff1681526020019081526020016000206000506040518060400160405290816000820160009054906101000a90046fffffffffffffffffffffffffffffffff166fffffffffffffffffffffffffffffffff166fffffffffffffffffffffffffffffffff1681526020016000820160109054906101000a90046fffffffffffffffffffffffffffffffff166fffffffffffffffffffffffffffffffff166fffffffffffffffffffffffffffffffff16815260200150509050604051806040016040528082600001516fffffffffffffffffffffffffffffffff16815260200182602001516fffffffffffffffffffffffffffffffff1681526020015091505061226156505b919050565b60086000506020528060005260406000206000915090505481565b60116000505481565b6000600a60005060008373ffffffffffffffffffffffffffffffffffffffff1673ffffffffffffffffffffffffffffffffffffffff16815260200190815260200160002060009054906101000a900461ffff16905060008161ffff16111515612328576040517f08c379a000000000000000000000000000000000000000000000000000000000815260040161231f90615126565b60405180910390fd5b8173ffffffffffffffffffffffffffffffffffffffff16635c19a95c306040518263ffffffff1660e01b81526004016123619190614eef565b600060405180830381600087803b15801561237c5760006000fd5b505af1158015612391573d600060003e3d6000fd5b50505050505b50565b6005600050602052816000526040600020600050602052806000526040600020600091509150508060000160005054908060010160009054906101000a900460ff16905082565b7f000000000000000000000000000000000000000000000000000000000000000081565b600260006000505414151515612486576040517f08c379a000000000000000000000000000000000000000000000000000000000815260040180806020018281038252601f8152602001807f5265656e7472616e637947756172643a207265656e7472616e742063616c6c0081526020015060200191505060405180910390fd5b600260006000508190909055506124f2600160009054906101000a900473ffffffffffffffffffffffffffffffffffffffff1673ffffffffffffffffffffffffffffffffffffffff163373ffffffffffffffffffffffffffffffffffffffff161461359163ffffffff16565b600061250c82601160005054613bef90919063ffffffff16565b9050600061257969021e19e0c9bab2400000612561601060009054906101000a900467ffffffffffffffff16600161254861351863ffffffff16565b0167ffffffffffffffff1661423f90919063ffffffff16565b67ffffffffffffffff166142dc90919063ffffffff16565b90508082111515156125c0576040517f08c379a00000000000000000000000000000000000000000000000000000000081526004016125b7906152a0565b60405180910390fd5b816011600050819090905550600360009054906101000a900473ffffffffffffffffffffffffffffffffffffffff1673ffffffffffffffffffffffffffffffffffffffff1663449a52f885856040518363ffffffff1660e01b8152600401612629929190614f8a565b600060405180830381600087803b1580156126445760006000fd5b505af1158015612659573d600060003e3d6000fd5b5050505050505b600160006000508190909055505b5050565b600360009054906101000a900473ffffffffffffffffffffffffffffffffffffffff1681565b600b60005060205280600052604060002060009150909054906101000a900473ffffffffffffffffffffffffffffffffffffffff1681565b600460009054906101000a900473ffffffffffffffffffffffffffffffffffffffff1681565b600260006000505414151515612777576040517f08c379a000000000000000000000000000000000000000000000000000000000815260040180806020018281038252601f8152602001807f5265656e7472616e637947756172643a207265656e7472616e742063616c6c0081526020015060200191505060405180910390fd5b60026000600050819090905550612841600460009054906101000a900473ffffffffffffffffffffffffffffffffffffffff1673ffffffffffffffffffffffffffffffffffffffff1663430c208133846040518363ffffffff1660e01b81526004016127e4929190614f17565b60206040518083038186803b1580156127fd5760006000fd5b505afa158015612812573d600060003e3d6000fd5b505050506040513d601f19601f820116820180604052508101906128369190614c3a565b61359163ffffffff16565b6000612852826135f163ffffffff16565b90506128648282613d5863ffffffff16565b3373ffffffffffffffffffffffffffffffffffffffff168267ffffffffffffffff167f39c278b054e152450e4295bdf59d7edbaba35cb21d4248658680e61dac39eebb60405160405180910390a3505b600160006000508190909055505b50565b612924600260009054906101000a900473ffffffffffffffffffffffffffffffffffffffff1673ffffffffffffffffffffffffffffffffffffffff163373ffffffffffffffffffffffffffffffffffffffff161461359163ffffffff16565b8373ffffffffffffffffffffffffffffffffffffffff16637e90f9ab6040518163ffffffff1660e01b815260040160206040518083038186803b15801561296b5760006000fd5b505afa92505050801561299c57506040513d601f19601f820116820180604052508101906129999190614aaa565b60015b6129a7575b5b612d92565b600560005060008673ffffffffffffffffffffffffffffffffffffffff1673ffffffffffffffffffffffffffffffffffffffff168152602001908152602001600020600050600085815260200190815260200160002060005060010160009054906101000a900460ff161515612c8e5760008173ffffffffffffffffffffffffffffffffffffffff166370a08231306040518263ffffffff1660e01b8152600401612a529190614eef565b60206040518083038186803b158015612a6b5760006000fd5b505afa158015612a80573d600060003e3d6000fd5b505050506040513d601f19601f82011682018060405250810190612aa49190614dce565b90508573ffffffffffffffffffffffffffffffffffffffff1663b525867f866040518263ffffffff1660e01b8152600401612adf9190615434565b600060405180830381600087803b158015612afa5760006000fd5b505af1158015612b0f573d600060003e3d6000fd5b505050506000612bb2828473ffffffffffffffffffffffffffffffffffffffff166370a08231306040518263ffffffff1660e01b8152600401612b529190614eef565b60206040518083038186803b158015612b6b5760006000fd5b505afa158015612b80573d600060003e3d6000fd5b505050506040513d601f19601f82011682018060405250810190612ba49190614dce565b6138e990919063ffffffff16565b9050612be5837f00000000000000000000000000000000000000000000000000000000000000008361397263ffffffff16565b604051806040016040528082815260200160011515815260200150600560005060008973ffffffffffffffffffffffffffffffffffffffff1673ffffffffffffffffffffffffffffffffffffffff168152602001908152602001600020600050600088815260200190815260200160002060005060008201518160000160005090905560208201518160010160006101000a81548160ff02191690831515021790555090505050505b7f000000000000000000000000000000000000000000000000000000000000000073ffffffffffffffffffffffffffffffffffffffff1663d1660f998285612d3e86600560005060008c73ffffffffffffffffffffffffffffffffffffffff1673ffffffffffffffffffffffffffffffffffffffff16815260200190815260200160002060005060008b81526020019081526020016000206000506000016000505461437a90919063ffffffff16565b6040518463ffffffff1660e01b8152600401612d5c93929190614f50565b600060405180830381600087803b158015612d775760006000fd5b505af1158015612d8c573d600060003e3d6000fd5b50505050505b5b50505050565b612df8600f60009054906101000a900473ffffffffffffffffffffffffffffffffffffffff1673ffffffffffffffffffffffffffffffffffffffff163373ffffffffffffffffffffffffffffffffffffffff161461359163ffffffff16565b600f60006101000a81549073ffffffffffffffffffffffffffffffffffffffff0219169055612e2b61324663ffffffff16565b612e3961351863ffffffff16565b600f60146101000a81548167ffffffffffffffff021916908367ffffffffffffffff1602179055507fe0c110dd4938fc8e228e75a489735745046395ad536dd80c35559debe653714760405160405180910390a15b565b600160009054906101000a900473ffffffffffffffffffffffffffffffffffffffff1681565b7f000000000000000000000000000000000000000000000000000000000000000081565b7f000000000000000000000000000000000000000000000000000000000000000081565b7f000000000000000000000000000000000000000000000000000000000000000081565b612f5f3073ffffffffffffffffffffffffffffffffffffffff163373ffffffffffffffffffffffffffffffffffffffff161461359163ffffffff16565b612f6e816143a063ffffffff16565b5b5b50565b600e60009054906101000a900473ffffffffffffffffffffffffffffffffffffffff1681565b600660009054906101000a900467ffffffffffffffff1681565b613032600f60009054906101000a900473ffffffffffffffffffffffffffffffffffffffff1673ffffffffffffffffffffffffffffffffffffffff163373ffffffffffffffffffffffffffffffffffffffff1614801561302757506000600960009054906101000a900461ffff1661ffff16145b61359163ffffffff16565b613041816143a063ffffffff16565b5b50565b600f60009054906101000a900473ffffffffffffffffffffffffffffffffffffffff1681565b600060006000600260009054906101000a900473ffffffffffffffffffffffffffffffffffffffff1673ffffffffffffffffffffffffffffffffffffffff166383b0ce15856040518263ffffffff1660e01b81526004016130cc9190615434565b60606040518083038186803b1580156130e55760006000fd5b505afa1580156130fa573d600060003e3d6000fd5b505050506040513d601f19601f8201168201806040525081019061311e9190614bf9565b9250925092508273ffffffffffffffffffffffffffffffffffffffff166315373e3d83836040518363ffffffff1660e01b815260040161315f929190615446565b600060405180830381600087803b15801561317a5760006000fd5b505af115801561318f573d600060003e3d6000fd5b505050505050505b50565b601060009054906101000a900467ffffffffffffffff1681565b60006801000000000000000082101515613239576040517f08c379a00000000000000000000000000000000000000000000000000000000081526004018080602001828103825260118152602001807f6d6f7265207468616e203634206269747300000000000000000000000000000081526020015060200191505060405180910390fd5b819050613241565b919050565b600061325661351863ffffffff16565b9050600660009054906101000a900467ffffffffffffffff1667ffffffffffffffff168167ffffffffffffffff161115156132915750613516565b6000600660009054906101000a900467ffffffffffffffff16820390506000600960009054906101000a900461ffff1661ffff1690506000816132f48467ffffffffffffffff166132e661145d63ffffffff16565b6142dc90919063ffffffff16565b8115156132fd57fe5b0490506133086149bf565b6000600190505b838161ffff161115156134a45761332b8161214563ffffffff16565b91508150604051806040016040528061339e61339161337e8967ffffffffffffffff16600860005060008861ffff1661ffff168152602001908152602001600020600050546142dc90919063ffffffff16565b8660000151613bef90919063ffffffff16565b61451f909063ffffffff16565b6fffffffffffffffffffffffffffffffff1681526020016133dc6133cf868660200151613bef90919063ffffffff16565b61451f909063ffffffff16565b6fffffffffffffffffffffffffffffffff16815260200150600760005060008361ffff1661ffff16815260200190815260200160002060005060008201518160000160006101000a8154816fffffffffffffffffffffffffffffffff02191690836fffffffffffffffffffffffffffffffff16021790555060208201518160000160106101000a8154816fffffffffffffffffffffffffffffffff02191690836fffffffffffffffffffffffffffffffff1602179055509050505b808060010191505061330f565b5084600660006101000a81548167ffffffffffffffff021916908367ffffffffffffffff1602179055508467ffffffffffffffff167f5df8d820031efa286b254435a169e0eda922fa20c466be6471c6deaa51dc116585604051613508919061547d565b60405180910390a250505050505b565b60007f00000000000000000000000000000000000000000000000000000000000000007f000000000000000000000000000000000000000000000000000000000000000067ffffffffffffffff166135746145b963ffffffff16565b67ffffffffffffffff1681151561358757fe5b0403905080505b90565b8015156135d3576040517f08c379a00000000000000000000000000000000000000000000000000000000081526004016135ca90615165565b60405180910390fd5b5b50565b60006000823b9050600081119150506135ec56505b919050565b6135f961495d565b6136088261118163ffffffff16565b9050805061361a61324663ffffffff16565b600660009054906101000a900467ffffffffffffffff1667ffffffffffffffff16816060015167ffffffffffffffff16101515613659578090506138b5565b600061366e8260c0015161214563ffffffff16565b905060008260600151600660009054906101000a900467ffffffffffffffff160367ffffffffffffffff166136b4846040015184600001516138e990919063ffffffff16565b8115156136bd57fe5b04905060006137086136e0856020015185602001516138e990919063ffffffff16565b836136f987600001518860a001516138ba63ffffffff16565b6145d49092919063ffffffff16565b9050600081111561385157600360009054906101000a900473ffffffffffffffffffffffffffffffffffffffff1673ffffffffffffffffffffffffffffffffffffffff1663449a52f8600460009054906101000a900473ffffffffffffffffffffffffffffffffffffffff1673ffffffffffffffffffffffffffffffffffffffff16636352211e886040518263ffffffff1660e01b81526004016137ac9190615461565b60206040518083038186803b1580156137c55760006000fd5b505afa1580156137da573d600060003e3d6000fd5b505050506040513d601f19601f820116820180604052508101906137fe9190614aaa565b836040518363ffffffff1660e01b815260040161381c929190614f8a565b600060405180830381600087803b1580156138375760006000fd5b505af115801561384c573d600060003e3d6000fd5b505050505b826020015184602001909081815260200150508260000151846040019090818152602001505061388561351863ffffffff16565b846060019067ffffffffffffffff16908167ffffffffffffffff16815260200150508393505050506138b5565050505b919050565b60006138dc8267ffffffffffffffff16600c856145d49092919063ffffffff16565b90506138e3565b92915050565b6000828284039150811115151561396b576040517f08c379a000000000000000000000000000000000000000000000000000000000815260040180806020018281038252600d8152602001807f7375622d756e646572666c6f770000000000000000000000000000000000000081526020015060200191505060405180910390fd5b5b92915050565b600060008473ffffffffffffffffffffffffffffffffffffffff1663a9059cbb60e01b8585604051602401808373ffffffffffffffffffffffffffffffffffffffff16815260200182815260200192505050604051602081830303815290604052907bffffffffffffffffffffffffffffffffffffffffffffffffffffffff19166020820180517bffffffffffffffffffffffffffffffffffffffffffffffffffffffff83818316178352505050506040518082805190602001908083835b602083101515613a5757805182525b602082019150602081019050602083039250613a31565b6001836020036101000a0380198251168184511680821785525050505050509050019150506000604051808303816000865af19150503d8060008114613ab9576040519150601f19603f3d011682016040523d82523d6000602084013e613abe565b606091505b5091509150818015613aff5750600081511480613afe5750808060200190516020811015613aec5760006000fd5b81019080805190602001909291905050505b5b1515613b76576040517f08c379a00000000000000000000000000000000000000000000000000000000081526004018080602001828103825260028152602001807f535400000000000000000000000000000000000000000000000000000000000081526020015060200191505060405180910390fd5b50505b505050565b6001600d6000506000837bffffffffffffffffffffffffffffffffffffffffffffffffffffffff19167bffffffffffffffffffffffffffffffffffffffffffffffffffffffff1916815260200190815260200160002060006101000a81548160ff0219169083151502179055505b50565b60008282840191508110151515613c71576040517f08c379a000000000000000000000000000000000000000000000000000000000815260040180806020018281038252600c8152602001807f6164642d6f766572666c6f77000000000000000000000000000000000000000081526020015060200191505060405180910390fd5b5b92915050565b6000600c613c9b61016d8467ffffffffffffffff166146d590919063ffffffff16565b67ffffffffffffffff16811515613cae57fe5b049050613cb6565b919050565b60008267ffffffffffffffff1682840191508167ffffffffffffffff1610151515613d51576040517f08c379a000000000000000000000000000000000000000000000000000000000815260040180806020018281038252600c8152602001807f6164642d6f766572666c6f77000000000000000000000000000000000000000081526020015060200191505060405180910390fd5b5b92915050565b6040518060e00160405280613d78836000015161451f909063ffffffff16565b6fffffffffffffffffffffffffffffffff168152602001613da4836020015161451f909063ffffffff16565b6fffffffffffffffffffffffffffffffff168152602001613dd083604001516147a5909063ffffffff16565b76ffffffffffffffffffffffffffffffffffffffffffffff168152602001613e0d836060015167ffffffffffffffff16614846909063ffffffff16565b61ffff168152602001613e35836080015167ffffffffffffffff16614846909063ffffffff16565b61ffff1681526020018260c0015161ffff168152602001613e6b8360a0015167ffffffffffffffff166148d2909063ffffffff16565b60ff16815260200150600c60005060008467ffffffffffffffff1667ffffffffffffffff16815260200190815260200160002060005060008201518160000160006101000a8154816fffffffffffffffffffffffffffffffff02191690836fffffffffffffffffffffffffffffffff16021790555060208201518160000160106101000a8154816fffffffffffffffffffffffffffffffff02191690836fffffffffffffffffffffffffffffffff16021790555060408201518160010160006101000a81548176ffffffffffffffffffffffffffffffffffffffffffffff021916908376ffffffffffffffffffffffffffffffffffffffffffffff16021790555060608201518160010160176101000a81548161ffff021916908361ffff16021790555060808201518160010160196101000a81548161ffff021916908361ffff16021790555060a082015181600101601b6101000a81548161ffff021916908361ffff16021790555060c082015181600101601d6101000a81548160ff021916908360ff1602179055509050505b5050565b600060008573ffffffffffffffffffffffffffffffffffffffff166323b872dd60e01b868686604051602401808473ffffffffffffffffffffffffffffffffffffffff1681526020018373ffffffffffffffffffffffffffffffffffffffff1681526020018281526020019350505050604051602081830303815290604052907bffffffffffffffffffffffffffffffffffffffffffffffffffffffff19166020820180517bffffffffffffffffffffffffffffffffffffffffffffffffffffffff83818316178352505050506040518082805190602001908083835b60208310151561410157805182525b6020820191506020810190506020830392506140db565b6001836020036101000a0380198251168184511680821785525050505050509050019150506000604051808303816000865af19150503d8060008114614163576040519150601f19603f3d011682016040523d82523d6000602084013e614168565b606091505b50915091508180156141a957506000815114806141a857508080602001905160208110156141965760006000fd5b81019080805190602001909291905050505b5b1515614220576040517f08c379a00000000000000000000000000000000000000000000000000000000081526004018080602001828103825260038152602001807f535446000000000000000000000000000000000000000000000000000000000081526020015060200191505060405180910390fd5b50505b50505050565b60008180519060200120905061423a565b919050565b60008267ffffffffffffffff1682840391508167ffffffffffffffff16111515156142d5576040517f08c379a000000000000000000000000000000000000000000000000000000000815260040180806020018281038252600d8152602001807f7375622d756e646572666c6f770000000000000000000000000000000000000081526020015060200191505060405180910390fd5b5b92915050565b600060008214806142fc575082828385029250828115156142f957fe5b04145b1515614373576040517f08c379a000000000000000000000000000000000000000000000000000000000815260040180806020018281038252600c8152602001807f6d756c2d6f766572666c6f77000000000000000000000000000000000000000081526020015060200191505060405180910390fd5b5b92915050565b60006143958383670de0b6b3a76400006145d463ffffffff16565b905080505b92915050565b61ffff61ffff16600960009054906101000a900461ffff1661ffff161015156143c95760006000fd5b6009600081819054906101000a900461ffff168092919060010191906101000a81548161ffff021916908361ffff1602179055505080600b6000506000600960009054906101000a900461ffff1661ffff1661ffff16815260200190815260200160002060006101000a81548173ffffffffffffffffffffffffffffffffffffffff021916908373ffffffffffffffffffffffffffffffffffffffff160217905550600960009054906101000a900461ffff16600a60005060008373ffffffffffffffffffffffffffffffffffffffff1673ffffffffffffffffffffffffffffffffffffffff16815260200190815260200160002060006101000a81548161ffff021916908361ffff1602179055508073ffffffffffffffffffffffffffffffffffffffff167f784c8f4dbf0ffedd6e72c76501c545a70f8b203b30a26ce542bf92ba87c248a460405160405180910390a25b50565b6000700100000000000000000000000000000000821015156145ac576040517f08c379a00000000000000000000000000000000000000000000000000000000081526004018080602001828103825260128152602001807f6d6f7265207468616e203132382062697473000000000000000000000000000081526020015060200191505060405180910390fd5b8190506145b4565b919050565b60006145cc426131b4909063ffffffff16565b905080505b90565b6000600060006000198587098587029250828110838203039150506000811415614617576000841115156146085760006000fd5b838204925082925050506146ce565b80841115156146265760006000fd5b60008486880990508281118203915080830392506000858660000316905080860495508084049350600181826000030401905080830284179350835060006002876003021890508087026002038102905080508087026002038102905080508087026002038102905080508087026002038102905080508087026002038102905080508087026002038102905080508085029550855085955050505050506146ce5650505050505b9392505050565b600060008267ffffffffffffffff16148061472757508267ffffffffffffffff168267ffffffffffffffff1683850292508267ffffffffffffffff1681151561471a57fe5b0467ffffffffffffffff16145b151561479e576040517f08c379a000000000000000000000000000000000000000000000000000000000815260040180806020018281038252600c8152602001807f6d756c2d6f766572666c6f77000000000000000000000000000000000000000081526020015060200191505060405180910390fd5b5b92915050565b60007701000000000000000000000000000000000000000000000082101515614839576040517f08c379a00000000000000000000000000000000000000000000000000000000081526004018080602001828103825260128152602001807f6d6f7265207468616e203138342062697473000000000000000000000000000081526020015060200191505060405180910390fd5b819050614841565b919050565b600062010000821015156148c5576040517f08c379a00000000000000000000000000000000000000000000000000000000081526004018080602001828103825260118152602001807f6d6f7265207468616e203136206269747300000000000000000000000000000081526020015060200191505060405180910390fd5b8190506148cd565b919050565b600061010082101515614950576040517f08c379a00000000000000000000000000000000000000000000000000000000081526004018080602001828103825260108152602001807f6d6f7265207468616e203820626974730000000000000000000000000000000081526020015060200191505060405180910390fd5b819050614958565b919050565b6040518060e00160405280600081526020016000815260200160008152602001600067ffffffffffffffff168152602001600067ffffffffffffffff168152602001600067ffffffffffffffff168152602001600061ffff1681526020015090565b60405180604001604052806000815260200160008152602001509056615514565b600067ffffffffffffffff808411156149f557fe5b60405160207fffffffffffffffffffffffffffffffffffffffffffffffffffffffffffffffe0601f8701168201018181108382111715614a3157fe5b8060405250809250848152858585011115614a4c5760006000fd5b8484602083013760006020868301015250505b9392505050565b60008151905080151581141515614a7d5760006000fd5b5b919050565b600060208284031215614a94578081fd5b8135614a9f816154ce565b809150505b92915050565b600060208284031215614abb578081fd5b8151614ac6816154ce565b809150505b92915050565b60006000600060608486031215614ae6578182fd5b8335614af1816154ce565b80935050602084013567ffffffffffffffff80821115614b0f578384fd5b818601915086601f8301121515614b24578384fd5b614b33878335602085016149e0565b93506040860135915080821115614b48578283fd5b50808501905085601f8201121515614b5e578182fd5b614b6d868235602084016149e0565b9150505b9250925092565b6000600060408385031215614b8b578182fd5b8235614b96816154ce565b80925050602083013590505b9250929050565b600060006000600060808587031215614bc0578081fd5b8435614bcb816154ce565b80945050602085013592506040850135614be4816154ce565b80925050606085013590505b92959194509250565b60006000600060608486031215614c0e578283fd5b8351614c19816154ce565b8093505060208401519150614c3060408501614a66565b90505b9250925092565b600060208284031215614c4b578081fd5b614c5482614a66565b90505b92915050565b600060208284031215614c6e578081fd5b81357fffffffff00000000000000000000000000000000000000000000000000000000811681141515614c9f578182fd5b809150505b92915050565b600060208284031215614cbb578081fd5b8135614cc6816154ce565b809150505b92915050565b600060006000600060808587031215614ce8578182fd5b8435614cf3816154ce565b8094505060208501359250604085013560ff811681141515614d13578283fd5b809250506060850135614d25816154ce565b809150505b92959194509250565b60006000600060608486031215614d48578081fd5b8335614d53816154ce565b809350506020840135614d65816154ce565b809250506040840135614d77816154ce565b809150505b9250925092565b600060208284031215614d94578081fd5b813561ffff811681141515614da7578182fd5b809150505b92915050565b600060208284031215614dc3578081fd5b813590505b92915050565b600060208284031215614ddf578081fd5b815190505b92915050565b600060208284031215614dfb578081fd5b8135614e06816154f7565b809150505b92915050565b600060208284031215614e22578081fd5b8151614e2d816154f7565b809150505b92915050565b60008151808452614e50816020860160208601615499565b60207fffffffffffffffffffffffffffffffffffffffffffffffffffffffffffffffe0601f8301168501019150505b92915050565b60007fffffffff00000000000000000000000000000000000000000000000000000000841682528251614ebf816004850160208701615499565b6004818401019150505b9392505050565b60008251614ee2818460208701615499565b8083019150505b92915050565b600060208201905073ffffffffffffffffffffffffffffffffffffffff831682525b92915050565b600060408201905073ffffffffffffffffffffffffffffffffffffffff8416825267ffffffffffffffff831660208301525b9392505050565b600060608201905073ffffffffffffffffffffffffffffffffffffffff80861683528085166020840152508260408301525b949350505050565b600060408201905073ffffffffffffffffffffffffffffffffffffffff841682528260208301525b9392505050565b600060408201905073ffffffffffffffffffffffffffffffffffffffff8416825267ffffffffffffffff831660208301525b9392505050565b600060208201905082151582525b92915050565b60008315158252604060208301526150216040830184614e38565b90505b9392505050565b600060208201905073ffffffffffffffffffffffffffffffffffffffff831682525b92915050565b600060208201905073ffffffffffffffffffffffffffffffffffffffff831682525b92915050565b600060208201905073ffffffffffffffffffffffffffffffffffffffff831682525b92915050565b600060208201905073ffffffffffffffffffffffffffffffffffffffff831682525b92915050565b6000602082526150de6020830184614e38565b90505b92915050565b600060208252601560208301527f496e76616c6964206c6f636b206475726174696f6e000000000000000000000060408301526060820190505b919050565b600060208252601160208301527f556e737570706f7274656420746f6b656e00000000000000000000000000000060408301526060820190505b919050565b600060208252600e60208301527f4e6f7420417574686f72697a656400000000000000000000000000000000000060408301526060820190505b919050565b600060208252600460208301527f4e6f6f700000000000000000000000000000000000000000000000000000000060408301526060820190505b919050565b600060208252601260208301527f416374696f6e20626c61636b6c6973746564000000000000000000000000000060408301526060820190505b919050565b600060208252600c60208301527f5374696c6c206c6f636b6564000000000000000000000000000000000000000060408301526060820190505b919050565b600060208252600c60208301527f506f736974696f6e20444e45000000000000000000000000000000000000000060408301526060820190505b919050565b600060208252601260208301527f416c6c6f746d656e74206578636565646564000000000000000000000000000060408301526060820190505b919050565b600060208252600e60208301527f4e6f74206120636f6e747261637400000000000000000000000000000000000060408301526060820190505b919050565b600060208252601460208301527f436f6e747261637420616c72656164792073657400000000000000000000000060408301526060820190505b919050565b600060208252601660208301527f4d6f7265207468616e203225206f6620737570706c790000000000000000000060408301526060820190505b919050565b600060e082019050825182526020830151602083015260408301516040830152606083015167ffffffffffffffff80821660608501528060808601511660808501528060a08601511660a0850152505061ffff60c08401511660c08301525b92915050565b600060408201905082518252602083015160208301525b92915050565b600060208201905061ffff831682525b92915050565b60006020820190508282525b92915050565b600060408201905083825282151560208301525b9392505050565b600060208201905067ffffffffffffffff831682525b92915050565b600060208201905067ffffffffffffffff831682525b92915050565b60005b838110156154b85780820151818401525b60208101905061549c565b838111156154c7576000848401525b505b505050565b73ffffffffffffffffffffffffffffffffffffffff8116811415156154f35760006000fd5b5b50565b67ffffffffffffffff8116811415156155105760006000fd5b5b50565bfea264697066735822122091674dc21c891bfd868861c1ab3e4c19adebe331cd2ed162d46903783f04d59364736f6c6343000706003360a06040523480156100115760006000fd5b505b3373ffffffffffffffffffffffffffffffffffffffff1660808173ffffffffffffffffffffffffffffffffffffffff1660601b815260140150505b610053565b60805160601c6104356100746000398060e652806101d152506104356000f3fe60806040523480156100115760006000fd5b506004361061003b5760003560e01c8063d1660f9914610041578063de9375f2146100b05761003b565b60006000fd5b6100ae600480360360608110156100585760006000fd5b81019080803573ffffffffffffffffffffffffffffffffffffffff169060200190929190803573ffffffffffffffffffffffffffffffffffffffff169060200190929190803590602001909291905050506100e4565b005b6100b86101cf565b604051808273ffffffffffffffffffffffffffffffffffffffff16815260200191505060405180910390f35b7f000000000000000000000000000000000000000000000000000000000000000073ffffffffffffffffffffffffffffffffffffffff163373ffffffffffffffffffffffffffffffffffffffff161415156101aa576040517f08c379a000000000000000000000000000000000000000000000000000000000815260040180806020018281038252600e8152602001807f4e6f7420417574686f72697a656400000000000000000000000000000000000081526020015060200191505060405180910390fd5b60008114156101b8576101ca565b6101c98383836101f363ffffffff16565b5b505050565b7f000000000000000000000000000000000000000000000000000000000000000081565b600060008473ffffffffffffffffffffffffffffffffffffffff1663a9059cbb60e01b8585604051602401808373ffffffffffffffffffffffffffffffffffffffff16815260200182815260200192505050604051602081830303815290604052907bffffffffffffffffffffffffffffffffffffffffffffffffffffffff19166020820180517bffffffffffffffffffffffffffffffffffffffffffffffffffffffff83818316178352505050506040518082805190602001908083835b6020831015156102d857805182525b6020820191506020810190506020830392506102b2565b6001836020036101000a0380198251168184511680821785525050505050509050019150506000604051808303816000865af19150503d806000811461033a576040519150601f19603f3d011682016040523d82523d6000602084013e61033f565b606091505b5091509150818015610380575060008151148061037f575080806020019051602081101561036d5760006000fd5b81019080805190602001909291905050505b5b15156103f7576040517f08c379a00000000000000000000000000000000000000000000000000000000081526004018080602001828103825260028152602001807f535400000000000000000000000000000000000000000000000000000000000081526020015060200191505060405180910390fd5b50505b50505056fea2646970667358221220a09fa674e24bee1d9e1df7bc0570046e4c432e836610f7a105a97cba2ac2d0cf64736f6c63430007060033",
  "linkReferences": {},
  "deployedLinkReferences": {}
}