{
  "_format": "hh-sol-artifact-1",
  "contractName": "TDao",
  "sourceName": "contracts/core/TDao/TDao.sol",
  "abi": [
    {
      "inputs": [
        {
          "internalType": "address",
          "name": "_guardian",
          "type": "address"
        }
      ],
      "stateMutability": "nonpayable",
      "type": "constructor"
    },
    {
      "anonymous": false,
      "inputs": [
        {
          "indexed": true,
          "internalType": "address",
          "name": "token",
          "type": "address"
        },
        {
          "indexed": false,
          "internalType": "uint256",
          "name": "count",
          "type": "uint256"
        }
      ],
      "name": "IncentiveMinted",
      "type": "event"
    },
    {
      "anonymous": false,
      "inputs": [
        {
          "indexed": true,
          "internalType": "uint64",
          "name": "currentPeriod",
          "type": "uint64"
        },
        {
          "indexed": false,
          "internalType": "uint64",
          "name": "periods",
          "type": "uint64"
        }
      ],
      "name": "InflationAccrued",
      "type": "event"
    },
    {
      "anonymous": false,
      "inputs": [
        {
          "indexed": true,
          "internalType": "address",
          "name": "_contract",
          "type": "address"
        }
      ],
      "name": "LiquidationIncentiveContractSet",
      "type": "event"
    },
    {
      "anonymous": false,
      "inputs": [
        {
          "indexed": true,
          "internalType": "uint64",
          "name": "positionNFTTokenID",
          "type": "uint64"
        },
        {
          "indexed": true,
          "internalType": "address",
          "name": "owner",
          "type": "address"
        }
      ],
      "name": "RewardsClaimed",
      "type": "event"
    },
    {
      "anonymous": false,
      "inputs": [],
      "name": "TDaoStarted",
      "type": "event"
    },
    {
      "anonymous": false,
      "inputs": [
        {
          "indexed": true,
          "internalType": "address",
          "name": "token",
          "type": "address"
        }
      ],
      "name": "TokenAdded",
      "type": "event"
    },
    {
      "anonymous": false,
      "inputs": [
        {
          "indexed": true,
          "internalType": "uint16",
          "name": "tokenID",
          "type": "uint16"
        },
        {
          "indexed": true,
          "internalType": "address",
          "name": "initialOwner",
          "type": "address"
        },
        {
          "indexed": true,
          "internalType": "uint8",
          "name": "lockDurationMonths",
          "type": "uint8"
        },
        {
          "indexed": false,
          "internalType": "uint256",
          "name": "count",
          "type": "uint256"
        }
      ],
      "name": "TokensLocked",
      "type": "event"
    },
    {
      "anonymous": false,
      "inputs": [
        {
          "indexed": true,
          "internalType": "uint16",
          "name": "tokenID",
          "type": "uint16"
        },
        {
          "indexed": true,
          "internalType": "address",
          "name": "owner",
          "type": "address"
        },
        {
          "indexed": false,
          "internalType": "uint256",
          "name": "count",
          "type": "uint256"
        }
      ],
      "name": "TokensUnlocked",
      "type": "event"
    },
    {
      "inputs": [],
      "name": "accrueInflation",
      "outputs": [],
      "stateMutability": "nonpayable",
      "type": "function"
    },
    {
      "inputs": [
        {
          "internalType": "contract IERC20",
          "name": "token",
          "type": "address"
        }
      ],
      "name": "addToken",
      "outputs": [],
      "stateMutability": "nonpayable",
      "type": "function"
    },
    {
      "inputs": [
        {
          "internalType": "bytes4",
          "name": "",
          "type": "bytes4"
        }
      ],
      "name": "blacklistedAction",
      "outputs": [
        {
          "internalType": "bool",
          "name": "",
          "type": "bool"
        }
      ],
      "stateMutability": "view",
      "type": "function"
    },
    {
      "inputs": [],
      "name": "countUnderlyingProtocolTokens",
      "outputs": [
        {
          "internalType": "uint16",
          "name": "",
          "type": "uint16"
        }
      ],
      "stateMutability": "view",
      "type": "function"
    },
    {
      "inputs": [],
      "name": "currentPeriod",
      "outputs": [
        {
          "internalType": "uint64",
          "name": "period",
          "type": "uint64"
        }
      ],
      "stateMutability": "view",
      "type": "function"
    },
    {
      "inputs": [],
      "name": "dailyProtocolTDaoIncentiveCount",
      "outputs": [
        {
          "internalType": "uint256",
          "name": "",
          "type": "uint256"
        }
      ],
      "stateMutability": "view",
      "type": "function"
    },
    {
      "inputs": [],
      "name": "deployer",
      "outputs": [
        {
          "internalType": "address",
          "name": "",
          "type": "address"
        }
      ],
      "stateMutability": "view",
      "type": "function"
    },
    {
      "inputs": [
        {
          "internalType": "address",
          "name": "target",
          "type": "address"
        },
        {
          "internalType": "string",
          "name": "signature",
          "type": "string"
        },
        {
          "internalType": "bytes",
          "name": "data",
          "type": "bytes"
        }
      ],
      "name": "execute",
      "outputs": [
        {
          "internalType": "bool",
          "name": "success",
          "type": "bool"
        },
        {
          "internalType": "bytes",
          "name": "returnData",
          "type": "bytes"
        }
      ],
      "stateMutability": "nonpayable",
      "type": "function"
    },
    {
      "inputs": [
        {
          "internalType": "uint256",
          "name": "metaProposalID",
          "type": "uint256"
        }
      ],
      "name": "executeMetaProposalVote",
      "outputs": [],
      "stateMutability": "nonpayable",
      "type": "function"
    },
    {
      "inputs": [],
      "name": "firstPeriod",
      "outputs": [
        {
          "internalType": "uint64",
          "name": "",
          "type": "uint64"
        }
      ],
      "stateMutability": "view",
      "type": "function"
    },
    {
      "inputs": [
        {
          "internalType": "uint64",
          "name": "positionNFTTokenID",
          "type": "uint64"
        }
      ],
      "name": "getPosition",
      "outputs": [
        {
          "components": [
            {
              "internalType": "uint256",
              "name": "count",
              "type": "uint256"
            },
            {
              "internalType": "uint256",
              "name": "startTotalRewards",
              "type": "uint256"
            },
            {
              "internalType": "uint256",
              "name": "startCumulativeVirtualCount",
              "type": "uint256"
            },
            {
              "internalType": "uint64",
              "name": "lastPeriodUpdated",
              "type": "uint64"
            },
            {
              "internalType": "uint64",
              "name": "endPeriod",
              "type": "uint64"
            },
            {
              "internalType": "uint64",
              "name": "durationMonths",
              "type": "uint64"
            },
            {
              "internalType": "uint16",
              "name": "tokenID",
              "type": "uint16"
            }
          ],
          "internalType": "struct ITDao.TokenPosition",
          "name": "",
          "type": "tuple"
        }
      ],
      "stateMutability": "view",
      "type": "function"
    },
    {
      "inputs": [
        {
          "internalType": "uint64",
          "name": "positionNFTTokenID",
          "type": "uint64"
        }
      ],
      "name": "getRewards",
      "outputs": [],
      "stateMutability": "nonpayable",
      "type": "function"
    },
    {
      "inputs": [
        {
          "internalType": "uint16",
          "name": "_tokenID",
          "type": "uint16"
        }
      ],
      "name": "getRewardsStatus",
      "outputs": [
        {
          "components": [
            {
              "internalType": "uint256",
              "name": "cumulativeVirtualCount",
              "type": "uint256"
            },
            {
              "internalType": "uint256",
              "name": "totalRewards",
              "type": "uint256"
            }
          ],
          "internalType": "struct ITDao.TokenRewardsStatus",
          "name": "",
          "type": "tuple"
        }
      ],
      "stateMutability": "view",
      "type": "function"
    },
    {
      "inputs": [],
      "name": "guardian",
      "outputs": [
        {
          "internalType": "address",
          "name": "",
          "type": "address"
        }
      ],
      "stateMutability": "view",
      "type": "function"
    },
    {
      "inputs": [
        {
          "internalType": "uint16",
          "name": "",
          "type": "uint16"
        }
      ],
      "name": "idToToken",
      "outputs": [
        {
          "internalType": "contract IERC20",
          "name": "",
          "type": "address"
        }
      ],
      "stateMutability": "view",
      "type": "function"
    },
    {
      "inputs": [],
      "name": "incentiveContract",
      "outputs": [
        {
          "internalType": "address",
          "name": "",
          "type": "address"
        }
      ],
      "stateMutability": "view",
      "type": "function"
    },
    {
      "inputs": [
        {
          "internalType": "address",
          "name": "dest",
          "type": "address"
        },
        {
          "internalType": "uint256",
          "name": "count",
          "type": "uint256"
        }
      ],
      "name": "incentiveContractMint",
      "outputs": [],
      "stateMutability": "nonpayable",
      "type": "function"
    },
    {
      "inputs": [],
      "name": "incentivesStartPeriod",
      "outputs": [
        {
          "internalType": "uint64",
          "name": "",
          "type": "uint64"
        }
      ],
      "stateMutability": "view",
      "type": "function"
    },
    {
      "inputs": [
        {
          "internalType": "contract IPositionNFT",
          "name": "_tDaoPositionNFT",
          "type": "address"
        },
        {
          "internalType": "contract IProtocolToken",
          "name": "_tDaoToken",
          "type": "address"
        },
        {
          "internalType": "address",
          "name": "_tDaoGovernorAlpha",
          "type": "address"
        },
        {
          "internalType": "address",
          "name": "_timelock",
          "type": "address"
        }
      ],
      "name": "init",
      "outputs": [],
      "stateMutability": "nonpayable",
      "type": "function"
    },
    {
      "inputs": [],
      "name": "lastPeriodGlobalInflationUpdated",
      "outputs": [
        {
          "internalType": "uint64",
          "name": "",
          "type": "uint64"
        }
      ],
      "stateMutability": "view",
      "type": "function"
    },
    {
      "inputs": [
        {
          "internalType": "contract IERC20",
          "name": "token",
          "type": "address"
        },
        {
          "internalType": "uint256",
          "name": "count",
          "type": "uint256"
        },
        {
          "internalType": "uint8",
          "name": "lockDurationMonths",
          "type": "uint8"
        },
        {
          "internalType": "address",
          "name": "to",
          "type": "address"
        }
      ],
      "name": "lockTokens",
      "outputs": [
        {
          "internalType": "uint64",
          "name": "positionNFTTokenID",
          "type": "uint64"
        }
      ],
      "stateMutability": "nonpayable",
      "type": "function"
    },
    {
      "inputs": [
        {
          "internalType": "address",
          "name": "dest",
          "type": "address"
        },
        {
          "internalType": "uint256",
          "name": "count",
          "type": "uint256"
        }
      ],
      "name": "mintIncentive",
      "outputs": [],
      "stateMutability": "nonpayable",
      "type": "function"
    },
    {
      "inputs": [
        {
          "internalType": "address",
          "name": "dest",
          "type": "address"
        },
        {
          "internalType": "uint256",
          "name": "count",
          "type": "uint256"
        }
      ],
      "name": "mintVotingRewards",
      "outputs": [],
      "stateMutability": "nonpayable",
      "type": "function"
    },
    {
      "inputs": [],
      "name": "periodLength",
      "outputs": [
        {
          "internalType": "uint64",
          "name": "",
          "type": "uint64"
        }
      ],
      "stateMutability": "view",
      "type": "function"
    },
    {
      "inputs": [
        {
          "internalType": "contract IERC20",
          "name": "token",
          "type": "address"
        }
      ],
      "name": "selfDelegate",
      "outputs": [],
      "stateMutability": "nonpayable",
      "type": "function"
    },
    {
      "inputs": [
        {
          "internalType": "address",
          "name": "governorAlpha",
          "type": "address"
        },
        {
          "internalType": "uint256",
          "name": "proposalID",
          "type": "uint256"
        },
        {
          "internalType": "address",
          "name": "voter",
          "type": "address"
        },
        {
          "internalType": "uint256",
          "name": "votePortion",
          "type": "uint256"
        }
      ],
      "name": "sendUnderlyingVotingRewards",
      "outputs": [],
      "stateMutability": "nonpayable",
      "type": "function"
    },
    {
      "inputs": [
        {
          "internalType": "contract IERC20",
          "name": "firstToken",
          "type": "address"
        }
      ],
      "name": "setFirstToken",
      "outputs": [],
      "stateMutability": "nonpayable",
      "type": "function"
    },
    {
      "inputs": [
        {
          "internalType": "address",
          "name": "_contract",
          "type": "address"
        }
      ],
      "name": "setIncentiveContract",
      "outputs": [],
      "stateMutability": "nonpayable",
      "type": "function"
    },
    {
      "inputs": [],
      "name": "start",
      "outputs": [],
      "stateMutability": "nonpayable",
      "type": "function"
    },
    {
      "inputs": [],
      "name": "startPeriod",
      "outputs": [
        {
          "internalType": "uint64",
          "name": "",
          "type": "uint64"
        }
      ],
      "stateMutability": "view",
      "type": "function"
    },
    {
      "inputs": [],
      "name": "tDaoGovernorAlpha",
      "outputs": [
        {
          "internalType": "address",
          "name": "",
          "type": "address"
        }
      ],
      "stateMutability": "view",
      "type": "function"
    },
    {
      "inputs": [],
      "name": "tDaoPositionNFT",
      "outputs": [
        {
          "internalType": "contract IPositionNFT",
          "name": "",
          "type": "address"
        }
      ],
      "stateMutability": "view",
      "type": "function"
    },
    {
      "inputs": [],
      "name": "tDaoToken",
      "outputs": [
        {
          "internalType": "contract IProtocolToken",
          "name": "",
          "type": "address"
        }
      ],
      "stateMutability": "view",
      "type": "function"
    },
    {
      "inputs": [],
      "name": "timelock",
      "outputs": [
        {
          "internalType": "address",
          "name": "",
          "type": "address"
        }
      ],
      "stateMutability": "view",
      "type": "function"
    },
    {
      "inputs": [
        {
          "internalType": "contract IERC20",
          "name": "",
          "type": "address"
        }
      ],
      "name": "tokenToID",
      "outputs": [
        {
          "internalType": "uint16",
          "name": "",
          "type": "uint16"
        }
      ],
      "stateMutability": "view",
      "type": "function"
    },
    {
      "inputs": [],
      "name": "totalIncentivesMinted",
      "outputs": [
        {
          "internalType": "uint256",
          "name": "",
          "type": "uint256"
        }
      ],
      "stateMutability": "view",
      "type": "function"
    },
    {
      "inputs": [
        {
          "internalType": "address",
          "name": "",
          "type": "address"
        },
        {
          "internalType": "uint256",
          "name": "",
          "type": "uint256"
        }
      ],
      "name": "underlyingTokenVoteRewardCount",
      "outputs": [
        {
          "internalType": "uint248",
          "name": "count",
          "type": "uint248"
        },
        {
          "internalType": "bool",
          "name": "isSet",
          "type": "bool"
        }
      ],
      "stateMutability": "view",
      "type": "function"
    },
    {
      "inputs": [
        {
          "internalType": "uint64",
          "name": "positionNFTTokenID",
          "type": "uint64"
        }
      ],
      "name": "unlockTokens",
      "outputs": [],
      "stateMutability": "nonpayable",
      "type": "function"
    },
    {
      "inputs": [
        {
          "internalType": "uint16",
          "name": "",
          "type": "uint16"
        }
      ],
      "name": "virtualCount",
      "outputs": [
        {
          "internalType": "uint256",
          "name": "",
          "type": "uint256"
        }
      ],
      "stateMutability": "view",
      "type": "function"
    },
    {
      "inputs": [],
      "name": "votingRewardsSafe",
      "outputs": [
        {
          "internalType": "contract TDaoVotingRewardsSafe",
          "name": "",
          "type": "address"
        }
      ],
      "stateMutability": "view",
      "type": "function"
    }
  ],
  "bytecode": "0x60e06040526001600760006101000a81548167ffffffffffffffff021916908367ffffffffffffffff1602179055503480156200003c5760006000fd5b5060405162005f6738038062005f678339818101604052810190620000629190620002a8565b5b5b620151805b60018167ffffffffffffffff1662000086620001df60201b60201c565b67ffffffffffffffff168115156200009a57fe5b040367ffffffffffffffff1660a08167ffffffffffffffff1660c01b815260080150508067ffffffffffffffff1660808167ffffffffffffffff1660c01b815260080150505b50600160006000508190909055505b80601060006101000a81548173ffffffffffffffffffffffffffffffffffffffff021916908373ffffffffffffffffffffffffffffffffffffffff1602179055506040516200013e9062000295565b604051809103906000f0801580156200015c573d600060003e3d6000fd5b5073ffffffffffffffffffffffffffffffffffffffff1660c08173ffffffffffffffffffffffffffffffffffffffff1660601b8152601401505033600f60006101000a81548173ffffffffffffffffffffffffffffffffffffffff021916908373ffffffffffffffffffffffffffffffffffffffff1602179055505b50620002df565b6000620001f9426200020160201b6200330717909060201c565b905080505b90565b6000680100000000000000008210151562000287576040517f08c379a00000000000000000000000000000000000000000000000000000000081526004018080602001828103825260118152602001807f6d6f7265207468616e203634206269747300000000000000000000000000000081526020015060200191505060405180910390fd5b81905062000290565b919050565b6104a98062005abe8339019056620002de565b600060208284031215620002ba578081fd5b81516001600160a01b03811681141515620002d3578182fd5b809150505b92915050565b5b60805160c01c60a05160c01c60c05160601c61579562000329600039806124755280612c4d5280612dbf52508061302f528061366f525080613053528061369052506157956000f3fe60806040523480156100115760006000fd5b50600436106102cd5760003560e01c806382b5e8891161017c578063c2cc16d9116100d9578063d5f394881161008d578063f0f091c311610072578063f0f091c314610791578063fcb3fa90146107ad578063fd8067c3146107c9576102cd565b8063d5f3948814610755578063d6c2875d14610773576102cd565b8063d2ca2115116100be578063d2ca2115146106fd578063d33219b41461071b578063d48bfca714610739576102cd565b8063c2cc16d9146106c1578063c4e3a63b146106df576102cd565b80639d8e090111610130578063b551a00d11610115578063b551a00d1461067f578063b9f8ea6d1461069b578063be9a6555146106b7576102cd565b80639d8e090114610631578063ae42983314610661576102cd565b806387bbac1b1161016157806387bbac1b146105d95780639383ac44146105f75780639645383d14610613576102cd565b806382b5e8891461058c57806386fa81c7146105a8576102cd565b806330bfb9bb1161022a578063526b8712116101de5780636c6a4f36116101c35780636c6a4f361461050e578063797250e41461053e5780637ad31c981461056e576102cd565b8063526b8712146104d2578063640bb8df146104f0576102cd565b8063371f3d451161020f578063371f3d4514610468578063452a9320146104985780634cd7a315146104b6576102cd565b806330bfb9bb1461041957806333daf5d414610437576102cd565b806307e54f16116102815780630f85fc5a116102665780630f85fc5a1461039b57806314706d85146103cb57806327fb0474146103e9576102cd565b806307e54f161461034f5780630a889a8b1461037f576102cd565b806306552ff3116102b257806306552ff3146102fb57806307818200146103175780630793298714610333576102cd565b8063020ac54a146102d357806306040618146102dd576102cd565b60006000fd5b6102db6107e7565b005b6102e5610894565b6040516102f291906156c7565b60405180910390f35b61031560048036038101906103109190614f2b565b6108ac565b005b610331600480360381019061032c9190614c7b565b610b17565b005b61034d60048036038101906103489190614d70565b610cf6565b005b61036960048036038101906103649190614ea2565b610e87565b604051610376919061562c565b60405180910390f35b61039960048036038101906103949190614ff8565b610ead565b005b6103b560048036038101906103b09190614ff8565b6113ec565b6040516103c291906155aa565b60405180910390f35b6103d36116c8565b6040516103e0919061567e565b60405180910390f35b61040360048036038101906103fe9190614ec9565b611787565b60405161041091906156c7565b60405180910390f35b610421611c15565b60405161042e91906156c7565b60405180910390f35b610451600480360381019061044c9190614cc9565b611c2f565b60405161045f929190615214565b60405180910390f35b610482600480360381019061047d9190614e55565b611ec6565b60405161048f9190615200565b60405180910390f35b6104a0611eeb565b6040516104ad91906150fd565b60405180910390f35b6104d060048036038101906104cb9190614d70565b611f11565b005b6104da612175565b6040516104e7919061562c565b60405180910390f35b6104f8612189565b60405161050591906150fd565b60405180910390f35b61052860048036038101906105239190614f91565b6121af565b604051610535919061560f565b60405180910390f35b61055860048036038101906105539190614f91565b6122d0565b604051610565919061567e565b60405180910390f35b6105766122eb565b604051610583919061567e565b60405180910390f35b6105a660048036038101906105a19190614ea2565b6122f4565b005b6105c260048036038101906105bd9190614d70565b612404565b6040516105d0929190615642565b60405180910390f35b6105e1612473565b6040516105ee91906152b1565b60405180910390f35b610611600480360381019061060c9190614d70565b612497565b005b61061b612704565b6040516106289190615289565b60405180910390f35b61064b60048036038101906106469190614f91565b61272a565b6040516106589190615239565b60405180910390f35b610669612762565b6040516106769190615261565b60405180910390f35b61069960048036038101906106949190614ff8565b612788565b005b6106b560048036038101906106b09190614da1565b612957565b005b6106bf612f10565b005b6106c9613007565b6040516106d691906150fd565b60405180910390f35b6106e761302d565b6040516106f491906156c7565b60405180910390f35b610705613051565b60405161071291906156c7565b60405180910390f35b610723613075565b60405161073091906150fd565b60405180910390f35b610753600480360381019061074e9190614ea2565b61309b565b005b61075d6130ec565b60405161076a91906150fd565b60405180910390f35b61077b613112565b60405161078891906156c7565b60405180910390f35b6107ab60048036038101906107a69190614ea2565b61312c565b005b6107c760048036038101906107c29190614fc0565b6131be565b005b6107d16132ed565b6040516107de91906156c7565b60405180910390f35b600260006000505414151515610868576040517f08c379a000000000000000000000000000000000000000000000000000000000815260040180806020018281038252601f8152602001807f5265656e7472616e637947756172643a207265656e7472616e742063616c6c0081526020015060200191505060405180910390fd5b6002600060005081909090555061088361339963ffffffff16565b5b600160006000508190909055505b565b60006108a461366b63ffffffff16565b905080505b90565b61090b600f60009054906101000a900473ffffffffffffffffffffffffffffffffffffffff1673ffffffffffffffffffffffffffffffffffffffff163373ffffffffffffffffffffffffffffffffffffffff16146136e463ffffffff16565b600f60006101000a81549073ffffffffffffffffffffffffffffffffffffffff021916905583600560006101000a81548173ffffffffffffffffffffffffffffffffffffffff021916908373ffffffffffffffffffffffffffffffffffffffff16021790555082600460006101000a81548173ffffffffffffffffffffffffffffffffffffffff021916908373ffffffffffffffffffffffffffffffffffffffff16021790555081600360006101000a81548173ffffffffffffffffffffffffffffffffffffffff021916908373ffffffffffffffffffffffffffffffffffffffff16021790555080600260006101000a81548173ffffffffffffffffffffffffffffffffffffffff021916908373ffffffffffffffffffffffffffffffffffffffff160217905550610a4a63a9059cbb60e01b61372a63ffffffff16565b610a606323b872dd60e01b61372a63ffffffff16565b610a7663095ea7b360e01b61372a63ffffffff16565b610a8c63449a52f860e01b61372a63ffffffff16565b610aa26379cc679060e01b61372a63ffffffff16565b610ab86342966c6860e01b61372a63ffffffff16565b610ace633950935160e01b61372a63ffffffff16565b610ae463a457c2d760e01b61372a63ffffffff16565b610afa633c4a25d060e01b61372a63ffffffff16565b610b10635c19a95c60e01b61372a63ffffffff16565b5b50505050565b610b543073ffffffffffffffffffffffffffffffffffffffff163373ffffffffffffffffffffffffffffffffffffffff16146136e463ffffffff16565b600073ffffffffffffffffffffffffffffffffffffffff16600160009054906101000a900473ffffffffffffffffffffffffffffffffffffffff1673ffffffffffffffffffffffffffffffffffffffff16141515610be7576040517f08c379a0000000000000000000000000000000000000000000000000000000008152600401610bde9061552c565b60405180910390fd5b610bf68161379b63ffffffff16565b1515610c37576040517f08c379a0000000000000000000000000000000000000000000000000000000008152600401610c2e906154ed565b60405180910390fd5b80600160006101000a81548173ffffffffffffffffffffffffffffffffffffffff021916908373ffffffffffffffffffffffffffffffffffffffff160217905550610c8661366b63ffffffff16565b601160006101000a81548167ffffffffffffffff021916908367ffffffffffffffff1602179055508073ffffffffffffffffffffffffffffffffffffffff167f6765bf0cc4e3defc42bfa6ac394241a5f702ee760529c922874f15c4ad35edc760405160405180910390a25b5b50565b600260006000505414151515610d77576040517f08c379a000000000000000000000000000000000000000000000000000000000815260040180806020018281038252601f8152602001807f5265656e7472616e637947756172643a207265656e7472616e742063616c6c0081526020015060200191505060405180910390fd5b60026000600050819090905550610de3600360009054906101000a900473ffffffffffffffffffffffffffffffffffffffff1673ffffffffffffffffffffffffffffffffffffffff163373ffffffffffffffffffffffffffffffffffffffff16146136e463ffffffff16565b600460009054906101000a900473ffffffffffffffffffffffffffffffffffffffff1673ffffffffffffffffffffffffffffffffffffffff1663449a52f883836040518363ffffffff1660e01b8152600401610e40929190615198565b600060405180830381600087803b158015610e5b5760006000fd5b505af1158015610e70573d600060003e3d6000fd5b505050505b600160006000508190909055505b5050565b600b60005060205280600052604060002060009150909054906101000a900461ffff1681565b600260006000505414151515610f2e576040517f08c379a000000000000000000000000000000000000000000000000000000000815260040180806020018281038252601f8152602001807f5265656e7472616e637947756172643a207265656e7472616e742063616c6c0081526020015060200191505060405180910390fd5b600260006000508190909055506000339050610ffd600560009054906101000a900473ffffffffffffffffffffffffffffffffffffffff1673ffffffffffffffffffffffffffffffffffffffff1663430c208183856040518363ffffffff1660e01b8152600401610fa09291906151c7565b60206040518083038186803b158015610fb95760006000fd5b505afa158015610fce573d600060003e3d6000fd5b505050506040513d601f19601f82011682018060405250810190610ff29190614e32565b6136e463ffffffff16565b600061100e836137b563ffffffff16565b905061101e61366b63ffffffff16565b67ffffffffffffffff16816080015167ffffffffffffffff161115151561107a576040517f08c379a000000000000000000000000000000000000000000000000000000000815260040161107190615430565b60405180910390fd5b6110c961109582600001518360a00151613a7e63ffffffff16565b600960005060008460c0015161ffff1661ffff16815260200190815260200160002060005054613aad90919063ffffffff16565b600960005060008360c0015161ffff1661ffff168152602001908152602001600020600050819090905550600d60005060008467ffffffffffffffff1667ffffffffffffffff16815260200190815260200160002060006000820160006101000a8154906fffffffffffffffffffffffffffffffff02191690556000820160106101000a8154906fffffffffffffffffffffffffffffffff02191690556001820160006101000a81549076ffffffffffffffffffffffffffffffffffffffffffffff02191690556001820160176101000a81549061ffff02191690556001820160196101000a81549061ffff021916905560018201601b6101000a81549061ffff021916905560018201601d6101000a81549060ff021916905550506000600560009054906101000a900473ffffffffffffffffffffffffffffffffffffffff1673ffffffffffffffffffffffffffffffffffffffff16636352211e856040518263ffffffff1660e01b815260040161124291906156ab565b60206040518083038186803b15801561125b5760006000fd5b505afa158015611270573d600060003e3d6000fd5b505050506040513d601f19601f820116820180604052508101906112949190614ca2565b9050600560009054906101000a900473ffffffffffffffffffffffffffffffffffffffff1673ffffffffffffffffffffffffffffffffffffffff16639dbead42856040518263ffffffff1660e01b81526004016112f191906156c7565b600060405180830381600087803b15801561130c5760006000fd5b505af1158015611321573d600060003e3d6000fd5b505050508273ffffffffffffffffffffffffffffffffffffffff168260c0015161ffff167fbf347141bee0ba9c777fbef9a14008be9f56f2b2f90f0e63cfed8a96a3b506c78460000151604051611378919061567e565b60405180910390a36113d7600c60005060008460c0015161ffff1661ffff16815260200190815260200160002060009054906101000a900473ffffffffffffffffffffffffffffffffffffffff16828460000151613b3663ffffffff16565b5050505b600160006000508190909055505b50565b6113f4614b55565b6000600d60005060008467ffffffffffffffff1667ffffffffffffffff1681526020019081526020016000206000506040518060e00160405290816000820160009054906101000a90046fffffffffffffffffffffffffffffffff166fffffffffffffffffffffffffffffffff166fffffffffffffffffffffffffffffffff1681526020016000820160109054906101000a90046fffffffffffffffffffffffffffffffff166fffffffffffffffffffffffffffffffff166fffffffffffffffffffffffffffffffff1681526020016001820160009054906101000a900476ffffffffffffffffffffffffffffffffffffffffffffff1676ffffffffffffffffffffffffffffffffffffffffffffff1676ffffffffffffffffffffffffffffffffffffffffffffff1681526020016001820160179054906101000a900461ffff1661ffff1661ffff1681526020016001820160199054906101000a900461ffff1661ffff1661ffff16815260200160018201601b9054906101000a900461ffff1661ffff1661ffff16815260200160018201601d9054906101000a900460ff1660ff1660ff16815260200150509050600081600001516fffffffffffffffffffffffffffffffff161115156115fe576040517f08c379a00000000000000000000000000000000000000000000000000000000081526004016115f59061546f565b60405180910390fd5b6040518060e0016040528082600001516fffffffffffffffffffffffffffffffff16815260200182602001516fffffffffffffffffffffffffffffffff168152602001826040015176ffffffffffffffffffffffffffffffffffffffffffffff168152602001826060015161ffff1667ffffffffffffffff168152602001826080015161ffff1667ffffffffffffffff1681526020018260c0015160ff1667ffffffffffffffff1681526020018260a0015161ffff168152602001509150506116c356505b919050565b60006000601060149054906101000a900467ffffffffffffffff1667ffffffffffffffff1614156116fc5760009050611784565b600073ffffffffffffffffffffffffffffffffffffffff16600160009054906101000a900473ffffffffffffffffffffffffffffffffffffffff1673ffffffffffffffffffffffffffffffffffffffff161415156117725769021e19e0c9bab240000069152d02c7e14af6800000039050611784565b69152d02c7e14af68000009050611784565b90565b600060026000600050541415151561180a576040517f08c379a000000000000000000000000000000000000000000000000000000000815260040180806020018281038252601f8152602001807f5265656e7472616e637947756172643a207265656e7472616e742063616c6c0081526020015060200191505060405180910390fd5b600260006000508190909055506000600b60005060008773ffffffffffffffffffffffffffffffffffffffff1673ffffffffffffffffffffffffffffffffffffffff16815260200190815260200160002060009054906101000a900461ffff16905060008161ffff161115156118b5576040517f08c379a00000000000000000000000000000000000000000000000000000000081526004016118ac90615334565b60405180910390fd5b6000851115156118fa576040517f08c379a00000000000000000000000000000000000000000000000000000000081526004016118f1906153b2565b60405180910390fd5b8360ff16600667ffffffffffffffff16111580156119265750603067ffffffffffffffff168460ff1611155b801561195557506000600667ffffffffffffffff168560ff1681151561194857fe5b0667ffffffffffffffff16145b1515611996576040517f08c379a000000000000000000000000000000000000000000000000000000000815260040161198d906152f5565b60405180910390fd5b6119a461339963ffffffff16565b60006119b5826121af63ffffffff16565b90506119fd6119cd878760ff16613a7e63ffffffff16565b600960005060008561ffff1661ffff16815260200190815260200160002060005054613d4290919063ffffffff16565b600960005060008461ffff1661ffff168152602001908152602001600020600050819090905550600560009054906101000a900473ffffffffffffffffffffffffffffffffffffffff1673ffffffffffffffffffffffffffffffffffffffff1663755edd17856040518263ffffffff1660e01b8152600401611a7f91906150fd565b602060405180830381600087803b158015611a9a5760006000fd5b505af1158015611aaf573d600060003e3d6000fd5b505050506040513d601f19601f82011682018060405250810190611ad3919061501f565b925082506000611ae761366b63ffffffff16565b9050611b88846040518060e001604052808a815260200185602001518152602001856000015181526020018467ffffffffffffffff168152602001611b50611b378b60ff16613dcb63ffffffff16565b8667ffffffffffffffff16613e0e90919063ffffffff16565b67ffffffffffffffff1681526020018960ff1667ffffffffffffffff1681526020018661ffff16815260200150613eab63ffffffff16565b611b9a8833308a61415163ffffffff16565b8560ff168573ffffffffffffffffffffffffffffffffffffffff168461ffff167ffd5af8482cd27088275e2c1370259ff534cf1c987cf2105e24da196377e5c98d8a604051611be9919061567e565b60405180910390a4839350505050611bff565050505b600160006000508190909055505b949350505050565b601060149054906101000a900467ffffffffffffffff1681565b60006060600260006000505414151515611cb4576040517f08c379a000000000000000000000000000000000000000000000000000000000815260040180806020018281038252601f8152602001807f5265656e7472616e637947756172643a207265656e7472616e742063616c6c0081526020015060200191505060405180910390fd5b60026000600050819090905550611d20600260009054906101000a900473ffffffffffffffffffffffffffffffffffffffff1673ffffffffffffffffffffffffffffffffffffffff163373ffffffffffffffffffffffffffffffffffffffff16146136e463ffffffff16565b6000611d318561437c63ffffffff16565b9050600e6000506000827bffffffffffffffffffffffffffffffffffffffffffffffffffffffff19167bffffffffffffffffffffffffffffffffffffffffffffffffffffffff1916815260200190815260200160002060009054906101000a900460ff16151515611dd7576040517f08c379a0000000000000000000000000000000000000000000000000000000008152600401611dce906153f1565b60405180910390fd5b8573ffffffffffffffffffffffffffffffffffffffff168185604051602001611e01929190615093565b604051602081830303815290604052604051611e1d91906150de565b6000604051808303816000865af19150503d8060008114611e5a576040519150601f19603f3d011682016040523d82523d6000602084013e611e5f565b606091505b5080935081945050508282901515611ead576040517f08c379a0000000000000000000000000000000000000000000000000000000008152600401611ea491906152d9565b60405180910390fd5b50505b600160006000508190909055505b935093915050565b600e60005060205280600052604060002060009150909054906101000a900460ff1681565b601060009054906101000a900473ffffffffffffffffffffffffffffffffffffffff1681565b611f4e3073ffffffffffffffffffffffffffffffffffffffff163373ffffffffffffffffffffffffffffffffffffffff16146136e463ffffffff16565b6032600460009054906101000a900473ffffffffffffffffffffffffffffffffffffffff1673ffffffffffffffffffffffffffffffffffffffff166318160ddd6040518163ffffffff1660e01b815260040160206040518083038186803b158015611fb95760006000fd5b505afa158015611fce573d600060003e3d6000fd5b505050506040513d601f19601f82011682018060405250810190611ff29190614fdc565b811515611ffb57fe5b048111151515612040576040517f08c379a00000000000000000000000000000000000000000000000000000000081526004016120379061556b565b60405180910390fd5b61204f8261379b63ffffffff16565b1515612090576040517f08c379a0000000000000000000000000000000000000000000000000000000008152600401612087906154ed565b60405180910390fd5b600460009054906101000a900473ffffffffffffffffffffffffffffffffffffffff1673ffffffffffffffffffffffffffffffffffffffff1663449a52f883836040518363ffffffff1660e01b81526004016120ed929190615198565b600060405180830381600087803b1580156121085760006000fd5b505af115801561211d573d600060003e3d6000fd5b505050508173ffffffffffffffffffffffffffffffffffffffff167f15c222d39f56077620782fcc367cdd020fddac1f6129c77ec7ca1c5025659dda82604051612167919061567e565b60405180910390a25b5b5050565b600a60009054906101000a900461ffff1681565b600360009054906101000a900473ffffffffffffffffffffffffffffffffffffffff1681565b6121b7614bb7565b6000600860005060008461ffff1661ffff1681526020019081526020016000206000506040518060400160405290816000820160009054906101000a90046fffffffffffffffffffffffffffffffff166fffffffffffffffffffffffffffffffff166fffffffffffffffffffffffffffffffff1681526020016000820160109054906101000a90046fffffffffffffffffffffffffffffffff166fffffffffffffffffffffffffffffffff166fffffffffffffffffffffffffffffffff16815260200150509050604051806040016040528082600001516fffffffffffffffffffffffffffffffff16815260200182602001516fffffffffffffffffffffffffffffffff168152602001509150506122cb56505b919050565b60096000506020528060005260406000206000915090505481565b60126000505481565b6000600b60005060008373ffffffffffffffffffffffffffffffffffffffff1673ffffffffffffffffffffffffffffffffffffffff16815260200190815260200160002060009054906101000a900461ffff16905060008161ffff16111515612392576040517f08c379a000000000000000000000000000000000000000000000000000000000815260040161238990615334565b60405180910390fd5b8173ffffffffffffffffffffffffffffffffffffffff16635c19a95c306040518263ffffffff1660e01b81526004016123cb91906150fd565b600060405180830381600087803b1580156123e65760006000fd5b505af11580156123fb573d600060003e3d6000fd5b50505050505b50565b6006600050602052816000526040600020600050602052806000526040600020600091509150508060000160009054906101000a90047effffffffffffffffffffffffffffffffffffffffffffffffffffffffffffff169080600001601f9054906101000a900460ff16905082565b7f000000000000000000000000000000000000000000000000000000000000000081565b600260006000505414151515612518576040517f08c379a000000000000000000000000000000000000000000000000000000000815260040180806020018281038252601f8152602001807f5265656e7472616e637947756172643a207265656e7472616e742063616c6c0081526020015060200191505060405180910390fd5b60026000600050819090905550612584600160009054906101000a900473ffffffffffffffffffffffffffffffffffffffff1673ffffffffffffffffffffffffffffffffffffffff163373ffffffffffffffffffffffffffffffffffffffff16146136e463ffffffff16565b600061259e82601260005054613d4290919063ffffffff16565b9050600061260b69021e19e0c9bab24000006125f3601160009054906101000a900467ffffffffffffffff1660016125da61366b63ffffffff16565b0167ffffffffffffffff1661439290919063ffffffff16565b67ffffffffffffffff1661442f90919063ffffffff16565b9050808211151515612652576040517f08c379a0000000000000000000000000000000000000000000000000000000008152600401612649906154ae565b60405180910390fd5b816012600050819090905550600460009054906101000a900473ffffffffffffffffffffffffffffffffffffffff1673ffffffffffffffffffffffffffffffffffffffff1663449a52f885856040518363ffffffff1660e01b81526004016126bb929190615198565b600060405180830381600087803b1580156126d65760006000fd5b505af11580156126eb573d600060003e3d6000fd5b5050505050505b600160006000508190909055505b5050565b600460009054906101000a900473ffffffffffffffffffffffffffffffffffffffff1681565b600c60005060205280600052604060002060009150909054906101000a900473ffffffffffffffffffffffffffffffffffffffff1681565b600560009054906101000a900473ffffffffffffffffffffffffffffffffffffffff1681565b600260006000505414151515612809576040517f08c379a000000000000000000000000000000000000000000000000000000000815260040180806020018281038252601f8152602001807f5265656e7472616e637947756172643a207265656e7472616e742063616c6c0081526020015060200191505060405180910390fd5b600260006000508190909055506128d3600560009054906101000a900473ffffffffffffffffffffffffffffffffffffffff1673ffffffffffffffffffffffffffffffffffffffff1663430c208133846040518363ffffffff1660e01b8152600401612876929190615125565b60206040518083038186803b15801561288f5760006000fd5b505afa1580156128a4573d600060003e3d6000fd5b505050506040513d601f19601f820116820180604052508101906128c89190614e32565b6136e463ffffffff16565b60006128e4826137b563ffffffff16565b90506128f68282613eab63ffffffff16565b3373ffffffffffffffffffffffffffffffffffffffff168267ffffffffffffffff167f39c278b054e152450e4295bdf59d7edbaba35cb21d4248658680e61dac39eebb60405160405180910390a3505b600160006000508190909055505b50565b6129b6600360009054906101000a900473ffffffffffffffffffffffffffffffffffffffff1673ffffffffffffffffffffffffffffffffffffffff163373ffffffffffffffffffffffffffffffffffffffff16146136e463ffffffff16565b60008473ffffffffffffffffffffffffffffffffffffffff16637e90f9ab6040518163ffffffff1660e01b815260040160206040518083038186803b1580156129ff5760006000fd5b505afa158015612a14573d600060003e3d6000fd5b505050506040513d601f19601f82011682018060405250810190612a389190614ca2565b9050600660005060008673ffffffffffffffffffffffffffffffffffffffff1673ffffffffffffffffffffffffffffffffffffffff1681526020019081526020016000206000506000858152602001908152602001600020600050600001601f9054906101000a900460ff161515612dbd5760008173ffffffffffffffffffffffffffffffffffffffff166370a08231306040518263ffffffff1660e01b8152600401612ae591906150fd565b60206040518083038186803b158015612afe5760006000fd5b505afa158015612b13573d600060003e3d6000fd5b505050506040513d601f19601f82011682018060405250810190612b379190614fdc565b90508573ffffffffffffffffffffffffffffffffffffffff1663b525867f866040518263ffffffff1660e01b8152600401612b72919061567e565b600060405180830381600087803b158015612b8d5760006000fd5b505af1158015612ba2573d600060003e3d6000fd5b505050506000612c45828473ffffffffffffffffffffffffffffffffffffffff166370a08231306040518263ffffffff1660e01b8152600401612be591906150fd565b60206040518083038186803b158015612bfe5760006000fd5b505afa158015612c13573d600060003e3d6000fd5b505050506040513d601f19601f82011682018060405250810190612c379190614fdc565b613aad90919063ffffffff16565b9050612c78837f000000000000000000000000000000000000000000000000000000000000000083613b3663ffffffff16565b6040518060400160405280612c94836144cd909063ffffffff16565b7affffffffffffffffffffffffffffffffffffffffffffffffffffff167effffffffffffffffffffffffffffffffffffffffffffffffffffffffffffff16815260200160011515815260200150600660005060008973ffffffffffffffffffffffffffffffffffffffff1673ffffffffffffffffffffffffffffffffffffffff168152602001908152602001600020600050600088815260200190815260200160002060005060008201518160000160006101000a8154817effffffffffffffffffffffffffffffffffffffffffffffffffffffffffffff02191690837effffffffffffffffffffffffffffffffffffffffffffffffffffffffffffff160217905550602082015181600001601f6101000a81548160ff02191690831515021790555090505050505b7f000000000000000000000000000000000000000000000000000000000000000073ffffffffffffffffffffffffffffffffffffffff1663d1660f998285612eb686600660005060008c73ffffffffffffffffffffffffffffffffffffffff1673ffffffffffffffffffffffffffffffffffffffff16815260200190815260200160002060005060008b815260200190815260200160002060005060000160009054906101000a90047effffffffffffffffffffffffffffffffffffffffffffffffffffffffffffff167effffffffffffffffffffffffffffffffffffffffffffffffffffffffffffff1661457290919063ffffffff16565b6040518463ffffffff1660e01b8152600401612ed49392919061515e565b600060405180830381600087803b158015612eef5760006000fd5b505af1158015612f04573d600060003e3d6000fd5b50505050505b50505050565b612f6f601060009054906101000a900473ffffffffffffffffffffffffffffffffffffffff1673ffffffffffffffffffffffffffffffffffffffff163373ffffffffffffffffffffffffffffffffffffffff16146136e463ffffffff16565b601060006101000a81549073ffffffffffffffffffffffffffffffffffffffff0219169055612fa261339963ffffffff16565b612fb061366b63ffffffff16565b601060146101000a81548167ffffffffffffffff021916908367ffffffffffffffff1602179055507fe0c110dd4938fc8e228e75a489735745046395ad536dd80c35559debe653714760405160405180910390a15b565b600160009054906101000a900473ffffffffffffffffffffffffffffffffffffffff1681565b7f000000000000000000000000000000000000000000000000000000000000000081565b7f000000000000000000000000000000000000000000000000000000000000000081565b600260009054906101000a900473ffffffffffffffffffffffffffffffffffffffff1681565b6130d83073ffffffffffffffffffffffffffffffffffffffff163373ffffffffffffffffffffffffffffffffffffffff16146136e463ffffffff16565b6130e78161459863ffffffff16565b5b5b50565b600f60009054906101000a900473ffffffffffffffffffffffffffffffffffffffff1681565b600760009054906101000a900467ffffffffffffffff1681565b6131ab601060009054906101000a900473ffffffffffffffffffffffffffffffffffffffff1673ffffffffffffffffffffffffffffffffffffffff163373ffffffffffffffffffffffffffffffffffffffff161480156131a057506000600a60009054906101000a900461ffff1661ffff16145b6136e463ffffffff16565b6131ba8161459863ffffffff16565b5b50565b600060006000600360009054906101000a900473ffffffffffffffffffffffffffffffffffffffff1673ffffffffffffffffffffffffffffffffffffffff166383b0ce15856040518263ffffffff1660e01b815260040161321f919061567e565b60606040518083038186803b1580156132385760006000fd5b505afa15801561324d573d600060003e3d6000fd5b505050506040513d601f19601f820116820180604052508101906132719190614df1565b9250925092508273ffffffffffffffffffffffffffffffffffffffff166315373e3d83836040518363ffffffff1660e01b81526004016132b2929190615690565b600060405180830381600087803b1580156132cd5760006000fd5b505af11580156132e2573d600060003e3d6000fd5b505050505050505b50565b601160009054906101000a900467ffffffffffffffff1681565b6000680100000000000000008210151561338c576040517f08c379a00000000000000000000000000000000000000000000000000000000081526004018080602001828103825260118152602001807f6d6f7265207468616e203634206269747300000000000000000000000000000081526020015060200191505060405180910390fd5b819050613394565b919050565b60006133a961366b63ffffffff16565b9050600760009054906101000a900467ffffffffffffffff1667ffffffffffffffff168167ffffffffffffffff161115156133e45750613669565b6000600760009054906101000a900467ffffffffffffffff16820390506000600a60009054906101000a900461ffff1661ffff1690506000816134478467ffffffffffffffff166134396116c863ffffffff16565b61442f90919063ffffffff16565b81151561345057fe5b04905061345b614bb7565b6000600190505b838161ffff161115156135f75761347e816121af63ffffffff16565b9150815060405180604001604052806134f16134e46134d18967ffffffffffffffff16600960005060008861ffff1661ffff1681526020019081526020016000206000505461442f90919063ffffffff16565b8660000151613d4290919063ffffffff16565b614717909063ffffffff16565b6fffffffffffffffffffffffffffffffff16815260200161352f613522868660200151613d4290919063ffffffff16565b614717909063ffffffff16565b6fffffffffffffffffffffffffffffffff16815260200150600860005060008361ffff1661ffff16815260200190815260200160002060005060008201518160000160006101000a8154816fffffffffffffffffffffffffffffffff02191690836fffffffffffffffffffffffffffffffff16021790555060208201518160000160106101000a8154816fffffffffffffffffffffffffffffffff02191690836fffffffffffffffffffffffffffffffff1602179055509050505b8080600101915050613462565b5084600760006101000a81548167ffffffffffffffff021916908367ffffffffffffffff1602179055508467ffffffffffffffff167f5df8d820031efa286b254435a169e0eda922fa20c466be6471c6deaa51dc11658560405161365b91906156c7565b60405180910390a250505050505b565b60007f00000000000000000000000000000000000000000000000000000000000000007f000000000000000000000000000000000000000000000000000000000000000067ffffffffffffffff166136c76147b163ffffffff16565b67ffffffffffffffff168115156136da57fe5b0403905080505b90565b801515613726576040517f08c379a000000000000000000000000000000000000000000000000000000000815260040161371d90615373565b60405180910390fd5b5b50565b6001600e6000506000837bffffffffffffffffffffffffffffffffffffffffffffffffffffffff19167bffffffffffffffffffffffffffffffffffffffffffffffffffffffff1916815260200190815260200160002060006101000a81548160ff0219169083151502179055505b50565b60006000823b9050600081119150506137b056505b919050565b6137bd614b55565b6137cc826113ec63ffffffff16565b905080506137de61339963ffffffff16565b600760009054906101000a900467ffffffffffffffff1667ffffffffffffffff16816060015167ffffffffffffffff1610151561381d57809050613a79565b60006138328260c001516121af63ffffffff16565b905060008260600151600760009054906101000a900467ffffffffffffffff160367ffffffffffffffff1661387884604001518460000151613aad90919063ffffffff16565b81151561388157fe5b04905060006138cc6138a485602001518560200151613aad90919063ffffffff16565b836138bd87600001518860a00151613a7e63ffffffff16565b6147cc9092919063ffffffff16565b90506000811115613a1557600460009054906101000a900473ffffffffffffffffffffffffffffffffffffffff1673ffffffffffffffffffffffffffffffffffffffff1663449a52f8600560009054906101000a900473ffffffffffffffffffffffffffffffffffffffff1673ffffffffffffffffffffffffffffffffffffffff16636352211e886040518263ffffffff1660e01b815260040161397091906156ab565b60206040518083038186803b1580156139895760006000fd5b505afa15801561399e573d600060003e3d6000fd5b505050506040513d601f19601f820116820180604052508101906139c29190614ca2565b836040518363ffffffff1660e01b81526004016139e0929190615198565b600060405180830381600087803b1580156139fb5760006000fd5b505af1158015613a10573d600060003e3d6000fd5b505050505b8260200151846020019090818152602001505082600001518460400190908181526020015050613a4961366b63ffffffff16565b846060019067ffffffffffffffff16908167ffffffffffffffff1681526020015050839350505050613a79565050505b919050565b6000613aa08267ffffffffffffffff16600c856147cc9092919063ffffffff16565b9050613aa7565b92915050565b60008282840391508111151515613b2f576040517f08c379a000000000000000000000000000000000000000000000000000000000815260040180806020018281038252600d8152602001807f7375622d756e646572666c6f770000000000000000000000000000000000000081526020015060200191505060405180910390fd5b5b92915050565b600060008473ffffffffffffffffffffffffffffffffffffffff1663a9059cbb60e01b8585604051602401808373ffffffffffffffffffffffffffffffffffffffff16815260200182815260200192505050604051602081830303815290604052907bffffffffffffffffffffffffffffffffffffffffffffffffffffffff19166020820180517bffffffffffffffffffffffffffffffffffffffffffffffffffffffff83818316178352505050506040518082805190602001908083835b602083101515613c1b57805182525b602082019150602081019050602083039250613bf5565b6001836020036101000a0380198251168184511680821785525050505050509050019150506000604051808303816000865af19150503d8060008114613c7d576040519150601f19603f3d011682016040523d82523d6000602084013e613c82565b606091505b5091509150818015613cc35750600081511480613cc25750808060200190516020811015613cb05760006000fd5b81019080805190602001909291905050505b5b1515613d3a576040517f08c379a00000000000000000000000000000000000000000000000000000000081526004018080602001828103825260028152602001807f535400000000000000000000000000000000000000000000000000000000000081526020015060200191505060405180910390fd5b50505b505050565b60008282840191508110151515613dc4576040517f08c379a000000000000000000000000000000000000000000000000000000000815260040180806020018281038252600c8152602001807f6164642d6f766572666c6f77000000000000000000000000000000000000000081526020015060200191505060405180910390fd5b5b92915050565b6000600c613dee61016d8467ffffffffffffffff166148cd90919063ffffffff16565b67ffffffffffffffff16811515613e0157fe5b049050613e09565b919050565b60008267ffffffffffffffff1682840191508167ffffffffffffffff1610151515613ea4576040517f08c379a000000000000000000000000000000000000000000000000000000000815260040180806020018281038252600c8152602001807f6164642d6f766572666c6f77000000000000000000000000000000000000000081526020015060200191505060405180910390fd5b5b92915050565b6040518060e00160405280613ecb8360000151614717909063ffffffff16565b6fffffffffffffffffffffffffffffffff168152602001613ef78360200151614717909063ffffffff16565b6fffffffffffffffffffffffffffffffff168152602001613f23836040015161499d909063ffffffff16565b76ffffffffffffffffffffffffffffffffffffffffffffff168152602001613f60836060015167ffffffffffffffff16614a3e909063ffffffff16565b61ffff168152602001613f88836080015167ffffffffffffffff16614a3e909063ffffffff16565b61ffff1681526020018260c0015161ffff168152602001613fbe8360a0015167ffffffffffffffff16614aca909063ffffffff16565b60ff16815260200150600d60005060008467ffffffffffffffff1667ffffffffffffffff16815260200190815260200160002060005060008201518160000160006101000a8154816fffffffffffffffffffffffffffffffff02191690836fffffffffffffffffffffffffffffffff16021790555060208201518160000160106101000a8154816fffffffffffffffffffffffffffffffff02191690836fffffffffffffffffffffffffffffffff16021790555060408201518160010160006101000a81548176ffffffffffffffffffffffffffffffffffffffffffffff021916908376ffffffffffffffffffffffffffffffffffffffffffffff16021790555060608201518160010160176101000a81548161ffff021916908361ffff16021790555060808201518160010160196101000a81548161ffff021916908361ffff16021790555060a082015181600101601b6101000a81548161ffff021916908361ffff16021790555060c082015181600101601d6101000a81548160ff021916908360ff1602179055509050505b5050565b600060008573ffffffffffffffffffffffffffffffffffffffff166323b872dd60e01b868686604051602401808473ffffffffffffffffffffffffffffffffffffffff1681526020018373ffffffffffffffffffffffffffffffffffffffff1681526020018281526020019350505050604051602081830303815290604052907bffffffffffffffffffffffffffffffffffffffffffffffffffffffff19166020820180517bffffffffffffffffffffffffffffffffffffffffffffffffffffffff83818316178352505050506040518082805190602001908083835b60208310151561425457805182525b60208201915060208101905060208303925061422e565b6001836020036101000a0380198251168184511680821785525050505050509050019150506000604051808303816000865af19150503d80600081146142b6576040519150601f19603f3d011682016040523d82523d6000602084013e6142bb565b606091505b50915091508180156142fc57506000815114806142fb57508080602001905160208110156142e95760006000fd5b81019080805190602001909291905050505b5b1515614373576040517f08c379a00000000000000000000000000000000000000000000000000000000081526004018080602001828103825260038152602001807f535446000000000000000000000000000000000000000000000000000000000081526020015060200191505060405180910390fd5b50505b50505050565b60008180519060200120905061438d565b919050565b60008267ffffffffffffffff1682840391508167ffffffffffffffff1611151515614428576040517f08c379a000000000000000000000000000000000000000000000000000000000815260040180806020018281038252600d8152602001807f7375622d756e646572666c6f770000000000000000000000000000000000000081526020015060200191505060405180910390fd5b5b92915050565b6000600082148061444f5750828283850292508281151561444c57fe5b04145b15156144c6576040517f08c379a000000000000000000000000000000000000000000000000000000000815260040180806020018281038252600c8152602001807f6d756c2d6f766572666c6f77000000000000000000000000000000000000000081526020015060200191505060405180910390fd5b5b92915050565b60007b0100000000000000000000000000000000000000000000000000000082101515614565576040517f08c379a00000000000000000000000000000000000000000000000000000000081526004018080602001828103825260128152602001807f6d6f7265207468616e203231362062697473000000000000000000000000000081526020015060200191505060405180910390fd5b81905061456d565b919050565b600061458d8383670de0b6b3a76400006147cc63ffffffff16565b905080505b92915050565b61ffff61ffff16600a60009054906101000a900461ffff1661ffff161015156145c15760006000fd5b600a600081819054906101000a900461ffff168092919060010191906101000a81548161ffff021916908361ffff1602179055505080600c6000506000600a60009054906101000a900461ffff1661ffff1661ffff16815260200190815260200160002060006101000a81548173ffffffffffffffffffffffffffffffffffffffff021916908373ffffffffffffffffffffffffffffffffffffffff160217905550600a60009054906101000a900461ffff16600b60005060008373ffffffffffffffffffffffffffffffffffffffff1673ffffffffffffffffffffffffffffffffffffffff16815260200190815260200160002060006101000a81548161ffff021916908361ffff1602179055508073ffffffffffffffffffffffffffffffffffffffff167f784c8f4dbf0ffedd6e72c76501c545a70f8b203b30a26ce542bf92ba87c248a460405160405180910390a25b50565b6000700100000000000000000000000000000000821015156147a4576040517f08c379a00000000000000000000000000000000000000000000000000000000081526004018080602001828103825260128152602001807f6d6f7265207468616e203132382062697473000000000000000000000000000081526020015060200191505060405180910390fd5b8190506147ac565b919050565b60006147c442613307909063ffffffff16565b905080505b90565b600060006000600019858709858702925082811083820303915050600081141561480f576000841115156148005760006000fd5b838204925082925050506148c6565b808411151561481e5760006000fd5b60008486880990508281118203915080830392506000858660000316905080860495508084049350600181826000030401905080830284179350835060006002876003021890508087026002038102905080508087026002038102905080508087026002038102905080508087026002038102905080508087026002038102905080508087026002038102905080508085029550855085955050505050506148c65650505050505b9392505050565b600060008267ffffffffffffffff16148061491f57508267ffffffffffffffff168267ffffffffffffffff1683850292508267ffffffffffffffff1681151561491257fe5b0467ffffffffffffffff16145b1515614996576040517f08c379a000000000000000000000000000000000000000000000000000000000815260040180806020018281038252600c8152602001807f6d756c2d6f766572666c6f77000000000000000000000000000000000000000081526020015060200191505060405180910390fd5b5b92915050565b60007701000000000000000000000000000000000000000000000082101515614a31576040517f08c379a00000000000000000000000000000000000000000000000000000000081526004018080602001828103825260128152602001807f6d6f7265207468616e203138342062697473000000000000000000000000000081526020015060200191505060405180910390fd5b819050614a39565b919050565b60006201000082101515614abd576040517f08c379a00000000000000000000000000000000000000000000000000000000081526004018080602001828103825260118152602001807f6d6f7265207468616e203136206269747300000000000000000000000000000081526020015060200191505060405180910390fd5b819050614ac5565b919050565b600061010082101515614b48576040517f08c379a00000000000000000000000000000000000000000000000000000000081526004018080602001828103825260108152602001807f6d6f7265207468616e203820626974730000000000000000000000000000000081526020015060200191505060405180910390fd5b819050614b50565b919050565b6040518060e00160405280600081526020016000815260200160008152602001600067ffffffffffffffff168152602001600067ffffffffffffffff168152602001600067ffffffffffffffff168152602001600061ffff1681526020015090565b6040518060400160405280600081526020016000815260200150905661575e565b600067ffffffffffffffff80841115614bed57fe5b60405160207fffffffffffffffffffffffffffffffffffffffffffffffffffffffffffffffe0601f8701168201018181108382111715614c2957fe5b8060405250809250848152858585011115614c445760006000fd5b8484602083013760006020868301015250505b9392505050565b60008151905080151581141515614c755760006000fd5b5b919050565b600060208284031215614c8c578081fd5b8135614c9781615718565b809150505b92915050565b600060208284031215614cb3578081fd5b8151614cbe81615718565b809150505b92915050565b60006000600060608486031215614cde578182fd5b8335614ce981615718565b80935050602084013567ffffffffffffffff80821115614d07578384fd5b818601915086601f8301121515614d1c578384fd5b614d2b87833560208501614bd8565b93506040860135915080821115614d40578283fd5b50808501905085601f8201121515614d56578182fd5b614d6586823560208401614bd8565b9150505b9250925092565b6000600060408385031215614d83578182fd5b8235614d8e81615718565b80925050602083013590505b9250929050565b600060006000600060808587031215614db8578081fd5b8435614dc381615718565b80945050602085013592506040850135614ddc81615718565b80925050606085013590505b92959194509250565b60006000600060608486031215614e06578283fd5b8351614e1181615718565b8093505060208401519150614e2860408501614c5e565b90505b9250925092565b600060208284031215614e43578081fd5b614e4c82614c5e565b90505b92915050565b600060208284031215614e66578081fd5b81357fffffffff00000000000000000000000000000000000000000000000000000000811681141515614e97578182fd5b809150505b92915050565b600060208284031215614eb3578081fd5b8135614ebe81615718565b809150505b92915050565b600060006000600060808587031215614ee0578182fd5b8435614eeb81615718565b8094505060208501359250604085013560ff811681141515614f0b578283fd5b809250506060850135614f1d81615718565b809150505b92959194509250565b600060006000600060808587031215614f42578182fd5b8435614f4d81615718565b809450506020850135614f5f81615718565b809350506040850135614f7181615718565b809250506060850135614f8381615718565b809150505b92959194509250565b600060208284031215614fa2578081fd5b813561ffff811681141515614fb5578182fd5b809150505b92915050565b600060208284031215614fd1578081fd5b813590505b92915050565b600060208284031215614fed578081fd5b815190505b92915050565b600060208284031215615009578081fd5b813561501481615741565b809150505b92915050565b600060208284031215615030578081fd5b815161503b81615741565b809150505b92915050565b6000815180845261505e8160208601602086016156e3565b60207fffffffffffffffffffffffffffffffffffffffffffffffffffffffffffffffe0601f8301168501019150505b92915050565b60007fffffffff000000000000000000000000000000000000000000000000000000008416825282516150cd8160048501602087016156e3565b6004818401019150505b9392505050565b600082516150f08184602087016156e3565b8083019150505b92915050565b600060208201905073ffffffffffffffffffffffffffffffffffffffff831682525b92915050565b600060408201905073ffffffffffffffffffffffffffffffffffffffff8416825267ffffffffffffffff831660208301525b9392505050565b600060608201905073ffffffffffffffffffffffffffffffffffffffff80861683528085166020840152508260408301525b949350505050565b600060408201905073ffffffffffffffffffffffffffffffffffffffff841682528260208301525b9392505050565b600060408201905073ffffffffffffffffffffffffffffffffffffffff8416825267ffffffffffffffff831660208301525b9392505050565b600060208201905082151582525b92915050565b600083151582526040602083015261522f6040830184615046565b90505b9392505050565b600060208201905073ffffffffffffffffffffffffffffffffffffffff831682525b92915050565b600060208201905073ffffffffffffffffffffffffffffffffffffffff831682525b92915050565b600060208201905073ffffffffffffffffffffffffffffffffffffffff831682525b92915050565b600060208201905073ffffffffffffffffffffffffffffffffffffffff831682525b92915050565b6000602082526152ec6020830184615046565b90505b92915050565b600060208252601560208301527f496e76616c6964206c6f636b206475726174696f6e000000000000000000000060408301526060820190505b919050565b600060208252601160208301527f556e737570706f7274656420746f6b656e00000000000000000000000000000060408301526060820190505b919050565b600060208252600e60208301527f4e6f7420417574686f72697a656400000000000000000000000000000000000060408301526060820190505b919050565b600060208252600460208301527f4e6f6f700000000000000000000000000000000000000000000000000000000060408301526060820190505b919050565b600060208252601260208301527f416374696f6e20626c61636b6c6973746564000000000000000000000000000060408301526060820190505b919050565b600060208252600c60208301527f5374696c6c206c6f636b6564000000000000000000000000000000000000000060408301526060820190505b919050565b600060208252600c60208301527f506f736974696f6e20444e45000000000000000000000000000000000000000060408301526060820190505b919050565b600060208252601260208301527f416c6c6f746d656e74206578636565646564000000000000000000000000000060408301526060820190505b919050565b600060208252600e60208301527f4e6f74206120636f6e747261637400000000000000000000000000000000000060408301526060820190505b919050565b600060208252601460208301527f436f6e747261637420616c72656164792073657400000000000000000000000060408301526060820190505b919050565b600060208252601660208301527f4d6f7265207468616e203225206f6620737570706c790000000000000000000060408301526060820190505b919050565b600060e082019050825182526020830151602083015260408301516040830152606083015167ffffffffffffffff80821660608501528060808601511660808501528060a08601511660a0850152505061ffff60c08401511660c08301525b92915050565b600060408201905082518252602083015160208301525b92915050565b600060208201905061ffff831682525b92915050565b60006040820190507effffffffffffffffffffffffffffffffffffffffffffffffffffffffffffff8416825282151560208301525b9392505050565b60006020820190508282525b92915050565b600060408201905083825282151560208301525b9392505050565b600060208201905067ffffffffffffffff831682525b92915050565b600060208201905067ffffffffffffffff831682525b92915050565b60005b838110156157025780820151818401525b6020810190506156e6565b83811115615711576000848401525b505b505050565b73ffffffffffffffffffffffffffffffffffffffff81168114151561573d5760006000fd5b5b50565b67ffffffffffffffff81168114151561575a5760006000fd5b5b50565bfea26469706673582212203a2c365fde225a63268550e86045bf9366747761776653af24bd26554e7d7cc064736f6c6343000706003360a06040523480156100115760006000fd5b505b3373ffffffffffffffffffffffffffffffffffffffff1660808173ffffffffffffffffffffffffffffffffffffffff1660601b815260140150505b610053565b60805160601c6104356100746000398060e652806101d152506104356000f3fe60806040523480156100115760006000fd5b506004361061003b5760003560e01c8063d1660f9914610041578063de9375f2146100b05761003b565b60006000fd5b6100ae600480360360608110156100585760006000fd5b81019080803573ffffffffffffffffffffffffffffffffffffffff169060200190929190803573ffffffffffffffffffffffffffffffffffffffff169060200190929190803590602001909291905050506100e4565b005b6100b86101cf565b604051808273ffffffffffffffffffffffffffffffffffffffff16815260200191505060405180910390f35b7f000000000000000000000000000000000000000000000000000000000000000073ffffffffffffffffffffffffffffffffffffffff163373ffffffffffffffffffffffffffffffffffffffff161415156101aa576040517f08c379a000000000000000000000000000000000000000000000000000000000815260040180806020018281038252600e8152602001807f4e6f7420417574686f72697a656400000000000000000000000000000000000081526020015060200191505060405180910390fd5b60008114156101b8576101ca565b6101c98383836101f363ffffffff16565b5b505050565b7f000000000000000000000000000000000000000000000000000000000000000081565b600060008473ffffffffffffffffffffffffffffffffffffffff1663a9059cbb60e01b8585604051602401808373ffffffffffffffffffffffffffffffffffffffff16815260200182815260200192505050604051602081830303815290604052907bffffffffffffffffffffffffffffffffffffffffffffffffffffffff19166020820180517bffffffffffffffffffffffffffffffffffffffffffffffffffffffff83818316178352505050506040518082805190602001908083835b6020831015156102d857805182525b6020820191506020810190506020830392506102b2565b6001836020036101000a0380198251168184511680821785525050505050509050019150506000604051808303816000865af19150503d806000811461033a576040519150601f19603f3d011682016040523d82523d6000602084013e61033f565b606091505b5091509150818015610380575060008151148061037f575080806020019051602081101561036d5760006000fd5b81019080805190602001909291905050505b5b15156103f7576040517f08c379a00000000000000000000000000000000000000000000000000000000081526004018080602001828103825260028152602001807f535400000000000000000000000000000000000000000000000000000000000081526020015060200191505060405180910390fd5b50505b50505056fea2646970667358221220a09fa674e24bee1d9e1df7bc0570046e4c432e836610f7a105a97cba2ac2d0cf64736f6c63430007060033",
  "linkReferences": {},
  "deployedLinkReferences": {}
}