{
  "_format": "hh-sol-artifact-1",
  "contractName": "TrustlessPyramidNft",
  "sourceName": "contracts/TrustlessPyramidNft.sol",
  "abi": [
    {
      "inputs": [],
      "stateMutability": "nonpayable",
      "type": "constructor"
    },
    {
      "anonymous": false,
      "inputs": [
        {
          "indexed": true,
          "internalType": "address",
          "name": "owner",
          "type": "address"
        },
        {
          "indexed": true,
          "internalType": "address",
          "name": "approved",
          "type": "address"
        },
        {
          "indexed": true,
          "internalType": "uint256",
          "name": "tokenId",
          "type": "uint256"
        }
      ],
      "name": "Approval",
      "type": "event"
    },
    {
      "anonymous": false,
      "inputs": [
        {
          "indexed": true,
          "internalType": "address",
          "name": "owner",
          "type": "address"
        },
        {
          "indexed": true,
          "internalType": "address",
          "name": "operator",
          "type": "address"
        },
        {
          "indexed": false,
          "internalType": "bool",
          "name": "approved",
          "type": "bool"
        }
      ],
      "name": "ApprovalForAll",
      "type": "event"
    },
    {
      "anonymous": false,
      "inputs": [
        {
          "indexed": true,
          "internalType": "address",
          "name": "from",
          "type": "address"
        },
        {
          "indexed": true,
          "internalType": "address",
          "name": "to",
          "type": "address"
        },
        {
          "indexed": true,
          "internalType": "uint256",
          "name": "tokenId",
          "type": "uint256"
        }
      ],
      "name": "Transfer",
      "type": "event"
    },
    {
      "inputs": [],
      "name": "MAX_MINT",
      "outputs": [
        {
          "internalType": "uint256",
          "name": "",
          "type": "uint256"
        }
      ],
      "stateMutability": "view",
      "type": "function"
    },
    {
      "inputs": [],
      "name": "MAX_SUPPLY",
      "outputs": [
        {
          "internalType": "uint256",
          "name": "",
          "type": "uint256"
        }
      ],
      "stateMutability": "view",
      "type": "function"
    },
    {
      "inputs": [
        {
          "internalType": "address",
          "name": "minter",
          "type": "address"
        }
      ],
      "name": "addMintAuth",
      "outputs": [],
      "stateMutability": "nonpayable",
      "type": "function"
    },
    {
      "inputs": [
        {
          "internalType": "address",
          "name": "to",
          "type": "address"
        },
        {
          "internalType": "uint256",
          "name": "tokenId",
          "type": "uint256"
        }
      ],
      "name": "approve",
      "outputs": [],
      "stateMutability": "nonpayable",
      "type": "function"
    },
    {
      "inputs": [
        {
          "internalType": "address",
          "name": "",
          "type": "address"
        }
      ],
      "name": "authorizedMinter",
      "outputs": [
        {
          "internalType": "bool",
          "name": "",
          "type": "bool"
        }
      ],
      "stateMutability": "view",
      "type": "function"
    },
    {
      "inputs": [
        {
          "internalType": "address",
          "name": "owner",
          "type": "address"
        }
      ],
      "name": "balanceOf",
      "outputs": [
        {
          "internalType": "uint256",
          "name": "",
          "type": "uint256"
        }
      ],
      "stateMutability": "view",
      "type": "function"
    },
    {
      "inputs": [],
      "name": "baseURI",
      "outputs": [
        {
          "internalType": "string",
          "name": "",
          "type": "string"
        }
      ],
      "stateMutability": "view",
      "type": "function"
    },
    {
      "inputs": [
        {
          "internalType": "uint256",
          "name": "tokenId",
          "type": "uint256"
        }
      ],
      "name": "getApproved",
      "outputs": [
        {
          "internalType": "address",
          "name": "",
          "type": "address"
        }
      ],
      "stateMutability": "view",
      "type": "function"
    },
    {
      "inputs": [],
      "name": "imageBaseURI",
      "outputs": [
        {
          "internalType": "string",
          "name": "",
          "type": "string"
        }
      ],
      "stateMutability": "view",
      "type": "function"
    },
    {
      "inputs": [
        {
          "internalType": "address",
          "name": "owner",
          "type": "address"
        },
        {
          "internalType": "address",
          "name": "operator",
          "type": "address"
        }
      ],
      "name": "isApprovedForAll",
      "outputs": [
        {
          "internalType": "bool",
          "name": "",
          "type": "bool"
        }
      ],
      "stateMutability": "view",
      "type": "function"
    },
    {
      "inputs": [
        {
          "internalType": "address",
          "name": "to",
          "type": "address"
        }
      ],
      "name": "mint",
      "outputs": [
        {
          "internalType": "uint256",
          "name": "tokenId",
          "type": "uint256"
        }
      ],
      "stateMutability": "nonpayable",
      "type": "function"
    },
    {
      "inputs": [],
      "name": "mintIsActive",
      "outputs": [
        {
          "internalType": "bool",
          "name": "",
          "type": "bool"
        }
      ],
      "stateMutability": "view",
      "type": "function"
    },
    {
      "inputs": [],
      "name": "name",
      "outputs": [
        {
          "internalType": "string",
          "name": "",
          "type": "string"
        }
      ],
      "stateMutability": "view",
      "type": "function"
    },
    {
      "inputs": [],
      "name": "nextTokenId",
      "outputs": [
        {
          "internalType": "uint256",
          "name": "",
          "type": "uint256"
        }
      ],
      "stateMutability": "view",
      "type": "function"
    },
    {
      "inputs": [],
      "name": "owner",
      "outputs": [
        {
          "internalType": "address",
          "name": "",
          "type": "address"
        }
      ],
      "stateMutability": "view",
      "type": "function"
    },
    {
      "inputs": [
        {
          "internalType": "uint256",
          "name": "tokenId",
          "type": "uint256"
        }
      ],
      "name": "ownerOf",
      "outputs": [
        {
          "internalType": "address",
          "name": "",
          "type": "address"
        }
      ],
      "stateMutability": "view",
      "type": "function"
    },
    {
      "inputs": [],
      "name": "price",
      "outputs": [
        {
          "internalType": "uint256",
          "name": "",
          "type": "uint256"
        }
      ],
      "stateMutability": "view",
      "type": "function"
    },
    {
      "inputs": [
        {
          "internalType": "uint256",
          "name": "mintCount",
          "type": "uint256"
        }
      ],
      "name": "publicMint",
      "outputs": [],
      "stateMutability": "payable",
      "type": "function"
    },
    {
      "inputs": [
        {
          "internalType": "address",
          "name": "minter",
          "type": "address"
        }
      ],
      "name": "removeMintAuth",
      "outputs": [],
      "stateMutability": "nonpayable",
      "type": "function"
    },
    {
      "inputs": [
        {
          "internalType": "uint256",
          "name": "reserveCount",
          "type": "uint256"
        }
      ],
      "name": "reserve",
      "outputs": [],
      "stateMutability": "nonpayable",
      "type": "function"
    },
    {
      "inputs": [
        {
          "internalType": "address",
          "name": "from",
          "type": "address"
        },
        {
          "internalType": "address",
          "name": "to",
          "type": "address"
        },
        {
          "internalType": "uint256",
          "name": "tokenId",
          "type": "uint256"
        }
      ],
      "name": "safeTransferFrom",
      "outputs": [],
      "stateMutability": "nonpayable",
      "type": "function"
    },
    {
      "inputs": [
        {
          "internalType": "address",
          "name": "from",
          "type": "address"
        },
        {
          "internalType": "address",
          "name": "to",
          "type": "address"
        },
        {
          "internalType": "uint256",
          "name": "tokenId",
          "type": "uint256"
        },
        {
          "internalType": "bytes",
          "name": "data",
          "type": "bytes"
        }
      ],
      "name": "safeTransferFrom",
      "outputs": [],
      "stateMutability": "nonpayable",
      "type": "function"
    },
    {
      "inputs": [
        {
          "internalType": "address",
          "name": "operator",
          "type": "address"
        },
        {
          "internalType": "bool",
          "name": "approved",
          "type": "bool"
        }
      ],
      "name": "setApprovalForAll",
      "outputs": [],
      "stateMutability": "nonpayable",
      "type": "function"
    },
    {
      "inputs": [
        {
          "internalType": "string",
          "name": "baseURI_",
          "type": "string"
        }
      ],
      "name": "setBaseURI",
      "outputs": [],
      "stateMutability": "nonpayable",
      "type": "function"
    },
    {
      "inputs": [
        {
          "internalType": "string",
          "name": "imageBaseURI_",
          "type": "string"
        }
      ],
      "name": "setImageBaseURI",
      "outputs": [],
      "stateMutability": "nonpayable",
      "type": "function"
    },
    {
      "inputs": [
        {
          "internalType": "uint256",
          "name": "_price",
          "type": "uint256"
        }
      ],
      "name": "setPrice",
      "outputs": [],
      "stateMutability": "nonpayable",
      "type": "function"
    },
    {
      "inputs": [],
      "name": "startMint",
      "outputs": [],
      "stateMutability": "nonpayable",
      "type": "function"
    },
    {
      "inputs": [],
      "name": "stopMint",
      "outputs": [],
      "stateMutability": "nonpayable",
      "type": "function"
    },
    {
      "inputs": [
        {
          "internalType": "bytes4",
          "name": "interfaceId",
          "type": "bytes4"
        }
      ],
      "name": "supportsInterface",
      "outputs": [
        {
          "internalType": "bool",
          "name": "",
          "type": "bool"
        }
      ],
      "stateMutability": "view",
      "type": "function"
    },
    {
      "inputs": [],
      "name": "symbol",
      "outputs": [
        {
          "internalType": "string",
          "name": "",
          "type": "string"
        }
      ],
      "stateMutability": "view",
      "type": "function"
    },
    {
      "inputs": [
        {
          "internalType": "uint256",
          "name": "index",
          "type": "uint256"
        }
      ],
      "name": "tokenByIndex",
      "outputs": [
        {
          "internalType": "uint256",
          "name": "",
          "type": "uint256"
        }
      ],
      "stateMutability": "view",
      "type": "function"
    },
    {
      "inputs": [
        {
          "internalType": "address",
          "name": "owner",
          "type": "address"
        },
        {
          "internalType": "uint256",
          "name": "index",
          "type": "uint256"
        }
      ],
      "name": "tokenOfOwnerByIndex",
      "outputs": [
        {
          "internalType": "uint256",
          "name": "",
          "type": "uint256"
        }
      ],
      "stateMutability": "view",
      "type": "function"
    },
    {
      "inputs": [
        {
          "internalType": "uint256",
          "name": "tokenId",
          "type": "uint256"
        }
      ],
      "name": "tokenURI",
      "outputs": [
        {
          "internalType": "string",
          "name": "",
          "type": "string"
        }
      ],
      "stateMutability": "view",
      "type": "function"
    },
    {
      "inputs": [],
      "name": "totalSupply",
      "outputs": [
        {
          "internalType": "uint256",
          "name": "",
          "type": "uint256"
        }
      ],
      "stateMutability": "view",
      "type": "function"
    },
    {
      "inputs": [
        {
          "internalType": "address",
          "name": "from",
          "type": "address"
        },
        {
          "internalType": "address",
          "name": "to",
          "type": "address"
        },
        {
          "internalType": "uint256",
          "name": "tokenId",
          "type": "uint256"
        }
      ],
      "name": "transferFrom",
      "outputs": [],
      "stateMutability": "nonpayable",
      "type": "function"
    },
    {
      "inputs": [],
      "name": "withdraw",
      "outputs": [],
      "stateMutability": "nonpayable",
      "type": "function"
    }
  ],
  "bytecode": "0x608060405267011c37937e080000600d556001600e60006101000a81548160ff0219169083151502179055503480156200003857600080fd5b506040518060400160405280601181526020017f54727573746c65737320507972616d69640000000000000000000000000000008152506040518060400160405280600281526020017f54500000000000000000000000000000000000000000000000000000000000008152508160009081620000b691906200038c565b508060019081620000c891906200038c565b50505033600b60006101000a81548173ffffffffffffffffffffffffffffffffffffffff021916908373ffffffffffffffffffffffffffffffffffffffff16021790555062000473565b600081519050919050565b7f4e487b7100000000000000000000000000000000000000000000000000000000600052604160045260246000fd5b7f4e487b7100000000000000000000000000000000000000000000000000000000600052602260045260246000fd5b600060028204905060018216806200019457607f821691505b602082108103620001aa57620001a96200014c565b5b50919050565b60008190508160005260206000209050919050565b60006020601f8301049050919050565b600082821b905092915050565b600060088302620002147fffffffffffffffffffffffffffffffffffffffffffffffffffffffffffffffff82620001d5565b620002208683620001d5565b95508019841693508086168417925050509392505050565b6000819050919050565b6000819050919050565b60006200026d62000267620002618462000238565b62000242565b62000238565b9050919050565b6000819050919050565b62000289836200024c565b620002a1620002988262000274565b848454620001e2565b825550505050565b600090565b620002b8620002a9565b620002c58184846200027e565b505050565b5b81811015620002ed57620002e1600082620002ae565b600181019050620002cb565b5050565b601f8211156200033c576200030681620001b0565b6200031184620001c5565b8101602085101562000321578190505b620003396200033085620001c5565b830182620002ca565b50505b505050565b600082821c905092915050565b6000620003616000198460080262000341565b1980831691505092915050565b60006200037c83836200034e565b9150826002028217905092915050565b620003978262000112565b67ffffffffffffffff811115620003b357620003b26200011d565b5b620003bf82546200017b565b620003cc828285620002f1565b600060209050601f831160018114620004045760008415620003ef578287015190505b620003fb85826200036e565b8655506200046b565b601f1984166200041486620001b0565b60005b828110156200043e5784890151825560018201915060208501945060208101905062000417565b868310156200045e57848901516200045a601f8916826200034e565b8355505b6001600288020188555050505b505050505050565b6143cf80620004836000396000f3fe60806040526004361061020f5760003560e01c80636cfa24cc11610118578063a035b1fe116100a0578063c87b56dd1161006f578063c87b56dd1461077a578063d5582965146107b7578063e985e9c5146107ce578063f0292a031461080b578063f9bdbc23146108365761020f565b8063a035b1fe146106d4578063a22cb465146106ff578063a26b71fe14610728578063b88d4fde146107515761020f565b8063819b25ba116100e7578063819b25ba14610603578063828bf4f11461062c5780638da5cb5b1461065557806391b7f5ed1461068057806395d89b41146106a95761020f565b80636cfa24cc1461054757806370a082311461057057806375794a3c146105ad57806377645839146105d85761020f565b806332cb6b0c1161019b5780634f6ccce71161016a5780634f6ccce71461043c57806355f804b3146104795780636352211e146104a25780636a627842146104df5780636c0360eb1461051c5761020f565b806332cb6b0c146103a65780633ccfd60b146103d157806342842e0e146103e8578063471a4294146104115761020f565b806318160ddd116101e257806318160ddd146102e257806323b872dd1461030d5780632be09561146103365780632db115441461034d5780632f745c59146103695761020f565b806301ffc9a71461021457806306fdde0314610251578063081812fc1461027c578063095ea7b3146102b9575b600080fd5b34801561022057600080fd5b5061023b60048036038101906102369190612c7a565b610873565b6040516102489190612cc2565b60405180910390f35b34801561025d57600080fd5b506102666108ed565b6040516102739190612d6d565b60405180910390f35b34801561028857600080fd5b506102a3600480360381019061029e9190612dc5565b61097f565b6040516102b09190612e33565b60405180910390f35b3480156102c557600080fd5b506102e060048036038101906102db9190612e7a565b6109c5565b005b3480156102ee57600080fd5b506102f7610adc565b6040516103049190612ec9565b60405180910390f35b34801561031957600080fd5b50610334600480360381019061032f9190612ee4565b610ae9565b005b34801561034257600080fd5b5061034b610b49565b005b61036760048036038101906103629190612dc5565b610c0f565b005b34801561037557600080fd5b50610390600480360381019061038b9190612e7a565b610d76565b60405161039d9190612ec9565b60405180910390f35b3480156103b257600080fd5b506103bb610e1b565b6040516103c89190612ec9565b60405180910390f35b3480156103dd57600080fd5b506103e6610e21565b005b3480156103f457600080fd5b5061040f600480360381019061040a9190612ee4565b610ec9565b005b34801561041d57600080fd5b50610426610ee9565b6040516104339190612cc2565b60405180910390f35b34801561044857600080fd5b50610463600480360381019061045e9190612dc5565b610efc565b6040516104709190612ec9565b60405180910390f35b34801561048557600080fd5b506104a0600480360381019061049b919061306c565b610f6d565b005b3480156104ae57600080fd5b506104c960048036038101906104c49190612dc5565b610fd9565b6040516104d69190612e33565b60405180910390f35b3480156104eb57600080fd5b50610506600480360381019061050191906130b5565b61108a565b6040516105139190612ec9565b60405180910390f35b34801561052857600080fd5b506105316110f1565b60405161053e9190612d6d565b60405180910390f35b34801561055357600080fd5b5061056e6004803603810190610569919061306c565b61117f565b005b34801561057c57600080fd5b50610597600480360381019061059291906130b5565b6111eb565b6040516105a49190612ec9565b60405180910390f35b3480156105b957600080fd5b506105c26112a2565b6040516105cf9190612ec9565b60405180910390f35b3480156105e457600080fd5b506105ed6112bf565b6040516105fa9190612d6d565b60405180910390f35b34801561060f57600080fd5b5061062a60048036038101906106259190612dc5565b61134d565b005b34801561063857600080fd5b50610653600480360381019061064e91906130b5565b6113d2565b005b34801561066157600080fd5b5061066a611512565b6040516106779190612e33565b60405180910390f35b34801561068c57600080fd5b506106a760048036038101906106a29190612dc5565b611538565b005b3480156106b557600080fd5b506106be61159b565b6040516106cb9190612d6d565b60405180910390f35b3480156106e057600080fd5b506106e961162d565b6040516106f69190612ec9565b60405180910390f35b34801561070b57600080fd5b506107266004803603810190610721919061310e565b611633565b005b34801561073457600080fd5b5061074f600480360381019061074a91906130b5565b611649565b005b34801561075d57600080fd5b50610778600480360381019061077391906131ef565b61178a565b005b34801561078657600080fd5b506107a1600480360381019061079c9190612dc5565b6117ec565b6040516107ae9190612d6d565b60405180910390f35b3480156107c357600080fd5b506107cc611854565b005b3480156107da57600080fd5b506107f560048036038101906107f09190613272565b611919565b6040516108029190612cc2565b60405180910390f35b34801561081757600080fd5b506108206119ad565b60405161082d9190612ec9565b60405180910390f35b34801561084257600080fd5b5061085d600480360381019061085891906130b5565b6119b2565b60405161086a9190612cc2565b60405180910390f35b60007f780e9d63000000000000000000000000000000000000000000000000000000007bffffffffffffffffffffffffffffffffffffffffffffffffffffffff1916827bffffffffffffffffffffffffffffffffffffffffffffffffffffffff191614806108e657506108e5826119d2565b5b9050919050565b6060600080546108fc906132e1565b80601f0160208091040260200160405190810160405280929190818152602001828054610928906132e1565b80156109755780601f1061094a57610100808354040283529160200191610975565b820191906000526020600020905b81548152906001019060200180831161095857829003601f168201915b5050505050905090565b600061098a82611ab4565b6004600083815260200190815260200160002060009054906101000a900473ffffffffffffffffffffffffffffffffffffffff169050919050565b60006109d082610fd9565b90508073ffffffffffffffffffffffffffffffffffffffff168373ffffffffffffffffffffffffffffffffffffffff1603610a40576040517f08c379a0000000000000000000000000000000000000000000000000000000008152600401610a3790613384565b60405180910390fd5b8073ffffffffffffffffffffffffffffffffffffffff16610a5f611aff565b73ffffffffffffffffffffffffffffffffffffffff161480610a8e5750610a8d81610a88611aff565b611919565b5b610acd576040517f08c379a0000000000000000000000000000000000000000000000000000000008152600401610ac490613416565b60405180910390fd5b610ad78383611b07565b505050565b6000600880549050905090565b610afa610af4611aff565b82611bc0565b610b39576040517f08c379a0000000000000000000000000000000000000000000000000000000008152600401610b30906134a8565b60405180910390fd5b610b44838383611c55565b505050565b610ba2600b60009054906101000a900473ffffffffffffffffffffffffffffffffffffffff1673ffffffffffffffffffffffffffffffffffffffff163373ffffffffffffffffffffffffffffffffffffffff1614611ebb565b600e60009054906101000a900460ff1615610bf2576040517f08c379a0000000000000000000000000000000000000000000000000000000008152600401610be990613514565b60405180910390fd5b6001600e60006101000a81548160ff021916908315150217905550565b600e60009054906101000a900460ff16610c5e576040517f08c379a0000000000000000000000000000000000000000000000000000000008152600401610c5590613580565b60405180910390fd5b60148110610ca1576040517f08c379a0000000000000000000000000000000000000000000000000000000008152600401610c98906135ec565b60405180910390fd5b6103e881610caf600a611efe565b610cb9919061363b565b1115610cfa576040517f08c379a0000000000000000000000000000000000000000000000000000000008152600401610cf1906136bb565b60405180910390fd5b3481600d54610d0991906136db565b1115610d4a576040517f08c379a0000000000000000000000000000000000000000000000000000000008152600401610d4190613781565b60405180910390fd5b60005b81811015610d7257610d5e33611f0c565b508080610d6a906137a1565b915050610d4d565b5050565b6000610d81836111eb565b8210610dc2576040517f08c379a0000000000000000000000000000000000000000000000000000000008152600401610db99061385b565b60405180910390fd5b600660008473ffffffffffffffffffffffffffffffffffffffff1673ffffffffffffffffffffffffffffffffffffffff168152602001908152602001600020600083815260200190815260200160002054905092915050565b6103e881565b610e7a600b60009054906101000a900473ffffffffffffffffffffffffffffffffffffffff1673ffffffffffffffffffffffffffffffffffffffff163373ffffffffffffffffffffffffffffffffffffffff1614611ebb565b60004790503373ffffffffffffffffffffffffffffffffffffffff166108fc829081150290604051600060405180830381858888f19350505050158015610ec5573d6000803e3d6000fd5b5050565b610ee48383836040518060200160405280600081525061178a565b505050565b600e60009054906101000a900460ff1681565b6000610f06610adc565b8210610f47576040517f08c379a0000000000000000000000000000000000000000000000000000000008152600401610f3e906138ed565b60405180910390fd5b60088281548110610f5b57610f5a61390d565b5b90600052602060002001549050919050565b610fc6600b60009054906101000a900473ffffffffffffffffffffffffffffffffffffffff1673ffffffffffffffffffffffffffffffffffffffff163373ffffffffffffffffffffffffffffffffffffffff1614611ebb565b80600f9081610fd59190613ae8565b5050565b6000806002600084815260200190815260200160002060009054906101000a900473ffffffffffffffffffffffffffffffffffffffff169050600073ffffffffffffffffffffffffffffffffffffffff168173ffffffffffffffffffffffffffffffffffffffff1603611081576040517f08c379a000000000000000000000000000000000000000000000000000000000815260040161107890613c06565b60405180910390fd5b80915050919050565b60006110e1600c60003373ffffffffffffffffffffffffffffffffffffffff1673ffffffffffffffffffffffffffffffffffffffff16815260200190815260200160002060009054906101000a900460ff16611ebb565b6110ea82611f0c565b9050919050565b600f80546110fe906132e1565b80601f016020809104026020016040519081016040528092919081815260200182805461112a906132e1565b80156111775780601f1061114c57610100808354040283529160200191611177565b820191906000526020600020905b81548152906001019060200180831161115a57829003601f168201915b505050505081565b6111d8600b60009054906101000a900473ffffffffffffffffffffffffffffffffffffffff1673ffffffffffffffffffffffffffffffffffffffff163373ffffffffffffffffffffffffffffffffffffffff1614611ebb565b80601090816111e79190613ae8565b5050565b60008073ffffffffffffffffffffffffffffffffffffffff168273ffffffffffffffffffffffffffffffffffffffff160361125b576040517f08c379a000000000000000000000000000000000000000000000000000000000815260040161125290613c98565b60405180910390fd5b600360008373ffffffffffffffffffffffffffffffffffffffff1673ffffffffffffffffffffffffffffffffffffffff168152602001908152602001600020549050919050565b600060016112b0600a611efe565b6112ba919061363b565b905090565b601080546112cc906132e1565b80601f01602080910402602001604051908101604052809291908181526020018280546112f8906132e1565b80156113455780601f1061131a57610100808354040283529160200191611345565b820191906000526020600020905b81548152906001019060200180831161132857829003601f168201915b505050505081565b6113a6600b60009054906101000a900473ffffffffffffffffffffffffffffffffffffffff1673ffffffffffffffffffffffffffffffffffffffff163373ffffffffffffffffffffffffffffffffffffffff1614611ebb565b60005b818110156113ce576113ba33611f0c565b5080806113c6906137a1565b9150506113a9565b5050565b61142b600b60009054906101000a900473ffffffffffffffffffffffffffffffffffffffff1673ffffffffffffffffffffffffffffffffffffffff163373ffffffffffffffffffffffffffffffffffffffff1614611ebb565b600c60008273ffffffffffffffffffffffffffffffffffffffff1673ffffffffffffffffffffffffffffffffffffffff16815260200190815260200160002060009054906101000a900460ff166114b7576040517f08c379a00000000000000000000000000000000000000000000000000000000081526004016114ae90613d04565b60405180910390fd5b6000600c60008373ffffffffffffffffffffffffffffffffffffffff1673ffffffffffffffffffffffffffffffffffffffff16815260200190815260200160002060006101000a81548160ff02191690831515021790555050565b600b60009054906101000a900473ffffffffffffffffffffffffffffffffffffffff1681565b611591600b60009054906101000a900473ffffffffffffffffffffffffffffffffffffffff1673ffffffffffffffffffffffffffffffffffffffff163373ffffffffffffffffffffffffffffffffffffffff1614611ebb565b80600d8190555050565b6060600180546115aa906132e1565b80601f01602080910402602001604051908101604052809291908181526020018280546115d6906132e1565b80156116235780601f106115f857610100808354040283529160200191611623565b820191906000526020600020905b81548152906001019060200180831161160657829003601f168201915b5050505050905090565b600d5481565b61164561163e611aff565b8383611f4a565b5050565b6116a2600b60009054906101000a900473ffffffffffffffffffffffffffffffffffffffff1673ffffffffffffffffffffffffffffffffffffffff163373ffffffffffffffffffffffffffffffffffffffff1614611ebb565b600c60008273ffffffffffffffffffffffffffffffffffffffff1673ffffffffffffffffffffffffffffffffffffffff16815260200190815260200160002060009054906101000a900460ff161561172f576040517f08c379a000000000000000000000000000000000000000000000000000000000815260040161172690613d70565b60405180910390fd5b6001600c60008373ffffffffffffffffffffffffffffffffffffffff1673ffffffffffffffffffffffffffffffffffffffff16815260200190815260200160002060006101000a81548160ff02191690831515021790555050565b61179b611795611aff565b83611bc0565b6117da576040517f08c379a00000000000000000000000000000000000000000000000000000000081526004016117d1906134a8565b60405180910390fd5b6117e6848484846120b6565b50505050565b60606117f782611ab4565b6000611801612112565b90506000815111611821576040518060200160405280600081525061184c565b8061182b846121a4565b60405160200161183c929190613dcc565b6040516020818303038152906040525b915050919050565b6118ad600b60009054906101000a900473ffffffffffffffffffffffffffffffffffffffff1673ffffffffffffffffffffffffffffffffffffffff163373ffffffffffffffffffffffffffffffffffffffff1614611ebb565b600e60009054906101000a900460ff166118fc576040517f08c379a00000000000000000000000000000000000000000000000000000000081526004016118f390613e3c565b60405180910390fd5b6000600e60006101000a81548160ff021916908315150217905550565b6000600560008473ffffffffffffffffffffffffffffffffffffffff1673ffffffffffffffffffffffffffffffffffffffff16815260200190815260200160002060008373ffffffffffffffffffffffffffffffffffffffff1673ffffffffffffffffffffffffffffffffffffffff16815260200190815260200160002060009054906101000a900460ff16905092915050565b601481565b600c6020528060005260406000206000915054906101000a900460ff1681565b60007f80ac58cd000000000000000000000000000000000000000000000000000000007bffffffffffffffffffffffffffffffffffffffffffffffffffffffff1916827bffffffffffffffffffffffffffffffffffffffffffffffffffffffff19161480611a9d57507f5b5e139f000000000000000000000000000000000000000000000000000000007bffffffffffffffffffffffffffffffffffffffffffffffffffffffff1916827bffffffffffffffffffffffffffffffffffffffffffffffffffffffff1916145b80611aad5750611aac82612304565b5b9050919050565b611abd8161236e565b611afc576040517f08c379a0000000000000000000000000000000000000000000000000000000008152600401611af390613c06565b60405180910390fd5b50565b600033905090565b816004600083815260200190815260200160002060006101000a81548173ffffffffffffffffffffffffffffffffffffffff021916908373ffffffffffffffffffffffffffffffffffffffff160217905550808273ffffffffffffffffffffffffffffffffffffffff16611b7a83610fd9565b73ffffffffffffffffffffffffffffffffffffffff167f8c5be1e5ebec7d5bd14f71427d1e84f3dd0314c0f7b2291e5b200ac8c7c3b92560405160405180910390a45050565b600080611bcc83610fd9565b90508073ffffffffffffffffffffffffffffffffffffffff168473ffffffffffffffffffffffffffffffffffffffff161480611c0e5750611c0d8185611919565b5b80611c4c57508373ffffffffffffffffffffffffffffffffffffffff16611c348461097f565b73ffffffffffffffffffffffffffffffffffffffff16145b91505092915050565b8273ffffffffffffffffffffffffffffffffffffffff16611c7582610fd9565b73ffffffffffffffffffffffffffffffffffffffff1614611ccb576040517f08c379a0000000000000000000000000000000000000000000000000000000008152600401611cc290613ece565b60405180910390fd5b600073ffffffffffffffffffffffffffffffffffffffff168273ffffffffffffffffffffffffffffffffffffffff1603611d3a576040517f08c379a0000000000000000000000000000000000000000000000000000000008152600401611d3190613f60565b60405180910390fd5b611d458383836123da565b611d50600082611b07565b6001600360008573ffffffffffffffffffffffffffffffffffffffff1673ffffffffffffffffffffffffffffffffffffffff1681526020019081526020016000206000828254611da09190613f80565b925050819055506001600360008473ffffffffffffffffffffffffffffffffffffffff1673ffffffffffffffffffffffffffffffffffffffff1681526020019081526020016000206000828254611df7919061363b565b92505081905550816002600083815260200190815260200160002060006101000a81548173ffffffffffffffffffffffffffffffffffffffff021916908373ffffffffffffffffffffffffffffffffffffffff160217905550808273ffffffffffffffffffffffffffffffffffffffff168473ffffffffffffffffffffffffffffffffffffffff167fddf252ad1be2c89b69c2b068fc378daa952ba7f163c4a11628f55a4df523b3ef60405160405180910390a4611eb68383836124ec565b505050565b80611efb576040517f08c379a0000000000000000000000000000000000000000000000000000000008152600401611ef290614000565b60405180910390fd5b50565b600081600001549050919050565b60006103e8611f1b600a611efe565b10611f2557600080fd5b611f2f600a6124f1565b611f39600a611efe565b9050611f458282612507565b919050565b8173ffffffffffffffffffffffffffffffffffffffff168373ffffffffffffffffffffffffffffffffffffffff1603611fb8576040517f08c379a0000000000000000000000000000000000000000000000000000000008152600401611faf9061406c565b60405180910390fd5b80600560008573ffffffffffffffffffffffffffffffffffffffff1673ffffffffffffffffffffffffffffffffffffffff16815260200190815260200160002060008473ffffffffffffffffffffffffffffffffffffffff1673ffffffffffffffffffffffffffffffffffffffff16815260200190815260200160002060006101000a81548160ff0219169083151502179055508173ffffffffffffffffffffffffffffffffffffffff168373ffffffffffffffffffffffffffffffffffffffff167f17307eab39ab6107e8899845ad3d59bd9653f200f220920489ca2b5937696c31836040516120a99190612cc2565b60405180910390a3505050565b6120c1848484611c55565b6120cd84848484612525565b61210c576040517f08c379a0000000000000000000000000000000000000000000000000000000008152600401612103906140fe565b60405180910390fd5b50505050565b6060600f8054612121906132e1565b80601f016020809104026020016040519081016040528092919081815260200182805461214d906132e1565b801561219a5780601f1061216f5761010080835404028352916020019161219a565b820191906000526020600020905b81548152906001019060200180831161217d57829003601f168201915b5050505050905090565b6060600082036121eb576040518060400160405280600181526020017f300000000000000000000000000000000000000000000000000000000000000081525090506122ff565b600082905060005b6000821461221d578080612206906137a1565b915050600a82612216919061414d565b91506121f3565b60008167ffffffffffffffff81111561223957612238612f41565b5b6040519080825280601f01601f19166020018201604052801561226b5781602001600182028036833780820191505090505b5090505b600085146122f8576001826122849190613f80565b9150600a85612293919061417e565b603061229f919061363b565b60f81b8183815181106122b5576122b461390d565b5b60200101907effffffffffffffffffffffffffffffffffffffffffffffffffffffffffffff1916908160001a905350600a856122f1919061414d565b945061226f565b8093505050505b919050565b60007f01ffc9a7000000000000000000000000000000000000000000000000000000007bffffffffffffffffffffffffffffffffffffffffffffffffffffffff1916827bffffffffffffffffffffffffffffffffffffffffffffffffffffffff1916149050919050565b60008073ffffffffffffffffffffffffffffffffffffffff166002600084815260200190815260200160002060009054906101000a900473ffffffffffffffffffffffffffffffffffffffff1673ffffffffffffffffffffffffffffffffffffffff1614159050919050565b6123e58383836126ac565b600073ffffffffffffffffffffffffffffffffffffffff168373ffffffffffffffffffffffffffffffffffffffff160361242757612422816126b1565b612466565b8173ffffffffffffffffffffffffffffffffffffffff168373ffffffffffffffffffffffffffffffffffffffff16146124655761246483826126fa565b5b5b600073ffffffffffffffffffffffffffffffffffffffff168273ffffffffffffffffffffffffffffffffffffffff16036124a8576124a381612867565b6124e7565b8273ffffffffffffffffffffffffffffffffffffffff168273ffffffffffffffffffffffffffffffffffffffff16146124e6576124e58282612938565b5b5b505050565b505050565b6001816000016000828254019250508190555050565b6125218282604051806020016040528060008152506129b7565b5050565b60006125468473ffffffffffffffffffffffffffffffffffffffff16612a12565b1561269f578373ffffffffffffffffffffffffffffffffffffffff1663150b7a0261256f611aff565b8786866040518563ffffffff1660e01b81526004016125919493929190614204565b6020604051808303816000875af19250505080156125cd57506040513d601f19601f820116820180604052508101906125ca9190614265565b60015b61264f573d80600081146125fd576040519150601f19603f3d011682016040523d82523d6000602084013e612602565b606091505b506000815103612647576040517f08c379a000000000000000000000000000000000000000000000000000000000815260040161263e906140fe565b60405180910390fd5b805181602001fd5b63150b7a0260e01b7bffffffffffffffffffffffffffffffffffffffffffffffffffffffff1916817bffffffffffffffffffffffffffffffffffffffffffffffffffffffff1916149150506126a4565b600190505b949350505050565b505050565b6008805490506009600083815260200190815260200160002081905550600881908060018154018082558091505060019003906000526020600020016000909190919091505550565b60006001612707846111eb565b6127119190613f80565b90506000600760008481526020019081526020016000205490508181146127f6576000600660008673ffffffffffffffffffffffffffffffffffffffff1673ffffffffffffffffffffffffffffffffffffffff168152602001908152602001600020600084815260200190815260200160002054905080600660008773ffffffffffffffffffffffffffffffffffffffff1673ffffffffffffffffffffffffffffffffffffffff168152602001908152602001600020600084815260200190815260200160002081905550816007600083815260200190815260200160002081905550505b6007600084815260200190815260200160002060009055600660008573ffffffffffffffffffffffffffffffffffffffff1673ffffffffffffffffffffffffffffffffffffffff16815260200190815260200160002060008381526020019081526020016000206000905550505050565b6000600160088054905061287b9190613f80565b90506000600960008481526020019081526020016000205490506000600883815481106128ab576128aa61390d565b5b9060005260206000200154905080600883815481106128cd576128cc61390d565b5b90600052602060002001819055508160096000838152602001908152602001600020819055506009600085815260200190815260200160002060009055600880548061291c5761291b614292565b5b6001900381819060005260206000200160009055905550505050565b6000612943836111eb565b905081600660008573ffffffffffffffffffffffffffffffffffffffff1673ffffffffffffffffffffffffffffffffffffffff168152602001908152602001600020600083815260200190815260200160002081905550806007600084815260200190815260200160002081905550505050565b6129c18383612a35565b6129ce6000848484612525565b612a0d576040517f08c379a0000000000000000000000000000000000000000000000000000000008152600401612a04906140fe565b60405180910390fd5b505050565b6000808273ffffffffffffffffffffffffffffffffffffffff163b119050919050565b600073ffffffffffffffffffffffffffffffffffffffff168273ffffffffffffffffffffffffffffffffffffffff1603612aa4576040517f08c379a0000000000000000000000000000000000000000000000000000000008152600401612a9b9061430d565b60405180910390fd5b612aad8161236e565b15612aed576040517f08c379a0000000000000000000000000000000000000000000000000000000008152600401612ae490614379565b60405180910390fd5b612af9600083836123da565b6001600360008473ffffffffffffffffffffffffffffffffffffffff1673ffffffffffffffffffffffffffffffffffffffff1681526020019081526020016000206000828254612b49919061363b565b92505081905550816002600083815260200190815260200160002060006101000a81548173ffffffffffffffffffffffffffffffffffffffff021916908373ffffffffffffffffffffffffffffffffffffffff160217905550808273ffffffffffffffffffffffffffffffffffffffff16600073ffffffffffffffffffffffffffffffffffffffff167fddf252ad1be2c89b69c2b068fc378daa952ba7f163c4a11628f55a4df523b3ef60405160405180910390a4612c0a600083836124ec565b5050565b6000604051905090565b600080fd5b600080fd5b60007fffffffff0000000000000000000000000000000000000000000000000000000082169050919050565b612c5781612c22565b8114612c6257600080fd5b50565b600081359050612c7481612c4e565b92915050565b600060208284031215612c9057612c8f612c18565b5b6000612c9e84828501612c65565b91505092915050565b60008115159050919050565b612cbc81612ca7565b82525050565b6000602082019050612cd76000830184612cb3565b92915050565b600081519050919050565b600082825260208201905092915050565b60005b83811015612d17578082015181840152602081019050612cfc565b60008484015250505050565b6000601f19601f8301169050919050565b6000612d3f82612cdd565b612d498185612ce8565b9350612d59818560208601612cf9565b612d6281612d23565b840191505092915050565b60006020820190508181036000830152612d878184612d34565b905092915050565b6000819050919050565b612da281612d8f565b8114612dad57600080fd5b50565b600081359050612dbf81612d99565b92915050565b600060208284031215612ddb57612dda612c18565b5b6000612de984828501612db0565b91505092915050565b600073ffffffffffffffffffffffffffffffffffffffff82169050919050565b6000612e1d82612df2565b9050919050565b612e2d81612e12565b82525050565b6000602082019050612e486000830184612e24565b92915050565b612e5781612e12565b8114612e6257600080fd5b50565b600081359050612e7481612e4e565b92915050565b60008060408385031215612e9157612e90612c18565b5b6000612e9f85828601612e65565b9250506020612eb085828601612db0565b9150509250929050565b612ec381612d8f565b82525050565b6000602082019050612ede6000830184612eba565b92915050565b600080600060608486031215612efd57612efc612c18565b5b6000612f0b86828701612e65565b9350506020612f1c86828701612e65565b9250506040612f2d86828701612db0565b9150509250925092565b600080fd5b600080fd5b7f4e487b7100000000000000000000000000000000000000000000000000000000600052604160045260246000fd5b612f7982612d23565b810181811067ffffffffffffffff82111715612f9857612f97612f41565b5b80604052505050565b6000612fab612c0e565b9050612fb78282612f70565b919050565b600067ffffffffffffffff821115612fd757612fd6612f41565b5b612fe082612d23565b9050602081019050919050565b82818337600083830152505050565b600061300f61300a84612fbc565b612fa1565b90508281526020810184848401111561302b5761302a612f3c565b5b613036848285612fed565b509392505050565b600082601f83011261305357613052612f37565b5b8135613063848260208601612ffc565b91505092915050565b60006020828403121561308257613081612c18565b5b600082013567ffffffffffffffff8111156130a05761309f612c1d565b5b6130ac8482850161303e565b91505092915050565b6000602082840312156130cb576130ca612c18565b5b60006130d984828501612e65565b91505092915050565b6130eb81612ca7565b81146130f657600080fd5b50565b600081359050613108816130e2565b92915050565b6000806040838503121561312557613124612c18565b5b600061313385828601612e65565b9250506020613144858286016130f9565b9150509250929050565b600067ffffffffffffffff82111561316957613168612f41565b5b61317282612d23565b9050602081019050919050565b600061319261318d8461314e565b612fa1565b9050828152602081018484840111156131ae576131ad612f3c565b5b6131b9848285612fed565b509392505050565b600082601f8301126131d6576131d5612f37565b5b81356131e684826020860161317f565b91505092915050565b6000806000806080858703121561320957613208612c18565b5b600061321787828801612e65565b945050602061322887828801612e65565b935050604061323987828801612db0565b925050606085013567ffffffffffffffff81111561325a57613259612c1d565b5b613266878288016131c1565b91505092959194509250565b6000806040838503121561328957613288612c18565b5b600061329785828601612e65565b92505060206132a885828601612e65565b9150509250929050565b7f4e487b7100000000000000000000000000000000000000000000000000000000600052602260045260246000fd5b600060028204905060018216806132f957607f821691505b60208210810361330c5761330b6132b2565b5b50919050565b7f4552433732313a20617070726f76616c20746f2063757272656e74206f776e6560008201527f7200000000000000000000000000000000000000000000000000000000000000602082015250565b600061336e602183612ce8565b915061337982613312565b604082019050919050565b6000602082019050818103600083015261339d81613361565b9050919050565b7f4552433732313a20617070726f76652063616c6c6572206973206e6f7420746f60008201527f6b656e206f776e6572206e6f7220617070726f76656420666f7220616c6c0000602082015250565b6000613400603e83612ce8565b915061340b826133a4565b604082019050919050565b6000602082019050818103600083015261342f816133f3565b9050919050565b7f4552433732313a2063616c6c6572206973206e6f7420746f6b656e206f776e6560008201527f72206e6f7220617070726f766564000000000000000000000000000000000000602082015250565b6000613492602e83612ce8565b915061349d82613436565b604082019050919050565b600060208201905081810360008301526134c181613485565b9050919050565b7f4d696e7420616c72656164792073746172746564000000000000000000000000600082015250565b60006134fe601483612ce8565b9150613509826134c8565b602082019050919050565b6000602082019050818103600083015261352d816134f1565b9050919050565b7f4d696e74696e67206973206e6f74206163746976652e00000000000000000000600082015250565b600061356a601683612ce8565b915061357582613534565b602082019050919050565b600060208201905081810360008301526135998161355d565b9050919050565b7f43616e206f6e6c79206d696e7420323020617420612074696d652e0000000000600082015250565b60006135d6601b83612ce8565b91506135e1826135a0565b602082019050919050565b60006020820190508181036000830152613605816135c9565b9050919050565b7f4e487b7100000000000000000000000000000000000000000000000000000000600052601160045260246000fd5b600061364682612d8f565b915061365183612d8f565b92508282019050808211156136695761366861360c565b5b92915050565b7f4d696e7420776f756c6420657863656564206d617820737570706c792e000000600082015250565b60006136a5601d83612ce8565b91506136b08261366f565b602082019050919050565b600060208201905081810360008301526136d481613698565b9050919050565b60006136e682612d8f565b91506136f183612d8f565b9250817fffffffffffffffffffffffffffffffffffffffffffffffffffffffffffffffff048311821515161561372a5761372961360c565b5b828202905092915050565b7f45746865722076616c75652073656e7420697320746f6f206c6f772e00000000600082015250565b600061376b601c83612ce8565b915061377682613735565b602082019050919050565b6000602082019050818103600083015261379a8161375e565b9050919050565b60006137ac82612d8f565b91507fffffffffffffffffffffffffffffffffffffffffffffffffffffffffffffffff82036137de576137dd61360c565b5b600182019050919050565b7f455243373231456e756d657261626c653a206f776e657220696e646578206f7560008201527f74206f6620626f756e6473000000000000000000000000000000000000000000602082015250565b6000613845602b83612ce8565b9150613850826137e9565b604082019050919050565b6000602082019050818103600083015261387481613838565b9050919050565b7f455243373231456e756d657261626c653a20676c6f62616c20696e646578206f60008201527f7574206f6620626f756e64730000000000000000000000000000000000000000602082015250565b60006138d7602c83612ce8565b91506138e28261387b565b604082019050919050565b60006020820190508181036000830152613906816138ca565b9050919050565b7f4e487b7100000000000000000000000000000000000000000000000000000000600052603260045260246000fd5b60008190508160005260206000209050919050565b60006020601f8301049050919050565b600082821b905092915050565b60006008830261399e7fffffffffffffffffffffffffffffffffffffffffffffffffffffffffffffffff82613961565b6139a88683613961565b95508019841693508086168417925050509392505050565b6000819050919050565b60006139e56139e06139db84612d8f565b6139c0565b612d8f565b9050919050565b6000819050919050565b6139ff836139ca565b613a13613a0b826139ec565b84845461396e565b825550505050565b600090565b613a28613a1b565b613a338184846139f6565b505050565b5b81811015613a5757613a4c600082613a20565b600181019050613a39565b5050565b601f821115613a9c57613a6d8161393c565b613a7684613951565b81016020851015613a85578190505b613a99613a9185613951565b830182613a38565b50505b505050565b600082821c905092915050565b6000613abf60001984600802613aa1565b1980831691505092915050565b6000613ad88383613aae565b9150826002028217905092915050565b613af182612cdd565b67ffffffffffffffff811115613b0a57613b09612f41565b5b613b1482546132e1565b613b1f828285613a5b565b600060209050601f831160018114613b525760008415613b40578287015190505b613b4a8582613acc565b865550613bb2565b601f198416613b608661393c565b60005b82811015613b8857848901518255600182019150602085019450602081019050613b63565b86831015613ba55784890151613ba1601f891682613aae565b8355505b6001600288020188555050505b505050505050565b7f4552433732313a20696e76616c696420746f6b656e2049440000000000000000600082015250565b6000613bf0601883612ce8565b9150613bfb82613bba565b602082019050919050565b60006020820190508181036000830152613c1f81613be3565b9050919050565b7f4552433732313a2061646472657373207a65726f206973206e6f74206120766160008201527f6c6964206f776e65720000000000000000000000000000000000000000000000602082015250565b6000613c82602983612ce8565b9150613c8d82613c26565b604082019050919050565b60006020820190508181036000830152613cb181613c75565b9050919050565b7f4d696e746572206e6f7420617574686f72697a65640000000000000000000000600082015250565b6000613cee601583612ce8565b9150613cf982613cb8565b602082019050919050565b60006020820190508181036000830152613d1d81613ce1565b9050919050565b7f4d696e74657220616c726561647920617574686f72697a656400000000000000600082015250565b6000613d5a601983612ce8565b9150613d6582613d24565b602082019050919050565b60006020820190508181036000830152613d8981613d4d565b9050919050565b600081905092915050565b6000613da682612cdd565b613db08185613d90565b9350613dc0818560208601612cf9565b80840191505092915050565b6000613dd88285613d9b565b9150613de48284613d9b565b91508190509392505050565b7f4d696e7420616c72656164792073746f70706564000000000000000000000000600082015250565b6000613e26601483612ce8565b9150613e3182613df0565b602082019050919050565b60006020820190508181036000830152613e5581613e19565b9050919050565b7f4552433732313a207472616e736665722066726f6d20696e636f72726563742060008201527f6f776e6572000000000000000000000000000000000000000000000000000000602082015250565b6000613eb8602583612ce8565b9150613ec382613e5c565b604082019050919050565b60006020820190508181036000830152613ee781613eab565b9050919050565b7f4552433732313a207472616e7366657220746f20746865207a65726f2061646460008201527f7265737300000000000000000000000000000000000000000000000000000000602082015250565b6000613f4a602483612ce8565b9150613f5582613eee565b604082019050919050565b60006020820190508181036000830152613f7981613f3d565b9050919050565b6000613f8b82612d8f565b9150613f9683612d8f565b9250828203905081811115613fae57613fad61360c565b5b92915050565b7f4e6f7420617574686f72697a6564000000000000000000000000000000000000600082015250565b6000613fea600e83612ce8565b9150613ff582613fb4565b602082019050919050565b6000602082019050818103600083015261401981613fdd565b9050919050565b7f4552433732313a20617070726f766520746f2063616c6c657200000000000000600082015250565b6000614056601983612ce8565b915061406182614020565b602082019050919050565b6000602082019050818103600083015261408581614049565b9050919050565b7f4552433732313a207472616e7366657220746f206e6f6e20455243373231526560008201527f63656976657220696d706c656d656e7465720000000000000000000000000000602082015250565b60006140e8603283612ce8565b91506140f38261408c565b604082019050919050565b60006020820190508181036000830152614117816140db565b9050919050565b7f4e487b7100000000000000000000000000000000000000000000000000000000600052601260045260246000fd5b600061415882612d8f565b915061416383612d8f565b9250826141735761417261411e565b5b828204905092915050565b600061418982612d8f565b915061419483612d8f565b9250826141a4576141a361411e565b5b828206905092915050565b600081519050919050565b600082825260208201905092915050565b60006141d6826141af565b6141e081856141ba565b93506141f0818560208601612cf9565b6141f981612d23565b840191505092915050565b60006080820190506142196000830187612e24565b6142266020830186612e24565b6142336040830185612eba565b818103606083015261424581846141cb565b905095945050505050565b60008151905061425f81612c4e565b92915050565b60006020828403121561427b5761427a612c18565b5b600061428984828501614250565b91505092915050565b7f4e487b7100000000000000000000000000000000000000000000000000000000600052603160045260246000fd5b7f4552433732313a206d696e7420746f20746865207a65726f2061646472657373600082015250565b60006142f7602083612ce8565b9150614302826142c1565b602082019050919050565b60006020820190508181036000830152614326816142ea565b9050919050565b7f4552433732313a20746f6b656e20616c7265616479206d696e74656400000000600082015250565b6000614363601c83612ce8565b915061436e8261432d565b602082019050919050565b6000602082019050818103600083015261439281614356565b905091905056fea264697066735822122004f149bad81aeb02d390c5606ded3ddb38e2c6f8f410bf563ab747a953c6cb7564736f6c63430008100033",
  "linkReferences": {},
  "deployedLinkReferences": {}
}