{
  "_format": "hh-sol-artifact-1",
  "contractName": "TrustlessPyramidNft",
  "sourceName": "contracts/TrustlessPyramidNft.sol",
  "abi": [
    {
      "inputs": [],
      "stateMutability": "nonpayable",
      "type": "constructor"
    },
    {
      "anonymous": false,
      "inputs": [
        {
          "indexed": true,
          "internalType": "address",
          "name": "owner",
          "type": "address"
        },
        {
          "indexed": true,
          "internalType": "address",
          "name": "approved",
          "type": "address"
        },
        {
          "indexed": true,
          "internalType": "uint256",
          "name": "tokenId",
          "type": "uint256"
        }
      ],
      "name": "Approval",
      "type": "event"
    },
    {
      "anonymous": false,
      "inputs": [
        {
          "indexed": true,
          "internalType": "address",
          "name": "owner",
          "type": "address"
        },
        {
          "indexed": true,
          "internalType": "address",
          "name": "operator",
          "type": "address"
        },
        {
          "indexed": false,
          "internalType": "bool",
          "name": "approved",
          "type": "bool"
        }
      ],
      "name": "ApprovalForAll",
      "type": "event"
    },
    {
      "anonymous": false,
      "inputs": [
        {
          "indexed": true,
          "internalType": "address",
          "name": "from",
          "type": "address"
        },
        {
          "indexed": true,
          "internalType": "address",
          "name": "to",
          "type": "address"
        },
        {
          "indexed": true,
          "internalType": "uint256",
          "name": "tokenId",
          "type": "uint256"
        }
      ],
      "name": "Transfer",
      "type": "event"
    },
    {
      "inputs": [],
      "name": "MAX_MINT",
      "outputs": [
        {
          "internalType": "uint256",
          "name": "",
          "type": "uint256"
        }
      ],
      "stateMutability": "view",
      "type": "function"
    },
    {
      "inputs": [],
      "name": "MAX_SUPPLY",
      "outputs": [
        {
          "internalType": "uint256",
          "name": "",
          "type": "uint256"
        }
      ],
      "stateMutability": "view",
      "type": "function"
    },
    {
      "inputs": [
        {
          "internalType": "address",
          "name": "to",
          "type": "address"
        },
        {
          "internalType": "uint256",
          "name": "tokenId",
          "type": "uint256"
        }
      ],
      "name": "approve",
      "outputs": [],
      "stateMutability": "nonpayable",
      "type": "function"
    },
    {
      "inputs": [
        {
          "internalType": "address",
          "name": "owner",
          "type": "address"
        }
      ],
      "name": "balanceOf",
      "outputs": [
        {
          "internalType": "uint256",
          "name": "",
          "type": "uint256"
        }
      ],
      "stateMutability": "view",
      "type": "function"
    },
    {
      "inputs": [],
      "name": "baseURI",
      "outputs": [
        {
          "internalType": "string",
          "name": "",
          "type": "string"
        }
      ],
      "stateMutability": "view",
      "type": "function"
    },
    {
      "inputs": [
        {
          "internalType": "uint256",
          "name": "tokenId",
          "type": "uint256"
        }
      ],
      "name": "getApproved",
      "outputs": [
        {
          "internalType": "address",
          "name": "",
          "type": "address"
        }
      ],
      "stateMutability": "view",
      "type": "function"
    },
    {
      "inputs": [
        {
          "internalType": "address",
          "name": "owner",
          "type": "address"
        },
        {
          "internalType": "address",
          "name": "operator",
          "type": "address"
        }
      ],
      "name": "isApprovedForAll",
      "outputs": [
        {
          "internalType": "bool",
          "name": "",
          "type": "bool"
        }
      ],
      "stateMutability": "view",
      "type": "function"
    },
    {
      "inputs": [
        {
          "internalType": "uint256",
          "name": "mintCount",
          "type": "uint256"
        }
      ],
      "name": "mint",
      "outputs": [],
      "stateMutability": "payable",
      "type": "function"
    },
    {
      "inputs": [],
      "name": "mintIsActive",
      "outputs": [
        {
          "internalType": "bool",
          "name": "",
          "type": "bool"
        }
      ],
      "stateMutability": "view",
      "type": "function"
    },
    {
      "inputs": [],
      "name": "name",
      "outputs": [
        {
          "internalType": "string",
          "name": "",
          "type": "string"
        }
      ],
      "stateMutability": "view",
      "type": "function"
    },
    {
      "inputs": [],
      "name": "nextTokenId",
      "outputs": [
        {
          "internalType": "uint256",
          "name": "",
          "type": "uint256"
        }
      ],
      "stateMutability": "view",
      "type": "function"
    },
    {
      "inputs": [],
      "name": "owner",
      "outputs": [
        {
          "internalType": "address",
          "name": "",
          "type": "address"
        }
      ],
      "stateMutability": "view",
      "type": "function"
    },
    {
      "inputs": [
        {
          "internalType": "uint256",
          "name": "tokenId",
          "type": "uint256"
        }
      ],
      "name": "ownerOf",
      "outputs": [
        {
          "internalType": "address",
          "name": "",
          "type": "address"
        }
      ],
      "stateMutability": "view",
      "type": "function"
    },
    {
      "inputs": [],
      "name": "price",
      "outputs": [
        {
          "internalType": "uint256",
          "name": "",
          "type": "uint256"
        }
      ],
      "stateMutability": "view",
      "type": "function"
    },
    {
      "inputs": [
        {
          "internalType": "uint256",
          "name": "reserveCount",
          "type": "uint256"
        }
      ],
      "name": "reserve",
      "outputs": [],
      "stateMutability": "nonpayable",
      "type": "function"
    },
    {
      "inputs": [
        {
          "internalType": "address",
          "name": "from",
          "type": "address"
        },
        {
          "internalType": "address",
          "name": "to",
          "type": "address"
        },
        {
          "internalType": "uint256",
          "name": "tokenId",
          "type": "uint256"
        }
      ],
      "name": "safeTransferFrom",
      "outputs": [],
      "stateMutability": "nonpayable",
      "type": "function"
    },
    {
      "inputs": [
        {
          "internalType": "address",
          "name": "from",
          "type": "address"
        },
        {
          "internalType": "address",
          "name": "to",
          "type": "address"
        },
        {
          "internalType": "uint256",
          "name": "tokenId",
          "type": "uint256"
        },
        {
          "internalType": "bytes",
          "name": "data",
          "type": "bytes"
        }
      ],
      "name": "safeTransferFrom",
      "outputs": [],
      "stateMutability": "nonpayable",
      "type": "function"
    },
    {
      "inputs": [
        {
          "internalType": "address",
          "name": "operator",
          "type": "address"
        },
        {
          "internalType": "bool",
          "name": "approved",
          "type": "bool"
        }
      ],
      "name": "setApprovalForAll",
      "outputs": [],
      "stateMutability": "nonpayable",
      "type": "function"
    },
    {
      "inputs": [
        {
          "internalType": "string",
          "name": "baseURI_",
          "type": "string"
        }
      ],
      "name": "setBaseURI",
      "outputs": [],
      "stateMutability": "nonpayable",
      "type": "function"
    },
    {
      "inputs": [
        {
          "internalType": "uint256",
          "name": "_price",
          "type": "uint256"
        }
      ],
      "name": "setPrice",
      "outputs": [],
      "stateMutability": "nonpayable",
      "type": "function"
    },
    {
      "inputs": [],
      "name": "startMint",
      "outputs": [],
      "stateMutability": "nonpayable",
      "type": "function"
    },
    {
      "inputs": [],
      "name": "stopMint",
      "outputs": [],
      "stateMutability": "nonpayable",
      "type": "function"
    },
    {
      "inputs": [
        {
          "internalType": "bytes4",
          "name": "interfaceId",
          "type": "bytes4"
        }
      ],
      "name": "supportsInterface",
      "outputs": [
        {
          "internalType": "bool",
          "name": "",
          "type": "bool"
        }
      ],
      "stateMutability": "view",
      "type": "function"
    },
    {
      "inputs": [],
      "name": "symbol",
      "outputs": [
        {
          "internalType": "string",
          "name": "",
          "type": "string"
        }
      ],
      "stateMutability": "view",
      "type": "function"
    },
    {
      "inputs": [
        {
          "internalType": "uint256",
          "name": "tokenId",
          "type": "uint256"
        }
      ],
      "name": "tokenURI",
      "outputs": [
        {
          "internalType": "string",
          "name": "",
          "type": "string"
        }
      ],
      "stateMutability": "view",
      "type": "function"
    },
    {
      "inputs": [
        {
          "internalType": "address",
          "name": "from",
          "type": "address"
        },
        {
          "internalType": "address",
          "name": "to",
          "type": "address"
        },
        {
          "internalType": "uint256",
          "name": "tokenId",
          "type": "uint256"
        }
      ],
      "name": "transferFrom",
      "outputs": [],
      "stateMutability": "nonpayable",
      "type": "function"
    },
    {
      "inputs": [],
      "name": "withdraw",
      "outputs": [],
      "stateMutability": "nonpayable",
      "type": "function"
    }
  ],
  "bytecode": "0x608060405267011c37937e0800006008556001600960006101000a81548160ff0219169083151502179055503480156200003857600080fd5b506040518060400160405280601581526020017f54727573746c65737320507972616d6964204e465400000000000000000000008152506040518060400160405280600381526020017f54504e00000000000000000000000000000000000000000000000000000000008152508160009081620000b691906200038c565b508060019081620000c891906200038c565b50505033600760006101000a81548173ffffffffffffffffffffffffffffffffffffffff021916908373ffffffffffffffffffffffffffffffffffffffff16021790555062000473565b600081519050919050565b7f4e487b7100000000000000000000000000000000000000000000000000000000600052604160045260246000fd5b7f4e487b7100000000000000000000000000000000000000000000000000000000600052602260045260246000fd5b600060028204905060018216806200019457607f821691505b602082108103620001aa57620001a96200014c565b5b50919050565b60008190508160005260206000209050919050565b60006020601f8301049050919050565b600082821b905092915050565b600060088302620002147fffffffffffffffffffffffffffffffffffffffffffffffffffffffffffffffff82620001d5565b620002208683620001d5565b95508019841693508086168417925050509392505050565b6000819050919050565b6000819050919050565b60006200026d62000267620002618462000238565b62000242565b62000238565b9050919050565b6000819050919050565b62000289836200024c565b620002a1620002988262000274565b848454620001e2565b825550505050565b600090565b620002b8620002a9565b620002c58184846200027e565b505050565b5b81811015620002ed57620002e1600082620002ae565b600181019050620002cb565b5050565b601f8211156200033c576200030681620001b0565b6200031184620001c5565b8101602085101562000321578190505b620003396200033085620001c5565b830182620002ca565b50505b505050565b600082821c905092915050565b6000620003616000198460080262000341565b1980831691505092915050565b60006200037c83836200034e565b9150826002028217905092915050565b620003978262000112565b67ffffffffffffffff811115620003b357620003b26200011d565b5b620003bf82546200017b565b620003cc828285620002f1565b600060209050601f831160018114620004045760008415620003ef578287015190505b620003fb85826200036e565b8655506200046b565b601f1984166200041486620001b0565b60005b828110156200043e5784890151825560018201915060208501945060208101905062000417565b868310156200045e57848901516200045a601f8916826200034e565b8355505b6001600288020188555050505b505050505050565b6135ab80620004836000396000f3fe60806040526004361061019c5760003560e01c806370a08231116100ec578063a0712d681161008a578063c87b56dd11610064578063c87b56dd1461057f578063d5582965146105bc578063e985e9c5146105d3578063f0292a03146106105761019c565b8063a0712d6814610511578063a22cb4651461052d578063b88d4fde146105565761019c565b80638da5cb5b116100c65780638da5cb5b1461046757806391b7f5ed1461049257806395d89b41146104bb578063a035b1fe146104e65761019c565b806370a08231146103d657806375794a3c14610413578063819b25ba1461043e5761019c565b806332cb6b0c11610159578063471a429411610133578063471a42941461031a57806355f804b3146103455780636352211e1461036e5780636c0360eb146103ab5761019c565b806332cb6b0c146102af5780633ccfd60b146102da57806342842e0e146102f15761019c565b806301ffc9a7146101a157806306fdde03146101de578063081812fc14610209578063095ea7b31461024657806323b872dd1461026f5780632be0956114610298575b600080fd5b3480156101ad57600080fd5b506101c860048036038101906101c39190612081565b61063b565b6040516101d591906120c9565b60405180910390f35b3480156101ea57600080fd5b506101f361071d565b6040516102009190612174565b60405180910390f35b34801561021557600080fd5b50610230600480360381019061022b91906121cc565b6107af565b60405161023d919061223a565b60405180910390f35b34801561025257600080fd5b5061026d60048036038101906102689190612281565b6107f5565b005b34801561027b57600080fd5b50610296600480360381019061029191906122c1565b61090c565b005b3480156102a457600080fd5b506102ad61096c565b005b3480156102bb57600080fd5b506102c4610a32565b6040516102d19190612323565b60405180910390f35b3480156102e657600080fd5b506102ef610a38565b005b3480156102fd57600080fd5b50610318600480360381019061031391906122c1565b610ae0565b005b34801561032657600080fd5b5061032f610b00565b60405161033c91906120c9565b60405180910390f35b34801561035157600080fd5b5061036c60048036038101906103679190612473565b610b13565b005b34801561037a57600080fd5b50610395600480360381019061039091906121cc565b610b7f565b6040516103a2919061223a565b60405180910390f35b3480156103b757600080fd5b506103c0610c30565b6040516103cd9190612174565b60405180910390f35b3480156103e257600080fd5b506103fd60048036038101906103f891906124bc565b610cbe565b60405161040a9190612323565b60405180910390f35b34801561041f57600080fd5b50610428610d75565b6040516104359190612323565b60405180910390f35b34801561044a57600080fd5b50610465600480360381019061046091906121cc565b610d92565b005b34801561047357600080fd5b5061047c610e16565b604051610489919061223a565b60405180910390f35b34801561049e57600080fd5b506104b960048036038101906104b491906121cc565b610e3c565b005b3480156104c757600080fd5b506104d0610e9f565b6040516104dd9190612174565b60405180910390f35b3480156104f257600080fd5b506104fb610f31565b6040516105089190612323565b60405180910390f35b61052b600480360381019061052691906121cc565b610f37565b005b34801561053957600080fd5b50610554600480360381019061054f9190612515565b61109c565b005b34801561056257600080fd5b5061057d600480360381019061057891906125f6565b6110b2565b005b34801561058b57600080fd5b506105a660048036038101906105a191906121cc565b611114565b6040516105b39190612174565b60405180910390f35b3480156105c857600080fd5b506105d161117c565b005b3480156105df57600080fd5b506105fa60048036038101906105f59190612679565b611241565b60405161060791906120c9565b60405180910390f35b34801561061c57600080fd5b506106256112d5565b6040516106329190612323565b60405180910390f35b60007f80ac58cd000000000000000000000000000000000000000000000000000000007bffffffffffffffffffffffffffffffffffffffffffffffffffffffff1916827bffffffffffffffffffffffffffffffffffffffffffffffffffffffff1916148061070657507f5b5e139f000000000000000000000000000000000000000000000000000000007bffffffffffffffffffffffffffffffffffffffffffffffffffffffff1916827bffffffffffffffffffffffffffffffffffffffffffffffffffffffff1916145b806107165750610715826112da565b5b9050919050565b60606000805461072c906126e8565b80601f0160208091040260200160405190810160405280929190818152602001828054610758906126e8565b80156107a55780601f1061077a576101008083540402835291602001916107a5565b820191906000526020600020905b81548152906001019060200180831161078857829003601f168201915b5050505050905090565b60006107ba82611344565b6004600083815260200190815260200160002060009054906101000a900473ffffffffffffffffffffffffffffffffffffffff169050919050565b600061080082610b7f565b90508073ffffffffffffffffffffffffffffffffffffffff168373ffffffffffffffffffffffffffffffffffffffff1603610870576040517f08c379a00000000000000000000000000000000000000000000000000000000081526004016108679061278b565b60405180910390fd5b8073ffffffffffffffffffffffffffffffffffffffff1661088f61138f565b73ffffffffffffffffffffffffffffffffffffffff1614806108be57506108bd816108b861138f565b611241565b5b6108fd576040517f08c379a00000000000000000000000000000000000000000000000000000000081526004016108f49061281d565b60405180910390fd5b6109078383611397565b505050565b61091d61091761138f565b82611450565b61095c576040517f08c379a0000000000000000000000000000000000000000000000000000000008152600401610953906128af565b60405180910390fd5b6109678383836114e5565b505050565b6109c5600760009054906101000a900473ffffffffffffffffffffffffffffffffffffffff1673ffffffffffffffffffffffffffffffffffffffff163373ffffffffffffffffffffffffffffffffffffffff161461174b565b600960009054906101000a900460ff1615610a15576040517f08c379a0000000000000000000000000000000000000000000000000000000008152600401610a0c9061291b565b60405180910390fd5b6001600960006101000a81548160ff021916908315150217905550565b6103e881565b610a91600760009054906101000a900473ffffffffffffffffffffffffffffffffffffffff1673ffffffffffffffffffffffffffffffffffffffff163373ffffffffffffffffffffffffffffffffffffffff161461174b565b60004790503373ffffffffffffffffffffffffffffffffffffffff166108fc829081150290604051600060405180830381858888f19350505050158015610adc573d6000803e3d6000fd5b5050565b610afb838383604051806020016040528060008152506110b2565b505050565b600960009054906101000a900460ff1681565b610b6c600760009054906101000a900473ffffffffffffffffffffffffffffffffffffffff1673ffffffffffffffffffffffffffffffffffffffff163373ffffffffffffffffffffffffffffffffffffffff161461174b565b80600a9081610b7b9190612ae7565b5050565b6000806002600084815260200190815260200160002060009054906101000a900473ffffffffffffffffffffffffffffffffffffffff169050600073ffffffffffffffffffffffffffffffffffffffff168173ffffffffffffffffffffffffffffffffffffffff1603610c27576040517f08c379a0000000000000000000000000000000000000000000000000000000008152600401610c1e90612c05565b60405180910390fd5b80915050919050565b600a8054610c3d906126e8565b80601f0160208091040260200160405190810160405280929190818152602001828054610c69906126e8565b8015610cb65780601f10610c8b57610100808354040283529160200191610cb6565b820191906000526020600020905b815481529060010190602001808311610c9957829003601f168201915b505050505081565b60008073ffffffffffffffffffffffffffffffffffffffff168273ffffffffffffffffffffffffffffffffffffffff1603610d2e576040517f08c379a0000000000000000000000000000000000000000000000000000000008152600401610d2590612c97565b60405180910390fd5b600360008373ffffffffffffffffffffffffffffffffffffffff1673ffffffffffffffffffffffffffffffffffffffff168152602001908152602001600020549050919050565b60006001610d83600661178e565b610d8d9190612ce6565b905090565b610deb600760009054906101000a900473ffffffffffffffffffffffffffffffffffffffff1673ffffffffffffffffffffffffffffffffffffffff163373ffffffffffffffffffffffffffffffffffffffff161461174b565b60005b81811015610e1257610dff3361179c565b8080610e0a90612d1a565b915050610dee565b5050565b600760009054906101000a900473ffffffffffffffffffffffffffffffffffffffff1681565b610e95600760009054906101000a900473ffffffffffffffffffffffffffffffffffffffff1673ffffffffffffffffffffffffffffffffffffffff163373ffffffffffffffffffffffffffffffffffffffff161461174b565b8060088190555050565b606060018054610eae906126e8565b80601f0160208091040260200160405190810160405280929190818152602001828054610eda906126e8565b8015610f275780601f10610efc57610100808354040283529160200191610f27565b820191906000526020600020905b815481529060010190602001808311610f0a57829003601f168201915b5050505050905090565b60085481565b600960009054906101000a900460ff16610f86576040517f08c379a0000000000000000000000000000000000000000000000000000000008152600401610f7d90612dae565b60405180910390fd5b60148110610fc9576040517f08c379a0000000000000000000000000000000000000000000000000000000008152600401610fc090612e1a565b60405180910390fd5b601481610fd6600661178e565b610fe09190612ce6565b1115611021576040517f08c379a000000000000000000000000000000000000000000000000000000000815260040161101890612e86565b60405180910390fd5b34816008546110309190612ea6565b1115611071576040517f08c379a000000000000000000000000000000000000000000000000000000000815260040161106890612f4c565b60405180910390fd5b60005b81811015611098576110853361179c565b808061109090612d1a565b915050611074565b5050565b6110ae6110a761138f565b83836117d3565b5050565b6110c36110bd61138f565b83611450565b611102576040517f08c379a00000000000000000000000000000000000000000000000000000000081526004016110f9906128af565b60405180910390fd5b61110e8484848461193f565b50505050565b606061111f82611344565b600061112961199b565b905060008151116111495760405180602001604052806000815250611174565b8061115384611a2d565b604051602001611164929190612fa8565b6040516020818303038152906040525b915050919050565b6111d5600760009054906101000a900473ffffffffffffffffffffffffffffffffffffffff1673ffffffffffffffffffffffffffffffffffffffff163373ffffffffffffffffffffffffffffffffffffffff161461174b565b600960009054906101000a900460ff16611224576040517f08c379a000000000000000000000000000000000000000000000000000000000815260040161121b90613018565b60405180910390fd5b6000600960006101000a81548160ff021916908315150217905550565b6000600560008473ffffffffffffffffffffffffffffffffffffffff1673ffffffffffffffffffffffffffffffffffffffff16815260200190815260200160002060008373ffffffffffffffffffffffffffffffffffffffff1673ffffffffffffffffffffffffffffffffffffffff16815260200190815260200160002060009054906101000a900460ff16905092915050565b601481565b60007f01ffc9a7000000000000000000000000000000000000000000000000000000007bffffffffffffffffffffffffffffffffffffffffffffffffffffffff1916827bffffffffffffffffffffffffffffffffffffffffffffffffffffffff1916149050919050565b61134d81611b8d565b61138c576040517f08c379a000000000000000000000000000000000000000000000000000000000815260040161138390612c05565b60405180910390fd5b50565b600033905090565b816004600083815260200190815260200160002060006101000a81548173ffffffffffffffffffffffffffffffffffffffff021916908373ffffffffffffffffffffffffffffffffffffffff160217905550808273ffffffffffffffffffffffffffffffffffffffff1661140a83610b7f565b73ffffffffffffffffffffffffffffffffffffffff167f8c5be1e5ebec7d5bd14f71427d1e84f3dd0314c0f7b2291e5b200ac8c7c3b92560405160405180910390a45050565b60008061145c83610b7f565b90508073ffffffffffffffffffffffffffffffffffffffff168473ffffffffffffffffffffffffffffffffffffffff16148061149e575061149d8185611241565b5b806114dc57508373ffffffffffffffffffffffffffffffffffffffff166114c4846107af565b73ffffffffffffffffffffffffffffffffffffffff16145b91505092915050565b8273ffffffffffffffffffffffffffffffffffffffff1661150582610b7f565b73ffffffffffffffffffffffffffffffffffffffff161461155b576040517f08c379a0000000000000000000000000000000000000000000000000000000008152600401611552906130aa565b60405180910390fd5b600073ffffffffffffffffffffffffffffffffffffffff168273ffffffffffffffffffffffffffffffffffffffff16036115ca576040517f08c379a00000000000000000000000000000000000000000000000000000000081526004016115c19061313c565b60405180910390fd5b6115d5838383611bf9565b6115e0600082611397565b6001600360008573ffffffffffffffffffffffffffffffffffffffff1673ffffffffffffffffffffffffffffffffffffffff1681526020019081526020016000206000828254611630919061315c565b925050819055506001600360008473ffffffffffffffffffffffffffffffffffffffff1673ffffffffffffffffffffffffffffffffffffffff16815260200190815260200160002060008282546116879190612ce6565b92505081905550816002600083815260200190815260200160002060006101000a81548173ffffffffffffffffffffffffffffffffffffffff021916908373ffffffffffffffffffffffffffffffffffffffff160217905550808273ffffffffffffffffffffffffffffffffffffffff168473ffffffffffffffffffffffffffffffffffffffff167fddf252ad1be2c89b69c2b068fc378daa952ba7f163c4a11628f55a4df523b3ef60405160405180910390a4611746838383611bfe565b505050565b8061178b576040517f08c379a0000000000000000000000000000000000000000000000000000000008152600401611782906131dc565b60405180910390fd5b50565b600081600001549050919050565b6103e86117a9600661178e565b106117b357600080fd5b6117bd6006611c03565b6117d0816117cb600661178e565b611c19565b50565b8173ffffffffffffffffffffffffffffffffffffffff168373ffffffffffffffffffffffffffffffffffffffff1603611841576040517f08c379a000000000000000000000000000000000000000000000000000000000815260040161183890613248565b60405180910390fd5b80600560008573ffffffffffffffffffffffffffffffffffffffff1673ffffffffffffffffffffffffffffffffffffffff16815260200190815260200160002060008473ffffffffffffffffffffffffffffffffffffffff1673ffffffffffffffffffffffffffffffffffffffff16815260200190815260200160002060006101000a81548160ff0219169083151502179055508173ffffffffffffffffffffffffffffffffffffffff168373ffffffffffffffffffffffffffffffffffffffff167f17307eab39ab6107e8899845ad3d59bd9653f200f220920489ca2b5937696c318360405161193291906120c9565b60405180910390a3505050565b61194a8484846114e5565b61195684848484611c37565b611995576040517f08c379a000000000000000000000000000000000000000000000000000000000815260040161198c906132da565b60405180910390fd5b50505050565b6060600a80546119aa906126e8565b80601f01602080910402602001604051908101604052809291908181526020018280546119d6906126e8565b8015611a235780601f106119f857610100808354040283529160200191611a23565b820191906000526020600020905b815481529060010190602001808311611a0657829003601f168201915b5050505050905090565b606060008203611a74576040518060400160405280600181526020017f30000000000000000000000000000000000000000000000000000000000000008152509050611b88565b600082905060005b60008214611aa6578080611a8f90612d1a565b915050600a82611a9f9190613329565b9150611a7c565b60008167ffffffffffffffff811115611ac257611ac1612348565b5b6040519080825280601f01601f191660200182016040528015611af45781602001600182028036833780820191505090505b5090505b60008514611b8157600182611b0d919061315c565b9150600a85611b1c919061335a565b6030611b289190612ce6565b60f81b818381518110611b3e57611b3d61338b565b5b60200101907effffffffffffffffffffffffffffffffffffffffffffffffffffffffffffff1916908160001a905350600a85611b7a9190613329565b9450611af8565b8093505050505b919050565b60008073ffffffffffffffffffffffffffffffffffffffff166002600084815260200190815260200160002060009054906101000a900473ffffffffffffffffffffffffffffffffffffffff1673ffffffffffffffffffffffffffffffffffffffff1614159050919050565b505050565b505050565b6001816000016000828254019250508190555050565b611c33828260405180602001604052806000815250611dbe565b5050565b6000611c588473ffffffffffffffffffffffffffffffffffffffff16611e19565b15611db1578373ffffffffffffffffffffffffffffffffffffffff1663150b7a02611c8161138f565b8786866040518563ffffffff1660e01b8152600401611ca3949392919061340f565b6020604051808303816000875af1925050508015611cdf57506040513d601f19601f82011682018060405250810190611cdc9190613470565b60015b611d61573d8060008114611d0f576040519150601f19603f3d011682016040523d82523d6000602084013e611d14565b606091505b506000815103611d59576040517f08c379a0000000000000000000000000000000000000000000000000000000008152600401611d50906132da565b60405180910390fd5b805181602001fd5b63150b7a0260e01b7bffffffffffffffffffffffffffffffffffffffffffffffffffffffff1916817bffffffffffffffffffffffffffffffffffffffffffffffffffffffff191614915050611db6565b600190505b949350505050565b611dc88383611e3c565b611dd56000848484611c37565b611e14576040517f08c379a0000000000000000000000000000000000000000000000000000000008152600401611e0b906132da565b60405180910390fd5b505050565b6000808273ffffffffffffffffffffffffffffffffffffffff163b119050919050565b600073ffffffffffffffffffffffffffffffffffffffff168273ffffffffffffffffffffffffffffffffffffffff1603611eab576040517f08c379a0000000000000000000000000000000000000000000000000000000008152600401611ea2906134e9565b60405180910390fd5b611eb481611b8d565b15611ef4576040517f08c379a0000000000000000000000000000000000000000000000000000000008152600401611eeb90613555565b60405180910390fd5b611f0060008383611bf9565b6001600360008473ffffffffffffffffffffffffffffffffffffffff1673ffffffffffffffffffffffffffffffffffffffff1681526020019081526020016000206000828254611f509190612ce6565b92505081905550816002600083815260200190815260200160002060006101000a81548173ffffffffffffffffffffffffffffffffffffffff021916908373ffffffffffffffffffffffffffffffffffffffff160217905550808273ffffffffffffffffffffffffffffffffffffffff16600073ffffffffffffffffffffffffffffffffffffffff167fddf252ad1be2c89b69c2b068fc378daa952ba7f163c4a11628f55a4df523b3ef60405160405180910390a461201160008383611bfe565b5050565b6000604051905090565b600080fd5b600080fd5b60007fffffffff0000000000000000000000000000000000000000000000000000000082169050919050565b61205e81612029565b811461206957600080fd5b50565b60008135905061207b81612055565b92915050565b6000602082840312156120975761209661201f565b5b60006120a58482850161206c565b91505092915050565b60008115159050919050565b6120c3816120ae565b82525050565b60006020820190506120de60008301846120ba565b92915050565b600081519050919050565b600082825260208201905092915050565b60005b8381101561211e578082015181840152602081019050612103565b60008484015250505050565b6000601f19601f8301169050919050565b6000612146826120e4565b61215081856120ef565b9350612160818560208601612100565b6121698161212a565b840191505092915050565b6000602082019050818103600083015261218e818461213b565b905092915050565b6000819050919050565b6121a981612196565b81146121b457600080fd5b50565b6000813590506121c6816121a0565b92915050565b6000602082840312156121e2576121e161201f565b5b60006121f0848285016121b7565b91505092915050565b600073ffffffffffffffffffffffffffffffffffffffff82169050919050565b6000612224826121f9565b9050919050565b61223481612219565b82525050565b600060208201905061224f600083018461222b565b92915050565b61225e81612219565b811461226957600080fd5b50565b60008135905061227b81612255565b92915050565b600080604083850312156122985761229761201f565b5b60006122a68582860161226c565b92505060206122b7858286016121b7565b9150509250929050565b6000806000606084860312156122da576122d961201f565b5b60006122e88682870161226c565b93505060206122f98682870161226c565b925050604061230a868287016121b7565b9150509250925092565b61231d81612196565b82525050565b60006020820190506123386000830184612314565b92915050565b600080fd5b600080fd5b7f4e487b7100000000000000000000000000000000000000000000000000000000600052604160045260246000fd5b6123808261212a565b810181811067ffffffffffffffff8211171561239f5761239e612348565b5b80604052505050565b60006123b2612015565b90506123be8282612377565b919050565b600067ffffffffffffffff8211156123de576123dd612348565b5b6123e78261212a565b9050602081019050919050565b82818337600083830152505050565b6000612416612411846123c3565b6123a8565b90508281526020810184848401111561243257612431612343565b5b61243d8482856123f4565b509392505050565b600082601f83011261245a5761245961233e565b5b813561246a848260208601612403565b91505092915050565b6000602082840312156124895761248861201f565b5b600082013567ffffffffffffffff8111156124a7576124a6612024565b5b6124b384828501612445565b91505092915050565b6000602082840312156124d2576124d161201f565b5b60006124e08482850161226c565b91505092915050565b6124f2816120ae565b81146124fd57600080fd5b50565b60008135905061250f816124e9565b92915050565b6000806040838503121561252c5761252b61201f565b5b600061253a8582860161226c565b925050602061254b85828601612500565b9150509250929050565b600067ffffffffffffffff8211156125705761256f612348565b5b6125798261212a565b9050602081019050919050565b600061259961259484612555565b6123a8565b9050828152602081018484840111156125b5576125b4612343565b5b6125c08482856123f4565b509392505050565b600082601f8301126125dd576125dc61233e565b5b81356125ed848260208601612586565b91505092915050565b600080600080608085870312156126105761260f61201f565b5b600061261e8782880161226c565b945050602061262f8782880161226c565b9350506040612640878288016121b7565b925050606085013567ffffffffffffffff81111561266157612660612024565b5b61266d878288016125c8565b91505092959194509250565b600080604083850312156126905761268f61201f565b5b600061269e8582860161226c565b92505060206126af8582860161226c565b9150509250929050565b7f4e487b7100000000000000000000000000000000000000000000000000000000600052602260045260246000fd5b6000600282049050600182168061270057607f821691505b602082108103612713576127126126b9565b5b50919050565b7f4552433732313a20617070726f76616c20746f2063757272656e74206f776e6560008201527f7200000000000000000000000000000000000000000000000000000000000000602082015250565b60006127756021836120ef565b915061278082612719565b604082019050919050565b600060208201905081810360008301526127a481612768565b9050919050565b7f4552433732313a20617070726f76652063616c6c6572206973206e6f7420746f60008201527f6b656e206f776e6572206e6f7220617070726f76656420666f7220616c6c0000602082015250565b6000612807603e836120ef565b9150612812826127ab565b604082019050919050565b60006020820190508181036000830152612836816127fa565b9050919050565b7f4552433732313a2063616c6c6572206973206e6f7420746f6b656e206f776e6560008201527f72206e6f7220617070726f766564000000000000000000000000000000000000602082015250565b6000612899602e836120ef565b91506128a48261283d565b604082019050919050565b600060208201905081810360008301526128c88161288c565b9050919050565b7f4d696e7420616c72656164792073746172746564000000000000000000000000600082015250565b60006129056014836120ef565b9150612910826128cf565b602082019050919050565b60006020820190508181036000830152612934816128f8565b9050919050565b60008190508160005260206000209050919050565b60006020601f8301049050919050565b600082821b905092915050565b60006008830261299d7fffffffffffffffffffffffffffffffffffffffffffffffffffffffffffffffff82612960565b6129a78683612960565b95508019841693508086168417925050509392505050565b6000819050919050565b60006129e46129df6129da84612196565b6129bf565b612196565b9050919050565b6000819050919050565b6129fe836129c9565b612a12612a0a826129eb565b84845461296d565b825550505050565b600090565b612a27612a1a565b612a328184846129f5565b505050565b5b81811015612a5657612a4b600082612a1f565b600181019050612a38565b5050565b601f821115612a9b57612a6c8161293b565b612a7584612950565b81016020851015612a84578190505b612a98612a9085612950565b830182612a37565b50505b505050565b600082821c905092915050565b6000612abe60001984600802612aa0565b1980831691505092915050565b6000612ad78383612aad565b9150826002028217905092915050565b612af0826120e4565b67ffffffffffffffff811115612b0957612b08612348565b5b612b1382546126e8565b612b1e828285612a5a565b600060209050601f831160018114612b515760008415612b3f578287015190505b612b498582612acb565b865550612bb1565b601f198416612b5f8661293b565b60005b82811015612b8757848901518255600182019150602085019450602081019050612b62565b86831015612ba45784890151612ba0601f891682612aad565b8355505b6001600288020188555050505b505050505050565b7f4552433732313a20696e76616c696420746f6b656e2049440000000000000000600082015250565b6000612bef6018836120ef565b9150612bfa82612bb9565b602082019050919050565b60006020820190508181036000830152612c1e81612be2565b9050919050565b7f4552433732313a2061646472657373207a65726f206973206e6f74206120766160008201527f6c6964206f776e65720000000000000000000000000000000000000000000000602082015250565b6000612c816029836120ef565b9150612c8c82612c25565b604082019050919050565b60006020820190508181036000830152612cb081612c74565b9050919050565b7f4e487b7100000000000000000000000000000000000000000000000000000000600052601160045260246000fd5b6000612cf182612196565b9150612cfc83612196565b9250828201905080821115612d1457612d13612cb7565b5b92915050565b6000612d2582612196565b91507fffffffffffffffffffffffffffffffffffffffffffffffffffffffffffffffff8203612d5757612d56612cb7565b5b600182019050919050565b7f4d696e74696e67206973206e6f74206163746976652e00000000000000000000600082015250565b6000612d986016836120ef565b9150612da382612d62565b602082019050919050565b60006020820190508181036000830152612dc781612d8b565b9050919050565b7f43616e206f6e6c79206d696e7420323020617420612074696d652e0000000000600082015250565b6000612e04601b836120ef565b9150612e0f82612dce565b602082019050919050565b60006020820190508181036000830152612e3381612df7565b9050919050565b7f4d696e7420776f756c6420657863656564206d617820737570706c792e000000600082015250565b6000612e70601d836120ef565b9150612e7b82612e3a565b602082019050919050565b60006020820190508181036000830152612e9f81612e63565b9050919050565b6000612eb182612196565b9150612ebc83612196565b9250817fffffffffffffffffffffffffffffffffffffffffffffffffffffffffffffffff0483118215151615612ef557612ef4612cb7565b5b828202905092915050565b7f45746865722076616c75652073656e7420697320746f6f206c6f772e00000000600082015250565b6000612f36601c836120ef565b9150612f4182612f00565b602082019050919050565b60006020820190508181036000830152612f6581612f29565b9050919050565b600081905092915050565b6000612f82826120e4565b612f8c8185612f6c565b9350612f9c818560208601612100565b80840191505092915050565b6000612fb48285612f77565b9150612fc08284612f77565b91508190509392505050565b7f4d696e7420616c72656164792073746f70706564000000000000000000000000600082015250565b60006130026014836120ef565b915061300d82612fcc565b602082019050919050565b6000602082019050818103600083015261303181612ff5565b9050919050565b7f4552433732313a207472616e736665722066726f6d20696e636f72726563742060008201527f6f776e6572000000000000000000000000000000000000000000000000000000602082015250565b60006130946025836120ef565b915061309f82613038565b604082019050919050565b600060208201905081810360008301526130c381613087565b9050919050565b7f4552433732313a207472616e7366657220746f20746865207a65726f2061646460008201527f7265737300000000000000000000000000000000000000000000000000000000602082015250565b60006131266024836120ef565b9150613131826130ca565b604082019050919050565b6000602082019050818103600083015261315581613119565b9050919050565b600061316782612196565b915061317283612196565b925082820390508181111561318a57613189612cb7565b5b92915050565b7f4e6f7420617574686f72697a6564000000000000000000000000000000000000600082015250565b60006131c6600e836120ef565b91506131d182613190565b602082019050919050565b600060208201905081810360008301526131f5816131b9565b9050919050565b7f4552433732313a20617070726f766520746f2063616c6c657200000000000000600082015250565b60006132326019836120ef565b915061323d826131fc565b602082019050919050565b6000602082019050818103600083015261326181613225565b9050919050565b7f4552433732313a207472616e7366657220746f206e6f6e20455243373231526560008201527f63656976657220696d706c656d656e7465720000000000000000000000000000602082015250565b60006132c46032836120ef565b91506132cf82613268565b604082019050919050565b600060208201905081810360008301526132f3816132b7565b9050919050565b7f4e487b7100000000000000000000000000000000000000000000000000000000600052601260045260246000fd5b600061333482612196565b915061333f83612196565b92508261334f5761334e6132fa565b5b828204905092915050565b600061336582612196565b915061337083612196565b9250826133805761337f6132fa565b5b828206905092915050565b7f4e487b7100000000000000000000000000000000000000000000000000000000600052603260045260246000fd5b600081519050919050565b600082825260208201905092915050565b60006133e1826133ba565b6133eb81856133c5565b93506133fb818560208601612100565b6134048161212a565b840191505092915050565b6000608082019050613424600083018761222b565b613431602083018661222b565b61343e6040830185612314565b818103606083015261345081846133d6565b905095945050505050565b60008151905061346a81612055565b92915050565b6000602082840312156134865761348561201f565b5b60006134948482850161345b565b91505092915050565b7f4552433732313a206d696e7420746f20746865207a65726f2061646472657373600082015250565b60006134d36020836120ef565b91506134de8261349d565b602082019050919050565b60006020820190508181036000830152613502816134c6565b9050919050565b7f4552433732313a20746f6b656e20616c7265616479206d696e74656400000000600082015250565b600061353f601c836120ef565b915061354a82613509565b602082019050919050565b6000602082019050818103600083015261356e81613532565b905091905056fea26469706673582212204e87d3984d9205f68b06f88e74587067460b499d6645e199389413992254d3d164736f6c63430008100033",
  "linkReferences": {},
  "deployedLinkReferences": {}
}