{
  "_format": "hh-sol-artifact-1",
  "contractName": "TDaoTestable",
  "sourceName": "contracts/mocks/TFDaoTestable.sol",
  "abi": [
    {
      "inputs": [
        {
          "internalType": "address",
          "name": "_timelock",
          "type": "address"
        },
        {
          "internalType": "address",
          "name": "_multisig",
          "type": "address"
        },
        {
          "internalType": "contract IProtocolToken",
          "name": "_initialToken",
          "type": "address"
        }
      ],
      "stateMutability": "nonpayable",
      "type": "constructor"
    },
    {
      "anonymous": false,
      "inputs": [
        {
          "indexed": true,
          "internalType": "address",
          "name": "token",
          "type": "address"
        },
        {
          "indexed": false,
          "internalType": "uint256",
          "name": "count",
          "type": "uint256"
        }
      ],
      "name": "IncentiveMinted",
      "type": "event"
    },
    {
      "anonymous": false,
      "inputs": [
        {
          "indexed": true,
          "internalType": "uint64",
          "name": "currentPeriod",
          "type": "uint64"
        },
        {
          "indexed": false,
          "internalType": "uint64",
          "name": "periods",
          "type": "uint64"
        }
      ],
      "name": "InflationAccrued",
      "type": "event"
    },
    {
      "anonymous": false,
      "inputs": [
        {
          "indexed": true,
          "internalType": "address",
          "name": "_contract",
          "type": "address"
        }
      ],
      "name": "LiquidationIncentiveContractSet",
      "type": "event"
    },
    {
      "anonymous": false,
      "inputs": [
        {
          "indexed": true,
          "internalType": "address",
          "name": "governorAlpha",
          "type": "address"
        },
        {
          "indexed": true,
          "internalType": "uint256",
          "name": "proposalID",
          "type": "uint256"
        },
        {
          "indexed": true,
          "internalType": "bool",
          "name": "decision",
          "type": "bool"
        }
      ],
      "name": "MetaGovernanceDecisionExecuted",
      "type": "event"
    },
    {
      "anonymous": false,
      "inputs": [
        {
          "indexed": true,
          "internalType": "uint64",
          "name": "positionNFTTokenID",
          "type": "uint64"
        },
        {
          "indexed": true,
          "internalType": "address",
          "name": "owner",
          "type": "address"
        }
      ],
      "name": "RewardsClaimed",
      "type": "event"
    },
    {
      "anonymous": false,
      "inputs": [],
      "name": "TDaoStarted",
      "type": "event"
    },
    {
      "anonymous": false,
      "inputs": [
        {
          "indexed": true,
          "internalType": "address",
          "name": "token",
          "type": "address"
        }
      ],
      "name": "TokenAdded",
      "type": "event"
    },
    {
      "anonymous": false,
      "inputs": [
        {
          "indexed": true,
          "internalType": "uint16",
          "name": "tokenID",
          "type": "uint16"
        },
        {
          "indexed": true,
          "internalType": "address",
          "name": "initialOwner",
          "type": "address"
        },
        {
          "indexed": true,
          "internalType": "uint8",
          "name": "lockDurationMonths",
          "type": "uint8"
        },
        {
          "indexed": false,
          "internalType": "uint256",
          "name": "count",
          "type": "uint256"
        }
      ],
      "name": "TokensLocked",
      "type": "event"
    },
    {
      "anonymous": false,
      "inputs": [
        {
          "indexed": true,
          "internalType": "uint16",
          "name": "tokenID",
          "type": "uint16"
        },
        {
          "indexed": true,
          "internalType": "address",
          "name": "owner",
          "type": "address"
        },
        {
          "indexed": false,
          "internalType": "uint256",
          "name": "count",
          "type": "uint256"
        }
      ],
      "name": "TokensUnlocked",
      "type": "event"
    },
    {
      "inputs": [],
      "name": "accrueInflation",
      "outputs": [],
      "stateMutability": "nonpayable",
      "type": "function"
    },
    {
      "inputs": [
        {
          "internalType": "contract IProtocolToken",
          "name": "token",
          "type": "address"
        }
      ],
      "name": "addToken",
      "outputs": [],
      "stateMutability": "nonpayable",
      "type": "function"
    },
    {
      "inputs": [
        {
          "internalType": "bytes4",
          "name": "",
          "type": "bytes4"
        }
      ],
      "name": "blacklistedAction",
      "outputs": [
        {
          "internalType": "bool",
          "name": "",
          "type": "bool"
        }
      ],
      "stateMutability": "view",
      "type": "function"
    },
    {
      "inputs": [
        {
          "internalType": "uint64",
          "name": "months",
          "type": "uint64"
        }
      ],
      "name": "calculateMonthsToDays",
      "outputs": [
        {
          "internalType": "uint256",
          "name": "",
          "type": "uint256"
        }
      ],
      "stateMutability": "pure",
      "type": "function"
    },
    {
      "inputs": [
        {
          "internalType": "uint256",
          "name": "count",
          "type": "uint256"
        },
        {
          "internalType": "uint64",
          "name": "durationMonths",
          "type": "uint64"
        }
      ],
      "name": "calculateVirtualCount",
      "outputs": [
        {
          "internalType": "uint256",
          "name": "",
          "type": "uint256"
        }
      ],
      "stateMutability": "pure",
      "type": "function"
    },
    {
      "inputs": [],
      "name": "currentPeriod",
      "outputs": [
        {
          "internalType": "uint64",
          "name": "period",
          "type": "uint64"
        }
      ],
      "stateMutability": "view",
      "type": "function"
    },
    {
      "inputs": [],
      "name": "dailyProtocolTDaoIncentiveCount",
      "outputs": [
        {
          "internalType": "uint256",
          "name": "",
          "type": "uint256"
        }
      ],
      "stateMutability": "view",
      "type": "function"
    },
    {
      "inputs": [],
      "name": "deployer",
      "outputs": [
        {
          "internalType": "address",
          "name": "",
          "type": "address"
        }
      ],
      "stateMutability": "view",
      "type": "function"
    },
    {
      "inputs": [
        {
          "internalType": "address",
          "name": "target",
          "type": "address"
        },
        {
          "internalType": "string",
          "name": "signature",
          "type": "string"
        },
        {
          "internalType": "bytes",
          "name": "data",
          "type": "bytes"
        }
      ],
      "name": "execute",
      "outputs": [
        {
          "internalType": "bool",
          "name": "success",
          "type": "bool"
        },
        {
          "internalType": "bytes",
          "name": "returnData",
          "type": "bytes"
        }
      ],
      "stateMutability": "nonpayable",
      "type": "function"
    },
    {
      "inputs": [
        {
          "internalType": "uint256",
          "name": "metaProposalID",
          "type": "uint256"
        }
      ],
      "name": "executeMetaProposalVote",
      "outputs": [],
      "stateMutability": "nonpayable",
      "type": "function"
    },
    {
      "inputs": [],
      "name": "firstPeriod",
      "outputs": [
        {
          "internalType": "uint64",
          "name": "",
          "type": "uint64"
        }
      ],
      "stateMutability": "view",
      "type": "function"
    },
    {
      "inputs": [
        {
          "internalType": "uint64",
          "name": "positionNFTTokenID",
          "type": "uint64"
        }
      ],
      "name": "getRewards",
      "outputs": [],
      "stateMutability": "nonpayable",
      "type": "function"
    },
    {
      "inputs": [
        {
          "internalType": "uint16",
          "name": "",
          "type": "uint16"
        }
      ],
      "name": "idToToken",
      "outputs": [
        {
          "internalType": "contract IProtocolToken",
          "name": "",
          "type": "address"
        }
      ],
      "stateMutability": "view",
      "type": "function"
    },
    {
      "inputs": [],
      "name": "incentiveContract",
      "outputs": [
        {
          "internalType": "address",
          "name": "",
          "type": "address"
        }
      ],
      "stateMutability": "view",
      "type": "function"
    },
    {
      "inputs": [
        {
          "internalType": "address",
          "name": "dest",
          "type": "address"
        },
        {
          "internalType": "uint256",
          "name": "count",
          "type": "uint256"
        }
      ],
      "name": "incentiveContractMint",
      "outputs": [],
      "stateMutability": "nonpayable",
      "type": "function"
    },
    {
      "inputs": [],
      "name": "incentivesStartPeriod",
      "outputs": [
        {
          "internalType": "uint64",
          "name": "",
          "type": "uint64"
        }
      ],
      "stateMutability": "view",
      "type": "function"
    },
    {
      "inputs": [
        {
          "internalType": "contract IPositionNFT",
          "name": "_tDaoPositionNFT",
          "type": "address"
        },
        {
          "internalType": "contract IProtocolToken",
          "name": "_tDaoToken",
          "type": "address"
        },
        {
          "internalType": "contract GovernorAlpha",
          "name": "_tDaoGovernorAlpha",
          "type": "address"
        }
      ],
      "name": "init",
      "outputs": [],
      "stateMutability": "nonpayable",
      "type": "function"
    },
    {
      "inputs": [],
      "name": "lastPeriodGlobalInflationUpdated",
      "outputs": [
        {
          "internalType": "uint64",
          "name": "",
          "type": "uint64"
        }
      ],
      "stateMutability": "view",
      "type": "function"
    },
    {
      "inputs": [
        {
          "internalType": "contract IProtocolToken",
          "name": "token",
          "type": "address"
        },
        {
          "internalType": "uint256",
          "name": "count",
          "type": "uint256"
        },
        {
          "internalType": "uint8",
          "name": "lockDurationMonths",
          "type": "uint8"
        },
        {
          "internalType": "address",
          "name": "to",
          "type": "address"
        }
      ],
      "name": "lockTokens",
      "outputs": [
        {
          "internalType": "uint64",
          "name": "positionNFTTokenID",
          "type": "uint64"
        }
      ],
      "stateMutability": "nonpayable",
      "type": "function"
    },
    {
      "inputs": [
        {
          "internalType": "address",
          "name": "dest",
          "type": "address"
        },
        {
          "internalType": "uint256",
          "name": "count",
          "type": "uint256"
        }
      ],
      "name": "mintIncentive",
      "outputs": [],
      "stateMutability": "nonpayable",
      "type": "function"
    },
    {
      "inputs": [
        {
          "internalType": "address",
          "name": "dest",
          "type": "address"
        },
        {
          "internalType": "uint256",
          "name": "count",
          "type": "uint256"
        }
      ],
      "name": "mintVotingRewards",
      "outputs": [],
      "stateMutability": "nonpayable",
      "type": "function"
    },
    {
      "inputs": [],
      "name": "multisig",
      "outputs": [
        {
          "internalType": "address",
          "name": "",
          "type": "address"
        }
      ],
      "stateMutability": "view",
      "type": "function"
    },
    {
      "inputs": [],
      "name": "periodLength",
      "outputs": [
        {
          "internalType": "uint64",
          "name": "",
          "type": "uint64"
        }
      ],
      "stateMutability": "view",
      "type": "function"
    },
    {
      "inputs": [
        {
          "internalType": "uint64",
          "name": "",
          "type": "uint64"
        }
      ],
      "name": "positions",
      "outputs": [
        {
          "internalType": "uint128",
          "name": "count",
          "type": "uint128"
        },
        {
          "internalType": "uint128",
          "name": "startTotalRewards",
          "type": "uint128"
        },
        {
          "internalType": "uint184",
          "name": "startCumulativeVirtualCount",
          "type": "uint184"
        },
        {
          "internalType": "uint16",
          "name": "lastPeriodUpdated",
          "type": "uint16"
        },
        {
          "internalType": "uint16",
          "name": "endPeriod",
          "type": "uint16"
        },
        {
          "internalType": "uint16",
          "name": "tokenID",
          "type": "uint16"
        },
        {
          "internalType": "uint8",
          "name": "durationMonths",
          "type": "uint8"
        }
      ],
      "stateMutability": "view",
      "type": "function"
    },
    {
      "inputs": [
        {
          "internalType": "uint16",
          "name": "",
          "type": "uint16"
        }
      ],
      "name": "rewardsStatus",
      "outputs": [
        {
          "internalType": "uint128",
          "name": "cumulativeVirtualCount",
          "type": "uint128"
        },
        {
          "internalType": "uint128",
          "name": "totalRewards",
          "type": "uint128"
        }
      ],
      "stateMutability": "view",
      "type": "function"
    },
    {
      "inputs": [
        {
          "internalType": "address",
          "name": "_contract",
          "type": "address"
        }
      ],
      "name": "setIncentiveContract",
      "outputs": [],
      "stateMutability": "nonpayable",
      "type": "function"
    },
    {
      "inputs": [],
      "name": "start",
      "outputs": [],
      "stateMutability": "nonpayable",
      "type": "function"
    },
    {
      "inputs": [],
      "name": "startPeriod",
      "outputs": [
        {
          "internalType": "uint64",
          "name": "",
          "type": "uint64"
        }
      ],
      "stateMutability": "view",
      "type": "function"
    },
    {
      "inputs": [],
      "name": "tDaoGovernorAlpha",
      "outputs": [
        {
          "internalType": "contract GovernorAlpha",
          "name": "",
          "type": "address"
        }
      ],
      "stateMutability": "view",
      "type": "function"
    },
    {
      "inputs": [],
      "name": "tDaoPositionNFT",
      "outputs": [
        {
          "internalType": "contract IPositionNFT",
          "name": "",
          "type": "address"
        }
      ],
      "stateMutability": "view",
      "type": "function"
    },
    {
      "inputs": [],
      "name": "tDaoToken",
      "outputs": [
        {
          "internalType": "contract IProtocolToken",
          "name": "",
          "type": "address"
        }
      ],
      "stateMutability": "view",
      "type": "function"
    },
    {
      "inputs": [],
      "name": "timelock",
      "outputs": [
        {
          "internalType": "address",
          "name": "",
          "type": "address"
        }
      ],
      "stateMutability": "view",
      "type": "function"
    },
    {
      "inputs": [
        {
          "internalType": "contract IProtocolToken",
          "name": "",
          "type": "address"
        }
      ],
      "name": "tokenToID",
      "outputs": [
        {
          "internalType": "uint16",
          "name": "",
          "type": "uint16"
        }
      ],
      "stateMutability": "view",
      "type": "function"
    },
    {
      "inputs": [],
      "name": "totalIncentivesMinted",
      "outputs": [
        {
          "internalType": "uint256",
          "name": "",
          "type": "uint256"
        }
      ],
      "stateMutability": "view",
      "type": "function"
    },
    {
      "inputs": [
        {
          "internalType": "uint64",
          "name": "positionNFTTokenID",
          "type": "uint64"
        }
      ],
      "name": "unlockTokens",
      "outputs": [],
      "stateMutability": "nonpayable",
      "type": "function"
    },
    {
      "inputs": [
        {
          "internalType": "uint16",
          "name": "",
          "type": "uint16"
        }
      ],
      "name": "virtualCount",
      "outputs": [
        {
          "internalType": "uint256",
          "name": "",
          "type": "uint256"
        }
      ],
      "stateMutability": "view",
      "type": "function"
    },
    {
      "inputs": [
        {
          "internalType": "contract GovernorAlpha",
          "name": "",
          "type": "address"
        },
        {
          "internalType": "uint256",
          "name": "",
          "type": "uint256"
        }
      ],
      "name": "voteInUnderlyingProtocol",
      "outputs": [],
      "stateMutability": "pure",
      "type": "function"
    }
  ],
  "bytecode": "0x60e06040526001600460146101000a81548167ffffffffffffffff021916908367ffffffffffffffff1602179055503480156200003c5760006000fd5b50604051620061d0380380620061d083398181016040526060811015620000635760006000fd5b810190808051906020019092919080519060200190929190805190602001909291905050505b8282825b5b620151805b60018167ffffffffffffffff16620000b0620001f460201b60201c565b67ffffffffffffffff16811515620000c457fe5b040367ffffffffffffffff1660a08167ffffffffffffffff1660c01b815260080150508067ffffffffffffffff1660808167ffffffffffffffff1660c01b815260080150505b50600160006000508190909055505b33600c60006101000a81548173ffffffffffffffffffffffffffffffffffffffff021916908373ffffffffffffffffffffffffffffffffffffffff1602179055508273ffffffffffffffffffffffffffffffffffffffff1660c08173ffffffffffffffffffffffffffffffffffffffff1660601b8152601401505081600d60006101000a81548173ffffffffffffffffffffffffffffffffffffffff021916908373ffffffffffffffffffffffffffffffffffffffff160217905550620001e6816200021660201b60201c565b5b5050505b505050620004bc565b60006200020e426200040760201b62002fa317909060201c565b905080505b90565b61ffff61ffff16600760009054906101000a900461ffff1661ffff16101515620002405760006000fd5b6007600081819054906101000a900461ffff168092919060010191906101000a81548161ffff021916908361ffff160217905550508060096000506000600760009054906101000a900461ffff1661ffff1661ffff16815260200190815260200160002060006101000a81548173ffffffffffffffffffffffffffffffffffffffff021916908373ffffffffffffffffffffffffffffffffffffffff160217905550600760009054906101000a900461ffff16600860005060008373ffffffffffffffffffffffffffffffffffffffff1673ffffffffffffffffffffffffffffffffffffffff16815260200190815260200160002060006101000a81548161ffff021916908361ffff1602179055508073ffffffffffffffffffffffffffffffffffffffff16635c19a95c306040518263ffffffff1660e01b81526004016200038a9190620004a0565b600060405180830381600087803b158015620003a65760006000fd5b505af1158015620003bc573d600060003e3d6000fd5b505050508073ffffffffffffffffffffffffffffffffffffffff167f784c8f4dbf0ffedd6e72c76501c545a70f8b203b30a26ce542bf92ba87c248a460405160405180910390a25b50565b600068010000000000000000821015156200048d576040517f08c379a00000000000000000000000000000000000000000000000000000000081526004018080602001828103825260118152602001807f6d6f7265207468616e203634206269747300000000000000000000000000000081526020015060200191505060405180910390fd5b81905062000496565b91905056620004bb565b60006020820190506001600160a01b03831682525b92915050565b5b60805160c01c60a05160c01c60c05160601c615ccf6200050160003980611fb75280612c37525080612bef528061330b525080612c13528061332c5250615ccf6000f3fe60806040523480156100115760006000fd5b506004361061027c5760003560e01c8063640bb8df11610161578063c2cc16d9116100d9578063d5f394881161008d578063d7ed153b11610072578063d7ed153b14610d48578063fcb3fa9014610d9f578063fd8067c314610dce5761027c565b8063d5f3948814610cec578063d6c2875d14610d205761027c565b8063d2ca2115116100be578063d2ca211514610c4b578063d33219b414610c73578063d48bfca714610ca75761027c565b8063c2cc16d914610bef578063c4e3a63b14610c235761027c565b80639645383d11610130578063ae42983311610115578063ae42983314610b78578063b551a00d14610bac578063be9a655514610be55761027c565b80639645383d14610ae75780639d8e090114610b1b5761027c565b8063640bb8df146109ff578063797250e414610a335780637ad31c9814610a7a5780639383ac4414610a985761027c565b806330bfb9bb116101f45780634783c35b116101c35780634cd7a315116101a85780634cd7a3151461089e5780634e9568ef146108ed57806360f3ce041461093c5761027c565b80634783c35b1461081d5780634b884f34146108515761027c565b806330bfb9bb1461051b57806333daf5d414610543578063371f3d45146107475780634306ef4f146107ab5761027c565b806307e54f161161024b57806314706d851161023057806314706d85146103de578063184b9559146103fc57806327fb0474146104815761027c565b806307e54f16146103485780630a889a8b146103a55761027c565b8063020ac54a14610282578063060406181461028c57806307818200146102b457806307932987146102f95761027c565b60006000fd5b61028a610df6565b005b610294610ea3565b604051808267ffffffffffffffff16815260200191505060405180910390f35b6102f7600480360360208110156102cb5760006000fd5b81019080803573ffffffffffffffffffffffffffffffffffffffff169060200190929190505050610ebb565b005b610346600480360360408110156103105760006000fd5b81019080803573ffffffffffffffffffffffffffffffffffffffff1690602001909291908035906020019092919050505061109a565b005b61038b6004803603602081101561035f5760006000fd5b81019080803573ffffffffffffffffffffffffffffffffffffffff16906020019092919050505061122b565b604051808261ffff16815260200191505060405180910390f35b6103dc600480360360208110156103bc5760006000fd5b81019080803567ffffffffffffffff169060200190929190505050611251565b005b6103e6611790565b6040518082815260200191505060405180910390f35b61047f600480360360608110156104135760006000fd5b81019080803573ffffffffffffffffffffffffffffffffffffffff169060200190929190803573ffffffffffffffffffffffffffffffffffffffff169060200190929190803573ffffffffffffffffffffffffffffffffffffffff16906020019092919050505061184f565b005b6104fb600480360360808110156104985760006000fd5b81019080803573ffffffffffffffffffffffffffffffffffffffff16906020019092919080359060200190929190803560ff169060200190929190803573ffffffffffffffffffffffffffffffffffffffff169060200190929190505050611a78565b604051808267ffffffffffffffff16815260200191505060405180910390f35b610523611f06565b604051808267ffffffffffffffff16815260200191505060405180910390f35b6106c26004803603606081101561055a5760006000fd5b81019080803573ffffffffffffffffffffffffffffffffffffffff169060200190929190803590602001906401000000008111156105985760006000fd5b8201836020820111156105ab5760006000fd5b803590602001918460018302840111640100000000831117156105ce5760006000fd5b91908080601f016020809104026020016040519081016040528093929190818152602001838380828437600081840152601f19601f82011690508083019250505050505050909091929090919290803590602001906401000000008111156106365760006000fd5b8201836020820111156106495760006000fd5b8035906020019184600183028401116401000000008311171561066c5760006000fd5b91908080601f016020809104026020016040519081016040528093929190818152602001838380828437600081840152601f19601f82011690508083019250505050505050909091929090919290505050611f20565b60405180831515815260200180602001828103825283818151815260200191508051906020019080838360005b8381101561070b5780820151818401525b6020810190506106ef565b50505050905090810190601f1680156107385780820380516001836020036101000a031916815260200191505b50935050505060405180910390f35b6107936004803603602081101561075e5760006000fd5b8101908080357bffffffffffffffffffffffffffffffffffffffffffffffffffffffff191690602001909291905050506121b5565b60405180821515815260200191505060405180910390f35b6107dc600480360360208110156107c25760006000fd5b81019080803561ffff1690602001909291905050506121da565b60405180836fffffffffffffffffffffffffffffffff168152602001826fffffffffffffffffffffffffffffffff1681526020019250505060405180910390f35b610825612239565b604051808273ffffffffffffffffffffffffffffffffffffffff16815260200191505060405180910390f35b610888600480360360208110156108685760006000fd5b81019080803567ffffffffffffffff16906020019092919050505061225f565b6040518082815260200191505060405180910390f35b6108eb600480360360408110156108b55760006000fd5b81019080803573ffffffffffffffffffffffffffffffffffffffff16906020019092919080359060200190929190505050612286565b005b61093a600480360360408110156109045760006000fd5b81019080803573ffffffffffffffffffffffffffffffffffffffff169060200190929190803590602001909291905050506124ea565b005b610973600480360360208110156109535760006000fd5b81019080803567ffffffffffffffff1690602001909291905050506124ef565b60405180886fffffffffffffffffffffffffffffffff168152602001876fffffffffffffffffffffffffffffffff1681526020018676ffffffffffffffffffffffffffffffffffffffffffffff1681526020018561ffff1681526020018461ffff1681526020018361ffff1681526020018260ff16815260200197505050505050505060405180910390f35b610a076125c6565b604051808273ffffffffffffffffffffffffffffffffffffffff16815260200191505060405180910390f35b610a6460048036036020811015610a4a5760006000fd5b81019080803561ffff1690602001909291905050506125ec565b6040518082815260200191505060405180910390f35b610a82612607565b6040518082815260200191505060405180910390f35b610ae560048036036040811015610aaf5760006000fd5b81019080803573ffffffffffffffffffffffffffffffffffffffff16906020019092919080359060200190929190505050612610565b005b610aef61287d565b604051808273ffffffffffffffffffffffffffffffffffffffff16815260200191505060405180910390f35b610b4c60048036036020811015610b325760006000fd5b81019080803561ffff1690602001909291905050506128a3565b604051808273ffffffffffffffffffffffffffffffffffffffff16815260200191505060405180910390f35b610b806128db565b604051808273ffffffffffffffffffffffffffffffffffffffff16815260200191505060405180910390f35b610be360048036036020811015610bc35760006000fd5b81019080803567ffffffffffffffff169060200190929190505050612901565b005b610bed612ad0565b005b610bf7612bc7565b604051808273ffffffffffffffffffffffffffffffffffffffff16815260200191505060405180910390f35b610c2b612bed565b604051808267ffffffffffffffff16815260200191505060405180910390f35b610c53612c11565b604051808267ffffffffffffffff16815260200191505060405180910390f35b610c7b612c35565b604051808273ffffffffffffffffffffffffffffffffffffffff16815260200191505060405180910390f35b610cea60048036036020811015610cbe5760006000fd5b81019080803573ffffffffffffffffffffffffffffffffffffffff169060200190929190505050612c59565b005b610cf4612caa565b604051808273ffffffffffffffffffffffffffffffffffffffff16815260200191505060405180910390f35b610d28612cd0565b604051808267ffffffffffffffff16815260200191505060405180910390f35b610d8960048036036040811015610d5f5760006000fd5b8101908080359060200190929190803567ffffffffffffffff169060200190929190505050612cea565b6040518082815260200191505060405180910390f35b610dcc60048036036020811015610db65760006000fd5b8101908080359060200190929190505050612d09565b005b610dd6612f89565b604051808267ffffffffffffffff16815260200191505060405180910390f35b600260006000505414151515610e77576040517f08c379a000000000000000000000000000000000000000000000000000000000815260040180806020018281038252601f8152602001807f5265656e7472616e637947756172643a207265656e7472616e742063616c6c0081526020015060200191505060405180910390fd5b60026000600050819090905550610e9261303563ffffffff16565b5b600160006000508190909055505b565b6000610eb361330763ffffffff16565b905080505b90565b610ef83073ffffffffffffffffffffffffffffffffffffffff163373ffffffffffffffffffffffffffffffffffffffff161461338063ffffffff16565b600073ffffffffffffffffffffffffffffffffffffffff16600160009054906101000a900473ffffffffffffffffffffffffffffffffffffffff1673ffffffffffffffffffffffffffffffffffffffff16141515610f8b576040517f08c379a0000000000000000000000000000000000000000000000000000000008152600401610f8290615b09565b60405180910390fd5b610f9a816133c663ffffffff16565b1515610fdb576040517f08c379a0000000000000000000000000000000000000000000000000000000008152600401610fd290615aca565b60405180910390fd5b80600160006101000a81548173ffffffffffffffffffffffffffffffffffffffff021916908373ffffffffffffffffffffffffffffffffffffffff16021790555061102a61330763ffffffff16565b600e60006101000a81548167ffffffffffffffff021916908367ffffffffffffffff1602179055508073ffffffffffffffffffffffffffffffffffffffff167f6765bf0cc4e3defc42bfa6ac394241a5f702ee760529c922874f15c4ad35edc760405160405180910390a25b5b50565b60026000600050541415151561111b576040517f08c379a000000000000000000000000000000000000000000000000000000000815260040180806020018281038252601f8152602001807f5265656e7472616e637947756172643a207265656e7472616e742063616c6c0081526020015060200191505060405180910390fd5b60026000600050819090905550611187600260009054906101000a900473ffffffffffffffffffffffffffffffffffffffff1673ffffffffffffffffffffffffffffffffffffffff163373ffffffffffffffffffffffffffffffffffffffff161461338063ffffffff16565b600360009054906101000a900473ffffffffffffffffffffffffffffffffffffffff1673ffffffffffffffffffffffffffffffffffffffff1663449a52f883836040518363ffffffff1660e01b81526004016111e492919061569c565b600060405180830381600087803b1580156111ff5760006000fd5b505af1158015611214573d600060003e3d6000fd5b505050505b600160006000508190909055505b5050565b600860005060205280600052604060002060009150909054906101000a900461ffff1681565b6002600060005054141515156112d2576040517f08c379a000000000000000000000000000000000000000000000000000000000815260040180806020018281038252601f8152602001807f5265656e7472616e637947756172643a207265656e7472616e742063616c6c0081526020015060200191505060405180910390fd5b6002600060005081909090555060003390506113a1600460009054906101000a900473ffffffffffffffffffffffffffffffffffffffff1673ffffffffffffffffffffffffffffffffffffffff1663430c208183856040518363ffffffff1660e01b81526004016113449291906156cb565b60206040518083038186803b15801561135d5760006000fd5b505afa158015611372573d600060003e3d6000fd5b505050506040513d601f19601f820116820180604052508101906113969190615442565b61338063ffffffff16565b60006113b2836133e063ffffffff16565b90506113c261330763ffffffff16565b67ffffffffffffffff16816080015167ffffffffffffffff161115151561141e576040517f08c379a00000000000000000000000000000000000000000000000000000000081526004016114159061598f565b60405180910390fd5b61146d61143982600001518360a001516136f263ffffffff16565b600660005060008460c0015161ffff1661ffff1681526020019081526020016000206000505461372190919063ffffffff16565b600660005060008360c0015161ffff1661ffff168152602001908152602001600020600050819090905550600a60005060008467ffffffffffffffff1667ffffffffffffffff16815260200190815260200160002060006000820160006101000a8154906fffffffffffffffffffffffffffffffff02191690556000820160106101000a8154906fffffffffffffffffffffffffffffffff02191690556001820160006101000a81549076ffffffffffffffffffffffffffffffffffffffffffffff02191690556001820160176101000a81549061ffff02191690556001820160196101000a81549061ffff021916905560018201601b6101000a81549061ffff021916905560018201601d6101000a81549060ff021916905550506000600460009054906101000a900473ffffffffffffffffffffffffffffffffffffffff1673ffffffffffffffffffffffffffffffffffffffff16636352211e856040518263ffffffff1660e01b81526004016115e69190615bb4565b60206040518083038186803b1580156115ff5760006000fd5b505afa158015611614573d600060003e3d6000fd5b505050506040513d601f19601f8201168201806040525081019061163891906152f2565b9050600460009054906101000a900473ffffffffffffffffffffffffffffffffffffffff1673ffffffffffffffffffffffffffffffffffffffff16639dbead42856040518263ffffffff1660e01b81526004016116959190615bd0565b600060405180830381600087803b1580156116b05760006000fd5b505af11580156116c5573d600060003e3d6000fd5b505050508273ffffffffffffffffffffffffffffffffffffffff168260c0015161ffff167fbf347141bee0ba9c777fbef9a14008be9f56f2b2f90f0e63cfed8a96a3b506c7846000015160405161171c9190615b87565b60405180910390a361177b600960005060008460c0015161ffff1661ffff16815260200190815260200160002060009054906101000a900473ffffffffffffffffffffffffffffffffffffffff168284600001516137aa63ffffffff16565b5050505b600160006000508190909055505b50565b60006000600d60149054906101000a900467ffffffffffffffff1667ffffffffffffffff1614156117c4576000905061184c565b600073ffffffffffffffffffffffffffffffffffffffff16600160009054906101000a900473ffffffffffffffffffffffffffffffffffffffff1673ffffffffffffffffffffffffffffffffffffffff1614151561183a5769021e19e0c9bab240000069152d02c7e14af680000003905061184c565b69152d02c7e14af6800000905061184c565b90565b6118ae600c60009054906101000a900473ffffffffffffffffffffffffffffffffffffffff1673ffffffffffffffffffffffffffffffffffffffff163373ffffffffffffffffffffffffffffffffffffffff161461338063ffffffff16565b600c60006101000a81549073ffffffffffffffffffffffffffffffffffffffff021916905582600460006101000a81548173ffffffffffffffffffffffffffffffffffffffff021916908373ffffffffffffffffffffffffffffffffffffffff16021790555081600360006101000a81548173ffffffffffffffffffffffffffffffffffffffff021916908373ffffffffffffffffffffffffffffffffffffffff16021790555080600260006101000a81548173ffffffffffffffffffffffffffffffffffffffff021916908373ffffffffffffffffffffffffffffffffffffffff1602179055506119ac63a9059cbb60e01b6139b663ffffffff16565b6119c26323b872dd60e01b6139b663ffffffff16565b6119d863095ea7b360e01b6139b663ffffffff16565b6119ee63449a52f860e01b6139b663ffffffff16565b611a046379cc679060e01b6139b663ffffffff16565b611a1a6342966c6860e01b6139b663ffffffff16565b611a30633950935160e01b6139b663ffffffff16565b611a4663a457c2d760e01b6139b663ffffffff16565b611a5c633c4a25d060e01b6139b663ffffffff16565b611a72635c19a95c60e01b6139b663ffffffff16565b5b505050565b6000600260006000505414151515611afb576040517f08c379a000000000000000000000000000000000000000000000000000000000815260040180806020018281038252601f8152602001807f5265656e7472616e637947756172643a207265656e7472616e742063616c6c0081526020015060200191505060405180910390fd5b600260006000508190909055506000600860005060008773ffffffffffffffffffffffffffffffffffffffff1673ffffffffffffffffffffffffffffffffffffffff16815260200190815260200160002060009054906101000a900461ffff16905060008161ffff16111515611ba6576040517f08c379a0000000000000000000000000000000000000000000000000000000008152600401611b9d90615815565b60405180910390fd5b600085111515611beb576040517f08c379a0000000000000000000000000000000000000000000000000000000008152600401611be290615911565b60405180910390fd5b8360ff16600667ffffffffffffffff1611158015611c175750603067ffffffffffffffff168460ff1611155b8015611c4657506000600667ffffffffffffffff168560ff16811515611c3957fe5b0667ffffffffffffffff16145b1515611c87576040517f08c379a0000000000000000000000000000000000000000000000000000000008152600401611c7e906157d6565b60405180910390fd5b611c9561303563ffffffff16565b6000611ca682613a2763ffffffff16565b9050611cee611cbe878760ff166136f263ffffffff16565b600660005060008561ffff1661ffff16815260200190815260200160002060005054613b4890919063ffffffff16565b600660005060008461ffff1661ffff168152602001908152602001600020600050819090905550600460009054906101000a900473ffffffffffffffffffffffffffffffffffffffff1673ffffffffffffffffffffffffffffffffffffffff1663755edd17856040518263ffffffff1660e01b8152600401611d70919061563b565b602060405180830381600087803b158015611d8b5760006000fd5b505af1158015611da0573d600060003e3d6000fd5b505050506040513d601f19601f82011682018060405250810190611dc4919061559c565b925082506000611dd861330763ffffffff16565b9050611e79846040518060e001604052808a815260200185602001518152602001856000015181526020018467ffffffffffffffff168152602001611e41611e288b60ff16613bd163ffffffff16565b8667ffffffffffffffff16613c1490919063ffffffff16565b67ffffffffffffffff1681526020018960ff1667ffffffffffffffff1681526020018661ffff16815260200150613cb163ffffffff16565b611e8b8833308a613f5763ffffffff16565b8560ff168573ffffffffffffffffffffffffffffffffffffffff168461ffff167ffd5af8482cd27088275e2c1370259ff534cf1c987cf2105e24da196377e5c98d8a604051611eda9190615b87565b60405180910390a4839350505050611ef0565050505b600160006000508190909055505b949350505050565b600d60149054906101000a900467ffffffffffffffff1681565b60006060600260006000505414151515611fa5576040517f08c379a000000000000000000000000000000000000000000000000000000000815260040180806020018281038252601f8152602001807f5265656e7472616e637947756172643a207265656e7472616e742063616c6c0081526020015060200191505060405180910390fd5b6002600060005081909090555061200f7f000000000000000000000000000000000000000000000000000000000000000073ffffffffffffffffffffffffffffffffffffffff163373ffffffffffffffffffffffffffffffffffffffff161461338063ffffffff16565b60006120208561418263ffffffff16565b9050600b6000506000827bffffffffffffffffffffffffffffffffffffffffffffffffffffffff19167bffffffffffffffffffffffffffffffffffffffffffffffffffffffff1916815260200190815260200160002060009054906101000a900460ff161515156120c6576040517f08c379a00000000000000000000000000000000000000000000000000000000081526004016120bd90615950565b60405180910390fd5b8573ffffffffffffffffffffffffffffffffffffffff1681856040516020016120f09291906155d1565b60405160208183030381529060405260405161210c919061561c565b6000604051808303816000865af19150503d8060008114612149576040519150601f19603f3d011682016040523d82523d6000602084013e61214e565b606091505b508093508194505050828290151561219c576040517f08c379a00000000000000000000000000000000000000000000000000000000081526004016121939190615704565b60405180910390fd5b50505b600160006000508190909055505b935093915050565b600b60005060205280600052604060002060009150909054906101000a900460ff1681565b60056000506020528060005260406000206000915090508060000160009054906101000a90046fffffffffffffffffffffffffffffffff16908060000160109054906101000a90046fffffffffffffffffffffffffffffffff16905082565b600d60009054906101000a900473ffffffffffffffffffffffffffffffffffffffff1681565b600061227082613bd163ffffffff16565b67ffffffffffffffff169050612281565b919050565b6122c33073ffffffffffffffffffffffffffffffffffffffff163373ffffffffffffffffffffffffffffffffffffffff161461338063ffffffff16565b6032600360009054906101000a900473ffffffffffffffffffffffffffffffffffffffff1673ffffffffffffffffffffffffffffffffffffffff166318160ddd6040518163ffffffff1660e01b815260040160206040518083038186803b15801561232e5760006000fd5b505afa158015612343573d600060003e3d6000fd5b505050506040513d601f19601f820116820180604052508101906123679190615580565b81151561237057fe5b0481111515156123b5576040517f08c379a00000000000000000000000000000000000000000000000000000000081526004016123ac90615b48565b60405180910390fd5b6123c4826133c663ffffffff16565b1515612405576040517f08c379a00000000000000000000000000000000000000000000000000000000081526004016123fc90615aca565b60405180910390fd5b600360009054906101000a900473ffffffffffffffffffffffffffffffffffffffff1673ffffffffffffffffffffffffffffffffffffffff1663449a52f883836040518363ffffffff1660e01b815260040161246292919061569c565b600060405180830381600087803b15801561247d5760006000fd5b505af1158015612492573d600060003e3d6000fd5b505050508173ffffffffffffffffffffffffffffffffffffffff167f15c222d39f56077620782fcc367cdd020fddac1f6129c77ec7ca1c5025659dda826040516124dc9190615b87565b60405180910390a25b5b5050565b5b5050565b600a6000506020528060005260406000206000915090508060000160009054906101000a90046fffffffffffffffffffffffffffffffff16908060000160109054906101000a90046fffffffffffffffffffffffffffffffff16908060010160009054906101000a900476ffffffffffffffffffffffffffffffffffffffffffffff16908060010160179054906101000a900461ffff16908060010160199054906101000a900461ffff169080600101601b9054906101000a900461ffff169080600101601d9054906101000a900460ff16905087565b600260009054906101000a900473ffffffffffffffffffffffffffffffffffffffff1681565b60066000506020528060005260406000206000915090505481565b600f6000505481565b600260006000505414151515612691576040517f08c379a000000000000000000000000000000000000000000000000000000000815260040180806020018281038252601f8152602001807f5265656e7472616e637947756172643a207265656e7472616e742063616c6c0081526020015060200191505060405180910390fd5b600260006000508190909055506126fd600160009054906101000a900473ffffffffffffffffffffffffffffffffffffffff1673ffffffffffffffffffffffffffffffffffffffff163373ffffffffffffffffffffffffffffffffffffffff161461338063ffffffff16565b600061271782600f60005054613b4890919063ffffffff16565b9050600061278469021e19e0c9bab240000061276c600e60009054906101000a900467ffffffffffffffff16600161275361330763ffffffff16565b0167ffffffffffffffff1661419890919063ffffffff16565b67ffffffffffffffff1661423590919063ffffffff16565b90508082111515156127cb576040517f08c379a00000000000000000000000000000000000000000000000000000000081526004016127c290615a8b565b60405180910390fd5b81600f600050819090905550600360009054906101000a900473ffffffffffffffffffffffffffffffffffffffff1673ffffffffffffffffffffffffffffffffffffffff1663449a52f885856040518363ffffffff1660e01b815260040161283492919061569c565b600060405180830381600087803b15801561284f5760006000fd5b505af1158015612864573d600060003e3d6000fd5b5050505050505b600160006000508190909055505b5050565b600360009054906101000a900473ffffffffffffffffffffffffffffffffffffffff1681565b600960005060205280600052604060002060009150909054906101000a900473ffffffffffffffffffffffffffffffffffffffff1681565b600460009054906101000a900473ffffffffffffffffffffffffffffffffffffffff1681565b600260006000505414151515612982576040517f08c379a000000000000000000000000000000000000000000000000000000000815260040180806020018281038252601f8152602001807f5265656e7472616e637947756172643a207265656e7472616e742063616c6c0081526020015060200191505060405180910390fd5b60026000600050819090905550612a4c600460009054906101000a900473ffffffffffffffffffffffffffffffffffffffff1673ffffffffffffffffffffffffffffffffffffffff1663430c208133846040518363ffffffff1660e01b81526004016129ef929190615663565b60206040518083038186803b158015612a085760006000fd5b505afa158015612a1d573d600060003e3d6000fd5b505050506040513d601f19601f82011682018060405250810190612a419190615442565b61338063ffffffff16565b6000612a5d826133e063ffffffff16565b9050612a6f8282613cb163ffffffff16565b3373ffffffffffffffffffffffffffffffffffffffff168267ffffffffffffffff167f39c278b054e152450e4295bdf59d7edbaba35cb21d4248658680e61dac39eebb60405160405180910390a3505b600160006000508190909055505b50565b612b2f600d60009054906101000a900473ffffffffffffffffffffffffffffffffffffffff1673ffffffffffffffffffffffffffffffffffffffff163373ffffffffffffffffffffffffffffffffffffffff161461338063ffffffff16565b600d60006101000a81549073ffffffffffffffffffffffffffffffffffffffff0219169055612b6261303563ffffffff16565b612b7061330763ffffffff16565b600d60146101000a81548167ffffffffffffffff021916908367ffffffffffffffff1602179055507fe0c110dd4938fc8e228e75a489735745046395ad536dd80c35559debe653714760405160405180910390a15b565b600160009054906101000a900473ffffffffffffffffffffffffffffffffffffffff1681565b7f000000000000000000000000000000000000000000000000000000000000000081565b7f000000000000000000000000000000000000000000000000000000000000000081565b7f000000000000000000000000000000000000000000000000000000000000000081565b612c963073ffffffffffffffffffffffffffffffffffffffff163373ffffffffffffffffffffffffffffffffffffffff161461338063ffffffff16565b612ca5816142d363ffffffff16565b5b5b50565b600c60009054906101000a900473ffffffffffffffffffffffffffffffffffffffff1681565b600460149054906101000a900467ffffffffffffffff1681565b6000612cfc83836136f263ffffffff16565b9050612d03565b92915050565b600060006000612d1e846144bf63ffffffff16565b9250925092506000826fffffffffffffffffffffffffffffffff16846fffffffffffffffffffffffffffffffff161190506000600260009054906101000a900473ffffffffffffffffffffffffffffffffffffffff1673ffffffffffffffffffffffffffffffffffffffff166324bc1a646040518163ffffffff1660e01b815260040160206040518083038186803b158015612dba5760006000fd5b505afa158015612dcf573d600060003e3d6000fd5b505050506040513d601f19601f82011682018060405250810190612df39190615580565b905081612e555780846fffffffffffffffffffffffffffffffff16111515612e50576040517f08c379a0000000000000000000000000000000000000000000000000000000008152600401612e4790615854565b60405180910390fd5b612eac565b80856fffffffffffffffffffffffffffffffff16111515612eab576040517f08c379a0000000000000000000000000000000000000000000000000000000008152600401612ea290615893565b60405180910390fd5b5b6000600084806020019051810190612ec49190615319565b915091508173ffffffffffffffffffffffffffffffffffffffff166315373e3d82866040518363ffffffff1660e01b8152600401612f03929190615b99565b600060405180830381600087803b158015612f1e5760006000fd5b505af1158015612f33573d600060003e3d6000fd5b50505050831515818373ffffffffffffffffffffffffffffffffffffffff167f06faaaf1b50d921f1d5c2ff896e9ede46272459b52863cbd46c590150f4d7b0b60405160405180910390a4505050505050505b50565b600e60009054906101000a900467ffffffffffffffff1681565b60006801000000000000000082101515613028576040517f08c379a00000000000000000000000000000000000000000000000000000000081526004018080602001828103825260118152602001807f6d6f7265207468616e203634206269747300000000000000000000000000000081526020015060200191505060405180910390fd5b819050613030565b919050565b600061304561330763ffffffff16565b9050600460149054906101000a900467ffffffffffffffff1667ffffffffffffffff168167ffffffffffffffff161115156130805750613305565b6000600460149054906101000a900467ffffffffffffffff16820390506000600760009054906101000a900461ffff1661ffff1690506000816130e38467ffffffffffffffff166130d561179063ffffffff16565b61423590919063ffffffff16565b8115156130ec57fe5b0490506130f7615069565b6000600190505b838161ffff161115156132935761311a81613a2763ffffffff16565b91508150604051806040016040528061318d61318061316d8967ffffffffffffffff16600660005060008861ffff1661ffff1681526020019081526020016000206000505461423590919063ffffffff16565b8660000151613b4890919063ffffffff16565b6149aa909063ffffffff16565b6fffffffffffffffffffffffffffffffff1681526020016131cb6131be868660200151613b4890919063ffffffff16565b6149aa909063ffffffff16565b6fffffffffffffffffffffffffffffffff16815260200150600560005060008361ffff1661ffff16815260200190815260200160002060005060008201518160000160006101000a8154816fffffffffffffffffffffffffffffffff02191690836fffffffffffffffffffffffffffffffff16021790555060208201518160000160106101000a8154816fffffffffffffffffffffffffffffffff02191690836fffffffffffffffffffffffffffffffff1602179055509050505b80806001019150506130fe565b5084600460146101000a81548167ffffffffffffffff021916908367ffffffffffffffff1602179055508467ffffffffffffffff167f5df8d820031efa286b254435a169e0eda922fa20c466be6471c6deaa51dc1165856040516132f79190615bd0565b60405180910390a250505050505b565b60007f00000000000000000000000000000000000000000000000000000000000000007f000000000000000000000000000000000000000000000000000000000000000067ffffffffffffffff16613363614a4463ffffffff16565b67ffffffffffffffff1681151561337657fe5b0403905080505b90565b8015156133c2576040517f08c379a00000000000000000000000000000000000000000000000000000000081526004016133b9906158d2565b60405180910390fd5b5b50565b60006000823b9050600081119150506133db56505b919050565b6133e8615086565b6133f782614a5f63ffffffff16565b9050805060008160000151111515613444576040517f08c379a000000000000000000000000000000000000000000000000000000000815260040161343b90615a0d565b60405180910390fd5b61345261303563ffffffff16565b600460149054906101000a900467ffffffffffffffff1667ffffffffffffffff16816060015167ffffffffffffffff16101515613491578090506136ed565b60006134a68260c00151613a2763ffffffff16565b905060008260600151600460149054906101000a900467ffffffffffffffff160367ffffffffffffffff166134ec8460400151846000015161372190919063ffffffff16565b8115156134f557fe5b04905060006135406135188560200151856020015161372190919063ffffffff16565b8361353187600001518860a001516136f263ffffffff16565b614ce09092919063ffffffff16565b9050600081111561368957600360009054906101000a900473ffffffffffffffffffffffffffffffffffffffff1673ffffffffffffffffffffffffffffffffffffffff1663449a52f8600460009054906101000a900473ffffffffffffffffffffffffffffffffffffffff1673ffffffffffffffffffffffffffffffffffffffff16636352211e886040518263ffffffff1660e01b81526004016135e49190615bb4565b60206040518083038186803b1580156135fd5760006000fd5b505afa158015613612573d600060003e3d6000fd5b505050506040513d601f19601f8201168201806040525081019061363691906152f2565b836040518363ffffffff1660e01b815260040161365492919061569c565b600060405180830381600087803b15801561366f5760006000fd5b505af1158015613684573d600060003e3d6000fd5b505050505b82602001518460200190908181526020015050826000015184604001909081815260200150506136bd61330763ffffffff16565b846060019067ffffffffffffffff16908167ffffffffffffffff16815260200150508393505050506136ed565050505b919050565b60006137148267ffffffffffffffff16600c85614ce09092919063ffffffff16565b905061371b565b92915050565b600082828403915081111515156137a3576040517f08c379a000000000000000000000000000000000000000000000000000000000815260040180806020018281038252600d8152602001807f7375622d756e646572666c6f770000000000000000000000000000000000000081526020015060200191505060405180910390fd5b5b92915050565b600060008473ffffffffffffffffffffffffffffffffffffffff1663a9059cbb60e01b8585604051602401808373ffffffffffffffffffffffffffffffffffffffff16815260200182815260200192505050604051602081830303815290604052907bffffffffffffffffffffffffffffffffffffffffffffffffffffffff19166020820180517bffffffffffffffffffffffffffffffffffffffffffffffffffffffff83818316178352505050506040518082805190602001908083835b60208310151561388f57805182525b602082019150602081019050602083039250613869565b6001836020036101000a0380198251168184511680821785525050505050509050019150506000604051808303816000865af19150503d80600081146138f1576040519150601f19603f3d011682016040523d82523d6000602084013e6138f6565b606091505b5091509150818015613937575060008151148061393657508080602001905160208110156139245760006000fd5b81019080805190602001909291905050505b5b15156139ae576040517f08c379a00000000000000000000000000000000000000000000000000000000081526004018080602001828103825260028152602001807f535400000000000000000000000000000000000000000000000000000000000081526020015060200191505060405180910390fd5b50505b505050565b6001600b6000506000837bffffffffffffffffffffffffffffffffffffffffffffffffffffffff19167bffffffffffffffffffffffffffffffffffffffffffffffffffffffff1916815260200190815260200160002060006101000a81548160ff0219169083151502179055505b50565b613a2f615069565b6000600560005060008461ffff1661ffff1681526020019081526020016000206000506040518060400160405290816000820160009054906101000a90046fffffffffffffffffffffffffffffffff166fffffffffffffffffffffffffffffffff166fffffffffffffffffffffffffffffffff1681526020016000820160109054906101000a90046fffffffffffffffffffffffffffffffff166fffffffffffffffffffffffffffffffff166fffffffffffffffffffffffffffffffff16815260200150509050604051806040016040528082600001516fffffffffffffffffffffffffffffffff16815260200182602001516fffffffffffffffffffffffffffffffff16815260200150915050613b4356505b919050565b60008282840191508110151515613bca576040517f08c379a000000000000000000000000000000000000000000000000000000000815260040180806020018281038252600c8152602001807f6164642d6f766572666c6f77000000000000000000000000000000000000000081526020015060200191505060405180910390fd5b5b92915050565b6000600c613bf461016d8467ffffffffffffffff16614de190919063ffffffff16565b67ffffffffffffffff16811515613c0757fe5b049050613c0f565b919050565b60008267ffffffffffffffff1682840191508167ffffffffffffffff1610151515613caa576040517f08c379a000000000000000000000000000000000000000000000000000000000815260040180806020018281038252600c8152602001807f6164642d6f766572666c6f77000000000000000000000000000000000000000081526020015060200191505060405180910390fd5b5b92915050565b6040518060e00160405280613cd183600001516149aa909063ffffffff16565b6fffffffffffffffffffffffffffffffff168152602001613cfd83602001516149aa909063ffffffff16565b6fffffffffffffffffffffffffffffffff168152602001613d298360400151614eb1909063ffffffff16565b76ffffffffffffffffffffffffffffffffffffffffffffff168152602001613d66836060015167ffffffffffffffff16614f52909063ffffffff16565b61ffff168152602001613d8e836080015167ffffffffffffffff16614f52909063ffffffff16565b61ffff1681526020018260c0015161ffff168152602001613dc48360a0015167ffffffffffffffff16614fde909063ffffffff16565b60ff16815260200150600a60005060008467ffffffffffffffff1667ffffffffffffffff16815260200190815260200160002060005060008201518160000160006101000a8154816fffffffffffffffffffffffffffffffff02191690836fffffffffffffffffffffffffffffffff16021790555060208201518160000160106101000a8154816fffffffffffffffffffffffffffffffff02191690836fffffffffffffffffffffffffffffffff16021790555060408201518160010160006101000a81548176ffffffffffffffffffffffffffffffffffffffffffffff021916908376ffffffffffffffffffffffffffffffffffffffffffffff16021790555060608201518160010160176101000a81548161ffff021916908361ffff16021790555060808201518160010160196101000a81548161ffff021916908361ffff16021790555060a082015181600101601b6101000a81548161ffff021916908361ffff16021790555060c082015181600101601d6101000a81548160ff021916908360ff1602179055509050505b5050565b600060008573ffffffffffffffffffffffffffffffffffffffff166323b872dd60e01b868686604051602401808473ffffffffffffffffffffffffffffffffffffffff1681526020018373ffffffffffffffffffffffffffffffffffffffff1681526020018281526020019350505050604051602081830303815290604052907bffffffffffffffffffffffffffffffffffffffffffffffffffffffff19166020820180517bffffffffffffffffffffffffffffffffffffffffffffffffffffffff83818316178352505050506040518082805190602001908083835b60208310151561405a57805182525b602082019150602081019050602083039250614034565b6001836020036101000a0380198251168184511680821785525050505050509050019150506000604051808303816000865af19150503d80600081146140bc576040519150601f19603f3d011682016040523d82523d6000602084013e6140c1565b606091505b5091509150818015614102575060008151148061410157508080602001905160208110156140ef5760006000fd5b81019080805190602001909291905050505b5b1515614179576040517f08c379a00000000000000000000000000000000000000000000000000000000081526004018080602001828103825260038152602001807f535446000000000000000000000000000000000000000000000000000000000081526020015060200191505060405180910390fd5b50505b50505050565b600081805190602001209050614193565b919050565b60008267ffffffffffffffff1682840391508167ffffffffffffffff161115151561422e576040517f08c379a000000000000000000000000000000000000000000000000000000000815260040180806020018281038252600d8152602001807f7375622d756e646572666c6f770000000000000000000000000000000000000081526020015060200191505060405180910390fd5b5b92915050565b600060008214806142555750828283850292508281151561425257fe5b04145b15156142cc576040517f08c379a000000000000000000000000000000000000000000000000000000000815260040180806020018281038252600c8152602001807f6d756c2d6f766572666c6f77000000000000000000000000000000000000000081526020015060200191505060405180910390fd5b5b92915050565b61ffff61ffff16600760009054906101000a900461ffff1661ffff161015156142fc5760006000fd5b6007600081819054906101000a900461ffff168092919060010191906101000a81548161ffff021916908361ffff160217905550508060096000506000600760009054906101000a900461ffff1661ffff1661ffff16815260200190815260200160002060006101000a81548173ffffffffffffffffffffffffffffffffffffffff021916908373ffffffffffffffffffffffffffffffffffffffff160217905550600760009054906101000a900461ffff16600860005060008373ffffffffffffffffffffffffffffffffffffffff1673ffffffffffffffffffffffffffffffffffffffff16815260200190815260200160002060006101000a81548161ffff021916908361ffff1602179055508073ffffffffffffffffffffffffffffffffffffffff16635c19a95c306040518263ffffffff1660e01b8152600401614444919061563b565b600060405180830381600087803b15801561445f5760006000fd5b505af1158015614474573d600060003e3d6000fd5b505050508073ffffffffffffffffffffffffffffffffffffffff167f784c8f4dbf0ffedd6e72c76501c545a70f8b203b30a26ce542bf92ba87c248a460405160405180910390a25b50565b60006000606060008411151561450a576040517f08c379a000000000000000000000000000000000000000000000000000000000815260040161450190615911565b60405180910390fd5b60006000600260009054906101000a900473ffffffffffffffffffffffffffffffffffffffff1673ffffffffffffffffffffffffffffffffffffffff1663013cf08b876040518263ffffffff1660e01b81526004016145699190615b87565b60006040518083038186803b1580156145825760006000fd5b505afa158015614597573d600060003e3d6000fd5b505050506040513d6000823e3d601f19601f820116820180604052508101906145c09190615491565b509950505050509550505050506000600260009054906101000a900473ffffffffffffffffffffffffffffffffffffffff1673ffffffffffffffffffffffffffffffffffffffff16633e4f49e6886040518263ffffffff1660e01b815260040161462a9190615b87565b60206040518083038186803b1580156146435760006000fd5b505afa158015614658573d600060003e3d6000fd5b505050506040513d601f19601f8201168201806040525081019061467c9190615465565b90506004600781111561468b57fe5b81600781111561469757fe5b14806146b95750600360078111156146ab57fe5b8160078111156146b757fe5b145b806146da5750600560078111156146cc57fe5b8160078111156146d857fe5b145b806146fb5750600760078111156146ed57fe5b8160078111156146f957fe5b145b151561473c576040517f08c379a0000000000000000000000000000000000000000000000000000000008152600401614733906159ce565b60405180910390fd5b600060006000600260009054906101000a900473ffffffffffffffffffffffffffffffffffffffff1673ffffffffffffffffffffffffffffffffffffffff1663328dd9828b6040518263ffffffff1660e01b815260040161479d9190615b87565b60006040518083038186803b1580156147b65760006000fd5b505afa1580156147cb573d600060003e3d6000fd5b505050506040513d6000823e3d601f19601f820116820180604052508101906147f4919061534a565b92509250925060018351141515614840576040517f08c379a000000000000000000000000000000000000000000000000000000000815260040161483790615a4c565b60405180910390fd5b3073ffffffffffffffffffffffffffffffffffffffff1683600081518110151561486657fe5b602002602001015173ffffffffffffffffffffffffffffffffffffffff161415156148c6576040517f08c379a00000000000000000000000000000000000000000000000000000000081526004016148bd90615758565b60405180910390fd5b634e9568ef60e01b7bffffffffffffffffffffffffffffffffffffffffffffffffffffffff19166149128360008151811015156148ff57fe5b602002602001015161418263ffffffff16565b7bffffffffffffffffffffffffffffffffffffffffffffffffffffffff1916141515614973576040517f08c379a000000000000000000000000000000000000000000000000000000000815260040161496a90615797565b60405180910390fd5b858582600081518110151561498457fe5b60200260200101519850985098505050505050506149a3565050505050505b9193909250565b600070010000000000000000000000000000000082101515614a37576040517f08c379a00000000000000000000000000000000000000000000000000000000081526004018080602001828103825260128152602001807f6d6f7265207468616e203132382062697473000000000000000000000000000081526020015060200191505060405180910390fd5b819050614a3f565b919050565b6000614a5742612fa3909063ffffffff16565b905080505b90565b614a67615086565b6000600a60005060008467ffffffffffffffff1667ffffffffffffffff1681526020019081526020016000206000506040518060e00160405290816000820160009054906101000a90046fffffffffffffffffffffffffffffffff166fffffffffffffffffffffffffffffffff166fffffffffffffffffffffffffffffffff1681526020016000820160109054906101000a90046fffffffffffffffffffffffffffffffff166fffffffffffffffffffffffffffffffff166fffffffffffffffffffffffffffffffff1681526020016001820160009054906101000a900476ffffffffffffffffffffffffffffffffffffffffffffff1676ffffffffffffffffffffffffffffffffffffffffffffff1676ffffffffffffffffffffffffffffffffffffffffffffff1681526020016001820160179054906101000a900461ffff1661ffff1661ffff1681526020016001820160199054906101000a900461ffff1661ffff1661ffff16815260200160018201601b9054906101000a900461ffff1661ffff1661ffff16815260200160018201601d9054906101000a900460ff1660ff1660ff168152602001505090506040518060e0016040528082600001516fffffffffffffffffffffffffffffffff16815260200182602001516fffffffffffffffffffffffffffffffff168152602001826040015176ffffffffffffffffffffffffffffffffffffffffffffff168152602001826060015161ffff1667ffffffffffffffff168152602001826080015161ffff1667ffffffffffffffff1681526020018260c0015160ff1667ffffffffffffffff1681526020018260a0015161ffff16815260200150915050614cdb56505b919050565b6000600060006000198587098587029250828110838203039150506000811415614d2357600084111515614d145760006000fd5b83820492508292505050614dda565b8084111515614d325760006000fd5b6000848688099050828111820391508083039250600085866000031690508086049550808404935060018182600003040190508083028417935083506000600287600302189050808702600203810290508050808702600203810290508050808702600203810290508050808702600203810290508050808702600203810290508050808702600203810290508050808502955085508595505050505050614dda5650505050505b9392505050565b600060008267ffffffffffffffff161480614e3357508267ffffffffffffffff168267ffffffffffffffff1683850292508267ffffffffffffffff16811515614e2657fe5b0467ffffffffffffffff16145b1515614eaa576040517f08c379a000000000000000000000000000000000000000000000000000000000815260040180806020018281038252600c8152602001807f6d756c2d6f766572666c6f77000000000000000000000000000000000000000081526020015060200191505060405180910390fd5b5b92915050565b60007701000000000000000000000000000000000000000000000082101515614f45576040517f08c379a00000000000000000000000000000000000000000000000000000000081526004018080602001828103825260128152602001807f6d6f7265207468616e203138342062697473000000000000000000000000000081526020015060200191505060405180910390fd5b819050614f4d565b919050565b60006201000082101515614fd1576040517f08c379a00000000000000000000000000000000000000000000000000000000081526004018080602001828103825260118152602001807f6d6f7265207468616e203136206269747300000000000000000000000000000081526020015060200191505060405180910390fd5b819050614fd9565b919050565b60006101008210151561505c576040517f08c379a00000000000000000000000000000000000000000000000000000000081526004018080602001828103825260108152602001807f6d6f7265207468616e203820626974730000000000000000000000000000000081526020015060200191505060405180910390fd5b819050615064565b919050565b604051806040016040528060008152602001600081526020015090565b6040518060e00160405280600081526020016000815260200160008152602001600067ffffffffffffffff168152602001600067ffffffffffffffff168152602001600067ffffffffffffffff168152602001600061ffff168152602001509056615c98565b600067ffffffffffffffff83111561510057fe5b61513160207fffffffffffffffffffffffffffffffffffffffffffffffffffffffffffffffe0601f86011601615bec565b90508281528383830111156151465760006000fd5b615154836020830184615c3a565b5b9392505050565b600082601f830112151561516e578081fd5b8151602061518361517e83615c17565b615bec565b808382528282019150828601855b858110156151d7578151880189603f82011215156151ad578788fd5b6151be8a87830151604084016150ec565b855250848401935084820191505b600181019050615191565b5050809450505050505b92915050565b600082601f83011215156151f9578081fd5b8151602061520e61520983615c17565b615bec565b808382528282019150828601855b8581101561524b57615233898684518b0101615278565b8452848401935084820191505b60018101905061521c565b5050809450505050505b92915050565b600081519050801515811415156152725760006000fd5b5b919050565b600082601f830112151561528a578081fd5b615299838351602085016150ec565b90505b92915050565b6000815190506fffffffffffffffffffffffffffffffff8116811415156152c95760006000fd5b5b919050565b60008151905065ffffffffffff8116811415156152ec5760006000fd5b5b919050565b600060208284031215615303578081fd5b815161530e81615c6f565b809150505b92915050565b600060006040838503121561532c578081fd5b825161533781615c6f565b80925050602083015190505b9250929050565b6000600060006060848603121561535f578081fd5b835167ffffffffffffffff80821115615376578283fd5b818601915086601f830112151561538b578283fd5b815160206153a061539b83615c17565b615bec565b8083825282820191508286018b8485870289010111156153be578788fd5b8796505b848710156153ef5780516153d581615c6f565b80845250838301925083810190505b6001870196506153c2565b508098505050808801519350505080821115615409578283fd5b615415878388016151e7565b9350604086015191508082111561542a578283fd5b506154378682870161515c565b9150505b9250925092565b600060208284031215615453578081fd5b61545c8261525b565b90505b92915050565b600060208284031215615476578081fd5b8151600881101515615486578182fd5b809150505b92915050565b600060006000600060006000600060006000600060006101608c8e0312156154b7578687fd5b8b5167ffffffffffffffff8111156154cd578788fd5b6154d98e828f01615278565b9b505060208c01516154ea81615c6f565b809a50506154fa60408d016152cf565b985061550860608d016152cf565b975061551660808d016152a2565b965061552460a08d016152cf565b955061553260c08d016152cf565b945061554060e08d0161525b565b935061554f6101008d0161525b565b925061555e6101208d016152a2565b915061556d6101408d016152a2565b90505b9295989b509295989b9093969950565b600060208284031215615591578081fd5b815190505b92915050565b6000602082840312156155ad578081fd5b815167ffffffffffffffff8116811415156155c6578182fd5b809150505b92915050565b60007fffffffff0000000000000000000000000000000000000000000000000000000084168252825161560b816004850160208701615c3a565b6004818401019150505b9392505050565b6000825161562e818460208701615c3a565b8083019150505b92915050565b600060208201905073ffffffffffffffffffffffffffffffffffffffff831682525b92915050565b600060408201905073ffffffffffffffffffffffffffffffffffffffff8416825267ffffffffffffffff831660208301525b9392505050565b600060408201905073ffffffffffffffffffffffffffffffffffffffff841682528260208301525b9392505050565b600060408201905073ffffffffffffffffffffffffffffffffffffffff8416825267ffffffffffffffff831660208301525b9392505050565b6000602082528251806020840152615723816040850160208701615c3a565b60407fffffffffffffffffffffffffffffffffffffffffffffffffffffffffffffffe0601f8301168401019150505b92915050565b600060208252601060208301527f496e636f7272656374207461726765740000000000000000000000000000000060408301526060820190505b919050565b600060208252600b60208301527f496e76616c69642073696700000000000000000000000000000000000000000060408301526060820190505b919050565b600060208252601560208301527f496e76616c6964206c6f636b206475726174696f6e000000000000000000000060408301526060820190505b919050565b600060208252601160208301527f556e737570706f7274656420746f6b656e00000000000000000000000000000060408301526060820190505b919050565b600060208252601a60208301527f496e73756666696369656e7420616761696e737420766f74657300000000000060408301526060820190505b919050565b600060208252601660208301527f496e73756666696369656e7420666f7220766f7465730000000000000000000060408301526060820190505b919050565b600060208252600e60208301527f4e6f7420417574686f72697a656400000000000000000000000000000000000060408301526060820190505b919050565b600060208252600460208301527f4e6f6f700000000000000000000000000000000000000000000000000000000060408301526060820190505b919050565b600060208252601260208301527f416374696f6e20626c61636b6c6973746564000000000000000000000000000060408301526060820190505b919050565b600060208252600c60208301527f5374696c6c206c6f636b6564000000000000000000000000000000000000000060408301526060820190505b919050565b600060208252601660208301527f496e76616c69642070726f706f73616c2073746174650000000000000000000060408301526060820190505b919050565b600060208252600c60208301527f506f736974696f6e20444e45000000000000000000000000000000000000000060408301526060820190505b919050565b600060208252601060208301527f546f6f206d616e7920616374696f6e730000000000000000000000000000000060408301526060820190505b919050565b600060208252601260208301527f416c6c6f746d656e74206578636565646564000000000000000000000000000060408301526060820190505b919050565b600060208252600e60208301527f4e6f74206120636f6e747261637400000000000000000000000000000000000060408301526060820190505b919050565b600060208252601460208301527f436f6e747261637420616c72656164792073657400000000000000000000000060408301526060820190505b919050565b600060208252601660208301527f4d6f7265207468616e203225206f6620737570706c790000000000000000000060408301526060820190505b919050565b60006020820190508282525b92915050565b600060408201905083825282151560208301525b9392505050565b600060208201905067ffffffffffffffff831682525b92915050565b600060208201905067ffffffffffffffff831682525b92915050565b6000604051905081810181811067ffffffffffffffff82111715615c0c57fe5b80604052505b919050565b600067ffffffffffffffff821115615c2b57fe5b6020602083020190505b919050565b60005b83811015615c595780820151818401525b602081019050615c3d565b83811115615c68576000848401525b505b505050565b73ffffffffffffffffffffffffffffffffffffffff811681141515615c945760006000fd5b5b50565bfea2646970667358221220b1b8e8861af68358b5fd77e1b7f27587e0087fa52a9f57ac1f8cb0946bc94e1264736f6c63430007060033",
  "linkReferences": {},
  "deployedLinkReferences": {}
}