{
  "_format": "hh-sol-artifact-1",
  "contractName": "Rates",
  "sourceName": "contracts/core/logic/Rates.sol",
  "abi": [
    {
      "anonymous": false,
      "inputs": [
        {
          "indexed": true,
          "internalType": "address",
          "name": "governor",
          "type": "address"
        }
      ],
      "name": "Initialized",
      "type": "event"
    },
    {
      "anonymous": false,
      "inputs": [
        {
          "indexed": true,
          "internalType": "string",
          "name": "paramName",
          "type": "string"
        },
        {
          "indexed": false,
          "internalType": "uint128",
          "name": "value",
          "type": "uint128"
        }
      ],
      "name": "ParameterUpdated128",
      "type": "event"
    },
    {
      "anonymous": false,
      "inputs": [
        {
          "indexed": true,
          "internalType": "string",
          "name": "paramName",
          "type": "string"
        },
        {
          "indexed": false,
          "internalType": "uint64",
          "name": "value",
          "type": "uint64"
        }
      ],
      "name": "ParameterUpdated64",
      "type": "event"
    },
    {
      "anonymous": false,
      "inputs": [
        {
          "indexed": true,
          "internalType": "string",
          "name": "paramName",
          "type": "string"
        },
        {
          "indexed": true,
          "internalType": "address",
          "name": "addr",
          "type": "address"
        }
      ],
      "name": "ParameterUpdatedAddress",
      "type": "event"
    },
    {
      "anonymous": false,
      "inputs": [
        {
          "indexed": true,
          "internalType": "string",
          "name": "paramName",
          "type": "string"
        },
        {
          "indexed": false,
          "internalType": "int128",
          "name": "value",
          "type": "int128"
        }
      ],
      "name": "ParameterUpdatedInt128",
      "type": "event"
    },
    {
      "anonymous": false,
      "inputs": [
        {
          "indexed": false,
          "internalType": "int256",
          "name": "interestRate",
          "type": "int256"
        },
        {
          "indexed": false,
          "internalType": "uint256",
          "name": "price",
          "type": "uint256"
        },
        {
          "indexed": false,
          "internalType": "uint256",
          "name": "rewardCount",
          "type": "uint256"
        },
        {
          "indexed": false,
          "internalType": "uint64",
          "name": "nextUpdateTime",
          "type": "uint64"
        }
      ],
      "name": "RateUpdated",
      "type": "event"
    },
    {
      "anonymous": false,
      "inputs": [],
      "name": "Stopped",
      "type": "event"
    },
    {
      "inputs": [
        {
          "internalType": "contract IUniswapV3Pool",
          "name": "pool",
          "type": "address"
        }
      ],
      "name": "addReferencePool",
      "outputs": [],
      "stateMutability": "nonpayable",
      "type": "function"
    },
    {
      "inputs": [],
      "name": "collateralPool",
      "outputs": [
        {
          "internalType": "contract IUniswapV3Pool",
          "name": "",
          "type": "address"
        }
      ],
      "stateMutability": "view",
      "type": "function"
    },
    {
      "inputs": [],
      "name": "currentRateData",
      "outputs": [
        {
          "internalType": "int256",
          "name": "rate",
          "type": "int256"
        },
        {
          "internalType": "uint64",
          "name": "nextUpdateTime",
          "type": "uint64"
        },
        {
          "internalType": "uint128",
          "name": "rewardCount",
          "type": "uint128"
        }
      ],
      "stateMutability": "view",
      "type": "function"
    },
    {
      "inputs": [],
      "name": "deployer",
      "outputs": [
        {
          "internalType": "address",
          "name": "",
          "type": "address"
        }
      ],
      "stateMutability": "view",
      "type": "function"
    },
    {
      "inputs": [
        {
          "internalType": "contract IUniswapV3Pool",
          "name": "_collateralPool",
          "type": "address"
        },
        {
          "internalType": "contract IUniswapV3Pool[]",
          "name": "_referencePools",
          "type": "address[]"
        }
      ],
      "name": "finalizeInitialization",
      "outputs": [],
      "stateMutability": "nonpayable",
      "type": "function"
    },
    {
      "inputs": [],
      "name": "getReferencePools",
      "outputs": [
        {
          "internalType": "contract IUniswapV3Pool[]",
          "name": "",
          "type": "address[]"
        }
      ],
      "stateMutability": "view",
      "type": "function"
    },
    {
      "inputs": [],
      "name": "getRewardCount",
      "outputs": [
        {
          "internalType": "uint256",
          "name": "",
          "type": "uint256"
        }
      ],
      "stateMutability": "view",
      "type": "function"
    },
    {
      "inputs": [],
      "name": "governor",
      "outputs": [
        {
          "internalType": "contract IGovernor",
          "name": "",
          "type": "address"
        }
      ],
      "stateMutability": "view",
      "type": "function"
    },
    {
      "inputs": [
        {
          "internalType": "contract IGovernor",
          "name": "_governor",
          "type": "address"
        }
      ],
      "name": "init",
      "outputs": [],
      "stateMutability": "nonpayable",
      "type": "function"
    },
    {
      "inputs": [],
      "name": "interestRateAbsoluteValue",
      "outputs": [
        {
          "internalType": "uint256",
          "name": "",
          "type": "uint256"
        }
      ],
      "stateMutability": "view",
      "type": "function"
    },
    {
      "inputs": [],
      "name": "interestRateParameters",
      "outputs": [
        {
          "internalType": "uint128",
          "name": "acceptableError",
          "type": "uint128"
        },
        {
          "internalType": "uint128",
          "name": "errorInterval",
          "type": "uint128"
        },
        {
          "internalType": "uint128",
          "name": "interestRateStep",
          "type": "uint128"
        },
        {
          "internalType": "uint64",
          "name": "maxSteps",
          "type": "uint64"
        },
        {
          "internalType": "int128",
          "name": "minRate",
          "type": "int128"
        },
        {
          "internalType": "int128",
          "name": "maxRate",
          "type": "int128"
        }
      ],
      "stateMutability": "view",
      "type": "function"
    },
    {
      "inputs": [],
      "name": "minTimeBetweenUpdates",
      "outputs": [
        {
          "internalType": "uint64",
          "name": "",
          "type": "uint64"
        }
      ],
      "stateMutability": "view",
      "type": "function"
    },
    {
      "inputs": [],
      "name": "positiveInterestRate",
      "outputs": [
        {
          "internalType": "bool",
          "name": "",
          "type": "bool"
        }
      ],
      "stateMutability": "view",
      "type": "function"
    },
    {
      "inputs": [],
      "name": "predictInterestRate",
      "outputs": [
        {
          "internalType": "uint256",
          "name": "price",
          "type": "uint256"
        },
        {
          "internalType": "int256",
          "name": "rate",
          "type": "int256"
        }
      ],
      "stateMutability": "view",
      "type": "function"
    },
    {
      "inputs": [
        {
          "internalType": "uint256",
          "name": "",
          "type": "uint256"
        }
      ],
      "name": "referencePools",
      "outputs": [
        {
          "internalType": "contract IUniswapV3Pool",
          "name": "",
          "type": "address"
        }
      ],
      "stateMutability": "view",
      "type": "function"
    },
    {
      "inputs": [
        {
          "internalType": "contract IUniswapV3Pool",
          "name": "pool",
          "type": "address"
        }
      ],
      "name": "removeReferencePool",
      "outputs": [],
      "stateMutability": "nonpayable",
      "type": "function"
    },
    {
      "inputs": [
        {
          "internalType": "uint128",
          "name": "error",
          "type": "uint128"
        }
      ],
      "name": "setAcceptableError",
      "outputs": [],
      "stateMutability": "nonpayable",
      "type": "function"
    },
    {
      "inputs": [
        {
          "internalType": "uint128",
          "name": "interval",
          "type": "uint128"
        }
      ],
      "name": "setErrorInterval",
      "outputs": [],
      "stateMutability": "nonpayable",
      "type": "function"
    },
    {
      "inputs": [
        {
          "internalType": "uint128",
          "name": "step",
          "type": "uint128"
        }
      ],
      "name": "setInterestRateStep",
      "outputs": [],
      "stateMutability": "nonpayable",
      "type": "function"
    },
    {
      "inputs": [
        {
          "internalType": "int128",
          "name": "max",
          "type": "int128"
        }
      ],
      "name": "setMaxRate",
      "outputs": [],
      "stateMutability": "nonpayable",
      "type": "function"
    },
    {
      "inputs": [
        {
          "internalType": "uint64",
          "name": "steps",
          "type": "uint64"
        }
      ],
      "name": "setMaxSteps",
      "outputs": [],
      "stateMutability": "nonpayable",
      "type": "function"
    },
    {
      "inputs": [
        {
          "internalType": "int128",
          "name": "min",
          "type": "int128"
        }
      ],
      "name": "setMinRate",
      "outputs": [],
      "stateMutability": "nonpayable",
      "type": "function"
    },
    {
      "inputs": [
        {
          "internalType": "uint64",
          "name": "time",
          "type": "uint64"
        }
      ],
      "name": "setMinTimeBetweenUpdates",
      "outputs": [],
      "stateMutability": "nonpayable",
      "type": "function"
    },
    {
      "inputs": [],
      "name": "stop",
      "outputs": [],
      "stateMutability": "nonpayable",
      "type": "function"
    },
    {
      "inputs": [],
      "name": "stopped",
      "outputs": [
        {
          "internalType": "bool",
          "name": "",
          "type": "bool"
        }
      ],
      "stateMutability": "view",
      "type": "function"
    },
    {
      "inputs": [],
      "name": "update",
      "outputs": [],
      "stateMutability": "nonpayable",
      "type": "function"
    },
    {
      "inputs": [
        {
          "internalType": "bytes4",
          "name": "",
          "type": "bytes4"
        }
      ],
      "name": "validUpdate",
      "outputs": [
        {
          "internalType": "bool",
          "name": "",
          "type": "bool"
        }
      ],
      "stateMutability": "view",
      "type": "function"
    }
  ],
  "bytecode": "0x60806040526001600660005090905562014a78600760006101000a81548167ffffffffffffffff021916908367ffffffffffffffff1602179055503480156100475760006000fd5b505b33600160006101000a81548173ffffffffffffffffffffffffffffffffffffffff021916908373ffffffffffffffffffffffffffffffffffffffff1602179055505b610090565b61479880620000a06000396000f3fe60806040523480156100115760006000fd5b50600436106101be5760003560e01c80637e7e8eec116100fa578063bc22cf5c11610098578063d5f3948811610072578063d5f3948814610468578063ee47304d14610486578063eec3f6f1146104a2578063ff0eccf6146104be576101be565b8063bc22cf5c14610414578063c381c1e614610430578063d3ab38881461044c576101be565b806395563b47116100d457806395563b47146103ab578063a0fc0eda146103ce578063a2e62045146103ec578063ab658be2146103f6576101be565b80637e7e8eec1461034157806380ddbdb41461035f57806384333cc71461037b576101be565b806319ab453c116101675780635fd019ad116101415780635fd019ad146102cd5780636d7fa664146102e95780636e16ead21461030757806375f12b2114610323576101be565b806319ab453c146102755780631f244faf146102915780635d8350b4146102b1576101be565b8063150147d711610198578063150147d71461021c578063178d12261461023857806319a6e9e614610257576101be565b806307da68f5146101c45780630c340a24146101ce578063113cf1ab146101ec576101be565b60006000fd5b6101cc6104dc565b005b6101d66104fc565b6040516101e391906142a0565b60405180910390f35b61020660048036038101906102019190613d6e565b610522565b604051610213919061428c565b60405180910390f35b61023660048036038101906102319190613e7e565b610547565b005b6102406106b0565b60405161024e9291906146be565b60405180910390f35b61025f610b10565b60405161026c91906146d7565b60405180910390f35b61028f600480360381019061028a9190613de2565b610b2a565b005b610299610f3b565b6040516102a893929190614379565b60405180910390f35b6102cb60048036038101906102c69190613fd1565b610f89565b005b6102e760048036038101906102e29190613f5c565b611040565b005b6102f1611124565b6040516102fe919061428c565b60405180910390f35b610321600480360381019061031c9190613f5c565b611140565b005b61032b611206565b604051610338919061428c565b60405180910390f35b610349611219565b60405161035691906146ac565b60405180910390f35b61037960048036038101906103749190613f5c565b6112dd565b005b61039560048036038101906103909190613f99565b6113a3565b6040516103a291906142c8565b60405180910390f35b6103b36113e9565b6040516103c59695949392919061464f565b60405180910390f35b6103d6611498565b6040516103e391906146ac565b60405180910390f35b6103f46114c9565b005b6103fe611c33565b60405161040b9190614228565b60405180910390f35b61042e60048036038101906104299190613ea5565b611cc9565b005b61044a60048036038101906104459190613e7e565b611fd1565b005b61046660048036038101906104619190613fd1565b61218d565b005b61047061221a565b60405161047d91906141bf565b60405180910390f35b6104a0600480360381019061049b9190613f2e565b612240565b005b6104bc60048036038101906104b79190613f2e565b61230a565b005b6104c66123d4565b6040516104d391906142c8565b60405180910390f35b6104ea6123fa63ffffffff16565b6104f861248f63ffffffff16565b5b5b565b600060009054906101000a900473ffffffffffffffffffffffffffffffffffffffff1681565b600560005060205280600052604060002060009150909054906101000a900460ff1681565b6105556123fa63ffffffff16565b6001600d600050805490501115156105a2576040517f08c379a00000000000000000000000000000000000000000000000000000000081526004016105999061456e565b60405180910390fd5b61063b600d60005080548060200260200160405190810160405280929190818152602001828054801561062a57602002820191906000526020600020905b8160009054906101000a900473ffffffffffffffffffffffffffffffffffffffff1673ffffffffffffffffffffffffffffffffffffffff16815260200190600101908083116105e0575b5050505050826124d963ffffffff16565b600d6000509080519060200190610653929190613bf0565b508073ffffffffffffffffffffffffffffffffffffffff16604051610677906140fb565b60405180910390207f78caada2f560033c9479d8c5e33f045f2e611faebe6b6d8a73874c80ec2dd3a260405160405180910390a35b5b50565b600060006000600060009054906101000a900473ffffffffffffffffffffffffffffffffffffffff1673ffffffffffffffffffffffffffffffffffffffff1663d3419bf36040518163ffffffff1660e01b815260040160206040518083038186803b15801561071f5760006000fd5b505afa158015610734573d600060003e3d6000fd5b505050506040513d601f19601f820116820180604052508101906107589190613e30565b90506000600d60005080549050905060008167ffffffffffffffff811180156107815760006000fd5b506040519080825280602002602001820160405280156107b05781602001602082028036833780820191505090505b5090506000600090505b828110156108bb578373ffffffffffffffffffffffffffffffffffffffff16633c63a9cd600d600050838154811015156107f057fe5b906000526020600020900160005b9054906101000a900473ffffffffffffffffffffffffffffffffffffffff1660016040518363ffffffff1660e01b815260040161083c9291906142f0565b60206040518083038186803b1580156108555760006000fd5b505afa15801561086a573d600060003e3d6000fd5b505050506040513d601f19601f8201168201806040525081019061088e9190613fb5565b828281518110151561089c57fe5b60200260200101909081815260200150505b80806001019150506107ba565b5061097b818473ffffffffffffffffffffffffffffffffffffffff16633c63a9cd600e60009054906101000a900473ffffffffffffffffffffffffffffffffffffffff1660016040518363ffffffff1660e01b815260040161091e9291906142f0565b60206040518083038186803b1580156109375760006000fd5b505afa15801561094c573d600060003e3d6000fd5b505050506040513d601f19601f820116820180604052508101906109709190613fb5565b61266363ffffffff16565b94508450610af7600b6000506000016000505460086000506040518060c00160405290816000820160009054906101000a90046fffffffffffffffffffffffffffffffff166fffffffffffffffffffffffffffffffff166fffffffffffffffffffffffffffffffff1681526020016000820160109054906101000a90046fffffffffffffffffffffffffffffffff166fffffffffffffffffffffffffffffffff166fffffffffffffffffffffffffffffffff1681526020016001820160009054906101000a90046fffffffffffffffffffffffffffffffff166fffffffffffffffffffffffffffffffff166fffffffffffffffffffffffffffffffff1681526020016001820160109054906101000a900467ffffffffffffffff1667ffffffffffffffff1667ffffffffffffffff1681526020016002820160009054906101000a9004600f0b600f0b600f0b81526020016002820160109054906101000a9004600f0b600f0b600f0b81526020015050876126ae63ffffffff16565b93508350848494509450505050610b0c565050505b9091565b600760009054906101000a900467ffffffffffffffff1681565b600160009054906101000a900473ffffffffffffffffffffffffffffffffffffffff1673ffffffffffffffffffffffffffffffffffffffff163373ffffffffffffffffffffffffffffffffffffffff16141515610b875760006000fd5b600160159054906101000a900460ff16151515610ba45760006000fd5b80600060006101000a81548173ffffffffffffffffffffffffffffffffffffffff021916908373ffffffffffffffffffffffffffffffffffffffff160217905550600060009054906101000a900473ffffffffffffffffffffffffffffffffffffffff1673ffffffffffffffffffffffffffffffffffffffff16639624e83e6040518163ffffffff1660e01b815260040160206040518083038186803b158015610c4e5760006000fd5b505afa158015610c63573d600060003e3d6000fd5b505050506040513d601f19601f82011682018060405250810190610c879190613dbb565b600260006101000a81548173ffffffffffffffffffffffffffffffffffffffff021916908373ffffffffffffffffffffffffffffffffffffffff160217905550600060009054906101000a900473ffffffffffffffffffffffffffffffffffffffff1673ffffffffffffffffffffffffffffffffffffffff1663323741746040518163ffffffff1660e01b815260040160206040518083038186803b158015610d305760006000fd5b505afa158015610d45573d600060003e3d6000fd5b505050506040513d601f19601f82011682018060405250810190610d699190613e09565b600360006101000a81548173ffffffffffffffffffffffffffffffffffffffff021916908373ffffffffffffffffffffffffffffffffffffffff160217905550600060009054906101000a900473ffffffffffffffffffffffffffffffffffffffff1673ffffffffffffffffffffffffffffffffffffffff1663d478b0876040518163ffffffff1660e01b815260040160206040518083038186803b158015610e125760006000fd5b505afa158015610e27573d600060003e3d6000fd5b505050506040513d601f19601f82011682018060405250810190610e4b9190613e57565b600460006101000a81548173ffffffffffffffffffffffffffffffffffffffff021916908373ffffffffffffffffffffffffffffffffffffffff160217905550610e9961282663ffffffff16565b600160149054906101000a900460ff1615610ece576001600160156101000a81548160ff021916908315150217905550610ef4565b600160006101000a81549073ffffffffffffffffffffffffffffffffffffffff02191690555b8073ffffffffffffffffffffffffffffffffffffffff167f908408e307fc569b417f6cbec5d5a06f44a0a505ac0479b47d421a4b2fd6a1e660405160405180910390a25b50565b600b6000508060000160005054908060010160009054906101000a900467ffffffffffffffff16908060010160089054906101000a90046fffffffffffffffffffffffffffffffff16905083565b610f976123fa63ffffffff16565b80600760006101000a81548167ffffffffffffffff021916908367ffffffffffffffff1602179055506000600760009054906101000a900467ffffffffffffffff1667ffffffffffffffff16111515610ff05760006000fd5b604051610ffc90614099565b60405180910390207f6293347933ad2997134e224ac8cd2e39908a4a22aeed9af52127b4bbf76529788260405161103391906146d7565b60405180910390a25b5b50565b61104e6123fa63ffffffff16565b806fffffffffffffffffffffffffffffffff1660001080156110895750670de0b6b3a7640000816fffffffffffffffffffffffffffffffff16105b15156110955760006000fd5b80600860005060000160106101000a8154816fffffffffffffffffffffffffffffffff02191690836fffffffffffffffffffffffffffffffff1602179055506040516110e090614037565b60405180910390207ff92f7fc8addd796154d83393012a119e212b31cb3dc9776133129db4c5747fcc82604051611117919061462b565b60405180910390a25b5b50565b60006000600b600050600001600050541215905061113d565b90565b61114e6123fa63ffffffff16565b670de0b6b3a7640000816fffffffffffffffffffffffffffffffff161015156111775760006000fd5b80600860005060010160006101000a8154816fffffffffffffffffffffffffffffffff02191690836fffffffffffffffffffffffffffffffff1602179055506040516111c29061412c565b60405180910390207ff92f7fc8addd796154d83393012a119e212b31cb3dc9776133129db4c5747fcc826040516111f9919061462b565b60405180910390a25b5b50565b600060149054906101000a900460ff1681565b60006112d3600b600050604051806060016040529081600082016000505481526020016001820160009054906101000a900467ffffffffffffffff1667ffffffffffffffff1667ffffffffffffffff1681526020016001820160089054906101000a90046fffffffffffffffffffffffffffffffff166fffffffffffffffffffffffffffffffff166fffffffffffffffffffffffffffffffff16815260200150506112c8612e3c63ffffffff16565b612e5763ffffffff16565b90506112da565b90565b6112eb6123fa63ffffffff16565b670de0b6b3a7640000816fffffffffffffffffffffffffffffffff161015156113145760006000fd5b80600860005060000160006101000a8154816fffffffffffffffffffffffffffffffff02191690836fffffffffffffffffffffffffffffffff16021790555060405161135f90614068565b60405180910390207ff92f7fc8addd796154d83393012a119e212b31cb3dc9776133129db4c5747fcc82604051611396919061462b565b60405180910390a25b5b50565b600d60005081815481106113b657600080fd5b906000526020600020900160005b9150909054906101000a900473ffffffffffffffffffffffffffffffffffffffff1681565b60086000508060000160009054906101000a90046fffffffffffffffffffffffffffffffff16908060000160109054906101000a90046fffffffffffffffffffffffffffffffff16908060010160009054906101000a90046fffffffffffffffffffffffffffffffff16908060010160109054906101000a900467ffffffffffffffff16908060020160009054906101000a9004600f0b908060020160109054906101000a9004600f0b905086565b60006000600b600050600001600050549050600081126114b857806114bd565b806000035b9150506114c656505b90565b6114d7612f3663ffffffff16565b6114e561301563ffffffff16565b6000600b600050604051806060016040529081600082016000505481526020016001820160009054906101000a900467ffffffffffffffff1667ffffffffffffffff1667ffffffffffffffff1681526020016001820160089054906101000a90046fffffffffffffffffffffffffffffffff166fffffffffffffffffffffffffffffffff166fffffffffffffffffffffffffffffffff16815260200150509050611593612e3c63ffffffff16565b67ffffffffffffffff16816020015167ffffffffffffffff16111515156115ef576040517f08c379a00000000000000000000000000000000000000000000000000000000081526004016115e69061452f565b60405180910390fd5b6000600060009054906101000a900473ffffffffffffffffffffffffffffffffffffffff1673ffffffffffffffffffffffffffffffffffffffff1663d3419bf36040518163ffffffff1660e01b815260040160206040518083038186803b15801561165a5760006000fd5b505afa15801561166f573d600060003e3d6000fd5b505050506040513d601f19601f820116820180604052508101906116939190613e30565b90506000600d60005080549050905060008167ffffffffffffffff811180156116bc5760006000fd5b506040519080825280602002602001820160405280156116eb5781602001602082028036833780820191505090505b5090506000600090505b828110156117f5578373ffffffffffffffffffffffffffffffffffffffff1663ce403c13600d6000508381548110151561172b57fe5b906000526020600020900160005b9054906101000a900473ffffffffffffffffffffffffffffffffffffffff166040518263ffffffff1660e01b815260040161177491906142c8565b602060405180830381600087803b15801561178f5760006000fd5b505af11580156117a4573d600060003e3d6000fd5b505050506040513d601f19601f820116820180604052508101906117c89190613fb5565b82828151811015156117d657fe5b60200260200101909081815260200150505b80806001019150506116f5565b5060006118b6828573ffffffffffffffffffffffffffffffffffffffff1663ce403c13600e60009054906101000a900473ffffffffffffffffffffffffffffffffffffffff166040518263ffffffff1660e01b815260040161185791906142c8565b602060405180830381600087803b1580156118725760006000fd5b505af1158015611887573d600060003e3d6000fd5b505050506040513d601f19601f820116820180604052508101906118ab9190613fb5565b61266363ffffffff16565b905060006040518060600160405280611a36886000015160086000506040518060c00160405290816000820160009054906101000a90046fffffffffffffffffffffffffffffffff166fffffffffffffffffffffffffffffffff166fffffffffffffffffffffffffffffffff1681526020016000820160109054906101000a90046fffffffffffffffffffffffffffffffff166fffffffffffffffffffffffffffffffff166fffffffffffffffffffffffffffffffff1681526020016001820160009054906101000a90046fffffffffffffffffffffffffffffffff166fffffffffffffffffffffffffffffffff166fffffffffffffffffffffffffffffffff1681526020016001820160109054906101000a900467ffffffffffffffff1667ffffffffffffffff1667ffffffffffffffff1681526020016002820160009054906101000a9004600f0b600f0b600f0b81526020016002820160109054906101000a9004600f0b600f0b600f0b81526020015050866126ae63ffffffff16565b8152602001611a60600760009054906101000a900467ffffffffffffffff1661310a63ffffffff16565b67ffffffffffffffff168152602001611a9c611a8f89611a84612e3c63ffffffff16565b612e5763ffffffff16565b613140909063ffffffff16565b6fffffffffffffffffffffffffffffffff16815260200150905080600b60005060008201518160000160005090905560208201518160010160006101000a81548167ffffffffffffffff021916908367ffffffffffffffff16021790555060408201518160010160086101000a8154816fffffffffffffffffffffffffffffffff02191690836fffffffffffffffffffffffffffffffff160217905550905050600060009054906101000a900473ffffffffffffffffffffffffffffffffffffffff1673ffffffffffffffffffffffffffffffffffffffff1663ef7a7cfa3383604001516040518363ffffffff1660e01b8152600401611b9d9291906141e7565b600060405180830381600087803b158015611bb85760006000fd5b505af1158015611bcd573d600060003e3d6000fd5b505050507f9f912bcb7b057a4f10fbbee5785670aecb2ab545144237646e17398d55de72dc81600001518383604001518460200151604051611c129493929190614336565b60405180910390a15050505050505b5b611c306131da63ffffffff16565b5b565b6060600d600050805480602002602001604051908101604052809291908181526020018280548015611cba57602002820191906000526020600020905b8160009054906101000a900473ffffffffffffffffffffffffffffffffffffffff1673ffffffffffffffffffffffffffffffffffffffff1681526020019060010190808311611c70575b50505050509050611cc6565b90565b600160149054906101000a900460ff168015611cf15750600160159054906101000a900460ff165b8015611d4a5750600160009054906101000a900473ffffffffffffffffffffffffffffffffffffffff1673ffffffffffffffffffffffffffffffffffffffff163373ffffffffffffffffffffffffffffffffffffffff16145b1515611d565760006000fd5b600160146101000a81549060ff0219169055600160156101000a81549060ff0219169055600160006101000a81549073ffffffffffffffffffffffffffffffffffffffff02191690556000828290509050600081111515611db75760006000fd5b600060009054906101000a900473ffffffffffffffffffffffffffffffffffffffff1673ffffffffffffffffffffffffffffffffffffffff1663d3419bf36040518163ffffffff1660e01b815260040160206040518083038186803b158015611e205760006000fd5b505afa158015611e35573d600060003e3d6000fd5b505050506040513d601f19601f82011682018060405250810190611e599190613e30565b73ffffffffffffffffffffffffffffffffffffffff1663532cec7c856040518263ffffffff1660e01b8152600401611e9191906142c8565b60206040518083038186803b158015611eaa5760006000fd5b505afa158015611ebf573d600060003e3d6000fd5b505050506040513d601f19601f82011682018060405250810190611ee39190613d41565b1515611f24576040517f08c379a0000000000000000000000000000000000000000000000000000000008152600401611f1b90614433565b60405180910390fd5b6000600090505b81811015611f7257611f648484838181101515611f4457fe5b9050602002016020810190611f599190613e7e565b61326e63ffffffff16565b5b8080600101915050611f2b565b5083600e60006101000a81548173ffffffffffffffffffffffffffffffffffffffff021916908373ffffffffffffffffffffffffffffffffffffffff1602179055508282600d6000509190611fc8929190613c7a565b50505b5b505050565b611fdf6123fa63ffffffff16565b612078600d60005080548060200260200160405190810160405280929190818152602001828054801561206757602002820191906000526020600020905b8160009054906101000a900473ffffffffffffffffffffffffffffffffffffffff1673ffffffffffffffffffffffffffffffffffffffff168152602001906001019080831161201d575b50505050508261338063ffffffff16565b1515156120ba576040517f08c379a00000000000000000000000000000000000000000000000000000000081526004016120b1906145ad565b60405180910390fd5b6120c98161326e63ffffffff16565b600d60005081908060018154018082558091505060019003906000526020600020900160005b9091909190916101000a81548173ffffffffffffffffffffffffffffffffffffffff021916908373ffffffffffffffffffffffffffffffffffffffff1602179055508073ffffffffffffffffffffffffffffffffffffffff166040516121549061415d565b60405180910390207f78caada2f560033c9479d8c5e33f045f2e611faebe6b6d8a73874c80ec2dd3a260405160405180910390a35b5b50565b61219b6123fa63ffffffff16565b80600860005060010160106101000a81548167ffffffffffffffff021916908367ffffffffffffffff1602179055506040516121d690614006565b60405180910390207f6293347933ad2997134e224ac8cd2e39908a4a22aeed9af52127b4bbf76529788260405161220d91906146d7565b60405180910390a25b5b50565b600160009054906101000a900473ffffffffffffffffffffffffffffffffffffffff1681565b61224e6123fa63ffffffff16565b600860005060020160109054906101000a9004600f0b600f0b81600f0b1215156122785760006000fd5b80600860005060020160006101000a8154816fffffffffffffffffffffffffffffffff0219169083600f0b6fffffffffffffffffffffffffffffffff1602179055506040516122c69061418e565b60405180910390207f73372e841856ef3f75f5070dea5fbba697b24bf1b513158c125d0c7bbcc62fd2826040516122fd9190614321565b60405180910390a25b5b50565b6123186123fa63ffffffff16565b80600f0b600860005060020160009054906101000a9004600f0b600f0b1215156123425760006000fd5b80600860005060020160106101000a8154816fffffffffffffffffffffffffffffffff0219169083600f0b6fffffffffffffffffffffffffffffffff160217905550604051612390906140ca565b60405180910390207f73372e841856ef3f75f5070dea5fbba697b24bf1b513158c125d0c7bbcc62fd2826040516123c79190614321565b60405180910390a25b5b50565b600e60009054906101000a900473ffffffffffffffffffffffffffffffffffffffff1681565b600060009054906101000a900473ffffffffffffffffffffffffffffffffffffffff1673ffffffffffffffffffffffffffffffffffffffff163373ffffffffffffffffffffffffffffffffffffffff1614151561248c576040517f08c379a000000000000000000000000000000000000000000000000000000000815260040161248390614472565b60405180910390fd5b5b565b6001600060146101000a81548160ff0219169083151502179055507f7acc84e34091ae817647a4c49116f5cc07f319078ba80f8f5fde37ea7e25cbd660405160405180910390a15b565b60606124eb838361338063ffffffff16565b151561252c576040517f08c379a0000000000000000000000000000000000000000000000000000000008152600401612523906143f4565b60405180910390fd5b6000600184510367ffffffffffffffff8111801561254a5760006000fd5b506040519080825280602002602001820160405280156125795781602001602082028036833780820191505090505b50905060006000600090505b8551811015612650578473ffffffffffffffffffffffffffffffffffffffff1686828151811015156125b357fe5b602002602001015173ffffffffffffffffffffffffffffffffffffffff161415156126425785818151811015156125e657fe5b602002602001015183838151811015156125fc57fe5b602002602001019073ffffffffffffffffffffffffffffffffffffffff16908173ffffffffffffffffffffffffffffffffffffffff168152602001505081806001019250505b5b8080600101915050612585565b50819250505061265d5650505b92915050565b6000816126758461340363ffffffff16565b760a70c3c40a64e6c51999090b65f67d924000000000000081151561269657fe5b048115156126a057fe5b0490506126a8565b92915050565b60006000670de0b6b3a7640000831090506000816126d657670de0b6b3a764000084036126e2565b83670de0b6b3a7640000035b905084600001516fffffffffffffffffffffffffffffffff16811015156127db57600061275a61274d600188602001516fffffffffffffffffffffffffffffffff168581151561272e57fe5b0401886060015167ffffffffffffffff1661368690919063ffffffff16565b6136a4909063ffffffff16565b67ffffffffffffffff16905060006127a16127948389604001516fffffffffffffffffffffffffffffffff1661373690919063ffffffff16565b6137d4909063ffffffff16565b9050836127c0576127bb818961387d90919063ffffffff16565b6127d4565b6127d3818961391490919063ffffffff16565b5b9750875050505b8460800151600f0b8612156127f7578460800151600f0b955085505b8460a00151600f0b861315612813578460a00151600f0b955085505b859250505061281f5650505b9392505050565b6040518060c0016040528066038d7ea4c680006fffffffffffffffffffffffffffffffff1681526020016611c37937e080006fffffffffffffffffffffffffffffffff1681526020016611c37937e080006fffffffffffffffffffffffffffffffff168152602001600567ffffffffffffffff1681526020017ffffffffffffffffffffffffffffffffffffffffffffffffffdeb17cb73b10000600f0b81526020016706f05b59d3b20000600f0b815260200150600860005060008201518160000160006101000a8154816fffffffffffffffffffffffffffffffff02191690836fffffffffffffffffffffffffffffffff16021790555060208201518160000160106101000a8154816fffffffffffffffffffffffffffffffff02191690836fffffffffffffffffffffffffffffffff16021790555060408201518160010160006101000a8154816fffffffffffffffffffffffffffffffff02191690836fffffffffffffffffffffffffffffffff16021790555060608201518160010160106101000a81548167ffffffffffffffff021916908367ffffffffffffffff16021790555060808201518160020160006101000a8154816fffffffffffffffffffffffffffffffff0219169083600f0b6fffffffffffffffffffffffffffffffff16021790555060a08201518160020160106101000a8154816fffffffffffffffffffffffffffffffff0219169083600f0b6fffffffffffffffffffffffffffffffff160217905550905050604051806060016040528066b1a2bc2ec500008152602001612aaa600760009054906101000a900467ffffffffffffffff16612a92612e3c63ffffffff16565b67ffffffffffffffff166139ab90919063ffffffff16565b67ffffffffffffffff16815260200168056bc75e2d631000006fffffffffffffffffffffffffffffffff16815260200150600b60005060008201518160000160005090905560208201518160010160006101000a81548167ffffffffffffffff021916908367ffffffffffffffff16021790555060408201518160010160086101000a8154816fffffffffffffffffffffffffffffffff02191690836fffffffffffffffffffffffffffffffff16021790555090505060006040518060e001604052806380ddbdb460e01b7bffffffffffffffffffffffffffffffffffffffffffffffffffffffff19167bffffffffffffffffffffffffffffffffffffffffffffffffffffffff19168152602001635fd019ad60e01b7bffffffffffffffffffffffffffffffffffffffffffffffffffffffff19167bffffffffffffffffffffffffffffffffffffffffffffffffffffffff19168152602001636e16ead260e01b7bffffffffffffffffffffffffffffffffffffffffffffffffffffffff19167bffffffffffffffffffffffffffffffffffffffffffffffffffffffff19168152602001635d8350b460e01b7bffffffffffffffffffffffffffffffffffffffffffffffffffffffff19167bffffffffffffffffffffffffffffffffffffffffffffffffffffffff1916815260200163d3ab388860e01b7bffffffffffffffffffffffffffffffffffffffffffffffffffffffff19167bffffffffffffffffffffffffffffffffffffffffffffffffffffffff1916815260200163ee47304d60e01b7bffffffffffffffffffffffffffffffffffffffffffffffffffffffff19167bffffffffffffffffffffffffffffffffffffffffffffffffffffffff1916815260200163eec3f6f160e01b7bffffffffffffffffffffffffffffffffffffffffffffffffffffffff19167bffffffffffffffffffffffffffffffffffffffffffffffffffffffff191681526020015090506000600090505b81506007811015612e1c576001600560005060008484600781101515612da657fe5b60200201517bffffffffffffffffffffffffffffffffffffffffffffffffffffffff19167bffffffffffffffffffffffffffffffffffffffffffffffffffffffff1916815260200190815260200160002060006101000a81548160ff0219169083151502179055505b8080600101915050612d84565b506001600160146101000a81548160ff021916908315150217905550505b565b6000612e4f426136a4909063ffffffff16565b905080505b90565b6000826020015167ffffffffffffffff168267ffffffffffffffff16111515612e835760009050612f30565b6000600284604001516fffffffffffffffffffffffffffffffff16811515612ea757fe5b046fffffffffffffffffffffffffffffffff1690506000612ee58560200151850367ffffffffffffffff1661070884613a489092919063ffffffff16565b82019050612f25612f16600587604001516fffffffffffffffffffffffffffffffff1661373690919063ffffffff16565b8261368690919063ffffffff16565b92505050612f305650505b92915050565b600460009054906101000a900473ffffffffffffffffffffffffffffffffffffffff1673ffffffffffffffffffffffffffffffffffffffff1663e97dcb626040518163ffffffff1660e01b8152600401600060405180830381600087803b158015612fa15760006000fd5b505af1158015612fb6573d600060003e3d6000fd5b50505050600260066000505414151515613005576040517f08c379a0000000000000000000000000000000000000000000000000000000008152600401612ffc906144b1565b60405180910390fd5b600260066000508190909055505b565b613023613b4963ffffffff16565b600060009054906101000a900473ffffffffffffffffffffffffffffffffffffffff1673ffffffffffffffffffffffffffffffffffffffff1663bf86d6906040518163ffffffff1660e01b815260040160206040518083038186803b15801561308c5760006000fd5b505afa1580156130a1573d600060003e3d6000fd5b505050506040513d601f19601f820116820180604052508101906130c59190613d41565b151515613107576040517f08c379a00000000000000000000000000000000000000000000000000000000081526004016130fe906143b5565b60405180910390fd5b5b565b60006131368261311e612e3c63ffffffff16565b67ffffffffffffffff166139ab90919063ffffffff16565b905080505b919050565b6000700100000000000000000000000000000000821015156131cd576040517f08c379a00000000000000000000000000000000000000000000000000000000081526004018080602001828103825260128152602001807f6d6f7265207468616e203132382062697473000000000000000000000000000081526020015060200191505060405180910390fd5b8190506131d5565b919050565b60016006600050819090905550600460009054906101000a900473ffffffffffffffffffffffffffffffffffffffff1673ffffffffffffffffffffffffffffffffffffffff1663e9fad8ee6040518163ffffffff1660e01b8152600401600060405180830381600087803b1580156132525760006000fd5b505af1158015613267573d600060003e3d6000fd5b505050505b565b600060009054906101000a900473ffffffffffffffffffffffffffffffffffffffff1673ffffffffffffffffffffffffffffffffffffffff1663d3419bf36040518163ffffffff1660e01b815260040160206040518083038186803b1580156132d75760006000fd5b505afa1580156132ec573d600060003e3d6000fd5b505050506040513d601f19601f820116820180604052508101906133109190613e30565b73ffffffffffffffffffffffffffffffffffffffff16637c5b9011826040518263ffffffff1660e01b815260040161334891906142c8565b600060405180830381600087803b1580156133635760006000fd5b505af1158015613378573d600060003e3d6000fd5b505050505b50565b60006000600090505b83518110156133f3578273ffffffffffffffffffffffffffffffffffffffff1684828151811015156133b757fe5b602002602001015173ffffffffffffffffffffffffffffffffffffffff1614156133e55760019150506133fd565b5b8080600101915050613389565b50600090506133fd565b92915050565b6000600082519050600081111515613450576040517f08c379a0000000000000000000000000000000000000000000000000000000008152600401613447906144f0565b60405180910390fd5b6000600060005b60028411156136035785600081518110151561346f57fe5b60200260200101519150815085600081518110151561348a57fe5b6020026020010151905080506000600190505b848110156134e95786818151811015156134b357fe5b602002602001015193508350828410156134cd5783925082505b818411156134db5783915081505b5b808060010191505061349d565b50808214156134fe5781945050505050613681565b60006002850367ffffffffffffffff8111801561351b5760006000fd5b5060405190808252806020026020018201604052801561354a5781602001602082028036833780820191505090505b5090506000600060006000600090505b888110156135ec578a8181518110151561357057fe5b6020026020010151975087508688148015613589575081155b15613599576001915081506135de565b85881480156135a6575082155b156135b6576001925082506135dd565b8785858060010196508151811015156135cb57fe5b60200260200101909081815260200150505b5b5b808060010191505061355a565b506002880397508750839950895050505050613457565b60018414156136325785600081518110151561361b57fe5b60200260200101519450505050506136815661367c565b61367186600181518110151561364457fe5b602002602001015187600081518110151561365b57fe5b6020026020010151613b9e90919063ffffffff16565b945050505050613681565b505050505b919050565b60008183106136955781613697565b825b905061369e565b92915050565b60006801000000000000000082101515613729576040517f08c379a00000000000000000000000000000000000000000000000000000000081526004018080602001828103825260118152602001807f6d6f7265207468616e203634206269747300000000000000000000000000000081526020015060200191505060405180910390fd5b819050613731565b919050565b600060008214806137565750828283850292508281151561375357fe5b04145b15156137cd576040517f08c379a000000000000000000000000000000000000000000000000000000000815260040180806020018281038252600c8152602001807f6d756c2d6f766572666c6f77000000000000000000000000000000000000000081526020015060200191505060405180910390fd5b5b92915050565b60007f800000000000000000000000000000000000000000000000000000000000000082101515613870576040517f08c379a00000000000000000000000000000000000000000000000000000000081526004018080602001828103825260128152602001807f746f6f2062696720666f7220696e74323536000000000000000000000000000081526020015060200191505060405180910390fd5b819050613878565b919050565b600060008284039050600083121580156138975750838113155b806138ad57506000831280156138ac57508381135b5b1515613904576040517f08c379a000000000000000000000000000000000000000000000000000000000815260040180806020018281038252602481526020018061473f6024913960400191505060405180910390fd5b8091505061390e56505b92915050565b6000600082840190506000831215801561392e5750838112155b80613944575060008312801561394357508381125b5b151561399b576040517f08c379a000000000000000000000000000000000000000000000000000000000815260040180806020018281038252602181526020018061471e6021913960400191505060405180910390fd5b809150506139a556505b92915050565b60008267ffffffffffffffff1682840191508167ffffffffffffffff1610151515613a41576040517f08c379a000000000000000000000000000000000000000000000000000000000815260040180806020018281038252600c8152602001807f6164642d6f766572666c6f77000000000000000000000000000000000000000081526020015060200191505060405180910390fd5b5b92915050565b6000600060006000198587098587029250828110838203039150506000811415613a8b57600084111515613a7c5760006000fd5b83820492508292505050613b42565b8084111515613a9a5760006000fd5b6000848688099050828111820391508083039250600085866000031690508086049550808404935060018182600003040190508083028417935083506000600287600302189050808702600203810290508050808702600203810290508050808702600203810290508050808702600203810290508050808702600203810290508050808702600203810290508050808502955085508595505050505050613b425650505050505b9392505050565b600060149054906101000a900460ff16151515613b9b576040517f08c379a0000000000000000000000000000000000000000000000000000000008152600401613b92906145ec565b60405180910390fd5b5b565b60006002600283811515613bae57fe5b06600285811515613bbb57fe5b0601811515613bc657fe5b04600283811515613bd357fe5b04600285811515613be057fe5b0401019050613bea565b92915050565b828054828255906000526020600020908101928215613c69579160200282015b82811115613c685782518260006101000a81548173ffffffffffffffffffffffffffffffffffffffff021916908373ffffffffffffffffffffffffffffffffffffffff16021790555091602001919060010190613c10565b5b509050613c769190613d1a565b5090565b828054828255906000526020600020908101928215613d09579160200282015b82811115613d0857823573ffffffffffffffffffffffffffffffffffffffff168260006101000a81548173ffffffffffffffffffffffffffffffffffffffff021916908373ffffffffffffffffffffffffffffffffffffffff16021790555091602001919060010190613c9a565b5b509050613d169190613d1a565b5090565b613d1f565b80821115613d395760008181506000905550600101613d1f565b50905661471c565b600060208284031215613d52578081fd5b815180151581141515613d63578182fd5b809150505b92915050565b600060208284031215613d7f578081fd5b81357fffffffff00000000000000000000000000000000000000000000000000000000811681141515613db0578182fd5b809150505b92915050565b600060208284031215613dcc578081fd5b8151613dd7816146f3565b809150505b92915050565b600060208284031215613df3578081fd5b8135613dfe816146f3565b809150505b92915050565b600060208284031215613e1a578081fd5b8151613e25816146f3565b809150505b92915050565b600060208284031215613e41578081fd5b8151613e4c816146f3565b809150505b92915050565b600060208284031215613e68578081fd5b8151613e73816146f3565b809150505b92915050565b600060208284031215613e8f578081fd5b8135613e9a816146f3565b809150505b92915050565b60006000600060408486031215613eba578182fd5b8335613ec5816146f3565b80935050602084013567ffffffffffffffff80821115613ee3578384fd5b818601915086601f8301121515613ef8578384fd5b813581811115613f06578485fd5b876020602083028501011115613f1a578485fd5b6020830194508093505050505b9250925092565b600060208284031215613f3f578081fd5b813580600f0b81141515613f51578182fd5b809150505b92915050565b600060208284031215613f6d578081fd5b81356fffffffffffffffffffffffffffffffff811681141515613f8e578182fd5b809150505b92915050565b600060208284031215613faa578081fd5b813590505b92915050565b600060208284031215613fc6578081fd5b815190505b92915050565b600060208284031215613fe2578081fd5b813567ffffffffffffffff811681141515613ffb578182fd5b809150505b92915050565b60007f6d6178537465707300000000000000000000000000000000000000000000000082526008820190505b919050565b60007f6572726f72496e74657276616c000000000000000000000000000000000000008252600d820190505b919050565b60007f61636365707461626c654572726f7200000000000000000000000000000000008252600f820190505b919050565b60007f6d696e54696d654265747765656e55706461746573000000000000000000000082526015820190505b919050565b60007f6d6178526174650000000000000000000000000000000000000000000000000082526007820190505b919050565b60007f72656d6f76655265666572656e6365506f6f6c0000000000000000000000000082526013820190505b919050565b60007f696e74657265737452617465537465700000000000000000000000000000000082526010820190505b919050565b60007f6164645265666572656e6365506f6f6c0000000000000000000000000000000082526010820190505b919050565b60007f6d696e526174650000000000000000000000000000000000000000000000000082526007820190505b919050565b600060208201905073ffffffffffffffffffffffffffffffffffffffff831682525b92915050565b600060408201905073ffffffffffffffffffffffffffffffffffffffff841682526fffffffffffffffffffffffffffffffff831660208301525b9392505050565b600060208083018184528085518083526040860191508387019250845b8181101561427d5773ffffffffffffffffffffffffffffffffffffffff8451168352848301925084840193505b600181019050614245565b50508093505050505b92915050565b600060208201905082151582525b92915050565b600060208201905073ffffffffffffffffffffffffffffffffffffffff831682525b92915050565b600060208201905073ffffffffffffffffffffffffffffffffffffffff831682525b92915050565b600060408201905073ffffffffffffffffffffffffffffffffffffffff8416825282151560208301525b9392505050565b600060208201905082600f0b82525b92915050565b60006080820190508582528460208301526fffffffffffffffffffffffffffffffff8416604083015267ffffffffffffffff831660608301525b95945050505050565b600060608201905084825267ffffffffffffffff841660208301526fffffffffffffffffffffffffffffffff831660408301525b949350505050565b600060208252601160208301527f50726f746f636f6c2073687574646f776e00000000000000000000000000000060408301526060820190505b919050565b600060208252600960208301527f4e6f7420666f756e64000000000000000000000000000000000000000000000060408301526060820190505b919050565b600060208252601460208301527f506f6f6c206e6f7420696e697469616c697a656400000000000000000000000060408301526060820190505b919050565b600060208252600e60208301527f4e6f7420417574686f72697a656400000000000000000000000000000000000060408301526060820190505b919050565b600060208252600d60208301527f4c50205265656e7472616e63790000000000000000000000000000000000000060408301526060820190505b919050565b600060208252600560208301527f656d70747900000000000000000000000000000000000000000000000000000060408301526060820190505b919050565b600060208252601060208301527f557064617465206e6f742072656164790000000000000000000000000000000060408301526060820190505b919050565b600060208252600d60208301527f4f6e6c79206f6e6520706f6f6c0000000000000000000000000000000000000060408301526060820190505b919050565b600060208252600d60208301527f416c72656164792061646465640000000000000000000000000000000000000060408301526060820190505b919050565b600060208252601360208301527f436f6e74726163742069732073746f707065640000000000000000000000000060408301526060820190505b919050565b60006020820190506fffffffffffffffffffffffffffffffff831682525b92915050565b600060c0820190506fffffffffffffffffffffffffffffffff8089168352808816602084015280871660408401525067ffffffffffffffff8516606083015283600f0b608083015282600f0b60a08301525b979650505050505050565b60006020820190508282525b92915050565b60006040820190508382528260208301525b9392505050565b600060208201905067ffffffffffffffff831682525b92915050565b73ffffffffffffffffffffffffffffffffffffffff8116811415156147185760006000fd5b5b50565bfe5369676e6564536166654d6174683a206164646974696f6e206f766572666c6f775369676e6564536166654d6174683a207375627472616374696f6e206f766572666c6f77a264697066735822122015501ac3e46302c70ad6d33a99a4615798d28fcc984dc5d41920a11505486a7364736f6c63430007060033",
  "linkReferences": {},
  "deployedLinkReferences": {}
}