{
  "_format": "hh-sol-artifact-1",
  "contractName": "Rates",
  "sourceName": "contracts/core/logic/Rates.sol",
  "abi": [
    {
      "inputs": [
        {
          "components": [
            {
              "internalType": "contract IGovernor",
              "name": "Governor",
              "type": "address"
            },
            {
              "internalType": "contract IProtocolLock",
              "name": "ProtocolLock",
              "type": "address"
            },
            {
              "internalType": "contract IUniswapV3Pool",
              "name": "CollateralPool",
              "type": "address"
            },
            {
              "internalType": "contract IUniswapV3Pool[]",
              "name": "ReferencePools",
              "type": "address[]"
            }
          ],
          "internalType": "struct IRates.ConstructorParams",
          "name": "params",
          "type": "tuple"
        }
      ],
      "stateMutability": "nonpayable",
      "type": "constructor"
    },
    {
      "anonymous": false,
      "inputs": [
        {
          "indexed": false,
          "internalType": "uint128",
          "name": "error",
          "type": "uint128"
        }
      ],
      "name": "AcceptableErrorUpdated",
      "type": "event"
    },
    {
      "anonymous": false,
      "inputs": [
        {
          "indexed": false,
          "internalType": "uint128",
          "name": "error",
          "type": "uint128"
        }
      ],
      "name": "ErrorIntervalUpdated",
      "type": "event"
    },
    {
      "anonymous": false,
      "inputs": [
        {
          "indexed": false,
          "internalType": "uint128",
          "name": "step",
          "type": "uint128"
        }
      ],
      "name": "InterestRateStepUpdated",
      "type": "event"
    },
    {
      "anonymous": false,
      "inputs": [
        {
          "indexed": false,
          "internalType": "int128",
          "name": "max",
          "type": "int128"
        }
      ],
      "name": "MaxRateUpdated",
      "type": "event"
    },
    {
      "anonymous": false,
      "inputs": [
        {
          "indexed": false,
          "internalType": "uint64",
          "name": "steps",
          "type": "uint64"
        }
      ],
      "name": "MaxStepsUpdated",
      "type": "event"
    },
    {
      "anonymous": false,
      "inputs": [
        {
          "indexed": false,
          "internalType": "int128",
          "name": "min",
          "type": "int128"
        }
      ],
      "name": "MinRateUpdated",
      "type": "event"
    },
    {
      "anonymous": false,
      "inputs": [
        {
          "indexed": false,
          "internalType": "uint64",
          "name": "time",
          "type": "uint64"
        }
      ],
      "name": "MinTimeBetweenUpdatesUpdated",
      "type": "event"
    },
    {
      "anonymous": false,
      "inputs": [
        {
          "indexed": false,
          "internalType": "int256",
          "name": "interestRate",
          "type": "int256"
        },
        {
          "indexed": false,
          "internalType": "uint256",
          "name": "price",
          "type": "uint256"
        },
        {
          "indexed": false,
          "internalType": "uint256",
          "name": "rewardCount",
          "type": "uint256"
        },
        {
          "indexed": false,
          "internalType": "uint64",
          "name": "nextUpdateTime",
          "type": "uint64"
        }
      ],
      "name": "RateUpdated",
      "type": "event"
    },
    {
      "anonymous": false,
      "inputs": [
        {
          "indexed": false,
          "internalType": "address",
          "name": "pool",
          "type": "address"
        }
      ],
      "name": "ReferencePoolAdded",
      "type": "event"
    },
    {
      "anonymous": false,
      "inputs": [
        {
          "indexed": false,
          "internalType": "address",
          "name": "pool",
          "type": "address"
        }
      ],
      "name": "ReferencePoolRemoved",
      "type": "event"
    },
    {
      "anonymous": false,
      "inputs": [],
      "name": "Stopped",
      "type": "event"
    },
    {
      "inputs": [
        {
          "internalType": "contract IUniswapV3Pool",
          "name": "pool",
          "type": "address"
        }
      ],
      "name": "addReferencePool",
      "outputs": [],
      "stateMutability": "nonpayable",
      "type": "function"
    },
    {
      "inputs": [],
      "name": "collateralPool",
      "outputs": [
        {
          "internalType": "contract IUniswapV3Pool",
          "name": "",
          "type": "address"
        }
      ],
      "stateMutability": "view",
      "type": "function"
    },
    {
      "inputs": [],
      "name": "currentRateData",
      "outputs": [
        {
          "internalType": "int256",
          "name": "rate",
          "type": "int256"
        },
        {
          "internalType": "uint64",
          "name": "nextUpdateTime",
          "type": "uint64"
        },
        {
          "internalType": "uint128",
          "name": "rewardCount",
          "type": "uint128"
        }
      ],
      "stateMutability": "view",
      "type": "function"
    },
    {
      "inputs": [],
      "name": "deployer",
      "outputs": [
        {
          "internalType": "address",
          "name": "",
          "type": "address"
        }
      ],
      "stateMutability": "view",
      "type": "function"
    },
    {
      "inputs": [],
      "name": "getReferencePools",
      "outputs": [
        {
          "internalType": "contract IUniswapV3Pool[]",
          "name": "",
          "type": "address[]"
        }
      ],
      "stateMutability": "view",
      "type": "function"
    },
    {
      "inputs": [],
      "name": "getRewardCount",
      "outputs": [
        {
          "internalType": "uint256",
          "name": "",
          "type": "uint256"
        }
      ],
      "stateMutability": "view",
      "type": "function"
    },
    {
      "inputs": [],
      "name": "governor",
      "outputs": [
        {
          "internalType": "contract IGovernor",
          "name": "",
          "type": "address"
        }
      ],
      "stateMutability": "view",
      "type": "function"
    },
    {
      "inputs": [],
      "name": "init",
      "outputs": [],
      "stateMutability": "nonpayable",
      "type": "function"
    },
    {
      "inputs": [],
      "name": "interestRateAbsoluteValue",
      "outputs": [
        {
          "internalType": "uint256",
          "name": "",
          "type": "uint256"
        }
      ],
      "stateMutability": "view",
      "type": "function"
    },
    {
      "inputs": [],
      "name": "interestRateParameters",
      "outputs": [
        {
          "internalType": "uint128",
          "name": "acceptableError",
          "type": "uint128"
        },
        {
          "internalType": "uint128",
          "name": "errorInterval",
          "type": "uint128"
        },
        {
          "internalType": "uint128",
          "name": "interestRateStep",
          "type": "uint128"
        },
        {
          "internalType": "uint64",
          "name": "maxSteps",
          "type": "uint64"
        },
        {
          "internalType": "int128",
          "name": "minRate",
          "type": "int128"
        },
        {
          "internalType": "int128",
          "name": "maxRate",
          "type": "int128"
        }
      ],
      "stateMutability": "view",
      "type": "function"
    },
    {
      "inputs": [],
      "name": "minTimeBetweenUpdates",
      "outputs": [
        {
          "internalType": "uint64",
          "name": "",
          "type": "uint64"
        }
      ],
      "stateMutability": "view",
      "type": "function"
    },
    {
      "inputs": [],
      "name": "positiveInterestRate",
      "outputs": [
        {
          "internalType": "bool",
          "name": "",
          "type": "bool"
        }
      ],
      "stateMutability": "view",
      "type": "function"
    },
    {
      "inputs": [],
      "name": "predictInterestRate",
      "outputs": [
        {
          "internalType": "uint256",
          "name": "price",
          "type": "uint256"
        },
        {
          "internalType": "int256",
          "name": "rate",
          "type": "int256"
        }
      ],
      "stateMutability": "view",
      "type": "function"
    },
    {
      "inputs": [
        {
          "internalType": "uint256",
          "name": "",
          "type": "uint256"
        }
      ],
      "name": "referencePools",
      "outputs": [
        {
          "internalType": "contract IUniswapV3Pool",
          "name": "",
          "type": "address"
        }
      ],
      "stateMutability": "view",
      "type": "function"
    },
    {
      "inputs": [
        {
          "internalType": "contract IUniswapV3Pool",
          "name": "pool",
          "type": "address"
        }
      ],
      "name": "removeReferencePool",
      "outputs": [],
      "stateMutability": "nonpayable",
      "type": "function"
    },
    {
      "inputs": [
        {
          "internalType": "uint128",
          "name": "error",
          "type": "uint128"
        }
      ],
      "name": "setAcceptableError",
      "outputs": [],
      "stateMutability": "nonpayable",
      "type": "function"
    },
    {
      "inputs": [
        {
          "internalType": "uint128",
          "name": "interval",
          "type": "uint128"
        }
      ],
      "name": "setErrorInterval",
      "outputs": [],
      "stateMutability": "nonpayable",
      "type": "function"
    },
    {
      "inputs": [
        {
          "internalType": "uint128",
          "name": "step",
          "type": "uint128"
        }
      ],
      "name": "setInterestRateStep",
      "outputs": [],
      "stateMutability": "nonpayable",
      "type": "function"
    },
    {
      "inputs": [
        {
          "internalType": "int128",
          "name": "max",
          "type": "int128"
        }
      ],
      "name": "setMaxRate",
      "outputs": [],
      "stateMutability": "nonpayable",
      "type": "function"
    },
    {
      "inputs": [
        {
          "internalType": "uint64",
          "name": "steps",
          "type": "uint64"
        }
      ],
      "name": "setMaxSteps",
      "outputs": [],
      "stateMutability": "nonpayable",
      "type": "function"
    },
    {
      "inputs": [
        {
          "internalType": "int128",
          "name": "min",
          "type": "int128"
        }
      ],
      "name": "setMinRate",
      "outputs": [],
      "stateMutability": "nonpayable",
      "type": "function"
    },
    {
      "inputs": [
        {
          "internalType": "uint64",
          "name": "time",
          "type": "uint64"
        }
      ],
      "name": "setMinTimeBetweenUpdates",
      "outputs": [],
      "stateMutability": "nonpayable",
      "type": "function"
    },
    {
      "inputs": [],
      "name": "stop",
      "outputs": [],
      "stateMutability": "nonpayable",
      "type": "function"
    },
    {
      "inputs": [],
      "name": "stopped",
      "outputs": [
        {
          "internalType": "bool",
          "name": "",
          "type": "bool"
        }
      ],
      "stateMutability": "view",
      "type": "function"
    },
    {
      "inputs": [],
      "name": "update",
      "outputs": [],
      "stateMutability": "nonpayable",
      "type": "function"
    },
    {
      "inputs": [
        {
          "internalType": "bytes4",
          "name": "",
          "type": "bytes4"
        }
      ],
      "name": "validUpdate",
      "outputs": [
        {
          "internalType": "bool",
          "name": "",
          "type": "bool"
        }
      ],
      "stateMutability": "view",
      "type": "function"
    }
  ],
  "bytecode": "0x60e06040526001600260005090905562014a78600460006101000a81548167ffffffffffffffff021916908367ffffffffffffffff160217905550348015620000485760006000fd5b50604051620044513803806200445183398181016040528101906200006e919062000a72565b5b806000015181602001515b815b8073ffffffffffffffffffffffffffffffffffffffff1660808173ffffffffffffffffffffffffffffffffffffffff1660601b815260140150505b508073ffffffffffffffffffffffffffffffffffffffff1660a08173ffffffffffffffffffffffffffffffffffffffff1660601b815260140150505b5050806040015173ffffffffffffffffffffffffffffffffffffffff1660c08173ffffffffffffffffffffffffffffffffffffffff1660601b8152601401505080606001516003600050908051906020019062000152929190620008f4565b506040518060c0016040528066038d7ea4c680006fffffffffffffffffffffffffffffffff1681526020016611c37937e080006fffffffffffffffffffffffffffffffff1681526020016611c37937e080006fffffffffffffffffffffffffffffffff168152602001600567ffffffffffffffff1681526020017ffffffffffffffffffffffffffffffffffffffffffffffffffdeb17cb73b10000600f0b81526020016706f05b59d3b20000600f0b815260200150600560005060008201518160000160006101000a8154816fffffffffffffffffffffffffffffffff02191690836fffffffffffffffffffffffffffffffff16021790555060208201518160000160106101000a8154816fffffffffffffffffffffffffffffffff02191690836fffffffffffffffffffffffffffffffff16021790555060408201518160010160006101000a8154816fffffffffffffffffffffffffffffffff02191690836fffffffffffffffffffffffffffffffff16021790555060608201518160010160106101000a81548167ffffffffffffffff021916908367ffffffffffffffff16021790555060808201518160020160006101000a8154816fffffffffffffffffffffffffffffffff0219169083600f0b6fffffffffffffffffffffffffffffffff16021790555060a08201518160020160106101000a8154816fffffffffffffffffffffffffffffffff0219169083600f0b6fffffffffffffffffffffffffffffffff160217905550905050604051806060016040528066b1a2bc2ec500008152602001620003e0600460009054906101000a900467ffffffffffffffff16620003c2620007a060201b60201c565b67ffffffffffffffff16620007c260201b62001e531790919060201c565b67ffffffffffffffff16815260200168056bc75e2d631000006fffffffffffffffffffffffffffffffff16815260200150600860005060008201518160000160005090905560208201518160010160006101000a81548167ffffffffffffffff021916908367ffffffffffffffff16021790555060408201518160010160086101000a8154816fffffffffffffffffffffffffffffffff02191690836fffffffffffffffffffffffffffffffff16021790555090505060006040518060e001604052806380ddbdb460e01b7bffffffffffffffffffffffffffffffffffffffffffffffffffffffff19167bffffffffffffffffffffffffffffffffffffffffffffffffffffffff19168152602001635fd019ad60e01b7bffffffffffffffffffffffffffffffffffffffffffffffffffffffff19167bffffffffffffffffffffffffffffffffffffffffffffffffffffffff19168152602001636e16ead260e01b7bffffffffffffffffffffffffffffffffffffffffffffffffffffffff19167bffffffffffffffffffffffffffffffffffffffffffffffffffffffff19168152602001635d8350b460e01b7bffffffffffffffffffffffffffffffffffffffffffffffffffffffff19167bffffffffffffffffffffffffffffffffffffffffffffffffffffffff1916815260200163d3ab388860e01b7bffffffffffffffffffffffffffffffffffffffffffffffffffffffff19167bffffffffffffffffffffffffffffffffffffffffffffffffffffffff1916815260200163ee47304d60e01b7bffffffffffffffffffffffffffffffffffffffffffffffffffffffff19167bffffffffffffffffffffffffffffffffffffffffffffffffffffffff1916815260200163eec3f6f160e01b7bffffffffffffffffffffffffffffffffffffffffffffffffffffffff19167bffffffffffffffffffffffffffffffffffffffffffffffffffffffff191681526020015090506000600090505b8150600781101562000755576001600160005060008484600781101515620006de57fe5b60200201517bffffffffffffffffffffffffffffffffffffffffffffffffffffffff19167bffffffffffffffffffffffffffffffffffffffffffffffffffffffff1916815260200190815260200160002060006101000a81548160ff0219169083151502179055505b8080600101915050620006ba565b5033600a60006101000a81548173ffffffffffffffffffffffffffffffffffffffff021916908373ffffffffffffffffffffffffffffffffffffffff160217905550505b5062000b57565b6000620007ba426200086060201b62001ef017909060201c565b905080505b90565b60008267ffffffffffffffff1682840191508167ffffffffffffffff161015151562000859576040517f08c379a000000000000000000000000000000000000000000000000000000000815260040180806020018281038252600c8152602001807f6164642d6f766572666c6f77000000000000000000000000000000000000000081526020015060200191505060405180910390fd5b5b92915050565b60006801000000000000000082101515620008e6576040517f08c379a00000000000000000000000000000000000000000000000000000000081526004018080602001828103825260118152602001807f6d6f7265207468616e203634206269747300000000000000000000000000000081526020015060200191505060405180910390fd5b819050620008ef565b919050565b82805482825590600052602060002090810192821562000970579160200282015b828111156200096f5782518260006101000a81548173ffffffffffffffffffffffffffffffffffffffff021916908373ffffffffffffffffffffffffffffffffffffffff1602179055509160200191906001019062000915565b5b5090506200097f919062000983565b5090565b62000989565b80821115620009a5576000818150600090555060010162000989565b50905662000b56565b600082601f8301121515620009c1578081fd5b815160206001600160401b0380831115620009d857fe5b81830260405183828201018181108482111715620009f257fe5b806040525080925084815283810192508387018885848a0101111562000a16578687fd5b8692505b8583101562000a4b57805162000a308162000b39565b80855250848401935084810190505b60018301925062000a1a565b5080955050505050505b92915050565b60008151905062000a6c8162000b39565b5b919050565b60006020828403121562000a84578081fd5b81516001600160401b038082111562000a9b578283fd5b81840191506080828603121562000ab0578283fd5b60405160808101818110838211171562000ac657fe5b8060405250825162000ad88162000b39565b80825250602083015162000aec8162000b39565b8060208301525062000b016040840162000a5b565b604082015260608301518281111562000b18578485fd5b62000b2687828601620009ae565b6060830152508093505050505b92915050565b6001600160a01b0381168114151562000b525760006000fd5b5b50565b5b60805160601c60a05160601c60c05160601c61388d62000bc46000398061088152806113585280611b7f5280611e3152508061245c52806127795250806104c5528061065d5280611133528061167a5280611ac45280611f87528061257d5280612840525061388d6000f3fe60806040523480156100115760006000fd5b50600436106101b35760003560e01c806380ddbdb4116100ef578063c381c1e611610098578063e1c7392a11610072578063e1c7392a14610443578063ee47304d1461044d578063eec3f6f114610469578063ff0eccf614610485576101b3565b8063c381c1e6146103ed578063d3ab388814610409578063d5f3948814610425576101b3565b8063a0fc0eda116100c9578063a0fc0eda146103a7578063a2e62045146103c5578063ab658be2146103cf576101b3565b806380ddbdb41461033857806384333cc71461035457806395563b4714610384576101b3565b80631f244faf1161015c5780636d7fa664116101365780636d7fa664146102c25780636e16ead2146102e057806375f12b21146102fc5780637e7e8eec1461031a576101b3565b80631f244faf1461026a5780635d8350b41461028a5780635fd019ad146102a6576101b3565b8063150147d71161018d578063150147d714610211578063178d12261461022d57806319a6e9e61461024c576101b3565b806307da68f5146101b95780630c340a24146101c3578063113cf1ab146101e1576101b3565b60006000fd5b6101c16104a3565b005b6101cb6104c3565b6040516101d89190613491565b60405180910390f35b6101fb60048036038101906101f6919061323d565b6104e7565b604051610208919061347d565b60405180910390f35b61022b600480360381019061022691906132b1565b61050c565b005b610235610655565b6040516102439291906137b3565b60405180910390f35b610254610ab1565b60405161026191906137cc565b60405180910390f35b610272610acb565b6040516102819392919061356a565b60405180910390f35b6102a4600480360381019061029f919061337b565b610b19565b005b6102c060048036038101906102bb9190613306565b610bbc565b005b6102ca610c8c565b6040516102d7919061347d565b60405180910390f35b6102fa60048036038101906102f59190613306565b610ca8565b005b610304610d5a565b604051610311919061347d565b60405180910390f35b610322610d6d565b60405161032f91906137a1565b60405180910390f35b610352600480360381019061034d9190613306565b610e31565b005b61036e60048036038101906103699190613343565b610ee3565b60405161037b91906134b9565b60405180910390f35b61038c610f29565b60405161039e96959493929190613744565b60405180910390f35b6103af610fd8565b6040516103bc91906137a1565b60405180910390f35b6103cd611009565b005b6103d761176d565b6040516103e49190613419565b60405180910390f35b610407600480360381019061040291906132b1565b611803565b005b610423600480360381019061041e919061337b565b61199f565b005b61042d611a18565b60405161043a91906133b0565b60405180910390f35b61044b611a3e565b005b610467600480360381019061046291906132d8565b611cc3565b005b610483600480360381019061047e91906132d8565b611d79565b005b61048d611e2f565b60405161049a91906134b9565b60405180910390f35b6104b1611f8263ffffffff16565b6104bf611fe263ffffffff16565b5b5b565b7f000000000000000000000000000000000000000000000000000000000000000081565b600160005060205280600052604060002060009150909054906101000a900460ff1681565b61051a611f8263ffffffff16565b6001600360005080549050111515610567576040517f08c379a000000000000000000000000000000000000000000000000000000000815260040161055e906136a2565b60405180910390fd5b61060060036000508054806020026020016040519081016040528092919081815260200182805480156105ef57602002820191906000526020600020905b8160009054906101000a900473ffffffffffffffffffffffffffffffffffffffff1673ffffffffffffffffffffffffffffffffffffffff16815260200190600101908083116105a5575b50505050508261202c63ffffffff16565b6003600050908051906020019061061892919061315f565b507fe0c45385660471da2afc510ebde41d5f9361442fcda1f7a196e554fe3f6b56118160405161064891906133b0565b60405180910390a15b5b50565b6000600060007f000000000000000000000000000000000000000000000000000000000000000073ffffffffffffffffffffffffffffffffffffffff1663d3419bf36040518163ffffffff1660e01b815260040160206040518083038186803b1580156106c25760006000fd5b505afa1580156106d7573d600060003e3d6000fd5b505050506040513d601f19601f820116820180604052508101906106fb919061328a565b90506000600360005080549050905060008167ffffffffffffffff811180156107245760006000fd5b506040519080825280602002602001820160405280156107535781602001602082028036833780820191505090505b5090506000600090505b8281101561085e578373ffffffffffffffffffffffffffffffffffffffff16633c63a9cd60036000508381548110151561079357fe5b906000526020600020900160005b9054906101000a900473ffffffffffffffffffffffffffffffffffffffff1660016040518363ffffffff1660e01b81526004016107df9291906134e1565b60206040518083038186803b1580156107f85760006000fd5b505afa15801561080d573d600060003e3d6000fd5b505050506040513d601f19601f82011682018060405250810190610831919061335f565b828281518110151561083f57fe5b60200260200101909081815260200150505b808060010191505061075d565b5061091c818473ffffffffffffffffffffffffffffffffffffffff16633c63a9cd7f000000000000000000000000000000000000000000000000000000000000000060016040518363ffffffff1660e01b81526004016108bf9291906134e1565b60206040518083038186803b1580156108d85760006000fd5b505afa1580156108ed573d600060003e3d6000fd5b505050506040513d601f19601f82011682018060405250810190610911919061335f565b61219d63ffffffff16565b94508450610a9860086000506000016000505460056000506040518060c00160405290816000820160009054906101000a90046fffffffffffffffffffffffffffffffff166fffffffffffffffffffffffffffffffff166fffffffffffffffffffffffffffffffff1681526020016000820160109054906101000a90046fffffffffffffffffffffffffffffffff166fffffffffffffffffffffffffffffffff166fffffffffffffffffffffffffffffffff1681526020016001820160009054906101000a90046fffffffffffffffffffffffffffffffff166fffffffffffffffffffffffffffffffff166fffffffffffffffffffffffffffffffff1681526020016001820160109054906101000a900467ffffffffffffffff1667ffffffffffffffff1667ffffffffffffffff1681526020016002820160009054906101000a9004600f0b600f0b600f0b81526020016002820160109054906101000a9004600f0b600f0b600f0b81526020015050876121e863ffffffff16565b93508350848494509450505050610aad565050505b9091565b600460009054906101000a900467ffffffffffffffff1681565b60086000508060000160005054908060010160009054906101000a900467ffffffffffffffff16908060010160089054906101000a90046fffffffffffffffffffffffffffffffff16905083565b610b27611f8263ffffffff16565b80600460006101000a81548167ffffffffffffffff021916908367ffffffffffffffff1602179055506000600460009054906101000a900467ffffffffffffffff1667ffffffffffffffff16111515610b805760006000fd5b7f517c1f8e39144dc2198ca9c7f0cb04ac8ecbffef718abb8a24b56d2ae881e0fe81604051610baf91906137cc565b60405180910390a15b5b50565b610bca611f8263ffffffff16565b806fffffffffffffffffffffffffffffffff166000108015610c055750670de0b6b3a7640000816fffffffffffffffffffffffffffffffff16105b1515610c115760006000fd5b80600560005060000160106101000a8154816fffffffffffffffffffffffffffffffff02191690836fffffffffffffffffffffffffffffffff1602179055507f265b81e00f507e5ddfcde5e43ed2952f0462df065bf26eebc1c5bf184ab31cd381604051610c7f9190613720565b60405180910390a15b5b50565b6000600060086000506000016000505412159050610ca5565b90565b610cb6611f8263ffffffff16565b670de0b6b3a7640000816fffffffffffffffffffffffffffffffff16101515610cdf5760006000fd5b80600560005060010160006101000a8154816fffffffffffffffffffffffffffffffff02191690836fffffffffffffffffffffffffffffffff1602179055507fbf56c5a0ff5b41763e4284940e0db09730e97d817e41e1396be9b9f2a9ed38fb81604051610d4d9190613720565b60405180910390a15b5b50565b600060009054906101000a900460ff1681565b6000610e276008600050604051806060016040529081600082016000505481526020016001820160009054906101000a900467ffffffffffffffff1667ffffffffffffffff1667ffffffffffffffff1681526020016001820160089054906101000a90046fffffffffffffffffffffffffffffffff166fffffffffffffffffffffffffffffffff166fffffffffffffffffffffffffffffffff1681526020015050610e1c61236063ffffffff16565b61237b63ffffffff16565b9050610e2e565b90565b610e3f611f8263ffffffff16565b670de0b6b3a7640000816fffffffffffffffffffffffffffffffff16101515610e685760006000fd5b80600560005060000160006101000a8154816fffffffffffffffffffffffffffffffff02191690836fffffffffffffffffffffffffffffffff1602179055507f94ff7d36ecf3da5a6cb7d7be5b429c938850be85f46d1d256c0dafe008b590a381604051610ed69190613720565b60405180910390a15b5b50565b60036000508181548110610ef657600080fd5b906000526020600020900160005b9150909054906101000a900473ffffffffffffffffffffffffffffffffffffffff1681565b60056000508060000160009054906101000a90046fffffffffffffffffffffffffffffffff16908060000160109054906101000a90046fffffffffffffffffffffffffffffffff16908060010160009054906101000a90046fffffffffffffffffffffffffffffffff16908060010160109054906101000a900467ffffffffffffffff16908060020160009054906101000a9004600f0b908060020160109054906101000a9004600f0b905086565b60006000600860005060000160005054905060008112610ff85780610ffd565b806000035b91505061100656505b90565b61101761245a63ffffffff16565b61102561256d63ffffffff16565b60006008600050604051806060016040529081600082016000505481526020016001820160009054906101000a900467ffffffffffffffff1667ffffffffffffffff1667ffffffffffffffff1681526020016001820160089054906101000a90046fffffffffffffffffffffffffffffffff166fffffffffffffffffffffffffffffffff166fffffffffffffffffffffffffffffffff168152602001505090506110d361236063ffffffff16565b67ffffffffffffffff16816020015167ffffffffffffffff161115151561112f576040517f08c379a000000000000000000000000000000000000000000000000000000000815260040161112690613663565b60405180910390fd5b60007f000000000000000000000000000000000000000000000000000000000000000073ffffffffffffffffffffffffffffffffffffffff1663d3419bf36040518163ffffffff1660e01b815260040160206040518083038186803b1580156111985760006000fd5b505afa1580156111ad573d600060003e3d6000fd5b505050506040513d601f19601f820116820180604052508101906111d1919061328a565b90506000600360005080549050905060008167ffffffffffffffff811180156111fa5760006000fd5b506040519080825280602002602001820160405280156112295781602001602082028036833780820191505090505b5090506000600090505b82811015611333578373ffffffffffffffffffffffffffffffffffffffff1663ce403c1360036000508381548110151561126957fe5b906000526020600020900160005b9054906101000a900473ffffffffffffffffffffffffffffffffffffffff166040518263ffffffff1660e01b81526004016112b291906134b9565b602060405180830381600087803b1580156112cd5760006000fd5b505af11580156112e2573d600060003e3d6000fd5b505050506040513d601f19601f82011682018060405250810190611306919061335f565b828281518110151561131457fe5b60200260200101909081815260200150505b8080600101915050611233565b5060006113f2828573ffffffffffffffffffffffffffffffffffffffff1663ce403c137f00000000000000000000000000000000000000000000000000000000000000006040518263ffffffff1660e01b815260040161139391906134b9565b602060405180830381600087803b1580156113ae5760006000fd5b505af11580156113c3573d600060003e3d6000fd5b505050506040513d601f19601f820116820180604052508101906113e7919061335f565b61219d63ffffffff16565b905060006040518060600160405280611572886000015160056000506040518060c00160405290816000820160009054906101000a90046fffffffffffffffffffffffffffffffff166fffffffffffffffffffffffffffffffff166fffffffffffffffffffffffffffffffff1681526020016000820160109054906101000a90046fffffffffffffffffffffffffffffffff166fffffffffffffffffffffffffffffffff166fffffffffffffffffffffffffffffffff1681526020016001820160009054906101000a90046fffffffffffffffffffffffffffffffff166fffffffffffffffffffffffffffffffff166fffffffffffffffffffffffffffffffff1681526020016001820160109054906101000a900467ffffffffffffffff1667ffffffffffffffff1667ffffffffffffffff1681526020016002820160009054906101000a9004600f0b600f0b600f0b81526020016002820160109054906101000a9004600f0b600f0b600f0b81526020015050866121e863ffffffff16565b815260200161159c600460009054906101000a900467ffffffffffffffff1661269a63ffffffff16565b67ffffffffffffffff1681526020016115d86115cb896115c061236063ffffffff16565b61237b63ffffffff16565b6126d0909063ffffffff16565b6fffffffffffffffffffffffffffffffff16815260200150905080600860005060008201518160000160005090905560208201518160010160006101000a81548167ffffffffffffffff021916908367ffffffffffffffff16021790555060408201518160010160086101000a8154816fffffffffffffffffffffffffffffffff02191690836fffffffffffffffffffffffffffffffff1602179055509050507f000000000000000000000000000000000000000000000000000000000000000073ffffffffffffffffffffffffffffffffffffffff1663ef7a7cfa3383604001516040518363ffffffff1660e01b81526004016116d79291906133d8565b600060405180830381600087803b1580156116f25760006000fd5b505af1158015611707573d600060003e3d6000fd5b505050507f9f912bcb7b057a4f10fbbee5785670aecb2ab545144237646e17398d55de72dc8160000151838360400151846020015160405161174c9493929190613527565b60405180910390a15050505050505b5b61176a61276a63ffffffff16565b5b565b606060036000508054806020026020016040519081016040528092919081815260200182805480156117f457602002820191906000526020600020905b8160009054906101000a900473ffffffffffffffffffffffffffffffffffffffff1673ffffffffffffffffffffffffffffffffffffffff16815260200190600101908083116117aa575b50505050509050611800565b90565b611811611f8263ffffffff16565b6118aa600360005080548060200260200160405190810160405280929190818152602001828054801561189957602002820191906000526020600020905b8160009054906101000a900473ffffffffffffffffffffffffffffffffffffffff1673ffffffffffffffffffffffffffffffffffffffff168152602001906001019080831161184f575b5050505050826127fc63ffffffff16565b1515156118ec576040517f08c379a00000000000000000000000000000000000000000000000000000000081526004016118e3906136e1565b60405180910390fd5b6118fb8161283e63ffffffff16565b600360005081908060018154018082558091505060019003906000526020600020900160005b9091909190916101000a81548173ffffffffffffffffffffffffffffffffffffffff021916908373ffffffffffffffffffffffffffffffffffffffff1602179055507fd815dd7ac4a8a5f5f1d3b09c4fb82cdf04e21e127619c6fca60b8f80e420492a8160405161199291906133b0565b60405180910390a15b5b50565b6119ad611f8263ffffffff16565b80600560005060010160106101000a81548167ffffffffffffffff021916908367ffffffffffffffff1602179055507fcf58c4278b7362e258dd9a03400b38f692197a7ceb18b1c31ff440c1f9d5062f81604051611a0b91906137cc565b60405180910390a15b5b50565b600a60009054906101000a900473ffffffffffffffffffffffffffffffffffffffff1681565b611a9d600a60009054906101000a900473ffffffffffffffffffffffffffffffffffffffff1673ffffffffffffffffffffffffffffffffffffffff163373ffffffffffffffffffffffffffffffffffffffff161461294e63ffffffff16565b600a60006101000a81549073ffffffffffffffffffffffffffffffffffffffff02191690557f000000000000000000000000000000000000000000000000000000000000000073ffffffffffffffffffffffffffffffffffffffff1663d3419bf36040518163ffffffff1660e01b815260040160206040518083038186803b158015611b295760006000fd5b505afa158015611b3e573d600060003e3d6000fd5b505050506040513d601f19601f82011682018060405250810190611b62919061328a565b73ffffffffffffffffffffffffffffffffffffffff1663532cec7c7f00000000000000000000000000000000000000000000000000000000000000006040518263ffffffff1660e01b8152600401611bba91906134b9565b60206040518083038186803b158015611bd35760006000fd5b505afa158015611be8573d600060003e3d6000fd5b505050506040513d601f19601f82011682018060405250810190611c0c9190613210565b1515611c4d576040517f08c379a0000000000000000000000000000000000000000000000000000000008152600401611c44906135e5565b60405180910390fd5b6000600090505b600360005080549050811015611cbf57611cb1600360005082815481101515611c7957fe5b906000526020600020900160005b9054906101000a900473ffffffffffffffffffffffffffffffffffffffff1661283e63ffffffff16565b5b8080600101915050611c54565b505b565b611cd1611f8263ffffffff16565b600560005060020160109054906101000a9004600f0b600f0b81600f0b121515611cfb5760006000fd5b80600560005060020160006101000a8154816fffffffffffffffffffffffffffffffff0219169083600f0b6fffffffffffffffffffffffffffffffff1602179055507fc24e66dcb27dbd285d47a59317af2469aaec7df1cbef5058516e9f09c363a37581604051611d6c9190613512565b60405180910390a15b5b50565b611d87611f8263ffffffff16565b80600f0b600560005060020160009054906101000a9004600f0b600f0b121515611db15760006000fd5b80600560005060020160106101000a8154816fffffffffffffffffffffffffffffffff0219169083600f0b6fffffffffffffffffffffffffffffffff1602179055507fddfcfaec23708d16c646e9e109985f7db635f6a645245e87946f7d2f64f4bb6a81604051611e229190613512565b60405180910390a15b5b50565b7f000000000000000000000000000000000000000000000000000000000000000081565b60008267ffffffffffffffff1682840191508167ffffffffffffffff1610151515611ee9576040517f08c379a000000000000000000000000000000000000000000000000000000000815260040180806020018281038252600c8152602001807f6164642d6f766572666c6f77000000000000000000000000000000000000000081526020015060200191505060405180910390fd5b5b92915050565b60006801000000000000000082101515611f75576040517f08c379a00000000000000000000000000000000000000000000000000000000081526004018080602001828103825260118152602001807f6d6f7265207468616e203634206269747300000000000000000000000000000081526020015060200191505060405180910390fd5b819050611f7d565b919050565b611fdf7f000000000000000000000000000000000000000000000000000000000000000073ffffffffffffffffffffffffffffffffffffffff163373ffffffffffffffffffffffffffffffffffffffff161461294e63ffffffff16565b5b565b6001600060006101000a81548160ff0219169083151502179055507f7acc84e34091ae817647a4c49116f5cc07f319078ba80f8f5fde37ea7e25cbd660405160405180910390a15b565b6060600061204084846129ca63ffffffff16565b90507fffffffffffffffffffffffffffffffffffffffffffffffffffffffffffffffff81141515156120a7576040517f08c379a000000000000000000000000000000000000000000000000000000000815260040161209e906135a6565b60405180910390fd5b6000600185510367ffffffffffffffff811180156120c55760006000fd5b506040519080825280602002602001820160405280156120f45781602001602082028036833780820191505090505b50905060006000600090505b865181101561218857838114151561217a57868181518110151561212057fe5b6020026020010151838380600101945081518110151561213c57fe5b602002602001019073ffffffffffffffffffffffffffffffffffffffff16908173ffffffffffffffffffffffffffffffffffffffff16815260200150505b5b8080600101915050612100565b50819350505050612197565050505b92915050565b6000816121af84612a6b63ffffffff16565b760a70c3c40a64e6c51999090b65f67d92400000000000008115156121d057fe5b048115156121da57fe5b0490506121e2565b92915050565b60006000670de0b6b3a76400008310905060008161221057670de0b6b3a7640000840361221c565b83670de0b6b3a7640000035b905084600001516fffffffffffffffffffffffffffffffff1681101515612315576000612294612287600188602001516fffffffffffffffffffffffffffffffff168581151561226857fe5b0401886060015167ffffffffffffffff16612cee90919063ffffffff16565b611ef0909063ffffffff16565b67ffffffffffffffff16905060006122db6122ce8389604001516fffffffffffffffffffffffffffffffff16612d0c90919063ffffffff16565b612daa909063ffffffff16565b9050836122fa576122f58189612e5390919063ffffffff16565b61230e565b61230d8189612eea90919063ffffffff16565b5b9750875050505b8460800151600f0b861215612331578460800151600f0b955085505b8460a00151600f0b86131561234d578460a00151600f0b955085505b85925050506123595650505b9392505050565b600061237342611ef0909063ffffffff16565b905080505b90565b6000826020015167ffffffffffffffff168267ffffffffffffffff161115156123a75760009050612454565b6000600284604001516fffffffffffffffffffffffffffffffff168115156123cb57fe5b046fffffffffffffffffffffffffffffffff16905060006124098560200151850367ffffffffffffffff1661070884612f819092919063ffffffff16565b8201905061244961243a600587604001516fffffffffffffffffffffffffffffffff16612d0c90919063ffffffff16565b82612cee90919063ffffffff16565b925050506124545650505b92915050565b7f000000000000000000000000000000000000000000000000000000000000000073ffffffffffffffffffffffffffffffffffffffff1663e97dcb626040518163ffffffff1660e01b8152600401600060405180830381600087803b1580156124c35760006000fd5b505af11580156124d8573d600060003e3d6000fd5b5050505060026002600050541415151561255d576040517f08c379a000000000000000000000000000000000000000000000000000000000815260040180806020018281038252600d8152602001807f4c50205265656e7472616e63790000000000000000000000000000000000000081526020015060200191505060405180910390fd5b600260026000508190909055505b565b61257b61308263ffffffff16565b7f000000000000000000000000000000000000000000000000000000000000000073ffffffffffffffffffffffffffffffffffffffff1663bf86d6906040518163ffffffff1660e01b815260040160206040518083038186803b1580156125e25760006000fd5b505afa1580156125f7573d600060003e3d6000fd5b505050506040513d602081101561260e5760006000fd5b8101908080519060200190929190505050151515612697576040517f08c379a00000000000000000000000000000000000000000000000000000000081526004018080602001828103825260118152602001807f50726f746f636f6c2073687574646f776e00000000000000000000000000000081526020015060200191505060405180910390fd5b5b565b60006126c6826126ae61236063ffffffff16565b67ffffffffffffffff16611e5390919063ffffffff16565b905080505b919050565b60007001000000000000000000000000000000008210151561275d576040517f08c379a00000000000000000000000000000000000000000000000000000000081526004018080602001828103825260128152602001807f6d6f7265207468616e203132382062697473000000000000000000000000000081526020015060200191505060405180910390fd5b819050612765565b919050565b600160026000508190909055507f000000000000000000000000000000000000000000000000000000000000000073ffffffffffffffffffffffffffffffffffffffff1663e9fad8ee6040518163ffffffff1660e01b8152600401600060405180830381600087803b1580156127e05760006000fd5b505af11580156127f5573d600060003e3d6000fd5b505050505b565b60007fffffffffffffffffffffffffffffffffffffffffffffffffffffffffffffffff61282f84846129ca63ffffffff16565b14159050612838565b92915050565b7f000000000000000000000000000000000000000000000000000000000000000073ffffffffffffffffffffffffffffffffffffffff1663d3419bf36040518163ffffffff1660e01b815260040160206040518083038186803b1580156128a55760006000fd5b505afa1580156128ba573d600060003e3d6000fd5b505050506040513d601f19601f820116820180604052508101906128de919061328a565b73ffffffffffffffffffffffffffffffffffffffff16637c5b9011826040518263ffffffff1660e01b815260040161291691906134b9565b600060405180830381600087803b1580156129315760006000fd5b505af1158015612946573d600060003e3d6000fd5b505050505b50565b8015156129c6576040517f08c379a000000000000000000000000000000000000000000000000000000000815260040180806020018281038252600e8152602001807f4e6f7420417574686f72697a656400000000000000000000000000000000000081526020015060200191505060405180910390fd5b5b50565b60006000600090505b8351811015612a3c578273ffffffffffffffffffffffffffffffffffffffff168482815181101515612a0157fe5b602002602001015173ffffffffffffffffffffffffffffffffffffffff161415612a2e5780915050612a65565b5b80806001019150506129d3565b507fffffffffffffffffffffffffffffffffffffffffffffffffffffffffffffffff9050612a65565b92915050565b6000600082519050600081111515612ab8576040517f08c379a0000000000000000000000000000000000000000000000000000000008152600401612aaf90613624565b60405180910390fd5b6000600060005b6002841115612c6b57856000815181101515612ad757fe5b602002602001015191508150856000815181101515612af257fe5b6020026020010151905080506000600190505b84811015612b51578681815181101515612b1b57fe5b60200260200101519350835082841015612b355783925082505b81841115612b435783915081505b5b8080600101915050612b05565b5080821415612b665781945050505050612ce9565b60006002850367ffffffffffffffff81118015612b835760006000fd5b50604051908082528060200260200182016040528015612bb25781602001602082028036833780820191505090505b5090506000600060006000600090505b88811015612c54578a81815181101515612bd857fe5b6020026020010151975087508688148015612bf1575081155b15612c0157600191508150612c46565b8588148015612c0e575082155b15612c1e57600192508250612c45565b878585806001019650815181101515612c3357fe5b60200260200101909081815260200150505b5b5b8080600101915050612bc2565b506002880397508750839950895050505050612abf565b6001841415612c9a57856000815181101515612c8357fe5b6020026020010151945050505050612ce956612ce4565b612cd9866001815181101515612cac57fe5b6020026020010151876000815181101515612cc357fe5b602002602001015161310d90919063ffffffff16565b945050505050612ce9565b505050505b919050565b6000818310612cfd5781612cff565b825b9050612d06565b92915050565b60006000821480612d2c57508282838502925082811515612d2957fe5b04145b1515612da3576040517f08c379a000000000000000000000000000000000000000000000000000000000815260040180806020018281038252600c8152602001807f6d756c2d6f766572666c6f77000000000000000000000000000000000000000081526020015060200191505060405180910390fd5b5b92915050565b60007f800000000000000000000000000000000000000000000000000000000000000082101515612e46576040517f08c379a00000000000000000000000000000000000000000000000000000000081526004018080602001828103825260128152602001807f746f6f2062696720666f7220696e74323536000000000000000000000000000081526020015060200191505060405180910390fd5b819050612e4e565b919050565b60006000828403905060008312158015612e6d5750838113155b80612e835750600083128015612e8257508381135b5b1515612eda576040517f08c379a00000000000000000000000000000000000000000000000000000000081526004018080602001828103825260248152602001806138346024913960400191505060405180910390fd5b80915050612ee456505b92915050565b60006000828401905060008312158015612f045750838112155b80612f1a5750600083128015612f1957508381125b5b1515612f71576040517f08c379a00000000000000000000000000000000000000000000000000000000081526004018080602001828103825260218152602001806138136021913960400191505060405180910390fd5b80915050612f7b56505b92915050565b6000600060006000198587098587029250828110838203039150506000811415612fc457600084111515612fb55760006000fd5b8382049250829250505061307b565b8084111515612fd35760006000fd5b600084868809905082811182039150808303925060008586600003169050808604955080840493506001818260000304019050808302841793508350600060028760030218905080870260020381029050805080870260020381029050805080870260020381029050805080870260020381029050805080870260020381029050805080870260020381029050805080850295508550859550505050505061307b5650505050505b9392505050565b600060009054906101000a900460ff1615151561310a576040517f08c379a00000000000000000000000000000000000000000000000000000000081526004018080602001828103825260138152602001807f436f6e74726163742069732073746f707065640000000000000000000000000081526020015060200191505060405180910390fd5b5b565b6000600260028381151561311d57fe5b0660028581151561312a57fe5b060181151561313557fe5b0460028381151561314257fe5b0460028581151561314f57fe5b0401019050613159565b92915050565b8280548282559060005260206000209081019282156131d8579160200282015b828111156131d75782518260006101000a81548173ffffffffffffffffffffffffffffffffffffffff021916908373ffffffffffffffffffffffffffffffffffffffff1602179055509160200191906001019061317f565b5b5090506131e591906131e9565b5090565b6131ee565b8082111561320857600081815060009055506001016131ee565b509056613811565b600060208284031215613221578081fd5b815180151581141515613232578182fd5b809150505b92915050565b60006020828403121561324e578081fd5b81357fffffffff0000000000000000000000000000000000000000000000000000000081168114151561327f578182fd5b809150505b92915050565b60006020828403121561329b578081fd5b81516132a6816137e8565b809150505b92915050565b6000602082840312156132c2578081fd5b81356132cd816137e8565b809150505b92915050565b6000602082840312156132e9578081fd5b813580600f0b811415156132fb578182fd5b809150505b92915050565b600060208284031215613317578081fd5b81356fffffffffffffffffffffffffffffffff811681141515613338578182fd5b809150505b92915050565b600060208284031215613354578081fd5b813590505b92915050565b600060208284031215613370578081fd5b815190505b92915050565b60006020828403121561338c578081fd5b813567ffffffffffffffff8116811415156133a5578182fd5b809150505b92915050565b600060208201905073ffffffffffffffffffffffffffffffffffffffff831682525b92915050565b600060408201905073ffffffffffffffffffffffffffffffffffffffff841682526fffffffffffffffffffffffffffffffff831660208301525b9392505050565b600060208083018184528085518083526040860191508387019250845b8181101561346e5773ffffffffffffffffffffffffffffffffffffffff8451168352848301925084840193505b600181019050613436565b50508093505050505b92915050565b600060208201905082151582525b92915050565b600060208201905073ffffffffffffffffffffffffffffffffffffffff831682525b92915050565b600060208201905073ffffffffffffffffffffffffffffffffffffffff831682525b92915050565b600060408201905073ffffffffffffffffffffffffffffffffffffffff8416825282151560208301525b9392505050565b600060208201905082600f0b82525b92915050565b60006080820190508582528460208301526fffffffffffffffffffffffffffffffff8416604083015267ffffffffffffffff831660608301525b95945050505050565b600060608201905084825267ffffffffffffffff841660208301526fffffffffffffffffffffffffffffffff831660408301525b949350505050565b600060208252600960208301527f4e6f7420666f756e64000000000000000000000000000000000000000000000060408301526060820190505b919050565b600060208252601460208301527f506f6f6c206e6f7420696e697469616c697a656400000000000000000000000060408301526060820190505b919050565b600060208252600560208301527f656d70747900000000000000000000000000000000000000000000000000000060408301526060820190505b919050565b600060208252601060208301527f557064617465206e6f742072656164790000000000000000000000000000000060408301526060820190505b919050565b600060208252600d60208301527f4f6e6c79206f6e6520706f6f6c0000000000000000000000000000000000000060408301526060820190505b919050565b600060208252600d60208301527f416c72656164792061646465640000000000000000000000000000000000000060408301526060820190505b919050565b60006020820190506fffffffffffffffffffffffffffffffff831682525b92915050565b600060c0820190506fffffffffffffffffffffffffffffffff8089168352808816602084015280871660408401525067ffffffffffffffff8516606083015283600f0b608083015282600f0b60a08301525b979650505050505050565b60006020820190508282525b92915050565b60006040820190508382528260208301525b9392505050565b600060208201905067ffffffffffffffff831682525b92915050565b73ffffffffffffffffffffffffffffffffffffffff81168114151561380d5760006000fd5b5b50565bfe5369676e6564536166654d6174683a206164646974696f6e206f766572666c6f775369676e6564536166654d6174683a207375627472616374696f6e206f766572666c6f77a2646970667358221220170f2165fa3fd617f13aca5a939e7798b9a18ae02604f16eb429f575f0b770a864736f6c63430007060033",
  "linkReferences": {},
  "deployedLinkReferences": {}
}