{
  "_format": "hh-sol-artifact-1",
  "contractName": "TFDao",
  "sourceName": "contracts/core/TF/TFDao.sol",
  "abi": [
    {
      "inputs": [
        {
          "internalType": "address",
          "name": "_timelock",
          "type": "address"
        },
        {
          "internalType": "address",
          "name": "_multisig",
          "type": "address"
        },
        {
          "internalType": "contract IProtocolToken",
          "name": "_initialToken",
          "type": "address"
        }
      ],
      "stateMutability": "nonpayable",
      "type": "constructor"
    },
    {
      "anonymous": false,
      "inputs": [
        {
          "indexed": true,
          "internalType": "address",
          "name": "token",
          "type": "address"
        },
        {
          "indexed": false,
          "internalType": "uint256",
          "name": "count",
          "type": "uint256"
        }
      ],
      "name": "IncentiveMinted",
      "type": "event"
    },
    {
      "anonymous": false,
      "inputs": [
        {
          "indexed": true,
          "internalType": "uint64",
          "name": "currentPeriod",
          "type": "uint64"
        },
        {
          "indexed": false,
          "internalType": "uint64",
          "name": "periods",
          "type": "uint64"
        }
      ],
      "name": "InflationAccrued",
      "type": "event"
    },
    {
      "anonymous": false,
      "inputs": [
        {
          "indexed": true,
          "internalType": "address",
          "name": "_contract",
          "type": "address"
        }
      ],
      "name": "LiquidationIncentiveContractSet",
      "type": "event"
    },
    {
      "anonymous": false,
      "inputs": [
        {
          "indexed": true,
          "internalType": "address",
          "name": "governorAlpha",
          "type": "address"
        },
        {
          "indexed": true,
          "internalType": "uint256",
          "name": "proposalID",
          "type": "uint256"
        },
        {
          "indexed": true,
          "internalType": "bool",
          "name": "decision",
          "type": "bool"
        }
      ],
      "name": "MetaGovernanceDecisionExecuted",
      "type": "event"
    },
    {
      "anonymous": false,
      "inputs": [
        {
          "indexed": true,
          "internalType": "uint64",
          "name": "positionNFTTokenID",
          "type": "uint64"
        },
        {
          "indexed": true,
          "internalType": "address",
          "name": "owner",
          "type": "address"
        }
      ],
      "name": "RewardsClaimed",
      "type": "event"
    },
    {
      "anonymous": false,
      "inputs": [],
      "name": "TFDaoStarted",
      "type": "event"
    },
    {
      "anonymous": false,
      "inputs": [
        {
          "indexed": true,
          "internalType": "address",
          "name": "token",
          "type": "address"
        }
      ],
      "name": "TokenAdded",
      "type": "event"
    },
    {
      "anonymous": false,
      "inputs": [
        {
          "indexed": true,
          "internalType": "uint16",
          "name": "tokenID",
          "type": "uint16"
        },
        {
          "indexed": true,
          "internalType": "address",
          "name": "initialOwner",
          "type": "address"
        },
        {
          "indexed": true,
          "internalType": "uint8",
          "name": "lockDurationMonths",
          "type": "uint8"
        },
        {
          "indexed": false,
          "internalType": "uint256",
          "name": "count",
          "type": "uint256"
        }
      ],
      "name": "TokensLocked",
      "type": "event"
    },
    {
      "anonymous": false,
      "inputs": [
        {
          "indexed": true,
          "internalType": "uint16",
          "name": "tokenID",
          "type": "uint16"
        },
        {
          "indexed": true,
          "internalType": "address",
          "name": "owner",
          "type": "address"
        },
        {
          "indexed": false,
          "internalType": "uint256",
          "name": "count",
          "type": "uint256"
        }
      ],
      "name": "TokensUnlocked",
      "type": "event"
    },
    {
      "inputs": [],
      "name": "accrueInflation",
      "outputs": [],
      "stateMutability": "nonpayable",
      "type": "function"
    },
    {
      "inputs": [
        {
          "internalType": "contract IProtocolToken",
          "name": "token",
          "type": "address"
        }
      ],
      "name": "addToken",
      "outputs": [],
      "stateMutability": "nonpayable",
      "type": "function"
    },
    {
      "inputs": [],
      "name": "availableSupply",
      "outputs": [
        {
          "internalType": "uint256",
          "name": "",
          "type": "uint256"
        }
      ],
      "stateMutability": "view",
      "type": "function"
    },
    {
      "inputs": [
        {
          "internalType": "bytes4",
          "name": "",
          "type": "bytes4"
        }
      ],
      "name": "blacklistedAction",
      "outputs": [
        {
          "internalType": "bool",
          "name": "",
          "type": "bool"
        }
      ],
      "stateMutability": "view",
      "type": "function"
    },
    {
      "inputs": [],
      "name": "currentPeriod",
      "outputs": [
        {
          "internalType": "uint64",
          "name": "period",
          "type": "uint64"
        }
      ],
      "stateMutability": "view",
      "type": "function"
    },
    {
      "inputs": [],
      "name": "dailyProtocolTFIncentiveCount",
      "outputs": [
        {
          "internalType": "uint256",
          "name": "",
          "type": "uint256"
        }
      ],
      "stateMutability": "view",
      "type": "function"
    },
    {
      "inputs": [],
      "name": "deployer",
      "outputs": [
        {
          "internalType": "address",
          "name": "",
          "type": "address"
        }
      ],
      "stateMutability": "view",
      "type": "function"
    },
    {
      "inputs": [
        {
          "internalType": "address",
          "name": "target",
          "type": "address"
        },
        {
          "internalType": "string",
          "name": "signature",
          "type": "string"
        },
        {
          "internalType": "bytes",
          "name": "data",
          "type": "bytes"
        }
      ],
      "name": "execute",
      "outputs": [
        {
          "internalType": "bool",
          "name": "success",
          "type": "bool"
        },
        {
          "internalType": "bytes",
          "name": "returnData",
          "type": "bytes"
        }
      ],
      "stateMutability": "nonpayable",
      "type": "function"
    },
    {
      "inputs": [
        {
          "internalType": "uint256",
          "name": "metaProposalID",
          "type": "uint256"
        }
      ],
      "name": "executeMetaProposalVote",
      "outputs": [],
      "stateMutability": "nonpayable",
      "type": "function"
    },
    {
      "inputs": [],
      "name": "firstPeriod",
      "outputs": [
        {
          "internalType": "uint64",
          "name": "",
          "type": "uint64"
        }
      ],
      "stateMutability": "view",
      "type": "function"
    },
    {
      "inputs": [
        {
          "internalType": "uint64",
          "name": "positionNFTTokenID",
          "type": "uint64"
        }
      ],
      "name": "getRewards",
      "outputs": [],
      "stateMutability": "nonpayable",
      "type": "function"
    },
    {
      "inputs": [
        {
          "internalType": "uint16",
          "name": "",
          "type": "uint16"
        }
      ],
      "name": "idToToken",
      "outputs": [
        {
          "internalType": "contract IProtocolToken",
          "name": "",
          "type": "address"
        }
      ],
      "stateMutability": "view",
      "type": "function"
    },
    {
      "inputs": [],
      "name": "incentiveContract",
      "outputs": [
        {
          "internalType": "address",
          "name": "",
          "type": "address"
        }
      ],
      "stateMutability": "view",
      "type": "function"
    },
    {
      "inputs": [
        {
          "internalType": "address",
          "name": "dest",
          "type": "address"
        },
        {
          "internalType": "uint256",
          "name": "count",
          "type": "uint256"
        }
      ],
      "name": "incentiveContractMint",
      "outputs": [],
      "stateMutability": "nonpayable",
      "type": "function"
    },
    {
      "inputs": [],
      "name": "incentivesStartPeriod",
      "outputs": [
        {
          "internalType": "uint64",
          "name": "",
          "type": "uint64"
        }
      ],
      "stateMutability": "view",
      "type": "function"
    },
    {
      "inputs": [
        {
          "internalType": "contract IPositionNFT",
          "name": "_tfPositionNFT",
          "type": "address"
        },
        {
          "internalType": "contract IProtocolToken",
          "name": "_tfToken",
          "type": "address"
        },
        {
          "internalType": "contract GovernorAlpha",
          "name": "_tfGovernorAlpha",
          "type": "address"
        }
      ],
      "name": "init",
      "outputs": [],
      "stateMutability": "nonpayable",
      "type": "function"
    },
    {
      "inputs": [],
      "name": "lastPeriodGlobalInflationUpdated",
      "outputs": [
        {
          "internalType": "uint64",
          "name": "",
          "type": "uint64"
        }
      ],
      "stateMutability": "view",
      "type": "function"
    },
    {
      "inputs": [
        {
          "internalType": "contract IProtocolToken",
          "name": "token",
          "type": "address"
        },
        {
          "internalType": "uint256",
          "name": "count",
          "type": "uint256"
        },
        {
          "internalType": "uint8",
          "name": "lockDurationMonths",
          "type": "uint8"
        },
        {
          "internalType": "address",
          "name": "to",
          "type": "address"
        }
      ],
      "name": "lockTokens",
      "outputs": [
        {
          "internalType": "uint64",
          "name": "positionNFTTokenID",
          "type": "uint64"
        }
      ],
      "stateMutability": "nonpayable",
      "type": "function"
    },
    {
      "inputs": [
        {
          "internalType": "address",
          "name": "dest",
          "type": "address"
        },
        {
          "internalType": "uint256",
          "name": "count",
          "type": "uint256"
        }
      ],
      "name": "mintIncentive",
      "outputs": [],
      "stateMutability": "nonpayable",
      "type": "function"
    },
    {
      "inputs": [],
      "name": "multisig",
      "outputs": [
        {
          "internalType": "address",
          "name": "",
          "type": "address"
        }
      ],
      "stateMutability": "view",
      "type": "function"
    },
    {
      "inputs": [],
      "name": "periodLength",
      "outputs": [
        {
          "internalType": "uint64",
          "name": "",
          "type": "uint64"
        }
      ],
      "stateMutability": "view",
      "type": "function"
    },
    {
      "inputs": [
        {
          "internalType": "uint64",
          "name": "",
          "type": "uint64"
        }
      ],
      "name": "positions",
      "outputs": [
        {
          "internalType": "uint128",
          "name": "count",
          "type": "uint128"
        },
        {
          "internalType": "uint128",
          "name": "startTotalRewards",
          "type": "uint128"
        },
        {
          "internalType": "uint184",
          "name": "startCumulativeVirtualCount",
          "type": "uint184"
        },
        {
          "internalType": "uint16",
          "name": "lastPeriodUpdated",
          "type": "uint16"
        },
        {
          "internalType": "uint16",
          "name": "endPeriod",
          "type": "uint16"
        },
        {
          "internalType": "uint16",
          "name": "tokenID",
          "type": "uint16"
        },
        {
          "internalType": "uint8",
          "name": "durationMonths",
          "type": "uint8"
        }
      ],
      "stateMutability": "view",
      "type": "function"
    },
    {
      "inputs": [
        {
          "internalType": "uint16",
          "name": "",
          "type": "uint16"
        }
      ],
      "name": "rewardsStatus",
      "outputs": [
        {
          "internalType": "uint128",
          "name": "cumulativeVirtualCount",
          "type": "uint128"
        },
        {
          "internalType": "uint128",
          "name": "totalRewards",
          "type": "uint128"
        }
      ],
      "stateMutability": "view",
      "type": "function"
    },
    {
      "inputs": [
        {
          "internalType": "address",
          "name": "_contract",
          "type": "address"
        }
      ],
      "name": "setIncentiveContract",
      "outputs": [],
      "stateMutability": "nonpayable",
      "type": "function"
    },
    {
      "inputs": [],
      "name": "start",
      "outputs": [],
      "stateMutability": "nonpayable",
      "type": "function"
    },
    {
      "inputs": [],
      "name": "startPeriod",
      "outputs": [
        {
          "internalType": "uint64",
          "name": "",
          "type": "uint64"
        }
      ],
      "stateMutability": "view",
      "type": "function"
    },
    {
      "inputs": [],
      "name": "tfGovernorAlpha",
      "outputs": [
        {
          "internalType": "contract GovernorAlpha",
          "name": "",
          "type": "address"
        }
      ],
      "stateMutability": "view",
      "type": "function"
    },
    {
      "inputs": [],
      "name": "tfPositionNFT",
      "outputs": [
        {
          "internalType": "contract IPositionNFT",
          "name": "",
          "type": "address"
        }
      ],
      "stateMutability": "view",
      "type": "function"
    },
    {
      "inputs": [],
      "name": "tfToken",
      "outputs": [
        {
          "internalType": "contract IProtocolToken",
          "name": "",
          "type": "address"
        }
      ],
      "stateMutability": "view",
      "type": "function"
    },
    {
      "inputs": [],
      "name": "timelock",
      "outputs": [
        {
          "internalType": "address",
          "name": "",
          "type": "address"
        }
      ],
      "stateMutability": "view",
      "type": "function"
    },
    {
      "inputs": [
        {
          "internalType": "contract IProtocolToken",
          "name": "",
          "type": "address"
        }
      ],
      "name": "tokenToID",
      "outputs": [
        {
          "internalType": "uint16",
          "name": "",
          "type": "uint16"
        }
      ],
      "stateMutability": "view",
      "type": "function"
    },
    {
      "inputs": [],
      "name": "totalIncentivesMinted",
      "outputs": [
        {
          "internalType": "uint256",
          "name": "",
          "type": "uint256"
        }
      ],
      "stateMutability": "view",
      "type": "function"
    },
    {
      "inputs": [
        {
          "internalType": "uint64",
          "name": "positionNFTTokenID",
          "type": "uint64"
        }
      ],
      "name": "unlockTokens",
      "outputs": [],
      "stateMutability": "nonpayable",
      "type": "function"
    },
    {
      "inputs": [
        {
          "internalType": "uint16",
          "name": "",
          "type": "uint16"
        }
      ],
      "name": "virtualCount",
      "outputs": [
        {
          "internalType": "uint256",
          "name": "",
          "type": "uint256"
        }
      ],
      "stateMutability": "view",
      "type": "function"
    },
    {
      "inputs": [
        {
          "internalType": "contract GovernorAlpha",
          "name": "",
          "type": "address"
        },
        {
          "internalType": "uint256",
          "name": "",
          "type": "uint256"
        }
      ],
      "name": "voteInUnderlyingProtocol",
      "outputs": [],
      "stateMutability": "pure",
      "type": "function"
    }
  ],
  "bytecode": "0x60e06040526001600460146101000a81548167ffffffffffffffff021916908367ffffffffffffffff1602179055503480156200003c5760006000fd5b5060405162005f7238038062005f72833981810160405281019062000062919062000472565b5b5b620151805b60018167ffffffffffffffff1662000086620001c660201b60201c565b67ffffffffffffffff168115156200009a57fe5b040367ffffffffffffffff1660a08167ffffffffffffffff1660c01b815260080150508067ffffffffffffffff1660808167ffffffffffffffff1660c01b815260080150505b50600160006000508190909055505b33600c60006101000a81548173ffffffffffffffffffffffffffffffffffffffff021916908373ffffffffffffffffffffffffffffffffffffffff1602179055508273ffffffffffffffffffffffffffffffffffffffff1660c08173ffffffffffffffffffffffffffffffffffffffff1660601b8152601401505081600d60006101000a81548173ffffffffffffffffffffffffffffffffffffffff021916908373ffffffffffffffffffffffffffffffffffffffff160217905550620001bc81620001e860201b60201c565b5b50505062000502565b6000620001e042620003d960201b6200276e17909060201c565b905080505b90565b61ffff61ffff16600760009054906101000a900461ffff1661ffff16101515620002125760006000fd5b6007600081819054906101000a900461ffff168092919060010191906101000a81548161ffff021916908361ffff160217905550508060096000506000600760009054906101000a900461ffff1661ffff1661ffff16815260200190815260200160002060006101000a81548173ffffffffffffffffffffffffffffffffffffffff021916908373ffffffffffffffffffffffffffffffffffffffff160217905550600760009054906101000a900461ffff16600860005060008373ffffffffffffffffffffffffffffffffffffffff1673ffffffffffffffffffffffffffffffffffffffff16815260200190815260200160002060006101000a81548161ffff021916908361ffff1602179055508073ffffffffffffffffffffffffffffffffffffffff16635c19a95c306040518263ffffffff1660e01b81526004016200035c9190620004c9565b600060405180830381600087803b158015620003785760006000fd5b505af11580156200038e573d600060003e3d6000fd5b505050508073ffffffffffffffffffffffffffffffffffffffff167f784c8f4dbf0ffedd6e72c76501c545a70f8b203b30a26ce542bf92ba87c248a460405160405180910390a25b50565b600068010000000000000000821015156200045f576040517f08c379a00000000000000000000000000000000000000000000000000000000081526004018080602001828103825260118152602001807f6d6f7265207468616e203634206269747300000000000000000000000000000081526020015060200191505060405180910390fd5b81905062000468565b9190505662000501565b6000600060006060848603121562000488578283fd5b83516200049581620004e4565b809350506020840151620004a981620004e4565b809250506040840151620004bd81620004e4565b809150505b9250925092565b60006020820190506001600160a01b03831682525b92915050565b6001600160a01b03811681141515620004fd5760006000fd5b5b50565b5b60805160c01c60a05160c01c60c05160601c615a2b620005476000398061165b52806122db5250806122935280612ad65250806122b75280612af75250615a2b6000f3fe60806040523480156100115760006000fd5b50600436106102465760003560e01c80637ad31c9811610146578063d33219b4116100be578063d948de4a1161008d578063f9f7e31d11610072578063f9f7e31d1461066c578063fcb3fa901461068a578063fd8067c3146106a657610246565b8063d948de4a14610630578063e4aa19991461064e57610246565b8063d33219b4146105ba578063d48bfca7146105d8578063d5f39488146105f4578063d6c2875d1461061257610246565b8063b551a00d11610115578063c2cc16d9116100fa578063c2cc16d914610560578063c4e3a63b1461057e578063d2ca21151461059c57610246565b8063b551a00d1461053a578063be9a65551461055657610246565b80637ad31c98146104b25780637ecc2b56146104d05780639383ac44146104ee5780639d8e09011461050a57610246565b806330bfb9bb116101d95780634783c35b116101a85780634e9568ef1161018d5780634e9568ef1461043057806360f3ce041461044c578063797250e41461048257610246565b80634783c35b146103f65780634cd7a3151461041457610246565b806330bfb9bb1461034657806333daf5d414610364578063371f3d45146103955780634306ef4f146103c557610246565b80630a889a8b116102155780630a889a8b146102c0578063184b9559146102dc57806323990897146102f857806327fb04741461031657610246565b8063020ac54a1461024c5780630604061814610256578063078182001461027457806307e54f161461029057610246565b60006000fd5b6102546106c4565b005b61025e610771565b60405161026b91906158ca565b60405180910390f35b61028e60048036038101906102899190614b4d565b610789565b005b6102aa60048036038101906102a59190614e8d565b610968565b6040516102b7919061586b565b60405180910390f35b6102da60048036038101906102d591906150bb565b61098e565b005b6102f660048036038101906102f19190614e3d565b610ecd565b005b6103006110f6565b60405161030d9190615312565b60405180910390f35b610330600480360381019061032b9190614eb4565b61111c565b60405161033d91906158ca565b60405180910390f35b61034e6115aa565b60405161035b91906158ca565b60405180910390f35b61037e60048036038101906103799190614bcc565b6115c4565b60405161038c92919061529d565b60405180910390f35b6103af60048036038101906103aa9190614dbf565b611859565b6040516103bc9190615289565b60405180910390f35b6103df60048036038101906103da9190615054565b61187e565b6040516103ed9291906157c4565b60405180910390f35b6103fe6118dd565b60405161040b91906151c0565b60405180910390f35b61042e60048036038101906104299190614c73565b611903565b005b61044a60048036038101906104459190614e0c565b611b67565b005b610466600480360381019061046191906150bb565b611b6c565b60405161047997969594939291906157f3565b60405180910390f35b61049c60048036038101906104979190615054565b611c43565b6040516104a99190615881565b60405180910390f35b6104ba611c5e565b6040516104c79190615881565b60405180910390f35b6104d8611c67565b6040516104e59190615881565b60405180910390f35b61050860048036038101906105039190614c73565b611d00565b005b610524600480360381019061051f9190615054565b611f6d565b6040516105319190615312565b60405180910390f35b610554600480360381019061054f91906150bb565b611fa5565b005b61055e612174565b005b61056861226b565b60405161057591906151c0565b60405180910390f35b610586612291565b60405161059391906158ca565b60405180910390f35b6105a46122b5565b6040516105b191906158ca565b60405180910390f35b6105c26122d9565b6040516105cf91906151c0565b60405180910390f35b6105f260048036038101906105ed9190614e8d565b6122fd565b005b6105fc61234e565b60405161060991906151c0565b60405180910390f35b61061a612374565b60405161062791906158ca565b60405180910390f35b61063861238e565b60405161064591906152c2565b60405180910390f35b6106566123b4565b60405161066391906152ea565b60405180910390f35b6106746123da565b6040516106819190615881565b60405180910390f35b6106a4600480360381019061069f9190615083565b612499565b005b6106ae612754565b6040516106bb91906158ca565b60405180910390f35b600260006000505414151515610745576040517f08c379a000000000000000000000000000000000000000000000000000000000815260040180806020018281038252601f8152602001807f5265656e7472616e637947756172643a207265656e7472616e742063616c6c0081526020015060200191505060405180910390fd5b6002600060005081909090555061076061280063ffffffff16565b5b600160006000508190909055505b565b6000610781612ad263ffffffff16565b905080505b90565b6107c63073ffffffffffffffffffffffffffffffffffffffff163373ffffffffffffffffffffffffffffffffffffffff1614612b4b63ffffffff16565b600073ffffffffffffffffffffffffffffffffffffffff16600160009054906101000a900473ffffffffffffffffffffffffffffffffffffffff1673ffffffffffffffffffffffffffffffffffffffff16141515610859576040517f08c379a000000000000000000000000000000000000000000000000000000000815260040161085090615746565b60405180910390fd5b61086881612b9163ffffffff16565b15156108a9576040517f08c379a00000000000000000000000000000000000000000000000000000000081526004016108a090615707565b60405180910390fd5b80600160006101000a81548173ffffffffffffffffffffffffffffffffffffffff021916908373ffffffffffffffffffffffffffffffffffffffff1602179055506108f8612ad263ffffffff16565b600e60006101000a81548167ffffffffffffffff021916908367ffffffffffffffff1602179055508073ffffffffffffffffffffffffffffffffffffffff167f6765bf0cc4e3defc42bfa6ac394241a5f702ee760529c922874f15c4ad35edc760405160405180910390a25b5b50565b600860005060205280600052604060002060009150909054906101000a900461ffff1681565b600260006000505414151515610a0f576040517f08c379a000000000000000000000000000000000000000000000000000000000815260040180806020018281038252601f8152602001807f5265656e7472616e637947756172643a207265656e7472616e742063616c6c0081526020015060200191505060405180910390fd5b600260006000508190909055506000339050610ade600460009054906101000a900473ffffffffffffffffffffffffffffffffffffffff1673ffffffffffffffffffffffffffffffffffffffff1663430c208183856040518363ffffffff1660e01b8152600401610a81929190615250565b60206040518083038186803b158015610a9a5760006000fd5b505afa158015610aaf573d600060003e3d6000fd5b505050506040513d601f19601f82011682018060405250810190610ad39190614d9c565b612b4b63ffffffff16565b6000610aef83612bab63ffffffff16565b9050610aff612ad263ffffffff16565b67ffffffffffffffff16816080015167ffffffffffffffff1611151515610b5b576040517f08c379a0000000000000000000000000000000000000000000000000000000008152600401610b52906155cc565b60405180910390fd5b610baa610b7682600001518360a00151612ebd63ffffffff16565b600660005060008460c0015161ffff1661ffff16815260200190815260200160002060005054612eec90919063ffffffff16565b600660005060008360c0015161ffff1661ffff168152602001908152602001600020600050819090905550600a60005060008467ffffffffffffffff1667ffffffffffffffff16815260200190815260200160002060006000820160006101000a8154906fffffffffffffffffffffffffffffffff02191690556000820160106101000a8154906fffffffffffffffffffffffffffffffff02191690556001820160006101000a81549076ffffffffffffffffffffffffffffffffffffffffffffff02191690556001820160176101000a81549061ffff02191690556001820160196101000a81549061ffff021916905560018201601b6101000a81549061ffff021916905560018201601d6101000a81549060ff021916905550506000600460009054906101000a900473ffffffffffffffffffffffffffffffffffffffff1673ffffffffffffffffffffffffffffffffffffffff16636352211e856040518263ffffffff1660e01b8152600401610d2391906158ae565b60206040518083038186803b158015610d3c5760006000fd5b505afa158015610d51573d600060003e3d6000fd5b505050506040513d601f19601f82011682018060405250810190610d759190614b74565b9050600460009054906101000a900473ffffffffffffffffffffffffffffffffffffffff1673ffffffffffffffffffffffffffffffffffffffff16639dbead42856040518263ffffffff1660e01b8152600401610dd291906158ca565b600060405180830381600087803b158015610ded5760006000fd5b505af1158015610e02573d600060003e3d6000fd5b505050508273ffffffffffffffffffffffffffffffffffffffff168260c0015161ffff167fbf347141bee0ba9c777fbef9a14008be9f56f2b2f90f0e63cfed8a96a3b506c78460000151604051610e599190615881565b60405180910390a3610eb8600960005060008460c0015161ffff1661ffff16815260200190815260200160002060009054906101000a900473ffffffffffffffffffffffffffffffffffffffff16828460000151612f7563ffffffff16565b5050505b600160006000508190909055505b50565b610f2c600c60009054906101000a900473ffffffffffffffffffffffffffffffffffffffff1673ffffffffffffffffffffffffffffffffffffffff163373ffffffffffffffffffffffffffffffffffffffff1614612b4b63ffffffff16565b600c60006101000a81549073ffffffffffffffffffffffffffffffffffffffff021916905582600460006101000a81548173ffffffffffffffffffffffffffffffffffffffff021916908373ffffffffffffffffffffffffffffffffffffffff16021790555081600360006101000a81548173ffffffffffffffffffffffffffffffffffffffff021916908373ffffffffffffffffffffffffffffffffffffffff16021790555080600260006101000a81548173ffffffffffffffffffffffffffffffffffffffff021916908373ffffffffffffffffffffffffffffffffffffffff16021790555061102a63a9059cbb60e01b61318163ffffffff16565b6110406323b872dd60e01b61318163ffffffff16565b61105663095ea7b360e01b61318163ffffffff16565b61106c63449a52f860e01b61318163ffffffff16565b6110826379cc679060e01b61318163ffffffff16565b6110986342966c6860e01b61318163ffffffff16565b6110ae633950935160e01b61318163ffffffff16565b6110c463a457c2d760e01b61318163ffffffff16565b6110da633c4a25d060e01b61318163ffffffff16565b6110f0635c19a95c60e01b61318163ffffffff16565b5b505050565b600360009054906101000a900473ffffffffffffffffffffffffffffffffffffffff1681565b600060026000600050541415151561119f576040517f08c379a000000000000000000000000000000000000000000000000000000000815260040180806020018281038252601f8152602001807f5265656e7472616e637947756172643a207265656e7472616e742063616c6c0081526020015060200191505060405180910390fd5b600260006000508190909055506000600860005060008773ffffffffffffffffffffffffffffffffffffffff1673ffffffffffffffffffffffffffffffffffffffff16815260200190815260200160002060009054906101000a900461ffff16905060008161ffff1611151561124a576040517f08c379a000000000000000000000000000000000000000000000000000000000815260040161124190615452565b60405180910390fd5b60008511151561128f576040517f08c379a00000000000000000000000000000000000000000000000000000000081526004016112869061554e565b60405180910390fd5b8360ff16600667ffffffffffffffff16111580156112bb5750603067ffffffffffffffff168460ff1611155b80156112ea57506000600667ffffffffffffffff168560ff168115156112dd57fe5b0667ffffffffffffffff16145b151561132b576040517f08c379a000000000000000000000000000000000000000000000000000000000815260040161132290615413565b60405180910390fd5b61133961280063ffffffff16565b600061134a826131f263ffffffff16565b9050611392611362878760ff16612ebd63ffffffff16565b600660005060008561ffff1661ffff1681526020019081526020016000206000505461331390919063ffffffff16565b600660005060008461ffff1661ffff168152602001908152602001600020600050819090905550600460009054906101000a900473ffffffffffffffffffffffffffffffffffffffff1673ffffffffffffffffffffffffffffffffffffffff1663755edd17856040518263ffffffff1660e01b815260040161141491906151c0565b602060405180830381600087803b15801561142f5760006000fd5b505af1158015611444573d600060003e3d6000fd5b505050506040513d601f19601f8201168201806040525081019061146891906150e2565b92508250600061147c612ad263ffffffff16565b905061151d846040518060e001604052808a815260200185602001518152602001856000015181526020018467ffffffffffffffff1681526020016114e56114cc8b60ff1661339c63ffffffff16565b8667ffffffffffffffff166133df90919063ffffffff16565b67ffffffffffffffff1681526020018960ff1667ffffffffffffffff1681526020018661ffff1681526020015061347c63ffffffff16565b61152f8833308a61372263ffffffff16565b8560ff168573ffffffffffffffffffffffffffffffffffffffff168461ffff167ffd5af8482cd27088275e2c1370259ff534cf1c987cf2105e24da196377e5c98d8a60405161157e9190615881565b60405180910390a4839350505050611594565050505b600160006000508190909055505b949350505050565b600d60149054906101000a900467ffffffffffffffff1681565b60006060600260006000505414151515611649576040517f08c379a000000000000000000000000000000000000000000000000000000000815260040180806020018281038252601f8152602001807f5265656e7472616e637947756172643a207265656e7472616e742063616c6c0081526020015060200191505060405180910390fd5b600260006000508190909055506116b37f000000000000000000000000000000000000000000000000000000000000000073ffffffffffffffffffffffffffffffffffffffff163373ffffffffffffffffffffffffffffffffffffffff1614612b4b63ffffffff16565b60006116c48561394d63ffffffff16565b9050600b6000506000827bffffffffffffffffffffffffffffffffffffffffffffffffffffffff19167bffffffffffffffffffffffffffffffffffffffffffffffffffffffff1916815260200190815260200160002060009054906101000a900460ff1615151561176a576040517f08c379a00000000000000000000000000000000000000000000000000000000081526004016117619061558d565b60405180910390fd5b8573ffffffffffffffffffffffffffffffffffffffff168185604051602001611794929190615156565b6040516020818303038152906040526040516117b091906151a1565b6000604051808303816000865af19150503d80600081146117ed576040519150601f19603f3d011682016040523d82523d6000602084013e6117f2565b606091505b5080935081945050508282901515611840576040517f08c379a0000000000000000000000000000000000000000000000000000000008152600401611837919061533a565b60405180910390fd5b50505b600160006000508190909055505b935093915050565b600b60005060205280600052604060002060009150909054906101000a900460ff1681565b60056000506020528060005260406000206000915090508060000160009054906101000a90046fffffffffffffffffffffffffffffffff16908060000160109054906101000a90046fffffffffffffffffffffffffffffffff16905082565b600d60009054906101000a900473ffffffffffffffffffffffffffffffffffffffff1681565b6119403073ffffffffffffffffffffffffffffffffffffffff163373ffffffffffffffffffffffffffffffffffffffff1614612b4b63ffffffff16565b6032600360009054906101000a900473ffffffffffffffffffffffffffffffffffffffff1673ffffffffffffffffffffffffffffffffffffffff166318160ddd6040518163ffffffff1660e01b815260040160206040518083038186803b1580156119ab5760006000fd5b505afa1580156119c0573d600060003e3d6000fd5b505050506040513d601f19601f820116820180604052508101906119e4919061509f565b8115156119ed57fe5b048111151515611a32576040517f08c379a0000000000000000000000000000000000000000000000000000000008152600401611a2990615785565b60405180910390fd5b611a4182612b9163ffffffff16565b1515611a82576040517f08c379a0000000000000000000000000000000000000000000000000000000008152600401611a7990615707565b60405180910390fd5b600360009054906101000a900473ffffffffffffffffffffffffffffffffffffffff1673ffffffffffffffffffffffffffffffffffffffff1663449a52f883836040518363ffffffff1660e01b8152600401611adf929190615221565b600060405180830381600087803b158015611afa5760006000fd5b505af1158015611b0f573d600060003e3d6000fd5b505050508173ffffffffffffffffffffffffffffffffffffffff167f15c222d39f56077620782fcc367cdd020fddac1f6129c77ec7ca1c5025659dda82604051611b599190615881565b60405180910390a25b5b5050565b5b5050565b600a6000506020528060005260406000206000915090508060000160009054906101000a90046fffffffffffffffffffffffffffffffff16908060000160109054906101000a90046fffffffffffffffffffffffffffffffff16908060010160009054906101000a900476ffffffffffffffffffffffffffffffffffffffffffffff16908060010160179054906101000a900461ffff16908060010160199054906101000a900461ffff169080600101601b9054906101000a900461ffff169080600101601d9054906101000a900460ff16905087565b60066000506020528060005260406000206000915090505481565b600f6000505481565b60006000600d60149054906101000a900467ffffffffffffffff16905060008167ffffffffffffffff161415611ca1576000915050611cfd565b611cf469152d02c7e14af6800000611cdc836001611cc3612ad263ffffffff16565b0167ffffffffffffffff1661396390919063ffffffff16565b67ffffffffffffffff16613a0090919063ffffffff16565b915050611cfd56505b90565b600260006000505414151515611d81576040517f08c379a000000000000000000000000000000000000000000000000000000000815260040180806020018281038252601f8152602001807f5265656e7472616e637947756172643a207265656e7472616e742063616c6c0081526020015060200191505060405180910390fd5b60026000600050819090905550611ded600160009054906101000a900473ffffffffffffffffffffffffffffffffffffffff1673ffffffffffffffffffffffffffffffffffffffff163373ffffffffffffffffffffffffffffffffffffffff1614612b4b63ffffffff16565b6000611e0782600f6000505461331390919063ffffffff16565b90506000611e7469021e19e0c9bab2400000611e5c600e60009054906101000a900467ffffffffffffffff166001611e43612ad263ffffffff16565b0167ffffffffffffffff1661396390919063ffffffff16565b67ffffffffffffffff16613a0090919063ffffffff16565b9050808211151515611ebb576040517f08c379a0000000000000000000000000000000000000000000000000000000008152600401611eb2906156c8565b60405180910390fd5b81600f600050819090905550600360009054906101000a900473ffffffffffffffffffffffffffffffffffffffff1673ffffffffffffffffffffffffffffffffffffffff1663449a52f885856040518363ffffffff1660e01b8152600401611f24929190615221565b600060405180830381600087803b158015611f3f5760006000fd5b505af1158015611f54573d600060003e3d6000fd5b5050505050505b600160006000508190909055505b5050565b600960005060205280600052604060002060009150909054906101000a900473ffffffffffffffffffffffffffffffffffffffff1681565b600260006000505414151515612026576040517f08c379a000000000000000000000000000000000000000000000000000000000815260040180806020018281038252601f8152602001807f5265656e7472616e637947756172643a207265656e7472616e742063616c6c0081526020015060200191505060405180910390fd5b600260006000508190909055506120f0600460009054906101000a900473ffffffffffffffffffffffffffffffffffffffff1673ffffffffffffffffffffffffffffffffffffffff1663430c208133846040518363ffffffff1660e01b81526004016120939291906151e8565b60206040518083038186803b1580156120ac5760006000fd5b505afa1580156120c1573d600060003e3d6000fd5b505050506040513d601f19601f820116820180604052508101906120e59190614d9c565b612b4b63ffffffff16565b600061210182612bab63ffffffff16565b9050612113828261347c63ffffffff16565b3373ffffffffffffffffffffffffffffffffffffffff168267ffffffffffffffff167f39c278b054e152450e4295bdf59d7edbaba35cb21d4248658680e61dac39eebb60405160405180910390a3505b600160006000508190909055505b50565b6121d3600d60009054906101000a900473ffffffffffffffffffffffffffffffffffffffff1673ffffffffffffffffffffffffffffffffffffffff163373ffffffffffffffffffffffffffffffffffffffff1614612b4b63ffffffff16565b600d60006101000a81549073ffffffffffffffffffffffffffffffffffffffff021916905561220661280063ffffffff16565b612214612ad263ffffffff16565b600d60146101000a81548167ffffffffffffffff021916908367ffffffffffffffff1602179055507f8564236f3ef81979edb1add69cb6259cc2bb1906005214d30e65a840a6a019d560405160405180910390a15b565b600160009054906101000a900473ffffffffffffffffffffffffffffffffffffffff1681565b7f000000000000000000000000000000000000000000000000000000000000000081565b7f000000000000000000000000000000000000000000000000000000000000000081565b7f000000000000000000000000000000000000000000000000000000000000000081565b61233a3073ffffffffffffffffffffffffffffffffffffffff163373ffffffffffffffffffffffffffffffffffffffff1614612b4b63ffffffff16565b61234981613a9e63ffffffff16565b5b5b50565b600c60009054906101000a900473ffffffffffffffffffffffffffffffffffffffff1681565b600460149054906101000a900467ffffffffffffffff1681565b600260009054906101000a900473ffffffffffffffffffffffffffffffffffffffff1681565b600460009054906101000a900473ffffffffffffffffffffffffffffffffffffffff1681565b60006000600d60149054906101000a900467ffffffffffffffff1667ffffffffffffffff16141561240e5760009050612496565b600073ffffffffffffffffffffffffffffffffffffffff16600160009054906101000a900473ffffffffffffffffffffffffffffffffffffffff1673ffffffffffffffffffffffffffffffffffffffff161415156124845769021e19e0c9bab240000069152d02c7e14af6800000039050612496565b69152d02c7e14af68000009050612496565b90565b60006000600060006124b085613c8a63ffffffff16565b93509350935093506000836fffffffffffffffffffffffffffffffff16856fffffffffffffffffffffffffffffffff1611905060006125bd600260009054906101000a900473ffffffffffffffffffffffffffffffffffffffff1673ffffffffffffffffffffffffffffffffffffffff16637d4f714f6040518163ffffffff1660e01b815260040160206040518083038186803b1580156125515760006000fd5b505afa158015612566573d600060003e3d6000fd5b505050506040513d601f19601f8201168201806040525081019061258a9190615031565b6fffffffffffffffffffffffffffffffff16856fffffffffffffffffffffffffffffffff166141d190919063ffffffff16565b90508161261f5780856fffffffffffffffffffffffffffffffff1611151561261a576040517f08c379a000000000000000000000000000000000000000000000000000000000815260040161261190615491565b60405180910390fd5b612676565b80866fffffffffffffffffffffffffffffffff16111515612675576040517f08c379a000000000000000000000000000000000000000000000000000000000815260040161266c906154d0565b60405180910390fd5b5b600060008480602001905181019061268e9190614b9b565b915091508173ffffffffffffffffffffffffffffffffffffffff166315373e3d82866040518363ffffffff1660e01b81526004016126cd929190615893565b600060405180830381600087803b1580156126e85760006000fd5b505af11580156126fd573d600060003e3d6000fd5b50505050831515818373ffffffffffffffffffffffffffffffffffffffff167f06faaaf1b50d921f1d5c2ff896e9ede46272459b52863cbd46c590150f4d7b0b60405160405180910390a450505050505050505b50565b600e60009054906101000a900467ffffffffffffffff1681565b600068010000000000000000821015156127f3576040517f08c379a00000000000000000000000000000000000000000000000000000000081526004018080602001828103825260118152602001807f6d6f7265207468616e203634206269747300000000000000000000000000000081526020015060200191505060405180910390fd5b8190506127fb565b919050565b6000612810612ad263ffffffff16565b9050600460149054906101000a900467ffffffffffffffff1667ffffffffffffffff168167ffffffffffffffff1611151561284b5750612ad0565b6000600460149054906101000a900467ffffffffffffffff16820390506000600760009054906101000a900461ffff1661ffff1690506000816128ae8467ffffffffffffffff166128a06123da63ffffffff16565b613a0090919063ffffffff16565b8115156128b757fe5b0490506128c26148b6565b6000600190505b838161ffff16111515612a5e576128e5816131f263ffffffff16565b91508150604051806040016040528061295861294b6129388967ffffffffffffffff16600660005060008861ffff1661ffff16815260200190815260200160002060005054613a0090919063ffffffff16565b866000015161331390919063ffffffff16565b6141f7909063ffffffff16565b6fffffffffffffffffffffffffffffffff16815260200161299661298986866020015161331390919063ffffffff16565b6141f7909063ffffffff16565b6fffffffffffffffffffffffffffffffff16815260200150600560005060008361ffff1661ffff16815260200190815260200160002060005060008201518160000160006101000a8154816fffffffffffffffffffffffffffffffff02191690836fffffffffffffffffffffffffffffffff16021790555060208201518160000160106101000a8154816fffffffffffffffffffffffffffffffff02191690836fffffffffffffffffffffffffffffffff1602179055509050505b80806001019150506128c9565b5084600460146101000a81548167ffffffffffffffff021916908367ffffffffffffffff1602179055508467ffffffffffffffff167f5df8d820031efa286b254435a169e0eda922fa20c466be6471c6deaa51dc116585604051612ac291906158ca565b60405180910390a250505050505b565b60007f00000000000000000000000000000000000000000000000000000000000000007f000000000000000000000000000000000000000000000000000000000000000067ffffffffffffffff16612b2e61429163ffffffff16565b67ffffffffffffffff16811515612b4157fe5b0403905080505b90565b801515612b8d576040517f08c379a0000000000000000000000000000000000000000000000000000000008152600401612b849061550f565b60405180910390fd5b5b50565b60006000823b905060008111915050612ba656505b919050565b612bb36148d3565b612bc2826142ac63ffffffff16565b9050805060008160000151111515612c0f576040517f08c379a0000000000000000000000000000000000000000000000000000000008152600401612c069061564a565b60405180910390fd5b612c1d61280063ffffffff16565b600460149054906101000a900467ffffffffffffffff1667ffffffffffffffff16816060015167ffffffffffffffff16101515612c5c57809050612eb8565b6000612c718260c001516131f263ffffffff16565b905060008260600151600460149054906101000a900467ffffffffffffffff160367ffffffffffffffff16612cb784604001518460000151612eec90919063ffffffff16565b811515612cc057fe5b0490506000612d0b612ce385602001518560200151612eec90919063ffffffff16565b83612cfc87600001518860a00151612ebd63ffffffff16565b61452d9092919063ffffffff16565b90506000811115612e5457600360009054906101000a900473ffffffffffffffffffffffffffffffffffffffff1673ffffffffffffffffffffffffffffffffffffffff1663449a52f8600460009054906101000a900473ffffffffffffffffffffffffffffffffffffffff1673ffffffffffffffffffffffffffffffffffffffff16636352211e886040518263ffffffff1660e01b8152600401612daf91906158ae565b60206040518083038186803b158015612dc85760006000fd5b505afa158015612ddd573d600060003e3d6000fd5b505050506040513d601f19601f82011682018060405250810190612e019190614b74565b836040518363ffffffff1660e01b8152600401612e1f929190615221565b600060405180830381600087803b158015612e3a5760006000fd5b505af1158015612e4f573d600060003e3d6000fd5b505050505b8260200151846020019090818152602001505082600001518460400190908181526020015050612e88612ad263ffffffff16565b846060019067ffffffffffffffff16908167ffffffffffffffff1681526020015050839350505050612eb8565050505b919050565b6000612edf8267ffffffffffffffff16600c8561452d9092919063ffffffff16565b9050612ee6565b92915050565b60008282840391508111151515612f6e576040517f08c379a000000000000000000000000000000000000000000000000000000000815260040180806020018281038252600d8152602001807f7375622d756e646572666c6f770000000000000000000000000000000000000081526020015060200191505060405180910390fd5b5b92915050565b600060008473ffffffffffffffffffffffffffffffffffffffff1663a9059cbb60e01b8585604051602401808373ffffffffffffffffffffffffffffffffffffffff16815260200182815260200192505050604051602081830303815290604052907bffffffffffffffffffffffffffffffffffffffffffffffffffffffff19166020820180517bffffffffffffffffffffffffffffffffffffffffffffffffffffffff83818316178352505050506040518082805190602001908083835b60208310151561305a57805182525b602082019150602081019050602083039250613034565b6001836020036101000a0380198251168184511680821785525050505050509050019150506000604051808303816000865af19150503d80600081146130bc576040519150601f19603f3d011682016040523d82523d6000602084013e6130c1565b606091505b5091509150818015613102575060008151148061310157508080602001905160208110156130ef5760006000fd5b81019080805190602001909291905050505b5b1515613179576040517f08c379a00000000000000000000000000000000000000000000000000000000081526004018080602001828103825260028152602001807f535400000000000000000000000000000000000000000000000000000000000081526020015060200191505060405180910390fd5b50505b505050565b6001600b6000506000837bffffffffffffffffffffffffffffffffffffffffffffffffffffffff19167bffffffffffffffffffffffffffffffffffffffffffffffffffffffff1916815260200190815260200160002060006101000a81548160ff0219169083151502179055505b50565b6131fa6148b6565b6000600560005060008461ffff1661ffff1681526020019081526020016000206000506040518060400160405290816000820160009054906101000a90046fffffffffffffffffffffffffffffffff166fffffffffffffffffffffffffffffffff166fffffffffffffffffffffffffffffffff1681526020016000820160109054906101000a90046fffffffffffffffffffffffffffffffff166fffffffffffffffffffffffffffffffff166fffffffffffffffffffffffffffffffff16815260200150509050604051806040016040528082600001516fffffffffffffffffffffffffffffffff16815260200182602001516fffffffffffffffffffffffffffffffff1681526020015091505061330e56505b919050565b60008282840191508110151515613395576040517f08c379a000000000000000000000000000000000000000000000000000000000815260040180806020018281038252600c8152602001807f6164642d6f766572666c6f77000000000000000000000000000000000000000081526020015060200191505060405180910390fd5b5b92915050565b6000600c6133bf61016d8467ffffffffffffffff1661462e90919063ffffffff16565b67ffffffffffffffff168115156133d257fe5b0490506133da565b919050565b60008267ffffffffffffffff1682840191508167ffffffffffffffff1610151515613475576040517f08c379a000000000000000000000000000000000000000000000000000000000815260040180806020018281038252600c8152602001807f6164642d6f766572666c6f77000000000000000000000000000000000000000081526020015060200191505060405180910390fd5b5b92915050565b6040518060e0016040528061349c83600001516141f7909063ffffffff16565b6fffffffffffffffffffffffffffffffff1681526020016134c883602001516141f7909063ffffffff16565b6fffffffffffffffffffffffffffffffff1681526020016134f483604001516146fe909063ffffffff16565b76ffffffffffffffffffffffffffffffffffffffffffffff168152602001613531836060015167ffffffffffffffff1661479f909063ffffffff16565b61ffff168152602001613559836080015167ffffffffffffffff1661479f909063ffffffff16565b61ffff1681526020018260c0015161ffff16815260200161358f8360a0015167ffffffffffffffff1661482b909063ffffffff16565b60ff16815260200150600a60005060008467ffffffffffffffff1667ffffffffffffffff16815260200190815260200160002060005060008201518160000160006101000a8154816fffffffffffffffffffffffffffffffff02191690836fffffffffffffffffffffffffffffffff16021790555060208201518160000160106101000a8154816fffffffffffffffffffffffffffffffff02191690836fffffffffffffffffffffffffffffffff16021790555060408201518160010160006101000a81548176ffffffffffffffffffffffffffffffffffffffffffffff021916908376ffffffffffffffffffffffffffffffffffffffffffffff16021790555060608201518160010160176101000a81548161ffff021916908361ffff16021790555060808201518160010160196101000a81548161ffff021916908361ffff16021790555060a082015181600101601b6101000a81548161ffff021916908361ffff16021790555060c082015181600101601d6101000a81548160ff021916908360ff1602179055509050505b5050565b600060008573ffffffffffffffffffffffffffffffffffffffff166323b872dd60e01b868686604051602401808473ffffffffffffffffffffffffffffffffffffffff1681526020018373ffffffffffffffffffffffffffffffffffffffff1681526020018281526020019350505050604051602081830303815290604052907bffffffffffffffffffffffffffffffffffffffffffffffffffffffff19166020820180517bffffffffffffffffffffffffffffffffffffffffffffffffffffffff83818316178352505050506040518082805190602001908083835b60208310151561382557805182525b6020820191506020810190506020830392506137ff565b6001836020036101000a0380198251168184511680821785525050505050509050019150506000604051808303816000865af19150503d8060008114613887576040519150601f19603f3d011682016040523d82523d6000602084013e61388c565b606091505b50915091508180156138cd57506000815114806138cc57508080602001905160208110156138ba5760006000fd5b81019080805190602001909291905050505b5b1515613944576040517f08c379a00000000000000000000000000000000000000000000000000000000081526004018080602001828103825260038152602001807f535446000000000000000000000000000000000000000000000000000000000081526020015060200191505060405180910390fd5b50505b50505050565b60008180519060200120905061395e565b919050565b60008267ffffffffffffffff1682840391508167ffffffffffffffff16111515156139f9576040517f08c379a000000000000000000000000000000000000000000000000000000000815260040180806020018281038252600d8152602001807f7375622d756e646572666c6f770000000000000000000000000000000000000081526020015060200191505060405180910390fd5b5b92915050565b60006000821480613a2057508282838502925082811515613a1d57fe5b04145b1515613a97576040517f08c379a000000000000000000000000000000000000000000000000000000000815260040180806020018281038252600c8152602001807f6d756c2d6f766572666c6f77000000000000000000000000000000000000000081526020015060200191505060405180910390fd5b5b92915050565b61ffff61ffff16600760009054906101000a900461ffff1661ffff16101515613ac75760006000fd5b6007600081819054906101000a900461ffff168092919060010191906101000a81548161ffff021916908361ffff160217905550508060096000506000600760009054906101000a900461ffff1661ffff1661ffff16815260200190815260200160002060006101000a81548173ffffffffffffffffffffffffffffffffffffffff021916908373ffffffffffffffffffffffffffffffffffffffff160217905550600760009054906101000a900461ffff16600860005060008373ffffffffffffffffffffffffffffffffffffffff1673ffffffffffffffffffffffffffffffffffffffff16815260200190815260200160002060006101000a81548161ffff021916908361ffff1602179055508073ffffffffffffffffffffffffffffffffffffffff16635c19a95c306040518263ffffffff1660e01b8152600401613c0f91906151c0565b600060405180830381600087803b158015613c2a5760006000fd5b505af1158015613c3f573d600060003e3d6000fd5b505050508073ffffffffffffffffffffffffffffffffffffffff167f784c8f4dbf0ffedd6e72c76501c545a70f8b203b30a26ce542bf92ba87c248a460405160405180910390a25b50565b6000600060006060600085111515613cd7576040517f08c379a0000000000000000000000000000000000000000000000000000000008152600401613cce9061554e565b60405180910390fd5b6000600060006000600260009054906101000a900473ffffffffffffffffffffffffffffffffffffffff1673ffffffffffffffffffffffffffffffffffffffff1663013cf08b8a6040518263ffffffff1660e01b8152600401613d3a9190615881565b60006040518083038186803b158015613d535760006000fd5b505afa158015613d68573d600060003e3d6000fd5b505050506040513d6000823e3d601f19601f82011682018060405250810190613d919190614f42565b9a509a50505050509650965050505060008465ffffffffffff16111515613ded576040517f08c379a0000000000000000000000000000000000000000000000000000000008152600401613de490615395565b60405180910390fd5b6000600260009054906101000a900473ffffffffffffffffffffffffffffffffffffffff1673ffffffffffffffffffffffffffffffffffffffff16633e4f49e68b6040518263ffffffff1660e01b8152600401613e4a9190615881565b60206040518083038186803b158015613e635760006000fd5b505afa158015613e78573d600060003e3d6000fd5b505050506040513d601f19601f82011682018060405250810190613e9c9190614f16565b905060046007811115613eab57fe5b816007811115613eb757fe5b1480613ed9575060036007811115613ecb57fe5b816007811115613ed757fe5b145b80613efa575060056007811115613eec57fe5b816007811115613ef857fe5b145b80613f1b575060076007811115613f0d57fe5b816007811115613f1957fe5b145b1515613f5c576040517f08c379a0000000000000000000000000000000000000000000000000000000008152600401613f539061560b565b60405180910390fd5b600060006000600260009054906101000a900473ffffffffffffffffffffffffffffffffffffffff1673ffffffffffffffffffffffffffffffffffffffff1663328dd9828e6040518263ffffffff1660e01b8152600401613fbd9190615881565b60006040518083038186803b158015613fd65760006000fd5b505afa158015613feb573d600060003e3d6000fd5b505050506040513d6000823e3d601f19601f820116820180604052508101906140149190614ca4565b92509250925060018351141515614060576040517f08c379a000000000000000000000000000000000000000000000000000000000815260040161405790615689565b60405180910390fd5b3073ffffffffffffffffffffffffffffffffffffffff1683600081518110151561408657fe5b602002602001015173ffffffffffffffffffffffffffffffffffffffff161415156140e6576040517f08c379a00000000000000000000000000000000000000000000000000000000081526004016140dd90615356565b60405180910390fd5b634e9568ef60e01b7bffffffffffffffffffffffffffffffffffffffffffffffffffffffff191661413283600081518110151561411f57fe5b602002602001015161394d63ffffffff16565b7bffffffffffffffffffffffffffffffffffffffffffffffffffffffff1916141515614193576040517f08c379a000000000000000000000000000000000000000000000000000000000815260040161418a906153d4565b60405180910390fd5b8686868360008151811015156141a557fe5b60200260200101519b509b509b509b5050505050505050506141ca5650505050505050505b9193509193565b60006141ec8383670de0b6b3a764000061452d63ffffffff16565b905080505b92915050565b600070010000000000000000000000000000000082101515614284576040517f08c379a00000000000000000000000000000000000000000000000000000000081526004018080602001828103825260128152602001807f6d6f7265207468616e203132382062697473000000000000000000000000000081526020015060200191505060405180910390fd5b81905061428c565b919050565b60006142a44261276e909063ffffffff16565b905080505b90565b6142b46148d3565b6000600a60005060008467ffffffffffffffff1667ffffffffffffffff1681526020019081526020016000206000506040518060e00160405290816000820160009054906101000a90046fffffffffffffffffffffffffffffffff166fffffffffffffffffffffffffffffffff166fffffffffffffffffffffffffffffffff1681526020016000820160109054906101000a90046fffffffffffffffffffffffffffffffff166fffffffffffffffffffffffffffffffff166fffffffffffffffffffffffffffffffff1681526020016001820160009054906101000a900476ffffffffffffffffffffffffffffffffffffffffffffff1676ffffffffffffffffffffffffffffffffffffffffffffff1676ffffffffffffffffffffffffffffffffffffffffffffff1681526020016001820160179054906101000a900461ffff1661ffff1661ffff1681526020016001820160199054906101000a900461ffff1661ffff1661ffff16815260200160018201601b9054906101000a900461ffff1661ffff1661ffff16815260200160018201601d9054906101000a900460ff1660ff1660ff168152602001505090506040518060e0016040528082600001516fffffffffffffffffffffffffffffffff16815260200182602001516fffffffffffffffffffffffffffffffff168152602001826040015176ffffffffffffffffffffffffffffffffffffffffffffff168152602001826060015161ffff1667ffffffffffffffff168152602001826080015161ffff1667ffffffffffffffff1681526020018260c0015160ff1667ffffffffffffffff1681526020018260a0015161ffff1681526020015091505061452856505b919050565b6000600060006000198587098587029250828110838203039150506000811415614570576000841115156145615760006000fd5b83820492508292505050614627565b808411151561457f5760006000fd5b60008486880990508281118203915080830392506000858660000316905080860495508084049350600181826000030401905080830284179350835060006002876003021890508087026002038102905080508087026002038102905080508087026002038102905080508087026002038102905080508087026002038102905080508087026002038102905080508085029550855085955050505050506146275650505050505b9392505050565b600060008267ffffffffffffffff16148061468057508267ffffffffffffffff168267ffffffffffffffff1683850292508267ffffffffffffffff1681151561467357fe5b0467ffffffffffffffff16145b15156146f7576040517f08c379a000000000000000000000000000000000000000000000000000000000815260040180806020018281038252600c8152602001807f6d756c2d6f766572666c6f77000000000000000000000000000000000000000081526020015060200191505060405180910390fd5b5b92915050565b60007701000000000000000000000000000000000000000000000082101515614792576040517f08c379a00000000000000000000000000000000000000000000000000000000081526004018080602001828103825260128152602001807f6d6f7265207468616e203138342062697473000000000000000000000000000081526020015060200191505060405180910390fd5b81905061479a565b919050565b6000620100008210151561481e576040517f08c379a00000000000000000000000000000000000000000000000000000000081526004018080602001828103825260118152602001807f6d6f7265207468616e203136206269747300000000000000000000000000000081526020015060200191505060405180910390fd5b819050614826565b919050565b6000610100821015156148a9576040517f08c379a00000000000000000000000000000000000000000000000000000000081526004018080602001828103825260108152602001807f6d6f7265207468616e203820626974730000000000000000000000000000000081526020015060200191505060405180910390fd5b8190506148b1565b919050565b604051806040016040528060008152602001600081526020015090565b6040518060e00160405280600081526020016000815260200160008152602001600067ffffffffffffffff168152602001600067ffffffffffffffff168152602001600067ffffffffffffffff168152602001600061ffff1681526020015090566159f4565b600061494c61494784615934565b6158e6565b90508281528383830111156149615760006000fd5b828260208301376000602084830101525b9392505050565b600061498c61498784615934565b6158e6565b90508281528383830111156149a15760006000fd5b6149af836020830184615979565b5b9392505050565b600082601f83011215156149c9578081fd5b815160206149de6149d983615911565b6158e6565b808382528282019150828601855b85811015614a32578151880189603f8201121515614a08578788fd5b614a198a8783015160408401614979565b855250848401935084820191505b6001810190506149ec565b5050809450505050505b92915050565b600082601f8301121515614a54578081fd5b81516020614a69614a6483615911565b6158e6565b808382528282019150828601855b85811015614aa657614a8e898684518b0101614ad3565b8452848401935084820191505b600181019050614a77565b5050809450505050505b92915050565b60008151905080151581141515614acd5760006000fd5b5b919050565b600082601f8301121515614ae5578081fd5b614af483835160208501614979565b90505b92915050565b6000815190506fffffffffffffffffffffffffffffffff811681141515614b245760006000fd5b5b919050565b60008151905065ffffffffffff811681141515614b475760006000fd5b5b919050565b600060208284031215614b5e578081fd5b8135614b69816159ae565b809150505b92915050565b600060208284031215614b85578081fd5b8151614b90816159ae565b809150505b92915050565b6000600060408385031215614bae578081fd5b8251614bb9816159ae565b80925050602083015190505b9250929050565b60006000600060608486031215614be1578081fd5b8335614bec816159ae565b80935050602084013567ffffffffffffffff80821115614c0a578283fd5b818601915086601f8301121515614c1f578283fd5b614c2e87833560208501614939565b93506040860135915080821115614c43578283fd5b50808501905085601f8201121515614c59578182fd5b614c6886823560208401614939565b9150505b9250925092565b6000600060408385031215614c86578182fd5b8235614c91816159ae565b80925050602083013590505b9250929050565b60006000600060608486031215614cb9578081fd5b835167ffffffffffffffff80821115614cd0578283fd5b818601915086601f8301121515614ce5578283fd5b81516020614cfa614cf583615911565b6158e6565b8083825282820191508286018b848587028901011115614d18578788fd5b8796505b84871015614d49578051614d2f816159ae565b80845250838301925083810190505b600187019650614d1c565b508098505050808801519350505080821115614d63578283fd5b614d6f87838801614a42565b93506040860151915080821115614d84578283fd5b50614d91868287016149b7565b9150505b9250925092565b600060208284031215614dad578081fd5b614db682614ab6565b90505b92915050565b600060208284031215614dd0578081fd5b81357fffffffff00000000000000000000000000000000000000000000000000000000811681141515614e01578182fd5b809150505b92915050565b6000600060408385031215614e1f578182fd5b8235614e2a816159ae565b80925050602083013590505b9250929050565b60006000600060608486031215614e52578081fd5b8335614e5d816159ae565b809350506020840135614e6f816159ae565b809250506040840135614e81816159ae565b809150505b9250925092565b600060208284031215614e9e578081fd5b8135614ea9816159ae565b809150505b92915050565b600060006000600060808587031215614ecb578182fd5b8435614ed6816159ae565b8094505060208501359250604085013560ff811681141515614ef6578283fd5b809250506060850135614f08816159ae565b809150505b92959194509250565b600060208284031215614f27578081fd5b8151600881101515614f37578182fd5b809150505b92915050565b600060006000600060006000600060006000600060006101608c8e031215614f68578889fd5b8b5167ffffffffffffffff811115614f7e57898afd5b614f8a8e828f01614ad3565b9b505060208c0151614f9b816159ae565b809a5050614fab60408d01614b2a565b9850614fb960608d01614b2a565b9750614fc760808d01614afd565b9650614fd560a08d01614b2a565b9550614fe360c08d01614b2a565b9450614ff160e08d01614ab6565b93506150006101008d01614ab6565b925061500f6101208d01614afd565b915061501e6101408d01614afd565b90505b9295989b509295989b9093969950565b600060208284031215615042578081fd5b61504b82614afd565b90505b92915050565b600060208284031215615065578081fd5b813561ffff811681141515615078578182fd5b809150505b92915050565b600060208284031215615094578081fd5b813590505b92915050565b6000602082840312156150b0578081fd5b815190505b92915050565b6000602082840312156150cc578081fd5b81356150d7816159d7565b809150505b92915050565b6000602082840312156150f3578081fd5b81516150fe816159d7565b809150505b92915050565b60008151808452615121816020860160208601615979565b60207fffffffffffffffffffffffffffffffffffffffffffffffffffffffffffffffe0601f8301168501019150505b92915050565b60007fffffffff00000000000000000000000000000000000000000000000000000000841682528251615190816004850160208701615979565b6004818401019150505b9392505050565b600082516151b3818460208701615979565b8083019150505b92915050565b600060208201905073ffffffffffffffffffffffffffffffffffffffff831682525b92915050565b600060408201905073ffffffffffffffffffffffffffffffffffffffff8416825267ffffffffffffffff831660208301525b9392505050565b600060408201905073ffffffffffffffffffffffffffffffffffffffff841682528260208301525b9392505050565b600060408201905073ffffffffffffffffffffffffffffffffffffffff8416825267ffffffffffffffff831660208301525b9392505050565b600060208201905082151582525b92915050565b60008315158252604060208301526152b86040830184615109565b90505b9392505050565b600060208201905073ffffffffffffffffffffffffffffffffffffffff831682525b92915050565b600060208201905073ffffffffffffffffffffffffffffffffffffffff831682525b92915050565b600060208201905073ffffffffffffffffffffffffffffffffffffffff831682525b92915050565b60006020825261534d6020830184615109565b90505b92915050565b600060208252601060208301527f496e636f7272656374207461726765740000000000000000000000000000000060408301526060820190505b919050565b600060208252601160208301527f4d6574612070726f706f73616c20444e4500000000000000000000000000000060408301526060820190505b919050565b600060208252600b60208301527f496e76616c69642073696700000000000000000000000000000000000000000060408301526060820190505b919050565b600060208252601560208301527f496e76616c6964206c6f636b206475726174696f6e000000000000000000000060408301526060820190505b919050565b600060208252601160208301527f556e737570706f7274656420746f6b656e00000000000000000000000000000060408301526060820190505b919050565b600060208252601a60208301527f496e73756666696369656e7420616761696e737420766f74657300000000000060408301526060820190505b919050565b600060208252601660208301527f496e73756666696369656e7420666f7220766f7465730000000000000000000060408301526060820190505b919050565b600060208252600e60208301527f4e6f7420417574686f72697a656400000000000000000000000000000000000060408301526060820190505b919050565b600060208252600460208301527f4e6f6f700000000000000000000000000000000000000000000000000000000060408301526060820190505b919050565b600060208252601260208301527f416374696f6e20626c61636b6c6973746564000000000000000000000000000060408301526060820190505b919050565b600060208252600c60208301527f5374696c6c206c6f636b6564000000000000000000000000000000000000000060408301526060820190505b919050565b600060208252601660208301527f496e76616c69642070726f706f73616c2073746174650000000000000000000060408301526060820190505b919050565b600060208252600c60208301527f506f736974696f6e20444e45000000000000000000000000000000000000000060408301526060820190505b919050565b600060208252601060208301527f546f6f206d616e7920616374696f6e730000000000000000000000000000000060408301526060820190505b919050565b600060208252601260208301527f416c6c6f746d656e74206578636565646564000000000000000000000000000060408301526060820190505b919050565b600060208252600e60208301527f4e6f74206120636f6e747261637400000000000000000000000000000000000060408301526060820190505b919050565b600060208252601460208301527f436f6e747261637420616c72656164792073657400000000000000000000000060408301526060820190505b919050565b600060208252601660208301527f4d6f7265207468616e203225206f6620737570706c790000000000000000000060408301526060820190505b919050565b60006040820190506fffffffffffffffffffffffffffffffff80851683528084166020840152505b9392505050565b600060e0820190506fffffffffffffffffffffffffffffffff808a16835280891660208401525076ffffffffffffffffffffffffffffffffffffffffffffff8716604083015261ffff8087166060840152808616608084015280851660a08401525060ff831660c08301525b98975050505050505050565b600060208201905061ffff831682525b92915050565b60006020820190508282525b92915050565b600060408201905083825282151560208301525b9392505050565b600060208201905067ffffffffffffffff831682525b92915050565b600060208201905067ffffffffffffffff831682525b92915050565b6000604051905081810181811067ffffffffffffffff8211171561590657fe5b80604052505b919050565b600067ffffffffffffffff82111561592557fe5b6020602083020190505b919050565b600067ffffffffffffffff82111561594857fe5b60207fffffffffffffffffffffffffffffffffffffffffffffffffffffffffffffffe0601f8401160190505b919050565b60005b838110156159985780820151818401525b60208101905061597c565b838111156159a7576000848401525b505b505050565b73ffffffffffffffffffffffffffffffffffffffff8116811415156159d35760006000fd5b5b50565b67ffffffffffffffff8116811415156159f05760006000fd5b5b50565bfea2646970667358221220ea0c64702349322de64ed6fc9bfcd2d5a7ec2dc21118bf805259db1aadda188364736f6c63430007060033",
  "linkReferences": {},
  "deployedLinkReferences": {}
}