{
  "_format": "hh-sol-artifact-1",
  "contractName": "GenesisAllocation",
  "sourceName": "contracts/core/auxiliary/GenesisAllocation.sol",
  "abi": [
    {
      "inputs": [
        {
          "internalType": "address",
          "name": "tokenMinter",
          "type": "address"
        },
        {
          "internalType": "address",
          "name": "token",
          "type": "address"
        },
        {
          "internalType": "address",
          "name": "_authenticator",
          "type": "address"
        },
        {
          "internalType": "uint64",
          "name": "_duration",
          "type": "uint64"
        }
      ],
      "stateMutability": "nonpayable",
      "type": "constructor"
    },
    {
      "anonymous": false,
      "inputs": [
        {
          "indexed": false,
          "internalType": "uint64",
          "name": "deadline",
          "type": "uint64"
        }
      ],
      "name": "DeadlineSet",
      "type": "event"
    },
    {
      "anonymous": false,
      "inputs": [
        {
          "indexed": true,
          "internalType": "address",
          "name": "dest",
          "type": "address"
        },
        {
          "indexed": false,
          "internalType": "uint256",
          "name": "count",
          "type": "uint256"
        }
      ],
      "name": "IncentiveDistributed",
      "type": "event"
    },
    {
      "anonymous": false,
      "inputs": [
        {
          "indexed": true,
          "internalType": "address",
          "name": "receiver",
          "type": "address"
        },
        {
          "indexed": false,
          "internalType": "uint128",
          "name": "count",
          "type": "uint128"
        }
      ],
      "name": "LockPositionIncreased",
      "type": "event"
    },
    {
      "anonymous": false,
      "inputs": [
        {
          "indexed": true,
          "internalType": "address",
          "name": "newGuardian",
          "type": "address"
        }
      ],
      "name": "NewGuardian",
      "type": "event"
    },
    {
      "anonymous": false,
      "inputs": [
        {
          "indexed": true,
          "internalType": "address",
          "name": "receiver",
          "type": "address"
        },
        {
          "indexed": false,
          "internalType": "uint128",
          "name": "count",
          "type": "uint128"
        }
      ],
      "name": "SignatureProcessed",
      "type": "event"
    },
    {
      "anonymous": false,
      "inputs": [
        {
          "indexed": true,
          "internalType": "address",
          "name": "receiver",
          "type": "address"
        },
        {
          "indexed": true,
          "internalType": "uint8",
          "name": "lockDurationMonths",
          "type": "uint8"
        },
        {
          "indexed": false,
          "internalType": "uint256",
          "name": "count",
          "type": "uint256"
        }
      ],
      "name": "TokensLocked",
      "type": "event"
    },
    {
      "anonymous": false,
      "inputs": [
        {
          "indexed": true,
          "internalType": "address",
          "name": "receiver",
          "type": "address"
        },
        {
          "indexed": false,
          "internalType": "uint256",
          "name": "count",
          "type": "uint256"
        }
      ],
      "name": "TokensRemoved",
      "type": "event"
    },
    {
      "inputs": [],
      "name": "NAME",
      "outputs": [
        {
          "internalType": "string",
          "name": "",
          "type": "string"
        }
      ],
      "stateMutability": "view",
      "type": "function"
    },
    {
      "inputs": [],
      "name": "abdicateTokenRemoval",
      "outputs": [],
      "stateMutability": "nonpayable",
      "type": "function"
    },
    {
      "inputs": [],
      "name": "authenticator",
      "outputs": [
        {
          "internalType": "address",
          "name": "",
          "type": "address"
        }
      ],
      "stateMutability": "view",
      "type": "function"
    },
    {
      "inputs": [],
      "name": "canRemoveTokens",
      "outputs": [
        {
          "internalType": "bool",
          "name": "",
          "type": "bool"
        }
      ],
      "stateMutability": "view",
      "type": "function"
    },
    {
      "inputs": [],
      "name": "chainID",
      "outputs": [
        {
          "internalType": "uint256",
          "name": "_chainID",
          "type": "uint256"
        }
      ],
      "stateMutability": "pure",
      "type": "function"
    },
    {
      "inputs": [
        {
          "components": [
            {
              "internalType": "uint8",
              "name": "v",
              "type": "uint8"
            },
            {
              "internalType": "bytes32",
              "name": "r",
              "type": "bytes32"
            },
            {
              "internalType": "bytes32",
              "name": "s",
              "type": "bytes32"
            }
          ],
          "internalType": "struct GenesisAllocation.Auth",
          "name": "auth",
          "type": "tuple"
        },
        {
          "internalType": "uint8",
          "name": "roundID",
          "type": "uint8"
        },
        {
          "internalType": "uint128",
          "name": "count",
          "type": "uint128"
        }
      ],
      "name": "claimAllocation",
      "outputs": [],
      "stateMutability": "nonpayable",
      "type": "function"
    },
    {
      "inputs": [
        {
          "internalType": "address",
          "name": "",
          "type": "address"
        },
        {
          "internalType": "uint8",
          "name": "",
          "type": "uint8"
        },
        {
          "internalType": "bytes32",
          "name": "",
          "type": "bytes32"
        },
        {
          "internalType": "bytes32",
          "name": "",
          "type": "bytes32"
        }
      ],
      "name": "claimedSig",
      "outputs": [
        {
          "internalType": "bool",
          "name": "",
          "type": "bool"
        }
      ],
      "stateMutability": "view",
      "type": "function"
    },
    {
      "inputs": [],
      "name": "dao",
      "outputs": [
        {
          "internalType": "contract ITokenLockDao",
          "name": "",
          "type": "address"
        }
      ],
      "stateMutability": "view",
      "type": "function"
    },
    {
      "inputs": [],
      "name": "deadline",
      "outputs": [
        {
          "internalType": "uint64",
          "name": "",
          "type": "uint64"
        }
      ],
      "stateMutability": "view",
      "type": "function"
    },
    {
      "inputs": [
        {
          "internalType": "uint64",
          "name": "newDeadline",
          "type": "uint64"
        }
      ],
      "name": "extendDeadline",
      "outputs": [],
      "stateMutability": "nonpayable",
      "type": "function"
    },
    {
      "inputs": [
        {
          "internalType": "address",
          "name": "userAddress",
          "type": "address"
        },
        {
          "internalType": "uint8",
          "name": "roundID",
          "type": "uint8"
        },
        {
          "internalType": "uint128",
          "name": "count",
          "type": "uint128"
        }
      ],
      "name": "getMessage",
      "outputs": [
        {
          "internalType": "bytes32",
          "name": "",
          "type": "bytes32"
        }
      ],
      "stateMutability": "view",
      "type": "function"
    },
    {
      "inputs": [
        {
          "internalType": "uint128",
          "name": "count",
          "type": "uint128"
        }
      ],
      "name": "getTokens",
      "outputs": [],
      "stateMutability": "nonpayable",
      "type": "function"
    },
    {
      "inputs": [],
      "name": "guardian",
      "outputs": [
        {
          "internalType": "address",
          "name": "",
          "type": "address"
        }
      ],
      "stateMutability": "view",
      "type": "function"
    },
    {
      "inputs": [
        {
          "internalType": "address",
          "name": "",
          "type": "address"
        }
      ],
      "name": "lockPositions",
      "outputs": [
        {
          "internalType": "uint128",
          "name": "totalAllocation",
          "type": "uint128"
        },
        {
          "internalType": "uint128",
          "name": "tokensAllocated",
          "type": "uint128"
        },
        {
          "internalType": "uint256",
          "name": "cumulativeTokensAllocatedxLockYears",
          "type": "uint256"
        }
      ],
      "stateMutability": "view",
      "type": "function"
    },
    {
      "inputs": [
        {
          "internalType": "uint128",
          "name": "count",
          "type": "uint128"
        },
        {
          "internalType": "uint8",
          "name": "lockDurationMonths",
          "type": "uint8"
        }
      ],
      "name": "lockTokensIntoDao",
      "outputs": [],
      "stateMutability": "nonpayable",
      "type": "function"
    },
    {
      "inputs": [],
      "name": "minAverageYearsLocked",
      "outputs": [
        {
          "internalType": "uint256",
          "name": "",
          "type": "uint256"
        }
      ],
      "stateMutability": "view",
      "type": "function"
    },
    {
      "inputs": [],
      "name": "pendingGuardian",
      "outputs": [
        {
          "internalType": "address",
          "name": "",
          "type": "address"
        }
      ],
      "stateMutability": "view",
      "type": "function"
    },
    {
      "inputs": [],
      "name": "recieveGuardianship",
      "outputs": [],
      "stateMutability": "nonpayable",
      "type": "function"
    },
    {
      "inputs": [
        {
          "internalType": "address",
          "name": "dest",
          "type": "address"
        },
        {
          "internalType": "uint256",
          "name": "count",
          "type": "uint256"
        }
      ],
      "name": "removeTokens",
      "outputs": [],
      "stateMutability": "nonpayable",
      "type": "function"
    },
    {
      "inputs": [
        {
          "internalType": "contract ITokenLockDao",
          "name": "_dao",
          "type": "address"
        }
      ],
      "name": "setDao",
      "outputs": [],
      "stateMutability": "nonpayable",
      "type": "function"
    },
    {
      "inputs": [],
      "name": "startTime",
      "outputs": [
        {
          "internalType": "uint64",
          "name": "",
          "type": "uint64"
        }
      ],
      "stateMutability": "view",
      "type": "function"
    },
    {
      "inputs": [],
      "name": "token",
      "outputs": [
        {
          "internalType": "address",
          "name": "",
          "type": "address"
        }
      ],
      "stateMutability": "view",
      "type": "function"
    },
    {
      "inputs": [],
      "name": "tokenMinter",
      "outputs": [
        {
          "internalType": "contract ITokenIncentiveMinter",
          "name": "",
          "type": "address"
        }
      ],
      "stateMutability": "view",
      "type": "function"
    },
    {
      "inputs": [
        {
          "internalType": "address",
          "name": "newGuardian",
          "type": "address"
        }
      ],
      "name": "transferGuardianship",
      "outputs": [],
      "stateMutability": "nonpayable",
      "type": "function"
    }
  ],
  "bytecode": "0x6101206040526001600460086101000a81548160ff0219169083151502179055503480156200002e5760006000fd5b50604051620035d1380380620035d1833981810160405281019062000054919062000454565b5b8383670de0b6b3a76400005b82825b8173ffffffffffffffffffffffffffffffffffffffff1660808173ffffffffffffffffffffffffffffffffffffffff1660601b815260140150508073ffffffffffffffffffffffffffffffffffffffff1660a08173ffffffffffffffffffffffffffffffffffffffff1660601b81526014015050620000e9336200019360201b60201c565b5b5050620000fc6200021b60201b60201c565b67ffffffffffffffff1660c08167ffffffffffffffff1660c01b815260080150508060e081815260200150505b5050508173ffffffffffffffffffffffffffffffffffffffff166101008173ffffffffffffffffffffffffffffffffffffffff1660601b81526014015050620001886200017c826200023d60201b60201c565b6200027c60201b60201c565b5b50505050620004df565b80600060006101000a81548173ffffffffffffffffffffffffffffffffffffffff021916908373ffffffffffffffffffffffffffffffffffffffff1602179055508073ffffffffffffffffffffffffffffffffffffffff167fb6182387b7ea948602a7e04e662a27ce251dc3dd014eacaed10dce36b41bf1a560405160405180910390a25b50565b60006200023542620002f860201b6200143017909060201c565b905080505b90565b60006200027282620002546200021b60201b60201c565b67ffffffffffffffff166200038c60201b620014c21790919060201c565b905080505b919050565b80600460006101000a81548167ffffffffffffffff021916908367ffffffffffffffff1602179055507f4f9cd54e7c3589d8772371faadbfc749621246794485e3bd944fdb91c5a3257e600460009054906101000a900467ffffffffffffffff16604051620002ec9190620004c3565b60405180910390a15b50565b600068010000000000000000821015156200037e576040517f08c379a00000000000000000000000000000000000000000000000000000000081526004018080602001828103825260118152602001807f6d6f7265207468616e203634206269747300000000000000000000000000000081526020015060200191505060405180910390fd5b81905062000387565b919050565b60008267ffffffffffffffff1682840191508167ffffffffffffffff161015151562000423576040517f08c379a000000000000000000000000000000000000000000000000000000000815260040180806020018281038252600c8152602001807f6164642d6f766572666c6f77000000000000000000000000000000000000000081526020015060200191505060405180910390fd5b5b9291505056620004de565b6000815190506001600160a01b038116811415156200044e5760006000fd5b5b919050565b6000600060006000608085870312156200046c578384fd5b62000477856200042f565b935062000487602086016200042f565b925062000497604086016200042f565b915060608501516001600160401b03811681141515620004b5578182fd5b809150505b92959194509250565b60006020820190506001600160401b03831682525b92915050565b5b60805160601c60a05160601c60c05160c01c60e0516101005160601c61308862000549600039806108495280610df65250806113c452806121b15250806110e6528061212a525080610cb0528061140e52806123a25250806113a052806124d752506130886000f3fe60806040523480156100115760006000fd5b506004361061019d5760003560e01c806378e97925116100e4578063c5c57a221161008d578063f15ef91911610067578063f15ef9191461041d578063f60d7af41461043b578063fc0c546a146104575761019d565b8063c5c57a22146103af578063cfb3647b146103e1578063d4ce8c10146103ff5761019d565b8063a3f4df7e116100be578063a3f4df7e14610343578063adc879e914610361578063bea676cd1461037f5761019d565b806378e97925146102d957806380c806b0146102f75780639cef4240146103275761019d565b80634162169f116101465780636637b882116101205780636637b882146102835780636f89dcc41461029f578063762c31ba146102bb5761019d565b80634162169f1461023d578063452a93201461025b57806356a02cf5146102795761019d565b80632335c76b116101775780632335c76b146101f757806329dcb0cf146102155780633d2ec400146102335761019d565b806308805f75146101a35780630b54d683146101bf5780631e10eeaf146101db5761019d565b60006000fd5b6101bd60048036038101906101b89190612ba8565b610475565b005b6101d960048036038101906101d49190612b74565b61063a565b005b6101f560048036038101906101f09190612a1a565b61064f565b005b6101ff610847565b60405161020c9190612cbb565b60405180910390f35b61021d61086b565b60405161022a9190612f93565b60405180910390f35b61023b610885565b005b6102456109a6565b6040516102529190612d31565b60405180910390f35b6102636109cc565b6040516102709190612cbb565b60405180910390f35b6102816109f2565b005b61029d60048036038101906102989190612adf565b610ad9565b005b6102b960048036038101906102b49190612b06565b610d23565b005b6102c36110be565b6040516102d09190612cbb565b60405180910390f35b6102e16110e4565b6040516102ee9190612f93565b60405180910390f35b610311600480360381019061030c9190612a97565b611108565b60405161031e9190612cf7565b60405180910390f35b610341600480360381019061033c91906129f3565b61118e565b005b61034b61129c565b6040516103589190612d59565b60405180910390f35b6103696112d8565b6040516103769190612f81565b60405180910390f35b61039960048036038101906103949190612a4b565b6112e1565b6040516103a69190612ce3565b60405180910390f35b6103c960048036038101906103c491906129f3565b611336565b6040516103d893929190612f4b565b60405180910390f35b6103e961139e565b6040516103f69190612d09565b60405180910390f35b6104076113c2565b6040516104149190612f81565b60405180910390f35b6104256113e6565b6040516104329190612ce3565b60405180910390f35b61045560048036038101906104509190612b51565b6113f9565b005b61045f61140c565b60405161046c9190612cbb565b60405180910390f35b600060009054906101000a900473ffffffffffffffffffffffffffffffffffffffff1673ffffffffffffffffffffffffffffffffffffffff163373ffffffffffffffffffffffffffffffffffffffff1614151561053d576040517f08c379a000000000000000000000000000000000000000000000000000000000815260040180806020018281038252600e8152602001807f4e6f7420417574686f72697a656400000000000000000000000000000000000081526020015060200191505060405180910390fd5b600460009054906101000a900467ffffffffffffffff1667ffffffffffffffff1661056c61155f63ffffffff16565b67ffffffffffffffff161015156105b8576040517f08c379a00000000000000000000000000000000000000000000000000000000081526004016105af90612e6a565b60405180910390fd5b8067ffffffffffffffff16600460009054906101000a900467ffffffffffffffff1667ffffffffffffffff16101515610626576040517f08c379a000000000000000000000000000000000000000000000000000000000815260040161061d90612e2b565b60405180910390fd5b6106358161157a63ffffffff16565b5b5b50565b61064a82826115f463ffffffff16565b5b5050565b600060009054906101000a900473ffffffffffffffffffffffffffffffffffffffff1673ffffffffffffffffffffffffffffffffffffffff163373ffffffffffffffffffffffffffffffffffffffff16141515610717576040517f08c379a000000000000000000000000000000000000000000000000000000000815260040180806020018281038252600e8152602001807f4e6f7420417574686f72697a656400000000000000000000000000000000000081526020015060200191505060405180910390fd5b61072561155f63ffffffff16565b67ffffffffffffffff16600460009054906101000a900467ffffffffffffffff1667ffffffffffffffff16101515610792576040517f08c379a000000000000000000000000000000000000000000000000000000000815260040161078990612dec565b60405180910390fd5b600460089054906101000a900460ff1615156107e3576040517f08c379a00000000000000000000000000000000000000000000000000000000081526004016107da90612ea9565b60405180910390fd5b6107f3828261164b63ffffffff16565b8173ffffffffffffffffffffffffffffffffffffffff167f079bee7f865179f632bcb69702978d375656a5decc8ca5fc5c3acc636412e35d826040516108399190612f81565b60405180910390a25b5b5050565b7f000000000000000000000000000000000000000000000000000000000000000081565b600460009054906101000a900467ffffffffffffffff1681565b600160009054906101000a900473ffffffffffffffffffffffffffffffffffffffff1673ffffffffffffffffffffffffffffffffffffffff163373ffffffffffffffffffffffffffffffffffffffff1614151561094d576040517f08c379a000000000000000000000000000000000000000000000000000000000815260040180806020018281038252600e8152602001807f4e6f7420417574686f72697a656400000000000000000000000000000000000081526020015060200191505060405180910390fd5b61097e600160009054906101000a900473ffffffffffffffffffffffffffffffffffffffff166116ae63ffffffff16565b600160006101000a81549073ffffffffffffffffffffffffffffffffffffffff02191690555b565b600260009054906101000a900473ffffffffffffffffffffffffffffffffffffffff1681565b600060009054906101000a900473ffffffffffffffffffffffffffffffffffffffff1681565b600060009054906101000a900473ffffffffffffffffffffffffffffffffffffffff1673ffffffffffffffffffffffffffffffffffffffff163373ffffffffffffffffffffffffffffffffffffffff16141515610aba576040517f08c379a000000000000000000000000000000000000000000000000000000000815260040180806020018281038252600e8152602001807f4e6f7420417574686f72697a656400000000000000000000000000000000000081526020015060200191505060405180910390fd5b6000600460086101000a81548160ff0219169083151502179055505b5b565b600060009054906101000a900473ffffffffffffffffffffffffffffffffffffffff1673ffffffffffffffffffffffffffffffffffffffff163373ffffffffffffffffffffffffffffffffffffffff16141515610ba1576040517f08c379a000000000000000000000000000000000000000000000000000000000815260040180806020018281038252600e8152602001807f4e6f7420417574686f72697a656400000000000000000000000000000000000081526020015060200191505060405180910390fd5b600073ffffffffffffffffffffffffffffffffffffffff16600260009054906101000a900473ffffffffffffffffffffffffffffffffffffffff1673ffffffffffffffffffffffffffffffffffffffff16141515610c6a576040517f08c379a000000000000000000000000000000000000000000000000000000000815260040180806020018281038252600b8152602001807f416c72656164792073657400000000000000000000000000000000000000000081526020015060200191505060405180910390fd5b80600260006101000a81548173ffffffffffffffffffffffffffffffffffffffff021916908373ffffffffffffffffffffffffffffffffffffffff160217905550610d1e7f0000000000000000000000000000000000000000000000000000000000000000600260009054906101000a900473ffffffffffffffffffffffffffffffffffffffff167fffffffffffffffffffffffffffffffffffffffffffffffffffffffffffffffff61173663ffffffff16565b5b5b50565b600460009054906101000a900467ffffffffffffffff1667ffffffffffffffff16610d5261155f63ffffffff16565b67ffffffffffffffff16101515610d9e576040517f08c379a0000000000000000000000000000000000000000000000000000000008152600401610d9590612e6a565b60405180910390fd5b6000610df2610dc2610db733868661110863ffffffff16565b61194263ffffffff16565b856000016020810190610dd59190612bdd565b8660200135600019168760400135600019166119a663ffffffff16565b90507f000000000000000000000000000000000000000000000000000000000000000073ffffffffffffffffffffffffffffffffffffffff168173ffffffffffffffffffffffffffffffffffffffff16141515610e84576040517f08c379a0000000000000000000000000000000000000000000000000000000008152600401610e7b90612ee8565b60405180910390fd5b600560005060003373ffffffffffffffffffffffffffffffffffffffff1673ffffffffffffffffffffffffffffffffffffffff1681526020019081526020016000206000506000856000016020810190610ede9190612bdd565b60ff1660ff16815260200190815260200160002060005060008560200135600019166000191660001916815260200190815260200160002060005060008560400135600019166000191660001916815260200190815260200160002060009054906101000a900460ff16151515610f8a576040517f08c379a0000000000000000000000000000000000000000000000000000000008152600401610f8190612dad565b60405180910390fd5b6001600560005060003373ffffffffffffffffffffffffffffffffffffffff1673ffffffffffffffffffffffffffffffffffffffff1681526020019081526020016000206000506000866000016020810190610fe69190612bdd565b60ff1660ff16815260200190815260200160002060005060008660200135600019166000191660001916815260200190815260200160002060005060008660400135600019166000191660001916815260200190815260200160002060006101000a81548160ff0219169083151502179055506110693383611bc163ffffffff16565b3373ffffffffffffffffffffffffffffffffffffffff167fd97029b868ed1d773b6868c2a058a6ea01aae0b499d9d269365425791444c7a2836040516110af9190612f27565b60405180910390a2505b505050565b600160009054906101000a900473ffffffffffffffffffffffffffffffffffffffff1681565b7f000000000000000000000000000000000000000000000000000000000000000081565b60006040518060400160405280601281526020017f47656e6573697320416c6c6f636174696f6e00000000000000000000000000008152602001506111516112d863ffffffff16565b3086868660405160200161116a96959493929190612c00565b604051602081830303815290604052805190602001209050611187565b9392505050565b600060009054906101000a900473ffffffffffffffffffffffffffffffffffffffff1673ffffffffffffffffffffffffffffffffffffffff163373ffffffffffffffffffffffffffffffffffffffff16141515611256576040517f08c379a000000000000000000000000000000000000000000000000000000000815260040180806020018281038252600e8152602001807f4e6f7420417574686f72697a656400000000000000000000000000000000000081526020015060200191505060405180910390fd5b80600160006101000a81548173ffffffffffffffffffffffffffffffffffffffff021916908373ffffffffffffffffffffffffffffffffffffffff1602179055505b5b50565b6040518060400160405280601281526020017f47656e6573697320416c6c6f636174696f6e000000000000000000000000000081526020015081565b60004690505b90565b600560005060205283600052604060002060005060205282600052604060002060005060205281600052604060002060005060205280600052604060002060009350935050509054906101000a900460ff1681565b60036000506020528060005260406000206000915090508060000160009054906101000a90046fffffffffffffffffffffffffffffffff16908060000160109054906101000a90046fffffffffffffffffffffffffffffffff16908060010160005054905083565b7f000000000000000000000000000000000000000000000000000000000000000081565b7f000000000000000000000000000000000000000000000000000000000000000081565b600460089054906101000a900460ff1681565b61140881611dba63ffffffff16565b5b50565b7f000000000000000000000000000000000000000000000000000000000000000081565b600068010000000000000000821015156114b5576040517f08c379a00000000000000000000000000000000000000000000000000000000081526004018080602001828103825260118152602001807f6d6f7265207468616e203634206269747300000000000000000000000000000081526020015060200191505060405180910390fd5b8190506114bd565b919050565b60008267ffffffffffffffff1682840191508167ffffffffffffffff1610151515611558576040517f08c379a000000000000000000000000000000000000000000000000000000000815260040180806020018281038252600c8152602001807f6164642d6f766572666c6f77000000000000000000000000000000000000000081526020015060200191505060405180910390fd5b5b92915050565b600061157242611430909063ffffffff16565b905080505b90565b80600460006101000a81548167ffffffffffffffff021916908367ffffffffffffffff1602179055507f4f9cd54e7c3589d8772371faadbfc749621246794485e3bd944fdb91c5a3257e600460009054906101000a900467ffffffffffffffff166040516115e89190612f93565b60405180910390a15b50565b6116238261161861160d8460ff16611dfd63ffffffff16565b611e5f63ffffffff16565b611e9563ffffffff16565b611646826fffffffffffffffffffffffffffffffff16823361235263ffffffff16565b5b5050565b61165b82826124d563ffffffff16565b8173ffffffffffffffffffffffffffffffffffffffff167faf2b23cbaeeb4ac51eb45799ad2661590f109d149e349e2c1b8a89b769c46846826040518082815260200191505060405180910390a25b5050565b80600060006101000a81548173ffffffffffffffffffffffffffffffffffffffff021916908373ffffffffffffffffffffffffffffffffffffffff1602179055508073ffffffffffffffffffffffffffffffffffffffff167fb6182387b7ea948602a7e04e662a27ce251dc3dd014eacaed10dce36b41bf1a560405160405180910390a25b50565b600060008473ffffffffffffffffffffffffffffffffffffffff1663095ea7b360e01b8585604051602401808373ffffffffffffffffffffffffffffffffffffffff16815260200182815260200192505050604051602081830303815290604052907bffffffffffffffffffffffffffffffffffffffffffffffffffffffff19166020820180517bffffffffffffffffffffffffffffffffffffffffffffffffffffffff83818316178352505050506040518082805190602001908083835b60208310151561181b57805182525b6020820191506020810190506020830392506117f5565b6001836020036101000a0380198251168184511680821785525050505050509050019150506000604051808303816000865af19150503d806000811461187d576040519150601f19603f3d011682016040523d82523d6000602084013e611882565b606091505b50915091508180156118c357506000815114806118c257508080602001905160208110156118b05760006000fd5b81019080805190602001909291905050505b5b151561193a576040517f08c379a00000000000000000000000000000000000000000000000000000000081526004018080602001828103825260028152602001807f534100000000000000000000000000000000000000000000000000000000000081526020015060200191505060405180910390fd5b50505b505050565b60008160405160200180807f19457468657265756d205369676e6564204d6573736167653a0a333200000000815260200150601c01826000191681526020019150506040516020818303038152906040528051906020012090506119a1565b919050565b60007f7fffffffffffffffffffffffffffffff5d576e7357a4501ddfe92f46681b20a08260001c11151515611a26576040517f08c379a000000000000000000000000000000000000000000000000000000000815260040180806020018281038252602281526020018061300f6022913960400191505060405180910390fd5b601b8460ff161480611a3b5750601c8460ff16145b1515611a92576040517f08c379a00000000000000000000000000000000000000000000000000000000081526004018080602001828103825260228152602001806130316022913960400191505060405180910390fd5b60006001868686866040516000815260200160405260405180856000191681526020018460ff16815260200183600019168152602001826000191681526020019450505050506020604051602081039080840390855afa158015611afb573d600060003e3d6000fd5b505050602060405103519050600073ffffffffffffffffffffffffffffffffffffffff168173ffffffffffffffffffffffffffffffffffffffff1614151515611baf576040517f08c379a00000000000000000000000000000000000000000000000000000000081526004018080602001828103825260188152602001807f45434453413a20696e76616c6964207369676e6174757265000000000000000081526020015060200191505060405180910390fd5b80915050611bb956505b949350505050565b6000816fffffffffffffffffffffffffffffffff16111515611c4e576040517f08c379a00000000000000000000000000000000000000000000000000000000081526004018080602001828103825260058152602001807f4e6f6f702e00000000000000000000000000000000000000000000000000000081526020015060200191505060405180910390fd5b611cd781600360005060008573ffffffffffffffffffffffffffffffffffffffff1673ffffffffffffffffffffffffffffffffffffffff16815260200190815260200160002060005060000160009054906101000a90046fffffffffffffffffffffffffffffffff166fffffffffffffffffffffffffffffffff1661258590919063ffffffff16565b600360005060008473ffffffffffffffffffffffffffffffffffffffff1673ffffffffffffffffffffffffffffffffffffffff16815260200190815260200160002060005060000160006101000a8154816fffffffffffffffffffffffffffffffff02191690836fffffffffffffffffffffffffffffffff1602179055508173ffffffffffffffffffffffffffffffffffffffff167f39269bcc94baba79914cd1fbb42780568649c4411ad91db4c52e1e029bde31e28260405180826fffffffffffffffffffffffffffffffff16815260200191505060405180910390a25b5050565b611dd781611dcc61155f63ffffffff16565b611e9563ffffffff16565b611df933826fffffffffffffffffffffffffffffffff1661164b63ffffffff16565b5b50565b6000600c611e3f62015180611e2761016d8667ffffffffffffffff1661263290919063ffffffff16565b67ffffffffffffffff1661263290919063ffffffff16565b67ffffffffffffffff16811515611e5257fe5b049050611e5a565b919050565b6000611e8b82611e7361155f63ffffffff16565b67ffffffffffffffff166114c290919063ffffffff16565b905080505b919050565b6000826fffffffffffffffffffffffffffffffff16111515611f22576040517f08c379a00000000000000000000000000000000000000000000000000000000081526004018080602001828103825260048152602001807f4e6f6f700000000000000000000000000000000000000000000000000000000081526020015060200191505060405180910390fd5b6000600360005060003373ffffffffffffffffffffffffffffffffffffffff1673ffffffffffffffffffffffffffffffffffffffff1681526020019081526020016000206000506040518060600160405290816000820160009054906101000a90046fffffffffffffffffffffffffffffffff166fffffffffffffffffffffffffffffffff166fffffffffffffffffffffffffffffffff1681526020016000820160109054906101000a90046fffffffffffffffffffffffffffffffff166fffffffffffffffffffffffffffffffff166fffffffffffffffffffffffffffffffff16815260200160018201600050548152602001505090506120438382602001516fffffffffffffffffffffffffffffffff1661258590919063ffffffff16565b81602001906fffffffffffffffffffffffffffffffff1690816fffffffffffffffffffffffffffffffff168152602001505080600001516fffffffffffffffffffffffffffffffff1681602001516fffffffffffffffffffffffffffffffff161115151561211c576040517f08c379a000000000000000000000000000000000000000000000000000000000815260040180806020018281038252600f8152602001807f546f6f206d616e7920746f6b656e73000000000000000000000000000000000081526020015060200191505060405180910390fd5b6121a161218e61216d6121627f00000000000000000000000000000000000000000000000000000000000000008667ffffffffffffffff1661270290919063ffffffff16565b61279f63ffffffff16565b856fffffffffffffffffffffffffffffffff166127ce90919063ffffffff16565b82604001516127f490919063ffffffff16565b81604001909081815260200150507f00000000000000000000000000000000000000000000000000000000000000006121fd82602001516fffffffffffffffffffffffffffffffff16836040015161287d90919063ffffffff16565b10151515612276576040517f08c379a000000000000000000000000000000000000000000000000000000000815260040180806020018281038252601d8152602001807f4176657261676520756e6c6f636b2074696d6520746f6f2073686f727400000081526020015060200191505060405180910390fd5b80600360005060003373ffffffffffffffffffffffffffffffffffffffff1673ffffffffffffffffffffffffffffffffffffffff16815260200190815260200160002060005060008201518160000160006101000a8154816fffffffffffffffffffffffffffffffff02191690836fffffffffffffffffffffffffffffffff16021790555060208201518160000160106101000a8154816fffffffffffffffffffffffffffffffff02191690836fffffffffffffffffffffffffffffffff160217905550604082015181600101600050909055905050505b5050565b61236230846124d563ffffffff16565b600260009054906101000a900473ffffffffffffffffffffffffffffffffffffffff1673ffffffffffffffffffffffffffffffffffffffff166327fb04747f00000000000000000000000000000000000000000000000000000000000000008585856040518563ffffffff1660e01b8152600401808573ffffffffffffffffffffffffffffffffffffffff1681526020018481526020018360ff1681526020018273ffffffffffffffffffffffffffffffffffffffff168152602001945050505050602060405180830381600087803b15801561243f5760006000fd5b505af1158015612454573d600060003e3d6000fd5b505050506040513d602081101561246b5760006000fd5b8101908080519060200190929190505050508160ff168173ffffffffffffffffffffffffffffffffffffffff167f603b80bf3fe3620c8b3029a98c48ed6d0a750f155cd9ad74e5a33637b6e27612856040518082815260200191505060405180910390a35b505050565b7f000000000000000000000000000000000000000000000000000000000000000073ffffffffffffffffffffffffffffffffffffffff16634cd7a31583836040518363ffffffff1660e01b8152600401808373ffffffffffffffffffffffffffffffffffffffff16815260200182815260200192505050600060405180830381600087803b1580156125675760006000fd5b505af115801561257c573d600060003e3d6000fd5b505050505b5050565b6000826fffffffffffffffffffffffffffffffff168284019150816fffffffffffffffffffffffffffffffff161015151561262b576040517f08c379a000000000000000000000000000000000000000000000000000000000815260040180806020018281038252600c8152602001807f6164642d6f766572666c6f77000000000000000000000000000000000000000081526020015060200191505060405180910390fd5b5b92915050565b600060008267ffffffffffffffff16148061268457508267ffffffffffffffff168267ffffffffffffffff1683850292508267ffffffffffffffff1681151561267757fe5b0467ffffffffffffffff16145b15156126fb576040517f08c379a000000000000000000000000000000000000000000000000000000000815260040180806020018281038252600c8152602001807f6d756c2d6f766572666c6f77000000000000000000000000000000000000000081526020015060200191505060405180910390fd5b5b92915050565b60008267ffffffffffffffff1682840391508167ffffffffffffffff1611151515612798576040517f08c379a000000000000000000000000000000000000000000000000000000000815260040180806020018281038252600d8152602001807f7375622d756e646572666c6f770000000000000000000000000000000000000081526020015060200191505060405180910390fd5b5b92915050565b60006127c26301e133808367ffffffffffffffff1661287d90919063ffffffff16565b90506127c9565b919050565b60006127e98383670de0b6b3a76400006128a363ffffffff16565b905080505b92915050565b60008282840191508110151515612876576040517f08c379a000000000000000000000000000000000000000000000000000000000815260040180806020018281038252600c8152602001807f6164642d6f766572666c6f77000000000000000000000000000000000000000081526020015060200191505060405180910390fd5b5b92915050565b600061289883670de0b6b3a7640000846128a363ffffffff16565b905080505b92915050565b60006000600060001985870985870292508281108382030391505060008114156128e6576000841115156128d75760006000fd5b8382049250829250505061299d565b80841115156128f55760006000fd5b600084868809905082811182039150808303925060008586600003169050808604955080840493506001818260000304019050808302841793508350600060028760030218905080870260020381029050805080870260020381029050805080870260020381029050805080870260020381029050805080870260020381029050805080870260020381029050805080850295508550859550505050505061299d5650505050505b93925050505661300d565b6000813590506fffffffffffffffffffffffffffffffff8116811415156129cf5760006000fd5b5b919050565b60008135905060ff8116811415156129ed5760006000fd5b5b919050565b600060208284031215612a04578081fd5b8135612a0f81612fe4565b809150505b92915050565b6000600060408385031215612a2d578081fd5b8235612a3881612fe4565b80925050602083013590505b9250929050565b600060006000600060808587031215612a62578182fd5b8435612a6d81612fe4565b80945050612a7d602086016129d5565b925060408501359150606085013590505b92959194509250565b60006000600060608486031215612aac578283fd5b8335612ab781612fe4565b80935050612ac7602085016129d5565b9150612ad5604085016129a8565b90505b9250925092565b600060208284031215612af0578081fd5b8135612afb81612fe4565b809150505b92915050565b60006000600083850360a0811215612b1c578384fd5b6060811215612b29578384fd5b50839250612b39606085016129d5565b9150612b47608085016129a8565b90505b9250925092565b600060208284031215612b62578081fd5b612b6b826129a8565b90505b92915050565b6000600060408385031215612b87578182fd5b612b90836129a8565b9150612b9e602084016129d5565b90505b9250929050565b600060208284031215612bb9578081fd5b813567ffffffffffffffff811681141515612bd2578182fd5b809150505b92915050565b600060208284031215612bee578081fd5b612bf7826129d5565b90505b92915050565b60008751612c12818460208c01612faf565b80830190508781527fffffffffffffffffffffffffffffffffffffffff000000000000000000000000808860601b166020830152808760601b166034830152507fff000000000000000000000000000000000000000000000000000000000000008560f81b1660488201527fffffffffffffffffffffffffffffffff000000000000000000000000000000008460801b166049820152605981019150505b979650505050505050565b600060208201905073ffffffffffffffffffffffffffffffffffffffff831682525b92915050565b600060208201905082151582525b92915050565b60006020820190508282525b92915050565b600060208201905073ffffffffffffffffffffffffffffffffffffffff831682525b92915050565b600060208201905073ffffffffffffffffffffffffffffffffffffffff831682525b92915050565b6000602082528251806020840152612d78816040850160208701612faf565b60407fffffffffffffffffffffffffffffffffffffffffffffffffffffffffffffffe0601f8301168401019150505b92915050565b600060208252600f60208301527f416c726561647920636c61696d6564000000000000000000000000000000000060408301526060820190505b919050565b600060208252601360208301527f446561646c696e65206e6f74207061737365640000000000000000000000000060408301526060820190505b919050565b600060208252600b60208301527f4d75737420657874656e6400000000000000000000000000000000000000000060408301526060820190505b919050565b600060208252600f60208301527f446561646c696e6520706173736564000000000000000000000000000000000060408301526060820190505b919050565b600060208252600960208301527f416264696361746564000000000000000000000000000000000000000000000060408301526060820190505b919050565b600060208252600b60208301527f41757468206661696c656400000000000000000000000000000000000000000060408301526060820190505b919050565b60006020820190506fffffffffffffffffffffffffffffffff831682525b92915050565b60006060820190506fffffffffffffffffffffffffffffffff80861683528085166020840152508260408301525b949350505050565b60006020820190508282525b92915050565b600060208201905067ffffffffffffffff831682525b92915050565b60005b83811015612fce5780820151818401525b602081019050612fb2565b83811115612fdd576000848401525b505b505050565b73ffffffffffffffffffffffffffffffffffffffff8116811415156130095760006000fd5b5b50565bfe45434453413a20696e76616c6964207369676e6174757265202773272076616c756545434453413a20696e76616c6964207369676e6174757265202776272076616c7565a2646970667358221220c86f8f7a3ee2b151453657668fe0c8765d99faf13205c0091deca4adb2850cc964736f6c63430007060033",
  "linkReferences": {},
  "deployedLinkReferences": {}
}