{
  "_format": "hh-sol-artifact-1",
  "contractName": "AuctionsTestable",
  "sourceName": "contracts/mocks/AuctionsTestable.sol",
  "abi": [
    {
      "anonymous": false,
      "inputs": [
        {
          "indexed": true,
          "internalType": "uint64",
          "name": "auctionID",
          "type": "uint64"
        },
        {
          "indexed": true,
          "internalType": "address",
          "name": "bidder",
          "type": "address"
        },
        {
          "indexed": false,
          "internalType": "uint256",
          "name": "bid",
          "type": "uint256"
        }
      ],
      "name": "DeficitAuctionBid",
      "type": "event"
    },
    {
      "anonymous": false,
      "inputs": [
        {
          "indexed": true,
          "internalType": "uint64",
          "name": "auctionID",
          "type": "uint64"
        },
        {
          "indexed": true,
          "internalType": "address",
          "name": "winner",
          "type": "address"
        }
      ],
      "name": "DeficitAuctionSettled",
      "type": "event"
    },
    {
      "anonymous": false,
      "inputs": [
        {
          "indexed": true,
          "internalType": "uint64",
          "name": "auctionID",
          "type": "uint64"
        },
        {
          "indexed": true,
          "internalType": "uint256",
          "name": "count",
          "type": "uint256"
        },
        {
          "indexed": false,
          "internalType": "uint64",
          "name": "maxEndTime",
          "type": "uint64"
        }
      ],
      "name": "DeficitAuctionStarted",
      "type": "event"
    },
    {
      "anonymous": false,
      "inputs": [
        {
          "indexed": true,
          "internalType": "address",
          "name": "governor",
          "type": "address"
        }
      ],
      "name": "Initialized",
      "type": "event"
    },
    {
      "anonymous": false,
      "inputs": [
        {
          "indexed": true,
          "internalType": "string",
          "name": "paramName",
          "type": "string"
        },
        {
          "indexed": false,
          "internalType": "uint256",
          "name": "value",
          "type": "uint256"
        }
      ],
      "name": "ParameterUpdated",
      "type": "event"
    },
    {
      "anonymous": false,
      "inputs": [
        {
          "indexed": true,
          "internalType": "string",
          "name": "paramName",
          "type": "string"
        },
        {
          "indexed": false,
          "internalType": "uint64",
          "name": "value",
          "type": "uint64"
        }
      ],
      "name": "ParameterUpdated64",
      "type": "event"
    },
    {
      "anonymous": false,
      "inputs": [],
      "name": "Stopped",
      "type": "event"
    },
    {
      "anonymous": false,
      "inputs": [
        {
          "indexed": true,
          "internalType": "uint64",
          "name": "auctionID",
          "type": "uint64"
        },
        {
          "indexed": true,
          "internalType": "address",
          "name": "bidder",
          "type": "address"
        },
        {
          "indexed": false,
          "internalType": "uint256",
          "name": "bid",
          "type": "uint256"
        }
      ],
      "name": "SurplusAuctionBid",
      "type": "event"
    },
    {
      "anonymous": false,
      "inputs": [
        {
          "indexed": true,
          "internalType": "uint64",
          "name": "auctionID",
          "type": "uint64"
        },
        {
          "indexed": true,
          "internalType": "address",
          "name": "winner",
          "type": "address"
        }
      ],
      "name": "SurplusAuctionSettled",
      "type": "event"
    },
    {
      "anonymous": false,
      "inputs": [
        {
          "indexed": true,
          "internalType": "uint64",
          "name": "auctionID",
          "type": "uint64"
        },
        {
          "indexed": true,
          "internalType": "uint256",
          "name": "count",
          "type": "uint256"
        },
        {
          "indexed": false,
          "internalType": "uint64",
          "name": "maxEndTime",
          "type": "uint64"
        }
      ],
      "name": "SurplusAuctionStarted",
      "type": "event"
    },
    {
      "inputs": [
        {
          "internalType": "uint256",
          "name": "amtIn",
          "type": "uint256"
        },
        {
          "internalType": "uint256",
          "name": "lotSize",
          "type": "uint256"
        }
      ],
      "name": "aggregateAuctionSize",
      "outputs": [
        {
          "internalType": "uint256",
          "name": "size",
          "type": "uint256"
        }
      ],
      "stateMutability": "view",
      "type": "function"
    },
    {
      "inputs": [
        {
          "internalType": "uint64",
          "name": "auctionID",
          "type": "uint64"
        },
        {
          "internalType": "uint128",
          "name": "bid",
          "type": "uint128"
        }
      ],
      "name": "bidDeficitAuction",
      "outputs": [],
      "stateMutability": "nonpayable",
      "type": "function"
    },
    {
      "inputs": [
        {
          "internalType": "uint64",
          "name": "auctionID",
          "type": "uint64"
        },
        {
          "internalType": "uint128",
          "name": "bid",
          "type": "uint128"
        }
      ],
      "name": "bidSurplusAuction",
      "outputs": [],
      "stateMutability": "nonpayable",
      "type": "function"
    },
    {
      "inputs": [],
      "name": "checkReservesAndStartAuctions",
      "outputs": [],
      "stateMutability": "nonpayable",
      "type": "function"
    },
    {
      "inputs": [
        {
          "internalType": "uint64",
          "name": "",
          "type": "uint64"
        }
      ],
      "name": "deficitAuction",
      "outputs": [
        {
          "internalType": "uint128",
          "name": "count",
          "type": "uint128"
        },
        {
          "internalType": "uint128",
          "name": "bid",
          "type": "uint128"
        },
        {
          "internalType": "address",
          "name": "bidder",
          "type": "address"
        },
        {
          "internalType": "uint48",
          "name": "endTime",
          "type": "uint48"
        },
        {
          "internalType": "uint48",
          "name": "maxEndTime",
          "type": "uint48"
        }
      ],
      "stateMutability": "view",
      "type": "function"
    },
    {
      "inputs": [
        {
          "internalType": "uint64",
          "name": "auctionID",
          "type": "uint64"
        }
      ],
      "name": "deficitAuctionComplete",
      "outputs": [
        {
          "internalType": "bool",
          "name": "",
          "type": "bool"
        }
      ],
      "stateMutability": "view",
      "type": "function"
    },
    {
      "inputs": [],
      "name": "deficitAuctionCount",
      "outputs": [
        {
          "internalType": "uint64",
          "name": "",
          "type": "uint64"
        }
      ],
      "stateMutability": "view",
      "type": "function"
    },
    {
      "inputs": [
        {
          "internalType": "uint64",
          "name": "id",
          "type": "uint64"
        }
      ],
      "name": "deficitAuctionExists",
      "outputs": [
        {
          "internalType": "bool",
          "name": "",
          "type": "bool"
        }
      ],
      "stateMutability": "view",
      "type": "function"
    },
    {
      "inputs": [
        {
          "internalType": "uint64",
          "name": "auctionID",
          "type": "uint64"
        }
      ],
      "name": "deficitAuctionLive",
      "outputs": [
        {
          "internalType": "bool",
          "name": "",
          "type": "bool"
        }
      ],
      "stateMutability": "view",
      "type": "function"
    },
    {
      "inputs": [],
      "name": "deployer",
      "outputs": [
        {
          "internalType": "address",
          "name": "",
          "type": "address"
        }
      ],
      "stateMutability": "view",
      "type": "function"
    },
    {
      "inputs": [],
      "name": "extensionPerBid",
      "outputs": [
        {
          "internalType": "uint64",
          "name": "",
          "type": "uint64"
        }
      ],
      "stateMutability": "view",
      "type": "function"
    },
    {
      "inputs": [
        {
          "internalType": "uint64",
          "name": "start",
          "type": "uint64"
        },
        {
          "internalType": "bool",
          "name": "surplus",
          "type": "bool"
        }
      ],
      "name": "getAllAuctions",
      "outputs": [
        {
          "components": [
            {
              "internalType": "uint128",
              "name": "count",
              "type": "uint128"
            },
            {
              "internalType": "uint128",
              "name": "bid",
              "type": "uint128"
            },
            {
              "internalType": "address",
              "name": "bidder",
              "type": "address"
            },
            {
              "internalType": "uint48",
              "name": "endTime",
              "type": "uint48"
            },
            {
              "internalType": "uint48",
              "name": "maxEndTime",
              "type": "uint48"
            }
          ],
          "internalType": "struct IAuctions.Auction[]",
          "name": "_auctions",
          "type": "tuple[]"
        },
        {
          "internalType": "uint256[]",
          "name": "_auctionIDs",
          "type": "uint256[]"
        },
        {
          "internalType": "bool[]",
          "name": "_isComplete",
          "type": "bool[]"
        }
      ],
      "stateMutability": "view",
      "type": "function"
    },
    {
      "inputs": [],
      "name": "governor",
      "outputs": [
        {
          "internalType": "contract IGovernor",
          "name": "",
          "type": "address"
        }
      ],
      "stateMutability": "view",
      "type": "function"
    },
    {
      "inputs": [],
      "name": "hueToBeBought",
      "outputs": [
        {
          "internalType": "uint256",
          "name": "",
          "type": "uint256"
        }
      ],
      "stateMutability": "view",
      "type": "function"
    },
    {
      "inputs": [],
      "name": "hueToBeSold",
      "outputs": [
        {
          "internalType": "uint256",
          "name": "",
          "type": "uint256"
        }
      ],
      "stateMutability": "view",
      "type": "function"
    },
    {
      "inputs": [
        {
          "internalType": "contract IGovernor",
          "name": "_governor",
          "type": "address"
        }
      ],
      "name": "init",
      "outputs": [],
      "stateMutability": "nonpayable",
      "type": "function"
    },
    {
      "inputs": [],
      "name": "latestAuctionCompletionTime",
      "outputs": [
        {
          "internalType": "uint64",
          "name": "",
          "type": "uint64"
        }
      ],
      "stateMutability": "view",
      "type": "function"
    },
    {
      "inputs": [],
      "name": "maxAuctionDuration",
      "outputs": [
        {
          "internalType": "uint64",
          "name": "",
          "type": "uint64"
        }
      ],
      "stateMutability": "view",
      "type": "function"
    },
    {
      "inputs": [],
      "name": "maxBatchSize",
      "outputs": [
        {
          "internalType": "uint64",
          "name": "",
          "type": "uint64"
        }
      ],
      "stateMutability": "view",
      "type": "function"
    },
    {
      "inputs": [],
      "name": "maxDeficitLotSize",
      "outputs": [
        {
          "internalType": "uint256",
          "name": "",
          "type": "uint256"
        }
      ],
      "stateMutability": "view",
      "type": "function"
    },
    {
      "inputs": [],
      "name": "maxSurplusLotSize",
      "outputs": [
        {
          "internalType": "uint256",
          "name": "",
          "type": "uint256"
        }
      ],
      "stateMutability": "view",
      "type": "function"
    },
    {
      "inputs": [],
      "name": "minAuctionDuration",
      "outputs": [
        {
          "internalType": "uint64",
          "name": "",
          "type": "uint64"
        }
      ],
      "stateMutability": "view",
      "type": "function"
    },
    {
      "inputs": [],
      "name": "minBidDelta",
      "outputs": [
        {
          "internalType": "uint256",
          "name": "",
          "type": "uint256"
        }
      ],
      "stateMutability": "view",
      "type": "function"
    },
    {
      "inputs": [],
      "name": "minLotSize",
      "outputs": [
        {
          "internalType": "uint256",
          "name": "",
          "type": "uint256"
        }
      ],
      "stateMutability": "view",
      "type": "function"
    },
    {
      "inputs": [],
      "name": "reservesBufferLowerBound",
      "outputs": [
        {
          "internalType": "uint256",
          "name": "",
          "type": "uint256"
        }
      ],
      "stateMutability": "view",
      "type": "function"
    },
    {
      "inputs": [],
      "name": "reservesBufferUpperBound",
      "outputs": [
        {
          "internalType": "uint256",
          "name": "",
          "type": "uint256"
        }
      ],
      "stateMutability": "view",
      "type": "function"
    },
    {
      "inputs": [
        {
          "internalType": "uint64",
          "name": "extension",
          "type": "uint64"
        }
      ],
      "name": "setExtensionPerBid",
      "outputs": [],
      "stateMutability": "nonpayable",
      "type": "function"
    },
    {
      "inputs": [
        {
          "internalType": "uint64",
          "name": "duration",
          "type": "uint64"
        }
      ],
      "name": "setMaxAuctionDuration",
      "outputs": [],
      "stateMutability": "nonpayable",
      "type": "function"
    },
    {
      "inputs": [
        {
          "internalType": "uint64",
          "name": "size",
          "type": "uint64"
        }
      ],
      "name": "setMaxBatchSize",
      "outputs": [],
      "stateMutability": "nonpayable",
      "type": "function"
    },
    {
      "inputs": [
        {
          "internalType": "uint256",
          "name": "size",
          "type": "uint256"
        }
      ],
      "name": "setMaxDeficitLotSize",
      "outputs": [],
      "stateMutability": "nonpayable",
      "type": "function"
    },
    {
      "inputs": [
        {
          "internalType": "uint256",
          "name": "size",
          "type": "uint256"
        }
      ],
      "name": "setMaxSurplusLotSize",
      "outputs": [],
      "stateMutability": "nonpayable",
      "type": "function"
    },
    {
      "inputs": [
        {
          "internalType": "uint64",
          "name": "duration",
          "type": "uint64"
        }
      ],
      "name": "setMinAuctionDuration",
      "outputs": [],
      "stateMutability": "nonpayable",
      "type": "function"
    },
    {
      "inputs": [
        {
          "internalType": "uint256",
          "name": "delta",
          "type": "uint256"
        }
      ],
      "name": "setMinBidDelta",
      "outputs": [],
      "stateMutability": "nonpayable",
      "type": "function"
    },
    {
      "inputs": [
        {
          "internalType": "uint256",
          "name": "size",
          "type": "uint256"
        }
      ],
      "name": "setMinLotSize",
      "outputs": [],
      "stateMutability": "nonpayable",
      "type": "function"
    },
    {
      "inputs": [
        {
          "internalType": "uint256",
          "name": "bound",
          "type": "uint256"
        }
      ],
      "name": "setReservesBufferLowerBound",
      "outputs": [],
      "stateMutability": "nonpayable",
      "type": "function"
    },
    {
      "inputs": [
        {
          "internalType": "uint256",
          "name": "bound",
          "type": "uint256"
        }
      ],
      "name": "setReservesBufferUpperBound",
      "outputs": [],
      "stateMutability": "nonpayable",
      "type": "function"
    },
    {
      "inputs": [
        {
          "internalType": "uint32",
          "name": "duration",
          "type": "uint32"
        }
      ],
      "name": "setTwapDuration",
      "outputs": [],
      "stateMutability": "nonpayable",
      "type": "function"
    },
    {
      "inputs": [
        {
          "internalType": "uint64",
          "name": "auctionID",
          "type": "uint64"
        }
      ],
      "name": "settleDeficitAuction",
      "outputs": [],
      "stateMutability": "nonpayable",
      "type": "function"
    },
    {
      "inputs": [
        {
          "internalType": "uint64",
          "name": "auctionID",
          "type": "uint64"
        }
      ],
      "name": "settleSurplusAuction",
      "outputs": [],
      "stateMutability": "nonpayable",
      "type": "function"
    },
    {
      "inputs": [],
      "name": "shouldStartAuctions",
      "outputs": [
        {
          "internalType": "uint256",
          "name": "surplusAmount",
          "type": "uint256"
        },
        {
          "internalType": "uint256",
          "name": "deficitAmount",
          "type": "uint256"
        }
      ],
      "stateMutability": "view",
      "type": "function"
    },
    {
      "inputs": [
        {
          "internalType": "uint256",
          "name": "count",
          "type": "uint256"
        },
        {
          "internalType": "bool",
          "name": "isSurplus",
          "type": "bool"
        }
      ],
      "name": "startAuction",
      "outputs": [],
      "stateMutability": "nonpayable",
      "type": "function"
    },
    {
      "inputs": [
        {
          "internalType": "uint256",
          "name": "amt",
          "type": "uint256"
        },
        {
          "internalType": "bool",
          "name": "isSurplus",
          "type": "bool"
        }
      ],
      "name": "startAuctions",
      "outputs": [],
      "stateMutability": "nonpayable",
      "type": "function"
    },
    {
      "inputs": [],
      "name": "stop",
      "outputs": [],
      "stateMutability": "nonpayable",
      "type": "function"
    },
    {
      "inputs": [],
      "name": "stopped",
      "outputs": [
        {
          "internalType": "bool",
          "name": "",
          "type": "bool"
        }
      ],
      "stateMutability": "view",
      "type": "function"
    },
    {
      "inputs": [
        {
          "internalType": "uint64",
          "name": "",
          "type": "uint64"
        }
      ],
      "name": "surplusAuction",
      "outputs": [
        {
          "internalType": "uint128",
          "name": "count",
          "type": "uint128"
        },
        {
          "internalType": "uint128",
          "name": "bid",
          "type": "uint128"
        },
        {
          "internalType": "address",
          "name": "bidder",
          "type": "address"
        },
        {
          "internalType": "uint48",
          "name": "endTime",
          "type": "uint48"
        },
        {
          "internalType": "uint48",
          "name": "maxEndTime",
          "type": "uint48"
        }
      ],
      "stateMutability": "view",
      "type": "function"
    },
    {
      "inputs": [
        {
          "internalType": "uint64",
          "name": "auctionID",
          "type": "uint64"
        }
      ],
      "name": "surplusAuctionComplete",
      "outputs": [
        {
          "internalType": "bool",
          "name": "",
          "type": "bool"
        }
      ],
      "stateMutability": "view",
      "type": "function"
    },
    {
      "inputs": [],
      "name": "surplusAuctionCount",
      "outputs": [
        {
          "internalType": "uint64",
          "name": "",
          "type": "uint64"
        }
      ],
      "stateMutability": "view",
      "type": "function"
    },
    {
      "inputs": [
        {
          "internalType": "uint64",
          "name": "id",
          "type": "uint64"
        }
      ],
      "name": "surplusAuctionExists",
      "outputs": [
        {
          "internalType": "bool",
          "name": "",
          "type": "bool"
        }
      ],
      "stateMutability": "view",
      "type": "function"
    },
    {
      "inputs": [
        {
          "internalType": "uint64",
          "name": "auctionID",
          "type": "uint64"
        }
      ],
      "name": "surplusAuctionLive",
      "outputs": [
        {
          "internalType": "bool",
          "name": "",
          "type": "bool"
        }
      ],
      "stateMutability": "view",
      "type": "function"
    },
    {
      "inputs": [],
      "name": "tcp",
      "outputs": [
        {
          "internalType": "contract ITCP",
          "name": "",
          "type": "address"
        }
      ],
      "stateMutability": "view",
      "type": "function"
    },
    {
      "inputs": [],
      "name": "twapDuration",
      "outputs": [
        {
          "internalType": "uint32",
          "name": "",
          "type": "uint32"
        }
      ],
      "stateMutability": "view",
      "type": "function"
    },
    {
      "inputs": [
        {
          "internalType": "bytes4",
          "name": "",
          "type": "bytes4"
        }
      ],
      "name": "validUpdate",
      "outputs": [
        {
          "internalType": "bool",
          "name": "",
          "type": "bool"
        }
      ],
      "stateMutability": "view",
      "type": "function"
    }
  ],
  "bytecode": "0x608060405260016006600050909055670e4b4b8af6a70000600760005090905568878678326eac900000600860005090905569043c33c1937564800000600960005090905569043c33c1937564800000600a600050909055662386f26fc10000600b60005090905566b1a2bc2ec50000600c6000509090556005600d60006101000a81548167ffffffffffffffff021916908367ffffffffffffffff160217905550610708600d60086101000a81548167ffffffffffffffff021916908367ffffffffffffffff16021790555062015180600d60106101000a81548167ffffffffffffffff021916908367ffffffffffffffff1602179055506202a300600d60186101000a81548167ffffffffffffffff021916908367ffffffffffffffff160217905550610708601060186101000a81548163ffffffff021916908363ffffffff160217905550348015620001555760006000fd5b505b33600160006101000a81548173ffffffffffffffffffffffffffffffffffffffff021916908373ffffffffffffffffffffffffffffffffffffffff1602179055505b6200019f565b6160d780620001af6000396000f3fe60806040523480156100115760006000fd5b50600436106103515760003560e01c8063597e899f116101be5780639d531857116100fa578063caa98b60116100a3578063d5f394881161007d578063d5f3948814610980578063d7abba0c1461099e578063ddf31e67146109ba578063faf95d2d146109d657610351565b8063caa98b6014610918578063cdbd373b14610948578063d005d2eb1461096457610351565b8063afea44ef116100d4578063afea44ef146108c2578063c2b6722a146108de578063c433c80a146108fc57610351565b80639d5318571461086c578063a65c030a14610888578063a958c033146108b857610351565b80637d69535111610167578063887c67d911610141578063887c67d9146107fa5780638d56248a146108165780639052537e1461083257806399e1998f1461085057610351565b80637d6953511461078c5780637eb12af7146107be57806387d2fecd146107dc57610351565b8063651cf64d11610198578063651cf64d1461071e57806375d0ef521461075257806375f12b211461076e57610351565b8063597e899f146106b257806360aad9bf146106e2578063616cb0cf1461070057610351565b806334b144751161028d57806343799227116102365780634ae8470d116102105780634ae8470d1461063c578063541348761461065857806354cccf081461067657806354f634fb1461069457610351565b806343799227146105d257806348c9581e146106025780634a2304b11461062057610351565b80633a3a63df116102675780633a3a63df1461055657806340601add146105725780634079b8fc146105a257610351565b806334b144751461050057806336fc02f41461051c57806337ca44fc1461053a57610351565b806319ab453c116102fa57806326d89545116102d457806326d895451461047257806327399e21146104905780632913daa0146104ae5780633427c4ef146104cc57610351565b806319ab453c146104195780631b8757681461043557806325df95381461045357610351565b80630fb4e2b31161032b5780630fb4e2b3146103af5780630fe86907146103cb578063113cf1ab146103e957610351565b806307da68f5146103575780630c340a24146103615780630d5cd0e11461037f57610351565b60006000fd5b61035f6109f4565b005b610369610a14565b6040516103769190615c35565b60405180910390f35b61039960048036038101906103949190615763565b610a3a565b6040516103a69190615c21565b60405180910390f35b6103c960048036038101906103c49190615763565b610a57565b005b6103d3610ade565b6040516103e09190616003565b60405180910390f35b61040360048036038101906103fe9190615545565b610ae7565b6040516104109190615c21565b60405180910390f35b610433600480360381019061042e91906155e0565b610b0c565b005b61043d610f1d565b60405161044a9190616046565b60405180910390f35b61045b610f37565b604051610469929190616015565b60405180910390f35b61047a61128a565b604051610487919061602e565b60405180910390f35b6104986112a0565b6040516104a59190616003565b60405180910390f35b6104b66112a9565b6040516104c39190616046565b60405180910390f35b6104e660048036038101906104e19190615763565b6112c3565b6040516104f7959493929190615f9d565b60405180910390f35b61051a600480360381019061051591906156a3565b611378565b005b610524611429565b6040516105319190615c5d565b60405180910390f35b610554600480360381019061054f9190615763565b61144f565b005b610570600480360381019061056b91906156a3565b611525565b005b61058c60048036038101906105879190615763565b6115a8565b6040516105999190615c21565b60405180910390f35b6105bc60048036038101906105b79190615763565b61160d565b6040516105c99190615c21565b60405180910390f35b6105ec60048036038101906105e7919061570c565b611672565b6040516105f99190616003565b60405180910390f35b61060a61168f565b6040516106179190616046565b60405180910390f35b61063a60048036038101906106359190615763565b6116a9565b005b610656600480360381019061065191906156a3565b611afe565b005b610660611b9d565b60405161066d9190616046565b60405180910390f35b61067e611bb7565b60405161068b9190616003565b60405180910390f35b61069c611bc0565b6040516106a99190616003565b60405180910390f35b6106cc60048036038101906106c79190615763565b611bc9565b6040516106d99190615c21565b60405180910390f35b6106ea611c2d565b6040516106f79190616003565b60405180910390f35b610708611c36565b6040516107159190616003565b60405180910390f35b61073860048036038101906107339190615763565b611c3f565b604051610749959493929190615f9d565b60405180910390f35b61076c60048036038101906107679190615763565b611cf4565b005b610776611dca565b6040516107839190615c21565b60405180910390f35b6107a660048036038101906107a19190615786565b611ddd565b6040516107b593929190615b47565b60405180910390f35b6107c66123d9565b6040516107d39190616046565b60405180910390f35b6107e46123f3565b6040516107f19190616003565b60405180910390f35b610814600480360381019061080f91906156a3565b6123fc565b005b610830600480360381019061082b91906156a3565b61247f565b005b61083a612502565b6040516108479190616003565b60405180910390f35b61086a600480360381019061086591906157be565b61250b565b005b610886600480360381019061088191906156db565b612bad565b005b6108a2600480360381019061089d9190615763565b612bc2565b6040516108af9190615c21565b60405180910390f35b6108c0612bdf565b005b6108dc60048036038101906108d79190615763565b612ca0565b005b6108e6612d57565b6040516108f39190616046565b60405180910390f35b61091660048036038101906109119190615732565b612d71565b005b610932600480360381019061092d9190615763565b612e0e565b60405161093f9190615c21565b60405180910390f35b610962600480360381019061095d91906156db565b612e72565b005b61097e60048036038101906109799190615763565b612e87565b005b6109886132b5565b6040516109959190615aaf565b60405180910390f35b6109b860048036038101906109b391906157be565b6132db565b005b6109d460048036038101906109cf91906156a3565b613a24565b005b6109de613aaa565b6040516109eb9190616046565b60405180910390f35b610a02613ac463ffffffff16565b610a10613b5963ffffffff16565b5b5b565b600060009054906101000a900473ffffffffffffffffffffffffffffffffffffffff1681565b6000610a4b82613ba363ffffffff16565b9050610a52565b919050565b610a65613ac463ffffffff16565b80600d60086101000a81548167ffffffffffffffff021916908367ffffffffffffffff160217905550604051610a9a906158c5565b60405180910390207f6293347933ad2997134e224ac8cd2e39908a4a22aeed9af52127b4bbf765297882604051610ad19190616046565b60405180910390a25b5b50565b600a6000505481565b600560005060205280600052604060002060009150909054906101000a900460ff1681565b600160009054906101000a900473ffffffffffffffffffffffffffffffffffffffff1673ffffffffffffffffffffffffffffffffffffffff163373ffffffffffffffffffffffffffffffffffffffff16141515610b695760006000fd5b600160159054906101000a900460ff16151515610b865760006000fd5b80600060006101000a81548173ffffffffffffffffffffffffffffffffffffffff021916908373ffffffffffffffffffffffffffffffffffffffff160217905550600060009054906101000a900473ffffffffffffffffffffffffffffffffffffffff1673ffffffffffffffffffffffffffffffffffffffff16639624e83e6040518163ffffffff1660e01b815260040160206040518083038186803b158015610c305760006000fd5b505afa158015610c45573d600060003e3d6000fd5b505050506040513d601f19601f82011682018060405250810190610c699190615592565b600260006101000a81548173ffffffffffffffffffffffffffffffffffffffff021916908373ffffffffffffffffffffffffffffffffffffffff160217905550600060009054906101000a900473ffffffffffffffffffffffffffffffffffffffff1673ffffffffffffffffffffffffffffffffffffffff1663323741746040518163ffffffff1660e01b815260040160206040518083038186803b158015610d125760006000fd5b505afa158015610d27573d600060003e3d6000fd5b505050506040513d601f19601f82011682018060405250810190610d4b9190615607565b600360006101000a81548173ffffffffffffffffffffffffffffffffffffffff021916908373ffffffffffffffffffffffffffffffffffffffff160217905550600060009054906101000a900473ffffffffffffffffffffffffffffffffffffffff1673ffffffffffffffffffffffffffffffffffffffff1663d478b0876040518163ffffffff1660e01b815260040160206040518083038186803b158015610df45760006000fd5b505afa158015610e09573d600060003e3d6000fd5b505050506040513d601f19601f82011682018060405250810190610e2d9190615655565b600460006101000a81548173ffffffffffffffffffffffffffffffffffffffff021916908373ffffffffffffffffffffffffffffffffffffffff160217905550610e7b613c1363ffffffff16565b600160149054906101000a900460ff1615610eb0576001600160156101000a81548160ff021916908315150217905550610ed6565b600160006101000a81549073ffffffffffffffffffffffffffffffffffffffff02191690555b8073ffffffffffffffffffffffffffffffffffffffff167f908408e307fc569b417f6cbec5d5a06f44a0a505ac0479b47d421a4b2fd6a1e660405160405180910390a25b50565b601060109054906101000a900467ffffffffffffffff1681565b600060003073ffffffffffffffffffffffffffffffffffffffff16600060009054906101000a900473ffffffffffffffffffffffffffffffffffffffff1673ffffffffffffffffffffffffffffffffffffffff166385aa61036040518163ffffffff1660e01b815260040160206040518083038186803b158015610fbb5760006000fd5b505afa158015610fd0573d600060003e3d6000fd5b505050506040513d601f19601f82011682018060405250810190610ff491906155b9565b73ffffffffffffffffffffffffffffffffffffffff1614151561104c576040517f08c379a000000000000000000000000000000000000000000000000000000000815260040161104390615d81565b60405180910390fd5b6000600360009054906101000a900473ffffffffffffffffffffffffffffffffffffffff1673ffffffffffffffffffffffffffffffffffffffff166375172a8b6040518163ffffffff1660e01b815260040160206040518083038186803b1580156110b75760006000fd5b505afa1580156110cc573d600060003e3d6000fd5b505050506040513d601f19601f820116820180604052508101906110f091906156bf565b90506000600260009054906101000a900473ffffffffffffffffffffffffffffffffffffffff1673ffffffffffffffffffffffffffffffffffffffff16630dca59c16040518163ffffffff1660e01b815260040160206040518083038186803b15801561115d5760006000fd5b505afa158015611172573d600060003e3d6000fd5b505050506040513d601f19601f8201168201806040525081019061119691906156bf565b905060006111b2600c60005054836140e390919063ffffffff16565b905060006111ce600b60005054846140e390919063ffffffff16565b90506000600a6111e7838561410990919063ffffffff16565b8115156111f057fe5b0490508261120c6011600050548761410990919063ffffffff16565b111561123b5780836011600050548703030196508650600860005054871015611236576000965086505b611280565b816112546012600050548761419290919063ffffffff16565b101561127f578060126000505486018303019550855060086000505486101561127e576000955085505b5b5b50505050505b9091565b601060189054906101000a900463ffffffff1681565b60116000505481565b600d60009054906101000a900467ffffffffffffffff1681565b600e6000506020528060005260406000206000915090508060000160009054906101000a90046fffffffffffffffffffffffffffffffff16908060000160109054906101000a90046fffffffffffffffffffffffffffffffff16908060010160009054906101000a900473ffffffffffffffffffffffffffffffffffffffff16908060010160149054906101000a900465ffffffffffff169080600101601a9054906101000a900465ffffffffffff16905085565b611386613ac463ffffffff16565b80600860005081909090555060086000505460001015156113a75760006000fd5b6009600050546008600050541015156113c05760006000fd5b600a600050546008600050541015156113d95760006000fd5b6040516113e590615a1c565b60405180910390207f3a64504f0bc0c335e2aecb78638a257e0351a3fe0370861fd54ee4190b9209338260405161141c9190616003565b60405180910390a25b5b50565b601360009054906101000a900473ffffffffffffffffffffffffffffffffffffffff1681565b61145d613ac463ffffffff16565b80600d60186101000a81548167ffffffffffffffff021916908367ffffffffffffffff160217905550600d60189054906101000a900467ffffffffffffffff1667ffffffffffffffff16600d60109054906101000a900467ffffffffffffffff1667ffffffffffffffff161015156114d55760006000fd5b6040516114e190615958565b60405180910390207f6293347933ad2997134e224ac8cd2e39908a4a22aeed9af52127b4bbf7652978826040516115189190616046565b60405180910390a25b5b50565b611533613ac463ffffffff16565b80600a600050819090905550600a600050546008600050541015156115585760006000fd5b60405161156490615927565b60405180910390207f3a64504f0bc0c335e2aecb78638a257e0351a3fe0370861fd54ee4190b9209338260405161159b9190616003565b60405180910390a25b5b50565b60006115b982613ba363ffffffff16565b6115c4576000611601565b6115ff600f60005060008467ffffffffffffffff1667ffffffffffffffff16815260200190815260200160002060005061421b63ffffffff16565b155b9050611608565b919050565b600061161e8261429a63ffffffff16565b611629576000611666565b611664600e60005060008467ffffffffffffffff1667ffffffffffffffff16815260200190815260200160002060005061421b63ffffffff16565b155b905061166d565b919050565b6000611684838361430a63ffffffff16565b905080505b92915050565b600d60189054906101000a900467ffffffffffffffff1681565b6116b761439363ffffffff16565b6116c561447263ffffffff16565b6116d481611bc963ffffffff16565b1515611715576040517f08c379a000000000000000000000000000000000000000000000000000000000815260040161170c90615d03565b60405180910390fd5b6000600f60005060008367ffffffffffffffff1667ffffffffffffffff1681526020019081526020016000206000506040518060a00160405290816000820160009054906101000a90046fffffffffffffffffffffffffffffffff166fffffffffffffffffffffffffffffffff166fffffffffffffffffffffffffffffffff1681526020016000820160109054906101000a90046fffffffffffffffffffffffffffffffff166fffffffffffffffffffffffffffffffff166fffffffffffffffffffffffffffffffff1681526020016001820160009054906101000a900473ffffffffffffffffffffffffffffffffffffffff1673ffffffffffffffffffffffffffffffffffffffff1673ffffffffffffffffffffffffffffffffffffffff1681526020016001820160149054906101000a900465ffffffffffff1665ffffffffffff1665ffffffffffff16815260200160018201601a9054906101000a900465ffffffffffff1665ffffffffffff1665ffffffffffff16815260200150509050600073ffffffffffffffffffffffffffffffffffffffff16816040015173ffffffffffffffffffffffffffffffffffffffff16141580156118ed5750600081602001516fffffffffffffffffffffffffffffffff16115b1561199057600060009054906101000a900473ffffffffffffffffffffffffffffffffffffffff1673ffffffffffffffffffffffffffffffffffffffff1663ef7a7cfa826040015183602001516040518363ffffffff1660e01b8152600401611957929190615ad7565b600060405180830381600087803b1580156119725760006000fd5b505af1158015611987573d600060003e3d6000fd5b505050506119ca565b6119be81600001516fffffffffffffffffffffffffffffffff1660126000505461410990919063ffffffff16565b60126000508190909055505b806040015173ffffffffffffffffffffffffffffffffffffffff168267ffffffffffffffff167fd1b34ce351dc1a4cb6c40bb878ba19a12c4c44d35e7bdbeca7b5ebe947da312f60405160405180910390a3600f60005060008367ffffffffffffffff1667ffffffffffffffff16815260200190815260200160002060006000820160006101000a8154906fffffffffffffffffffffffffffffffff02191690556000820160106101000a8154906fffffffffffffffffffffffffffffffff02191690556001820160006101000a81549073ffffffffffffffffffffffffffffffffffffffff02191690556001820160146101000a81549065ffffffffffff021916905560018201601a6101000a81549065ffffffffffff02191690555050505b5b611afa6144c763ffffffff16565b5b50565b611b0c613ac463ffffffff16565b80600c600050819090905550600c60005054600b60005054101515611b315760006000fd5b670de0b6b3a7640000600c60005054101515611b4d5760006000fd5b604051611b5990615a7e565b60405180910390207f3a64504f0bc0c335e2aecb78638a257e0351a3fe0370861fd54ee4190b92093382604051611b909190616003565b60405180910390a25b5b50565b600d60109054906101000a900467ffffffffffffffff1681565b600c6000505481565b60076000505481565b6000611bda82613ba363ffffffff16565b611be5576000611c21565b611c20600f60005060008467ffffffffffffffff1667ffffffffffffffff16815260200190815260200160002060005061421b63ffffffff16565b5b9050611c28565b919050565b60096000505481565b600b6000505481565b600f6000506020528060005260406000206000915090508060000160009054906101000a90046fffffffffffffffffffffffffffffffff16908060000160109054906101000a90046fffffffffffffffffffffffffffffffff16908060010160009054906101000a900473ffffffffffffffffffffffffffffffffffffffff16908060010160149054906101000a900465ffffffffffff169080600101601a9054906101000a900465ffffffffffff16905085565b611d02613ac463ffffffff16565b80600d60106101000a81548167ffffffffffffffff021916908367ffffffffffffffff160217905550600d60189054906101000a900467ffffffffffffffff1667ffffffffffffffff16600d60109054906101000a900467ffffffffffffffff1667ffffffffffffffff16101515611d7a5760006000fd5b604051611d86906159ba565b60405180910390207f6293347933ad2997134e224ac8cd2e39908a4a22aeed9af52127b4bbf765297882604051611dbd9190616046565b60405180910390a25b5b50565b600060149054906101000a900460ff1681565b606060606060600084611e0657601060089054906101000a900467ffffffffffffffff16611e1e565b601060009054906101000a900467ffffffffffffffff165b67ffffffffffffffff169050600060008790505b828167ffffffffffffffff161015611e895786611e5d57611e5881613ba363ffffffff16565b611e6d565b611e6c8161429a63ffffffff16565b5b15611e7b5781806001019250505b5b8080600101915050611e32565b508067ffffffffffffffff81118015611ea25760006000fd5b50604051908082528060200260200182016040528015611edc57816020015b611ec9615479565b815260200190600190039081611ec15790505b50945084508067ffffffffffffffff81118015611ef95760006000fd5b50604051908082528060200260200182016040528015611f285781602001602082028036833780820191505090505b50935083508067ffffffffffffffff81118015611f455760006000fd5b50604051908082528060200260200182016040528015611f745781602001602082028036833780820191505090505b5092508250600060008890505b838167ffffffffffffffff1610156123cd5787156121aa57611fa88161429a63ffffffff16565b1515611fb3576123c0565b600e60005060008267ffffffffffffffff1667ffffffffffffffff1681526020019081526020016000206000506040518060a00160405290816000820160009054906101000a90046fffffffffffffffffffffffffffffffff166fffffffffffffffffffffffffffffffff166fffffffffffffffffffffffffffffffff1681526020016000820160109054906101000a90046fffffffffffffffffffffffffffffffff166fffffffffffffffffffffffffffffffff166fffffffffffffffffffffffffffffffff1681526020016001820160009054906101000a900473ffffffffffffffffffffffffffffffffffffffff1673ffffffffffffffffffffffffffffffffffffffff1673ffffffffffffffffffffffffffffffffffffffff1681526020016001820160149054906101000a900465ffffffffffff1665ffffffffffff1665ffffffffffff16815260200160018201601a9054906101000a900465ffffffffffff1665ffffffffffff1665ffffffffffff1681526020015050878381518110151561213e57fe5b60200260200101819052508067ffffffffffffffff16868381518110151561216257fe5b602002602001019090818152602001505061218281612e0e63ffffffff16565b858381518110151561219057fe5b6020026020010190151590811515815260200150506123b7565b6121b981613ba363ffffffff16565b15156121c4576123c0565b600f60005060008267ffffffffffffffff1667ffffffffffffffff1681526020019081526020016000206000506040518060a00160405290816000820160009054906101000a90046fffffffffffffffffffffffffffffffff166fffffffffffffffffffffffffffffffff166fffffffffffffffffffffffffffffffff1681526020016000820160109054906101000a90046fffffffffffffffffffffffffffffffff166fffffffffffffffffffffffffffffffff166fffffffffffffffffffffffffffffffff1681526020016001820160009054906101000a900473ffffffffffffffffffffffffffffffffffffffff1673ffffffffffffffffffffffffffffffffffffffff1673ffffffffffffffffffffffffffffffffffffffff1681526020016001820160149054906101000a900465ffffffffffff1665ffffffffffff1665ffffffffffff16815260200160018201601a9054906101000a900465ffffffffffff1665ffffffffffff1665ffffffffffff1681526020015050878381518110151561234f57fe5b60200260200101819052508067ffffffffffffffff16868381518110151561237357fe5b602002602001019090818152602001505061239381611bc963ffffffff16565b85838151811015156123a157fe5b6020026020010190151590811515815260200150505b81806001019250505b8080600101915050611f81565b505050505b9250925092565b601060089054906101000a900467ffffffffffffffff1681565b60126000505481565b61240a613ac463ffffffff16565b80600b600050819090905550600c60005054600b6000505410151561242f5760006000fd5b60405161243b90615a4d565b60405180910390207f3a64504f0bc0c335e2aecb78638a257e0351a3fe0370861fd54ee4190b920933826040516124729190616003565b60405180910390a25b5b50565b61248d613ac463ffffffff16565b8060096000508190909055506009600050546008600050541015156124b25760006000fd5b6040516124be90615989565b60405180910390207f3a64504f0bc0c335e2aecb78638a257e0351a3fe0370861fd54ee4190b920933826040516124f59190616003565b60405180910390a25b5b50565b60086000505481565b61251961439363ffffffff16565b61252761447263ffffffff16565b612536826115a863ffffffff16565b1515612577576040517f08c379a000000000000000000000000000000000000000000000000000000000815260040161256e90615f3a565b60405180910390fd5b6000600f60005060008467ffffffffffffffff1667ffffffffffffffff1681526020019081526020016000206000506040518060a00160405290816000820160009054906101000a90046fffffffffffffffffffffffffffffffff166fffffffffffffffffffffffffffffffff166fffffffffffffffffffffffffffffffff1681526020016000820160109054906101000a90046fffffffffffffffffffffffffffffffff166fffffffffffffffffffffffffffffffff166fffffffffffffffffffffffffffffffff1681526020016001820160009054906101000a900473ffffffffffffffffffffffffffffffffffffffff1673ffffffffffffffffffffffffffffffffffffffff1673ffffffffffffffffffffffffffffffffffffffff1681526020016001820160149054906101000a900465ffffffffffff1665ffffffffffff1665ffffffffffff16815260200160018201601a9054906101000a900465ffffffffffff1665ffffffffffff1665ffffffffffff1681526020015050905060003390506000600073ffffffffffffffffffffffffffffffffffffffff16836040015173ffffffffffffffffffffffffffffffffffffffff16141561282a57612770600a61276285600001516fffffffffffffffffffffffffffffffff1661455b63ffffffff16565b6146b990919063ffffffff16565b846fffffffffffffffffffffffffffffffff161015156127c5576040517f08c379a00000000000000000000000000000000000000000000000000000000081526004016127bc90615e7d565b60405180910390fd5b6127f383600001516fffffffffffffffffffffffffffffffff1660126000505461410990919063ffffffff16565b6012600050819090905550600360009054906101000a900473ffffffffffffffffffffffffffffffffffffffff16905080506128b8565b61285860076000505484602001516fffffffffffffffffffffffffffffffff1661475790919063ffffffff16565b846fffffffffffffffffffffffffffffffff16111515156128ae576040517f08c379a00000000000000000000000000000000000000000000000000000000081526004016128a590615d42565b60405180910390fd5b8260400151905080505b81836040019073ffffffffffffffffffffffffffffffffffffffff16908173ffffffffffffffffffffffffffffffffffffffff16815260200150508383602001906fffffffffffffffffffffffffffffffff1690816fffffffffffffffffffffffffffffffff16815260200150506000612967612950600d60089054906101000a900467ffffffffffffffff1661477d63ffffffff16565b67ffffffffffffffff166147b3909063ffffffff16565b90508065ffffffffffff16846060015165ffffffffffff1610156129a55780846060019065ffffffffffff16908165ffffffffffff16815260200150505b83600f60005060008867ffffffffffffffff1667ffffffffffffffff16815260200190815260200160002060005060008201518160000160006101000a8154816fffffffffffffffffffffffffffffffff02191690836fffffffffffffffffffffffffffffffff16021790555060208201518160000160106101000a8154816fffffffffffffffffffffffffffffffff02191690836fffffffffffffffffffffffffffffffff16021790555060408201518160010160006101000a81548173ffffffffffffffffffffffffffffffffffffffff021916908373ffffffffffffffffffffffffffffffffffffffff16021790555060608201518160010160146101000a81548165ffffffffffff021916908365ffffffffffff160217905550608082015181600101601a6101000a81548165ffffffffffff021916908365ffffffffffff160217905550905050612b3b600360009054906101000a900473ffffffffffffffffffffffffffffffffffffffff16848487600001516fffffffffffffffffffffffffffffffff1661484363ffffffff16565b8273ffffffffffffffffffffffffffffffffffffffff168667ffffffffffffffff167f3e40664282966c0a42567d60514e22e8d06206cbcaa7d79f53dc8fcd8c72424687604051612b8c9190615f79565b60405180910390a3505050505b5b612ba86144c763ffffffff16565b5b5050565b612bbd8282614a6e63ffffffff16565b5b5050565b6000612bd38261429a63ffffffff16565b9050612bda565b919050565b612bed61439363ffffffff16565b612bfb614fbc63ffffffff16565b60006000612c0d610f3763ffffffff16565b915091506000821115612c3057612c2b8260016150b163ffffffff16565b612c8b565b6000811115612c4f57612c4a8160006150b163ffffffff16565b612c8a565b6040517f08c379a0000000000000000000000000000000000000000000000000000000008152600401612c8190615efb565b60405180910390fd5b5b50505b5b612c9d6144c763ffffffff16565b5b565b612cae613ac463ffffffff16565b80600d60006101000a81548167ffffffffffffffff021916908367ffffffffffffffff1602179055506000600d60009054906101000a900467ffffffffffffffff1667ffffffffffffffff16111515612d075760006000fd5b604051612d1390615894565b60405180910390207f6293347933ad2997134e224ac8cd2e39908a4a22aeed9af52127b4bbf765297882604051612d4a9190616046565b60405180910390a25b5b50565b601060009054906101000a900467ffffffffffffffff1681565b612d7f613ac463ffffffff16565b61012c8163ffffffff1610151515612d975760006000fd5b80601060186101000a81548163ffffffff021916908363ffffffff160217905550604051612dc4906158f6565b60405180910390207f6293347933ad2997134e224ac8cd2e39908a4a22aeed9af52127b4bbf76529788263ffffffff16604051612e019190616046565b60405180910390a25b5b50565b6000612e1f8261429a63ffffffff16565b612e2a576000612e66565b612e65600e60005060008467ffffffffffffffff1667ffffffffffffffff16815260200190815260200160002060005061421b63ffffffff16565b5b9050612e6d565b919050565b612e8282826150b163ffffffff16565b5b5050565b612e9561439363ffffffff16565b612ea361447263ffffffff16565b612eb281612e0e63ffffffff16565b1515612ef3576040517f08c379a0000000000000000000000000000000000000000000000000000000008152600401612eea90615d03565b60405180910390fd5b6000600e60005060008367ffffffffffffffff1667ffffffffffffffff1681526020019081526020016000206000506040518060a00160405290816000820160009054906101000a90046fffffffffffffffffffffffffffffffff166fffffffffffffffffffffffffffffffff166fffffffffffffffffffffffffffffffff1681526020016000820160109054906101000a90046fffffffffffffffffffffffffffffffff166fffffffffffffffffffffffffffffffff166fffffffffffffffffffffffffffffffff1681526020016001820160009054906101000a900473ffffffffffffffffffffffffffffffffffffffff1673ffffffffffffffffffffffffffffffffffffffff1673ffffffffffffffffffffffffffffffffffffffff1681526020016001820160149054906101000a900465ffffffffffff1665ffffffffffff1665ffffffffffff16815260200160018201601a9054906101000a900465ffffffffffff1665ffffffffffff1665ffffffffffff168152602001505090506130a281600001516fffffffffffffffffffffffffffffffff1660116000505461410990919063ffffffff16565b6011600050819090905550600073ffffffffffffffffffffffffffffffffffffffff16816040015173ffffffffffffffffffffffffffffffffffffffff1614151561318157600360009054906101000a900473ffffffffffffffffffffffffffffffffffffffff1673ffffffffffffffffffffffffffffffffffffffff166316f9428f826040015183600001516040518363ffffffff1660e01b815260040161314c929190615ad7565b600060405180830381600087803b1580156131675760006000fd5b505af115801561317c573d600060003e3d6000fd5b505050505b806040015173ffffffffffffffffffffffffffffffffffffffff168267ffffffffffffffff167f596e5ff4197d4a01b2406d4c0717653cbc9166cf6ab2bdf78272eb99d191a09360405160405180910390a3600e60005060008367ffffffffffffffff1667ffffffffffffffff16815260200190815260200160002060006000820160006101000a8154906fffffffffffffffffffffffffffffffff02191690556000820160106101000a8154906fffffffffffffffffffffffffffffffff02191690556001820160006101000a81549073ffffffffffffffffffffffffffffffffffffffff02191690556001820160146101000a81549065ffffffffffff021916905560018201601a6101000a81549065ffffffffffff02191690555050505b5b6132b16144c763ffffffff16565b5b50565b600160009054906101000a900473ffffffffffffffffffffffffffffffffffffffff1681565b6132e961439363ffffffff16565b6132f761447263ffffffff16565b6133068261160d63ffffffff16565b1515613347576040517f08c379a000000000000000000000000000000000000000000000000000000000815260040161333e90615f3a565b60405180910390fd5b60003390506000600e60005060008567ffffffffffffffff1667ffffffffffffffff1681526020019081526020016000206000506040518060a00160405290816000820160009054906101000a90046fffffffffffffffffffffffffffffffff166fffffffffffffffffffffffffffffffff166fffffffffffffffffffffffffffffffff1681526020016000820160109054906101000a90046fffffffffffffffffffffffffffffffff166fffffffffffffffffffffffffffffffff166fffffffffffffffffffffffffffffffff1681526020016001820160009054906101000a900473ffffffffffffffffffffffffffffffffffffffff1673ffffffffffffffffffffffffffffffffffffffff1673ffffffffffffffffffffffffffffffffffffffff1681526020016001820160149054906101000a900465ffffffffffff1665ffffffffffff1665ffffffffffff16815260200160018201601a9054906101000a900465ffffffffffff1665ffffffffffff1665ffffffffffff16815260200150509050600060006000600073ffffffffffffffffffffffffffffffffffffffff16846040015173ffffffffffffffffffffffffffffffffffffffff1614156135ae57600a61353385600001516fffffffffffffffffffffffffffffffff1661455b63ffffffff16565b81151561353c57fe5b04866fffffffffffffffffffffffffffffffff16111515613592576040517f08c379a000000000000000000000000000000000000000000000000000000000815260040161358990615cc4565b60405180910390fd5b856fffffffffffffffffffffffffffffffff1692508250613684565b6135dc60076000505485602001516fffffffffffffffffffffffffffffffff166140e390919063ffffffff16565b866fffffffffffffffffffffffffffffffff1610151515613632576040517f08c379a000000000000000000000000000000000000000000000000000000000815260040161362990615dc0565b60405180910390fd5b83602001519150815083604001519050805061367f84602001516fffffffffffffffffffffffffffffffff16876fffffffffffffffffffffffffffffffff1661410990919063ffffffff16565b925082505b84846040019073ffffffffffffffffffffffffffffffffffffffff16908173ffffffffffffffffffffffffffffffffffffffff16815260200150508584602001906fffffffffffffffffffffffffffffffff1690816fffffffffffffffffffffffffffffffff1681526020015050600061373361371c600d60089054906101000a900467ffffffffffffffff1661477d63ffffffff16565b67ffffffffffffffff166147b3909063ffffffff16565b90508065ffffffffffff16856060015165ffffffffffff1610156137715780856060019065ffffffffffff16908165ffffffffffff16815260200150505b84600e60005060008a67ffffffffffffffff1667ffffffffffffffff16815260200190815260200160002060005060008201518160000160006101000a8154816fffffffffffffffffffffffffffffffff02191690836fffffffffffffffffffffffffffffffff16021790555060208201518160000160106101000a8154816fffffffffffffffffffffffffffffffff02191690836fffffffffffffffffffffffffffffffff16021790555060408201518160010160006101000a81548173ffffffffffffffffffffffffffffffffffffffff021916908373ffffffffffffffffffffffffffffffffffffffff16021790555060608201518160010160146101000a81548165ffffffffffff021916908365ffffffffffff160217905550608082015181600101601a6101000a81548165ffffffffffff021916908365ffffffffffff1602179055509050506000836fffffffffffffffffffffffffffffffff16111561391f5761391e601360009054906101000a900473ffffffffffffffffffffffffffffffffffffffff168784866fffffffffffffffffffffffffffffffff1661484363ffffffff16565b5b601360009054906101000a900473ffffffffffffffffffffffffffffffffffffffff1673ffffffffffffffffffffffffffffffffffffffff166379cc679087866040518363ffffffff1660e01b815260040161397c929190615b18565b600060405180830381600087803b1580156139975760006000fd5b505af11580156139ac573d600060003e3d6000fd5b505050508573ffffffffffffffffffffffffffffffffffffffff168867ffffffffffffffff167fd428196c29fb7877242c66ff296d926b10a5051d369acf8fe5eb3ea21bb6ec9889604051613a019190615f79565b60405180910390a35050505050505b5b613a1f6144c763ffffffff16565b5b5050565b613a32613ac463ffffffff16565b806007600050819090905550670de0b6b3a7640000600760005054111515613a5a5760006000fd5b604051613a66906159eb565b60405180910390207f3a64504f0bc0c335e2aecb78638a257e0351a3fe0370861fd54ee4190b92093382604051613a9d9190616003565b60405180910390a25b5b50565b600d60089054906101000a900467ffffffffffffffff1681565b600060009054906101000a900473ffffffffffffffffffffffffffffffffffffffff1673ffffffffffffffffffffffffffffffffffffffff163373ffffffffffffffffffffffffffffffffffffffff16141515613b56576040517f08c379a0000000000000000000000000000000000000000000000000000000008152600401613b4d90615dff565b60405180910390fd5b5b565b6001600060146101000a81548160ff0219169083151502179055507f7acc84e34091ae817647a4c49116f5cc07f319078ba80f8f5fde37ea7e25cbd660405160405180910390a15b565b60006000600f60005060008467ffffffffffffffff1667ffffffffffffffff16815260200190815260200160002060005060000160009054906101000a90046fffffffffffffffffffffffffffffffff166fffffffffffffffffffffffffffffffff16119050613c0e565b919050565b600060009054906101000a900473ffffffffffffffffffffffffffffffffffffffff1673ffffffffffffffffffffffffffffffffffffffff166336fc02f46040518163ffffffff1660e01b815260040160206040518083038186803b158015613c7c5760006000fd5b505afa158015613c91573d600060003e3d6000fd5b505050506040513d601f19601f82011682018060405250810190613cb5919061567c565b601360006101000a81548173ffffffffffffffffffffffffffffffffffffffff021916908373ffffffffffffffffffffffffffffffffffffffff160217905550600060405180610160016040528063ddf31e6760e01b7bffffffffffffffffffffffffffffffffffffffffffffffffffffffff19167bffffffffffffffffffffffffffffffffffffffffffffffffffffffff191681526020016334b1447560e01b7bffffffffffffffffffffffffffffffffffffffffffffffffffffffff19167bffffffffffffffffffffffffffffffffffffffffffffffffffffffff19168152602001638d56248a60e01b7bffffffffffffffffffffffffffffffffffffffffffffffffffffffff19167bffffffffffffffffffffffffffffffffffffffffffffffffffffffff19168152602001633a3a63df60e01b7bffffffffffffffffffffffffffffffffffffffffffffffffffffffff19167bffffffffffffffffffffffffffffffffffffffffffffffffffffffff1916815260200163887c67d960e01b7bffffffffffffffffffffffffffffffffffffffffffffffffffffffff19167bffffffffffffffffffffffffffffffffffffffffffffffffffffffff19168152602001634ae8470d60e01b7bffffffffffffffffffffffffffffffffffffffffffffffffffffffff19167bffffffffffffffffffffffffffffffffffffffffffffffffffffffff1916815260200163afea44ef60e01b7bffffffffffffffffffffffffffffffffffffffffffffffffffffffff19167bffffffffffffffffffffffffffffffffffffffffffffffffffffffff19168152602001630fb4e2b360e01b7bffffffffffffffffffffffffffffffffffffffffffffffffffffffff19167bffffffffffffffffffffffffffffffffffffffffffffffffffffffff191681526020016375d0ef5260e01b7bffffffffffffffffffffffffffffffffffffffffffffffffffffffff19167bffffffffffffffffffffffffffffffffffffffffffffffffffffffff191681526020016337ca44fc60e01b7bffffffffffffffffffffffffffffffffffffffffffffffffffffffff19167bffffffffffffffffffffffffffffffffffffffffffffffffffffffff1916815260200163c433c80a60e01b7bffffffffffffffffffffffffffffffffffffffffffffffffffffffff19167bffffffffffffffffffffffffffffffffffffffffffffffffffffffff191681526020015090506000600090505b8150600b8110156140de576001600560005060008484600b8110151561406857fe5b60200201517bffffffffffffffffffffffffffffffffffffffffffffffffffffffff19167bffffffffffffffffffffffffffffffffffffffffffffffffffffffff1916815260200190815260200160002060006101000a81548160ff0219169083151502179055505b8080600101915050614046565b50505b565b60006140fe8383670de0b6b3a764000061517663ffffffff16565b905080505b92915050565b6000828284039150811115151561418b576040517f08c379a000000000000000000000000000000000000000000000000000000000815260040180806020018281038252600d8152602001807f7375622d756e646572666c6f770000000000000000000000000000000000000081526020015060200191505060405180910390fd5b5b92915050565b60008282840191508110151515614214576040517f08c379a000000000000000000000000000000000000000000000000000000000815260040180806020018281038252600c8152602001807f6164642d6f766572666c6f77000000000000000000000000000000000000000081526020015060200191505060405180910390fd5b5b92915050565b6000600061422d61527763ffffffff16565b90508067ffffffffffffffff168360010160149054906101000a900465ffffffffffff1665ffffffffffff16108061428c57508067ffffffffffffffff1683600101601a9054906101000a900465ffffffffffff1665ffffffffffff16105b91505061429556505b919050565b60006000600e60005060008467ffffffffffffffff1667ffffffffffffffff16815260200190815260200160002060005060000160009054906101000a90046fffffffffffffffffffffffffffffffff166fffffffffffffffffffffffffffffffff16119050614305565b919050565b60006000614341600d60009054906101000a900467ffffffffffffffff1667ffffffffffffffff16846146b990919063ffffffff16565b90506000838581151561435057fe5b06905060006008600050548210614367578561436b565b8186035b9050614380818461529290919063ffffffff16565b935050505061438d565050505b92915050565b600460009054906101000a900473ffffffffffffffffffffffffffffffffffffffff1673ffffffffffffffffffffffffffffffffffffffff1663e97dcb626040518163ffffffff1660e01b8152600401600060405180830381600087803b1580156143fe5760006000fd5b505af1158015614413573d600060003e3d6000fd5b50505050600260066000505414151515614462576040517f08c379a000000000000000000000000000000000000000000000000000000000815260040161445990615e3e565b60405180910390fd5b600260066000508190909055505b565b600060149054906101000a900460ff161515156144c4576040517f08c379a00000000000000000000000000000000000000000000000000000000081526004016144bb90615ebc565b60405180910390fd5b5b565b60016006600050819090905550600460009054906101000a900473ffffffffffffffffffffffffffffffffffffffff1673ffffffffffffffffffffffffffffffffffffffff1663e9fad8ee6040518163ffffffff1660e01b8152600401600060405180830381600087803b15801561453f5760006000fd5b505af1158015614554573d600060003e3d6000fd5b505050505b565b60006146ad600060009054906101000a900473ffffffffffffffffffffffffffffffffffffffff1673ffffffffffffffffffffffffffffffffffffffff1663d3419bf36040518163ffffffff1660e01b815260040160206040518083038186803b1580156145c95760006000fd5b505afa1580156145de573d600060003e3d6000fd5b505050506040513d601f19601f82011682018060405250810190614602919061562e565b73ffffffffffffffffffffffffffffffffffffffff16638d02a08a601060189054906101000a900463ffffffff166040518263ffffffff1660e01b815260040161464c919061602e565b60206040518083038186803b1580156146655760006000fd5b505afa15801561467a573d600060003e3d6000fd5b505050506040513d601f19601f8201168201806040525081019061469e91906156bf565b8361475790919063ffffffff16565b90506146b4565b919050565b600060008214806146d9575082828385029250828115156146d657fe5b04145b1515614750576040517f08c379a000000000000000000000000000000000000000000000000000000000815260040180806020018281038252600c8152602001807f6d756c2d6f766572666c6f77000000000000000000000000000000000000000081526020015060200191505060405180910390fd5b5b92915050565b600061477283670de0b6b3a76400008461517663ffffffff16565b905080505b92915050565b60006147a98261479161527763ffffffff16565b67ffffffffffffffff166152b090919063ffffffff16565b905080505b919050565b6000660100000000000082101515614836576040517f08c379a00000000000000000000000000000000000000000000000000000000081526004018080602001828103825260118152602001807f6d6f7265207468616e203438206269747300000000000000000000000000000081526020015060200191505060405180910390fd5b81905061483e565b919050565b600060008573ffffffffffffffffffffffffffffffffffffffff166323b872dd60e01b868686604051602401808473ffffffffffffffffffffffffffffffffffffffff1681526020018373ffffffffffffffffffffffffffffffffffffffff1681526020018281526020019350505050604051602081830303815290604052907bffffffffffffffffffffffffffffffffffffffffffffffffffffffff19166020820180517bffffffffffffffffffffffffffffffffffffffffffffffffffffffff83818316178352505050506040518082805190602001908083835b60208310151561494657805182525b602082019150602081019050602083039250614920565b6001836020036101000a0380198251168184511680821785525050505050509050019150506000604051808303816000865af19150503d80600081146149a8576040519150601f19603f3d011682016040523d82523d6000602084013e6149ad565b606091505b50915091508180156149ee57506000815114806149ed57508080602001905160208110156149db5760006000fd5b81019080805190602001909291905050505b5b1515614a65576040517f08c379a00000000000000000000000000000000000000000000000000000000081526004018080602001828103825260038152602001807f535446000000000000000000000000000000000000000000000000000000000081526020015060200191505060405180910390fd5b50505b50505050565b6000614a95600d60189054906101000a900467ffffffffffffffff1661477d63ffffffff16565b90508067ffffffffffffffff16601060109054906101000a900467ffffffffffffffff1667ffffffffffffffff161015614af35780601060106101000a81548167ffffffffffffffff021916908367ffffffffffffffff1602179055505b60006040518060a00160405280614b118661534d909063ffffffff16565b6fffffffffffffffffffffffffffffffff16815260200160006fffffffffffffffffffffffffffffffff168152602001600073ffffffffffffffffffffffffffffffffffffffff168152602001614b9d614b86600d60109054906101000a900467ffffffffffffffff1661477d63ffffffff16565b67ffffffffffffffff166147b3909063ffffffff16565b65ffffffffffff168152602001614bc58467ffffffffffffffff166147b3909063ffffffff16565b65ffffffffffff1681526020015090508215614dca5780600e6000506000601060009054906101000a900467ffffffffffffffff1667ffffffffffffffff1667ffffffffffffffff16815260200190815260200160002060005060008201518160000160006101000a8154816fffffffffffffffffffffffffffffffff02191690836fffffffffffffffffffffffffffffffff16021790555060208201518160000160106101000a8154816fffffffffffffffffffffffffffffffff02191690836fffffffffffffffffffffffffffffffff16021790555060408201518160010160006101000a81548173ffffffffffffffffffffffffffffffffffffffff021916908373ffffffffffffffffffffffffffffffffffffffff16021790555060608201518160010160146101000a81548165ffffffffffff021916908365ffffffffffff160217905550608082015181600101601a6101000a81548165ffffffffffff021916908365ffffffffffff160217905550905050836010600081819054906101000a900467ffffffffffffffff168092919060010191906101000a81548167ffffffffffffffff021916908367ffffffffffffffff16021790555067ffffffffffffffff167fb706108f90fb9e0fadc5f3feaa02b4c23b9d569ad7b46408c64eb4f224eba7cd84604051614dbd9190616046565b60405180910390a3614fb5565b80600f6000506000601060089054906101000a900467ffffffffffffffff1667ffffffffffffffff1667ffffffffffffffff16815260200190815260200160002060005060008201518160000160006101000a8154816fffffffffffffffffffffffffffffffff02191690836fffffffffffffffffffffffffffffffff16021790555060208201518160000160106101000a8154816fffffffffffffffffffffffffffffffff02191690836fffffffffffffffffffffffffffffffff16021790555060408201518160010160006101000a81548173ffffffffffffffffffffffffffffffffffffffff021916908373ffffffffffffffffffffffffffffffffffffffff16021790555060608201518160010160146101000a81548165ffffffffffff021916908365ffffffffffff160217905550608082015181600101601a6101000a81548165ffffffffffff021916908365ffffffffffff160217905550905050836010600881819054906101000a900467ffffffffffffffff168092919060010191906101000a81548167ffffffffffffffff021916908367ffffffffffffffff16021790555067ffffffffffffffff167f4e673c0fa7786d8c4c1cba0d1678d726ef2cb772cc6abbe3cea73c1a6d9a681e84604051614fac9190616046565b60405180910390a35b50505b5050565b614fca61447263ffffffff16565b600060009054906101000a900473ffffffffffffffffffffffffffffffffffffffff1673ffffffffffffffffffffffffffffffffffffffff1663bf86d6906040518163ffffffff1660e01b815260040160206040518083038186803b1580156150335760006000fd5b505afa158015615048573d600060003e3d6000fd5b505050506040513d601f19601f8201168201806040525081019061506c919061551e565b1515156150ae576040517f08c379a00000000000000000000000000000000000000000000000000000000081526004016150a590615c85565b60405180910390fd5b5b565b6000816150c357600a600050546150ca565b6009600050545b90506150dc838261430a63ffffffff16565b92508250811561510e576150fe8360116000505461419290919063ffffffff16565b6011600050819090905550615132565b6151268360126000505461419290919063ffffffff16565b60126000508190909055505b60005b615148828561529290919063ffffffff16565b9050805061515c8184614a6e63ffffffff16565b808403935083505b600084111515615135575b50505b5050565b60006000600060001985870985870292508281108382030391505060008114156151b9576000841115156151aa5760006000fd5b83820492508292505050615270565b80841115156151c85760006000fd5b60008486880990508281118203915080830392506000858660000316905080860495508084049350600181826000030401905080830284179350835060006002876003021890508087026002038102905080508087026002038102905080508087026002038102905080508087026002038102905080508087026002038102905080508087026002038102905080508085029550855085955050505050506152705650505050505b9392505050565b600061528a426153e7909063ffffffff16565b905080505b90565b60008183106152a157816152a3565b825b90506152aa565b92915050565b60008267ffffffffffffffff1682840191508167ffffffffffffffff1610151515615346576040517f08c379a000000000000000000000000000000000000000000000000000000000815260040180806020018281038252600c8152602001807f6164642d6f766572666c6f77000000000000000000000000000000000000000081526020015060200191505060405180910390fd5b5b92915050565b6000700100000000000000000000000000000000821015156153da576040517f08c379a00000000000000000000000000000000000000000000000000000000081526004018080602001828103825260128152602001807f6d6f7265207468616e203132382062697473000000000000000000000000000081526020015060200191505060405180910390fd5b8190506153e2565b919050565b6000680100000000000000008210151561546c576040517f08c379a00000000000000000000000000000000000000000000000000000000081526004018080602001828103825260118152602001807f6d6f7265207468616e203634206269747300000000000000000000000000000081526020015060200191505060405180910390fd5b819050615474565b919050565b6040518060a0016040528060006fffffffffffffffffffffffffffffffff16815260200160006fffffffffffffffffffffffffffffffff168152602001600073ffffffffffffffffffffffffffffffffffffffff168152602001600065ffffffffffff168152602001600065ffffffffffff1681526020015090566160a0565b60008135905067ffffffffffffffff8116811415156155185760006000fd5b5b919050565b60006020828403121561552f578081fd5b815161553a81616062565b809150505b92915050565b600060208284031215615556578081fd5b81357fffffffff00000000000000000000000000000000000000000000000000000000811681141515615587578182fd5b809150505b92915050565b6000602082840312156155a3578081fd5b81516155ae81616077565b809150505b92915050565b6000602082840312156155ca578081fd5b81516155d581616077565b809150505b92915050565b6000602082840312156155f1578081fd5b81356155fc81616077565b809150505b92915050565b600060208284031215615618578081fd5b815161562381616077565b809150505b92915050565b60006020828403121561563f578081fd5b815161564a81616077565b809150505b92915050565b600060208284031215615666578081fd5b815161567181616077565b809150505b92915050565b60006020828403121561568d578081fd5b815161569881616077565b809150505b92915050565b6000602082840312156156b4578081fd5b813590505b92915050565b6000602082840312156156d0578081fd5b815190505b92915050565b60006000604083850312156156ee578081fd5b82359150602083013561570081616062565b809150505b9250929050565b600060006040838503121561571f578182fd5b82359150602083013590505b9250929050565b600060208284031215615743578081fd5b813563ffffffff811681141515615758578182fd5b809150505b92915050565b600060208284031215615774578081fd5b61577d826154f9565b90505b92915050565b6000600060408385031215615799578182fd5b6157a2836154f9565b915060208301356157b281616062565b809150505b9250929050565b60006000604083850312156157d1578182fd5b6157da836154f9565b915060208301356fffffffffffffffffffffffffffffffff811681141515615800578182fd5b809150505b9250929050565b6000815180845260208085019450808401835b8381101561584357815115158752828701965082820191505b60018101905061581f565b505050508290505b92915050565b6000815180845260208085019450808401835b838110156158865781518752828701965082820191505b600181019050615864565b505050508290505b92915050565b60007f6d6178426174636853697a6500000000000000000000000000000000000000008252600c820190505b919050565b60007f657874656e73696f6e50657242696400000000000000000000000000000000008252600f820190505b919050565b60007f747761704475726174696f6e00000000000000000000000000000000000000008252600c820190505b919050565b60007f6d6178446566696369744c6f7453697a6500000000000000000000000000000082526011820190505b919050565b60007f6d617841756374696f6e4475726174696f6e000000000000000000000000000082526012820190505b919050565b60007f6d6178537572706c75734c6f7453697a6500000000000000000000000000000082526011820190505b919050565b60007f6d696e41756374696f6e4475726174696f6e000000000000000000000000000082526012820190505b919050565b60007f6d696e42696444656c74610000000000000000000000000000000000000000008252600b820190505b919050565b60007f6d696e4c6f7453697a65000000000000000000000000000000000000000000008252600a820190505b919050565b60007f72657365727665734275666665724c6f776572426f756e64000000000000000082526018820190505b919050565b60007f72657365727665734275666665725570706572426f756e64000000000000000082526018820190505b919050565b600060208201905073ffffffffffffffffffffffffffffffffffffffff831682525b92915050565b600060408201905073ffffffffffffffffffffffffffffffffffffffff841682526fffffffffffffffffffffffffffffffff831660208301525b9392505050565b600060408201905073ffffffffffffffffffffffffffffffffffffffff841682528260208301525b9392505050565b600060608083018184528087518083526080925082860191506020808a01865b83811015615bea5781516fffffffffffffffffffffffffffffffff8082511687528085830151168588015250604073ffffffffffffffffffffffffffffffffffffffff818301511681880152508781015165ffffffffffff8082168a8901528089840151168989015250505060a08501945082820191505b600181019050615b67565b5050868303818801525050615bff8188615851565b925050508281036040840152615c15818561580c565b9150505b949350505050565b600060208201905082151582525b92915050565b600060208201905073ffffffffffffffffffffffffffffffffffffffff831682525b92915050565b600060208201905073ffffffffffffffffffffffffffffffffffffffff831682525b92915050565b600060208252601160208301527f50726f746f636f6c2073687574646f776e00000000000000000000000000000060408301526060820190505b919050565b600060208252600b60208301527f42696420746f6f206c6f7700000000000000000000000000000000000000000060408301526060820190505b919050565b600060208252601460208301527f41756374696f6e206e6f7420636f6d706c65746500000000000000000000000060408301526060820190505b919050565b600060208252601160208301527f446964206e6f7420756e6465722062696400000000000000000000000000000060408301526060820190505b919050565b600060208252601360208301527f557365206c617465737420636f6e74726163740000000000000000000000000060408301526060820190505b919050565b600060208252600f60208301527f446964206e6f74206f757420626964000000000000000000000000000000000060408301526060820190505b919050565b600060208252600e60208301527f4e6f7420417574686f72697a656400000000000000000000000000000000000060408301526060820190505b919050565b600060208252600d60208301527f4c50205265656e7472616e63790000000000000000000000000000000000000060408301526060820190505b919050565b600060208252600c60208301527f42696420746f6f2068696768000000000000000000000000000000000000000060408301526060820190505b919050565b600060208252601360208301527f436f6e74726163742069732073746f707065640000000000000000000000000060408301526060820190505b919050565b600060208252601460208301527f4e6f2061756374696f6e7320746f20737461727400000000000000000000000060408301526060820190505b919050565b600060208252601060208301527f41756374696f6e206e6f74206c6976650000000000000000000000000000000060408301526060820190505b919050565b60006020820190506fffffffffffffffffffffffffffffffff831682525b92915050565b600060a0820190506fffffffffffffffffffffffffffffffff808816835280871660208401525073ffffffffffffffffffffffffffffffffffffffff8516604083015265ffffffffffff80851660608401528084166080840152505b9695505050505050565b60006020820190508282525b92915050565b60006040820190508382528260208301525b9392505050565b600060208201905063ffffffff831682525b92915050565b600060208201905067ffffffffffffffff831682525b92915050565b801515811415156160735760006000fd5b5b50565b73ffffffffffffffffffffffffffffffffffffffff81168114151561609c5760006000fd5b5b50565bfea26469706673582212206e7619b3e9ca75ad777c6fcfe732c87aeeb5cc509ef5fb27349f09a5f815263a64736f6c63430007060033",
  "linkReferences": {},
  "deployedLinkReferences": {}
}