{
  "_format": "hh-sol-artifact-1",
  "contractName": "RatesTestable",
  "sourceName": "contracts/mocks/RatesTestable.sol",
  "abi": [
    {
      "anonymous": false,
      "inputs": [
        {
          "indexed": true,
          "internalType": "address",
          "name": "governor",
          "type": "address"
        }
      ],
      "name": "Initialized",
      "type": "event"
    },
    {
      "anonymous": false,
      "inputs": [
        {
          "indexed": true,
          "internalType": "string",
          "name": "paramName",
          "type": "string"
        },
        {
          "indexed": false,
          "internalType": "uint128",
          "name": "value",
          "type": "uint128"
        }
      ],
      "name": "ParameterUpdated128",
      "type": "event"
    },
    {
      "anonymous": false,
      "inputs": [
        {
          "indexed": true,
          "internalType": "string",
          "name": "paramName",
          "type": "string"
        },
        {
          "indexed": false,
          "internalType": "uint64",
          "name": "value",
          "type": "uint64"
        }
      ],
      "name": "ParameterUpdated64",
      "type": "event"
    },
    {
      "anonymous": false,
      "inputs": [
        {
          "indexed": true,
          "internalType": "string",
          "name": "paramName",
          "type": "string"
        },
        {
          "indexed": true,
          "internalType": "address",
          "name": "addr",
          "type": "address"
        }
      ],
      "name": "ParameterUpdatedAddress",
      "type": "event"
    },
    {
      "anonymous": false,
      "inputs": [
        {
          "indexed": true,
          "internalType": "string",
          "name": "paramName",
          "type": "string"
        },
        {
          "indexed": false,
          "internalType": "int128",
          "name": "value",
          "type": "int128"
        }
      ],
      "name": "ParameterUpdatedInt128",
      "type": "event"
    },
    {
      "anonymous": false,
      "inputs": [
        {
          "indexed": false,
          "internalType": "int256",
          "name": "interestRate",
          "type": "int256"
        },
        {
          "indexed": false,
          "internalType": "uint256",
          "name": "price",
          "type": "uint256"
        },
        {
          "indexed": false,
          "internalType": "uint256",
          "name": "rewardCount",
          "type": "uint256"
        },
        {
          "indexed": false,
          "internalType": "uint64",
          "name": "nextUpdateTime",
          "type": "uint64"
        }
      ],
      "name": "RateUpdated",
      "type": "event"
    },
    {
      "anonymous": false,
      "inputs": [],
      "name": "Stopped",
      "type": "event"
    },
    {
      "inputs": [
        {
          "internalType": "contract IUniswapV3Pool",
          "name": "pool",
          "type": "address"
        }
      ],
      "name": "addReferencePool",
      "outputs": [],
      "stateMutability": "nonpayable",
      "type": "function"
    },
    {
      "inputs": [
        {
          "internalType": "uint256[]",
          "name": "prices",
          "type": "uint256[]"
        },
        {
          "internalType": "uint256",
          "name": "validRangeForRawPrices",
          "type": "uint256"
        }
      ],
      "name": "calculatePrice",
      "outputs": [
        {
          "internalType": "uint256",
          "name": "price",
          "type": "uint256"
        }
      ],
      "stateMutability": "pure",
      "type": "function"
    },
    {
      "inputs": [
        {
          "internalType": "uint256[]",
          "name": "prices",
          "type": "uint256[]"
        },
        {
          "internalType": "uint256",
          "name": "validRangeForRawPrices",
          "type": "uint256"
        }
      ],
      "name": "calculatePriceImpl",
      "outputs": [
        {
          "internalType": "uint256",
          "name": "price",
          "type": "uint256"
        }
      ],
      "stateMutability": "pure",
      "type": "function"
    },
    {
      "inputs": [
        {
          "internalType": "int256",
          "name": "rate",
          "type": "int256"
        },
        {
          "components": [
            {
              "internalType": "uint128",
              "name": "acceptableError",
              "type": "uint128"
            },
            {
              "internalType": "uint128",
              "name": "errorInterval",
              "type": "uint128"
            },
            {
              "internalType": "uint128",
              "name": "interestRateStep",
              "type": "uint128"
            },
            {
              "internalType": "uint64",
              "name": "maxSteps",
              "type": "uint64"
            },
            {
              "internalType": "int128",
              "name": "minRate",
              "type": "int128"
            },
            {
              "internalType": "int128",
              "name": "maxRate",
              "type": "int128"
            }
          ],
          "internalType": "struct Rates.InterestRateParameters",
          "name": "rp",
          "type": "tuple"
        },
        {
          "internalType": "uint256",
          "name": "price",
          "type": "uint256"
        }
      ],
      "name": "calculateRate",
      "outputs": [
        {
          "internalType": "int256",
          "name": "",
          "type": "int256"
        }
      ],
      "stateMutability": "pure",
      "type": "function"
    },
    {
      "inputs": [
        {
          "components": [
            {
              "internalType": "int256",
              "name": "rate",
              "type": "int256"
            },
            {
              "internalType": "uint64",
              "name": "nextUpdateTime",
              "type": "uint64"
            },
            {
              "internalType": "uint128",
              "name": "rewardCount",
              "type": "uint128"
            }
          ],
          "internalType": "struct Rates.RateData",
          "name": "rd",
          "type": "tuple"
        },
        {
          "internalType": "uint64",
          "name": "currentTime",
          "type": "uint64"
        }
      ],
      "name": "calculateRewardCount",
      "outputs": [
        {
          "internalType": "uint256",
          "name": "",
          "type": "uint256"
        }
      ],
      "stateMutability": "pure",
      "type": "function"
    },
    {
      "inputs": [],
      "name": "completeSetup",
      "outputs": [],
      "stateMutability": "nonpayable",
      "type": "function"
    },
    {
      "inputs": [],
      "name": "currentRateData",
      "outputs": [
        {
          "internalType": "int256",
          "name": "rate",
          "type": "int256"
        },
        {
          "internalType": "uint64",
          "name": "nextUpdateTime",
          "type": "uint64"
        },
        {
          "internalType": "uint128",
          "name": "rewardCount",
          "type": "uint128"
        }
      ],
      "stateMutability": "view",
      "type": "function"
    },
    {
      "inputs": [],
      "name": "deployer",
      "outputs": [
        {
          "internalType": "address",
          "name": "",
          "type": "address"
        }
      ],
      "stateMutability": "view",
      "type": "function"
    },
    {
      "inputs": [],
      "name": "getRewardCount",
      "outputs": [
        {
          "internalType": "uint256",
          "name": "",
          "type": "uint256"
        }
      ],
      "stateMutability": "view",
      "type": "function"
    },
    {
      "inputs": [],
      "name": "governor",
      "outputs": [
        {
          "internalType": "contract IGovernor",
          "name": "",
          "type": "address"
        }
      ],
      "stateMutability": "view",
      "type": "function"
    },
    {
      "inputs": [
        {
          "internalType": "contract IGovernor",
          "name": "_governor",
          "type": "address"
        }
      ],
      "name": "init",
      "outputs": [],
      "stateMutability": "nonpayable",
      "type": "function"
    },
    {
      "inputs": [],
      "name": "interestRateAbsoluteValue",
      "outputs": [
        {
          "internalType": "uint256",
          "name": "",
          "type": "uint256"
        }
      ],
      "stateMutability": "view",
      "type": "function"
    },
    {
      "inputs": [],
      "name": "interestRateParameters",
      "outputs": [
        {
          "internalType": "uint128",
          "name": "acceptableError",
          "type": "uint128"
        },
        {
          "internalType": "uint128",
          "name": "errorInterval",
          "type": "uint128"
        },
        {
          "internalType": "uint128",
          "name": "interestRateStep",
          "type": "uint128"
        },
        {
          "internalType": "uint64",
          "name": "maxSteps",
          "type": "uint64"
        },
        {
          "internalType": "int128",
          "name": "minRate",
          "type": "int128"
        },
        {
          "internalType": "int128",
          "name": "maxRate",
          "type": "int128"
        }
      ],
      "stateMutability": "view",
      "type": "function"
    },
    {
      "inputs": [],
      "name": "minTimeBetweenUpdates",
      "outputs": [
        {
          "internalType": "uint64",
          "name": "",
          "type": "uint64"
        }
      ],
      "stateMutability": "view",
      "type": "function"
    },
    {
      "inputs": [],
      "name": "positiveInterestRate",
      "outputs": [
        {
          "internalType": "bool",
          "name": "",
          "type": "bool"
        }
      ],
      "stateMutability": "view",
      "type": "function"
    },
    {
      "inputs": [],
      "name": "predictInterestRate",
      "outputs": [
        {
          "internalType": "uint256",
          "name": "price",
          "type": "uint256"
        },
        {
          "internalType": "int256",
          "name": "rate",
          "type": "int256"
        }
      ],
      "stateMutability": "view",
      "type": "function"
    },
    {
      "inputs": [
        {
          "internalType": "uint256",
          "name": "",
          "type": "uint256"
        }
      ],
      "name": "referencePools",
      "outputs": [
        {
          "internalType": "contract IUniswapV3Pool",
          "name": "",
          "type": "address"
        }
      ],
      "stateMutability": "view",
      "type": "function"
    },
    {
      "inputs": [
        {
          "internalType": "contract IUniswapV3Pool",
          "name": "pool",
          "type": "address"
        }
      ],
      "name": "removeReferencePool",
      "outputs": [],
      "stateMutability": "nonpayable",
      "type": "function"
    },
    {
      "inputs": [
        {
          "internalType": "uint128",
          "name": "error",
          "type": "uint128"
        }
      ],
      "name": "setAcceptableError",
      "outputs": [],
      "stateMutability": "nonpayable",
      "type": "function"
    },
    {
      "inputs": [
        {
          "internalType": "uint128",
          "name": "interval",
          "type": "uint128"
        }
      ],
      "name": "setErrorInterval",
      "outputs": [],
      "stateMutability": "nonpayable",
      "type": "function"
    },
    {
      "inputs": [
        {
          "internalType": "uint128",
          "name": "step",
          "type": "uint128"
        }
      ],
      "name": "setInterestRateStep",
      "outputs": [],
      "stateMutability": "nonpayable",
      "type": "function"
    },
    {
      "inputs": [
        {
          "internalType": "int128",
          "name": "max",
          "type": "int128"
        }
      ],
      "name": "setMaxRate",
      "outputs": [],
      "stateMutability": "nonpayable",
      "type": "function"
    },
    {
      "inputs": [
        {
          "internalType": "uint64",
          "name": "steps",
          "type": "uint64"
        }
      ],
      "name": "setMaxSteps",
      "outputs": [],
      "stateMutability": "nonpayable",
      "type": "function"
    },
    {
      "inputs": [
        {
          "internalType": "int128",
          "name": "min",
          "type": "int128"
        }
      ],
      "name": "setMinRate",
      "outputs": [],
      "stateMutability": "nonpayable",
      "type": "function"
    },
    {
      "inputs": [
        {
          "internalType": "uint64",
          "name": "time",
          "type": "uint64"
        }
      ],
      "name": "setMinTimeBetweenUpdates",
      "outputs": [],
      "stateMutability": "nonpayable",
      "type": "function"
    },
    {
      "inputs": [
        {
          "internalType": "uint128",
          "name": "range",
          "type": "uint128"
        }
      ],
      "name": "setValidRangeForRawPrices",
      "outputs": [],
      "stateMutability": "nonpayable",
      "type": "function"
    },
    {
      "inputs": [],
      "name": "stop",
      "outputs": [],
      "stateMutability": "nonpayable",
      "type": "function"
    },
    {
      "inputs": [],
      "name": "stopped",
      "outputs": [
        {
          "internalType": "bool",
          "name": "",
          "type": "bool"
        }
      ],
      "stateMutability": "view",
      "type": "function"
    },
    {
      "inputs": [],
      "name": "update",
      "outputs": [],
      "stateMutability": "nonpayable",
      "type": "function"
    },
    {
      "inputs": [],
      "name": "validRangeForRawPrices",
      "outputs": [
        {
          "internalType": "uint128",
          "name": "",
          "type": "uint128"
        }
      ],
      "stateMutability": "view",
      "type": "function"
    },
    {
      "inputs": [
        {
          "internalType": "bytes4",
          "name": "",
          "type": "bytes4"
        }
      ],
      "name": "validUpdate",
      "outputs": [
        {
          "internalType": "bool",
          "name": "",
          "type": "bool"
        }
      ],
      "stateMutability": "view",
      "type": "function"
    }
  ],
  "bytecode": "0x6080604052600160066000509090556702c68af0bb140000600760006101000a8154816fffffffffffffffffffffffffffffffff02191690836fffffffffffffffffffffffffffffffff16021790555062014a78600760106101000a81548167ffffffffffffffff021916908367ffffffffffffffff1602179055503480156100885760006000fd5b505b33600160006101000a81548173ffffffffffffffffffffffffffffffffffffffff021916908373ffffffffffffffffffffffffffffffffffffffff1602179055505b6100d1565b6144d980620000e16000396000f3fe60806040523480156100115760006000fd5b50600436106101ea5760003560e01c806377a3544211610110578063a2e62045116100a3578063d3ab388811610072578063d3ab388814610542578063d5f394881461055e578063ee47304d1461057c578063eec3f6f114610598576101ea565b8063a2e62045146104d0578063c381c1e6146104da578063c737ea62146104f6578063ceec5d6f14610512576101ea565b806384333cc7116100df57806384333cc7146104555780638aea8f711461048557806395563b471461048f578063a0fc0eda146104b2576101ea565b806377a35442146103cd5780637e7e8eec146103eb5780637e8868ad1461040957806380ddbdb414610439576101ea565b806319a6e9e6116101885780635fd019ad116101575780635fd019ad146103595780636d7fa664146103755780636e16ead21461039357806375f12b21146103af576101ea565b806319a6e9e6146102e357806319ab453c146103015780631f244faf1461031d5780635d8350b41461033d576101ea565b806311994c29116101c457806311994c29146102485780631268d3be14610278578063150147d7146102a8578063178d1226146102c4576101ea565b806307da68f5146101f05780630c340a24146101fa578063113cf1ab14610218576101ea565b60006000fd5b6101f86105b4565b005b6102026105d4565b60405161020f91906140bc565b60405180910390f35b610232600480360381019061022d9190613b16565b6105fa565b60405161023f91906140a8565b60405180910390f35b610262600480360381019061025d9190613d53565b61061f565b60405161026f919061439f565b60405180910390f35b610292600480360381019061028d9190613a3b565b61063e565b60405161029f919061439f565b60405180910390f35b6102c260048036038101906102bd9190613bff565b61065d565b005b6102cc610787565b6040516102da9291906143b1565b60405180910390f35b6102eb610b68565b6040516102f891906143ca565b60405180910390f35b61031b60048036038101906103169190613b8a565b610b82565b005b610325610f40565b604051610334939291906141a7565b60405180910390f35b61035760048036038101906103529190613e32565b610f8e565b005b610373600480360381019061036e9190613dd7565b611045565b005b61037d611129565b60405161038a91906140a8565b60405180910390f35b6103ad60048036038101906103a89190613dd7565b611145565b005b6103b761120b565b6040516103c491906140a8565b60405180910390f35b6103d561121e565b6040516103e2919061431e565b60405180910390f35b6103f3611240565b604051610400919061439f565b60405180910390f35b610423600480360381019061041e9190613a3b565b611304565b604051610430919061439f565b60405180910390f35b610453600480360381019061044e9190613dd7565b611323565b005b61046f600480360381019061046a9190613dfa565b6113e9565b60405161047c91906140e4565b60405180910390f35b61048d61142f565b005b610497611501565b6040516104a996959493929190614342565b60405180910390f35b6104ba6115b0565b6040516104c7919061439f565b60405180910390f35b6104d86115e1565b005b6104f460048036038101906104ef9190613bff565b611ccd565b005b610510600480360381019061050b9190613dd7565b611df7565b005b61052c60048036038101906105279190613c70565b611ed5565b6040516105399190614152565b60405180910390f35b61055c60048036038101906105579190613e32565b611ef6565b005b610566611f83565b604051610573919061403f565b60405180910390f35b61059660048036038101906105919190613c4d565b611fa9565b005b6105b260048036038101906105ad9190613c4d565b612073565b005b6105c261213d63ffffffff16565b6105d06121d263ffffffff16565b5b5b565b600060009054906101000a900473ffffffffffffffffffffffffffffffffffffffff1681565b600560005060205280600052604060002060009150909054906101000a900460ff1681565b6000610631838361221c63ffffffff16565b9050610638565b92915050565b600061065083836122fb63ffffffff16565b9050610657565b92915050565b61066b61213d63ffffffff16565b600060009054906101000a900473ffffffffffffffffffffffffffffffffffffffff1673ffffffffffffffffffffffffffffffffffffffff1663ab658be26040518163ffffffff1660e01b815260040160006040518083038186803b1580156106d45760006000fd5b505afa1580156106e9573d600060003e3d6000fd5b505050506040513d6000823e3d601f19601f82011682018060405250810190610712919061398c565b600d600050908051906020019061072a92919061386b565b508073ffffffffffffffffffffffffffffffffffffffff1660405161074e90613f4a565b60405180910390207f78caada2f560033c9479d8c5e33f045f2e611faebe6b6d8a73874c80ec2dd3a260405160405180910390a35b5b50565b600060006000600060009054906101000a900473ffffffffffffffffffffffffffffffffffffffff1673ffffffffffffffffffffffffffffffffffffffff1663d3419bf36040518163ffffffff1660e01b815260040160206040518083038186803b1580156107f65760006000fd5b505afa15801561080b573d600060003e3d6000fd5b505050506040513d601f19601f8201168201806040525081019061082f9190613bb1565b90506000600d60005080549050905060008167ffffffffffffffff811180156108585760006000fd5b506040519080825280602002602001820160405280156108875781602001602082028036833780820191505090505b5090506000600090505b82811015610992578373ffffffffffffffffffffffffffffffffffffffff16633c63a9cd600d600050838154811015156108c757fe5b906000526020600020900160005b9054906101000a900473ffffffffffffffffffffffffffffffffffffffff1660016040518363ffffffff1660e01b815260040161091392919061410c565b60206040518083038186803b15801561092c5760006000fd5b505afa158015610941573d600060003e3d6000fd5b505050506040513d601f19601f820116820180604052508101906109659190613e16565b828281518110151561097357fe5b60200260200101909081815260200150505b8080600101915050610891565b506109d381600760009054906101000a90046fffffffffffffffffffffffffffffffff166fffffffffffffffffffffffffffffffff166122fb63ffffffff16565b94508450610b4f600b6000506000016000505460086000506040518060c00160405290816000820160009054906101000a90046fffffffffffffffffffffffffffffffff166fffffffffffffffffffffffffffffffff166fffffffffffffffffffffffffffffffff1681526020016000820160109054906101000a90046fffffffffffffffffffffffffffffffff166fffffffffffffffffffffffffffffffff166fffffffffffffffffffffffffffffffff1681526020016001820160009054906101000a90046fffffffffffffffffffffffffffffffff166fffffffffffffffffffffffffffffffff166fffffffffffffffffffffffffffffffff1681526020016001820160109054906101000a900467ffffffffffffffff1667ffffffffffffffff1667ffffffffffffffff1681526020016002820160009054906101000a9004600f0b600f0b600f0b81526020016002820160109054906101000a9004600f0b600f0b600f0b815260200150508761233463ffffffff16565b93508350848494509450505050610b64565050505b9091565b600760109054906101000a900467ffffffffffffffff1681565b600160009054906101000a900473ffffffffffffffffffffffffffffffffffffffff1673ffffffffffffffffffffffffffffffffffffffff163373ffffffffffffffffffffffffffffffffffffffff16141515610bdf5760006000fd5b600160006101000a81549073ffffffffffffffffffffffffffffffffffffffff021916905580600060006101000a81548173ffffffffffffffffffffffffffffffffffffffff021916908373ffffffffffffffffffffffffffffffffffffffff160217905550600060009054906101000a900473ffffffffffffffffffffffffffffffffffffffff1673ffffffffffffffffffffffffffffffffffffffff16639624e83e6040518163ffffffff1660e01b815260040160206040518083038186803b158015610cae5760006000fd5b505afa158015610cc3573d600060003e3d6000fd5b505050506040513d601f19601f82011682018060405250810190610ce79190613b63565b600260006101000a81548173ffffffffffffffffffffffffffffffffffffffff021916908373ffffffffffffffffffffffffffffffffffffffff160217905550600060009054906101000a900473ffffffffffffffffffffffffffffffffffffffff1673ffffffffffffffffffffffffffffffffffffffff16638a15fcf36040518163ffffffff1660e01b815260040160206040518083038186803b158015610d905760006000fd5b505afa158015610da5573d600060003e3d6000fd5b505050506040513d601f19601f82011682018060405250810190610dc99190613c26565b600360006101000a81548173ffffffffffffffffffffffffffffffffffffffff021916908373ffffffffffffffffffffffffffffffffffffffff160217905550600060009054906101000a900473ffffffffffffffffffffffffffffffffffffffff1673ffffffffffffffffffffffffffffffffffffffff1663d478b0876040518163ffffffff1660e01b815260040160206040518083038186803b158015610e725760006000fd5b505afa158015610e87573d600060003e3d6000fd5b505050506040513d601f19601f82011682018060405250810190610eab9190613bd8565b600460006101000a81548173ffffffffffffffffffffffffffffffffffffffff021916908373ffffffffffffffffffffffffffffffffffffffff160217905550610ef96124ac63ffffffff16565b8073ffffffffffffffffffffffffffffffffffffffff167f908408e307fc569b417f6cbec5d5a06f44a0a505ac0479b47d421a4b2fd6a1e660405160405180910390a25b50565b600b6000508060000160005054908060010160009054906101000a900467ffffffffffffffff16908060010160089054906101000a90046fffffffffffffffffffffffffffffffff16905083565b610f9c61213d63ffffffff16565b80600760106101000a81548167ffffffffffffffff021916908367ffffffffffffffff1602179055506000600760109054906101000a900467ffffffffffffffff1667ffffffffffffffff16111515610ff55760006000fd5b60405161100190613ee8565b60405180910390207f6293347933ad2997134e224ac8cd2e39908a4a22aeed9af52127b4bbf76529788260405161103891906143ca565b60405180910390a25b5b50565b61105361213d63ffffffff16565b806fffffffffffffffffffffffffffffffff16600010801561108e5750670de0b6b3a7640000816fffffffffffffffffffffffffffffffff16105b151561109a5760006000fd5b80600860005060000160106101000a8154816fffffffffffffffffffffffffffffffff02191690836fffffffffffffffffffffffffffffffff1602179055506040516110e590613e86565b60405180910390207ff92f7fc8addd796154d83393012a119e212b31cb3dc9776133129db4c5747fcc8260405161111c919061431e565b60405180910390a25b5b50565b60006000600b6000506000016000505412159050611142565b90565b61115361213d63ffffffff16565b670de0b6b3a7640000816fffffffffffffffffffffffffffffffff1610151561117c5760006000fd5b80600860005060010160006101000a8154816fffffffffffffffffffffffffffffffff02191690836fffffffffffffffffffffffffffffffff1602179055506040516111c790613f7b565b60405180910390207ff92f7fc8addd796154d83393012a119e212b31cb3dc9776133129db4c5747fcc826040516111fe919061431e565b60405180910390a25b5b50565b600060149054906101000a900460ff1681565b600760009054906101000a90046fffffffffffffffffffffffffffffffff1681565b60006112fa600b600050604051806060016040529081600082016000505481526020016001820160009054906101000a900467ffffffffffffffff1667ffffffffffffffff1667ffffffffffffffff1681526020016001820160089054906101000a90046fffffffffffffffffffffffffffffffff166fffffffffffffffffffffffffffffffff166fffffffffffffffffffffffffffffffff16815260200150506112ef612af363ffffffff16565b61221c63ffffffff16565b9050611301565b90565b60006113168383612b0e63ffffffff16565b905061131d565b92915050565b61133161213d63ffffffff16565b670de0b6b3a7640000816fffffffffffffffffffffffffffffffff1610151561135a5760006000fd5b80600860005060000160006101000a8154816fffffffffffffffffffffffffffffffff02191690836fffffffffffffffffffffffffffffffff1602179055506040516113a590613eb7565b60405180910390207ff92f7fc8addd796154d83393012a119e212b31cb3dc9776133129db4c5747fcc826040516113dc919061431e565b60405180910390a25b5b50565b600d60005081815481106113fc57600080fd5b906000526020600020900160005b9150909054906101000a900473ffffffffffffffffffffffffffffffffffffffff1681565b61143d61213d63ffffffff16565b600060009054906101000a900473ffffffffffffffffffffffffffffffffffffffff1673ffffffffffffffffffffffffffffffffffffffff1663ab658be26040518163ffffffff1660e01b815260040160006040518083038186803b1580156114a65760006000fd5b505afa1580156114bb573d600060003e3d6000fd5b505050506040513d6000823e3d601f19601f820116820180604052508101906114e4919061398c565b600d60005090805190602001906114fc92919061386b565b505b5b565b60086000508060000160009054906101000a90046fffffffffffffffffffffffffffffffff16908060000160109054906101000a90046fffffffffffffffffffffffffffffffff16908060010160009054906101000a90046fffffffffffffffffffffffffffffffff16908060010160109054906101000a900467ffffffffffffffff16908060020160009054906101000a9004600f0b908060020160109054906101000a9004600f0b905086565b60006000600b600050600001600050549050600081126115d057806115d5565b806000035b9150506115de56505b90565b6115ef612e9163ffffffff16565b6115fd612f7063ffffffff16565b6000600b600050604051806060016040529081600082016000505481526020016001820160009054906101000a900467ffffffffffffffff1667ffffffffffffffff1667ffffffffffffffff1681526020016001820160089054906101000a90046fffffffffffffffffffffffffffffffff166fffffffffffffffffffffffffffffffff166fffffffffffffffffffffffffffffffff168152602001505090506116ab612af363ffffffff16565b67ffffffffffffffff16816020015167ffffffffffffffff1611151515611707576040517f08c379a00000000000000000000000000000000000000000000000000000000081526004016116fe906142a0565b60405180910390fd5b6000600060009054906101000a900473ffffffffffffffffffffffffffffffffffffffff1673ffffffffffffffffffffffffffffffffffffffff1663d3419bf36040518163ffffffff1660e01b815260040160206040518083038186803b1580156117725760006000fd5b505afa158015611787573d600060003e3d6000fd5b505050506040513d601f19601f820116820180604052508101906117ab9190613bb1565b90506000600d60005080549050905060008167ffffffffffffffff811180156117d45760006000fd5b506040519080825280602002602001820160405280156118035781602001602082028036833780820191505090505b5090506000600090505b8281101561190d578373ffffffffffffffffffffffffffffffffffffffff1663ce403c13600d6000508381548110151561184357fe5b906000526020600020900160005b9054906101000a900473ffffffffffffffffffffffffffffffffffffffff166040518263ffffffff1660e01b815260040161188c91906140e4565b602060405180830381600087803b1580156118a75760006000fd5b505af11580156118bc573d600060003e3d6000fd5b505050506040513d601f19601f820116820180604052508101906118e09190613e16565b82828151811015156118ee57fe5b60200260200101909081815260200150505b808060010191505061180d565b50600061195082600760009054906101000a90046fffffffffffffffffffffffffffffffff166fffffffffffffffffffffffffffffffff166122fb63ffffffff16565b905060006040518060600160405280611ad0886000015160086000506040518060c00160405290816000820160009054906101000a90046fffffffffffffffffffffffffffffffff166fffffffffffffffffffffffffffffffff166fffffffffffffffffffffffffffffffff1681526020016000820160109054906101000a90046fffffffffffffffffffffffffffffffff166fffffffffffffffffffffffffffffffff166fffffffffffffffffffffffffffffffff1681526020016001820160009054906101000a90046fffffffffffffffffffffffffffffffff166fffffffffffffffffffffffffffffffff166fffffffffffffffffffffffffffffffff1681526020016001820160109054906101000a900467ffffffffffffffff1667ffffffffffffffff1667ffffffffffffffff1681526020016002820160009054906101000a9004600f0b600f0b600f0b81526020016002820160109054906101000a9004600f0b600f0b600f0b815260200150508661233463ffffffff16565b8152602001611afa600760109054906101000a900467ffffffffffffffff1661306563ffffffff16565b67ffffffffffffffff168152602001611b36611b2989611b1e612af363ffffffff16565b61221c63ffffffff16565b61309b909063ffffffff16565b6fffffffffffffffffffffffffffffffff16815260200150905080600b60005060008201518160000160005090905560208201518160010160006101000a81548167ffffffffffffffff021916908367ffffffffffffffff16021790555060408201518160010160086101000a8154816fffffffffffffffffffffffffffffffff02191690836fffffffffffffffffffffffffffffffff160217905550905050600060009054906101000a900473ffffffffffffffffffffffffffffffffffffffff1673ffffffffffffffffffffffffffffffffffffffff1663ef7a7cfa3383604001516040518363ffffffff1660e01b8152600401611c37929190614067565b600060405180830381600087803b158015611c525760006000fd5b505af1158015611c67573d600060003e3d6000fd5b505050507f9f912bcb7b057a4f10fbbee5785670aecb2ab545144237646e17398d55de72dc81600001518383604001518460200151604051611cac9493929190614164565b60405180910390a15050505050505b5b611cca61313563ffffffff16565b5b565b611cdb61213d63ffffffff16565b600060009054906101000a900473ffffffffffffffffffffffffffffffffffffffff1673ffffffffffffffffffffffffffffffffffffffff1663ab658be26040518163ffffffff1660e01b815260040160006040518083038186803b158015611d445760006000fd5b505afa158015611d59573d600060003e3d6000fd5b505050506040513d6000823e3d601f19601f82011682018060405250810190611d82919061398c565b600d6000509080519060200190611d9a92919061386b565b508073ffffffffffffffffffffffffffffffffffffffff16604051611dbe90613fdd565b60405180910390207f78caada2f560033c9479d8c5e33f045f2e611faebe6b6d8a73874c80ec2dd3a260405160405180910390a35b5b50565b611e0561213d63ffffffff16565b80600760006101000a8154816fffffffffffffffffffffffffffffffff02191690836fffffffffffffffffffffffffffffffff160217905550670de0b6b3a7640000600760009054906101000a90046fffffffffffffffffffffffffffffffff166fffffffffffffffffffffffffffffffff16101515611e855760006000fd5b604051611e9190613fac565b60405180910390207ff92f7fc8addd796154d83393012a119e212b31cb3dc9776133129db4c5747fcc82604051611ec8919061431e565b60405180910390a25b5b50565b6000611ee884848461233463ffffffff16565b9050611eef565b9392505050565b611f0461213d63ffffffff16565b80600860005060010160106101000a81548167ffffffffffffffff021916908367ffffffffffffffff160217905550604051611f3f90613e55565b60405180910390207f6293347933ad2997134e224ac8cd2e39908a4a22aeed9af52127b4bbf765297882604051611f7691906143ca565b60405180910390a25b5b50565b600160009054906101000a900473ffffffffffffffffffffffffffffffffffffffff1681565b611fb761213d63ffffffff16565b600860005060020160109054906101000a9004600f0b600f0b81600f0b121515611fe15760006000fd5b80600860005060020160006101000a8154816fffffffffffffffffffffffffffffffff0219169083600f0b6fffffffffffffffffffffffffffffffff16021790555060405161202f9061400e565b60405180910390207f73372e841856ef3f75f5070dea5fbba697b24bf1b513158c125d0c7bbcc62fd282604051612066919061413d565b60405180910390a25b5b50565b61208161213d63ffffffff16565b80600f0b600860005060020160009054906101000a9004600f0b600f0b1215156120ab5760006000fd5b80600860005060020160106101000a8154816fffffffffffffffffffffffffffffffff0219169083600f0b6fffffffffffffffffffffffffffffffff1602179055506040516120f990613f19565b60405180910390207f73372e841856ef3f75f5070dea5fbba697b24bf1b513158c125d0c7bbcc62fd282604051612130919061413d565b60405180910390a25b5b50565b600060009054906101000a900473ffffffffffffffffffffffffffffffffffffffff1673ffffffffffffffffffffffffffffffffffffffff163373ffffffffffffffffffffffffffffffffffffffff161415156121cf576040517f08c379a00000000000000000000000000000000000000000000000000000000081526004016121c690614222565b60405180910390fd5b5b565b6001600060146101000a81548160ff0219169083151502179055507f7acc84e34091ae817647a4c49116f5cc07f319078ba80f8f5fde37ea7e25cbd660405160405180910390a15b565b6000826020015167ffffffffffffffff168267ffffffffffffffff1611151561224857600090506122f5565b6000600284604001516fffffffffffffffffffffffffffffffff1681151561226c57fe5b046fffffffffffffffffffffffffffffffff16905060006122aa8560200151850367ffffffffffffffff16610708846131c99092919063ffffffff16565b820190506122ea6122db600587604001516fffffffffffffffffffffffffffffffff166132ca90919063ffffffff16565b8261336890919063ffffffff16565b925050506122f55650505b92915050565b60006123276123108484612b0e63ffffffff16565b670de0b6b3a764000061338690919063ffffffff16565b905061232e565b92915050565b60006000670de0b6b3a76400008310905060008161235c57670de0b6b3a76400008403612368565b83670de0b6b3a7640000035b905084600001516fffffffffffffffffffffffffffffffff16811015156124615760006123e06123d3600188602001516fffffffffffffffffffffffffffffffff16858115156123b457fe5b0401886060015167ffffffffffffffff1661336890919063ffffffff16565b6133ac909063ffffffff16565b67ffffffffffffffff169050600061242761241a8389604001516fffffffffffffffffffffffffffffffff166132ca90919063ffffffff16565b61343e909063ffffffff16565b9050836124465761244181896134e790919063ffffffff16565b61245a565b612459818961357e90919063ffffffff16565b5b9750875050505b8460800151600f0b86121561247d578460800151600f0b955085505b8460a00151600f0b861315612499578460a00151600f0b955085505b85925050506124a55650505b9392505050565b6040518060c0016040528066038d7ea4c680006fffffffffffffffffffffffffffffffff1681526020016611c37937e080006fffffffffffffffffffffffffffffffff1681526020016611c37937e080006fffffffffffffffffffffffffffffffff168152602001600567ffffffffffffffff1681526020017ffffffffffffffffffffffffffffffffffffffffffffffffffdeb17cb73b10000600f0b81526020016706f05b59d3b20000600f0b815260200150600860005060008201518160000160006101000a8154816fffffffffffffffffffffffffffffffff02191690836fffffffffffffffffffffffffffffffff16021790555060208201518160000160106101000a8154816fffffffffffffffffffffffffffffffff02191690836fffffffffffffffffffffffffffffffff16021790555060408201518160010160006101000a8154816fffffffffffffffffffffffffffffffff02191690836fffffffffffffffffffffffffffffffff16021790555060608201518160010160106101000a81548167ffffffffffffffff021916908367ffffffffffffffff16021790555060808201518160020160006101000a8154816fffffffffffffffffffffffffffffffff0219169083600f0b6fffffffffffffffffffffffffffffffff16021790555060a08201518160020160106101000a8154816fffffffffffffffffffffffffffffffff0219169083600f0b6fffffffffffffffffffffffffffffffff160217905550905050604051806060016040528066b1a2bc2ec500008152602001612730600760109054906101000a900467ffffffffffffffff16612718612af363ffffffff16565b67ffffffffffffffff1661361590919063ffffffff16565b67ffffffffffffffff16815260200168056bc75e2d631000006fffffffffffffffffffffffffffffffff16815260200150600b60005060008201518160000160005090905560208201518160010160006101000a81548167ffffffffffffffff021916908367ffffffffffffffff16021790555060408201518160010160086101000a8154816fffffffffffffffffffffffffffffffff02191690836fffffffffffffffffffffffffffffffff160217905550905050600060405180610100016040528063c737ea6260e01b7bffffffffffffffffffffffffffffffffffffffffffffffffffffffff19167bffffffffffffffffffffffffffffffffffffffffffffffffffffffff191681526020016380ddbdb460e01b7bffffffffffffffffffffffffffffffffffffffffffffffffffffffff19167bffffffffffffffffffffffffffffffffffffffffffffffffffffffff19168152602001635fd019ad60e01b7bffffffffffffffffffffffffffffffffffffffffffffffffffffffff19167bffffffffffffffffffffffffffffffffffffffffffffffffffffffff19168152602001636e16ead260e01b7bffffffffffffffffffffffffffffffffffffffffffffffffffffffff19167bffffffffffffffffffffffffffffffffffffffffffffffffffffffff19168152602001635d8350b460e01b7bffffffffffffffffffffffffffffffffffffffffffffffffffffffff19167bffffffffffffffffffffffffffffffffffffffffffffffffffffffff1916815260200163d3ab388860e01b7bffffffffffffffffffffffffffffffffffffffffffffffffffffffff19167bffffffffffffffffffffffffffffffffffffffffffffffffffffffff1916815260200163ee47304d60e01b7bffffffffffffffffffffffffffffffffffffffffffffffffffffffff19167bffffffffffffffffffffffffffffffffffffffffffffffffffffffff1916815260200163eec3f6f160e01b7bffffffffffffffffffffffffffffffffffffffffffffffffffffffff19167bffffffffffffffffffffffffffffffffffffffffffffffffffffffff191681526020015090506000600090505b81506008811015612aee576001600560005060008484600881101515612a7857fe5b60200201517bffffffffffffffffffffffffffffffffffffffffffffffffffffffff19167bffffffffffffffffffffffffffffffffffffffffffffffffffffffff1916815260200190815260200160002060006101000a81548160ff0219169083151502179055505b8080600101915050612a56565b50505b565b6000612b06426133ac909063ffffffff16565b905080505b90565b60006000612b2d83670de0b6b3a76400006136b290919063ffffffff16565b90506000612b4c84670de0b6b3a764000061373b90919063ffffffff16565b9050600085519050600081111515612b645760006000fd5b60008167ffffffffffffffff81118015612b7e5760006000fd5b50604051908082528060200260200182016040528015612bad5781602001602082028036833780820191505090505b5090506000600060006000600090505b85811015612c2f578a81815181101515612bd357fe5b6020026020010151915081508188108015612bed57508682105b15612c21578380600101945050818584806001019550815181101515612c0f57fe5b60200260200101909081815260200150505b5b8080600101915050612bbd565b506000831415612c455789519250825089935083505b600060005b6002851115612dfe57856000815181101515612c6257fe5b602002602001015191508150856001815181101515612c7d57fe5b6020026020010151905080506000600190505b85811015612cdc578681815181101515612ca657fe5b60200260200101519350835082841015612cc05783925082505b81841115612cce5783915081505b5b8080600101915050612c90565b5080821415612cf657819950505050505050505050612e8b565b60006002860367ffffffffffffffff81118015612d135760006000fd5b50604051908082528060200260200182016040528015612d425781602001602082028036833780820191505090505b509050600094508450600060006000600090505b88811015612de8578981815181101515612d6c57fe5b6020026020010151965086508487148015612d85575082155b15612d9557600192508250612dda565b8587148015612da2575081155b15612db257600191508150612dd9565b868489806001019a50815181101515612dc757fe5b60200260200101909081815260200150505b5b5b8080600101915050612d56565b5060028803975087508298508850505050612c4a565b6001851415612e3257856000815181101515612e1657fe5b60200260200101519950505050505050505050612e8b56612e81565b612e71866001815181101515612e4457fe5b6020026020010151876000815181101515612e5b57fe5b60200260200101516137c490919063ffffffff16565b9950505050505050505050612e8b565b5050505050505050505b92915050565b600460009054906101000a900473ffffffffffffffffffffffffffffffffffffffff1673ffffffffffffffffffffffffffffffffffffffff1663e97dcb626040518163ffffffff1660e01b8152600401600060405180830381600087803b158015612efc5760006000fd5b505af1158015612f11573d600060003e3d6000fd5b50505050600260066000505414151515612f60576040517f08c379a0000000000000000000000000000000000000000000000000000000008152600401612f5790614261565b60405180910390fd5b600260066000508190909055505b565b612f7e61381663ffffffff16565b600060009054906101000a900473ffffffffffffffffffffffffffffffffffffffff1673ffffffffffffffffffffffffffffffffffffffff1663bf86d6906040518163ffffffff1660e01b815260040160206040518083038186803b158015612fe75760006000fd5b505afa158015612ffc573d600060003e3d6000fd5b505050506040513d601f19601f820116820180604052508101906130209190613ae9565b151515613062576040517f08c379a0000000000000000000000000000000000000000000000000000000008152600401613059906141e3565b60405180910390fd5b5b565b600061309182613079612af363ffffffff16565b67ffffffffffffffff1661361590919063ffffffff16565b905080505b919050565b600070010000000000000000000000000000000082101515613128576040517f08c379a00000000000000000000000000000000000000000000000000000000081526004018080602001828103825260128152602001807f6d6f7265207468616e203132382062697473000000000000000000000000000081526020015060200191505060405180910390fd5b819050613130565b919050565b60016006600050819090905550600460009054906101000a900473ffffffffffffffffffffffffffffffffffffffff1673ffffffffffffffffffffffffffffffffffffffff1663e9fad8ee6040518163ffffffff1660e01b8152600401600060405180830381600087803b1580156131ad5760006000fd5b505af11580156131c2573d600060003e3d6000fd5b505050505b565b600060006000600019858709858702925082811083820303915050600081141561320c576000841115156131fd5760006000fd5b838204925082925050506132c3565b808411151561321b5760006000fd5b60008486880990508281118203915080830392506000858660000316905080860495508084049350600181826000030401905080830284179350835060006002876003021890508087026002038102905080508087026002038102905080508087026002038102905080508087026002038102905080508087026002038102905080508087026002038102905080508085029550855085955050505050506132c35650505050505b9392505050565b600060008214806132ea575082828385029250828115156132e757fe5b04145b1515613361576040517f08c379a000000000000000000000000000000000000000000000000000000000815260040180806020018281038252600c8152602001807f6d756c2d6f766572666c6f77000000000000000000000000000000000000000081526020015060200191505060405180910390fd5b5b92915050565b60008183106133775781613379565b825b9050613380565b92915050565b60006133a183670de0b6b3a7640000846131c963ffffffff16565b905080505b92915050565b60006801000000000000000082101515613431576040517f08c379a00000000000000000000000000000000000000000000000000000000081526004018080602001828103825260118152602001807f6d6f7265207468616e203634206269747300000000000000000000000000000081526020015060200191505060405180910390fd5b819050613439565b919050565b60007f8000000000000000000000000000000000000000000000000000000000000000821015156134da576040517f08c379a00000000000000000000000000000000000000000000000000000000081526004018080602001828103825260128152602001807f746f6f2062696720666f7220696e74323536000000000000000000000000000081526020015060200191505060405180910390fd5b8190506134e2565b919050565b600060008284039050600083121580156135015750838113155b80613517575060008312801561351657508381135b5b151561356e576040517f08c379a00000000000000000000000000000000000000000000000000000000081526004018080602001828103825260248152602001806144806024913960400191505060405180910390fd5b8091505061357856505b92915050565b600060008284019050600083121580156135985750838112155b806135ae57506000831280156135ad57508381125b5b1515613605576040517f08c379a000000000000000000000000000000000000000000000000000000000815260040180806020018281038252602181526020018061445f6021913960400191505060405180910390fd5b8091505061360f56505b92915050565b60008267ffffffffffffffff1682840191508167ffffffffffffffff16101515156136ab576040517f08c379a000000000000000000000000000000000000000000000000000000000815260040180806020018281038252600c8152602001807f6164642d6f766572666c6f77000000000000000000000000000000000000000081526020015060200191505060405180910390fd5b5b92915050565b60008282840391508111151515613734576040517f08c379a000000000000000000000000000000000000000000000000000000000815260040180806020018281038252600d8152602001807f7375622d756e646572666c6f770000000000000000000000000000000000000081526020015060200191505060405180910390fd5b5b92915050565b600082828401915081101515156137bd576040517f08c379a000000000000000000000000000000000000000000000000000000000815260040180806020018281038252600c8152602001807f6164642d6f766572666c6f77000000000000000000000000000000000000000081526020015060200191505060405180910390fd5b5b92915050565b600060026002838115156137d457fe5b066002858115156137e157fe5b06018115156137ec57fe5b046002838115156137f957fe5b0460028581151561380657fe5b0401019050613810565b92915050565b600060149054906101000a900460ff16151515613868576040517f08c379a000000000000000000000000000000000000000000000000000000000815260040161385f906142df565b60405180910390fd5b5b565b8280548282559060005260206000209081019282156138e4579160200282015b828111156138e35782518260006101000a81548173ffffffffffffffffffffffffffffffffffffffff021916908373ffffffffffffffffffffffffffffffffffffffff1602179055509160200191906001019061388b565b5b5090506138f191906138f5565b5090565b6138fa565b8082111561391457600081815060009055506001016138fa565b50905661445d565b60008135905080600f0b811415156139345760006000fd5b5b919050565b6000813590506fffffffffffffffffffffffffffffffff8116811415156139615760006000fd5b5b919050565b60008135905067ffffffffffffffff8116811415156139865760006000fd5b5b919050565b6000602080838503121561399e578182fd5b825167ffffffffffffffff8111156139b4578283fd5b808401905084601f82011215156139c9578283fd5b80516139dc6139d782614411565b6143e6565b808282528482019150848401888687860287010111156139fa578687fd5b8694505b83851015613a2b578051613a1181614434565b80845250858301925085810190505b6001850194506139fe565b5080955050505050505b92915050565b6000600060408385031215613a4e578081fd5b823567ffffffffffffffff811115613a64578182fd5b808401905084601f8201121515613a79578182fd5b80356020613a8e613a8983614411565b6143e6565b80838252828201915082850189848587028801011115613aac578687fd5b8695505b84861015613ad25780358352838301925083810190505b600186019550613ab0565b5080965050508086013593505050505b9250929050565b600060208284031215613afa578081fd5b815180151581141515613b0b578182fd5b809150505b92915050565b600060208284031215613b27578081fd5b81357fffffffff00000000000000000000000000000000000000000000000000000000811681141515613b58578182fd5b809150505b92915050565b600060208284031215613b74578081fd5b8151613b7f81614434565b809150505b92915050565b600060208284031215613b9b578081fd5b8135613ba681614434565b809150505b92915050565b600060208284031215613bc2578081fd5b8151613bcd81614434565b809150505b92915050565b600060208284031215613be9578081fd5b8151613bf481614434565b809150505b92915050565b600060208284031215613c10578081fd5b8135613c1b81614434565b809150505b92915050565b600060208284031215613c37578081fd5b8151613c4281614434565b809150505b92915050565b600060208284031215613c5e578081fd5b613c678261391c565b90505b92915050565b600060006000838503610100811215613c87578182fd5b8435935060c07fffffffffffffffffffffffffffffffffffffffffffffffffffffffffffffffe082011215613cba578182fd5b5060405160c0810181811067ffffffffffffffff82111715613cd857fe5b8060405250613ce96020860161393a565b8152613cf76040860161393a565b6020820152613d086060860161393a565b6040820152613d1960808601613967565b6060820152613d2a60a0860161391c565b6080820152613d3b60c0860161391c565b60a08201528092505060e084013590505b9250925092565b600060008284036080811215613d67578283fd5b6060811215613d74578283fd5b506040516060810181811067ffffffffffffffff82111715613d9257fe5b806040525083358152613da760208501613967565b6020820152613db86040850161393a565b604082015280925050613dcd60608401613967565b90505b9250929050565b600060208284031215613de8578081fd5b613df18261393a565b90505b92915050565b600060208284031215613e0b578081fd5b813590505b92915050565b600060208284031215613e27578081fd5b815190505b92915050565b600060208284031215613e43578081fd5b613e4c82613967565b90505b92915050565b60007f6d6178537465707300000000000000000000000000000000000000000000000082526008820190505b919050565b60007f6572726f72496e74657276616c000000000000000000000000000000000000008252600d820190505b919050565b60007f61636365707461626c654572726f7200000000000000000000000000000000008252600f820190505b919050565b60007f6d696e54696d654265747765656e55706461746573000000000000000000000082526015820190505b919050565b60007f6d6178526174650000000000000000000000000000000000000000000000000082526007820190505b919050565b60007f72656d6f76655265666572656e6365506f6f6c0000000000000000000000000082526013820190505b919050565b60007f696e74657265737452617465537465700000000000000000000000000000000082526010820190505b919050565b60007f76616c696452616e6765466f725261775072696365730000000000000000000082526016820190505b919050565b60007f6164645265666572656e6365506f6f6c0000000000000000000000000000000082526010820190505b919050565b60007f6d696e526174650000000000000000000000000000000000000000000000000082526007820190505b919050565b600060208201905073ffffffffffffffffffffffffffffffffffffffff831682525b92915050565b600060408201905073ffffffffffffffffffffffffffffffffffffffff841682526fffffffffffffffffffffffffffffffff831660208301525b9392505050565b600060208201905082151582525b92915050565b600060208201905073ffffffffffffffffffffffffffffffffffffffff831682525b92915050565b600060208201905073ffffffffffffffffffffffffffffffffffffffff831682525b92915050565b600060408201905073ffffffffffffffffffffffffffffffffffffffff8416825282151560208301525b9392505050565b600060208201905082600f0b82525b92915050565b60006020820190508282525b92915050565b60006080820190508582528460208301526fffffffffffffffffffffffffffffffff8416604083015267ffffffffffffffff831660608301525b95945050505050565b600060608201905084825267ffffffffffffffff841660208301526fffffffffffffffffffffffffffffffff831660408301525b949350505050565b600060208252601160208301527f50726f746f636f6c2073687574646f776e00000000000000000000000000000060408301526060820190505b919050565b600060208252600e60208301527f4e6f7420417574686f72697a656400000000000000000000000000000000000060408301526060820190505b919050565b600060208252600d60208301527f4c50205265656e7472616e63790000000000000000000000000000000000000060408301526060820190505b919050565b600060208252601060208301527f557064617465206e6f742072656164790000000000000000000000000000000060408301526060820190505b919050565b600060208252601360208301527f436f6e74726163742069732073746f707065640000000000000000000000000060408301526060820190505b919050565b60006020820190506fffffffffffffffffffffffffffffffff831682525b92915050565b600060c0820190506fffffffffffffffffffffffffffffffff8089168352808816602084015280871660408401525067ffffffffffffffff8516606083015283600f0b608083015282600f0b60a08301525b979650505050505050565b60006020820190508282525b92915050565b60006040820190508382528260208301525b9392505050565b600060208201905067ffffffffffffffff831682525b92915050565b6000604051905081810181811067ffffffffffffffff8211171561440657fe5b80604052505b919050565b600067ffffffffffffffff82111561442557fe5b6020602083020190505b919050565b73ffffffffffffffffffffffffffffffffffffffff8116811415156144595760006000fd5b5b50565bfe5369676e6564536166654d6174683a206164646974696f6e206f766572666c6f775369676e6564536166654d6174683a207375627472616374696f6e206f766572666c6f77a2646970667358221220ffee6e02179fa3017c512e7180b0619d8763336fc8186df84ff93eabbe801fa164736f6c63430007060033",
  "linkReferences": {},
  "deployedLinkReferences": {}
}