{
  "_format": "hh-sol-artifact-1",
  "contractName": "Tcp",
  "sourceName": "contracts/core/governance/Tcp.sol",
  "abi": [
    {
      "inputs": [
        {
          "internalType": "address",
          "name": "governor",
          "type": "address"
        },
        {
          "internalType": "address",
          "name": "dest",
          "type": "address"
        },
        {
          "internalType": "uint256",
          "name": "count",
          "type": "uint256"
        },
        {
          "internalType": "string",
          "name": "name",
          "type": "string"
        },
        {
          "internalType": "string",
          "name": "symbol",
          "type": "string"
        }
      ],
      "stateMutability": "nonpayable",
      "type": "constructor"
    },
    {
      "anonymous": false,
      "inputs": [
        {
          "indexed": true,
          "internalType": "address",
          "name": "owner",
          "type": "address"
        },
        {
          "indexed": true,
          "internalType": "address",
          "name": "spender",
          "type": "address"
        },
        {
          "indexed": false,
          "internalType": "uint256",
          "name": "amount",
          "type": "uint256"
        }
      ],
      "name": "Approval",
      "type": "event"
    },
    {
      "anonymous": false,
      "inputs": [
        {
          "indexed": true,
          "internalType": "address",
          "name": "delegator",
          "type": "address"
        },
        {
          "indexed": true,
          "internalType": "address",
          "name": "fromDelegate",
          "type": "address"
        },
        {
          "indexed": true,
          "internalType": "address",
          "name": "toDelegate",
          "type": "address"
        }
      ],
      "name": "DelegateChanged",
      "type": "event"
    },
    {
      "anonymous": false,
      "inputs": [
        {
          "indexed": true,
          "internalType": "address",
          "name": "delegate",
          "type": "address"
        },
        {
          "indexed": false,
          "internalType": "uint256",
          "name": "previousBalance",
          "type": "uint256"
        },
        {
          "indexed": false,
          "internalType": "uint256",
          "name": "newBalance",
          "type": "uint256"
        }
      ],
      "name": "DelegateVotesChanged",
      "type": "event"
    },
    {
      "anonymous": false,
      "inputs": [
        {
          "indexed": true,
          "internalType": "address",
          "name": "newGovernor",
          "type": "address"
        }
      ],
      "name": "GovernorAdded",
      "type": "event"
    },
    {
      "anonymous": false,
      "inputs": [
        {
          "indexed": true,
          "internalType": "address",
          "name": "from",
          "type": "address"
        },
        {
          "indexed": true,
          "internalType": "address",
          "name": "to",
          "type": "address"
        },
        {
          "indexed": false,
          "internalType": "uint256",
          "name": "amount",
          "type": "uint256"
        }
      ],
      "name": "Transfer",
      "type": "event"
    },
    {
      "inputs": [],
      "name": "DELEGATION_TYPEHASH",
      "outputs": [
        {
          "internalType": "bytes32",
          "name": "",
          "type": "bytes32"
        }
      ],
      "stateMutability": "view",
      "type": "function"
    },
    {
      "inputs": [],
      "name": "DOMAIN_TYPEHASH",
      "outputs": [
        {
          "internalType": "bytes32",
          "name": "",
          "type": "bytes32"
        }
      ],
      "stateMutability": "view",
      "type": "function"
    },
    {
      "inputs": [
        {
          "internalType": "address",
          "name": "newGovernor",
          "type": "address"
        }
      ],
      "name": "addGovernor",
      "outputs": [],
      "stateMutability": "nonpayable",
      "type": "function"
    },
    {
      "inputs": [
        {
          "internalType": "address",
          "name": "account",
          "type": "address"
        },
        {
          "internalType": "address",
          "name": "spender",
          "type": "address"
        }
      ],
      "name": "allowance",
      "outputs": [
        {
          "internalType": "uint256",
          "name": "",
          "type": "uint256"
        }
      ],
      "stateMutability": "view",
      "type": "function"
    },
    {
      "inputs": [
        {
          "internalType": "address",
          "name": "spender",
          "type": "address"
        },
        {
          "internalType": "uint256",
          "name": "amount",
          "type": "uint256"
        }
      ],
      "name": "approve",
      "outputs": [
        {
          "internalType": "bool",
          "name": "",
          "type": "bool"
        }
      ],
      "stateMutability": "nonpayable",
      "type": "function"
    },
    {
      "inputs": [
        {
          "internalType": "address",
          "name": "account",
          "type": "address"
        }
      ],
      "name": "balanceOf",
      "outputs": [
        {
          "internalType": "uint256",
          "name": "",
          "type": "uint256"
        }
      ],
      "stateMutability": "view",
      "type": "function"
    },
    {
      "inputs": [
        {
          "internalType": "uint256",
          "name": "amount",
          "type": "uint256"
        }
      ],
      "name": "burn",
      "outputs": [],
      "stateMutability": "nonpayable",
      "type": "function"
    },
    {
      "inputs": [
        {
          "internalType": "address",
          "name": "account",
          "type": "address"
        },
        {
          "internalType": "uint256",
          "name": "amount",
          "type": "uint256"
        }
      ],
      "name": "burnFrom",
      "outputs": [],
      "stateMutability": "nonpayable",
      "type": "function"
    },
    {
      "inputs": [
        {
          "internalType": "address",
          "name": "",
          "type": "address"
        },
        {
          "internalType": "uint32",
          "name": "",
          "type": "uint32"
        }
      ],
      "name": "checkpoints",
      "outputs": [
        {
          "internalType": "uint32",
          "name": "fromBlock",
          "type": "uint32"
        },
        {
          "internalType": "uint224",
          "name": "votes",
          "type": "uint224"
        }
      ],
      "stateMutability": "view",
      "type": "function"
    },
    {
      "inputs": [],
      "name": "decimals",
      "outputs": [
        {
          "internalType": "uint8",
          "name": "",
          "type": "uint8"
        }
      ],
      "stateMutability": "view",
      "type": "function"
    },
    {
      "inputs": [
        {
          "internalType": "address",
          "name": "spender",
          "type": "address"
        },
        {
          "internalType": "uint256",
          "name": "subtractedValue",
          "type": "uint256"
        }
      ],
      "name": "decreaseAllowance",
      "outputs": [
        {
          "internalType": "bool",
          "name": "",
          "type": "bool"
        }
      ],
      "stateMutability": "nonpayable",
      "type": "function"
    },
    {
      "inputs": [
        {
          "internalType": "address",
          "name": "delegatee",
          "type": "address"
        }
      ],
      "name": "delegate",
      "outputs": [],
      "stateMutability": "nonpayable",
      "type": "function"
    },
    {
      "inputs": [
        {
          "internalType": "address",
          "name": "delegatee",
          "type": "address"
        },
        {
          "internalType": "uint256",
          "name": "nonce",
          "type": "uint256"
        },
        {
          "internalType": "uint256",
          "name": "expiry",
          "type": "uint256"
        },
        {
          "internalType": "uint8",
          "name": "v",
          "type": "uint8"
        },
        {
          "internalType": "bytes32",
          "name": "r",
          "type": "bytes32"
        },
        {
          "internalType": "bytes32",
          "name": "s",
          "type": "bytes32"
        }
      ],
      "name": "delegateBySig",
      "outputs": [],
      "stateMutability": "nonpayable",
      "type": "function"
    },
    {
      "inputs": [
        {
          "internalType": "address",
          "name": "",
          "type": "address"
        }
      ],
      "name": "delegates",
      "outputs": [
        {
          "internalType": "address",
          "name": "",
          "type": "address"
        }
      ],
      "stateMutability": "view",
      "type": "function"
    },
    {
      "inputs": [
        {
          "internalType": "address",
          "name": "account",
          "type": "address"
        }
      ],
      "name": "getCurrentVotes",
      "outputs": [
        {
          "internalType": "uint256",
          "name": "",
          "type": "uint256"
        }
      ],
      "stateMutability": "view",
      "type": "function"
    },
    {
      "inputs": [
        {
          "internalType": "address",
          "name": "account",
          "type": "address"
        },
        {
          "internalType": "uint256",
          "name": "blockNumber",
          "type": "uint256"
        }
      ],
      "name": "getPriorVotes",
      "outputs": [
        {
          "internalType": "uint256",
          "name": "",
          "type": "uint256"
        }
      ],
      "stateMutability": "view",
      "type": "function"
    },
    {
      "inputs": [
        {
          "internalType": "address",
          "name": "",
          "type": "address"
        }
      ],
      "name": "governor",
      "outputs": [
        {
          "internalType": "bool",
          "name": "",
          "type": "bool"
        }
      ],
      "stateMutability": "view",
      "type": "function"
    },
    {
      "inputs": [
        {
          "internalType": "address",
          "name": "spender",
          "type": "address"
        },
        {
          "internalType": "uint256",
          "name": "addedValue",
          "type": "uint256"
        }
      ],
      "name": "increaseAllowance",
      "outputs": [
        {
          "internalType": "bool",
          "name": "",
          "type": "bool"
        }
      ],
      "stateMutability": "nonpayable",
      "type": "function"
    },
    {
      "inputs": [
        {
          "internalType": "address",
          "name": "dest",
          "type": "address"
        },
        {
          "internalType": "uint256",
          "name": "count",
          "type": "uint256"
        }
      ],
      "name": "mintTo",
      "outputs": [],
      "stateMutability": "nonpayable",
      "type": "function"
    },
    {
      "inputs": [],
      "name": "name",
      "outputs": [
        {
          "internalType": "string",
          "name": "",
          "type": "string"
        }
      ],
      "stateMutability": "view",
      "type": "function"
    },
    {
      "inputs": [
        {
          "internalType": "address",
          "name": "",
          "type": "address"
        }
      ],
      "name": "nonces",
      "outputs": [
        {
          "internalType": "uint256",
          "name": "",
          "type": "uint256"
        }
      ],
      "stateMutability": "view",
      "type": "function"
    },
    {
      "inputs": [
        {
          "internalType": "address",
          "name": "",
          "type": "address"
        }
      ],
      "name": "numCheckpoints",
      "outputs": [
        {
          "internalType": "uint32",
          "name": "",
          "type": "uint32"
        }
      ],
      "stateMutability": "view",
      "type": "function"
    },
    {
      "inputs": [],
      "name": "symbol",
      "outputs": [
        {
          "internalType": "string",
          "name": "",
          "type": "string"
        }
      ],
      "stateMutability": "view",
      "type": "function"
    },
    {
      "inputs": [],
      "name": "totalSupply",
      "outputs": [
        {
          "internalType": "uint256",
          "name": "",
          "type": "uint256"
        }
      ],
      "stateMutability": "view",
      "type": "function"
    },
    {
      "inputs": [
        {
          "internalType": "address",
          "name": "dst",
          "type": "address"
        },
        {
          "internalType": "uint256",
          "name": "amount",
          "type": "uint256"
        }
      ],
      "name": "transfer",
      "outputs": [
        {
          "internalType": "bool",
          "name": "",
          "type": "bool"
        }
      ],
      "stateMutability": "nonpayable",
      "type": "function"
    },
    {
      "inputs": [
        {
          "internalType": "address",
          "name": "src",
          "type": "address"
        },
        {
          "internalType": "address",
          "name": "dst",
          "type": "address"
        },
        {
          "internalType": "uint256",
          "name": "amount",
          "type": "uint256"
        }
      ],
      "name": "transferFrom",
      "outputs": [
        {
          "internalType": "bool",
          "name": "",
          "type": "bool"
        }
      ],
      "stateMutability": "nonpayable",
      "type": "function"
    }
  ],
  "bytecode": "0x6080604052600160096000509090553480156200001c5760006000fd5b5060405162004cfb38038062004cfb833981810160405260a0811015620000435760006000fd5b8101908080519060200190929190805190602001909291908051906020019092919080516040519392919084640100000000821115620000835760006000fd5b838201915060208201858111156200009b5760006000fd5b8251866001820283011164010000000082111715620000ba5760006000fd5b8083526020830192505050908051906020019080838360005b83811015620000f15780820151818401525b602081019050620000d3565b50505050905090810190601f1680156200011f5780820380516001836020036101000a031916815260200191505b5060405260200180516040519392919084640100000000821115620001445760006000fd5b838201915060208201858111156200015c5760006000fd5b82518660018202830111640100000000821117156200017b5760006000fd5b8083526020830192505050908051906020019080838360005b83811015620001b25780820151818401525b60208101905062000194565b50505050905090810190601f168015620001e05780820380516001836020036101000a031916815260200191505b506040526020015050505b84848484845b6001600a60005060008773ffffffffffffffffffffffffffffffffffffffff1673ffffffffffffffffffffffffffffffffffffffff16815260200190815260200160002060006101000a81548160ff0219169083151502179055508473ffffffffffffffffffffffffffffffffffffffff167fdc5a48d79e2e147530ff63ecdbed5a5a66adb9d5cf339384d5d076da197c40b560405160405180910390a26000831115620002ac57620002ab8484620002f660201b60201c565b5b8160006000509080519060200190620002c792919062000fc5565b508060016000509080519060200190620002e392919062000fc5565b505b50505050505b505050505062001087565b600073ffffffffffffffffffffffffffffffffffffffff168273ffffffffffffffffffffffffffffffffffffffff16141515156200039f576040517f08c379a000000000000000000000000000000000000000000000000000000000815260040180806020018281038252601f8152602001807f45524332303a206d696e7420746f20746865207a65726f20616464726573730081526020015060200191505060405180910390fd5b620003ef600260005054826040518060400160405280601881526020017f45524332303a206164646974696f6e206f766572666c6f770000000000000000815260200150620005b660201b60201c565b60026000508190909055506200048a600460005060008473ffffffffffffffffffffffffffffffffffffffff1673ffffffffffffffffffffffffffffffffffffffff16815260200190815260200160002060005054826040518060400160405280601881526020017f45524332303a206164646974696f6e206f766572666c6f770000000000000000815260200150620005b660201b60201c565b600460005060008473ffffffffffffffffffffffffffffffffffffffff1673ffffffffffffffffffffffffffffffffffffffff1681526020019081526020016000206000508190909055508173ffffffffffffffffffffffffffffffffffffffff16600073ffffffffffffffffffffffffffffffffffffffff167fddf252ad1be2c89b69c2b068fc378daa952ba7f163c4a11628f55a4df523b3ef836040518082815260200191505060405180910390a3620005b16000600560005060008573ffffffffffffffffffffffffffffffffffffffff1673ffffffffffffffffffffffffffffffffffffffff16815260200190815260200160002060009054906101000a900473ffffffffffffffffffffffffffffffffffffffff16836200068460201b60201c565b5b5050565b600060008385019050848110158390151562000671576040517f08c379a00000000000000000000000000000000000000000000000000000000081526004018080602001828103825283818151815260200191508051906020019080838360005b83811015620006355780820151818401525b60208101905062000617565b50505050905090810190601f168015620006635780820380516001836020036101000a031916815260200191505b509250505060405180910390fd5b50809150506200067d56505b9392505050565b8173ffffffffffffffffffffffffffffffffffffffff168373ffffffffffffffffffffffffffffffffffffffff1614158015620006c15750600081115b1562000a1057600073ffffffffffffffffffffffffffffffffffffffff168373ffffffffffffffffffffffffffffffffffffffff161415156200086b576000600760005060008573ffffffffffffffffffffffffffffffffffffffff1673ffffffffffffffffffffffffffffffffffffffff16815260200190815260200160002060009054906101000a900463ffffffff169050600060008263ffffffff16116200076e57600062000803565b600660005060008673ffffffffffffffffffffffffffffffffffffffff1673ffffffffffffffffffffffffffffffffffffffff16815260200190815260200160002060005060006001840363ffffffff1663ffffffff16815260200190815260200160002060005060000160049054906101000a90047bffffffffffffffffffffffffffffffffffffffffffffffffffffffff165b7bffffffffffffffffffffffffffffffffffffffffffffffffffffffff169050600062000851828560405180606001604052806022815260200162004cb86022913962000a1660201b60201c565b9050620008678684848462000add60201b60201c565b5050505b600073ffffffffffffffffffffffffffffffffffffffff168273ffffffffffffffffffffffffffffffffffffffff1614151562000a0f576000600760005060008473ffffffffffffffffffffffffffffffffffffffff1673ffffffffffffffffffffffffffffffffffffffff16815260200190815260200160002060009054906101000a900463ffffffff169050600060008263ffffffff161162000912576000620009a7565b600660005060008573ffffffffffffffffffffffffffffffffffffffff1673ffffffffffffffffffffffffffffffffffffffff16815260200190815260200160002060005060006001840363ffffffff1663ffffffff16815260200190815260200160002060005060000160049054906101000a90047bffffffffffffffffffffffffffffffffffffffffffffffffffffffff165b7bffffffffffffffffffffffffffffffffffffffffffffffffffffffff1690506000620009f5828560405180606001604052806021815260200162004cda60219139620005b660201b60201c565b905062000a0b8584848462000add60201b60201c565b5050505b5b5b505050565b6000838311158290151562000aca576040517f08c379a00000000000000000000000000000000000000000000000000000000081526004018080602001828103825283818151815260200191508051906020019080838360005b8381101562000a8e5780820151818401525b60208101905062000a70565b50505050905090810190601f16801562000abc5780820380516001836020036101000a031916815260200191505b509250505060405180910390fd5b50828403905062000ad6565b9392505050565b600062000b0a436040518060600160405280602e815260200162004c8a602e913962000e7460201b60201c565b905060008463ffffffff1611801562000ba957508063ffffffff16600660005060008773ffffffffffffffffffffffffffffffffffffffff1673ffffffffffffffffffffffffffffffffffffffff16815260200190815260200160002060005060006001870363ffffffff1663ffffffff16815260200190815260200160002060005060000160009054906101000a900463ffffffff1663ffffffff16145b1562000c7f5762000bc08262000f3c60201b60201c565b600660005060008773ffffffffffffffffffffffffffffffffffffffff1673ffffffffffffffffffffffffffffffffffffffff16815260200190815260200160002060005060006001870363ffffffff1663ffffffff16815260200190815260200160002060005060000160046101000a8154817bffffffffffffffffffffffffffffffffffffffffffffffffffffffff02191690837bffffffffffffffffffffffffffffffffffffffffffffffffffffffff16021790555062000e16565b60405180604001604052808263ffffffff16815260200162000ca78462000f3c60201b60201c565b7bffffffffffffffffffffffffffffffffffffffffffffffffffffffff16815260200150600660005060008773ffffffffffffffffffffffffffffffffffffffff1673ffffffffffffffffffffffffffffffffffffffff16815260200190815260200160002060005060008663ffffffff1663ffffffff16815260200190815260200160002060005060008201518160000160006101000a81548163ffffffff021916908363ffffffff16021790555060208201518160000160046101000a8154817bffffffffffffffffffffffffffffffffffffffffffffffffffffffff02191690837bffffffffffffffffffffffffffffffffffffffffffffffffffffffff16021790555090505060018401600760005060008773ffffffffffffffffffffffffffffffffffffffff1673ffffffffffffffffffffffffffffffffffffffff16815260200190815260200160002060006101000a81548163ffffffff021916908363ffffffff1602179055505b8473ffffffffffffffffffffffffffffffffffffffff167fdec2bacdd2f05b59de34da9b523dff8be42e5e38e818c82fdb0bae774387a7248484604051808381526020018281526020019250505060405180910390a2505b50505050565b600064010000000083108290151562000f2c576040517f08c379a00000000000000000000000000000000000000000000000000000000081526004018080602001828103825283818151815260200191508051906020019080838360005b8381101562000ef05780820151818401525b60208101905062000ed2565b50505050905090810190601f16801562000f1e5780820380516001836020036101000a031916815260200191505b509250505060405180910390fd5b5082905062000f36565b92915050565b60007c01000000000000000000000000000000000000000000000000000000008210151562000fb7576040517f08c379a000000000000000000000000000000000000000000000000000000000815260040180806020018281038252602781526020018062004c636027913960400191505060405180910390fd5b81905062000fc0565b919050565b828054600181600116156101000203166002900490600052602060002090601f01602090048101928262000ffd57600085556200104e565b82601f106200101857805160ff19168380011785556200104e565b828001600101855582156200104e579182015b828111156200104d57825182600050909055916020019190600101906200102b565b5b5090506200105d919062001061565b5090565b62001067565b8082111562001083576000818150600090555060010162001067565b5090565b613bcc80620010976000396000f3fe60806040523480156100115760006000fd5b50600436106101b35760003560e01c806370a08231116100ef578063a457c2d711610098578063c3cda52011610072578063c3cda52014610929578063dd62ed3e146109ab578063e7a324dc14610a24578063f1127ed814610a46576101b3565b8063a457c2d714610806578063a9059cbb1461086b578063b4b5ea57146108d0576101b3565b806379cc6790116100c957806379cc6790146106da5780637ecebe001461072957806395d89b4114610782576101b3565b806370a08231146105c357806370ec42e81461061c578063782d6fe114610677576101b3565b8063395093511161015c578063449a52f811610136578063449a52f814610461578063587cde1e146104b05780635c19a95c1461051f5780636fcfff4514610564576101b3565b806339509351146103885780633c4a25d0146103ed57806342966c6814610432576101b3565b806320606b701161018d57806320606b70146102c057806323b872dd146102e2578063313ce56714610367576101b3565b806306fdde03146101b9578063095ea7b31461023d57806318160ddd146102a2576101b3565b60006000fd5b6101c1610ada565b6040518080602001828103825283818151815260200191508051906020019080838360005b838110156102025780820151818401525b6020810190506101e6565b50505050905090810190601f16801561022f5780820380516001836020036101000a031916815260200191505b509250505060405180910390f35b61028a600480360360408110156102545760006000fd5b81019080803573ffffffffffffffffffffffffffffffffffffffff16906020019092919080359060200190929190505050610b7b565b60405180821515815260200191505060405180910390f35b6102aa610d05565b6040518082815260200191505060405180910390f35b6102c8610d0e565b604051808260001916815260200191505060405180910390f35b61034f600480360360608110156102f95760006000fd5b81019080803573ffffffffffffffffffffffffffffffffffffffff169060200190929190803573ffffffffffffffffffffffffffffffffffffffff16906020019092919080359060200190929190505050610d32565b60405180821515815260200191505060405180910390f35b61036f610f69565b604051808260ff16815260200191505060405180910390f35b6103d56004803603604081101561039f5760006000fd5b81019080803573ffffffffffffffffffffffffffffffffffffffff16906020019092919080359060200190929190505050610f6e565b60405180821515815260200191505060405180910390f35b610430600480360360208110156104045760006000fd5b81019080803573ffffffffffffffffffffffffffffffffffffffff16906020019092919050505061103d565b005b61045f600480360360208110156104495760006000fd5b81019080803590602001909291905050506111a7565b005b6104ae600480360360408110156104785760006000fd5b81019080803573ffffffffffffffffffffffffffffffffffffffff169060200190929190803590602001909291905050506111bb565b005b6104f3600480360360208110156104c75760006000fd5b81019080803573ffffffffffffffffffffffffffffffffffffffff169060200190929190505050611333565b604051808273ffffffffffffffffffffffffffffffffffffffff16815260200191505060405180910390f35b610562600480360360208110156105365760006000fd5b81019080803573ffffffffffffffffffffffffffffffffffffffff16906020019092919050505061136b565b005b6105a76004803603602081101561057b5760006000fd5b81019080803573ffffffffffffffffffffffffffffffffffffffff169060200190929190505050611383565b604051808263ffffffff16815260200191505060405180910390f35b610606600480360360208110156105da5760006000fd5b81019080803573ffffffffffffffffffffffffffffffffffffffff1690602001909291905050506113ab565b6040518082815260200191505060405180910390f35b61065f600480360360208110156106335760006000fd5b81019080803573ffffffffffffffffffffffffffffffffffffffff1690602001909291905050506113ff565b60405180821515815260200191505060405180910390f35b6106c46004803603604081101561068e5760006000fd5b81019080803573ffffffffffffffffffffffffffffffffffffffff16906020019092919080359060200190929190505050611424565b6040518082815260200191505060405180910390f35b610727600480360360408110156106f15760006000fd5b81019080803573ffffffffffffffffffffffffffffffffffffffff1690602001909291908035906020019092919050505061193c565b005b61076c600480360360208110156107405760006000fd5b81019080803573ffffffffffffffffffffffffffffffffffffffff169060200190929190505050611a15565b6040518082815260200191505060405180910390f35b61078a611a30565b6040518080602001828103825283818151815260200191508051906020019080838360005b838110156107cb5780820151818401525b6020810190506107af565b50505050905090810190601f1680156107f85780820380516001836020036101000a031916815260200191505b509250505060405180910390f35b6108536004803603604081101561081d5760006000fd5b81019080803573ffffffffffffffffffffffffffffffffffffffff16906020019092919080359060200190929190505050611ad1565b60405180821515815260200191505060405180910390f35b6108b8600480360360408110156108825760006000fd5b81019080803573ffffffffffffffffffffffffffffffffffffffff16906020019092919080359060200190929190505050611ba0565b60405180821515815260200191505060405180910390f35b610913600480360360208110156108e75760006000fd5b81019080803573ffffffffffffffffffffffffffffffffffffffff169060200190929190505050611bc2565b6040518082815260200191505060405180910390f35b6109a9600480360360c08110156109405760006000fd5b81019080803573ffffffffffffffffffffffffffffffffffffffff1690602001909291908035906020019092919080359060200190929190803560ff16906020019092919080356000191690602001909291908035600019169060200190929190505050611cf1565b005b610a0e600480360360408110156109c25760006000fd5b81019080803573ffffffffffffffffffffffffffffffffffffffff169060200190929190803573ffffffffffffffffffffffffffffffffffffffff169060200190929190505050612159565b6040518082815260200191505060405180910390f35b610a2c6121ee565b604051808260001916815260200191505060405180910390f35b610a9960048036036040811015610a5d5760006000fd5b81019080803573ffffffffffffffffffffffffffffffffffffffff169060200190929190803563ffffffff169060200190929190505050612212565b604051808363ffffffff168152602001827bffffffffffffffffffffffffffffffffffffffffffffffffffffffff1681526020019250505060405180910390f35b60006000508054600181600116156101000203166002900480601f016020809104026020016040519081016040528092919081815260200182805460018160011615610100020316600290048015610b735780601f10610b4857610100808354040283529160200191610b73565b820191906000526020600020905b815481529060010190602001808311610b5657829003601f168201915b505050505081565b6000600073ffffffffffffffffffffffffffffffffffffffff168373ffffffffffffffffffffffffffffffffffffffff1614151515610c05576040517f08c379a00000000000000000000000000000000000000000000000000000000081526004018080602001828103825260228152602001806139936022913960400191505060405180910390fd5b81600360005060003373ffffffffffffffffffffffffffffffffffffffff1673ffffffffffffffffffffffffffffffffffffffff16815260200190815260200160002060005060008573ffffffffffffffffffffffffffffffffffffffff1673ffffffffffffffffffffffffffffffffffffffff1681526020019081526020016000206000508190909055508273ffffffffffffffffffffffffffffffffffffffff163373ffffffffffffffffffffffffffffffffffffffff167f8c5be1e5ebec7d5bd14f71427d1e84f3dd0314c0f7b2291e5b200ac8c7c3b925846040518082815260200191505060405180910390a360019050610cff565b92915050565b60026000505481565b7f8cad95687ba82c2ce50e74f7b754645e5117c3a5bec8151c0726d5857980a86681565b600060003390506000600360005060008773ffffffffffffffffffffffffffffffffffffffff1673ffffffffffffffffffffffffffffffffffffffff16815260200190815260200160002060005060008373ffffffffffffffffffffffffffffffffffffffff1673ffffffffffffffffffffffffffffffffffffffff168152602001908152602001600020600050549050610dd486868661228163ffffffff16565b8573ffffffffffffffffffffffffffffffffffffffff168273ffffffffffffffffffffffffffffffffffffffff1614158015610e3057507fffffffffffffffffffffffffffffffffffffffffffffffffffffffffffffffff8114155b15610f55576000610e608286604051806060016040528060288152602001613a246028913961266363ffffffff16565b905080600360005060008973ffffffffffffffffffffffffffffffffffffffff1673ffffffffffffffffffffffffffffffffffffffff16815260200190815260200160002060005060008573ffffffffffffffffffffffffffffffffffffffff1673ffffffffffffffffffffffffffffffffffffffff1681526020019081526020016000206000508190909055508273ffffffffffffffffffffffffffffffffffffffff168773ffffffffffffffffffffffffffffffffffffffff167f8c5be1e5ebec7d5bd14f71427d1e84f3dd0314c0f7b2291e5b200ac8c7c3b925836040518082815260200191505060405180910390a3505b600192505050610f625650505b9392505050565b601281565b600061102e3384611023600360005060003373ffffffffffffffffffffffffffffffffffffffff1673ffffffffffffffffffffffffffffffffffffffff16815260200190815260200160002060005060008873ffffffffffffffffffffffffffffffffffffffff1673ffffffffffffffffffffffffffffffffffffffff16815260200190815260200160002060005054866040518060600160405280602281526020016139b56022913961272563ffffffff16565b6127ee63ffffffff16565b60019050611037565b92915050565b600a60005060003373ffffffffffffffffffffffffffffffffffffffff1673ffffffffffffffffffffffffffffffffffffffff16815260200190815260200160002060009054906101000a900460ff161515611104576040517f08c379a000000000000000000000000000000000000000000000000000000000815260040180806020018281038252600e8152602001807f4e6f7420417574686f72697a656400000000000000000000000000000000000081526020015060200191505060405180910390fd5b6001600a60005060008373ffffffffffffffffffffffffffffffffffffffff1673ffffffffffffffffffffffffffffffffffffffff16815260200190815260200160002060006101000a81548160ff0219169083151502179055508073ffffffffffffffffffffffffffffffffffffffff167fdc5a48d79e2e147530ff63ecdbed5a5a66adb9d5cf339384d5d076da197c40b560405160405180910390a25b5b50565b6111b733826129f563ffffffff16565b5b50565b600160096000505414151561123b576040517f08c379a00000000000000000000000000000000000000000000000000000000081526004018080602001828103825260068152602001807f4c4f434b4544000000000000000000000000000000000000000000000000000081526020015060200191505060405180910390fd5b60006009600050819090905550600a60005060003373ffffffffffffffffffffffffffffffffffffffff1673ffffffffffffffffffffffffffffffffffffffff16815260200190815260200160002060009054906101000a900460ff16151561130f576040517f08c379a000000000000000000000000000000000000000000000000000000000815260040180806020018281038252600e8152602001807f4e6f7420417574686f72697a656400000000000000000000000000000000000081526020015060200191505060405180910390fd5b61131f8282612c4e63ffffffff16565b5b5b600160096000508190909055505b5050565b600560005060205280600052604060002060009150909054906101000a900473ffffffffffffffffffffffffffffffffffffffff1681565b61137b3382612f0763ffffffff16565b611380565b50565b600760005060205280600052604060002060009150909054906101000a900463ffffffff1681565b6000600460005060008373ffffffffffffffffffffffffffffffffffffffff1673ffffffffffffffffffffffffffffffffffffffff1681526020019081526020016000206000505490506113fa565b919050565b600a60005060205280600052604060002060009150909054906101000a900460ff1681565b60004382101515611480576040517f08c379a000000000000000000000000000000000000000000000000000000000815260040180806020018281038252602181526020018061392d6021913960400191505060405180910390fd5b6000600760005060008573ffffffffffffffffffffffffffffffffffffffff1673ffffffffffffffffffffffffffffffffffffffff16815260200190815260200160002060009054906101000a900463ffffffff16905060008163ffffffff1614156114f0576000915050611936565b82600660005060008673ffffffffffffffffffffffffffffffffffffffff1673ffffffffffffffffffffffffffffffffffffffff16815260200190815260200160002060005060006001840363ffffffff1663ffffffff16815260200190815260200160002060005060000160009054906101000a900463ffffffff1663ffffffff1611151561163457600660005060008573ffffffffffffffffffffffffffffffffffffffff1673ffffffffffffffffffffffffffffffffffffffff16815260200190815260200160002060005060006001830363ffffffff1663ffffffff16815260200190815260200160002060005060000160049054906101000a90047bffffffffffffffffffffffffffffffffffffffffffffffffffffffff167bffffffffffffffffffffffffffffffffffffffffffffffffffffffff16915050611936565b82600660005060008673ffffffffffffffffffffffffffffffffffffffff1673ffffffffffffffffffffffffffffffffffffffff1681526020019081526020016000206000506000600063ffffffff16815260200190815260200160002060005060000160009054906101000a900463ffffffff1663ffffffff1611156116bf576000915050611936565b60006000905060006001830390505b8163ffffffff168163ffffffff16111561187a576000600283830363ffffffff168115156116f857fe5b04820390506000600660005060008973ffffffffffffffffffffffffffffffffffffffff1673ffffffffffffffffffffffffffffffffffffffff16815260200190815260200160002060005060008363ffffffff1663ffffffff1681526020019081526020016000206000506040518060400160405290816000820160009054906101000a900463ffffffff1663ffffffff1663ffffffff1681526020016000820160049054906101000a90047bffffffffffffffffffffffffffffffffffffffffffffffffffffffff167bffffffffffffffffffffffffffffffffffffffffffffffffffffffff167bffffffffffffffffffffffffffffffffffffffffffffffffffffffff1681526020015050905086816000015163ffffffff16141561184d5780602001517bffffffffffffffffffffffffffffffffffffffffffffffffffffffff169550505050505061193656611873565b86816000015163ffffffff161015611869578193508350611872565b60018203925082505b5b50506116ce565b600660005060008773ffffffffffffffffffffffffffffffffffffffff1673ffffffffffffffffffffffffffffffffffffffff16815260200190815260200160002060005060008363ffffffff1663ffffffff16815260200190815260200160002060005060000160049054906101000a90047bffffffffffffffffffffffffffffffffffffffffffffffffffffffff167bffffffffffffffffffffffffffffffffffffffffffffffffffffffff169350505050611936565050505b92915050565b60006119ec600360005060008573ffffffffffffffffffffffffffffffffffffffff1673ffffffffffffffffffffffffffffffffffffffff16815260200190815260200160002060005060003373ffffffffffffffffffffffffffffffffffffffff1673ffffffffffffffffffffffffffffffffffffffff1681526020019081526020016000206000505483604051806060016040528060248152602001613a736024913961266363ffffffff16565b90506119ff8333836127ee63ffffffff16565b611a0f83836129f563ffffffff16565b505b5050565b60086000506020528060005260406000206000915090505481565b60016000508054600181600116156101000203166002900480601f016020809104026020016040519081016040528092919081815260200182805460018160011615610100020316600290048015611ac95780601f10611a9e57610100808354040283529160200191611ac9565b820191906000526020600020905b815481529060010190602001808311611aac57829003601f168201915b505050505081565b6000611b913384611b86600360005060003373ffffffffffffffffffffffffffffffffffffffff1673ffffffffffffffffffffffffffffffffffffffff16815260200190815260200160002060005060008873ffffffffffffffffffffffffffffffffffffffff1673ffffffffffffffffffffffffffffffffffffffff1681526020019081526020016000206000505486604051806060016040528060258152602001613b726025913961266363ffffffff16565b6127ee63ffffffff16565b60019050611b9a565b92915050565b6000611bb333848461228163ffffffff16565b60019050611bbc565b92915050565b60006000600760005060008473ffffffffffffffffffffffffffffffffffffffff1673ffffffffffffffffffffffffffffffffffffffff16815260200190815260200160002060009054906101000a900463ffffffff16905060008163ffffffff1611611c30576000611cc5565b600660005060008473ffffffffffffffffffffffffffffffffffffffff1673ffffffffffffffffffffffffffffffffffffffff16815260200190815260200160002060005060006001830363ffffffff1663ffffffff16815260200190815260200160002060005060000160049054906101000a90047bffffffffffffffffffffffffffffffffffffffffffffffffffffffff165b7bffffffffffffffffffffffffffffffffffffffffffffffffffffffff16915050611cec56505b919050565b60007f8cad95687ba82c2ce50e74f7b754645e5117c3a5bec8151c0726d5857980a86660006000506040518082805460018160011615610100020316600290048015611d745780601f10611d52576101008083540402835291820191611d74565b820191906000526020600020905b815481529060010190602001808311611d60575b50509150506040518091039020611d8f6130c263ffffffff16565b306040516020018085600019168152602001846000191681526020018381526020018273ffffffffffffffffffffffffffffffffffffffff16815260200194505050505060405160208183030381529060405280519060200120905060007fe48329057bfd03d55e49b547132e39cffd9c1820ad7b9d4c5307691425d15adf88888860405160200180856000191681526020018473ffffffffffffffffffffffffffffffffffffffff1681526020018381526020018281526020019450505050506040516020818303038152906040528051906020012090506000828260405160200180807f190100000000000000000000000000000000000000000000000000000000000081526020015060020183600019168152602001826000191681526020019250505060405160208183030381529060405280519060200120905060006001828888886040516000815260200160405260405180856000191681526020018460ff16815260200183600019168152602001826000191681526020019450505050506020604051602081039080840390855afa158015611f37573d600060003e3d6000fd5b505050602060405103519050600073ffffffffffffffffffffffffffffffffffffffff168173ffffffffffffffffffffffffffffffffffffffff1614151515611feb576040517f08c379a00000000000000000000000000000000000000000000000000000000081526004018080602001828103825260208152602001807f64656c656761746542795369673a20696e76616c6964207369676e617475726581526020015060200191505060405180910390fd5b600860005060008273ffffffffffffffffffffffffffffffffffffffff1673ffffffffffffffffffffffffffffffffffffffff16815260200190815260200160002060008181505480929190600101919050909055891415156120b9576040517f08c379a000000000000000000000000000000000000000000000000000000000815260040180806020018281038252601c8152602001807f64656c656761746542795369673a20696e76616c6964206e6f6e63650000000081526020015060200191505060405180910390fd5b874211151515612134576040517f08c379a00000000000000000000000000000000000000000000000000000000081526004018080602001828103825260208152602001807f64656c656761746542795369673a207369676e6174757265206578706972656481526020015060200191505060405180910390fd5b612144818b612f0763ffffffff16565b5050505061215156505050505b505050505050565b6000600360005060008473ffffffffffffffffffffffffffffffffffffffff1673ffffffffffffffffffffffffffffffffffffffff16815260200190815260200160002060005060008373ffffffffffffffffffffffffffffffffffffffff1673ffffffffffffffffffffffffffffffffffffffff1681526020019081526020016000206000505490506121e8565b92915050565b7fe48329057bfd03d55e49b547132e39cffd9c1820ad7b9d4c5307691425d15adf81565b6006600050602052816000526040600020600050602052806000526040600020600091509150508060000160009054906101000a900463ffffffff16908060000160049054906101000a90047bffffffffffffffffffffffffffffffffffffffffffffffffffffffff16905082565b600073ffffffffffffffffffffffffffffffffffffffff168373ffffffffffffffffffffffffffffffffffffffff1614151515612309576040517f08c379a0000000000000000000000000000000000000000000000000000000008152600401808060200182810382526025815260200180613ae66025913960400191505060405180910390fd5b600073ffffffffffffffffffffffffffffffffffffffff168273ffffffffffffffffffffffffffffffffffffffff1614151515612391576040517f08c379a000000000000000000000000000000000000000000000000000000000815260040180806020018281038252602381526020018061394e6023913960400191505060405180910390fd5b6123ff600460005060008573ffffffffffffffffffffffffffffffffffffffff1673ffffffffffffffffffffffffffffffffffffffff16815260200190815260200160002060005054826040518060600160405280602681526020016139d76026913961266363ffffffff16565b600460005060008573ffffffffffffffffffffffffffffffffffffffff1673ffffffffffffffffffffffffffffffffffffffff1681526020019081526020016000206000508190909055506124d8600460005060008473ffffffffffffffffffffffffffffffffffffffff1673ffffffffffffffffffffffffffffffffffffffff16815260200190815260200160002060005054826040518060400160405280602081526020017f45524332303a207472616e7366657220616d6f756e74206f766572666c6f777381526020015061272563ffffffff16565b600460005060008473ffffffffffffffffffffffffffffffffffffffff1673ffffffffffffffffffffffffffffffffffffffff1681526020019081526020016000206000508190909055508173ffffffffffffffffffffffffffffffffffffffff168373ffffffffffffffffffffffffffffffffffffffff167fddf252ad1be2c89b69c2b068fc378daa952ba7f163c4a11628f55a4df523b3ef836040518082815260200191505060405180910390a361265d600560005060008573ffffffffffffffffffffffffffffffffffffffff1673ffffffffffffffffffffffffffffffffffffffff16815260200190815260200160002060009054906101000a900473ffffffffffffffffffffffffffffffffffffffff16600560005060008573ffffffffffffffffffffffffffffffffffffffff1673ffffffffffffffffffffffffffffffffffffffff16815260200190815260200160002060009054906101000a900473ffffffffffffffffffffffffffffffffffffffff16836130d663ffffffff16565b5b505050565b60008383111582901515612713576040517f08c379a00000000000000000000000000000000000000000000000000000000081526004018080602001828103825283818151815260200191508051906020019080838360005b838110156126d85780820151818401525b6020810190506126bc565b50505050905090810190601f1680156127055780820380516001836020036101000a031916815260200191505b509250505060405180910390fd5b50828403905061271e565b9392505050565b60006000838501905084811015839015156127dc576040517f08c379a00000000000000000000000000000000000000000000000000000000081526004018080602001828103825283818151815260200191508051906020019080838360005b838110156127a15780820151818401525b602081019050612785565b50505050905090810190601f1680156127ce5780820380516001836020036101000a031916815260200191505b509250505060405180910390fd5b50809150506127e756505b9392505050565b600073ffffffffffffffffffffffffffffffffffffffff168373ffffffffffffffffffffffffffffffffffffffff1614151515612876576040517f08c379a0000000000000000000000000000000000000000000000000000000008152600401808060200182810382526024815260200180613b0b6024913960400191505060405180910390fd5b600073ffffffffffffffffffffffffffffffffffffffff168273ffffffffffffffffffffffffffffffffffffffff16141515156128fe576040517f08c379a00000000000000000000000000000000000000000000000000000000081526004018080602001828103825260228152602001806139936022913960400191505060405180910390fd5b80600360005060008573ffffffffffffffffffffffffffffffffffffffff1673ffffffffffffffffffffffffffffffffffffffff16815260200190815260200160002060005060008473ffffffffffffffffffffffffffffffffffffffff1673ffffffffffffffffffffffffffffffffffffffff1681526020019081526020016000206000508190909055508173ffffffffffffffffffffffffffffffffffffffff168373ffffffffffffffffffffffffffffffffffffffff167f8c5be1e5ebec7d5bd14f71427d1e84f3dd0314c0f7b2291e5b200ac8c7c3b925836040518082815260200191505060405180910390a35b505050565b600073ffffffffffffffffffffffffffffffffffffffff168273ffffffffffffffffffffffffffffffffffffffff1614151515612a7d576040517f08c379a0000000000000000000000000000000000000000000000000000000008152600401808060200182810382526021815260200180613ac56021913960400191505060405180910390fd5b612aeb600460005060008473ffffffffffffffffffffffffffffffffffffffff1673ffffffffffffffffffffffffffffffffffffffff16815260200190815260200160002060005054826040518060600160405280602281526020016139716022913961266363ffffffff16565b600460005060008473ffffffffffffffffffffffffffffffffffffffff1673ffffffffffffffffffffffffffffffffffffffff168152602001908152602001600020600050819090905550612b64600260005054826040518060600160405280602781526020016139fd6027913961266363ffffffff16565b6002600050819090905550600073ffffffffffffffffffffffffffffffffffffffff168273ffffffffffffffffffffffffffffffffffffffff167fddf252ad1be2c89b69c2b068fc378daa952ba7f163c4a11628f55a4df523b3ef836040518082815260200191505060405180910390a3612c49600560005060008473ffffffffffffffffffffffffffffffffffffffff1673ffffffffffffffffffffffffffffffffffffffff16815260200190815260200160002060009054906101000a900473ffffffffffffffffffffffffffffffffffffffff166000836130d663ffffffff16565b5b5050565b600073ffffffffffffffffffffffffffffffffffffffff168273ffffffffffffffffffffffffffffffffffffffff1614151515612cf6576040517f08c379a000000000000000000000000000000000000000000000000000000000815260040180806020018281038252601f8152602001807f45524332303a206d696e7420746f20746865207a65726f20616464726573730081526020015060200191505060405180910390fd5b612d44600260005054826040518060400160405280601881526020017f45524332303a206164646974696f6e206f766572666c6f77000000000000000081526020015061272563ffffffff16565b6002600050819090905550612ddd600460005060008473ffffffffffffffffffffffffffffffffffffffff1673ffffffffffffffffffffffffffffffffffffffff16815260200190815260200160002060005054826040518060400160405280601881526020017f45524332303a206164646974696f6e206f766572666c6f77000000000000000081526020015061272563ffffffff16565b600460005060008473ffffffffffffffffffffffffffffffffffffffff1673ffffffffffffffffffffffffffffffffffffffff1681526020019081526020016000206000508190909055508173ffffffffffffffffffffffffffffffffffffffff16600073ffffffffffffffffffffffffffffffffffffffff167fddf252ad1be2c89b69c2b068fc378daa952ba7f163c4a11628f55a4df523b3ef836040518082815260200191505060405180910390a3612f026000600560005060008573ffffffffffffffffffffffffffffffffffffffff1673ffffffffffffffffffffffffffffffffffffffff16815260200190815260200160002060009054906101000a900473ffffffffffffffffffffffffffffffffffffffff16836130d663ffffffff16565b5b5050565b6000600560005060008473ffffffffffffffffffffffffffffffffffffffff1673ffffffffffffffffffffffffffffffffffffffff16815260200190815260200160002060009054906101000a900473ffffffffffffffffffffffffffffffffffffffff1690506000600460005060008573ffffffffffffffffffffffffffffffffffffffff1673ffffffffffffffffffffffffffffffffffffffff16815260200190815260200160002060005054905082600560005060008673ffffffffffffffffffffffffffffffffffffffff1673ffffffffffffffffffffffffffffffffffffffff16815260200190815260200160002060006101000a81548173ffffffffffffffffffffffffffffffffffffffff021916908373ffffffffffffffffffffffffffffffffffffffff1602179055508273ffffffffffffffffffffffffffffffffffffffff168273ffffffffffffffffffffffffffffffffffffffff168573ffffffffffffffffffffffffffffffffffffffff167f3134e8a2e6d97e929a7e54011ea5485d7d196dd5f0ba4d4ef95803e8e3fc257f60405160405180910390a46130bb8284836130d663ffffffff16565b50505b5050565b60006000469050809150506130d356505b90565b8173ffffffffffffffffffffffffffffffffffffffff168373ffffffffffffffffffffffffffffffffffffffff16141580156131125750600081115b1561345057600073ffffffffffffffffffffffffffffffffffffffff168373ffffffffffffffffffffffffffffffffffffffff161415156132b3576000600760005060008573ffffffffffffffffffffffffffffffffffffffff1673ffffffffffffffffffffffffffffffffffffffff16815260200190815260200160002060009054906101000a900463ffffffff169050600060008263ffffffff16116131bb576000613250565b600660005060008673ffffffffffffffffffffffffffffffffffffffff1673ffffffffffffffffffffffffffffffffffffffff16815260200190815260200160002060005060006001840363ffffffff1663ffffffff16815260200190815260200160002060005060000160049054906101000a90047bffffffffffffffffffffffffffffffffffffffffffffffffffffffff165b7bffffffffffffffffffffffffffffffffffffffffffffffffffffffff169050600061329b8285604051806060016040528060228152602001613b2f6022913961266363ffffffff16565b90506132af8684848461345663ffffffff16565b5050505b600073ffffffffffffffffffffffffffffffffffffffff168273ffffffffffffffffffffffffffffffffffffffff1614151561344f576000600760005060008473ffffffffffffffffffffffffffffffffffffffff1673ffffffffffffffffffffffffffffffffffffffff16815260200190815260200160002060009054906101000a900463ffffffff169050600060008263ffffffff16116133575760006133ec565b600660005060008573ffffffffffffffffffffffffffffffffffffffff1673ffffffffffffffffffffffffffffffffffffffff16815260200190815260200160002060005060006001840363ffffffff1663ffffffff16815260200190815260200160002060005060000160049054906101000a90047bffffffffffffffffffffffffffffffffffffffffffffffffffffffff165b7bffffffffffffffffffffffffffffffffffffffffffffffffffffffff16905060006134378285604051806060016040528060218152602001613b516021913961272563ffffffff16565b905061344b8584848461345663ffffffff16565b5050505b5b5b505050565b6000613480436040518060600160405280602e8152602001613a97602e91396137e363ffffffff16565b905060008463ffffffff1611801561351e57508063ffffffff16600660005060008773ffffffffffffffffffffffffffffffffffffffff1673ffffffffffffffffffffffffffffffffffffffff16815260200190815260200160002060005060006001870363ffffffff1663ffffffff16815260200190815260200160002060005060000160009054906101000a900463ffffffff1663ffffffff16145b156135f057613532826138a663ffffffff16565b600660005060008773ffffffffffffffffffffffffffffffffffffffff1673ffffffffffffffffffffffffffffffffffffffff16815260200190815260200160002060005060006001870363ffffffff1663ffffffff16815260200190815260200160002060005060000160046101000a8154817bffffffffffffffffffffffffffffffffffffffffffffffffffffffff02191690837bffffffffffffffffffffffffffffffffffffffffffffffffffffffff160217905550613785565b60405180604001604052808263ffffffff168152602001613616846138a663ffffffff16565b7bffffffffffffffffffffffffffffffffffffffffffffffffffffffff16815260200150600660005060008773ffffffffffffffffffffffffffffffffffffffff1673ffffffffffffffffffffffffffffffffffffffff16815260200190815260200160002060005060008663ffffffff1663ffffffff16815260200190815260200160002060005060008201518160000160006101000a81548163ffffffff021916908363ffffffff16021790555060208201518160000160046101000a8154817bffffffffffffffffffffffffffffffffffffffffffffffffffffffff02191690837bffffffffffffffffffffffffffffffffffffffffffffffffffffffff16021790555090505060018401600760005060008773ffffffffffffffffffffffffffffffffffffffff1673ffffffffffffffffffffffffffffffffffffffff16815260200190815260200160002060006101000a81548163ffffffff021916908363ffffffff1602179055505b8473ffffffffffffffffffffffffffffffffffffffff167fdec2bacdd2f05b59de34da9b523dff8be42e5e38e818c82fdb0bae774387a7248484604051808381526020018281526020019250505060405180910390a2505b50505050565b6000640100000000831082901515613897576040517f08c379a00000000000000000000000000000000000000000000000000000000081526004018080602001828103825283818151815260200191508051906020019080838360005b8381101561385c5780820151818401525b602081019050613840565b50505050905090810190601f1680156138895780820380516001836020036101000a031916815260200191505b509250505060405180910390fd5b508290506138a0565b92915050565b60007c01000000000000000000000000000000000000000000000000000000008210151561391f576040517f08c379a0000000000000000000000000000000000000000000000000000000008152600401808060200182810382526027815260200180613a4c6027913960400191505060405180910390fd5b819050613927565b91905056fe6765745072696f72566f7465733a206e6f74207965742064657465726d696e656445524332303a207472616e7366657220746f20746865207a65726f206164647265737345524332303a206275726e20616d6f756e7420657863656564732062616c616e636545524332303a20617070726f766520746f20746865207a65726f206164647265737345524332303a20696e63726561736520616c6c6f77616e6365206f766572666c6f7745524332303a207472616e7366657220616d6f756e7420657863656564732062616c616e636545524332303a206275726e20616d6f756e74206578636565647320746f74616c20737570706c7945524332303a207472616e7366657220616d6f756e74206578636565647320616c6c6f77616e636553616665436173743a2076616c756520646f65736e27742066697420696e20323234206269747345524332303a206275726e20616d6f756e74206578636565647320616c6c6f77616e63655f7772697465436865636b706f696e743a20626c6f636b206e756d6265722065786365656473203332206269747345524332303a206275726e2066726f6d20746865207a65726f206164647265737345524332303a207472616e736665722066726f6d20746865207a65726f206164647265737345524332303a20617070726f76652066726f6d20746865207a65726f20616464726573735f6d6f7665566f7465733a20766f746520616d6f756e7420756e646572666c6f77735f6d6f7665566f7465733a20766f746520616d6f756e74206f766572666c6f777345524332303a2064656372656173656420616c6c6f77616e63652062656c6f77207a65726fa264697066735822122087c6993327bed5b7455f4e81b1fa2b46ca6234751cf388786e55f24c8d89af5164736f6c6343000706003353616665436173743a2076616c756520646f65736e27742066697420696e2032323420626974735f7772697465436865636b706f696e743a20626c6f636b206e756d626572206578636565647320333220626974735f6d6f7665566f7465733a20766f746520616d6f756e7420756e646572666c6f77735f6d6f7665566f7465733a20766f746520616d6f756e74206f766572666c6f7773",
  "linkReferences": {},
  "deployedLinkReferences": {}
}