{
  "_format": "hh-sol-artifact-1",
  "contractName": "ProtocolLock",
  "sourceName": "contracts/core/utils/ProtocolLock.sol",
  "abi": [
    {
      "inputs": [
        {
          "internalType": "contract IGovernor",
          "name": "_governor",
          "type": "address"
        }
      ],
      "stateMutability": "nonpayable",
      "type": "constructor"
    },
    {
      "anonymous": false,
      "inputs": [
        {
          "indexed": true,
          "internalType": "address",
          "name": "caller",
          "type": "address"
        }
      ],
      "name": "CallerAuthorized",
      "type": "event"
    },
    {
      "anonymous": false,
      "inputs": [
        {
          "indexed": true,
          "internalType": "address",
          "name": "caller",
          "type": "address"
        }
      ],
      "name": "CallerUnauthorized",
      "type": "event"
    },
    {
      "inputs": [
        {
          "internalType": "address",
          "name": "caller",
          "type": "address"
        }
      ],
      "name": "authorizeCaller",
      "outputs": [],
      "stateMutability": "nonpayable",
      "type": "function"
    },
    {
      "inputs": [
        {
          "internalType": "address",
          "name": "",
          "type": "address"
        }
      ],
      "name": "authorizedCaller",
      "outputs": [
        {
          "internalType": "bool",
          "name": "",
          "type": "bool"
        }
      ],
      "stateMutability": "view",
      "type": "function"
    },
    {
      "inputs": [],
      "name": "enter",
      "outputs": [],
      "stateMutability": "nonpayable",
      "type": "function"
    },
    {
      "inputs": [],
      "name": "exit",
      "outputs": [],
      "stateMutability": "nonpayable",
      "type": "function"
    },
    {
      "inputs": [],
      "name": "governor",
      "outputs": [
        {
          "internalType": "contract IGovernor",
          "name": "",
          "type": "address"
        }
      ],
      "stateMutability": "view",
      "type": "function"
    },
    {
      "inputs": [
        {
          "internalType": "address",
          "name": "caller",
          "type": "address"
        }
      ],
      "name": "unauthorizeCaller",
      "outputs": [],
      "stateMutability": "nonpayable",
      "type": "function"
    }
  ],
  "bytecode": "0x60806040526001600260005090905534801561001b5760006000fd5b506040516107323803806107328339818101604052602081101561003f5760006000fd5b81019080805190602001909291905050505b80600060006101000a81548173ffffffffffffffffffffffffffffffffffffffff021916908373ffffffffffffffffffffffffffffffffffffffff1602179055505b50610099565b61068a806100a86000396000f3fe60806040523480156100115760006000fd5b50600436106100775760003560e01c806398f6ef121161005157806398f6ef121461013b578063e97dcb6214610196578063e9fad8ee146101a057610077565b80630c340a241461007d5780632c388d5d146100b15780634ac8c5ae146100f657610077565b60006000fd5b6100856101aa565b604051808273ffffffffffffffffffffffffffffffffffffffff16815260200191505060405180910390f35b6100f4600480360360208110156100c85760006000fd5b81019080803573ffffffffffffffffffffffffffffffffffffffff1690602001909291905050506101d0565b005b6101396004803603602081101561010d5760006000fd5b81019080803573ffffffffffffffffffffffffffffffffffffffff1690602001909291905050506102d2565b005b61017e600480360360208110156101525760006000fd5b81019080803573ffffffffffffffffffffffffffffffffffffffff1690602001909291905050506103d4565b60405180821515815260200191505060405180910390f35b61019e6103f9565b005b6101a86104e9565b005b600060009054906101000a900473ffffffffffffffffffffffffffffffffffffffff1681565b61022f600060009054906101000a900473ffffffffffffffffffffffffffffffffffffffff1673ffffffffffffffffffffffffffffffffffffffff163373ffffffffffffffffffffffffffffffffffffffff16146105d863ffffffff16565b6001600160005060008373ffffffffffffffffffffffffffffffffffffffff1673ffffffffffffffffffffffffffffffffffffffff16815260200190815260200160002060006101000a81548160ff0219169083151502179055508073ffffffffffffffffffffffffffffffffffffffff167f6acfd92212f0ec670af78f8ba2273e4a85ac17023475650c25be0440602bff2d60405160405180910390a25b5b50565b610331600060009054906101000a900473ffffffffffffffffffffffffffffffffffffffff1673ffffffffffffffffffffffffffffffffffffffff163373ffffffffffffffffffffffffffffffffffffffff16146105d863ffffffff16565b6000600160005060008373ffffffffffffffffffffffffffffffffffffffff1673ffffffffffffffffffffffffffffffffffffffff16815260200190815260200160002060006101000a81548160ff0219169083151502179055508073ffffffffffffffffffffffffffffffffffffffff167f37967118b05f7af84a44112f7e4b59ab8aa3a73cebb4154828b43b934224522a60405160405180910390a25b5b50565b600160005060205280600052604060002060009150909054906101000a900460ff1681565b610457600160005060003373ffffffffffffffffffffffffffffffffffffffff1673ffffffffffffffffffffffffffffffffffffffff16815260200190815260200160002060009054906101000a900460ff166105d863ffffffff16565b6002600260005054141515156104d8576040517f08c379a000000000000000000000000000000000000000000000000000000000815260040180806020018281038252600d8152602001807f504c205265656e7472616e63790000000000000000000000000000000000000081526020015060200191505060405180910390fd5b600260026000508190909055505b5b565b610547600160005060003373ffffffffffffffffffffffffffffffffffffffff1673ffffffffffffffffffffffffffffffffffffffff16815260200190815260200160002060009054906101000a900460ff166105d863ffffffff16565b60026002600050541415156105c7576040517f08c379a00000000000000000000000000000000000000000000000000000000081526004018080602001828103825260088152602001807f504c206572726f7200000000000000000000000000000000000000000000000081526020015060200191505060405180910390fd5b600160026000508190909055505b5b565b801515610650576040517f08c379a00000000000000000000000000000000000000000000000000000000081526004018080602001828103825260128152602001807f504c3a204e6f7420417574686f72697a6564000000000000000000000000000081526020015060200191505060405180910390fd5b5b5056fea264697066735822122028212a6183ec739a20e7dcf0815ae1003643c3fe9b6453e4adb4ad8314eaacf064736f6c63430007060033",
  "linkReferences": {},
  "deployedLinkReferences": {}
}