{
  "_format": "hh-sol-artifact-1",
  "contractName": "MockGovernor",
  "sourceName": "contracts/mocks/MockGovernor.sol",
  "abi": [
    {
      "inputs": [],
      "name": "currentPhase",
      "outputs": [
        {
          "internalType": "uint8",
          "name": "",
          "type": "uint8"
        }
      ],
      "stateMutability": "view",
      "type": "function"
    },
    {
      "inputs": [],
      "name": "distributedTCP",
      "outputs": [
        {
          "internalType": "uint256",
          "name": "",
          "type": "uint256"
        }
      ],
      "stateMutability": "view",
      "type": "function"
    },
    {
      "inputs": [
        {
          "internalType": "address",
          "name": "",
          "type": "address"
        },
        {
          "internalType": "string",
          "name": "",
          "type": "string"
        },
        {
          "internalType": "bytes",
          "name": "",
          "type": "bytes"
        }
      ],
      "name": "execute",
      "outputs": [
        {
          "internalType": "bool",
          "name": "success",
          "type": "bool"
        },
        {
          "internalType": "bytes",
          "name": "returnData",
          "type": "bytes"
        }
      ],
      "stateMutability": "nonpayable",
      "type": "function"
    },
    {
      "inputs": [
        {
          "internalType": "address",
          "name": "",
          "type": "address"
        },
        {
          "internalType": "string",
          "name": "",
          "type": "string"
        }
      ],
      "name": "requireValidAction",
      "outputs": [],
      "stateMutability": "view",
      "type": "function"
    }
  ],
  "bytecode": "0x60806040523480156100115760006000fd5b50610017565b6103b3806100266000396000f3fe60806040523480156100115760006000fd5b50600436106100515760003560e01c8063055ad42e1461005757806333daf5d414610078578063a43c36af1461027c578063aa2964871461031b57610051565b60006000fd5b61005f610339565b604051808260ff16815260200191505060405180910390f35b6101f76004803603606081101561008f5760006000fd5b81019080803573ffffffffffffffffffffffffffffffffffffffff169060200190929190803590602001906401000000008111156100cd5760006000fd5b8201836020820111156100e05760006000fd5b803590602001918460018302840111640100000000831117156101035760006000fd5b91908080601f016020809104026020016040519081016040528093929190818152602001838380828437600081840152601f19601f820116905080830192505050505050509090919290909192908035906020019064010000000081111561016b5760006000fd5b82018360208201111561017e5760006000fd5b803590602001918460018302840111640100000000831117156101a15760006000fd5b91908080601f016020809104026020016040519081016040528093929190818152602001838380828437600081840152601f19601f82011690508083019250505050505050909091929090919290505050610347565b60405180831515815260200180602001828103825283818151815260200191508051906020019080838360005b838110156102405780820151818401525b602081019050610224565b50505050905090810190601f16801561026d5780820380516001836020036101000a031916815260200191505b50935050505060405180910390f35b610319600480360360408110156102935760006000fd5b81019080803573ffffffffffffffffffffffffffffffffffffffff169060200190929190803590602001906401000000008111156102d15760006000fd5b8201836020820111156102e45760006000fd5b803590602001918460018302840111640100000000831117156103075760006000fd5b9091929390909192939050505061035f565b005b610323610365565b6040518082815260200191505060405180910390f35b600060039050610344565b90565b6000606060018191509150610357565b935093915050565b5b505050565b60006a084595161401484a000000905061037a565b9056fea26469706673582212203b55c945b73c16acda97c3488aa05f5672ee39ea024c1642ffbe184ae311ed8964736f6c63430007060033",
  "linkReferences": {},
  "deployedLinkReferences": {}
}