{
  "_format": "hh-sol-artifact-1",
  "contractName": "MockGovernor",
  "sourceName": "contracts/mocks/MockGovernor.sol",
  "abi": [
    {
      "inputs": [],
      "name": "currentPhase",
      "outputs": [
        {
          "internalType": "uint8",
          "name": "",
          "type": "uint8"
        }
      ],
      "stateMutability": "view",
      "type": "function"
    },
    {
      "inputs": [
        {
          "internalType": "address",
          "name": "",
          "type": "address"
        },
        {
          "internalType": "string",
          "name": "",
          "type": "string"
        },
        {
          "internalType": "bytes",
          "name": "",
          "type": "bytes"
        }
      ],
      "name": "execute",
      "outputs": [
        {
          "internalType": "bool",
          "name": "success",
          "type": "bool"
        },
        {
          "internalType": "bytes",
          "name": "returnData",
          "type": "bytes"
        }
      ],
      "stateMutability": "nonpayable",
      "type": "function"
    },
    {
      "inputs": [
        {
          "internalType": "address",
          "name": "",
          "type": "address"
        },
        {
          "internalType": "string",
          "name": "",
          "type": "string"
        }
      ],
      "name": "requireValidAction",
      "outputs": [],
      "stateMutability": "view",
      "type": "function"
    }
  ],
  "bytecode": "0x60806040523480156100115760006000fd5b50610017565b610372806100266000396000f3fe60806040523480156100115760006000fd5b50600436106100465760003560e01c8063055ad42e1461004c57806333daf5d41461006d578063a43c36af1461027157610046565b60006000fd5b610054610310565b604051808260ff16815260200191505060405180910390f35b6101ec600480360360608110156100845760006000fd5b81019080803573ffffffffffffffffffffffffffffffffffffffff169060200190929190803590602001906401000000008111156100c25760006000fd5b8201836020820111156100d55760006000fd5b803590602001918460018302840111640100000000831117156100f85760006000fd5b91908080601f016020809104026020016040519081016040528093929190818152602001838380828437600081840152601f19601f82011690508083019250505050505050909091929090919290803590602001906401000000008111156101605760006000fd5b8201836020820111156101735760006000fd5b803590602001918460018302840111640100000000831117156101965760006000fd5b91908080601f016020809104026020016040519081016040528093929190818152602001838380828437600081840152601f19601f8201169050808301925050505050505090909192909091929050505061031e565b60405180831515815260200180602001828103825283818151815260200191508051906020019080838360005b838110156102355780820151818401525b602081019050610219565b50505050905090810190601f1680156102625780820380516001836020036101000a031916815260200191505b50935050505060405180910390f35b61030e600480360360408110156102885760006000fd5b81019080803573ffffffffffffffffffffffffffffffffffffffff169060200190929190803590602001906401000000008111156102c65760006000fd5b8201836020820111156102d95760006000fd5b803590602001918460018302840111640100000000831117156102fc5760006000fd5b90919293909091929390505050610336565b005b60006003905061031b565b90565b600060606001819150915061032e565b935093915050565b5b50505056fea2646970667358221220597553517efca805f3cccb0c1440a15e3a263781d340f0c6af83d98e74da737b64736f6c63430007060033",
  "linkReferences": {},
  "deployedLinkReferences": {}
}