{
  "_format": "hh-sol-artifact-1",
  "contractName": "GovernorTestable",
  "sourceName": "contracts/mocks/GovernorTestable.sol",
  "abi": [
    {
      "inputs": [],
      "stateMutability": "nonpayable",
      "type": "constructor"
    },
    {
      "anonymous": false,
      "inputs": [
        {
          "indexed": true,
          "internalType": "address",
          "name": "from",
          "type": "address"
        },
        {
          "indexed": true,
          "internalType": "address",
          "name": "to",
          "type": "address"
        }
      ],
      "name": "AdminUpdated",
      "type": "event"
    },
    {
      "anonymous": false,
      "inputs": [
        {
          "indexed": true,
          "internalType": "string",
          "name": "contractName",
          "type": "string"
        },
        {
          "indexed": true,
          "internalType": "address",
          "name": "contractAddress",
          "type": "address"
        }
      ],
      "name": "ContractUpgraded",
      "type": "event"
    },
    {
      "anonymous": false,
      "inputs": [
        {
          "indexed": false,
          "internalType": "uint64",
          "name": "shutdownTime",
          "type": "uint64"
        }
      ],
      "name": "EmergencyShutdownExecuted",
      "type": "event"
    },
    {
      "anonymous": false,
      "inputs": [
        {
          "indexed": true,
          "internalType": "address",
          "name": "newGovernor",
          "type": "address"
        }
      ],
      "name": "ProtocolUpgraded",
      "type": "event"
    },
    {
      "anonymous": false,
      "inputs": [],
      "name": "ShutdownExecuted",
      "type": "event"
    },
    {
      "anonymous": false,
      "inputs": [
        {
          "indexed": true,
          "internalType": "address",
          "name": "locker",
          "type": "address"
        },
        {
          "indexed": false,
          "internalType": "uint256",
          "name": "count",
          "type": "uint256"
        }
      ],
      "name": "ShutdownTokensLocked",
      "type": "event"
    },
    {
      "anonymous": false,
      "inputs": [
        {
          "indexed": true,
          "internalType": "address",
          "name": "locker",
          "type": "address"
        },
        {
          "indexed": false,
          "internalType": "uint256",
          "name": "count",
          "type": "uint256"
        }
      ],
      "name": "ShutdownTokensUnlocked",
      "type": "event"
    },
    {
      "inputs": [],
      "name": "EMERGENCY_SHUTDOWN_THRESHOLD",
      "outputs": [
        {
          "internalType": "uint256",
          "name": "",
          "type": "uint256"
        }
      ],
      "stateMutability": "view",
      "type": "function"
    },
    {
      "inputs": [],
      "name": "GENESIS_PERIODS",
      "outputs": [
        {
          "internalType": "uint64",
          "name": "",
          "type": "uint64"
        }
      ],
      "stateMutability": "view",
      "type": "function"
    },
    {
      "inputs": [],
      "name": "NAME",
      "outputs": [
        {
          "internalType": "string",
          "name": "",
          "type": "string"
        }
      ],
      "stateMutability": "view",
      "type": "function"
    },
    {
      "inputs": [],
      "name": "accounting",
      "outputs": [
        {
          "internalType": "contract IAccounting",
          "name": "",
          "type": "address"
        }
      ],
      "stateMutability": "view",
      "type": "function"
    },
    {
      "inputs": [
        {
          "internalType": "contract IUniswapV3Pool",
          "name": "pool",
          "type": "address"
        }
      ],
      "name": "addReferencePoolToProtocol",
      "outputs": [],
      "stateMutability": "nonpayable",
      "type": "function"
    },
    {
      "inputs": [],
      "name": "auctions",
      "outputs": [
        {
          "internalType": "contract IAuctions",
          "name": "",
          "type": "address"
        }
      ],
      "stateMutability": "view",
      "type": "function"
    },
    {
      "inputs": [
        {
          "internalType": "uint64",
          "name": "rewardsPeriod",
          "type": "uint64"
        }
      ],
      "name": "calculateCurrentDailyRewardCount",
      "outputs": [
        {
          "internalType": "uint256",
          "name": "result",
          "type": "uint256"
        }
      ],
      "stateMutability": "pure",
      "type": "function"
    },
    {
      "inputs": [
        {
          "internalType": "uint64",
          "name": "bootsrapPeriod",
          "type": "uint64"
        }
      ],
      "name": "calculateRewardsForBootstrapPeriod",
      "outputs": [
        {
          "internalType": "uint256",
          "name": "result",
          "type": "uint256"
        }
      ],
      "stateMutability": "pure",
      "type": "function"
    },
    {
      "inputs": [
        {
          "internalType": "uint64",
          "name": "rewardsPeriod",
          "type": "uint64"
        }
      ],
      "name": "calculateTotalLiquidityRewards",
      "outputs": [
        {
          "internalType": "uint256",
          "name": "result",
          "type": "uint256"
        }
      ],
      "stateMutability": "pure",
      "type": "function"
    },
    {
      "inputs": [],
      "name": "collateralPool",
      "outputs": [
        {
          "internalType": "contract IUniswapV3Pool",
          "name": "",
          "type": "address"
        }
      ],
      "stateMutability": "view",
      "type": "function"
    },
    {
      "inputs": [
        {
          "internalType": "contract IUniswapV3Pool[]",
          "name": "pools",
          "type": "address[]"
        },
        {
          "internalType": "contract IUniswapV3Pool",
          "name": "pool",
          "type": "address"
        }
      ],
      "name": "contains",
      "outputs": [
        {
          "internalType": "bool",
          "name": "",
          "type": "bool"
        }
      ],
      "stateMutability": "pure",
      "type": "function"
    },
    {
      "inputs": [],
      "name": "contractsInitialized",
      "outputs": [
        {
          "internalType": "bool",
          "name": "",
          "type": "bool"
        }
      ],
      "stateMutability": "view",
      "type": "function"
    },
    {
      "inputs": [],
      "name": "currentDailyRewardCount",
      "outputs": [
        {
          "internalType": "uint256",
          "name": "",
          "type": "uint256"
        }
      ],
      "stateMutability": "view",
      "type": "function"
    },
    {
      "inputs": [],
      "name": "currentPeriod",
      "outputs": [
        {
          "internalType": "uint64",
          "name": "period",
          "type": "uint64"
        }
      ],
      "stateMutability": "view",
      "type": "function"
    },
    {
      "inputs": [],
      "name": "currentPhase",
      "outputs": [
        {
          "internalType": "uint8",
          "name": "",
          "type": "uint8"
        }
      ],
      "stateMutability": "view",
      "type": "function"
    },
    {
      "inputs": [
        {
          "internalType": "address",
          "name": "to",
          "type": "address"
        },
        {
          "internalType": "uint256",
          "name": "count",
          "type": "uint256"
        }
      ],
      "name": "distributeLiquidityRewards",
      "outputs": [],
      "stateMutability": "nonpayable",
      "type": "function"
    },
    {
      "inputs": [],
      "name": "distributedTCP",
      "outputs": [
        {
          "internalType": "uint256",
          "name": "",
          "type": "uint256"
        }
      ],
      "stateMutability": "view",
      "type": "function"
    },
    {
      "inputs": [],
      "name": "distributionScheduleTokens",
      "outputs": [
        {
          "internalType": "uint256",
          "name": "",
          "type": "uint256"
        }
      ],
      "stateMutability": "view",
      "type": "function"
    },
    {
      "inputs": [],
      "name": "emergencyShutdownThresholdMet",
      "outputs": [
        {
          "internalType": "bool",
          "name": "",
          "type": "bool"
        }
      ],
      "stateMutability": "view",
      "type": "function"
    },
    {
      "inputs": [
        {
          "internalType": "address",
          "name": "",
          "type": "address"
        }
      ],
      "name": "emergencyShutdownTokensLocked",
      "outputs": [
        {
          "internalType": "uint256",
          "name": "",
          "type": "uint256"
        }
      ],
      "stateMutability": "view",
      "type": "function"
    },
    {
      "inputs": [],
      "name": "enforcedDecentralization",
      "outputs": [
        {
          "internalType": "contract IEnforcedDecentralization",
          "name": "",
          "type": "address"
        }
      ],
      "stateMutability": "view",
      "type": "function"
    },
    {
      "inputs": [
        {
          "internalType": "address",
          "name": "target",
          "type": "address"
        },
        {
          "internalType": "string",
          "name": "signature",
          "type": "string"
        },
        {
          "internalType": "bytes",
          "name": "data",
          "type": "bytes"
        }
      ],
      "name": "execute",
      "outputs": [
        {
          "internalType": "bool",
          "name": "success",
          "type": "bool"
        },
        {
          "internalType": "bytes",
          "name": "returnData",
          "type": "bytes"
        }
      ],
      "stateMutability": "nonpayable",
      "type": "function"
    },
    {
      "inputs": [],
      "name": "executeEmergencyShutdown",
      "outputs": [],
      "stateMutability": "nonpayable",
      "type": "function"
    },
    {
      "inputs": [],
      "name": "executeShutdown",
      "outputs": [],
      "stateMutability": "nonpayable",
      "type": "function"
    },
    {
      "inputs": [],
      "name": "firstPeriod",
      "outputs": [
        {
          "internalType": "uint64",
          "name": "",
          "type": "uint64"
        }
      ],
      "stateMutability": "view",
      "type": "function"
    },
    {
      "inputs": [
        {
          "internalType": "address",
          "name": "caller",
          "type": "address"
        },
        {
          "components": [
            {
              "internalType": "uint8",
              "name": "v",
              "type": "uint8"
            },
            {
              "internalType": "bytes32",
              "name": "r",
              "type": "bytes32"
            },
            {
              "internalType": "bytes32",
              "name": "s",
              "type": "bytes32"
            }
          ],
          "internalType": "struct IGovernor.GenesisAuth",
          "name": "ga",
          "type": "tuple"
        }
      ],
      "name": "getIsGenesisPhaseAndRequireAuthIfSo",
      "outputs": [
        {
          "internalType": "bool",
          "name": "isGenesis",
          "type": "bool"
        }
      ],
      "stateMutability": "view",
      "type": "function"
    },
    {
      "inputs": [],
      "name": "getReferencePools",
      "outputs": [
        {
          "internalType": "contract IUniswapV3Pool[]",
          "name": "",
          "type": "address[]"
        }
      ],
      "stateMutability": "view",
      "type": "function"
    },
    {
      "inputs": [
        {
          "internalType": "address",
          "name": "userAddress",
          "type": "address"
        }
      ],
      "name": "getSignaturePayloadForUserAddress",
      "outputs": [
        {
          "internalType": "bytes32",
          "name": "",
          "type": "bytes32"
        }
      ],
      "stateMutability": "view",
      "type": "function"
    },
    {
      "inputs": [
        {
          "internalType": "uint256",
          "name": "count",
          "type": "uint256"
        }
      ],
      "name": "increaseLiquidationAccountRewards",
      "outputs": [],
      "stateMutability": "nonpayable",
      "type": "function"
    },
    {
      "inputs": [
        {
          "internalType": "contract IAuctions",
          "name": "_auctions",
          "type": "address"
        },
        {
          "internalType": "contract ITCP",
          "name": "_tcp",
          "type": "address"
        },
        {
          "internalType": "contract ILend",
          "name": "_lend",
          "type": "address"
        },
        {
          "internalType": "contract ILiquidations",
          "name": "_liquidations",
          "type": "address"
        },
        {
          "internalType": "contract IMarket",
          "name": "_market",
          "type": "address"
        },
        {
          "internalType": "contract IRates",
          "name": "_rates",
          "type": "address"
        },
        {
          "internalType": "contract IPrices",
          "name": "_prices",
          "type": "address"
        },
        {
          "internalType": "contract IProtocolLock",
          "name": "_protocolLock",
          "type": "address"
        },
        {
          "internalType": "contract IRewards",
          "name": "_rewards",
          "type": "address"
        },
        {
          "internalType": "contract ISettlement",
          "name": "_settlement",
          "type": "address"
        }
      ],
      "name": "initContracts",
      "outputs": [],
      "stateMutability": "nonpayable",
      "type": "function"
    },
    {
      "inputs": [
        {
          "internalType": "contract IUniswapV3Pool",
          "name": "_protocolPool",
          "type": "address"
        },
        {
          "internalType": "contract IUniswapV3Pool",
          "name": "_collateralPool",
          "type": "address"
        },
        {
          "internalType": "contract IUniswapV3Pool[]",
          "name": "_referencePool",
          "type": "address[]"
        }
      ],
      "name": "initPools",
      "outputs": [],
      "stateMutability": "nonpayable",
      "type": "function"
    },
    {
      "inputs": [],
      "name": "isShutdown",
      "outputs": [
        {
          "internalType": "bool",
          "name": "",
          "type": "bool"
        }
      ],
      "stateMutability": "view",
      "type": "function"
    },
    {
      "inputs": [],
      "name": "lend",
      "outputs": [
        {
          "internalType": "contract ILend",
          "name": "",
          "type": "address"
        }
      ],
      "stateMutability": "view",
      "type": "function"
    },
    {
      "inputs": [],
      "name": "lendZhu",
      "outputs": [
        {
          "internalType": "contract ILendZhu",
          "name": "",
          "type": "address"
        }
      ],
      "stateMutability": "view",
      "type": "function"
    },
    {
      "inputs": [],
      "name": "liquidationAccountRewards",
      "outputs": [
        {
          "internalType": "uint256",
          "name": "",
          "type": "uint256"
        }
      ],
      "stateMutability": "view",
      "type": "function"
    },
    {
      "inputs": [],
      "name": "liquidations",
      "outputs": [
        {
          "internalType": "contract ILiquidations",
          "name": "",
          "type": "address"
        }
      ],
      "stateMutability": "view",
      "type": "function"
    },
    {
      "inputs": [
        {
          "internalType": "uint256",
          "name": "count",
          "type": "uint256"
        }
      ],
      "name": "lockTokensForEmergencyShutdown",
      "outputs": [],
      "stateMutability": "nonpayable",
      "type": "function"
    },
    {
      "inputs": [],
      "name": "market",
      "outputs": [
        {
          "internalType": "contract IMarket",
          "name": "",
          "type": "address"
        }
      ],
      "stateMutability": "view",
      "type": "function"
    },
    {
      "inputs": [
        {
          "internalType": "address",
          "name": "to",
          "type": "address"
        },
        {
          "internalType": "uint256",
          "name": "count",
          "type": "uint256"
        }
      ],
      "name": "mintTCP",
      "outputs": [],
      "stateMutability": "nonpayable",
      "type": "function"
    },
    {
      "inputs": [],
      "name": "periodLength",
      "outputs": [
        {
          "internalType": "uint64",
          "name": "",
          "type": "uint64"
        }
      ],
      "stateMutability": "view",
      "type": "function"
    },
    {
      "inputs": [
        {
          "internalType": "contract IUniswapV3Pool",
          "name": "",
          "type": "address"
        }
      ],
      "name": "poolRemovalTime",
      "outputs": [
        {
          "internalType": "uint64",
          "name": "",
          "type": "uint64"
        }
      ],
      "stateMutability": "view",
      "type": "function"
    },
    {
      "inputs": [],
      "name": "pricePoolsInitialized",
      "outputs": [
        {
          "internalType": "bool",
          "name": "",
          "type": "bool"
        }
      ],
      "stateMutability": "view",
      "type": "function"
    },
    {
      "inputs": [],
      "name": "prices",
      "outputs": [
        {
          "internalType": "contract IPrices",
          "name": "",
          "type": "address"
        }
      ],
      "stateMutability": "view",
      "type": "function"
    },
    {
      "inputs": [],
      "name": "protocolDeployer",
      "outputs": [
        {
          "internalType": "address",
          "name": "",
          "type": "address"
        }
      ],
      "stateMutability": "view",
      "type": "function"
    },
    {
      "inputs": [],
      "name": "protocolLock",
      "outputs": [
        {
          "internalType": "contract IProtocolLock",
          "name": "",
          "type": "address"
        }
      ],
      "stateMutability": "view",
      "type": "function"
    },
    {
      "inputs": [],
      "name": "protocolPool",
      "outputs": [
        {
          "internalType": "contract IUniswapV3Pool",
          "name": "",
          "type": "address"
        }
      ],
      "stateMutability": "view",
      "type": "function"
    },
    {
      "inputs": [],
      "name": "rates",
      "outputs": [
        {
          "internalType": "contract IRates",
          "name": "",
          "type": "address"
        }
      ],
      "stateMutability": "view",
      "type": "function"
    },
    {
      "inputs": [
        {
          "internalType": "uint256",
          "name": "",
          "type": "uint256"
        }
      ],
      "name": "referencePool",
      "outputs": [
        {
          "internalType": "contract IUniswapV3Pool",
          "name": "",
          "type": "address"
        }
      ],
      "stateMutability": "view",
      "type": "function"
    },
    {
      "inputs": [
        {
          "internalType": "contract IUniswapV3Pool[]",
          "name": "pools",
          "type": "address[]"
        },
        {
          "internalType": "contract IUniswapV3Pool",
          "name": "pool",
          "type": "address"
        }
      ],
      "name": "removePoolFromPools",
      "outputs": [
        {
          "internalType": "contract IUniswapV3Pool[]",
          "name": "",
          "type": "address[]"
        }
      ],
      "stateMutability": "pure",
      "type": "function"
    },
    {
      "inputs": [
        {
          "internalType": "contract IUniswapV3Pool",
          "name": "pool",
          "type": "address"
        }
      ],
      "name": "removeReferencePoolFromProtocol",
      "outputs": [],
      "stateMutability": "nonpayable",
      "type": "function"
    },
    {
      "inputs": [
        {
          "internalType": "address",
          "name": "caller",
          "type": "address"
        }
      ],
      "name": "requireDecreaseDebtAccess",
      "outputs": [],
      "stateMutability": "view",
      "type": "function"
    },
    {
      "inputs": [
        {
          "internalType": "address",
          "name": "caller",
          "type": "address"
        }
      ],
      "name": "requireLentZhuCountAccess",
      "outputs": [],
      "stateMutability": "view",
      "type": "function"
    },
    {
      "inputs": [
        {
          "internalType": "address",
          "name": "caller",
          "type": "address"
        }
      ],
      "name": "requirePositionWriteAccess",
      "outputs": [],
      "stateMutability": "view",
      "type": "function"
    },
    {
      "inputs": [
        {
          "internalType": "address",
          "name": "caller",
          "type": "address"
        }
      ],
      "name": "requireStoredCollateralAccess",
      "outputs": [],
      "stateMutability": "view",
      "type": "function"
    },
    {
      "inputs": [
        {
          "internalType": "address",
          "name": "caller",
          "type": "address"
        }
      ],
      "name": "requireUpdatePositionAccess",
      "outputs": [],
      "stateMutability": "view",
      "type": "function"
    },
    {
      "inputs": [
        {
          "internalType": "address",
          "name": "target",
          "type": "address"
        },
        {
          "internalType": "string",
          "name": "signature",
          "type": "string"
        }
      ],
      "name": "requireValidAction",
      "outputs": [],
      "stateMutability": "view",
      "type": "function"
    },
    {
      "inputs": [
        {
          "internalType": "address",
          "name": "caller",
          "type": "address"
        }
      ],
      "name": "requireZhuMintingAccess",
      "outputs": [],
      "stateMutability": "view",
      "type": "function"
    },
    {
      "inputs": [
        {
          "internalType": "address",
          "name": "caller",
          "type": "address"
        }
      ],
      "name": "requireZhuReservesBurnAccess",
      "outputs": [],
      "stateMutability": "view",
      "type": "function"
    },
    {
      "inputs": [],
      "name": "rewards",
      "outputs": [
        {
          "internalType": "contract IRewards",
          "name": "",
          "type": "address"
        }
      ],
      "stateMutability": "view",
      "type": "function"
    },
    {
      "inputs": [
        {
          "internalType": "uint64",
          "name": "phaseOneStartTime",
          "type": "uint64"
        }
      ],
      "name": "setPhaseOneStartTime",
      "outputs": [],
      "stateMutability": "nonpayable",
      "type": "function"
    },
    {
      "inputs": [],
      "name": "settlement",
      "outputs": [
        {
          "internalType": "contract ISettlement",
          "name": "",
          "type": "address"
        }
      ],
      "stateMutability": "view",
      "type": "function"
    },
    {
      "inputs": [],
      "name": "shutdownTime",
      "outputs": [
        {
          "internalType": "uint64",
          "name": "",
          "type": "uint64"
        }
      ],
      "stateMutability": "view",
      "type": "function"
    },
    {
      "inputs": [],
      "name": "tcp",
      "outputs": [
        {
          "internalType": "contract ITCP",
          "name": "",
          "type": "address"
        }
      ],
      "stateMutability": "view",
      "type": "function"
    },
    {
      "inputs": [],
      "name": "tcpMinted",
      "outputs": [
        {
          "internalType": "uint256",
          "name": "",
          "type": "uint256"
        }
      ],
      "stateMutability": "view",
      "type": "function"
    },
    {
      "inputs": [],
      "name": "timelock",
      "outputs": [
        {
          "internalType": "address",
          "name": "",
          "type": "address"
        }
      ],
      "stateMutability": "view",
      "type": "function"
    },
    {
      "inputs": [],
      "name": "totalLiquidityRewards",
      "outputs": [
        {
          "internalType": "uint256",
          "name": "",
          "type": "uint256"
        }
      ],
      "stateMutability": "view",
      "type": "function"
    },
    {
      "inputs": [],
      "name": "unlockTokensForEmergencyShutdown",
      "outputs": [],
      "stateMutability": "nonpayable",
      "type": "function"
    },
    {
      "inputs": [
        {
          "internalType": "contract IAuctions",
          "name": "_auctions",
          "type": "address"
        }
      ],
      "name": "upgradeAuctions",
      "outputs": [],
      "stateMutability": "nonpayable",
      "type": "function"
    },
    {
      "inputs": [
        {
          "internalType": "contract ILend",
          "name": "_lend",
          "type": "address"
        }
      ],
      "name": "upgradeLend",
      "outputs": [],
      "stateMutability": "nonpayable",
      "type": "function"
    },
    {
      "inputs": [
        {
          "internalType": "contract ILiquidations",
          "name": "_liquidations",
          "type": "address"
        }
      ],
      "name": "upgradeLiquidations",
      "outputs": [],
      "stateMutability": "nonpayable",
      "type": "function"
    },
    {
      "inputs": [
        {
          "internalType": "contract IMarket",
          "name": "_market",
          "type": "address"
        }
      ],
      "name": "upgradeMarket",
      "outputs": [],
      "stateMutability": "nonpayable",
      "type": "function"
    },
    {
      "inputs": [
        {
          "internalType": "contract IPrices",
          "name": "_prices",
          "type": "address"
        }
      ],
      "name": "upgradePrices",
      "outputs": [],
      "stateMutability": "nonpayable",
      "type": "function"
    },
    {
      "inputs": [
        {
          "internalType": "address",
          "name": "newGovernor",
          "type": "address"
        }
      ],
      "name": "upgradeProtocol",
      "outputs": [],
      "stateMutability": "nonpayable",
      "type": "function"
    },
    {
      "inputs": [
        {
          "internalType": "contract IRates",
          "name": "_rates",
          "type": "address"
        }
      ],
      "name": "upgradeRates",
      "outputs": [],
      "stateMutability": "nonpayable",
      "type": "function"
    },
    {
      "inputs": [
        {
          "internalType": "contract IRewards",
          "name": "_rewards",
          "type": "address"
        }
      ],
      "name": "upgradeRewards",
      "outputs": [],
      "stateMutability": "nonpayable",
      "type": "function"
    },
    {
      "inputs": [
        {
          "internalType": "contract ISettlement",
          "name": "_settlement",
          "type": "address"
        }
      ],
      "name": "upgradeSettlement",
      "outputs": [],
      "stateMutability": "nonpayable",
      "type": "function"
    },
    {
      "inputs": [
        {
          "internalType": "bytes4",
          "name": "",
          "type": "bytes4"
        }
      ],
      "name": "validUpdate",
      "outputs": [
        {
          "internalType": "bool",
          "name": "",
          "type": "bool"
        }
      ],
      "stateMutability": "view",
      "type": "function"
    },
    {
      "inputs": [],
      "name": "zhu",
      "outputs": [
        {
          "internalType": "contract IZhu",
          "name": "",
          "type": "address"
        }
      ],
      "stateMutability": "view",
      "type": "function"
    },
    {
      "inputs": [],
      "name": "zhuPositionNFT",
      "outputs": [
        {
          "internalType": "contract IPositionNFT",
          "name": "",
          "type": "address"
        }
      ],
      "stateMutability": "view",
      "type": "function"
    }
  ],
  "bytecode": "0x60e06040527fffffffffffffffffffffffffffffffffffffffffffffffffffffffffffffffff601c6000509090556001601e600050909055348015620000455760006000fd5b505b61dead61dead61dead61dead61dead61dead61dead678ac7230489e800005b5b620151805b60018167ffffffffffffffff16620000896200030f60201b60201c565b67ffffffffffffffff168115156200009d57fe5b040367ffffffffffffffff1660a08167ffffffffffffffff1660c01b815260080150508067ffffffffffffffff1660808167ffffffffffffffff1660c01b815260080150505b50600160006000508190909055505b33601b60006101000a81548173ffffffffffffffffffffffffffffffffffffffff021916908373ffffffffffffffffffffffffffffffffffffffff1602179055508173ffffffffffffffffffffffffffffffffffffffff1660c08173ffffffffffffffffffffffffffffffffffffffff1660601b8152601401505087600960006101000a81548173ffffffffffffffffffffffffffffffffffffffff021916908373ffffffffffffffffffffffffffffffffffffffff16021790555086600d60006101000a81548173ffffffffffffffffffffffffffffffffffffffff021916908373ffffffffffffffffffffffffffffffffffffffff16021790555085600e60006101000a81548173ffffffffffffffffffffffffffffffffffffffff021916908373ffffffffffffffffffffffffffffffffffffffff16021790555084601160006101000a81548173ffffffffffffffffffffffffffffffffffffffff021916908373ffffffffffffffffffffffffffffffffffffffff16021790555083600f60006101000a81548173ffffffffffffffffffffffffffffffffffffffff021916908373ffffffffffffffffffffffffffffffffffffffff16021790555082601960006101000a81548173ffffffffffffffffffffffffffffffffffffffff021916908373ffffffffffffffffffffffffffffffffffffffff1602179055508060056000508190909055505b50505050505050505b620003c5565b600062000329426200033160201b62006dcf17909060201c565b905080505b90565b60006801000000000000000082101515620003b7576040517f08c379a00000000000000000000000000000000000000000000000000000000081526004018080602001828103825260118152602001807f6d6f7265207468616e203634206269747300000000000000000000000000000081526020015060200191505060405180910390fd5b819050620003c0565b919050565b60805160c01c60a05160c01c60c05160601c6192bb6200040f600039806153f3525080615bed5280616e955280617975525080615e265280616eb6528061799652506192bb6000f3fe60806040523480156100115760006000fd5b506004361061056a5760003560e01c80639bd18616116102d8578063c375e6ed11610187578063da9ee0ed116100e4578063f6fbc19211610098578063fe4772771161007d578063fe47727714610ec3578063ff0eccf614610ee1578063ff26df7214610eff5761056a565b8063f6fbc19214610e9b578063f7d3fa8414610ea55761056a565b8063e7c37799116100c9578063e7c3779914610e47578063e97a99b614610e63578063ef7a7cfa14610e7f5761056a565b8063da9ee0ed14610df9578063e3f3522c14610e295761056a565b8063d2ca21151161013b578063d3419bf311610120578063d3419bf314610d9f578063d478b08714610dbd578063d4f986d714610ddb5761056a565b8063d2ca211514610d63578063d33219b414610d815761056a565b8063cb9b7b7f1161016c578063cb9b7b7f14610d0b578063ce49968214610d3b578063d0d8ab9a14610d595761056a565b8063c375e6ed14610ccf578063c4e3a63b14610ced5761056a565b8063b236129011610235578063bf5d5ae3116101e9578063bfec9bf8116101ce578063bfec9bf814610c7b578063c04be45414610c97578063c34cdf7514610cb35761056a565b8063bf5d5ae314610c2d578063bf86d69014610c5d5761056a565b8063b8909bb91161021a578063b8909bb914610bb1578063b8e5748414610be1578063b971dc0514610c115761056a565b8063b236129014610b77578063b8188c8114610b955761056a565b8063a71547471161028c578063ab658be211610271578063ab658be214610b21578063b062f9c414610b3f578063b216cd9414610b5b5761056a565b8063a715474714610ae7578063aa29648714610b035761056a565b8063a1c1f90d116102bd578063a1c1f90d14610a91578063a3f4df7e14610aad578063a43c36af14610acb5761056a565b80639bd1861614610a575780639ec5a89414610a735761056a565b806355379e561161043457806385aa610311610391578063921ee982116103455780639624e83e1161032a5780639624e83e146109fd57806397dffc6114610a1b5780639a371c8414610a395761056a565b8063921ee982146109c55780639622cd8f146109e15761056a565b806388a4bfb71161037657806388a4bfb71461096f5780638a15fcf31461098b5780638f40b82f146109a95761056a565b806385aa610314610921578063879f99d71461093f5761056a565b806380b5c665116103e8578063827015c3116103cd578063827015c3146108cb57806383208f53146108e75780638396cf69146109035761056a565b806380b5c6651461089157806380f55605146108ad5761056a565b8063685a1cd611610419578063685a1cd61461083b57806377c0f3a41461085757806380304d09146108755761056a565b806355379e56146107ff578063585690811461081d5761056a565b806327481dcc116104e25780633f88b0c5116104965780634b414e321161047b5780634b414e32146107a75780634cc1f55d146107c557806351160630146107e15761056a565b80633f88b0c51461075957806343f48fbd146107895761056a565b806333daf5d4116104c757806333daf5d4146106da57806336fc02f41461070b5780633da80d66146107295761056a565b806327481dcc1461069e578063330c093c146106bc5761056a565b80630b1c7d1f1161053957806311b7c6911161051e57806311b7c6911461064657806317424a4414610664578063232948ea146106945761056a565b80630b1c7d1f146105fa578063113cf1ab146106165761056a565b80630132ebc01461057057806304f07ea7146105a0578063055ad42e146105be57806306040618146105dc5761056a565b60006000fd5b61058a600480360381019061058591906186fd565b610f1b565b604051610597919061915e565b60405180910390f35b6105a8610f36565b6040516105b5919061915e565b60405180910390f35b6105c6610f3f565b6040516105d3919061918c565b60405180910390f35b6105e4610fed565b6040516105f19190619170565b60405180910390f35b610614600480360381019061060f9190618527565b611005565b005b610630600480360381019061062b91906183cc565b611383565b60405161063d9190618b83565b60405180910390f35b61064e6113a8565b60405161065b9190618b83565b60405180910390f35b61067e60048036038101906106799190618638565b6113bb565b60405161068b9190619170565b60405180910390f35b61069c6113e7565b005b6106a66114d2565b6040516106b3919061915e565b60405180910390f35b6106c46114db565b6040516106d19190618a22565b60405180910390f35b6106f460048036038101906106ef9190618241565b611501565b604051610702929190618b97565b60405180910390f35b610713611746565b6040516107209190618dd6565b60405180910390f35b610743600480360381019061073e919061837a565b61176c565b6040516107509190618b83565b60405180910390f35b610773600480360381019061076e9190618194565b61178b565b604051610780919061915e565b60405180910390f35b6107916117a6565b60405161079e9190618d5e565b60405180910390f35b6107af6117cc565b6040516107bc9190618c1e565b60405180910390f35b6107df60048036038101906107da919061865f565b6117f2565b005b6107e9611ee2565b6040516107f69190618dae565b60405180910390f35b610807611f08565b604051610814919061915e565b60405180910390f35b610825611f11565b6040516108329190619170565b60405180910390f35b61085560048036038101906108509190618638565b611f2b565b005b61085f61242d565b60405161086c9190618c46565b60405180910390f35b61088f600480360381019061088a91906185ea565b612453565b005b6108ab60048036038101906108a69190618194565b612882565b005b6108b5612bd2565b6040516108c29190618cbe565b60405180910390f35b6108e560048036038101906108e09190618638565b612bf8565b005b61090160048036038101906108fc919061859c565b612ff8565b005b61090b613376565b6040516109189190618dfe565b60405180910390f35b61092961339c565b6040516109369190618bf6565b60405180910390f35b61095960048036038101906109549190618194565b6133c2565b6040516109669190618bbc565b60405180910390f35b610989600480360381019061098491906186c5565b613442565b005b610993613682565b6040516109a09190618e26565b60405180910390f35b6109c360048036038101906109be9190618611565b6136a8565b005b6109df60048036038101906109da9190618194565b613a26565b005b6109fb60048036038101906109f69190618194565b613ae1565b005b610a05613b9c565b604051610a129190618bce565b60405180910390f35b610a23613bc2565b604051610a309190618c6e565b60405180910390f35b610a41613be8565b604051610a4e9190618c96565b60405180910390f35b610a716004803603810190610a6c9190618440565b613c0e565b005b610a7b6146cf565b604051610a889190618d86565b60405180910390f35b610aab6004803603810190610aa691906185c3565b6146f5565b005b610ab5614a73565b604051610ac29190618e4e565b60405180910390f35b610ae56004803603810190610ae091906181bb565b614aaf565b005b610b016004803603810190610afc9190618194565b614b46565b005b610b0b614c01565b604051610b18919061915e565b60405180910390f35b610b29614c49565b604051610b369190618b1f565b60405180910390f35b610b596004803603810190610b549190618194565b614cdf565b005b610b756004803603810190610b709190618349565b614d9a565b005b610b7f6150bb565b604051610b8c9190619170565b60405180910390f35b610baf6004803603810190610baa91906186fd565b6150c0565b005b610bcb6004803603810190610bc691906186fd565b6152c9565b604051610bd8919061915e565b60405180910390f35b610bfb6004803603810190610bf691906182e8565b6152e4565b604051610c089190618b83565b60405180910390f35b610c2b6004803603810190610c26919061854e565b615492565b005b610c476004803603810190610c42919061837a565b615810565b604051610c549190618b1f565b60405180910390f35b610c6561582f565b604051610c729190618b83565b60405180910390f35b610c956004803603810190610c909190618194565b61585f565b005b610cb16004803603810190610cac9190618194565b615972565b005b610ccd6004803603810190610cc891906186c5565b615a85565b005b610cd7615b0b565b604051610ce4919061915e565b60405180910390f35b610cf5615beb565b604051610d029190619170565b60405180910390f35b610d256004803603810190610d2091906186fd565b615c0f565b604051610d32919061915e565b60405180910390f35b610d43615c2a565b604051610d509190618b83565b60405180910390f35b610d61615d2e565b005b610d6b615e24565b604051610d789190619170565b60405180910390f35b610d89615e48565b604051610d969190618a22565b60405180910390f35b610da7615e6e565b604051610db49190618d0e565b60405180910390f35b610dc5615e94565b604051610dd29190618d36565b60405180910390f35b610de3615eba565b604051610df09190618b83565b60405180910390f35b610e136004803603810190610e0e91906186c5565b615ecd565b604051610e209190618dfe565b60405180910390f35b610e31615f13565b604051610e3e9190618ce6565b60405180910390f35b610e616004803603810190610e5c9190618194565b615f39565b005b610e7d6004803603810190610e789190618419565b61604c565b005b610e996004803603810190610e949190618349565b616486565b005b610ea3616698565b005b610ead616907565b604051610eba919061915e565b60405180910390f35b610ecb616a1f565b604051610ed8919061915e565b60405180910390f35b610ee9616a2b565b604051610ef69190618dfe565b60405180910390f35b610f196004803603810190610f149190618575565b616a51565b005b6000610f2c82616e6163ffffffff16565b905080505b919050565b60046000505481565b6000600f60009054906101000a900473ffffffffffffffffffffffffffffffffffffffff1673ffffffffffffffffffffffffffffffffffffffff1663055ad42e6040518163ffffffff1660e01b815260040160206040518083038186803b158015610faa5760006000fd5b505afa158015610fbf573d600060003e3d6000fd5b505050506040513d601f19601f82011682018060405250810190610fe39190618759565b9050610fea565b90565b6000610ffd616e9163ffffffff16565b905080505b90565b600260006000505414151515611086576040517f08c379a000000000000000000000000000000000000000000000000000000000815260040180806020018281038252601f8152602001807f5265656e7472616e637947756172643a207265656e7472616e742063616c6c0081526020015060200191505060405180910390fd5b600260006000508190909055506110d03073ffffffffffffffffffffffffffffffffffffffff163373ffffffffffffffffffffffffffffffffffffffff1614616f0a63ffffffff16565b601560009054906101000a900473ffffffffffffffffffffffffffffffffffffffff1673ffffffffffffffffffffffffffffffffffffffff16634ac8c5ae601060009054906101000a900473ffffffffffffffffffffffffffffffffffffffff166040518263ffffffff1660e01b815260040161114d9190618a22565b600060405180830381600087803b1580156111685760006000fd5b505af115801561117d573d600060003e3d6000fd5b50505050601060009054906101000a900473ffffffffffffffffffffffffffffffffffffffff1673ffffffffffffffffffffffffffffffffffffffff166307da68f56040518163ffffffff1660e01b8152600401600060405180830381600087803b1580156111ec5760006000fd5b505af1158015611201573d600060003e3d6000fd5b5050505080601060006101000a81548173ffffffffffffffffffffffffffffffffffffffff021916908373ffffffffffffffffffffffffffffffffffffffff160217905550601560009054906101000a900473ffffffffffffffffffffffffffffffffffffffff1673ffffffffffffffffffffffffffffffffffffffff16632c388d5d601060009054906101000a900473ffffffffffffffffffffffffffffffffffffffff166040518263ffffffff1660e01b81526004016112c39190618a22565b600060405180830381600087803b1580156112de5760006000fd5b505af11580156112f3573d600060003e3d6000fd5b50505050601060009054906101000a900473ffffffffffffffffffffffffffffffffffffffff1673ffffffffffffffffffffffffffffffffffffffff1660405161133c9061895e565b60405180910390207f2b51ff7c4cc8e6fe1c72e9d9685b7d2a88a5d82ad3a644afbdceb0272c89c1c360405160405180910390a35b5b600160006000508190909055505b50565b601a60005060205280600052604060002060009150909054906101000a900460ff1681565b601b60159054906101000a900460ff1681565b601d60005060205280600052604060002060009150909054906101000a900467ffffffffffffffff1681565b600260006000505414151515611468576040517f08c379a000000000000000000000000000000000000000000000000000000000815260040180806020018281038252601f8152602001807f5265656e7472616e637947756172643a207265656e7472616e742063616c6c0081526020015060200191505060405180910390fd5b600260006000508190909055506114b23073ffffffffffffffffffffffffffffffffffffffff163373ffffffffffffffffffffffffffffffffffffffff1614616f0a63ffffffff16565b6114c0616f5063ffffffff16565b5b5b600160006000508190909055505b565b60036000505481565b601b60009054906101000a900473ffffffffffffffffffffffffffffffffffffffff1681565b600060606001601e6000505414151561154f576040517f08c379a00000000000000000000000000000000000000000000000000000000081526004016115469061911f565b60405180910390fd5b6000601e6000508190909055506115bb601960009054906101000a900473ffffffffffffffffffffffffffffffffffffffff1673ffffffffffffffffffffffffffffffffffffffff163373ffffffffffffffffffffffffffffffffffffffff1614616f0a63ffffffff16565b600f60009054906101000a900473ffffffffffffffffffffffffffffffffffffffff1673ffffffffffffffffffffffffffffffffffffffff1663a43c36af86866040518363ffffffff1660e01b8152600401611618929190618ab7565b60006040518083038186803b1580156116315760006000fd5b505afa158015611646573d600060003e3d6000fd5b505050508473ffffffffffffffffffffffffffffffffffffffff166116708561712263ffffffff16565b846040516020016116829291906187cd565b60405160208183030381529060405260405161169e9190618818565b6000604051808303816000865af19150503d80600081146116db576040519150601f19603f3d011682016040523d82523d6000602084013e6116e0565b606091505b508092508193505050818190151561172e576040517f08c379a00000000000000000000000000000000000000000000000000000000081526004016117259190618e4e565b60405180910390fd5b505b6001601e6000508190909055505b935093915050565b600c60009054906101000a900473ffffffffffffffffffffffffffffffffffffffff1681565b600061177e838361713863ffffffff16565b9050611785565b92915050565b60026000506020528060005260406000206000915090505481565b601660009054906101000a900473ffffffffffffffffffffffffffffffffffffffff1681565b600f60009054906101000a900473ffffffffffffffffffffffffffffffffffffffff1681565b611851601b60009054906101000a900473ffffffffffffffffffffffffffffffffffffffff1673ffffffffffffffffffffffffffffffffffffffff163373ffffffffffffffffffffffffffffffffffffffff1614616f0a63ffffffff16565b601b60149054906101000a900460ff16801561187a5750601b60159054906101000a900460ff16155b15156118865760006000fd5b6001601b60156101000a81548160ff02191690831515021790555082600660006101000a81548173ffffffffffffffffffffffffffffffffffffffff021916908373ffffffffffffffffffffffffffffffffffffffff16021790555081600760006101000a81548173ffffffffffffffffffffffffffffffffffffffff021916908373ffffffffffffffffffffffffffffffffffffffff160217905550806008600050908051906020019061193c929190617fde565b50601760009054906101000a900473ffffffffffffffffffffffffffffffffffffffff1673ffffffffffffffffffffffffffffffffffffffff16638aea8f716040518163ffffffff1660e01b8152600401600060405180830381600087803b1580156119a85760006000fd5b505af11580156119bd573d600060003e3d6000fd5b50505050601060009054906101000a900473ffffffffffffffffffffffffffffffffffffffff1673ffffffffffffffffffffffffffffffffffffffff16638aea8f716040518163ffffffff1660e01b8152600401600060405180830381600087803b158015611a2c5760006000fd5b505af1158015611a41573d600060003e3d6000fd5b50505050601460009054906101000a900473ffffffffffffffffffffffffffffffffffffffff1673ffffffffffffffffffffffffffffffffffffffff16638aea8f716040518163ffffffff1660e01b8152600401600060405180830381600087803b158015611ab05760006000fd5b505af1158015611ac5573d600060003e3d6000fd5b50505050601660009054906101000a900473ffffffffffffffffffffffffffffffffffffffff1673ffffffffffffffffffffffffffffffffffffffff16638aea8f716040518163ffffffff1660e01b8152600401600060405180830381600087803b158015611b345760006000fd5b505af1158015611b49573d600060003e3d6000fd5b50505050601260009054906101000a900473ffffffffffffffffffffffffffffffffffffffff1673ffffffffffffffffffffffffffffffffffffffff16638aea8f716040518163ffffffff1660e01b8152600401600060405180830381600087803b158015611bb85760006000fd5b505af1158015611bcd573d600060003e3d6000fd5b50505050600a60009054906101000a900473ffffffffffffffffffffffffffffffffffffffff1673ffffffffffffffffffffffffffffffffffffffff16638aea8f716040518163ffffffff1660e01b8152600401600060405180830381600087803b158015611c3c5760006000fd5b505af1158015611c51573d600060003e3d6000fd5b50505050601360009054906101000a900473ffffffffffffffffffffffffffffffffffffffff1673ffffffffffffffffffffffffffffffffffffffff16638aea8f716040518163ffffffff1660e01b8152600401600060405180830381600087803b158015611cc05760006000fd5b505af1158015611cd5573d600060003e3d6000fd5b505050506000604051806080016040528063685a1cd660e01b7bffffffffffffffffffffffffffffffffffffffffffffffffffffffff19167bffffffffffffffffffffffffffffffffffffffffffffffffffffffff1916815260200163827015c360e01b7bffffffffffffffffffffffffffffffffffffffffffffffffffffffff19167bffffffffffffffffffffffffffffffffffffffffffffffffffffffff1916815260200163232948ea60e01b7bffffffffffffffffffffffffffffffffffffffffffffffffffffffff19167bffffffffffffffffffffffffffffffffffffffffffffffffffffffff1916815260200163b8188c8160e01b7bffffffffffffffffffffffffffffffffffffffffffffffffffffffff19167bffffffffffffffffffffffffffffffffffffffffffffffffffffffff191681526020015090506000600090505b81506004811015611eb4576001601a60005060008484600481101515611e3e57fe5b60200201517bffffffffffffffffffffffffffffffffffffffffffffffffffffffff19167bffffffffffffffffffffffffffffffffffffffffffffffffffffffff1916815260200190815260200160002060006101000a81548160ff0219169083151502179055505b8080600101915050611e1c565b50601b60006101000a81549073ffffffffffffffffffffffffffffffffffffffff0219169055505b5b505050565b601860009054906101000a900473ffffffffffffffffffffffffffffffffffffffff1681565b60056000505481565b600160009054906101000a900467ffffffffffffffff1681565b600260006000505414151515611fac576040517f08c379a000000000000000000000000000000000000000000000000000000000815260040180806020018281038252601f8152602001807f5265656e7472616e637947756172643a207265656e7472616e742063616c6c0081526020015060200191505060405180910390fd5b60026000600050819090905550611ff63073ffffffffffffffffffffffffffffffffffffffff163373ffffffffffffffffffffffffffffffffffffffff1614616f0a63ffffffff16565b61208f600860005080548060200260200160405190810160405280929190818152602001828054801561207e57602002820191906000526020600020905b8160009054906101000a900473ffffffffffffffffffffffffffffffffffffffff1673ffffffffffffffffffffffffffffffffffffffff1681526020019060010190808311612034575b50505050508261713863ffffffff16565b1515156120d1576040517f08c379a00000000000000000000000000000000000000000000000000000000081526004016120c890619062565b60405180910390fd5b6000601d60005060008373ffffffffffffffffffffffffffffffffffffffff1673ffffffffffffffffffffffffffffffffffffffff16815260200190815260200160002060009054906101000a900467ffffffffffffffff1667ffffffffffffffff16141515612176576040517f08c379a000000000000000000000000000000000000000000000000000000000815260040161216d90618f27565b60405180910390fd5b600860005081908060018154018082558091505060019003906000526020600020900160005b9091909190916101000a81548173ffffffffffffffffffffffffffffffffffffffff021916908373ffffffffffffffffffffffffffffffffffffffff160217905550601060009054906101000a900473ffffffffffffffffffffffffffffffffffffffff1673ffffffffffffffffffffffffffffffffffffffff1663c381c1e6826040518263ffffffff1660e01b81526004016122399190618dfe565b600060405180830381600087803b1580156122545760006000fd5b505af1158015612269573d600060003e3d6000fd5b50505050601660009054906101000a900473ffffffffffffffffffffffffffffffffffffffff1673ffffffffffffffffffffffffffffffffffffffff1663c381c1e6826040518263ffffffff1660e01b81526004016122c89190618dfe565b600060405180830381600087803b1580156122e35760006000fd5b505af11580156122f8573d600060003e3d6000fd5b50505050601760009054906101000a900473ffffffffffffffffffffffffffffffffffffffff1673ffffffffffffffffffffffffffffffffffffffff1663c381c1e6826040518263ffffffff1660e01b81526004016123579190618dfe565b600060405180830381600087803b1580156123725760006000fd5b505af1158015612387573d600060003e3d6000fd5b50505050601460009054906101000a900473ffffffffffffffffffffffffffffffffffffffff1673ffffffffffffffffffffffffffffffffffffffff1663c381c1e6826040518263ffffffff1660e01b81526004016123e69190618dfe565b600060405180830381600087803b1580156124015760006000fd5b505af1158015612416573d600060003e3d6000fd5b505050505b5b600160006000508190909055505b50565b601160009054906101000a900473ffffffffffffffffffffffffffffffffffffffff1681565b6002600060005054141515156124d4576040517f08c379a000000000000000000000000000000000000000000000000000000000815260040180806020018281038252601f8152602001807f5265656e7472616e637947756172643a207265656e7472616e742063616c6c0081526020015060200191505060405180910390fd5b6002600060005081909090555061251e3073ffffffffffffffffffffffffffffffffffffffff163373ffffffffffffffffffffffffffffffffffffffff1614616f0a63ffffffff16565b601560009054906101000a900473ffffffffffffffffffffffffffffffffffffffff1673ffffffffffffffffffffffffffffffffffffffff16634ac8c5ae601760009054906101000a900473ffffffffffffffffffffffffffffffffffffffff166040518263ffffffff1660e01b815260040161259b9190618a22565b600060405180830381600087803b1580156125b65760006000fd5b505af11580156125cb573d600060003e3d6000fd5b50505050601760009054906101000a900473ffffffffffffffffffffffffffffffffffffffff1673ffffffffffffffffffffffffffffffffffffffff166307da68f56040518163ffffffff1660e01b8152600401600060405180830381600087803b15801561263a5760006000fd5b505af115801561264f573d600060003e3d6000fd5b5050505080601760006101000a81548173ffffffffffffffffffffffffffffffffffffffff021916908373ffffffffffffffffffffffffffffffffffffffff160217905550601560009054906101000a900473ffffffffffffffffffffffffffffffffffffffff1673ffffffffffffffffffffffffffffffffffffffff16632c388d5d601760009054906101000a900473ffffffffffffffffffffffffffffffffffffffff166040518263ffffffff1660e01b81526004016127119190618a22565b600060405180830381600087803b15801561272c5760006000fd5b505af1158015612741573d600060003e3d6000fd5b50505050600960009054906101000a900473ffffffffffffffffffffffffffffffffffffffff1673ffffffffffffffffffffffffffffffffffffffff1663a678f336601760009054906101000a900473ffffffffffffffffffffffffffffffffffffffff166040518263ffffffff1660e01b81526004016127c29190618a22565b600060405180830381600087803b1580156127dd5760006000fd5b505af11580156127f2573d600060003e3d6000fd5b50505050601760009054906101000a900473ffffffffffffffffffffffffffffffffffffffff1673ffffffffffffffffffffffffffffffffffffffff1660405161283b9061889a565b60405180910390207f2b51ff7c4cc8e6fe1c72e9d9685b7d2a88a5d82ad3a644afbdceb0272c89c1c360405160405180910390a35b5b600160006000508190909055505b50565b600260006000505414151515612903576040517f08c379a000000000000000000000000000000000000000000000000000000000815260040180806020018281038252601f8152602001807f5265656e7472616e637947756172643a207265656e7472616e742063616c6c0081526020015060200191505060405180910390fd5b6002600060005081909090555061294d3073ffffffffffffffffffffffffffffffffffffffff163373ffffffffffffffffffffffffffffffffffffffff1614616f0a63ffffffff16565b6000600160009054906101000a900467ffffffffffffffff1667ffffffffffffffff161115156129b2576040517f08c379a00000000000000000000000000000000000000000000000000000000081526004016129a9906190e0565b60405180910390fd5b600c60009054906101000a900473ffffffffffffffffffffffffffffffffffffffff1673ffffffffffffffffffffffffffffffffffffffff166342966c68600c60009054906101000a900473ffffffffffffffffffffffffffffffffffffffff1673ffffffffffffffffffffffffffffffffffffffff166370a08231306040518263ffffffff1660e01b8152600401612a4b9190618a22565b60206040518083038186803b158015612a645760006000fd5b505afa158015612a79573d600060003e3d6000fd5b505050506040513d601f19601f82011682018060405250810190612a9d91906186e1565b6040518263ffffffff1660e01b8152600401612ab9919061915e565b600060405180830381600087803b158015612ad45760006000fd5b505af1158015612ae9573d600060003e3d6000fd5b50505050600c60009054906101000a900473ffffffffffffffffffffffffffffffffffffffff1673ffffffffffffffffffffffffffffffffffffffff16633c4a25d0826040518263ffffffff1660e01b8152600401612b489190618a22565b600060405180830381600087803b158015612b635760006000fd5b505af1158015612b78573d600060003e3d6000fd5b505050508073ffffffffffffffffffffffffffffffffffffffff167f078ca541eec5b410213fc65330fc5a7324eb56fe692344e7bc1b8be56bd3c16960405160405180910390a25b5b600160006000508190909055505b50565b601360009054906101000a900473ffffffffffffffffffffffffffffffffffffffff1681565b600260006000505414151515612c79576040517f08c379a000000000000000000000000000000000000000000000000000000000815260040180806020018281038252601f8152602001807f5265656e7472616e637947756172643a207265656e7472616e742063616c6c0081526020015060200191505060405180910390fd5b60026000600050819090905550612cc33073ffffffffffffffffffffffffffffffffffffffff163373ffffffffffffffffffffffffffffffffffffffff1614616f0a63ffffffff16565b6001600860005080549050111515612d10576040517f08c379a0000000000000000000000000000000000000000000000000000000008152600401612d0790618fe4565b60405180910390fd5b612d1e6171bb63ffffffff16565b601d60005060008373ffffffffffffffffffffffffffffffffffffffff1673ffffffffffffffffffffffffffffffffffffffff16815260200190815260200160002060006101000a81548167ffffffffffffffff021916908367ffffffffffffffff160217905550612e1f6008600050805480602002602001604051908101604052809291908181526020018280548015612e0e57602002820191906000526020600020905b8160009054906101000a900473ffffffffffffffffffffffffffffffffffffffff1673ffffffffffffffffffffffffffffffffffffffff1681526020019060010190808311612dc4575b5050505050826171d663ffffffff16565b60086000509080519060200190612e37929190617fde565b50601060009054906101000a900473ffffffffffffffffffffffffffffffffffffffff1673ffffffffffffffffffffffffffffffffffffffff1663150147d7826040518263ffffffff1660e01b8152600401612e939190618dfe565b600060405180830381600087803b158015612eae5760006000fd5b505af1158015612ec3573d600060003e3d6000fd5b50505050601660009054906101000a900473ffffffffffffffffffffffffffffffffffffffff1673ffffffffffffffffffffffffffffffffffffffff1663150147d7826040518263ffffffff1660e01b8152600401612f229190618dfe565b600060405180830381600087803b158015612f3d5760006000fd5b505af1158015612f52573d600060003e3d6000fd5b50505050601760009054906101000a900473ffffffffffffffffffffffffffffffffffffffff1673ffffffffffffffffffffffffffffffffffffffff1663150147d7826040518263ffffffff1660e01b8152600401612fb19190618dfe565b600060405180830381600087803b158015612fcc5760006000fd5b505af1158015612fe1573d600060003e3d6000fd5b505050505b5b600160006000508190909055505b50565b600260006000505414151515613079576040517f08c379a000000000000000000000000000000000000000000000000000000000815260040180806020018281038252601f8152602001807f5265656e7472616e637947756172643a207265656e7472616e742063616c6c0081526020015060200191505060405180910390fd5b600260006000508190909055506130c33073ffffffffffffffffffffffffffffffffffffffff163373ffffffffffffffffffffffffffffffffffffffff1614616f0a63ffffffff16565b601560009054906101000a900473ffffffffffffffffffffffffffffffffffffffff1673ffffffffffffffffffffffffffffffffffffffff16634ac8c5ae601460009054906101000a900473ffffffffffffffffffffffffffffffffffffffff166040518263ffffffff1660e01b81526004016131409190618a22565b600060405180830381600087803b15801561315b5760006000fd5b505af1158015613170573d600060003e3d6000fd5b50505050601460009054906101000a900473ffffffffffffffffffffffffffffffffffffffff1673ffffffffffffffffffffffffffffffffffffffff166307da68f56040518163ffffffff1660e01b8152600401600060405180830381600087803b1580156131df5760006000fd5b505af11580156131f4573d600060003e3d6000fd5b5050505080601460006101000a81548173ffffffffffffffffffffffffffffffffffffffff021916908373ffffffffffffffffffffffffffffffffffffffff160217905550601560009054906101000a900473ffffffffffffffffffffffffffffffffffffffff1673ffffffffffffffffffffffffffffffffffffffff16632c388d5d601460009054906101000a900473ffffffffffffffffffffffffffffffffffffffff166040518263ffffffff1660e01b81526004016132b69190618a22565b600060405180830381600087803b1580156132d15760006000fd5b505af11580156132e6573d600060003e3d6000fd5b50505050601460009054906101000a900473ffffffffffffffffffffffffffffffffffffffff1673ffffffffffffffffffffffffffffffffffffffff1660405161332f906189f1565b60405180910390207f2b51ff7c4cc8e6fe1c72e9d9685b7d2a88a5d82ad3a644afbdceb0272c89c1c360405160405180910390a35b5b600160006000508190909055505b50565b600660009054906101000a900473ffffffffffffffffffffffffffffffffffffffff1681565b600a60009054906101000a900473ffffffffffffffffffffffffffffffffffffffff1681565b60006040518060400160405280601581526020017f5a68752050726f746f636f6c20476f7665726e6f72000000000000000000000081526020015061340b61736063ffffffff16565b30846040516020016134209493929190618837565b60405160208183030381529060405280519060200120905061343d565b919050565b6002600060005054141515156134c3576040517f08c379a000000000000000000000000000000000000000000000000000000000815260040180806020018281038252601f8152602001807f5265656e7472616e637947756172643a207265656e7472616e742063616c6c0081526020015060200191505060405180910390fd5b60026000600050819090905550600033905060008211151561351a576040517f08c379a000000000000000000000000000000000000000000000000000000000815260040161351190618f66565b60405180910390fd5b61357282600260005060008473ffffffffffffffffffffffffffffffffffffffff1673ffffffffffffffffffffffffffffffffffffffff1681526020019081526020016000206000505461737490919063ffffffff16565b600260005060008373ffffffffffffffffffffffffffffffffffffffff1673ffffffffffffffffffffffffffffffffffffffff168152602001908152602001600020600050819090905550613613600c60009054906101000a900473ffffffffffffffffffffffffffffffffffffffff1682600f60009054906101000a900473ffffffffffffffffffffffffffffffffffffffff16856173fd63ffffffff16565b61362161762863ffffffff16565b8073ffffffffffffffffffffffffffffffffffffffff167f6f076ad9d1927fd5f792070276b90549d2433311ff94fe0d7afba682c150817a83604051613667919061915e565b60405180910390a2505b600160006000508190909055505b50565b600d60009054906101000a900473ffffffffffffffffffffffffffffffffffffffff1681565b600260006000505414151515613729576040517f08c379a000000000000000000000000000000000000000000000000000000000815260040180806020018281038252601f8152602001807f5265656e7472616e637947756172643a207265656e7472616e742063616c6c0081526020015060200191505060405180910390fd5b600260006000508190909055506137733073ffffffffffffffffffffffffffffffffffffffff163373ffffffffffffffffffffffffffffffffffffffff1614616f0a63ffffffff16565b601560009054906101000a900473ffffffffffffffffffffffffffffffffffffffff1673ffffffffffffffffffffffffffffffffffffffff16634ac8c5ae601860009054906101000a900473ffffffffffffffffffffffffffffffffffffffff166040518263ffffffff1660e01b81526004016137f09190618a22565b600060405180830381600087803b15801561380b5760006000fd5b505af1158015613820573d600060003e3d6000fd5b50505050601860009054906101000a900473ffffffffffffffffffffffffffffffffffffffff1673ffffffffffffffffffffffffffffffffffffffff166307da68f56040518163ffffffff1660e01b8152600401600060405180830381600087803b15801561388f5760006000fd5b505af11580156138a4573d600060003e3d6000fd5b5050505080601860006101000a81548173ffffffffffffffffffffffffffffffffffffffff021916908373ffffffffffffffffffffffffffffffffffffffff160217905550601560009054906101000a900473ffffffffffffffffffffffffffffffffffffffff1673ffffffffffffffffffffffffffffffffffffffff16632c388d5d601860009054906101000a900473ffffffffffffffffffffffffffffffffffffffff166040518263ffffffff1660e01b81526004016139669190618a22565b600060405180830381600087803b1580156139815760006000fd5b505af1158015613996573d600060003e3d6000fd5b50505050601860009054906101000a900473ffffffffffffffffffffffffffffffffffffffff1673ffffffffffffffffffffffffffffffffffffffff166040516139df906188fc565b60405180910390207f2b51ff7c4cc8e6fe1c72e9d9685b7d2a88a5d82ad3a644afbdceb0272c89c1c360405160405180910390a35b5b600160006000508190909055505b50565b613add601360009054906101000a900473ffffffffffffffffffffffffffffffffffffffff1673ffffffffffffffffffffffffffffffffffffffff168273ffffffffffffffffffffffffffffffffffffffff161480613ad25750601060009054906101000a900473ffffffffffffffffffffffffffffffffffffffff1673ffffffffffffffffffffffffffffffffffffffff168273ffffffffffffffffffffffffffffffffffffffff16145b616f0a63ffffffff16565b5b50565b613b98601260009054906101000a900473ffffffffffffffffffffffffffffffffffffffff1673ffffffffffffffffffffffffffffffffffffffff168273ffffffffffffffffffffffffffffffffffffffff161480613b8d5750601860009054906101000a900473ffffffffffffffffffffffffffffffffffffffff1673ffffffffffffffffffffffffffffffffffffffff168273ffffffffffffffffffffffffffffffffffffffff16145b616f0a63ffffffff16565b5b50565b600960009054906101000a900473ffffffffffffffffffffffffffffffffffffffff1681565b601060009054906101000a900473ffffffffffffffffffffffffffffffffffffffff1681565b601260009054906101000a900473ffffffffffffffffffffffffffffffffffffffff1681565b613c6d601b60009054906101000a900473ffffffffffffffffffffffffffffffffffffffff1673ffffffffffffffffffffffffffffffffffffffff163373ffffffffffffffffffffffffffffffffffffffff1614616f0a63ffffffff16565b601b60149054906101000a900460ff16158015613c975750601b60159054906101000a900460ff16155b1515613ca35760006000fd5b6001601b60146101000a81548160ff02191690831515021790555082601560006101000a81548173ffffffffffffffffffffffffffffffffffffffff021916908373ffffffffffffffffffffffffffffffffffffffff160217905550601560009054906101000a900473ffffffffffffffffffffffffffffffffffffffff1673ffffffffffffffffffffffffffffffffffffffff16632c388d5d306040518263ffffffff1660e01b8152600401613d5a9190618a22565b600060405180830381600087803b158015613d755760006000fd5b505af1158015613d8a573d600060003e3d6000fd5b50505050601560009054906101000a900473ffffffffffffffffffffffffffffffffffffffff1673ffffffffffffffffffffffffffffffffffffffff16632c388d5d600f60009054906101000a900473ffffffffffffffffffffffffffffffffffffffff166040518263ffffffff1660e01b8152600401613e0b9190618a22565b600060405180830381600087803b158015613e265760006000fd5b505af1158015613e3b573d600060003e3d6000fd5b5050505089600a60006101000a81548173ffffffffffffffffffffffffffffffffffffffff021916908373ffffffffffffffffffffffffffffffffffffffff160217905550601560009054906101000a900473ffffffffffffffffffffffffffffffffffffffff1673ffffffffffffffffffffffffffffffffffffffff16632c388d5d600a60009054906101000a900473ffffffffffffffffffffffffffffffffffffffff166040518263ffffffff1660e01b8152600401613efd9190618a22565b600060405180830381600087803b158015613f185760006000fd5b505af1158015613f2d573d600060003e3d6000fd5b5050505088600c60006101000a81548173ffffffffffffffffffffffffffffffffffffffff021916908373ffffffffffffffffffffffffffffffffffffffff160217905550601560009054906101000a900473ffffffffffffffffffffffffffffffffffffffff1673ffffffffffffffffffffffffffffffffffffffff16632c388d5d600d60009054906101000a900473ffffffffffffffffffffffffffffffffffffffff166040518263ffffffff1660e01b8152600401613fef9190618a22565b600060405180830381600087803b15801561400a5760006000fd5b505af115801561401f573d600060003e3d6000fd5b5050505087601060006101000a81548173ffffffffffffffffffffffffffffffffffffffff021916908373ffffffffffffffffffffffffffffffffffffffff160217905550601560009054906101000a900473ffffffffffffffffffffffffffffffffffffffff1673ffffffffffffffffffffffffffffffffffffffff16632c388d5d601060009054906101000a900473ffffffffffffffffffffffffffffffffffffffff166040518263ffffffff1660e01b81526004016140e19190618a22565b600060405180830381600087803b1580156140fc5760006000fd5b505af1158015614111573d600060003e3d6000fd5b5050505086601260006101000a81548173ffffffffffffffffffffffffffffffffffffffff021916908373ffffffffffffffffffffffffffffffffffffffff160217905550601560009054906101000a900473ffffffffffffffffffffffffffffffffffffffff1673ffffffffffffffffffffffffffffffffffffffff16632c388d5d601260009054906101000a900473ffffffffffffffffffffffffffffffffffffffff166040518263ffffffff1660e01b81526004016141d39190618a22565b600060405180830381600087803b1580156141ee5760006000fd5b505af1158015614203573d600060003e3d6000fd5b5050505085601360006101000a81548173ffffffffffffffffffffffffffffffffffffffff021916908373ffffffffffffffffffffffffffffffffffffffff160217905550601560009054906101000a900473ffffffffffffffffffffffffffffffffffffffff1673ffffffffffffffffffffffffffffffffffffffff16632c388d5d601360009054906101000a900473ffffffffffffffffffffffffffffffffffffffff166040518263ffffffff1660e01b81526004016142c59190618a22565b600060405180830381600087803b1580156142e05760006000fd5b505af11580156142f5573d600060003e3d6000fd5b5050505083601460006101000a81548173ffffffffffffffffffffffffffffffffffffffff021916908373ffffffffffffffffffffffffffffffffffffffff160217905550601560009054906101000a900473ffffffffffffffffffffffffffffffffffffffff1673ffffffffffffffffffffffffffffffffffffffff16632c388d5d601460009054906101000a900473ffffffffffffffffffffffffffffffffffffffff166040518263ffffffff1660e01b81526004016143b79190618a22565b600060405180830381600087803b1580156143d25760006000fd5b505af11580156143e7573d600060003e3d6000fd5b5050505084601660006101000a81548173ffffffffffffffffffffffffffffffffffffffff021916908373ffffffffffffffffffffffffffffffffffffffff160217905550601560009054906101000a900473ffffffffffffffffffffffffffffffffffffffff1673ffffffffffffffffffffffffffffffffffffffff16632c388d5d601660009054906101000a900473ffffffffffffffffffffffffffffffffffffffff166040518263ffffffff1660e01b81526004016144a99190618a22565b600060405180830381600087803b1580156144c45760006000fd5b505af11580156144d9573d600060003e3d6000fd5b5050505081601760006101000a81548173ffffffffffffffffffffffffffffffffffffffff021916908373ffffffffffffffffffffffffffffffffffffffff160217905550601560009054906101000a900473ffffffffffffffffffffffffffffffffffffffff1673ffffffffffffffffffffffffffffffffffffffff16632c388d5d601760009054906101000a900473ffffffffffffffffffffffffffffffffffffffff166040518263ffffffff1660e01b815260040161459b9190618a22565b600060405180830381600087803b1580156145b65760006000fd5b505af11580156145cb573d600060003e3d6000fd5b5050505080601860006101000a81548173ffffffffffffffffffffffffffffffffffffffff021916908373ffffffffffffffffffffffffffffffffffffffff160217905550601560009054906101000a900473ffffffffffffffffffffffffffffffffffffffff1673ffffffffffffffffffffffffffffffffffffffff16632c388d5d601860009054906101000a900473ffffffffffffffffffffffffffffffffffffffff166040518263ffffffff1660e01b815260040161468d9190618a22565b600060405180830381600087803b1580156146a85760006000fd5b505af11580156146bd573d600060003e3d6000fd5b505050505b5b50505050505050505050565b601760009054906101000a900473ffffffffffffffffffffffffffffffffffffffff1681565b600260006000505414151515614776576040517f08c379a000000000000000000000000000000000000000000000000000000000815260040180806020018281038252601f8152602001807f5265656e7472616e637947756172643a207265656e7472616e742063616c6c0081526020015060200191505060405180910390fd5b600260006000508190909055506147c03073ffffffffffffffffffffffffffffffffffffffff163373ffffffffffffffffffffffffffffffffffffffff1614616f0a63ffffffff16565b601560009054906101000a900473ffffffffffffffffffffffffffffffffffffffff1673ffffffffffffffffffffffffffffffffffffffff16634ac8c5ae601660009054906101000a900473ffffffffffffffffffffffffffffffffffffffff166040518263ffffffff1660e01b815260040161483d9190618a22565b600060405180830381600087803b1580156148585760006000fd5b505af115801561486d573d600060003e3d6000fd5b50505050601660009054906101000a900473ffffffffffffffffffffffffffffffffffffffff1673ffffffffffffffffffffffffffffffffffffffff166307da68f56040518163ffffffff1660e01b8152600401600060405180830381600087803b1580156148dc5760006000fd5b505af11580156148f1573d600060003e3d6000fd5b5050505080601660006101000a81548173ffffffffffffffffffffffffffffffffffffffff021916908373ffffffffffffffffffffffffffffffffffffffff160217905550601560009054906101000a900473ffffffffffffffffffffffffffffffffffffffff1673ffffffffffffffffffffffffffffffffffffffff16632c388d5d601660009054906101000a900473ffffffffffffffffffffffffffffffffffffffff166040518263ffffffff1660e01b81526004016149b39190618a22565b600060405180830381600087803b1580156149ce5760006000fd5b505af11580156149e3573d600060003e3d6000fd5b50505050601660009054906101000a900473ffffffffffffffffffffffffffffffffffffffff1673ffffffffffffffffffffffffffffffffffffffff16604051614a2c906188cb565b60405180910390207f2b51ff7c4cc8e6fe1c72e9d9685b7d2a88a5d82ad3a644afbdceb0272c89c1c360405160405180910390a35b5b600160006000508190909055505b50565b6040518060400160405280601581526020017f5a68752050726f746f636f6c20476f7665726e6f72000000000000000000000081526020015081565b600f60009054906101000a900473ffffffffffffffffffffffffffffffffffffffff1673ffffffffffffffffffffffffffffffffffffffff1663a43c36af8484846040518463ffffffff1660e01b8152600401614b0e93929190618a4a565b60006040518083038186803b158015614b275760006000fd5b505afa158015614b3c573d600060003e3d6000fd5b505050505b505050565b614bfd601360009054906101000a900473ffffffffffffffffffffffffffffffffffffffff1673ffffffffffffffffffffffffffffffffffffffff168273ffffffffffffffffffffffffffffffffffffffff161480614bf25750601260009054906101000a900473ffffffffffffffffffffffffffffffffffffffff1673ffffffffffffffffffffffffffffffffffffffff168273ffffffffffffffffffffffffffffffffffffffff16145b616f0a63ffffffff16565b5b50565b6000614c3f600460005054614c31600360005054614c2361690763ffffffff16565b61737490919063ffffffff16565b6176d990919063ffffffff16565b9050614c46565b90565b60606008600050805480602002602001604051908101604052809291908181526020018280548015614cd057602002820191906000526020600020905b8160009054906101000a900473ffffffffffffffffffffffffffffffffffffffff1673ffffffffffffffffffffffffffffffffffffffff1681526020019060010190808311614c86575b50505050509050614cdc565b90565b614d96601360009054906101000a900473ffffffffffffffffffffffffffffffffffffffff1673ffffffffffffffffffffffffffffffffffffffff168273ffffffffffffffffffffffffffffffffffffffff161480614d8b5750601060009054906101000a900473ffffffffffffffffffffffffffffffffffffffff1673ffffffffffffffffffffffffffffffffffffffff168273ffffffffffffffffffffffffffffffffffffffff16145b616f0a63ffffffff16565b5b50565b600260006000505414151515614e1b576040517f08c379a000000000000000000000000000000000000000000000000000000000815260040180806020018281038252601f8152602001807f5265656e7472616e637947756172643a207265656e7472616e742063616c6c0081526020015060200191505060405180910390fd5b600260006000508190909055506000339050614ee4601360009054906101000a900473ffffffffffffffffffffffffffffffffffffffff1673ffffffffffffffffffffffffffffffffffffffff168273ffffffffffffffffffffffffffffffffffffffff161480614ed95750601760009054906101000a900473ffffffffffffffffffffffffffffffffffffffff1673ffffffffffffffffffffffffffffffffffffffff168273ffffffffffffffffffffffffffffffffffffffff16145b616f0a63ffffffff16565b6000600c60009054906101000a900473ffffffffffffffffffffffffffffffffffffffff1673ffffffffffffffffffffffffffffffffffffffff166370a08231306040518263ffffffff1660e01b8152600401614f419190618a22565b60206040518083038186803b158015614f5a5760006000fd5b505afa158015614f6f573d600060003e3d6000fd5b505050506040513d601f19601f82011682018060405250810190614f9391906186e1565b905082811015615072576000811115614fda57614fd9600c60009054906101000a900473ffffffffffffffffffffffffffffffffffffffff16858361776263ffffffff16565b5b600c60009054906101000a900473ffffffffffffffffffffffffffffffffffffffff1673ffffffffffffffffffffffffffffffffffffffff1663449a52f8858386036040518363ffffffff1660e01b8152600401615039929190618af0565b600060405180830381600087803b1580156150545760006000fd5b505af1158015615069573d600060003e3d6000fd5b505050506150a6565b6150a5600c60009054906101000a900473ffffffffffffffffffffffffffffffffffffffff16858561776263ffffffff16565b5b50505b600160006000508190909055505b5050565b601481565b600260006000505414151515615141576040517f08c379a000000000000000000000000000000000000000000000000000000000815260040180806020018281038252601f8152602001807f5265656e7472616e637947756172643a207265656e7472616e742063616c6c0081526020015060200191505060405180910390fd5b6002600060005081909090555061518b3073ffffffffffffffffffffffffffffffffffffffff163373ffffffffffffffffffffffffffffffffffffffff1614616f0a63ffffffff16565b6000601f60009054906101000a900467ffffffffffffffff1667ffffffffffffffff161415156151f0576040517f08c379a00000000000000000000000000000000000000000000000000000000081526004016151e790618fa5565b60405180910390fd5b6151ff8161796e63ffffffff16565b601f60006101000a81548167ffffffffffffffff021916908367ffffffffffffffff160217905550600f60009054906101000a900473ffffffffffffffffffffffffffffffffffffffff1673ffffffffffffffffffffffffffffffffffffffff1663b8188c81826040518263ffffffff1660e01b81526004016152829190619170565b600060405180830381600087803b15801561529d5760006000fd5b505af11580156152b2573d600060003e3d6000fd5b505050505b5b600160006000508190909055505b50565b60006152da826179f663ffffffff16565b905080505b919050565b60006002600f60009054906101000a900473ffffffffffffffffffffffffffffffffffffffff1673ffffffffffffffffffffffffffffffffffffffff1663055ad42e6040518163ffffffff1660e01b815260040160206040518083038186803b1580156153515760006000fd5b505afa158015615366573d600060003e3d6000fd5b505050506040513d601f19601f8201168201806040525081019061538a9190618759565b60ff1610151561539d576000905061548c565b60006153ef6153bf6153b4866133c263ffffffff16565b617b1663ffffffff16565b8460000160208101906153d29190618732565b856020013560001916866040013560001916617b7a63ffffffff16565b90507f000000000000000000000000000000000000000000000000000000000000000073ffffffffffffffffffffffffffffffffffffffff168173ffffffffffffffffffffffffffffffffffffffff16141515615481576040517f08c379a000000000000000000000000000000000000000000000000000000000815260040161547890618e6a565b60405180910390fd5b600191505061548c56505b92915050565b600260006000505414151515615513576040517f08c379a000000000000000000000000000000000000000000000000000000000815260040180806020018281038252601f8152602001807f5265656e7472616e637947756172643a207265656e7472616e742063616c6c0081526020015060200191505060405180910390fd5b6002600060005081909090555061555d3073ffffffffffffffffffffffffffffffffffffffff163373ffffffffffffffffffffffffffffffffffffffff1614616f0a63ffffffff16565b601560009054906101000a900473ffffffffffffffffffffffffffffffffffffffff1673ffffffffffffffffffffffffffffffffffffffff16634ac8c5ae601260009054906101000a900473ffffffffffffffffffffffffffffffffffffffff166040518263ffffffff1660e01b81526004016155da9190618a22565b600060405180830381600087803b1580156155f55760006000fd5b505af115801561560a573d600060003e3d6000fd5b50505050601260009054906101000a900473ffffffffffffffffffffffffffffffffffffffff1673ffffffffffffffffffffffffffffffffffffffff166307da68f56040518163ffffffff1660e01b8152600401600060405180830381600087803b1580156156795760006000fd5b505af115801561568e573d600060003e3d6000fd5b5050505080601260006101000a81548173ffffffffffffffffffffffffffffffffffffffff021916908373ffffffffffffffffffffffffffffffffffffffff160217905550601560009054906101000a900473ffffffffffffffffffffffffffffffffffffffff1673ffffffffffffffffffffffffffffffffffffffff16632c388d5d601260009054906101000a900473ffffffffffffffffffffffffffffffffffffffff166040518263ffffffff1660e01b81526004016157509190618a22565b600060405180830381600087803b15801561576b5760006000fd5b505af1158015615780573d600060003e3d6000fd5b50505050601260009054906101000a900473ffffffffffffffffffffffffffffffffffffffff1673ffffffffffffffffffffffffffffffffffffffff166040516157c9906189c0565b60405180910390207f2b51ff7c4cc8e6fe1c72e9d9685b7d2a88a5d82ad3a644afbdceb0272c89c1c360405160405180910390a35b5b600160006000508190909055505b50565b606061582283836171d663ffffffff16565b9050615829565b92915050565b60006000600160009054906101000a900467ffffffffffffffff1667ffffffffffffffff1611905061585c565b90565b61596e601360009054906101000a900473ffffffffffffffffffffffffffffffffffffffff1673ffffffffffffffffffffffffffffffffffffffff168273ffffffffffffffffffffffffffffffffffffffff16148061590b5750601260009054906101000a900473ffffffffffffffffffffffffffffffffffffffff1673ffffffffffffffffffffffffffffffffffffffff168273ffffffffffffffffffffffffffffffffffffffff16145b806159635750601860009054906101000a900473ffffffffffffffffffffffffffffffffffffffff1673ffffffffffffffffffffffffffffffffffffffff168273ffffffffffffffffffffffffffffffffffffffff16145b616f0a63ffffffff16565b5b50565b615a81601360009054906101000a900473ffffffffffffffffffffffffffffffffffffffff1673ffffffffffffffffffffffffffffffffffffffff168273ffffffffffffffffffffffffffffffffffffffff161480615a1e5750601260009054906101000a900473ffffffffffffffffffffffffffffffffffffffff1673ffffffffffffffffffffffffffffffffffffffff168273ffffffffffffffffffffffffffffffffffffffff16145b80615a765750601860009054906101000a900473ffffffffffffffffffffffffffffffffffffffff1673ffffffffffffffffffffffffffffffffffffffff168273ffffffffffffffffffffffffffffffffffffffff16145b616f0a63ffffffff16565b5b50565b615ae4601360009054906101000a900473ffffffffffffffffffffffffffffffffffffffff1673ffffffffffffffffffffffffffffffffffffffff163373ffffffffffffffffffffffffffffffffffffffff1614616f0a63ffffffff16565b615afc8160046000505461737490919063ffffffff16565b60046000508190909055505b50565b60006000600160009054906101000a900467ffffffffffffffff1667ffffffffffffffff161115615b3f5760009050615be8565b6000615b4f616e9163ffffffff16565b90506000601f60009054906101000a900467ffffffffffffffff1667ffffffffffffffff161480615ba95750601f60009054906101000a900467ffffffffffffffff1667ffffffffffffffff168167ffffffffffffffff16105b15615bb8576000915050615be8565b615bdf601f60009054906101000a900467ffffffffffffffff168203617d9563ffffffff16565b915050615be856505b90565b7f000000000000000000000000000000000000000000000000000000000000000081565b6000615c2082617d9563ffffffff16565b905080505b919050565b6000615c546703782dace9d90000615c46614c0163ffffffff16565b617e1a90919063ffffffff16565b600c60009054906101000a900473ffffffffffffffffffffffffffffffffffffffff1673ffffffffffffffffffffffffffffffffffffffff166370a08231600f60009054906101000a900473ffffffffffffffffffffffffffffffffffffffff166040518263ffffffff1660e01b8152600401615cd19190618a22565b60206040518083038186803b158015615cea5760006000fd5b505afa158015615cff573d600060003e3d6000fd5b505050506040513d601f19601f82011682018060405250810190615d2391906186e1565b119050615d2b565b90565b600260006000505414151515615daf576040517f08c379a000000000000000000000000000000000000000000000000000000000815260040180806020018281038252601f8152602001807f5265656e7472616e637947756172643a207265656e7472616e742063616c6c0081526020015060200191505060405180910390fd5b6002600060005081909090555043601c60005054101515615e05576040517f08c379a0000000000000000000000000000000000000000000000000000000008152600401615dfc90619023565b60405180910390fd5b615e13616f5063ffffffff16565b5b600160006000508190909055505b565b7f000000000000000000000000000000000000000000000000000000000000000081565b601960009054906101000a900473ffffffffffffffffffffffffffffffffffffffff1681565b601460009054906101000a900473ffffffffffffffffffffffffffffffffffffffff1681565b601560009054906101000a900473ffffffffffffffffffffffffffffffffffffffff1681565b601b60149054906101000a900460ff1681565b60086000508181548110615ee057600080fd5b906000526020600020900160005b9150909054906101000a900473ffffffffffffffffffffffffffffffffffffffff1681565b600e60009054906101000a900473ffffffffffffffffffffffffffffffffffffffff1681565b616048601360009054906101000a900473ffffffffffffffffffffffffffffffffffffffff1673ffffffffffffffffffffffffffffffffffffffff168273ffffffffffffffffffffffffffffffffffffffff161480615fe55750601260009054906101000a900473ffffffffffffffffffffffffffffffffffffffff1673ffffffffffffffffffffffffffffffffffffffff168273ffffffffffffffffffffffffffffffffffffffff16145b8061603d5750601860009054906101000a900473ffffffffffffffffffffffffffffffffffffffff1673ffffffffffffffffffffffffffffffffffffffff168273ffffffffffffffffffffffffffffffffffffffff16145b616f0a63ffffffff16565b5b50565b6002600060005054141515156160cd576040517f08c379a000000000000000000000000000000000000000000000000000000000815260040180806020018281038252601f8152602001807f5265656e7472616e637947756172643a207265656e7472616e742063616c6c0081526020015060200191505060405180910390fd5b600260006000508190909055506161173073ffffffffffffffffffffffffffffffffffffffff163373ffffffffffffffffffffffffffffffffffffffff1614616f0a63ffffffff16565b600073ffffffffffffffffffffffffffffffffffffffff16600b60009054906101000a900473ffffffffffffffffffffffffffffffffffffffff1673ffffffffffffffffffffffffffffffffffffffff161415156162a557601560009054906101000a900473ffffffffffffffffffffffffffffffffffffffff1673ffffffffffffffffffffffffffffffffffffffff16634ac8c5ae600b60009054906101000a900473ffffffffffffffffffffffffffffffffffffffff166040518263ffffffff1660e01b81526004016161ec9190618a22565b600060405180830381600087803b1580156162075760006000fd5b505af115801561621c573d600060003e3d6000fd5b50505050600b60009054906101000a900473ffffffffffffffffffffffffffffffffffffffff1673ffffffffffffffffffffffffffffffffffffffff166307da68f56040518163ffffffff1660e01b8152600401600060405180830381600087803b15801561628b5760006000fd5b505af11580156162a0573d600060003e3d6000fd5b505050505b600a60009054906101000a900473ffffffffffffffffffffffffffffffffffffffff16600b60006101000a81548173ffffffffffffffffffffffffffffffffffffffff021916908373ffffffffffffffffffffffffffffffffffffffff16021790555080600a60006101000a81548173ffffffffffffffffffffffffffffffffffffffff021916908373ffffffffffffffffffffffffffffffffffffffff160217905550601560009054906101000a900473ffffffffffffffffffffffffffffffffffffffff1673ffffffffffffffffffffffffffffffffffffffff16632c388d5d600a60009054906101000a900473ffffffffffffffffffffffffffffffffffffffff166040518263ffffffff1660e01b81526004016163c69190618a22565b600060405180830381600087803b1580156163e15760006000fd5b505af11580156163f6573d600060003e3d6000fd5b50505050600a60009054906101000a900473ffffffffffffffffffffffffffffffffffffffff1673ffffffffffffffffffffffffffffffffffffffff1660405161643f9061898f565b60405180910390207f2b51ff7c4cc8e6fe1c72e9d9685b7d2a88a5d82ad3a644afbdceb0272c89c1c360405160405180910390a35b5b600160006000508190909055505b50565b600260006000505414151515616507576040517f08c379a000000000000000000000000000000000000000000000000000000000815260040180806020018281038252601f8152602001807f5265656e7472616e637947756172643a207265656e7472616e742063616c6c0081526020015060200191505060405180910390fd5b6002600060005081909090555060003390506165d0600a60009054906101000a900473ffffffffffffffffffffffffffffffffffffffff1673ffffffffffffffffffffffffffffffffffffffff168273ffffffffffffffffffffffffffffffffffffffff1614806165c55750601660009054906101000a900473ffffffffffffffffffffffffffffffffffffffff1673ffffffffffffffffffffffffffffffffffffffff168273ffffffffffffffffffffffffffffffffffffffff16145b616f0a63ffffffff16565b6165e88260036000505461737490919063ffffffff16565b6003600050819090905550600c60009054906101000a900473ffffffffffffffffffffffffffffffffffffffff1673ffffffffffffffffffffffffffffffffffffffff1663449a52f884846040518363ffffffff1660e01b8152600401616650929190618af0565b600060405180830381600087803b15801561666b5760006000fd5b505af1158015616680573d600060003e3d6000fd5b50505050505b600160006000508190909055505b5050565b600260006000505414151515616719576040517f08c379a000000000000000000000000000000000000000000000000000000000815260040180806020018281038252601f8152602001807f5265656e7472616e637947756172643a207265656e7472616e742063616c6c0081526020015060200191505060405180910390fd5b6002600060005081909090555060003390506000600260005060008373ffffffffffffffffffffffffffffffffffffffff1673ffffffffffffffffffffffffffffffffffffffff1681526020019081526020016000206000505490506000811115156167ba576040517f08c379a00000000000000000000000000000000000000000000000000000000081526004016167b190618f66565b60405180910390fd5b6000600260005060008473ffffffffffffffffffffffffffffffffffffffff1673ffffffffffffffffffffffffffffffffffffffff168152602001908152602001600020600050819090905550600f60009054906101000a900473ffffffffffffffffffffffffffffffffffffffff1673ffffffffffffffffffffffffffffffffffffffff1663a83d711983836040518363ffffffff1660e01b8152600401616864929190618af0565b600060405180830381600087803b15801561687f5760006000fd5b505af1158015616894573d600060003e3d6000fd5b505050506168a661762863ffffffff16565b8173ffffffffffffffffffffffffffffffffffffffff167fbfaf8d2920f9287ed71a7e47234c2043522ae8ffd246577b929897e0f2b3c075826040516168ec919061915e565b60405180910390a250505b600160006000508190909055505b565b60006000616919616e9163ffffffff16565b90506000600160009054906101000a900467ffffffffffffffff1667ffffffffffffffff16111561696e57616969600160009054906101000a900467ffffffffffffffff1661796e63ffffffff16565b905080505b6000601f60009054906101000a900467ffffffffffffffff1667ffffffffffffffff1614806169c65750601f60009054906101000a900467ffffffffffffffff1667ffffffffffffffff168167ffffffffffffffff16105b156169d5576000915050616a1c565b616a13600560005054616a05601f60009054906101000a900467ffffffffffffffff1684036179f663ffffffff16565b61737490919063ffffffff16565b915050616a1c56505b90565b6703782dace9d9000081565b600760009054906101000a900473ffffffffffffffffffffffffffffffffffffffff1681565b600260006000505414151515616ad2576040517f08c379a000000000000000000000000000000000000000000000000000000000815260040180806020018281038252601f8152602001807f5265656e7472616e637947756172643a207265656e7472616e742063616c6c0081526020015060200191505060405180910390fd5b60026000600050819090905550616b1c3073ffffffffffffffffffffffffffffffffffffffff163373ffffffffffffffffffffffffffffffffffffffff1614616f0a63ffffffff16565b601560009054906101000a900473ffffffffffffffffffffffffffffffffffffffff1673ffffffffffffffffffffffffffffffffffffffff16634ac8c5ae601360009054906101000a900473ffffffffffffffffffffffffffffffffffffffff166040518263ffffffff1660e01b8152600401616b999190618a22565b600060405180830381600087803b158015616bb45760006000fd5b505af1158015616bc9573d600060003e3d6000fd5b50505050601360009054906101000a900473ffffffffffffffffffffffffffffffffffffffff1673ffffffffffffffffffffffffffffffffffffffff166307da68f56040518163ffffffff1660e01b8152600401600060405180830381600087803b158015616c385760006000fd5b505af1158015616c4d573d600060003e3d6000fd5b5050505080601360006101000a81548173ffffffffffffffffffffffffffffffffffffffff021916908373ffffffffffffffffffffffffffffffffffffffff160217905550601560009054906101000a900473ffffffffffffffffffffffffffffffffffffffff1673ffffffffffffffffffffffffffffffffffffffff16632c388d5d601360009054906101000a900473ffffffffffffffffffffffffffffffffffffffff166040518263ffffffff1660e01b8152600401616d0f9190618a22565b600060405180830381600087803b158015616d2a5760006000fd5b505af1158015616d3f573d600060003e3d6000fd5b50505050601360009054906101000a900473ffffffffffffffffffffffffffffffffffffffff1673ffffffffffffffffffffffffffffffffffffffff16604051616d889061892d565b60405180910390207f2b51ff7c4cc8e6fe1c72e9d9685b7d2a88a5d82ad3a644afbdceb0272c89c1c360405160405180910390a35b5b600160006000508190909055505b50565b60006801000000000000000082101515616e54576040517f08c379a00000000000000000000000000000000000000000000000000000000081526004018080602001828103825260118152602001807f6d6f7265207468616e203634206269747300000000000000000000000000000081526020015060200191505060405180910390fd5b819050616e5c565b919050565b60008167ffffffffffffffff166885ab33eb9abf3d5eaf0269d3c21bcecceda1000000039050616e8c565b919050565b60007f00000000000000000000000000000000000000000000000000000000000000007f000000000000000000000000000000000000000000000000000000000000000067ffffffffffffffff16616eed6171bb63ffffffff16565b67ffffffffffffffff16811515616f0057fe5b0403905080505b90565b801515616f4c576040517f08c379a0000000000000000000000000000000000000000000000000000000008152600401616f4390618ee8565b60405180910390fd5b5b50565b6000600160009054906101000a900467ffffffffffffffff1667ffffffffffffffff16141515616fb5576040517f08c379a0000000000000000000000000000000000000000000000000000000008152600401616fac906190a1565b60405180910390fd5b601360009054906101000a900473ffffffffffffffffffffffffffffffffffffffff1673ffffffffffffffffffffffffffffffffffffffff1663a6afed956040518163ffffffff1660e01b8152600401600060405180830381600087803b1580156170205760006000fd5b505af1158015617035573d600060003e3d6000fd5b50505050601760009054906101000a900473ffffffffffffffffffffffffffffffffffffffff1673ffffffffffffffffffffffffffffffffffffffff16631afdbce46040518163ffffffff1660e01b8152600401600060405180830381600087803b1580156170a45760006000fd5b505af11580156170b9573d600060003e3d6000fd5b505050506170cb6171bb63ffffffff16565b600160006101000a81548167ffffffffffffffff021916908367ffffffffffffffff1602179055507f5a05a29d5ecece2d4f30720adf1a7449fc1ecb9a884a14629d08d3d2257ab90560405160405180910390a15b565b600081805190602001209050617133565b919050565b60006000600090505b83518110156171ab578273ffffffffffffffffffffffffffffffffffffffff16848281518110151561716f57fe5b602002602001015173ffffffffffffffffffffffffffffffffffffffff16141561719d5760019150506171b5565b5b8080600101915050617141565b50600090506171b5565b92915050565b60006171ce42616dcf909063ffffffff16565b905080505b90565b60606171e8838361713863ffffffff16565b1515617229576040517f08c379a000000000000000000000000000000000000000000000000000000000815260040161722090618ea9565b60405180910390fd5b6000600184510367ffffffffffffffff811180156172475760006000fd5b506040519080825280602002602001820160405280156172765781602001602082028036833780820191505090505b50905060006000600090505b855181101561734d578473ffffffffffffffffffffffffffffffffffffffff1686828151811015156172b057fe5b602002602001015173ffffffffffffffffffffffffffffffffffffffff1614151561733f5785818151811015156172e357fe5b602002602001015183838151811015156172f957fe5b602002602001019073ffffffffffffffffffffffffffffffffffffffff16908173ffffffffffffffffffffffffffffffffffffffff168152602001505081806001019250505b5b8080600101915050617282565b50819250505061735a5650505b92915050565b600060004690508091505061737156505b90565b600082828401915081101515156173f6576040517f08c379a000000000000000000000000000000000000000000000000000000000815260040180806020018281038252600c8152602001807f6164642d6f766572666c6f77000000000000000000000000000000000000000081526020015060200191505060405180910390fd5b5b92915050565b600060008573ffffffffffffffffffffffffffffffffffffffff166323b872dd60e01b868686604051602401808473ffffffffffffffffffffffffffffffffffffffff1681526020018373ffffffffffffffffffffffffffffffffffffffff1681526020018281526020019350505050604051602081830303815290604052907bffffffffffffffffffffffffffffffffffffffffffffffffffffffff19166020820180517bffffffffffffffffffffffffffffffffffffffffffffffffffffffff83818316178352505050506040518082805190602001908083835b60208310151561750057805182525b6020820191506020810190506020830392506174da565b6001836020036101000a0380198251168184511680821785525050505050509050019150506000604051808303816000865af19150503d8060008114617562576040519150601f19603f3d011682016040523d82523d6000602084013e617567565b606091505b50915091508180156175a857506000815114806175a757508080602001905160208110156175955760006000fd5b81019080805190602001909291905050505b5b151561761f576040517f08c379a00000000000000000000000000000000000000000000000000000000081526004018080602001828103825260038152602001807f535446000000000000000000000000000000000000000000000000000000000081526020015060200191505060405180910390fd5b50505b50505050565b617636615c2a63ffffffff16565b1561767a577fffffffffffffffffffffffffffffffffffffffffffffffffffffffffffffffff601c6000505414156176755743601c6000508190909055505b6176d6565b7fffffffffffffffffffffffffffffffffffffffffffffffffffffffffffffffff601c600050541415156176d5577fffffffffffffffffffffffffffffffffffffffffffffffffffffffffffffffff601c6000508190909055505b5b5b565b6000828284039150811115151561775b576040517f08c379a000000000000000000000000000000000000000000000000000000000815260040180806020018281038252600d8152602001807f7375622d756e646572666c6f770000000000000000000000000000000000000081526020015060200191505060405180910390fd5b5b92915050565b600060008473ffffffffffffffffffffffffffffffffffffffff1663a9059cbb60e01b8585604051602401808373ffffffffffffffffffffffffffffffffffffffff16815260200182815260200192505050604051602081830303815290604052907bffffffffffffffffffffffffffffffffffffffffffffffffffffffff19166020820180517bffffffffffffffffffffffffffffffffffffffffffffffffffffffff83818316178352505050506040518082805190602001908083835b60208310151561784757805182525b602082019150602081019050602083039250617821565b6001836020036101000a0380198251168184511680821785525050505050509050019150506000604051808303816000865af19150503d80600081146178a9576040519150601f19603f3d011682016040523d82523d6000602084013e6178ae565b606091505b50915091508180156178ef57506000815114806178ee57508080602001905160208110156178dc5760006000fd5b81019080805190602001909291905050505b5b1515617966576040517f08c379a00000000000000000000000000000000000000000000000000000000081526004018080602001828103825260028152602001807f535400000000000000000000000000000000000000000000000000000000000081526020015060200191505060405180910390fd5b50505b505050565b60006179ec7f00000000000000000000000000000000000000000000000000000000000000007f000000000000000000000000000000000000000000000000000000000000000067ffffffffffffffff168467ffffffffffffffff168115156179d357fe5b0467ffffffffffffffff16617e4090919063ffffffff16565b905080505b919050565b600061016d60140167ffffffffffffffff168267ffffffffffffffff16101515617a70576000600161016d601401840301905069152d02c7e14af68000008167ffffffffffffffff16026aa66dc1daeea92956000000601467ffffffffffffffff166a01a784379d99db42000000020101915050617b1156505b601467ffffffffffffffff168267ffffffffffffffff16101515617aef5760006014830390506001810167ffffffffffffffff166002617ab583616e6163ffffffff16565b69d3c21bcecceda100000001811515617aca57fe5b0402601467ffffffffffffffff166a01a784379d99db420000000201915050617b1156505b6a01a784379d99db420000006001830167ffffffffffffffff16029050617b11565b919050565b60008160405160200180807f19457468657265756d205369676e6564204d6573736167653a0a333200000000815260200150601c0182600019168152602001915050604051602081830303815290604052805190602001209050617b75565b919050565b60007f7fffffffffffffffffffffffffffffff5d576e7357a4501ddfe92f46681b20a08260001c11151515617bfa576040517f08c379a00000000000000000000000000000000000000000000000000000000081526004018080602001828103825260228152602001806192426022913960400191505060405180910390fd5b601b8460ff161480617c0f5750601c8460ff16145b1515617c66576040517f08c379a00000000000000000000000000000000000000000000000000000000081526004018080602001828103825260228152602001806192646022913960400191505060405180910390fd5b60006001868686866040516000815260200160405260405180856000191681526020018460ff16815260200183600019168152602001826000191681526020019450505050506020604051602081039080840390855afa158015617ccf573d600060003e3d6000fd5b505050602060405103519050600073ffffffffffffffffffffffffffffffffffffffff168173ffffffffffffffffffffffffffffffffffffffff1614151515617d83576040517f08c379a00000000000000000000000000000000000000000000000000000000081526004018080602001828103825260188152602001807f45434453413a20696e76616c6964207369676e6174757265000000000000000081526020015060200191505060405180910390fd5b80915050617d8d56505b949350505050565b600061016d60140167ffffffffffffffff168267ffffffffffffffff16101515617dcb5769152d02c7e14af68000009050617e15565b601467ffffffffffffffff168267ffffffffffffffff16101515617e0257617dfb60148303616e6163ffffffff16565b9050617e15565b6a01a784379d99db420000009050617e15565b919050565b6000617e358383670de0b6b3a7640000617edd63ffffffff16565b905080505b92915050565b60008267ffffffffffffffff1682840391508167ffffffffffffffff1611151515617ed6576040517f08c379a000000000000000000000000000000000000000000000000000000000815260040180806020018281038252600d8152602001807f7375622d756e646572666c6f770000000000000000000000000000000000000081526020015060200191505060405180910390fd5b5b92915050565b6000600060006000198587098587029250828110838203039150506000811415617f2057600084111515617f115760006000fd5b83820492508292505050617fd7565b8084111515617f2f5760006000fd5b6000848688099050828111820391508083039250600085866000031690508086049550808404935060018182600003040190508083028417935083506000600287600302189050808702600203810290508050808702600203810290508050808702600203810290508050808702600203810290508050808702600203810290508050808702600203810290508050808502955085508595505050505050617fd75650505050505b9392505050565b828054828255906000526020600020908101928215618057579160200282015b828111156180565782518260006101000a81548173ffffffffffffffffffffffffffffffffffffffff021916908373ffffffffffffffffffffffffffffffffffffffff16021790555091602001919060010190617ffe565b5b5090506180649190618068565b5090565b61806d565b80821115618087576000818150600090555060010161806d565b509056619240565b600067ffffffffffffffff8311156180a357fe5b6180d460207fffffffffffffffffffffffffffffffffffffffffffffffffffffffffffffffe0601f860116016191a1565b90508281528383830111156180e95760006000fd5b828260208301376000602084830101525b9392505050565b600082601f8301121515618113578081fd5b8135602067ffffffffffffffff82111561812957fe5b8082026181378282016191a1565b8084825283820191508387018885858a01011115618153578687fd5b8693505b8584101561818457803561816a81619201565b80845250848301925084810190505b600184019350618157565b5080955050505050505b92915050565b6000602082840312156181a5578081fd5b81356181b081619201565b809150505b92915050565b600060006000604084860312156181d0578182fd5b83356181db81619201565b80935050602084013567ffffffffffffffff808211156181f9578384fd5b818601915086601f830112151561820e578384fd5b81358181111561821c578485fd5b87602082850101111561822d578485fd5b6020830194508093505050505b9250925092565b60006000600060608486031215618256578283fd5b833561826181619201565b80935050602084013567ffffffffffffffff8082111561827f578384fd5b818601915086601f8301121515618294578384fd5b6182a38783356020850161808f565b935060408601359150808211156182b8578283fd5b50808501905085601f82011215156182ce578182fd5b6182dd8682356020840161808f565b9150505b9250925092565b6000600082840360808112156182fc578283fd5b833561830781619201565b8093505060607fffffffffffffffffffffffffffffffffffffffffffffffffffffffffffffffe08201121561833a578182fd5b506020830190505b9250929050565b600060006040838503121561835c578182fd5b823561836781619201565b80925050602083013590505b9250929050565b600060006040838503121561838d578182fd5b823567ffffffffffffffff8111156183a3578283fd5b6183af85828601618101565b92505060208301356183c081619201565b809150505b9250929050565b6000602082840312156183dd578081fd5b81357fffffffff0000000000000000000000000000000000000000000000000000000081168114151561840e578182fd5b809150505b92915050565b60006020828403121561842a578081fd5b813561843581619201565b809150505b92915050565b60006000600060006000600060006000600060006101408b8d031215618464578788fd5b8a3561846f81619201565b809a505060208b013561848181619201565b8099505060408b013561849381619201565b8098505060608b01356184a581619201565b8097505060808b01356184b781619201565b8096505060a08b01356184c981619201565b8095505060c08b01356184db81619201565b8094505060e08b01356184ed81619201565b809350506101008b013561850081619201565b809250506101208b013561851381619201565b809150505b9295989b9194979a5092959850565b600060208284031215618538578081fd5b813561854381619201565b809150505b92915050565b60006020828403121561855f578081fd5b813561856a81619201565b809150505b92915050565b600060208284031215618586578081fd5b813561859181619201565b809150505b92915050565b6000602082840312156185ad578081fd5b81356185b881619201565b809150505b92915050565b6000602082840312156185d4578081fd5b81356185df81619201565b809150505b92915050565b6000602082840312156185fb578081fd5b813561860681619201565b809150505b92915050565b600060208284031215618622578081fd5b813561862d81619201565b809150505b92915050565b600060208284031215618649578081fd5b813561865481619201565b809150505b92915050565b60006000600060608486031215618674578081fd5b833561867f81619201565b80935050602084013561869181619201565b80925050604084013567ffffffffffffffff8111156186ae578182fd5b6186ba86828701618101565b9150505b9250925092565b6000602082840312156186d6578081fd5b813590505b92915050565b6000602082840312156186f2578081fd5b815190505b92915050565b60006020828403121561870e578081fd5b813567ffffffffffffffff811681141515618727578182fd5b809150505b92915050565b600060208284031215618743578081fd5b813561874e8161922a565b809150505b92915050565b60006020828403121561876a578081fd5b81516187758161922a565b809150505b92915050565b600081518084526187988160208601602086016191cc565b60207fffffffffffffffffffffffffffffffffffffffffffffffffffffffffffffffe0601f8301168501019150505b92915050565b60007fffffffff000000000000000000000000000000000000000000000000000000008416825282516188078160048501602087016191cc565b6004818401019150505b9392505050565b6000825161882a8184602087016191cc565b8083019150505b92915050565b60008551618849818460208a016191cc565b80830190508581527fffffffffffffffffffffffffffffffffffffffff000000000000000000000000808660601b166020830152808560601b16603483015250604881019150505b95945050505050565b60007f726577617264730000000000000000000000000000000000000000000000000082526007820190505b919050565b60007f726174657300000000000000000000000000000000000000000000000000000082526005820190505b919050565b60007f736574746c656d656e74000000000000000000000000000000000000000000008252600a820190505b919050565b60007f6d61726b6574000000000000000000000000000000000000000000000000000082526006820190505b919050565b60007f6c656e640000000000000000000000000000000000000000000000000000000082526004820190505b919050565b60007f61756374696f6e7300000000000000000000000000000000000000000000000082526008820190505b919050565b60007f6c69717569646174696f6e7300000000000000000000000000000000000000008252600c820190505b919050565b60007f707269636573000000000000000000000000000000000000000000000000000082526006820190505b919050565b600060208201905073ffffffffffffffffffffffffffffffffffffffff831682525b92915050565b600073ffffffffffffffffffffffffffffffffffffffff851682526040602083015282604083015282846060840137806060848401015260607fffffffffffffffffffffffffffffffffffffffffffffffffffffffffffffffe0601f85011683010190505b949350505050565b600073ffffffffffffffffffffffffffffffffffffffff8416825260406020830152618ae66040830184618780565b90505b9392505050565b600060408201905073ffffffffffffffffffffffffffffffffffffffff841682528260208301525b9392505050565b600060208083018184528085518083526040860191508387019250845b81811015618b745773ffffffffffffffffffffffffffffffffffffffff8451168352848301925084840193505b600181019050618b3c565b50508093505050505b92915050565b600060208201905082151582525b92915050565b6000831515825260406020830152618bb26040830184618780565b90505b9392505050565b60006020820190508282525b92915050565b600060208201905073ffffffffffffffffffffffffffffffffffffffff831682525b92915050565b600060208201905073ffffffffffffffffffffffffffffffffffffffff831682525b92915050565b600060208201905073ffffffffffffffffffffffffffffffffffffffff831682525b92915050565b600060208201905073ffffffffffffffffffffffffffffffffffffffff831682525b92915050565b600060208201905073ffffffffffffffffffffffffffffffffffffffff831682525b92915050565b600060208201905073ffffffffffffffffffffffffffffffffffffffff831682525b92915050565b600060208201905073ffffffffffffffffffffffffffffffffffffffff831682525b92915050565b600060208201905073ffffffffffffffffffffffffffffffffffffffff831682525b92915050565b600060208201905073ffffffffffffffffffffffffffffffffffffffff831682525b92915050565b600060208201905073ffffffffffffffffffffffffffffffffffffffff831682525b92915050565b600060208201905073ffffffffffffffffffffffffffffffffffffffff831682525b92915050565b600060208201905073ffffffffffffffffffffffffffffffffffffffff831682525b92915050565b600060208201905073ffffffffffffffffffffffffffffffffffffffff831682525b92915050565b600060208201905073ffffffffffffffffffffffffffffffffffffffff831682525b92915050565b600060208201905073ffffffffffffffffffffffffffffffffffffffff831682525b92915050565b600060208201905073ffffffffffffffffffffffffffffffffffffffff831682525b92915050565b600060208252618e616020830184618780565b90505b92915050565b600060208252601260208301527f47656e6573697341757468206661696c6564000000000000000000000000000060408301526060820190505b919050565b600060208252600960208301527f4e6f7420666f756e64000000000000000000000000000000000000000000000060408301526060820190505b919050565b600060208252600e60208301527f4e6f7420417574686f72697a656400000000000000000000000000000000000060408301526060820190505b919050565b600060208252601260208301527f50726576696f75736c792072656d6f766564000000000000000000000000000060408301526060820190505b919050565b600060208252600460208301527f4e6f6f700000000000000000000000000000000000000000000000000000000060408301526060820190505b919050565b600060208252600b60208301527f416c72656164792073657400000000000000000000000000000000000000000060408301526060820190505b919050565b600060208252600d60208301527f4f6e6c79206f6e6520706f6f6c0000000000000000000000000000000000000060408301526060820190505b919050565b600060208252601760208301527f496e73756666696369656e7420544350204c6f636b656400000000000000000060408301526060820190505b919050565b600060208252600d60208301527f416c72656164792061646465640000000000000000000000000000000000000060408301526060820190505b919050565b600060208252601060208301527f416c72656164792073687574646f776e0000000000000000000000000000000060408301526060820190505b919050565b600060208252600c60208301527f4e6f742073687574646f776e000000000000000000000000000000000000000060408301526060820190505b919050565b600060208252600660208301527f4c4f434b4544000000000000000000000000000000000000000000000000000060408301526060820190505b919050565b60006020820190508282525b92915050565b600060208201905067ffffffffffffffff831682525b92915050565b600060208201905060ff831682525b92915050565b6000604051905081810181811067ffffffffffffffff821117156191c157fe5b80604052505b919050565b60005b838110156191eb5780820151818401525b6020810190506191cf565b838111156191fa576000848401525b505b505050565b73ffffffffffffffffffffffffffffffffffffffff8116811415156192265760006000fd5b5b50565b60ff81168114151561923c5760006000fd5b5b50565bfe45434453413a20696e76616c6964207369676e6174757265202773272076616c756545434453413a20696e76616c6964207369676e6174757265202776272076616c7565a264697066735822122006be34fe3cf7c342203d0b4e6d1d1919b5bca653c116c53b3547ebe1da2cb4b164736f6c63430007060033",
  "linkReferences": {},
  "deployedLinkReferences": {}
}