{
  "_format": "hh-sol-artifact-1",
  "contractName": "TDaoGovernorAlpha",
  "sourceName": "contracts/core/TDao/TDaoGovernorAlpha.sol",
  "abi": [
    {
      "inputs": [
        {
          "internalType": "address",
          "name": "timelock_",
          "type": "address"
        },
        {
          "internalType": "address",
          "name": "votingToken_",
          "type": "address"
        },
        {
          "internalType": "address",
          "name": "guardian_",
          "type": "address"
        },
        {
          "internalType": "uint48",
          "name": "votingPeriodBlocks_",
          "type": "uint48"
        },
        {
          "internalType": "contract ITDao",
          "name": "tDao_",
          "type": "address"
        }
      ],
      "stateMutability": "nonpayable",
      "type": "constructor"
    },
    {
      "anonymous": false,
      "inputs": [
        {
          "indexed": true,
          "internalType": "uint256",
          "name": "id",
          "type": "uint256"
        }
      ],
      "name": "ProposalCanceled",
      "type": "event"
    },
    {
      "anonymous": false,
      "inputs": [
        {
          "indexed": true,
          "internalType": "uint256",
          "name": "id",
          "type": "uint256"
        },
        {
          "indexed": true,
          "internalType": "address",
          "name": "proposer",
          "type": "address"
        }
      ],
      "name": "ProposalCreated",
      "type": "event"
    },
    {
      "anonymous": false,
      "inputs": [
        {
          "indexed": true,
          "internalType": "uint256",
          "name": "id",
          "type": "uint256"
        }
      ],
      "name": "ProposalExecuted",
      "type": "event"
    },
    {
      "anonymous": false,
      "inputs": [
        {
          "indexed": true,
          "internalType": "uint256",
          "name": "id",
          "type": "uint256"
        },
        {
          "indexed": false,
          "internalType": "uint256",
          "name": "eta",
          "type": "uint256"
        }
      ],
      "name": "ProposalQueued",
      "type": "event"
    },
    {
      "anonymous": false,
      "inputs": [
        {
          "indexed": true,
          "internalType": "address",
          "name": "caller",
          "type": "address"
        },
        {
          "indexed": true,
          "internalType": "uint256",
          "name": "proposalID",
          "type": "uint256"
        }
      ],
      "name": "UnderlyingVotingRewardsDistributed",
      "type": "event"
    },
    {
      "anonymous": false,
      "inputs": [
        {
          "indexed": true,
          "internalType": "address",
          "name": "voter",
          "type": "address"
        },
        {
          "indexed": true,
          "internalType": "uint256",
          "name": "proposalId",
          "type": "uint256"
        },
        {
          "indexed": true,
          "internalType": "bool",
          "name": "support",
          "type": "bool"
        },
        {
          "indexed": false,
          "internalType": "uint256",
          "name": "votes",
          "type": "uint256"
        }
      ],
      "name": "VoteCast",
      "type": "event"
    },
    {
      "anonymous": false,
      "inputs": [
        {
          "indexed": true,
          "internalType": "address",
          "name": "voter",
          "type": "address"
        },
        {
          "indexed": false,
          "internalType": "uint256",
          "name": "count",
          "type": "uint256"
        }
      ],
      "name": "VotingRewardsDistributed",
      "type": "event"
    },
    {
      "inputs": [],
      "name": "BALLOT_TYPEHASH",
      "outputs": [
        {
          "internalType": "bytes32",
          "name": "",
          "type": "bytes32"
        }
      ],
      "stateMutability": "view",
      "type": "function"
    },
    {
      "inputs": [],
      "name": "DOMAIN_TYPEHASH",
      "outputs": [
        {
          "internalType": "bytes32",
          "name": "",
          "type": "bytes32"
        }
      ],
      "stateMutability": "view",
      "type": "function"
    },
    {
      "inputs": [],
      "name": "INFLATION_PERCENTAGE",
      "outputs": [
        {
          "internalType": "uint256",
          "name": "",
          "type": "uint256"
        }
      ],
      "stateMutability": "view",
      "type": "function"
    },
    {
      "inputs": [],
      "name": "__abdicate",
      "outputs": [],
      "stateMutability": "nonpayable",
      "type": "function"
    },
    {
      "inputs": [
        {
          "internalType": "uint256",
          "name": "proposalId",
          "type": "uint256"
        }
      ],
      "name": "cancel",
      "outputs": [],
      "stateMutability": "nonpayable",
      "type": "function"
    },
    {
      "inputs": [
        {
          "internalType": "uint256",
          "name": "proposalId",
          "type": "uint256"
        },
        {
          "internalType": "bool",
          "name": "support",
          "type": "bool"
        }
      ],
      "name": "castVote",
      "outputs": [],
      "stateMutability": "nonpayable",
      "type": "function"
    },
    {
      "inputs": [
        {
          "internalType": "uint256",
          "name": "proposalId",
          "type": "uint256"
        },
        {
          "internalType": "bool",
          "name": "support",
          "type": "bool"
        },
        {
          "internalType": "uint8",
          "name": "v",
          "type": "uint8"
        },
        {
          "internalType": "bytes32",
          "name": "r",
          "type": "bytes32"
        },
        {
          "internalType": "bytes32",
          "name": "s",
          "type": "bytes32"
        }
      ],
      "name": "castVoteBySig",
      "outputs": [],
      "stateMutability": "nonpayable",
      "type": "function"
    },
    {
      "inputs": [
        {
          "internalType": "uint256",
          "name": "proposalID",
          "type": "uint256"
        }
      ],
      "name": "claimUnderlyingVotingRewards",
      "outputs": [],
      "stateMutability": "nonpayable",
      "type": "function"
    },
    {
      "inputs": [
        {
          "internalType": "uint256",
          "name": "proposalID",
          "type": "uint256"
        }
      ],
      "name": "claimVotingRewards",
      "outputs": [],
      "stateMutability": "nonpayable",
      "type": "function"
    },
    {
      "inputs": [
        {
          "internalType": "uint256",
          "name": "proposalId",
          "type": "uint256"
        }
      ],
      "name": "execute",
      "outputs": [],
      "stateMutability": "nonpayable",
      "type": "function"
    },
    {
      "inputs": [
        {
          "internalType": "uint256",
          "name": "proposalId",
          "type": "uint256"
        }
      ],
      "name": "getActions",
      "outputs": [
        {
          "internalType": "address[]",
          "name": "targets",
          "type": "address[]"
        },
        {
          "internalType": "string[]",
          "name": "signatures",
          "type": "string[]"
        },
        {
          "internalType": "bytes[]",
          "name": "calldatas",
          "type": "bytes[]"
        }
      ],
      "stateMutability": "view",
      "type": "function"
    },
    {
      "inputs": [
        {
          "internalType": "address",
          "name": "voter",
          "type": "address"
        }
      ],
      "name": "getAllProposals",
      "outputs": [
        {
          "components": [
            {
              "internalType": "address[]",
              "name": "targets",
              "type": "address[]"
            },
            {
              "internalType": "string[]",
              "name": "signatures",
              "type": "string[]"
            },
            {
              "internalType": "bytes[]",
              "name": "calldatas",
              "type": "bytes[]"
            },
            {
              "internalType": "string",
              "name": "ipfsHash",
              "type": "string"
            },
            {
              "internalType": "address",
              "name": "proposer",
              "type": "address"
            },
            {
              "internalType": "uint48",
              "name": "eta",
              "type": "uint48"
            },
            {
              "internalType": "uint48",
              "name": "id",
              "type": "uint48"
            },
            {
              "internalType": "uint128",
              "name": "forVotes",
              "type": "uint128"
            },
            {
              "internalType": "uint48",
              "name": "startBlock",
              "type": "uint48"
            },
            {
              "internalType": "uint48",
              "name": "endBlock",
              "type": "uint48"
            },
            {
              "internalType": "bool",
              "name": "canceled",
              "type": "bool"
            },
            {
              "internalType": "bool",
              "name": "executed",
              "type": "bool"
            },
            {
              "internalType": "uint128",
              "name": "againstVotes",
              "type": "uint128"
            },
            {
              "internalType": "uint128",
              "name": "initialSupply",
              "type": "uint128"
            }
          ],
          "internalType": "struct GovernorAlpha.Proposal[]",
          "name": "_proposals",
          "type": "tuple[]"
        },
        {
          "internalType": "enum GovernorAlpha.ProposalState[]",
          "name": "_proposalStates",
          "type": "uint8[]"
        },
        {
          "components": [
            {
              "internalType": "bool",
              "name": "hasVoted",
              "type": "bool"
            },
            {
              "internalType": "bool",
              "name": "support",
              "type": "bool"
            },
            {
              "internalType": "bool",
              "name": "rewardReceived",
              "type": "bool"
            },
            {
              "internalType": "uint184",
              "name": "votes",
              "type": "uint184"
            }
          ],
          "internalType": "struct GovernorAlpha.Receipt[]",
          "name": "_receipts",
          "type": "tuple[]"
        }
      ],
      "stateMutability": "view",
      "type": "function"
    },
    {
      "inputs": [
        {
          "internalType": "uint256",
          "name": "proposalID",
          "type": "uint256"
        }
      ],
      "name": "getMetaProposalParameters",
      "outputs": [
        {
          "internalType": "address",
          "name": "governorAlpha",
          "type": "address"
        },
        {
          "internalType": "uint256",
          "name": "underlyingProposalID",
          "type": "uint256"
        },
        {
          "internalType": "bool",
          "name": "moreForThanAgainst",
          "type": "bool"
        }
      ],
      "stateMutability": "view",
      "type": "function"
    },
    {
      "inputs": [
        {
          "internalType": "uint256",
          "name": "proposalId",
          "type": "uint256"
        },
        {
          "internalType": "address",
          "name": "voter",
          "type": "address"
        }
      ],
      "name": "getReceipt",
      "outputs": [
        {
          "components": [
            {
              "internalType": "bool",
              "name": "hasVoted",
              "type": "bool"
            },
            {
              "internalType": "bool",
              "name": "support",
              "type": "bool"
            },
            {
              "internalType": "bool",
              "name": "rewardReceived",
              "type": "bool"
            },
            {
              "internalType": "uint184",
              "name": "votes",
              "type": "uint184"
            }
          ],
          "internalType": "struct GovernorAlpha.Receipt",
          "name": "",
          "type": "tuple"
        }
      ],
      "stateMutability": "view",
      "type": "function"
    },
    {
      "inputs": [],
      "name": "guardian",
      "outputs": [
        {
          "internalType": "address",
          "name": "",
          "type": "address"
        }
      ],
      "stateMutability": "view",
      "type": "function"
    },
    {
      "inputs": [
        {
          "internalType": "uint256",
          "name": "",
          "type": "uint256"
        },
        {
          "internalType": "address",
          "name": "",
          "type": "address"
        }
      ],
      "name": "hasClaimedUnderlyingRewards",
      "outputs": [
        {
          "internalType": "bool",
          "name": "",
          "type": "bool"
        }
      ],
      "stateMutability": "view",
      "type": "function"
    },
    {
      "inputs": [],
      "name": "implementsVotingRewardsWithToken",
      "outputs": [
        {
          "internalType": "address",
          "name": "",
          "type": "address"
        }
      ],
      "stateMutability": "view",
      "type": "function"
    },
    {
      "inputs": [
        {
          "internalType": "address",
          "name": "",
          "type": "address"
        }
      ],
      "name": "latestProposalIds",
      "outputs": [
        {
          "internalType": "uint256",
          "name": "",
          "type": "uint256"
        }
      ],
      "stateMutability": "view",
      "type": "function"
    },
    {
      "inputs": [],
      "name": "name",
      "outputs": [
        {
          "internalType": "string",
          "name": "",
          "type": "string"
        }
      ],
      "stateMutability": "view",
      "type": "function"
    },
    {
      "inputs": [],
      "name": "proposalCount",
      "outputs": [
        {
          "internalType": "uint48",
          "name": "",
          "type": "uint48"
        }
      ],
      "stateMutability": "view",
      "type": "function"
    },
    {
      "inputs": [],
      "name": "proposalMaxOperations",
      "outputs": [
        {
          "internalType": "uint256",
          "name": "",
          "type": "uint256"
        }
      ],
      "stateMutability": "pure",
      "type": "function"
    },
    {
      "inputs": [],
      "name": "proposalThreshold",
      "outputs": [
        {
          "internalType": "uint256",
          "name": "",
          "type": "uint256"
        }
      ],
      "stateMutability": "view",
      "type": "function"
    },
    {
      "inputs": [
        {
          "internalType": "uint256",
          "name": "",
          "type": "uint256"
        }
      ],
      "name": "proposals",
      "outputs": [
        {
          "internalType": "string",
          "name": "ipfsHash",
          "type": "string"
        },
        {
          "internalType": "address",
          "name": "proposer",
          "type": "address"
        },
        {
          "internalType": "uint48",
          "name": "eta",
          "type": "uint48"
        },
        {
          "internalType": "uint48",
          "name": "id",
          "type": "uint48"
        },
        {
          "internalType": "uint128",
          "name": "forVotes",
          "type": "uint128"
        },
        {
          "internalType": "uint48",
          "name": "startBlock",
          "type": "uint48"
        },
        {
          "internalType": "uint48",
          "name": "endBlock",
          "type": "uint48"
        },
        {
          "internalType": "bool",
          "name": "canceled",
          "type": "bool"
        },
        {
          "internalType": "bool",
          "name": "executed",
          "type": "bool"
        },
        {
          "internalType": "uint128",
          "name": "againstVotes",
          "type": "uint128"
        },
        {
          "internalType": "uint128",
          "name": "initialSupply",
          "type": "uint128"
        }
      ],
      "stateMutability": "view",
      "type": "function"
    },
    {
      "inputs": [
        {
          "internalType": "address[]",
          "name": "targets",
          "type": "address[]"
        },
        {
          "internalType": "string[]",
          "name": "signatures",
          "type": "string[]"
        },
        {
          "internalType": "bytes[]",
          "name": "calldatas",
          "type": "bytes[]"
        },
        {
          "internalType": "string",
          "name": "ipfsHash",
          "type": "string"
        }
      ],
      "name": "propose",
      "outputs": [
        {
          "internalType": "uint256",
          "name": "",
          "type": "uint256"
        }
      ],
      "stateMutability": "nonpayable",
      "type": "function"
    },
    {
      "inputs": [
        {
          "internalType": "uint256",
          "name": "proposalId",
          "type": "uint256"
        }
      ],
      "name": "queue",
      "outputs": [],
      "stateMutability": "nonpayable",
      "type": "function"
    },
    {
      "inputs": [],
      "name": "quorumVotes",
      "outputs": [
        {
          "internalType": "uint256",
          "name": "",
          "type": "uint256"
        }
      ],
      "stateMutability": "view",
      "type": "function"
    },
    {
      "inputs": [
        {
          "internalType": "uint256",
          "name": "proposalId",
          "type": "uint256"
        }
      ],
      "name": "state",
      "outputs": [
        {
          "internalType": "enum GovernorAlpha.ProposalState",
          "name": "",
          "type": "uint8"
        }
      ],
      "stateMutability": "view",
      "type": "function"
    },
    {
      "inputs": [],
      "name": "tDao",
      "outputs": [
        {
          "internalType": "contract ITDao",
          "name": "",
          "type": "address"
        }
      ],
      "stateMutability": "view",
      "type": "function"
    },
    {
      "inputs": [],
      "name": "timelock",
      "outputs": [
        {
          "internalType": "contract TimelockInterface",
          "name": "",
          "type": "address"
        }
      ],
      "stateMutability": "view",
      "type": "function"
    },
    {
      "inputs": [
        {
          "internalType": "contract GovernorAlpha",
          "name": "",
          "type": "address"
        },
        {
          "internalType": "uint256",
          "name": "",
          "type": "uint256"
        }
      ],
      "name": "voteInUnderlyingProtocol",
      "outputs": [],
      "stateMutability": "pure",
      "type": "function"
    },
    {
      "inputs": [],
      "name": "votingDelay",
      "outputs": [
        {
          "internalType": "uint256",
          "name": "",
          "type": "uint256"
        }
      ],
      "stateMutability": "pure",
      "type": "function"
    },
    {
      "inputs": [],
      "name": "votingPeriod",
      "outputs": [
        {
          "internalType": "uint256",
          "name": "",
          "type": "uint256"
        }
      ],
      "stateMutability": "view",
      "type": "function"
    },
    {
      "inputs": [],
      "name": "votingPeriodBlocks",
      "outputs": [
        {
          "internalType": "uint48",
          "name": "",
          "type": "uint48"
        }
      ],
      "stateMutability": "view",
      "type": "function"
    },
    {
      "inputs": [],
      "name": "votingToken",
      "outputs": [
        {
          "internalType": "contract VotingTokenInterface",
          "name": "",
          "type": "address"
        }
      ],
      "stateMutability": "view",
      "type": "function"
    }
  ],
  "bytecode": "0x60c0604052348015620000125760006000fd5b5060405162006cda38038062006cda83398181016040528101906200003891906200035e565b5b6040518060400160405280601381526020017f5444616f20476f7665726e6f7220416c70686100000000000000000000000000815260200150858585855b84848484845b84600060005090805190602001906200009892919062000297565b50600073ffffffffffffffffffffffffffffffffffffffff168473ffffffffffffffffffffffffffffffffffffffff1614158015620001045750600073ffffffffffffffffffffffffffffffffffffffff168373ffffffffffffffffffffffffffffffffffffffff1614155b80156200013e5750600073ffffffffffffffffffffffffffffffffffffffff168273ffffffffffffffffffffffffffffffffffffffff1614155b15156200014b5760006000fd5b83600160006101000a81548173ffffffffffffffffffffffffffffffffffffffff021916908373ffffffffffffffffffffffffffffffffffffffff16021790555082600360006101000a81548173ffffffffffffffffffffffffffffffffffffffff021916908373ffffffffffffffffffffffffffffffffffffffff16021790555081600260006101000a81548173ffffffffffffffffffffffffffffffffffffffff021916908373ffffffffffffffffffffffffffffffffffffffff16021790555060008165ffffffffffff16111515620002275760006000fd5b8065ffffffffffff1660808165ffffffffffff1660d01b815260060150505b50505050505b50505050508073ffffffffffffffffffffffffffffffffffffffff1660a08173ffffffffffffffffffffffffffffffffffffffff1660601b815260140150505b50505050506200040d565b828054600181600116156101000203166002900490600052602060002090601f016020900481019282620002cf576000855562000320565b82601f10620002ea57805160ff191683800117855562000320565b8280016001018555821562000320579182015b828111156200031f5782518260005090905591602001919060010190620002fd565b5b5090506200032f919062000333565b5090565b62000339565b8082111562000355576000818150600090555060010162000339565b5090566200040c565b6000600060006000600060a0868803121562000378578081fd5b85516200038581620003ef565b8095505060208601516200039981620003ef565b809450506040860151620003ad81620003ef565b80935050606086015165ffffffffffff811681141515620003cc578182fd5b809250506080860151620003e081620003ef565b809150505b9295509295909350565b6001600160a01b03811681141515620004085760006000fd5b5b50565b5b60805160d01c60a05160601c61689462000446600039806116d6528061247d528061461552508061088d5280612f5452506168946000f3fe60806040523480156100115760006000fd5b506004361061022b5760003560e01c80634e9568ef1161012b578063b525867f116100be578063ddf0b0091161008d578063e23a9a5211610072578063e23a9a521461063f578063e3a5bcaf1461066f578063fe0d94c11461069f5761022b565b8063ddf0b00914610605578063deaaa7cc146106215761022b565b8063b525867f1461058f578063b58131b0146105ab578063d33219b4146105c9578063da35c664146105e75761022b565b806383b0ce15116100fa57806383b0ce15146104ef5780639853d92214610521578063b034012314610553578063b24b7ffd146105715761022b565b80634e9568ef1461048d578063760fbc13146104a95780637bdbe4d0146104b35780637e90f9ab146104d15761022b565b806324bc1a64116101be5780633e4f49e61161018d578063452a932011610172578063452a9320146104355780634634c61f146104535780634c92beb71461046f5761022b565b80633e4f49e6146103e957806340e58ee5146104195761022b565b806324bc1a641461035d57806329c0e5fd1461037b578063328dd982146103995780633932abb1146103cb5761022b565b806315373e3d116101fa57806315373e3d146102d757806317977c61146102f357806320606b701461032357806320fba994146103415761022b565b8063013cf08b1461023157806302a251a31461026b57806306fdde031461028957806311e91b9a146102a75761022b565b60006000fd5b61024b60048036038101906102469190615190565b6106bb565b6040516102629b9a99989796959493929190615baa565b60405180910390f35b610273610889565b604051610280919061671a565b60405180910390f35b6102916108be565b60405161029e9190615b8e565b60405180910390f35b6102c160048036038101906102bc9190614f7e565b61095f565b6040516102ce919061671a565b60405180910390f35b6102f160048036038101906102ec91906151f9565b6112b2565b005b61030d60048036038101906103089190614f26565b6112cc565b60405161031a919061671a565b60405180910390f35b61032b6112e7565b6040516103389190615a62565b60405180910390f35b61035b60048036038101906103569190615190565b61130b565b005b6103656117b2565b604051610372919061671a565b60405180910390f35b61038361186c565b604051610390919061671a565b60405180910390f35b6103b360048036038101906103ae9190615190565b611877565b6040516103c293929190615830565b60405180910390f35b6103d3611b1b565b6040516103e0919061671a565b60405180910390f35b61040360048036038101906103fe9190615190565b611b29565b6040516104109190615b75565b60405180910390f35b610433600480360381019061042e9190615190565b611e5e565b005b61043d612277565b60405161044a919061564a565b60405180910390f35b61046d6004803603810190610468919061522a565b61229d565b005b61047761247b565b6040516104849190615afd565b60405180910390f35b6104a760048036038101906104a2919061515f565b61249f565b005b6104b16124a4565b005b6104bb612539565b6040516104c8919061671a565b60405180910390f35b6104d9612547565b6040516104e6919061564a565b60405180910390f35b61050960048036038101906105049190615190565b612576565b604051610518939291906157c1565b60405180910390f35b61053b60048036038101906105369190614f26565b6127c2565b60405161054a93929190615875565b60405180910390f35b61055b612f2c565b6040516105689190615b4d565b60405180910390f35b610579612f52565b604051610586919061672c565b60405180910390f35b6105a960048036038101906105a49190615190565b612f76565b005b6105b36132ea565b6040516105c0919061671a565b60405180910390f35b6105d16133a4565b6040516105de9190615b25565b60405180910390f35b6105ef6133ca565b6040516105fc919061672c565b60405180910390f35b61061f600480360381019061061a9190615190565b6133e2565b005b610629613780565b6040516106369190615a62565b60405180910390f35b610659600480360381019061065491906151c8565b6137a4565b6040516106669190616701565b60405180910390f35b610689600480360381019061068491906151c8565b6138d0565b6040516106969190615a4e565b60405180910390f35b6106b960048036038101906106b49190615190565b613905565b005b6005600050602052806000526040600020600091509050806003016000508054600181600116156101000203166002900480601f01602080910402602001604051908101604052809291908181526020018280546001816001161561010002031660029004801561076d5780601f106107425761010080835404028352916020019161076d565b820191906000526020600020905b81548152906001019060200180831161075057829003601f168201915b5050505050908060040160009054906101000a900473ffffffffffffffffffffffffffffffffffffffff16908060040160149054906101000a900465ffffffffffff169080600401601a9054906101000a900465ffffffffffff16908060050160009054906101000a90046fffffffffffffffffffffffffffffffff16908060050160109054906101000a900465ffffffffffff16908060050160169054906101000a900465ffffffffffff169080600501601c9054906101000a900460ff169080600501601d9054906101000a900460ff16908060060160009054906101000a90046fffffffffffffffffffffffffffffffff16908060060160109054906101000a90046fffffffffffffffffffffffffffffffff1690508b565b60007f000000000000000000000000000000000000000000000000000000000000000065ffffffffffff1690506108bb565b90565b60006000508054600181600116156101000203166002900480601f0160208091040260200160405190810160405280929190818152602001828054600181600116156101000203166002900480156109575780601f1061092c57610100808354040283529160200191610957565b820191906000526020600020905b81548152906001019060200180831161093a57829003601f168201915b505050505081565b600061096f6132ea63ffffffff16565b600360009054906101000a900473ffffffffffffffffffffffffffffffffffffffff1673ffffffffffffffffffffffffffffffffffffffff1663782d6fe1336109bf436001613b5763ffffffff16565b6040518363ffffffff1660e01b81526004016109dc929190615672565b60206040518083038186803b1580156109f55760006000fd5b505afa158015610a0a573d600060003e3d6000fd5b505050506040513d601f19601f82011682018060405250810190610a2e91906151ac565b111515610a70576040517f08c379a0000000000000000000000000000000000000000000000000000000008152600401610a6790616425565b60405180910390fd5b83518551148015610a82575082518551145b1515610ac3576040517f08c379a0000000000000000000000000000000000000000000000000000000008152600401610aba90616162565b60405180910390fd5b60008551111515610b09576040517f08c379a0000000000000000000000000000000000000000000000000000000008152600401610b00906163c0565b60405180910390fd5b610b1761253963ffffffff16565b855111151515610b5c576040517f08c379a0000000000000000000000000000000000000000000000000000000008152600401610b539061607f565b60405180910390fd5b6000600660005060003373ffffffffffffffffffffffffffffffffffffffff1673ffffffffffffffffffffffffffffffffffffffff1681526020019081526020016000206000505490506000811115610c7c576000610bc082611b2963ffffffff16565b905060016007811115610bcf57fe5b816007811115610bdb57fe5b14151515610c1e576040517f08c379a0000000000000000000000000000000000000000000000000000000008152600401610c15906164ef565b60405180910390fd5b60006007811115610c2b57fe5b816007811115610c3757fe5b14151515610c7a576040517f08c379a0000000000000000000000000000000000000000000000000000000008152600401610c7190615ff4565b60405180910390fd5b505b6000600090505b8551811015610cd457610cc68782815181101515610c9d57fe5b60200260200101518783815181101515610cb357fe5b6020026020010151613bae63ffffffff16565b5b8080600101915050610c83565b506000610cf443610ce9611b1b63ffffffff16565b613c0363ffffffff16565b90506000610d1582610d0a61088963ffffffff16565b613c0363ffffffff16565b90506002601481819054906101000a900465ffffffffffff168092919060010191906101000a81548165ffffffffffff021916908365ffffffffffff160217905550506601000000000000600260149054906101000a900465ffffffffffff1665ffffffffffff16101515610d8a5760006000fd5b6000604051806101c001604052808a81526020018981526020018881526020018781526020013373ffffffffffffffffffffffffffffffffffffffff168152602001600065ffffffffffff168152602001600260149054906101000a900465ffffffffffff1665ffffffffffff16815260200160006fffffffffffffffffffffffffffffffff168152602001610e2585613c6163ffffffff16565b65ffffffffffff168152602001610e4184613c6163ffffffff16565b65ffffffffffff16815260200160001515815260200160001515815260200160006fffffffffffffffffffffffffffffffff168152602001610f29600360009054906101000a900473ffffffffffffffffffffffffffffffffffffffff1673ffffffffffffffffffffffffffffffffffffffff166318160ddd6040518163ffffffff1660e01b815260040160206040518083038186803b158015610ee55760006000fd5b505afa158015610efa573d600060003e3d6000fd5b505050506040513d601f19601f82011682018060405250810190610f1e91906151ac565b613cbb63ffffffff16565b6fffffffffffffffffffffffffffffffff16815260200150905080600560005060008360c0015165ffffffffffff1681526020019081526020016000206000506000820151816000016000509080519060200190610f8892919061491a565b506020820151816001016000509080519060200190610fa89291906149a4565b506040820151816002016000509080519060200190610fc8929190614a04565b506060820151816003016000509080519060200190610fe8929190614a64565b5060808201518160040160006101000a81548173ffffffffffffffffffffffffffffffffffffffff021916908373ffffffffffffffffffffffffffffffffffffffff16021790555060a08201518160040160146101000a81548165ffffffffffff021916908365ffffffffffff16021790555060c082015181600401601a6101000a81548165ffffffffffff021916908365ffffffffffff16021790555060e08201518160050160006101000a8154816fffffffffffffffffffffffffffffffff02191690836fffffffffffffffffffffffffffffffff1602179055506101008201518160050160106101000a81548165ffffffffffff021916908365ffffffffffff1602179055506101208201518160050160166101000a81548165ffffffffffff021916908365ffffffffffff16021790555061014082015181600501601c6101000a81548160ff02191690831515021790555061016082015181600501601d6101000a81548160ff0219169083151502179055506101808201518160060160006101000a8154816fffffffffffffffffffffffffffffffff02191690836fffffffffffffffffffffffffffffffff1602179055506101a08201518160060160106101000a8154816fffffffffffffffffffffffffffffffff02191690836fffffffffffffffffffffffffffffffff1602179055509050508060c0015165ffffffffffff1660066000506000836080015173ffffffffffffffffffffffffffffffffffffffff1673ffffffffffffffffffffffffffffffffffffffff1681526020019081526020016000206000508190909055503373ffffffffffffffffffffffffffffffffffffffff168160c0015165ffffffffffff167fcd423cc1203c0af96b9b3d68d73b3064a69de2d14450bb7181c5e5df2132b35860405160405180910390a38060c0015165ffffffffffff169450505050506112aa56505050505b949350505050565b6112c3338383613d1f63ffffffff16565b6112c8565b5050565b60066000506020528060005260406000206000915090505481565b7f8cad95687ba82c2ce50e74f7b754645e5117c3a5bec8151c0726d5857980a86681565b61131a816141f663ffffffff16565b151561135b576040517f08c379a000000000000000000000000000000000000000000000000000000000815260040161135290615db0565b60405180910390fd5b61136a8161429663ffffffff16565b15156113ab576040517f08c379a00000000000000000000000000000000000000000000000000000000081526004016113a290615fb5565b60405180910390fd5b6004600050600082815260200190815260200160002060005060003373ffffffffffffffffffffffffffffffffffffffff1673ffffffffffffffffffffffffffffffffffffffff16815260200190815260200160002060005060000160009054906101000a900460ff161515611456576040517f08c379a000000000000000000000000000000000000000000000000000000000815260040161144d90615e93565b60405180910390fd5b6007600050600082815260200190815260200160002060005060003373ffffffffffffffffffffffffffffffffffffffff1673ffffffffffffffffffffffffffffffffffffffff16815260200190815260200160002060009054906101000a900460ff161515156114fc576040517f08c379a00000000000000000000000000000000000000000000000000000000081526004016114f390616123565b60405180910390fd5b60016007600050600083815260200190815260200160002060005060003373ffffffffffffffffffffffffffffffffffffffff1673ffffffffffffffffffffffffffffffffffffffff16815260200190815260200160002060006101000a81548160ff02191690831515021790555060006116bb6116146005600050600085815260200190815260200160002060005060050160009054906101000a90046fffffffffffffffffffffffffffffffff166fffffffffffffffffffffffffffffffff166005600050600086815260200190815260200160002060005060060160009054906101000a90046fffffffffffffffffffffffffffffffff166fffffffffffffffffffffffffffffffff16613c0363ffffffff16565b6004600050600085815260200190815260200160002060005060003373ffffffffffffffffffffffffffffffffffffffff1673ffffffffffffffffffffffffffffffffffffffff16815260200190815260200160002060005060000160039054906101000a900476ffffffffffffffffffffffffffffffffffffffffffffff1676ffffffffffffffffffffffffffffffffffffffffffffff166143a590919063ffffffff16565b9050600060006116d0846143cb63ffffffff16565b915091507f000000000000000000000000000000000000000000000000000000000000000073ffffffffffffffffffffffffffffffffffffffff1663b9f8ea6d838333876040518563ffffffff1660e01b81526004016117339493929190615780565b600060405180830381600087803b15801561174e5760006000fd5b505af1158015611763573d600060003e3d6000fd5b50505050833373ffffffffffffffffffffffffffffffffffffffff167f28df778d69fdf2ff5a7357c6ab2ed2b2366966f5baf183da0e39b42577c6bc7c60405160405180910390a35050505b50565b60006028600360009054906101000a900473ffffffffffffffffffffffffffffffffffffffff1673ffffffffffffffffffffffffffffffffffffffff166318160ddd6040518163ffffffff1660e01b815260040160206040518083038186803b15801561181f5760006000fd5b505afa158015611834573d600060003e3d6000fd5b505050506040513d601f19601f8201168201806040525081019061185891906151ac565b81151561186157fe5b049050611869565b90565b6611c37937e0800081565b60606060606060006005600050600086815260200190815260200160002060005090508060000160005081600101600050826002016000508280548060200260200160405190810160405280929190818152602001828054801561193057602002820191906000526020600020905b8160009054906101000a900473ffffffffffffffffffffffffffffffffffffffff1673ffffffffffffffffffffffffffffffffffffffff16815260200190600101908083116118e6575b5050505050925081805480602002602001604051908101604052809291908181526020016000905b82821015611a19578382906000526020600020900160005b508054600181600116156101000203166002900480601f016020809104026020016040519081016040528092919081815260200182805460018160011615610100020316600290048015611a055780601f106119da57610100808354040283529160200191611a05565b820191906000526020600020905b8154815290600101906020018083116119e857829003601f168201915b505050505081526020019060010190611958565b50505050915080805480602002602001604051908101604052809291908181526020016000905b82821015611b01578382906000526020600020900160005b508054600181600116156101000203166002900480601f016020809104026020016040519081016040528092919081815260200182805460018160011615610100020316600290048015611aed5780601f10611ac257610100808354040283529160200191611aed565b820191906000526020600020905b815481529060010190602001808311611ad057829003601f168201915b505050505081526020019060010190611a40565b50505050905093509350935050611b1456505b9193909250565b600060019050611b26565b90565b600081600260149054906101000a900465ffffffffffff1665ffffffffffff1610158015611b575750600082115b1515611b98576040517f08c379a0000000000000000000000000000000000000000000000000000000008152600401611b8f90615e2e565b60405180910390fd5b600060056000506000848152602001908152602001600020600050905080600501601c9054906101000a900460ff1615611bda576002915050611e5956611e57565b8060050160109054906101000a900465ffffffffffff1665ffffffffffff1643111515611c0f576000915050611e5956611e56565b8060050160169054906101000a900465ffffffffffff1665ffffffffffff1643111515611c44576001915050611e5956611e55565b8060060160009054906101000a90046fffffffffffffffffffffffffffffffff166fffffffffffffffffffffffffffffffff168160050160009054906101000a90046fffffffffffffffffffffffffffffffff166fffffffffffffffffffffffffffffffff16111580611cf55750611cc06117b263ffffffff16565b8160050160009054906101000a90046fffffffffffffffffffffffffffffffff166fffffffffffffffffffffffffffffffff16105b15611d08576003915050611e5956611e54565b60008160040160149054906101000a900465ffffffffffff1665ffffffffffff161415611d3d576004915050611e5956611e53565b80600501601d9054906101000a900460ff1615611d62576007915050611e5956611e52565b611e318160040160149054906101000a900465ffffffffffff1665ffffffffffff16600160009054906101000a900473ffffffffffffffffffffffffffffffffffffffff1673ffffffffffffffffffffffffffffffffffffffff1663c1a287e26040518163ffffffff1660e01b815260040160206040518083038186803b158015611ded5760006000fd5b505afa158015611e02573d600060003e3d6000fd5b505050506040513d601f19601f82011682018060405250810190611e2691906151ac565b613c0363ffffffff16565b42101515611e47576006915050611e5956611e51565b6005915050611e59565b5b5b5b5b5b5b505b919050565b60076007811115611e6b57fe5b611e7a82611b2963ffffffff16565b6007811115611e8557fe5b14151515611ec8576040517f08c379a0000000000000000000000000000000000000000000000000000000008152600401611ebf906165b9565b60405180910390fd5b60006005600050600083815260200190815260200160002060005090508060050160169054906101000a900465ffffffffffff1665ffffffffffff1643101515611f47576040517f08c379a0000000000000000000000000000000000000000000000000000000008152600401611f3e9061631c565b60405180910390fd5b600260009054906101000a900473ffffffffffffffffffffffffffffffffffffffff1673ffffffffffffffffffffffffffffffffffffffff163373ffffffffffffffffffffffffffffffffffffffff1614806120915750611fac6132ea63ffffffff16565b600360009054906101000a900473ffffffffffffffffffffffffffffffffffffffff1673ffffffffffffffffffffffffffffffffffffffff1663782d6fe18360040160009054906101000a900473ffffffffffffffffffffffffffffffffffffffff16612020436001613b5763ffffffff16565b6040518363ffffffff1660e01b815260040161203d929190615751565b60206040518083038186803b1580156120565760006000fd5b505afa15801561206b573d600060003e3d6000fd5b505050506040513d601f19601f8201168201806040525081019061208f91906151ac565b105b15156120d2576040517f08c379a00000000000000000000000000000000000000000000000000000000081526004016120c9906161ed565b60405180910390fd5b600181600501601c6101000a81548160ff0219169083151502179055506000600090505b816000016000508054905081101561224457600160009054906101000a900473ffffffffffffffffffffffffffffffffffffffff1673ffffffffffffffffffffffffffffffffffffffff16624b1f12836000016000508381548110151561215957fe5b906000526020600020900160005b9054906101000a900473ffffffffffffffffffffffffffffffffffffffff16846001016000508481548110151561219a57fe5b906000526020600020900160005b5085600201600050858154811015156121bd57fe5b906000526020600020900160005b508660040160149054906101000a900465ffffffffffff166040518563ffffffff1660e01b815260040161220294939291906156f5565b600060405180830381600087803b15801561221d5760006000fd5b505af1158015612232573d600060003e3d6000fd5b505050505b80806001019150506120f6565b50817f789cf55be980739dad1d0699b93b58e806b51c9d96619bfa8fe0a28abaa7b30c60405160405180910390a2505b50565b600260009054906101000a900473ffffffffffffffffffffffffffffffffffffffff1681565b60007f8cad95687ba82c2ce50e74f7b754645e5117c3a5bec8151c0726d5857980a86660006000506040516122d29190615573565b60405180910390206122e86144c863ffffffff16565b306040516020016122fc9493929190615a74565b60405160208183030381529060405280519060200120905060007f8e25870c07e0b0b3884c78da52790939a455c275406c44ae8b434b692fb916ee878760405160200161234b93929190615ab1565b6040516020818303038152906040528051906020012090506000828260405160200161237892919061560b565b6040516020818303038152906040528051906020012090506000600182888888604051600081526020016040526040516123b59493929190615ad3565b6020604051602081039080840390855afa1580156123d8573d600060003e3d6000fd5b505050602060405103519050600073ffffffffffffffffffffffffffffffffffffffff168173ffffffffffffffffffffffffffffffffffffffff1614151515612456576040517f08c379a000000000000000000000000000000000000000000000000000000000815260040161244d9061648a565b60405180910390fd5b612467818a8a613d1f63ffffffff16565b5050505061247456505050505b5050505050565b7f000000000000000000000000000000000000000000000000000000000000000081565b5b5050565b6124b3336144dc63ffffffff16565b15156124f4576040517f08c379a00000000000000000000000000000000000000000000000000000000081526004016124eb90615f11565b60405180910390fd5b6000600260006101000a81548173ffffffffffffffffffffffffffffffffffffffff021916908373ffffffffffffffffffffffffffffffffffffffff1602179055505b565b6000600a9050612544565b90565b6000600360009054906101000a900473ffffffffffffffffffffffffffffffffffffffff169050612573565b90565b60006000600061258b846141f663ffffffff16565b15156125cc576040517f08c379a00000000000000000000000000000000000000000000000000000000081526004016125c390615db0565b60405180910390fd5b6125db8461429663ffffffff16565b151561261c576040517f08c379a000000000000000000000000000000000000000000000000000000000815260040161261390615fb5565b60405180910390fd5b60006005600050600086815260200190815260200160002060005060050160009054906101000a90046fffffffffffffffffffffffffffffffff16905060006005600050600087815260200190815260200160002060005060060160009054906101000a90046fffffffffffffffffffffffffffffffff169050806fffffffffffffffffffffffffffffffff16826fffffffffffffffffffffffffffffffff1611925082508261272e576126d46117b263ffffffff16565b816fffffffffffffffffffffffffffffffff16111515612729576040517f08c379a000000000000000000000000000000000000000000000000000000000815260040161272090615d71565b60405180910390fd5b612792565b61273c6117b263ffffffff16565b826fffffffffffffffffffffffffffffffff16111515612791576040517f08c379a000000000000000000000000000000000000000000000000000000000815260040161278890615ed2565b60405180910390fd5b5b6127a1866143cb63ffffffff16565b809550819650505084848494509450945050506127bb5650505b9193909250565b6060606060606000600260149054906101000a900465ffffffffffff1665ffffffffffff1690508067ffffffffffffffff811180156128015760006000fd5b5060405190808252806020026020018201604052801561283b57816020015b612828614af7565b8152602001906001900390816128205790505b50935083508067ffffffffffffffff811180156128585760006000fd5b506040519080825280602002602001820160405280156128875781602001602082028036833780820191505090505b50925082508067ffffffffffffffff811180156128a45760006000fd5b506040519080825280602002602001820160405280156128de57816020015b6128cb614bd9565b8152602001906001900390816128c35790505b50915081506000600190505b818165ffffffffffff16111515612f2257600560005060008265ffffffffffff168152602001908152602001600020600050604051806101c0016040529081600082016000508054806020026020016040519081016040528092919081815260200182805480156129b057602002820191906000526020600020905b8160009054906101000a900473ffffffffffffffffffffffffffffffffffffffff1673ffffffffffffffffffffffffffffffffffffffff1681526020019060010190808311612966575b5050505050815260200160018201600050805480602002602001604051908101604052809291908181526020016000905b82821015612aa2578382906000526020600020900160005b508054600181600116156101000203166002900480601f016020809104026020016040519081016040528092919081815260200182805460018160011615610100020316600290048015612a8e5780601f10612a6357610100808354040283529160200191612a8e565b820191906000526020600020905b815481529060010190602001808311612a7157829003601f168201915b5050505050815260200190600101906129e1565b50505050815260200160028201600050805480602002602001604051908101604052809291908181526020016000905b82821015612b93578382906000526020600020900160005b508054600181600116156101000203166002900480601f016020809104026020016040519081016040528092919081815260200182805460018160011615610100020316600290048015612b7f5780601f10612b5457610100808354040283529160200191612b7f565b820191906000526020600020905b815481529060010190602001808311612b6257829003601f168201915b505050505081526020019060010190612ad2565b505050508152602001600382016000508054600181600116156101000203166002900480601f016020809104026020016040519081016040528092919081815260200182805460018160011615610100020316600290048015612c375780601f10612c0c57610100808354040283529160200191612c37565b820191906000526020600020905b815481529060010190602001808311612c1a57829003601f168201915b505050505081526020016004820160009054906101000a900473ffffffffffffffffffffffffffffffffffffffff1673ffffffffffffffffffffffffffffffffffffffff1673ffffffffffffffffffffffffffffffffffffffff1681526020016004820160149054906101000a900465ffffffffffff1665ffffffffffff1665ffffffffffff16815260200160048201601a9054906101000a900465ffffffffffff1665ffffffffffff1665ffffffffffff1681526020016005820160009054906101000a90046fffffffffffffffffffffffffffffffff166fffffffffffffffffffffffffffffffff166fffffffffffffffffffffffffffffffff1681526020016005820160109054906101000a900465ffffffffffff1665ffffffffffff1665ffffffffffff1681526020016005820160169054906101000a900465ffffffffffff1665ffffffffffff1665ffffffffffff16815260200160058201601c9054906101000a900460ff1615151515815260200160058201601d9054906101000a900460ff161515151581526020016006820160009054906101000a90046fffffffffffffffffffffffffffffffff166fffffffffffffffffffffffffffffffff166fffffffffffffffffffffffffffffffff1681526020016006820160109054906101000a90046fffffffffffffffffffffffffffffffff166fffffffffffffffffffffffffffffffff166fffffffffffffffffffffffffffffffff1681526020015050856001830365ffffffffffff16815181101515612e7657fe5b6020026020010181905250612e988165ffffffffffff16611b2963ffffffff16565b846001830365ffffffffffff16815181101515612eb157fe5b60200260200101906007811115612ec457fe5b90816007811115612ed157fe5b81526020015050612ef08165ffffffffffff16876137a463ffffffff16565b836001830365ffffffffffff16815181101515612f0957fe5b60200260200101819052505b80806001019150506128ea565b50505b9193909250565b600360009054906101000a900473ffffffffffffffffffffffffffffffffffffffff1681565b7f000000000000000000000000000000000000000000000000000000000000000081565b612f85816141f663ffffffff16565b1515612fc6576040517f08c379a0000000000000000000000000000000000000000000000000000000008152600401612fbd90615db0565b60405180910390fd5b6004600050600082815260200190815260200160002060005060003373ffffffffffffffffffffffffffffffffffffffff1673ffffffffffffffffffffffffffffffffffffffff16815260200190815260200160002060005060000160009054906101000a900460ff161515613071576040517f08c379a000000000000000000000000000000000000000000000000000000000815260040161306890615e93565b60405180910390fd5b60006004600050600083815260200190815260200160002060005060003373ffffffffffffffffffffffffffffffffffffffff1673ffffffffffffffffffffffffffffffffffffffff16815260200190815260200160002060005090508060000160029054906101000a900460ff16151515613122576040517f08c379a000000000000000000000000000000000000000000000000000000000815260040161311990616252565b60405180910390fd5b60018160000160026101000a81548160ff021916908315150217905550600060056000506000848152602001908152602001600020600050905060008260000160039054906101000a900476ffffffffffffffffffffffffffffffffffffffffffffff1676ffffffffffffffffffffffffffffffffffffffffffffff16905060006132178360050160009054906101000a90046fffffffffffffffffffffffffffffffff166fffffffffffffffffffffffffffffffff168460060160009054906101000a90046fffffffffffffffffffffffffffffffff166fffffffffffffffffffffffffffffffff16613c0363ffffffff16565b905060006132676611c37937e080008560060160109054906101000a90046fffffffffffffffffffffffffffffffff166fffffffffffffffffffffffffffffffff166144ec90919063ffffffff16565b905060006132808484846145129092919063ffffffff16565b9050613292338261461363ffffffff16565b3373ffffffffffffffffffffffffffffffffffffffff167f56cd411799f8eaf36ff267057223a17836afa0a91a109fe7e102ef919e6fa19d826040516132d8919061671a565b60405180910390a25050505050505b50565b600060c8600360009054906101000a900473ffffffffffffffffffffffffffffffffffffffff1673ffffffffffffffffffffffffffffffffffffffff166318160ddd6040518163ffffffff1660e01b815260040160206040518083038186803b1580156133575760006000fd5b505afa15801561336c573d600060003e3d6000fd5b505050506040513d601f19601f8201168201806040525081019061339091906151ac565b81151561339957fe5b0490506133a1565b90565b600160009054906101000a900473ffffffffffffffffffffffffffffffffffffffff1681565b600260149054906101000a900465ffffffffffff1681565b600460078111156133ef57fe5b6133fe82611b2963ffffffff16565b600781111561340957fe5b14151561344b576040517f08c379a000000000000000000000000000000000000000000000000000000000815260040161344290615c5b565b60405180910390fd5b6000600560005060008381526020019081526020016000206000509050600061351b42600160009054906101000a900473ffffffffffffffffffffffffffffffffffffffff1673ffffffffffffffffffffffffffffffffffffffff16636a42b8f86040518163ffffffff1660e01b815260040160206040518083038186803b1580156134d75760006000fd5b505afa1580156134ec573d600060003e3d6000fd5b505050506040513d601f19601f8201168201806040525081019061351091906151ac565b613c0363ffffffff16565b90506000600090505b826000016000508054905081101561370c576136fe836000016000508281548110151561354d57fe5b906000526020600020900160005b9054906101000a900473ffffffffffffffffffffffffffffffffffffffff16846001016000508381548110151561358e57fe5b906000526020600020900160005b508054600181600116156101000203166002900480601f0160208091040260200160405190810160405280929190818152602001828054600181600116156101000203166002900480156136315780601f1061360657610100808354040283529160200191613631565b820191906000526020600020905b81548152906001019060200180831161361457829003601f168201915b5050505050856002016000508481548110151561364a57fe5b906000526020600020900160005b508054600181600116156101000203166002900480601f0160208091040260200160405190810160405280929190818152602001828054600181600116156101000203166002900480156136ed5780601f106136c2576101008083540402835291602001916136ed565b820191906000526020600020905b8154815290600101906020018083116136d057829003601f168201915b5050505050856146a763ffffffff16565b5b8080600101915050613524565b5061371c81613c6163ffffffff16565b8260040160146101000a81548165ffffffffffff021916908365ffffffffffff160217905550827f9a2e42fd6722813d69113e7d0079d3d940171428df7373df9c7f7617cfda289282604051613772919061671a565b60405180910390a250505b50565b7f8e25870c07e0b0b3884c78da52790939a455c275406c44ae8b434b692fb916ee81565b6137ac614bd9565b6004600050600084815260200190815260200160002060005060008373ffffffffffffffffffffffffffffffffffffffff1673ffffffffffffffffffffffffffffffffffffffff1681526020019081526020016000206000506040518060800160405290816000820160009054906101000a900460ff161515151581526020016000820160019054906101000a900460ff161515151581526020016000820160029054906101000a900460ff161515151581526020016000820160039054906101000a900476ffffffffffffffffffffffffffffffffffffffffffffff1676ffffffffffffffffffffffffffffffffffffffffffffff1676ffffffffffffffffffffffffffffffffffffffffffffff168152602001505090506138ca565b92915050565b60076000506020528160005260406000206000506020528060005260406000206000915091509054906101000a900460ff1681565b6005600781111561391257fe5b61392182611b2963ffffffff16565b600781111561392c57fe5b14151561396e576040517f08c379a000000000000000000000000000000000000000000000000000000000815260040161396590615ce6565b60405180910390fd5b6000600560005060008381526020019081526020016000206000509050600181600501601d6101000a81548160ff0219169083151502179055506000600090505b8160000160005080549050811015613b2457600160009054906101000a900473ffffffffffffffffffffffffffffffffffffffff1673ffffffffffffffffffffffffffffffffffffffff16633ec5ab328360000160005083815481101515613a1357fe5b906000526020600020900160005b9054906101000a900473ffffffffffffffffffffffffffffffffffffffff168460010160005084815481101515613a5457fe5b906000526020600020900160005b508560020160005085815481101515613a7757fe5b906000526020600020900160005b508660040160149054906101000a900465ffffffffffff166040518563ffffffff1660e01b8152600401613abc94939291906156f5565b600060405180830381600087803b158015613ad75760006000fd5b505af1158015613aec573d600060003e3d6000fd5b505050506040513d6000823e3d601f19601f82011682018060405250810190613b1591906150de565b505b80806001019150506139af565b50817f712ae1383f79ac853f8d882153778e0260ef8f03b504e2866e0593e04d2b291f60405160405180910390a2505b50565b6000828211151515613b9e576040517f08c379a0000000000000000000000000000000000000000000000000000000008152600401613b95906166c2565b60405180910390fd5b8183039050613ba8565b92915050565b613bbd8261487f63ffffffff16565b1515613bfe576040517f08c379a0000000000000000000000000000000000000000000000000000000008152600401613bf590616381565b60405180910390fd5b5b5050565b600060008284019050838110151515613c51576040517f08c379a0000000000000000000000000000000000000000000000000000000008152600401613c48906160e4565b60405180910390fd5b80915050613c5b56505b92915050565b6000660100000000000082101515613cae576040517f08c379a0000000000000000000000000000000000000000000000000000000008152600401613ca59061657a565b60405180910390fd5b819050613cb6565b919050565b600070010000000000000000000000000000000082101515613d12576040517f08c379a0000000000000000000000000000000000000000000000000000000008152600401613d0990615def565b60405180910390fd5b819050613d1a565b919050565b60016007811115613d2c57fe5b613d3b83611b2963ffffffff16565b6007811115613d4657fe5b141515613d88576040517f08c379a0000000000000000000000000000000000000000000000000000000008152600401613d7f9061661e565b60405180910390fd5b6000600560005060008481526020019081526020016000206000509050600015156004600050600085815260200190815260200160002060005060008673ffffffffffffffffffffffffffffffffffffffff1673ffffffffffffffffffffffffffffffffffffffff16815260200190815260200160002060005060000160009054906101000a900460ff161515141515613e57576040517f08c379a0000000000000000000000000000000000000000000000000000000008152600401613e4e90615f50565b60405180910390fd5b6000600360009054906101000a900473ffffffffffffffffffffffffffffffffffffffff1673ffffffffffffffffffffffffffffffffffffffff1663782d6fe1868460050160109054906101000a900465ffffffffffff166040518363ffffffff1660e01b8152600401613ecc9291906157f9565b60206040518083038186803b158015613ee55760006000fd5b505afa158015613efa573d600060003e3d6000fd5b505050506040513d601f19601f82011682018060405250810190613f1e91906151ac565b90508215613fb557613f76613f6b8360050160009054906101000a90046fffffffffffffffffffffffffffffffff166fffffffffffffffffffffffffffffffff1683613c0363ffffffff16565b613cbb63ffffffff16565b8260050160006101000a8154816fffffffffffffffffffffffffffffffff02191690836fffffffffffffffffffffffffffffffff160217905550614040565b614005613ffa8360060160009054906101000a90046fffffffffffffffffffffffffffffffff166fffffffffffffffffffffffffffffffff1683613c0363ffffffff16565b613cbb63ffffffff16565b8260060160006101000a8154816fffffffffffffffffffffffffffffffff02191690836fffffffffffffffffffffffffffffffff1602179055505b604051806080016040528060011515815260200184151581526020016000151581526020016140748361489963ffffffff16565b76ffffffffffffffffffffffffffffffffffffffffffffff168152602001506004600050600086815260200190815260200160002060005060008773ffffffffffffffffffffffffffffffffffffffff1673ffffffffffffffffffffffffffffffffffffffff16815260200190815260200160002060005060008201518160000160006101000a81548160ff02191690831515021790555060208201518160000160016101000a81548160ff02191690831515021790555060408201518160000160026101000a81548160ff02191690831515021790555060608201518160000160036101000a81548176ffffffffffffffffffffffffffffffffffffffffffffff021916908376ffffffffffffffffffffffffffffffffffffffffffffff160217905550905050821515848673ffffffffffffffffffffffffffffffffffffffff167f877856338e13f63d0c36822ff0ef736b80934cd90574a3a5bc9262c39d217c46846040516141e6919061671a565b60405180910390a450505b505050565b6000600061420983611b2963ffffffff16565b90506004600781111561421857fe5b81600781111561422457fe5b148061424657506003600781111561423857fe5b81600781111561424457fe5b145b8061426757506005600781111561425957fe5b81600781111561426557fe5b145b8061428857506007600781111561427a57fe5b81600781111561428657fe5b145b91505061429156505b919050565b60006000600060006142ad8561187763ffffffff16565b925092509250600183511480156142c5575060018251145b80156142d2575060018151145b801561431f57503073ffffffffffffffffffffffffffffffffffffffff168360008151811015156142ff57fe5b602002602001015173ffffffffffffffffffffffffffffffffffffffff16145b80156143935750634e9568ef60e01b7bffffffffffffffffffffffffffffffffffffffffffffffffffffffff191661437283600081518110151561435f57fe5b602002602001015161490463ffffffff16565b7bffffffffffffffffffffffffffffffffffffffffffffffffffffffff1916145b93505050506143a0565050505b919050565b60006143c083670de0b6b3a76400008461451263ffffffff16565b905080505b92915050565b600060006005600050600084815260200190815260200160002060005060020160005060008154811015156143fc57fe5b906000526020600020900160005b508054600181600116156101000203166002900480601f01602080910402602001604051908101604052809291908181526020018280546001816001161561010002031660029004801561449f5780601f106144745761010080835404028352916020019161449f565b820191906000526020600020905b81548152906001019060200180831161448257829003601f168201915b50505050508060200190518101906144b79190614f4d565b819150915091506144c3565b915091565b60006000469050809150506144d956505b90565b6000600190506144e7565b919050565b60006145078383670de0b6b3a764000061451263ffffffff16565b905080505b92915050565b6000600060006000198587098587029250828110838203039150506000811415614555576000841115156145465760006000fd5b8382049250829250505061460c565b80841115156145645760006000fd5b600084868809905082811182039150808303925060008586600003169050808604955080840493506001818260000304019050808302841793508350600060028760030218905080870260020381029050805080870260020381029050805080870260020381029050805080870260020381029050805080870260020381029050805080870260020381029050805080850295508550859550505050505061460c5650505050505b9392505050565b7f000000000000000000000000000000000000000000000000000000000000000073ffffffffffffffffffffffffffffffffffffffff16630793298783836040518363ffffffff1660e01b815260040161466e929190615751565b600060405180830381600087803b1580156146895760006000fd5b505af115801561469e573d600060003e3d6000fd5b505050505b5050565b600160009054906101000a900473ffffffffffffffffffffffffffffffffffffffff1673ffffffffffffffffffffffffffffffffffffffff1663f2b06537858585856040516020016146fc94939291906156a1565b604051602081830303815290604052805190602001206040518263ffffffff1660e01b815260040161472e9190615a62565b60206040518083038186803b1580156147475760006000fd5b505afa15801561475c573d600060003e3d6000fd5b505050506040513d601f19601f82011682018060405250810190614780919061509b565b1515156147c2576040517f08c379a00000000000000000000000000000000000000000000000000000000081526004016147b990616291565b60405180910390fd5b600160009054906101000a900473ffffffffffffffffffffffffffffffffffffffff1673ffffffffffffffffffffffffffffffffffffffff16630e70eace858585856040518563ffffffff1660e01b815260040161482394939291906156a1565b602060405180830381600087803b15801561483e5760006000fd5b505af1158015614853573d600060003e3d6000fd5b505050506040513d601f19601f8201168201806040525081019061487791906150c2565b505b50505050565b60006000823b90506000811191505061489456505b919050565b600077010000000000000000000000000000000000000000000000821015156148f7576040517f08c379a00000000000000000000000000000000000000000000000000000000081526004016148ee90616683565b60405180910390fd5b8190506148ff565b919050565b600081805190602001209050614915565b919050565b828054828255906000526020600020908101928215614993579160200282015b828111156149925782518260006101000a81548173ffffffffffffffffffffffffffffffffffffffff021916908373ffffffffffffffffffffffffffffffffffffffff1602179055509160200191906001019061493a565b5b5090506149a09190614c23565b5090565b8280548282559060005260206000209081019282156149f3579160200282015b828111156149f25782518290805190602001906149e2929190614a64565b50916020019190600101906149c4565b5b509050614a009190614c46565b5090565b828054828255906000526020600020908101928215614a53579160200282015b82811115614a52578251829080519060200190614a42929190614c6e565b5091602001919060010190614a24565b5b509050614a609190614d01565b5090565b828054600181600116156101000203166002900490600052602060002090601f016020900481019282614a9a5760008555614ae6565b82601f10614ab357805160ff1916838001178555614ae6565b82800160010185558215614ae6579182015b82811115614ae55782518260005090905591602001919060010190614ac5565b5b509050614af39190614c23565b5090565b604051806101c0016040528060608152602001606081526020016060815260200160608152602001600073ffffffffffffffffffffffffffffffffffffffff168152602001600065ffffffffffff168152602001600065ffffffffffff16815260200160006fffffffffffffffffffffffffffffffff168152602001600065ffffffffffff168152602001600065ffffffffffff16815260200160001515815260200160001515815260200160006fffffffffffffffffffffffffffffffff16815260200160006fffffffffffffffffffffffffffffffff1681526020015090565b6040518060800160405280600015158152602001600015158152602001600015158152602001600076ffffffffffffffffffffffffffffffffffffffffffffff1681526020015090565b614c28565b80821115614c425760008181506000905550600101614c28565b5090565b614c4b565b80821115614c6a5760008181614c619190614d29565b50600101614c4b565b5090565b828054600181600116156101000203166002900490600052602060002090601f016020900481019282614ca45760008555614cf0565b82601f10614cbd57805160ff1916838001178555614cf0565b82800160010185558215614cf0579182015b82811115614cef5782518260005090905591602001919060010190614ccf565b5b509050614cfd9190614c23565b5090565b614d06565b80821115614d255760008181614d1c9190614d71565b50600101614d06565b5090565b50805460018160011615610100020316600290046000825580601f10614d4f5750614d6e565b601f016020900490600052602060002090810190614d6d9190614c23565b5b50565b50805460018160011615610100020316600290046000825580601f10614d975750614db6565b601f016020900490600052602060002090810190614db59190614c23565b5b505661685d565b6000614dd0614dcb84616794565b616746565b9050828152838383011115614de55760006000fd5b828260208301376000602084830101525b9392505050565b600082601f8301121515614e0f578081fd5b81356020614e24614e1f83616771565b616746565b808382528282019150828601855b85811015614e78578135880189603f8201121515614e4e578788fd5b614e5f8a8783013560408401614dbd565b855250848401935084820191505b600181019050614e32565b5050809450505050505b92915050565b600082601f8301121515614e9a578081fd5b81356020614eaf614eaa83616771565b616746565b808382528282019150828601855b85811015614eec57614ed4898684358b0101614efc565b8452848401935084820191505b600181019050614ebd565b5050809450505050505b92915050565b600082601f8301121515614f0e578081fd5b614f1d83833560208501614dbd565b90505b92915050565b600060208284031215614f37578081fd5b8135614f428161681f565b809150505b92915050565b6000600060408385031215614f60578081fd5b8251614f6b8161681f565b80925050602083015190505b9250929050565b600060006000600060808587031215614f95578182fd5b843567ffffffffffffffff80821115614fac578384fd5b818701915087601f8301121515614fc1578384fd5b81356020614fd6614fd183616771565b616746565b8083825282820191508286018c848587028901011115614ff4578889fd5b8896505b8487101561502557803561500b8161681f565b80845250838301925083810190505b600187019650614ff8565b50809950505080890135935050508082111561503f578384fd5b61504b88838901614e88565b94506040870135915080821115615060578384fd5b61506c88838901614dfd565b93506060870135915080821115615081578283fd5b5061508e87828801614efc565b9150505b92959194509250565b6000602082840312156150ac578081fd5b81516150b781616848565b809150505b92915050565b6000602082840312156150d3578081fd5b815190505b92915050565b6000602082840312156150ef578081fd5b815167ffffffffffffffff811115615105578182fd5b808301905083601f820112151561511a578182fd5b805161512d61512882616794565b616746565b818152856020838501011115615141578384fd5b6151528260208301602086016167ea565b8093505050505b92915050565b6000600060408385031215615172578182fd5b823561517d8161681f565b80925050602083013590505b9250929050565b6000602082840312156151a1578081fd5b813590505b92915050565b6000602082840312156151bd578081fd5b815190505b92915050565b60006000604083850312156151db578182fd5b8235915060208301356151ed8161681f565b809150505b9250929050565b600060006040838503121561520c578182fd5b82359150602083013561521e81616848565b809150505b9250929050565b6000600060006000600060a08688031215615243578283fd5b85359450602086013561525581616848565b80945050604086013560ff81168114151561526e578384fd5b8093505060608601359150608086013590505b9295509295909350565b73ffffffffffffffffffffffffffffffffffffffff811682525b5050565b6000815180845260208085019450808401835b838110156152f45773ffffffffffffffffffffffffffffffffffffffff8251168752828701965082820191505b6001810190506152bc565b505050508290505b92915050565b6000815180845260208085018081965082840281019150828601855b8581101561534e5782840389526153368483516153fd565b9350848201915084890198505b60018101905061531e565b5050508093505050505b92915050565b6000815180845260208085019450808401835b8381101561539a576153848783516154ef565b828701965082820191505b600181019050615371565b505050508290505b92915050565b6000815180845260208085019450808401835b838110156153e5576153ce878351615503565b60808701965082820191505b6001810190506153bb565b505050508290505b92915050565b80151582525b5050565b600081518084526154158160208601602086016167ea565b60207fffffffffffffffffffffffffffffffffffffffffffffffffffffffffffffffe0601f8301168501019150505b92915050565b6000815460018082166000811461546857600181146154a4576154e5565b607f600284041686527fffffffffffffffffffffffffffffffffffffffffffffffffffffffffffffff00831660208701526040860193506154e5565b600283048087526154b4866167d9565b60005b828110156154d95781546020828b01015284820191505b6020810190506154b7565b6020818a010196505050505b5050505b92915050565b6008811015156154fb57fe5b8082525b5050565b80511515825260208101511515602083015260408101511515604083015276ffffffffffffffffffffffffffffffffffffffffffffff60608201511660608301525b5050565b6fffffffffffffffffffffffffffffffff811682525b5050565b65ffffffffffff811682525b5050565b600080835460018082166000811461559257600181146155c7576155fd565b7fffffffffffffffffffffffffffffffffffffffffffffffffffffffffffffff0083168652607f6002840416860193506155fd565b600283048786526020808720875b838110156155f3578154818b015285820191505b82810190506155d5565b5050508087019450505b505050809150505b92915050565b60007f190100000000000000000000000000000000000000000000000000000000000082528360028301528260228301526042820190505b9392505050565b600060208201905073ffffffffffffffffffffffffffffffffffffffff831682525b92915050565b600060408201905073ffffffffffffffffffffffffffffffffffffffff841682528260208301525b9392505050565b600073ffffffffffffffffffffffffffffffffffffffff86168252608060208301526156d060808301866153fd565b82810360408401526156e281866153fd565b9150508260608301525b95945050505050565b600073ffffffffffffffffffffffffffffffffffffffff8616825260806020830152615724608083018661544a565b8281036040840152615736818661544a565b91505065ffffffffffff831660608301525b95945050505050565b600060408201905073ffffffffffffffffffffffffffffffffffffffff841682528260208301525b9392505050565b600060808201905073ffffffffffffffffffffffffffffffffffffffff80871683528560208401528085166040840152508260608301525b95945050505050565b600060608201905073ffffffffffffffffffffffffffffffffffffffff8516825283602083015282151560408301525b949350505050565b600060408201905073ffffffffffffffffffffffffffffffffffffffff8416825265ffffffffffff831660208301525b9392505050565b60006060825261584360608301866152a9565b82810360208401526158558186615302565b905082810360408401526158698185615302565b9150505b949350505050565b60006060808301818452808751808352608092508286019150602083818302880101818b01875b84811015615a16577fffffffffffffffffffffffffffffffffffffffffffffffffffffffffffffff808a840301865281516101c081518186526158e1828701826152a9565b91505085820151858203878701526158f98282615302565b915050604080830151868303828801526159138382615302565b92505050898201518582038b87015261592c82826153fd565b9150508882015161593f8a87018261528b565b5060a08083015161595282880182615563565b505060c08083015161596682880182615563565b505060e08083015161597a82880182615549565b50506101008083015161598f82880182615563565b5050610120808301516159a482880182615563565b5050610140808301516159b9828801826153f3565b5050610160808301516159ce828801826153f3565b5050610180808301516159e382880182615549565b50506101a08083015192506159fa81870184615549565b508094505050838201915083860195505b60018101905061589c565b505087810382890152615a29818b61535e565b955050505050508281036040840152615a4281856153a8565b9150505b949350505050565b600060208201905082151582525b92915050565b60006020820190508282525b92915050565b600060808201905085825284602083015283604083015273ffffffffffffffffffffffffffffffffffffffff831660608301525b95945050505050565b600060608201905084825283602083015282151560408301525b949350505050565b600060808201905085825260ff851660208301528360408301528260608301525b95945050505050565b600060208201905073ffffffffffffffffffffffffffffffffffffffff831682525b92915050565b600060208201905073ffffffffffffffffffffffffffffffffffffffff831682525b92915050565b600060208201905073ffffffffffffffffffffffffffffffffffffffff831682525b92915050565b6000602082019050615b8782846154ef565b5b92915050565b600060208252615ba160208301846153fd565b90505b92915050565b6000610160808352615bbe8184018f6153fd565b91505073ffffffffffffffffffffffffffffffffffffffff8c16602083015265ffffffffffff808c166040840152808b1660608401526fffffffffffffffffffffffffffffffff8a16608084015280891660a084015280881660c08401525085151560e0830152841515610100830152615c3c610120830185615549565b615c4a610140830184615549565b5b9c9b505050505050505050505050565b600060208252604460208301527f476f7665726e6f72416c7068613a3a71756575653a2070726f706f73616c206360408301527f616e206f6e6c792062652071756575656420696620697420697320737563636560608301527f6564656400000000000000000000000000000000000000000000000000000000608083015260a0820190505b919050565b600060208252604560208301527f476f7665726e6f72416c7068613a3a657865637574653a2070726f706f73616c60408301527f2063616e206f6e6c79206265206578656375746564206966206974206973207160608301527f7565756564000000000000000000000000000000000000000000000000000000608083015260a0820190505b919050565b600060208252601a60208301527f496e73756666696369656e7420616761696e737420766f74657300000000000060408301526060820190505b919050565b600060208252601560208301527f50726f706f73616c206e6f7420636f6d706c657465000000000000000000000060408301526060820190505b919050565b600060208252601060208301527f457863656564732031323820626974730000000000000000000000000000000060408301526060820190505b919050565b600060208252602960208301527f476f7665726e6f72416c7068613a3a73746174653a20696e76616c696420707260408301527f6f706f73616c206964000000000000000000000000000000000000000000000060608301526080820190505b919050565b600060208252600d60208301527f486173206e6f7420766f7465640000000000000000000000000000000000000060408301526060820190505b919050565b600060208252601660208301527f496e73756666696369656e7420666f7220766f7465730000000000000000000060408301526060820190505b919050565b600060208252600e60208301527f4e6f7420417574686f72697a656400000000000000000000000000000000000060408301526060820190505b919050565b600060208252602d60208301527f476f7665726e6f72416c7068613a3a5f63617374566f74653a20766f7465722060408301527f616c726561647920766f7465640000000000000000000000000000000000000060608301526080820190505b919050565b600060208252601360208301527f4e6f742061206d6574612070726f706f73616c0000000000000000000000000060408301526060820190505b919050565b600060208252605960208301527f476f7665726e6f72416c7068613a3a70726f706f73653a206f6e65206c69766560408301527f2070726f706f73616c207065722070726f706f7365722c20666f756e6420616e60608301527f20616c72656164792070656e64696e672070726f706f73616c00000000000000608083015260a0820190505b919050565b600060208252602860208301527f476f7665726e6f72416c7068613a3a70726f706f73653a20746f6f206d616e7960408301527f20616374696f6e7300000000000000000000000000000000000000000000000060608301526080820190505b919050565b600060208252601160208301527f6164646974696f6e206f766572666c6f7700000000000000000000000000000060408301526060820190505b919050565b600060208252600f60208301527f416c726561647920636c61696d6564000000000000000000000000000000000060408301526060820190505b919050565b600060208252604460208301527f476f7665726e6f72416c7068613a3a70726f706f73653a2070726f706f73616c60408301527f2066756e6374696f6e20696e666f726d6174696f6e206172697479206d69736d60608301527f6174636800000000000000000000000000000000000000000000000000000000608083015260a0820190505b919050565b600060208252602f60208301527f476f7665726e6f72416c7068613a3a63616e63656c3a2070726f706f7365722060408301527f61626f7665207468726573686f6c64000000000000000000000000000000000060608301526080820190505b919050565b600060208252601860208301527f5265776172647320616c7265616479207265636569766564000000000000000060408301526060820190505b919050565b600060208252604460208301527f476f7665726e6f72416c7068613a3a5f71756575654f725265766572743a207060408301527f726f706f73616c20616374696f6e20616c72656164792071756575656420617460608301527f2065746100000000000000000000000000000000000000000000000000000000608083015260a0820190505b919050565b600060208252602560208301527f43616e742063616e63656c20616674657220766f74696e6720697320636f6d7060408301527f6c6574656400000000000000000000000000000000000000000000000000000060608301526080820190505b919050565b600060208252600e60208301527f4e6f74206120636f6e747261637400000000000000000000000000000000000060408301526060820190505b919050565b600060208252602c60208301527f476f7665726e6f72416c7068613a3a70726f706f73653a206d7573742070726f60408301527f7669646520616374696f6e73000000000000000000000000000000000000000060608301526080820190505b919050565b600060208252603f60208301527f476f7665726e6f72416c7068613a3a70726f706f73653a2070726f706f73657260408301527f20766f7465732062656c6f772070726f706f73616c207468726573686f6c640060608301526080820190505b919050565b600060208252602f60208301527f476f7665726e6f72416c7068613a3a63617374566f746542795369673a20696e60408301527f76616c6964207369676e6174757265000000000000000000000000000000000060608301526080820190505b919050565b600060208252605860208301527f476f7665726e6f72416c7068613a3a70726f706f73653a206f6e65206c69766560408301527f2070726f706f73616c207065722070726f706f7365722c20666f756e6420616e60608301527f20616c7265616479206163746976652070726f706f73616c0000000000000000608083015260a0820190505b919050565b600060208252600f60208301527f457863656564732034382062697473000000000000000000000000000000000060408301526060820190505b919050565b600060208252603660208301527f476f7665726e6f72416c7068613a3a63616e63656c3a2063616e6e6f7420636160408301527f6e63656c2065786563757465642070726f706f73616c0000000000000000000060608301526080820190505b919050565b600060208252602a60208301527f476f7665726e6f72416c7068613a3a5f63617374566f74653a20766f74696e6760408301527f20697320636c6f7365640000000000000000000000000000000000000000000060608301526080820190505b919050565b600060208252601060208301527f457863656564732031383420626974730000000000000000000000000000000060408301526060820190505b919050565b600060208252601560208301527f7375627472616374696f6e20756e646572666c6f77000000000000000000000060408301526060820190505b919050565b60006080820190506167138284615503565b5b92915050565b60006020820190508282525b92915050565b600060208201905065ffffffffffff831682525b92915050565b6000604051905081810181811067ffffffffffffffff8211171561676657fe5b80604052505b919050565b600067ffffffffffffffff82111561678557fe5b6020602083020190505b919050565b600067ffffffffffffffff8211156167a857fe5b60207fffffffffffffffffffffffffffffffffffffffffffffffffffffffffffffffe0601f8401160190505b919050565b60008181526020812090505b919050565b60005b838110156168095780820151818401525b6020810190506167ed565b83811115616818576000848401525b505b505050565b73ffffffffffffffffffffffffffffffffffffffff8116811415156168445760006000fd5b5b50565b801515811415156168595760006000fd5b5b50565bfea2646970667358221220ba013bdb0537ae46a9295e9ada4432e73c784dbaf48f746d75d199b15e0ca59464736f6c63430007060033",
  "linkReferences": {},
  "deployedLinkReferences": {}
}