{
  "_format": "hh-sol-artifact-1",
  "contractName": "Accounting",
  "sourceName": "contracts/core/storage/Accounting.sol",
  "abi": [
    {
      "inputs": [
        {
          "components": [
            {
              "internalType": "contract IGovernor",
              "name": "Governor",
              "type": "address"
            },
            {
              "internalType": "contract IHue",
              "name": "Hue",
              "type": "address"
            },
            {
              "internalType": "contract INonfungiblePositionManager",
              "name": "NftPositionManager",
              "type": "address"
            }
          ],
          "internalType": "struct IAccounting.ConstructorParams",
          "name": "params",
          "type": "tuple"
        }
      ],
      "stateMutability": "nonpayable",
      "type": "constructor"
    },
    {
      "anonymous": false,
      "inputs": [],
      "name": "DebtPositionIndexingDisabled",
      "type": "event"
    },
    {
      "anonymous": false,
      "inputs": [],
      "name": "PoolPositionIndexingDisabled",
      "type": "event"
    },
    {
      "anonymous": false,
      "inputs": [],
      "name": "Stopped",
      "type": "event"
    },
    {
      "anonymous": false,
      "inputs": [
        {
          "indexed": false,
          "internalType": "uint32[]",
          "name": "uis",
          "type": "uint32[]"
        }
      ],
      "name": "UIsApproved",
      "type": "event"
    },
    {
      "anonymous": false,
      "inputs": [
        {
          "indexed": false,
          "internalType": "uint32[]",
          "name": "uis",
          "type": "uint32[]"
        }
      ],
      "name": "UIsDisapproved",
      "type": "event"
    },
    {
      "inputs": [],
      "name": "TICK_SPACING",
      "outputs": [
        {
          "internalType": "int24",
          "name": "",
          "type": "int24"
        }
      ],
      "stateMutability": "view",
      "type": "function"
    },
    {
      "inputs": [
        {
          "internalType": "address",
          "name": "owner",
          "type": "address"
        },
        {
          "internalType": "uint256",
          "name": "nftID",
          "type": "uint256"
        }
      ],
      "name": "addPositionToIndex",
      "outputs": [],
      "stateMutability": "nonpayable",
      "type": "function"
    },
    {
      "inputs": [
        {
          "internalType": "uint32[]",
          "name": "ids",
          "type": "uint32[]"
        }
      ],
      "name": "approveUIs",
      "outputs": [],
      "stateMutability": "nonpayable",
      "type": "function"
    },
    {
      "inputs": [],
      "name": "debt",
      "outputs": [
        {
          "internalType": "uint256",
          "name": "",
          "type": "uint256"
        }
      ],
      "stateMutability": "view",
      "type": "function"
    },
    {
      "inputs": [],
      "name": "debtPositionIndexingEnabled",
      "outputs": [
        {
          "internalType": "bool",
          "name": "",
          "type": "bool"
        }
      ],
      "stateMutability": "view",
      "type": "function"
    },
    {
      "inputs": [
        {
          "internalType": "uint256",
          "name": "count",
          "type": "uint256"
        }
      ],
      "name": "decreaseDebt",
      "outputs": [],
      "stateMutability": "nonpayable",
      "type": "function"
    },
    {
      "inputs": [
        {
          "internalType": "contract IUniswapV3Pool",
          "name": "pool",
          "type": "address"
        },
        {
          "internalType": "uint256",
          "name": "liquidity",
          "type": "uint256"
        }
      ],
      "name": "decreasePoolLiquidity",
      "outputs": [],
      "stateMutability": "nonpayable",
      "type": "function"
    },
    {
      "inputs": [
        {
          "internalType": "uint256",
          "name": "nftID",
          "type": "uint256"
        }
      ],
      "name": "deletePoolPosition",
      "outputs": [],
      "stateMutability": "nonpayable",
      "type": "function"
    },
    {
      "inputs": [],
      "name": "deployer",
      "outputs": [
        {
          "internalType": "address",
          "name": "",
          "type": "address"
        }
      ],
      "stateMutability": "view",
      "type": "function"
    },
    {
      "inputs": [
        {
          "internalType": "uint32[]",
          "name": "ids",
          "type": "uint32[]"
        }
      ],
      "name": "disapproveUIs",
      "outputs": [],
      "stateMutability": "nonpayable",
      "type": "function"
    },
    {
      "inputs": [
        {
          "internalType": "uint64",
          "name": "positionID",
          "type": "uint64"
        }
      ],
      "name": "getBasicPositionInfo",
      "outputs": [
        {
          "internalType": "uint256",
          "name": "debtCount",
          "type": "uint256"
        },
        {
          "internalType": "uint256",
          "name": "collateralCount",
          "type": "uint256"
        }
      ],
      "stateMutability": "view",
      "type": "function"
    },
    {
      "inputs": [
        {
          "internalType": "uint256",
          "name": "nftID",
          "type": "uint256"
        }
      ],
      "name": "getPoolPosition",
      "outputs": [
        {
          "components": [
            {
              "internalType": "address",
              "name": "owner",
              "type": "address"
            },
            {
              "internalType": "uint16",
              "name": "poolID",
              "type": "uint16"
            },
            {
              "internalType": "uint256",
              "name": "cumulativeLiquidity",
              "type": "uint256"
            },
            {
              "internalType": "uint256",
              "name": "totalRewards",
              "type": "uint256"
            },
            {
              "internalType": "uint256",
              "name": "lastBlockPositionIncreased",
              "type": "uint256"
            },
            {
              "internalType": "uint128",
              "name": "liquidity",
              "type": "uint128"
            },
            {
              "internalType": "uint64",
              "name": "lastTimeRewarded",
              "type": "uint64"
            },
            {
              "internalType": "int24",
              "name": "tickLower",
              "type": "int24"
            },
            {
              "internalType": "int24",
              "name": "tickUpper",
              "type": "int24"
            },
            {
              "internalType": "uint32",
              "name": "ui",
              "type": "uint32"
            },
            {
              "internalType": "address",
              "name": "kickbackDestination",
              "type": "address"
            },
            {
              "internalType": "uint64",
              "name": "kickbackPortion",
              "type": "uint64"
            }
          ],
          "internalType": "struct IAccounting.PoolPosition",
          "name": "pp",
          "type": "tuple"
        }
      ],
      "stateMutability": "view",
      "type": "function"
    },
    {
      "inputs": [
        {
          "internalType": "address",
          "name": "owner",
          "type": "address"
        }
      ],
      "name": "getPoolPositionNftIdsByOwner",
      "outputs": [
        {
          "internalType": "uint128[]",
          "name": "",
          "type": "uint128[]"
        }
      ],
      "stateMutability": "view",
      "type": "function"
    },
    {
      "inputs": [
        {
          "internalType": "uint64",
          "name": "positionID",
          "type": "uint64"
        }
      ],
      "name": "getPosition",
      "outputs": [
        {
          "components": [
            {
              "internalType": "uint256",
              "name": "startCumulativeDebt",
              "type": "uint256"
            },
            {
              "internalType": "uint256",
              "name": "collateral",
              "type": "uint256"
            },
            {
              "internalType": "uint256",
              "name": "debt",
              "type": "uint256"
            },
            {
              "internalType": "uint256",
              "name": "startDebtExchangeRate",
              "type": "uint256"
            },
            {
              "internalType": "uint256",
              "name": "startTCPRewards",
              "type": "uint256"
            },
            {
              "internalType": "uint64",
              "name": "lastTimeUpdated",
              "type": "uint64"
            },
            {
              "internalType": "uint64",
              "name": "lastBorrowTime",
              "type": "uint64"
            },
            {
              "internalType": "int24",
              "name": "tick",
              "type": "int24"
            },
            {
              "internalType": "bool",
              "name": "tickSet",
              "type": "bool"
            },
            {
              "internalType": "uint64",
              "name": "tickIndex",
              "type": "uint64"
            },
            {
              "internalType": "uint32",
              "name": "ui",
              "type": "uint32"
            },
            {
              "internalType": "address",
              "name": "kickbackDestination",
              "type": "address"
            },
            {
              "internalType": "uint64",
              "name": "kickbackPortion",
              "type": "uint64"
            }
          ],
          "internalType": "struct IAccounting.DebtPosition",
          "name": "dp",
          "type": "tuple"
        }
      ],
      "stateMutability": "view",
      "type": "function"
    },
    {
      "inputs": [
        {
          "internalType": "uint16",
          "name": "poolID",
          "type": "uint16"
        }
      ],
      "name": "getRewardStatus",
      "outputs": [
        {
          "components": [
            {
              "internalType": "uint256",
              "name": "totalRewards",
              "type": "uint256"
            },
            {
              "internalType": "uint256",
              "name": "cumulativeLiquidity",
              "type": "uint256"
            }
          ],
          "internalType": "struct IAccounting.RewardStatus",
          "name": "",
          "type": "tuple"
        }
      ],
      "stateMutability": "view",
      "type": "function"
    },
    {
      "inputs": [],
      "name": "getSystemDebtInfo",
      "outputs": [
        {
          "components": [
            {
              "internalType": "uint256",
              "name": "debt",
              "type": "uint256"
            },
            {
              "internalType": "uint256",
              "name": "totalTCPRewards",
              "type": "uint256"
            },
            {
              "internalType": "uint256",
              "name": "cumulativeDebt",
              "type": "uint256"
            },
            {
              "internalType": "uint256",
              "name": "debtExchangeRate",
              "type": "uint256"
            }
          ],
          "internalType": "struct IAccounting.SystemDebtInfo",
          "name": "",
          "type": "tuple"
        }
      ],
      "stateMutability": "view",
      "type": "function"
    },
    {
      "inputs": [
        {
          "internalType": "uint256",
          "name": "collateralCount",
          "type": "uint256"
        },
        {
          "internalType": "uint256",
          "name": "debtCount",
          "type": "uint256"
        }
      ],
      "name": "getTick",
      "outputs": [
        {
          "internalType": "int24",
          "name": "",
          "type": "int24"
        }
      ],
      "stateMutability": "pure",
      "type": "function"
    },
    {
      "inputs": [
        {
          "internalType": "uint32",
          "name": "start",
          "type": "uint32"
        },
        {
          "internalType": "uint32",
          "name": "end",
          "type": "uint32"
        }
      ],
      "name": "getUIs",
      "outputs": [
        {
          "components": [
            {
              "internalType": "address",
              "name": "kickbackDestination",
              "type": "address"
            },
            {
              "internalType": "uint64",
              "name": "kickbackPortion",
              "type": "uint64"
            },
            {
              "internalType": "enum IAccounting.UIGovernanceRating",
              "name": "governanceRating",
              "type": "uint8"
            },
            {
              "internalType": "uint24",
              "name": "tags",
              "type": "uint24"
            },
            {
              "internalType": "string",
              "name": "ipfsHash",
              "type": "string"
            }
          ],
          "internalType": "struct IAccounting.UserInterface[]",
          "name": "uis",
          "type": "tuple[]"
        }
      ],
      "stateMutability": "view",
      "type": "function"
    },
    {
      "inputs": [],
      "name": "governor",
      "outputs": [
        {
          "internalType": "contract IGovernor",
          "name": "",
          "type": "address"
        }
      ],
      "stateMutability": "view",
      "type": "function"
    },
    {
      "inputs": [
        {
          "internalType": "uint256",
          "name": "count",
          "type": "uint256"
        }
      ],
      "name": "increaseDebt",
      "outputs": [],
      "stateMutability": "nonpayable",
      "type": "function"
    },
    {
      "inputs": [
        {
          "internalType": "uint256",
          "name": "count",
          "type": "uint256"
        }
      ],
      "name": "increaseLentHue",
      "outputs": [],
      "stateMutability": "nonpayable",
      "type": "function"
    },
    {
      "inputs": [
        {
          "internalType": "contract IUniswapV3Pool",
          "name": "pool",
          "type": "address"
        },
        {
          "internalType": "uint256",
          "name": "liquidity",
          "type": "uint256"
        }
      ],
      "name": "increasePoolLiquidity",
      "outputs": [],
      "stateMutability": "nonpayable",
      "type": "function"
    },
    {
      "inputs": [],
      "name": "init",
      "outputs": [],
      "stateMutability": "nonpayable",
      "type": "function"
    },
    {
      "inputs": [],
      "name": "lentHue",
      "outputs": [
        {
          "internalType": "uint256",
          "name": "",
          "type": "uint256"
        }
      ],
      "stateMutability": "view",
      "type": "function"
    },
    {
      "inputs": [],
      "name": "nextUserInterfaceID",
      "outputs": [
        {
          "internalType": "uint32",
          "name": "",
          "type": "uint32"
        }
      ],
      "stateMutability": "view",
      "type": "function"
    },
    {
      "inputs": [
        {
          "internalType": "address",
          "name": "",
          "type": "address"
        },
        {
          "internalType": "address",
          "name": "",
          "type": "address"
        },
        {
          "internalType": "uint256",
          "name": "",
          "type": "uint256"
        },
        {
          "internalType": "bytes",
          "name": "",
          "type": "bytes"
        }
      ],
      "name": "onERC721Received",
      "outputs": [
        {
          "internalType": "bytes4",
          "name": "",
          "type": "bytes4"
        }
      ],
      "stateMutability": "pure",
      "type": "function"
    },
    {
      "inputs": [
        {
          "internalType": "address",
          "name": "newRewards",
          "type": "address"
        }
      ],
      "name": "onRewardsUpgrade",
      "outputs": [],
      "stateMutability": "nonpayable",
      "type": "function"
    },
    {
      "inputs": [
        {
          "internalType": "contract IUniswapV3Pool",
          "name": "",
          "type": "address"
        }
      ],
      "name": "poolLiquidity",
      "outputs": [
        {
          "internalType": "uint256",
          "name": "",
          "type": "uint256"
        }
      ],
      "stateMutability": "view",
      "type": "function"
    },
    {
      "inputs": [],
      "name": "poolPositionIndexingEnabled",
      "outputs": [
        {
          "internalType": "bool",
          "name": "",
          "type": "bool"
        }
      ],
      "stateMutability": "view",
      "type": "function"
    },
    {
      "inputs": [
        {
          "internalType": "int24",
          "name": "tick",
          "type": "int24"
        }
      ],
      "name": "positionsForTick",
      "outputs": [
        {
          "internalType": "uint64[]",
          "name": "",
          "type": "uint64[]"
        }
      ],
      "stateMutability": "view",
      "type": "function"
    },
    {
      "inputs": [
        {
          "internalType": "uint64",
          "name": "kickbackPortion",
          "type": "uint64"
        },
        {
          "internalType": "uint24",
          "name": "tags",
          "type": "uint24"
        },
        {
          "internalType": "string",
          "name": "ipfsHash",
          "type": "string"
        }
      ],
      "name": "registerUI",
      "outputs": [
        {
          "internalType": "uint32",
          "name": "",
          "type": "uint32"
        }
      ],
      "stateMutability": "nonpayable",
      "type": "function"
    },
    {
      "inputs": [
        {
          "internalType": "address payable",
          "name": "dest",
          "type": "address"
        },
        {
          "internalType": "uint256",
          "name": "count",
          "type": "uint256"
        }
      ],
      "name": "sendCollateral",
      "outputs": [],
      "stateMutability": "nonpayable",
      "type": "function"
    },
    {
      "inputs": [
        {
          "internalType": "address",
          "name": "dest",
          "type": "address"
        },
        {
          "internalType": "uint256",
          "name": "count",
          "type": "uint256"
        }
      ],
      "name": "sendLentHue",
      "outputs": [],
      "stateMutability": "nonpayable",
      "type": "function"
    },
    {
      "inputs": [
        {
          "internalType": "uint256",
          "name": "nftID",
          "type": "uint256"
        },
        {
          "components": [
            {
              "internalType": "address",
              "name": "owner",
              "type": "address"
            },
            {
              "internalType": "uint16",
              "name": "poolID",
              "type": "uint16"
            },
            {
              "internalType": "uint256",
              "name": "cumulativeLiquidity",
              "type": "uint256"
            },
            {
              "internalType": "uint256",
              "name": "totalRewards",
              "type": "uint256"
            },
            {
              "internalType": "uint256",
              "name": "lastBlockPositionIncreased",
              "type": "uint256"
            },
            {
              "internalType": "uint128",
              "name": "liquidity",
              "type": "uint128"
            },
            {
              "internalType": "uint64",
              "name": "lastTimeRewarded",
              "type": "uint64"
            },
            {
              "internalType": "int24",
              "name": "tickLower",
              "type": "int24"
            },
            {
              "internalType": "int24",
              "name": "tickUpper",
              "type": "int24"
            },
            {
              "internalType": "uint32",
              "name": "ui",
              "type": "uint32"
            },
            {
              "internalType": "address",
              "name": "kickbackDestination",
              "type": "address"
            },
            {
              "internalType": "uint64",
              "name": "kickbackPortion",
              "type": "uint64"
            }
          ],
          "internalType": "struct IAccounting.PoolPosition",
          "name": "pp",
          "type": "tuple"
        }
      ],
      "name": "setPoolPosition",
      "outputs": [],
      "stateMutability": "nonpayable",
      "type": "function"
    },
    {
      "inputs": [
        {
          "internalType": "uint64",
          "name": "positionID",
          "type": "uint64"
        },
        {
          "components": [
            {
              "internalType": "uint256",
              "name": "startCumulativeDebt",
              "type": "uint256"
            },
            {
              "internalType": "uint256",
              "name": "collateral",
              "type": "uint256"
            },
            {
              "internalType": "uint256",
              "name": "debt",
              "type": "uint256"
            },
            {
              "internalType": "uint256",
              "name": "startDebtExchangeRate",
              "type": "uint256"
            },
            {
              "internalType": "uint256",
              "name": "startTCPRewards",
              "type": "uint256"
            },
            {
              "internalType": "uint64",
              "name": "lastTimeUpdated",
              "type": "uint64"
            },
            {
              "internalType": "uint64",
              "name": "lastBorrowTime",
              "type": "uint64"
            },
            {
              "internalType": "int24",
              "name": "tick",
              "type": "int24"
            },
            {
              "internalType": "bool",
              "name": "tickSet",
              "type": "bool"
            },
            {
              "internalType": "uint64",
              "name": "tickIndex",
              "type": "uint64"
            },
            {
              "internalType": "uint32",
              "name": "ui",
              "type": "uint32"
            },
            {
              "internalType": "address",
              "name": "kickbackDestination",
              "type": "address"
            },
            {
              "internalType": "uint64",
              "name": "kickbackPortion",
              "type": "uint64"
            }
          ],
          "internalType": "struct IAccounting.DebtPosition",
          "name": "dp",
          "type": "tuple"
        }
      ],
      "name": "setPosition",
      "outputs": [],
      "stateMutability": "nonpayable",
      "type": "function"
    },
    {
      "inputs": [
        {
          "internalType": "uint16",
          "name": "poolID",
          "type": "uint16"
        },
        {
          "components": [
            {
              "internalType": "uint256",
              "name": "totalRewards",
              "type": "uint256"
            },
            {
              "internalType": "uint256",
              "name": "cumulativeLiquidity",
              "type": "uint256"
            }
          ],
          "internalType": "struct IAccounting.RewardStatus",
          "name": "rs",
          "type": "tuple"
        }
      ],
      "name": "setRewardStatus",
      "outputs": [],
      "stateMutability": "nonpayable",
      "type": "function"
    },
    {
      "inputs": [
        {
          "components": [
            {
              "internalType": "uint256",
              "name": "debt",
              "type": "uint256"
            },
            {
              "internalType": "uint256",
              "name": "totalTCPRewards",
              "type": "uint256"
            },
            {
              "internalType": "uint256",
              "name": "cumulativeDebt",
              "type": "uint256"
            },
            {
              "internalType": "uint256",
              "name": "debtExchangeRate",
              "type": "uint256"
            }
          ],
          "internalType": "struct IAccounting.SystemDebtInfo",
          "name": "_sdi",
          "type": "tuple"
        }
      ],
      "name": "setSystemDebtInfo",
      "outputs": [],
      "stateMutability": "nonpayable",
      "type": "function"
    },
    {
      "inputs": [
        {
          "internalType": "int24",
          "name": "rawTick",
          "type": "int24"
        },
        {
          "internalType": "int24",
          "name": "tickSpacing",
          "type": "int24"
        }
      ],
      "name": "snapRawTickToSpacing",
      "outputs": [
        {
          "internalType": "int24",
          "name": "",
          "type": "int24"
        }
      ],
      "stateMutability": "pure",
      "type": "function"
    },
    {
      "inputs": [],
      "name": "stopIndexingDebtPositions",
      "outputs": [],
      "stateMutability": "nonpayable",
      "type": "function"
    },
    {
      "inputs": [],
      "name": "stopIndexingPoolPositions",
      "outputs": [],
      "stateMutability": "nonpayable",
      "type": "function"
    },
    {
      "inputs": [],
      "name": "stopped",
      "outputs": [
        {
          "internalType": "bool",
          "name": "",
          "type": "bool"
        }
      ],
      "stateMutability": "view",
      "type": "function"
    },
    {
      "inputs": [],
      "name": "sweepHue",
      "outputs": [],
      "stateMutability": "nonpayable",
      "type": "function"
    },
    {
      "inputs": [
        {
          "internalType": "uint256",
          "name": "",
          "type": "uint256"
        }
      ],
      "name": "userInterfaces",
      "outputs": [
        {
          "internalType": "address",
          "name": "kickbackDestination",
          "type": "address"
        },
        {
          "internalType": "uint64",
          "name": "kickbackPortion",
          "type": "uint64"
        },
        {
          "internalType": "enum IAccounting.UIGovernanceRating",
          "name": "governanceRating",
          "type": "uint8"
        },
        {
          "internalType": "uint24",
          "name": "tags",
          "type": "uint24"
        },
        {
          "internalType": "string",
          "name": "ipfsHash",
          "type": "string"
        }
      ],
      "stateMutability": "view",
      "type": "function"
    },
    {
      "inputs": [
        {
          "internalType": "bytes4",
          "name": "",
          "type": "bytes4"
        }
      ],
      "name": "validUpdate",
      "outputs": [
        {
          "internalType": "bool",
          "name": "",
          "type": "bool"
        }
      ],
      "stateMutability": "view",
      "type": "function"
    },
    {
      "stateMutability": "payable",
      "type": "receive"
    }
  ],
  "bytecode": "0x60e0604052600160026000509090556001600560006101000a81548160ff0219169083151502179055506001600560016101000a81548160ff0219169083151502179055506001600f60006101000a81548163ffffffff021916908363ffffffff160217905550348015620000745760006000fd5b50604051620078233803806200782383398181016040528101906200009a919062000471565b5b80600001515b8073ffffffffffffffffffffffffffffffffffffffff1660808173ffffffffffffffffffffffffffffffffffffffff1660601b815260140150505b50806020015173ffffffffffffffffffffffffffffffffffffffff1660c08173ffffffffffffffffffffffffffffffffffffffff1660601b81526014015050806040015173ffffffffffffffffffffffffffffffffffffffff1660a08173ffffffffffffffffffffffffffffffffffffffff1660601b8152601401505062000179670de0b6b3a7640000620003d060201b6200318f17909060201c565b600860005060010160106101000a8154816fffffffffffffffffffffffffffffffff02191690836fffffffffffffffffffffffffffffffff16021790555060016001600050600063461054a360e01b7bffffffffffffffffffffffffffffffffffffffffffffffffffffffff19167bffffffffffffffffffffffffffffffffffffffffffffffffffffffff1916815260200190815260200160002060006101000a81548160ff02191690831515021790555060016001600050600063602db56b60e01b7bffffffffffffffffffffffffffffffffffffffffffffffffffffffff19167bffffffffffffffffffffffffffffffffffffffffffffffffffffffff1916815260200190815260200160002060006101000a81548160ff02191690831515021790555060016001600050600063397d359260e01b7bffffffffffffffffffffffffffffffffffffffffffffffffffffffff19167bffffffffffffffffffffffffffffffffffffffffffffffffffffffff1916815260200190815260200160002060006101000a81548160ff021916908315150217905550600160016000506000630b218d2460e01b7bffffffffffffffffffffffffffffffffffffffffffffffffffffffff19167bffffffffffffffffffffffffffffffffffffffffffffffffffffffff1916815260200190815260200160002060006101000a81548160ff02191690831515021790555033600360006101000a81548173ffffffffffffffffffffffffffffffffffffffff021916908373ffffffffffffffffffffffffffffffffffffffff1602179055505b506200050d565b6000700100000000000000000000000000000000821015156200045e576040517f08c379a00000000000000000000000000000000000000000000000000000000081526004018080602001828103825260128152602001807f6d6f7265207468616e203132382062697473000000000000000000000000000081526020015060200191505060405180910390fd5b81905062000467565b919050566200050c565b60006060828403121562000483578081fd5b604051606081018181106001600160401b0382111715620004a057fe5b80604052508251620004b281620004ef565b808252506020830151620004c681620004ef565b806020830152506040830151620004dd81620004ef565b80604083015250809150505b92915050565b6001600160a01b03811681141515620005085760006000fd5b5b50565b5b60805160601c60a05160601c60c05160601c6172866200059d600039806123b6528061246c528061248d52806124b7525080612ef452806148b55250806102f35280610ce85280610ea452806111af52806114e7528061167b52806119185280611f455280612057528061216c52806122b75280612cd1528061304e52806133ae5280613b6452506172866000f3fe6080604052600436106102eb5760003560e01c80636594da9f11610184578063c3c837ba116100d6578063dd8848631161008a578063f34348f111610064578063f34348f114610b5d578063f709960714610b9b578063fd9c749214610bc5576103ca565b8063dd88486314610adb578063e1c7392a14610b19578063e2b1e9e314610b31576103ca565b8063d159b4ae116100bb578063d159b4ae14610a33578063d5f3948814610a71578063d99f572614610a9d576103ca565b8063c3c837ba146109b7578063c7711db4146109f5576103ca565b8063816aaa2511610138578063b241bbac11610112578063b241bbac14610937578063b87e8d5814610961578063bdb2a4961461099f576103ca565b8063816aaa25146108a5578063a135ef17146108cf578063a678f3361461090d576103ca565b806375f12b211161016957806375f12b211461082357806378efc6b01461084f5780637f250c6114610879576103ca565b80636594da9f146107ba57806375ea13ca146107f9576103ca565b80632a7ba1f71161023d57806346ca626b116101f15780635a6beaf4116101cb5780635a6beaf41461074e578063602db56b146107785780636250216914610790576103ca565b806346ca626b146106ba57806351ad51f7146106e6578063530c1ccb14610724576103ca565b80632c73f09e116102225780632c73f09e1461064e578063397d359214610678578063461054a3146106a2576103ca565b80632a7ba1f7146105fa5780632b7c7b1114610624576103ca565b80630f85fc5a1161029f578063150b7a0211610279578063150b7a021461055057806318a15e791461058e57806326879a4e146105d0576103ca565b80630f85fc5a146104aa578063113cf1ab146104e85780631428561d14610526576103ca565b80630b218d24116102d05780630b218d24146104285780630c340a24146104525780630dca59c11461047e576103ca565b806306ef2d80146103d0578063092a26c3146103fc576103ca565b366103ca575b7f000000000000000000000000000000000000000000000000000000000000000073ffffffffffffffffffffffffffffffffffffffff166380f556056040518163ffffffff1660e01b815260040160206040518083038186803b1580156103585760006000fd5b505afa15801561036d573d600060003e3d6000fd5b505050506040513d601f19601f820116820180604052508101906103919190616331565b73ffffffffffffffffffffffffffffffffffffffff163373ffffffffffffffffffffffffffffffffffffffff161415156103c757fe5b5b005b60006000fd5b3480156103dd5760006000fd5b506103e6610bf1565b6040516103f39190617134565b60405180910390f35b3480156104095760006000fd5b50610412610c11565b60405161041f9190616ddf565b60405180910390f35b3480156104355760006000fd5b50610450600480360381019061044b9190616230565b610c24565b005b34801561045f5760006000fd5b50610468610ce6565b6040516104759190616e27565b60405180910390f35b34801561048b5760006000fd5b50610494610d0a565b6040516104a19190617165565b60405180910390f35b3480156104b75760006000fd5b506104d260048036038101906104cd91906166fb565b610d4d565b6040516104df9190616f60565b60405180910390f35b3480156104f55760006000fd5b50610510600480360381019061050b91906162e4565b610e6c565b60405161051d9190616ddf565b60405180910390f35b3480156105335760006000fd5b5061054e600480360381019061054991906163a6565b610e91565b005b34801561055d5760006000fd5b5061057860048036038101906105739190616159565b611032565b6040516105859190616df3565b60405180910390f35b34801561059b5760006000fd5b506105b660048036038101906105b1919061654b565b611078565b6040516105c7959493929190616b85565b60405180910390f35b3480156105dd5760006000fd5b506105f860048036038101906105f3919061654b565b61119c565b005b3480156106075760006000fd5b50610622600480360381019061061d919061654b565b61140e565b005b3480156106315760006000fd5b5061064c6004803603810190610647919061654b565b6114d4565b005b34801561065b5760006000fd5b506106766004803603810190610671919061654b565b611668565b005b3480156106855760006000fd5b506106a0600480360381019061069b9190616230565b611788565b005b3480156106af5760006000fd5b506106b861184a565b005b3480156106c75760006000fd5b506106d06118a3565b6040516106dd9190616e4f565b60405180910390f35b3480156106f35760006000fd5b5061070e6004803603810190610709919061649a565b6118a8565b60405161071b9190617117565b60405180910390f35b3480156107315760006000fd5b5061074c600480360381019061074791906163a6565b611905565b005b34801561075b5760006000fd5b506107766004803603810190610771919061671e565b611aa6565b005b3480156107855760006000fd5b5061078e611ca1565b005b34801561079d5760006000fd5b506107b860048036038101906107b39190616128565b611cfa565b005b3480156107c75760006000fd5b506107e260048036038101906107dd91906166fb565b611d72565b6040516107f0929190617177565b60405180910390f35b3480156108065760006000fd5b50610821600480360381019061081c91906161ff565b611f25565b005b3480156108305760006000fd5b50610839612031565b6040516108469190616ddf565b60405180910390f35b34801561085c5760006000fd5b506108776004803603810190610872919061643a565b612044565b005b3480156108865760006000fd5b5061088f612150565b60405161089c9190617165565b60405180910390f35b3480156108b25760006000fd5b506108cd60048036038101906108c89190616583565b612159565b005b3480156108dc5760006000fd5b506108f760048036038101906108f2919061637f565b612267565b6040516109049190617165565b60405180910390f35b34801561091a5760006000fd5b5061093560048036038101906109309190616101565b612282565b005b3480156109445760006000fd5b5061095f600480360381019061095a91906161ff565b6122a4565b005b34801561096e5760006000fd5b5061098960048036038101906109849190616101565b6123f6565b6040516109969190616cd3565b60405180910390f35b3480156109ac5760006000fd5b506109b5612459565b005b3480156109c45760006000fd5b506109df60048036038101906109da91906166c7565b61258b565b6040516109ec9190616be9565b60405180910390f35b348015610a025760006000fd5b50610a1d6004803603810190610a1891906163d7565b6127fa565b604051610a2a9190616d87565b60405180910390f35b348015610a405760006000fd5b50610a5b6004803603810190610a5691906166a1565b6128ba565b604051610a689190616e4f565b60405180910390f35b348015610a7e5760006000fd5b50610a87612950565b604051610a949190616b04565b60405180910390f35b348015610aaa5760006000fd5b50610ac56004803603810190610ac091906163fe565b612976565b604051610ad29190616e4f565b60405180910390f35b348015610ae85760006000fd5b50610b036004803603810190610afe9190616849565b6129e7565b604051610b109190617190565b60405180910390f35b348015610b265760006000fd5b50610b2f612c48565b005b348015610b3e5760006000fd5b50610b47612d7d565b604051610b549190617190565b60405180910390f35b348015610b6a5760006000fd5b50610b856004803603810190610b80919061654b565b612d93565b604051610b92919061703e565b60405180910390f35b348015610ba85760006000fd5b50610bc36004803603810190610bbe91906164bd565b61303b565b005b348015610bd25760006000fd5b50610bdb61317c565b604051610be89190616ddf565b60405180910390f35b610bf9615d0e565b610c0761322963ffffffff16565b9050610c0e565b90565b600560009054906101000a900460ff1681565b610c326133a963ffffffff16565b6000600090505b8151811015610ca9576002601060005060008484815181101515610c5957fe5b602002602001015163ffffffff168152602001908152602001600020600050600001601c6101000a81548160ff02191690836002811115610c9657fe5b02179055505b8080600101915050610c39565b507f7264e0084cbb7692193b834f40153b973ff4f827f8ed45da32ae6d8e486bb0c781604051610cd99190616d33565b60405180910390a15b5b50565b7f000000000000000000000000000000000000000000000000000000000000000081565b6000600860005060010160009054906101000a90046fffffffffffffffffffffffffffffffff166fffffffffffffffffffffffffffffffff169050610d4a565b90565b610d55615d39565b610d648261340963ffffffff16565b90508050600081610140015163ffffffff161115610e5f576010600050600082610140015163ffffffff16815260200190815260200160002060005060000160009054906101000a900473ffffffffffffffffffffffffffffffffffffffff1681610160019073ffffffffffffffffffffffffffffffffffffffff16908173ffffffffffffffffffffffffffffffffffffffff16815260200150506010600050600082610140015163ffffffff16815260200190815260200160002060005060000160149054906101000a900467ffffffffffffffff1681610180019067ffffffffffffffff16908167ffffffffffffffff16815260200150505b809050610e67565b919050565b600160005060205280600052604060002060009150909054906101000a900460ff1681565b610e9f6137a563ffffffff16565b610f7b7f000000000000000000000000000000000000000000000000000000000000000073ffffffffffffffffffffffffffffffffffffffff16639ec5a8946040518163ffffffff1660e01b815260040160206040518083038186803b158015610f095760006000fd5b505afa158015610f1e573d600060003e3d6000fd5b505050506040513d601f19601f82011682018060405250810190610f429190616358565b73ffffffffffffffffffffffffffffffffffffffff163373ffffffffffffffffffffffffffffffffffffffff161461383663ffffffff16565b610fd381600d60005060008573ffffffffffffffffffffffffffffffffffffffff1673ffffffffffffffffffffffffffffffffffffffff168152602001908152602001600020600050546138b290919063ffffffff16565b600d60005060008473ffffffffffffffffffffffffffffffffffffffff1673ffffffffffffffffffffffffffffffffffffffff1681526020019081526020016000206000508190909055505b61102d61393b63ffffffff16565b5b5050565b60006040517f08c379a000000000000000000000000000000000000000000000000000000000815260040161106690616ee2565b60405180910390fd5b95945050505050565b60106000506020528060005260406000206000915090508060000160009054906101000a900473ffffffffffffffffffffffffffffffffffffffff16908060000160149054906101000a900467ffffffffffffffff169080600001601c9054906101000a900460ff169080600001601d9054906101000a900462ffffff1690806001016000508054600181600116156101000203166002900480601f0160208091040260200160405190810160405280929190818152602001828054600181600116156101000203166002900480156111925780601f1061116757610100808354040283529160200191611192565b820191906000526020600020905b81548152906001019060200180831161117557829003601f168201915b5050505050905085565b6111aa6137a563ffffffff16565b6112867f000000000000000000000000000000000000000000000000000000000000000073ffffffffffffffffffffffffffffffffffffffff16639ec5a8946040518163ffffffff1660e01b815260040160206040518083038186803b1580156112145760006000fd5b505afa158015611229573d600060003e3d6000fd5b505050506040513d601f19601f8201168201806040525081019061124d9190616358565b73ffffffffffffffffffffffffffffffffffffffff163373ffffffffffffffffffffffffffffffffffffffff161461383663ffffffff16565b61132961129a8261318f909063ffffffff16565b600e6000506000600c600050600086815260200190815260200160002060005060000160009054906101000a900473ffffffffffffffffffffffffffffffffffffffff1673ffffffffffffffffffffffffffffffffffffffff1673ffffffffffffffffffffffffffffffffffffffff16815260200190815260200160002060005061394b90919063ffffffff16565b50600c600050600082815260200190815260200160002060006000820160006101000a81549073ffffffffffffffffffffffffffffffffffffffff02191690556000820160146101000a81549061ffff02191690556000820160166101000a81549063ffffffff021916905560018201600050600090556002820160006101000a81549075ffffffffffffffffffffffffffffffffffffffffffff02191690556002820160166101000a81549064ffffffffff021916905560028201601b6101000a81549064ffffffffff021916905550505b61140a61393b63ffffffff16565b5b50565b61141c6137a563ffffffff16565b61142a613b6263ffffffff16565b61148361147682600860005060010160009054906101000a90046fffffffffffffffffffffffffffffffff166fffffffffffffffffffffffffffffffff16613bf090919063ffffffff16565b61318f909063ffffffff16565b600860005060010160006101000a8154816fffffffffffffffffffffffffffffffff02191690836fffffffffffffffffffffffffffffffff1602179055505b6114d061393b63ffffffff16565b5b50565b6114e26137a563ffffffff16565b6115be7f000000000000000000000000000000000000000000000000000000000000000073ffffffffffffffffffffffffffffffffffffffff166380f556056040518163ffffffff1660e01b815260040160206040518083038186803b15801561154c5760006000fd5b505afa158015611561573d600060003e3d6000fd5b505050506040513d601f19601f820116820180604052508101906115859190616331565b73ffffffffffffffffffffffffffffffffffffffff163373ffffffffffffffffffffffffffffffffffffffff161461383663ffffffff16565b61161761160a82600860005060010160009054906101000a90046fffffffffffffffffffffffffffffffff166fffffffffffffffffffffffffffffffff166138b290919063ffffffff16565b61318f909063ffffffff16565b600860005060010160006101000a8154816fffffffffffffffffffffffffffffffff02191690836fffffffffffffffffffffffffffffffff1602179055505b61166461393b63ffffffff16565b5b50565b6116766137a563ffffffff16565b6117527f000000000000000000000000000000000000000000000000000000000000000073ffffffffffffffffffffffffffffffffffffffff166380f556056040518163ffffffff1660e01b815260040160206040518083038186803b1580156116e05760006000fd5b505afa1580156116f5573d600060003e3d6000fd5b505050506040513d601f19601f820116820180604052508101906117199190616331565b73ffffffffffffffffffffffffffffffffffffffff163373ffffffffffffffffffffffffffffffffffffffff161461383663ffffffff16565b61176a816007600050546138b290919063ffffffff16565b60076000508190909055505b61178461393b63ffffffff16565b5b50565b6117966133a963ffffffff16565b6000600090505b815181101561180d5760016010600050600084848151811015156117bd57fe5b602002602001015163ffffffff168152602001908152602001600020600050600001601c6101000a81548160ff021916908360028111156117fa57fe5b02179055505b808060010191505061179d565b507f2e54370527117fb69828eac075cb3ed33fe59712134dfd3ef6efc9bd8b60c1ec8160405161183d9190616d33565b60405180910390a15b5b50565b6118586133a963ffffffff16565b6000600560006101000a81548160ff0219169083151502179055507f262b602ad12e3e551a407d5246b500f4ca5a01cc76bbf03e925db643a62a692f60405160405180910390a15b5b565b60c881565b6118b0615ded565b600b60005060008361ffff1661ffff168152602001908152602001600020600050604051806040016040529081600082016000505481526020016001820160005054815260200150509050611900565b919050565b6119136137a563ffffffff16565b6119ef7f000000000000000000000000000000000000000000000000000000000000000073ffffffffffffffffffffffffffffffffffffffff16639ec5a8946040518163ffffffff1660e01b815260040160206040518083038186803b15801561197d5760006000fd5b505afa158015611992573d600060003e3d6000fd5b505050506040513d601f19601f820116820180604052508101906119b69190616358565b73ffffffffffffffffffffffffffffffffffffffff163373ffffffffffffffffffffffffffffffffffffffff161461383663ffffffff16565b611a4781600d60005060008573ffffffffffffffffffffffffffffffffffffffff1673ffffffffffffffffffffffffffffffffffffffff16815260200190815260200160002060005054613bf090919063ffffffff16565b600d60005060008473ffffffffffffffffffffffffffffffffffffffff1673ffffffffffffffffffffffffffffffffffffffff1681526020019081526020016000206000508190909055505b611aa161393b63ffffffff16565b5b5050565b611ab46137a563ffffffff16565b611ac2613b6263ffffffff16565b600560009054906101000a900460ff168015611ae9575060008267ffffffffffffffff1614155b15611b0357611afe8282613c7963ffffffff16565b905080505b60008160200151148015611b1b575060008160400151145b15611c7c57600460005060008367ffffffffffffffff1667ffffffffffffffff168152602001908152602001600020600060008201600050600090556001820160006101000a8154906fffffffffffffffffffffffffffffffff02191690556001820160106101000a8154906fffffffffffffffffffffffffffffffff02191690556002820160006101000a8154906fffffffffffffffffffffffffffffffff02191690556002820160106101000a8154906fffffffffffffffffffffffffffffffff02191690556003820160006101000a81549067ffffffffffffffff02191690556003820160086101000a81549067ffffffffffffffff02191690556003820160106101000a81549062ffffff02191690556003820160136101000a81549060ff02191690556003820160146101000a81549067ffffffffffffffff021916905560038201601c6101000a81549063ffffffff02191690555050611c8d565b611c8c828261403463ffffffff16565b5b5b611c9c61393b63ffffffff16565b5b5050565b611caf6133a963ffffffff16565b6000600560016101000a81548160ff0219169083151502179055507fc4f6661464541d662c51191d4da5a7a1cc8bca2631698fd030e21b52520a549c60405160405180910390a15b5b565b611d086137a563ffffffff16565b611d16613b6263ffffffff16565b8173ffffffffffffffffffffffffffffffffffffffff166108fc829081150290604051600060405180830381858888f19350505050158015611d5d573d600060003e3d6000fd5b505b611d6d61393b63ffffffff16565b5b5050565b60006000600460005060008467ffffffffffffffff1667ffffffffffffffff16815260200190815260200160002060005060010160109054906101000a90046fffffffffffffffffffffffffffffffff166fffffffffffffffffffffffffffffffff1691508150600460005060008467ffffffffffffffff1667ffffffffffffffff16815260200190815260200160002060005060010160009054906101000a90046fffffffffffffffffffffffffffffffff166fffffffffffffffffffffffffffffffff16905080506000600460005060008567ffffffffffffffff1667ffffffffffffffff16815260200190815260200160002060005060020160009054906101000a90046fffffffffffffffffffffffffffffffff166fffffffffffffffffffffffffffffffff1690506000831480611eae5750600081145b15611ebf5782829250925050611f20565b6000600860005060010160109054906101000a90046fffffffffffffffffffffffffffffffff166fffffffffffffffffffffffffffffffff1690508082141515611f1d57611f188183866143a29092919063ffffffff16565b935083505b50505b915091565b600560019054906101000a900460ff161515611f405761202d565b61201c7f000000000000000000000000000000000000000000000000000000000000000073ffffffffffffffffffffffffffffffffffffffff16639ec5a8946040518163ffffffff1660e01b815260040160206040518083038186803b158015611faa5760006000fd5b505afa158015611fbf573d600060003e3d6000fd5b505050506040513d601f19601f82011682018060405250810190611fe39190616358565b73ffffffffffffffffffffffffffffffffffffffff163373ffffffffffffffffffffffffffffffffffffffff161461383663ffffffff16565b61202c82826144a363ffffffff16565b5b5050565b600060009054906101000a900460ff1681565b6120526137a563ffffffff16565b61212e7f000000000000000000000000000000000000000000000000000000000000000073ffffffffffffffffffffffffffffffffffffffff166380f556056040518163ffffffff1660e01b815260040160206040518083038186803b1580156120bc5760006000fd5b505afa1580156120d1573d600060003e3d6000fd5b505050506040513d601f19601f820116820180604052508101906120f59190616331565b73ffffffffffffffffffffffffffffffffffffffff163373ffffffffffffffffffffffffffffffffffffffff161461383663ffffffff16565b61213d8161451063ffffffff16565b5b61214c61393b63ffffffff16565b5b50565b60076000505481565b6121676137a563ffffffff16565b6122437f000000000000000000000000000000000000000000000000000000000000000073ffffffffffffffffffffffffffffffffffffffff16639ec5a8946040518163ffffffff1660e01b815260040160206040518083038186803b1580156121d15760006000fd5b505afa1580156121e6573d600060003e3d6000fd5b505050506040513d601f19601f8201168201806040525081019061220a9190616358565b73ffffffffffffffffffffffffffffffffffffffff163373ffffffffffffffffffffffffffffffffffffffff161461383663ffffffff16565b612253828261468263ffffffff16565b5b61226261393b63ffffffff16565b5b5050565b600d6000506020528060005260406000206000915090505481565b6122906133a963ffffffff16565b61229f816148b363ffffffff16565b5b5b50565b6122b26137a563ffffffff16565b61238e7f000000000000000000000000000000000000000000000000000000000000000073ffffffffffffffffffffffffffffffffffffffff166380f556056040518163ffffffff1660e01b815260040160206040518083038186803b15801561231c5760006000fd5b505afa158015612331573d600060003e3d6000fd5b505050506040513d601f19601f820116820180604052508101906123559190616331565b73ffffffffffffffffffffffffffffffffffffffff163373ffffffffffffffffffffffffffffffffffffffff161461383663ffffffff16565b6123a681600760005054613bf090919063ffffffff16565b60076000508190909055506123e27f0000000000000000000000000000000000000000000000000000000000000000838361494763ffffffff16565b5b6123f161393b63ffffffff16565b5b5050565b606061244d600e60005060008473ffffffffffffffffffffffffffffffffffffffff1673ffffffffffffffffffffffffffffffffffffffff168152602001908152602001600020600050614b53909063ffffffff16565b9050612454565b919050565b6124676137a563ffffffff16565b6125797f00000000000000000000000000000000000000000000000000000000000000007f000000000000000000000000000000000000000000000000000000000000000061256e6007600050547f000000000000000000000000000000000000000000000000000000000000000073ffffffffffffffffffffffffffffffffffffffff166370a08231306040518263ffffffff1660e01b815260040161250e9190616b2c565b60206040518083038186803b1580156125275760006000fd5b505afa15801561253c573d600060003e3d6000fd5b505050506040513d601f19601f820116820180604052508101906125609190616567565b613bf090919063ffffffff16565b61494763ffffffff16565b5b61258861393b63ffffffff16565b5b565b60608163ffffffff168363ffffffff161015156125a85760006000fd5b82820363ffffffff1667ffffffffffffffff811180156125c85760006000fd5b5060405190808252806020026020018201604052801561260257816020015b6125ef615e0a565b8152602001906001900390816125e75790505b509050805060005b8263ffffffff168463ffffffff1610156127f257601060005060008580600101965063ffffffff1681526020019081526020016000206000506040518060a00160405290816000820160009054906101000a900473ffffffffffffffffffffffffffffffffffffffff1673ffffffffffffffffffffffffffffffffffffffff1673ffffffffffffffffffffffffffffffffffffffff1681526020016000820160149054906101000a900467ffffffffffffffff1667ffffffffffffffff1667ffffffffffffffff16815260200160008201601c9054906101000a900460ff1660028111156126f457fe5b60028111156126ff57fe5b815260200160008201601d9054906101000a900462ffffff1662ffffff1662ffffff168152602001600182016000508054600181600116156101000203166002900480601f0160208091040260200160405190810160405280929190818152602001828054600181600116156101000203166002900480156127c25780601f10612797576101008083540402835291602001916127c2565b820191906000526020600020905b8154815290600101906020018083116127a557829003601f168201915b50505050508152602001505082828060010193508151811015156127e257fe5b602002602001018190525061260a565b505b92915050565b6060600660005060006128148460c861297663ffffffff16565b60020b60020b81526020019081526020016000206000508054806020026020016040519081016040528092919081815260200182805480156128a957602002820191906000526020600020906000905b82829054906101000a900467ffffffffffffffff1667ffffffffffffffff16815260200190600801906020826007010492830192600103820291508084116128645790505b505050505090506128b5565b919050565b600060008214156128d057627fffff905061294a565b600083111515612915576040517f08c379a000000000000000000000000000000000000000000000000000000000815260040161290c90616ea3565b60405180910390fd5b61294361293661292b8585614bf963ffffffff16565b614c6163ffffffff16565b60c861297663ffffffff16565b905061294a565b92915050565b600360009054906101000a900473ffffffffffffffffffffffffffffffffffffffff1681565b600060008360020b905060008360020b8281151561299057fe5b07905060008114156129a65784925050506129e1565b6000600083136129bd578460020b828403036129c1565b8183035b90506129d481615075909063ffffffff16565b93505050506129e1565050505b92915050565b60006129f76137a563ffffffff16565b6703782dace9d9000067ffffffffffffffff168467ffffffffffffffff1611151515612a58576040517f08c379a0000000000000000000000000000000000000000000000000000000008152600401612a4f90616f21565b60405180910390fd5b63ffffffff63ffffffff16600f60009054906101000a900463ffffffff1663ffffffff16101515612a895760006000fd5b6000600f600081819054906101000a900463ffffffff168092919060010191906101000a81548163ffffffff021916908363ffffffff16021790555090506040518060a001604052803373ffffffffffffffffffffffffffffffffffffffff1681526020018667ffffffffffffffff16815260200160006002811115612b0b57fe5b81526020018562ffffff16815260200184815260200150601060005060008363ffffffff16815260200190815260200160002060005060008201518160000160006101000a81548173ffffffffffffffffffffffffffffffffffffffff021916908373ffffffffffffffffffffffffffffffffffffffff16021790555060208201518160000160146101000a81548167ffffffffffffffff021916908367ffffffffffffffff160217905550604082015181600001601c6101000a81548160ff02191690836002811115612bdb57fe5b0217905550606082015181600001601d6101000a81548162ffffff021916908362ffffff1602179055506080820151816001016000509080519060200190612c24929190615e6c565b5090505080915050612c3256505b612c4061393b63ffffffff16565b5b9392505050565b612ca7600360009054906101000a900473ffffffffffffffffffffffffffffffffffffffff1673ffffffffffffffffffffffffffffffffffffffff163373ffffffffffffffffffffffffffffffffffffffff161461383663ffffffff16565b600360006101000a81549073ffffffffffffffffffffffffffffffffffffffff0219169055612d7a7f000000000000000000000000000000000000000000000000000000000000000073ffffffffffffffffffffffffffffffffffffffff16639ec5a8946040518163ffffffff1660e01b815260040160206040518083038186803b158015612d365760006000fd5b505afa158015612d4b573d600060003e3d6000fd5b505050506040513d601f19601f82011682018060405250810190612d6f9190616358565b6148b363ffffffff16565b5b565b600f60009054906101000a900463ffffffff1681565b612d9b615eff565b612daa8261512d63ffffffff16565b905080506000816020015161ffff16111515612dfb576040517f08c379a0000000000000000000000000000000000000000000000000000000008152600401612df290616e64565b60405180910390fd5b600081610120015163ffffffff161115612ef2576010600050600082610120015163ffffffff16815260200190815260200160002060005060000160149054906101000a900467ffffffffffffffff1681610160019067ffffffffffffffff16908167ffffffffffffffff16815260200150506010600050600082610120015163ffffffff16815260200190815260200160002060005060000160009054906101000a900473ffffffffffffffffffffffffffffffffffffffff1681610140019073ffffffffffffffffffffffffffffffffffffffff16908173ffffffffffffffffffffffffffffffffffffffff16815260200150505b7f000000000000000000000000000000000000000000000000000000000000000073ffffffffffffffffffffffffffffffffffffffff166399fbab88836040518263ffffffff1660e01b8152600401612f4b9190617165565b6101806040518083038186803b158015612f655760006000fd5b505afa158015612f7a573d600060003e3d6000fd5b505050506040513d601f19601f82011682018060405250810190612f9e919061691a565b909192939495969798999a509091929394959697989950909192939495969798509091929394959697509091929394959650909192509091509050508360e00184610100018560a0018390906fffffffffffffffffffffffffffffffff166fffffffffffffffffffffffffffffffff1681526020015083909060020b60020b81526020015083909060020b60020b8152602001505050505b919050565b6130496137a563ffffffff16565b6131257f000000000000000000000000000000000000000000000000000000000000000073ffffffffffffffffffffffffffffffffffffffff16639ec5a8946040518163ffffffff1660e01b815260040160206040518083038186803b1580156130b35760006000fd5b505afa1580156130c8573d600060003e3d6000fd5b505050506040513d601f19601f820116820180604052508101906130ec9190616358565b73ffffffffffffffffffffffffffffffffffffffff163373ffffffffffffffffffffffffffffffffffffffff161461383663ffffffff16565b80600b60005060008461ffff1661ffff1681526020019081526020016000206000506000820151816000016000509090556020820151816001016000509090559050505b61317761393b63ffffffff16565b5b5050565b600560019054906101000a900460ff1681565b60007001000000000000000000000000000000008210151561321c576040517f08c379a00000000000000000000000000000000000000000000000000000000081526004018080602001828103825260128152602001807f6d6f7265207468616e203132382062697473000000000000000000000000000081526020015060200191505060405180910390fd5b819050613224565b919050565b613231615d0e565b60006008600050604051806080016040529081600082016000505481526020016001820160009054906101000a90046fffffffffffffffffffffffffffffffff166fffffffffffffffffffffffffffffffff166fffffffffffffffffffffffffffffffff1681526020016001820160109054906101000a90046fffffffffffffffffffffffffffffffff166fffffffffffffffffffffffffffffffff166fffffffffffffffffffffffffffffffff1681526020016002820160009054906101000a90046fffffffffffffffffffffffffffffffff166fffffffffffffffffffffffffffffffff166fffffffffffffffffffffffffffffffff16815260200150509050604051806080016040528082602001516fffffffffffffffffffffffffffffffff16815260200182606001516fffffffffffffffffffffffffffffffff1681526020018260000151815260200182604001516fffffffffffffffffffffffffffffffff168152602001509150506133a656505b90565b6134067f000000000000000000000000000000000000000000000000000000000000000073ffffffffffffffffffffffffffffffffffffffff163373ffffffffffffffffffffffffffffffffffffffff161461383663ffffffff16565b5b565b613411615d39565b6000600460005060008467ffffffffffffffff1667ffffffffffffffff16815260200190815260200160002060005060405180610160016040529081600082016000505481526020016001820160009054906101000a90046fffffffffffffffffffffffffffffffff166fffffffffffffffffffffffffffffffff166fffffffffffffffffffffffffffffffff1681526020016001820160109054906101000a90046fffffffffffffffffffffffffffffffff166fffffffffffffffffffffffffffffffff166fffffffffffffffffffffffffffffffff1681526020016002820160009054906101000a90046fffffffffffffffffffffffffffffffff166fffffffffffffffffffffffffffffffff166fffffffffffffffffffffffffffffffff1681526020016002820160109054906101000a90046fffffffffffffffffffffffffffffffff166fffffffffffffffffffffffffffffffff166fffffffffffffffffffffffffffffffff1681526020016003820160009054906101000a900467ffffffffffffffff1667ffffffffffffffff1667ffffffffffffffff1681526020016003820160089054906101000a900467ffffffffffffffff1667ffffffffffffffff1667ffffffffffffffff1681526020016003820160109054906101000a900460020b60020b60020b81526020016003820160139054906101000a900460ff161515151581526020016003820160149054906101000a900467ffffffffffffffff1667ffffffffffffffff1667ffffffffffffffff16815260200160038201601c9054906101000a900463ffffffff1663ffffffff1663ffffffff16815260200150509050604051806101a001604052808260000151815260200182602001516fffffffffffffffffffffffffffffffff16815260200182604001516fffffffffffffffffffffffffffffffff16815260200182606001516fffffffffffffffffffffffffffffffff16815260200182608001516fffffffffffffffffffffffffffffffff1681526020018260a0015167ffffffffffffffff1681526020018260c0015167ffffffffffffffff1681526020018260e0015160020b81526020018261010001511515815260200182610120015167ffffffffffffffff16815260200182610140015163ffffffff168152602001600073ffffffffffffffffffffffffffffffffffffffff168152602001600067ffffffffffffffff168152602001509150506137a056505b919050565b600260026000505414151515613826576040517f08c379a000000000000000000000000000000000000000000000000000000000815260040180806020018281038252600d8152602001807f4c43205265656e7472616e63790000000000000000000000000000000000000081526020015060200191505060405180910390fd5b600260026000508190909055505b565b8015156138ae576040517f08c379a000000000000000000000000000000000000000000000000000000000815260040180806020018281038252600e8152602001807f4e6f7420417574686f72697a656400000000000000000000000000000000000081526020015060200191505060405180910390fd5b5b50565b60008282840191508110151515613934576040517f08c379a000000000000000000000000000000000000000000000000000000000815260040180806020018281038252600c8152602001807f6164642d6f766572666c6f77000000000000000000000000000000000000000081526020015060200191505060405180910390fd5b5b92915050565b600160026000508190909055505b565b60006000836001016000506000846fffffffffffffffffffffffffffffffff166fffffffffffffffffffffffffffffffff168152602001908152602001600020600050549050600081141515613b50576000600182039050600060018660000160005080549050039050600086600001600050828154811015156139cb57fe5b90600052602060002090600291828204019190066010025b9054906101000a90046fffffffffffffffffffffffffffffffff169050808760000160005084815481101515613a1557fe5b90600052602060002090600291828204019190066010025b6101000a8154816fffffffffffffffffffffffffffffffff02191690836fffffffffffffffffffffffffffffffff16021790555060018301876001016000506000836fffffffffffffffffffffffffffffffff166fffffffffffffffffffffffffffffffff168152602001908152602001600020600050819090905550866000016000508054801515613abc57fe5b60019003818190600052602060002090600291828204019190066010025b6101000a8154906fffffffffffffffffffffffffffffffff02191690559055866001016000506000876fffffffffffffffffffffffffffffffff166fffffffffffffffffffffffffffffffff168152602001908152602001600020600050600090556001945050505050613b5c56505050613b5a565b6000915050613b5c565b505b92915050565b7f000000000000000000000000000000000000000000000000000000000000000073ffffffffffffffffffffffffffffffffffffffff16637c114fed336040518263ffffffff1660e01b8152600401613bbb9190616b2c565b60006040518083038186803b158015613bd45760006000fd5b505afa158015613be9573d600060003e3d6000fd5b505050505b565b60008282840391508111151515613c72576040517f08c379a000000000000000000000000000000000000000000000000000000000815260040180806020018281038252600d8152602001807f7375622d756e646572666c6f770000000000000000000000000000000000000081526020015060200191505060405180910390fd5b5b92915050565b613c81615d39565b6000600460005060008567ffffffffffffffff1667ffffffffffffffff16815260200190815260200160002060005060030160139054906101000a900460ff169050600081613cd357627fffff613d12565b600460005060008667ffffffffffffffff1667ffffffffffffffff16815260200190815260200160002060005060030160109054906101000a900460020b5b90506000600460005060008767ffffffffffffffff1667ffffffffffffffff16815260200190815260200160002060005060030160149054906101000a900467ffffffffffffffff1690506000613d77866020015187604001516128ba63ffffffff16565b90508060020b8360020b14151561401e57808660e0019060020b908160020b815260200150506000627fffff60020b8460020b1215613f4457600660005060008560020b60020b8152602001908152602001600020600050905080506000613ded60018380549050036153c3909063ffffffff16565b90508067ffffffffffffffff168467ffffffffffffffff16141515613f01576000828267ffffffffffffffff16815481101515613e2657fe5b90600052602060002090600491828204019190066008025b9054906101000a900467ffffffffffffffff16905080838667ffffffffffffffff16815481101515613e6c57fe5b90600052602060002090600491828204019190066008025b6101000a81548167ffffffffffffffff021916908367ffffffffffffffff16021790555084600460005060008367ffffffffffffffff1667ffffffffffffffff16815260200190815260200160002060005060030160146101000a81548167ffffffffffffffff021916908367ffffffffffffffff160217905550505b818054801515613f0d57fe5b60019003818190600052602060002090600491828204019190066008025b6101000a81549067ffffffffffffffff02191690559055505b627fffff60020b8260020b121561401c57600660005060008360020b60020b815260200190815260200160002060005090508050613f8d81805490506153c3909063ffffffff16565b87610120019067ffffffffffffffff16908167ffffffffffffffff1681526020015050600187610100019015159081151581526020015050808890806001815401808255809150506001900390600052602060002090600491828204019190066008025b9091909190916101000a81548167ffffffffffffffff021916908367ffffffffffffffff1602179055505b505b8594505050505061402e56505050505b92915050565b6040518061016001604052808260000151815260200161405f836020015161318f909063ffffffff16565b6fffffffffffffffffffffffffffffffff16815260200161408b836040015161318f909063ffffffff16565b6fffffffffffffffffffffffffffffffff1681526020016140b7836060015161318f909063ffffffff16565b6fffffffffffffffffffffffffffffffff1681526020016140e3836080015161318f909063ffffffff16565b6fffffffffffffffffffffffffffffffff1681526020018260a0015167ffffffffffffffff1681526020018260c0015167ffffffffffffffff1681526020018260e0015160020b81526020018261010001511515815260200182610120015167ffffffffffffffff16815260200182610140015163ffffffff16815260200150600460005060008467ffffffffffffffff1667ffffffffffffffff16815260200190815260200160002060005060008201518160000160005090905560208201518160010160006101000a8154816fffffffffffffffffffffffffffffffff02191690836fffffffffffffffffffffffffffffffff16021790555060408201518160010160106101000a8154816fffffffffffffffffffffffffffffffff02191690836fffffffffffffffffffffffffffffffff16021790555060608201518160020160006101000a8154816fffffffffffffffffffffffffffffffff02191690836fffffffffffffffffffffffffffffffff16021790555060808201518160020160106101000a8154816fffffffffffffffffffffffffffffffff02191690836fffffffffffffffffffffffffffffffff16021790555060a08201518160030160006101000a81548167ffffffffffffffff021916908367ffffffffffffffff16021790555060c08201518160030160086101000a81548167ffffffffffffffff021916908367ffffffffffffffff16021790555060e08201518160030160106101000a81548162ffffff021916908360020b62ffffff1602179055506101008201518160030160136101000a81548160ff0219169083151502179055506101208201518160030160146101000a81548167ffffffffffffffff021916908367ffffffffffffffff16021790555061014082015181600301601c6101000a81548163ffffffff021916908363ffffffff1602179055509050505b5050565b60006000600060001985870985870292508281108382030391505060008114156143e5576000841115156143d65760006000fd5b8382049250829250505061449c565b80841115156143f45760006000fd5b600084868809905082811182039150808303925060008586600003169050808604955080840493506001818260000304019050808302841793508350600060028760030218905080870260020381029050805080870260020381029050805080870260020381029050805080870260020381029050805080870260020381029050805080870260020381029050805080850295508550859550505050505061449c5650505050505b9392505050565b61450a6144b78261318f909063ffffffff16565b600e60005060008573ffffffffffffffffffffffffffffffffffffffff1673ffffffffffffffffffffffffffffffffffffffff16815260200190815260200160002060005061545590919063ffffffff16565b505b5050565b60405180608001604052808260400151815260200161453a836000015161318f909063ffffffff16565b6fffffffffffffffffffffffffffffffff168152602001614566836060015161318f909063ffffffff16565b6fffffffffffffffffffffffffffffffff168152602001614592836020015161318f909063ffffffff16565b6fffffffffffffffffffffffffffffffff16815260200150600860005060008201518160000160005090905560208201518160010160006101000a8154816fffffffffffffffffffffffffffffffff02191690836fffffffffffffffffffffffffffffffff16021790555060408201518160010160106101000a8154816fffffffffffffffffffffffffffffffff02191690836fffffffffffffffffffffffffffffffff16021790555060608201518160020160006101000a8154816fffffffffffffffffffffffffffffffff02191690836fffffffffffffffffffffffffffffffff1602179055509050505b50565b6040518060e00160405280826000015173ffffffffffffffffffffffffffffffffffffffff168152602001826020015161ffff16815260200182610120015163ffffffff168152602001826040015181526020016146eb8360600151615546909063ffffffff16565b75ffffffffffffffffffffffffffffffffffffffffffff1681526020016147278360c0015167ffffffffffffffff166155e6909063ffffffff16565b64ffffffffff16815260200161474883608001516155e6909063ffffffff16565b64ffffffffff16815260200150600c600050600084815260200190815260200160002060005060008201518160000160006101000a81548173ffffffffffffffffffffffffffffffffffffffff021916908373ffffffffffffffffffffffffffffffffffffffff16021790555060208201518160000160146101000a81548161ffff021916908361ffff16021790555060408201518160000160166101000a81548163ffffffff021916908363ffffffff16021790555060608201518160010160005090905560808201518160020160006101000a81548175ffffffffffffffffffffffffffffffffffffffffffff021916908375ffffffffffffffffffffffffffffffffffffffffffff16021790555060a08201518160020160166101000a81548164ffffffffff021916908364ffffffffff16021790555060c082015181600201601b6101000a81548164ffffffffff021916908364ffffffffff1602179055509050505b5050565b7f000000000000000000000000000000000000000000000000000000000000000073ffffffffffffffffffffffffffffffffffffffff1663a22cb4658260016040518363ffffffff1660e01b815260040161490f929190616b54565b600060405180830381600087803b15801561492a5760006000fd5b505af115801561493f573d600060003e3d6000fd5b505050505b50565b600060008473ffffffffffffffffffffffffffffffffffffffff1663a9059cbb60e01b8585604051602401808373ffffffffffffffffffffffffffffffffffffffff16815260200182815260200192505050604051602081830303815290604052907bffffffffffffffffffffffffffffffffffffffffffffffffffffffff19166020820180517bffffffffffffffffffffffffffffffffffffffffffffffffffffffff83818316178352505050506040518082805190602001908083835b602083101515614a2c57805182525b602082019150602081019050602083039250614a06565b6001836020036101000a0380198251168184511680821785525050505050509050019150506000604051808303816000865af19150503d8060008114614a8e576040519150601f19603f3d011682016040523d82523d6000602084013e614a93565b606091505b5091509150818015614ad45750600081511480614ad35750808060200190516020811015614ac15760006000fd5b81019080805190602001909291905050505b5b1515614b4b576040517f08c379a00000000000000000000000000000000000000000000000000000000081526004018080602001828103825260028152602001807f535400000000000000000000000000000000000000000000000000000000000081526020015060200191505060405180910390fd5b50505b505050565b606081600001600050805480602002602001604051908101604052809291908181526020018280548015614bea57602002820191906000526020600020906000905b82829054906101000a90046fffffffffffffffffffffffffffffffff166fffffffffffffffffffffffffffffffff1681526020019060100190602082600f01049283019260010382029150808411614b955790505b5050505050905080505b919050565b6000614c54614c476601000000000000614c39614c2e6c0100000000000000000000000087896143a29092919063ffffffff16565b61567563ffffffff16565b6156e890919063ffffffff16565b615786909063ffffffff16565b9050614c5b565b92915050565b60006401000276a373ffffffffffffffffffffffffffffffffffffffff168273ffffffffffffffffffffffffffffffffffffffff1610158015614ce3575073fffd8963efd1fc6a506488495d951d5263988d2673ffffffffffffffffffffffffffffffffffffffff168273ffffffffffffffffffffffffffffffffffffffff16105b1515614d5a576040517f08c379a00000000000000000000000000000000000000000000000000000000081526004018080602001828103825260018152602001807f520000000000000000000000000000000000000000000000000000000000000081526020015060200191505060405180910390fd5b600060208373ffffffffffffffffffffffffffffffffffffffff16901b905060008190506000600090506fffffffffffffffffffffffffffffffff821160071b808217915082811c92505067ffffffffffffffff821160061b808217915082811c92505063ffffffff821160051b808217915082811c92505061ffff821160041b808217915082811c92505060ff821160031b808217915082811c925050600f821160021b808217915082811c9250506003821160011b808217915082811c92505060018211808217915050608081101515614e4057607f810383901c91508150614e4c565b80607f0383901b915081505b6000604060808303901b9050828302607f1c92508260801c80603f1b8217915083811c935050828302607f1c92508260801c80603e1b8217915083811c935050828302607f1c92508260801c80603d1b8217915083811c935050828302607f1c92508260801c80603c1b8217915083811c935050828302607f1c92508260801c80603b1b8217915083811c935050828302607f1c92508260801c80603a1b8217915083811c935050828302607f1c92508260801c8060391b8217915083811c935050828302607f1c92508260801c8060381b8217915083811c935050828302607f1c92508260801c8060371b8217915083811c935050828302607f1c92508260801c8060361b8217915083811c935050828302607f1c92508260801c8060351b8217915083811c935050828302607f1c92508260801c8060341b8217915083811c935050828302607f1c92508260801c8060331b8217915083811c935050828302607f1c92508260801c8060321b82179150506000693627a301d71055774c8582029050600060806f028f6481ab7f045a5af012a19d003aaa8303901d9050600060806fdb2df09e81959a81455e260799a0632f8401901d90508060020b8260020b14615062578873ffffffffffffffffffffffffffffffffffffffff166150398261582463ffffffff16565b73ffffffffffffffffffffffffffffffffffffffff16111561505b578161505d565b805b615064565b815b97508750505050505050505b919050565b60007fffffffffffffffffffffffffffffffffffffffffffffffffffffffffff80000082121580156150a957506280000082125b1515615120576040517f08c379a00000000000000000000000000000000000000000000000000000000081526004018080602001828103825260118152602001807f6d6f7265207468616e203234206269747300000000000000000000000000000081526020015060200191505060405180910390fd5b819050615128565b919050565b615135615eff565b6000600c60005060008481526020019081526020016000206000506040518060e00160405290816000820160009054906101000a900473ffffffffffffffffffffffffffffffffffffffff1673ffffffffffffffffffffffffffffffffffffffff1673ffffffffffffffffffffffffffffffffffffffff1681526020016000820160149054906101000a900461ffff1661ffff1661ffff1681526020016000820160169054906101000a900463ffffffff1663ffffffff1663ffffffff168152602001600182016000505481526020016002820160009054906101000a900475ffffffffffffffffffffffffffffffffffffffffffff1675ffffffffffffffffffffffffffffffffffffffffffff1675ffffffffffffffffffffffffffffffffffffffffffff1681526020016002820160169054906101000a900464ffffffffff1664ffffffffff1664ffffffffff16815260200160028201601b9054906101000a900464ffffffffff1664ffffffffff1664ffffffffff16815260200150509050604051806101800160405280826000015173ffffffffffffffffffffffffffffffffffffffff168152602001826020015161ffff16815260200182606001518152602001826080015175ffffffffffffffffffffffffffffffffffffffffffff1681526020018260c0015164ffffffffff16815260200160006fffffffffffffffffffffffffffffffff1681526020018260a0015164ffffffffff1667ffffffffffffffff168152602001600060020b8152602001600060020b8152602001826040015163ffffffff168152602001600073ffffffffffffffffffffffffffffffffffffffff168152602001600067ffffffffffffffff168152602001509150506153be56505b919050565b60006801000000000000000082101515615448576040517f08c379a00000000000000000000000000000000000000000000000000000000081526004018080602001828103825260118152602001807f6d6f7265207468616e203634206269747300000000000000000000000000000081526020015060200191505060405180910390fd5b819050615450565b919050565b60006154678383615cbb63ffffffff16565b151561553657826000016000508290806001815401808255809150506001900390600052602060002090600291828204019190066010025b9091909190916101000a8154816fffffffffffffffffffffffffffffffff02191690836fffffffffffffffffffffffffffffffff1602179055508260000160005080549050836001016000506000846fffffffffffffffffffffffffffffffff166fffffffffffffffffffffffffffffffff168152602001908152602001600020600050819090905550600190506155405661553f565b60009050615540565b5b92915050565b6000760100000000000000000000000000000000000000000000821015156155d9576040517f08c379a00000000000000000000000000000000000000000000000000000000081526004018080602001828103825260128152602001807f6d6f7265207468616e203137362062697473000000000000000000000000000081526020015060200191505060405180910390fd5b8190506155e1565b919050565b60006501000000000082101515615668576040517f08c379a00000000000000000000000000000000000000000000000000000000081526004018080602001828103825260118152602001807f6d6f7265207468616e203430206269747300000000000000000000000000000081526020015060200191505060405180910390fd5b819050615670565b919050565b600060038211156156d05781905080506000600160028481151561569557fe5b040190505b818110156156ca57809150815060028182858115156156b557fe5b04018115156156c057fe5b049050805061569a565b506156e2565b6000821415156156e1576001905080505b5b5b919050565b600060008214806157085750828283850292508281151561570557fe5b04145b151561577f576040517f08c379a000000000000000000000000000000000000000000000000000000000815260040180806020018281038252600c8152602001807f6d756c2d6f766572666c6f77000000000000000000000000000000000000000081526020015060200191505060405180910390fd5b5b92915050565b60007401000000000000000000000000000000000000000082101515615817576040517f08c379a00000000000000000000000000000000000000000000000000000000081526004018080602001828103825260128152602001807f6d6f7265207468616e203136302062697473000000000000000000000000000081526020015060200191505060405180910390fd5b81905061581f565b919050565b6000600060008360020b1261583c578260020b615844565b8260020b6000035b90507ffffffffffffffffffffffffffffffffffffffffffffffffffffffffffff2761860000360020b81111515156158e7576040517f08c379a00000000000000000000000000000000000000000000000000000000081526004018080602001828103825260018152602001807f540000000000000000000000000000000000000000000000000000000000000081526020015060200191505060405180910390fd5b6000600060018316141561590c5770010000000000000000000000000000000061591e565b6ffffcb933bd6fad37aa2d162d1a5940015b70ffffffffffffffffffffffffffffffffff16905060006002831614151561595c5760806ffff97272373d413259a46990580e213a8202901c905080505b6000600483161415156159855760806ffff2e50f5f656932ef12357cf3c7fdcc8202901c905080505b6000600883161415156159ae5760806fffe5caca7e10e4e61c3624eaa0941cd08202901c905080505b6000601083161415156159d75760806fffcb9843d60f6159c9db58835c9266448202901c905080505b600060208316141515615a005760806fff973b41fa98c081472e6896dfb254c08202901c905080505b600060408316141515615a295760806fff2ea16466c96a3843ec78b326b528618202901c905080505b600060808316141515615a525760806ffe5dee046a99a2a811c461f1969c30538202901c905080505b60006101008316141515615a7c5760806ffcbe86c7900a88aedcffc83b479aa3a48202901c905080505b60006102008316141515615aa65760806ff987a7253ac413176f2b074cf7815e548202901c905080505b60006104008316141515615ad05760806ff3392b0822b70005940c7a398e4b70f38202901c905080505b60006108008316141515615afa5760806fe7159475a2c29b7443b29c7fa6e889d98202901c905080505b60006110008316141515615b245760806fd097f3bdfd2022b8845ad8f792aa58258202901c905080505b60006120008316141515615b4e5760806fa9f746462d870fdf8a65dc1f90e061e58202901c905080505b60006140008316141515615b785760806f70d869a156d2a1b890bb3df62baf32f78202901c905080505b60006180008316141515615ba25760806f31be135f97d08fd981231505542fcfa68202901c905080505b6000620100008316141515615bcd5760806f09aa508b5b7a84e1c677de54f3e99bc98202901c905080505b6000620200008316141515615bf75760806e5d6af8dedb81196699c329225ee6048202901c905080505b6000620400008316141515615c205760806d2216e584f5fa1ea926041bedfe988202901c905080505b6000620800008316141515615c475760806b048a170391f7dc42444e8fa28202901c905080505b60008460020b1315615c8457807fffffffffffffffffffffffffffffffffffffffffffffffffffffffffffffffff811515615c7e57fe5b04905080505b600064010000000082811515615c9657fe5b0614615ca3576001615ca6565b60005b60ff16602082901c019250825050505b919050565b60006000836001016000506000846fffffffffffffffffffffffffffffffff166fffffffffffffffffffffffffffffffff1681526020019081526020016000206000505414159050615d08565b92915050565b6040518060800160405280600081526020016000815260200160008152602001600081526020015090565b604051806101a001604052806000815260200160008152602001600081526020016000815260200160008152602001600067ffffffffffffffff168152602001600067ffffffffffffffff168152602001600060020b8152602001600015158152602001600067ffffffffffffffff168152602001600063ffffffff168152602001600073ffffffffffffffffffffffffffffffffffffffff168152602001600067ffffffffffffffff1681526020015090565b604051806040016040528060008152602001600081526020015090565b6040518060a00160405280600073ffffffffffffffffffffffffffffffffffffffff168152602001600067ffffffffffffffff16815260200160006002811115615e5057fe5b8152602001600062ffffff168152602001606081526020015090565b828054600181600116156101000203166002900490600052602060002090601f016020900481019282615ea25760008555615eee565b82601f10615ebb57805160ff1916838001178555615eee565b82800160010185558215615eee579182015b82811115615eed5782518260005090905591602001919060010190615ecd565b5b509050615efb9190615fc5565b5090565b604051806101800160405280600073ffffffffffffffffffffffffffffffffffffffff168152602001600061ffff16815260200160008152602001600081526020016000815260200160006fffffffffffffffffffffffffffffffff168152602001600067ffffffffffffffff168152602001600060020b8152602001600060020b8152602001600063ffffffff168152602001600073ffffffffffffffffffffffffffffffffffffffff168152602001600067ffffffffffffffff1681526020015090565b615fca565b80821115615fe45760008181506000905550600101615fca565b50905661724f565b600081359050615ffb816171d3565b5b919050565b600081519050616010816171d3565b5b919050565b6000813590508015158114151561602d5760006000fd5b5b919050565b600081359050616042816171fc565b5b919050565b600081519050616057816171fc565b5b919050565b60008135905061606c81617212565b5b919050565b60008151905061608181617212565b5b919050565b60008135905061ffff8116811415156160a05760006000fd5b5b919050565b6000815190506160b581617237565b5b919050565b60008135905063ffffffff8116811415156160d65760006000fd5b5b919050565b60008135905067ffffffffffffffff8116811415156160fb5760006000fd5b5b919050565b600060208284031215616112578081fd5b813561611d816171d3565b809150505b92915050565b600060006040838503121561613b578081fd5b8235616146816171d3565b80925050602083013590505b9250929050565b6000600060006000600060808688031215616172578081fd5b853561617d816171d3565b80955050602086013561618f816171d3565b8094505060408601359250606086013567ffffffffffffffff808211156161b4578283fd5b818801915088601f83011215156161c9578283fd5b8135818111156161d7578384fd5b8960208285010111156161e8578384fd5b6020830194508093505050505b9295509295909350565b6000600060408385031215616212578182fd5b823561621d816171d3565b80925050602083013590505b9250929050565b60006020808385031215616242578182fd5b823567ffffffffffffffff80821115616259578384fd5b818501915085601f830112151561626e578384fd5b81358181111561627a57fe5b838102915061628a8483016171a8565b80828252858201915085850189878688010111156162a6578788fd5b8795505b838610156162d3576162bb816160bb565b8352868301925086810190505b6001860195506162aa565b508096505050505050505b92915050565b6000602082840312156162f5578081fd5b81357fffffffff00000000000000000000000000000000000000000000000000000000811681141515616326578182fd5b809150505b92915050565b600060208284031215616342578081fd5b815161634d816171d3565b809150505b92915050565b600060208284031215616369578081fd5b8151616374816171d3565b809150505b92915050565b600060208284031215616390578081fd5b813561639b816171d3565b809150505b92915050565b60006000604083850312156163b9578182fd5b82356163c4816171d3565b80925050602083013590505b9250929050565b6000602082840312156163e8578081fd5b81356163f3816171fc565b809150505b92915050565b6000600060408385031215616411578182fd5b823561641c816171fc565b80925050602083013561642e816171fc565b809150505b9250929050565b60006080828403121561644b578081fd5b6040516080810181811067ffffffffffffffff8211171561646857fe5b806040525082358152602083013560208201526040830135604082015260608301356060820152809150505b92915050565b6000602082840312156164ab578081fd5b6164b482616087565b90505b92915050565b6000600082840360608112156164d1578283fd5b6164da84616087565b925060407fffffffffffffffffffffffffffffffffffffffffffffffffffffffffffffffe08201121561650b578182fd5b506040516040810181811067ffffffffffffffff8211171561652957fe5b80604052506020840135815260408401356020820152809150505b9250929050565b60006020828403121561655c578081fd5b813590505b92915050565b600060208284031215616578578081fd5b815190505b92915050565b600060008284036101a0811215616598578283fd5b83359250610180807fffffffffffffffffffffffffffffffffffffffffffffffffffffffffffffffe0830112156165cd578283fd5b6165d6816171a8565b91506165e460208601615fec565b82526165f260408601616087565b6020830152606085013560408301526080850135606083015260a0850135608083015261662160c0860161605d565b60a083015261663260e086016160dc565b60c0830152610100616645818701616033565b60e0840152610120616658818801616033565b82850152610140915061666c8288016160bb565b818501525061016061667f818801615fec565b8285015261668e8388016160dc565b81850152505050809150505b9250929050565b60006000604083850312156166b4578182fd5b82359150602083013590505b9250929050565b60006000604083850312156166da578182fd5b6166e3836160bb565b91506166f1602084016160bb565b90505b9250929050565b60006020828403121561670c578081fd5b616715826160dc565b90505b92915050565b600060008284036101c0811215616733578283fd5b61673c846160dc565b92506101a0807fffffffffffffffffffffffffffffffffffffffffffffffffffffffffffffffe08301121561676f578283fd5b616778816171a8565b91506020850135825260408501356020830152606085013560408301526080850135606083015260a085013560808301526167b560c086016160dc565b60a08301526167c660e086016160dc565b60c08301526101006167d9818701616033565b60e08401526101206167ec818801616016565b8285015261014091506168008288016160dc565b81850152506101606168138188016160bb565b828501526101809150616827828801615fec565b81850152506168378287016160dc565b818401525050809150505b9250929050565b6000600060006060848603121561685e578081fd5b616867846160dc565b925060208085013561687881617237565b80935050604085013567ffffffffffffffff80821115616896578384fd5b818701915087601f83011215156168ab578384fd5b8135818111156168b757fe5b6168e7847fffffffffffffffffffffffffffffffffffffffffffffffffffffffffffffffe0601f840116016171a8565b915080825288848285010111156168fc578485fd5b808484018584013784848284010152508093505050505b9250925092565b6000600060006000600060006000600060006000600060006101808d8f03121561694257898afd5b8c516bffffffffffffffffffffffff81168114151561695f578a8bfd5b809c505061696f60208e01616001565b9a5061697d60408e01616001565b995061698b60608e01616001565b985061699960808e016160a6565b97506169a760a08e01616048565b96506169b560c08e01616048565b95506169c360e08e01616072565b94506101008d015193506101208d015192506169e26101408e01616072565b91506169f16101608e01616072565b90505b9295989b509295989b509295989b565b73ffffffffffffffffffffffffffffffffffffffff811682525b5050565b80151582525b5050565b600381101515616a3857fe5b8082525b5050565b8060020b82525b5050565b60008151808452815b81811015616a77576020808286010151818388010152505b602081019050616a54565b81811115616a885782602083870101525b5060207fffffffffffffffffffffffffffffffffffffffffffffffffffffffffffffffe0601f8301168501019150505b92915050565b6fffffffffffffffffffffffffffffffff811682525b5050565b61ffff811682525b5050565b63ffffffff811682525b5050565b67ffffffffffffffff811682525b5050565b600060208201905073ffffffffffffffffffffffffffffffffffffffff831682525b92915050565b600060208201905073ffffffffffffffffffffffffffffffffffffffff831682525b92915050565b600060408201905073ffffffffffffffffffffffffffffffffffffffff8416825282151560208301525b9392505050565b600073ffffffffffffffffffffffffffffffffffffffff8716825267ffffffffffffffff86166020830152616bbd6040830186616a2c565b62ffffff8416606083015260a06080830152616bdc60a0830184616a4b565b90505b9695505050505050565b6000602080830181845280855180835260409250828601915082848202870101848801865b83811015616cc2577fffffffffffffffffffffffffffffffffffffffffffffffffffffffffffffffc0898403018552815160a073ffffffffffffffffffffffffffffffffffffffff825116855267ffffffffffffffff89830151168986015287820151616c7d89870182616a2c565b50606062ffffff818401511681870152506080808301519250818187015250616ca881860183616a4b565b94505050868201915086850194505b600181019050616c0e565b505080955050505050505b92915050565b600060208083018184528085518083526040860191508387019250845b81811015616d24576fffffffffffffffffffffffffffffffff8451168352848301925084840193505b600181019050616cf0565b50508093505050505b92915050565b600060208083018184528085518083526040860191508387019250845b81811015616d785763ffffffff8451168352848301925084840193505b600181019050616d50565b50508093505050505b92915050565b600060208083018184528085518083526040860191508387019250845b81811015616dd05767ffffffffffffffff8451168352848301925084840193505b600181019050616da4565b50508093505050505b92915050565b600060208201905082151582525b92915050565b60006020820190507fffffffff00000000000000000000000000000000000000000000000000000000831682525b92915050565b600060208201905073ffffffffffffffffffffffffffffffffffffffff831682525b92915050565b60006020820190508260020b82525b92915050565b600060208252600c60208301527f506f736974696f6e20444e45000000000000000000000000000000000000000060408301526060820190505b919050565b600060208252601760208301527f4465627420776974686f757420636f6c6c61746572616c00000000000000000060408301526060820190505b919050565b600060208252601d60208301527f446f6573206e6f7420616363657074204e465473206469726563746c7900000060408301526060820190505b919050565b600060208252601560208301527f4d6178206b69636b6261636b206578636565646564000000000000000000000060408301526060820190505b919050565b60006101a082019050825182526020830151602083015260408301516040830152606083015160608301526080830151608083015260a0830151616fa760a0840182616af2565b5060c0830151616fba60c0840182616af2565b5060e0830151616fcd60e0840182616a40565b5061010080840151616fe182850182616a22565b505061012080840151616ff682850182616af2565b50506101408084015161700b82850182616ae4565b50506101608084015161702082850182616a04565b50506101808084015161703582850182616af2565b50505b92915050565b600061018082019050617052828451616a04565b60208301516170646020840182616ad8565b5060408301516040830152606083015160608301526080830151608083015260a083015161709560a0840182616abe565b5060c08301516170a860c0840182616af2565b5060e08301516170bb60e0840182616a40565b50610100808401516170cf82850182616a40565b5050610120808401516170e482850182616ae4565b5050610140808401516170f982850182616a04565b50506101608084015161710e82850182616af2565b50505b92915050565b600060408201905082518252602083015160208301525b92915050565b6000608082019050825182526020830151602083015260408301516040830152606083015160608301525b92915050565b60006020820190508282525b92915050565b60006040820190508382528260208301525b9392505050565b600060208201905063ffffffff831682525b92915050565b6000604051905081810181811067ffffffffffffffff821117156171c857fe5b80604052505b919050565b73ffffffffffffffffffffffffffffffffffffffff8116811415156171f85760006000fd5b5b50565b8060020b8114151561720e5760006000fd5b5b50565b6fffffffffffffffffffffffffffffffff8116811415156172335760006000fd5b5b50565b62ffffff81168114151561724b5760006000fd5b5b50565bfea264697066735822122099374e5f5ecf32c7b401a65c061b93dfba02d87c51b66142400d5205b42aac6364736f6c63430007060033",
  "linkReferences": {},
  "deployedLinkReferences": {}
}