{
  "_format": "hh-sol-artifact-1",
  "contractName": "Prices",
  "sourceName": "contracts/core/logic/Prices.sol",
  "abi": [
    {
      "anonymous": false,
      "inputs": [
        {
          "indexed": true,
          "internalType": "address",
          "name": "governor",
          "type": "address"
        }
      ],
      "name": "Initialized",
      "type": "event"
    },
    {
      "anonymous": false,
      "inputs": [
        {
          "indexed": true,
          "internalType": "string",
          "name": "paramName",
          "type": "string"
        },
        {
          "indexed": true,
          "internalType": "address",
          "name": "addr",
          "type": "address"
        }
      ],
      "name": "ParameterUpdatedAddress",
      "type": "event"
    },
    {
      "anonymous": false,
      "inputs": [
        {
          "indexed": true,
          "internalType": "address",
          "name": "pool",
          "type": "address"
        },
        {
          "indexed": false,
          "internalType": "uint256",
          "name": "price",
          "type": "uint256"
        },
        {
          "indexed": false,
          "internalType": "int24",
          "name": "tick",
          "type": "int24"
        }
      ],
      "name": "PriceUpdated",
      "type": "event"
    },
    {
      "anonymous": false,
      "inputs": [],
      "name": "Stopped",
      "type": "event"
    },
    {
      "inputs": [
        {
          "internalType": "contract IUniswapV3Pool",
          "name": "pool",
          "type": "address"
        }
      ],
      "name": "addReferencePool",
      "outputs": [],
      "stateMutability": "nonpayable",
      "type": "function"
    },
    {
      "inputs": [
        {
          "internalType": "contract IUniswapV3Pool",
          "name": "pool",
          "type": "address"
        },
        {
          "internalType": "uint32",
          "name": "twapDuration",
          "type": "uint32"
        }
      ],
      "name": "calculateInstantTwappedPrice",
      "outputs": [
        {
          "internalType": "uint256",
          "name": "",
          "type": "uint256"
        }
      ],
      "stateMutability": "view",
      "type": "function"
    },
    {
      "inputs": [
        {
          "internalType": "contract IUniswapV3Pool",
          "name": "pool",
          "type": "address"
        },
        {
          "internalType": "uint32",
          "name": "twapDuration",
          "type": "uint32"
        }
      ],
      "name": "calculateInstantTwappedTick",
      "outputs": [
        {
          "internalType": "int24",
          "name": "tick",
          "type": "int24"
        }
      ],
      "stateMutability": "view",
      "type": "function"
    },
    {
      "inputs": [
        {
          "internalType": "contract IUniswapV3Pool",
          "name": "pool",
          "type": "address"
        },
        {
          "internalType": "bool",
          "name": "normalizeDecimals",
          "type": "bool"
        }
      ],
      "name": "calculateTwappedPrice",
      "outputs": [
        {
          "internalType": "uint256",
          "name": "price",
          "type": "uint256"
        }
      ],
      "stateMutability": "view",
      "type": "function"
    },
    {
      "inputs": [],
      "name": "collateralPool",
      "outputs": [
        {
          "internalType": "contract IUniswapV3Pool",
          "name": "",
          "type": "address"
        }
      ],
      "stateMutability": "view",
      "type": "function"
    },
    {
      "inputs": [],
      "name": "completeSetup",
      "outputs": [],
      "stateMutability": "nonpayable",
      "type": "function"
    },
    {
      "inputs": [
        {
          "internalType": "uint160",
          "name": "sqrtPriceX96",
          "type": "uint160"
        }
      ],
      "name": "convertSqrtPriceX96ToTick",
      "outputs": [
        {
          "internalType": "int24",
          "name": "",
          "type": "int24"
        }
      ],
      "stateMutability": "pure",
      "type": "function"
    },
    {
      "inputs": [
        {
          "internalType": "int24",
          "name": "tick",
          "type": "int24"
        }
      ],
      "name": "convertTickToSqrtPriceX96",
      "outputs": [
        {
          "internalType": "uint160",
          "name": "",
          "type": "uint160"
        }
      ],
      "stateMutability": "pure",
      "type": "function"
    },
    {
      "inputs": [],
      "name": "deployer",
      "outputs": [
        {
          "internalType": "address",
          "name": "",
          "type": "address"
        }
      ],
      "stateMutability": "view",
      "type": "function"
    },
    {
      "inputs": [
        {
          "internalType": "contract IUniswapV3Pool",
          "name": "pool",
          "type": "address"
        },
        {
          "internalType": "int24",
          "name": "tick",
          "type": "int24"
        },
        {
          "internalType": "int24",
          "name": "tickLower",
          "type": "int24"
        },
        {
          "internalType": "int24",
          "name": "tickUpper",
          "type": "int24"
        },
        {
          "internalType": "uint128",
          "name": "liquidity",
          "type": "uint128"
        },
        {
          "internalType": "uint32",
          "name": "twapDuration",
          "type": "uint32"
        }
      ],
      "name": "getRealZhuCountForSinglePoolPosition",
      "outputs": [
        {
          "internalType": "uint256",
          "name": "",
          "type": "uint256"
        }
      ],
      "stateMutability": "view",
      "type": "function"
    },
    {
      "inputs": [],
      "name": "governor",
      "outputs": [
        {
          "internalType": "contract IGovernor",
          "name": "",
          "type": "address"
        }
      ],
      "stateMutability": "view",
      "type": "function"
    },
    {
      "inputs": [
        {
          "internalType": "contract IGovernor",
          "name": "_governor",
          "type": "address"
        }
      ],
      "name": "init",
      "outputs": [],
      "stateMutability": "nonpayable",
      "type": "function"
    },
    {
      "inputs": [
        {
          "internalType": "contract IUniswapV3Pool",
          "name": "",
          "type": "address"
        }
      ],
      "name": "priceInfo",
      "outputs": [
        {
          "internalType": "uint64",
          "name": "startTime",
          "type": "uint64"
        },
        {
          "internalType": "int56",
          "name": "tickCumulative",
          "type": "int56"
        },
        {
          "internalType": "int24",
          "name": "tick",
          "type": "int24"
        },
        {
          "internalType": "uint8",
          "name": "otherTokenDecimals",
          "type": "uint8"
        },
        {
          "internalType": "bool",
          "name": "isToken0",
          "type": "bool"
        },
        {
          "internalType": "bool",
          "name": "valid",
          "type": "bool"
        }
      ],
      "stateMutability": "view",
      "type": "function"
    },
    {
      "inputs": [],
      "name": "protocolPool",
      "outputs": [
        {
          "internalType": "contract IUniswapV3Pool",
          "name": "",
          "type": "address"
        }
      ],
      "stateMutability": "view",
      "type": "function"
    },
    {
      "inputs": [],
      "name": "stop",
      "outputs": [],
      "stateMutability": "nonpayable",
      "type": "function"
    },
    {
      "inputs": [],
      "name": "stopped",
      "outputs": [
        {
          "internalType": "bool",
          "name": "",
          "type": "bool"
        }
      ],
      "stateMutability": "view",
      "type": "function"
    },
    {
      "inputs": [
        {
          "internalType": "contract IUniswapV3Pool",
          "name": "pool",
          "type": "address"
        }
      ],
      "name": "systemObtainReferencePrice",
      "outputs": [
        {
          "internalType": "uint256",
          "name": "",
          "type": "uint256"
        }
      ],
      "stateMutability": "nonpayable",
      "type": "function"
    },
    {
      "inputs": [
        {
          "internalType": "bytes4",
          "name": "",
          "type": "bytes4"
        }
      ],
      "name": "validUpdate",
      "outputs": [
        {
          "internalType": "bool",
          "name": "",
          "type": "bool"
        }
      ],
      "stateMutability": "view",
      "type": "function"
    },
    {
      "inputs": [
        {
          "internalType": "uint32",
          "name": "twapDuration",
          "type": "uint32"
        }
      ],
      "name": "zhuTcpPrice",
      "outputs": [
        {
          "internalType": "uint256",
          "name": "",
          "type": "uint256"
        }
      ],
      "stateMutability": "view",
      "type": "function"
    }
  ],
  "bytecode": "0x60806040526001600660005090905534801561001b5760006000fd5b505b33600160006101000a81548173ffffffffffffffffffffffffffffffffffffffff021916908373ffffffffffffffffffffffffffffffffffffffff1602179055505b610064565b6144e380620000746000396000f3fe60806040523480156100115760006000fd5b50600436106101565760003560e01c80638aea8f71116100ce578063d423b07311610082578063d97e640011610067578063d97e640014610618578063fcebd71c14610681578063ff0eccf6146106ed57610156565b8063d423b07314610588578063d5f39488146105e457610156565b8063c381c1e6116100b3578063c381c1e6146104a1578063cb75e31b146104e6578063ce403c131461052f57610156565b80638aea8f711461043b578063bd2699e31461044557610156565b80633c63a9cd1161012557806375f12b211161010a57806375f12b211461033b5780637ce3b2dc1461035b5780638396cf691461040757610156565b80633c63a9cd146102435780636d048d53146102a857610156565b806307da68f51461015c5780630c340a2414610166578063113cf1ab1461019a57806319ab453c146101fe57610156565b60006000fd5b610164610721565b005b61016e610741565b604051808273ffffffffffffffffffffffffffffffffffffffff16815260200191505060405180910390f35b6101e6600480360360208110156101b15760006000fd5b8101908080357bffffffffffffffffffffffffffffffffffffffffffffffffffffffff19169060200190929190505050610767565b60405180821515815260200191505060405180910390f35b610241600480360360208110156102155760006000fd5b81019080803573ffffffffffffffffffffffffffffffffffffffff16906020019092919050505061078c565b005b6102926004803603604081101561025a5760006000fd5b81019080803573ffffffffffffffffffffffffffffffffffffffff169060200190929190803515159060200190929190505050610b4a565b6040518082815260200191505060405180910390f35b6102eb600480360360208110156102bf5760006000fd5b81019080803573ffffffffffffffffffffffffffffffffffffffff169060200190929190505050610fb9565b604051808767ffffffffffffffff1681526020018660060b81526020018560020b81526020018460ff16815260200183151581526020018215158152602001965050505050505060405180910390f35b61034361104d565b60405180821515815260200191505060405180910390f35b6103f1600480360360c08110156103725760006000fd5b81019080803573ffffffffffffffffffffffffffffffffffffffff169060200190929190803560020b9060200190929190803560020b9060200190929190803560020b906020019092919080356fffffffffffffffffffffffffffffffff169060200190929190803563ffffffff169060200190929190505050611060565b6040518082815260200191505060405180910390f35b61040f6112d0565b604051808273ffffffffffffffffffffffffffffffffffffffff16815260200191505060405180910390f35b6104436112f6565b005b6104756004803603602081101561045c5760006000fd5b81019080803560020b90602001909291905050506116cb565b604051808273ffffffffffffffffffffffffffffffffffffffff16815260200191505060405180910390f35b6104e4600480360360208110156104b85760006000fd5b81019080803573ffffffffffffffffffffffffffffffffffffffff1690602001909291905050506116e8565b005b610519600480360360208110156104fd5760006000fd5b81019080803563ffffffff169060200190929190505050611786565b6040518082815260200191505060405180910390f35b610572600480360360208110156105465760006000fd5b81019080803573ffffffffffffffffffffffffffffffffffffffff169060200190929190505050611809565b6040518082815260200191505060405180910390f35b6105cb6004803603602081101561059f5760006000fd5b81019080803573ffffffffffffffffffffffffffffffffffffffff169060200190929190505050611fca565b604051808260020b815260200191505060405180910390f35b6105ec611fe7565b604051808273ffffffffffffffffffffffffffffffffffffffff16815260200191505060405180910390f35b61066b6004803603604081101561062f5760006000fd5b81019080803573ffffffffffffffffffffffffffffffffffffffff169060200190929190803563ffffffff16906020019092919050505061200d565b6040518082815260200191505060405180910390f35b6106d4600480360360408110156106985760006000fd5b81019080803573ffffffffffffffffffffffffffffffffffffffff169060200190929190803563ffffffff16906020019092919050505061202c565b604051808260020b815260200191505060405180910390f35b6106f5612176565b604051808273ffffffffffffffffffffffffffffffffffffffff16815260200191505060405180910390f35b61072f61219c63ffffffff16565b61073d61223163ffffffff16565b5b5b565b600060009054906101000a900473ffffffffffffffffffffffffffffffffffffffff1681565b600560005060205280600052604060002060009150909054906101000a900460ff1681565b600160009054906101000a900473ffffffffffffffffffffffffffffffffffffffff1673ffffffffffffffffffffffffffffffffffffffff163373ffffffffffffffffffffffffffffffffffffffff161415156107e95760006000fd5b600160006101000a81549073ffffffffffffffffffffffffffffffffffffffff021916905580600060006101000a81548173ffffffffffffffffffffffffffffffffffffffff021916908373ffffffffffffffffffffffffffffffffffffffff160217905550600060009054906101000a900473ffffffffffffffffffffffffffffffffffffffff1673ffffffffffffffffffffffffffffffffffffffff16639624e83e6040518163ffffffff1660e01b815260040160206040518083038186803b1580156108b85760006000fd5b505afa1580156108cd573d600060003e3d6000fd5b505050506040513d601f19601f820116820180604052508101906108f19190614390565b600260006101000a81548173ffffffffffffffffffffffffffffffffffffffff021916908373ffffffffffffffffffffffffffffffffffffffff160217905550600060009054906101000a900473ffffffffffffffffffffffffffffffffffffffff1673ffffffffffffffffffffffffffffffffffffffff16638a15fcf36040518163ffffffff1660e01b815260040160206040518083038186803b15801561099a5760006000fd5b505afa1580156109af573d600060003e3d6000fd5b505050506040513d601f19601f820116820180604052508101906109d391906143de565b600360006101000a81548173ffffffffffffffffffffffffffffffffffffffff021916908373ffffffffffffffffffffffffffffffffffffffff160217905550600060009054906101000a900473ffffffffffffffffffffffffffffffffffffffff1673ffffffffffffffffffffffffffffffffffffffff1663d478b0876040518163ffffffff1660e01b815260040160206040518083038186803b158015610a7c5760006000fd5b505afa158015610a91573d600060003e3d6000fd5b505050506040513d601f19601f82011682018060405250810190610ab591906143b7565b600460006101000a81548173ffffffffffffffffffffffffffffffffffffffff021916908373ffffffffffffffffffffffffffffffffffffffff160217905550610b0361227b63ffffffff16565b8073ffffffffffffffffffffffffffffffffffffffff167f908408e307fc569b417f6cbec5d5a06f44a0a505ac0479b47d421a4b2fd6a1e660405160405180910390a25b50565b60006000600760005060008573ffffffffffffffffffffffffffffffffffffffff1673ffffffffffffffffffffffffffffffffffffffff1681526020019081526020016000206000506040518060c00160405290816000820160009054906101000a900467ffffffffffffffff1667ffffffffffffffff1667ffffffffffffffff1681526020016000820160089054906101000a900460060b60060b60060b815260200160008201600f9054906101000a900460020b60020b60020b81526020016000820160129054906101000a900460ff1660ff1660ff1681526020016000820160139054906101000a900460ff161515151581526020016000820160149054906101000a900460ff1615151515815260200150509050610c758160a0015161227e63ffffffff16565b6000610c856122fa63ffffffff16565b90508067ffffffffffffffff16826000015167ffffffffffffffff16101515610d19576040517f08c379a00000000000000000000000000000000000000000000000000000000081526004018080602001828103825260028152602001807f544500000000000000000000000000000000000000000000000000000000000081526020015060200191505060405180910390fd5b60008573ffffffffffffffffffffffffffffffffffffffff1663883bdbfd610d4561231563ffffffff16565b6040518263ffffffff1660e01b81526004018080602001828103825283818151815260200191508051906020019060200280838360005b83811015610d985780820151818401525b602081019050610d7c565b505050509050019250505060006040518083038186803b158015610dbc5760006000fd5b505afa158015610dd1573d600060003e3d6000fd5b505050506040513d6000823e3d601f19601f820116820180604052506040811015610dfc5760006000fd5b8101908080516040519392919084640100000000821115610e1d5760006000fd5b83820191506020820185811115610e345760006000fd5b8251866020820283011164010000000082111715610e525760006000fd5b8083526020830192505050908051906020019060200280838360005b83811015610e8a5780820151818401525b602081019050610e6e565b5050505090500160405260200180516040519392919084640100000000821115610eb45760006000fd5b83820191506020820185811115610ecb5760006000fd5b8251866020820283011164010000000082111715610ee95760006000fd5b8083526020830192505050908051906020019060200280838360005b83811015610f215780820151818401525b602081019050610f05565b50505050905001604052602001505050509050610f86610f768460200151836000815181101515610f4e57fe5b6020026020010151610f6b8760000151870361239663ffffffff16565b61242e63ffffffff16565b846080015161249d63ffffffff16565b9350835084610f955783610fa6565b610fa584846124d863ffffffff16565b5b9350505050610fb3565050505b92915050565b60076000506020528060005260406000206000915090508060000160009054906101000a900467ffffffffffffffff16908060000160089054906101000a900460060b9080600001600f9054906101000a900460020b908060000160129054906101000a900460ff16908060000160139054906101000a900460ff16908060000160149054906101000a900460ff16905086565b600060149054906101000a900460ff1681565b60006000600760005060008973ffffffffffffffffffffffffffffffffffffffff1673ffffffffffffffffffffffffffffffffffffffff1681526020019081526020016000206000506040518060c00160405290816000820160009054906101000a900467ffffffffffffffff1667ffffffffffffffff1667ffffffffffffffff1681526020016000820160089054906101000a900460060b60060b60060b815260200160008201600f9054906101000a900460020b60020b60020b81526020016000820160129054906101000a900460ff1660ff1660ff1681526020016000820160139054906101000a900460ff161515151581526020016000820160149054906101000a900460ff161515151581526020015050905061118b8160a0015161227e63ffffffff16565b600060006111cb6111a18a61256d63ffffffff16565b6111b08a61256d63ffffffff16565b6111bf8a61256d63ffffffff16565b89612a0463ffffffff16565b91509150600083608001516111e057816111e2565b825b9050600860009054906101000a900473ffffffffffffffffffffffffffffffffffffffff1673ffffffffffffffffffffffffffffffffffffffff168b73ffffffffffffffffffffffffffffffffffffffff1614156112b6576112b161126f600960009054906101000a900473ffffffffffffffffffffffffffffffffffffffff1688612b1a63ffffffff16565b6112a1600860009054906101000a900473ffffffffffffffffffffffffffffffffffffffff1689612b1a63ffffffff16565b83612cef9092919063ffffffff16565b905080505b809450505050506112c656505050505b9695505050505050565b600860009054906101000a900473ffffffffffffffffffffffffffffffffffffffff1681565b61130461219c63ffffffff16565b600060009054906101000a900473ffffffffffffffffffffffffffffffffffffffff1673ffffffffffffffffffffffffffffffffffffffff16638396cf696040518163ffffffff1660e01b815260040160206040518083038186803b15801561136d5760006000fd5b505afa158015611382573d600060003e3d6000fd5b505050506040513d60208110156113995760006000fd5b8101908080519060200190929190505050600860006101000a81548173ffffffffffffffffffffffffffffffffffffffff021916908373ffffffffffffffffffffffffffffffffffffffff16021790555061141b600860009054906101000a900473ffffffffffffffffffffffffffffffffffffffff16612df063ffffffff16565b600060009054906101000a900473ffffffffffffffffffffffffffffffffffffffff1673ffffffffffffffffffffffffffffffffffffffff1663ff0eccf66040518163ffffffff1660e01b815260040160206040518083038186803b1580156114845760006000fd5b505afa158015611499573d600060003e3d6000fd5b505050506040513d60208110156114b05760006000fd5b8101908080519060200190929190505050600960006101000a81548173ffffffffffffffffffffffffffffffffffffffff021916908373ffffffffffffffffffffffffffffffffffffffff160217905550611532600960009054906101000a900473ffffffffffffffffffffffffffffffffffffffff16612df063ffffffff16565b6000600060009054906101000a900473ffffffffffffffffffffffffffffffffffffffff1673ffffffffffffffffffffffffffffffffffffffff1663ab658be26040518163ffffffff1660e01b815260040160006040518083038186803b15801561159d5760006000fd5b505afa1580156115b2573d600060003e3d6000fd5b505050506040513d6000823e3d601f19601f8201168201806040525060208110156115dd5760006000fd5b81019080805160405193929190846401000000008211156115fe5760006000fd5b838201915060208201858111156116155760006000fd5b82518660208202830111640100000000821117156116335760006000fd5b8083526020830192505050908051906020019060200280838360005b8381101561166b5780820151818401525b60208101905061164f565b5050505090500160405260200150505090506000600090505b81518160ff1610156116c5576116b7828260ff168151811015156116a457fe5b6020026020010151612df063ffffffff16565b5b8080600101915050611684565b50505b5b565b60006116dc8261256d63ffffffff16565b90506116e3565b919050565b6116f661219c63ffffffff16565b61170581612df063ffffffff16565b8073ffffffffffffffffffffffffffffffffffffffff1660405180807f6164645265666572656e6365506f6f6c00000000000000000000000000000000815260200150601001905060405180910390207f78caada2f560033c9479d8c5e33f045f2e611faebe6b6d8a73874c80ec2dd3a260405160405180910390a35b5b50565b60006117fd6117bd600860009054906101000a900473ffffffffffffffffffffffffffffffffffffffff1684612b1a63ffffffff16565b6117ef600960009054906101000a900473ffffffffffffffffffffffffffffffffffffffff1685612b1a63ffffffff16565b6134b490919063ffffffff16565b9050611804565b919050565b60006118196134da63ffffffff16565b600060009054906101000a900473ffffffffffffffffffffffffffffffffffffffff1673ffffffffffffffffffffffffffffffffffffffff166343f48fbd6040518163ffffffff1660e01b815260040160206040518083038186803b1580156118825760006000fd5b505afa158015611897573d600060003e3d6000fd5b505050506040513d60208110156118ae5760006000fd5b810190808051906020019092919050505073ffffffffffffffffffffffffffffffffffffffff163373ffffffffffffffffffffffffffffffffffffffff16141515611964576040517f08c379a000000000000000000000000000000000000000000000000000000000815260040180806020018281038252600e8152602001807f4e6f7420417574686f72697a656400000000000000000000000000000000000081526020015060200191505060405180910390fd5b6000600760005060008473ffffffffffffffffffffffffffffffffffffffff1673ffffffffffffffffffffffffffffffffffffffff1681526020019081526020016000206000506040518060c00160405290816000820160009054906101000a900467ffffffffffffffff1667ffffffffffffffff1667ffffffffffffffff1681526020016000820160089054906101000a900460060b60060b60060b815260200160008201600f9054906101000a900460020b60020b60020b81526020016000820160129054906101000a900460ff1660ff1660ff1681526020016000820160139054906101000a900460ff161515151581526020016000820160149054906101000a900460ff1615151515815260200150509050611a8d8160a0015161227e63ffffffff16565b6000611a9d6122fa63ffffffff16565b90508067ffffffffffffffff16826000015167ffffffffffffffff16101515611b31576040517f08c379a00000000000000000000000000000000000000000000000000000000081526004018080602001828103825260028152602001807f544500000000000000000000000000000000000000000000000000000000000081526020015060200191505060405180910390fd5b60008473ffffffffffffffffffffffffffffffffffffffff1663883bdbfd611b5d61231563ffffffff16565b6040518263ffffffff1660e01b81526004018080602001828103825283818151815260200191508051906020019060200280838360005b83811015611bb05780820151818401525b602081019050611b94565b505050509050019250505060006040518083038186803b158015611bd45760006000fd5b505afa158015611be9573d600060003e3d6000fd5b505050506040513d6000823e3d601f19601f820116820180604052506040811015611c145760006000fd5b8101908080516040519392919084640100000000821115611c355760006000fd5b83820191506020820185811115611c4c5760006000fd5b8251866020820283011164010000000082111715611c6a5760006000fd5b8083526020830192505050908051906020019060200280838360005b83811015611ca25780820151818401525b602081019050611c86565b5050505090500160405260200180516040519392919084640100000000821115611ccc5760006000fd5b83820191506020820185811115611ce35760006000fd5b8251866020820283011164010000000082111715611d015760006000fd5b8083526020830192505050908051906020019060200280838360005b83811015611d395780820151818401525b602081019050611d1d565b50505050905001604052602001505050509050611d8b8360200151826000815181101515611d6357fe5b6020026020010151611d808660000151860361239663ffffffff16565b61242e63ffffffff16565b836040019060020b908160020b81526020015050806000815181101515611dae57fe5b6020026020010151836020019060060b908160060b8152602001505081836000019067ffffffffffffffff16908167ffffffffffffffff168152602001505082600760005060008773ffffffffffffffffffffffffffffffffffffffff1673ffffffffffffffffffffffffffffffffffffffff16815260200190815260200160002060005060008201518160000160006101000a81548167ffffffffffffffff021916908367ffffffffffffffff16021790555060208201518160000160086101000a81548166ffffffffffffff021916908360060b66ffffffffffffff160217905550604082015181600001600f6101000a81548162ffffff021916908360020b62ffffff16021790555060608201518160000160126101000a81548160ff021916908360ff16021790555060808201518160000160136101000a81548160ff02191690831515021790555060a08201518160000160146101000a81548160ff0219169083151502179055509050506000611f47611f3b8560400151866080015161249d63ffffffff16565b856124d863ffffffff16565b90508573ffffffffffffffffffffffffffffffffffffffff167f4aec2babed558ca204f263d79ac04efaccd05cd4b7bebfa21beeb221330062d3828660400151604051808381526020018260020b81526020019250505060405180910390a280945050505050611fb656505050505b611fc461353563ffffffff16565b5b919050565b6000611fdb8261354563ffffffff16565b9050611fe2565b919050565b600160009054906101000a900473ffffffffffffffffffffffffffffffffffffffff1681565b600061201f8383612b1a63ffffffff16565b9050612026565b92915050565b60006000600760005060008573ffffffffffffffffffffffffffffffffffffffff1673ffffffffffffffffffffffffffffffffffffffff1681526020019081526020016000206000506040518060c00160405290816000820160009054906101000a900467ffffffffffffffff1667ffffffffffffffff1667ffffffffffffffff1681526020016000820160089054906101000a900460060b60060b60060b815260200160008201600f9054906101000a900460020b60020b60020b81526020016000820160129054906101000a900460ff1660ff1660ff1681526020016000820160139054906101000a900460ff161515151581526020016000820160149054906101000a900460ff16151515158152602001505090506121578160a0015161227e63ffffffff16565b612167848461395963ffffffff16565b91505061217056505b92915050565b600960009054906101000a900473ffffffffffffffffffffffffffffffffffffffff1681565b600060009054906101000a900473ffffffffffffffffffffffffffffffffffffffff1673ffffffffffffffffffffffffffffffffffffffff163373ffffffffffffffffffffffffffffffffffffffff1614151561222e576040517f08c379a000000000000000000000000000000000000000000000000000000000815260040161222590614444565b60405180910390fd5b5b565b6001600060146101000a81548160ff0219169083151502179055507f7acc84e34091ae817647a4c49116f5cc07f319078ba80f8f5fde37ea7e25cbd660405160405180910390a15b565b5b565b8015156122f6576040517f08c379a000000000000000000000000000000000000000000000000000000000815260040180806020018281038252600c8152602001807f496e76616c696420706f6f6c000000000000000000000000000000000000000081526020015060200191505060405180910390fd5b5b50565b600061230d42613ce0909063ffffffff16565b905080505b90565b6060600167ffffffffffffffff811180156123305760006000fd5b5060405190808252806020026020018201604052801561235f5781602001602082028036833780820191505090505b5090508050600081600081518110151561237557fe5b602002602001019063ffffffff16908163ffffffff16815260200150505b90565b60006401000000008267ffffffffffffffff16101515612421576040517f08c379a00000000000000000000000000000000000000000000000000000000081526004018080602001828103825260138152602001807f626967676572207468616e20333220626974730000000000000000000000000081526020015060200191505060405180910390fd5b819050612429565b919050565b60006000848403905060008363ffffffff168260060b81151561244d57fe5b05905060008260060b12801561247b575060008463ffffffff168360060b81151561247457fe5b0760060b14155b1561248a578080600190039150505b80925050506124965650505b9392505050565b60006124cb6124c0836124b057846124b5565b846000035b61256d63ffffffff16565b613d7263ffffffff16565b90506124d2565b92915050565b6000601260ff16826060015160ff1614156124f557829050612567565b6000601260ff16836060015160ff1610905060008161251b576012846060015103612524565b83606001516012035b905081612549576125448160ff16600a0a86613dcf90919063ffffffff16565b61255c565b8060ff16600a0a8581151561255a57fe5b045b925050506125675650505b92915050565b6000600060008360020b12612585578260020b61258d565b8260020b6000035b90507ffffffffffffffffffffffffffffffffffffffffffffffffffffffffffff2761860000360020b8111151515612630576040517f08c379a00000000000000000000000000000000000000000000000000000000081526004018080602001828103825260018152602001807f540000000000000000000000000000000000000000000000000000000000000081526020015060200191505060405180910390fd5b6000600060018316141561265557700100000000000000000000000000000000612667565b6ffffcb933bd6fad37aa2d162d1a5940015b70ffffffffffffffffffffffffffffffffff1690506000600283161415156126a55760806ffff97272373d413259a46990580e213a8202901c905080505b6000600483161415156126ce5760806ffff2e50f5f656932ef12357cf3c7fdcc8202901c905080505b6000600883161415156126f75760806fffe5caca7e10e4e61c3624eaa0941cd08202901c905080505b6000601083161415156127205760806fffcb9843d60f6159c9db58835c9266448202901c905080505b6000602083161415156127495760806fff973b41fa98c081472e6896dfb254c08202901c905080505b6000604083161415156127725760806fff2ea16466c96a3843ec78b326b528618202901c905080505b60006080831614151561279b5760806ffe5dee046a99a2a811c461f1969c30538202901c905080505b600061010083161415156127c55760806ffcbe86c7900a88aedcffc83b479aa3a48202901c905080505b600061020083161415156127ef5760806ff987a7253ac413176f2b074cf7815e548202901c905080505b600061040083161415156128195760806ff3392b0822b70005940c7a398e4b70f38202901c905080505b600061080083161415156128435760806fe7159475a2c29b7443b29c7fa6e889d98202901c905080505b6000611000831614151561286d5760806fd097f3bdfd2022b8845ad8f792aa58258202901c905080505b600061200083161415156128975760806fa9f746462d870fdf8a65dc1f90e061e58202901c905080505b600061400083161415156128c15760806f70d869a156d2a1b890bb3df62baf32f78202901c905080505b600061800083161415156128eb5760806f31be135f97d08fd981231505542fcfa68202901c905080505b60006201000083161415156129165760806f09aa508b5b7a84e1c677de54f3e99bc98202901c905080505b60006202000083161415156129405760806e5d6af8dedb81196699c329225ee6048202901c905080505b60006204000083161415156129695760806d2216e584f5fa1ea926041bedfe988202901c905080505b60006208000083161415156129905760806b048a170391f7dc42444e8fa28202901c905080505b60008460020b13156129cd57807fffffffffffffffffffffffffffffffffffffffffffffffffffffffffffffffff8115156129c757fe5b04905080505b6000640100000000828115156129df57fe5b06146129ec5760016129ef565b60005b60ff16602082901c019250825050505b919050565b600060008373ffffffffffffffffffffffffffffffffffffffff168573ffffffffffffffffffffffffffffffffffffffff161115612a4757838580955081965050505b8473ffffffffffffffffffffffffffffffffffffffff168673ffffffffffffffffffffffffffffffffffffffff16111515612a9657612a8d858585613e6d63ffffffff16565b91508150612b10565b8373ffffffffffffffffffffffffffffffffffffffff168673ffffffffffffffffffffffffffffffffffffffff161015612af957612adb868585613e6d63ffffffff16565b91508150612af0858785613f3563ffffffff16565b90508050612b0f565b612b0a858585613f3563ffffffff16565b905080505b5b5b94509492505050565b60006000600760005060008573ffffffffffffffffffffffffffffffffffffffff1673ffffffffffffffffffffffffffffffffffffffff1681526020019081526020016000206000506040518060c00160405290816000820160009054906101000a900467ffffffffffffffff1667ffffffffffffffff1667ffffffffffffffff1681526020016000820160089054906101000a900460060b60060b60060b815260200160008201600f9054906101000a900460020b60020b60020b81526020016000820160129054906101000a900460ff1660ff1660ff1681526020016000820160139054906101000a900460ff161515151581526020016000820160149054906101000a900460ff1615151515815260200150509050612c458160a0015161227e63ffffffff16565b612c68612c58858561395963ffffffff16565b826080015161249d63ffffffff16565b91508150600082111515612ce7576040517f08c379a00000000000000000000000000000000000000000000000000000000081526004018080602001828103825260028152602001807f504500000000000000000000000000000000000000000000000000000000000081526020015060200191505060405180910390fd5b505b92915050565b6000600060006000198587098587029250828110838203039150506000811415612d3257600084111515612d235760006000fd5b83820492508292505050612de9565b8084111515612d415760006000fd5b6000848688099050828111820391508083039250600085866000031690508086049550808404935060018182600003040190508083028417935083506000600287600302189050808702600203810290508050808702600203810290508050808702600203810290508050808702600203810290508050808702600203810290508050808702600203810290508050808502955085508595505050505050612de95650505050505b9392505050565b600060008273ffffffffffffffffffffffffffffffffffffffff16633850c7bd6040518163ffffffff1660e01b815260040160e06040518083038186803b158015612e3b5760006000fd5b505afa158015612e50573d600060003e3d6000fd5b505050506040513d60e0811015612e675760006000fd5b810190808051906020019092919080519060200190929190805190602001909291908051906020019092919080519060200190929190805190602001909291908051906020019092919050505050505050509150915060008273ffffffffffffffffffffffffffffffffffffffff16111515612f4e576040517f08c379a000000000000000000000000000000000000000000000000000000000815260040180806020018281038252600f8152602001807f4e6f7420696e697469616c697a6564000000000000000000000000000000000081526020015060200191505060405180910390fd5b6000612f5f84613fcc63ffffffff16565b905060008473ffffffffffffffffffffffffffffffffffffffff1663883bdbfd612f8d61231563ffffffff16565b6040518263ffffffff1660e01b81526004018080602001828103825283818151815260200191508051906020019060200280838360005b83811015612fe05780820151818401525b602081019050612fc4565b505050509050019250505060006040518083038186803b1580156130045760006000fd5b505afa158015613019573d600060003e3d6000fd5b505050506040513d6000823e3d601f19601f8201168201806040525060408110156130445760006000fd5b81019080805160405193929190846401000000008211156130655760006000fd5b8382019150602082018581111561307c5760006000fd5b825186602082028301116401000000008211171561309a5760006000fd5b8083526020830192505050908051906020019060200280838360005b838110156130d25780820151818401525b6020810190506130b6565b50505050905001604052602001805160405193929190846401000000008211156130fc5760006000fd5b838201915060208201858111156131135760006000fd5b82518660208202830111640100000000821117156131315760006000fd5b8083526020830192505050908051906020019060200280838360005b838110156131695780820151818401525b60208101905061314d565b505050509050016040526020015050505090506040518060c001604052806131956122fa63ffffffff16565b67ffffffffffffffff1681526020018260008151811015156131b357fe5b602002602001015160060b81526020018460020b81526020018361325a578673ffffffffffffffffffffffffffffffffffffffff16630dfe16816040518163ffffffff1660e01b815260040160206040518083038186803b1580156132185760006000fd5b505afa15801561322d573d600060003e3d6000fd5b505050506040513d60208110156132445760006000fd5b81019080805190602001909291905050506132df565b8673ffffffffffffffffffffffffffffffffffffffff1663d21220a76040518163ffffffff1660e01b815260040160206040518083038186803b1580156132a15760006000fd5b505afa1580156132b6573d600060003e3d6000fd5b505050506040513d60208110156132cd5760006000fd5b81019080805190602001909291905050505b73ffffffffffffffffffffffffffffffffffffffff1663313ce5676040518163ffffffff1660e01b815260040160206040518083038186803b1580156133255760006000fd5b505afa15801561333a573d600060003e3d6000fd5b505050506040513d60208110156133515760006000fd5b810190808051906020019092919050505060ff168152602001831515815260200160011515815260200150600760005060008773ffffffffffffffffffffffffffffffffffffffff1673ffffffffffffffffffffffffffffffffffffffff16815260200190815260200160002060005060008201518160000160006101000a81548167ffffffffffffffff021916908367ffffffffffffffff16021790555060208201518160000160086101000a81548166ffffffffffffff021916908360060b66ffffffffffffff160217905550604082015181600001600f6101000a81548162ffffff021916908360020b62ffffff16021790555060608201518160000160126101000a81548160ff021916908360ff16021790555060808201518160000160136101000a81548160ff02191690831515021790555060a08201518160000160146101000a81548160ff021916908315150217905550905050505050505b50565b60006134cf83670de0b6b3a764000084612cef63ffffffff16565b905080505b92915050565b600260066000505414151515613525576040517f08c379a000000000000000000000000000000000000000000000000000000000815260040161351c90614405565b60405180910390fd5b600260066000508190909055505b565b600160066000508190909055505b565b60006401000276a373ffffffffffffffffffffffffffffffffffffffff168273ffffffffffffffffffffffffffffffffffffffff16101580156135c7575073fffd8963efd1fc6a506488495d951d5263988d2673ffffffffffffffffffffffffffffffffffffffff168273ffffffffffffffffffffffffffffffffffffffff16105b151561363e576040517f08c379a00000000000000000000000000000000000000000000000000000000081526004018080602001828103825260018152602001807f520000000000000000000000000000000000000000000000000000000000000081526020015060200191505060405180910390fd5b600060208373ffffffffffffffffffffffffffffffffffffffff16901b905060008190506000600090506fffffffffffffffffffffffffffffffff821160071b808217915082811c92505067ffffffffffffffff821160061b808217915082811c92505063ffffffff821160051b808217915082811c92505061ffff821160041b808217915082811c92505060ff821160031b808217915082811c925050600f821160021b808217915082811c9250506003821160011b808217915082811c9250506001821180821791505060808110151561372457607f810383901c91508150613730565b80607f0383901b915081505b6000604060808303901b9050828302607f1c92508260801c80603f1b8217915083811c935050828302607f1c92508260801c80603e1b8217915083811c935050828302607f1c92508260801c80603d1b8217915083811c935050828302607f1c92508260801c80603c1b8217915083811c935050828302607f1c92508260801c80603b1b8217915083811c935050828302607f1c92508260801c80603a1b8217915083811c935050828302607f1c92508260801c8060391b8217915083811c935050828302607f1c92508260801c8060381b8217915083811c935050828302607f1c92508260801c8060371b8217915083811c935050828302607f1c92508260801c8060361b8217915083811c935050828302607f1c92508260801c8060351b8217915083811c935050828302607f1c92508260801c8060341b8217915083811c935050828302607f1c92508260801c8060331b8217915083811c935050828302607f1c92508260801c8060321b82179150506000693627a301d71055774c8582029050600060806f028f6481ab7f045a5af012a19d003aaa8303901d9050600060806fdb2df09e81959a81455e260799a0632f8401901d90508060020b8260020b14613946578873ffffffffffffffffffffffffffffffffffffffff1661391d8261256d63ffffffff16565b73ffffffffffffffffffffffffffffffffffffffff16111561393f5781613941565b805b613948565b815b97508750505050505050505b919050565b600060008263ffffffff161115156139dc576040517f08c379a00000000000000000000000000000000000000000000000000000000081526004018080602001828103825260028152602001807f544500000000000000000000000000000000000000000000000000000000000081526020015060200191505060405180910390fd5b6000600267ffffffffffffffff811180156139f75760006000fd5b50604051908082528060200260200182016040528015613a265781602001602082028036833780820191505090505b50905082816000815181101515613a3957fe5b602002602001019063ffffffff16908163ffffffff16815260200150506000816001815181101515613a6757fe5b602002602001019063ffffffff16908163ffffffff168152602001505060008473ffffffffffffffffffffffffffffffffffffffff1663883bdbfd836040518263ffffffff1660e01b81526004018080602001828103825283818151815260200191508051906020019060200280838360005b83811015613af65780820151818401525b602081019050613ada565b505050509050019250505060006040518083038186803b158015613b1a5760006000fd5b505afa158015613b2f573d600060003e3d6000fd5b505050506040513d6000823e3d601f19601f820116820180604052506040811015613b5a5760006000fd5b8101908080516040519392919084640100000000821115613b7b5760006000fd5b83820191506020820185811115613b925760006000fd5b8251866020820283011164010000000082111715613bb05760006000fd5b8083526020830192505050908051906020019060200280838360005b83811015613be85780820151818401525b602081019050613bcc565b5050505090500160405260200180516040519392919084640100000000821115613c125760006000fd5b83820191506020820185811115613c295760006000fd5b8251866020820283011164010000000082111715613c475760006000fd5b8083526020830192505050908051906020019060200280838360005b83811015613c7f5780820151818401525b602081019050613c63565b50505050905001604052602001505050509050613ccf816000815181101515613ca457fe5b6020026020010151826001815181101515613cbb57fe5b60200260200101518661242e63ffffffff16565b92505050613cda5650505b92915050565b60006801000000000000000082101515613d65576040517f08c379a00000000000000000000000000000000000000000000000000000000081526004018080602001828103825260118152602001807f6d6f7265207468616e203634206269747300000000000000000000000000000081526020015060200191505060405180910390fd5b819050613d6d565b919050565b60006000613dac6c010000000000000000000000008473ffffffffffffffffffffffffffffffffffffffff166134b490919063ffffffff16565b9050613dc181826140e590919063ffffffff16565b915050613dca56505b919050565b60006000821480613def57508282838502925082811515613dec57fe5b04145b1515613e66576040517f08c379a000000000000000000000000000000000000000000000000000000000815260040180806020018281038252600c8152602001807f6d756c2d6f766572666c6f77000000000000000000000000000000000000000081526020015060200191505060405180910390fd5b5b92915050565b60008273ffffffffffffffffffffffffffffffffffffffff168473ffffffffffffffffffffffffffffffffffffffff161115613eae57828480945081955050505b8373ffffffffffffffffffffffffffffffffffffffff16613f1d606060ff16846fffffffffffffffffffffffffffffffff16901b86860373ffffffffffffffffffffffffffffffffffffffff168673ffffffffffffffffffffffffffffffffffffffff1661410b63ffffffff16565b811515613f2657fe5b049050613f2e565b9392505050565b60008273ffffffffffffffffffffffffffffffffffffffff168473ffffffffffffffffffffffffffffffffffffffff161115613f7657828480945081955050505b613fbe826fffffffffffffffffffffffffffffffff1685850373ffffffffffffffffffffffffffffffffffffffff166c0100000000000000000000000061410b63ffffffff16565b9050613fc5565b9392505050565b60006000614002600360009054906101000a900473ffffffffffffffffffffffffffffffffffffffff168461420c63ffffffff16565b80925081935050508015156140de576140c6600060009054906101000a900473ffffffffffffffffffffffffffffffffffffffff1673ffffffffffffffffffffffffffffffffffffffff166336fc02f46040518163ffffffff1660e01b815260040160206040518083038186803b15801561407d5760006000fd5b505afa158015614092573d600060003e3d6000fd5b505050506040513d60208110156140a95760006000fd5b81019080805190602001909291905050508461420c63ffffffff16565b80925081935050506140dd8161227e63ffffffff16565b5b505b919050565b60006141008383670de0b6b3a7640000612cef63ffffffff16565b905080505b92915050565b600060006000600019858709858702925082811083820303915050600081141561414e5760008411151561413f5760006000fd5b83820492508292505050614205565b808411151561415d5760006000fd5b60008486880990508281118203915080830392506000858660000316905080860495508084049350600181826000030401905080830284179350835060006002876003021890508087026002038102905080508087026002038102905080508087026002038102905080508087026002038102905080508087026002038102905080508087026002038102905080508085029550855085955050505050506142055650505050505b9392505050565b600060008373ffffffffffffffffffffffffffffffffffffffff168373ffffffffffffffffffffffffffffffffffffffff16630dfe16816040518163ffffffff1660e01b815260040160206040518083038186803b15801561426e5760006000fd5b505afa158015614283573d600060003e3d6000fd5b505050506040513d602081101561429a5760006000fd5b810190808051906020019092919050505073ffffffffffffffffffffffffffffffffffffffff161491508150818061438057508373ffffffffffffffffffffffffffffffffffffffff168373ffffffffffffffffffffffffffffffffffffffff1663d21220a76040518163ffffffff1660e01b815260040160206040518083038186803b15801561432b5760006000fd5b505afa158015614340573d600060003e3d6000fd5b505050506040513d60208110156143575760006000fd5b810190808051906020019092919050505073ffffffffffffffffffffffffffffffffffffffff16145b905080505b9250929050566144ac565b6000602082840312156143a1578081fd5b81516143ac81614483565b809150505b92915050565b6000602082840312156143c8578081fd5b81516143d381614483565b809150505b92915050565b6000602082840312156143ef578081fd5b81516143fa81614483565b809150505b92915050565b600060208252600d60208301527f4c43205265656e7472616e63790000000000000000000000000000000000000060408301526060820190505b919050565b600060208252600e60208301527f4e6f7420417574686f72697a656400000000000000000000000000000000000060408301526060820190505b919050565b73ffffffffffffffffffffffffffffffffffffffff8116811415156144a85760006000fd5b5b50565bfea26469706673582212205cc6c582b061df150609a110318c97de9c5e272ce2f9fdb2e805181bde99fe7664736f6c63430007060033",
  "linkReferences": {},
  "deployedLinkReferences": {}
}