{
  "_format": "hh-sol-artifact-1",
  "contractName": "Liquidations",
  "sourceName": "contracts/core/logic/Liquidations.sol",
  "abi": [
    {
      "anonymous": false,
      "inputs": [
        {
          "indexed": false,
          "internalType": "uint256",
          "name": "price",
          "type": "uint256"
        },
        {
          "indexed": false,
          "internalType": "uint256",
          "name": "amountCovered",
          "type": "uint256"
        }
      ],
      "name": "CoveredUnbackedDebt",
      "type": "event"
    },
    {
      "anonymous": false,
      "inputs": [
        {
          "indexed": true,
          "internalType": "address",
          "name": "governor",
          "type": "address"
        }
      ],
      "name": "Initialized",
      "type": "event"
    },
    {
      "anonymous": false,
      "inputs": [
        {
          "indexed": false,
          "internalType": "uint256",
          "name": "baseTokensToRepay",
          "type": "uint256"
        },
        {
          "indexed": false,
          "internalType": "uint256",
          "name": "collateralToReceive",
          "type": "uint256"
        }
      ],
      "name": "Liquidated",
      "type": "event"
    },
    {
      "anonymous": false,
      "inputs": [
        {
          "indexed": true,
          "internalType": "string",
          "name": "paramName",
          "type": "string"
        },
        {
          "indexed": false,
          "internalType": "uint256",
          "name": "value",
          "type": "uint256"
        }
      ],
      "name": "ParameterUpdated",
      "type": "event"
    },
    {
      "anonymous": false,
      "inputs": [
        {
          "indexed": true,
          "internalType": "string",
          "name": "paramName",
          "type": "string"
        },
        {
          "indexed": false,
          "internalType": "uint32",
          "name": "value",
          "type": "uint32"
        }
      ],
      "name": "ParameterUpdated32",
      "type": "event"
    },
    {
      "anonymous": false,
      "inputs": [],
      "name": "Stopped",
      "type": "event"
    },
    {
      "anonymous": false,
      "inputs": [
        {
          "indexed": true,
          "internalType": "uint64",
          "name": "positionID",
          "type": "uint64"
        },
        {
          "indexed": false,
          "internalType": "uint256",
          "name": "debtCount",
          "type": "uint256"
        },
        {
          "indexed": false,
          "internalType": "uint256",
          "name": "collateralCount",
          "type": "uint256"
        },
        {
          "indexed": false,
          "internalType": "uint256",
          "name": "price",
          "type": "uint256"
        }
      ],
      "name": "UndercollatPositionDiscovered",
      "type": "event"
    },
    {
      "inputs": [],
      "name": "collateralPool",
      "outputs": [
        {
          "internalType": "contract IUniswapV3Pool",
          "name": "",
          "type": "address"
        }
      ],
      "stateMutability": "view",
      "type": "function"
    },
    {
      "inputs": [],
      "name": "completeSetup",
      "outputs": [],
      "stateMutability": "nonpayable",
      "type": "function"
    },
    {
      "inputs": [],
      "name": "currentPeriod",
      "outputs": [
        {
          "internalType": "uint64",
          "name": "period",
          "type": "uint64"
        }
      ],
      "stateMutability": "view",
      "type": "function"
    },
    {
      "inputs": [],
      "name": "deployer",
      "outputs": [
        {
          "internalType": "address",
          "name": "",
          "type": "address"
        }
      ],
      "stateMutability": "view",
      "type": "function"
    },
    {
      "inputs": [
        {
          "internalType": "uint64[]",
          "name": "positionIDs",
          "type": "uint64[]"
        }
      ],
      "name": "discoverUndercollateralizedPositions",
      "outputs": [],
      "stateMutability": "nonpayable",
      "type": "function"
    },
    {
      "inputs": [],
      "name": "discoveryIncentive",
      "outputs": [
        {
          "internalType": "uint256",
          "name": "",
          "type": "uint256"
        }
      ],
      "stateMutability": "view",
      "type": "function"
    },
    {
      "inputs": [],
      "name": "ensureLiquidationIncentive",
      "outputs": [],
      "stateMutability": "nonpayable",
      "type": "function"
    },
    {
      "inputs": [],
      "name": "firstPeriod",
      "outputs": [
        {
          "internalType": "uint64",
          "name": "",
          "type": "uint64"
        }
      ],
      "stateMutability": "view",
      "type": "function"
    },
    {
      "inputs": [],
      "name": "governor",
      "outputs": [
        {
          "internalType": "contract IGovernor",
          "name": "",
          "type": "address"
        }
      ],
      "stateMutability": "view",
      "type": "function"
    },
    {
      "inputs": [
        {
          "internalType": "contract IGovernor",
          "name": "_governor",
          "type": "address"
        }
      ],
      "name": "init",
      "outputs": [],
      "stateMutability": "nonpayable",
      "type": "function"
    },
    {
      "inputs": [
        {
          "internalType": "uint256",
          "name": "baseTokensToRepay",
          "type": "uint256"
        }
      ],
      "name": "liquidate",
      "outputs": [],
      "stateMutability": "nonpayable",
      "type": "function"
    },
    {
      "inputs": [],
      "name": "liquidationIncentive",
      "outputs": [
        {
          "internalType": "uint256",
          "name": "",
          "type": "uint256"
        }
      ],
      "stateMutability": "view",
      "type": "function"
    },
    {
      "inputs": [],
      "name": "maxRewardsRatio",
      "outputs": [
        {
          "internalType": "uint256",
          "name": "",
          "type": "uint256"
        }
      ],
      "stateMutability": "view",
      "type": "function"
    },
    {
      "inputs": [],
      "name": "minLiquidationIncentive",
      "outputs": [
        {
          "internalType": "uint256",
          "name": "",
          "type": "uint256"
        }
      ],
      "stateMutability": "view",
      "type": "function"
    },
    {
      "inputs": [],
      "name": "periodLength",
      "outputs": [
        {
          "internalType": "uint64",
          "name": "",
          "type": "uint64"
        }
      ],
      "stateMutability": "view",
      "type": "function"
    },
    {
      "inputs": [],
      "name": "rewardsLimit",
      "outputs": [
        {
          "internalType": "uint192",
          "name": "remaining",
          "type": "uint192"
        },
        {
          "internalType": "uint64",
          "name": "period",
          "type": "uint64"
        }
      ],
      "stateMutability": "view",
      "type": "function"
    },
    {
      "inputs": [
        {
          "internalType": "uint256",
          "name": "incentive",
          "type": "uint256"
        }
      ],
      "name": "setDiscoveryIncentive",
      "outputs": [],
      "stateMutability": "nonpayable",
      "type": "function"
    },
    {
      "inputs": [
        {
          "internalType": "uint256",
          "name": "incentive",
          "type": "uint256"
        }
      ],
      "name": "setLiquidationIncentive",
      "outputs": [],
      "stateMutability": "nonpayable",
      "type": "function"
    },
    {
      "inputs": [
        {
          "internalType": "uint256",
          "name": "ratio",
          "type": "uint256"
        }
      ],
      "name": "setMaxRewardsRatio",
      "outputs": [],
      "stateMutability": "nonpayable",
      "type": "function"
    },
    {
      "inputs": [
        {
          "internalType": "uint256",
          "name": "incentive",
          "type": "uint256"
        }
      ],
      "name": "setMinLiquidationIncentive",
      "outputs": [],
      "stateMutability": "nonpayable",
      "type": "function"
    },
    {
      "inputs": [
        {
          "internalType": "uint32",
          "name": "duration",
          "type": "uint32"
        }
      ],
      "name": "setTwapDuration",
      "outputs": [],
      "stateMutability": "nonpayable",
      "type": "function"
    },
    {
      "inputs": [],
      "name": "stop",
      "outputs": [],
      "stateMutability": "nonpayable",
      "type": "function"
    },
    {
      "inputs": [],
      "name": "stopped",
      "outputs": [
        {
          "internalType": "bool",
          "name": "",
          "type": "bool"
        }
      ],
      "stateMutability": "view",
      "type": "function"
    },
    {
      "inputs": [],
      "name": "twapDuration",
      "outputs": [
        {
          "internalType": "uint32",
          "name": "",
          "type": "uint32"
        }
      ],
      "stateMutability": "view",
      "type": "function"
    },
    {
      "inputs": [
        {
          "internalType": "bytes4",
          "name": "",
          "type": "bytes4"
        }
      ],
      "name": "validUpdate",
      "outputs": [
        {
          "internalType": "bool",
          "name": "",
          "type": "bool"
        }
      ],
      "stateMutability": "view",
      "type": "function"
    }
  ],
  "bytecode": "0x60c060405260016006600050909055666a94d74f430000600760005090905566f8b0a10e4700006008600050909055670e16011f4f0580006009600050909055670e4b4b8af6a70000600a600050909055610e10600b60006101000a81548163ffffffff021916908363ffffffff160217905550348015620000815760006000fd5b50610e105b5b33600160006101000a81548173ffffffffffffffffffffffffffffffffffffffff021916908373ffffffffffffffffffffffffffffffffffffffff1602179055505b60018167ffffffffffffffff16620000e66200014760201b60201c565b67ffffffffffffffff16811515620000fa57fe5b040367ffffffffffffffff1660a08167ffffffffffffffff1660c01b815260080150508067ffffffffffffffff1660808167ffffffffffffffff1660c01b815260080150505b50620001fd565b600062000161426200016960201b620021b617909060201c565b905080505b90565b60006801000000000000000082101515620001ef576040517f08c379a00000000000000000000000000000000000000000000000000000000081526004018080602001828103825260118152602001807f6d6f7265207468616e203634206269747300000000000000000000000000000081526020015060200191505060405180910390fd5b819050620001f8565b919050565b60805160c01c60a05160c01c613d5c62000231600039806120a3528061224c525080612148528061226d5250613d5c6000f3fe60806040523480156100115760006000fd5b50600436106101a75760003560e01c80638aea8f71116100ef578063b6e6096d11610098578063cd8e040e11610072578063cd8e040e146103ec578063d2ca211514610408578063d5f3948814610426578063ff0eccf614610444576101a7565b8063b6e6096d14610393578063c433c80a146103b2578063c4e3a63b146103ce576101a7565b80639672ff28116100c95780639672ff281461033d578063a5edd6ba1461035b578063a843108114610377576101a7565b80638aea8f71146102f75780638b421eba146103015780638c765e941461031f576101a7565b806319ab453c116101515780633ebe07771161012b5780633ebe0777146102a1578063415f1240146102bd57806375f12b21146102d9576101a7565b806319ab453c1461024b5780631f9672a51461026757806326d8954514610283576101a7565b80630c340a24116101825780630c340a24146101f3578063113cf1ab146102115780631273c2ea14610241576101a7565b80627de447146101ad57806306040618146101cb57806307da68f5146101e9576101a7565b60006000fd5b6101b5610462565b6040516101c29190613c0a565b60405180910390f35b6101d361046b565b6040516101e09190613c6d565b60405180910390f35b6101f1610483565b005b6101fb6104a3565b604051610208919061384c565b60405180910390f35b61022b60048036038101906102269190613367565b6104c9565b6040516102389190613838565b60405180910390f35b6102496104ee565b005b610265600480360381019061026091906133db565b610ba8565b005b610281600480360381019061027c9190613573565b610f66565b005b61028b610fe7565b6040516102989190613c55565b60405180910390f35b6102bb60048036038101906102b6919061328b565b610ffd565b005b6102d760048036038101906102d29190613573565b61181e565b005b6102e1611d8b565b6040516102ee9190613838565b60405180910390f35b6102ff611d9e565b005b610309611e92565b6040516103169190613c0a565b60405180910390f35b610327611e9b565b6040516103349190613c0a565b60405180910390f35b610345611ea4565b6040516103529190613c0a565b60405180910390f35b61037560048036038101906103709190613573565b611ead565b005b610391600480360381019061038c9190613573565b611f3f565b005b61039b611fbd565b6040516103a9929190613bcd565b60405180910390f35b6103cc60048036038101906103c791906135d1565b61200a565b005b6103d66120a1565b6040516103e39190613c6d565b60405180910390f35b61040660048036038101906104019190613573565b6120c5565b005b610410612146565b60405161041d9190613c6d565b60405180910390f35b61042e61216a565b60405161043b91906137b2565b60405180910390f35b61044c612190565b6040516104599190613874565b60405180910390f35b60096000505481565b600061047b61224863ffffffff16565b905080505b90565b6104916122c163ffffffff16565b61049f61235663ffffffff16565b5b5b565b600060009054906101000a900473ffffffffffffffffffffffffffffffffffffffff1681565b600560005060205280600052604060002060009150909054906101000a900460ff1681565b6104fc6123a063ffffffff16565b61050a61247f63ffffffff16565b6000600060009054906101000a900473ffffffffffffffffffffffffffffffffffffffff1673ffffffffffffffffffffffffffffffffffffffff1663d3419bf36040518163ffffffff1660e01b815260040160206040518083038186803b1580156105755760006000fd5b505afa15801561058a573d600060003e3d6000fd5b505050506040513d601f19601f820116820180604052508101906105ae9190613429565b73ffffffffffffffffffffffffffffffffffffffff1663d97e6400600b60049054906101000a900473ffffffffffffffffffffffffffffffffffffffff16600b60009054906101000a900463ffffffff166040518363ffffffff1660e01b815260040161061c92919061389c565b60206040518083038186803b1580156106355760006000fd5b505afa15801561064a573d600060003e3d6000fd5b505050506040513d601f19601f8201168201806040525081019061066e919061358f565b90506000600060009054906101000a900473ffffffffffffffffffffffffffffffffffffffff1673ffffffffffffffffffffffffffffffffffffffff166380f556056040518163ffffffff1660e01b815260040160206040518083038186803b1580156106db5760006000fd5b505afa1580156106f0573d600060003e3d6000fd5b505050506040513d601f19601f820116820180604052508101906107149190613402565b73ffffffffffffffffffffffffffffffffffffffff1663eb6843ce60006040518263ffffffff1660e01b815260040161074d91906138d1565b61014060405180830381600087803b1580156107695760006000fd5b505af115801561077e573d600060003e3d6000fd5b505050506040513d601f19601f820116820180604052508101906107a291906134c5565b9050600081604001511115156107ed576040517f08c379a00000000000000000000000000000000000000000000000000000000081526004016107e490613918565b60405180910390fd5b6000600360009054906101000a900473ffffffffffffffffffffffffffffffffffffffff1673ffffffffffffffffffffffffffffffffffffffff166375172a8b6040518163ffffffff1660e01b815260040160206040518083038186803b1580156108585760006000fd5b505afa15801561086d573d600060003e3d6000fd5b505050506040513d601f19601f82011682018060405250810190610891919061358f565b90506000811115156108d8576040517f08c379a00000000000000000000000000000000000000000000000000000000081526004016108cf90613b8e565b60405180910390fd5b60006000836020015114156108f55782604001519050805061096c565b60006109158560096000505486602001516124d49092919063ffffffff16565b905080846040015111151561095f576040517f08c379a0000000000000000000000000000000000000000000000000000000008152600401610956906139d5565b60405180910390fd5b8084604001510391508150505b61097f82826125d590919063ffffffff16565b9050805061099a8184604001516125f390919063ffffffff16565b8360400190908181526020015050600260009054906101000a900473ffffffffffffffffffffffffffffffffffffffff1673ffffffffffffffffffffffffffffffffffffffff1663f94fffb16000856040518363ffffffff1660e01b8152600401610a069291906138ed565b600060405180830381600087803b158015610a215760006000fd5b505af1158015610a36573d600060003e3d6000fd5b50505050600260009054906101000a900473ffffffffffffffffffffffffffffffffffffffff1673ffffffffffffffffffffffffffffffffffffffff16632a7ba1f7826040518263ffffffff1660e01b8152600401610a959190613c0a565b600060405180830381600087803b158015610ab05760006000fd5b505af1158015610ac5573d600060003e3d6000fd5b50505050600360009054906101000a900473ffffffffffffffffffffffffffffffffffffffff1673ffffffffffffffffffffffffffffffffffffffff1663c59fb1ab826040518263ffffffff1660e01b8152600401610b249190613c0a565b600060405180830381600087803b158015610b3f5760006000fd5b505af1158015610b54573d600060003e3d6000fd5b505050507fb397b210edc0d78ebf7fbbac5ccc5e284eb5ec9bbc6cbae2a2bdda56439072828482604051610b89929190613c1c565b60405180910390a1505050505b5b610ba561267c63ffffffff16565b5b565b600160009054906101000a900473ffffffffffffffffffffffffffffffffffffffff1673ffffffffffffffffffffffffffffffffffffffff163373ffffffffffffffffffffffffffffffffffffffff16141515610c055760006000fd5b600160006101000a81549073ffffffffffffffffffffffffffffffffffffffff021916905580600060006101000a81548173ffffffffffffffffffffffffffffffffffffffff021916908373ffffffffffffffffffffffffffffffffffffffff160217905550600060009054906101000a900473ffffffffffffffffffffffffffffffffffffffff1673ffffffffffffffffffffffffffffffffffffffff16639624e83e6040518163ffffffff1660e01b815260040160206040518083038186803b158015610cd45760006000fd5b505afa158015610ce9573d600060003e3d6000fd5b505050506040513d601f19601f82011682018060405250810190610d0d91906133b4565b600260006101000a81548173ffffffffffffffffffffffffffffffffffffffff021916908373ffffffffffffffffffffffffffffffffffffffff160217905550600060009054906101000a900473ffffffffffffffffffffffffffffffffffffffff1673ffffffffffffffffffffffffffffffffffffffff16638a15fcf36040518163ffffffff1660e01b815260040160206040518083038186803b158015610db65760006000fd5b505afa158015610dcb573d600060003e3d6000fd5b505050506040513d601f19601f82011682018060405250810190610def919061349e565b600360006101000a81548173ffffffffffffffffffffffffffffffffffffffff021916908373ffffffffffffffffffffffffffffffffffffffff160217905550600060009054906101000a900473ffffffffffffffffffffffffffffffffffffffff1673ffffffffffffffffffffffffffffffffffffffff1663d478b0876040518163ffffffff1660e01b815260040160206040518083038186803b158015610e985760006000fd5b505afa158015610ead573d600060003e3d6000fd5b505050506040513d601f19601f82011682018060405250810190610ed19190613450565b600460006101000a81548173ffffffffffffffffffffffffffffffffffffffff021916908373ffffffffffffffffffffffffffffffffffffffff160217905550610f1f61271063ffffffff16565b8073ffffffffffffffffffffffffffffffffffffffff167f908408e307fc569b417f6cbec5d5a06f44a0a505ac0479b47d421a4b2fd6a1e660405160405180910390a25b50565b610f746122c163ffffffff16565b670de0b6b3a764000081101515610f8b5760006000fd5b806007600050819090905550604051610fa39061371f565b60405180910390207f3a64504f0bc0c335e2aecb78638a257e0351a3fe0370861fd54ee4190b92093382604051610fda9190613c0a565b60405180910390a25b5b50565b600b60009054906101000a900463ffffffff1681565b61100b6123a063ffffffff16565b61101961293b63ffffffff16565b6000600060009054906101000a900473ffffffffffffffffffffffffffffffffffffffff1673ffffffffffffffffffffffffffffffffffffffff1663d3419bf36040518163ffffffff1660e01b815260040160206040518083038186803b1580156110845760006000fd5b505afa158015611099573d600060003e3d6000fd5b505050506040513d601f19601f820116820180604052508101906110bd9190613429565b73ffffffffffffffffffffffffffffffffffffffff1663d97e6400600b60049054906101000a900473ffffffffffffffffffffffffffffffffffffffff16600b60009054906101000a900463ffffffff166040518363ffffffff1660e01b815260040161112b92919061389c565b60206040518083038186803b1580156111445760006000fd5b505afa158015611159573d600060003e3d6000fd5b505050506040513d601f19601f8201168201806040525081019061117d919061358f565b90506000600c6000506040518060400160405290816000820160009054906101000a900477ffffffffffffffffffffffffffffffffffffffffffffffff1677ffffffffffffffffffffffffffffffffffffffffffffffff1677ffffffffffffffffffffffffffffffffffffffffffffffff1681526020016000820160189054906101000a900467ffffffffffffffff1667ffffffffffffffff1667ffffffffffffffff16815260200150509050600061123a61224863ffffffff16565b90508067ffffffffffffffff16826020015167ffffffffffffffff161015611365576040518060400160405280611330611323600760005054600260009054906101000a900473ffffffffffffffffffffffffffffffffffffffff1673ffffffffffffffffffffffffffffffffffffffff16630dca59c16040518163ffffffff1660e01b815260040160206040518083038186803b1580156112dc5760006000fd5b505afa1580156112f1573d600060003e3d6000fd5b505050506040513d601f19601f82011682018060405250810190611315919061358f565b612a3090919063ffffffff16565b612a56909063ffffffff16565b77ffffffffffffffffffffffffffffffffffffffffffffffff1681526020018267ffffffffffffffff16815260200150915081505b6000826000015177ffffffffffffffffffffffffffffffffffffffffffffffff161115156113c8576040517f08c379a00000000000000000000000000000000000000000000000000000000081526004016113bf90613b10565b60405180910390fd5b6000600060009054906101000a900473ffffffffffffffffffffffffffffffffffffffff1673ffffffffffffffffffffffffffffffffffffffff166380f556056040518163ffffffff1660e01b815260040160206040518083038186803b1580156114335760006000fd5b505afa158015611448573d600060003e3d6000fd5b505050506040513d601f19601f8201168201806040525081019061146c9190613402565b905060006115ec6040518060a001604052808473ffffffffffffffffffffffffffffffffffffffff1663eb6843ce60006040518263ffffffff1660e01b81526004016114b891906138d1565b61014060405180830381600087803b1580156114d45760006000fd5b505af11580156114e9573d600060003e3d6000fd5b505050506040513d601f19601f8201168201806040525081019061150d91906134c5565b815260200160008152602001866000015177ffffffffffffffffffffffffffffffffffffffffffffffff1681526020018473ffffffffffffffffffffffffffffffffffffffff16635658c0126040518163ffffffff1660e01b815260040160206040518083038186803b1580156115845760006000fd5b505afa158015611599573d600060003e3d6000fd5b505050506040513d601f19601f820116820180604052508101906115bd919061358f565b81526020018473ffffffffffffffffffffffffffffffffffffffff168152602001508787612af863ffffffff16565b90506116038160400151612a56909063ffffffff16565b846000019077ffffffffffffffffffffffffffffffffffffffffffffffff16908177ffffffffffffffffffffffffffffffffffffffffffffffff168152602001505083600c60005060008201518160000160006101000a81548177ffffffffffffffffffffffffffffffffffffffffffffffff021916908377ffffffffffffffffffffffffffffffffffffffffffffffff16021790555060208201518160000160186101000a81548167ffffffffffffffff021916908367ffffffffffffffff160217905550905050600260009054906101000a900473ffffffffffffffffffffffffffffffffffffffff1673ffffffffffffffffffffffffffffffffffffffff1663f94fffb1600083600001516040518363ffffffff1660e01b815260040161172e9291906138ed565b600060405180830381600087803b1580156117495760006000fd5b505af115801561175e573d600060003e3d6000fd5b5050505060008160200151111561180557600260009054906101000a900473ffffffffffffffffffffffffffffffffffffffff1673ffffffffffffffffffffffffffffffffffffffff1663625021693383602001516040518363ffffffff1660e01b81526004016117d09291906137da565b600060405180830381600087803b1580156117eb5760006000fd5b505af1158015611800573d600060003e3d6000fd5b505050505b50505050505b5b61181a61267c63ffffffff16565b5b50565b61182c6123a063ffffffff16565b61183a61247f63ffffffff16565b60008111151561187f576040517f08c379a000000000000000000000000000000000000000000000000000000000815260040161187690613a53565b60405180910390fd5b6000600060009054906101000a900473ffffffffffffffffffffffffffffffffffffffff1673ffffffffffffffffffffffffffffffffffffffff166380f556056040518163ffffffff1660e01b815260040160206040518083038186803b1580156118ea5760006000fd5b505afa1580156118ff573d600060003e3d6000fd5b505050506040513d601f19601f820116820180604052508101906119239190613402565b73ffffffffffffffffffffffffffffffffffffffff1663eb6843ce60006040518263ffffffff1660e01b815260040161195c91906138d1565b61014060405180830381600087803b1580156119785760006000fd5b505af115801561198d573d600060003e3d6000fd5b505050506040513d601f19601f820116820180604052508101906119b191906134c5565b9050600081604001511115156119fc576040517f08c379a00000000000000000000000000000000000000000000000000000000081526004016119f390613918565b60405180910390fd5b60008160200151111515611a45576040517f08c379a0000000000000000000000000000000000000000000000000000000008152600401611a3c90613ad1565b60405180910390fd5b80604001518211151515611a8e576040517f08c379a0000000000000000000000000000000000000000000000000000000008152600401611a8590613996565b60405180910390fd5b6000611aad82602001518360400151856124d49092919063ffffffff16565b9050611ac68183602001516125f390919063ffffffff16565b8260200190908181526020015050611aeb8383604001516125f390919063ffffffff16565b8260400190908181526020015050600260009054906101000a900473ffffffffffffffffffffffffffffffffffffffff1673ffffffffffffffffffffffffffffffffffffffff1663f94fffb16000846040518363ffffffff1660e01b8152600401611b579291906138ed565b600060405180830381600087803b158015611b725760006000fd5b505af1158015611b87573d600060003e3d6000fd5b50505050600260009054906101000a900473ffffffffffffffffffffffffffffffffffffffff1673ffffffffffffffffffffffffffffffffffffffff16632a7ba1f7846040518263ffffffff1660e01b8152600401611be69190613c0a565b600060405180830381600087803b158015611c015760006000fd5b505af1158015611c16573d600060003e3d6000fd5b50505050600360009054906101000a900473ffffffffffffffffffffffffffffffffffffffff1673ffffffffffffffffffffffffffffffffffffffff166379cc679033856040518363ffffffff1660e01b8152600401611c77929190613809565b600060405180830381600087803b158015611c925760006000fd5b505af1158015611ca7573d600060003e3d6000fd5b50505050600260009054906101000a900473ffffffffffffffffffffffffffffffffffffffff1673ffffffffffffffffffffffffffffffffffffffff16636250216933836040518363ffffffff1660e01b8152600401611d089291906137da565b600060405180830381600087803b158015611d235760006000fd5b505af1158015611d38573d600060003e3d6000fd5b505050507fa7c1efbe8c264edbfd86d7edf1a6b82896995680f966de445fc3b6e0531bf41a8382604051611d6d929190613c1c565b60405180910390a150505b5b611d8761267c63ffffffff16565b5b50565b600060149054906101000a900460ff1681565b611dac6122c163ffffffff16565b600060009054906101000a900473ffffffffffffffffffffffffffffffffffffffff1673ffffffffffffffffffffffffffffffffffffffff1663ff0eccf66040518163ffffffff1660e01b815260040160206040518083038186803b158015611e155760006000fd5b505afa158015611e2a573d600060003e3d6000fd5b505050506040513d601f19601f82011682018060405250810190611e4e9190613477565b600b60046101000a81548173ffffffffffffffffffffffffffffffffffffffff021916908373ffffffffffffffffffffffffffffffffffffffff1602179055505b5b565b60076000505481565b600a6000505481565b60086000505481565b611ebb6122c163ffffffff16565b80670de0b6b3a764000011158015611ed75750600a6000505481105b1515611ee35760006000fd5b806009600050819090905550604051611efb90613781565b60405180910390207f3a64504f0bc0c335e2aecb78638a257e0351a3fe0370861fd54ee4190b92093382604051611f329190613c0a565b60405180910390a25b5b50565b611f4d6122c163ffffffff16565b80600960005054101515611f615760006000fd5b80600a600050819090905550604051611f79906136bd565b60405180910390207f3a64504f0bc0c335e2aecb78638a257e0351a3fe0370861fd54ee4190b92093382604051611fb09190613c0a565b60405180910390a25b5b50565b600c6000508060000160009054906101000a900477ffffffffffffffffffffffffffffffffffffffffffffffff16908060000160189054906101000a900467ffffffffffffffff16905082565b6120186122c163ffffffff16565b61012c8163ffffffff16101515156120305760006000fd5b80600b60006101000a81548163ffffffff021916908363ffffffff16021790555060405161205d906136ee565b60405180910390207fc787eb553350ab5d1c83ec501dcba73afe07d820c3acbbdb2aaeca7253ac7954826040516120949190613c55565b60405180910390a25b5b50565b7f000000000000000000000000000000000000000000000000000000000000000081565b6120d36122c163ffffffff16565b670de0b6b3a7640000811015156120ea5760006000fd5b80600860005081909090555060405161210290613750565b60405180910390207f3a64504f0bc0c335e2aecb78638a257e0351a3fe0370861fd54ee4190b920933826040516121399190613c0a565b60405180910390a25b5b50565b7f000000000000000000000000000000000000000000000000000000000000000081565b600160009054906101000a900473ffffffffffffffffffffffffffffffffffffffff1681565b600b60049054906101000a900473ffffffffffffffffffffffffffffffffffffffff1681565b6000680100000000000000008210151561223b576040517f08c379a00000000000000000000000000000000000000000000000000000000081526004018080602001828103825260118152602001807f6d6f7265207468616e203634206269747300000000000000000000000000000081526020015060200191505060405180910390fd5b819050612243565b919050565b60007f00000000000000000000000000000000000000000000000000000000000000007f000000000000000000000000000000000000000000000000000000000000000067ffffffffffffffff166122a4612f0763ffffffff16565b67ffffffffffffffff168115156122b757fe5b0403905080505b90565b600060009054906101000a900473ffffffffffffffffffffffffffffffffffffffff1673ffffffffffffffffffffffffffffffffffffffff163373ffffffffffffffffffffffffffffffffffffffff16141515612353576040517f08c379a000000000000000000000000000000000000000000000000000000000815260040161234a90613a14565b60405180910390fd5b5b565b6001600060146101000a81548160ff0219169083151502179055507f7acc84e34091ae817647a4c49116f5cc07f319078ba80f8f5fde37ea7e25cbd660405160405180910390a15b565b600460009054906101000a900473ffffffffffffffffffffffffffffffffffffffff1673ffffffffffffffffffffffffffffffffffffffff1663e97dcb626040518163ffffffff1660e01b8152600401600060405180830381600087803b15801561240b5760006000fd5b505af1158015612420573d600060003e3d6000fd5b5050505060026006600050541415151561246f576040517f08c379a000000000000000000000000000000000000000000000000000000000815260040161246690613a92565b60405180910390fd5b600260066000508190909055505b565b600060149054906101000a900460ff161515156124d1576040517f08c379a00000000000000000000000000000000000000000000000000000000081526004016124c890613b4f565b60405180910390fd5b5b565b6000600060006000198587098587029250828110838203039150506000811415612517576000841115156125085760006000fd5b838204925082925050506125ce565b80841115156125265760006000fd5b60008486880990508281118203915080830392506000858660000316905080860495508084049350600181826000030401905080830284179350835060006002876003021890508087026002038102905080508087026002038102905080508087026002038102905080508087026002038102905080508087026002038102905080508087026002038102905080508085029550855085955050505050506125ce5650505050505b9392505050565b60008183106125e457816125e6565b825b90506125ed565b92915050565b60008282840391508111151515612675576040517f08c379a000000000000000000000000000000000000000000000000000000000815260040180806020018281038252600d8152602001807f7375622d756e646572666c6f770000000000000000000000000000000000000081526020015060200191505060405180910390fd5b5b92915050565b60016006600050819090905550600460009054906101000a900473ffffffffffffffffffffffffffffffffffffffff1673ffffffffffffffffffffffffffffffffffffffff1663e9fad8ee6040518163ffffffff1660e01b8152600401600060405180830381600087803b1580156126f45760006000fd5b505af1158015612709573d600060003e3d6000fd5b505050505b565b60006040518060a00160405280631f9672a560e01b7bffffffffffffffffffffffffffffffffffffffffffffffffffffffff19167bffffffffffffffffffffffffffffffffffffffffffffffffffffffff1916815260200163cd8e040e60e01b7bffffffffffffffffffffffffffffffffffffffffffffffffffffffff19167bffffffffffffffffffffffffffffffffffffffffffffffffffffffff1916815260200163a5edd6ba60e01b7bffffffffffffffffffffffffffffffffffffffffffffffffffffffff19167bffffffffffffffffffffffffffffffffffffffffffffffffffffffff1916815260200163a843108160e01b7bffffffffffffffffffffffffffffffffffffffffffffffffffffffff19167bffffffffffffffffffffffffffffffffffffffffffffffffffffffff1916815260200163c433c80a60e01b7bffffffffffffffffffffffffffffffffffffffffffffffffffffffff19167bffffffffffffffffffffffffffffffffffffffffffffffffffffffff191681526020015090506000600090505b815060058110156129365760016005600050600084846005811015156128c057fe5b60200201517bffffffffffffffffffffffffffffffffffffffffffffffffffffffff19167bffffffffffffffffffffffffffffffffffffffffffffffffffffffff1916815260200190815260200160002060006101000a81548160ff0219169083151502179055505b808060010191505061289e565b50505b565b61294961247f63ffffffff16565b600060009054906101000a900473ffffffffffffffffffffffffffffffffffffffff1673ffffffffffffffffffffffffffffffffffffffff1663bf86d6906040518163ffffffff1660e01b815260040160206040518083038186803b1580156129b25760006000fd5b505afa1580156129c7573d600060003e3d6000fd5b505050506040513d601f19601f820116820180604052508101906129eb9190613344565b151515612a2d576040517f08c379a0000000000000000000000000000000000000000000000000000000008152600401612a2490613957565b60405180910390fd5b5b565b6000612a4b8383670de0b6b3a76400006124d463ffffffff16565b905080505b92915050565b6000780100000000000000000000000000000000000000000000000082101515612aeb576040517f08c379a00000000000000000000000000000000000000000000000000000000081526004018080602001828103825260128152602001807f6d6f7265207468616e203139322062697473000000000000000000000000000081526020015060200191505060405180910390fd5b819050612af3565b919050565b612b00613170565b6000835190506000600060006000612b166131be565b60006000600090505b87811015612ee95760008c604001511415612b3957612ee9565b8a81815181101515612b4757fe5b60200260200101519150815060008267ffffffffffffffff161415612b6b57612edc565b600260009054906101000a900473ffffffffffffffffffffffffffffffffffffffff1673ffffffffffffffffffffffffffffffffffffffff16636594da9f836040518263ffffffff1660e01b8152600401612bc69190613c6d565b60406040518083038186803b158015612bdf5760006000fd5b505afa158015612bf4573d600060003e3d6000fd5b505050506040513d601f19601f82011682018060405250810190612c1891906135ab565b80975081985050506000871415612c2e57612edc565b612c45878d60600151612f2290919063ffffffff16565b612c58878c612f2290919063ffffffff16565b101515612c6457612edc565b8b6080015173ffffffffffffffffffffffffffffffffffffffff1663eb6843ce836040518263ffffffff1660e01b8152600401612ca19190613c6d565b61014060405180830381600087803b158015612cbd5760006000fd5b505af1158015612cd2573d600060003e3d6000fd5b505050506040513d601f19601f82011682018060405250810190612cf691906134c5565b92508250612d24836040015184602001518c8f60400151600a60005054600860005054612fc063ffffffff16565b8e604001819090815260200150819650829750505050612d5983604001518d60000151604001516130c190919063ffffffff16565b8c600001516040019090818152602001505060008360400190908181526020015050612d96848d60000151602001516130c190919063ffffffff16565b8c6000015160200190908181526020015050612dd1612dbe86866130c190919063ffffffff16565b84602001516125f390919063ffffffff16565b8360200190908181526020015050612df6858d602001516130c190919063ffffffff16565b8c60200190908181526020015050600260009054906101000a900473ffffffffffffffffffffffffffffffffffffffff1673ffffffffffffffffffffffffffffffffffffffff1663f94fffb183856040518363ffffffff1660e01b8152600401612e61929190613c89565b600060405180830381600087803b158015612e7c5760006000fd5b505af1158015612e91573d600060003e3d6000fd5b505050508167ffffffffffffffff167feedd1116ee4b172f8bd428c71ffa4da20e0bffc9e5b05e78bbacd0b4337c71bf88888d604051612ed393929190613c35565b60405180910390a25b8080600101915050612b1f565b508a975050505050505050612f0056505050505050505b9392505050565b6000612f1a426121b6909063ffffffff16565b905080505b90565b60006000821480612f4257508282838502925082811515612f3f57fe5b04145b1515612fb9576040517f08c379a000000000000000000000000000000000000000000000000000000000815260040180806020018281038252600c8152602001807f6d756c2d6f766572666c6f77000000000000000000000000000000000000000081526020015060200191505060405180910390fd5b5b92915050565b6000600060006000612fdb858b612a3090919063ffffffff16565b9050612ff0888261314a90919063ffffffff16565b93508350888411156130195788935083506130148885612a3090919063ffffffff16565b905080505b613052848a03613044886130368c8f61314a90919063ffffffff16565b612a3090919063ffffffff16565b6125d590919063ffffffff16565b92508250600061306b8985612a3090919063ffffffff16565b90506000818c1161307e578b8203613081565b60005b9050600061309882856130c190919063ffffffff16565b90508981116130a957808a036130ac565b60005b94508450505050505b96509650969350505050565b60008282840191508110151515613143576040517f08c379a000000000000000000000000000000000000000000000000000000000815260040180806020018281038252600c8152602001807f6164642d6f766572666c6f77000000000000000000000000000000000000000081526020015060200191505060405180910390fd5b5b92915050565b600061316583670de0b6b3a7640000846124d463ffffffff16565b905080505b92915050565b6040518060a001604052806131836131be565b8152602001600081526020016000815260200160008152602001600073ffffffffffffffffffffffffffffffffffffffff1681526020015090565b6040518061014001604052806000815260200160008152602001600081526020016000815260200160008152602001600067ffffffffffffffff168152602001600067ffffffffffffffff168152602001600060020b8152602001600015158152602001600067ffffffffffffffff168152602001509056613d25565b600081519050801515811415156132525760006000fd5b5b919050565b6000815190508060020b811415156132705760006000fd5b5b919050565b60008151905061328581613d08565b5b919050565b6000602080838503121561329d578182fd5b823567ffffffffffffffff808211156132b4578384fd5b818501915085601f83011215156132c9578384fd5b8135818111156132d557fe5b83810291506132e5848301613cb4565b8082825285820191508585018987868801011115613301578788fd5b8795505b83861015613333578035945061331a85613d08565b848352868301925086810190505b600186019550613305565b508096505050505050505b92915050565b600060208284031215613355578081fd5b61335e8261323b565b90505b92915050565b600060208284031215613378578081fd5b81357fffffffff000000000000000000000000000000000000000000000000000000008116811415156133a9578182fd5b809150505b92915050565b6000602082840312156133c5578081fd5b81516133d081613cdf565b809150505b92915050565b6000602082840312156133ec578081fd5b81356133f781613cdf565b809150505b92915050565b600060208284031215613413578081fd5b815161341e81613cdf565b809150505b92915050565b60006020828403121561343a578081fd5b815161344581613cdf565b809150505b92915050565b600060208284031215613461578081fd5b815161346c81613cdf565b809150505b92915050565b600060208284031215613488578081fd5b815161349381613cdf565b809150505b92915050565b6000602082840312156134af578081fd5b81516134ba81613cdf565b809150505b92915050565b60006101408083850312156134d8578182fd5b6134e181613cb4565b9050825181526020830151602082015260408301516040820152606083015160608201526080830151608082015261351b60a08401613276565b60a082015261352c60c08401613276565b60c082015261353d60e08401613258565b60e082015261010061355081850161323b565b8183015250610120613563818501613276565b8183015250809150505b92915050565b600060208284031215613584578081fd5b813590505b92915050565b6000602082840312156135a0578081fd5b815190505b92915050565b60006000604083850312156135be578081fd5b82519150602083015190505b9250929050565b6000602082840312156135e2578081fd5b813563ffffffff8116811415156135f7578182fd5b809150505b92915050565b80151582525b5050565b8060020b82525b5050565b805182526020810151602083015260408101516040830152606081015160608301526080810151608083015260a081015161365560a08401826136ab565b5060c081015161366860c08401826136ab565b5060e081015161367b60e084018261360c565b506101008082015161368f82850182613602565b5050610120808201516136a4828501826136ab565b50505b5050565b67ffffffffffffffff811682525b5050565b60007f6c69717569646174696f6e496e63656e7469766500000000000000000000000082526014820190505b919050565b60007f747761704475726174696f6e00000000000000000000000000000000000000008252600c820190505b919050565b60007f6d617852657761726473526174696f00000000000000000000000000000000008252600f820190505b919050565b60007f646973636f76657279496e63656e74697665000000000000000000000000000082526012820190505b919050565b60007f6d696e4c69717569646174696f6e496e63656e7469766500000000000000000082526017820190505b919050565b600060208201905073ffffffffffffffffffffffffffffffffffffffff831682525b92915050565b600060408201905073ffffffffffffffffffffffffffffffffffffffff841682528260208301525b9392505050565b600060408201905073ffffffffffffffffffffffffffffffffffffffff841682528260208301525b9392505050565b600060208201905082151582525b92915050565b600060208201905073ffffffffffffffffffffffffffffffffffffffff831682525b92915050565b600060208201905073ffffffffffffffffffffffffffffffffffffffff831682525b92915050565b600060408201905073ffffffffffffffffffffffffffffffffffffffff8416825263ffffffff831660208301525b9392505050565b600060208201905067ffffffffffffffff831682525b92915050565b60006101608201905067ffffffffffffffff841682526139106020830184613617565b5b9392505050565b600060208252600760208301527f4e6f20646562740000000000000000000000000000000000000000000000000060408301526060820190505b919050565b600060208252601160208301527f50726f746f636f6c2073687574646f776e00000000000000000000000000000060408301526060820190505b919050565b600060208252601160208301527f496e73756666696369656e74206465627400000000000000000000000000000060408301526060820190505b919050565b600060208252601160208301527f456e6f75676820636f6c6c61746572616c00000000000000000000000000000060408301526060820190505b919050565b600060208252600e60208301527f4e6f7420417574686f72697a656400000000000000000000000000000000000060408301526060820190505b919050565b600060208252600460208301527f4e6f6f700000000000000000000000000000000000000000000000000000000060408301526060820190505b919050565b600060208252600d60208301527f4c50205265656e7472616e63790000000000000000000000000000000000000060408301526060820190505b919050565b600060208252600d60208301527f4e6f20636f6c6c61746572616c0000000000000000000000000000000000000060408301526060820190505b919050565b600060208252601460208301527f4e6f20726577617264732072656d61696e696e6700000000000000000000000060408301526060820190505b919050565b600060208252601360208301527f436f6e74726163742069732073746f707065640000000000000000000000000060408301526060820190505b919050565b600060208252600b60208301527f4e6f20726573657276657300000000000000000000000000000000000000000060408301526060820190505b919050565b600060408201905077ffffffffffffffffffffffffffffffffffffffffffffffff8416825267ffffffffffffffff831660208301525b9392505050565b60006020820190508282525b92915050565b60006040820190508382528260208301525b9392505050565b60006060820190508482528360208301528260408301525b949350505050565b600060208201905063ffffffff831682525b92915050565b600060208201905067ffffffffffffffff831682525b92915050565b60006101608201905067ffffffffffffffff84168252613cac6020830184613617565b5b9392505050565b6000604051905081810181811067ffffffffffffffff82111715613cd457fe5b80604052505b919050565b73ffffffffffffffffffffffffffffffffffffffff811681141515613d045760006000fd5b5b50565b67ffffffffffffffff811681141515613d215760006000fd5b5b50565bfea2646970667358221220c84a465a353f38fa4d5e7f2bbd7d314fb49df32a34f45f338fed9ac406848dfb64736f6c63430007060033",
  "linkReferences": {},
  "deployedLinkReferences": {}
}