{
  "_format": "hh-sol-artifact-1",
  "contractName": "Market",
  "sourceName": "contracts/core/logic/Market.sol",
  "abi": [
    {
      "inputs": [
        {
          "components": [
            {
              "internalType": "contract IGovernor",
              "name": "Governor",
              "type": "address"
            },
            {
              "internalType": "contract IProtocolLock",
              "name": "ProtocolLock",
              "type": "address"
            },
            {
              "internalType": "contract IPositionNFT",
              "name": "HuePositionNFT",
              "type": "address"
            },
            {
              "internalType": "contract IHue",
              "name": "Hue",
              "type": "address"
            },
            {
              "internalType": "contract ILendHue",
              "name": "LendHue",
              "type": "address"
            },
            {
              "internalType": "contract IAccounting",
              "name": "Accounting",
              "type": "address"
            }
          ],
          "internalType": "struct IMarket.ConstructorParams",
          "name": "params",
          "type": "tuple"
        }
      ],
      "stateMutability": "nonpayable",
      "type": "constructor"
    },
    {
      "anonymous": false,
      "inputs": [
        {
          "indexed": false,
          "internalType": "uint256",
          "name": "requirement",
          "type": "uint256"
        }
      ],
      "name": "CollateralizationRequirementUpdated",
      "type": "event"
    },
    {
      "anonymous": false,
      "inputs": [
        {
          "indexed": true,
          "internalType": "uint64",
          "name": "period",
          "type": "uint64"
        },
        {
          "indexed": false,
          "internalType": "uint64",
          "name": "periods",
          "type": "uint64"
        },
        {
          "indexed": false,
          "internalType": "uint256",
          "name": "newDebt",
          "type": "uint256"
        },
        {
          "indexed": false,
          "internalType": "uint256",
          "name": "rewardCount",
          "type": "uint256"
        },
        {
          "indexed": false,
          "internalType": "uint256",
          "name": "cumulativeDebt",
          "type": "uint256"
        },
        {
          "indexed": false,
          "internalType": "uint256",
          "name": "debtExchangeRate",
          "type": "uint256"
        }
      ],
      "name": "InterestAccrued",
      "type": "event"
    },
    {
      "anonymous": false,
      "inputs": [
        {
          "indexed": false,
          "internalType": "uint256",
          "name": "percentage",
          "type": "uint256"
        }
      ],
      "name": "InterestPortionToLendersUpdated",
      "type": "event"
    },
    {
      "anonymous": false,
      "inputs": [
        {
          "indexed": true,
          "internalType": "address",
          "name": "account",
          "type": "address"
        },
        {
          "indexed": false,
          "internalType": "uint256",
          "name": "hueCount",
          "type": "uint256"
        },
        {
          "indexed": false,
          "internalType": "uint256",
          "name": "lendTokenCount",
          "type": "uint256"
        }
      ],
      "name": "Lend",
      "type": "event"
    },
    {
      "anonymous": false,
      "inputs": [
        {
          "indexed": false,
          "internalType": "uint256",
          "name": "size",
          "type": "uint256"
        }
      ],
      "name": "MinPositionSizeUpdated",
      "type": "event"
    },
    {
      "anonymous": false,
      "inputs": [
        {
          "indexed": true,
          "internalType": "uint64",
          "name": "positionID",
          "type": "uint64"
        },
        {
          "indexed": false,
          "internalType": "uint256",
          "name": "debtIncrease",
          "type": "uint256"
        },
        {
          "indexed": false,
          "internalType": "uint256",
          "name": "debtDecrease",
          "type": "uint256"
        },
        {
          "indexed": false,
          "internalType": "uint256",
          "name": "collateralIncrease",
          "type": "uint256"
        },
        {
          "indexed": false,
          "internalType": "uint256",
          "name": "collateralDecrease",
          "type": "uint256"
        },
        {
          "indexed": false,
          "internalType": "uint256",
          "name": "newDebt",
          "type": "uint256"
        },
        {
          "indexed": false,
          "internalType": "uint256",
          "name": "newCollateral",
          "type": "uint256"
        }
      ],
      "name": "PositionAdjusted",
      "type": "event"
    },
    {
      "anonymous": false,
      "inputs": [
        {
          "indexed": true,
          "internalType": "address",
          "name": "creator",
          "type": "address"
        },
        {
          "indexed": true,
          "internalType": "uint64",
          "name": "positionID",
          "type": "uint64"
        },
        {
          "indexed": false,
          "internalType": "uint256",
          "name": "initialDebt",
          "type": "uint256"
        }
      ],
      "name": "PositionCreated",
      "type": "event"
    },
    {
      "anonymous": false,
      "inputs": [
        {
          "indexed": true,
          "internalType": "uint256",
          "name": "positionID",
          "type": "uint256"
        },
        {
          "indexed": true,
          "internalType": "uint64",
          "name": "period",
          "type": "uint64"
        },
        {
          "indexed": false,
          "internalType": "uint256",
          "name": "debtAfter",
          "type": "uint256"
        },
        {
          "indexed": false,
          "internalType": "uint256",
          "name": "tcpRewards",
          "type": "uint256"
        }
      ],
      "name": "PositionUpdated",
      "type": "event"
    },
    {
      "anonymous": false,
      "inputs": [
        {
          "indexed": true,
          "internalType": "address",
          "name": "account",
          "type": "address"
        },
        {
          "indexed": true,
          "internalType": "bool",
          "name": "isKickback",
          "type": "bool"
        },
        {
          "indexed": false,
          "internalType": "uint256",
          "name": "tcpRewards",
          "type": "uint256"
        }
      ],
      "name": "RewardsDistributed",
      "type": "event"
    },
    {
      "anonymous": false,
      "inputs": [],
      "name": "Stopped",
      "type": "event"
    },
    {
      "anonymous": false,
      "inputs": [
        {
          "indexed": false,
          "internalType": "uint32",
          "name": "duration",
          "type": "uint32"
        }
      ],
      "name": "TwapDurationUpdated",
      "type": "event"
    },
    {
      "anonymous": false,
      "inputs": [
        {
          "indexed": true,
          "internalType": "address",
          "name": "account",
          "type": "address"
        },
        {
          "indexed": false,
          "internalType": "uint256",
          "name": "hueCount",
          "type": "uint256"
        },
        {
          "indexed": false,
          "internalType": "uint256",
          "name": "lendTokenCount",
          "type": "uint256"
        }
      ],
      "name": "Unlend",
      "type": "event"
    },
    {
      "inputs": [],
      "name": "accounting",
      "outputs": [
        {
          "internalType": "contract IAccounting",
          "name": "",
          "type": "address"
        }
      ],
      "stateMutability": "view",
      "type": "function"
    },
    {
      "inputs": [],
      "name": "accrueInterest",
      "outputs": [],
      "stateMutability": "nonpayable",
      "type": "function"
    },
    {
      "inputs": [
        {
          "internalType": "uint64",
          "name": "positionID",
          "type": "uint64"
        },
        {
          "internalType": "int256",
          "name": "debtChange",
          "type": "int256"
        },
        {
          "internalType": "uint256",
          "name": "collateralDecrease",
          "type": "uint256"
        },
        {
          "internalType": "uint32",
          "name": "ui",
          "type": "uint32"
        }
      ],
      "name": "adjustPosition",
      "outputs": [],
      "stateMutability": "payable",
      "type": "function"
    },
    {
      "inputs": [
        {
          "internalType": "uint64",
          "name": "positionID",
          "type": "uint64"
        },
        {
          "internalType": "uint32",
          "name": "ui",
          "type": "uint32"
        }
      ],
      "name": "claimRewards",
      "outputs": [],
      "stateMutability": "nonpayable",
      "type": "function"
    },
    {
      "inputs": [],
      "name": "collateralizationRequirement",
      "outputs": [
        {
          "internalType": "uint256",
          "name": "",
          "type": "uint256"
        }
      ],
      "stateMutability": "view",
      "type": "function"
    },
    {
      "inputs": [
        {
          "internalType": "uint256",
          "name": "initialDebt",
          "type": "uint256"
        },
        {
          "internalType": "uint32",
          "name": "ui",
          "type": "uint32"
        }
      ],
      "name": "createPosition",
      "outputs": [
        {
          "internalType": "uint64",
          "name": "positionID",
          "type": "uint64"
        }
      ],
      "stateMutability": "payable",
      "type": "function"
    },
    {
      "inputs": [],
      "name": "currentPeriod",
      "outputs": [
        {
          "internalType": "uint64",
          "name": "period",
          "type": "uint64"
        }
      ],
      "stateMutability": "view",
      "type": "function"
    },
    {
      "inputs": [],
      "name": "deployer",
      "outputs": [
        {
          "internalType": "address",
          "name": "",
          "type": "address"
        }
      ],
      "stateMutability": "view",
      "type": "function"
    },
    {
      "inputs": [],
      "name": "firstPeriod",
      "outputs": [
        {
          "internalType": "uint64",
          "name": "",
          "type": "uint64"
        }
      ],
      "stateMutability": "view",
      "type": "function"
    },
    {
      "inputs": [],
      "name": "governor",
      "outputs": [
        {
          "internalType": "contract IGovernor",
          "name": "",
          "type": "address"
        }
      ],
      "stateMutability": "view",
      "type": "function"
    },
    {
      "inputs": [],
      "name": "hue",
      "outputs": [
        {
          "internalType": "contract IHue",
          "name": "",
          "type": "address"
        }
      ],
      "stateMutability": "view",
      "type": "function"
    },
    {
      "inputs": [],
      "name": "huePositionNFT",
      "outputs": [
        {
          "internalType": "contract IPositionNFT",
          "name": "",
          "type": "address"
        }
      ],
      "stateMutability": "view",
      "type": "function"
    },
    {
      "inputs": [],
      "name": "init",
      "outputs": [],
      "stateMutability": "nonpayable",
      "type": "function"
    },
    {
      "inputs": [],
      "name": "interestPortionToLenders",
      "outputs": [
        {
          "internalType": "uint256",
          "name": "",
          "type": "uint256"
        }
      ],
      "stateMutability": "view",
      "type": "function"
    },
    {
      "inputs": [],
      "name": "lastPeriodGlobalInterestAccrued",
      "outputs": [
        {
          "internalType": "uint64",
          "name": "",
          "type": "uint64"
        }
      ],
      "stateMutability": "view",
      "type": "function"
    },
    {
      "inputs": [
        {
          "internalType": "uint256",
          "name": "hueCount",
          "type": "uint256"
        }
      ],
      "name": "lend",
      "outputs": [],
      "stateMutability": "nonpayable",
      "type": "function"
    },
    {
      "inputs": [],
      "name": "lendHue",
      "outputs": [
        {
          "internalType": "contract ILendHue",
          "name": "",
          "type": "address"
        }
      ],
      "stateMutability": "view",
      "type": "function"
    },
    {
      "inputs": [],
      "name": "minPositionSize",
      "outputs": [
        {
          "internalType": "uint256",
          "name": "",
          "type": "uint256"
        }
      ],
      "stateMutability": "view",
      "type": "function"
    },
    {
      "inputs": [],
      "name": "periodLength",
      "outputs": [
        {
          "internalType": "uint64",
          "name": "",
          "type": "uint64"
        }
      ],
      "stateMutability": "view",
      "type": "function"
    },
    {
      "inputs": [
        {
          "internalType": "uint64",
          "name": "positionID",
          "type": "uint64"
        }
      ],
      "name": "removeKickback",
      "outputs": [],
      "stateMutability": "nonpayable",
      "type": "function"
    },
    {
      "inputs": [
        {
          "internalType": "uint256",
          "name": "requirement",
          "type": "uint256"
        }
      ],
      "name": "setCollateralizationRequirement",
      "outputs": [],
      "stateMutability": "nonpayable",
      "type": "function"
    },
    {
      "inputs": [
        {
          "internalType": "uint256",
          "name": "percentage",
          "type": "uint256"
        }
      ],
      "name": "setInterestPortionToLenders",
      "outputs": [],
      "stateMutability": "nonpayable",
      "type": "function"
    },
    {
      "inputs": [
        {
          "internalType": "uint256",
          "name": "size",
          "type": "uint256"
        }
      ],
      "name": "setMinPositionSize",
      "outputs": [],
      "stateMutability": "nonpayable",
      "type": "function"
    },
    {
      "inputs": [
        {
          "internalType": "uint32",
          "name": "duration",
          "type": "uint32"
        }
      ],
      "name": "setTwapDuration",
      "outputs": [],
      "stateMutability": "nonpayable",
      "type": "function"
    },
    {
      "inputs": [],
      "name": "stop",
      "outputs": [],
      "stateMutability": "nonpayable",
      "type": "function"
    },
    {
      "inputs": [],
      "name": "stopped",
      "outputs": [
        {
          "internalType": "bool",
          "name": "",
          "type": "bool"
        }
      ],
      "stateMutability": "view",
      "type": "function"
    },
    {
      "inputs": [
        {
          "internalType": "uint64",
          "name": "positionID",
          "type": "uint64"
        }
      ],
      "name": "systemGetUpdatedPosition",
      "outputs": [
        {
          "components": [
            {
              "internalType": "uint256",
              "name": "startCumulativeDebt",
              "type": "uint256"
            },
            {
              "internalType": "uint256",
              "name": "collateral",
              "type": "uint256"
            },
            {
              "internalType": "uint256",
              "name": "debt",
              "type": "uint256"
            },
            {
              "internalType": "uint256",
              "name": "startDebtExchangeRate",
              "type": "uint256"
            },
            {
              "internalType": "uint256",
              "name": "startTCPRewards",
              "type": "uint256"
            },
            {
              "internalType": "uint64",
              "name": "lastTimeUpdated",
              "type": "uint64"
            },
            {
              "internalType": "uint64",
              "name": "lastBorrowTime",
              "type": "uint64"
            },
            {
              "internalType": "int24",
              "name": "tick",
              "type": "int24"
            },
            {
              "internalType": "bool",
              "name": "tickSet",
              "type": "bool"
            },
            {
              "internalType": "uint64",
              "name": "tickIndex",
              "type": "uint64"
            },
            {
              "internalType": "uint32",
              "name": "ui",
              "type": "uint32"
            },
            {
              "internalType": "address",
              "name": "kickbackDestination",
              "type": "address"
            },
            {
              "internalType": "uint64",
              "name": "kickbackPortion",
              "type": "uint64"
            }
          ],
          "internalType": "struct IAccounting.DebtPosition",
          "name": "",
          "type": "tuple"
        }
      ],
      "stateMutability": "nonpayable",
      "type": "function"
    },
    {
      "inputs": [],
      "name": "twapDuration",
      "outputs": [
        {
          "internalType": "uint32",
          "name": "",
          "type": "uint32"
        }
      ],
      "stateMutability": "view",
      "type": "function"
    },
    {
      "inputs": [
        {
          "internalType": "uint256",
          "name": "lendTokenCount",
          "type": "uint256"
        }
      ],
      "name": "unlend",
      "outputs": [],
      "stateMutability": "nonpayable",
      "type": "function"
    },
    {
      "inputs": [
        {
          "internalType": "bytes4",
          "name": "",
          "type": "bytes4"
        }
      ],
      "name": "validUpdate",
      "outputs": [
        {
          "internalType": "bool",
          "name": "",
          "type": "bool"
        }
      ],
      "stateMutability": "view",
      "type": "function"
    },
    {
      "inputs": [
        {
          "internalType": "uint256",
          "name": "lendTokenCount",
          "type": "uint256"
        }
      ],
      "name": "valueOfLendTokensInHue",
      "outputs": [
        {
          "internalType": "uint256",
          "name": "",
          "type": "uint256"
        }
      ],
      "stateMutability": "view",
      "type": "function"
    }
  ],
  "bytecode": "0x610180604052600160026000509090556714d1120d7b160000600360005090905568878678326eac90000060046000509090556702c68af0bb1400006005600050909055610708600660006101000a81548163ffffffff021916908363ffffffff160217905550348015620000745760006000fd5b5060405162005c1438038062005c1483398181016040528101906200009a919062000594565b5b610e105b816000015182602001515b815b8073ffffffffffffffffffffffffffffffffffffffff1660808173ffffffffffffffffffffffffffffffffffffffff1660601b815260140150505b508073ffffffffffffffffffffffffffffffffffffffff1660a08173ffffffffffffffffffffffffffffffffffffffff1660601b815260140150505b505060018167ffffffffffffffff1662000142620004c260201b60201c565b67ffffffffffffffff168115156200015657fe5b040367ffffffffffffffff1660e08167ffffffffffffffff1660c01b815260080150508067ffffffffffffffff1660c08167ffffffffffffffff1660c01b815260080150505b50806040015173ffffffffffffffffffffffffffffffffffffffff166101008173ffffffffffffffffffffffffffffffffffffffff1660601b81526014015050806060015173ffffffffffffffffffffffffffffffffffffffff166101208173ffffffffffffffffffffffffffffffffffffffff1660601b81526014015050806080015173ffffffffffffffffffffffffffffffffffffffff166101408173ffffffffffffffffffffffffffffffffffffffff1660601b815260140150508060a0015173ffffffffffffffffffffffffffffffffffffffff166101608173ffffffffffffffffffffffffffffffffffffffff1660601b815260140150506000604051806080016040528063ef5e1cac60e01b7bffffffffffffffffffffffffffffffffffffffffffffffffffffffff19167bffffffffffffffffffffffffffffffffffffffffffffffffffffffff1916815260200163c433c80a60e01b7bffffffffffffffffffffffffffffffffffffffffffffffffffffffff19167bffffffffffffffffffffffffffffffffffffffffffffffffffffffff191681526020016306972dcd60e01b7bffffffffffffffffffffffffffffffffffffffffffffffffffffffff19167bffffffffffffffffffffffffffffffffffffffffffffffffffffffff19168152602001635a6127a960e01b7bffffffffffffffffffffffffffffffffffffffffffffffffffffffff19167bffffffffffffffffffffffffffffffffffffffffffffffffffffffff191681526020015090506000600090505b81506004811015620004775760016001600050600084846004811015156200040057fe5b60200201517bffffffffffffffffffffffffffffffffffffffffffffffffffffffff19167bffffffffffffffffffffffffffffffffffffffffffffffffffffffff1916815260200190815260200160002060006101000a81548160ff0219169083151502179055505b8080600101915050620003dc565b50336006600c6101000a81548173ffffffffffffffffffffffffffffffffffffffff021916908373ffffffffffffffffffffffffffffffffffffffff160217905550505b5062000669565b6000620004dc42620004e460201b62001b2e17909060201c565b905080505b90565b600068010000000000000000821015156200056a576040517f08c379a00000000000000000000000000000000000000000000000000000000081526004018080602001828103825260118152602001807f6d6f7265207468616e203634206269747300000000000000000000000000000081526020015060200191505060405180910390fd5b81905062000573565b9190505662000668565b6000815190506200058e816200064b565b5b919050565b600060c08284031215620005a6578081fd5b60405160c081018181106001600160401b0382111715620005c357fe5b80604052508251620005d5816200064b565b808252506020830151620005e9816200064b565b80602083015250604083015162000600816200064b565b8060408301525062000615606084016200057d565b606082015262000628608084016200057d565b60808201526200063b60a084016200057d565b60a0820152809150505b92915050565b6001600160a01b03811681141515620006645760006000fd5b5b50565b5b60805160601c60a05160601c60c05160c01c60e05160c01c6101005160601c6101205160601c6101405160601c6101605160601c61542c620007e8600039806108c25280610d705280610f56528061102b52806110d05280611159528061120b5280611466528061153c52806117e4528061189452806119e75280612126528061274352806128905280612a055280612bd25280612c095280612ddd528061324a528061330d52806133da528061361952508061083352806109cd528061123852806136bd525080610bd652806111e95280612a9d5280612b36528061302a528061339e528061345f528061349b5280613520525080610a545280610ca85280610e8e528061135b528061139e52806117a852806123725250806116865280611bc45280613bcf5250806116aa5280611be55280613bf0525080611ce55280611ed65250806107a4528061194e5280611c3e5280611f69528061226c528061241f5280612e8152806131125280613aeb528061409f525061542c6000f3fe6080604052600436106101dc5760003560e01c80639624e83e11610102578063c4e3a63b11610095578063e1c7392a11610064578063e1c7392a14610668578063eb6843ce14610680578063ef5e1cac146106be578063f6979f29146106e8576101dc565b8063c4e3a63b146105a6578063d2ca2115146105d2578063d5f39488146105fe578063e11c87621461062a576101dc565b8063b2326b57116100d1578063b2326b57146104fa578063b6ae213a14610524578063bb8313c214610550578063c433c80a1461057c576101dc565b80639624e83e14610460578063a6aa57ce1461048c578063a6afed95146104b6578063a89f51ae146104ce576101dc565b80632cae02691161017a5780635a6127a9116101495780635a6127a9146103c457806375f12b21146103ee5780637b809bdd1461041a578063875bbc5114610436576101dc565b80632cae0269146103105780632e6c6f841461033c578063323741741461036c5780635658c01214610398576101dc565b80630c340a24116101b65780630c340a2414610250578063113cf1ab1461027c578063197b1bf5146102ba57806326d89545146102e4576101dc565b806306040618146101e257806306972dcd1461020e57806307da68f514610238576101dc565b60006000fd5b3480156101ef5760006000fd5b506101f8610714565b60405161020591906152c5565b60405180910390f35b34801561021b5760006000fd5b5061023660048036038101906102319190614bb5565b61072c565b005b3480156102455760006000fd5b5061024e610782565b005b34801561025d5760006000fd5b506102666107a2565b6040516102739190614f97565b60405180910390f35b3480156102895760006000fd5b506102a4600480360381019061029f91906149d3565b6107c6565b6040516102b19190614f5b565b60405180910390f35b3480156102c75760006000fd5b506102e260048036038101906102dd9190614bb5565b6107eb565b005b3480156102f15760006000fd5b506102fa6109b5565b60405161030791906152ad565b60405180910390f35b34801561031d5760006000fd5b506103266109cb565b6040516103339190614fe7565b60405180910390f35b61035660048036038101906103519190614bed565b6109ef565b60405161036391906152c5565b60405180910390f35b3480156103795760006000fd5b50610382610bd4565b60405161038f9190614fbf565b60405180910390f35b3480156103a55760006000fd5b506103ae610bf8565b6040516103bb919061524d565b60405180910390f35b3480156103d15760006000fd5b506103ec60048036038101906103e79190614bb5565b610c01565b005b3480156103fb5760006000fd5b50610404610c74565b6040516104119190614f5b565b60405180910390f35b610434600480360381019061042f9190614c93565b610c87565b005b3480156104435760006000fd5b5061045e60048036038101906104599190614ce3565b610e6d565b005b34801561046d5760006000fd5b506104766110ce565b6040516104839190614f6f565b60405180910390f35b3480156104995760006000fd5b506104b460048036038101906104af9190614bb5565b6110f2565b005b3480156104c35760006000fd5b506104cc61132b565b005b3480156104db5760006000fd5b506104e4611359565b6040516104f1919061500f565b60405180910390f35b3480156105075760006000fd5b50610522600480360381019061051d9190614c45565b61137d565b005b3480156105315760006000fd5b5061053a6115de565b60405161054791906152c5565b60405180910390f35b34801561055d5760006000fd5b506105666115f8565b604051610573919061524d565b60405180910390f35b3480156105895760006000fd5b506105a4600480360381019061059f9190614c1e565b611601565b005b3480156105b35760006000fd5b506105bc611684565b6040516105c991906152c5565b60405180910390f35b3480156105df5760006000fd5b506105e86116a8565b6040516105f591906152c5565b60405180910390f35b34801561060b5760006000fd5b506106146116cc565b6040516106219190614e45565b60405180910390f35b3480156106375760006000fd5b50610652600480360381019061064d9190614bb5565b6116f2565b60405161065f919061524d565b60405180910390f35b3480156106755760006000fd5b5061067e611720565b005b34801561068d5760006000fd5b506106a860048036038101906106a39190614c45565b611936565b6040516106b59190615202565b60405180910390f35b3480156106cb5760006000fd5b506106e660048036038101906106e19190614bb5565b611ab7565b005b3480156106f55760006000fd5b506106fe611b25565b60405161070b919061524d565b60405180910390f35b6000610724611bc063ffffffff16565b905080505b90565b61073a611c3963ffffffff16565b8060046000508190909055507f113d15441cef41c1a48eb1bc2c6fa7b881b201a5c4b2913272f80defe12ce3c381604051610775919061524d565b60405180910390a15b5b50565b610790611c3963ffffffff16565b61079e611c9963ffffffff16565b5b5b565b7f000000000000000000000000000000000000000000000000000000000000000081565b600160005060205280600052604060002060009150909054906101000a900460ff1681565b6107f9611ce363ffffffff16565b610807611df663ffffffff16565b61081960008211611e8163ffffffff16565b6000339050600061082f836116f263ffffffff16565b90507f000000000000000000000000000000000000000000000000000000000000000073ffffffffffffffffffffffffffffffffffffffff166379cc679083856040518363ffffffff1660e01b815260040161088c929190614f2c565b600060405180830381600087803b1580156108a75760006000fd5b505af11580156108bc573d600060003e3d6000fd5b505050507f000000000000000000000000000000000000000000000000000000000000000073ffffffffffffffffffffffffffffffffffffffff1663b241bbac83836040518363ffffffff1660e01b815260040161091b929190614f2c565b600060405180830381600087803b1580156109365760006000fd5b505af115801561094b573d600060003e3d6000fd5b505050508173ffffffffffffffffffffffffffffffffffffffff167fefc56a1a7590fc4eb13cd40b6a2ceee41f3869c6ea818d20d9a18f2d6315ca18828560405161099792919061525f565b60405180910390a250505b5b6109b1611ec763ffffffff16565b5b50565b600660009054906101000a900463ffffffff1681565b7f000000000000000000000000000000000000000000000000000000000000000081565b60006109ff611ce363ffffffff16565b610a0d611f5963ffffffff16565b600034111515610a52576040517f08c379a0000000000000000000000000000000000000000000000000000000008152600401610a49906150e0565b60405180910390fd5b7f000000000000000000000000000000000000000000000000000000000000000073ffffffffffffffffffffffffffffffffffffffff1663755edd17336040518263ffffffff1660e01b8152600401610aab9190614e6d565b602060405180830381600087803b158015610ac65760006000fd5b505af1158015610adb573d600060003e3d6000fd5b505050506040513d601f19601f82011682018060405250810190610aff9190614c6c565b90508050610b0b614825565b8281610140019063ffffffff16908163ffffffff1681526020015050610b63610b448367ffffffffffffffff168361208663ffffffff16565b83610b5687612554909063ffffffff16565b60006125fd63ffffffff16565b8167ffffffffffffffff163373ffffffffffffffffffffffffffffffffffffffff167f24c9bb74341922446798a07669f56d3efec500a78e81429643958e7a42cb6b1286604051610bb4919061524d565b60405180910390a3505b5b610bcd611ec763ffffffff16565b5b92915050565b7f000000000000000000000000000000000000000000000000000000000000000081565b60036000505481565b610c0f611c3963ffffffff16565b806005600050819090905550670de0b6b3a764000060056000505411151515610c385760006000fd5b7f95c718270dc047bb0f84e533ee71ed5ee3961f14be924c0e493ba6e1ff078ae281604051610c67919061524d565b60405180910390a15b5b50565b600060009054906101000a900460ff1681565b610c95611ce363ffffffff16565b610ca3611f5963ffffffff16565b610d5e7f000000000000000000000000000000000000000000000000000000000000000073ffffffffffffffffffffffffffffffffffffffff1663430c208133876040518363ffffffff1660e01b8152600401610d01929190614ef3565b60206040518083038186803b158015610d1a5760006000fd5b505afa158015610d2f573d600060003e3d6000fd5b505050506040513d601f19601f82011682018060405250810190610d5391906149b0565b612cf563ffffffff16565b6000610e258567ffffffffffffffff167f000000000000000000000000000000000000000000000000000000000000000073ffffffffffffffffffffffffffffffffffffffff16630f85fc5a886040518263ffffffff1660e01b8152600401610dc791906152c5565b6101a06040518083038186803b158015610de15760006000fd5b505afa158015610df6573d600060003e3d6000fd5b505050506040513d601f19601f82011682018060405250810190610e1a9190614a6e565b61208663ffffffff16565b90508181610140019063ffffffff16908163ffffffff1681526020015050610e55818686866125fd63ffffffff16565b505b5b610e66611ec763ffffffff16565b5b50505050565b610e7b611ce363ffffffff16565b610e89611df663ffffffff16565b610f447f000000000000000000000000000000000000000000000000000000000000000073ffffffffffffffffffffffffffffffffffffffff1663430c208133856040518363ffffffff1660e01b8152600401610ee7929190614ef3565b60206040518083038186803b158015610f005760006000fd5b505afa158015610f15573d600060003e3d6000fd5b505050506040513d601f19601f82011682018060405250810190610f3991906149b0565b612cf563ffffffff16565b600061100b8367ffffffffffffffff167f000000000000000000000000000000000000000000000000000000000000000073ffffffffffffffffffffffffffffffffffffffff16630f85fc5a866040518263ffffffff1660e01b8152600401610fad91906152c5565b6101a06040518083038186803b158015610fc75760006000fd5b505afa158015610fdc573d600060003e3d6000fd5b505050506040513d601f19601f820116820180604052508101906110009190614a6e565b61208663ffffffff16565b90508181610140019063ffffffff16908163ffffffff16815260200150507f000000000000000000000000000000000000000000000000000000000000000073ffffffffffffffffffffffffffffffffffffffff16635a6beaf484836040518363ffffffff1660e01b81526004016110849291906152e1565b600060405180830381600087803b15801561109f5760006000fd5b505af11580156110b4573d600060003e3d6000fd5b50505050505b5b6110c9611ec763ffffffff16565b5b5050565b7f000000000000000000000000000000000000000000000000000000000000000081565b611100611ce363ffffffff16565b61110e611f5963ffffffff16565b61112060008211611e8163ffffffff16565b6000339050611133612d7163ffffffff16565b600061115561114661361363ffffffff16565b846137a090919063ffffffff16565b90507f000000000000000000000000000000000000000000000000000000000000000073ffffffffffffffffffffffffffffffffffffffff16632c73f09e846040518263ffffffff1660e01b81526004016111b0919061524d565b600060405180830381600087803b1580156111cb5760006000fd5b505af11580156111e0573d600060003e3d6000fd5b505050506112367f0000000000000000000000000000000000000000000000000000000000000000837f0000000000000000000000000000000000000000000000000000000000000000866137c663ffffffff16565b7f000000000000000000000000000000000000000000000000000000000000000073ffffffffffffffffffffffffffffffffffffffff1663449a52f883836040518363ffffffff1660e01b8152600401611291929190614f2c565b600060405180830381600087803b1580156112ac5760006000fd5b505af11580156112c1573d600060003e3d6000fd5b505050508173ffffffffffffffffffffffffffffffffffffffff167f8fff79b574da9a93d7a5408c2fc00c4a9b2b462321c1659b2fbbb9ff3dd221ff848360405161130d92919061525f565b60405180910390a250505b5b611327611ec763ffffffff16565b5b50565b6113396139f163ffffffff16565b611347612d7163ffffffff16565b5b611356613a8263ffffffff16565b5b565b7f000000000000000000000000000000000000000000000000000000000000000081565b61138b611ce363ffffffff16565b611399611f5963ffffffff16565b6114547f000000000000000000000000000000000000000000000000000000000000000073ffffffffffffffffffffffffffffffffffffffff1663430c208133846040518363ffffffff1660e01b81526004016113f7929190614ef3565b60206040518083038186803b1580156114105760006000fd5b505afa158015611425573d600060003e3d6000fd5b505050506040513d601f19601f8201168201806040525081019061144991906149b0565b612cf563ffffffff16565b600061151b8267ffffffffffffffff167f000000000000000000000000000000000000000000000000000000000000000073ffffffffffffffffffffffffffffffffffffffff16630f85fc5a856040518263ffffffff1660e01b81526004016114bd91906152c5565b6101a06040518083038186803b1580156114d75760006000fd5b505afa1580156114ec573d600060003e3d6000fd5b505050506040513d601f19601f820116820180604052508101906115109190614a6e565b61208663ffffffff16565b9050600081610140019063ffffffff16908163ffffffff16815260200150507f000000000000000000000000000000000000000000000000000000000000000073ffffffffffffffffffffffffffffffffffffffff16635a6beaf483836040518363ffffffff1660e01b81526004016115959291906152e1565b600060405180830381600087803b1580156115b05760006000fd5b505af11580156115c5573d600060003e3d6000fd5b50505050505b5b6115da611ec763ffffffff16565b5b50565b600660049054906101000a900467ffffffffffffffff1681565b60046000505481565b61160f611c3963ffffffff16565b61012c8163ffffffff16101515156116275760006000fd5b80600660006101000a81548163ffffffff021916908363ffffffff1602179055507f670aac3910a07dcfe5267c8b0bf2357abdb454e509764d13e94e85ee13c6da208160405161167791906152ad565b60405180910390a15b5b50565b7f000000000000000000000000000000000000000000000000000000000000000081565b7f000000000000000000000000000000000000000000000000000000000000000081565b6006600c9054906101000a900473ffffffffffffffffffffffffffffffffffffffff1681565b600061171461170561361363ffffffff16565b83613a9290919063ffffffff16565b905061171b565b919050565b61177f6006600c9054906101000a900473ffffffffffffffffffffffffffffffffffffffff1673ffffffffffffffffffffffffffffffffffffffff163373ffffffffffffffffffffffffffffffffffffffff1614612cf563ffffffff16565b6006600c6101000a81549073ffffffffffffffffffffffffffffffffffffffff021916905560007f000000000000000000000000000000000000000000000000000000000000000073ffffffffffffffffffffffffffffffffffffffff1663755edd177f00000000000000000000000000000000000000000000000000000000000000006040518263ffffffff1660e01b815260040161181f9190614e45565b602060405180830381600087803b15801561183a5760006000fd5b505af115801561184f573d600060003e3d6000fd5b505050506040513d601f19601f820116820180604052508101906118739190614c6c565b67ffffffffffffffff1614151561188a5760006000fd5b611892614825565b7f000000000000000000000000000000000000000000000000000000000000000073ffffffffffffffffffffffffffffffffffffffff16635a6beaf460006118e160008561208663ffffffff16565b6040518363ffffffff1660e01b81526004016118fe929190615037565b600060405180830381600087803b1580156119195760006000fd5b505af115801561192e573d600060003e3d6000fd5b50505050505b565b61193e614825565b61194c6139f163ffffffff16565b7f000000000000000000000000000000000000000000000000000000000000000073ffffffffffffffffffffffffffffffffffffffff16639622cd8f336040518263ffffffff1660e01b81526004016119a59190614e6d565b60006040518083038186803b1580156119be5760006000fd5b505afa1580156119d3573d600060003e3d6000fd5b50505050611a9c8267ffffffffffffffff167f000000000000000000000000000000000000000000000000000000000000000073ffffffffffffffffffffffffffffffffffffffff16630f85fc5a856040518263ffffffff1660e01b8152600401611a3e91906152c5565b6101a06040518083038186803b158015611a585760006000fd5b505afa158015611a6d573d600060003e3d6000fd5b505050506040513d601f19601f82011682018060405250810190611a919190614a6e565b61208663ffffffff16565b9050611aa3565b611ab1613a8263ffffffff16565b5b919050565b611ac5611c3963ffffffff16565b806003600050819090905550670de0b6b3a76400008110151515611ae95760006000fd5b7f52640f3e2df50709ead28077e905b85df7544c73c32a40259dff3ac35927d5ce81604051611b18919061524d565b60405180910390a15b5b50565b60056000505481565b60006801000000000000000082101515611bb3576040517f08c379a00000000000000000000000000000000000000000000000000000000081526004018080602001828103825260118152602001807f6d6f7265207468616e203634206269747300000000000000000000000000000081526020015060200191505060405180910390fd5b819050611bbb565b919050565b60007f00000000000000000000000000000000000000000000000000000000000000007f000000000000000000000000000000000000000000000000000000000000000067ffffffffffffffff16611c1c613ab863ffffffff16565b67ffffffffffffffff16811515611c2f57fe5b0403905080505b90565b611c967f000000000000000000000000000000000000000000000000000000000000000073ffffffffffffffffffffffffffffffffffffffff163373ffffffffffffffffffffffffffffffffffffffff1614612cf563ffffffff16565b5b565b6001600060006101000a81548160ff0219169083151502179055507f7acc84e34091ae817647a4c49116f5cc07f319078ba80f8f5fde37ea7e25cbd660405160405180910390a15b565b7f000000000000000000000000000000000000000000000000000000000000000073ffffffffffffffffffffffffffffffffffffffff1663e97dcb626040518163ffffffff1660e01b8152600401600060405180830381600087803b158015611d4c5760006000fd5b505af1158015611d61573d600060003e3d6000fd5b50505050600260026000505414151515611de6576040517f08c379a000000000000000000000000000000000000000000000000000000000815260040180806020018281038252600d8152602001807f4c50205265656e7472616e63790000000000000000000000000000000000000081526020015060200191505060405180910390fd5b600260026000508190909055505b565b600060009054906101000a900460ff16151515611e7e576040517f08c379a00000000000000000000000000000000000000000000000000000000081526004018080602001828103825260138152602001807f436f6e74726163742069732073746f707065640000000000000000000000000081526020015060200191505060405180910390fd5b5b565b801515611ec3576040517f08c379a0000000000000000000000000000000000000000000000000000000008152600401611eba906150a1565b60405180910390fd5b5b50565b600160026000508190909055507f000000000000000000000000000000000000000000000000000000000000000073ffffffffffffffffffffffffffffffffffffffff1663e9fad8ee6040518163ffffffff1660e01b8152600401600060405180830381600087803b158015611f3d5760006000fd5b505af1158015611f52573d600060003e3d6000fd5b505050505b565b611f67611df663ffffffff16565b7f000000000000000000000000000000000000000000000000000000000000000073ffffffffffffffffffffffffffffffffffffffff1663bf86d6906040518163ffffffff1660e01b815260040160206040518083038186803b158015611fce5760006000fd5b505afa158015611fe3573d600060003e3d6000fd5b505050506040513d6020811015611ffa5760006000fd5b8101908080519060200190929190505050151515612083576040517f08c379a00000000000000000000000000000000000000000000000000000000081526004018080602001828103825260118152602001807f50726f746f636f6c2073687574646f776e00000000000000000000000000000081526020015060200191505060405180910390fd5b5b565b61208e614825565b600061209e613ad363ffffffff16565b905060006120b182613bc863ffffffff16565b9050600060008560a0015167ffffffffffffffff16146120e3576120de8560a00151613bc863ffffffff16565b6120e6565b60005b90508067ffffffffffffffff168267ffffffffffffffff161115156121105784935050505061254e565b61211e612d7163ffffffff16565b60006121d0867f000000000000000000000000000000000000000000000000000000000000000073ffffffffffffffffffffffffffffffffffffffff166306ef2d806040518163ffffffff1660e01b815260040160806040518083038186803b15801561218b5760006000fd5b505afa1580156121a0573d600060003e3d6000fd5b505050506040513d601f19601f820116820180604052508101906121c49190614b55565b86613c5063ffffffff16565b80925081965050506000811180156121e9575060008714155b1561250057600073ffffffffffffffffffffffffffffffffffffffff1685610160015173ffffffffffffffffffffffffffffffffffffffff161415801561223f5750600085610180015167ffffffffffffffff16115b1561236e57600061226886610180015167ffffffffffffffff16836137a090919063ffffffff16565b90507f000000000000000000000000000000000000000000000000000000000000000073ffffffffffffffffffffffffffffffffffffffff1663ef7a7cfa876101600151836040518363ffffffff1660e01b81526004016122ca929190614f2c565b600060405180830381600087803b1580156122e55760006000fd5b505af11580156122fa573d600060003e3d6000fd5b505050506001151586610160015173ffffffffffffffffffffffffffffffffffffffff167f8079a05488a0f375c08504c3ba8b3a1371f5a192b7a141bc9294ef7ad41389d98360405161234d919061524d565b60405180910390a36123688183613db690919063ffffffff16565b91508150505b60007f000000000000000000000000000000000000000000000000000000000000000073ffffffffffffffffffffffffffffffffffffffff16636352211e896040518263ffffffff1660e01b81526004016123c9919061524d565b60206040518083038186803b1580156123e25760006000fd5b505afa1580156123f7573d600060003e3d6000fd5b505050506040513d601f19601f8201168201806040525081019061241b9190614989565b90507f000000000000000000000000000000000000000000000000000000000000000073ffffffffffffffffffffffffffffffffffffffff1663ef7a7cfa82846040518363ffffffff1660e01b8152600401612478929190614f2c565b600060405180830381600087803b1580156124935760006000fd5b505af11580156124a8573d600060003e3d6000fd5b50505050600015158173ffffffffffffffffffffffffffffffffffffffff167f8079a05488a0f375c08504c3ba8b3a1371f5a192b7a141bc9294ef7ad41389d9846040516124f6919061524d565b60405180910390a3505b8267ffffffffffffffff16877fc99ac0d15229fa72f1b0756c0eed4e7ede3d80f4e4e0d308ce7a56d1366b8a0387604001518460405161254192919061525f565b60405180910390a3505050505b92915050565b60007f8000000000000000000000000000000000000000000000000000000000000000821015156125f0576040517f08c379a00000000000000000000000000000000000000000000000000000000081526004018080602001828103825260128152602001807f746f6f2062696720666f7220696e74323536000000000000000000000000000081526020015060200191505060405180910390fd5b8190506125f8565b919050565b6000349050600060008413612613576000612615565b835b905060006000851261262857600061265c565b61265b7fffffffffffffffffffffffffffffffffffffffffffffffffffffffffffffffff86613e3f90919063ffffffff16565b5b905060008311801561266e5750600084115b1515156126b0576040517f08c379a00000000000000000000000000000000000000000000000000000000081526004016126a79061511f565b60405180910390fd5b6126e360008411806126c25750600085115b806126cd5750600083115b806126d85750600082115b611e8163ffffffff16565b60008211156127cf576126fa613ab863ffffffff16565b8760c0019067ffffffffffffffff16908167ffffffffffffffff1681526020015050612733828860400151613f7590919063ffffffff16565b87604001909081815260200150507f000000000000000000000000000000000000000000000000000000000000000073ffffffffffffffffffffffffffffffffffffffff16632b7c7b11836040518263ffffffff1660e01b815260040161279a919061524d565b600060405180830381600087803b1580156127b55760006000fd5b505af11580156127ca573d600060003e3d6000fd5b505050505b600081111561291c576127e6613ab863ffffffff16565b67ffffffffffffffff16612817610708610e10018960c0015167ffffffffffffffff16613ffe90919063ffffffff16565b67ffffffffffffffff16101515612863576040517f08c379a000000000000000000000000000000000000000000000000000000000815260040161285a90615062565b60405180910390fd5b8087604001511015612879578660400151905080505b8087604001818151039150909081815260200150507f000000000000000000000000000000000000000000000000000000000000000073ffffffffffffffffffffffffffffffffffffffff16632a7ba1f7826040518263ffffffff1660e01b81526004016128e7919061524d565b600060405180830381600087803b1580156129025760006000fd5b505af1158015612917573d600060003e3d6000fd5b505050505b600083111561294b5761293c838860200151613f7590919063ffffffff16565b87602001909081815260200150505b600084111561297a5761296b848860200151613db690919063ffffffff16565b87602001909081815260200150505b600087604001511115612a03576004600050548760400151101515156129d5576040517f08c379a00000000000000000000000000000000000000000000000000000000081526004016129cc90615184565b60405180910390fd5b60008411806129e45750600082115b15612a0257612a018760400151886020015161409b63ffffffff16565b5b5b7f000000000000000000000000000000000000000000000000000000000000000073ffffffffffffffffffffffffffffffffffffffff16635a6beaf487896040518363ffffffff1660e01b8152600401612a5e9291906152e1565b600060405180830381600087803b158015612a795760006000fd5b505af1158015612a8e573d600060003e3d6000fd5b505050506000821115612b2b577f000000000000000000000000000000000000000000000000000000000000000073ffffffffffffffffffffffffffffffffffffffff1663449a52f833846040518363ffffffff1660e01b8152600401612af6929190614ec4565b600060405180830381600087803b158015612b115760006000fd5b505af1158015612b26573d600060003e3d6000fd5b505050505b6000811115612bc4577f000000000000000000000000000000000000000000000000000000000000000073ffffffffffffffffffffffffffffffffffffffff166379cc679033836040518363ffffffff1660e01b8152600401612b8f929190614ec4565b600060405180830381600087803b158015612baa5760006000fd5b505af1158015612bbf573d600060003e3d6000fd5b505050505b6000831115612bfe57612bfd7f00000000000000000000000000000000000000000000000000000000000000008461424f63ffffffff16565b5b6000841115612c97577f000000000000000000000000000000000000000000000000000000000000000073ffffffffffffffffffffffffffffffffffffffff16636250216933866040518363ffffffff1660e01b8152600401612c62929190614e95565b600060405180830381600087803b158015612c7d5760006000fd5b505af1158015612c92573d600060003e3d6000fd5b505050505b8567ffffffffffffffff167fdbaad0966fb140906c77f54a38b3e1ce6c60e87527bbc4ee0b9ad893e3de453b838386888c604001518d60200151604051612ce396959493929190615278565b60405180910390a25050505b50505050565b801515612d6d576040517f08c379a000000000000000000000000000000000000000000000000000000000815260040180806020018281038252600e8152602001807f4e6f7420417574686f72697a656400000000000000000000000000000000000081526020015060200191505060405180910390fd5b5b50565b6000612d816143d563ffffffff16565b9050600660049054906101000a900467ffffffffffffffff1667ffffffffffffffff168167ffffffffffffffff16111515612dbc5750613611565b6000600660049054906101000a900467ffffffffffffffff168203905060007f000000000000000000000000000000000000000000000000000000000000000073ffffffffffffffffffffffffffffffffffffffff166306ef2d806040518163ffffffff1660e01b815260040160806040518083038186803b158015612e425760006000fd5b505afa158015612e57573d600060003e3d6000fd5b505050506040513d601f19601f82011682018060405250810190612e7b9190614b55565b905060007f000000000000000000000000000000000000000000000000000000000000000073ffffffffffffffffffffffffffffffffffffffff166343f48fbd6040518163ffffffff1660e01b815260040160206040518083038186803b158015612ee65760006000fd5b505afa158015612efb573d600060003e3d6000fd5b505050506040513d601f19601f82011682018060405250810190612f1f9190614a47565b905060006130d983858473ffffffffffffffffffffffffffffffffffffffff1663a0fc0eda6040518163ffffffff1660e01b815260040160206040518083038186803b158015612f6f5760006000fd5b505afa158015612f84573d600060003e3d6000fd5b505050506040513d601f19601f82011682018060405250810190612fa89190614bd1565b8573ffffffffffffffffffffffffffffffffffffffff16636d7fa6646040518163ffffffff1660e01b815260040160206040518083038186803b158015612fef5760006000fd5b505afa158015613004573d600060003e3d6000fd5b505050506040513d601f19601f8201168201806040525081019061302891906149b0565b7f000000000000000000000000000000000000000000000000000000000000000073ffffffffffffffffffffffffffffffffffffffff166375172a8b6040518163ffffffff1660e01b815260040160206040518083038186803b15801561308f5760006000fd5b505afa1580156130a4573d600060003e3d6000fd5b505050506040513d601f19601f820116820180604052508101906130c89190614bd1565b6005600050546143fb63ffffffff16565b90506000610e1067ffffffffffffffff16620151808115156130f757fe5b0467ffffffffffffffff166131c08667ffffffffffffffff167f000000000000000000000000000000000000000000000000000000000000000073ffffffffffffffffffffffffffffffffffffffff1663a5d4198b6040518163ffffffff1660e01b8152600401602060405180830381600087803b1580156131795760006000fd5b505af115801561318e573d600060003e3d6000fd5b505050506040513d601f19601f820116820180604052508101906131b29190614bd1565b6145e990919063ffffffff16565b8115156131c957fe5b0490506040518060800160405280836000015181526020016131f8838760200151613f7590919063ffffffff16565b81526020016132346132218867ffffffffffffffff1688600001516145e990919063ffffffff16565b8760400151613f7590919063ffffffff16565b81526020018360200151815260200150935083507f000000000000000000000000000000000000000000000000000000000000000073ffffffffffffffffffffffffffffffffffffffff166378efc6b0856040518263ffffffff1660e01b81526004016132a1919061521c565b600060405180830381600087803b1580156132bc5760006000fd5b505af11580156132d1573d600060003e3d6000fd5b5050505085600660046101000a81548167ffffffffffffffff021916908367ffffffffffffffff160217905550600082606001511115613450577f000000000000000000000000000000000000000000000000000000000000000073ffffffffffffffffffffffffffffffffffffffff16632c73f09e83606001516040518263ffffffff1660e01b8152600401613368919061524d565b600060405180830381600087803b1580156133835760006000fd5b505af1158015613398573d600060003e3d6000fd5b505050507f000000000000000000000000000000000000000000000000000000000000000073ffffffffffffffffffffffffffffffffffffffff1663449a52f87f000000000000000000000000000000000000000000000000000000000000000084606001516040518363ffffffff1660e01b815260040161341b929190614f2c565b600060405180830381600087803b1580156134365760006000fd5b505af115801561344b573d600060003e3d6000fd5b505050505b600082604001511115613511577f000000000000000000000000000000000000000000000000000000000000000073ffffffffffffffffffffffffffffffffffffffff1663449a52f87f000000000000000000000000000000000000000000000000000000000000000084604001516040518363ffffffff1660e01b81526004016134dc929190614f2c565b600060405180830381600087803b1580156134f75760006000fd5b505af115801561350c573d600060003e3d6000fd5b505050505b6000826080015111156135b0577f000000000000000000000000000000000000000000000000000000000000000073ffffffffffffffffffffffffffffffffffffffff1663c59fb1ab83608001516040518263ffffffff1660e01b815260040161357b919061524d565b600060405180830381600087803b1580156135965760006000fd5b505af11580156135ab573d600060003e3d6000fd5b505050505b8567ffffffffffffffff167fdfc2183705a66b49f12c66a6d3b2fa5cf3b7c67086e9c6e90d144befc94f436c86866000015187602001518860400151896060015160405161360295949392919061530c565b60405180910390a25050505050505b565b600060007f000000000000000000000000000000000000000000000000000000000000000073ffffffffffffffffffffffffffffffffffffffff16637f250c616040518163ffffffff1660e01b815260040160206040518083038186803b15801561367e5760006000fd5b505afa158015613693573d600060003e3d6000fd5b505050506040513d601f19601f820116820180604052508101906136b79190614bd1565b905060007f000000000000000000000000000000000000000000000000000000000000000073ffffffffffffffffffffffffffffffffffffffff166318160ddd6040518163ffffffff1660e01b815260040160206040518083038186803b1580156137225760006000fd5b505afa158015613737573d600060003e3d6000fd5b505050506040513d601f19601f8201168201806040525081019061375b9190614bd1565b9050600081148061376c5750600082145b613788576137838282613a9290919063ffffffff16565b613792565b670de0b6b3a76400005b9250505061379d5650505b90565b60006137bb8383670de0b6b3a764000061468763ffffffff16565b905080505b92915050565b600060008573ffffffffffffffffffffffffffffffffffffffff166323b872dd60e01b868686604051602401808473ffffffffffffffffffffffffffffffffffffffff1681526020018373ffffffffffffffffffffffffffffffffffffffff1681526020018281526020019350505050604051602081830303815290604052907bffffffffffffffffffffffffffffffffffffffffffffffffffffffff19166020820180517bffffffffffffffffffffffffffffffffffffffffffffffffffffffff83818316178352505050506040518082805190602001908083835b6020831015156138c957805182525b6020820191506020810190506020830392506138a3565b6001836020036101000a0380198251168184511680821785525050505050509050019150506000604051808303816000865af19150503d806000811461392b576040519150601f19603f3d011682016040523d82523d6000602084013e613930565b606091505b50915091508180156139715750600081511480613970575080806020019051602081101561395e5760006000fd5b81019080805190602001909291905050505b5b15156139e8576040517f08c379a00000000000000000000000000000000000000000000000000000000081526004018080602001828103825260038152602001807f535446000000000000000000000000000000000000000000000000000000000081526020015060200191505060405180910390fd5b50505b50505050565b600260026000505414151515613a72576040517f08c379a000000000000000000000000000000000000000000000000000000000815260040180806020018281038252600d8152602001807f4c43205265656e7472616e63790000000000000000000000000000000000000081526020015060200191505060405180910390fd5b600260026000508190909055505b565b600160026000508190909055505b565b6000613aad83670de0b6b3a76400008461468763ffffffff16565b905080505b92915050565b6000613acb42611b2e909063ffffffff16565b905080505b90565b6000613ae3613ab863ffffffff16565b9050805060007f000000000000000000000000000000000000000000000000000000000000000073ffffffffffffffffffffffffffffffffffffffff1663585690816040518163ffffffff1660e01b815260040160206040518083038186803b158015613b505760006000fd5b505afa158015613b65573d600060003e3d6000fd5b505050506040513d601f19601f82011682018060405250810190613b899190614c6c565b905060008167ffffffffffffffff16118015613bb857508167ffffffffffffffff168167ffffffffffffffff16105b15613bc35780915081505b505b90565b6000613c467f00000000000000000000000000000000000000000000000000000000000000007f000000000000000000000000000000000000000000000000000000000000000067ffffffffffffffff168467ffffffffffffffff16811515613c2d57fe5b0467ffffffffffffffff1661478890919063ffffffff16565b905080505b919050565b613c58614825565b6000849150815060008260a0015167ffffffffffffffff16118015613c81575060008260400151115b15613d5157613ca78460600151836060015184604001516146879092919063ffffffff16565b8260400190908181526020015050613d4c613cd98360a001518567ffffffffffffffff1661478890919063ffffffff16565b67ffffffffffffffff16610e1067ffffffffffffffff16613d3d613d0e86608001518960200151613db690919063ffffffff16565b613d2987600001518a60400151613db690919063ffffffff16565b87604001516146879092919063ffffffff16565b6146879092919063ffffffff16565b905080505b836060015182606001909081815260200150508360200151826080019090818152602001505083604001518260000190908181526020015050828260a0019067ffffffffffffffff16908167ffffffffffffffff16815260200150505b935093915050565b60008282840391508111151515613e38576040517f08c379a000000000000000000000000000000000000000000000000000000000815260040180806020018281038252600d8152602001807f7375622d756e646572666c6f770000000000000000000000000000000000000081526020015060200191505060405180910390fd5b5b92915050565b60006000831415613e535760009050613f6f565b7fffffffffffffffffffffffffffffffffffffffffffffffffffffffffffffffff83148015613ea157507f800000000000000000000000000000000000000000000000000000000000000082145b151515613ef9576040517f08c379a00000000000000000000000000000000000000000000000000000000081526004018080602001828103825260278152602001806153d06027913960400191505060405180910390fd5b60008284029050828482811515613f0c57fe5b05141515613f65576040517f08c379a00000000000000000000000000000000000000000000000000000000081526004018080602001828103825260278152602001806153d06027913960400191505060405180910390fd5b80915050613f6f56505b92915050565b60008282840191508110151515613ff7576040517f08c379a000000000000000000000000000000000000000000000000000000000815260040180806020018281038252600c8152602001807f6164642d6f766572666c6f77000000000000000000000000000000000000000081526020015060200191505060405180910390fd5b5b92915050565b60008267ffffffffffffffff1682840191508167ffffffffffffffff1610151515614094576040517f08c379a000000000000000000000000000000000000000000000000000000000815260040180806020018281038252600c8152602001807f6164642d6f766572666c6f77000000000000000000000000000000000000000081526020015060200191505060405180910390fd5b5b92915050565b60007f000000000000000000000000000000000000000000000000000000000000000073ffffffffffffffffffffffffffffffffffffffff1663d3419bf36040518163ffffffff1660e01b815260040160206040518083038186803b1580156141045760006000fd5b505afa158015614119573d600060003e3d6000fd5b505050506040513d601f19601f8201168201806040525081019061413d9190614a20565b73ffffffffffffffffffffffffffffffffffffffff1663fa42dcf4600660009054906101000a900463ffffffff166040518263ffffffff1660e01b815260040161418791906152ad565b60206040518083038186803b1580156141a05760006000fd5b505afa1580156141b5573d600060003e3d6000fd5b505050506040513d601f19601f820116820180604052508101906141d99190614bd1565b90506141f3836003600050546145e990919063ffffffff16565b61420682846145e990919063ffffffff16565b10151515614249576040517f08c379a0000000000000000000000000000000000000000000000000000000008152600401614240906151c3565b60405180910390fd5b505b5050565b60008273ffffffffffffffffffffffffffffffffffffffff1682600067ffffffffffffffff811180156142825760006000fd5b506040519080825280601f01601f1916602001820160405280156142b55781602001600182028036833780820191505090505b506040518082805190602001908083835b6020831015156142ec57805182525b6020820191506020810190506020830392506142c6565b6001836020036101000a03801982511681845116808217855250505050505090500191505060006040518083038185875af1925050503d806000811461434e576040519150601f19603f3d011682016040523d82523d6000602084013e614353565b606091505b505090508015156143cf576040517f08c379a00000000000000000000000000000000000000000000000000000000081526004018080602001828103825260038152602001807f535445000000000000000000000000000000000000000000000000000000000081526020015060200191505060405180910390fd5b505b5050565b60006143f36143e8613ad363ffffffff16565b613bc863ffffffff16565b905080505b90565b6144036148d9565b600085141561443a5786600001518160000190908181526020015050866060015181602001909081815260200150508090506145df565b60006144808767ffffffffffffffff16610e1067ffffffffffffffff166301e1338081151561446557fe5b0467ffffffffffffffff16886146879092919063ffffffff16565b90506000856144a9576144a482670de0b6b3a7640000613db690919063ffffffff16565b6144c5565b6144c482670de0b6b3a7640000613f7590919063ffffffff16565b5b90506144de818a606001516137a090919063ffffffff16565b836020019090818152602001505061450d83602001518a606001518b600001516146879092919063ffffffff16565b83600001909081815260200150508860000151836000015111156145765760008960000151846000015103905061454d85826137a090919063ffffffff16565b8460600190908181526020015050836060015181038460400190908181526020015050506145dc565b8860000151836000015110156145db57600083600001518a6000015103905085811015156145c95789600001518460000190908181526020015050896060015184602001909081815260200150506145d9565b8084608001909081815260200150505b505b5b50505b9695505050505050565b600060008214806146095750828283850292508281151561460657fe5b04145b1515614680576040517f08c379a000000000000000000000000000000000000000000000000000000000815260040180806020018281038252600c8152602001807f6d756c2d6f766572666c6f77000000000000000000000000000000000000000081526020015060200191505060405180910390fd5b5b92915050565b60006000600060001985870985870292508281108382030391505060008114156146ca576000841115156146bb5760006000fd5b83820492508292505050614781565b80841115156146d95760006000fd5b60008486880990508281118203915080830392506000858660000316905080860495508084049350600181826000030401905080830284179350835060006002876003021890508087026002038102905080508087026002038102905080508087026002038102905080508087026002038102905080508087026002038102905080508087026002038102905080508085029550855085955050505050506147815650505050505b9392505050565b60008267ffffffffffffffff1682840391508167ffffffffffffffff161115151561481e576040517f08c379a000000000000000000000000000000000000000000000000000000000815260040180806020018281038252600d8152602001807f7375622d756e646572666c6f770000000000000000000000000000000000000081526020015060200191505060405180910390fd5b5b92915050565b604051806101a001604052806000815260200160008152602001600081526020016000815260200160008152602001600067ffffffffffffffff168152602001600067ffffffffffffffff168152602001600060020b8152602001600015158152602001600067ffffffffffffffff168152602001600063ffffffff168152602001600073ffffffffffffffffffffffffffffffffffffffff168152602001600067ffffffffffffffff1681526020015090565b6040518060a0016040528060008152602001600081526020016000815260200160008152602001600081526020015090566153ce565b60008151905061491e8161536f565b5b919050565b6000815190508015158114151561493b5760006000fd5b5b919050565b6000815190508060020b811415156149595760006000fd5b5b919050565b60008151905061496e81615398565b5b919050565b600081519050614983816153b1565b5b919050565b60006020828403121561499a578081fd5b81516149a58161536f565b809150505b92915050565b6000602082840312156149c1578081fd5b6149ca82614924565b90505b92915050565b6000602082840312156149e4578081fd5b81357fffffffff00000000000000000000000000000000000000000000000000000000811681141515614a15578182fd5b809150505b92915050565b600060208284031215614a31578081fd5b8151614a3c8161536f565b809150505b92915050565b600060208284031215614a58578081fd5b8151614a638161536f565b809150505b92915050565b60006101a0808385031215614a81578182fd5b614a8a81615344565b90508251815260208301516020820152604083015160408201526060830151606082015260808301516080820152614ac460a08401614974565b60a0820152614ad560c08401614974565b60c0820152614ae660e08401614941565b60e0820152610100614af9818501614924565b8183015250610120614b0c818501614974565b8183015250610140614b1f81850161495f565b8183015250610160614b3281850161490f565b8183015250610180614b45818501614974565b8183015250809150505b92915050565b600060808284031215614b66578081fd5b6040516080810181811067ffffffffffffffff82111715614b8357fe5b806040525082518152602083015160208201526040830151604082015260608301516060820152809150505b92915050565b600060208284031215614bc6578081fd5b813590505b92915050565b600060208284031215614be2578081fd5b815190505b92915050565b6000600060408385031215614c00578081fd5b823591506020830135614c1281615398565b809150505b9250929050565b600060208284031215614c2f578081fd5b8135614c3a81615398565b809150505b92915050565b600060208284031215614c56578081fd5b8135614c61816153b1565b809150505b92915050565b600060208284031215614c7d578081fd5b8151614c88816153b1565b809150505b92915050565b600060006000600060808587031215614caa578182fd5b8435614cb5816153b1565b8094505060208501359250604085013591506060850135614cd581615398565b809150505b92959194509250565b6000600060408385031215614cf6578182fd5b8235614d01816153b1565b809250506020830135614d1381615398565b809150505b9250929050565b73ffffffffffffffffffffffffffffffffffffffff811682525b5050565b80151582525b5050565b8060020b82525b5050565b805182526020810151602083015260408101516040830152606081015160608301526080810151608083015260a0810151614d9060a0840182614e33565b5060c0810151614da360c0840182614e33565b5060e0810151614db660e0840182614d47565b5061010080820151614dca82850182614d3d565b505061012080820151614ddf82850182614e33565b505061014080820151614df482850182614e25565b505061016080820151614e0982850182614d1f565b505061018080820151614e1e82850182614e33565b50505b5050565b63ffffffff811682525b5050565b67ffffffffffffffff811682525b5050565b600060208201905073ffffffffffffffffffffffffffffffffffffffff831682525b92915050565b600060208201905073ffffffffffffffffffffffffffffffffffffffff831682525b92915050565b600060408201905073ffffffffffffffffffffffffffffffffffffffff841682528260208301525b9392505050565b600060408201905073ffffffffffffffffffffffffffffffffffffffff841682528260208301525b9392505050565b600060408201905073ffffffffffffffffffffffffffffffffffffffff8416825267ffffffffffffffff831660208301525b9392505050565b600060408201905073ffffffffffffffffffffffffffffffffffffffff841682528260208301525b9392505050565b600060208201905082151582525b92915050565b600060208201905073ffffffffffffffffffffffffffffffffffffffff831682525b92915050565b600060208201905073ffffffffffffffffffffffffffffffffffffffff831682525b92915050565b600060208201905073ffffffffffffffffffffffffffffffffffffffff831682525b92915050565b600060208201905073ffffffffffffffffffffffffffffffffffffffff831682525b92915050565b600060208201905073ffffffffffffffffffffffffffffffffffffffff831682525b92915050565b60006101c08201905067ffffffffffffffff8416825261505a6020830184614d52565b5b9392505050565b600060208252600f60208301527f4e6f20666c61736820626f72726f77000000000000000000000000000000000060408301526060820190505b919050565b600060208252600460208301527f4e6f6f700000000000000000000000000000000000000000000000000000000060408301526060820190505b919050565b600060208252601360208301527f4d7573742061646420636f6c6c61746572616c0000000000000000000000000060408301526060820190505b919050565b600060208252602360208301527f43616e7420696e637265617365202620646563726561736520636f6c6c61746560408301527f72616c000000000000000000000000000000000000000000000000000000000060608301526080820190505b919050565b600060208252601260208301527f506f736974696f6e20746f6f20736d616c6c000000000000000000000000000060408301526060820190505b919050565b600060208252601760208301527f496e73756666696369656e7420636f6c6c61746572616c00000000000000000060408301526060820190505b919050565b60006101a0820190506152158284614d52565b5b92915050565b6000608082019050825182526020830151602083015260408301516040830152606083015160608301525b92915050565b60006020820190508282525b92915050565b60006040820190508382528260208301525b9392505050565b600060c0820190508782528660208301528560408301528460608301528360808301528260a08301525b979650505050505050565b600060208201905063ffffffff831682525b92915050565b600060208201905067ffffffffffffffff831682525b92915050565b60006101c08201905067ffffffffffffffff841682526153046020830184614d52565b5b9392505050565b600060a08201905067ffffffffffffffff871682528560208301528460408301528360608301528260808301525b9695505050505050565b6000604051905081810181811067ffffffffffffffff8211171561536457fe5b80604052505b919050565b73ffffffffffffffffffffffffffffffffffffffff8116811415156153945760006000fd5b5b50565b63ffffffff8116811415156153ad5760006000fd5b5b50565b67ffffffffffffffff8116811415156153ca5760006000fd5b5b50565bfe5369676e6564536166654d6174683a206d756c7469706c69636174696f6e206f766572666c6f77a26469706673582212209ef87b7410f20d2d0d1670ca46c3a34078d147819789fb2b9248bc64bef0367664736f6c63430007060033",
  "linkReferences": {},
  "deployedLinkReferences": {}
}