{
  "_format": "hh-sol-artifact-1",
  "contractName": "Market",
  "sourceName": "contracts/core/logic/Market.sol",
  "abi": [
    {
      "inputs": [
        {
          "components": [
            {
              "internalType": "contract IGovernor",
              "name": "Governor",
              "type": "address"
            },
            {
              "internalType": "contract IProtocolLock",
              "name": "ProtocolLock",
              "type": "address"
            },
            {
              "internalType": "contract IPositionNFT",
              "name": "HuePositionNFT",
              "type": "address"
            },
            {
              "internalType": "contract IHue",
              "name": "Hue",
              "type": "address"
            },
            {
              "internalType": "contract ILendHue",
              "name": "LendHue",
              "type": "address"
            },
            {
              "internalType": "contract IAccounting",
              "name": "Accounting",
              "type": "address"
            }
          ],
          "internalType": "struct IMarket.ConstructorParams",
          "name": "params",
          "type": "tuple"
        }
      ],
      "stateMutability": "nonpayable",
      "type": "constructor"
    },
    {
      "anonymous": false,
      "inputs": [
        {
          "indexed": false,
          "internalType": "uint256",
          "name": "requirement",
          "type": "uint256"
        }
      ],
      "name": "CollateralizationRequirementUpdated",
      "type": "event"
    },
    {
      "anonymous": false,
      "inputs": [
        {
          "indexed": true,
          "internalType": "uint64",
          "name": "period",
          "type": "uint64"
        },
        {
          "indexed": false,
          "internalType": "uint64",
          "name": "periods",
          "type": "uint64"
        },
        {
          "indexed": false,
          "internalType": "uint256",
          "name": "newDebt",
          "type": "uint256"
        },
        {
          "indexed": false,
          "internalType": "uint256",
          "name": "rewardCount",
          "type": "uint256"
        },
        {
          "indexed": false,
          "internalType": "uint256",
          "name": "cumulativeDebt",
          "type": "uint256"
        },
        {
          "indexed": false,
          "internalType": "uint256",
          "name": "debtExchangeRate",
          "type": "uint256"
        }
      ],
      "name": "InterestAccrued",
      "type": "event"
    },
    {
      "anonymous": false,
      "inputs": [
        {
          "indexed": false,
          "internalType": "uint256",
          "name": "percentage",
          "type": "uint256"
        }
      ],
      "name": "InterestPortionToLendersUpdated",
      "type": "event"
    },
    {
      "anonymous": false,
      "inputs": [
        {
          "indexed": true,
          "internalType": "address",
          "name": "account",
          "type": "address"
        },
        {
          "indexed": false,
          "internalType": "uint256",
          "name": "hueCount",
          "type": "uint256"
        },
        {
          "indexed": false,
          "internalType": "uint256",
          "name": "lendTokenCount",
          "type": "uint256"
        }
      ],
      "name": "Lend",
      "type": "event"
    },
    {
      "anonymous": false,
      "inputs": [
        {
          "indexed": false,
          "internalType": "uint256",
          "name": "size",
          "type": "uint256"
        }
      ],
      "name": "MinPositionSizeUpdated",
      "type": "event"
    },
    {
      "anonymous": false,
      "inputs": [
        {
          "indexed": true,
          "internalType": "uint64",
          "name": "positionID",
          "type": "uint64"
        },
        {
          "indexed": false,
          "internalType": "uint256",
          "name": "debtIncrease",
          "type": "uint256"
        },
        {
          "indexed": false,
          "internalType": "uint256",
          "name": "debtDecrease",
          "type": "uint256"
        },
        {
          "indexed": false,
          "internalType": "uint256",
          "name": "collateralIncrease",
          "type": "uint256"
        },
        {
          "indexed": false,
          "internalType": "uint256",
          "name": "collateralDecrease",
          "type": "uint256"
        }
      ],
      "name": "PositionAdjusted",
      "type": "event"
    },
    {
      "anonymous": false,
      "inputs": [
        {
          "indexed": true,
          "internalType": "address",
          "name": "creator",
          "type": "address"
        },
        {
          "indexed": true,
          "internalType": "uint64",
          "name": "positionID",
          "type": "uint64"
        }
      ],
      "name": "PositionCreated",
      "type": "event"
    },
    {
      "anonymous": false,
      "inputs": [
        {
          "indexed": true,
          "internalType": "uint256",
          "name": "positionID",
          "type": "uint256"
        },
        {
          "indexed": true,
          "internalType": "uint64",
          "name": "period",
          "type": "uint64"
        },
        {
          "indexed": false,
          "internalType": "uint256",
          "name": "debtAfter",
          "type": "uint256"
        },
        {
          "indexed": false,
          "internalType": "uint256",
          "name": "tcpRewards",
          "type": "uint256"
        }
      ],
      "name": "PositionUpdated",
      "type": "event"
    },
    {
      "anonymous": false,
      "inputs": [
        {
          "indexed": true,
          "internalType": "address",
          "name": "account",
          "type": "address"
        },
        {
          "indexed": true,
          "internalType": "bool",
          "name": "isKickback",
          "type": "bool"
        },
        {
          "indexed": false,
          "internalType": "uint256",
          "name": "tcpRewards",
          "type": "uint256"
        }
      ],
      "name": "RewardsDistributed",
      "type": "event"
    },
    {
      "anonymous": false,
      "inputs": [],
      "name": "Stopped",
      "type": "event"
    },
    {
      "anonymous": false,
      "inputs": [
        {
          "indexed": false,
          "internalType": "uint32",
          "name": "duration",
          "type": "uint32"
        }
      ],
      "name": "TwapDurationUpdated",
      "type": "event"
    },
    {
      "anonymous": false,
      "inputs": [
        {
          "indexed": true,
          "internalType": "address",
          "name": "account",
          "type": "address"
        },
        {
          "indexed": false,
          "internalType": "uint256",
          "name": "hueCount",
          "type": "uint256"
        },
        {
          "indexed": false,
          "internalType": "uint256",
          "name": "lendTokenCount",
          "type": "uint256"
        }
      ],
      "name": "Unlend",
      "type": "event"
    },
    {
      "inputs": [],
      "name": "accounting",
      "outputs": [
        {
          "internalType": "contract IAccounting",
          "name": "",
          "type": "address"
        }
      ],
      "stateMutability": "view",
      "type": "function"
    },
    {
      "inputs": [],
      "name": "accrueInterest",
      "outputs": [],
      "stateMutability": "nonpayable",
      "type": "function"
    },
    {
      "inputs": [
        {
          "internalType": "uint64",
          "name": "positionID",
          "type": "uint64"
        },
        {
          "internalType": "int256",
          "name": "debtChange",
          "type": "int256"
        },
        {
          "internalType": "uint256",
          "name": "collateralDecrease",
          "type": "uint256"
        },
        {
          "internalType": "uint32",
          "name": "ui",
          "type": "uint32"
        }
      ],
      "name": "adjustPosition",
      "outputs": [],
      "stateMutability": "payable",
      "type": "function"
    },
    {
      "inputs": [
        {
          "internalType": "uint64",
          "name": "positionID",
          "type": "uint64"
        },
        {
          "internalType": "uint32",
          "name": "ui",
          "type": "uint32"
        }
      ],
      "name": "claimRewards",
      "outputs": [],
      "stateMutability": "nonpayable",
      "type": "function"
    },
    {
      "inputs": [],
      "name": "collateralizationRequirement",
      "outputs": [
        {
          "internalType": "uint256",
          "name": "",
          "type": "uint256"
        }
      ],
      "stateMutability": "view",
      "type": "function"
    },
    {
      "inputs": [
        {
          "internalType": "uint256",
          "name": "initialDebt",
          "type": "uint256"
        },
        {
          "internalType": "uint32",
          "name": "ui",
          "type": "uint32"
        }
      ],
      "name": "createPosition",
      "outputs": [
        {
          "internalType": "uint64",
          "name": "positionID",
          "type": "uint64"
        }
      ],
      "stateMutability": "payable",
      "type": "function"
    },
    {
      "inputs": [],
      "name": "currentPeriod",
      "outputs": [
        {
          "internalType": "uint64",
          "name": "period",
          "type": "uint64"
        }
      ],
      "stateMutability": "view",
      "type": "function"
    },
    {
      "inputs": [],
      "name": "deployer",
      "outputs": [
        {
          "internalType": "address",
          "name": "",
          "type": "address"
        }
      ],
      "stateMutability": "view",
      "type": "function"
    },
    {
      "inputs": [],
      "name": "firstPeriod",
      "outputs": [
        {
          "internalType": "uint64",
          "name": "",
          "type": "uint64"
        }
      ],
      "stateMutability": "view",
      "type": "function"
    },
    {
      "inputs": [],
      "name": "governor",
      "outputs": [
        {
          "internalType": "contract IGovernor",
          "name": "",
          "type": "address"
        }
      ],
      "stateMutability": "view",
      "type": "function"
    },
    {
      "inputs": [],
      "name": "hue",
      "outputs": [
        {
          "internalType": "contract IHue",
          "name": "",
          "type": "address"
        }
      ],
      "stateMutability": "view",
      "type": "function"
    },
    {
      "inputs": [],
      "name": "huePositionNFT",
      "outputs": [
        {
          "internalType": "contract IPositionNFT",
          "name": "",
          "type": "address"
        }
      ],
      "stateMutability": "view",
      "type": "function"
    },
    {
      "inputs": [],
      "name": "init",
      "outputs": [],
      "stateMutability": "nonpayable",
      "type": "function"
    },
    {
      "inputs": [],
      "name": "interestPortionToLenders",
      "outputs": [
        {
          "internalType": "uint256",
          "name": "",
          "type": "uint256"
        }
      ],
      "stateMutability": "view",
      "type": "function"
    },
    {
      "inputs": [],
      "name": "lastPeriodGlobalInterestAccrued",
      "outputs": [
        {
          "internalType": "uint64",
          "name": "",
          "type": "uint64"
        }
      ],
      "stateMutability": "view",
      "type": "function"
    },
    {
      "inputs": [
        {
          "internalType": "uint256",
          "name": "hueCount",
          "type": "uint256"
        }
      ],
      "name": "lend",
      "outputs": [],
      "stateMutability": "nonpayable",
      "type": "function"
    },
    {
      "inputs": [],
      "name": "lendHue",
      "outputs": [
        {
          "internalType": "contract ILendHue",
          "name": "",
          "type": "address"
        }
      ],
      "stateMutability": "view",
      "type": "function"
    },
    {
      "inputs": [],
      "name": "minPositionSize",
      "outputs": [
        {
          "internalType": "uint256",
          "name": "",
          "type": "uint256"
        }
      ],
      "stateMutability": "view",
      "type": "function"
    },
    {
      "inputs": [],
      "name": "periodLength",
      "outputs": [
        {
          "internalType": "uint64",
          "name": "",
          "type": "uint64"
        }
      ],
      "stateMutability": "view",
      "type": "function"
    },
    {
      "inputs": [
        {
          "internalType": "uint64",
          "name": "positionID",
          "type": "uint64"
        }
      ],
      "name": "removeKickback",
      "outputs": [],
      "stateMutability": "nonpayable",
      "type": "function"
    },
    {
      "inputs": [
        {
          "internalType": "uint256",
          "name": "requirement",
          "type": "uint256"
        }
      ],
      "name": "setCollateralizationRequirement",
      "outputs": [],
      "stateMutability": "nonpayable",
      "type": "function"
    },
    {
      "inputs": [
        {
          "internalType": "uint256",
          "name": "percentage",
          "type": "uint256"
        }
      ],
      "name": "setInterestPortionToLenders",
      "outputs": [],
      "stateMutability": "nonpayable",
      "type": "function"
    },
    {
      "inputs": [
        {
          "internalType": "uint256",
          "name": "size",
          "type": "uint256"
        }
      ],
      "name": "setMinPositionSize",
      "outputs": [],
      "stateMutability": "nonpayable",
      "type": "function"
    },
    {
      "inputs": [
        {
          "internalType": "uint32",
          "name": "duration",
          "type": "uint32"
        }
      ],
      "name": "setTwapDuration",
      "outputs": [],
      "stateMutability": "nonpayable",
      "type": "function"
    },
    {
      "inputs": [],
      "name": "stop",
      "outputs": [],
      "stateMutability": "nonpayable",
      "type": "function"
    },
    {
      "inputs": [],
      "name": "stopped",
      "outputs": [
        {
          "internalType": "bool",
          "name": "",
          "type": "bool"
        }
      ],
      "stateMutability": "view",
      "type": "function"
    },
    {
      "inputs": [
        {
          "internalType": "uint64",
          "name": "positionID",
          "type": "uint64"
        }
      ],
      "name": "systemGetUpdatedPosition",
      "outputs": [
        {
          "components": [
            {
              "internalType": "uint256",
              "name": "startCumulativeDebt",
              "type": "uint256"
            },
            {
              "internalType": "uint256",
              "name": "collateral",
              "type": "uint256"
            },
            {
              "internalType": "uint256",
              "name": "debt",
              "type": "uint256"
            },
            {
              "internalType": "uint256",
              "name": "startDebtExchangeRate",
              "type": "uint256"
            },
            {
              "internalType": "uint256",
              "name": "startTCPRewards",
              "type": "uint256"
            },
            {
              "internalType": "uint64",
              "name": "lastTimeUpdated",
              "type": "uint64"
            },
            {
              "internalType": "uint64",
              "name": "lastBorrowTime",
              "type": "uint64"
            },
            {
              "internalType": "int24",
              "name": "tick",
              "type": "int24"
            },
            {
              "internalType": "bool",
              "name": "tickSet",
              "type": "bool"
            },
            {
              "internalType": "uint64",
              "name": "tickIndex",
              "type": "uint64"
            },
            {
              "internalType": "uint32",
              "name": "ui",
              "type": "uint32"
            },
            {
              "internalType": "address",
              "name": "kickbackDestination",
              "type": "address"
            },
            {
              "internalType": "uint64",
              "name": "kickbackPortion",
              "type": "uint64"
            }
          ],
          "internalType": "struct IAccounting.DebtPosition",
          "name": "",
          "type": "tuple"
        }
      ],
      "stateMutability": "nonpayable",
      "type": "function"
    },
    {
      "inputs": [],
      "name": "twapDuration",
      "outputs": [
        {
          "internalType": "uint32",
          "name": "",
          "type": "uint32"
        }
      ],
      "stateMutability": "view",
      "type": "function"
    },
    {
      "inputs": [
        {
          "internalType": "uint256",
          "name": "lendTokenCount",
          "type": "uint256"
        }
      ],
      "name": "unlend",
      "outputs": [],
      "stateMutability": "nonpayable",
      "type": "function"
    },
    {
      "inputs": [
        {
          "internalType": "bytes4",
          "name": "",
          "type": "bytes4"
        }
      ],
      "name": "validUpdate",
      "outputs": [
        {
          "internalType": "bool",
          "name": "",
          "type": "bool"
        }
      ],
      "stateMutability": "view",
      "type": "function"
    },
    {
      "inputs": [
        {
          "internalType": "uint256",
          "name": "lendTokenCount",
          "type": "uint256"
        }
      ],
      "name": "valueOfLendTokensInHue",
      "outputs": [
        {
          "internalType": "uint256",
          "name": "",
          "type": "uint256"
        }
      ],
      "stateMutability": "view",
      "type": "function"
    }
  ],
  "bytecode": "0x610180604052600160026000509090556714d1120d7b160000600360005090905568878678326eac90000060046000509090556702c68af0bb1400006005600050909055610708600660006101000a81548163ffffffff021916908363ffffffff160217905550348015620000745760006000fd5b5060405162005bef38038062005bef83398181016040528101906200009a919062000594565b5b610e105b816000015182602001515b815b8073ffffffffffffffffffffffffffffffffffffffff1660808173ffffffffffffffffffffffffffffffffffffffff1660601b815260140150505b508073ffffffffffffffffffffffffffffffffffffffff1660a08173ffffffffffffffffffffffffffffffffffffffff1660601b815260140150505b505060018167ffffffffffffffff1662000142620004c260201b60201c565b67ffffffffffffffff168115156200015657fe5b040367ffffffffffffffff1660e08167ffffffffffffffff1660c01b815260080150508067ffffffffffffffff1660c08167ffffffffffffffff1660c01b815260080150505b50806040015173ffffffffffffffffffffffffffffffffffffffff166101008173ffffffffffffffffffffffffffffffffffffffff1660601b81526014015050806060015173ffffffffffffffffffffffffffffffffffffffff166101208173ffffffffffffffffffffffffffffffffffffffff1660601b81526014015050806080015173ffffffffffffffffffffffffffffffffffffffff166101408173ffffffffffffffffffffffffffffffffffffffff1660601b815260140150508060a0015173ffffffffffffffffffffffffffffffffffffffff166101608173ffffffffffffffffffffffffffffffffffffffff1660601b815260140150506000604051806080016040528063ef5e1cac60e01b7bffffffffffffffffffffffffffffffffffffffffffffffffffffffff19167bffffffffffffffffffffffffffffffffffffffffffffffffffffffff1916815260200163c433c80a60e01b7bffffffffffffffffffffffffffffffffffffffffffffffffffffffff19167bffffffffffffffffffffffffffffffffffffffffffffffffffffffff191681526020016306972dcd60e01b7bffffffffffffffffffffffffffffffffffffffffffffffffffffffff19167bffffffffffffffffffffffffffffffffffffffffffffffffffffffff19168152602001635a6127a960e01b7bffffffffffffffffffffffffffffffffffffffffffffffffffffffff19167bffffffffffffffffffffffffffffffffffffffffffffffffffffffff191681526020015090506000600090505b81506004811015620004775760016001600050600084846004811015156200040057fe5b60200201517bffffffffffffffffffffffffffffffffffffffffffffffffffffffff19167bffffffffffffffffffffffffffffffffffffffffffffffffffffffff1916815260200190815260200160002060006101000a81548160ff0219169083151502179055505b8080600101915050620003dc565b50336006600c6101000a81548173ffffffffffffffffffffffffffffffffffffffff021916908373ffffffffffffffffffffffffffffffffffffffff160217905550505b5062000669565b6000620004dc42620004e460201b62001b2317909060201c565b905080505b90565b600068010000000000000000821015156200056a576040517f08c379a00000000000000000000000000000000000000000000000000000000081526004018080602001828103825260118152602001807f6d6f7265207468616e203634206269747300000000000000000000000000000081526020015060200191505060405180910390fd5b81905062000573565b9190505662000668565b6000815190506200058e816200064b565b5b919050565b600060c08284031215620005a6578081fd5b60405160c081018181106001600160401b0382111715620005c357fe5b80604052508251620005d5816200064b565b808252506020830151620005e9816200064b565b80602083015250604083015162000600816200064b565b8060408301525062000615606084016200057d565b606082015262000628608084016200057d565b60808201526200063b60a084016200057d565b60a0820152809150505b92915050565b6001600160a01b03811681141515620006645760006000fd5b5b50565b5b60805160601c60a05160601c60c05160c01c60e05160c01c6101005160601c6101205160601c6101405160601c6101605160601c615407620007e8600039806108c25280610d655280610f4b528061102052806110c5528061114e5280611200528061145b528061153152806117d9528061188952806119dc528061211b5280612738528061288552806129fa5280612bc75280612bfe5280612dc6528061323352806132f652806133c3528061360252508061083352806109cd528061122d52806136a6525080610bcb52806111de5280612a925280612b2b52806130135280613387528061344852806134845280613509525080610a545280610c9d5280610e8352806113505280611393528061179d528061236752508061167b5280611bb95280613bb852508061169f5280611bda5280613bd9525080611cda5280611ecb5250806107a452806119435280611c335280611f5e528061226152806124145280612e6a52806130fb5280613ad4528061408852506154076000f3fe6080604052600436106101dc5760003560e01c80639624e83e11610102578063c4e3a63b11610095578063e1c7392a11610064578063e1c7392a14610668578063eb6843ce14610680578063ef5e1cac146106be578063f6979f29146106e8576101dc565b8063c4e3a63b146105a6578063d2ca2115146105d2578063d5f39488146105fe578063e11c87621461062a576101dc565b8063b2326b57116100d1578063b2326b57146104fa578063b6ae213a14610524578063bb8313c214610550578063c433c80a1461057c576101dc565b80639624e83e14610460578063a6aa57ce1461048c578063a6afed95146104b6578063a89f51ae146104ce576101dc565b80632cae02691161017a5780635a6127a9116101495780635a6127a9146103c457806375f12b21146103ee5780637b809bdd1461041a578063875bbc5114610436576101dc565b80632cae0269146103105780632e6c6f841461033c578063323741741461036c5780635658c01214610398576101dc565b80630c340a24116101b65780630c340a2414610250578063113cf1ab1461027c578063197b1bf5146102ba57806326d89545146102e4576101dc565b806306040618146101e257806306972dcd1461020e57806307da68f514610238576101dc565b60006000fd5b3480156101ef5760006000fd5b506101f8610714565b60405161020591906152a0565b60405180910390f35b34801561021b5760006000fd5b5061023660048036038101906102319190614b9e565b61072c565b005b3480156102455760006000fd5b5061024e610782565b005b34801561025d5760006000fd5b506102666107a2565b6040516102739190614f80565b60405180910390f35b3480156102895760006000fd5b506102a4600480360381019061029f91906149bc565b6107c6565b6040516102b19190614f44565b60405180910390f35b3480156102c75760006000fd5b506102e260048036038101906102dd9190614b9e565b6107eb565b005b3480156102f15760006000fd5b506102fa6109b5565b6040516103079190615288565b60405180910390f35b34801561031d5760006000fd5b506103266109cb565b6040516103339190614fd0565b60405180910390f35b61035660048036038101906103519190614bd6565b6109ef565b60405161036391906152a0565b60405180910390f35b3480156103795760006000fd5b50610382610bc9565b60405161038f9190614fa8565b60405180910390f35b3480156103a55760006000fd5b506103ae610bed565b6040516103bb9190615236565b60405180910390f35b3480156103d15760006000fd5b506103ec60048036038101906103e79190614b9e565b610bf6565b005b3480156103fb5760006000fd5b50610404610c69565b6040516104119190614f44565b60405180910390f35b610434600480360381019061042f9190614c7c565b610c7c565b005b3480156104435760006000fd5b5061045e60048036038101906104599190614ccc565b610e62565b005b34801561046d5760006000fd5b506104766110c3565b6040516104839190614f58565b60405180910390f35b3480156104995760006000fd5b506104b460048036038101906104af9190614b9e565b6110e7565b005b3480156104c35760006000fd5b506104cc611320565b005b3480156104db5760006000fd5b506104e461134e565b6040516104f19190614ff8565b60405180910390f35b3480156105075760006000fd5b50610522600480360381019061051d9190614c2e565b611372565b005b3480156105315760006000fd5b5061053a6115d3565b60405161054791906152a0565b60405180910390f35b34801561055d5760006000fd5b506105666115ed565b6040516105739190615236565b60405180910390f35b3480156105895760006000fd5b506105a4600480360381019061059f9190614c07565b6115f6565b005b3480156105b35760006000fd5b506105bc611679565b6040516105c991906152a0565b60405180910390f35b3480156105df5760006000fd5b506105e861169d565b6040516105f591906152a0565b60405180910390f35b34801561060b5760006000fd5b506106146116c1565b6040516106219190614e2e565b60405180910390f35b3480156106375760006000fd5b50610652600480360381019061064d9190614b9e565b6116e7565b60405161065f9190615236565b60405180910390f35b3480156106755760006000fd5b5061067e611715565b005b34801561068d5760006000fd5b506106a860048036038101906106a39190614c2e565b61192b565b6040516106b591906151eb565b60405180910390f35b3480156106cb5760006000fd5b506106e660048036038101906106e19190614b9e565b611aac565b005b3480156106f55760006000fd5b506106fe611b1a565b60405161070b9190615236565b60405180910390f35b6000610724611bb563ffffffff16565b905080505b90565b61073a611c2e63ffffffff16565b8060046000508190909055507f113d15441cef41c1a48eb1bc2c6fa7b881b201a5c4b2913272f80defe12ce3c3816040516107759190615236565b60405180910390a15b5b50565b610790611c2e63ffffffff16565b61079e611c8e63ffffffff16565b5b5b565b7f000000000000000000000000000000000000000000000000000000000000000081565b600160005060205280600052604060002060009150909054906101000a900460ff1681565b6107f9611cd863ffffffff16565b610807611deb63ffffffff16565b61081960008211611e7663ffffffff16565b6000339050600061082f836116e763ffffffff16565b90507f000000000000000000000000000000000000000000000000000000000000000073ffffffffffffffffffffffffffffffffffffffff166379cc679083856040518363ffffffff1660e01b815260040161088c929190614f15565b600060405180830381600087803b1580156108a75760006000fd5b505af11580156108bc573d600060003e3d6000fd5b505050507f000000000000000000000000000000000000000000000000000000000000000073ffffffffffffffffffffffffffffffffffffffff1663b241bbac83836040518363ffffffff1660e01b815260040161091b929190614f15565b600060405180830381600087803b1580156109365760006000fd5b505af115801561094b573d600060003e3d6000fd5b505050508173ffffffffffffffffffffffffffffffffffffffff167fefc56a1a7590fc4eb13cd40b6a2ceee41f3869c6ea818d20d9a18f2d6315ca188285604051610997929190615248565b60405180910390a250505b5b6109b1611ebc63ffffffff16565b5b50565b600660009054906101000a900463ffffffff1681565b7f000000000000000000000000000000000000000000000000000000000000000081565b60006109ff611cd863ffffffff16565b610a0d611f4e63ffffffff16565b600034111515610a52576040517f08c379a0000000000000000000000000000000000000000000000000000000008152600401610a49906150c9565b60405180910390fd5b7f000000000000000000000000000000000000000000000000000000000000000073ffffffffffffffffffffffffffffffffffffffff1663755edd17336040518263ffffffff1660e01b8152600401610aab9190614e56565b602060405180830381600087803b158015610ac65760006000fd5b505af1158015610adb573d600060003e3d6000fd5b505050506040513d601f19601f82011682018060405250810190610aff9190614c55565b90508050610b0b61480e565b8281610140019063ffffffff16908163ffffffff1681526020015050610b63610b448367ffffffffffffffff168361207b63ffffffff16565b83610b5687612549909063ffffffff16565b60006125f263ffffffff16565b8167ffffffffffffffff163373ffffffffffffffffffffffffffffffffffffffff167f3bac2cc5a46c2a400f0a6b532080f052814635a76bccdecf39397718b2d554dd60405160405180910390a3505b5b610bc2611ebc63ffffffff16565b5b92915050565b7f000000000000000000000000000000000000000000000000000000000000000081565b60036000505481565b610c04611c2e63ffffffff16565b806005600050819090905550670de0b6b3a764000060056000505411151515610c2d5760006000fd5b7f95c718270dc047bb0f84e533ee71ed5ee3961f14be924c0e493ba6e1ff078ae281604051610c5c9190615236565b60405180910390a15b5b50565b600060009054906101000a900460ff1681565b610c8a611cd863ffffffff16565b610c98611f4e63ffffffff16565b610d537f000000000000000000000000000000000000000000000000000000000000000073ffffffffffffffffffffffffffffffffffffffff1663430c208133876040518363ffffffff1660e01b8152600401610cf6929190614edc565b60206040518083038186803b158015610d0f5760006000fd5b505afa158015610d24573d600060003e3d6000fd5b505050506040513d601f19601f82011682018060405250810190610d489190614999565b612cde63ffffffff16565b6000610e1a8567ffffffffffffffff167f000000000000000000000000000000000000000000000000000000000000000073ffffffffffffffffffffffffffffffffffffffff16630f85fc5a886040518263ffffffff1660e01b8152600401610dbc91906152a0565b6101a06040518083038186803b158015610dd65760006000fd5b505afa158015610deb573d600060003e3d6000fd5b505050506040513d601f19601f82011682018060405250810190610e0f9190614a57565b61207b63ffffffff16565b90508181610140019063ffffffff16908163ffffffff1681526020015050610e4a818686866125f263ffffffff16565b505b5b610e5b611ebc63ffffffff16565b5b50505050565b610e70611cd863ffffffff16565b610e7e611deb63ffffffff16565b610f397f000000000000000000000000000000000000000000000000000000000000000073ffffffffffffffffffffffffffffffffffffffff1663430c208133856040518363ffffffff1660e01b8152600401610edc929190614edc565b60206040518083038186803b158015610ef55760006000fd5b505afa158015610f0a573d600060003e3d6000fd5b505050506040513d601f19601f82011682018060405250810190610f2e9190614999565b612cde63ffffffff16565b60006110008367ffffffffffffffff167f000000000000000000000000000000000000000000000000000000000000000073ffffffffffffffffffffffffffffffffffffffff16630f85fc5a866040518263ffffffff1660e01b8152600401610fa291906152a0565b6101a06040518083038186803b158015610fbc5760006000fd5b505afa158015610fd1573d600060003e3d6000fd5b505050506040513d601f19601f82011682018060405250810190610ff59190614a57565b61207b63ffffffff16565b90508181610140019063ffffffff16908163ffffffff16815260200150507f000000000000000000000000000000000000000000000000000000000000000073ffffffffffffffffffffffffffffffffffffffff16635a6beaf484836040518363ffffffff1660e01b81526004016110799291906152bc565b600060405180830381600087803b1580156110945760006000fd5b505af11580156110a9573d600060003e3d6000fd5b50505050505b5b6110be611ebc63ffffffff16565b5b5050565b7f000000000000000000000000000000000000000000000000000000000000000081565b6110f5611cd863ffffffff16565b611103611f4e63ffffffff16565b61111560008211611e7663ffffffff16565b6000339050611128612d5a63ffffffff16565b600061114a61113b6135fc63ffffffff16565b8461378990919063ffffffff16565b90507f000000000000000000000000000000000000000000000000000000000000000073ffffffffffffffffffffffffffffffffffffffff16632c73f09e846040518263ffffffff1660e01b81526004016111a59190615236565b600060405180830381600087803b1580156111c05760006000fd5b505af11580156111d5573d600060003e3d6000fd5b5050505061122b7f0000000000000000000000000000000000000000000000000000000000000000837f0000000000000000000000000000000000000000000000000000000000000000866137af63ffffffff16565b7f000000000000000000000000000000000000000000000000000000000000000073ffffffffffffffffffffffffffffffffffffffff1663449a52f883836040518363ffffffff1660e01b8152600401611286929190614f15565b600060405180830381600087803b1580156112a15760006000fd5b505af11580156112b6573d600060003e3d6000fd5b505050508173ffffffffffffffffffffffffffffffffffffffff167f8fff79b574da9a93d7a5408c2fc00c4a9b2b462321c1659b2fbbb9ff3dd221ff8483604051611302929190615248565b60405180910390a250505b5b61131c611ebc63ffffffff16565b5b50565b61132e6139da63ffffffff16565b61133c612d5a63ffffffff16565b5b61134b613a6b63ffffffff16565b5b565b7f000000000000000000000000000000000000000000000000000000000000000081565b611380611cd863ffffffff16565b61138e611f4e63ffffffff16565b6114497f000000000000000000000000000000000000000000000000000000000000000073ffffffffffffffffffffffffffffffffffffffff1663430c208133846040518363ffffffff1660e01b81526004016113ec929190614edc565b60206040518083038186803b1580156114055760006000fd5b505afa15801561141a573d600060003e3d6000fd5b505050506040513d601f19601f8201168201806040525081019061143e9190614999565b612cde63ffffffff16565b60006115108267ffffffffffffffff167f000000000000000000000000000000000000000000000000000000000000000073ffffffffffffffffffffffffffffffffffffffff16630f85fc5a856040518263ffffffff1660e01b81526004016114b291906152a0565b6101a06040518083038186803b1580156114cc5760006000fd5b505afa1580156114e1573d600060003e3d6000fd5b505050506040513d601f19601f820116820180604052508101906115059190614a57565b61207b63ffffffff16565b9050600081610140019063ffffffff16908163ffffffff16815260200150507f000000000000000000000000000000000000000000000000000000000000000073ffffffffffffffffffffffffffffffffffffffff16635a6beaf483836040518363ffffffff1660e01b815260040161158a9291906152bc565b600060405180830381600087803b1580156115a55760006000fd5b505af11580156115ba573d600060003e3d6000fd5b50505050505b5b6115cf611ebc63ffffffff16565b5b50565b600660049054906101000a900467ffffffffffffffff1681565b60046000505481565b611604611c2e63ffffffff16565b61012c8163ffffffff161015151561161c5760006000fd5b80600660006101000a81548163ffffffff021916908363ffffffff1602179055507f670aac3910a07dcfe5267c8b0bf2357abdb454e509764d13e94e85ee13c6da208160405161166c9190615288565b60405180910390a15b5b50565b7f000000000000000000000000000000000000000000000000000000000000000081565b7f000000000000000000000000000000000000000000000000000000000000000081565b6006600c9054906101000a900473ffffffffffffffffffffffffffffffffffffffff1681565b60006117096116fa6135fc63ffffffff16565b83613a7b90919063ffffffff16565b9050611710565b919050565b6117746006600c9054906101000a900473ffffffffffffffffffffffffffffffffffffffff1673ffffffffffffffffffffffffffffffffffffffff163373ffffffffffffffffffffffffffffffffffffffff1614612cde63ffffffff16565b6006600c6101000a81549073ffffffffffffffffffffffffffffffffffffffff021916905560007f000000000000000000000000000000000000000000000000000000000000000073ffffffffffffffffffffffffffffffffffffffff1663755edd177f00000000000000000000000000000000000000000000000000000000000000006040518263ffffffff1660e01b81526004016118149190614e2e565b602060405180830381600087803b15801561182f5760006000fd5b505af1158015611844573d600060003e3d6000fd5b505050506040513d601f19601f820116820180604052508101906118689190614c55565b67ffffffffffffffff1614151561187f5760006000fd5b61188761480e565b7f000000000000000000000000000000000000000000000000000000000000000073ffffffffffffffffffffffffffffffffffffffff16635a6beaf460006118d660008561207b63ffffffff16565b6040518363ffffffff1660e01b81526004016118f3929190615020565b600060405180830381600087803b15801561190e5760006000fd5b505af1158015611923573d600060003e3d6000fd5b50505050505b565b61193361480e565b6119416139da63ffffffff16565b7f000000000000000000000000000000000000000000000000000000000000000073ffffffffffffffffffffffffffffffffffffffff16639622cd8f336040518263ffffffff1660e01b815260040161199a9190614e56565b60006040518083038186803b1580156119b35760006000fd5b505afa1580156119c8573d600060003e3d6000fd5b50505050611a918267ffffffffffffffff167f000000000000000000000000000000000000000000000000000000000000000073ffffffffffffffffffffffffffffffffffffffff16630f85fc5a856040518263ffffffff1660e01b8152600401611a3391906152a0565b6101a06040518083038186803b158015611a4d5760006000fd5b505afa158015611a62573d600060003e3d6000fd5b505050506040513d601f19601f82011682018060405250810190611a869190614a57565b61207b63ffffffff16565b9050611a98565b611aa6613a6b63ffffffff16565b5b919050565b611aba611c2e63ffffffff16565b806003600050819090905550670de0b6b3a76400008110151515611ade5760006000fd5b7f52640f3e2df50709ead28077e905b85df7544c73c32a40259dff3ac35927d5ce81604051611b0d9190615236565b60405180910390a15b5b50565b60056000505481565b60006801000000000000000082101515611ba8576040517f08c379a00000000000000000000000000000000000000000000000000000000081526004018080602001828103825260118152602001807f6d6f7265207468616e203634206269747300000000000000000000000000000081526020015060200191505060405180910390fd5b819050611bb0565b919050565b60007f00000000000000000000000000000000000000000000000000000000000000007f000000000000000000000000000000000000000000000000000000000000000067ffffffffffffffff16611c11613aa163ffffffff16565b67ffffffffffffffff16811515611c2457fe5b0403905080505b90565b611c8b7f000000000000000000000000000000000000000000000000000000000000000073ffffffffffffffffffffffffffffffffffffffff163373ffffffffffffffffffffffffffffffffffffffff1614612cde63ffffffff16565b5b565b6001600060006101000a81548160ff0219169083151502179055507f7acc84e34091ae817647a4c49116f5cc07f319078ba80f8f5fde37ea7e25cbd660405160405180910390a15b565b7f000000000000000000000000000000000000000000000000000000000000000073ffffffffffffffffffffffffffffffffffffffff1663e97dcb626040518163ffffffff1660e01b8152600401600060405180830381600087803b158015611d415760006000fd5b505af1158015611d56573d600060003e3d6000fd5b50505050600260026000505414151515611ddb576040517f08c379a000000000000000000000000000000000000000000000000000000000815260040180806020018281038252600d8152602001807f4c50205265656e7472616e63790000000000000000000000000000000000000081526020015060200191505060405180910390fd5b600260026000508190909055505b565b600060009054906101000a900460ff16151515611e73576040517f08c379a00000000000000000000000000000000000000000000000000000000081526004018080602001828103825260138152602001807f436f6e74726163742069732073746f707065640000000000000000000000000081526020015060200191505060405180910390fd5b5b565b801515611eb8576040517f08c379a0000000000000000000000000000000000000000000000000000000008152600401611eaf9061508a565b60405180910390fd5b5b50565b600160026000508190909055507f000000000000000000000000000000000000000000000000000000000000000073ffffffffffffffffffffffffffffffffffffffff1663e9fad8ee6040518163ffffffff1660e01b8152600401600060405180830381600087803b158015611f325760006000fd5b505af1158015611f47573d600060003e3d6000fd5b505050505b565b611f5c611deb63ffffffff16565b7f000000000000000000000000000000000000000000000000000000000000000073ffffffffffffffffffffffffffffffffffffffff1663bf86d6906040518163ffffffff1660e01b815260040160206040518083038186803b158015611fc35760006000fd5b505afa158015611fd8573d600060003e3d6000fd5b505050506040513d6020811015611fef5760006000fd5b8101908080519060200190929190505050151515612078576040517f08c379a00000000000000000000000000000000000000000000000000000000081526004018080602001828103825260118152602001807f50726f746f636f6c2073687574646f776e00000000000000000000000000000081526020015060200191505060405180910390fd5b5b565b61208361480e565b6000612093613abc63ffffffff16565b905060006120a682613bb163ffffffff16565b9050600060008560a0015167ffffffffffffffff16146120d8576120d38560a00151613bb163ffffffff16565b6120db565b60005b90508067ffffffffffffffff168267ffffffffffffffff1611151561210557849350505050612543565b612113612d5a63ffffffff16565b60006121c5867f000000000000000000000000000000000000000000000000000000000000000073ffffffffffffffffffffffffffffffffffffffff166306ef2d806040518163ffffffff1660e01b815260040160806040518083038186803b1580156121805760006000fd5b505afa158015612195573d600060003e3d6000fd5b505050506040513d601f19601f820116820180604052508101906121b99190614b3e565b86613c3963ffffffff16565b80925081965050506000811180156121de575060008714155b156124f557600073ffffffffffffffffffffffffffffffffffffffff1685610160015173ffffffffffffffffffffffffffffffffffffffff16141580156122345750600085610180015167ffffffffffffffff16115b1561236357600061225d86610180015167ffffffffffffffff168361378990919063ffffffff16565b90507f000000000000000000000000000000000000000000000000000000000000000073ffffffffffffffffffffffffffffffffffffffff1663ef7a7cfa876101600151836040518363ffffffff1660e01b81526004016122bf929190614f15565b600060405180830381600087803b1580156122da5760006000fd5b505af11580156122ef573d600060003e3d6000fd5b505050506001151586610160015173ffffffffffffffffffffffffffffffffffffffff167f8079a05488a0f375c08504c3ba8b3a1371f5a192b7a141bc9294ef7ad41389d9836040516123429190615236565b60405180910390a361235d8183613d9f90919063ffffffff16565b91508150505b60007f000000000000000000000000000000000000000000000000000000000000000073ffffffffffffffffffffffffffffffffffffffff16636352211e896040518263ffffffff1660e01b81526004016123be9190615236565b60206040518083038186803b1580156123d75760006000fd5b505afa1580156123ec573d600060003e3d6000fd5b505050506040513d601f19601f820116820180604052508101906124109190614972565b90507f000000000000000000000000000000000000000000000000000000000000000073ffffffffffffffffffffffffffffffffffffffff1663ef7a7cfa82846040518363ffffffff1660e01b815260040161246d929190614f15565b600060405180830381600087803b1580156124885760006000fd5b505af115801561249d573d600060003e3d6000fd5b50505050600015158173ffffffffffffffffffffffffffffffffffffffff167f8079a05488a0f375c08504c3ba8b3a1371f5a192b7a141bc9294ef7ad41389d9846040516124eb9190615236565b60405180910390a3505b8267ffffffffffffffff16877fc99ac0d15229fa72f1b0756c0eed4e7ede3d80f4e4e0d308ce7a56d1366b8a03876040015184604051612536929190615248565b60405180910390a3505050505b92915050565b60007f8000000000000000000000000000000000000000000000000000000000000000821015156125e5576040517f08c379a00000000000000000000000000000000000000000000000000000000081526004018080602001828103825260128152602001807f746f6f2062696720666f7220696e74323536000000000000000000000000000081526020015060200191505060405180910390fd5b8190506125ed565b919050565b600034905060006000841361260857600061260a565b835b905060006000851261261d576000612651565b6126507fffffffffffffffffffffffffffffffffffffffffffffffffffffffffffffffff86613e2890919063ffffffff16565b5b90506000831180156126635750600084115b1515156126a5576040517f08c379a000000000000000000000000000000000000000000000000000000000815260040161269c90615108565b60405180910390fd5b6126d860008411806126b75750600085115b806126c25750600083115b806126cd5750600082115b611e7663ffffffff16565b60008211156127c4576126ef613aa163ffffffff16565b8760c0019067ffffffffffffffff16908167ffffffffffffffff1681526020015050612728828860400151613f5e90919063ffffffff16565b87604001909081815260200150507f000000000000000000000000000000000000000000000000000000000000000073ffffffffffffffffffffffffffffffffffffffff16632b7c7b11836040518263ffffffff1660e01b815260040161278f9190615236565b600060405180830381600087803b1580156127aa5760006000fd5b505af11580156127bf573d600060003e3d6000fd5b505050505b6000811115612911576127db613aa163ffffffff16565b67ffffffffffffffff1661280c610708610e10018960c0015167ffffffffffffffff16613fe790919063ffffffff16565b67ffffffffffffffff16101515612858576040517f08c379a000000000000000000000000000000000000000000000000000000000815260040161284f9061504b565b60405180910390fd5b808760400151101561286e578660400151905080505b8087604001818151039150909081815260200150507f000000000000000000000000000000000000000000000000000000000000000073ffffffffffffffffffffffffffffffffffffffff16632a7ba1f7826040518263ffffffff1660e01b81526004016128dc9190615236565b600060405180830381600087803b1580156128f75760006000fd5b505af115801561290c573d600060003e3d6000fd5b505050505b600083111561294057612931838860200151613f5e90919063ffffffff16565b87602001909081815260200150505b600084111561296f57612960848860200151613d9f90919063ffffffff16565b87602001909081815260200150505b6000876040015111156129f8576004600050548760400151101515156129ca576040517f08c379a00000000000000000000000000000000000000000000000000000000081526004016129c19061516d565b60405180910390fd5b60008411806129d95750600082115b156129f7576129f68760400151886020015161408463ffffffff16565b5b5b7f000000000000000000000000000000000000000000000000000000000000000073ffffffffffffffffffffffffffffffffffffffff16635a6beaf487896040518363ffffffff1660e01b8152600401612a539291906152bc565b600060405180830381600087803b158015612a6e5760006000fd5b505af1158015612a83573d600060003e3d6000fd5b505050506000821115612b20577f000000000000000000000000000000000000000000000000000000000000000073ffffffffffffffffffffffffffffffffffffffff1663449a52f833846040518363ffffffff1660e01b8152600401612aeb929190614ead565b600060405180830381600087803b158015612b065760006000fd5b505af1158015612b1b573d600060003e3d6000fd5b505050505b6000811115612bb9577f000000000000000000000000000000000000000000000000000000000000000073ffffffffffffffffffffffffffffffffffffffff166379cc679033836040518363ffffffff1660e01b8152600401612b84929190614ead565b600060405180830381600087803b158015612b9f5760006000fd5b505af1158015612bb4573d600060003e3d6000fd5b505050505b6000831115612bf357612bf27f00000000000000000000000000000000000000000000000000000000000000008461423863ffffffff16565b5b6000841115612c8c577f000000000000000000000000000000000000000000000000000000000000000073ffffffffffffffffffffffffffffffffffffffff16636250216933866040518363ffffffff1660e01b8152600401612c57929190614e7e565b600060405180830381600087803b158015612c725760006000fd5b505af1158015612c87573d600060003e3d6000fd5b505050505b8567ffffffffffffffff167fbbc7e03aef2c74664e8e5632c43a9cad7e6bf6eb7d0b8204e281a4fb65ca827183838688604051612ccc9493929190615261565b60405180910390a25050505b50505050565b801515612d56576040517f08c379a000000000000000000000000000000000000000000000000000000000815260040180806020018281038252600e8152602001807f4e6f7420417574686f72697a656400000000000000000000000000000000000081526020015060200191505060405180910390fd5b5b50565b6000612d6a6143be63ffffffff16565b9050600660049054906101000a900467ffffffffffffffff1667ffffffffffffffff168167ffffffffffffffff16111515612da557506135fa565b6000600660049054906101000a900467ffffffffffffffff168203905060007f000000000000000000000000000000000000000000000000000000000000000073ffffffffffffffffffffffffffffffffffffffff166306ef2d806040518163ffffffff1660e01b815260040160806040518083038186803b158015612e2b5760006000fd5b505afa158015612e40573d600060003e3d6000fd5b505050506040513d601f19601f82011682018060405250810190612e649190614b3e565b905060007f000000000000000000000000000000000000000000000000000000000000000073ffffffffffffffffffffffffffffffffffffffff166343f48fbd6040518163ffffffff1660e01b815260040160206040518083038186803b158015612ecf5760006000fd5b505afa158015612ee4573d600060003e3d6000fd5b505050506040513d601f19601f82011682018060405250810190612f089190614a30565b905060006130c283858473ffffffffffffffffffffffffffffffffffffffff1663a0fc0eda6040518163ffffffff1660e01b815260040160206040518083038186803b158015612f585760006000fd5b505afa158015612f6d573d600060003e3d6000fd5b505050506040513d601f19601f82011682018060405250810190612f919190614bba565b8573ffffffffffffffffffffffffffffffffffffffff16636d7fa6646040518163ffffffff1660e01b815260040160206040518083038186803b158015612fd85760006000fd5b505afa158015612fed573d600060003e3d6000fd5b505050506040513d601f19601f820116820180604052508101906130119190614999565b7f000000000000000000000000000000000000000000000000000000000000000073ffffffffffffffffffffffffffffffffffffffff166375172a8b6040518163ffffffff1660e01b815260040160206040518083038186803b1580156130785760006000fd5b505afa15801561308d573d600060003e3d6000fd5b505050506040513d601f19601f820116820180604052508101906130b19190614bba565b6005600050546143e463ffffffff16565b90506000610e1067ffffffffffffffff16620151808115156130e057fe5b0467ffffffffffffffff166131a98667ffffffffffffffff167f000000000000000000000000000000000000000000000000000000000000000073ffffffffffffffffffffffffffffffffffffffff1663a5d4198b6040518163ffffffff1660e01b8152600401602060405180830381600087803b1580156131625760006000fd5b505af1158015613177573d600060003e3d6000fd5b505050506040513d601f19601f8201168201806040525081019061319b9190614bba565b6145d290919063ffffffff16565b8115156131b257fe5b0490506040518060800160405280836000015181526020016131e1838760200151613f5e90919063ffffffff16565b815260200161321d61320a8867ffffffffffffffff1688600001516145d290919063ffffffff16565b8760400151613f5e90919063ffffffff16565b81526020018360200151815260200150935083507f000000000000000000000000000000000000000000000000000000000000000073ffffffffffffffffffffffffffffffffffffffff166378efc6b0856040518263ffffffff1660e01b815260040161328a9190615205565b600060405180830381600087803b1580156132a55760006000fd5b505af11580156132ba573d600060003e3d6000fd5b5050505085600660046101000a81548167ffffffffffffffff021916908367ffffffffffffffff160217905550600082606001511115613439577f000000000000000000000000000000000000000000000000000000000000000073ffffffffffffffffffffffffffffffffffffffff16632c73f09e83606001516040518263ffffffff1660e01b81526004016133519190615236565b600060405180830381600087803b15801561336c5760006000fd5b505af1158015613381573d600060003e3d6000fd5b505050507f000000000000000000000000000000000000000000000000000000000000000073ffffffffffffffffffffffffffffffffffffffff1663449a52f87f000000000000000000000000000000000000000000000000000000000000000084606001516040518363ffffffff1660e01b8152600401613404929190614f15565b600060405180830381600087803b15801561341f5760006000fd5b505af1158015613434573d600060003e3d6000fd5b505050505b6000826040015111156134fa577f000000000000000000000000000000000000000000000000000000000000000073ffffffffffffffffffffffffffffffffffffffff1663449a52f87f000000000000000000000000000000000000000000000000000000000000000084604001516040518363ffffffff1660e01b81526004016134c5929190614f15565b600060405180830381600087803b1580156134e05760006000fd5b505af11580156134f5573d600060003e3d6000fd5b505050505b600082608001511115613599577f000000000000000000000000000000000000000000000000000000000000000073ffffffffffffffffffffffffffffffffffffffff1663c59fb1ab83608001516040518263ffffffff1660e01b81526004016135649190615236565b600060405180830381600087803b15801561357f5760006000fd5b505af1158015613594573d600060003e3d6000fd5b505050505b8567ffffffffffffffff167fdfc2183705a66b49f12c66a6d3b2fa5cf3b7c67086e9c6e90d144befc94f436c8686600001518760200151886040015189606001516040516135eb9594939291906152e7565b60405180910390a25050505050505b565b600060007f000000000000000000000000000000000000000000000000000000000000000073ffffffffffffffffffffffffffffffffffffffff16637f250c616040518163ffffffff1660e01b815260040160206040518083038186803b1580156136675760006000fd5b505afa15801561367c573d600060003e3d6000fd5b505050506040513d601f19601f820116820180604052508101906136a09190614bba565b905060007f000000000000000000000000000000000000000000000000000000000000000073ffffffffffffffffffffffffffffffffffffffff166318160ddd6040518163ffffffff1660e01b815260040160206040518083038186803b15801561370b5760006000fd5b505afa158015613720573d600060003e3d6000fd5b505050506040513d601f19601f820116820180604052508101906137449190614bba565b905060008114806137555750600082145b6137715761376c8282613a7b90919063ffffffff16565b61377b565b670de0b6b3a76400005b925050506137865650505b90565b60006137a48383670de0b6b3a764000061467063ffffffff16565b905080505b92915050565b600060008573ffffffffffffffffffffffffffffffffffffffff166323b872dd60e01b868686604051602401808473ffffffffffffffffffffffffffffffffffffffff1681526020018373ffffffffffffffffffffffffffffffffffffffff1681526020018281526020019350505050604051602081830303815290604052907bffffffffffffffffffffffffffffffffffffffffffffffffffffffff19166020820180517bffffffffffffffffffffffffffffffffffffffffffffffffffffffff83818316178352505050506040518082805190602001908083835b6020831015156138b257805182525b60208201915060208101905060208303925061388c565b6001836020036101000a0380198251168184511680821785525050505050509050019150506000604051808303816000865af19150503d8060008114613914576040519150601f19603f3d011682016040523d82523d6000602084013e613919565b606091505b509150915081801561395a575060008151148061395957508080602001905160208110156139475760006000fd5b81019080805190602001909291905050505b5b15156139d1576040517f08c379a00000000000000000000000000000000000000000000000000000000081526004018080602001828103825260038152602001807f535446000000000000000000000000000000000000000000000000000000000081526020015060200191505060405180910390fd5b50505b50505050565b600260026000505414151515613a5b576040517f08c379a000000000000000000000000000000000000000000000000000000000815260040180806020018281038252600d8152602001807f4c43205265656e7472616e63790000000000000000000000000000000000000081526020015060200191505060405180910390fd5b600260026000508190909055505b565b600160026000508190909055505b565b6000613a9683670de0b6b3a76400008461467063ffffffff16565b905080505b92915050565b6000613ab442611b23909063ffffffff16565b905080505b90565b6000613acc613aa163ffffffff16565b9050805060007f000000000000000000000000000000000000000000000000000000000000000073ffffffffffffffffffffffffffffffffffffffff1663585690816040518163ffffffff1660e01b815260040160206040518083038186803b158015613b395760006000fd5b505afa158015613b4e573d600060003e3d6000fd5b505050506040513d601f19601f82011682018060405250810190613b729190614c55565b905060008167ffffffffffffffff16118015613ba157508167ffffffffffffffff168167ffffffffffffffff16105b15613bac5780915081505b505b90565b6000613c2f7f00000000000000000000000000000000000000000000000000000000000000007f000000000000000000000000000000000000000000000000000000000000000067ffffffffffffffff168467ffffffffffffffff16811515613c1657fe5b0467ffffffffffffffff1661477190919063ffffffff16565b905080505b919050565b613c4161480e565b6000849150815060008260a0015167ffffffffffffffff16118015613c6a575060008260400151115b15613d3a57613c908460600151836060015184604001516146709092919063ffffffff16565b8260400190908181526020015050613d35613cc28360a001518567ffffffffffffffff1661477190919063ffffffff16565b67ffffffffffffffff16610e1067ffffffffffffffff16613d26613cf786608001518960200151613d9f90919063ffffffff16565b613d1287600001518a60400151613d9f90919063ffffffff16565b87604001516146709092919063ffffffff16565b6146709092919063ffffffff16565b905080505b836060015182606001909081815260200150508360200151826080019090818152602001505083604001518260000190908181526020015050828260a0019067ffffffffffffffff16908167ffffffffffffffff16815260200150505b935093915050565b60008282840391508111151515613e21576040517f08c379a000000000000000000000000000000000000000000000000000000000815260040180806020018281038252600d8152602001807f7375622d756e646572666c6f770000000000000000000000000000000000000081526020015060200191505060405180910390fd5b5b92915050565b60006000831415613e3c5760009050613f58565b7fffffffffffffffffffffffffffffffffffffffffffffffffffffffffffffffff83148015613e8a57507f800000000000000000000000000000000000000000000000000000000000000082145b151515613ee2576040517f08c379a00000000000000000000000000000000000000000000000000000000081526004018080602001828103825260278152602001806153ab6027913960400191505060405180910390fd5b60008284029050828482811515613ef557fe5b05141515613f4e576040517f08c379a00000000000000000000000000000000000000000000000000000000081526004018080602001828103825260278152602001806153ab6027913960400191505060405180910390fd5b80915050613f5856505b92915050565b60008282840191508110151515613fe0576040517f08c379a000000000000000000000000000000000000000000000000000000000815260040180806020018281038252600c8152602001807f6164642d6f766572666c6f77000000000000000000000000000000000000000081526020015060200191505060405180910390fd5b5b92915050565b60008267ffffffffffffffff1682840191508167ffffffffffffffff161015151561407d576040517f08c379a000000000000000000000000000000000000000000000000000000000815260040180806020018281038252600c8152602001807f6164642d6f766572666c6f77000000000000000000000000000000000000000081526020015060200191505060405180910390fd5b5b92915050565b60007f000000000000000000000000000000000000000000000000000000000000000073ffffffffffffffffffffffffffffffffffffffff1663d3419bf36040518163ffffffff1660e01b815260040160206040518083038186803b1580156140ed5760006000fd5b505afa158015614102573d600060003e3d6000fd5b505050506040513d601f19601f820116820180604052508101906141269190614a09565b73ffffffffffffffffffffffffffffffffffffffff1663fa42dcf4600660009054906101000a900463ffffffff166040518263ffffffff1660e01b81526004016141709190615288565b60206040518083038186803b1580156141895760006000fd5b505afa15801561419e573d600060003e3d6000fd5b505050506040513d601f19601f820116820180604052508101906141c29190614bba565b90506141dc836003600050546145d290919063ffffffff16565b6141ef82846145d290919063ffffffff16565b10151515614232576040517f08c379a0000000000000000000000000000000000000000000000000000000008152600401614229906151ac565b60405180910390fd5b505b5050565b60008273ffffffffffffffffffffffffffffffffffffffff1682600067ffffffffffffffff8111801561426b5760006000fd5b506040519080825280601f01601f19166020018201604052801561429e5781602001600182028036833780820191505090505b506040518082805190602001908083835b6020831015156142d557805182525b6020820191506020810190506020830392506142af565b6001836020036101000a03801982511681845116808217855250505050505090500191505060006040518083038185875af1925050503d8060008114614337576040519150601f19603f3d011682016040523d82523d6000602084013e61433c565b606091505b505090508015156143b8576040517f08c379a00000000000000000000000000000000000000000000000000000000081526004018080602001828103825260038152602001807f535445000000000000000000000000000000000000000000000000000000000081526020015060200191505060405180910390fd5b505b5050565b60006143dc6143d1613abc63ffffffff16565b613bb163ffffffff16565b905080505b90565b6143ec6148c2565b60008514156144235786600001518160000190908181526020015050866060015181602001909081815260200150508090506145c8565b60006144698767ffffffffffffffff16610e1067ffffffffffffffff166301e1338081151561444e57fe5b0467ffffffffffffffff16886146709092919063ffffffff16565b90506000856144925761448d82670de0b6b3a7640000613d9f90919063ffffffff16565b6144ae565b6144ad82670de0b6b3a7640000613f5e90919063ffffffff16565b5b90506144c7818a6060015161378990919063ffffffff16565b83602001909081815260200150506144f683602001518a606001518b600001516146709092919063ffffffff16565b836000019090818152602001505088600001518360000151111561455f57600089600001518460000151039050614536858261378990919063ffffffff16565b8460600190908181526020015050836060015181038460400190908181526020015050506145c5565b8860000151836000015110156145c457600083600001518a6000015103905085811015156145b25789600001518460000190908181526020015050896060015184602001909081815260200150506145c2565b8084608001909081815260200150505b505b5b50505b9695505050505050565b600060008214806145f2575082828385029250828115156145ef57fe5b04145b1515614669576040517f08c379a000000000000000000000000000000000000000000000000000000000815260040180806020018281038252600c8152602001807f6d756c2d6f766572666c6f77000000000000000000000000000000000000000081526020015060200191505060405180910390fd5b5b92915050565b60006000600060001985870985870292508281108382030391505060008114156146b3576000841115156146a45760006000fd5b8382049250829250505061476a565b80841115156146c25760006000fd5b600084868809905082811182039150808303925060008586600003169050808604955080840493506001818260000304019050808302841793508350600060028760030218905080870260020381029050805080870260020381029050805080870260020381029050805080870260020381029050805080870260020381029050805080870260020381029050805080850295508550859550505050505061476a5650505050505b9392505050565b60008267ffffffffffffffff1682840391508167ffffffffffffffff1611151515614807576040517f08c379a000000000000000000000000000000000000000000000000000000000815260040180806020018281038252600d8152602001807f7375622d756e646572666c6f770000000000000000000000000000000000000081526020015060200191505060405180910390fd5b5b92915050565b604051806101a001604052806000815260200160008152602001600081526020016000815260200160008152602001600067ffffffffffffffff168152602001600067ffffffffffffffff168152602001600060020b8152602001600015158152602001600067ffffffffffffffff168152602001600063ffffffff168152602001600073ffffffffffffffffffffffffffffffffffffffff168152602001600067ffffffffffffffff1681526020015090565b6040518060a0016040528060008152602001600081526020016000815260200160008152602001600081526020015090566153a9565b6000815190506149078161534a565b5b919050565b600081519050801515811415156149245760006000fd5b5b919050565b6000815190508060020b811415156149425760006000fd5b5b919050565b60008151905061495781615373565b5b919050565b60008151905061496c8161538c565b5b919050565b600060208284031215614983578081fd5b815161498e8161534a565b809150505b92915050565b6000602082840312156149aa578081fd5b6149b38261490d565b90505b92915050565b6000602082840312156149cd578081fd5b81357fffffffff000000000000000000000000000000000000000000000000000000008116811415156149fe578182fd5b809150505b92915050565b600060208284031215614a1a578081fd5b8151614a258161534a565b809150505b92915050565b600060208284031215614a41578081fd5b8151614a4c8161534a565b809150505b92915050565b60006101a0808385031215614a6a578182fd5b614a738161531f565b90508251815260208301516020820152604083015160408201526060830151606082015260808301516080820152614aad60a0840161495d565b60a0820152614abe60c0840161495d565b60c0820152614acf60e0840161492a565b60e0820152610100614ae281850161490d565b8183015250610120614af581850161495d565b8183015250610140614b08818501614948565b8183015250610160614b1b8185016148f8565b8183015250610180614b2e81850161495d565b8183015250809150505b92915050565b600060808284031215614b4f578081fd5b6040516080810181811067ffffffffffffffff82111715614b6c57fe5b806040525082518152602083015160208201526040830151604082015260608301516060820152809150505b92915050565b600060208284031215614baf578081fd5b813590505b92915050565b600060208284031215614bcb578081fd5b815190505b92915050565b6000600060408385031215614be9578081fd5b823591506020830135614bfb81615373565b809150505b9250929050565b600060208284031215614c18578081fd5b8135614c2381615373565b809150505b92915050565b600060208284031215614c3f578081fd5b8135614c4a8161538c565b809150505b92915050565b600060208284031215614c66578081fd5b8151614c718161538c565b809150505b92915050565b600060006000600060808587031215614c93578182fd5b8435614c9e8161538c565b8094505060208501359250604085013591506060850135614cbe81615373565b809150505b92959194509250565b6000600060408385031215614cdf578182fd5b8235614cea8161538c565b809250506020830135614cfc81615373565b809150505b9250929050565b73ffffffffffffffffffffffffffffffffffffffff811682525b5050565b80151582525b5050565b8060020b82525b5050565b805182526020810151602083015260408101516040830152606081015160608301526080810151608083015260a0810151614d7960a0840182614e1c565b5060c0810151614d8c60c0840182614e1c565b5060e0810151614d9f60e0840182614d30565b5061010080820151614db382850182614d26565b505061012080820151614dc882850182614e1c565b505061014080820151614ddd82850182614e0e565b505061016080820151614df282850182614d08565b505061018080820151614e0782850182614e1c565b50505b5050565b63ffffffff811682525b5050565b67ffffffffffffffff811682525b5050565b600060208201905073ffffffffffffffffffffffffffffffffffffffff831682525b92915050565b600060208201905073ffffffffffffffffffffffffffffffffffffffff831682525b92915050565b600060408201905073ffffffffffffffffffffffffffffffffffffffff841682528260208301525b9392505050565b600060408201905073ffffffffffffffffffffffffffffffffffffffff841682528260208301525b9392505050565b600060408201905073ffffffffffffffffffffffffffffffffffffffff8416825267ffffffffffffffff831660208301525b9392505050565b600060408201905073ffffffffffffffffffffffffffffffffffffffff841682528260208301525b9392505050565b600060208201905082151582525b92915050565b600060208201905073ffffffffffffffffffffffffffffffffffffffff831682525b92915050565b600060208201905073ffffffffffffffffffffffffffffffffffffffff831682525b92915050565b600060208201905073ffffffffffffffffffffffffffffffffffffffff831682525b92915050565b600060208201905073ffffffffffffffffffffffffffffffffffffffff831682525b92915050565b600060208201905073ffffffffffffffffffffffffffffffffffffffff831682525b92915050565b60006101c08201905067ffffffffffffffff841682526150436020830184614d3b565b5b9392505050565b600060208252600f60208301527f4e6f20666c61736820626f72726f77000000000000000000000000000000000060408301526060820190505b919050565b600060208252600460208301527f4e6f6f700000000000000000000000000000000000000000000000000000000060408301526060820190505b919050565b600060208252601360208301527f4d7573742061646420636f6c6c61746572616c0000000000000000000000000060408301526060820190505b919050565b600060208252602360208301527f43616e7420696e637265617365202620646563726561736520636f6c6c61746560408301527f72616c000000000000000000000000000000000000000000000000000000000060608301526080820190505b919050565b600060208252601260208301527f506f736974696f6e20746f6f20736d616c6c000000000000000000000000000060408301526060820190505b919050565b600060208252601760208301527f496e73756666696369656e7420636f6c6c61746572616c00000000000000000060408301526060820190505b919050565b60006101a0820190506151fe8284614d3b565b5b92915050565b6000608082019050825182526020830151602083015260408301516040830152606083015160608301525b92915050565b60006020820190508282525b92915050565b60006040820190508382528260208301525b9392505050565b60006080820190508582528460208301528360408301528260608301525b95945050505050565b600060208201905063ffffffff831682525b92915050565b600060208201905067ffffffffffffffff831682525b92915050565b60006101c08201905067ffffffffffffffff841682526152df6020830184614d3b565b5b9392505050565b600060a08201905067ffffffffffffffff871682528560208301528460408301528360608301528260808301525b9695505050505050565b6000604051905081810181811067ffffffffffffffff8211171561533f57fe5b80604052505b919050565b73ffffffffffffffffffffffffffffffffffffffff81168114151561536f5760006000fd5b5b50565b63ffffffff8116811415156153885760006000fd5b5b50565b67ffffffffffffffff8116811415156153a55760006000fd5b5b50565bfe5369676e6564536166654d6174683a206d756c7469706c69636174696f6e206f766572666c6f77a26469706673582212204c41191ebe911ac0b956cbc2b25b34617e956cf565c362ddb9fb8197fa16c35764736f6c63430007060033",
  "linkReferences": {},
  "deployedLinkReferences": {}
}