{
  "_format": "hh-sol-artifact-1",
  "contractName": "Market",
  "sourceName": "contracts/core/logic/Market.sol",
  "abi": [
    {
      "inputs": [],
      "stateMutability": "nonpayable",
      "type": "constructor"
    },
    {
      "anonymous": false,
      "inputs": [
        {
          "indexed": true,
          "internalType": "address",
          "name": "governor",
          "type": "address"
        }
      ],
      "name": "Initialized",
      "type": "event"
    },
    {
      "anonymous": false,
      "inputs": [
        {
          "indexed": true,
          "internalType": "uint64",
          "name": "period",
          "type": "uint64"
        },
        {
          "indexed": false,
          "internalType": "uint64",
          "name": "periods",
          "type": "uint64"
        },
        {
          "indexed": false,
          "internalType": "uint256",
          "name": "newDebt",
          "type": "uint256"
        },
        {
          "indexed": false,
          "internalType": "uint256",
          "name": "rewardCount",
          "type": "uint256"
        },
        {
          "indexed": false,
          "internalType": "uint256",
          "name": "cumulativeDebt",
          "type": "uint256"
        },
        {
          "indexed": false,
          "internalType": "uint256",
          "name": "debtExchangeRate",
          "type": "uint256"
        }
      ],
      "name": "InterestAccrued",
      "type": "event"
    },
    {
      "anonymous": false,
      "inputs": [
        {
          "indexed": true,
          "internalType": "address",
          "name": "account",
          "type": "address"
        },
        {
          "indexed": false,
          "internalType": "uint256",
          "name": "hueCount",
          "type": "uint256"
        },
        {
          "indexed": false,
          "internalType": "uint256",
          "name": "lendTokenCount",
          "type": "uint256"
        }
      ],
      "name": "Lend",
      "type": "event"
    },
    {
      "anonymous": false,
      "inputs": [
        {
          "indexed": true,
          "internalType": "string",
          "name": "paramName",
          "type": "string"
        },
        {
          "indexed": false,
          "internalType": "uint256",
          "name": "value",
          "type": "uint256"
        }
      ],
      "name": "ParameterUpdated",
      "type": "event"
    },
    {
      "anonymous": false,
      "inputs": [
        {
          "indexed": true,
          "internalType": "string",
          "name": "paramName",
          "type": "string"
        },
        {
          "indexed": false,
          "internalType": "uint64",
          "name": "value",
          "type": "uint64"
        }
      ],
      "name": "ParameterUpdated64",
      "type": "event"
    },
    {
      "anonymous": false,
      "inputs": [
        {
          "indexed": true,
          "internalType": "string",
          "name": "paramName",
          "type": "string"
        },
        {
          "indexed": false,
          "internalType": "address",
          "name": "value",
          "type": "address"
        }
      ],
      "name": "ParameterUpdatedAddress",
      "type": "event"
    },
    {
      "anonymous": false,
      "inputs": [
        {
          "indexed": true,
          "internalType": "uint64",
          "name": "positionID",
          "type": "uint64"
        },
        {
          "indexed": false,
          "internalType": "uint256",
          "name": "debtIncrease",
          "type": "uint256"
        },
        {
          "indexed": false,
          "internalType": "uint256",
          "name": "debtDecrease",
          "type": "uint256"
        },
        {
          "indexed": false,
          "internalType": "uint256",
          "name": "collateralIncrease",
          "type": "uint256"
        },
        {
          "indexed": false,
          "internalType": "uint256",
          "name": "collateralDecrease",
          "type": "uint256"
        }
      ],
      "name": "PositionAdjusted",
      "type": "event"
    },
    {
      "anonymous": false,
      "inputs": [
        {
          "indexed": true,
          "internalType": "address",
          "name": "creator",
          "type": "address"
        },
        {
          "indexed": true,
          "internalType": "uint64",
          "name": "positionID",
          "type": "uint64"
        }
      ],
      "name": "PositionCreated",
      "type": "event"
    },
    {
      "anonymous": false,
      "inputs": [
        {
          "indexed": true,
          "internalType": "uint256",
          "name": "positionID",
          "type": "uint256"
        },
        {
          "indexed": true,
          "internalType": "uint64",
          "name": "period",
          "type": "uint64"
        },
        {
          "indexed": false,
          "internalType": "uint256",
          "name": "debtAfter",
          "type": "uint256"
        },
        {
          "indexed": false,
          "internalType": "uint256",
          "name": "tcpRewards",
          "type": "uint256"
        }
      ],
      "name": "PositionUpdated",
      "type": "event"
    },
    {
      "anonymous": false,
      "inputs": [
        {
          "indexed": true,
          "internalType": "address",
          "name": "account",
          "type": "address"
        },
        {
          "indexed": true,
          "internalType": "bool",
          "name": "isKickback",
          "type": "bool"
        },
        {
          "indexed": false,
          "internalType": "uint256",
          "name": "tcpRewards",
          "type": "uint256"
        }
      ],
      "name": "RewardsDistributed",
      "type": "event"
    },
    {
      "anonymous": false,
      "inputs": [],
      "name": "Stopped",
      "type": "event"
    },
    {
      "anonymous": false,
      "inputs": [
        {
          "indexed": true,
          "internalType": "address",
          "name": "account",
          "type": "address"
        },
        {
          "indexed": false,
          "internalType": "uint256",
          "name": "hueCount",
          "type": "uint256"
        },
        {
          "indexed": false,
          "internalType": "uint256",
          "name": "lendTokenCount",
          "type": "uint256"
        }
      ],
      "name": "Unlend",
      "type": "event"
    },
    {
      "inputs": [],
      "name": "accrueInterest",
      "outputs": [],
      "stateMutability": "nonpayable",
      "type": "function"
    },
    {
      "inputs": [
        {
          "internalType": "uint64",
          "name": "positionID",
          "type": "uint64"
        },
        {
          "internalType": "int256",
          "name": "debtChange",
          "type": "int256"
        },
        {
          "internalType": "uint256",
          "name": "collateralDecrease",
          "type": "uint256"
        },
        {
          "internalType": "uint32",
          "name": "ui",
          "type": "uint32"
        }
      ],
      "name": "adjustPosition",
      "outputs": [],
      "stateMutability": "payable",
      "type": "function"
    },
    {
      "inputs": [
        {
          "internalType": "uint64",
          "name": "positionID",
          "type": "uint64"
        },
        {
          "internalType": "uint32",
          "name": "ui",
          "type": "uint32"
        }
      ],
      "name": "claimRewards",
      "outputs": [],
      "stateMutability": "nonpayable",
      "type": "function"
    },
    {
      "inputs": [],
      "name": "collateralizationRequirement",
      "outputs": [
        {
          "internalType": "uint256",
          "name": "",
          "type": "uint256"
        }
      ],
      "stateMutability": "view",
      "type": "function"
    },
    {
      "inputs": [
        {
          "internalType": "uint256",
          "name": "initialDebt",
          "type": "uint256"
        },
        {
          "internalType": "uint32",
          "name": "ui",
          "type": "uint32"
        }
      ],
      "name": "createPosition",
      "outputs": [
        {
          "internalType": "uint64",
          "name": "positionID",
          "type": "uint64"
        }
      ],
      "stateMutability": "payable",
      "type": "function"
    },
    {
      "inputs": [],
      "name": "currentPeriod",
      "outputs": [
        {
          "internalType": "uint64",
          "name": "period",
          "type": "uint64"
        }
      ],
      "stateMutability": "view",
      "type": "function"
    },
    {
      "inputs": [],
      "name": "deployer",
      "outputs": [
        {
          "internalType": "address",
          "name": "",
          "type": "address"
        }
      ],
      "stateMutability": "view",
      "type": "function"
    },
    {
      "inputs": [],
      "name": "finalizeInitialization",
      "outputs": [],
      "stateMutability": "nonpayable",
      "type": "function"
    },
    {
      "inputs": [],
      "name": "firstPeriod",
      "outputs": [
        {
          "internalType": "uint64",
          "name": "",
          "type": "uint64"
        }
      ],
      "stateMutability": "view",
      "type": "function"
    },
    {
      "inputs": [],
      "name": "governor",
      "outputs": [
        {
          "internalType": "contract IGovernor",
          "name": "",
          "type": "address"
        }
      ],
      "stateMutability": "view",
      "type": "function"
    },
    {
      "inputs": [],
      "name": "huePositionNFT",
      "outputs": [
        {
          "internalType": "contract IPositionNFT",
          "name": "",
          "type": "address"
        }
      ],
      "stateMutability": "view",
      "type": "function"
    },
    {
      "inputs": [
        {
          "internalType": "contract IGovernor",
          "name": "_governor",
          "type": "address"
        }
      ],
      "name": "init",
      "outputs": [],
      "stateMutability": "nonpayable",
      "type": "function"
    },
    {
      "inputs": [],
      "name": "interestPortionToLenders",
      "outputs": [
        {
          "internalType": "uint256",
          "name": "",
          "type": "uint256"
        }
      ],
      "stateMutability": "view",
      "type": "function"
    },
    {
      "inputs": [],
      "name": "lastPeriodGlobalInterestAccrued",
      "outputs": [
        {
          "internalType": "uint64",
          "name": "",
          "type": "uint64"
        }
      ],
      "stateMutability": "view",
      "type": "function"
    },
    {
      "inputs": [
        {
          "internalType": "uint256",
          "name": "hueCount",
          "type": "uint256"
        }
      ],
      "name": "lend",
      "outputs": [],
      "stateMutability": "nonpayable",
      "type": "function"
    },
    {
      "inputs": [],
      "name": "lendHue",
      "outputs": [
        {
          "internalType": "contract ILendHue",
          "name": "",
          "type": "address"
        }
      ],
      "stateMutability": "view",
      "type": "function"
    },
    {
      "inputs": [],
      "name": "minPositionSize",
      "outputs": [
        {
          "internalType": "uint256",
          "name": "",
          "type": "uint256"
        }
      ],
      "stateMutability": "view",
      "type": "function"
    },
    {
      "inputs": [],
      "name": "periodLength",
      "outputs": [
        {
          "internalType": "uint64",
          "name": "",
          "type": "uint64"
        }
      ],
      "stateMutability": "view",
      "type": "function"
    },
    {
      "inputs": [
        {
          "internalType": "uint64",
          "name": "positionID",
          "type": "uint64"
        }
      ],
      "name": "removeKickback",
      "outputs": [],
      "stateMutability": "nonpayable",
      "type": "function"
    },
    {
      "inputs": [
        {
          "internalType": "uint256",
          "name": "requirement",
          "type": "uint256"
        }
      ],
      "name": "setCollateralizationRequirement",
      "outputs": [],
      "stateMutability": "nonpayable",
      "type": "function"
    },
    {
      "inputs": [
        {
          "internalType": "uint256",
          "name": "percentage",
          "type": "uint256"
        }
      ],
      "name": "setInterestPortionToLenders",
      "outputs": [],
      "stateMutability": "nonpayable",
      "type": "function"
    },
    {
      "inputs": [
        {
          "internalType": "uint256",
          "name": "size",
          "type": "uint256"
        }
      ],
      "name": "setMinPositionSize",
      "outputs": [],
      "stateMutability": "nonpayable",
      "type": "function"
    },
    {
      "inputs": [
        {
          "internalType": "uint32",
          "name": "duration",
          "type": "uint32"
        }
      ],
      "name": "setTwapDuration",
      "outputs": [],
      "stateMutability": "nonpayable",
      "type": "function"
    },
    {
      "inputs": [],
      "name": "stop",
      "outputs": [],
      "stateMutability": "nonpayable",
      "type": "function"
    },
    {
      "inputs": [],
      "name": "stopped",
      "outputs": [
        {
          "internalType": "bool",
          "name": "",
          "type": "bool"
        }
      ],
      "stateMutability": "view",
      "type": "function"
    },
    {
      "inputs": [
        {
          "internalType": "uint64",
          "name": "positionID",
          "type": "uint64"
        }
      ],
      "name": "systemGetUpdatedPosition",
      "outputs": [
        {
          "components": [
            {
              "internalType": "uint256",
              "name": "startCumulativeDebt",
              "type": "uint256"
            },
            {
              "internalType": "uint256",
              "name": "collateral",
              "type": "uint256"
            },
            {
              "internalType": "uint256",
              "name": "debt",
              "type": "uint256"
            },
            {
              "internalType": "uint256",
              "name": "startDebtExchangeRate",
              "type": "uint256"
            },
            {
              "internalType": "uint256",
              "name": "startTCPRewards",
              "type": "uint256"
            },
            {
              "internalType": "uint64",
              "name": "lastTimeUpdated",
              "type": "uint64"
            },
            {
              "internalType": "uint64",
              "name": "lastBorrowTime",
              "type": "uint64"
            },
            {
              "internalType": "int24",
              "name": "tick",
              "type": "int24"
            },
            {
              "internalType": "bool",
              "name": "tickSet",
              "type": "bool"
            },
            {
              "internalType": "uint64",
              "name": "tickIndex",
              "type": "uint64"
            },
            {
              "internalType": "uint32",
              "name": "ui",
              "type": "uint32"
            },
            {
              "internalType": "address",
              "name": "kickbackDestination",
              "type": "address"
            },
            {
              "internalType": "uint64",
              "name": "kickbackPortion",
              "type": "uint64"
            }
          ],
          "internalType": "struct IAccounting.DebtPosition",
          "name": "",
          "type": "tuple"
        }
      ],
      "stateMutability": "nonpayable",
      "type": "function"
    },
    {
      "inputs": [],
      "name": "twapDuration",
      "outputs": [
        {
          "internalType": "uint32",
          "name": "",
          "type": "uint32"
        }
      ],
      "stateMutability": "view",
      "type": "function"
    },
    {
      "inputs": [
        {
          "internalType": "uint256",
          "name": "lendTokenCount",
          "type": "uint256"
        }
      ],
      "name": "unlend",
      "outputs": [],
      "stateMutability": "nonpayable",
      "type": "function"
    },
    {
      "inputs": [
        {
          "internalType": "bytes4",
          "name": "",
          "type": "bytes4"
        }
      ],
      "name": "validUpdate",
      "outputs": [
        {
          "internalType": "bool",
          "name": "",
          "type": "bool"
        }
      ],
      "stateMutability": "view",
      "type": "function"
    },
    {
      "inputs": [
        {
          "internalType": "uint256",
          "name": "lendTokenCount",
          "type": "uint256"
        }
      ],
      "name": "valueOfLendTokensInHue",
      "outputs": [
        {
          "internalType": "uint256",
          "name": "",
          "type": "uint256"
        }
      ],
      "stateMutability": "view",
      "type": "function"
    }
  ],
  "bytecode": "0x60c0604052600160066000509090556714d1120d7b160000600760005090905568878678326eac90000060086000509090556702c68af0bb1400006009600050909055610708600b60146101000a81548163ffffffff021916908363ffffffff160217905550348015620000735760006000fd5b505b610e105b5b33600160006101000a81548173ffffffffffffffffffffffffffffffffffffffff021916908373ffffffffffffffffffffffffffffffffffffffff1602179055505b60018167ffffffffffffffff16620000d96200013b60201b60201c565b67ffffffffffffffff16811515620000ed57fe5b040367ffffffffffffffff1660a08167ffffffffffffffff1660c01b815260080150508067ffffffffffffffff1660808167ffffffffffffffff1660c01b815260080150505b505b620001f1565b600062000155426200015d60201b62001dfd17909060201c565b905080505b90565b60006801000000000000000082101515620001e3576040517f08c379a00000000000000000000000000000000000000000000000000000000081526004018080602001828103825260118152602001807f6d6f7265207468616e203634206269747300000000000000000000000000000081526020015060200191505060405180910390fd5b819050620001ec565b919050565b60805160c01c60a05160c01c615e436200022f60003980611a6b5280611e935280614341525080611a8f5280611eb452806143625250615e436000f3fe6080604052600436106101d15760003560e01c8063a6aa57ce116100f7578063c4e3a63b11610095578063e11c876211610064578063e11c876214610609578063eb6843ce14610647578063ef5e1cac14610685578063f6979f29146106af576101d1565b8063c4e3a63b1461056d578063d2ca211514610599578063d5f39488146105c5578063d861b0e8146105f1576101d1565b8063b2326b57116100d1578063b2326b57146104c1578063b6ae213a146104eb578063bb8313c214610517578063c433c80a14610543576101d1565b8063a6aa57ce14610453578063a6afed951461047d578063a89f51ae14610495576101d1565b806326d895451161016f5780635a6127a91161013e5780635a6127a9146103b757806375f12b21146103e15780637b809bdd1461040d578063875bbc5114610429576101d1565b806326d89545146103035780632cae02691461032f5780632e6c6f841461035b5780635658c0121461038b576101d1565b80630c340a24116101ab5780630c340a2414610245578063113cf1ab14610271578063197b1bf5146102af57806319ab453c146102d9576101d1565b806306040618146101d757806306972dcd1461020357806307da68f51461022d576101d1565b60006000fd5b3480156101e45760006000fd5b506101ed6106db565b6040516101fa9190615cdc565b60405180910390f35b3480156102105760006000fd5b5061022b60048036038101906102269190615413565b6106f3565b005b34801561023a5760006000fd5b5061024361075d565b005b3480156102525760006000fd5b5061025b61077d565b6040516102689190615891565b60405180910390f35b34801561027e5760006000fd5b5061029960048036038101906102949190615147565b6107a3565b6040516102a6919061587d565b60405180910390f35b3480156102bc5760006000fd5b506102d760048036038101906102d29190615413565b6107c8565b005b3480156102e65760006000fd5b5061030160048036038101906102fc91906151bb565b610996565b005b3480156103105760006000fd5b50610319610da7565b6040516103269190615cac565b60405180910390f35b34801561033c5760006000fd5b50610345610dbd565b60405161035291906158b9565b60405180910390f35b6103756004803603810190610370919061544b565b610de3565b6040516103829190615cdc565b60405180910390f35b3480156103985760006000fd5b506103a1610fbf565b6040516103ae9190615c5a565b60405180910390f35b3480156103c45760006000fd5b506103df60048036038101906103da9190615413565b610fc8565b005b3480156103ee5760006000fd5b506103f761104f565b604051610404919061587d565b60405180910390f35b610427600480360381019061042291906154f1565b611062565b005b3480156104365760006000fd5b50610451600480360381019061044c9190615541565b61124c565b005b3480156104605760006000fd5b5061047b60048036038101906104769190615413565b6114b3565b005b34801561048a5760006000fd5b506104936116f4565b005b3480156104a25760006000fd5b506104ab611722565b6040516104b891906158e1565b60405180910390f35b3480156104ce5760006000fd5b506104e960048036038101906104e491906154a3565b611748565b005b3480156104f85760006000fd5b506105016119af565b60405161050e9190615cdc565b60405180910390f35b3480156105245760006000fd5b5061052d6119c9565b60405161053a9190615c5a565b60405180910390f35b3480156105505760006000fd5b5061056b6004803603810190610566919061547c565b6119d2565b005b34801561057a5760006000fd5b50610583611a69565b6040516105909190615cdc565b60405180910390f35b3480156105a65760006000fd5b506105af611a8d565b6040516105bc9190615cdc565b60405180910390f35b3480156105d25760006000fd5b506105db611ab1565b6040516105e89190615767565b60405180910390f35b3480156105fe5760006000fd5b50610607611ad7565b005b3480156106165760006000fd5b50610631600480360381019061062c9190615413565b611bbf565b60405161063e9190615c5a565b60405180910390f35b3480156106545760006000fd5b5061066f600480360381019061066a91906154a3565b611bed565b60405161067c9190615c0f565b60405180910390f35b3480156106925760006000fd5b506106ad60048036038101906106a89190615413565b611d72565b005b3480156106bc5760006000fd5b506106c5611df4565b6040516106d29190615c5a565b60405180910390f35b60006106eb611e8f63ffffffff16565b905080505b90565b610701611f0863ffffffff16565b806008600050819090905550604051610719906156a3565b60405180910390207f3a64504f0bc0c335e2aecb78638a257e0351a3fe0370861fd54ee4190b920933826040516107509190615c5a565b60405180910390a25b5b50565b61076b611f0863ffffffff16565b610779611f9d63ffffffff16565b5b5b565b600060009054906101000a900473ffffffffffffffffffffffffffffffffffffffff1681565b600560005060205280600052604060002060009150909054906101000a900460ff1681565b6107d6611fe763ffffffff16565b6107e46120c663ffffffff16565b6107f66000821161211b63ffffffff16565b6000339050600061080c83611bbf63ffffffff16565b9050600b60009054906101000a900473ffffffffffffffffffffffffffffffffffffffff1673ffffffffffffffffffffffffffffffffffffffff166379cc679083856040518363ffffffff1660e01b815260040161086b92919061584e565b600060405180830381600087803b1580156108865760006000fd5b505af115801561089b573d600060003e3d6000fd5b50505050600260009054906101000a900473ffffffffffffffffffffffffffffffffffffffff1673ffffffffffffffffffffffffffffffffffffffff1663b241bbac83836040518363ffffffff1660e01b81526004016108fc92919061584e565b600060405180830381600087803b1580156109175760006000fd5b505af115801561092c573d600060003e3d6000fd5b505050508173ffffffffffffffffffffffffffffffffffffffff167fefc56a1a7590fc4eb13cd40b6a2ceee41f3869c6ea818d20d9a18f2d6315ca188285604051610978929190615c6c565b60405180910390a250505b5b61099261216163ffffffff16565b5b50565b600160009054906101000a900473ffffffffffffffffffffffffffffffffffffffff1673ffffffffffffffffffffffffffffffffffffffff163373ffffffffffffffffffffffffffffffffffffffff161415156109f35760006000fd5b600160159054906101000a900460ff16151515610a105760006000fd5b80600060006101000a81548173ffffffffffffffffffffffffffffffffffffffff021916908373ffffffffffffffffffffffffffffffffffffffff160217905550600060009054906101000a900473ffffffffffffffffffffffffffffffffffffffff1673ffffffffffffffffffffffffffffffffffffffff16639624e83e6040518163ffffffff1660e01b815260040160206040518083038186803b158015610aba5760006000fd5b505afa158015610acf573d600060003e3d6000fd5b505050506040513d601f19601f82011682018060405250810190610af39190615194565b600260006101000a81548173ffffffffffffffffffffffffffffffffffffffff021916908373ffffffffffffffffffffffffffffffffffffffff160217905550600060009054906101000a900473ffffffffffffffffffffffffffffffffffffffff1673ffffffffffffffffffffffffffffffffffffffff1663323741746040518163ffffffff1660e01b815260040160206040518083038186803b158015610b9c5760006000fd5b505afa158015610bb1573d600060003e3d6000fd5b505050506040513d601f19601f82011682018060405250810190610bd591906151e2565b600360006101000a81548173ffffffffffffffffffffffffffffffffffffffff021916908373ffffffffffffffffffffffffffffffffffffffff160217905550600060009054906101000a900473ffffffffffffffffffffffffffffffffffffffff1673ffffffffffffffffffffffffffffffffffffffff1663d478b0876040518163ffffffff1660e01b815260040160206040518083038186803b158015610c7e5760006000fd5b505afa158015610c93573d600060003e3d6000fd5b505050506040513d601f19601f82011682018060405250810190610cb7919061527e565b600460006101000a81548173ffffffffffffffffffffffffffffffffffffffff021916908373ffffffffffffffffffffffffffffffffffffffff160217905550610d056121f563ffffffff16565b600160149054906101000a900460ff1615610d3a576001600160156101000a81548160ff021916908315150217905550610d60565b600160006101000a81549073ffffffffffffffffffffffffffffffffffffffff02191690555b8073ffffffffffffffffffffffffffffffffffffffff167f908408e307fc569b417f6cbec5d5a06f44a0a505ac0479b47d421a4b2fd6a1e660405160405180910390a25b50565b600b60149054906101000a900463ffffffff1681565b600b60009054906101000a900473ffffffffffffffffffffffffffffffffffffffff1681565b6000610df3611fe763ffffffff16565b610e0161274963ffffffff16565b600034111515610e46576040517f08c379a0000000000000000000000000000000000000000000000000000000008152600401610e3d90615aae565b60405180910390fd5b600a60009054906101000a900473ffffffffffffffffffffffffffffffffffffffff1673ffffffffffffffffffffffffffffffffffffffff1663755edd17336040518263ffffffff1660e01b8152600401610ea1919061578f565b602060405180830381600087803b158015610ebc5760006000fd5b505af1158015610ed1573d600060003e3d6000fd5b505050506040513d601f19601f82011682018060405250810190610ef591906154ca565b90508050610f01614f99565b8281610140019063ffffffff16908163ffffffff1681526020015050610f59610f3a8367ffffffffffffffff168361283e63ffffffff16565b83610f4c87612d14909063ffffffff16565b6000612dbd63ffffffff16565b8167ffffffffffffffff163373ffffffffffffffffffffffffffffffffffffffff167f3bac2cc5a46c2a400f0a6b532080f052814635a76bccdecf39397718b2d554dd60405160405180910390a3505b5b610fb861216163ffffffff16565b5b92915050565b60076000505481565b610fd6611f0863ffffffff16565b806009600050819090905550670de0b6b3a764000060096000505411151515610fff5760006000fd5b60405161100b90615736565b60405180910390207f3a64504f0bc0c335e2aecb78638a257e0351a3fe0370861fd54ee4190b920933826040516110429190615c5a565b60405180910390a25b5b50565b600060149054906101000a900460ff1681565b611070611fe763ffffffff16565b61107e61274963ffffffff16565b61113b600a60009054906101000a900473ffffffffffffffffffffffffffffffffffffffff1673ffffffffffffffffffffffffffffffffffffffff1663430c208133876040518363ffffffff1660e01b81526004016110de929190615815565b60206040518083038186803b1580156110f75760006000fd5b505afa15801561110c573d600060003e3d6000fd5b505050506040513d601f19601f820116820180604052508101906111309190615124565b6134b763ffffffff16565b60006112048567ffffffffffffffff16600260009054906101000a900473ffffffffffffffffffffffffffffffffffffffff1673ffffffffffffffffffffffffffffffffffffffff16630f85fc5a886040518263ffffffff1660e01b81526004016111a69190615cdc565b6101a06040518083038186803b1580156111c05760006000fd5b505afa1580156111d5573d600060003e3d6000fd5b505050506040513d601f19601f820116820180604052508101906111f991906152cc565b61283e63ffffffff16565b90508181610140019063ffffffff16908163ffffffff168152602001505061123481868686612dbd63ffffffff16565b505b5b61124561216163ffffffff16565b5b50505050565b61125a611fe763ffffffff16565b6112686120c663ffffffff16565b611325600a60009054906101000a900473ffffffffffffffffffffffffffffffffffffffff1673ffffffffffffffffffffffffffffffffffffffff1663430c208133856040518363ffffffff1660e01b81526004016112c8929190615815565b60206040518083038186803b1580156112e15760006000fd5b505afa1580156112f6573d600060003e3d6000fd5b505050506040513d601f19601f8201168201806040525081019061131a9190615124565b6134b763ffffffff16565b60006113ee8367ffffffffffffffff16600260009054906101000a900473ffffffffffffffffffffffffffffffffffffffff1673ffffffffffffffffffffffffffffffffffffffff16630f85fc5a866040518263ffffffff1660e01b81526004016113909190615cdc565b6101a06040518083038186803b1580156113aa5760006000fd5b505afa1580156113bf573d600060003e3d6000fd5b505050506040513d601f19601f820116820180604052508101906113e391906152cc565b61283e63ffffffff16565b90508181610140019063ffffffff16908163ffffffff1681526020015050600260009054906101000a900473ffffffffffffffffffffffffffffffffffffffff1673ffffffffffffffffffffffffffffffffffffffff16635a6beaf484836040518363ffffffff1660e01b8152600401611469929190615cf8565b600060405180830381600087803b1580156114845760006000fd5b505af1158015611499573d600060003e3d6000fd5b50505050505b5b6114ae61216163ffffffff16565b5b5050565b6114c1611fe763ffffffff16565b6114cf61274963ffffffff16565b6114e16000821161211b63ffffffff16565b60003390506114f46134fd63ffffffff16565b6000611516611507613db563ffffffff16565b84613f4690919063ffffffff16565b9050600260009054906101000a900473ffffffffffffffffffffffffffffffffffffffff1673ffffffffffffffffffffffffffffffffffffffff16632c73f09e846040518263ffffffff1660e01b81526004016115739190615c5a565b600060405180830381600087803b15801561158e5760006000fd5b505af11580156115a3573d600060003e3d6000fd5b505050506115fd600360009054906101000a900473ffffffffffffffffffffffffffffffffffffffff1683600260009054906101000a900473ffffffffffffffffffffffffffffffffffffffff1686613f6c63ffffffff16565b600b60009054906101000a900473ffffffffffffffffffffffffffffffffffffffff1673ffffffffffffffffffffffffffffffffffffffff1663449a52f883836040518363ffffffff1660e01b815260040161165a92919061584e565b600060405180830381600087803b1580156116755760006000fd5b505af115801561168a573d600060003e3d6000fd5b505050508173ffffffffffffffffffffffffffffffffffffffff167f8fff79b574da9a93d7a5408c2fc00c4a9b2b462321c1659b2fbbb9ff3dd221ff84836040516116d6929190615c6c565b60405180910390a250505b5b6116f061216163ffffffff16565b5b50565b61170261419763ffffffff16565b6117106134fd63ffffffff16565b5b61171f6141f263ffffffff16565b5b565b600a60009054906101000a900473ffffffffffffffffffffffffffffffffffffffff1681565b611756611fe763ffffffff16565b61176461274963ffffffff16565b611821600a60009054906101000a900473ffffffffffffffffffffffffffffffffffffffff1673ffffffffffffffffffffffffffffffffffffffff1663430c208133846040518363ffffffff1660e01b81526004016117c4929190615815565b60206040518083038186803b1580156117dd5760006000fd5b505afa1580156117f2573d600060003e3d6000fd5b505050506040513d601f19601f820116820180604052508101906118169190615124565b6134b763ffffffff16565b60006118ea8267ffffffffffffffff16600260009054906101000a900473ffffffffffffffffffffffffffffffffffffffff1673ffffffffffffffffffffffffffffffffffffffff16630f85fc5a856040518263ffffffff1660e01b815260040161188c9190615cdc565b6101a06040518083038186803b1580156118a65760006000fd5b505afa1580156118bb573d600060003e3d6000fd5b505050506040513d601f19601f820116820180604052508101906118df91906152cc565b61283e63ffffffff16565b9050600081610140019063ffffffff16908163ffffffff1681526020015050600260009054906101000a900473ffffffffffffffffffffffffffffffffffffffff1673ffffffffffffffffffffffffffffffffffffffff16635a6beaf483836040518363ffffffff1660e01b8152600401611966929190615cf8565b600060405180830381600087803b1580156119815760006000fd5b505af1158015611996573d600060003e3d6000fd5b50505050505b5b6119ab61216163ffffffff16565b5b50565b600b60189054906101000a900467ffffffffffffffff1681565b60086000505481565b6119e0611f0863ffffffff16565b61012c8163ffffffff16101515156119f85760006000fd5b80600b60146101000a81548163ffffffff021916908363ffffffff160217905550604051611a25906156d4565b60405180910390207f6293347933ad2997134e224ac8cd2e39908a4a22aeed9af52127b4bbf765297882604051611a5c9190615cc4565b60405180910390a25b5b50565b7f000000000000000000000000000000000000000000000000000000000000000081565b7f000000000000000000000000000000000000000000000000000000000000000081565b600160009054906101000a900473ffffffffffffffffffffffffffffffffffffffff1681565b600160149054906101000a900460ff168015611aff5750600160159054906101000a900460ff165b8015611b585750600160009054906101000a900473ffffffffffffffffffffffffffffffffffffffff1673ffffffffffffffffffffffffffffffffffffffff163373ffffffffffffffffffffffffffffffffffffffff16145b1515611b645760006000fd5b600160146101000a81549060ff0219169055600160156101000a81549060ff0219169055600160006101000a81549073ffffffffffffffffffffffffffffffffffffffff0219169055611bbb6134fd63ffffffff16565b5b5b565b6000611be1611bd2613db563ffffffff16565b8361420290919063ffffffff16565b9050611be8565b919050565b611bf5614f99565b611c0361419763ffffffff16565b600060009054906101000a900473ffffffffffffffffffffffffffffffffffffffff1673ffffffffffffffffffffffffffffffffffffffff16639622cd8f336040518263ffffffff1660e01b8152600401611c5e919061578f565b60006040518083038186803b158015611c775760006000fd5b505afa158015611c8c573d600060003e3d6000fd5b50505050611d578267ffffffffffffffff16600260009054906101000a900473ffffffffffffffffffffffffffffffffffffffff1673ffffffffffffffffffffffffffffffffffffffff16630f85fc5a856040518263ffffffff1660e01b8152600401611cf99190615cdc565b6101a06040518083038186803b158015611d135760006000fd5b505afa158015611d28573d600060003e3d6000fd5b505050506040513d601f19601f82011682018060405250810190611d4c91906152cc565b61283e63ffffffff16565b9050611d5e565b611d6c6141f263ffffffff16565b5b919050565b611d80611f0863ffffffff16565b806007600050819090905550670de0b6b3a76400008110151515611da45760006000fd5b604051611db090615705565b60405180910390207f3a64504f0bc0c335e2aecb78638a257e0351a3fe0370861fd54ee4190b92093382604051611de79190615c5a565b60405180910390a25b5b50565b60096000505481565b60006801000000000000000082101515611e82576040517f08c379a00000000000000000000000000000000000000000000000000000000081526004018080602001828103825260118152602001807f6d6f7265207468616e203634206269747300000000000000000000000000000081526020015060200191505060405180910390fd5b819050611e8a565b919050565b60007f00000000000000000000000000000000000000000000000000000000000000007f000000000000000000000000000000000000000000000000000000000000000067ffffffffffffffff16611eeb61422863ffffffff16565b67ffffffffffffffff16811515611efe57fe5b0403905080505b90565b600060009054906101000a900473ffffffffffffffffffffffffffffffffffffffff1673ffffffffffffffffffffffffffffffffffffffff163373ffffffffffffffffffffffffffffffffffffffff16141515611f9a576040517f08c379a0000000000000000000000000000000000000000000000000000000008152600401611f91906159f1565b60405180910390fd5b5b565b6001600060146101000a81548160ff0219169083151502179055507f7acc84e34091ae817647a4c49116f5cc07f319078ba80f8f5fde37ea7e25cbd660405160405180910390a15b565b600460009054906101000a900473ffffffffffffffffffffffffffffffffffffffff1673ffffffffffffffffffffffffffffffffffffffff1663e97dcb626040518163ffffffff1660e01b8152600401600060405180830381600087803b1580156120525760006000fd5b505af1158015612067573d600060003e3d6000fd5b505050506002600660005054141515156120b6576040517f08c379a00000000000000000000000000000000000000000000000000000000081526004016120ad90615a6f565b60405180910390fd5b600260066000508190909055505b565b600060149054906101000a900460ff16151515612118576040517f08c379a000000000000000000000000000000000000000000000000000000000815260040161210f90615b91565b60405180910390fd5b5b565b80151561215d576040517f08c379a000000000000000000000000000000000000000000000000000000000815260040161215490615a30565b60405180910390fd5b5b50565b60016006600050819090905550600460009054906101000a900473ffffffffffffffffffffffffffffffffffffffff1673ffffffffffffffffffffffffffffffffffffffff1663e9fad8ee6040518163ffffffff1660e01b8152600401600060405180830381600087803b1580156121d95760006000fd5b505af11580156121ee573d600060003e3d6000fd5b505050505b565b600060009054906101000a900473ffffffffffffffffffffffffffffffffffffffff1673ffffffffffffffffffffffffffffffffffffffff1663a89f51ae6040518163ffffffff1660e01b815260040160206040518083038186803b15801561225e5760006000fd5b505afa158015612273573d600060003e3d6000fd5b505050506040513d601f19601f820116820180604052508101906122979190615230565b600a60006101000a81548173ffffffffffffffffffffffffffffffffffffffff021916908373ffffffffffffffffffffffffffffffffffffffff160217905550600060009054906101000a900473ffffffffffffffffffffffffffffffffffffffff1673ffffffffffffffffffffffffffffffffffffffff16632cae02696040518163ffffffff1660e01b815260040160206040518083038186803b1580156123405760006000fd5b505afa158015612355573d600060003e3d6000fd5b505050506040513d601f19601f820116820180604052508101906123799190615209565b600b60006101000a81548173ffffffffffffffffffffffffffffffffffffffff021916908373ffffffffffffffffffffffffffffffffffffffff1602179055506000600a60009054906101000a900473ffffffffffffffffffffffffffffffffffffffff1673ffffffffffffffffffffffffffffffffffffffff1663755edd17600260009054906101000a900473ffffffffffffffffffffffffffffffffffffffff166040518263ffffffff1660e01b81526004016124389190615767565b602060405180830381600087803b1580156124535760006000fd5b505af1158015612468573d600060003e3d6000fd5b505050506040513d601f19601f8201168201806040525081019061248c91906154ca565b67ffffffffffffffff161415156124a35760006000fd5b6124ab614f99565b600260009054906101000a900473ffffffffffffffffffffffffffffffffffffffff1673ffffffffffffffffffffffffffffffffffffffff16635a6beaf460006124fc60008561283e63ffffffff16565b6040518363ffffffff1660e01b8152600401612519929190615909565b600060405180830381600087803b1580156125345760006000fd5b505af1158015612549573d600060003e3d6000fd5b505050506000604051806080016040528063ef5e1cac60e01b7bffffffffffffffffffffffffffffffffffffffffffffffffffffffff19167bffffffffffffffffffffffffffffffffffffffffffffffffffffffff1916815260200163c433c80a60e01b7bffffffffffffffffffffffffffffffffffffffffffffffffffffffff19167bffffffffffffffffffffffffffffffffffffffffffffffffffffffff191681526020016306972dcd60e01b7bffffffffffffffffffffffffffffffffffffffffffffffffffffffff19167bffffffffffffffffffffffffffffffffffffffffffffffffffffffff19168152602001635a6127a960e01b7bffffffffffffffffffffffffffffffffffffffffffffffffffffffff19167bffffffffffffffffffffffffffffffffffffffffffffffffffffffff191681526020015090506000600090505b815060048110156127285760016005600050600084846004811015156126b257fe5b60200201517bffffffffffffffffffffffffffffffffffffffffffffffffffffffff19167bffffffffffffffffffffffffffffffffffffffffffffffffffffffff1916815260200190815260200160002060006101000a81548160ff0219169083151502179055505b8080600101915050612690565b506001600160146101000a81548160ff02191690831515021790555050505b565b6127576120c663ffffffff16565b600060009054906101000a900473ffffffffffffffffffffffffffffffffffffffff1673ffffffffffffffffffffffffffffffffffffffff1663bf86d6906040518163ffffffff1660e01b815260040160206040518083038186803b1580156127c05760006000fd5b505afa1580156127d5573d600060003e3d6000fd5b505050506040513d601f19601f820116820180604052508101906127f99190615124565b15151561283b576040517f08c379a000000000000000000000000000000000000000000000000000000000815260040161283290615934565b60405180910390fd5b5b565b612846614f99565b600061285661424363ffffffff16565b905060006128698261433a63ffffffff16565b9050600060008560a0015167ffffffffffffffff161461289b576128968560a0015161433a63ffffffff16565b61289e565b60005b90508067ffffffffffffffff168267ffffffffffffffff161115156128c857849350505050612d0e565b6128d66134fd63ffffffff16565b600061298a86600260009054906101000a900473ffffffffffffffffffffffffffffffffffffffff1673ffffffffffffffffffffffffffffffffffffffff166306ef2d806040518163ffffffff1660e01b815260040160806040518083038186803b1580156129455760006000fd5b505afa15801561295a573d600060003e3d6000fd5b505050506040513d601f19601f8201168201806040525081019061297e91906153b3565b866143c263ffffffff16565b80925081965050506000811180156129a3575060008714155b15612cc057600073ffffffffffffffffffffffffffffffffffffffff1685610160015173ffffffffffffffffffffffffffffffffffffffff16141580156129f95750600085610180015167ffffffffffffffff16115b15612b2a576000612a2286610180015167ffffffffffffffff1683613f4690919063ffffffff16565b9050600060009054906101000a900473ffffffffffffffffffffffffffffffffffffffff1673ffffffffffffffffffffffffffffffffffffffff1663ef7a7cfa876101600151836040518363ffffffff1660e01b8152600401612a8692919061584e565b600060405180830381600087803b158015612aa15760006000fd5b505af1158015612ab6573d600060003e3d6000fd5b505050506001151586610160015173ffffffffffffffffffffffffffffffffffffffff167f8079a05488a0f375c08504c3ba8b3a1371f5a192b7a141bc9294ef7ad41389d983604051612b099190615c5a565b60405180910390a3612b24818361452890919063ffffffff16565b91508150505b6000600a60009054906101000a900473ffffffffffffffffffffffffffffffffffffffff1673ffffffffffffffffffffffffffffffffffffffff16636352211e896040518263ffffffff1660e01b8152600401612b879190615c5a565b60206040518083038186803b158015612ba05760006000fd5b505afa158015612bb5573d600060003e3d6000fd5b505050506040513d601f19601f82011682018060405250810190612bd991906150fd565b9050600060009054906101000a900473ffffffffffffffffffffffffffffffffffffffff1673ffffffffffffffffffffffffffffffffffffffff1663ef7a7cfa82846040518363ffffffff1660e01b8152600401612c3892919061584e565b600060405180830381600087803b158015612c535760006000fd5b505af1158015612c68573d600060003e3d6000fd5b50505050600015158173ffffffffffffffffffffffffffffffffffffffff167f8079a05488a0f375c08504c3ba8b3a1371f5a192b7a141bc9294ef7ad41389d984604051612cb69190615c5a565b60405180910390a3505b8267ffffffffffffffff16877fc99ac0d15229fa72f1b0756c0eed4e7ede3d80f4e4e0d308ce7a56d1366b8a03876040015184604051612d01929190615c6c565b60405180910390a3505050505b92915050565b60007f800000000000000000000000000000000000000000000000000000000000000082101515612db0576040517f08c379a00000000000000000000000000000000000000000000000000000000081526004018080602001828103825260128152602001807f746f6f2062696720666f7220696e74323536000000000000000000000000000081526020015060200191505060405180910390fd5b819050612db8565b919050565b6000349050600060008413612dd3576000612dd5565b835b9050600060008512612de8576000612e1c565b612e1b7fffffffffffffffffffffffffffffffffffffffffffffffffffffffffffffffff866145b190919063ffffffff16565b5b9050600083118015612e2e5750600084115b151515612e70576040517f08c379a0000000000000000000000000000000000000000000000000000000008152600401612e6790615aed565b60405180910390fd5b612ea36000841180612e825750600085115b80612e8d5750600083115b80612e985750600082115b61211b63ffffffff16565b6000821115612f9157612eba61422863ffffffff16565b8760c0019067ffffffffffffffff16908167ffffffffffffffff1681526020015050612ef38288604001516146e790919063ffffffff16565b8760400190908181526020015050600260009054906101000a900473ffffffffffffffffffffffffffffffffffffffff1673ffffffffffffffffffffffffffffffffffffffff16632b7c7b11836040518263ffffffff1660e01b8152600401612f5c9190615c5a565b600060405180830381600087803b158015612f775760006000fd5b505af1158015612f8c573d600060003e3d6000fd5b505050505b60008111156130e057612fa861422863ffffffff16565b67ffffffffffffffff16612fd9610708610e10018960c0015167ffffffffffffffff1661477090919063ffffffff16565b67ffffffffffffffff16101515613025576040517f08c379a000000000000000000000000000000000000000000000000000000000815260040161301c906159b2565b60405180910390fd5b808760400151101561303b578660400151905080505b808760400181815103915090908181526020015050600260009054906101000a900473ffffffffffffffffffffffffffffffffffffffff1673ffffffffffffffffffffffffffffffffffffffff16632a7ba1f7826040518263ffffffff1660e01b81526004016130ab9190615c5a565b600060405180830381600087803b1580156130c65760006000fd5b505af11580156130db573d600060003e3d6000fd5b505050505b600083111561310f576131008388602001516146e790919063ffffffff16565b87602001909081815260200150505b600084111561313e5761312f84886020015161452890919063ffffffff16565b87602001909081815260200150505b6000876040015111156131c757600860005054876040015110151515613199576040517f08c379a000000000000000000000000000000000000000000000000000000000815260040161319090615b52565b60405180910390fd5b60008411806131a85750600082115b156131c6576131c58760400151886020015161480d63ffffffff16565b5b5b600260009054906101000a900473ffffffffffffffffffffffffffffffffffffffff1673ffffffffffffffffffffffffffffffffffffffff16635a6beaf487896040518363ffffffff1660e01b8152600401613224929190615cf8565b600060405180830381600087803b15801561323f5760006000fd5b505af1158015613254573d600060003e3d6000fd5b5050505060008211156132f357600360009054906101000a900473ffffffffffffffffffffffffffffffffffffffff1673ffffffffffffffffffffffffffffffffffffffff1663449a52f833846040518363ffffffff1660e01b81526004016132be9291906157e6565b600060405180830381600087803b1580156132d95760006000fd5b505af11580156132ee573d600060003e3d6000fd5b505050505b600081111561338e57600360009054906101000a900473ffffffffffffffffffffffffffffffffffffffff1673ffffffffffffffffffffffffffffffffffffffff166379cc679033836040518363ffffffff1660e01b81526004016133599291906157e6565b600060405180830381600087803b1580156133745760006000fd5b505af1158015613389573d600060003e3d6000fd5b505050505b60008311156133ca576133c9600260009054906101000a900473ffffffffffffffffffffffffffffffffffffffff16846149c363ffffffff16565b5b600084111561346557600260009054906101000a900473ffffffffffffffffffffffffffffffffffffffff1673ffffffffffffffffffffffffffffffffffffffff16636250216933866040518363ffffffff1660e01b81526004016134309291906157b7565b600060405180830381600087803b15801561344b5760006000fd5b505af1158015613460573d600060003e3d6000fd5b505050505b8567ffffffffffffffff167fbbc7e03aef2c74664e8e5632c43a9cad7e6bf6eb7d0b8204e281a4fb65ca8271838386886040516134a59493929190615c85565b60405180910390a25050505b50505050565b8015156134f9576040517f08c379a00000000000000000000000000000000000000000000000000000000081526004016134f0906159f1565b60405180910390fd5b5b50565b600061350d614b4963ffffffff16565b9050600b60189054906101000a900467ffffffffffffffff1667ffffffffffffffff168167ffffffffffffffff161115156135485750613db3565b6000600b60189054906101000a900467ffffffffffffffff16820390506000600260009054906101000a900473ffffffffffffffffffffffffffffffffffffffff1673ffffffffffffffffffffffffffffffffffffffff166306ef2d806040518163ffffffff1660e01b815260040160806040518083038186803b1580156135d05760006000fd5b505afa1580156135e5573d600060003e3d6000fd5b505050506040513d601f19601f8201168201806040525081019061360991906153b3565b90506000600060009054906101000a900473ffffffffffffffffffffffffffffffffffffffff1673ffffffffffffffffffffffffffffffffffffffff166343f48fbd6040518163ffffffff1660e01b815260040160206040518083038186803b1580156136765760006000fd5b505afa15801561368b573d600060003e3d6000fd5b505050506040513d601f19601f820116820180604052508101906136af91906152a5565b9050600061386b83858473ffffffffffffffffffffffffffffffffffffffff1663a0fc0eda6040518163ffffffff1660e01b815260040160206040518083038186803b1580156136ff5760006000fd5b505afa158015613714573d600060003e3d6000fd5b505050506040513d601f19601f82011682018060405250810190613738919061542f565b8573ffffffffffffffffffffffffffffffffffffffff16636d7fa6646040518163ffffffff1660e01b815260040160206040518083038186803b15801561377f5760006000fd5b505afa158015613794573d600060003e3d6000fd5b505050506040513d601f19601f820116820180604052508101906137b89190615124565b600360009054906101000a900473ffffffffffffffffffffffffffffffffffffffff1673ffffffffffffffffffffffffffffffffffffffff166375172a8b6040518163ffffffff1660e01b815260040160206040518083038186803b1580156138215760006000fd5b505afa158015613836573d600060003e3d6000fd5b505050506040513d601f19601f8201168201806040525081019061385a919061542f565b600960005054614b6f63ffffffff16565b90506000610e1067ffffffffffffffff166201518081151561388957fe5b0467ffffffffffffffff166139548667ffffffffffffffff16600060009054906101000a900473ffffffffffffffffffffffffffffffffffffffff1673ffffffffffffffffffffffffffffffffffffffff1663a5d4198b6040518163ffffffff1660e01b8152600401602060405180830381600087803b15801561390d5760006000fd5b505af1158015613922573d600060003e3d6000fd5b505050506040513d601f19601f82011682018060405250810190613946919061542f565b614d5d90919063ffffffff16565b81151561395d57fe5b04905060405180608001604052808360000151815260200161398c8387602001516146e790919063ffffffff16565b81526020016139c86139b58867ffffffffffffffff168860000151614d5d90919063ffffffff16565b87604001516146e790919063ffffffff16565b8152602001836020015181526020015093508350600260009054906101000a900473ffffffffffffffffffffffffffffffffffffffff1673ffffffffffffffffffffffffffffffffffffffff166378efc6b0856040518263ffffffff1660e01b8152600401613a379190615c29565b600060405180830381600087803b158015613a525760006000fd5b505af1158015613a67573d600060003e3d6000fd5b5050505085600b60186101000a81548167ffffffffffffffff021916908367ffffffffffffffff160217905550600082606001511115613bec57600260009054906101000a900473ffffffffffffffffffffffffffffffffffffffff1673ffffffffffffffffffffffffffffffffffffffff16632c73f09e83606001516040518263ffffffff1660e01b8152600401613b009190615c5a565b600060405180830381600087803b158015613b1b5760006000fd5b505af1158015613b30573d600060003e3d6000fd5b50505050600360009054906101000a900473ffffffffffffffffffffffffffffffffffffffff1673ffffffffffffffffffffffffffffffffffffffff1663449a52f8600260009054906101000a900473ffffffffffffffffffffffffffffffffffffffff1684606001516040518363ffffffff1660e01b8152600401613bb792919061584e565b600060405180830381600087803b158015613bd25760006000fd5b505af1158015613be7573d600060003e3d6000fd5b505050505b600082604001511115613cb157600360009054906101000a900473ffffffffffffffffffffffffffffffffffffffff1673ffffffffffffffffffffffffffffffffffffffff1663449a52f8600360009054906101000a900473ffffffffffffffffffffffffffffffffffffffff1684604001516040518363ffffffff1660e01b8152600401613c7c92919061584e565b600060405180830381600087803b158015613c975760006000fd5b505af1158015613cac573d600060003e3d6000fd5b505050505b600082608001511115613d5257600360009054906101000a900473ffffffffffffffffffffffffffffffffffffffff1673ffffffffffffffffffffffffffffffffffffffff1663c59fb1ab83608001516040518263ffffffff1660e01b8152600401613d1d9190615c5a565b600060405180830381600087803b158015613d385760006000fd5b505af1158015613d4d573d600060003e3d6000fd5b505050505b8567ffffffffffffffff167fdfc2183705a66b49f12c66a6d3b2fa5cf3b7c67086e9c6e90d144befc94f436c868660000151876020015188604001518960600151604051613da4959493929190615d23565b60405180910390a25050505050505b565b60006000600260009054906101000a900473ffffffffffffffffffffffffffffffffffffffff1673ffffffffffffffffffffffffffffffffffffffff16637f250c616040518163ffffffff1660e01b815260040160206040518083038186803b158015613e225760006000fd5b505afa158015613e37573d600060003e3d6000fd5b505050506040513d601f19601f82011682018060405250810190613e5b919061542f565b90506000600b60009054906101000a900473ffffffffffffffffffffffffffffffffffffffff1673ffffffffffffffffffffffffffffffffffffffff166318160ddd6040518163ffffffff1660e01b815260040160206040518083038186803b158015613ec85760006000fd5b505afa158015613edd573d600060003e3d6000fd5b505050506040513d601f19601f82011682018060405250810190613f01919061542f565b90506000811480613f125750600082145b613f2e57613f29828261420290919063ffffffff16565b613f38565b670de0b6b3a76400005b92505050613f435650505b90565b6000613f618383670de0b6b3a7640000614dfb63ffffffff16565b905080505b92915050565b600060008573ffffffffffffffffffffffffffffffffffffffff166323b872dd60e01b868686604051602401808473ffffffffffffffffffffffffffffffffffffffff1681526020018373ffffffffffffffffffffffffffffffffffffffff1681526020018281526020019350505050604051602081830303815290604052907bffffffffffffffffffffffffffffffffffffffffffffffffffffffff19166020820180517bffffffffffffffffffffffffffffffffffffffffffffffffffffffff83818316178352505050506040518082805190602001908083835b60208310151561406f57805182525b602082019150602081019050602083039250614049565b6001836020036101000a0380198251168184511680821785525050505050509050019150506000604051808303816000865af19150503d80600081146140d1576040519150601f19603f3d011682016040523d82523d6000602084013e6140d6565b606091505b5091509150818015614117575060008151148061411657508080602001905160208110156141045760006000fd5b81019080805190602001909291905050505b5b151561418e576040517f08c379a00000000000000000000000000000000000000000000000000000000081526004018080602001828103825260038152602001807f535446000000000000000000000000000000000000000000000000000000000081526020015060200191505060405180910390fd5b50505b50505050565b6002600660005054141515156141e2576040517f08c379a00000000000000000000000000000000000000000000000000000000081526004016141d990615973565b60405180910390fd5b600260066000508190909055505b565b600160066000508190909055505b565b600061421d83670de0b6b3a764000084614dfb63ffffffff16565b905080505b92915050565b600061423b42611dfd909063ffffffff16565b905080505b90565b600061425361422863ffffffff16565b905080506000600060009054906101000a900473ffffffffffffffffffffffffffffffffffffffff1673ffffffffffffffffffffffffffffffffffffffff1663585690816040518163ffffffff1660e01b815260040160206040518083038186803b1580156142c25760006000fd5b505afa1580156142d7573d600060003e3d6000fd5b505050506040513d601f19601f820116820180604052508101906142fb91906154ca565b905060008167ffffffffffffffff1611801561432a57508167ffffffffffffffff168167ffffffffffffffff16105b156143355780915081505b505b90565b60006143b87f00000000000000000000000000000000000000000000000000000000000000007f000000000000000000000000000000000000000000000000000000000000000067ffffffffffffffff168467ffffffffffffffff1681151561439f57fe5b0467ffffffffffffffff16614efc90919063ffffffff16565b905080505b919050565b6143ca614f99565b6000849150815060008260a0015167ffffffffffffffff161180156143f3575060008260400151115b156144c357614419846060015183606001518460400151614dfb9092919063ffffffff16565b82604001909081815260200150506144be61444b8360a001518567ffffffffffffffff16614efc90919063ffffffff16565b67ffffffffffffffff16610e1067ffffffffffffffff166144af6144808660800151896020015161452890919063ffffffff16565b61449b87600001518a6040015161452890919063ffffffff16565b8760400151614dfb9092919063ffffffff16565b614dfb9092919063ffffffff16565b905080505b836060015182606001909081815260200150508360200151826080019090818152602001505083604001518260000190908181526020015050828260a0019067ffffffffffffffff16908167ffffffffffffffff16815260200150505b935093915050565b600082828403915081111515156145aa576040517f08c379a000000000000000000000000000000000000000000000000000000000815260040180806020018281038252600d8152602001807f7375622d756e646572666c6f770000000000000000000000000000000000000081526020015060200191505060405180910390fd5b5b92915050565b600060008314156145c557600090506146e1565b7fffffffffffffffffffffffffffffffffffffffffffffffffffffffffffffffff8314801561461357507f800000000000000000000000000000000000000000000000000000000000000082145b15151561466b576040517f08c379a0000000000000000000000000000000000000000000000000000000008152600401808060200182810382526027815260200180615de76027913960400191505060405180910390fd5b6000828402905082848281151561467e57fe5b051415156146d7576040517f08c379a0000000000000000000000000000000000000000000000000000000008152600401808060200182810382526027815260200180615de76027913960400191505060405180910390fd5b809150506146e156505b92915050565b60008282840191508110151515614769576040517f08c379a000000000000000000000000000000000000000000000000000000000815260040180806020018281038252600c8152602001807f6164642d6f766572666c6f77000000000000000000000000000000000000000081526020015060200191505060405180910390fd5b5b92915050565b60008267ffffffffffffffff1682840191508167ffffffffffffffff1610151515614806576040517f08c379a000000000000000000000000000000000000000000000000000000000815260040180806020018281038252600c8152602001807f6164642d6f766572666c6f77000000000000000000000000000000000000000081526020015060200191505060405180910390fd5b5b92915050565b6000600060009054906101000a900473ffffffffffffffffffffffffffffffffffffffff1673ffffffffffffffffffffffffffffffffffffffff1663d3419bf36040518163ffffffff1660e01b815260040160206040518083038186803b1580156148785760006000fd5b505afa15801561488d573d600060003e3d6000fd5b505050506040513d601f19601f820116820180604052508101906148b19190615257565b73ffffffffffffffffffffffffffffffffffffffff1663fa42dcf4600b60149054906101000a900463ffffffff166040518263ffffffff1660e01b81526004016148fb9190615cac565b60206040518083038186803b1580156149145760006000fd5b505afa158015614929573d600060003e3d6000fd5b505050506040513d601f19601f8201168201806040525081019061494d919061542f565b905061496783600760005054614d5d90919063ffffffff16565b61497a8284614d5d90919063ffffffff16565b101515156149bd576040517f08c379a00000000000000000000000000000000000000000000000000000000081526004016149b490615bd0565b60405180910390fd5b505b5050565b60008273ffffffffffffffffffffffffffffffffffffffff1682600067ffffffffffffffff811180156149f65760006000fd5b506040519080825280601f01601f191660200182016040528015614a295781602001600182028036833780820191505090505b506040518082805190602001908083835b602083101515614a6057805182525b602082019150602081019050602083039250614a3a565b6001836020036101000a03801982511681845116808217855250505050505090500191505060006040518083038185875af1925050503d8060008114614ac2576040519150601f19603f3d011682016040523d82523d6000602084013e614ac7565b606091505b50509050801515614b43576040517f08c379a00000000000000000000000000000000000000000000000000000000081526004018080602001828103825260038152602001807f535445000000000000000000000000000000000000000000000000000000000081526020015060200191505060405180910390fd5b505b5050565b6000614b67614b5c61424363ffffffff16565b61433a63ffffffff16565b905080505b90565b614b7761504d565b6000851415614bae578660000151816000019090818152602001505086606001518160200190908181526020015050809050614d53565b6000614bf48767ffffffffffffffff16610e1067ffffffffffffffff166301e13380811515614bd957fe5b0467ffffffffffffffff1688614dfb9092919063ffffffff16565b9050600085614c1d57614c1882670de0b6b3a764000061452890919063ffffffff16565b614c39565b614c3882670de0b6b3a76400006146e790919063ffffffff16565b5b9050614c52818a60600151613f4690919063ffffffff16565b8360200190908181526020015050614c8183602001518a606001518b60000151614dfb9092919063ffffffff16565b8360000190908181526020015050886000015183600001511115614cea57600089600001518460000151039050614cc18582613f4690919063ffffffff16565b846060019090818152602001505083606001518103846040019090818152602001505050614d50565b886000015183600001511015614d4f57600083600001518a600001510390508581101515614d3d578960000151846000019090818152602001505089606001518460200190908181526020015050614d4d565b8084608001909081815260200150505b505b5b50505b9695505050505050565b60006000821480614d7d57508282838502925082811515614d7a57fe5b04145b1515614df4576040517f08c379a000000000000000000000000000000000000000000000000000000000815260040180806020018281038252600c8152602001807f6d756c2d6f766572666c6f77000000000000000000000000000000000000000081526020015060200191505060405180910390fd5b5b92915050565b6000600060006000198587098587029250828110838203039150506000811415614e3e57600084111515614e2f5760006000fd5b83820492508292505050614ef5565b8084111515614e4d5760006000fd5b6000848688099050828111820391508083039250600085866000031690508086049550808404935060018182600003040190508083028417935083506000600287600302189050808702600203810290508050808702600203810290508050808702600203810290508050808702600203810290508050808702600203810290508050808702600203810290508050808502955085508595505050505050614ef55650505050505b9392505050565b60008267ffffffffffffffff1682840391508167ffffffffffffffff1611151515614f92576040517f08c379a000000000000000000000000000000000000000000000000000000000815260040180806020018281038252600d8152602001807f7375622d756e646572666c6f770000000000000000000000000000000000000081526020015060200191505060405180910390fd5b5b92915050565b604051806101a001604052806000815260200160008152602001600081526020016000815260200160008152602001600067ffffffffffffffff168152602001600067ffffffffffffffff168152602001600060020b8152602001600015158152602001600067ffffffffffffffff168152602001600063ffffffff168152602001600073ffffffffffffffffffffffffffffffffffffffff168152602001600067ffffffffffffffff1681526020015090565b6040518060a001604052806000815260200160008152602001600081526020016000815260200160008152602001509056615de5565b60008151905061509281615d86565b5b919050565b600081519050801515811415156150af5760006000fd5b5b919050565b6000815190508060020b811415156150cd5760006000fd5b5b919050565b6000815190506150e281615daf565b5b919050565b6000815190506150f781615dc8565b5b919050565b60006020828403121561510e578081fd5b815161511981615d86565b809150505b92915050565b600060208284031215615135578081fd5b61513e82615098565b90505b92915050565b600060208284031215615158578081fd5b81357fffffffff00000000000000000000000000000000000000000000000000000000811681141515615189578182fd5b809150505b92915050565b6000602082840312156151a5578081fd5b81516151b081615d86565b809150505b92915050565b6000602082840312156151cc578081fd5b81356151d781615d86565b809150505b92915050565b6000602082840312156151f3578081fd5b81516151fe81615d86565b809150505b92915050565b60006020828403121561521a578081fd5b815161522581615d86565b809150505b92915050565b600060208284031215615241578081fd5b815161524c81615d86565b809150505b92915050565b600060208284031215615268578081fd5b815161527381615d86565b809150505b92915050565b60006020828403121561528f578081fd5b815161529a81615d86565b809150505b92915050565b6000602082840312156152b6578081fd5b81516152c181615d86565b809150505b92915050565b60006101a08083850312156152df578182fd5b6152e881615d5b565b9050825181526020830151602082015260408301516040820152606083015160608201526080830151608082015261532260a084016150e8565b60a082015261533360c084016150e8565b60c082015261534460e084016150b5565b60e0820152610100615357818501615098565b818301525061012061536a8185016150e8565b818301525061014061537d8185016150d3565b8183015250610160615390818501615083565b81830152506101806153a38185016150e8565b8183015250809150505b92915050565b6000608082840312156153c4578081fd5b6040516080810181811067ffffffffffffffff821117156153e157fe5b806040525082518152602083015160208201526040830151604082015260608301516060820152809150505b92915050565b600060208284031215615424578081fd5b813590505b92915050565b600060208284031215615440578081fd5b815190505b92915050565b600060006040838503121561545e578081fd5b82359150602083013561547081615daf565b809150505b9250929050565b60006020828403121561548d578081fd5b813561549881615daf565b809150505b92915050565b6000602082840312156154b4578081fd5b81356154bf81615dc8565b809150505b92915050565b6000602082840312156154db578081fd5b81516154e681615dc8565b809150505b92915050565b600060006000600060808587031215615508578182fd5b843561551381615dc8565b809450506020850135925060408501359150606085013561553381615daf565b809150505b92959194509250565b6000600060408385031215615554578182fd5b823561555f81615dc8565b80925050602083013561557181615daf565b809150505b9250929050565b73ffffffffffffffffffffffffffffffffffffffff811682525b5050565b80151582525b5050565b8060020b82525b5050565b805182526020810151602083015260408101516040830152606081015160608301526080810151608083015260a08101516155ee60a0840182615691565b5060c081015161560160c0840182615691565b5060e081015161561460e08401826155a5565b50610100808201516156288285018261559b565b50506101208082015161563d82850182615691565b50506101408082015161565282850182615683565b5050610160808201516156678285018261557d565b50506101808082015161567c82850182615691565b50505b5050565b63ffffffff811682525b5050565b67ffffffffffffffff811682525b5050565b60007f6d696e506f736974696f6e53697a6500000000000000000000000000000000008252600f820190505b919050565b60007f747761704475726174696f6e00000000000000000000000000000000000000008252600c820190505b919050565b60007f636f6c6c61746572616c697a6174696f6e526571756972656d656e74000000008252601c820190505b919050565b60007f696e746572657374506f7274696f6e546f4c656e64657273000000000000000082526018820190505b919050565b600060208201905073ffffffffffffffffffffffffffffffffffffffff831682525b92915050565b600060208201905073ffffffffffffffffffffffffffffffffffffffff831682525b92915050565b600060408201905073ffffffffffffffffffffffffffffffffffffffff841682528260208301525b9392505050565b600060408201905073ffffffffffffffffffffffffffffffffffffffff841682528260208301525b9392505050565b600060408201905073ffffffffffffffffffffffffffffffffffffffff8416825267ffffffffffffffff831660208301525b9392505050565b600060408201905073ffffffffffffffffffffffffffffffffffffffff841682528260208301525b9392505050565b600060208201905082151582525b92915050565b600060208201905073ffffffffffffffffffffffffffffffffffffffff831682525b92915050565b600060208201905073ffffffffffffffffffffffffffffffffffffffff831682525b92915050565b600060208201905073ffffffffffffffffffffffffffffffffffffffff831682525b92915050565b60006101c08201905067ffffffffffffffff8416825261592c60208301846155b0565b5b9392505050565b600060208252601160208301527f50726f746f636f6c2073687574646f776e00000000000000000000000000000060408301526060820190505b919050565b600060208252600d60208301527f4c43205265656e7472616e63790000000000000000000000000000000000000060408301526060820190505b919050565b600060208252600f60208301527f4e6f20666c61736820626f72726f77000000000000000000000000000000000060408301526060820190505b919050565b600060208252600e60208301527f4e6f7420417574686f72697a656400000000000000000000000000000000000060408301526060820190505b919050565b600060208252600460208301527f4e6f6f700000000000000000000000000000000000000000000000000000000060408301526060820190505b919050565b600060208252600d60208301527f4c50205265656e7472616e63790000000000000000000000000000000000000060408301526060820190505b919050565b600060208252601360208301527f4d7573742061646420636f6c6c61746572616c0000000000000000000000000060408301526060820190505b919050565b600060208252602360208301527f43616e7420696e637265617365202620646563726561736520636f6c6c61746560408301527f72616c000000000000000000000000000000000000000000000000000000000060608301526080820190505b919050565b600060208252601260208301527f506f736974696f6e20746f6f20736d616c6c000000000000000000000000000060408301526060820190505b919050565b600060208252601360208301527f436f6e74726163742069732073746f707065640000000000000000000000000060408301526060820190505b919050565b600060208252601760208301527f496e73756666696369656e7420636f6c6c61746572616c00000000000000000060408301526060820190505b919050565b60006101a082019050615c2282846155b0565b5b92915050565b6000608082019050825182526020830151602083015260408301516040830152606083015160608301525b92915050565b60006020820190508282525b92915050565b60006040820190508382528260208301525b9392505050565b60006080820190508582528460208301528360408301528260608301525b95945050505050565b600060208201905063ffffffff831682525b92915050565b600060208201905063ffffffff831682525b92915050565b600060208201905067ffffffffffffffff831682525b92915050565b60006101c08201905067ffffffffffffffff84168252615d1b60208301846155b0565b5b9392505050565b600060a08201905067ffffffffffffffff871682528560208301528460408301528360608301528260808301525b9695505050505050565b6000604051905081810181811067ffffffffffffffff82111715615d7b57fe5b80604052505b919050565b73ffffffffffffffffffffffffffffffffffffffff811681141515615dab5760006000fd5b5b50565b63ffffffff811681141515615dc45760006000fd5b5b50565b67ffffffffffffffff811681141515615de15760006000fd5b5b50565bfe5369676e6564536166654d6174683a206d756c7469706c69636174696f6e206f766572666c6f77a2646970667358221220b880c8e17a88c136df8d08816e1d9ee1ef47f6d0b9221c218ec382ccb356ee4464736f6c63430007060033",
  "linkReferences": {},
  "deployedLinkReferences": {}
}