{
  "_format": "hh-sol-artifact-1",
  "contractName": "TcpMulticall",
  "sourceName": "contracts/mocks/TcpMulticall.sol",
  "abi": [
    {
      "inputs": [
        {
          "components": [
            {
              "internalType": "address",
              "name": "target",
              "type": "address"
            },
            {
              "internalType": "bytes",
              "name": "callData",
              "type": "bytes"
            }
          ],
          "internalType": "struct TcpMulticall.Call[]",
          "name": "calls",
          "type": "tuple[]"
        }
      ],
      "name": "all",
      "outputs": [
        {
          "internalType": "uint256",
          "name": "blockNumber",
          "type": "uint256"
        },
        {
          "internalType": "bytes[]",
          "name": "returnData",
          "type": "bytes[]"
        }
      ],
      "stateMutability": "nonpayable",
      "type": "function"
    }
  ],
  "bytecode": "0x60806040523480156100115760006000fd5b50610017565b610502806100266000396000f3fe60806040523480156100115760006000fd5b50600436106100305760003560e01c80638f1316d51461003657610030565b60006000fd5b610050600480360381019061004b9190610261565b610067565b60405161005e92919061032d565b60405180910390f35b600060608383905067ffffffffffffffff811180156100865760006000fd5b506040519080825280602002602001820160405280156100ba57816020015b60608152602001906001900390816100a55790505b50905080506000600090505b8484905081101561020957600085858381811015156100e157fe5b90506020028101906100f39190610489565b60000160208101906101059190610220565b73ffffffffffffffffffffffffffffffffffffffff16868684818110151561012957fe5b905060200281019061013b9190610489565b806020019061014a9190610416565b6040516101589291906102d6565b6000604051808303816000865af19150503d8060008114610195576040519150601f19603f3d011682016040523d82523d6000602084013e61019a565b606091505b5084848151811015156101a957fe5b6020026020010181905281925050508015156101fa576040517f08c379a00000000000000000000000000000000000000000000000000000000081526004016101f1906102ee565b60405180910390fd5b505b80806001019150506100c6565b50818191509150610215565b9250929050566104cb565b600060208284031215610231578081fd5b813573ffffffffffffffffffffffffffffffffffffffff811681141515610256578182fd5b809150505b92915050565b6000600060208385031215610274578081fd5b823567ffffffffffffffff8082111561028b578283fd5b818501915085601f83011215156102a0578283fd5b8135818111156102ae578384fd5b8660206020830285010111156102c2578384fd5b6020830194508093505050505b9250929050565b600082848337828201818152809150505b9392505050565b600060208252602060208301527f4d756c746963616c6c206167677265676174653a2063616c6c206661696c656460408301526060820190505b919050565b600060408201848352602060408185015281855180845260608601915060608382028701019350828701855b82811015610405577fffffffffffffffffffffffffffffffffffffffffffffffffffffffffffffffa088870301845281518051808852885b818110156103b05787818401015188828b0101525b8781019050610391565b818111156103c0578988838b0101525b50867fffffffffffffffffffffffffffffffffffffffffffffffffffffffffffffffe0601f83011689010197505050848201915084840193505b600181019050610359565b5050505050809150505b9392505050565b6000600083357fffffffffffffffffffffffffffffffffffffffffffffffffffffffffffffffe1843603018112151561044d578283fd5b80840190508035915067ffffffffffffffff82111561046a578283fd5b602081019250508036038213156104815760006000fd5b5b9250929050565b600082357fffffffffffffffffffffffffffffffffffffffffffffffffffffffffffffffc183360301811215156104be578182fd5b8083019150505b92915050565bfea264697066735822122006bf4eb8f2b1cfd7de401c5f68fdea4300b88cbf93501383f3b02b4dc70231e064736f6c63430007060033",
  "linkReferences": {},
  "deployedLinkReferences": {}
}