{
  "_format": "hh-sol-artifact-1",
  "contractName": "PositionValueTest",
  "sourceName": "contracts/uniswap/uniswap-v3-periphery/contracts/test/PositionValueTest.sol",
  "abi": [
    {
      "inputs": [
        {
          "internalType": "contract INonfungiblePositionManager",
          "name": "nft",
          "type": "address"
        },
        {
          "internalType": "uint256",
          "name": "tokenId",
          "type": "uint256"
        }
      ],
      "name": "fees",
      "outputs": [
        {
          "internalType": "uint256",
          "name": "amount0",
          "type": "uint256"
        },
        {
          "internalType": "uint256",
          "name": "amount1",
          "type": "uint256"
        }
      ],
      "stateMutability": "view",
      "type": "function"
    },
    {
      "inputs": [
        {
          "internalType": "contract INonfungiblePositionManager",
          "name": "nft",
          "type": "address"
        },
        {
          "internalType": "uint256",
          "name": "tokenId",
          "type": "uint256"
        }
      ],
      "name": "feesGas",
      "outputs": [
        {
          "internalType": "uint256",
          "name": "",
          "type": "uint256"
        }
      ],
      "stateMutability": "view",
      "type": "function"
    },
    {
      "inputs": [
        {
          "internalType": "contract INonfungiblePositionManager",
          "name": "nft",
          "type": "address"
        },
        {
          "internalType": "uint256",
          "name": "tokenId",
          "type": "uint256"
        },
        {
          "internalType": "uint160",
          "name": "sqrtRatioX96",
          "type": "uint160"
        }
      ],
      "name": "principal",
      "outputs": [
        {
          "internalType": "uint256",
          "name": "amount0",
          "type": "uint256"
        },
        {
          "internalType": "uint256",
          "name": "amount1",
          "type": "uint256"
        }
      ],
      "stateMutability": "view",
      "type": "function"
    },
    {
      "inputs": [
        {
          "internalType": "contract INonfungiblePositionManager",
          "name": "nft",
          "type": "address"
        },
        {
          "internalType": "uint256",
          "name": "tokenId",
          "type": "uint256"
        },
        {
          "internalType": "uint160",
          "name": "sqrtRatioX96",
          "type": "uint160"
        }
      ],
      "name": "principalGas",
      "outputs": [
        {
          "internalType": "uint256",
          "name": "",
          "type": "uint256"
        }
      ],
      "stateMutability": "view",
      "type": "function"
    },
    {
      "inputs": [
        {
          "internalType": "contract INonfungiblePositionManager",
          "name": "nft",
          "type": "address"
        },
        {
          "internalType": "uint256",
          "name": "tokenId",
          "type": "uint256"
        },
        {
          "internalType": "uint160",
          "name": "sqrtRatioX96",
          "type": "uint160"
        }
      ],
      "name": "total",
      "outputs": [
        {
          "internalType": "uint256",
          "name": "amount0",
          "type": "uint256"
        },
        {
          "internalType": "uint256",
          "name": "amount1",
          "type": "uint256"
        }
      ],
      "stateMutability": "view",
      "type": "function"
    },
    {
      "inputs": [
        {
          "internalType": "contract INonfungiblePositionManager",
          "name": "nft",
          "type": "address"
        },
        {
          "internalType": "uint256",
          "name": "tokenId",
          "type": "uint256"
        },
        {
          "internalType": "uint160",
          "name": "sqrtRatioX96",
          "type": "uint160"
        }
      ],
      "name": "totalGas",
      "outputs": [
        {
          "internalType": "uint256",
          "name": "",
          "type": "uint256"
        }
      ],
      "stateMutability": "view",
      "type": "function"
    }
  ],
  "bytecode": "0x60806040523480156100115760006000fd5b50610017565b61170d806100266000396000f3fe60806040523480156100115760006000fd5b50600436106100775760003560e01c80635b6dc092116100515780635b6dc092146101d457806390594f911461025e578063ee4e9ba3146102e157610077565b8063226353971461007d578063263a5362146101075780633803770c1461017157610077565b60006000fd5b6100ea600480360360608110156100945760006000fd5b81019080803573ffffffffffffffffffffffffffffffffffffffff16906020019092919080359060200190929190803573ffffffffffffffffffffffffffffffffffffffff169060200190929190505050610364565b604051808381526020018281526020019250505060405180910390f35b6101546004803603604081101561011e5760006000fd5b81019080803573ffffffffffffffffffffffffffffffffffffffff1690602001909291908035906020019092919050505061038a565b604051808381526020018281526020019250505060405180910390f35b6101be600480360360408110156101885760006000fd5b81019080803573ffffffffffffffffffffffffffffffffffffffff169060200190929190803590602001909291905050506103ae565b6040518082815260200191505060405180910390f35b610241600480360360608110156101eb5760006000fd5b81019080803573ffffffffffffffffffffffffffffffffffffffff16906020019092919080359060200190929190803573ffffffffffffffffffffffffffffffffffffffff1690602001909291905050506103d9565b604051808381526020018281526020019250505060405180910390f35b6102cb600480360360608110156102755760006000fd5b81019080803573ffffffffffffffffffffffffffffffffffffffff16906020019092919080359060200190929190803573ffffffffffffffffffffffffffffffffffffffff1690602001909291905050506103ff565b6040518082815260200191505060405180910390f35b61034e600480360360608110156102f85760006000fd5b81019080803573ffffffffffffffffffffffffffffffffffffffff16906020019092919080359060200190929190803573ffffffffffffffffffffffffffffffffffffffff16906020019092919050505061042c565b6040518082815260200191505060405180910390f35b6000600061037985858561045963ffffffff16565b91509150610382565b935093915050565b6000600061039e84846105b663ffffffff16565b915091506103a7565b9250929050565b600060005a90506103c584846105b663ffffffff16565b50505a81039150506103d356505b92915050565b600060006103ee8585856107cc63ffffffff16565b915091506103f7565b935093915050565b600060005a90506104178585856107cc63ffffffff16565b50505a810391505061042556505b9392505050565b600060005a905061044485858561045963ffffffff16565b50505a810391505061045256505b9392505050565b600060006000600060008773ffffffffffffffffffffffffffffffffffffffff166399fbab88886040518263ffffffff1660e01b8152600401808281526020019150506101806040518083038186803b1580156104b65760006000fd5b505afa1580156104cb573d600060003e3d6000fd5b505050506040513d6101808110156104e35760006000fd5b8101908080519060200190929190805190602001909291908051906020019092919080519060200190929190805190602001909291908051906020019092919080519060200190929190805190602001909291908051906020019092919080519060200190929190805190602001909291908051906020019092919050505050505050975097509750505050505061059f866105848561082063ffffffff16565b6105938561082063ffffffff16565b84610cb763ffffffff16565b945094505050506105ae565050505b935093915050565b6000600060006000600060006000600060006000600060008d73ffffffffffffffffffffffffffffffffffffffff166399fbab888e6040518263ffffffff1660e01b8152600401808281526020019150506101806040518083038186803b1580156106215760006000fd5b505afa158015610636573d600060003e3d6000fd5b505050506040513d61018081101561064e5760006000fd5b810190808051906020019092919080519060200190929190805190602001909291908051906020019092919080519060200190929190805190602001909291908051906020019092919080519060200190929190805190602001909291908051906020019092919080519060200190929190805190602001909291905050506fffffffffffffffffffffffffffffffff169b506fffffffffffffffffffffffffffffffff169b509b509b509b509b509b509b509b509b5050506107a88e6040518061014001604052808d73ffffffffffffffffffffffffffffffffffffffff1681526020018c73ffffffffffffffffffffffffffffffffffffffff1681526020018b62ffffff1681526020018a60020b81526020018960020b8152602001886fffffffffffffffffffffffffffffffff16815260200187815260200186815260200185815260200184815260200150610dcd63ffffffff16565b9b509b50505050505050505050506107c556505050505050505050505b9250929050565b60006000600060006107e587878761045963ffffffff16565b91509150600060006107fd89896105b663ffffffff16565b91509150818401818401955095505050505061081856505050505b935093915050565b6000600060008360020b12610838578260020b610840565b8260020b6000035b90507ffffffffffffffffffffffffffffffffffffffffffffffffffffffffffff2761860000360020b81111515156108e3576040517f08c379a00000000000000000000000000000000000000000000000000000000081526004018080602001828103825260018152602001807f540000000000000000000000000000000000000000000000000000000000000081526020015060200191505060405180910390fd5b600060006001831614156109085770010000000000000000000000000000000061091a565b6ffffcb933bd6fad37aa2d162d1a5940015b70ffffffffffffffffffffffffffffffffff1690506000600283161415156109585760806ffff97272373d413259a46990580e213a8202901c905080505b6000600483161415156109815760806ffff2e50f5f656932ef12357cf3c7fdcc8202901c905080505b6000600883161415156109aa5760806fffe5caca7e10e4e61c3624eaa0941cd08202901c905080505b6000601083161415156109d35760806fffcb9843d60f6159c9db58835c9266448202901c905080505b6000602083161415156109fc5760806fff973b41fa98c081472e6896dfb254c08202901c905080505b600060408316141515610a255760806fff2ea16466c96a3843ec78b326b528618202901c905080505b600060808316141515610a4e5760806ffe5dee046a99a2a811c461f1969c30538202901c905080505b60006101008316141515610a785760806ffcbe86c7900a88aedcffc83b479aa3a48202901c905080505b60006102008316141515610aa25760806ff987a7253ac413176f2b074cf7815e548202901c905080505b60006104008316141515610acc5760806ff3392b0822b70005940c7a398e4b70f38202901c905080505b60006108008316141515610af65760806fe7159475a2c29b7443b29c7fa6e889d98202901c905080505b60006110008316141515610b205760806fd097f3bdfd2022b8845ad8f792aa58258202901c905080505b60006120008316141515610b4a5760806fa9f746462d870fdf8a65dc1f90e061e58202901c905080505b60006140008316141515610b745760806f70d869a156d2a1b890bb3df62baf32f78202901c905080505b60006180008316141515610b9e5760806f31be135f97d08fd981231505542fcfa68202901c905080505b6000620100008316141515610bc95760806f09aa508b5b7a84e1c677de54f3e99bc98202901c905080505b6000620200008316141515610bf35760806e5d6af8dedb81196699c329225ee6048202901c905080505b6000620400008316141515610c1c5760806d2216e584f5fa1ea926041bedfe988202901c905080505b6000620800008316141515610c435760806b048a170391f7dc42444e8fa28202901c905080505b60008460020b1315610c8057807fffffffffffffffffffffffffffffffffffffffffffffffffffffffffffffffff811515610c7a57fe5b04905080505b600064010000000082811515610c9257fe5b0614610c9f576001610ca2565b60005b60ff16602082901c019250825050505b919050565b600060008373ffffffffffffffffffffffffffffffffffffffff168573ffffffffffffffffffffffffffffffffffffffff161115610cfa57838580955081965050505b8473ffffffffffffffffffffffffffffffffffffffff168673ffffffffffffffffffffffffffffffffffffffff16111515610d4957610d40858585610f7a63ffffffff16565b91508150610dc3565b8373ffffffffffffffffffffffffffffffffffffffff168673ffffffffffffffffffffffffffffffffffffffff161015610dac57610d8e868585610f7a63ffffffff16565b91508150610da385878561104263ffffffff16565b90508050610dc2565b610dbd85858561104263ffffffff16565b905080505b5b5b94509492505050565b6000600060006000610eda610ec58773ffffffffffffffffffffffffffffffffffffffff1663c45a01556040518163ffffffff1660e01b815260040160206040518083038186803b158015610e225760006000fd5b505afa158015610e37573d600060003e3d6000fd5b505050506040513d6020811015610e4e5760006000fd5b81019080805190602001909291905050506040518060600160405280896000015173ffffffffffffffffffffffffffffffffffffffff168152602001896020015173ffffffffffffffffffffffffffffffffffffffff168152602001896040015162ffffff168152602001506110d963ffffffff16565b866060015187608001516111c263ffffffff16565b91509150846101000151610f228660c0015184038760a001516fffffffffffffffffffffffffffffffff167001000000000000000000000000000000006115d663ffffffff16565b0193508350846101200151610f6b8660e0015183038760a001516fffffffffffffffffffffffffffffffff167001000000000000000000000000000000006115d663ffffffff16565b019250825050505b9250929050565b60008273ffffffffffffffffffffffffffffffffffffffff168473ffffffffffffffffffffffffffffffffffffffff161115610fbb57828480945081955050505b8373ffffffffffffffffffffffffffffffffffffffff1661102a606060ff16846fffffffffffffffffffffffffffffffff16901b86860373ffffffffffffffffffffffffffffffffffffffff168673ffffffffffffffffffffffffffffffffffffffff166115d663ffffffff16565b81151561103357fe5b04905061103b565b9392505050565b60008273ffffffffffffffffffffffffffffffffffffffff168473ffffffffffffffffffffffffffffffffffffffff16111561108357828480945081955050505b6110cb826fffffffffffffffffffffffffffffffff1685850373ffffffffffffffffffffffffffffffffffffffff166c010000000000000000000000006115d663ffffffff16565b90506110d2565b9392505050565b60008273ffffffffffffffffffffffffffffffffffffffff16631698ee828360000151846020015185604001516040518463ffffffff1660e01b8152600401808473ffffffffffffffffffffffffffffffffffffffff1681526020018373ffffffffffffffffffffffffffffffffffffffff1681526020018262ffffff168152602001935050505060206040518083038186803b15801561117a5760006000fd5b505afa15801561118f573d600060003e3d6000fd5b505050506040513d60208110156111a65760006000fd5b8101908080519060200190929190505050905080505b92915050565b6000600060008573ffffffffffffffffffffffffffffffffffffffff16633850c7bd6040518163ffffffff1660e01b815260040160e06040518083038186803b15801561120f5760006000fd5b505afa158015611224573d600060003e3d6000fd5b505050506040513d60e081101561123b5760006000fd5b81019080805190602001909291908051906020019092919080519060200190929190805190602001909291908051906020019092919080519060200190929190805190602001909291905050505050505050915050600060008773ffffffffffffffffffffffffffffffffffffffff1663f30dba93886040518263ffffffff1660e01b8152600401808260020b81526020019150506101006040518083038186803b1580156112ea5760006000fd5b505afa1580156112ff573d600060003e3d6000fd5b505050506040513d6101008110156113175760006000fd5b81019080805190602001909291908051906020019092919080519060200190929190805190602001909291908051906020019092919080519060200190929190805190602001909291908051906020019092919050505050505050935093505050600060008973ffffffffffffffffffffffffffffffffffffffff1663f30dba93896040518263ffffffff1660e01b8152600401808260020b81526020019150506101006040518083038186803b1580156113d25760006000fd5b505afa1580156113e7573d600060003e3d6000fd5b505050506040513d6101008110156113ff5760006000fd5b810190808051906020019092919080519060200190929190805190602001909291908051906020019092919080519060200190929190805190602001909291908051906020019092919080519060200190929190505050505050509350935050508860020b8560020b12156114815781840396508650808303955085506115c8565b8760020b8560020b12156115b85760008a73ffffffffffffffffffffffffffffffffffffffff1663f30583996040518163ffffffff1660e01b815260040160206040518083038186803b1580156114d85760006000fd5b505afa1580156114ed573d600060003e3d6000fd5b505050506040513d60208110156115045760006000fd5b8101908080519060200190929190505050905060008b73ffffffffffffffffffffffffffffffffffffffff1663461413196040518163ffffffff1660e01b815260040160206040518083038186803b1580156115605760006000fd5b505afa158015611575573d600060003e3d6000fd5b505050506040513d602081101561158c5760006000fd5b8101908080519060200190929190505050905083868303039850885082858203039750875050506115c7565b83820396508650828103955085505b5b50505050505b935093915050565b60006000600060001985870985870292508281108382030391505060008114156116195760008411151561160a5760006000fd5b838204925082925050506116d0565b80841115156116285760006000fd5b60008486880990508281118203915080830392506000858660000316905080860495508084049350600181826000030401905080830284179350835060006002876003021890508087026002038102905080508087026002038102905080508087026002038102905080508087026002038102905080508087026002038102905080508087026002038102905080508085029550855085955050505050506116d05650505050505b939250505056fea26469706673582212207686b665de9f4e352576a3861a84c6b7cd5a670d5958939c9f3c17f07eb4f6c264736f6c63430007060033",
  "linkReferences": {},
  "deployedLinkReferences": {}
}