{
  "_format": "hh-sol-artifact-1",
  "contractName": "MarketTestable",
  "sourceName": "contracts/mocks/MarketTestable.sol",
  "abi": [
    {
      "inputs": [
        {
          "components": [
            {
              "internalType": "contract IGovernor",
              "name": "Governor",
              "type": "address"
            },
            {
              "internalType": "contract IProtocolLock",
              "name": "ProtocolLock",
              "type": "address"
            },
            {
              "internalType": "contract IPositionNFT",
              "name": "HuePositionNFT",
              "type": "address"
            },
            {
              "internalType": "contract IHue",
              "name": "Hue",
              "type": "address"
            },
            {
              "internalType": "contract ILendHue",
              "name": "LendHue",
              "type": "address"
            },
            {
              "internalType": "contract IAccounting",
              "name": "Accounting",
              "type": "address"
            }
          ],
          "internalType": "struct IMarket.ConstructorParams",
          "name": "params",
          "type": "tuple"
        }
      ],
      "stateMutability": "nonpayable",
      "type": "constructor"
    },
    {
      "anonymous": false,
      "inputs": [
        {
          "indexed": false,
          "internalType": "uint256",
          "name": "requirement",
          "type": "uint256"
        }
      ],
      "name": "CollateralizationRequirementUpdated",
      "type": "event"
    },
    {
      "anonymous": false,
      "inputs": [
        {
          "indexed": true,
          "internalType": "uint64",
          "name": "period",
          "type": "uint64"
        },
        {
          "indexed": false,
          "internalType": "uint64",
          "name": "periods",
          "type": "uint64"
        },
        {
          "indexed": false,
          "internalType": "uint256",
          "name": "newDebt",
          "type": "uint256"
        },
        {
          "indexed": false,
          "internalType": "uint256",
          "name": "rewardCount",
          "type": "uint256"
        },
        {
          "indexed": false,
          "internalType": "uint256",
          "name": "cumulativeDebt",
          "type": "uint256"
        },
        {
          "indexed": false,
          "internalType": "uint256",
          "name": "debtExchangeRate",
          "type": "uint256"
        }
      ],
      "name": "InterestAccrued",
      "type": "event"
    },
    {
      "anonymous": false,
      "inputs": [
        {
          "indexed": false,
          "internalType": "uint256",
          "name": "percentage",
          "type": "uint256"
        }
      ],
      "name": "InterestPortionToLendersUpdated",
      "type": "event"
    },
    {
      "anonymous": false,
      "inputs": [
        {
          "indexed": true,
          "internalType": "address",
          "name": "account",
          "type": "address"
        },
        {
          "indexed": false,
          "internalType": "uint256",
          "name": "hueCount",
          "type": "uint256"
        },
        {
          "indexed": false,
          "internalType": "uint256",
          "name": "lendTokenCount",
          "type": "uint256"
        }
      ],
      "name": "Lend",
      "type": "event"
    },
    {
      "anonymous": false,
      "inputs": [
        {
          "indexed": false,
          "internalType": "uint256",
          "name": "size",
          "type": "uint256"
        }
      ],
      "name": "MinPositionSizeUpdated",
      "type": "event"
    },
    {
      "anonymous": false,
      "inputs": [
        {
          "indexed": true,
          "internalType": "uint64",
          "name": "positionID",
          "type": "uint64"
        },
        {
          "indexed": false,
          "internalType": "uint256",
          "name": "debtIncrease",
          "type": "uint256"
        },
        {
          "indexed": false,
          "internalType": "uint256",
          "name": "debtDecrease",
          "type": "uint256"
        },
        {
          "indexed": false,
          "internalType": "uint256",
          "name": "collateralIncrease",
          "type": "uint256"
        },
        {
          "indexed": false,
          "internalType": "uint256",
          "name": "collateralDecrease",
          "type": "uint256"
        }
      ],
      "name": "PositionAdjusted",
      "type": "event"
    },
    {
      "anonymous": false,
      "inputs": [
        {
          "indexed": true,
          "internalType": "address",
          "name": "creator",
          "type": "address"
        },
        {
          "indexed": true,
          "internalType": "uint64",
          "name": "positionID",
          "type": "uint64"
        }
      ],
      "name": "PositionCreated",
      "type": "event"
    },
    {
      "anonymous": false,
      "inputs": [
        {
          "indexed": true,
          "internalType": "uint256",
          "name": "positionID",
          "type": "uint256"
        },
        {
          "indexed": true,
          "internalType": "uint64",
          "name": "period",
          "type": "uint64"
        },
        {
          "indexed": false,
          "internalType": "uint256",
          "name": "debtAfter",
          "type": "uint256"
        },
        {
          "indexed": false,
          "internalType": "uint256",
          "name": "tcpRewards",
          "type": "uint256"
        }
      ],
      "name": "PositionUpdated",
      "type": "event"
    },
    {
      "anonymous": false,
      "inputs": [
        {
          "indexed": true,
          "internalType": "address",
          "name": "account",
          "type": "address"
        },
        {
          "indexed": true,
          "internalType": "bool",
          "name": "isKickback",
          "type": "bool"
        },
        {
          "indexed": false,
          "internalType": "uint256",
          "name": "tcpRewards",
          "type": "uint256"
        }
      ],
      "name": "RewardsDistributed",
      "type": "event"
    },
    {
      "anonymous": false,
      "inputs": [],
      "name": "Stopped",
      "type": "event"
    },
    {
      "anonymous": false,
      "inputs": [
        {
          "indexed": false,
          "internalType": "uint32",
          "name": "duration",
          "type": "uint32"
        }
      ],
      "name": "TwapDurationUpdated",
      "type": "event"
    },
    {
      "anonymous": false,
      "inputs": [
        {
          "indexed": true,
          "internalType": "address",
          "name": "account",
          "type": "address"
        },
        {
          "indexed": false,
          "internalType": "uint256",
          "name": "hueCount",
          "type": "uint256"
        },
        {
          "indexed": false,
          "internalType": "uint256",
          "name": "lendTokenCount",
          "type": "uint256"
        }
      ],
      "name": "Unlend",
      "type": "event"
    },
    {
      "inputs": [],
      "name": "accounting",
      "outputs": [
        {
          "internalType": "contract IAccounting",
          "name": "",
          "type": "address"
        }
      ],
      "stateMutability": "view",
      "type": "function"
    },
    {
      "inputs": [],
      "name": "accrueInterest",
      "outputs": [],
      "stateMutability": "nonpayable",
      "type": "function"
    },
    {
      "inputs": [
        {
          "internalType": "uint64",
          "name": "positionID",
          "type": "uint64"
        },
        {
          "internalType": "int256",
          "name": "debtChange",
          "type": "int256"
        },
        {
          "internalType": "uint256",
          "name": "collateralDecrease",
          "type": "uint256"
        },
        {
          "internalType": "uint32",
          "name": "ui",
          "type": "uint32"
        }
      ],
      "name": "adjustPosition",
      "outputs": [],
      "stateMutability": "payable",
      "type": "function"
    },
    {
      "inputs": [
        {
          "components": [
            {
              "internalType": "uint256",
              "name": "debt",
              "type": "uint256"
            },
            {
              "internalType": "uint256",
              "name": "totalTCPRewards",
              "type": "uint256"
            },
            {
              "internalType": "uint256",
              "name": "cumulativeDebt",
              "type": "uint256"
            },
            {
              "internalType": "uint256",
              "name": "debtExchangeRate",
              "type": "uint256"
            }
          ],
          "internalType": "struct IAccounting.SystemDebtInfo",
          "name": "sdi",
          "type": "tuple"
        },
        {
          "internalType": "uint64",
          "name": "periods",
          "type": "uint64"
        },
        {
          "internalType": "uint256",
          "name": "annualInterestRate",
          "type": "uint256"
        },
        {
          "internalType": "bool",
          "name": "positiveInterestRate",
          "type": "bool"
        },
        {
          "internalType": "uint256",
          "name": "reserves",
          "type": "uint256"
        },
        {
          "internalType": "uint256",
          "name": "_interestPortionToLenders",
          "type": "uint256"
        }
      ],
      "name": "calculateInterest",
      "outputs": [
        {
          "components": [
            {
              "internalType": "uint256",
              "name": "newDebt",
              "type": "uint256"
            },
            {
              "internalType": "uint256",
              "name": "newExchangeRate",
              "type": "uint256"
            },
            {
              "internalType": "uint256",
              "name": "additionalReserves",
              "type": "uint256"
            },
            {
              "internalType": "uint256",
              "name": "additionalLends",
              "type": "uint256"
            },
            {
              "internalType": "uint256",
              "name": "reducedReserves",
              "type": "uint256"
            }
          ],
          "internalType": "struct IMarket.CalculatedInterestInfo",
          "name": "cii",
          "type": "tuple"
        }
      ],
      "stateMutability": "pure",
      "type": "function"
    },
    {
      "inputs": [
        {
          "internalType": "uint64",
          "name": "positionID",
          "type": "uint64"
        },
        {
          "internalType": "uint32",
          "name": "ui",
          "type": "uint32"
        }
      ],
      "name": "claimRewards",
      "outputs": [],
      "stateMutability": "nonpayable",
      "type": "function"
    },
    {
      "inputs": [],
      "name": "collateralizationRequirement",
      "outputs": [
        {
          "internalType": "uint256",
          "name": "",
          "type": "uint256"
        }
      ],
      "stateMutability": "view",
      "type": "function"
    },
    {
      "inputs": [
        {
          "internalType": "uint256",
          "name": "initialDebt",
          "type": "uint256"
        },
        {
          "internalType": "uint32",
          "name": "ui",
          "type": "uint32"
        }
      ],
      "name": "createPosition",
      "outputs": [
        {
          "internalType": "uint64",
          "name": "positionID",
          "type": "uint64"
        }
      ],
      "stateMutability": "payable",
      "type": "function"
    },
    {
      "inputs": [],
      "name": "currentPeriod",
      "outputs": [
        {
          "internalType": "uint64",
          "name": "period",
          "type": "uint64"
        }
      ],
      "stateMutability": "view",
      "type": "function"
    },
    {
      "inputs": [],
      "name": "deployer",
      "outputs": [
        {
          "internalType": "address",
          "name": "",
          "type": "address"
        }
      ],
      "stateMutability": "view",
      "type": "function"
    },
    {
      "inputs": [],
      "name": "firstPeriod",
      "outputs": [
        {
          "internalType": "uint64",
          "name": "",
          "type": "uint64"
        }
      ],
      "stateMutability": "view",
      "type": "function"
    },
    {
      "inputs": [],
      "name": "governor",
      "outputs": [
        {
          "internalType": "contract IGovernor",
          "name": "",
          "type": "address"
        }
      ],
      "stateMutability": "view",
      "type": "function"
    },
    {
      "inputs": [],
      "name": "hue",
      "outputs": [
        {
          "internalType": "contract IHue",
          "name": "",
          "type": "address"
        }
      ],
      "stateMutability": "view",
      "type": "function"
    },
    {
      "inputs": [],
      "name": "huePositionNFT",
      "outputs": [
        {
          "internalType": "contract IPositionNFT",
          "name": "",
          "type": "address"
        }
      ],
      "stateMutability": "view",
      "type": "function"
    },
    {
      "inputs": [],
      "name": "init",
      "outputs": [],
      "stateMutability": "nonpayable",
      "type": "function"
    },
    {
      "inputs": [],
      "name": "interestPortionToLenders",
      "outputs": [
        {
          "internalType": "uint256",
          "name": "",
          "type": "uint256"
        }
      ],
      "stateMutability": "view",
      "type": "function"
    },
    {
      "inputs": [],
      "name": "lastPeriodGlobalInterestAccrued",
      "outputs": [
        {
          "internalType": "uint64",
          "name": "",
          "type": "uint64"
        }
      ],
      "stateMutability": "view",
      "type": "function"
    },
    {
      "inputs": [
        {
          "internalType": "uint256",
          "name": "hueCount",
          "type": "uint256"
        }
      ],
      "name": "lend",
      "outputs": [],
      "stateMutability": "nonpayable",
      "type": "function"
    },
    {
      "inputs": [],
      "name": "lendHue",
      "outputs": [
        {
          "internalType": "contract ILendHue",
          "name": "",
          "type": "address"
        }
      ],
      "stateMutability": "view",
      "type": "function"
    },
    {
      "inputs": [],
      "name": "minPositionSize",
      "outputs": [
        {
          "internalType": "uint256",
          "name": "",
          "type": "uint256"
        }
      ],
      "stateMutability": "view",
      "type": "function"
    },
    {
      "inputs": [],
      "name": "periodLength",
      "outputs": [
        {
          "internalType": "uint64",
          "name": "",
          "type": "uint64"
        }
      ],
      "stateMutability": "view",
      "type": "function"
    },
    {
      "inputs": [
        {
          "internalType": "uint64",
          "name": "positionID",
          "type": "uint64"
        }
      ],
      "name": "removeKickback",
      "outputs": [],
      "stateMutability": "nonpayable",
      "type": "function"
    },
    {
      "inputs": [
        {
          "internalType": "uint256",
          "name": "requirement",
          "type": "uint256"
        }
      ],
      "name": "setCollateralizationRequirement",
      "outputs": [],
      "stateMutability": "nonpayable",
      "type": "function"
    },
    {
      "inputs": [
        {
          "internalType": "uint256",
          "name": "percentage",
          "type": "uint256"
        }
      ],
      "name": "setInterestPortionToLenders",
      "outputs": [],
      "stateMutability": "nonpayable",
      "type": "function"
    },
    {
      "inputs": [
        {
          "internalType": "uint256",
          "name": "size",
          "type": "uint256"
        }
      ],
      "name": "setMinPositionSize",
      "outputs": [],
      "stateMutability": "nonpayable",
      "type": "function"
    },
    {
      "inputs": [
        {
          "internalType": "uint32",
          "name": "duration",
          "type": "uint32"
        }
      ],
      "name": "setTwapDuration",
      "outputs": [],
      "stateMutability": "nonpayable",
      "type": "function"
    },
    {
      "inputs": [],
      "name": "stop",
      "outputs": [],
      "stateMutability": "nonpayable",
      "type": "function"
    },
    {
      "inputs": [],
      "name": "stopped",
      "outputs": [
        {
          "internalType": "bool",
          "name": "",
          "type": "bool"
        }
      ],
      "stateMutability": "view",
      "type": "function"
    },
    {
      "inputs": [
        {
          "internalType": "uint64",
          "name": "positionID",
          "type": "uint64"
        }
      ],
      "name": "systemGetUpdatedPosition",
      "outputs": [
        {
          "components": [
            {
              "internalType": "uint256",
              "name": "startCumulativeDebt",
              "type": "uint256"
            },
            {
              "internalType": "uint256",
              "name": "collateral",
              "type": "uint256"
            },
            {
              "internalType": "uint256",
              "name": "debt",
              "type": "uint256"
            },
            {
              "internalType": "uint256",
              "name": "startDebtExchangeRate",
              "type": "uint256"
            },
            {
              "internalType": "uint256",
              "name": "startTCPRewards",
              "type": "uint256"
            },
            {
              "internalType": "uint64",
              "name": "lastTimeUpdated",
              "type": "uint64"
            },
            {
              "internalType": "uint64",
              "name": "lastBorrowTime",
              "type": "uint64"
            },
            {
              "internalType": "int24",
              "name": "tick",
              "type": "int24"
            },
            {
              "internalType": "bool",
              "name": "tickSet",
              "type": "bool"
            },
            {
              "internalType": "uint64",
              "name": "tickIndex",
              "type": "uint64"
            },
            {
              "internalType": "uint32",
              "name": "ui",
              "type": "uint32"
            },
            {
              "internalType": "address",
              "name": "kickbackDestination",
              "type": "address"
            },
            {
              "internalType": "uint64",
              "name": "kickbackPortion",
              "type": "uint64"
            }
          ],
          "internalType": "struct IAccounting.DebtPosition",
          "name": "",
          "type": "tuple"
        }
      ],
      "stateMutability": "nonpayable",
      "type": "function"
    },
    {
      "inputs": [],
      "name": "twapDuration",
      "outputs": [
        {
          "internalType": "uint32",
          "name": "",
          "type": "uint32"
        }
      ],
      "stateMutability": "view",
      "type": "function"
    },
    {
      "inputs": [
        {
          "internalType": "uint256",
          "name": "lendTokenCount",
          "type": "uint256"
        }
      ],
      "name": "unlend",
      "outputs": [],
      "stateMutability": "nonpayable",
      "type": "function"
    },
    {
      "inputs": [
        {
          "components": [
            {
              "internalType": "uint256",
              "name": "startCumulativeDebt",
              "type": "uint256"
            },
            {
              "internalType": "uint256",
              "name": "collateral",
              "type": "uint256"
            },
            {
              "internalType": "uint256",
              "name": "debt",
              "type": "uint256"
            },
            {
              "internalType": "uint256",
              "name": "startDebtExchangeRate",
              "type": "uint256"
            },
            {
              "internalType": "uint256",
              "name": "startTCPRewards",
              "type": "uint256"
            },
            {
              "internalType": "uint64",
              "name": "lastTimeUpdated",
              "type": "uint64"
            },
            {
              "internalType": "uint64",
              "name": "lastBorrowTime",
              "type": "uint64"
            },
            {
              "internalType": "int24",
              "name": "tick",
              "type": "int24"
            },
            {
              "internalType": "bool",
              "name": "tickSet",
              "type": "bool"
            },
            {
              "internalType": "uint64",
              "name": "tickIndex",
              "type": "uint64"
            },
            {
              "internalType": "uint32",
              "name": "ui",
              "type": "uint32"
            },
            {
              "internalType": "address",
              "name": "kickbackDestination",
              "type": "address"
            },
            {
              "internalType": "uint64",
              "name": "kickbackPortion",
              "type": "uint64"
            }
          ],
          "internalType": "struct IAccounting.DebtPosition",
          "name": "_position",
          "type": "tuple"
        },
        {
          "components": [
            {
              "internalType": "uint256",
              "name": "debt",
              "type": "uint256"
            },
            {
              "internalType": "uint256",
              "name": "totalTCPRewards",
              "type": "uint256"
            },
            {
              "internalType": "uint256",
              "name": "cumulativeDebt",
              "type": "uint256"
            },
            {
              "internalType": "uint256",
              "name": "debtExchangeRate",
              "type": "uint256"
            }
          ],
          "internalType": "struct IAccounting.SystemDebtInfo",
          "name": "sdi",
          "type": "tuple"
        },
        {
          "internalType": "uint64",
          "name": "timeNow",
          "type": "uint64"
        }
      ],
      "name": "updatePositionImpl",
      "outputs": [
        {
          "components": [
            {
              "internalType": "uint256",
              "name": "startCumulativeDebt",
              "type": "uint256"
            },
            {
              "internalType": "uint256",
              "name": "collateral",
              "type": "uint256"
            },
            {
              "internalType": "uint256",
              "name": "debt",
              "type": "uint256"
            },
            {
              "internalType": "uint256",
              "name": "startDebtExchangeRate",
              "type": "uint256"
            },
            {
              "internalType": "uint256",
              "name": "startTCPRewards",
              "type": "uint256"
            },
            {
              "internalType": "uint64",
              "name": "lastTimeUpdated",
              "type": "uint64"
            },
            {
              "internalType": "uint64",
              "name": "lastBorrowTime",
              "type": "uint64"
            },
            {
              "internalType": "int24",
              "name": "tick",
              "type": "int24"
            },
            {
              "internalType": "bool",
              "name": "tickSet",
              "type": "bool"
            },
            {
              "internalType": "uint64",
              "name": "tickIndex",
              "type": "uint64"
            },
            {
              "internalType": "uint32",
              "name": "ui",
              "type": "uint32"
            },
            {
              "internalType": "address",
              "name": "kickbackDestination",
              "type": "address"
            },
            {
              "internalType": "uint64",
              "name": "kickbackPortion",
              "type": "uint64"
            }
          ],
          "internalType": "struct IAccounting.DebtPosition",
          "name": "position",
          "type": "tuple"
        },
        {
          "internalType": "uint256",
          "name": "rewards",
          "type": "uint256"
        }
      ],
      "stateMutability": "pure",
      "type": "function"
    },
    {
      "inputs": [
        {
          "internalType": "bytes4",
          "name": "",
          "type": "bytes4"
        }
      ],
      "name": "validUpdate",
      "outputs": [
        {
          "internalType": "bool",
          "name": "",
          "type": "bool"
        }
      ],
      "stateMutability": "view",
      "type": "function"
    },
    {
      "inputs": [
        {
          "internalType": "uint256",
          "name": "lendTokenCount",
          "type": "uint256"
        }
      ],
      "name": "valueOfLendTokensInHue",
      "outputs": [
        {
          "internalType": "uint256",
          "name": "",
          "type": "uint256"
        }
      ],
      "stateMutability": "view",
      "type": "function"
    }
  ],
  "bytecode": "0x610180604052600160026000509090556714d1120d7b160000600360005090905568878678326eac90000060046000509090556702c68af0bb1400006005600050909055610708600660006101000a81548163ffffffff021916908363ffffffff160217905550348015620000745760006000fd5b5060405162005fb838038062005fb883398181016040528101906200009a919062000598565b5b805b610e105b816000015182602001515b815b8073ffffffffffffffffffffffffffffffffffffffff1660808173ffffffffffffffffffffffffffffffffffffffff1660601b815260140150505b508073ffffffffffffffffffffffffffffffffffffffff1660a08173ffffffffffffffffffffffffffffffffffffffff1660601b815260140150505b505060018167ffffffffffffffff1662000144620004c660201b60201c565b67ffffffffffffffff168115156200015857fe5b040367ffffffffffffffff1660e08167ffffffffffffffff1660c01b815260080150508067ffffffffffffffff1660c08167ffffffffffffffff1660c01b815260080150505b50806040015173ffffffffffffffffffffffffffffffffffffffff166101008173ffffffffffffffffffffffffffffffffffffffff1660601b81526014015050806060015173ffffffffffffffffffffffffffffffffffffffff166101208173ffffffffffffffffffffffffffffffffffffffff1660601b81526014015050806080015173ffffffffffffffffffffffffffffffffffffffff166101408173ffffffffffffffffffffffffffffffffffffffff1660601b815260140150508060a0015173ffffffffffffffffffffffffffffffffffffffff166101608173ffffffffffffffffffffffffffffffffffffffff1660601b815260140150506000604051806080016040528063ef5e1cac60e01b7bffffffffffffffffffffffffffffffffffffffffffffffffffffffff19167bffffffffffffffffffffffffffffffffffffffffffffffffffffffff1916815260200163c433c80a60e01b7bffffffffffffffffffffffffffffffffffffffffffffffffffffffff19167bffffffffffffffffffffffffffffffffffffffffffffffffffffffff191681526020016306972dcd60e01b7bffffffffffffffffffffffffffffffffffffffffffffffffffffffff19167bffffffffffffffffffffffffffffffffffffffffffffffffffffffff19168152602001635a6127a960e01b7bffffffffffffffffffffffffffffffffffffffffffffffffffffffff19167bffffffffffffffffffffffffffffffffffffffffffffffffffffffff191681526020015090506000600090505b81506004811015620004795760016001600050600084846004811015156200040257fe5b60200201517bffffffffffffffffffffffffffffffffffffffffffffffffffffffff19167bffffffffffffffffffffffffffffffffffffffffffffffffffffffff1916815260200190815260200160002060006101000a81548160ff0219169083151502179055505b8080600101915050620003de565b50336006600c6101000a81548173ffffffffffffffffffffffffffffffffffffffff021916908373ffffffffffffffffffffffffffffffffffffffff160217905550505b505b506200066d565b6000620004e042620004e860201b62001c1e17909060201c565b905080505b90565b600068010000000000000000821015156200056e576040517f08c379a00000000000000000000000000000000000000000000000000000000081526004018080602001828103825260118152602001807f6d6f7265207468616e203634206269747300000000000000000000000000000081526020015060200191505060405180910390fd5b81905062000577565b919050566200066c565b60008151905062000592816200064f565b5b919050565b600060c08284031215620005aa578081fd5b60405160c081018181106001600160401b0382111715620005c757fe5b80604052508251620005d9816200064f565b808252506020830151620005ed816200064f565b80602083015250604083015162000604816200064f565b80604083015250620006196060840162000581565b60608201526200062c6080840162000581565b60808201526200063f60a0840162000581565b60a0820152809150505b92915050565b6001600160a01b03811681141515620006685760006000fd5b5b50565b5b60805160601c60a05160601c60c05160c01c60e05160c01c6101005160601c6101205160601c6101405160601c6101605160601c6157cc620007ec600039806109905280610e605280611046528061111b52806111c0528061124952806112fb5280611556528061162c52806118d452806119845280611ad7528061237c52806129995280612ae65280612c5b5280612e285280612e5f52806132155280613682528061374552806138125280613a515250806109015280610a9b52806113285280613af5525080610c9952806112d95280612cf35280612d8c528061346252806137d6528061389752806138d35280613958525080610b225280610d985280610f7e528061144b528061148e528061189852806125c85250806117765280611e1a528061422e52508061179a5280611e3b528061424f525080611f3b528061212c5250806108725280611a3e5280611e9452806121bf52806124c2528061267552806132b9528061354a528061414a528061450f52506157cc6000f3fe6080604052600436106102015760003560e01c8063875bbc511161011d578063c433c80a116100b0578063e11c87621161007f578063eb6843ce11610064578063eb6843ce14610722578063ef5e1cac14610760578063f6979f291461078a57610201565b8063e11c8762146106cc578063e1c7392a1461070a57610201565b8063c433c80a1461061e578063c4e3a63b14610648578063d2ca211514610674578063d5f39488146106a057610201565b8063a89f51ae116100ec578063a89f51ae14610570578063b2326b571461059c578063b6ae213a146105c6578063bb8313c2146105f257610201565b8063875bbc51146104d85780639624e83e14610502578063a6aa57ce1461052e578063a6afed951461055857610201565b80632cae0269116101955780635658c012116101645780635658c0121461043a5780635a6127a91461046657806375f12b21146104905780637b809bdd146104bc57610201565b80632cae0269146103745780632e6c6f84146103a057806332374174146103d05780634ff34aca146103fc57610201565b80630c340a24116101d15780630c340a24146102b4578063113cf1ab146102e0578063197b1bf51461031e57806326d895451461034857610201565b8062b2a04414610207578063060406181461024657806306972dcd1461027257806307da68f51461029c57610201565b60006000fd5b3480156102145760006000fd5b5061022f600480360381019061022a9190614cf5565b6107b6565b60405161023d92919061557d565b60405180910390f35b3480156102535760006000fd5b5061025c6107e2565b604051610269919061563a565b60405180910390f35b34801561027f5760006000fd5b5061029a60048036038101906102959190614edb565b6107fa565b005b3480156102a95760006000fd5b506102b2610850565b005b3480156102c15760006000fd5b506102ca610870565b6040516102d791906152bd565b60405180910390f35b3480156102ed5760006000fd5b5061030860048036038101906103039190614b73565b610894565b6040516103159190615281565b60405180910390f35b34801561032b5760006000fd5b5061034660048036038101906103419190614edb565b6108b9565b005b3480156103555760006000fd5b5061035e610a83565b60405161036b9190615622565b60405180910390f35b3480156103815760006000fd5b5061038a610a99565b604051610397919061530d565b60405180910390f35b6103ba60048036038101906103b59190614f13565b610abd565b6040516103c7919061563a565b60405180910390f35b3480156103dd5760006000fd5b506103e6610c97565b6040516103f391906152e5565b60405180910390f35b3480156104095760006000fd5b50610424600480360381019061041f9190614e6e565b610cbb565b6040516104319190615528565b60405180910390f35b3480156104475760006000fd5b50610450610ce8565b60405161045d91906155d0565b60405180910390f35b3480156104735760006000fd5b5061048e60048036038101906104899190614edb565b610cf1565b005b34801561049d5760006000fd5b506104a6610d64565b6040516104b39190615281565b60405180910390f35b6104d660048036038101906104d19190614fb9565b610d77565b005b3480156104e55760006000fd5b5061050060048036038101906104fb9190615009565b610f5d565b005b34801561050f5760006000fd5b506105186111be565b6040516105259190615295565b60405180910390f35b34801561053b5760006000fd5b5061055660048036038101906105519190614edb565b6111e2565b005b3480156105655760006000fd5b5061056e61141b565b005b34801561057d5760006000fd5b50610586611449565b6040516105939190615335565b60405180910390f35b3480156105a95760006000fd5b506105c460048036038101906105bf9190614f6b565b61146d565b005b3480156105d35760006000fd5b506105dc6116ce565b6040516105e9919061563a565b60405180910390f35b3480156105ff5760006000fd5b506106086116e8565b60405161061591906155d0565b60405180910390f35b34801561062b5760006000fd5b5061064660048036038101906106419190614f44565b6116f1565b005b3480156106555760006000fd5b5061065e611774565b60405161066b919061563a565b60405180910390f35b3480156106815760006000fd5b5061068a611798565b604051610697919061563a565b60405180910390f35b3480156106ad5760006000fd5b506106b66117bc565b6040516106c3919061516b565b60405180910390f35b3480156106d95760006000fd5b506106f460048036038101906106ef9190614edb565b6117e2565b60405161070191906155d0565b60405180910390f35b3480156107175760006000fd5b50610720611810565b005b34801561072f5760006000fd5b5061074a60048036038101906107459190614f6b565b611a26565b6040516107579190615563565b60405180910390f35b34801561076d5760006000fd5b5061078860048036038101906107839190614edb565b611ba7565b005b3480156107975760006000fd5b506107a0611c15565b6040516107ad91906155d0565b60405180910390f35b6107be614909565b60006107d1858585611cb063ffffffff16565b80925081935050505b935093915050565b60006107f2611e1663ffffffff16565b905080505b90565b610808611e8f63ffffffff16565b8060046000508190909055507f113d15441cef41c1a48eb1bc2c6fa7b881b201a5c4b2913272f80defe12ce3c38160405161084391906155d0565b60405180910390a15b5b50565b61085e611e8f63ffffffff16565b61086c611eef63ffffffff16565b5b5b565b7f000000000000000000000000000000000000000000000000000000000000000081565b600160005060205280600052604060002060009150909054906101000a900460ff1681565b6108c7611f3963ffffffff16565b6108d561204c63ffffffff16565b6108e7600082116120d763ffffffff16565b600033905060006108fd836117e263ffffffff16565b90507f000000000000000000000000000000000000000000000000000000000000000073ffffffffffffffffffffffffffffffffffffffff166379cc679083856040518363ffffffff1660e01b815260040161095a929190615252565b600060405180830381600087803b1580156109755760006000fd5b505af115801561098a573d600060003e3d6000fd5b505050507f000000000000000000000000000000000000000000000000000000000000000073ffffffffffffffffffffffffffffffffffffffff1663b241bbac83836040518363ffffffff1660e01b81526004016109e9929190615252565b600060405180830381600087803b158015610a045760006000fd5b505af1158015610a19573d600060003e3d6000fd5b505050508173ffffffffffffffffffffffffffffffffffffffff167fefc56a1a7590fc4eb13cd40b6a2ceee41f3869c6ea818d20d9a18f2d6315ca188285604051610a659291906155e2565b60405180910390a250505b5b610a7f61211d63ffffffff16565b5b50565b600660009054906101000a900463ffffffff1681565b7f000000000000000000000000000000000000000000000000000000000000000081565b6000610acd611f3963ffffffff16565b610adb6121af63ffffffff16565b600034111515610b20576040517f08c379a0000000000000000000000000000000000000000000000000000000008152600401610b1790615406565b60405180910390fd5b7f000000000000000000000000000000000000000000000000000000000000000073ffffffffffffffffffffffffffffffffffffffff1663755edd17336040518263ffffffff1660e01b8152600401610b799190615193565b602060405180830381600087803b158015610b945760006000fd5b505af1158015610ba9573d600060003e3d6000fd5b505050506040513d601f19601f82011682018060405250810190610bcd9190614f92565b90508050610bd9614909565b8281610140019063ffffffff16908163ffffffff1681526020015050610c31610c128367ffffffffffffffff16836122dc63ffffffff16565b83610c24876127aa909063ffffffff16565b600061285363ffffffff16565b8167ffffffffffffffff163373ffffffffffffffffffffffffffffffffffffffff167f3bac2cc5a46c2a400f0a6b532080f052814635a76bccdecf39397718b2d554dd60405160405180910390a3505b5b610c9061211d63ffffffff16565b5b92915050565b7f000000000000000000000000000000000000000000000000000000000000000081565b610cc36149bd565b610cd7878787878787612f3f63ffffffff16565b9050610cde565b9695505050505050565b60036000505481565b610cff611e8f63ffffffff16565b806005600050819090905550670de0b6b3a764000060056000505411151515610d285760006000fd5b7f95c718270dc047bb0f84e533ee71ed5ee3961f14be924c0e493ba6e1ff078ae281604051610d5791906155d0565b60405180910390a15b5b50565b600060009054906101000a900460ff1681565b610d85611f3963ffffffff16565b610d936121af63ffffffff16565b610e4e7f000000000000000000000000000000000000000000000000000000000000000073ffffffffffffffffffffffffffffffffffffffff1663430c208133876040518363ffffffff1660e01b8152600401610df1929190615219565b60206040518083038186803b158015610e0a5760006000fd5b505afa158015610e1f573d600060003e3d6000fd5b505050506040513d601f19601f82011682018060405250810190610e439190614b4c565b61312d63ffffffff16565b6000610f158567ffffffffffffffff167f000000000000000000000000000000000000000000000000000000000000000073ffffffffffffffffffffffffffffffffffffffff16630f85fc5a886040518263ffffffff1660e01b8152600401610eb7919061563a565b6101a06040518083038186803b158015610ed15760006000fd5b505afa158015610ee6573d600060003e3d6000fd5b505050506040513d601f19601f82011682018060405250810190610f0a9190614c0e565b6122dc63ffffffff16565b90508181610140019063ffffffff16908163ffffffff1681526020015050610f458186868661285363ffffffff16565b505b5b610f5661211d63ffffffff16565b5b50505050565b610f6b611f3963ffffffff16565b610f7961204c63ffffffff16565b6110347f000000000000000000000000000000000000000000000000000000000000000073ffffffffffffffffffffffffffffffffffffffff1663430c208133856040518363ffffffff1660e01b8152600401610fd7929190615219565b60206040518083038186803b158015610ff05760006000fd5b505afa158015611005573d600060003e3d6000fd5b505050506040513d601f19601f820116820180604052508101906110299190614b4c565b61312d63ffffffff16565b60006110fb8367ffffffffffffffff167f000000000000000000000000000000000000000000000000000000000000000073ffffffffffffffffffffffffffffffffffffffff16630f85fc5a866040518263ffffffff1660e01b815260040161109d919061563a565b6101a06040518083038186803b1580156110b75760006000fd5b505afa1580156110cc573d600060003e3d6000fd5b505050506040513d601f19601f820116820180604052508101906110f09190614c0e565b6122dc63ffffffff16565b90508181610140019063ffffffff16908163ffffffff16815260200150507f000000000000000000000000000000000000000000000000000000000000000073ffffffffffffffffffffffffffffffffffffffff16635a6beaf484836040518363ffffffff1660e01b8152600401611174929190615656565b600060405180830381600087803b15801561118f5760006000fd5b505af11580156111a4573d600060003e3d6000fd5b50505050505b5b6111b961211d63ffffffff16565b5b5050565b7f000000000000000000000000000000000000000000000000000000000000000081565b6111f0611f3963ffffffff16565b6111fe6121af63ffffffff16565b611210600082116120d763ffffffff16565b60003390506112236131a963ffffffff16565b6000611245611236613a4b63ffffffff16565b84613bd890919063ffffffff16565b90507f000000000000000000000000000000000000000000000000000000000000000073ffffffffffffffffffffffffffffffffffffffff16632c73f09e846040518263ffffffff1660e01b81526004016112a091906155d0565b600060405180830381600087803b1580156112bb5760006000fd5b505af11580156112d0573d600060003e3d6000fd5b505050506113267f0000000000000000000000000000000000000000000000000000000000000000837f000000000000000000000000000000000000000000000000000000000000000086613bfe63ffffffff16565b7f000000000000000000000000000000000000000000000000000000000000000073ffffffffffffffffffffffffffffffffffffffff1663449a52f883836040518363ffffffff1660e01b8152600401611381929190615252565b600060405180830381600087803b15801561139c5760006000fd5b505af11580156113b1573d600060003e3d6000fd5b505050508173ffffffffffffffffffffffffffffffffffffffff167f8fff79b574da9a93d7a5408c2fc00c4a9b2b462321c1659b2fbbb9ff3dd221ff84836040516113fd9291906155e2565b60405180910390a250505b5b61141761211d63ffffffff16565b5b50565b611429613e2963ffffffff16565b6114376131a963ffffffff16565b5b611446613eba63ffffffff16565b5b565b7f000000000000000000000000000000000000000000000000000000000000000081565b61147b611f3963ffffffff16565b6114896121af63ffffffff16565b6115447f000000000000000000000000000000000000000000000000000000000000000073ffffffffffffffffffffffffffffffffffffffff1663430c208133846040518363ffffffff1660e01b81526004016114e7929190615219565b60206040518083038186803b1580156115005760006000fd5b505afa158015611515573d600060003e3d6000fd5b505050506040513d601f19601f820116820180604052508101906115399190614b4c565b61312d63ffffffff16565b600061160b8267ffffffffffffffff167f000000000000000000000000000000000000000000000000000000000000000073ffffffffffffffffffffffffffffffffffffffff16630f85fc5a856040518263ffffffff1660e01b81526004016115ad919061563a565b6101a06040518083038186803b1580156115c75760006000fd5b505afa1580156115dc573d600060003e3d6000fd5b505050506040513d601f19601f820116820180604052508101906116009190614c0e565b6122dc63ffffffff16565b9050600081610140019063ffffffff16908163ffffffff16815260200150507f000000000000000000000000000000000000000000000000000000000000000073ffffffffffffffffffffffffffffffffffffffff16635a6beaf483836040518363ffffffff1660e01b8152600401611685929190615656565b600060405180830381600087803b1580156116a05760006000fd5b505af11580156116b5573d600060003e3d6000fd5b50505050505b5b6116ca61211d63ffffffff16565b5b50565b600660049054906101000a900467ffffffffffffffff1681565b60046000505481565b6116ff611e8f63ffffffff16565b61012c8163ffffffff16101515156117175760006000fd5b80600660006101000a81548163ffffffff021916908363ffffffff1602179055507f670aac3910a07dcfe5267c8b0bf2357abdb454e509764d13e94e85ee13c6da20816040516117679190615622565b60405180910390a15b5b50565b7f000000000000000000000000000000000000000000000000000000000000000081565b7f000000000000000000000000000000000000000000000000000000000000000081565b6006600c9054906101000a900473ffffffffffffffffffffffffffffffffffffffff1681565b60006118046117f5613a4b63ffffffff16565b83613eca90919063ffffffff16565b905061180b565b919050565b61186f6006600c9054906101000a900473ffffffffffffffffffffffffffffffffffffffff1673ffffffffffffffffffffffffffffffffffffffff163373ffffffffffffffffffffffffffffffffffffffff161461312d63ffffffff16565b6006600c6101000a81549073ffffffffffffffffffffffffffffffffffffffff021916905560007f000000000000000000000000000000000000000000000000000000000000000073ffffffffffffffffffffffffffffffffffffffff1663755edd177f00000000000000000000000000000000000000000000000000000000000000006040518263ffffffff1660e01b815260040161190f919061516b565b602060405180830381600087803b15801561192a5760006000fd5b505af115801561193f573d600060003e3d6000fd5b505050506040513d601f19601f820116820180604052508101906119639190614f92565b67ffffffffffffffff1614151561197a5760006000fd5b611982614909565b7f000000000000000000000000000000000000000000000000000000000000000073ffffffffffffffffffffffffffffffffffffffff16635a6beaf460006119d16000856122dc63ffffffff16565b6040518363ffffffff1660e01b81526004016119ee92919061535d565b600060405180830381600087803b158015611a095760006000fd5b505af1158015611a1e573d600060003e3d6000fd5b50505050505b565b611a2e614909565b611a3c613e2963ffffffff16565b7f000000000000000000000000000000000000000000000000000000000000000073ffffffffffffffffffffffffffffffffffffffff16639622cd8f336040518263ffffffff1660e01b8152600401611a959190615193565b60006040518083038186803b158015611aae5760006000fd5b505afa158015611ac3573d600060003e3d6000fd5b50505050611b8c8267ffffffffffffffff167f000000000000000000000000000000000000000000000000000000000000000073ffffffffffffffffffffffffffffffffffffffff16630f85fc5a856040518263ffffffff1660e01b8152600401611b2e919061563a565b6101a06040518083038186803b158015611b485760006000fd5b505afa158015611b5d573d600060003e3d6000fd5b505050506040513d601f19601f82011682018060405250810190611b819190614c0e565b6122dc63ffffffff16565b9050611b93565b611ba1613eba63ffffffff16565b5b919050565b611bb5611e8f63ffffffff16565b806003600050819090905550670de0b6b3a76400008110151515611bd95760006000fd5b7f52640f3e2df50709ead28077e905b85df7544c73c32a40259dff3ac35927d5ce81604051611c0891906155d0565b60405180910390a15b5b50565b60056000505481565b60006801000000000000000082101515611ca3576040517f08c379a00000000000000000000000000000000000000000000000000000000081526004018080602001828103825260118152602001807f6d6f7265207468616e203634206269747300000000000000000000000000000081526020015060200191505060405180910390fd5b819050611cab565b919050565b611cb8614909565b6000849150815060008260a0015167ffffffffffffffff16118015611ce1575060008260400151115b15611db157611d07846060015183606001518460400151613ef09092919063ffffffff16565b8260400190908181526020015050611dac611d398360a001518567ffffffffffffffff16613ff190919063ffffffff16565b67ffffffffffffffff16610e1067ffffffffffffffff16611d9d611d6e8660800151896020015161408e90919063ffffffff16565b611d8987600001518a6040015161408e90919063ffffffff16565b8760400151613ef09092919063ffffffff16565b613ef09092919063ffffffff16565b905080505b836060015182606001909081815260200150508360200151826080019090818152602001505083604001518260000190908181526020015050828260a0019067ffffffffffffffff16908167ffffffffffffffff16815260200150505b935093915050565b60007f00000000000000000000000000000000000000000000000000000000000000007f000000000000000000000000000000000000000000000000000000000000000067ffffffffffffffff16611e7261411763ffffffff16565b67ffffffffffffffff16811515611e8557fe5b0403905080505b90565b611eec7f000000000000000000000000000000000000000000000000000000000000000073ffffffffffffffffffffffffffffffffffffffff163373ffffffffffffffffffffffffffffffffffffffff161461312d63ffffffff16565b5b565b6001600060006101000a81548160ff0219169083151502179055507f7acc84e34091ae817647a4c49116f5cc07f319078ba80f8f5fde37ea7e25cbd660405160405180910390a15b565b7f000000000000000000000000000000000000000000000000000000000000000073ffffffffffffffffffffffffffffffffffffffff1663e97dcb626040518163ffffffff1660e01b8152600401600060405180830381600087803b158015611fa25760006000fd5b505af1158015611fb7573d600060003e3d6000fd5b5050505060026002600050541415151561203c576040517f08c379a000000000000000000000000000000000000000000000000000000000815260040180806020018281038252600d8152602001807f4c50205265656e7472616e63790000000000000000000000000000000000000081526020015060200191505060405180910390fd5b600260026000508190909055505b565b600060009054906101000a900460ff161515156120d4576040517f08c379a00000000000000000000000000000000000000000000000000000000081526004018080602001828103825260138152602001807f436f6e74726163742069732073746f707065640000000000000000000000000081526020015060200191505060405180910390fd5b5b565b801515612119576040517f08c379a0000000000000000000000000000000000000000000000000000000008152600401612110906153c7565b60405180910390fd5b5b50565b600160026000508190909055507f000000000000000000000000000000000000000000000000000000000000000073ffffffffffffffffffffffffffffffffffffffff1663e9fad8ee6040518163ffffffff1660e01b8152600401600060405180830381600087803b1580156121935760006000fd5b505af11580156121a8573d600060003e3d6000fd5b505050505b565b6121bd61204c63ffffffff16565b7f000000000000000000000000000000000000000000000000000000000000000073ffffffffffffffffffffffffffffffffffffffff1663bf86d6906040518163ffffffff1660e01b815260040160206040518083038186803b1580156122245760006000fd5b505afa158015612239573d600060003e3d6000fd5b505050506040513d60208110156122505760006000fd5b81019080805190602001909291905050501515156122d9576040517f08c379a00000000000000000000000000000000000000000000000000000000081526004018080602001828103825260118152602001807f50726f746f636f6c2073687574646f776e00000000000000000000000000000081526020015060200191505060405180910390fd5b5b565b6122e4614909565b60006122f461413263ffffffff16565b905060006123078261422763ffffffff16565b9050600060008560a0015167ffffffffffffffff1614612339576123348560a0015161422763ffffffff16565b61233c565b60005b90508067ffffffffffffffff168267ffffffffffffffff16111515612366578493505050506127a4565b6123746131a963ffffffff16565b6000612426867f000000000000000000000000000000000000000000000000000000000000000073ffffffffffffffffffffffffffffffffffffffff166306ef2d806040518163ffffffff1660e01b815260040160806040518083038186803b1580156123e15760006000fd5b505afa1580156123f6573d600060003e3d6000fd5b505050506040513d601f19601f8201168201806040525081019061241a9190614e0e565b86611cb063ffffffff16565b809250819650505060008111801561243f575060008714155b1561275657600073ffffffffffffffffffffffffffffffffffffffff1685610160015173ffffffffffffffffffffffffffffffffffffffff16141580156124955750600085610180015167ffffffffffffffff16115b156125c45760006124be86610180015167ffffffffffffffff1683613bd890919063ffffffff16565b90507f000000000000000000000000000000000000000000000000000000000000000073ffffffffffffffffffffffffffffffffffffffff1663ef7a7cfa876101600151836040518363ffffffff1660e01b8152600401612520929190615252565b600060405180830381600087803b15801561253b5760006000fd5b505af1158015612550573d600060003e3d6000fd5b505050506001151586610160015173ffffffffffffffffffffffffffffffffffffffff167f8079a05488a0f375c08504c3ba8b3a1371f5a192b7a141bc9294ef7ad41389d9836040516125a391906155d0565b60405180910390a36125be818361408e90919063ffffffff16565b91508150505b60007f000000000000000000000000000000000000000000000000000000000000000073ffffffffffffffffffffffffffffffffffffffff16636352211e896040518263ffffffff1660e01b815260040161261f91906155d0565b60206040518083038186803b1580156126385760006000fd5b505afa15801561264d573d600060003e3d6000fd5b505050506040513d601f19601f820116820180604052508101906126719190614b25565b90507f000000000000000000000000000000000000000000000000000000000000000073ffffffffffffffffffffffffffffffffffffffff1663ef7a7cfa82846040518363ffffffff1660e01b81526004016126ce929190615252565b600060405180830381600087803b1580156126e95760006000fd5b505af11580156126fe573d600060003e3d6000fd5b50505050600015158173ffffffffffffffffffffffffffffffffffffffff167f8079a05488a0f375c08504c3ba8b3a1371f5a192b7a141bc9294ef7ad41389d98460405161274c91906155d0565b60405180910390a3505b8267ffffffffffffffff16877fc99ac0d15229fa72f1b0756c0eed4e7ede3d80f4e4e0d308ce7a56d1366b8a038760400151846040516127979291906155e2565b60405180910390a3505050505b92915050565b60007f800000000000000000000000000000000000000000000000000000000000000082101515612846576040517f08c379a00000000000000000000000000000000000000000000000000000000081526004018080602001828103825260128152602001807f746f6f2062696720666f7220696e74323536000000000000000000000000000081526020015060200191505060405180910390fd5b81905061284e565b919050565b600034905060006000841361286957600061286b565b835b905060006000851261287e5760006128b2565b6128b17fffffffffffffffffffffffffffffffffffffffffffffffffffffffffffffffff866142af90919063ffffffff16565b5b90506000831180156128c45750600084115b151515612906576040517f08c379a00000000000000000000000000000000000000000000000000000000081526004016128fd90615445565b60405180910390fd5b61293960008411806129185750600085115b806129235750600083115b8061292e5750600082115b6120d763ffffffff16565b6000821115612a255761295061411763ffffffff16565b8760c0019067ffffffffffffffff16908167ffffffffffffffff16815260200150506129898288604001516143e590919063ffffffff16565b87604001909081815260200150507f000000000000000000000000000000000000000000000000000000000000000073ffffffffffffffffffffffffffffffffffffffff16632b7c7b11836040518263ffffffff1660e01b81526004016129f091906155d0565b600060405180830381600087803b158015612a0b5760006000fd5b505af1158015612a20573d600060003e3d6000fd5b505050505b6000811115612b7257612a3c61411763ffffffff16565b67ffffffffffffffff16612a6d610708610e10018960c0015167ffffffffffffffff1661446e90919063ffffffff16565b67ffffffffffffffff16101515612ab9576040517f08c379a0000000000000000000000000000000000000000000000000000000008152600401612ab090615388565b60405180910390fd5b8087604001511015612acf578660400151905080505b8087604001818151039150909081815260200150507f000000000000000000000000000000000000000000000000000000000000000073ffffffffffffffffffffffffffffffffffffffff16632a7ba1f7826040518263ffffffff1660e01b8152600401612b3d91906155d0565b600060405180830381600087803b158015612b585760006000fd5b505af1158015612b6d573d600060003e3d6000fd5b505050505b6000831115612ba157612b928388602001516143e590919063ffffffff16565b87602001909081815260200150505b6000841115612bd057612bc184886020015161408e90919063ffffffff16565b87602001909081815260200150505b600087604001511115612c5957600460005054876040015110151515612c2b576040517f08c379a0000000000000000000000000000000000000000000000000000000008152600401612c22906154aa565b60405180910390fd5b6000841180612c3a5750600082115b15612c5857612c578760400151886020015161450b63ffffffff16565b5b5b7f000000000000000000000000000000000000000000000000000000000000000073ffffffffffffffffffffffffffffffffffffffff16635a6beaf487896040518363ffffffff1660e01b8152600401612cb4929190615656565b600060405180830381600087803b158015612ccf5760006000fd5b505af1158015612ce4573d600060003e3d6000fd5b505050506000821115612d81577f000000000000000000000000000000000000000000000000000000000000000073ffffffffffffffffffffffffffffffffffffffff1663449a52f833846040518363ffffffff1660e01b8152600401612d4c9291906151ea565b600060405180830381600087803b158015612d675760006000fd5b505af1158015612d7c573d600060003e3d6000fd5b505050505b6000811115612e1a577f000000000000000000000000000000000000000000000000000000000000000073ffffffffffffffffffffffffffffffffffffffff166379cc679033836040518363ffffffff1660e01b8152600401612de59291906151ea565b600060405180830381600087803b158015612e005760006000fd5b505af1158015612e15573d600060003e3d6000fd5b505050505b6000831115612e5457612e537f0000000000000000000000000000000000000000000000000000000000000000846146bf63ffffffff16565b5b6000841115612eed577f000000000000000000000000000000000000000000000000000000000000000073ffffffffffffffffffffffffffffffffffffffff16636250216933866040518363ffffffff1660e01b8152600401612eb89291906151bb565b600060405180830381600087803b158015612ed35760006000fd5b505af1158015612ee8573d600060003e3d6000fd5b505050505b8567ffffffffffffffff167fbbc7e03aef2c74664e8e5632c43a9cad7e6bf6eb7d0b8204e281a4fb65ca827183838688604051612f2d94939291906155fb565b60405180910390a25050505b50505050565b612f476149bd565b6000851415612f7e578660000151816000019090818152602001505086606001518160200190908181526020015050809050613123565b6000612fc48767ffffffffffffffff16610e1067ffffffffffffffff166301e13380811515612fa957fe5b0467ffffffffffffffff1688613ef09092919063ffffffff16565b9050600085612fed57612fe882670de0b6b3a764000061408e90919063ffffffff16565b613009565b61300882670de0b6b3a76400006143e590919063ffffffff16565b5b9050613022818a60600151613bd890919063ffffffff16565b836020019090818152602001505061305183602001518a606001518b60000151613ef09092919063ffffffff16565b83600001909081815260200150508860000151836000015111156130ba576000896000015184600001510390506130918582613bd890919063ffffffff16565b846060019090818152602001505083606001518103846040019090818152602001505050613120565b88600001518360000151101561311f57600083600001518a60000151039050858110151561310d57896000015184600001909081815260200150508960600151846020019090818152602001505061311d565b8084608001909081815260200150505b505b5b50505b9695505050505050565b8015156131a5576040517f08c379a000000000000000000000000000000000000000000000000000000000815260040180806020018281038252600e8152602001807f4e6f7420417574686f72697a656400000000000000000000000000000000000081526020015060200191505060405180910390fd5b5b50565b60006131b961484563ffffffff16565b9050600660049054906101000a900467ffffffffffffffff1667ffffffffffffffff168167ffffffffffffffff161115156131f45750613a49565b6000600660049054906101000a900467ffffffffffffffff168203905060007f000000000000000000000000000000000000000000000000000000000000000073ffffffffffffffffffffffffffffffffffffffff166306ef2d806040518163ffffffff1660e01b815260040160806040518083038186803b15801561327a5760006000fd5b505afa15801561328f573d600060003e3d6000fd5b505050506040513d601f19601f820116820180604052508101906132b39190614e0e565b905060007f000000000000000000000000000000000000000000000000000000000000000073ffffffffffffffffffffffffffffffffffffffff166343f48fbd6040518163ffffffff1660e01b815260040160206040518083038186803b15801561331e5760006000fd5b505afa158015613333573d600060003e3d6000fd5b505050506040513d601f19601f820116820180604052508101906133579190614be7565b9050600061351183858473ffffffffffffffffffffffffffffffffffffffff1663a0fc0eda6040518163ffffffff1660e01b815260040160206040518083038186803b1580156133a75760006000fd5b505afa1580156133bc573d600060003e3d6000fd5b505050506040513d601f19601f820116820180604052508101906133e09190614ef7565b8573ffffffffffffffffffffffffffffffffffffffff16636d7fa6646040518163ffffffff1660e01b815260040160206040518083038186803b1580156134275760006000fd5b505afa15801561343c573d600060003e3d6000fd5b505050506040513d601f19601f820116820180604052508101906134609190614b4c565b7f000000000000000000000000000000000000000000000000000000000000000073ffffffffffffffffffffffffffffffffffffffff166375172a8b6040518163ffffffff1660e01b815260040160206040518083038186803b1580156134c75760006000fd5b505afa1580156134dc573d600060003e3d6000fd5b505050506040513d601f19601f820116820180604052508101906135009190614ef7565b600560005054612f3f63ffffffff16565b90506000610e1067ffffffffffffffff166201518081151561352f57fe5b0467ffffffffffffffff166135f88667ffffffffffffffff167f000000000000000000000000000000000000000000000000000000000000000073ffffffffffffffffffffffffffffffffffffffff1663a5d4198b6040518163ffffffff1660e01b8152600401602060405180830381600087803b1580156135b15760006000fd5b505af11580156135c6573d600060003e3d6000fd5b505050506040513d601f19601f820116820180604052508101906135ea9190614ef7565b61486b90919063ffffffff16565b81151561360157fe5b0490506040518060800160405280836000015181526020016136308387602001516143e590919063ffffffff16565b815260200161366c6136598867ffffffffffffffff16886000015161486b90919063ffffffff16565b87604001516143e590919063ffffffff16565b81526020018360200151815260200150935083507f000000000000000000000000000000000000000000000000000000000000000073ffffffffffffffffffffffffffffffffffffffff166378efc6b0856040518263ffffffff1660e01b81526004016136d9919061559f565b600060405180830381600087803b1580156136f45760006000fd5b505af1158015613709573d600060003e3d6000fd5b5050505085600660046101000a81548167ffffffffffffffff021916908367ffffffffffffffff160217905550600082606001511115613888577f000000000000000000000000000000000000000000000000000000000000000073ffffffffffffffffffffffffffffffffffffffff16632c73f09e83606001516040518263ffffffff1660e01b81526004016137a091906155d0565b600060405180830381600087803b1580156137bb5760006000fd5b505af11580156137d0573d600060003e3d6000fd5b505050507f000000000000000000000000000000000000000000000000000000000000000073ffffffffffffffffffffffffffffffffffffffff1663449a52f87f000000000000000000000000000000000000000000000000000000000000000084606001516040518363ffffffff1660e01b8152600401613853929190615252565b600060405180830381600087803b15801561386e5760006000fd5b505af1158015613883573d600060003e3d6000fd5b505050505b600082604001511115613949577f000000000000000000000000000000000000000000000000000000000000000073ffffffffffffffffffffffffffffffffffffffff1663449a52f87f000000000000000000000000000000000000000000000000000000000000000084604001516040518363ffffffff1660e01b8152600401613914929190615252565b600060405180830381600087803b15801561392f5760006000fd5b505af1158015613944573d600060003e3d6000fd5b505050505b6000826080015111156139e8577f000000000000000000000000000000000000000000000000000000000000000073ffffffffffffffffffffffffffffffffffffffff1663c59fb1ab83608001516040518263ffffffff1660e01b81526004016139b391906155d0565b600060405180830381600087803b1580156139ce5760006000fd5b505af11580156139e3573d600060003e3d6000fd5b505050505b8567ffffffffffffffff167fdfc2183705a66b49f12c66a6d3b2fa5cf3b7c67086e9c6e90d144befc94f436c868660000151876020015188604001518960600151604051613a3a959493929190615681565b60405180910390a25050505050505b565b600060007f000000000000000000000000000000000000000000000000000000000000000073ffffffffffffffffffffffffffffffffffffffff16637f250c616040518163ffffffff1660e01b815260040160206040518083038186803b158015613ab65760006000fd5b505afa158015613acb573d600060003e3d6000fd5b505050506040513d601f19601f82011682018060405250810190613aef9190614ef7565b905060007f000000000000000000000000000000000000000000000000000000000000000073ffffffffffffffffffffffffffffffffffffffff166318160ddd6040518163ffffffff1660e01b815260040160206040518083038186803b158015613b5a5760006000fd5b505afa158015613b6f573d600060003e3d6000fd5b505050506040513d601f19601f82011682018060405250810190613b939190614ef7565b90506000811480613ba45750600082145b613bc057613bbb8282613eca90919063ffffffff16565b613bca565b670de0b6b3a76400005b92505050613bd55650505b90565b6000613bf38383670de0b6b3a7640000613ef063ffffffff16565b905080505b92915050565b600060008573ffffffffffffffffffffffffffffffffffffffff166323b872dd60e01b868686604051602401808473ffffffffffffffffffffffffffffffffffffffff1681526020018373ffffffffffffffffffffffffffffffffffffffff1681526020018281526020019350505050604051602081830303815290604052907bffffffffffffffffffffffffffffffffffffffffffffffffffffffff19166020820180517bffffffffffffffffffffffffffffffffffffffffffffffffffffffff83818316178352505050506040518082805190602001908083835b602083101515613d0157805182525b602082019150602081019050602083039250613cdb565b6001836020036101000a0380198251168184511680821785525050505050509050019150506000604051808303816000865af19150503d8060008114613d63576040519150601f19603f3d011682016040523d82523d6000602084013e613d68565b606091505b5091509150818015613da95750600081511480613da85750808060200190516020811015613d965760006000fd5b81019080805190602001909291905050505b5b1515613e20576040517f08c379a00000000000000000000000000000000000000000000000000000000081526004018080602001828103825260038152602001807f535446000000000000000000000000000000000000000000000000000000000081526020015060200191505060405180910390fd5b50505b50505050565b600260026000505414151515613eaa576040517f08c379a000000000000000000000000000000000000000000000000000000000815260040180806020018281038252600d8152602001807f4c43205265656e7472616e63790000000000000000000000000000000000000081526020015060200191505060405180910390fd5b600260026000508190909055505b565b600160026000508190909055505b565b6000613ee583670de0b6b3a764000084613ef063ffffffff16565b905080505b92915050565b6000600060006000198587098587029250828110838203039150506000811415613f3357600084111515613f245760006000fd5b83820492508292505050613fea565b8084111515613f425760006000fd5b6000848688099050828111820391508083039250600085866000031690508086049550808404935060018182600003040190508083028417935083506000600287600302189050808702600203810290508050808702600203810290508050808702600203810290508050808702600203810290508050808702600203810290508050808702600203810290508050808502955085508595505050505050613fea5650505050505b9392505050565b60008267ffffffffffffffff1682840391508167ffffffffffffffff1611151515614087576040517f08c379a000000000000000000000000000000000000000000000000000000000815260040180806020018281038252600d8152602001807f7375622d756e646572666c6f770000000000000000000000000000000000000081526020015060200191505060405180910390fd5b5b92915050565b60008282840391508111151515614110576040517f08c379a000000000000000000000000000000000000000000000000000000000815260040180806020018281038252600d8152602001807f7375622d756e646572666c6f770000000000000000000000000000000000000081526020015060200191505060405180910390fd5b5b92915050565b600061412a42611c1e909063ffffffff16565b905080505b90565b600061414261411763ffffffff16565b9050805060007f000000000000000000000000000000000000000000000000000000000000000073ffffffffffffffffffffffffffffffffffffffff1663585690816040518163ffffffff1660e01b815260040160206040518083038186803b1580156141af5760006000fd5b505afa1580156141c4573d600060003e3d6000fd5b505050506040513d601f19601f820116820180604052508101906141e89190614f92565b905060008167ffffffffffffffff1611801561421757508167ffffffffffffffff168167ffffffffffffffff16105b156142225780915081505b505b90565b60006142a57f00000000000000000000000000000000000000000000000000000000000000007f000000000000000000000000000000000000000000000000000000000000000067ffffffffffffffff168467ffffffffffffffff1681151561428c57fe5b0467ffffffffffffffff16613ff190919063ffffffff16565b905080505b919050565b600060008314156142c357600090506143df565b7fffffffffffffffffffffffffffffffffffffffffffffffffffffffffffffffff8314801561431157507f800000000000000000000000000000000000000000000000000000000000000082145b151515614369576040517f08c379a00000000000000000000000000000000000000000000000000000000081526004018080602001828103825260278152602001806157706027913960400191505060405180910390fd5b6000828402905082848281151561437c57fe5b051415156143d5576040517f08c379a00000000000000000000000000000000000000000000000000000000081526004018080602001828103825260278152602001806157706027913960400191505060405180910390fd5b809150506143df56505b92915050565b60008282840191508110151515614467576040517f08c379a000000000000000000000000000000000000000000000000000000000815260040180806020018281038252600c8152602001807f6164642d6f766572666c6f77000000000000000000000000000000000000000081526020015060200191505060405180910390fd5b5b92915050565b60008267ffffffffffffffff1682840191508167ffffffffffffffff1610151515614504576040517f08c379a000000000000000000000000000000000000000000000000000000000815260040180806020018281038252600c8152602001807f6164642d6f766572666c6f77000000000000000000000000000000000000000081526020015060200191505060405180910390fd5b5b92915050565b60007f000000000000000000000000000000000000000000000000000000000000000073ffffffffffffffffffffffffffffffffffffffff1663d3419bf36040518163ffffffff1660e01b815260040160206040518083038186803b1580156145745760006000fd5b505afa158015614589573d600060003e3d6000fd5b505050506040513d601f19601f820116820180604052508101906145ad9190614bc0565b73ffffffffffffffffffffffffffffffffffffffff1663fa42dcf4600660009054906101000a900463ffffffff166040518263ffffffff1660e01b81526004016145f79190615622565b60206040518083038186803b1580156146105760006000fd5b505afa158015614625573d600060003e3d6000fd5b505050506040513d601f19601f820116820180604052508101906146499190614ef7565b90506146638360036000505461486b90919063ffffffff16565b614676828461486b90919063ffffffff16565b101515156146b9576040517f08c379a00000000000000000000000000000000000000000000000000000000081526004016146b0906154e9565b60405180910390fd5b505b5050565b60008273ffffffffffffffffffffffffffffffffffffffff1682600067ffffffffffffffff811180156146f25760006000fd5b506040519080825280601f01601f1916602001820160405280156147255781602001600182028036833780820191505090505b506040518082805190602001908083835b60208310151561475c57805182525b602082019150602081019050602083039250614736565b6001836020036101000a03801982511681845116808217855250505050505090500191505060006040518083038185875af1925050503d80600081146147be576040519150601f19603f3d011682016040523d82523d6000602084013e6147c3565b606091505b5050905080151561483f576040517f08c379a00000000000000000000000000000000000000000000000000000000081526004018080602001828103825260038152602001807f535445000000000000000000000000000000000000000000000000000000000081526020015060200191505060405180910390fd5b505b5050565b600061486361485861413263ffffffff16565b61422763ffffffff16565b905080505b90565b6000600082148061488b5750828283850292508281151561488857fe5b04145b1515614902576040517f08c379a000000000000000000000000000000000000000000000000000000000815260040180806020018281038252600c8152602001807f6d756c2d6f766572666c6f77000000000000000000000000000000000000000081526020015060200191505060405180910390fd5b5b92915050565b604051806101a001604052806000815260200160008152602001600081526020016000815260200160008152602001600067ffffffffffffffff168152602001600067ffffffffffffffff168152602001600060020b8152602001600015158152602001600067ffffffffffffffff168152602001600063ffffffff168152602001600073ffffffffffffffffffffffffffffffffffffffff168152602001600067ffffffffffffffff1681526020015090565b6040518060a00160405280600081526020016000815260200160008152602001600081526020016000815260200150905661576e565b600081359050614a02816156e4565b5b919050565b600081519050614a17816156e4565b5b919050565b600081359050614a2c8161570d565b5b919050565b600081519050614a418161570d565b5b919050565b600081359050614a5681615722565b5b919050565b600081519050614a6b81615722565b5b919050565b600060808284031215614a82578081fd5b6040516080810181811067ffffffffffffffff82111715614a9f57fe5b806040525080915082358152602083013560208201526040830135604082015260608301356060820152505b92915050565b600081359050614ae081615738565b5b919050565b600081519050614af581615738565b5b919050565b600081359050614b0a81615751565b5b919050565b600081519050614b1f81615751565b5b919050565b600060208284031215614b36578081fd5b8151614b41816156e4565b809150505b92915050565b600060208284031215614b5d578081fd5b8151614b688161570d565b809150505b92915050565b600060208284031215614b84578081fd5b81357fffffffff00000000000000000000000000000000000000000000000000000000811681141515614bb5578182fd5b809150505b92915050565b600060208284031215614bd1578081fd5b8151614bdc816156e4565b809150505b92915050565b600060208284031215614bf8578081fd5b8151614c03816156e4565b809150505b92915050565b60006101a0808385031215614c21578182fd5b614c2a816156b9565b90508251815260208301516020820152604083015160408201526060830151606082015260808301516080820152614c6460a08401614b10565b60a0820152614c7560c08401614b10565b60c0820152614c8660e08401614a5c565b60e0820152610100614c99818501614a32565b8183015250610120614cac818501614b10565b8183015250610140614cbf818501614ae6565b8183015250610160614cd2818501614a08565b8183015250610180614ce5818501614b10565b8183015250809150505b92915050565b600060006000838503610240811215614d0c578283fd5b6101a080821215614d1b578384fd5b614d24816156b9565b91508535825260208601356020830152604086013560408301526060860135606083015260808601356080830152614d5e60a08701614afb565b60a0830152614d6f60c08701614afb565b60c0830152614d8060e08701614a47565b60e0830152610100614d93818801614a1d565b8184015250610120614da6818801614afb565b8184015250610140614db9818801614ad1565b8184015250610160614dcc8188016149f3565b8184015250610180614ddf818801614afb565b8184015250819450614df387828801614a71565b93505050614e046102208501614afb565b90505b9250925092565b600060808284031215614e1f578081fd5b6040516080810181811067ffffffffffffffff82111715614e3c57fe5b806040525082518152602083015160208201526040830151604082015260608301516060820152809150505b92915050565b6000600060006000600060006101208789031215614e8a578384fd5b614e948888614a71565b95506080870135614ea481615751565b8095505060a0870135935060c0870135614ebd8161570d565b8093505060e0870135915061010087013590505b9295509295509295565b600060208284031215614eec578081fd5b813590505b92915050565b600060208284031215614f08578081fd5b815190505b92915050565b6000600060408385031215614f26578182fd5b823591506020830135614f3881615738565b809150505b9250929050565b600060208284031215614f55578081fd5b8135614f6081615738565b809150505b92915050565b600060208284031215614f7c578081fd5b8135614f8781615751565b809150505b92915050565b600060208284031215614fa3578081fd5b8151614fae81615751565b809150505b92915050565b600060006000600060808587031215614fd0578182fd5b8435614fdb81615751565b8094505060208501359250604085013591506060850135614ffb81615738565b809150505b92959194509250565b600060006040838503121561501c578182fd5b823561502781615751565b80925050602083013561503981615738565b809150505b9250929050565b73ffffffffffffffffffffffffffffffffffffffff811682525b5050565b80151582525b5050565b8060020b82525b5050565b805182526020810151602083015260408101516040830152606081015160608301526080810151608083015260a08101516150b660a0840182615159565b5060c08101516150c960c0840182615159565b5060e08101516150dc60e084018261506d565b50610100808201516150f082850182615063565b50506101208082015161510582850182615159565b50506101408082015161511a8285018261514b565b50506101608082015161512f82850182615045565b50506101808082015161514482850182615159565b50505b5050565b63ffffffff811682525b5050565b67ffffffffffffffff811682525b5050565b600060208201905073ffffffffffffffffffffffffffffffffffffffff831682525b92915050565b600060208201905073ffffffffffffffffffffffffffffffffffffffff831682525b92915050565b600060408201905073ffffffffffffffffffffffffffffffffffffffff841682528260208301525b9392505050565b600060408201905073ffffffffffffffffffffffffffffffffffffffff841682528260208301525b9392505050565b600060408201905073ffffffffffffffffffffffffffffffffffffffff8416825267ffffffffffffffff831660208301525b9392505050565b600060408201905073ffffffffffffffffffffffffffffffffffffffff841682528260208301525b9392505050565b600060208201905082151582525b92915050565b600060208201905073ffffffffffffffffffffffffffffffffffffffff831682525b92915050565b600060208201905073ffffffffffffffffffffffffffffffffffffffff831682525b92915050565b600060208201905073ffffffffffffffffffffffffffffffffffffffff831682525b92915050565b600060208201905073ffffffffffffffffffffffffffffffffffffffff831682525b92915050565b600060208201905073ffffffffffffffffffffffffffffffffffffffff831682525b92915050565b60006101c08201905067ffffffffffffffff841682526153806020830184615078565b5b9392505050565b600060208252600f60208301527f4e6f20666c61736820626f72726f77000000000000000000000000000000000060408301526060820190505b919050565b600060208252600460208301527f4e6f6f700000000000000000000000000000000000000000000000000000000060408301526060820190505b919050565b600060208252601360208301527f4d7573742061646420636f6c6c61746572616c0000000000000000000000000060408301526060820190505b919050565b600060208252602360208301527f43616e7420696e637265617365202620646563726561736520636f6c6c61746560408301527f72616c000000000000000000000000000000000000000000000000000000000060608301526080820190505b919050565b600060208252601260208301527f506f736974696f6e20746f6f20736d616c6c000000000000000000000000000060408301526060820190505b919050565b600060208252601760208301527f496e73756666696369656e7420636f6c6c61746572616c00000000000000000060408301526060820190505b919050565b600060a08201905082518252602083015160208301526040830151604083015260608301516060830152608083015160808301525b92915050565b60006101a0820190506155768284615078565b5b92915050565b60006101c0820190506155908285615078565b826101a08301525b9392505050565b6000608082019050825182526020830151602083015260408301516040830152606083015160608301525b92915050565b60006020820190508282525b92915050565b60006040820190508382528260208301525b9392505050565b60006080820190508582528460208301528360408301528260608301525b95945050505050565b600060208201905063ffffffff831682525b92915050565b600060208201905067ffffffffffffffff831682525b92915050565b60006101c08201905067ffffffffffffffff841682526156796020830184615078565b5b9392505050565b600060a08201905067ffffffffffffffff871682528560208301528460408301528360608301528260808301525b9695505050505050565b6000604051905081810181811067ffffffffffffffff821117156156d957fe5b80604052505b919050565b73ffffffffffffffffffffffffffffffffffffffff8116811415156157095760006000fd5b5b50565b8015158114151561571e5760006000fd5b5b50565b8060020b811415156157345760006000fd5b5b50565b63ffffffff81168114151561574d5760006000fd5b5b50565b67ffffffffffffffff81168114151561576a5760006000fd5b5b50565bfe5369676e6564536166654d6174683a206d756c7469706c69636174696f6e206f766572666c6f77a264697066735822122044e7cc4b4fff2d1c86488abc4fb1a5e4b670c2a756762f2223d7728e05e29f9864736f6c63430007060033",
  "linkReferences": {},
  "deployedLinkReferences": {}
}