{
  "_format": "hh-sol-artifact-1",
  "contractName": "MarketTestable",
  "sourceName": "contracts/mocks/MarketTestable.sol",
  "abi": [
    {
      "anonymous": false,
      "inputs": [
        {
          "indexed": true,
          "internalType": "address",
          "name": "governor",
          "type": "address"
        }
      ],
      "name": "Initialized",
      "type": "event"
    },
    {
      "anonymous": false,
      "inputs": [
        {
          "indexed": true,
          "internalType": "uint64",
          "name": "period",
          "type": "uint64"
        },
        {
          "indexed": false,
          "internalType": "uint64",
          "name": "periods",
          "type": "uint64"
        },
        {
          "indexed": false,
          "internalType": "uint256",
          "name": "newDebt",
          "type": "uint256"
        },
        {
          "indexed": false,
          "internalType": "uint256",
          "name": "rewardCount",
          "type": "uint256"
        },
        {
          "indexed": false,
          "internalType": "uint256",
          "name": "cumulativeDebt",
          "type": "uint256"
        },
        {
          "indexed": false,
          "internalType": "uint256",
          "name": "debtExchangeRate",
          "type": "uint256"
        }
      ],
      "name": "InterestAccrued",
      "type": "event"
    },
    {
      "anonymous": false,
      "inputs": [
        {
          "indexed": true,
          "internalType": "address",
          "name": "creator",
          "type": "address"
        },
        {
          "indexed": true,
          "internalType": "uint64",
          "name": "positionID",
          "type": "uint64"
        }
      ],
      "name": "NewPositionCreated",
      "type": "event"
    },
    {
      "anonymous": false,
      "inputs": [
        {
          "indexed": true,
          "internalType": "string",
          "name": "paramName",
          "type": "string"
        },
        {
          "indexed": false,
          "internalType": "uint256",
          "name": "value",
          "type": "uint256"
        }
      ],
      "name": "ParameterUpdated",
      "type": "event"
    },
    {
      "anonymous": false,
      "inputs": [
        {
          "indexed": true,
          "internalType": "string",
          "name": "paramName",
          "type": "string"
        },
        {
          "indexed": false,
          "internalType": "uint64",
          "name": "value",
          "type": "uint64"
        }
      ],
      "name": "ParameterUpdated64",
      "type": "event"
    },
    {
      "anonymous": false,
      "inputs": [
        {
          "indexed": true,
          "internalType": "string",
          "name": "paramName",
          "type": "string"
        },
        {
          "indexed": false,
          "internalType": "address",
          "name": "value",
          "type": "address"
        }
      ],
      "name": "ParameterUpdatedAddress",
      "type": "event"
    },
    {
      "anonymous": false,
      "inputs": [
        {
          "indexed": true,
          "internalType": "uint64",
          "name": "positionID",
          "type": "uint64"
        },
        {
          "indexed": false,
          "internalType": "int256",
          "name": "debtChange",
          "type": "int256"
        },
        {
          "indexed": false,
          "internalType": "int256",
          "name": "collateralChange",
          "type": "int256"
        }
      ],
      "name": "PositionAdjusted",
      "type": "event"
    },
    {
      "anonymous": false,
      "inputs": [
        {
          "indexed": true,
          "internalType": "uint256",
          "name": "positionID",
          "type": "uint256"
        },
        {
          "indexed": true,
          "internalType": "uint64",
          "name": "period",
          "type": "uint64"
        },
        {
          "indexed": false,
          "internalType": "uint256",
          "name": "debtAfter",
          "type": "uint256"
        },
        {
          "indexed": false,
          "internalType": "uint256",
          "name": "tcpRewards",
          "type": "uint256"
        }
      ],
      "name": "PositionUpdated",
      "type": "event"
    },
    {
      "anonymous": false,
      "inputs": [],
      "name": "Stopped",
      "type": "event"
    },
    {
      "inputs": [],
      "name": "accrueInterest",
      "outputs": [],
      "stateMutability": "nonpayable",
      "type": "function"
    },
    {
      "inputs": [
        {
          "internalType": "uint64",
          "name": "positionID",
          "type": "uint64"
        },
        {
          "internalType": "uint256",
          "name": "collateralDecrease",
          "type": "uint256"
        }
      ],
      "name": "adjustGenesisPositionCollateral",
      "outputs": [],
      "stateMutability": "payable",
      "type": "function"
    },
    {
      "inputs": [
        {
          "internalType": "uint64",
          "name": "positionID",
          "type": "uint64"
        },
        {
          "internalType": "int256",
          "name": "debtChange",
          "type": "int256"
        },
        {
          "internalType": "uint256",
          "name": "collateralDecrease",
          "type": "uint256"
        }
      ],
      "name": "adjustPosition",
      "outputs": [],
      "stateMutability": "payable",
      "type": "function"
    },
    {
      "inputs": [
        {
          "components": [
            {
              "internalType": "uint256",
              "name": "debt",
              "type": "uint256"
            },
            {
              "internalType": "uint256",
              "name": "totalTCPRewards",
              "type": "uint256"
            },
            {
              "internalType": "uint256",
              "name": "cumulativeDebt",
              "type": "uint256"
            },
            {
              "internalType": "uint256",
              "name": "debtExchangeRate",
              "type": "uint256"
            }
          ],
          "internalType": "struct IAccounting.SystemDebtInfo",
          "name": "sdi",
          "type": "tuple"
        },
        {
          "internalType": "uint64",
          "name": "periods",
          "type": "uint64"
        },
        {
          "internalType": "uint256",
          "name": "annualInterestRate",
          "type": "uint256"
        },
        {
          "internalType": "bool",
          "name": "positiveInterestRate",
          "type": "bool"
        },
        {
          "internalType": "uint256",
          "name": "reserves",
          "type": "uint256"
        },
        {
          "internalType": "uint256",
          "name": "_interestPortionToLenders",
          "type": "uint256"
        }
      ],
      "name": "calculateInterest",
      "outputs": [
        {
          "components": [
            {
              "internalType": "uint256",
              "name": "newDebt",
              "type": "uint256"
            },
            {
              "internalType": "uint256",
              "name": "newExchangeRate",
              "type": "uint256"
            },
            {
              "internalType": "uint256",
              "name": "additionalReserves",
              "type": "uint256"
            },
            {
              "internalType": "uint256",
              "name": "additionalLends",
              "type": "uint256"
            },
            {
              "internalType": "uint256",
              "name": "reducedReserves",
              "type": "uint256"
            }
          ],
          "internalType": "struct IMarket.CalculatedInterestInfo",
          "name": "cii",
          "type": "tuple"
        }
      ],
      "stateMutability": "pure",
      "type": "function"
    },
    {
      "inputs": [
        {
          "internalType": "uint64",
          "name": "positionID",
          "type": "uint64"
        }
      ],
      "name": "claimRewards",
      "outputs": [],
      "stateMutability": "nonpayable",
      "type": "function"
    },
    {
      "inputs": [],
      "name": "collateralPool",
      "outputs": [
        {
          "internalType": "contract IUniswapV3Pool",
          "name": "",
          "type": "address"
        }
      ],
      "stateMutability": "view",
      "type": "function"
    },
    {
      "inputs": [],
      "name": "collateralizationRequirement",
      "outputs": [
        {
          "internalType": "uint256",
          "name": "",
          "type": "uint256"
        }
      ],
      "stateMutability": "view",
      "type": "function"
    },
    {
      "inputs": [],
      "name": "completeSetup",
      "outputs": [],
      "stateMutability": "nonpayable",
      "type": "function"
    },
    {
      "inputs": [
        {
          "components": [
            {
              "internalType": "uint8",
              "name": "v",
              "type": "uint8"
            },
            {
              "internalType": "bytes32",
              "name": "r",
              "type": "bytes32"
            },
            {
              "internalType": "bytes32",
              "name": "s",
              "type": "bytes32"
            }
          ],
          "internalType": "struct IGovernor.GenesisAuth",
          "name": "ga",
          "type": "tuple"
        }
      ],
      "name": "createGenesisPosition",
      "outputs": [
        {
          "internalType": "uint64",
          "name": "positionID",
          "type": "uint64"
        }
      ],
      "stateMutability": "payable",
      "type": "function"
    },
    {
      "inputs": [
        {
          "internalType": "uint256",
          "name": "initialDebt",
          "type": "uint256"
        }
      ],
      "name": "createPosition",
      "outputs": [
        {
          "internalType": "uint64",
          "name": "positionID",
          "type": "uint64"
        }
      ],
      "stateMutability": "payable",
      "type": "function"
    },
    {
      "inputs": [],
      "name": "currentPeriod",
      "outputs": [
        {
          "internalType": "uint64",
          "name": "period",
          "type": "uint64"
        }
      ],
      "stateMutability": "view",
      "type": "function"
    },
    {
      "inputs": [],
      "name": "deployer",
      "outputs": [
        {
          "internalType": "address",
          "name": "",
          "type": "address"
        }
      ],
      "stateMutability": "view",
      "type": "function"
    },
    {
      "inputs": [],
      "name": "firstPeriod",
      "outputs": [
        {
          "internalType": "uint64",
          "name": "",
          "type": "uint64"
        }
      ],
      "stateMutability": "view",
      "type": "function"
    },
    {
      "inputs": [],
      "name": "governor",
      "outputs": [
        {
          "internalType": "contract IGovernor",
          "name": "",
          "type": "address"
        }
      ],
      "stateMutability": "view",
      "type": "function"
    },
    {
      "inputs": [
        {
          "internalType": "contract IGovernor",
          "name": "_governor",
          "type": "address"
        }
      ],
      "name": "init",
      "outputs": [],
      "stateMutability": "nonpayable",
      "type": "function"
    },
    {
      "inputs": [],
      "name": "interestPortionToLenders",
      "outputs": [
        {
          "internalType": "uint256",
          "name": "",
          "type": "uint256"
        }
      ],
      "stateMutability": "view",
      "type": "function"
    },
    {
      "inputs": [],
      "name": "lastPeriodGlobalInterestAccrued",
      "outputs": [
        {
          "internalType": "uint64",
          "name": "",
          "type": "uint64"
        }
      ],
      "stateMutability": "view",
      "type": "function"
    },
    {
      "inputs": [],
      "name": "minPositionSize",
      "outputs": [
        {
          "internalType": "uint256",
          "name": "",
          "type": "uint256"
        }
      ],
      "stateMutability": "view",
      "type": "function"
    },
    {
      "inputs": [],
      "name": "periodLength",
      "outputs": [
        {
          "internalType": "uint64",
          "name": "",
          "type": "uint64"
        }
      ],
      "stateMutability": "view",
      "type": "function"
    },
    {
      "inputs": [
        {
          "internalType": "uint64",
          "name": "positionID",
          "type": "uint64"
        }
      ],
      "name": "removeGenesisPosition",
      "outputs": [],
      "stateMutability": "nonpayable",
      "type": "function"
    },
    {
      "inputs": [
        {
          "internalType": "uint256",
          "name": "requirement",
          "type": "uint256"
        }
      ],
      "name": "setCollateralizationRequirement",
      "outputs": [],
      "stateMutability": "nonpayable",
      "type": "function"
    },
    {
      "inputs": [
        {
          "internalType": "uint256",
          "name": "percentage",
          "type": "uint256"
        }
      ],
      "name": "setInterestPortionToLenders",
      "outputs": [],
      "stateMutability": "nonpayable",
      "type": "function"
    },
    {
      "inputs": [
        {
          "internalType": "uint256",
          "name": "size",
          "type": "uint256"
        }
      ],
      "name": "setMinPositionSize",
      "outputs": [],
      "stateMutability": "nonpayable",
      "type": "function"
    },
    {
      "inputs": [
        {
          "internalType": "uint32",
          "name": "duration",
          "type": "uint32"
        }
      ],
      "name": "setTwapDuration",
      "outputs": [],
      "stateMutability": "nonpayable",
      "type": "function"
    },
    {
      "inputs": [],
      "name": "stop",
      "outputs": [],
      "stateMutability": "nonpayable",
      "type": "function"
    },
    {
      "inputs": [],
      "name": "stopped",
      "outputs": [
        {
          "internalType": "bool",
          "name": "",
          "type": "bool"
        }
      ],
      "stateMutability": "view",
      "type": "function"
    },
    {
      "inputs": [
        {
          "internalType": "uint64",
          "name": "positionID",
          "type": "uint64"
        }
      ],
      "name": "systemGetUpdatedPosition",
      "outputs": [
        {
          "components": [
            {
              "internalType": "uint256",
              "name": "startCumulativeDebt",
              "type": "uint256"
            },
            {
              "internalType": "uint256",
              "name": "collateral",
              "type": "uint256"
            },
            {
              "internalType": "uint256",
              "name": "debt",
              "type": "uint256"
            },
            {
              "internalType": "uint256",
              "name": "startDebtExchangeRate",
              "type": "uint256"
            },
            {
              "internalType": "uint256",
              "name": "startTCPRewards",
              "type": "uint256"
            },
            {
              "internalType": "uint64",
              "name": "lastTimeUpdated",
              "type": "uint64"
            },
            {
              "internalType": "uint64",
              "name": "lastBorrowTime",
              "type": "uint64"
            },
            {
              "internalType": "int24",
              "name": "tick",
              "type": "int24"
            },
            {
              "internalType": "bool",
              "name": "tickSet",
              "type": "bool"
            },
            {
              "internalType": "uint64",
              "name": "tickIndex",
              "type": "uint64"
            }
          ],
          "internalType": "struct IAccounting.DebtPosition",
          "name": "",
          "type": "tuple"
        }
      ],
      "stateMutability": "nonpayable",
      "type": "function"
    },
    {
      "inputs": [],
      "name": "twapDuration",
      "outputs": [
        {
          "internalType": "uint32",
          "name": "",
          "type": "uint32"
        }
      ],
      "stateMutability": "view",
      "type": "function"
    },
    {
      "inputs": [
        {
          "components": [
            {
              "internalType": "uint256",
              "name": "startCumulativeDebt",
              "type": "uint256"
            },
            {
              "internalType": "uint256",
              "name": "collateral",
              "type": "uint256"
            },
            {
              "internalType": "uint256",
              "name": "debt",
              "type": "uint256"
            },
            {
              "internalType": "uint256",
              "name": "startDebtExchangeRate",
              "type": "uint256"
            },
            {
              "internalType": "uint256",
              "name": "startTCPRewards",
              "type": "uint256"
            },
            {
              "internalType": "uint64",
              "name": "lastTimeUpdated",
              "type": "uint64"
            },
            {
              "internalType": "uint64",
              "name": "lastBorrowTime",
              "type": "uint64"
            },
            {
              "internalType": "int24",
              "name": "tick",
              "type": "int24"
            },
            {
              "internalType": "bool",
              "name": "tickSet",
              "type": "bool"
            },
            {
              "internalType": "uint64",
              "name": "tickIndex",
              "type": "uint64"
            }
          ],
          "internalType": "struct IAccounting.DebtPosition",
          "name": "_position",
          "type": "tuple"
        },
        {
          "components": [
            {
              "internalType": "uint256",
              "name": "debt",
              "type": "uint256"
            },
            {
              "internalType": "uint256",
              "name": "totalTCPRewards",
              "type": "uint256"
            },
            {
              "internalType": "uint256",
              "name": "cumulativeDebt",
              "type": "uint256"
            },
            {
              "internalType": "uint256",
              "name": "debtExchangeRate",
              "type": "uint256"
            }
          ],
          "internalType": "struct IAccounting.SystemDebtInfo",
          "name": "sdi",
          "type": "tuple"
        },
        {
          "internalType": "uint64",
          "name": "timeNow",
          "type": "uint64"
        }
      ],
      "name": "updatePositionImpl",
      "outputs": [
        {
          "components": [
            {
              "internalType": "uint256",
              "name": "startCumulativeDebt",
              "type": "uint256"
            },
            {
              "internalType": "uint256",
              "name": "collateral",
              "type": "uint256"
            },
            {
              "internalType": "uint256",
              "name": "debt",
              "type": "uint256"
            },
            {
              "internalType": "uint256",
              "name": "startDebtExchangeRate",
              "type": "uint256"
            },
            {
              "internalType": "uint256",
              "name": "startTCPRewards",
              "type": "uint256"
            },
            {
              "internalType": "uint64",
              "name": "lastTimeUpdated",
              "type": "uint64"
            },
            {
              "internalType": "uint64",
              "name": "lastBorrowTime",
              "type": "uint64"
            },
            {
              "internalType": "int24",
              "name": "tick",
              "type": "int24"
            },
            {
              "internalType": "bool",
              "name": "tickSet",
              "type": "bool"
            },
            {
              "internalType": "uint64",
              "name": "tickIndex",
              "type": "uint64"
            }
          ],
          "internalType": "struct IAccounting.DebtPosition",
          "name": "position",
          "type": "tuple"
        },
        {
          "internalType": "uint256",
          "name": "rewards",
          "type": "uint256"
        }
      ],
      "stateMutability": "pure",
      "type": "function"
    },
    {
      "inputs": [
        {
          "internalType": "bytes4",
          "name": "",
          "type": "bytes4"
        }
      ],
      "name": "validUpdate",
      "outputs": [
        {
          "internalType": "bool",
          "name": "",
          "type": "bool"
        }
      ],
      "stateMutability": "view",
      "type": "function"
    },
    {
      "inputs": [],
      "name": "zhuPositionNFT",
      "outputs": [
        {
          "internalType": "contract IPositionNFT",
          "name": "",
          "type": "address"
        }
      ],
      "stateMutability": "view",
      "type": "function"
    }
  ],
  "bytecode": "0x60c0604052600160066000509090556714d1120d7b160000600760005090905568878678326eac90000060086000509090556702c68af0bb1400006009600050909055610e10600a60146101000a81548163ffffffff021916908363ffffffff160217905550348015620000735760006000fd5b505b610e105b5b33600160006101000a81548173ffffffffffffffffffffffffffffffffffffffff021916908373ffffffffffffffffffffffffffffffffffffffff1602179055505b60018167ffffffffffffffff16620000d96200013b60201b60201c565b67ffffffffffffffff16811515620000ed57fe5b040367ffffffffffffffff1660a08167ffffffffffffffff1660c01b815260080150508067ffffffffffffffff1660808167ffffffffffffffff1660c01b815260080150505b505b620001f1565b600062000155426200015d60201b62001ec617909060201c565b905080505b90565b60006801000000000000000082101515620001e3576040517f08c379a00000000000000000000000000000000000000000000000000000000081526004018080602001828103825260118152602001807f6d6f7265207468616e203634206269747300000000000000000000000000000081526020015060200191505060405180910390fd5b819050620001ec565b919050565b60805160c01c60a05160c01c615e046200022f600039806118975280611f5c528061463f5250806118bb5280611f7d52806146605250615e046000f3fe6080604052600436106101dc5760003560e01c8063a6afed9511610102578063d2ca211511610095578063eb6843ce11610064578063eb6843ce1461065d578063ef5e1cac1461069b578063f6979f29146106c5578063ff0eccf6146106f1576101dc565b8063d2ca2115146105af578063d5f39488146105db578063e3f3522c14610607578063e6e40afd14610633576101dc565b8063bb8313c2116100d1578063bb8313c2146104ee578063c433c80a1461051a578063c4c3622314610544578063c4e3a63b14610583576101dc565b8063a6afed9514610450578063a76e2ca514610468578063ade89a6414610492578063b6ae213a146104c2576101dc565b80634ff34aca1161017a57806367fd32131161014957806367fd3213146103c057806375f12b21146103dc57806383730cc3146104085780638aea8f7114610438576101dc565b80634ff34aca1461031057806353bb670c1461034e5780635658c0121461036a5780635a6127a914610396576101dc565b80630c340a24116101b65780630c340a2414610250578063113cf1ab1461027c57806319ab453c146102ba57806326d89545146102e4576101dc565b806306040618146101e257806306972dcd1461020e57806307da68f514610238576101dc565b60006000fd5b3480156101ef5760006000fd5b506101f861071d565b6040516102059190615c9c565b60405180910390f35b34801561021b5760006000fd5b506102366004803603810190610231919061525c565b610735565b005b3480156102455760006000fd5b5061024e61079f565b005b34801561025d5760006000fd5b506102666107bf565b60405161027391906156d1565b60405180910390f35b3480156102895760006000fd5b506102a4600480360381019061029f9190614e3a565b6107e5565b6040516102b191906156bd565b60405180910390f35b3480156102c75760006000fd5b506102e260048036038101906102dd9190614eae565b61080a565b005b3480156102f15760006000fd5b506102fa610bc8565b6040516103079190615c6c565b60405180910390f35b34801561031d5760006000fd5b50610338600480360381019061033391906151ef565b610bde565b6040516103459190615b99565b60405180910390f35b61036860048036038101906103639190615313565b610c0b565b005b3480156103775760006000fd5b50610380610dd6565b60405161038d9190615c41565b60405180910390f35b3480156103a35760006000fd5b506103be60048036038101906103b9919061525c565b610ddf565b005b6103da60048036038101906103d5919061534d565b610e66565b005b3480156103e95760006000fd5b506103f261111c565b6040516103ff91906156bd565b60405180910390f35b610422600480360381019061041d919061525c565b61112f565b60405161042f9190615c9c565b60405180910390f35b3480156104455760006000fd5b5061044e61117c565b005b34801561045d5760006000fd5b5061046661127e565b005b3480156104755760006000fd5b50610490600480360381019061048b91906152c5565b6112ac565b005b6104ac60048036038101906104a79190615174565b6114f0565b6040516104b99190615c9c565b60405180910390f35b3480156104cf5760006000fd5b506104d86117af565b6040516104e59190615c9c565b60405180910390f35b3480156104fb5760006000fd5b506105046117c9565b6040516105119190615c41565b60405180910390f35b3480156105275760006000fd5b50610542600480360381019061053d9190615294565b6117d2565b005b3480156105515760006000fd5b5061056c60048036038101906105679190615094565b611869565b60405161057a929190615bee565b60405180910390f35b3480156105905760006000fd5b50610599611895565b6040516105a69190615c9c565b60405180910390f35b3480156105bc5760006000fd5b506105c56118b9565b6040516105d29190615c9c565b60405180910390f35b3480156105e85760006000fd5b506105f16118dd565b6040516105fe9190615524565b60405180910390f35b3480156106145760006000fd5b5061061d611903565b60405161062a91906156f9565b60405180910390f35b3480156106405760006000fd5b5061065b600480360381019061065691906152c5565b611929565b005b34801561066a5760006000fd5b50610685600480360381019061068091906152c5565b611c90565b6040516106929190615bd4565b60405180910390f35b3480156106a85760006000fd5b506106c360048036038101906106be919061525c565b611e15565b005b3480156106d25760006000fd5b506106db611e97565b6040516106e89190615c41565b60405180910390f35b3480156106fe5760006000fd5b50610707611ea0565b6040516107149190615721565b60405180910390f35b600061072d611f5863ffffffff16565b905080505b90565b610743611fd163ffffffff16565b80600860005081909090555060405161075b90615460565b60405180910390207f3a64504f0bc0c335e2aecb78638a257e0351a3fe0370861fd54ee4190b920933826040516107929190615c41565b60405180910390a25b5b50565b6107ad611fd163ffffffff16565b6107bb61206663ffffffff16565b5b5b565b600060009054906101000a900473ffffffffffffffffffffffffffffffffffffffff1681565b600560005060205280600052604060002060009150909054906101000a900460ff1681565b600160009054906101000a900473ffffffffffffffffffffffffffffffffffffffff1673ffffffffffffffffffffffffffffffffffffffff163373ffffffffffffffffffffffffffffffffffffffff161415156108675760006000fd5b600160006101000a81549073ffffffffffffffffffffffffffffffffffffffff021916905580600060006101000a81548173ffffffffffffffffffffffffffffffffffffffff021916908373ffffffffffffffffffffffffffffffffffffffff160217905550600060009054906101000a900473ffffffffffffffffffffffffffffffffffffffff1673ffffffffffffffffffffffffffffffffffffffff16639624e83e6040518163ffffffff1660e01b815260040160206040518083038186803b1580156109365760006000fd5b505afa15801561094b573d600060003e3d6000fd5b505050506040513d601f19601f8201168201806040525081019061096f9190614e87565b600260006101000a81548173ffffffffffffffffffffffffffffffffffffffff021916908373ffffffffffffffffffffffffffffffffffffffff160217905550600060009054906101000a900473ffffffffffffffffffffffffffffffffffffffff1673ffffffffffffffffffffffffffffffffffffffff16638a15fcf36040518163ffffffff1660e01b815260040160206040518083038186803b158015610a185760006000fd5b505afa158015610a2d573d600060003e3d6000fd5b505050506040513d601f19601f82011682018060405250810190610a519190614fbf565b600360006101000a81548173ffffffffffffffffffffffffffffffffffffffff021916908373ffffffffffffffffffffffffffffffffffffffff160217905550600060009054906101000a900473ffffffffffffffffffffffffffffffffffffffff1673ffffffffffffffffffffffffffffffffffffffff1663d478b0876040518163ffffffff1660e01b815260040160206040518083038186803b158015610afa5760006000fd5b505afa158015610b0f573d600060003e3d6000fd5b505050506040513d601f19601f82011682018060405250810190610b339190614f23565b600460006101000a81548173ffffffffffffffffffffffffffffffffffffffff021916908373ffffffffffffffffffffffffffffffffffffffff160217905550610b816120b063ffffffff16565b8073ffffffffffffffffffffffffffffffffffffffff167f908408e307fc569b417f6cbec5d5a06f44a0a505ac0479b47d421a4b2fd6a1e660405160405180910390a25b50565b600a60149054906101000a900463ffffffff1681565b610be6614c5f565b610bfa87878787878761250763ffffffff16565b9050610c01565b9695505050505050565b610c196126f563ffffffff16565b610c276127d463ffffffff16565b6002610ce6600a60009054906101000a900473ffffffffffffffffffffffffffffffffffffffff1673ffffffffffffffffffffffffffffffffffffffff1663430c208133876040518363ffffffff1660e01b8152600401610c89929190615655565b60206040518083038186803b158015610ca25760006000fd5b505afa158015610cb7573d600060003e3d6000fd5b505050506040513d601f19601f82011682018060405250810190610cdb9190614e13565b6128c963ffffffff16565b610dbe610db08567ffffffffffffffff16600260009054906101000a900473ffffffffffffffffffffffffffffffffffffffff1673ffffffffffffffffffffffffffffffffffffffff16630f85fc5a886040518263ffffffff1660e01b8152600401610d529190615c9c565b6101406040518083038186803b158015610d6c5760006000fd5b505afa158015610d81573d600060003e3d6000fd5b505050506040513d601f19601f82011682018060405250810190610da59190614fe6565b61290f63ffffffff16565b858585612c9c63ffffffff16565b5b5b505b610dd061341863ffffffff16565b5b505050565b60076000505481565b610ded611fd163ffffffff16565b806009600050819090905550670de0b6b3a764000060096000505411151515610e165760006000fd5b604051610e22906154f3565b60405180910390207f3a64504f0bc0c335e2aecb78638a257e0351a3fe0370861fd54ee4190b92093382604051610e599190615c41565b60405180910390a25b5b50565b610e746126f563ffffffff16565b610e826127d463ffffffff16565b60028060ff16600060009054906101000a900473ffffffffffffffffffffffffffffffffffffffff1673ffffffffffffffffffffffffffffffffffffffff1663055ad42e6040518163ffffffff1660e01b815260040160206040518083038186803b158015610ef15760006000fd5b505afa158015610f06573d600060003e3d6000fd5b505050506040513d601f19601f82011682018060405250810190610f2a919061537e565b60ff16101515610f6f576040517f08c379a0000000000000000000000000000000000000000000000000000000008152600401610f6690615840565b60405180910390fd5b61102c600a60009054906101000a900473ffffffffffffffffffffffffffffffffffffffff1673ffffffffffffffffffffffffffffffffffffffff1663430c208133866040518363ffffffff1660e01b8152600401610fcf929190615655565b60206040518083038186803b158015610fe85760006000fd5b505afa158015610ffd573d600060003e3d6000fd5b505050506040513d601f19601f820116820180604052508101906110219190614e13565b6128c963ffffffff16565b6111056110f68467ffffffffffffffff16600260009054906101000a900473ffffffffffffffffffffffffffffffffffffffff1673ffffffffffffffffffffffffffffffffffffffff16630f85fc5a876040518263ffffffff1660e01b81526004016110989190615c9c565b6101406040518083038186803b1580156110b25760006000fd5b505afa1580156110c7573d600060003e3d6000fd5b505050506040513d601f19601f820116820180604052508101906110eb9190614fe6565b61290f63ffffffff16565b84600085612c9c63ffffffff16565b5b5b505b61111761341863ffffffff16565b5b5050565b600060149054906101000a900460ff1681565b600061113f6126f563ffffffff16565b61114d6127d463ffffffff16565b600261115e836134ac63ffffffff16565b9150611165565b5b505b61117661341863ffffffff16565b5b919050565b61118a611fd163ffffffff16565b600060009054906101000a900473ffffffffffffffffffffffffffffffffffffffff1673ffffffffffffffffffffffffffffffffffffffff1663ff0eccf66040518163ffffffff1660e01b815260040160206040518083038186803b1580156111f35760006000fd5b505afa158015611208573d600060003e3d6000fd5b505050506040513d601f19601f8201168201806040525081019061122c9190614f98565b600b60006101000a81548173ffffffffffffffffffffffffffffffffffffffff021916908373ffffffffffffffffffffffffffffffffffffffff16021790555061127a61363f63ffffffff16565b5b5b565b61128c61401e63ffffffff16565b61129a61363f63ffffffff16565b5b6112a961407963ffffffff16565b5b565b6112ba6126f563ffffffff16565b6112c861408963ffffffff16565b611385600a60009054906101000a900473ffffffffffffffffffffffffffffffffffffffff1673ffffffffffffffffffffffffffffffffffffffff1663430c208133846040518363ffffffff1660e01b8152600401611328929190615655565b60206040518083038186803b1580156113415760006000fd5b505afa158015611356573d600060003e3d6000fd5b505050506040513d601f19601f8201168201806040525081019061137a9190614e13565b6128c963ffffffff16565b600260009054906101000a900473ffffffffffffffffffffffffffffffffffffffff1673ffffffffffffffffffffffffffffffffffffffff1663f94fffb18261148b8467ffffffffffffffff16600260009054906101000a900473ffffffffffffffffffffffffffffffffffffffff1673ffffffffffffffffffffffffffffffffffffffff16630f85fc5a876040518263ffffffff1660e01b815260040161142d9190615c9c565b6101406040518083038186803b1580156114475760006000fd5b505afa15801561145c573d600060003e3d6000fd5b505050506040513d601f19601f820116820180604052508101906114809190614fe6565b61290f63ffffffff16565b6040518363ffffffff1660e01b81526004016114a8929190615cb8565b600060405180830381600087803b1580156114c35760006000fd5b505af11580156114d8573d600060003e3d6000fd5b505050505b5b6114ec61341863ffffffff16565b5b50565b60006115006126f563ffffffff16565b61150e6127d463ffffffff16565b600060009054906101000a900473ffffffffffffffffffffffffffffffffffffffff1673ffffffffffffffffffffffffffffffffffffffff1663b8e5748433846040518363ffffffff1660e01b815260040161156b9291906155a5565b60206040518083038186803b1580156115845760006000fd5b505afa158015611599573d600060003e3d6000fd5b505050506040513d601f19601f820116820180604052508101906115bd9190614e13565b15156115fe576040517f08c379a00000000000000000000000000000000000000000000000000000000081526004016115f5906159f9565b60405180910390fd5b600260009054906101000a900473ffffffffffffffffffffffffffffffffffffffff1673ffffffffffffffffffffffffffffffffffffffff1663afd7c0f2336040518263ffffffff1660e01b8152600401611659919061554c565b60206040518083038186803b1580156116725760006000fd5b505afa158015611687573d600060003e3d6000fd5b505050506040513d601f19601f820116820180604052508101906116ab9190614e13565b1515156116ed576040517f08c379a00000000000000000000000000000000000000000000000000000000081526004016116e49061587f565b60405180910390fd5b600260009054906101000a900473ffffffffffffffffffffffffffffffffffffffff1673ffffffffffffffffffffffffffffffffffffffff1663345750e73360016040518363ffffffff1660e01b815260040161174b929190615574565b600060405180830381600087803b1580156117665760006000fd5b505af115801561177b573d600060003e3d6000fd5b505050506117936008600050546134ac63ffffffff16565b905061179a565b5b6117a961341863ffffffff16565b5b919050565b600a60189054906101000a900467ffffffffffffffff1681565b60086000505481565b6117e0611fd163ffffffff16565b61012c8163ffffffff16101515156117f85760006000fd5b80600a60146101000a81548163ffffffff021916908363ffffffff16021790555060405161182590615491565b60405180910390207f6293347933ad2997134e224ac8cd2e39908a4a22aeed9af52127b4bbf76529788260405161185c9190615c84565b60405180910390a25b5b50565b611871614c91565b60006118848585856140de63ffffffff16565b80925081935050505b935093915050565b7f000000000000000000000000000000000000000000000000000000000000000081565b7f000000000000000000000000000000000000000000000000000000000000000081565b600160009054906101000a900473ffffffffffffffffffffffffffffffffffffffff1681565b600a60009054906101000a900473ffffffffffffffffffffffffffffffffffffffff1681565b6119376126f563ffffffff16565b6119456127d463ffffffff16565b60028060ff16600060009054906101000a900473ffffffffffffffffffffffffffffffffffffffff1673ffffffffffffffffffffffffffffffffffffffff1663055ad42e6040518163ffffffff1660e01b815260040160206040518083038186803b1580156119b45760006000fd5b505afa1580156119c9573d600060003e3d6000fd5b505050506040513d601f19601f820116820180604052508101906119ed919061537e565b60ff16101515611a32576040517f08c379a0000000000000000000000000000000000000000000000000000000008152600401611a2990615840565b60405180910390fd5b611aef600a60009054906101000a900473ffffffffffffffffffffffffffffffffffffffff1673ffffffffffffffffffffffffffffffffffffffff1663430c208133856040518363ffffffff1660e01b8152600401611a92929190615655565b60206040518083038186803b158015611aab5760006000fd5b505afa158015611ac0573d600060003e3d6000fd5b505050506040513d601f19601f82011682018060405250810190611ae49190614e13565b6128c963ffffffff16565b6000611bb88367ffffffffffffffff16600260009054906101000a900473ffffffffffffffffffffffffffffffffffffffff1673ffffffffffffffffffffffffffffffffffffffff16630f85fc5a866040518263ffffffff1660e01b8152600401611b5a9190615c9c565b6101406040518083038186803b158015611b745760006000fd5b505afa158015611b89573d600060003e3d6000fd5b505050506040513d601f19601f82011682018060405250810190611bad9190614fe6565b61290f63ffffffff16565b9050600260009054906101000a900473ffffffffffffffffffffffffffffffffffffffff1673ffffffffffffffffffffffffffffffffffffffff1663345750e73360006040518363ffffffff1660e01b8152600401611c18929190615574565b600060405180830381600087803b158015611c335760006000fd5b505af1158015611c48573d600060003e3d6000fd5b50505050611c798184611c668460400151614244909063ffffffff16565b6000038460200151612c9c63ffffffff16565b505b5b505b611c8c61341863ffffffff16565b5b50565b611c98614c91565b611ca661401e63ffffffff16565b600060009054906101000a900473ffffffffffffffffffffffffffffffffffffffff1673ffffffffffffffffffffffffffffffffffffffff16639622cd8f336040518263ffffffff1660e01b8152600401611d01919061554c565b60006040518083038186803b158015611d1a5760006000fd5b505afa158015611d2f573d600060003e3d6000fd5b50505050611dfa8267ffffffffffffffff16600260009054906101000a900473ffffffffffffffffffffffffffffffffffffffff1673ffffffffffffffffffffffffffffffffffffffff16630f85fc5a856040518263ffffffff1660e01b8152600401611d9c9190615c9c565b6101406040518083038186803b158015611db65760006000fd5b505afa158015611dcb573d600060003e3d6000fd5b505050506040513d601f19601f82011682018060405250810190611def9190614fe6565b61290f63ffffffff16565b9050611e01565b611e0f61407963ffffffff16565b5b919050565b611e23611fd163ffffffff16565b806007600050819090905550670de0b6b3a76400008110151515611e475760006000fd5b604051611e53906154c2565b60405180910390207f3a64504f0bc0c335e2aecb78638a257e0351a3fe0370861fd54ee4190b92093382604051611e8a9190615c41565b60405180910390a25b5b50565b60096000505481565b600b60009054906101000a900473ffffffffffffffffffffffffffffffffffffffff1681565b60006801000000000000000082101515611f4b576040517f08c379a00000000000000000000000000000000000000000000000000000000081526004018080602001828103825260118152602001807f6d6f7265207468616e203634206269747300000000000000000000000000000081526020015060200191505060405180910390fd5b819050611f53565b919050565b60007f00000000000000000000000000000000000000000000000000000000000000007f000000000000000000000000000000000000000000000000000000000000000067ffffffffffffffff16611fb46142ed63ffffffff16565b67ffffffffffffffff16811515611fc757fe5b0403905080505b90565b600060009054906101000a900473ffffffffffffffffffffffffffffffffffffffff1673ffffffffffffffffffffffffffffffffffffffff163373ffffffffffffffffffffffffffffffffffffffff16141515612063576040517f08c379a000000000000000000000000000000000000000000000000000000000815260040161205a906158fd565b60405180910390fd5b5b565b6001600060146101000a81548160ff0219169083151502179055507f7acc84e34091ae817647a4c49116f5cc07f319078ba80f8f5fde37ea7e25cbd660405160405180910390a15b565b600060009054906101000a900473ffffffffffffffffffffffffffffffffffffffff1673ffffffffffffffffffffffffffffffffffffffff1663e3f3522c6040518163ffffffff1660e01b815260040160206040518083038186803b1580156121195760006000fd5b505afa15801561212e573d600060003e3d6000fd5b505050506040513d601f19601f820116820180604052508101906121529190614ed5565b600a60006101000a81548173ffffffffffffffffffffffffffffffffffffffff021916908373ffffffffffffffffffffffffffffffffffffffff1602179055506000600a60009054906101000a900473ffffffffffffffffffffffffffffffffffffffff1673ffffffffffffffffffffffffffffffffffffffff1663755edd17600260009054906101000a900473ffffffffffffffffffffffffffffffffffffffff166040518263ffffffff1660e01b81526004016122119190615524565b602060405180830381600087803b15801561222c5760006000fd5b505af1158015612241573d600060003e3d6000fd5b505050506040513d601f19601f8201168201806040525081019061226591906152ec565b67ffffffffffffffff1614151561227c5760006000fd5b612284614c91565b600260009054906101000a900473ffffffffffffffffffffffffffffffffffffffff1673ffffffffffffffffffffffffffffffffffffffff1663f94fffb160006122d560008561290f63ffffffff16565b6040518363ffffffff1660e01b81526004016122f2929190615797565b600060405180830381600087803b15801561230d5760006000fd5b505af1158015612322573d600060003e3d6000fd5b505050506000604051806080016040528063ef5e1cac60e01b7bffffffffffffffffffffffffffffffffffffffffffffffffffffffff19167bffffffffffffffffffffffffffffffffffffffffffffffffffffffff1916815260200163c433c80a60e01b7bffffffffffffffffffffffffffffffffffffffffffffffffffffffff19167bffffffffffffffffffffffffffffffffffffffffffffffffffffffff191681526020016306972dcd60e01b7bffffffffffffffffffffffffffffffffffffffffffffffffffffffff19167bffffffffffffffffffffffffffffffffffffffffffffffffffffffff19168152602001635a6127a960e01b7bffffffffffffffffffffffffffffffffffffffffffffffffffffffff19167bffffffffffffffffffffffffffffffffffffffffffffffffffffffff191681526020015090506000600090505b8150600481101561250157600160056000506000848460048110151561248b57fe5b60200201517bffffffffffffffffffffffffffffffffffffffffffffffffffffffff19167bffffffffffffffffffffffffffffffffffffffffffffffffffffffff1916815260200190815260200160002060006101000a81548160ff0219169083151502179055505b8080600101915050612469565b5050505b565b61250f614c5f565b60008514156125465786600001518160000190908181526020015050866060015181602001909081815260200150508090506126eb565b600061258c8767ffffffffffffffff16610e1067ffffffffffffffff166301e1338081151561257157fe5b0467ffffffffffffffff16886143089092919063ffffffff16565b90506000856125b5576125b082670de0b6b3a764000061440990919063ffffffff16565b6125d1565b6125d082670de0b6b3a764000061449290919063ffffffff16565b5b90506125ea818a6060015161451b90919063ffffffff16565b836020019090818152602001505061261983602001518a606001518b600001516143089092919063ffffffff16565b836000019090818152602001505088600001518360000151111561268257600089600001518460000151039050612659858261451b90919063ffffffff16565b8460600190908181526020015050836060015181038460400190908181526020015050506126e8565b8860000151836000015110156126e757600083600001518a6000015103905085811015156126d55789600001518460000190908181526020015050896060015184602001909081815260200150506126e5565b8084608001909081815260200150505b505b5b50505b9695505050505050565b600460009054906101000a900473ffffffffffffffffffffffffffffffffffffffff1673ffffffffffffffffffffffffffffffffffffffff1663e97dcb626040518163ffffffff1660e01b8152600401600060405180830381600087803b1580156127605760006000fd5b505af1158015612775573d600060003e3d6000fd5b505050506002600660005054141515156127c4576040517f08c379a00000000000000000000000000000000000000000000000000000000081526004016127bb9061597b565b60405180910390fd5b600260066000508190909055505b565b6127e261408963ffffffff16565b600060009054906101000a900473ffffffffffffffffffffffffffffffffffffffff1673ffffffffffffffffffffffffffffffffffffffff1663bf86d6906040518163ffffffff1660e01b815260040160206040518083038186803b15801561284b5760006000fd5b505afa158015612860573d600060003e3d6000fd5b505050506040513d601f19601f820116820180604052508101906128849190614e13565b1515156128c6576040517f08c379a00000000000000000000000000000000000000000000000000000000081526004016128bd906157c2565b60405180910390fd5b5b565b80151561290b576040517f08c379a0000000000000000000000000000000000000000000000000000000008152600401612902906158fd565b60405180910390fd5b5b50565b612917614c91565b600061292761454163ffffffff16565b9050600061293a8261463863ffffffff16565b9050600060008560a0015167ffffffffffffffff161461296c576129678560a0015161463863ffffffff16565b61296f565b60005b90508067ffffffffffffffff168267ffffffffffffffff1611151561299957849350505050612c96565b6129a761363f63ffffffff16565b6000612a5b86600260009054906101000a900473ffffffffffffffffffffffffffffffffffffffff1673ffffffffffffffffffffffffffffffffffffffff166306ef2d806040518163ffffffff1660e01b815260040160806040518083038186803b158015612a165760006000fd5b505afa158015612a2b573d600060003e3d6000fd5b505050506040513d601f19601f82011682018060405250810190612a4f919061518f565b866140de63ffffffff16565b80925081965050506000811115612c48576000871415612b0957600060009054906101000a900473ffffffffffffffffffffffffffffffffffffffff1673ffffffffffffffffffffffffffffffffffffffff1663c34cdf75826040518263ffffffff1660e01b8152600401612ad09190615c41565b600060405180830381600087803b158015612aeb5760006000fd5b505af1158015612b00573d600060003e3d6000fd5b50505050612c47565b600060009054906101000a900473ffffffffffffffffffffffffffffffffffffffff1673ffffffffffffffffffffffffffffffffffffffff1663b216cd94600a60009054906101000a900473ffffffffffffffffffffffffffffffffffffffff1673ffffffffffffffffffffffffffffffffffffffff16636352211e8a6040518263ffffffff1660e01b8152600401612ba29190615c41565b60206040518083038186803b158015612bbb5760006000fd5b505afa158015612bd0573d600060003e3d6000fd5b505050506040513d601f19601f82011682018060405250810190612bf49190614dec565b836040518363ffffffff1660e01b8152600401612c1292919061568e565b600060405180830381600087803b158015612c2d5760006000fd5b505af1158015612c42573d600060003e3d6000fd5b505050505b5b8267ffffffffffffffff16877fc99ac0d15229fa72f1b0756c0eed4e7ede3d80f4e4e0d308ce7a56d1366b8a03876040015184604051612c89929190615c53565b60405180910390a3505050505b92915050565b6000349050600081118015612cb15750600082115b151515612cf3576040517f08c379a0000000000000000000000000000000000000000000000000000000008152600401612cea90615a38565b60405180910390fd5b6000612d0682614244909063ffffffff16565b90506000811415612d2a57612d2283614244909063ffffffff16565b600003905080505b600084141580612d3b575060008114155b1515612d7c576040517f08c379a0000000000000000000000000000000000000000000000000000000008152600401612d739061593c565b60405180910390fd5b60008414151561302a576000841315612e7e576000849050612dab81886040015161449290919063ffffffff16565b8760400190908181526020015050612dc76142ed63ffffffff16565b8760c0019067ffffffffffffffff16908167ffffffffffffffff1681526020015050600260009054906101000a900473ffffffffffffffffffffffffffffffffffffffff1673ffffffffffffffffffffffffffffffffffffffff16632b7c7b11826040518263ffffffff1660e01b8152600401612e449190615c41565b600060405180830381600087803b158015612e5f5760006000fd5b505af1158015612e74573d600060003e3d6000fd5b5050505050613029565b60008660400151111515612ec7576040517f08c379a0000000000000000000000000000000000000000000000000000000008152600401612ebe90615adc565b60405180910390fd5b612ed56142ed63ffffffff16565b67ffffffffffffffff16612f06610708610e10018860c0015167ffffffffffffffff166146c090919063ffffffff16565b67ffffffffffffffff16101515612f52576040517f08c379a0000000000000000000000000000000000000000000000000000000008152600401612f49906158be565b60405180910390fd5b8360000386604001511015612f7e57612f768660400151614244909063ffffffff16565b600003935083505b836000038660400181815103915090908181526020015050600260009054906101000a900473ffffffffffffffffffffffffffffffffffffffff1673ffffffffffffffffffffffffffffffffffffffff16632a7ba1f7856000036040518263ffffffff1660e01b8152600401612ff49190615c41565b600060405180830381600087803b15801561300f5760006000fd5b505af1158015613024573d600060003e3d6000fd5b505050505b5b6000811415156130915760008113156130675761305481876020015161449290919063ffffffff16565b8660200190908181526020015050613090565b61308181600003876020015161440990919063ffffffff16565b86602001909081815260200150505b5b6000866040015114151561311b576008600050548660400151101515156130ed576040517f08c379a00000000000000000000000000000000000000000000000000000000081526004016130e490615a9d565b60405180910390fd5b60008112806130fc5750600084135b1561311a576131198660400151876020015161475d63ffffffff16565b5b5b600260009054906101000a900473ffffffffffffffffffffffffffffffffffffffff1673ffffffffffffffffffffffffffffffffffffffff1663f94fffb186886040518363ffffffff1660e01b8152600401613178929190615cb8565b600060405180830381600087803b1580156131935760006000fd5b505af11580156131a8573d600060003e3d6000fd5b505050506000841415156132eb57600084131561325557600360009054906101000a900473ffffffffffffffffffffffffffffffffffffffff1673ffffffffffffffffffffffffffffffffffffffff1663449a52f833866040518363ffffffff1660e01b815260040161321c929190615626565b600060405180830381600087803b1580156132375760006000fd5b505af115801561324c573d600060003e3d6000fd5b505050506132ea565b600360009054906101000a900473ffffffffffffffffffffffffffffffffffffffff1673ffffffffffffffffffffffffffffffffffffffff166379cc679033866000036040518363ffffffff1660e01b81526004016132b5929190615626565b600060405180830381600087803b1580156132d05760006000fd5b505af11580156132e5573d600060003e3d6000fd5b505050505b5b6000811415156133cb57600081131561333557613330600260009054906101000a900473ffffffffffffffffffffffffffffffffffffffff168261497863ffffffff16565b6133ca565b600260009054906101000a900473ffffffffffffffffffffffffffffffffffffffff1673ffffffffffffffffffffffffffffffffffffffff16636250216933836000036040518363ffffffff1660e01b81526004016133959291906155f7565b600060405180830381600087803b1580156133b05760006000fd5b505af11580156133c5573d600060003e3d6000fd5b505050505b5b8467ffffffffffffffff167f0ed8d38fcfdb338f760ae5cf4b84f9ade387db12ea673e89e8da1b25857cc1c1858360405161340792919061577e565b60405180910390a250505b50505050565b60016006600050819090905550600460009054906101000a900473ffffffffffffffffffffffffffffffffffffffff1673ffffffffffffffffffffffffffffffffffffffff1663e9fad8ee6040518163ffffffff1660e01b8152600401600060405180830381600087803b1580156134905760006000fd5b505af11580156134a5573d600060003e3d6000fd5b505050505b565b60006000341115156134f3576040517f08c379a00000000000000000000000000000000000000000000000000000000081526004016134ea906159ba565b60405180910390fd5b600a60009054906101000a900473ffffffffffffffffffffffffffffffffffffffff1673ffffffffffffffffffffffffffffffffffffffff1663755edd17336040518263ffffffff1660e01b815260040161354e919061554c565b602060405180830381600087803b1580156135695760006000fd5b505af115801561357e573d600060003e3d6000fd5b505050506040513d601f19601f820116820180604052508101906135a291906152ec565b905080506135ae614c91565b6135ea6135cb8367ffffffffffffffff168361290f63ffffffff16565b836135dd86614244909063ffffffff16565b6000612c9c63ffffffff16565b8167ffffffffffffffff163373ffffffffffffffffffffffffffffffffffffffff167f5e61a417c052598d1a3e26d3d81c42d9e7a943dccc23a840bc94bbabf9b1d60760405160405180910390a3505b919050565b600061364f614afe63ffffffff16565b9050600a60189054906101000a900467ffffffffffffffff1667ffffffffffffffff168167ffffffffffffffff1611151561368a575061401c565b6000600a60189054906101000a900467ffffffffffffffff16820390506000600260009054906101000a900473ffffffffffffffffffffffffffffffffffffffff1673ffffffffffffffffffffffffffffffffffffffff166306ef2d806040518163ffffffff1660e01b815260040160806040518083038186803b1580156137125760006000fd5b505afa158015613727573d600060003e3d6000fd5b505050506040513d601f19601f8201168201806040525081019061374b919061518f565b90506000600060009054906101000a900473ffffffffffffffffffffffffffffffffffffffff1673ffffffffffffffffffffffffffffffffffffffff166343f48fbd6040518163ffffffff1660e01b815260040160206040518083038186803b1580156137b85760006000fd5b505afa1580156137cd573d600060003e3d6000fd5b505050506040513d601f19601f820116820180604052508101906137f19190614f4a565b905060006139ad83858473ffffffffffffffffffffffffffffffffffffffff1663a0fc0eda6040518163ffffffff1660e01b815260040160206040518083038186803b1580156138415760006000fd5b505afa158015613856573d600060003e3d6000fd5b505050506040513d601f19601f8201168201806040525081019061387a9190615278565b8573ffffffffffffffffffffffffffffffffffffffff16636d7fa6646040518163ffffffff1660e01b815260040160206040518083038186803b1580156138c15760006000fd5b505afa1580156138d6573d600060003e3d6000fd5b505050506040513d601f19601f820116820180604052508101906138fa9190614e13565b600360009054906101000a900473ffffffffffffffffffffffffffffffffffffffff1673ffffffffffffffffffffffffffffffffffffffff166375172a8b6040518163ffffffff1660e01b815260040160206040518083038186803b1580156139635760006000fd5b505afa158015613978573d600060003e3d6000fd5b505050506040513d601f19601f8201168201806040525081019061399c9190615278565b60096000505461250763ffffffff16565b90506000613bc78567ffffffffffffffff16610e1067ffffffffffffffff16620151808115156139d957fe5b0467ffffffffffffffff16613bb8600060009054906101000a900473ffffffffffffffffffffffffffffffffffffffff1673ffffffffffffffffffffffffffffffffffffffff16639ec5a8946040518163ffffffff1660e01b815260040160206040518083038186803b158015613a505760006000fd5b505afa158015613a65573d600060003e3d6000fd5b505050506040513d601f19601f82011682018060405250810190613a899190614f71565b73ffffffffffffffffffffffffffffffffffffffff16630a86f1096040518163ffffffff1660e01b815260040160206040518083038186803b158015613acf5760006000fd5b505afa158015613ae4573d600060003e3d6000fd5b505050506040513d601f19601f82011682018060405250810190613b089190615278565b600060009054906101000a900473ffffffffffffffffffffffffffffffffffffffff1673ffffffffffffffffffffffffffffffffffffffff1663c375e6ed6040518163ffffffff1660e01b815260040160206040518083038186803b158015613b715760006000fd5b505afa158015613b86573d600060003e3d6000fd5b505050506040513d601f19601f82011682018060405250810190613baa9190615278565b61451b90919063ffffffff16565b6143089092919063ffffffff16565b9050604051806080016040528083600001518152602001613bf583876020015161449290919063ffffffff16565b8152602001613c31613c1e8867ffffffffffffffff168860000151614b2490919063ffffffff16565b876040015161449290919063ffffffff16565b8152602001836020015181526020015093508350600260009054906101000a900473ffffffffffffffffffffffffffffffffffffffff1673ffffffffffffffffffffffffffffffffffffffff166378efc6b0856040518263ffffffff1660e01b8152600401613ca09190615c10565b600060405180830381600087803b158015613cbb5760006000fd5b505af1158015613cd0573d600060003e3d6000fd5b5050505085600a60186101000a81548167ffffffffffffffff021916908367ffffffffffffffff160217905550600082606001511115613e5557600260009054906101000a900473ffffffffffffffffffffffffffffffffffffffff1673ffffffffffffffffffffffffffffffffffffffff166379fdf8c583606001516040518263ffffffff1660e01b8152600401613d699190615c41565b600060405180830381600087803b158015613d845760006000fd5b505af1158015613d99573d600060003e3d6000fd5b50505050600360009054906101000a900473ffffffffffffffffffffffffffffffffffffffff1673ffffffffffffffffffffffffffffffffffffffff1663449a52f8600260009054906101000a900473ffffffffffffffffffffffffffffffffffffffff1684606001516040518363ffffffff1660e01b8152600401613e2092919061568e565b600060405180830381600087803b158015613e3b5760006000fd5b505af1158015613e50573d600060003e3d6000fd5b505050505b600082604001511115613f1a57600360009054906101000a900473ffffffffffffffffffffffffffffffffffffffff1673ffffffffffffffffffffffffffffffffffffffff1663449a52f8600360009054906101000a900473ffffffffffffffffffffffffffffffffffffffff1684604001516040518363ffffffff1660e01b8152600401613ee592919061568e565b600060405180830381600087803b158015613f005760006000fd5b505af1158015613f15573d600060003e3d6000fd5b505050505b600082608001511115613fbb57600360009054906101000a900473ffffffffffffffffffffffffffffffffffffffff1673ffffffffffffffffffffffffffffffffffffffff1663c59fb1ab83608001516040518263ffffffff1660e01b8152600401613f869190615c41565b600060405180830381600087803b158015613fa15760006000fd5b505af1158015613fb6573d600060003e3d6000fd5b505050505b8567ffffffffffffffff167fdfc2183705a66b49f12c66a6d3b2fa5cf3b7c67086e9c6e90d144befc94f436c86866000015187602001518860400151896060015160405161400d959493929190615ce3565b60405180910390a25050505050505b565b600260066000505414151515614069576040517f08c379a000000000000000000000000000000000000000000000000000000000815260040161406090615801565b60405180910390fd5b600260066000508190909055505b565b600160066000508190909055505b565b600060149054906101000a900460ff161515156140db576040517f08c379a00000000000000000000000000000000000000000000000000000000081526004016140d290615b1b565b60405180910390fd5b5b565b6140e6614c91565b6000849150815060008260a0015167ffffffffffffffff1611801561410f575060008260400151115b156141df576141358460600151836060015184604001516143089092919063ffffffff16565b82604001909081815260200150506141da6141678360a001518567ffffffffffffffff16614bc290919063ffffffff16565b67ffffffffffffffff16610e1067ffffffffffffffff166141cb61419c8660800151896020015161440990919063ffffffff16565b6141b787600001518a6040015161440990919063ffffffff16565b87604001516143089092919063ffffffff16565b6143089092919063ffffffff16565b905080505b836060015182606001909081815260200150508360200151826080019090818152602001505083604001518260000190908181526020015050828260a0019067ffffffffffffffff16908167ffffffffffffffff16815260200150505b935093915050565b60007f8000000000000000000000000000000000000000000000000000000000000000821015156142e0576040517f08c379a00000000000000000000000000000000000000000000000000000000081526004018080602001828103825260128152602001807f746f6f2062696720666f7220696e74323536000000000000000000000000000081526020015060200191505060405180910390fd5b8190506142e8565b919050565b600061430042611ec6909063ffffffff16565b905080505b90565b600060006000600019858709858702925082811083820303915050600081141561434b5760008411151561433c5760006000fd5b83820492508292505050614402565b808411151561435a5760006000fd5b60008486880990508281118203915080830392506000858660000316905080860495508084049350600181826000030401905080830284179350835060006002876003021890508087026002038102905080508087026002038102905080508087026002038102905080508087026002038102905080508087026002038102905080508087026002038102905080508085029550855085955050505050506144025650505050505b9392505050565b6000828284039150811115151561448b576040517f08c379a000000000000000000000000000000000000000000000000000000000815260040180806020018281038252600d8152602001807f7375622d756e646572666c6f770000000000000000000000000000000000000081526020015060200191505060405180910390fd5b5b92915050565b60008282840191508110151515614514576040517f08c379a000000000000000000000000000000000000000000000000000000000815260040180806020018281038252600c8152602001807f6164642d6f766572666c6f77000000000000000000000000000000000000000081526020015060200191505060405180910390fd5b5b92915050565b60006145368383670de0b6b3a764000061430863ffffffff16565b905080505b92915050565b60006145516142ed63ffffffff16565b905080506000600060009054906101000a900473ffffffffffffffffffffffffffffffffffffffff1673ffffffffffffffffffffffffffffffffffffffff1663585690816040518163ffffffff1660e01b815260040160206040518083038186803b1580156145c05760006000fd5b505afa1580156145d5573d600060003e3d6000fd5b505050506040513d601f19601f820116820180604052508101906145f991906152ec565b905060008167ffffffffffffffff1611801561462857508167ffffffffffffffff168167ffffffffffffffff16105b156146335780915081505b505b90565b60006146b67f00000000000000000000000000000000000000000000000000000000000000007f000000000000000000000000000000000000000000000000000000000000000067ffffffffffffffff168467ffffffffffffffff1681151561469d57fe5b0467ffffffffffffffff16614bc290919063ffffffff16565b905080505b919050565b60008267ffffffffffffffff1682840191508167ffffffffffffffff1610151515614756576040517f08c379a000000000000000000000000000000000000000000000000000000000815260040180806020018281038252600c8152602001807f6164642d6f766572666c6f77000000000000000000000000000000000000000081526020015060200191505060405180910390fd5b5b92915050565b6000600b60009054906101000a900473ffffffffffffffffffffffffffffffffffffffff169050600073ffffffffffffffffffffffffffffffffffffffff168173ffffffffffffffffffffffffffffffffffffffff1614156147bf5750614974565b6000600060009054906101000a900473ffffffffffffffffffffffffffffffffffffffff1673ffffffffffffffffffffffffffffffffffffffff1663d3419bf36040518163ffffffff1660e01b815260040160206040518083038186803b15801561482a5760006000fd5b505afa15801561483f573d600060003e3d6000fd5b505050506040513d601f19601f820116820180604052508101906148639190614efc565b73ffffffffffffffffffffffffffffffffffffffff1663d97e640083600a60149054906101000a900463ffffffff166040518363ffffffff1660e01b81526004016148af929190615749565b60206040518083038186803b1580156148c85760006000fd5b505afa1580156148dd573d600060003e3d6000fd5b505050506040513d601f19601f820116820180604052508101906149019190615278565b905061491b84600760005054614b2490919063ffffffff16565b61492e8285614b2490919063ffffffff16565b10151515614971576040517f08c379a000000000000000000000000000000000000000000000000000000000815260040161496890615b5a565b60405180910390fd5b50505b5050565b60008273ffffffffffffffffffffffffffffffffffffffff1682600067ffffffffffffffff811180156149ab5760006000fd5b506040519080825280601f01601f1916602001820160405280156149de5781602001600182028036833780820191505090505b506040518082805190602001908083835b602083101515614a1557805182525b6020820191506020810190506020830392506149ef565b6001836020036101000a03801982511681845116808217855250505050505090500191505060006040518083038185875af1925050503d8060008114614a77576040519150601f19603f3d011682016040523d82523d6000602084013e614a7c565b606091505b50509050801515614af8576040517f08c379a00000000000000000000000000000000000000000000000000000000081526004018080602001828103825260038152602001807f535445000000000000000000000000000000000000000000000000000000000081526020015060200191505060405180910390fd5b505b5050565b6000614b1c614b1161454163ffffffff16565b61463863ffffffff16565b905080505b90565b60006000821480614b4457508282838502925082811515614b4157fe5b04145b1515614bbb576040517f08c379a000000000000000000000000000000000000000000000000000000000815260040180806020018281038252600c8152602001807f6d756c2d6f766572666c6f77000000000000000000000000000000000000000081526020015060200191505060405180910390fd5b5b92915050565b60008267ffffffffffffffff1682840391508167ffffffffffffffff1611151515614c58576040517f08c379a000000000000000000000000000000000000000000000000000000000815260040180806020018281038252600d8152602001807f7375622d756e646572666c6f770000000000000000000000000000000000000081526020015060200191505060405180910390fd5b5b92915050565b6040518060a0016040528060008152602001600081526020016000815260200160008152602001600081526020015090565b6040518061014001604052806000815260200160008152602001600081526020016000815260200160008152602001600067ffffffffffffffff168152602001600067ffffffffffffffff168152602001600060020b8152602001600015158152602001600067ffffffffffffffff168152602001509056615dcd565b600081359050614d1d81615d6f565b5b919050565b600081519050614d3281615d6f565b5b919050565b600081359050614d4781615d84565b5b919050565b600081519050614d5c81615d84565b5b919050565b600060808284031215614d73578081fd5b6040516080810181811067ffffffffffffffff82111715614d9057fe5b806040525080915082358152602083013560208201526040830135604082015260608301356060820152505b92915050565b600081359050614dd181615d9a565b5b919050565b600081519050614de681615d9a565b5b919050565b600060208284031215614dfd578081fd5b8151614e0881615d46565b809150505b92915050565b600060208284031215614e24578081fd5b8151614e2f81615d6f565b809150505b92915050565b600060208284031215614e4b578081fd5b81357fffffffff00000000000000000000000000000000000000000000000000000000811681141515614e7c578182fd5b809150505b92915050565b600060208284031215614e98578081fd5b8151614ea381615d46565b809150505b92915050565b600060208284031215614ebf578081fd5b8135614eca81615d46565b809150505b92915050565b600060208284031215614ee6578081fd5b8151614ef181615d46565b809150505b92915050565b600060208284031215614f0d578081fd5b8151614f1881615d46565b809150505b92915050565b600060208284031215614f34578081fd5b8151614f3f81615d46565b809150505b92915050565b600060208284031215614f5b578081fd5b8151614f6681615d46565b809150505b92915050565b600060208284031215614f82578081fd5b8151614f8d81615d46565b809150505b92915050565b600060208284031215614fa9578081fd5b8151614fb481615d46565b809150505b92915050565b600060208284031215614fd0578081fd5b8151614fdb81615d46565b809150505b92915050565b6000610140808385031215614ff9578182fd5b61500281615d1b565b9050825181526020830151602082015260408301516040820152606083015160608201526080830151608082015261503c60a08401614dd7565b60a082015261504d60c08401614dd7565b60c082015261505e60e08401614d4d565b60e0820152610100615071818501614d23565b8183015250610120615084818501614dd7565b8183015250809150505b92915050565b6000600060008385036101e08112156150ab578283fd5b610140808212156150ba578384fd5b6150c381615d1b565b915085358252602086013560208301526040860135604083015260608601356060830152608086013560808301526150fd60a08701614dc2565b60a083015261510e60c08701614dc2565b60c083015261511f60e08701614d38565b60e0830152610100615132818801614d0e565b8184015250610120615145818801614dc2565b818401525081945061515987828801614d62565b9350505061516a6101c08501614dc2565b90505b9250925092565b600060608284031215615185578081fd5b8190505b92915050565b6000608082840312156151a0578081fd5b6040516080810181811067ffffffffffffffff821117156151bd57fe5b806040525082518152602083015160208201526040830151604082015260608301516060820152809150505b92915050565b600060006000600060006000610120878903121561520b578384fd5b6152158888614d62565b9550608087013561522581615d9a565b8095505060a0870135935060c087013561523e81615d6f565b8093505060e0870135915061010087013590505b9295509295509295565b60006020828403121561526d578081fd5b813590505b92915050565b600060208284031215615289578081fd5b815190505b92915050565b6000602082840312156152a5578081fd5b813563ffffffff8116811415156152ba578182fd5b809150505b92915050565b6000602082840312156152d6578081fd5b81356152e181615d9a565b809150505b92915050565b6000602082840312156152fd578081fd5b815161530881615d9a565b809150505b92915050565b60006000600060608486031215615328578081fd5b833561533381615d9a565b8093505060208401359150604084013590505b9250925092565b6000600060408385031215615360578182fd5b823561536b81615d9a565b80925050602083013590505b9250929050565b60006020828403121561538f578081fd5b815161539a81615db7565b809150505b92915050565b80151582525b5050565b8060020b82525b5050565b805182526020810151602083015260408101516040830152606081015160608301526080810151608083015260a08101516153f860a084018261544e565b5060c081015161540b60c084018261544e565b5060e081015161541e60e08401826153af565b5061010080820151615432828501826153a5565b5050610120808201516154478285018261544e565b50505b5050565b67ffffffffffffffff811682525b5050565b60007f6d696e506f736974696f6e53697a6500000000000000000000000000000000008252600f820190505b919050565b60007f747761704475726174696f6e00000000000000000000000000000000000000008252600c820190505b919050565b60007f636f6c6c61746572616c697a6174696f6e526571756972656d656e74000000008252601c820190505b919050565b60007f696e746572657374506f7274696f6e546f4c656e64657273000000000000000082526018820190505b919050565b600060208201905073ffffffffffffffffffffffffffffffffffffffff831682525b92915050565b600060208201905073ffffffffffffffffffffffffffffffffffffffff831682525b92915050565b600060408201905073ffffffffffffffffffffffffffffffffffffffff8416825282151560208301525b9392505050565b600060808201905073ffffffffffffffffffffffffffffffffffffffff8416825282356155d181615db7565b60ff811660208401525060208301356040830152604083013560608301525b9392505050565b600060408201905073ffffffffffffffffffffffffffffffffffffffff841682528260208301525b9392505050565b600060408201905073ffffffffffffffffffffffffffffffffffffffff841682528260208301525b9392505050565b600060408201905073ffffffffffffffffffffffffffffffffffffffff8416825267ffffffffffffffff831660208301525b9392505050565b600060408201905073ffffffffffffffffffffffffffffffffffffffff841682528260208301525b9392505050565b600060208201905082151582525b92915050565b600060208201905073ffffffffffffffffffffffffffffffffffffffff831682525b92915050565b600060208201905073ffffffffffffffffffffffffffffffffffffffff831682525b92915050565b600060208201905073ffffffffffffffffffffffffffffffffffffffff831682525b92915050565b600060408201905073ffffffffffffffffffffffffffffffffffffffff8416825263ffffffff831660208301525b9392505050565b60006040820190508382528260208301525b9392505050565b60006101608201905067ffffffffffffffff841682526157ba60208301846153ba565b5b9392505050565b600060208252601160208301527f50726f746f636f6c2073687574646f776e00000000000000000000000000000060408301526060820190505b919050565b600060208252600d60208301527f4c43205265656e7472616e63790000000000000000000000000000000000000060408301526060820190505b919050565b600060208252601460208301527f416374696f6e2077696e646f772070617373656400000000000000000000000060408301526060820190505b919050565b600060208252601460208301527f416c72656164792070617274696369706174656400000000000000000000000060408301526060820190505b919050565b600060208252600f60208301527f4e6f20666c61736820626f72726f77000000000000000000000000000000000060408301526060820190505b919050565b600060208252600e60208301527f4e6f7420417574686f72697a656400000000000000000000000000000000000060408301526060820190505b919050565b600060208252600460208301527f4e6f6f700000000000000000000000000000000000000000000000000000000060408301526060820190505b919050565b600060208252600d60208301527f4c50205265656e7472616e63790000000000000000000000000000000000000060408301526060820190505b919050565b600060208252601360208301527f4d7573742061646420636f6c6c61746572616c0000000000000000000000000060408301526060820190505b919050565b600060208252601160208301527f4e6f206c6f6e6765722067656e6573697300000000000000000000000000000060408301526060820190505b919050565b600060208252602360208301527f43616e7420696e637265617365202620646563726561736520636f6c6c61746560408301527f72616c000000000000000000000000000000000000000000000000000000000060608301526080820190505b919050565b600060208252601260208301527f506f736974696f6e20746f6f20736d616c6c000000000000000000000000000060408301526060820190505b919050565b600060208252601360208301527f4e6f206465627420746f20706179206261636b0000000000000000000000000060408301526060820190505b919050565b600060208252601360208301527f436f6e74726163742069732073746f707065640000000000000000000000000060408301526060820190505b919050565b600060208252601760208301527f496e73756666696369656e7420636f6c6c61746572616c00000000000000000060408301526060820190505b919050565b600060a08201905082518252602083015160208301526040830151604083015260608301516060830152608083015160808301525b92915050565b600061014082019050615be782846153ba565b5b92915050565b600061016082019050615c0182856153ba565b826101408301525b9392505050565b6000608082019050825182526020830151602083015260408301516040830152606083015160608301525b92915050565b60006020820190508282525b92915050565b60006040820190508382528260208301525b9392505050565b600060208201905063ffffffff831682525b92915050565b600060208201905063ffffffff831682525b92915050565b600060208201905067ffffffffffffffff831682525b92915050565b60006101608201905067ffffffffffffffff84168252615cdb60208301846153ba565b5b9392505050565b600060a08201905067ffffffffffffffff871682528560208301528460408301528360608301528260808301525b9695505050505050565b6000604051905081810181811067ffffffffffffffff82111715615d3b57fe5b80604052505b919050565b73ffffffffffffffffffffffffffffffffffffffff811681141515615d6b5760006000fd5b5b50565b80151581141515615d805760006000fd5b5b50565b8060020b81141515615d965760006000fd5b5b50565b67ffffffffffffffff811681141515615db35760006000fd5b5b50565b60ff811681141515615dc95760006000fd5b5b50565bfea264697066735822122000c82565ee1e4cbe53250f8afca5aacb9a997b36410702e8b6529d7329288e8464736f6c63430007060033",
  "linkReferences": {},
  "deployedLinkReferences": {}
}