{
  "_format": "hh-sol-artifact-1",
  "contractName": "MarketTestable",
  "sourceName": "contracts/mocks/MarketTestable.sol",
  "abi": [
    {
      "anonymous": false,
      "inputs": [
        {
          "indexed": true,
          "internalType": "address",
          "name": "governor",
          "type": "address"
        }
      ],
      "name": "Initialized",
      "type": "event"
    },
    {
      "anonymous": false,
      "inputs": [
        {
          "indexed": true,
          "internalType": "uint64",
          "name": "period",
          "type": "uint64"
        },
        {
          "indexed": false,
          "internalType": "uint64",
          "name": "periods",
          "type": "uint64"
        },
        {
          "indexed": false,
          "internalType": "uint256",
          "name": "newDebt",
          "type": "uint256"
        },
        {
          "indexed": false,
          "internalType": "uint256",
          "name": "rewardCount",
          "type": "uint256"
        },
        {
          "indexed": false,
          "internalType": "uint256",
          "name": "cumulativeDebt",
          "type": "uint256"
        },
        {
          "indexed": false,
          "internalType": "uint256",
          "name": "debtExchangeRate",
          "type": "uint256"
        }
      ],
      "name": "InterestAccrued",
      "type": "event"
    },
    {
      "anonymous": false,
      "inputs": [
        {
          "indexed": true,
          "internalType": "address",
          "name": "creator",
          "type": "address"
        },
        {
          "indexed": true,
          "internalType": "uint64",
          "name": "positionID",
          "type": "uint64"
        }
      ],
      "name": "NewPositionCreated",
      "type": "event"
    },
    {
      "anonymous": false,
      "inputs": [
        {
          "indexed": true,
          "internalType": "string",
          "name": "paramName",
          "type": "string"
        },
        {
          "indexed": false,
          "internalType": "uint256",
          "name": "value",
          "type": "uint256"
        }
      ],
      "name": "ParameterUpdated",
      "type": "event"
    },
    {
      "anonymous": false,
      "inputs": [
        {
          "indexed": true,
          "internalType": "string",
          "name": "paramName",
          "type": "string"
        },
        {
          "indexed": false,
          "internalType": "uint64",
          "name": "value",
          "type": "uint64"
        }
      ],
      "name": "ParameterUpdated64",
      "type": "event"
    },
    {
      "anonymous": false,
      "inputs": [
        {
          "indexed": true,
          "internalType": "string",
          "name": "paramName",
          "type": "string"
        },
        {
          "indexed": false,
          "internalType": "address",
          "name": "value",
          "type": "address"
        }
      ],
      "name": "ParameterUpdatedAddress",
      "type": "event"
    },
    {
      "anonymous": false,
      "inputs": [
        {
          "indexed": true,
          "internalType": "uint64",
          "name": "positionID",
          "type": "uint64"
        },
        {
          "indexed": false,
          "internalType": "int256",
          "name": "debtChange",
          "type": "int256"
        },
        {
          "indexed": false,
          "internalType": "int256",
          "name": "collateralChange",
          "type": "int256"
        }
      ],
      "name": "PositionAdjusted",
      "type": "event"
    },
    {
      "anonymous": false,
      "inputs": [
        {
          "indexed": true,
          "internalType": "uint256",
          "name": "positionID",
          "type": "uint256"
        },
        {
          "indexed": true,
          "internalType": "uint64",
          "name": "period",
          "type": "uint64"
        },
        {
          "indexed": false,
          "internalType": "uint256",
          "name": "debtAfter",
          "type": "uint256"
        },
        {
          "indexed": false,
          "internalType": "uint256",
          "name": "tcpRewards",
          "type": "uint256"
        }
      ],
      "name": "PositionUpdated",
      "type": "event"
    },
    {
      "anonymous": false,
      "inputs": [],
      "name": "Stopped",
      "type": "event"
    },
    {
      "inputs": [],
      "name": "accrueInterest",
      "outputs": [],
      "stateMutability": "nonpayable",
      "type": "function"
    },
    {
      "inputs": [
        {
          "internalType": "uint64",
          "name": "positionID",
          "type": "uint64"
        },
        {
          "internalType": "uint256",
          "name": "collateralDecrease",
          "type": "uint256"
        }
      ],
      "name": "adjustGenesisPositionCollateral",
      "outputs": [],
      "stateMutability": "payable",
      "type": "function"
    },
    {
      "inputs": [
        {
          "internalType": "uint64",
          "name": "positionID",
          "type": "uint64"
        },
        {
          "internalType": "int256",
          "name": "debtChange",
          "type": "int256"
        },
        {
          "internalType": "uint256",
          "name": "collateralDecrease",
          "type": "uint256"
        }
      ],
      "name": "adjustPosition",
      "outputs": [],
      "stateMutability": "payable",
      "type": "function"
    },
    {
      "inputs": [
        {
          "components": [
            {
              "internalType": "uint256",
              "name": "debt",
              "type": "uint256"
            },
            {
              "internalType": "uint256",
              "name": "totalTCPRewards",
              "type": "uint256"
            },
            {
              "internalType": "uint256",
              "name": "cumulativeDebt",
              "type": "uint256"
            },
            {
              "internalType": "uint256",
              "name": "debtExchangeRate",
              "type": "uint256"
            }
          ],
          "internalType": "struct IAccounting.SystemDebtInfo",
          "name": "sdi",
          "type": "tuple"
        },
        {
          "internalType": "uint64",
          "name": "periods",
          "type": "uint64"
        },
        {
          "internalType": "uint256",
          "name": "annualInterestRate",
          "type": "uint256"
        },
        {
          "internalType": "bool",
          "name": "positiveInterestRate",
          "type": "bool"
        },
        {
          "internalType": "uint256",
          "name": "reserves",
          "type": "uint256"
        },
        {
          "internalType": "uint256",
          "name": "_interestPortionToLenders",
          "type": "uint256"
        }
      ],
      "name": "calculateInterest",
      "outputs": [
        {
          "components": [
            {
              "internalType": "uint256",
              "name": "newDebt",
              "type": "uint256"
            },
            {
              "internalType": "uint256",
              "name": "newExchangeRate",
              "type": "uint256"
            },
            {
              "internalType": "uint256",
              "name": "additionalReserves",
              "type": "uint256"
            },
            {
              "internalType": "uint256",
              "name": "additionalLends",
              "type": "uint256"
            },
            {
              "internalType": "uint256",
              "name": "reducedReserves",
              "type": "uint256"
            }
          ],
          "internalType": "struct IMarket.CalculatedInterestInfo",
          "name": "cii",
          "type": "tuple"
        }
      ],
      "stateMutability": "pure",
      "type": "function"
    },
    {
      "inputs": [
        {
          "internalType": "uint64",
          "name": "positionID",
          "type": "uint64"
        }
      ],
      "name": "claimRewards",
      "outputs": [],
      "stateMutability": "nonpayable",
      "type": "function"
    },
    {
      "inputs": [],
      "name": "collateralPool",
      "outputs": [
        {
          "internalType": "contract IUniswapV3Pool",
          "name": "",
          "type": "address"
        }
      ],
      "stateMutability": "view",
      "type": "function"
    },
    {
      "inputs": [],
      "name": "collateralizationRequirement",
      "outputs": [
        {
          "internalType": "uint256",
          "name": "",
          "type": "uint256"
        }
      ],
      "stateMutability": "view",
      "type": "function"
    },
    {
      "inputs": [],
      "name": "completeSetup",
      "outputs": [],
      "stateMutability": "nonpayable",
      "type": "function"
    },
    {
      "inputs": [
        {
          "components": [
            {
              "internalType": "uint8",
              "name": "v",
              "type": "uint8"
            },
            {
              "internalType": "bytes32",
              "name": "r",
              "type": "bytes32"
            },
            {
              "internalType": "bytes32",
              "name": "s",
              "type": "bytes32"
            }
          ],
          "internalType": "struct IGovernor.GenesisAuth",
          "name": "ga",
          "type": "tuple"
        }
      ],
      "name": "createGenesisPosition",
      "outputs": [
        {
          "internalType": "uint64",
          "name": "positionID",
          "type": "uint64"
        }
      ],
      "stateMutability": "payable",
      "type": "function"
    },
    {
      "inputs": [
        {
          "internalType": "uint256",
          "name": "initialDebt",
          "type": "uint256"
        }
      ],
      "name": "createPosition",
      "outputs": [
        {
          "internalType": "uint64",
          "name": "positionID",
          "type": "uint64"
        }
      ],
      "stateMutability": "payable",
      "type": "function"
    },
    {
      "inputs": [],
      "name": "currentPeriod",
      "outputs": [
        {
          "internalType": "uint64",
          "name": "period",
          "type": "uint64"
        }
      ],
      "stateMutability": "view",
      "type": "function"
    },
    {
      "inputs": [],
      "name": "deployer",
      "outputs": [
        {
          "internalType": "address",
          "name": "",
          "type": "address"
        }
      ],
      "stateMutability": "view",
      "type": "function"
    },
    {
      "inputs": [],
      "name": "firstPeriod",
      "outputs": [
        {
          "internalType": "uint64",
          "name": "",
          "type": "uint64"
        }
      ],
      "stateMutability": "view",
      "type": "function"
    },
    {
      "inputs": [],
      "name": "governor",
      "outputs": [
        {
          "internalType": "contract IGovernor",
          "name": "",
          "type": "address"
        }
      ],
      "stateMutability": "view",
      "type": "function"
    },
    {
      "inputs": [],
      "name": "huePositionNFT",
      "outputs": [
        {
          "internalType": "contract IPositionNFT",
          "name": "",
          "type": "address"
        }
      ],
      "stateMutability": "view",
      "type": "function"
    },
    {
      "inputs": [
        {
          "internalType": "contract IGovernor",
          "name": "_governor",
          "type": "address"
        }
      ],
      "name": "init",
      "outputs": [],
      "stateMutability": "nonpayable",
      "type": "function"
    },
    {
      "inputs": [],
      "name": "interestPortionToLenders",
      "outputs": [
        {
          "internalType": "uint256",
          "name": "",
          "type": "uint256"
        }
      ],
      "stateMutability": "view",
      "type": "function"
    },
    {
      "inputs": [],
      "name": "lastPeriodGlobalInterestAccrued",
      "outputs": [
        {
          "internalType": "uint64",
          "name": "",
          "type": "uint64"
        }
      ],
      "stateMutability": "view",
      "type": "function"
    },
    {
      "inputs": [],
      "name": "minPositionSize",
      "outputs": [
        {
          "internalType": "uint256",
          "name": "",
          "type": "uint256"
        }
      ],
      "stateMutability": "view",
      "type": "function"
    },
    {
      "inputs": [],
      "name": "periodLength",
      "outputs": [
        {
          "internalType": "uint64",
          "name": "",
          "type": "uint64"
        }
      ],
      "stateMutability": "view",
      "type": "function"
    },
    {
      "inputs": [
        {
          "internalType": "uint64",
          "name": "positionID",
          "type": "uint64"
        }
      ],
      "name": "removeGenesisPosition",
      "outputs": [],
      "stateMutability": "nonpayable",
      "type": "function"
    },
    {
      "inputs": [
        {
          "internalType": "uint256",
          "name": "requirement",
          "type": "uint256"
        }
      ],
      "name": "setCollateralizationRequirement",
      "outputs": [],
      "stateMutability": "nonpayable",
      "type": "function"
    },
    {
      "inputs": [
        {
          "internalType": "uint256",
          "name": "percentage",
          "type": "uint256"
        }
      ],
      "name": "setInterestPortionToLenders",
      "outputs": [],
      "stateMutability": "nonpayable",
      "type": "function"
    },
    {
      "inputs": [
        {
          "internalType": "uint256",
          "name": "size",
          "type": "uint256"
        }
      ],
      "name": "setMinPositionSize",
      "outputs": [],
      "stateMutability": "nonpayable",
      "type": "function"
    },
    {
      "inputs": [
        {
          "internalType": "uint32",
          "name": "duration",
          "type": "uint32"
        }
      ],
      "name": "setTwapDuration",
      "outputs": [],
      "stateMutability": "nonpayable",
      "type": "function"
    },
    {
      "inputs": [],
      "name": "stop",
      "outputs": [],
      "stateMutability": "nonpayable",
      "type": "function"
    },
    {
      "inputs": [],
      "name": "stopped",
      "outputs": [
        {
          "internalType": "bool",
          "name": "",
          "type": "bool"
        }
      ],
      "stateMutability": "view",
      "type": "function"
    },
    {
      "inputs": [
        {
          "internalType": "uint64",
          "name": "positionID",
          "type": "uint64"
        }
      ],
      "name": "systemGetUpdatedPosition",
      "outputs": [
        {
          "components": [
            {
              "internalType": "uint256",
              "name": "startCumulativeDebt",
              "type": "uint256"
            },
            {
              "internalType": "uint256",
              "name": "collateral",
              "type": "uint256"
            },
            {
              "internalType": "uint256",
              "name": "debt",
              "type": "uint256"
            },
            {
              "internalType": "uint256",
              "name": "startDebtExchangeRate",
              "type": "uint256"
            },
            {
              "internalType": "uint256",
              "name": "startTCPRewards",
              "type": "uint256"
            },
            {
              "internalType": "uint64",
              "name": "lastTimeUpdated",
              "type": "uint64"
            },
            {
              "internalType": "uint64",
              "name": "lastBorrowTime",
              "type": "uint64"
            },
            {
              "internalType": "int24",
              "name": "tick",
              "type": "int24"
            },
            {
              "internalType": "bool",
              "name": "tickSet",
              "type": "bool"
            },
            {
              "internalType": "uint64",
              "name": "tickIndex",
              "type": "uint64"
            }
          ],
          "internalType": "struct IAccounting.DebtPosition",
          "name": "",
          "type": "tuple"
        }
      ],
      "stateMutability": "nonpayable",
      "type": "function"
    },
    {
      "inputs": [],
      "name": "twapDuration",
      "outputs": [
        {
          "internalType": "uint32",
          "name": "",
          "type": "uint32"
        }
      ],
      "stateMutability": "view",
      "type": "function"
    },
    {
      "inputs": [
        {
          "components": [
            {
              "internalType": "uint256",
              "name": "startCumulativeDebt",
              "type": "uint256"
            },
            {
              "internalType": "uint256",
              "name": "collateral",
              "type": "uint256"
            },
            {
              "internalType": "uint256",
              "name": "debt",
              "type": "uint256"
            },
            {
              "internalType": "uint256",
              "name": "startDebtExchangeRate",
              "type": "uint256"
            },
            {
              "internalType": "uint256",
              "name": "startTCPRewards",
              "type": "uint256"
            },
            {
              "internalType": "uint64",
              "name": "lastTimeUpdated",
              "type": "uint64"
            },
            {
              "internalType": "uint64",
              "name": "lastBorrowTime",
              "type": "uint64"
            },
            {
              "internalType": "int24",
              "name": "tick",
              "type": "int24"
            },
            {
              "internalType": "bool",
              "name": "tickSet",
              "type": "bool"
            },
            {
              "internalType": "uint64",
              "name": "tickIndex",
              "type": "uint64"
            }
          ],
          "internalType": "struct IAccounting.DebtPosition",
          "name": "_position",
          "type": "tuple"
        },
        {
          "components": [
            {
              "internalType": "uint256",
              "name": "debt",
              "type": "uint256"
            },
            {
              "internalType": "uint256",
              "name": "totalTCPRewards",
              "type": "uint256"
            },
            {
              "internalType": "uint256",
              "name": "cumulativeDebt",
              "type": "uint256"
            },
            {
              "internalType": "uint256",
              "name": "debtExchangeRate",
              "type": "uint256"
            }
          ],
          "internalType": "struct IAccounting.SystemDebtInfo",
          "name": "sdi",
          "type": "tuple"
        },
        {
          "internalType": "uint64",
          "name": "timeNow",
          "type": "uint64"
        }
      ],
      "name": "updatePositionImpl",
      "outputs": [
        {
          "components": [
            {
              "internalType": "uint256",
              "name": "startCumulativeDebt",
              "type": "uint256"
            },
            {
              "internalType": "uint256",
              "name": "collateral",
              "type": "uint256"
            },
            {
              "internalType": "uint256",
              "name": "debt",
              "type": "uint256"
            },
            {
              "internalType": "uint256",
              "name": "startDebtExchangeRate",
              "type": "uint256"
            },
            {
              "internalType": "uint256",
              "name": "startTCPRewards",
              "type": "uint256"
            },
            {
              "internalType": "uint64",
              "name": "lastTimeUpdated",
              "type": "uint64"
            },
            {
              "internalType": "uint64",
              "name": "lastBorrowTime",
              "type": "uint64"
            },
            {
              "internalType": "int24",
              "name": "tick",
              "type": "int24"
            },
            {
              "internalType": "bool",
              "name": "tickSet",
              "type": "bool"
            },
            {
              "internalType": "uint64",
              "name": "tickIndex",
              "type": "uint64"
            }
          ],
          "internalType": "struct IAccounting.DebtPosition",
          "name": "position",
          "type": "tuple"
        },
        {
          "internalType": "uint256",
          "name": "rewards",
          "type": "uint256"
        }
      ],
      "stateMutability": "pure",
      "type": "function"
    },
    {
      "inputs": [
        {
          "internalType": "bytes4",
          "name": "",
          "type": "bytes4"
        }
      ],
      "name": "validUpdate",
      "outputs": [
        {
          "internalType": "bool",
          "name": "",
          "type": "bool"
        }
      ],
      "stateMutability": "view",
      "type": "function"
    }
  ],
  "bytecode": "0x60c0604052600160066000509090556714d1120d7b160000600760005090905568878678326eac90000060086000509090556702c68af0bb1400006009600050909055610e10600a60146101000a81548163ffffffff021916908363ffffffff160217905550348015620000735760006000fd5b505b610e105b5b33600160006101000a81548173ffffffffffffffffffffffffffffffffffffffff021916908373ffffffffffffffffffffffffffffffffffffffff1602179055505b60018167ffffffffffffffff16620000d96200013b60201b60201c565b67ffffffffffffffff16811515620000ed57fe5b040367ffffffffffffffff1660a08167ffffffffffffffff1660c01b815260080150508067ffffffffffffffff1660808167ffffffffffffffff1660c01b815260080150505b505b620001f1565b600062000155426200015d60201b62001ec617909060201c565b905080505b90565b60006801000000000000000082101515620001e3576040517f08c379a00000000000000000000000000000000000000000000000000000000081526004018080602001828103825260118152602001807f6d6f7265207468616e203634206269747300000000000000000000000000000081526020015060200191505060405180910390fd5b819050620001ec565b919050565b60805160c01c60a05160c01c615d736200022f600039806118bd5280611f5c52806145ae5250806118e15280611f7d52806145cf5250615d736000f3fe6080604052600436106101dc5760003560e01c8063a6afed9511610102578063c4e3a63b11610095578063eb6843ce11610064578063eb6843ce1461065d578063ef5e1cac1461069b578063f6979f29146106c5578063ff0eccf6146106f1576101dc565b8063c4e3a63b146105af578063d2ca2115146105db578063d5f3948814610607578063e6e40afd14610633576101dc565b8063b6ae213a116100d1578063b6ae213a146104ee578063bb8313c21461051a578063c433c80a14610546578063c4c3622314610570576101dc565b8063a6afed9514610450578063a76e2ca514610468578063a89f51ae14610492578063ade89a64146104be576101dc565b80634ff34aca1161017a57806367fd32131161014957806367fd3213146103c057806375f12b21146103dc57806383730cc3146104085780638aea8f7114610438576101dc565b80634ff34aca1461031057806353bb670c1461034e5780635658c0121461036a5780635a6127a914610396576101dc565b80630c340a24116101b65780630c340a2414610250578063113cf1ab1461027c57806319ab453c146102ba57806326d89545146102e4576101dc565b806306040618146101e257806306972dcd1461020e57806307da68f514610238576101dc565b60006000fd5b3480156101ef5760006000fd5b506101f861071d565b6040516102059190615c0b565b60405180910390f35b34801561021b5760006000fd5b50610236600480360381019061023191906151cb565b610735565b005b3480156102455760006000fd5b5061024e61079f565b005b34801561025d5760006000fd5b506102666107bf565b6040516102739190615640565b60405180910390f35b3480156102895760006000fd5b506102a4600480360381019061029f9190614da9565b6107e5565b6040516102b1919061562c565b60405180910390f35b3480156102c75760006000fd5b506102e260048036038101906102dd9190614e1d565b61080a565b005b3480156102f15760006000fd5b506102fa610bc8565b6040516103079190615bdb565b60405180910390f35b34801561031d5760006000fd5b506103386004803603810190610333919061515e565b610bde565b6040516103459190615b08565b60405180910390f35b61036860048036038101906103639190615282565b610c0b565b005b3480156103775760006000fd5b50610380610dd6565b60405161038d9190615bb0565b60405180910390f35b3480156103a35760006000fd5b506103be60048036038101906103b991906151cb565b610ddf565b005b6103da60048036038101906103d591906152bc565b610e66565b005b3480156103e95760006000fd5b506103f261111c565b6040516103ff919061562c565b60405180910390f35b610422600480360381019061041d91906151cb565b61112f565b60405161042f9190615c0b565b60405180910390f35b3480156104455760006000fd5b5061044e61117c565b005b34801561045d5760006000fd5b5061046661127e565b005b3480156104755760006000fd5b50610490600480360381019061048b9190615234565b6112ac565b005b34801561049f5760006000fd5b506104a86114f0565b6040516104b59190615668565b60405180910390f35b6104d860048036038101906104d391906150e3565b611516565b6040516104e59190615c0b565b60405180910390f35b3480156104fb5760006000fd5b506105046117d5565b6040516105119190615c0b565b60405180910390f35b3480156105275760006000fd5b506105306117ef565b60405161053d9190615bb0565b60405180910390f35b3480156105535760006000fd5b5061056e60048036038101906105699190615203565b6117f8565b005b34801561057d5760006000fd5b5061059860048036038101906105939190615003565b61188f565b6040516105a6929190615b5d565b60405180910390f35b3480156105bc5760006000fd5b506105c56118bb565b6040516105d29190615c0b565b60405180910390f35b3480156105e85760006000fd5b506105f16118df565b6040516105fe9190615c0b565b60405180910390f35b3480156106145760006000fd5b5061061d611903565b60405161062a9190615493565b60405180910390f35b3480156106405760006000fd5b5061065b60048036038101906106569190615234565b611929565b005b34801561066a5760006000fd5b5061068560048036038101906106809190615234565b611c90565b6040516106929190615b43565b60405180910390f35b3480156106a85760006000fd5b506106c360048036038101906106be91906151cb565b611e15565b005b3480156106d25760006000fd5b506106db611e97565b6040516106e89190615bb0565b60405180910390f35b3480156106fe5760006000fd5b50610707611ea0565b6040516107149190615690565b60405180910390f35b600061072d611f5863ffffffff16565b905080505b90565b610743611fd163ffffffff16565b80600860005081909090555060405161075b906153cf565b60405180910390207f3a64504f0bc0c335e2aecb78638a257e0351a3fe0370861fd54ee4190b920933826040516107929190615bb0565b60405180910390a25b5b50565b6107ad611fd163ffffffff16565b6107bb61206663ffffffff16565b5b5b565b600060009054906101000a900473ffffffffffffffffffffffffffffffffffffffff1681565b600560005060205280600052604060002060009150909054906101000a900460ff1681565b600160009054906101000a900473ffffffffffffffffffffffffffffffffffffffff1673ffffffffffffffffffffffffffffffffffffffff163373ffffffffffffffffffffffffffffffffffffffff161415156108675760006000fd5b600160006101000a81549073ffffffffffffffffffffffffffffffffffffffff021916905580600060006101000a81548173ffffffffffffffffffffffffffffffffffffffff021916908373ffffffffffffffffffffffffffffffffffffffff160217905550600060009054906101000a900473ffffffffffffffffffffffffffffffffffffffff1673ffffffffffffffffffffffffffffffffffffffff16639624e83e6040518163ffffffff1660e01b815260040160206040518083038186803b1580156109365760006000fd5b505afa15801561094b573d600060003e3d6000fd5b505050506040513d601f19601f8201168201806040525081019061096f9190614df6565b600260006101000a81548173ffffffffffffffffffffffffffffffffffffffff021916908373ffffffffffffffffffffffffffffffffffffffff160217905550600060009054906101000a900473ffffffffffffffffffffffffffffffffffffffff1673ffffffffffffffffffffffffffffffffffffffff1663323741746040518163ffffffff1660e01b815260040160206040518083038186803b158015610a185760006000fd5b505afa158015610a2d573d600060003e3d6000fd5b505050506040513d601f19601f82011682018060405250810190610a519190614e44565b600360006101000a81548173ffffffffffffffffffffffffffffffffffffffff021916908373ffffffffffffffffffffffffffffffffffffffff160217905550600060009054906101000a900473ffffffffffffffffffffffffffffffffffffffff1673ffffffffffffffffffffffffffffffffffffffff1663d478b0876040518163ffffffff1660e01b815260040160206040518083038186803b158015610afa5760006000fd5b505afa158015610b0f573d600060003e3d6000fd5b505050506040513d601f19601f82011682018060405250810190610b339190614eb9565b600460006101000a81548173ffffffffffffffffffffffffffffffffffffffff021916908373ffffffffffffffffffffffffffffffffffffffff160217905550610b816120b063ffffffff16565b8073ffffffffffffffffffffffffffffffffffffffff167f908408e307fc569b417f6cbec5d5a06f44a0a505ac0479b47d421a4b2fd6a1e660405160405180910390a25b50565b600a60149054906101000a900463ffffffff1681565b610be6614bce565b610bfa87878787878761250763ffffffff16565b9050610c01565b9695505050505050565b610c196126f563ffffffff16565b610c276127d463ffffffff16565b6002610ce6600a60009054906101000a900473ffffffffffffffffffffffffffffffffffffffff1673ffffffffffffffffffffffffffffffffffffffff1663430c208133876040518363ffffffff1660e01b8152600401610c899291906155c4565b60206040518083038186803b158015610ca25760006000fd5b505afa158015610cb7573d600060003e3d6000fd5b505050506040513d601f19601f82011682018060405250810190610cdb9190614d82565b6128c963ffffffff16565b610dbe610db08567ffffffffffffffff16600260009054906101000a900473ffffffffffffffffffffffffffffffffffffffff1673ffffffffffffffffffffffffffffffffffffffff16630f85fc5a886040518263ffffffff1660e01b8152600401610d529190615c0b565b6101406040518083038186803b158015610d6c5760006000fd5b505afa158015610d81573d600060003e3d6000fd5b505050506040513d601f19601f82011682018060405250810190610da59190614f55565b61290f63ffffffff16565b858585612c0b63ffffffff16565b5b5b505b610dd061338763ffffffff16565b5b505050565b60076000505481565b610ded611fd163ffffffff16565b806009600050819090905550670de0b6b3a764000060096000505411151515610e165760006000fd5b604051610e2290615462565b60405180910390207f3a64504f0bc0c335e2aecb78638a257e0351a3fe0370861fd54ee4190b92093382604051610e599190615bb0565b60405180910390a25b5b50565b610e746126f563ffffffff16565b610e826127d463ffffffff16565b60028060ff16600060009054906101000a900473ffffffffffffffffffffffffffffffffffffffff1673ffffffffffffffffffffffffffffffffffffffff1663055ad42e6040518163ffffffff1660e01b815260040160206040518083038186803b158015610ef15760006000fd5b505afa158015610f06573d600060003e3d6000fd5b505050506040513d601f19601f82011682018060405250810190610f2a91906152ed565b60ff16101515610f6f576040517f08c379a0000000000000000000000000000000000000000000000000000000008152600401610f66906157af565b60405180910390fd5b61102c600a60009054906101000a900473ffffffffffffffffffffffffffffffffffffffff1673ffffffffffffffffffffffffffffffffffffffff1663430c208133866040518363ffffffff1660e01b8152600401610fcf9291906155c4565b60206040518083038186803b158015610fe85760006000fd5b505afa158015610ffd573d600060003e3d6000fd5b505050506040513d601f19601f820116820180604052508101906110219190614d82565b6128c963ffffffff16565b6111056110f68467ffffffffffffffff16600260009054906101000a900473ffffffffffffffffffffffffffffffffffffffff1673ffffffffffffffffffffffffffffffffffffffff16630f85fc5a876040518263ffffffff1660e01b81526004016110989190615c0b565b6101406040518083038186803b1580156110b25760006000fd5b505afa1580156110c7573d600060003e3d6000fd5b505050506040513d601f19601f820116820180604052508101906110eb9190614f55565b61290f63ffffffff16565b84600085612c0b63ffffffff16565b5b5b505b61111761338763ffffffff16565b5b5050565b600060149054906101000a900460ff1681565b600061113f6126f563ffffffff16565b61114d6127d463ffffffff16565b600261115e8361341b63ffffffff16565b9150611165565b5b505b61117661338763ffffffff16565b5b919050565b61118a611fd163ffffffff16565b600060009054906101000a900473ffffffffffffffffffffffffffffffffffffffff1673ffffffffffffffffffffffffffffffffffffffff1663ff0eccf66040518163ffffffff1660e01b815260040160206040518083038186803b1580156111f35760006000fd5b505afa158015611208573d600060003e3d6000fd5b505050506040513d601f19601f8201168201806040525081019061122c9190614f2e565b600b60006101000a81548173ffffffffffffffffffffffffffffffffffffffff021916908373ffffffffffffffffffffffffffffffffffffffff16021790555061127a6135ae63ffffffff16565b5b5b565b61128c613f8d63ffffffff16565b61129a6135ae63ffffffff16565b5b6112a9613fe863ffffffff16565b5b565b6112ba6126f563ffffffff16565b6112c8613ff863ffffffff16565b611385600a60009054906101000a900473ffffffffffffffffffffffffffffffffffffffff1673ffffffffffffffffffffffffffffffffffffffff1663430c208133846040518363ffffffff1660e01b81526004016113289291906155c4565b60206040518083038186803b1580156113415760006000fd5b505afa158015611356573d600060003e3d6000fd5b505050506040513d601f19601f8201168201806040525081019061137a9190614d82565b6128c963ffffffff16565b600260009054906101000a900473ffffffffffffffffffffffffffffffffffffffff1673ffffffffffffffffffffffffffffffffffffffff1663f94fffb18261148b8467ffffffffffffffff16600260009054906101000a900473ffffffffffffffffffffffffffffffffffffffff1673ffffffffffffffffffffffffffffffffffffffff16630f85fc5a876040518263ffffffff1660e01b815260040161142d9190615c0b565b6101406040518083038186803b1580156114475760006000fd5b505afa15801561145c573d600060003e3d6000fd5b505050506040513d601f19601f820116820180604052508101906114809190614f55565b61290f63ffffffff16565b6040518363ffffffff1660e01b81526004016114a8929190615c27565b600060405180830381600087803b1580156114c35760006000fd5b505af11580156114d8573d600060003e3d6000fd5b505050505b5b6114ec61338763ffffffff16565b5b50565b600a60009054906101000a900473ffffffffffffffffffffffffffffffffffffffff1681565b60006115266126f563ffffffff16565b6115346127d463ffffffff16565b600060009054906101000a900473ffffffffffffffffffffffffffffffffffffffff1673ffffffffffffffffffffffffffffffffffffffff1663b8e5748433846040518363ffffffff1660e01b8152600401611591929190615514565b60206040518083038186803b1580156115aa5760006000fd5b505afa1580156115bf573d600060003e3d6000fd5b505050506040513d601f19601f820116820180604052508101906115e39190614d82565b1515611624576040517f08c379a000000000000000000000000000000000000000000000000000000000815260040161161b90615968565b60405180910390fd5b600260009054906101000a900473ffffffffffffffffffffffffffffffffffffffff1673ffffffffffffffffffffffffffffffffffffffff1663afd7c0f2336040518263ffffffff1660e01b815260040161167f91906154bb565b60206040518083038186803b1580156116985760006000fd5b505afa1580156116ad573d600060003e3d6000fd5b505050506040513d601f19601f820116820180604052508101906116d19190614d82565b151515611713576040517f08c379a000000000000000000000000000000000000000000000000000000000815260040161170a906157ee565b60405180910390fd5b600260009054906101000a900473ffffffffffffffffffffffffffffffffffffffff1673ffffffffffffffffffffffffffffffffffffffff1663345750e73360016040518363ffffffff1660e01b81526004016117719291906154e3565b600060405180830381600087803b15801561178c5760006000fd5b505af11580156117a1573d600060003e3d6000fd5b505050506117b960086000505461341b63ffffffff16565b90506117c0565b5b6117cf61338763ffffffff16565b5b919050565b600a60189054906101000a900467ffffffffffffffff1681565b60086000505481565b611806611fd163ffffffff16565b61012c8163ffffffff161015151561181e5760006000fd5b80600a60146101000a81548163ffffffff021916908363ffffffff16021790555060405161184b90615400565b60405180910390207f6293347933ad2997134e224ac8cd2e39908a4a22aeed9af52127b4bbf7652978826040516118829190615bf3565b60405180910390a25b5b50565b611897614c00565b60006118aa85858561404d63ffffffff16565b80925081935050505b935093915050565b7f000000000000000000000000000000000000000000000000000000000000000081565b7f000000000000000000000000000000000000000000000000000000000000000081565b600160009054906101000a900473ffffffffffffffffffffffffffffffffffffffff1681565b6119376126f563ffffffff16565b6119456127d463ffffffff16565b60028060ff16600060009054906101000a900473ffffffffffffffffffffffffffffffffffffffff1673ffffffffffffffffffffffffffffffffffffffff1663055ad42e6040518163ffffffff1660e01b815260040160206040518083038186803b1580156119b45760006000fd5b505afa1580156119c9573d600060003e3d6000fd5b505050506040513d601f19601f820116820180604052508101906119ed91906152ed565b60ff16101515611a32576040517f08c379a0000000000000000000000000000000000000000000000000000000008152600401611a29906157af565b60405180910390fd5b611aef600a60009054906101000a900473ffffffffffffffffffffffffffffffffffffffff1673ffffffffffffffffffffffffffffffffffffffff1663430c208133856040518363ffffffff1660e01b8152600401611a929291906155c4565b60206040518083038186803b158015611aab5760006000fd5b505afa158015611ac0573d600060003e3d6000fd5b505050506040513d601f19601f82011682018060405250810190611ae49190614d82565b6128c963ffffffff16565b6000611bb88367ffffffffffffffff16600260009054906101000a900473ffffffffffffffffffffffffffffffffffffffff1673ffffffffffffffffffffffffffffffffffffffff16630f85fc5a866040518263ffffffff1660e01b8152600401611b5a9190615c0b565b6101406040518083038186803b158015611b745760006000fd5b505afa158015611b89573d600060003e3d6000fd5b505050506040513d601f19601f82011682018060405250810190611bad9190614f55565b61290f63ffffffff16565b9050600260009054906101000a900473ffffffffffffffffffffffffffffffffffffffff1673ffffffffffffffffffffffffffffffffffffffff1663345750e73360006040518363ffffffff1660e01b8152600401611c189291906154e3565b600060405180830381600087803b158015611c335760006000fd5b505af1158015611c48573d600060003e3d6000fd5b50505050611c798184611c6684604001516141b3909063ffffffff16565b6000038460200151612c0b63ffffffff16565b505b5b505b611c8c61338763ffffffff16565b5b50565b611c98614c00565b611ca6613f8d63ffffffff16565b600060009054906101000a900473ffffffffffffffffffffffffffffffffffffffff1673ffffffffffffffffffffffffffffffffffffffff16639622cd8f336040518263ffffffff1660e01b8152600401611d0191906154bb565b60006040518083038186803b158015611d1a5760006000fd5b505afa158015611d2f573d600060003e3d6000fd5b50505050611dfa8267ffffffffffffffff16600260009054906101000a900473ffffffffffffffffffffffffffffffffffffffff1673ffffffffffffffffffffffffffffffffffffffff16630f85fc5a856040518263ffffffff1660e01b8152600401611d9c9190615c0b565b6101406040518083038186803b158015611db65760006000fd5b505afa158015611dcb573d600060003e3d6000fd5b505050506040513d601f19601f82011682018060405250810190611def9190614f55565b61290f63ffffffff16565b9050611e01565b611e0f613fe863ffffffff16565b5b919050565b611e23611fd163ffffffff16565b806007600050819090905550670de0b6b3a76400008110151515611e475760006000fd5b604051611e5390615431565b60405180910390207f3a64504f0bc0c335e2aecb78638a257e0351a3fe0370861fd54ee4190b92093382604051611e8a9190615bb0565b60405180910390a25b5b50565b60096000505481565b600b60009054906101000a900473ffffffffffffffffffffffffffffffffffffffff1681565b60006801000000000000000082101515611f4b576040517f08c379a00000000000000000000000000000000000000000000000000000000081526004018080602001828103825260118152602001807f6d6f7265207468616e203634206269747300000000000000000000000000000081526020015060200191505060405180910390fd5b819050611f53565b919050565b60007f00000000000000000000000000000000000000000000000000000000000000007f000000000000000000000000000000000000000000000000000000000000000067ffffffffffffffff16611fb461425c63ffffffff16565b67ffffffffffffffff16811515611fc757fe5b0403905080505b90565b600060009054906101000a900473ffffffffffffffffffffffffffffffffffffffff1673ffffffffffffffffffffffffffffffffffffffff163373ffffffffffffffffffffffffffffffffffffffff16141515612063576040517f08c379a000000000000000000000000000000000000000000000000000000000815260040161205a9061586c565b60405180910390fd5b5b565b6001600060146101000a81548160ff0219169083151502179055507f7acc84e34091ae817647a4c49116f5cc07f319078ba80f8f5fde37ea7e25cbd660405160405180910390a15b565b600060009054906101000a900473ffffffffffffffffffffffffffffffffffffffff1673ffffffffffffffffffffffffffffffffffffffff1663a89f51ae6040518163ffffffff1660e01b815260040160206040518083038186803b1580156121195760006000fd5b505afa15801561212e573d600060003e3d6000fd5b505050506040513d601f19601f820116820180604052508101906121529190614e6b565b600a60006101000a81548173ffffffffffffffffffffffffffffffffffffffff021916908373ffffffffffffffffffffffffffffffffffffffff1602179055506000600a60009054906101000a900473ffffffffffffffffffffffffffffffffffffffff1673ffffffffffffffffffffffffffffffffffffffff1663755edd17600260009054906101000a900473ffffffffffffffffffffffffffffffffffffffff166040518263ffffffff1660e01b81526004016122119190615493565b602060405180830381600087803b15801561222c5760006000fd5b505af1158015612241573d600060003e3d6000fd5b505050506040513d601f19601f82011682018060405250810190612265919061525b565b67ffffffffffffffff1614151561227c5760006000fd5b612284614c00565b600260009054906101000a900473ffffffffffffffffffffffffffffffffffffffff1673ffffffffffffffffffffffffffffffffffffffff1663f94fffb160006122d560008561290f63ffffffff16565b6040518363ffffffff1660e01b81526004016122f2929190615706565b600060405180830381600087803b15801561230d5760006000fd5b505af1158015612322573d600060003e3d6000fd5b505050506000604051806080016040528063ef5e1cac60e01b7bffffffffffffffffffffffffffffffffffffffffffffffffffffffff19167bffffffffffffffffffffffffffffffffffffffffffffffffffffffff1916815260200163c433c80a60e01b7bffffffffffffffffffffffffffffffffffffffffffffffffffffffff19167bffffffffffffffffffffffffffffffffffffffffffffffffffffffff191681526020016306972dcd60e01b7bffffffffffffffffffffffffffffffffffffffffffffffffffffffff19167bffffffffffffffffffffffffffffffffffffffffffffffffffffffff19168152602001635a6127a960e01b7bffffffffffffffffffffffffffffffffffffffffffffffffffffffff19167bffffffffffffffffffffffffffffffffffffffffffffffffffffffff191681526020015090506000600090505b8150600481101561250157600160056000506000848460048110151561248b57fe5b60200201517bffffffffffffffffffffffffffffffffffffffffffffffffffffffff19167bffffffffffffffffffffffffffffffffffffffffffffffffffffffff1916815260200190815260200160002060006101000a81548160ff0219169083151502179055505b8080600101915050612469565b5050505b565b61250f614bce565b60008514156125465786600001518160000190908181526020015050866060015181602001909081815260200150508090506126eb565b600061258c8767ffffffffffffffff16610e1067ffffffffffffffff166301e1338081151561257157fe5b0467ffffffffffffffff16886142779092919063ffffffff16565b90506000856125b5576125b082670de0b6b3a764000061437890919063ffffffff16565b6125d1565b6125d082670de0b6b3a764000061440190919063ffffffff16565b5b90506125ea818a6060015161448a90919063ffffffff16565b836020019090818152602001505061261983602001518a606001518b600001516142779092919063ffffffff16565b836000019090818152602001505088600001518360000151111561268257600089600001518460000151039050612659858261448a90919063ffffffff16565b8460600190908181526020015050836060015181038460400190908181526020015050506126e8565b8860000151836000015110156126e757600083600001518a6000015103905085811015156126d55789600001518460000190908181526020015050896060015184602001909081815260200150506126e5565b8084608001909081815260200150505b505b5b50505b9695505050505050565b600460009054906101000a900473ffffffffffffffffffffffffffffffffffffffff1673ffffffffffffffffffffffffffffffffffffffff1663e97dcb626040518163ffffffff1660e01b8152600401600060405180830381600087803b1580156127605760006000fd5b505af1158015612775573d600060003e3d6000fd5b505050506002600660005054141515156127c4576040517f08c379a00000000000000000000000000000000000000000000000000000000081526004016127bb906158ea565b60405180910390fd5b600260066000508190909055505b565b6127e2613ff863ffffffff16565b600060009054906101000a900473ffffffffffffffffffffffffffffffffffffffff1673ffffffffffffffffffffffffffffffffffffffff1663bf86d6906040518163ffffffff1660e01b815260040160206040518083038186803b15801561284b5760006000fd5b505afa158015612860573d600060003e3d6000fd5b505050506040513d601f19601f820116820180604052508101906128849190614d82565b1515156128c6576040517f08c379a00000000000000000000000000000000000000000000000000000000081526004016128bd90615731565b60405180910390fd5b5b565b80151561290b576040517f08c379a00000000000000000000000000000000000000000000000000000000081526004016129029061586c565b60405180910390fd5b5b50565b612917614c00565b60006129276144b063ffffffff16565b9050600061293a826145a763ffffffff16565b9050600060008560a0015167ffffffffffffffff161461296c576129678560a001516145a763ffffffff16565b61296f565b60005b90508067ffffffffffffffff168267ffffffffffffffff1611151561299957849350505050612c05565b6129a76135ae63ffffffff16565b6000612a5b86600260009054906101000a900473ffffffffffffffffffffffffffffffffffffffff1673ffffffffffffffffffffffffffffffffffffffff166306ef2d806040518163ffffffff1660e01b815260040160806040518083038186803b158015612a165760006000fd5b505afa158015612a2b573d600060003e3d6000fd5b505050506040513d601f19601f82011682018060405250810190612a4f91906150fe565b8661404d63ffffffff16565b8092508196505050600081118015612a74575060008714155b15612bb757600060009054906101000a900473ffffffffffffffffffffffffffffffffffffffff1673ffffffffffffffffffffffffffffffffffffffff1663b216cd94600a60009054906101000a900473ffffffffffffffffffffffffffffffffffffffff1673ffffffffffffffffffffffffffffffffffffffff16636352211e8a6040518263ffffffff1660e01b8152600401612b129190615bb0565b60206040518083038186803b158015612b2b5760006000fd5b505afa158015612b40573d600060003e3d6000fd5b505050506040513d601f19601f82011682018060405250810190612b649190614d5b565b836040518363ffffffff1660e01b8152600401612b829291906155fd565b600060405180830381600087803b158015612b9d5760006000fd5b505af1158015612bb2573d600060003e3d6000fd5b505050505b8267ffffffffffffffff16877fc99ac0d15229fa72f1b0756c0eed4e7ede3d80f4e4e0d308ce7a56d1366b8a03876040015184604051612bf8929190615bc2565b60405180910390a3505050505b92915050565b6000349050600081118015612c205750600082115b151515612c62576040517f08c379a0000000000000000000000000000000000000000000000000000000008152600401612c59906159a7565b60405180910390fd5b6000612c75826141b3909063ffffffff16565b90506000811415612c9957612c91836141b3909063ffffffff16565b600003905080505b600084141580612caa575060008114155b1515612ceb576040517f08c379a0000000000000000000000000000000000000000000000000000000008152600401612ce2906158ab565b60405180910390fd5b600084141515612f99576000841315612ded576000849050612d1a81886040015161440190919063ffffffff16565b8760400190908181526020015050612d3661425c63ffffffff16565b8760c0019067ffffffffffffffff16908167ffffffffffffffff1681526020015050600260009054906101000a900473ffffffffffffffffffffffffffffffffffffffff1673ffffffffffffffffffffffffffffffffffffffff16632b7c7b11826040518263ffffffff1660e01b8152600401612db39190615bb0565b600060405180830381600087803b158015612dce5760006000fd5b505af1158015612de3573d600060003e3d6000fd5b5050505050612f98565b60008660400151111515612e36576040517f08c379a0000000000000000000000000000000000000000000000000000000008152600401612e2d90615a4b565b60405180910390fd5b612e4461425c63ffffffff16565b67ffffffffffffffff16612e75610708610e10018860c0015167ffffffffffffffff1661462f90919063ffffffff16565b67ffffffffffffffff16101515612ec1576040517f08c379a0000000000000000000000000000000000000000000000000000000008152600401612eb89061582d565b60405180910390fd5b8360000386604001511015612eed57612ee586604001516141b3909063ffffffff16565b600003935083505b836000038660400181815103915090908181526020015050600260009054906101000a900473ffffffffffffffffffffffffffffffffffffffff1673ffffffffffffffffffffffffffffffffffffffff16632a7ba1f7856000036040518263ffffffff1660e01b8152600401612f639190615bb0565b600060405180830381600087803b158015612f7e5760006000fd5b505af1158015612f93573d600060003e3d6000fd5b505050505b5b600081141515613000576000811315612fd657612fc381876020015161440190919063ffffffff16565b8660200190908181526020015050612fff565b612ff081600003876020015161437890919063ffffffff16565b86602001909081815260200150505b5b6000866040015114151561308a5760086000505486604001511015151561305c576040517f08c379a000000000000000000000000000000000000000000000000000000000815260040161305390615a0c565b60405180910390fd5b600081128061306b5750600084135b1561308957613088866040015187602001516146cc63ffffffff16565b5b5b600260009054906101000a900473ffffffffffffffffffffffffffffffffffffffff1673ffffffffffffffffffffffffffffffffffffffff1663f94fffb186886040518363ffffffff1660e01b81526004016130e7929190615c27565b600060405180830381600087803b1580156131025760006000fd5b505af1158015613117573d600060003e3d6000fd5b5050505060008414151561325a5760008413156131c457600360009054906101000a900473ffffffffffffffffffffffffffffffffffffffff1673ffffffffffffffffffffffffffffffffffffffff1663449a52f833866040518363ffffffff1660e01b815260040161318b929190615595565b600060405180830381600087803b1580156131a65760006000fd5b505af11580156131bb573d600060003e3d6000fd5b50505050613259565b600360009054906101000a900473ffffffffffffffffffffffffffffffffffffffff1673ffffffffffffffffffffffffffffffffffffffff166379cc679033866000036040518363ffffffff1660e01b8152600401613224929190615595565b600060405180830381600087803b15801561323f5760006000fd5b505af1158015613254573d600060003e3d6000fd5b505050505b5b60008114151561333a5760008113156132a45761329f600260009054906101000a900473ffffffffffffffffffffffffffffffffffffffff16826148e763ffffffff16565b613339565b600260009054906101000a900473ffffffffffffffffffffffffffffffffffffffff1673ffffffffffffffffffffffffffffffffffffffff16636250216933836000036040518363ffffffff1660e01b8152600401613304929190615566565b600060405180830381600087803b15801561331f5760006000fd5b505af1158015613334573d600060003e3d6000fd5b505050505b5b8467ffffffffffffffff167f0ed8d38fcfdb338f760ae5cf4b84f9ade387db12ea673e89e8da1b25857cc1c185836040516133769291906156ed565b60405180910390a250505b50505050565b60016006600050819090905550600460009054906101000a900473ffffffffffffffffffffffffffffffffffffffff1673ffffffffffffffffffffffffffffffffffffffff1663e9fad8ee6040518163ffffffff1660e01b8152600401600060405180830381600087803b1580156133ff5760006000fd5b505af1158015613414573d600060003e3d6000fd5b505050505b565b6000600034111515613462576040517f08c379a000000000000000000000000000000000000000000000000000000000815260040161345990615929565b60405180910390fd5b600a60009054906101000a900473ffffffffffffffffffffffffffffffffffffffff1673ffffffffffffffffffffffffffffffffffffffff1663755edd17336040518263ffffffff1660e01b81526004016134bd91906154bb565b602060405180830381600087803b1580156134d85760006000fd5b505af11580156134ed573d600060003e3d6000fd5b505050506040513d601f19601f82011682018060405250810190613511919061525b565b9050805061351d614c00565b61355961353a8367ffffffffffffffff168361290f63ffffffff16565b8361354c866141b3909063ffffffff16565b6000612c0b63ffffffff16565b8167ffffffffffffffff163373ffffffffffffffffffffffffffffffffffffffff167f5e61a417c052598d1a3e26d3d81c42d9e7a943dccc23a840bc94bbabf9b1d60760405160405180910390a3505b919050565b60006135be614a6d63ffffffff16565b9050600a60189054906101000a900467ffffffffffffffff1667ffffffffffffffff168167ffffffffffffffff161115156135f95750613f8b565b6000600a60189054906101000a900467ffffffffffffffff16820390506000600260009054906101000a900473ffffffffffffffffffffffffffffffffffffffff1673ffffffffffffffffffffffffffffffffffffffff166306ef2d806040518163ffffffff1660e01b815260040160806040518083038186803b1580156136815760006000fd5b505afa158015613696573d600060003e3d6000fd5b505050506040513d601f19601f820116820180604052508101906136ba91906150fe565b90506000600060009054906101000a900473ffffffffffffffffffffffffffffffffffffffff1673ffffffffffffffffffffffffffffffffffffffff166343f48fbd6040518163ffffffff1660e01b815260040160206040518083038186803b1580156137275760006000fd5b505afa15801561373c573d600060003e3d6000fd5b505050506040513d601f19601f820116820180604052508101906137609190614ee0565b9050600061391c83858473ffffffffffffffffffffffffffffffffffffffff1663a0fc0eda6040518163ffffffff1660e01b815260040160206040518083038186803b1580156137b05760006000fd5b505afa1580156137c5573d600060003e3d6000fd5b505050506040513d601f19601f820116820180604052508101906137e991906151e7565b8573ffffffffffffffffffffffffffffffffffffffff16636d7fa6646040518163ffffffff1660e01b815260040160206040518083038186803b1580156138305760006000fd5b505afa158015613845573d600060003e3d6000fd5b505050506040513d601f19601f820116820180604052508101906138699190614d82565b600360009054906101000a900473ffffffffffffffffffffffffffffffffffffffff1673ffffffffffffffffffffffffffffffffffffffff166375172a8b6040518163ffffffff1660e01b815260040160206040518083038186803b1580156138d25760006000fd5b505afa1580156138e7573d600060003e3d6000fd5b505050506040513d601f19601f8201168201806040525081019061390b91906151e7565b60096000505461250763ffffffff16565b90506000613b368567ffffffffffffffff16610e1067ffffffffffffffff166201518081151561394857fe5b0467ffffffffffffffff16613b27600060009054906101000a900473ffffffffffffffffffffffffffffffffffffffff1673ffffffffffffffffffffffffffffffffffffffff16639ec5a8946040518163ffffffff1660e01b815260040160206040518083038186803b1580156139bf5760006000fd5b505afa1580156139d4573d600060003e3d6000fd5b505050506040513d601f19601f820116820180604052508101906139f89190614f07565b73ffffffffffffffffffffffffffffffffffffffff16630a86f1096040518163ffffffff1660e01b815260040160206040518083038186803b158015613a3e5760006000fd5b505afa158015613a53573d600060003e3d6000fd5b505050506040513d601f19601f82011682018060405250810190613a7791906151e7565b600060009054906101000a900473ffffffffffffffffffffffffffffffffffffffff1673ffffffffffffffffffffffffffffffffffffffff1663c375e6ed6040518163ffffffff1660e01b815260040160206040518083038186803b158015613ae05760006000fd5b505afa158015613af5573d600060003e3d6000fd5b505050506040513d601f19601f82011682018060405250810190613b1991906151e7565b61448a90919063ffffffff16565b6142779092919063ffffffff16565b9050604051806080016040528083600001518152602001613b6483876020015161440190919063ffffffff16565b8152602001613ba0613b8d8867ffffffffffffffff168860000151614a9390919063ffffffff16565b876040015161440190919063ffffffff16565b8152602001836020015181526020015093508350600260009054906101000a900473ffffffffffffffffffffffffffffffffffffffff1673ffffffffffffffffffffffffffffffffffffffff166378efc6b0856040518263ffffffff1660e01b8152600401613c0f9190615b7f565b600060405180830381600087803b158015613c2a5760006000fd5b505af1158015613c3f573d600060003e3d6000fd5b5050505085600a60186101000a81548167ffffffffffffffff021916908367ffffffffffffffff160217905550600082606001511115613dc457600260009054906101000a900473ffffffffffffffffffffffffffffffffffffffff1673ffffffffffffffffffffffffffffffffffffffff16632c73f09e83606001516040518263ffffffff1660e01b8152600401613cd89190615bb0565b600060405180830381600087803b158015613cf35760006000fd5b505af1158015613d08573d600060003e3d6000fd5b50505050600360009054906101000a900473ffffffffffffffffffffffffffffffffffffffff1673ffffffffffffffffffffffffffffffffffffffff1663449a52f8600260009054906101000a900473ffffffffffffffffffffffffffffffffffffffff1684606001516040518363ffffffff1660e01b8152600401613d8f9291906155fd565b600060405180830381600087803b158015613daa5760006000fd5b505af1158015613dbf573d600060003e3d6000fd5b505050505b600082604001511115613e8957600360009054906101000a900473ffffffffffffffffffffffffffffffffffffffff1673ffffffffffffffffffffffffffffffffffffffff1663449a52f8600360009054906101000a900473ffffffffffffffffffffffffffffffffffffffff1684604001516040518363ffffffff1660e01b8152600401613e549291906155fd565b600060405180830381600087803b158015613e6f5760006000fd5b505af1158015613e84573d600060003e3d6000fd5b505050505b600082608001511115613f2a57600360009054906101000a900473ffffffffffffffffffffffffffffffffffffffff1673ffffffffffffffffffffffffffffffffffffffff1663c59fb1ab83608001516040518263ffffffff1660e01b8152600401613ef59190615bb0565b600060405180830381600087803b158015613f105760006000fd5b505af1158015613f25573d600060003e3d6000fd5b505050505b8567ffffffffffffffff167fdfc2183705a66b49f12c66a6d3b2fa5cf3b7c67086e9c6e90d144befc94f436c868660000151876020015188604001518960600151604051613f7c959493929190615c52565b60405180910390a25050505050505b565b600260066000505414151515613fd8576040517f08c379a0000000000000000000000000000000000000000000000000000000008152600401613fcf90615770565b60405180910390fd5b600260066000508190909055505b565b600160066000508190909055505b565b600060149054906101000a900460ff1615151561404a576040517f08c379a000000000000000000000000000000000000000000000000000000000815260040161404190615a8a565b60405180910390fd5b5b565b614055614c00565b6000849150815060008260a0015167ffffffffffffffff1611801561407e575060008260400151115b1561414e576140a48460600151836060015184604001516142779092919063ffffffff16565b82604001909081815260200150506141496140d68360a001518567ffffffffffffffff16614b3190919063ffffffff16565b67ffffffffffffffff16610e1067ffffffffffffffff1661413a61410b8660800151896020015161437890919063ffffffff16565b61412687600001518a6040015161437890919063ffffffff16565b87604001516142779092919063ffffffff16565b6142779092919063ffffffff16565b905080505b836060015182606001909081815260200150508360200151826080019090818152602001505083604001518260000190908181526020015050828260a0019067ffffffffffffffff16908167ffffffffffffffff16815260200150505b935093915050565b60007f80000000000000000000000000000000000000000000000000000000000000008210151561424f576040517f08c379a00000000000000000000000000000000000000000000000000000000081526004018080602001828103825260128152602001807f746f6f2062696720666f7220696e74323536000000000000000000000000000081526020015060200191505060405180910390fd5b819050614257565b919050565b600061426f42611ec6909063ffffffff16565b905080505b90565b60006000600060001985870985870292508281108382030391505060008114156142ba576000841115156142ab5760006000fd5b83820492508292505050614371565b80841115156142c95760006000fd5b60008486880990508281118203915080830392506000858660000316905080860495508084049350600181826000030401905080830284179350835060006002876003021890508087026002038102905080508087026002038102905080508087026002038102905080508087026002038102905080508087026002038102905080508087026002038102905080508085029550855085955050505050506143715650505050505b9392505050565b600082828403915081111515156143fa576040517f08c379a000000000000000000000000000000000000000000000000000000000815260040180806020018281038252600d8152602001807f7375622d756e646572666c6f770000000000000000000000000000000000000081526020015060200191505060405180910390fd5b5b92915050565b60008282840191508110151515614483576040517f08c379a000000000000000000000000000000000000000000000000000000000815260040180806020018281038252600c8152602001807f6164642d6f766572666c6f77000000000000000000000000000000000000000081526020015060200191505060405180910390fd5b5b92915050565b60006144a58383670de0b6b3a764000061427763ffffffff16565b905080505b92915050565b60006144c061425c63ffffffff16565b905080506000600060009054906101000a900473ffffffffffffffffffffffffffffffffffffffff1673ffffffffffffffffffffffffffffffffffffffff1663585690816040518163ffffffff1660e01b815260040160206040518083038186803b15801561452f5760006000fd5b505afa158015614544573d600060003e3d6000fd5b505050506040513d601f19601f82011682018060405250810190614568919061525b565b905060008167ffffffffffffffff1611801561459757508167ffffffffffffffff168167ffffffffffffffff16105b156145a25780915081505b505b90565b60006146257f00000000000000000000000000000000000000000000000000000000000000007f000000000000000000000000000000000000000000000000000000000000000067ffffffffffffffff168467ffffffffffffffff1681151561460c57fe5b0467ffffffffffffffff16614b3190919063ffffffff16565b905080505b919050565b60008267ffffffffffffffff1682840191508167ffffffffffffffff16101515156146c5576040517f08c379a000000000000000000000000000000000000000000000000000000000815260040180806020018281038252600c8152602001807f6164642d6f766572666c6f77000000000000000000000000000000000000000081526020015060200191505060405180910390fd5b5b92915050565b6000600b60009054906101000a900473ffffffffffffffffffffffffffffffffffffffff169050600073ffffffffffffffffffffffffffffffffffffffff168173ffffffffffffffffffffffffffffffffffffffff16141561472e57506148e3565b6000600060009054906101000a900473ffffffffffffffffffffffffffffffffffffffff1673ffffffffffffffffffffffffffffffffffffffff1663d3419bf36040518163ffffffff1660e01b815260040160206040518083038186803b1580156147995760006000fd5b505afa1580156147ae573d600060003e3d6000fd5b505050506040513d601f19601f820116820180604052508101906147d29190614e92565b73ffffffffffffffffffffffffffffffffffffffff1663d97e640083600a60149054906101000a900463ffffffff166040518363ffffffff1660e01b815260040161481e9291906156b8565b60206040518083038186803b1580156148375760006000fd5b505afa15801561484c573d600060003e3d6000fd5b505050506040513d601f19601f8201168201806040525081019061487091906151e7565b905061488a84600760005054614a9390919063ffffffff16565b61489d8285614a9390919063ffffffff16565b101515156148e0576040517f08c379a00000000000000000000000000000000000000000000000000000000081526004016148d790615ac9565b60405180910390fd5b50505b5050565b60008273ffffffffffffffffffffffffffffffffffffffff1682600067ffffffffffffffff8111801561491a5760006000fd5b506040519080825280601f01601f19166020018201604052801561494d5781602001600182028036833780820191505090505b506040518082805190602001908083835b60208310151561498457805182525b60208201915060208101905060208303925061495e565b6001836020036101000a03801982511681845116808217855250505050505090500191505060006040518083038185875af1925050503d80600081146149e6576040519150601f19603f3d011682016040523d82523d6000602084013e6149eb565b606091505b50509050801515614a67576040517f08c379a00000000000000000000000000000000000000000000000000000000081526004018080602001828103825260038152602001807f535445000000000000000000000000000000000000000000000000000000000081526020015060200191505060405180910390fd5b505b5050565b6000614a8b614a806144b063ffffffff16565b6145a763ffffffff16565b905080505b90565b60006000821480614ab357508282838502925082811515614ab057fe5b04145b1515614b2a576040517f08c379a000000000000000000000000000000000000000000000000000000000815260040180806020018281038252600c8152602001807f6d756c2d6f766572666c6f77000000000000000000000000000000000000000081526020015060200191505060405180910390fd5b5b92915050565b60008267ffffffffffffffff1682840391508167ffffffffffffffff1611151515614bc7576040517f08c379a000000000000000000000000000000000000000000000000000000000815260040180806020018281038252600d8152602001807f7375622d756e646572666c6f770000000000000000000000000000000000000081526020015060200191505060405180910390fd5b5b92915050565b6040518060a0016040528060008152602001600081526020016000815260200160008152602001600081526020015090565b6040518061014001604052806000815260200160008152602001600081526020016000815260200160008152602001600067ffffffffffffffff168152602001600067ffffffffffffffff168152602001600060020b8152602001600015158152602001600067ffffffffffffffff168152602001509056615d3c565b600081359050614c8c81615cde565b5b919050565b600081519050614ca181615cde565b5b919050565b600081359050614cb681615cf3565b5b919050565b600081519050614ccb81615cf3565b5b919050565b600060808284031215614ce2578081fd5b6040516080810181811067ffffffffffffffff82111715614cff57fe5b806040525080915082358152602083013560208201526040830135604082015260608301356060820152505b92915050565b600081359050614d4081615d09565b5b919050565b600081519050614d5581615d09565b5b919050565b600060208284031215614d6c578081fd5b8151614d7781615cb5565b809150505b92915050565b600060208284031215614d93578081fd5b8151614d9e81615cde565b809150505b92915050565b600060208284031215614dba578081fd5b81357fffffffff00000000000000000000000000000000000000000000000000000000811681141515614deb578182fd5b809150505b92915050565b600060208284031215614e07578081fd5b8151614e1281615cb5565b809150505b92915050565b600060208284031215614e2e578081fd5b8135614e3981615cb5565b809150505b92915050565b600060208284031215614e55578081fd5b8151614e6081615cb5565b809150505b92915050565b600060208284031215614e7c578081fd5b8151614e8781615cb5565b809150505b92915050565b600060208284031215614ea3578081fd5b8151614eae81615cb5565b809150505b92915050565b600060208284031215614eca578081fd5b8151614ed581615cb5565b809150505b92915050565b600060208284031215614ef1578081fd5b8151614efc81615cb5565b809150505b92915050565b600060208284031215614f18578081fd5b8151614f2381615cb5565b809150505b92915050565b600060208284031215614f3f578081fd5b8151614f4a81615cb5565b809150505b92915050565b6000610140808385031215614f68578182fd5b614f7181615c8a565b90508251815260208301516020820152604083015160408201526060830151606082015260808301516080820152614fab60a08401614d46565b60a0820152614fbc60c08401614d46565b60c0820152614fcd60e08401614cbc565b60e0820152610100614fe0818501614c92565b8183015250610120614ff3818501614d46565b8183015250809150505b92915050565b6000600060008385036101e081121561501a578283fd5b61014080821215615029578384fd5b61503281615c8a565b9150853582526020860135602083015260408601356040830152606086013560608301526080860135608083015261506c60a08701614d31565b60a083015261507d60c08701614d31565b60c083015261508e60e08701614ca7565b60e08301526101006150a1818801614c7d565b81840152506101206150b4818801614d31565b81840152508194506150c887828801614cd1565b935050506150d96101c08501614d31565b90505b9250925092565b6000606082840312156150f4578081fd5b8190505b92915050565b60006080828403121561510f578081fd5b6040516080810181811067ffffffffffffffff8211171561512c57fe5b806040525082518152602083015160208201526040830151604082015260608301516060820152809150505b92915050565b600060006000600060006000610120878903121561517a578384fd5b6151848888614cd1565b9550608087013561519481615d09565b8095505060a0870135935060c08701356151ad81615cde565b8093505060e0870135915061010087013590505b9295509295509295565b6000602082840312156151dc578081fd5b813590505b92915050565b6000602082840312156151f8578081fd5b815190505b92915050565b600060208284031215615214578081fd5b813563ffffffff811681141515615229578182fd5b809150505b92915050565b600060208284031215615245578081fd5b813561525081615d09565b809150505b92915050565b60006020828403121561526c578081fd5b815161527781615d09565b809150505b92915050565b60006000600060608486031215615297578081fd5b83356152a281615d09565b8093505060208401359150604084013590505b9250925092565b60006000604083850312156152cf578182fd5b82356152da81615d09565b80925050602083013590505b9250929050565b6000602082840312156152fe578081fd5b815161530981615d26565b809150505b92915050565b80151582525b5050565b8060020b82525b5050565b805182526020810151602083015260408101516040830152606081015160608301526080810151608083015260a081015161536760a08401826153bd565b5060c081015161537a60c08401826153bd565b5060e081015161538d60e084018261531e565b50610100808201516153a182850182615314565b5050610120808201516153b6828501826153bd565b50505b5050565b67ffffffffffffffff811682525b5050565b60007f6d696e506f736974696f6e53697a6500000000000000000000000000000000008252600f820190505b919050565b60007f747761704475726174696f6e00000000000000000000000000000000000000008252600c820190505b919050565b60007f636f6c6c61746572616c697a6174696f6e526571756972656d656e74000000008252601c820190505b919050565b60007f696e746572657374506f7274696f6e546f4c656e64657273000000000000000082526018820190505b919050565b600060208201905073ffffffffffffffffffffffffffffffffffffffff831682525b92915050565b600060208201905073ffffffffffffffffffffffffffffffffffffffff831682525b92915050565b600060408201905073ffffffffffffffffffffffffffffffffffffffff8416825282151560208301525b9392505050565b600060808201905073ffffffffffffffffffffffffffffffffffffffff84168252823561554081615d26565b60ff811660208401525060208301356040830152604083013560608301525b9392505050565b600060408201905073ffffffffffffffffffffffffffffffffffffffff841682528260208301525b9392505050565b600060408201905073ffffffffffffffffffffffffffffffffffffffff841682528260208301525b9392505050565b600060408201905073ffffffffffffffffffffffffffffffffffffffff8416825267ffffffffffffffff831660208301525b9392505050565b600060408201905073ffffffffffffffffffffffffffffffffffffffff841682528260208301525b9392505050565b600060208201905082151582525b92915050565b600060208201905073ffffffffffffffffffffffffffffffffffffffff831682525b92915050565b600060208201905073ffffffffffffffffffffffffffffffffffffffff831682525b92915050565b600060208201905073ffffffffffffffffffffffffffffffffffffffff831682525b92915050565b600060408201905073ffffffffffffffffffffffffffffffffffffffff8416825263ffffffff831660208301525b9392505050565b60006040820190508382528260208301525b9392505050565b60006101608201905067ffffffffffffffff841682526157296020830184615329565b5b9392505050565b600060208252601160208301527f50726f746f636f6c2073687574646f776e00000000000000000000000000000060408301526060820190505b919050565b600060208252600d60208301527f4c43205265656e7472616e63790000000000000000000000000000000000000060408301526060820190505b919050565b600060208252601460208301527f416374696f6e2077696e646f772070617373656400000000000000000000000060408301526060820190505b919050565b600060208252601460208301527f416c72656164792070617274696369706174656400000000000000000000000060408301526060820190505b919050565b600060208252600f60208301527f4e6f20666c61736820626f72726f77000000000000000000000000000000000060408301526060820190505b919050565b600060208252600e60208301527f4e6f7420417574686f72697a656400000000000000000000000000000000000060408301526060820190505b919050565b600060208252600460208301527f4e6f6f700000000000000000000000000000000000000000000000000000000060408301526060820190505b919050565b600060208252600d60208301527f4c50205265656e7472616e63790000000000000000000000000000000000000060408301526060820190505b919050565b600060208252601360208301527f4d7573742061646420636f6c6c61746572616c0000000000000000000000000060408301526060820190505b919050565b600060208252601160208301527f4e6f206c6f6e6765722067656e6573697300000000000000000000000000000060408301526060820190505b919050565b600060208252602360208301527f43616e7420696e637265617365202620646563726561736520636f6c6c61746560408301527f72616c000000000000000000000000000000000000000000000000000000000060608301526080820190505b919050565b600060208252601260208301527f506f736974696f6e20746f6f20736d616c6c000000000000000000000000000060408301526060820190505b919050565b600060208252601360208301527f4e6f206465627420746f20706179206261636b0000000000000000000000000060408301526060820190505b919050565b600060208252601360208301527f436f6e74726163742069732073746f707065640000000000000000000000000060408301526060820190505b919050565b600060208252601760208301527f496e73756666696369656e7420636f6c6c61746572616c00000000000000000060408301526060820190505b919050565b600060a08201905082518252602083015160208301526040830151604083015260608301516060830152608083015160808301525b92915050565b600061014082019050615b568284615329565b5b92915050565b600061016082019050615b708285615329565b826101408301525b9392505050565b6000608082019050825182526020830151602083015260408301516040830152606083015160608301525b92915050565b60006020820190508282525b92915050565b60006040820190508382528260208301525b9392505050565b600060208201905063ffffffff831682525b92915050565b600060208201905063ffffffff831682525b92915050565b600060208201905067ffffffffffffffff831682525b92915050565b60006101608201905067ffffffffffffffff84168252615c4a6020830184615329565b5b9392505050565b600060a08201905067ffffffffffffffff871682528560208301528460408301528360608301528260808301525b9695505050505050565b6000604051905081810181811067ffffffffffffffff82111715615caa57fe5b80604052505b919050565b73ffffffffffffffffffffffffffffffffffffffff811681141515615cda5760006000fd5b5b50565b80151581141515615cef5760006000fd5b5b50565b8060020b81141515615d055760006000fd5b5b50565b67ffffffffffffffff811681141515615d225760006000fd5b5b50565b60ff811681141515615d385760006000fd5b5b50565bfea264697066735822122031e7be8074d3360b866079edd3ac5cad2f764adf982ddf67089a65150b97c09064736f6c63430007060033",
  "linkReferences": {},
  "deployedLinkReferences": {}
}