{
  "_format": "hh-sol-artifact-1",
  "contractName": "EnforcedDecentralization",
  "sourceName": "contracts/core/governance/EnforcedDecentralization.sol",
  "abi": [
    {
      "inputs": [
        {
          "components": [
            {
              "internalType": "contract IGovernor",
              "name": "Governor",
              "type": "address"
            },
            {
              "internalType": "contract IProtocolLock",
              "name": "ProtocolLock",
              "type": "address"
            },
            {
              "internalType": "address",
              "name": "Tcp",
              "type": "address"
            }
          ],
          "internalType": "struct IEnforcedDecentralization.ConstructorParams",
          "name": "params",
          "type": "tuple"
        }
      ],
      "stateMutability": "nonpayable",
      "type": "constructor"
    },
    {
      "anonymous": false,
      "inputs": [
        {
          "indexed": true,
          "internalType": "string",
          "name": "signature",
          "type": "string"
        }
      ],
      "name": "ActionBlacklisted",
      "type": "event"
    },
    {
      "anonymous": false,
      "inputs": [
        {
          "indexed": false,
          "internalType": "uint64",
          "name": "startTime",
          "type": "uint64"
        }
      ],
      "name": "PhaseOneStartTimeSet",
      "type": "event"
    },
    {
      "anonymous": false,
      "inputs": [
        {
          "indexed": true,
          "internalType": "uint8",
          "name": "phase",
          "type": "uint8"
        },
        {
          "indexed": false,
          "internalType": "uint64",
          "name": "startTime",
          "type": "uint64"
        },
        {
          "indexed": false,
          "internalType": "uint8",
          "name": "delaysRemaining",
          "type": "uint8"
        }
      ],
      "name": "PhaseStartDelayed",
      "type": "event"
    },
    {
      "anonymous": false,
      "inputs": [],
      "name": "Stopped",
      "type": "event"
    },
    {
      "anonymous": false,
      "inputs": [
        {
          "indexed": false,
          "internalType": "uint64",
          "name": "locktime",
          "type": "uint64"
        },
        {
          "indexed": false,
          "internalType": "uint8",
          "name": "delaysRemaining",
          "type": "uint8"
        }
      ],
      "name": "UpdateLockDelayed",
      "type": "event"
    },
    {
      "inputs": [
        {
          "internalType": "string",
          "name": "signature",
          "type": "string"
        }
      ],
      "name": "blacklistAction",
      "outputs": [],
      "stateMutability": "nonpayable",
      "type": "function"
    },
    {
      "inputs": [],
      "name": "currentPhase",
      "outputs": [
        {
          "internalType": "uint8",
          "name": "",
          "type": "uint8"
        }
      ],
      "stateMutability": "view",
      "type": "function"
    },
    {
      "inputs": [
        {
          "internalType": "uint8",
          "name": "phaseNumber",
          "type": "uint8"
        }
      ],
      "name": "delayPhaseStartTime",
      "outputs": [],
      "stateMutability": "nonpayable",
      "type": "function"
    },
    {
      "inputs": [],
      "name": "governor",
      "outputs": [
        {
          "internalType": "contract IGovernor",
          "name": "",
          "type": "address"
        }
      ],
      "stateMutability": "view",
      "type": "function"
    },
    {
      "inputs": [
        {
          "internalType": "uint8",
          "name": "",
          "type": "uint8"
        }
      ],
      "name": "phaseInfo",
      "outputs": [
        {
          "internalType": "uint64",
          "name": "startTime",
          "type": "uint64"
        },
        {
          "internalType": "uint8",
          "name": "phaseStartDelaysRemaining",
          "type": "uint8"
        }
      ],
      "stateMutability": "view",
      "type": "function"
    },
    {
      "inputs": [
        {
          "internalType": "address",
          "name": "target",
          "type": "address"
        },
        {
          "internalType": "string",
          "name": "signature",
          "type": "string"
        }
      ],
      "name": "requireValidAction",
      "outputs": [],
      "stateMutability": "view",
      "type": "function"
    },
    {
      "inputs": [
        {
          "internalType": "uint64",
          "name": "phaseOneStartTime",
          "type": "uint64"
        }
      ],
      "name": "setPhaseOneStartTime",
      "outputs": [],
      "stateMutability": "nonpayable",
      "type": "function"
    },
    {
      "inputs": [],
      "name": "stopped",
      "outputs": [
        {
          "internalType": "bool",
          "name": "",
          "type": "bool"
        }
      ],
      "stateMutability": "view",
      "type": "function"
    },
    {
      "inputs": [
        {
          "internalType": "bytes4",
          "name": "",
          "type": "bytes4"
        }
      ],
      "name": "validUpdate",
      "outputs": [
        {
          "internalType": "bool",
          "name": "",
          "type": "bool"
        }
      ],
      "stateMutability": "view",
      "type": "function"
    }
  ],
  "bytecode": "0x60c0604052600160026000509090553480156200001c5760006000fd5b50604051620028e3380380620028e3833981810160405281019062000042919062000d9b565b5b806000015181602001515b815b8073ffffffffffffffffffffffffffffffffffffffff1660808173ffffffffffffffffffffffffffffffffffffffff1660601b815260140150505b508073ffffffffffffffffffffffffffffffffffffffff1660a08173ffffffffffffffffffffffffffffffffffffffff1660601b815260140150505b5050620000dd6000600062000ae560201b60201c565b620000f16001600062000ae560201b60201c565b620001056002600362000ae560201b60201c565b620001196003600362000ae560201b60201c565b60016004600050600063232948ea60e01b7bffffffffffffffffffffffffffffffffffffffffffffffffffffffff19167bffffffffffffffffffffffffffffffffffffffffffffffffffffffff1916815260200190815260200160002060006101000a81548160ff0219169083151502179055506001600460005060006380b5c66560e01b7bffffffffffffffffffffffffffffffffffffffffffffffffffffffff19167bffffffffffffffffffffffffffffffffffffffffffffffffffffffff1916815260200190815260200160002060006101000a81548160ff02191690831515021790555060016004600050600063e4e9bcca60e01b7bffffffffffffffffffffffffffffffffffffffffffffffffffffffff19167bffffffffffffffffffffffffffffffffffffffffffffffffffffffff1916815260200190815260200160002060006101000a81548160ff02191690831515021790555060016004600050600063a4718c6a60e01b7bffffffffffffffffffffffffffffffffffffffffffffffffffffffff19167bffffffffffffffffffffffffffffffffffffffffffffffffffffffff1916815260200190815260200160002060006101000a81548160ff021916908315150217905550600160056000506000636e16ead260e01b7bffffffffffffffffffffffffffffffffffffffffffffffffffffffff19167bffffffffffffffffffffffffffffffffffffffffffffffffffffffff1916815260200190815260200160002060006101000a81548160ff02191690831515021790555060016005600050600063c381c1e660e01b7bffffffffffffffffffffffffffffffffffffffffffffffffffffffff19167bffffffffffffffffffffffffffffffffffffffffffffffffffffffff1916815260200190815260200160002060006101000a81548160ff02191690831515021790555060016005600050600063150147d760e01b7bffffffffffffffffffffffffffffffffffffffffffffffffffffffff19167bffffffffffffffffffffffffffffffffffffffffffffffffffffffff1916815260200190815260200160002060006101000a81548160ff02191690831515021790555060016005600050600063397d359260e01b7bffffffffffffffffffffffffffffffffffffffffffffffffffffffff19167bffffffffffffffffffffffffffffffffffffffffffffffffffffffff1916815260200190815260200160002060006101000a81548160ff021916908315150217905550600160056000506000630b218d2460e01b7bffffffffffffffffffffffffffffffffffffffffffffffffffffffff19167bffffffffffffffffffffffffffffffffffffffffffffffffffffffff1916815260200190815260200160002060006101000a81548160ff02191690831515021790555060016006600050600063e97a99b660e01b7bffffffffffffffffffffffffffffffffffffffffffffffffffffffff19167bffffffffffffffffffffffffffffffffffffffffffffffffffffffff1916815260200190815260200160002060006101000a81548160ff02191690831515021790555060016006600050600063b971dc0560e01b7bffffffffffffffffffffffffffffffffffffffffffffffffffffffff19167bffffffffffffffffffffffffffffffffffffffffffffffffffffffff1916815260200190815260200160002060006101000a81548160ff02191690831515021790555060016006600050600063ff26df7260e01b7bffffffffffffffffffffffffffffffffffffffffffffffffffffffff19167bffffffffffffffffffffffffffffffffffffffffffffffffffffffff1916815260200190815260200160002060006101000a81548160ff02191690831515021790555060016006600050600063a1c1f90d60e01b7bffffffffffffffffffffffffffffffffffffffffffffffffffffffff19167bffffffffffffffffffffffffffffffffffffffffffffffffffffffff1916815260200190815260200160002060006101000a81548160ff0219169083151502179055506001600660005060006383208f5360e01b7bffffffffffffffffffffffffffffffffffffffffffffffffffffffff19167bffffffffffffffffffffffffffffffffffffffffffffffffffffffff1916815260200190815260200160002060006101000a81548160ff0219169083151502179055506001600660005060006380304d0960e01b7bffffffffffffffffffffffffffffffffffffffffffffffffffffffff19167bffffffffffffffffffffffffffffffffffffffffffffffffffffffff1916815260200190815260200160002060006101000a81548160ff021916908315150217905550600160066000506000638f40b82f60e01b7bffffffffffffffffffffffffffffffffffffffffffffffffffffffff19167bffffffffffffffffffffffffffffffffffffffffffffffffffffffff1916815260200190815260200160002060006101000a81548160ff021916908315150217905550600160076000506000632c388d5d60e01b7bffffffffffffffffffffffffffffffffffffffffffffffffffffffff19167bffffffffffffffffffffffffffffffffffffffffffffffffffffffff1916815260200190815260200160002060006101000a81548160ff021916908315150217905550600160076000506000634ac8c5ae60e01b7bffffffffffffffffffffffffffffffffffffffffffffffffffffffff19167bffffffffffffffffffffffffffffffffffffffffffffffffffffffff1916815260200190815260200160002060006101000a81548160ff02191690831515021790555060016007600050600063e97dcb6260e01b7bffffffffffffffffffffffffffffffffffffffffffffffffffffffff19167bffffffffffffffffffffffffffffffffffffffffffffffffffffffff1916815260200190815260200160002060006101000a81548160ff02191690831515021790555060016007600050600063e9fad8ee60e01b7bffffffffffffffffffffffffffffffffffffffffffffffffffffffff19167bffffffffffffffffffffffffffffffffffffffffffffffffffffffff1916815260200190815260200160002060006101000a81548160ff02191690831515021790555060016001600050600063eb02312060e01b7bffffffffffffffffffffffffffffffffffffffffffffffffffffffff19167bffffffffffffffffffffffffffffffffffffffffffffffffffffffff1916815260200190815260200160002060006101000a81548160ff02191690831515021790555062000add816040015182600001517fffffffffffffffffffffffffffffffffffffffffffffffffffffffffffffffff62000b8260201b62000dff1760201c565b5b5062000e37565b6040518060400160405280600067ffffffffffffffff1681526020018260ff16815260200150600360005060008460ff1660ff16815260200190815260200160002060005060008201518160000160006101000a81548167ffffffffffffffff021916908367ffffffffffffffff16021790555060208201518160000160086101000a81548160ff021916908360ff1602179055509050505b5050565b600060008473ffffffffffffffffffffffffffffffffffffffff1663095ea7b360e01b8585604051602401808373ffffffffffffffffffffffffffffffffffffffff16815260200182815260200192505050604051602081830303815290604052907bffffffffffffffffffffffffffffffffffffffffffffffffffffffff19166020820180517bffffffffffffffffffffffffffffffffffffffffffffffffffffffff83818316178352505050506040518082805190602001908083835b60208310151562000c6957805182525b60208201915060208101905060208303925062000c41565b6001836020036101000a0380198251168184511680821785525050505050509050019150506000604051808303816000865af19150503d806000811462000ccd576040519150601f19603f3d011682016040523d82523d6000602084013e62000cd2565b606091505b509150915081801562000d16575060008151148062000d15575080806020019051602081101562000d035760006000fd5b81019080805190602001909291905050505b5b151562000d8e576040517f08c379a00000000000000000000000000000000000000000000000000000000081526004018080602001828103825260028152602001807f534100000000000000000000000000000000000000000000000000000000000081526020015060200191505060405180910390fd5b50505b5050505662000e36565b60006060828403121562000dad578081fd5b604051606081018181106001600160401b038211171562000dca57fe5b8060405250825162000ddc8162000e19565b80825250602083015162000df08162000e19565b80602083015250604083015162000e078162000e19565b80604083015250809150505b92915050565b6001600160a01b0381168114151562000e325760006000fd5b5b50565b5b60805160601c60a05160601c611a7862000e6b6000398061103c52806111bc5250806102cc52806111525250611a786000f3fe60806040523480156100115760006000fd5b50600436106100a85760003560e01c806375f12b2111610077578063a4718c6a1161005c578063a4718c6a14610185578063b8188c81146101a1578063eb023120146101bd576100a8565b806375f12b211461014b578063a43c36af14610169576100a8565b8063055ad42e146100ae5780630c340a24146100cc578063113cf1ab146100ea578063719e712d1461011a576100a8565b60006000fd5b6100b66101d9565b6040516100c39190611a2c565b60405180910390f35b6100d46102ca565b6040516100e191906116ce565b60405180910390f35b61010460048036038101906100ff9190611558565b6102ee565b6040516101119190611686565b60405180910390f35b610134600480360381019061012f9190611617565b610313565b604051610142929190611a06565b60405180910390f35b61015361035b565b6040516101609190611686565b60405180910390f35b610183600480360381019061017e91906114bf565b61036e565b005b61019f600480360381019061019a91906115a5565b6106e4565b005b6101bb60048036038101906101b691906115e2565b6107d1565b005b6101d760048036038101906101d29190611617565b610a8d565b005b6000600060036000506000600160ff16815260200190815260200160002060005060000160009054906101000a900467ffffffffffffffff1667ffffffffffffffff16141561022b57600090506102c7565b600061023b61100b63ffffffff16565b90506000600390505b60008160ff1611156102bb578167ffffffffffffffff16600360005060008360ff1660ff16815260200190815260200160002060005060000160009054906101000a900467ffffffffffffffff1667ffffffffffffffff1610156102ac5780925050506102c7565b5b808060019003915050610244565b5060009150506102c756505b90565b7f000000000000000000000000000000000000000000000000000000000000000081565b600160005060205280600052604060002060009150909054906101000a900460ff1681565b60036000506020528060005260406000206000915090508060000160009054906101000a900467ffffffffffffffff16908060000160089054906101000a900460ff16905082565b600060009054906101000a900460ff1681565b600061037f8261102663ffffffff16565b905060046000506000827bffffffffffffffffffffffffffffffffffffffffffffffffffffffff19167bffffffffffffffffffffffffffffffffffffffffffffffffffffffff1916815260200190815260200160002060009054906101000a900460ff16156103ee57506106e0565b60076000506000827bffffffffffffffffffffffffffffffffffffffffffffffffffffffff19167bffffffffffffffffffffffffffffffffffffffffffffffffffffffff1916815260200190815260200160002060009054906101000a900460ff16151515610492576040517f08c379a0000000000000000000000000000000000000000000000000000000008152600401610489906117b3565b60405180910390fd5b60056000506000827bffffffffffffffffffffffffffffffffffffffffffffffffffffffff19167bffffffffffffffffffffffffffffffffffffffffffffffffffffffff1916815260200190815260200160002060009054906101000a900460ff16156104ff57506106e0565b600061050f6101d963ffffffff16565b9050600360ff168160ff1610151561055c576040517f08c379a0000000000000000000000000000000000000000000000000000000008152600401610553906117f2565b60405180910390fd5b60066000506000837bffffffffffffffffffffffffffffffffffffffffffffffffffffffff19167bffffffffffffffffffffffffffffffffffffffffffffffffffffffff1916815260200190815260200160002060009054906101000a900460ff16156106105760028160ff1610151561060b576040517f08c379a00000000000000000000000000000000000000000000000000000000081526004016106029061192d565b60405180910390fd5b6106dd565b8373ffffffffffffffffffffffffffffffffffffffff1663113cf1ab836040518263ffffffff1660e01b8152600401610649919061169a565b60206040518083038186803b1580156106625760006000fd5b505afa158015610677573d600060003e3d6000fd5b505050506040513d601f19601f8201168201806040525081019061069b919061152b565b15156106dc576040517f08c379a00000000000000000000000000000000000000000000000000000000081526004016106d3906116f6565b60405180910390fd5b5b50505b5050565b6106f261103a63ffffffff16565b61070061114d63ffffffff16565b6001600760005060006107188461102663ffffffff16565b7bffffffffffffffffffffffffffffffffffffffffffffffffffffffff19167bffffffffffffffffffffffffffffffffffffffffffffffffffffffff1916815260200190815260200160002060006101000a81548160ff021916908315150217905550806040516107899190611645565b60405180910390207f46239f1b0ab54ab50ccd57de67e96c8d11bcca46004913a27d666168ad2fb73460405160405180910390a25b5b6107cd6111ad63ffffffff16565b5b50565b6107df61103a63ffffffff16565b6107ed61114d63ffffffff16565b600060036000506000600160ff16815260200190815260200160002060005060000160009054906101000a900467ffffffffffffffff1667ffffffffffffffff16141515610870576040517f08c379a000000000000000000000000000000000000000000000000000000000815260040161086790611831565b60405180910390fd5b60006108806101d963ffffffff16565b60ff161415156108c5576040517f08c379a00000000000000000000000000000000000000000000000000000000081526004016108bc9061196c565b60405180910390fd5b8067ffffffffffffffff166108e26201518061123f63ffffffff16565b67ffffffffffffffff1610151561092e576040517f08c379a000000000000000000000000000000000000000000000000000000000815260040161092590611774565b60405180910390fd5b8060036000506000600160ff16815260200190815260200160002060005060000160006101000a81548167ffffffffffffffff021916908367ffffffffffffffff16021790555061099562f142808267ffffffffffffffff1661127590919063ffffffff16565b60036000506000600260ff16815260200190815260200160002060005060000160006101000a81548167ffffffffffffffff021916908367ffffffffffffffff1602179055506109fc6301e133808267ffffffffffffffff1661127590919063ffffffff16565b60036000506000600360ff16815260200190815260200160002060005060000160006101000a81548167ffffffffffffffff021916908367ffffffffffffffff1602179055507f18e32a18f3c57a652a4a5c7d49e929120f265175598b362abd1716d0d64c2ad181604051610a7191906119ea565b60405180910390a15b5b610a896111ad63ffffffff16565b5b50565b610a9b61103a63ffffffff16565b610aa961114d63ffffffff16565b60008160ff16111515610af1576040517f08c379a0000000000000000000000000000000000000000000000000000000008152600401610ae890611735565b60405180910390fd5b8060ff166001610b056101d963ffffffff16565b0160ff16141515610b4b576040517f08c379a0000000000000000000000000000000000000000000000000000000008152600401610b42906118ee565b60405180910390fd5b600360ff168160ff1611151515610b97576040517f08c379a0000000000000000000000000000000000000000000000000000000008152600401610b8e906118af565b60405180910390fd5b6000600360005060008360ff1660ff1681526020019081526020016000206000506040518060400160405290816000820160009054906101000a900467ffffffffffffffff1667ffffffffffffffff1667ffffffffffffffff1681526020016000820160089054906101000a900460ff1660ff1660ff16815260200150509050610c2962278d0061123f63ffffffff16565b67ffffffffffffffff16816000015167ffffffffffffffff16101515610c84576040517f08c379a0000000000000000000000000000000000000000000000000000000008152600401610c7b906119ab565b60405180910390fd5b6000816020015160ff16111515610cd0576040517f08c379a0000000000000000000000000000000000000000000000000000000008152600401610cc790611870565b60405180910390fd5b610cf462278d00826000015167ffffffffffffffff1661127590919063ffffffff16565b816000019067ffffffffffffffff16908167ffffffffffffffff168152602001505080602001805180919060019003909060ff1660ff168152602001505080600360005060008460ff1660ff16815260200190815260200160002060005060008201518160000160006101000a81548167ffffffffffffffff021916908367ffffffffffffffff16021790555060208201518160000160086101000a81548160ff021916908360ff1602179055509050508160ff167f4c5477e514459ab04fc3defdfdc3db8562422e8e9b25a0e0050b1b816297571882600001518360200151604051610de2929190611a06565b60405180910390a2505b5b610dfb6111ad63ffffffff16565b5b50565b600060008473ffffffffffffffffffffffffffffffffffffffff1663095ea7b360e01b8585604051602401808373ffffffffffffffffffffffffffffffffffffffff16815260200182815260200192505050604051602081830303815290604052907bffffffffffffffffffffffffffffffffffffffffffffffffffffffff19166020820180517bffffffffffffffffffffffffffffffffffffffffffffffffffffffff83818316178352505050506040518082805190602001908083835b602083101515610ee457805182525b602082019150602081019050602083039250610ebe565b6001836020036101000a0380198251168184511680821785525050505050509050019150506000604051808303816000865af19150503d8060008114610f46576040519150601f19603f3d011682016040523d82523d6000602084013e610f4b565b606091505b5091509150818015610f8c5750600081511480610f8b5750808060200190516020811015610f795760006000fd5b81019080805190602001909291905050505b5b1515611003576040517f08c379a00000000000000000000000000000000000000000000000000000000081526004018080602001828103825260028152602001807f534100000000000000000000000000000000000000000000000000000000000081526020015060200191505060405180910390fd5b50505b505050565b600061101e42611312909063ffffffff16565b905080505b90565b60008180519060200120905080505b919050565b7f000000000000000000000000000000000000000000000000000000000000000073ffffffffffffffffffffffffffffffffffffffff1663e97dcb626040518163ffffffff1660e01b8152600401600060405180830381600087803b1580156110a35760006000fd5b505af11580156110b8573d600060003e3d6000fd5b5050505060026002600050541415151561113d576040517f08c379a000000000000000000000000000000000000000000000000000000000815260040180806020018281038252600d8152602001807f4c50205265656e7472616e63790000000000000000000000000000000000000081526020015060200191505060405180910390fd5b600260026000508190909055505b565b6111aa7f000000000000000000000000000000000000000000000000000000000000000073ffffffffffffffffffffffffffffffffffffffff163373ffffffffffffffffffffffffffffffffffffffff16146113a463ffffffff16565b5b565b600160026000508190909055507f000000000000000000000000000000000000000000000000000000000000000073ffffffffffffffffffffffffffffffffffffffff1663e9fad8ee6040518163ffffffff1660e01b8152600401600060405180830381600087803b1580156112235760006000fd5b505af1158015611238573d600060003e3d6000fd5b505050505b565b600061126b8261125361100b63ffffffff16565b67ffffffffffffffff1661127590919063ffffffff16565b905080505b919050565b60008267ffffffffffffffff1682840191508167ffffffffffffffff161015151561130b576040517f08c379a000000000000000000000000000000000000000000000000000000000815260040180806020018281038252600c8152602001807f6164642d6f766572666c6f77000000000000000000000000000000000000000081526020015060200191505060405180910390fd5b5b92915050565b60006801000000000000000082101515611397576040517f08c379a00000000000000000000000000000000000000000000000000000000081526004018080602001828103825260118152602001807f6d6f7265207468616e203634206269747300000000000000000000000000000081526020015060200191505060405180910390fd5b81905061139f565b919050565b80151561141c576040517f08c379a000000000000000000000000000000000000000000000000000000000815260040180806020018281038252600e8152602001807f4e6f7420417574686f72697a656400000000000000000000000000000000000081526020015060200191505060405180910390fd5b5b5056611a41565b600082601f8301121515611436578081fd5b813567ffffffffffffffff8082111561144b57fe5b60405160207fffffffffffffffffffffffffffffffffffffffffffffffffffffffffffffffe0601f850116820101818110838211171561148757fe5b80604052508281528560208487010111156114a0578384fd5b8260208601602083013783602084830101528093505050505b92915050565b60006000604083850312156114d2578182fd5b823573ffffffffffffffffffffffffffffffffffffffff8116811415156114f7578283fd5b80925050602083013567ffffffffffffffff811115611514578182fd5b61152085828601611424565b9150505b9250929050565b60006020828403121561153c578081fd5b81518015158114151561154d578182fd5b809150505b92915050565b600060208284031215611569578081fd5b81357fffffffff0000000000000000000000000000000000000000000000000000000081168114151561159a578182fd5b809150505b92915050565b6000602082840312156115b6578081fd5b813567ffffffffffffffff8111156115cc578182fd5b6115d884828501611424565b9150505b92915050565b6000602082840312156115f3578081fd5b813567ffffffffffffffff81168114151561160c578182fd5b809150505b92915050565b600060208284031215611628578081fd5b813560ff81168114151561163a578182fd5b809150505b92915050565b60008251815b8181101561166a5760208186010151818501525b60208101905061164b565b818111156116785782828501525b508083019150505b92915050565b600060208201905082151582525b92915050565b60006020820190507fffffffff00000000000000000000000000000000000000000000000000000000831682525b92915050565b600060208201905073ffffffffffffffffffffffffffffffffffffffff831682525b92915050565b600060208252601960208301527f55706461746520616374696f6e206e6f7420616c6c6f7765640000000000000060408301526060820190505b919050565b600060208252601260208301527f43616e742064656c61792030207068617365000000000000000000000000000060408301526060820190505b919050565b600060208252601260208301527f4e6f7420656e6f756768207761726e696e67000000000000000000000000000060408301526060820190505b919050565b600060208252601260208301527f416374696f6e20626c61636b6c6973746564000000000000000000000000000060408301526060820190505b919050565b600060208252601660208301527f5065726d616e656e7420616374696f6e73206f6e6c790000000000000000000060408301526060820190505b919050565b600060208252600b60208301527f416c72656164792073657400000000000000000000000000000000000000000060408301526060820190505b919050565b600060208252601360208301527f4e6f2064656c6179732072656d61696e696e670000000000000000000000000060408301526060820190505b919050565b600060208252600d60208301527f556e6b6e6f776e2070686173650000000000000000000000000000000000000060408301526060820190505b919050565b600060208252601960208301527f43616e206f6e6c792064656c6179206e6578742070686173650000000000000060408301526060820190505b919050565b600060208252601660208301527f557067726164652077696e646f7720657870697265640000000000000000000060408301526060820190505b919050565b600060208252600b60208301527f4e6f74207068617365203000000000000000000000000000000000000000000060408301526060820190505b919050565b600060208252601760208301527f5068617365207374617274206973206e6f74206e65617200000000000000000060408301526060820190505b919050565b600060208201905067ffffffffffffffff831682525b92915050565b600060408201905067ffffffffffffffff8416825260ff831660208301525b9392505050565b600060208201905060ff831682525b92915050565bfea264697066735822122022368b57d9349aa13e088d21b1265508f85e6756e5dd0ae109e1f5323ea77ea364736f6c63430007060033",
  "linkReferences": {},
  "deployedLinkReferences": {}
}