{
  "_format": "hh-sol-artifact-1",
  "contractName": "Rewards",
  "sourceName": "contracts/core/logic/Rewards.sol",
  "abi": [
    {
      "inputs": [
        {
          "internalType": "contract INonfungiblePositionManager",
          "name": "_nftPositionManager",
          "type": "address"
        },
        {
          "internalType": "contract IUniswapV3Factory",
          "name": "_uniswapV3Factory",
          "type": "address"
        },
        {
          "internalType": "contract IWETH9",
          "name": "_weth",
          "type": "address"
        }
      ],
      "stateMutability": "nonpayable",
      "type": "constructor"
    },
    {
      "anonymous": false,
      "inputs": [
        {
          "indexed": true,
          "internalType": "address",
          "name": "owner",
          "type": "address"
        },
        {
          "indexed": true,
          "internalType": "uint256",
          "name": "nftTokenID",
          "type": "uint256"
        }
      ],
      "name": "ClaimedInflationRewards",
      "type": "event"
    },
    {
      "anonymous": false,
      "inputs": [
        {
          "indexed": true,
          "internalType": "address",
          "name": "owner",
          "type": "address"
        },
        {
          "indexed": true,
          "internalType": "uint256",
          "name": "nftTokenID",
          "type": "uint256"
        },
        {
          "indexed": false,
          "internalType": "uint256",
          "name": "amount0",
          "type": "uint256"
        },
        {
          "indexed": false,
          "internalType": "uint256",
          "name": "amount1",
          "type": "uint256"
        }
      ],
      "name": "CollectedFees",
      "type": "event"
    },
    {
      "anonymous": false,
      "inputs": [
        {
          "indexed": true,
          "internalType": "address",
          "name": "governor",
          "type": "address"
        }
      ],
      "name": "Initialized",
      "type": "event"
    },
    {
      "anonymous": false,
      "inputs": [
        {
          "indexed": true,
          "internalType": "address",
          "name": "owner",
          "type": "address"
        },
        {
          "indexed": true,
          "internalType": "uint16",
          "name": "poolID",
          "type": "uint16"
        },
        {
          "indexed": true,
          "internalType": "uint256",
          "name": "nftID",
          "type": "uint256"
        },
        {
          "indexed": false,
          "internalType": "int24",
          "name": "tickLower",
          "type": "int24"
        },
        {
          "indexed": false,
          "internalType": "int24",
          "name": "tickUpper",
          "type": "int24"
        },
        {
          "indexed": false,
          "internalType": "uint128",
          "name": "liquidity",
          "type": "uint128"
        }
      ],
      "name": "LiquidityPositionCreated",
      "type": "event"
    },
    {
      "anonymous": false,
      "inputs": [
        {
          "indexed": true,
          "internalType": "uint256",
          "name": "nftID",
          "type": "uint256"
        },
        {
          "indexed": false,
          "internalType": "uint256",
          "name": "amount0",
          "type": "uint256"
        },
        {
          "indexed": false,
          "internalType": "uint256",
          "name": "amount1",
          "type": "uint256"
        }
      ],
      "name": "LiquidityPositionDecreased",
      "type": "event"
    },
    {
      "anonymous": false,
      "inputs": [
        {
          "indexed": true,
          "internalType": "uint256",
          "name": "nftID",
          "type": "uint256"
        },
        {
          "indexed": false,
          "internalType": "uint128",
          "name": "liquidity",
          "type": "uint128"
        }
      ],
      "name": "LiquidityPositionIncreased",
      "type": "event"
    },
    {
      "anonymous": false,
      "inputs": [
        {
          "indexed": true,
          "internalType": "uint256",
          "name": "nftID",
          "type": "uint256"
        },
        {
          "indexed": false,
          "internalType": "uint256",
          "name": "amount0",
          "type": "uint256"
        },
        {
          "indexed": false,
          "internalType": "uint256",
          "name": "amount1",
          "type": "uint256"
        }
      ],
      "name": "LiquidityPositionLiquidated",
      "type": "event"
    },
    {
      "anonymous": false,
      "inputs": [
        {
          "indexed": true,
          "internalType": "uint256",
          "name": "nftID",
          "type": "uint256"
        },
        {
          "indexed": false,
          "internalType": "uint256",
          "name": "amount0",
          "type": "uint256"
        },
        {
          "indexed": false,
          "internalType": "uint256",
          "name": "amount1",
          "type": "uint256"
        }
      ],
      "name": "LiquidityPositionRemoved",
      "type": "event"
    },
    {
      "anonymous": false,
      "inputs": [
        {
          "indexed": true,
          "internalType": "string",
          "name": "paramName",
          "type": "string"
        },
        {
          "indexed": false,
          "internalType": "uint256",
          "name": "value",
          "type": "uint256"
        }
      ],
      "name": "ParameterUpdated",
      "type": "event"
    },
    {
      "anonymous": false,
      "inputs": [
        {
          "indexed": true,
          "internalType": "string",
          "name": "paramName",
          "type": "string"
        },
        {
          "indexed": false,
          "internalType": "uint256",
          "name": "value",
          "type": "uint256"
        }
      ],
      "name": "ParameterUpdated128",
      "type": "event"
    },
    {
      "anonymous": false,
      "inputs": [
        {
          "indexed": true,
          "internalType": "string",
          "name": "paramName",
          "type": "string"
        },
        {
          "indexed": false,
          "internalType": "uint256",
          "name": "value",
          "type": "uint256"
        }
      ],
      "name": "ParameterUpdated32",
      "type": "event"
    },
    {
      "anonymous": false,
      "inputs": [
        {
          "indexed": true,
          "internalType": "string",
          "name": "paramName",
          "type": "string"
        },
        {
          "indexed": false,
          "internalType": "uint256",
          "name": "value",
          "type": "uint256"
        }
      ],
      "name": "ParameterUpdated64",
      "type": "event"
    },
    {
      "anonymous": false,
      "inputs": [
        {
          "indexed": true,
          "internalType": "string",
          "name": "paramName",
          "type": "string"
        },
        {
          "indexed": false,
          "internalType": "address",
          "name": "value",
          "type": "address"
        }
      ],
      "name": "ParameterUpdatedAddress",
      "type": "event"
    },
    {
      "anonymous": false,
      "inputs": [
        {
          "indexed": false,
          "internalType": "uint256",
          "name": "count",
          "type": "uint256"
        },
        {
          "indexed": false,
          "internalType": "uint64",
          "name": "periods",
          "type": "uint64"
        }
      ],
      "name": "RewardsAccrued",
      "type": "event"
    },
    {
      "anonymous": false,
      "inputs": [
        {
          "indexed": true,
          "internalType": "address",
          "name": "account",
          "type": "address"
        },
        {
          "indexed": true,
          "internalType": "uint64",
          "name": "period",
          "type": "uint64"
        },
        {
          "indexed": false,
          "internalType": "uint256",
          "name": "tcpRewards",
          "type": "uint256"
        }
      ],
      "name": "RewardsDistributed",
      "type": "event"
    },
    {
      "anonymous": false,
      "inputs": [
        {
          "indexed": false,
          "internalType": "uint256",
          "name": "protocolPortion",
          "type": "uint256"
        },
        {
          "indexed": false,
          "internalType": "uint256",
          "name": "collateralPortion",
          "type": "uint256"
        },
        {
          "indexed": false,
          "internalType": "uint256",
          "name": "referencePortion",
          "type": "uint256"
        }
      ],
      "name": "RewardsPortionsUpdated",
      "type": "event"
    },
    {
      "anonymous": false,
      "inputs": [],
      "name": "Stopped",
      "type": "event"
    },
    {
      "inputs": [],
      "name": "accrueRewards",
      "outputs": [],
      "stateMutability": "nonpayable",
      "type": "function"
    },
    {
      "inputs": [
        {
          "internalType": "contract IUniswapV3Pool",
          "name": "pool",
          "type": "address"
        }
      ],
      "name": "addReferencePool",
      "outputs": [],
      "stateMutability": "nonpayable",
      "type": "function"
    },
    {
      "inputs": [],
      "name": "borrowRewardsPortion",
      "outputs": [
        {
          "internalType": "uint256",
          "name": "",
          "type": "uint256"
        }
      ],
      "stateMutability": "view",
      "type": "function"
    },
    {
      "inputs": [
        {
          "internalType": "uint256",
          "name": "nftTokenID",
          "type": "uint256"
        }
      ],
      "name": "claimRewards",
      "outputs": [],
      "stateMutability": "nonpayable",
      "type": "function"
    },
    {
      "inputs": [],
      "name": "collateralPool",
      "outputs": [
        {
          "internalType": "uint16",
          "name": "",
          "type": "uint16"
        }
      ],
      "stateMutability": "view",
      "type": "function"
    },
    {
      "inputs": [],
      "name": "collateralPoolRewardsPortion",
      "outputs": [
        {
          "internalType": "uint256",
          "name": "",
          "type": "uint256"
        }
      ],
      "stateMutability": "view",
      "type": "function"
    },
    {
      "inputs": [
        {
          "components": [
            {
              "internalType": "uint256",
              "name": "tokenId",
              "type": "uint256"
            },
            {
              "internalType": "address",
              "name": "recipient",
              "type": "address"
            },
            {
              "internalType": "uint128",
              "name": "amount0Max",
              "type": "uint128"
            },
            {
              "internalType": "uint128",
              "name": "amount1Max",
              "type": "uint128"
            }
          ],
          "internalType": "struct INonfungiblePositionManager.CollectParams",
          "name": "params",
          "type": "tuple"
        }
      ],
      "name": "collectPositionFees",
      "outputs": [],
      "stateMutability": "nonpayable",
      "type": "function"
    },
    {
      "inputs": [],
      "name": "completeSetup",
      "outputs": [],
      "stateMutability": "nonpayable",
      "type": "function"
    },
    {
      "inputs": [
        {
          "components": [
            {
              "internalType": "address",
              "name": "token0",
              "type": "address"
            },
            {
              "internalType": "address",
              "name": "token1",
              "type": "address"
            },
            {
              "internalType": "uint24",
              "name": "fee",
              "type": "uint24"
            },
            {
              "internalType": "int24",
              "name": "tickLower",
              "type": "int24"
            },
            {
              "internalType": "int24",
              "name": "tickUpper",
              "type": "int24"
            },
            {
              "internalType": "uint256",
              "name": "amount0Desired",
              "type": "uint256"
            },
            {
              "internalType": "uint256",
              "name": "amount1Desired",
              "type": "uint256"
            },
            {
              "internalType": "uint256",
              "name": "amount0Min",
              "type": "uint256"
            },
            {
              "internalType": "uint256",
              "name": "amount1Min",
              "type": "uint256"
            },
            {
              "internalType": "address",
              "name": "recipient",
              "type": "address"
            },
            {
              "internalType": "uint256",
              "name": "deadline",
              "type": "uint256"
            }
          ],
          "internalType": "struct INonfungiblePositionManager.MintParams",
          "name": "params",
          "type": "tuple"
        },
        {
          "components": [
            {
              "internalType": "uint8",
              "name": "v",
              "type": "uint8"
            },
            {
              "internalType": "bytes32",
              "name": "r",
              "type": "bytes32"
            },
            {
              "internalType": "bytes32",
              "name": "s",
              "type": "bytes32"
            }
          ],
          "internalType": "struct IGovernor.GenesisAuth",
          "name": "ga",
          "type": "tuple"
        }
      ],
      "name": "createLiquidityPosition",
      "outputs": [
        {
          "internalType": "uint256",
          "name": "nftTokenID",
          "type": "uint256"
        },
        {
          "internalType": "uint128",
          "name": "liquidity",
          "type": "uint128"
        }
      ],
      "stateMutability": "payable",
      "type": "function"
    },
    {
      "inputs": [
        {
          "internalType": "uint16",
          "name": "",
          "type": "uint16"
        }
      ],
      "name": "current",
      "outputs": [
        {
          "internalType": "bool",
          "name": "",
          "type": "bool"
        }
      ],
      "stateMutability": "view",
      "type": "function"
    },
    {
      "inputs": [],
      "name": "currentPeriod",
      "outputs": [
        {
          "internalType": "uint64",
          "name": "period",
          "type": "uint64"
        }
      ],
      "stateMutability": "view",
      "type": "function"
    },
    {
      "inputs": [
        {
          "components": [
            {
              "internalType": "uint256",
              "name": "tokenId",
              "type": "uint256"
            },
            {
              "internalType": "uint128",
              "name": "liquidity",
              "type": "uint128"
            },
            {
              "internalType": "uint256",
              "name": "amount0Min",
              "type": "uint256"
            },
            {
              "internalType": "uint256",
              "name": "amount1Min",
              "type": "uint256"
            },
            {
              "internalType": "uint256",
              "name": "deadline",
              "type": "uint256"
            }
          ],
          "internalType": "struct INonfungiblePositionManager.DecreaseLiquidityParams",
          "name": "params",
          "type": "tuple"
        }
      ],
      "name": "decreaseLiquidityPosition",
      "outputs": [
        {
          "internalType": "uint256",
          "name": "amount0",
          "type": "uint256"
        },
        {
          "internalType": "uint256",
          "name": "amount1",
          "type": "uint256"
        }
      ],
      "stateMutability": "nonpayable",
      "type": "function"
    },
    {
      "inputs": [],
      "name": "deployer",
      "outputs": [
        {
          "internalType": "address",
          "name": "",
          "type": "address"
        }
      ],
      "stateMutability": "view",
      "type": "function"
    },
    {
      "inputs": [],
      "name": "firstPeriod",
      "outputs": [
        {
          "internalType": "uint64",
          "name": "",
          "type": "uint64"
        }
      ],
      "stateMutability": "view",
      "type": "function"
    },
    {
      "inputs": [],
      "name": "governor",
      "outputs": [
        {
          "internalType": "contract IGovernor",
          "name": "",
          "type": "address"
        }
      ],
      "stateMutability": "view",
      "type": "function"
    },
    {
      "inputs": [
        {
          "components": [
            {
              "internalType": "uint256",
              "name": "tokenId",
              "type": "uint256"
            },
            {
              "internalType": "uint256",
              "name": "amount0Desired",
              "type": "uint256"
            },
            {
              "internalType": "uint256",
              "name": "amount1Desired",
              "type": "uint256"
            },
            {
              "internalType": "uint256",
              "name": "amount0Min",
              "type": "uint256"
            },
            {
              "internalType": "uint256",
              "name": "amount1Min",
              "type": "uint256"
            },
            {
              "internalType": "uint256",
              "name": "deadline",
              "type": "uint256"
            }
          ],
          "internalType": "struct INonfungiblePositionManager.IncreaseLiquidityParams",
          "name": "params",
          "type": "tuple"
        }
      ],
      "name": "increaseLiquidityPosition",
      "outputs": [
        {
          "internalType": "uint128",
          "name": "liquidity",
          "type": "uint128"
        }
      ],
      "stateMutability": "payable",
      "type": "function"
    },
    {
      "inputs": [
        {
          "internalType": "contract IGovernor",
          "name": "_governor",
          "type": "address"
        }
      ],
      "name": "init",
      "outputs": [],
      "stateMutability": "nonpayable",
      "type": "function"
    },
    {
      "inputs": [],
      "name": "lastPeriodGlobalRewardsAccrued",
      "outputs": [
        {
          "internalType": "uint64",
          "name": "",
          "type": "uint64"
        }
      ],
      "stateMutability": "view",
      "type": "function"
    },
    {
      "inputs": [
        {
          "internalType": "contract IUniswapV3Pool",
          "name": "pool",
          "type": "address"
        },
        {
          "internalType": "uint256[]",
          "name": "nftTokenIDs",
          "type": "uint256[]"
        }
      ],
      "name": "liquidateOutofRangePositions",
      "outputs": [],
      "stateMutability": "nonpayable",
      "type": "function"
    },
    {
      "inputs": [],
      "name": "liquidationPenalty",
      "outputs": [
        {
          "internalType": "uint256",
          "name": "",
          "type": "uint256"
        }
      ],
      "stateMutability": "view",
      "type": "function"
    },
    {
      "inputs": [],
      "name": "maxLiquidityDecreasePerPeriod",
      "outputs": [
        {
          "internalType": "uint256",
          "name": "",
          "type": "uint256"
        }
      ],
      "stateMutability": "view",
      "type": "function"
    },
    {
      "inputs": [
        {
          "internalType": "contract IUniswapV3Pool",
          "name": "",
          "type": "address"
        }
      ],
      "name": "minLiquidityByPeriod",
      "outputs": [
        {
          "internalType": "uint64",
          "name": "period",
          "type": "uint64"
        },
        {
          "internalType": "uint192",
          "name": "minLiquidity",
          "type": "uint192"
        }
      ],
      "stateMutability": "view",
      "type": "function"
    },
    {
      "inputs": [],
      "name": "minLiquidityProvideDuration",
      "outputs": [
        {
          "internalType": "uint64",
          "name": "",
          "type": "uint64"
        }
      ],
      "stateMutability": "view",
      "type": "function"
    },
    {
      "inputs": [],
      "name": "minZhuCountPerPosition",
      "outputs": [
        {
          "internalType": "uint128",
          "name": "",
          "type": "uint128"
        }
      ],
      "stateMutability": "view",
      "type": "function"
    },
    {
      "inputs": [],
      "name": "periodLength",
      "outputs": [
        {
          "internalType": "uint64",
          "name": "",
          "type": "uint64"
        }
      ],
      "stateMutability": "view",
      "type": "function"
    },
    {
      "inputs": [
        {
          "internalType": "uint16",
          "name": "",
          "type": "uint16"
        }
      ],
      "name": "poolForPoolID",
      "outputs": [
        {
          "internalType": "contract IUniswapV3Pool",
          "name": "",
          "type": "address"
        }
      ],
      "stateMutability": "view",
      "type": "function"
    },
    {
      "inputs": [
        {
          "internalType": "contract IUniswapV3Pool",
          "name": "",
          "type": "address"
        }
      ],
      "name": "poolIDForPool",
      "outputs": [
        {
          "internalType": "uint16",
          "name": "",
          "type": "uint16"
        }
      ],
      "stateMutability": "view",
      "type": "function"
    },
    {
      "inputs": [],
      "name": "protocolPool",
      "outputs": [
        {
          "internalType": "uint16",
          "name": "",
          "type": "uint16"
        }
      ],
      "stateMutability": "view",
      "type": "function"
    },
    {
      "inputs": [],
      "name": "protocolPoolRewardsPortion",
      "outputs": [
        {
          "internalType": "uint256",
          "name": "",
          "type": "uint256"
        }
      ],
      "stateMutability": "view",
      "type": "function"
    },
    {
      "inputs": [],
      "name": "referencePoolRewardsPortion",
      "outputs": [
        {
          "internalType": "uint256",
          "name": "",
          "type": "uint256"
        }
      ],
      "stateMutability": "view",
      "type": "function"
    },
    {
      "inputs": [
        {
          "internalType": "uint256",
          "name": "",
          "type": "uint256"
        }
      ],
      "name": "referencePools",
      "outputs": [
        {
          "internalType": "uint16",
          "name": "",
          "type": "uint16"
        }
      ],
      "stateMutability": "view",
      "type": "function"
    },
    {
      "inputs": [
        {
          "components": [
            {
              "internalType": "uint256",
              "name": "tokenId",
              "type": "uint256"
            },
            {
              "internalType": "uint128",
              "name": "liquidity",
              "type": "uint128"
            },
            {
              "internalType": "uint256",
              "name": "amount0Min",
              "type": "uint256"
            },
            {
              "internalType": "uint256",
              "name": "amount1Min",
              "type": "uint256"
            },
            {
              "internalType": "uint256",
              "name": "deadline",
              "type": "uint256"
            }
          ],
          "internalType": "struct INonfungiblePositionManager.DecreaseLiquidityParams",
          "name": "params",
          "type": "tuple"
        }
      ],
      "name": "removeLiquidityPosition",
      "outputs": [
        {
          "internalType": "uint256",
          "name": "amount0",
          "type": "uint256"
        },
        {
          "internalType": "uint256",
          "name": "amount1",
          "type": "uint256"
        }
      ],
      "stateMutability": "nonpayable",
      "type": "function"
    },
    {
      "inputs": [
        {
          "components": [
            {
              "internalType": "uint256",
              "name": "tokenId",
              "type": "uint256"
            },
            {
              "internalType": "uint128",
              "name": "liquidity",
              "type": "uint128"
            },
            {
              "internalType": "uint256",
              "name": "amount0Min",
              "type": "uint256"
            },
            {
              "internalType": "uint256",
              "name": "amount1Min",
              "type": "uint256"
            },
            {
              "internalType": "uint256",
              "name": "deadline",
              "type": "uint256"
            }
          ],
          "internalType": "struct INonfungiblePositionManager.DecreaseLiquidityParams",
          "name": "params",
          "type": "tuple"
        }
      ],
      "name": "removeLiquidityPositionAfterShutdown",
      "outputs": [
        {
          "internalType": "uint256",
          "name": "amount0",
          "type": "uint256"
        },
        {
          "internalType": "uint256",
          "name": "amount1",
          "type": "uint256"
        }
      ],
      "stateMutability": "nonpayable",
      "type": "function"
    },
    {
      "inputs": [
        {
          "internalType": "contract IUniswapV3Pool",
          "name": "pool",
          "type": "address"
        }
      ],
      "name": "removeReferencePool",
      "outputs": [],
      "stateMutability": "nonpayable",
      "type": "function"
    },
    {
      "inputs": [
        {
          "internalType": "uint256",
          "name": "penalty",
          "type": "uint256"
        }
      ],
      "name": "setLiquidationPenalty",
      "outputs": [],
      "stateMutability": "nonpayable",
      "type": "function"
    },
    {
      "inputs": [
        {
          "internalType": "uint256",
          "name": "decreasePortion",
          "type": "uint256"
        }
      ],
      "name": "setMaxLiquidityDecreasePerPeriod",
      "outputs": [],
      "stateMutability": "nonpayable",
      "type": "function"
    },
    {
      "inputs": [
        {
          "internalType": "uint64",
          "name": "min",
          "type": "uint64"
        }
      ],
      "name": "setMinLiquidityProvideDuration",
      "outputs": [],
      "stateMutability": "nonpayable",
      "type": "function"
    },
    {
      "inputs": [
        {
          "internalType": "uint128",
          "name": "min",
          "type": "uint128"
        }
      ],
      "name": "setMinZhuCountPerPosition",
      "outputs": [],
      "stateMutability": "nonpayable",
      "type": "function"
    },
    {
      "inputs": [
        {
          "internalType": "uint256",
          "name": "_protocol",
          "type": "uint256"
        },
        {
          "internalType": "uint256",
          "name": "_collateral",
          "type": "uint256"
        },
        {
          "internalType": "uint256",
          "name": "_reference",
          "type": "uint256"
        }
      ],
      "name": "setRewardsPortions",
      "outputs": [],
      "stateMutability": "nonpayable",
      "type": "function"
    },
    {
      "inputs": [
        {
          "internalType": "uint32",
          "name": "duration",
          "type": "uint32"
        }
      ],
      "name": "setTwapDuration",
      "outputs": [],
      "stateMutability": "nonpayable",
      "type": "function"
    },
    {
      "inputs": [],
      "name": "stop",
      "outputs": [],
      "stateMutability": "nonpayable",
      "type": "function"
    },
    {
      "inputs": [],
      "name": "stopped",
      "outputs": [
        {
          "internalType": "bool",
          "name": "",
          "type": "bool"
        }
      ],
      "stateMutability": "view",
      "type": "function"
    },
    {
      "inputs": [],
      "name": "twapDuration",
      "outputs": [
        {
          "internalType": "uint32",
          "name": "",
          "type": "uint32"
        }
      ],
      "stateMutability": "view",
      "type": "function"
    },
    {
      "inputs": [
        {
          "internalType": "bytes4",
          "name": "",
          "type": "bytes4"
        }
      ],
      "name": "validUpdate",
      "outputs": [
        {
          "internalType": "bool",
          "name": "",
          "type": "bool"
        }
      ],
      "stateMutability": "view",
      "type": "function"
    }
  ],
  "bytecode": "0x6101206040526001600660005090905567016345785d8a00006007600050909055670214e8348c4f0000600860005090905567016345785d8a00006009600050909055670905438e60010000600a60005090905567016345785d8a0000600b60005090905566d529ae9e860000600c600050909055683635c9adc5dea00000600d60006101000a8154816fffffffffffffffffffffffffffffffff02191690836fffffffffffffffffffffffffffffffff160217905550610708600d60106101000a81548167ffffffffffffffff021916908367ffffffffffffffff160217905550610e10600d60186101000a81548163ffffffff021916908363ffffffff1602179055506001601160006101000a81548161ffff021916908361ffff160217905550348015620001305760006000fd5b50604051620089863803806200898683398181016040528101906200015691906200038a565b5b6138405b5b33600160006101000a81548173ffffffffffffffffffffffffffffffffffffffff021916908373ffffffffffffffffffffffffffffffffffffffff1602179055505b60018167ffffffffffffffff16620001bb620002cf60201b60201c565b67ffffffffffffffff16811515620001cf57fe5b040367ffffffffffffffff1660a08167ffffffffffffffff1660c01b815260080150508067ffffffffffffffff1660808167ffffffffffffffff1660c01b815260080150505b508273ffffffffffffffffffffffffffffffffffffffff1660e08173ffffffffffffffffffffffffffffffffffffffff1660601b815260140150508173ffffffffffffffffffffffffffffffffffffffff166101008173ffffffffffffffffffffffffffffffffffffffff1660601b815260140150508073ffffffffffffffffffffffffffffffffffffffff1660c08173ffffffffffffffffffffffffffffffffffffffff1660601b815260140150505b505050620003ff565b6000620002e942620002f160201b62002af917909060201c565b905080505b90565b6000680100000000000000008210151562000377576040517f08c379a00000000000000000000000000000000000000000000000000000000081526004018080602001828103825260118152602001807f6d6f7265207468616e203634206269747300000000000000000000000000000081526020015060200191505060405180910390fd5b81905062000380565b91905056620003fe565b60006000600060608486031215620003a0578283fd5b8351620003ad81620003e1565b809350506020840151620003c181620003e1565b809250506040840151620003d581620003e1565b809150505b9250925092565b6001600160a01b03811681141515620003fa5760006000fd5b5b50565b5b60805160c01c60a05160c01c60c05160601c60e05160601c6101005160601c6184f76200048f60003980612d6a5250806117cd5280612f1352806137b65280614450528061495a5280614a515280615484528061645452806165245250806150165280615079525080612a565280613afa52806152c7525080612a7a5280613b1b52806152e852506184f76000f3fe6080604052600436106102ea5760003560e01c8063322c42da1161018457806384333cc7116100d6578063c4e3a63b1161008a578063e2e8247511610064578063e2e8247514610a57578063eeb90ad114610a83578063ff0eccf614610aaf576102ea565b8063c4e3a63b146109d3578063d2ca2115146109ff578063d5f3948814610a2b576102ea565b8063a0e8ed3a116100bb578063a0e8ed3a14610953578063c381c1e61461097f578063c433c80a146109a9576102ea565b806384333cc7146108fd5780638aea8f711461093b576102ea565b806363bf66d21161013857806375f12b211161011257806375f12b2114610867578063818bc649146108935780638396cf69146108d1576102ea565b806363bf66d2146107d45780636bb0d485146108135780636fbb4c481461083d576102ea565b806349447c001161016957806349447c001461072d5780634b8295731461076c5780635d130e89146107aa576102ea565b8063322c42da146106d55780633beb9d3314610701576102ea565b80631421b91c1161023d5780631e0a221c116101f157806326d89545116101cb57806326d895451461064f5780632806a7431461067b57806328323694146106a5576102ea565b80631e0a221c146105b8578063237f822a146105e457806323f5589a14610623576102ea565b806315398ae71161022257806315398ae71461053757806319ab453c146105765780631afdbce4146105a0576102ea565b80631421b91c146104e3578063150147d71461050d576102ea565b80630806ce231161029f5780630c340a24116102795780630c340a241461044d5780630dae9f5214610479578063113cf1ab146104a5576102ea565b80630806ce23146103b95780630962ef79146103f75780630a86f10914610421576102ea565b806303a85388116102d057806303a853881461034b578063060406181461037557806307da68f5146103a1576102ea565b806273235e146102f0578063039d10e814610321576102ea565b60006000fd5b61030a600480360381019061030591906172a2565b610adb565b604051610318929190618255565b60405180910390f35b34801561032e5760006000fd5b506103496004803603810190610344919061709f565b610daa565b005b3480156103585760006000fd5b50610373600480360381019061036e91906175a4565b611347565b005b3480156103825760006000fd5b5061038b611405565b6040516103989190618376565b60405180910390f35b3480156103ae5760006000fd5b506103b761141d565b005b3480156103c65760006000fd5b506103e160048036038101906103dc91906174da565b61143d565b6040516103ee9190617ac4565b60405180910390f35b3480156104045760006000fd5b5061041f600480360381019061041a9190617501565b611475565b005b34801561042e5760006000fd5b5061043761167c565b6040516104449190618162565b60405180910390f35b34801561045a5760006000fd5b50610463611685565b6040516104709190617a9c565b60405180910390f35b3480156104865760006000fd5b5061048f6116ab565b60405161049c9190618376565b60405180910390f35b3480156104b25760006000fd5b506104cd60048036038101906104c89190616f68565b6116c5565b6040516104da9190617a88565b60405180910390f35b3480156104f05760006000fd5b5061050b60048036038101906105069190617176565b6116ea565b005b34801561051a5760006000fd5b5061053560048036038101906105309190617051565b6118e7565b005b3480156105445760006000fd5b5061055f600480360381019061055a91906171f7565b6119e8565b60405161056d9291906182ce565b60405180910390f35b3480156105835760006000fd5b5061059e60048036038101906105999190616fdc565b611b0e565b005b3480156105ad5760006000fd5b506105b6611ecc565b005b3480156105c55760006000fd5b506105ce611f09565b6040516105db9190618162565b60405180910390f35b3480156105f15760006000fd5b5061060c600480360381019061060791906171f7565b611f12565b60405161061a9291906182ce565b60405180910390f35b3480156106305760006000fd5b5061063961205d565b6040516106469190618162565b60405180910390f35b34801561065c5760006000fd5b50610665612066565b6040516106729190618342565b60405180910390f35b3480156106885760006000fd5b506106a3600480360381019061069e9190617501565b61207c565b005b6106bf60048036038101906106ba9190617287565b6120fd565b6040516106cc91906180dc565b60405180910390f35b3480156106e25760006000fd5b506106eb612279565b6040516106f891906180dc565b60405180910390f35b34801561070e5760006000fd5b5061071761229b565b6040516107249190618162565b60405180910390f35b34801561073a5760006000fd5b5061075560048036038101906107509190617051565b6122a4565b604051610763929190618392565b60405180910390f35b3480156107795760006000fd5b50610794600480360381019061078f9190617051565b612303565b6040516107a19190618124565b60405180910390f35b3480156107b75760006000fd5b506107d260048036038101906107cd9190617479565b612329565b005b3480156107e15760006000fd5b506107fc60048036038101906107f791906171f7565b6123c0565b60405161080a9291906182ce565b60405180910390f35b3480156108205760006000fd5b5061083b60048036038101906108369190617604565b6125c7565b005b34801561084a5760006000fd5b5061086560048036038101906108609190617501565b61264e565b005b3480156108745760006000fd5b5061087d6126ea565b60405161088a9190617a88565b60405180910390f35b3480156108a05760006000fd5b506108bb60048036038101906108b691906174da565b6126fd565b6040516108c89190617a88565b60405180910390f35b3480156108de5760006000fd5b506108e7612722565b6040516108f49190618124565b60405180910390f35b34801561090a5760006000fd5b5061092560048036038101906109209190617501565b612736565b6040516109329190618124565b60405180910390f35b3480156109485760006000fd5b50610951612774565b005b3480156109605760006000fd5b5061096961293a565b6040516109769190618162565b60405180910390f35b34801561098c5760006000fd5b506109a760048036038101906109a29190617051565b612943565b005b3480156109b65760006000fd5b506109d160048036038101906109cc91906175d3565b6129bd565b005b3480156109e05760006000fd5b506109e9612a54565b6040516109f69190618376565b60405180910390f35b348015610a0c5760006000fd5b50610a15612a78565b604051610a229190618376565b60405180910390f35b348015610a385760006000fd5b50610a41612a9c565b604051610a4e9190617928565b60405180910390f35b348015610a645760006000fd5b50610a6d612ac2565b604051610a7a9190618162565b60405180910390f35b348015610a905760006000fd5b50610a99612acb565b604051610aa69190618376565b60405180910390f35b348015610abc5760006000fd5b50610ac5612ae5565b604051610ad29190618124565b60405180910390f35b60006000610aed612b8b63ffffffff16565b610afb612c6a63ffffffff16565b6000610b1a856000015186602001518760400151612d5f63ffffffff16565b9050601460005060008261ffff1661ffff16815260200190815260200160002060009054906101000a900460ff161515610b89576040517f08c379a0000000000000000000000000000000000000000000000000000000008152600401610b8090617efa565b60405180910390fd5b610b91616bf3565b600060009054906101000a900473ffffffffffffffffffffffffffffffffffffffff1673ffffffffffffffffffffffffffffffffffffffff1663b8e5748433876040518363ffffffff1660e01b8152600401610bee929190617950565b60206040518083038186803b158015610c075760006000fd5b505afa158015610c1c573d600060003e3d6000fd5b505050506040513d601f19601f82011682018060405250810190610c409190616f3b565b816000019015159081151581526020015050806000015115610cf157600260009054906101000a900473ffffffffffffffffffffffffffffffffffffffff1673ffffffffffffffffffffffffffffffffffffffff1663e276e8f3338460016040518463ffffffff1660e01b8152600401610cbc939291906179a2565b600060405180830381600087803b158015610cd75760006000fd5b505af1158015610cec573d600060003e3d6000fd5b505050505b610d0086612e6e63ffffffff16565b8094508195505050610d248483886060015189608001518786612ff263ffffffff16565b838261ffff163373ffffffffffffffffffffffffffffffffffffffff167f87c666eb8f5e2d1a47a2af419127c84ea830d86b5f75e12ca3dafa33323d912289606001518a6080015188604051610d7c93929190617bce565b60405180910390a48383935093505050610d935650505b5b610da261313763ffffffff16565b5b9250929050565b610db8612b8b63ffffffff16565b610dc6612c6a63ffffffff16565b6000601360005060008573ffffffffffffffffffffffffffffffffffffffff1673ffffffffffffffffffffffffffffffffffffffff16815260200190815260200160002060009054906101000a900461ffff16905060008161ffff16111515610e64576040517f08c379a0000000000000000000000000000000000000000000000000000000008152600401610e5b90617c84565b60405180910390fd5b6000339050610e71616c27565b600085859050905060008773ffffffffffffffffffffffffffffffffffffffff16630dfe16816040518163ffffffff1660e01b815260040160206040518083038186803b158015610ec25760006000fd5b505afa158015610ed7573d600060003e3d6000fd5b505050506040513d601f19601f82011682018060405250810190610efb9190616e5b565b905060008873ffffffffffffffffffffffffffffffffffffffff1663d21220a76040518163ffffffff1660e01b815260040160206040518083038186803b158015610f465760006000fd5b505afa158015610f5b573d600060003e3d6000fd5b505050506040513d601f19601f82011682018060405250810190610f7f9190616e5b565b9050600060006000610f956131cb63ffffffff16565b9050600060009054906101000a900473ffffffffffffffffffffffffffffffffffffffff1673ffffffffffffffffffffffffffffffffffffffff1663d3419bf36040518163ffffffff1660e01b815260040160206040518083038186803b1580156110005760006000fd5b505afa158015611015573d600060003e3d6000fd5b505050506040513d601f19601f820116820180604052508101906110399190617003565b73ffffffffffffffffffffffffffffffffffffffff1663fcebd71c8d600d60189054906101000a900463ffffffff166040518363ffffffff1660e01b8152600401611085929190617b99565b60206040518083038186803b15801561109e5760006000fd5b505afa1580156110b3573d600060003e3d6000fd5b505050506040513d601f19601f820116820180604052508101906110d7919061714f565b816060019060020b908160020b8152602001505060018160400190151590811515815260200150506000600090505b8681101561132757600260009054906101000a900473ffffffffffffffffffffffffffffffffffffffff1673ffffffffffffffffffffffffffffffffffffffff1663f34348f18d8d84818110151561115a57fe5b905060200201356040518263ffffffff1660e01b815260040161117d9190618162565b6101206040518083038186803b1580156111975760006000fd5b505afa1580156111ac573d600060003e3d6000fd5b505050506040513d601f19601f820116820180604052508101906111d09190617384565b975087508961ffff16886020015161ffff161415156111ee5761131a565b61120288836060015161329163ffffffff16565b1561120c5761131a565b61129961121e896132c363ffffffff16565b6040518060a001604052808f8f86818110151561123757fe5b9050602002013581526020018b61010001516fffffffffffffffffffffffffffffffff168152602001600081526020016000815260200161127c61366c63ffffffff16565b67ffffffffffffffff16815260200150308561368763ffffffff16565b80945081955050506112b6868a8a6000015161385963ffffffff16565b6112cb858a8a6000015161385963ffffffff16565b8b8b8281811015156112d957fe5b905060200201357fd606f13f519715bb4411edb6272f4f71cbf32d833557d19f0dfcf5a4b7f3429685856040516113119291906182ce565b60405180910390a25b8080600101915050611106565b505050505050505050505b5b61134161313763ffffffff16565b5b505050565b61135561394f63ffffffff16565b61139461137d8261136f85876139e490919063ffffffff16565b6139e490919063ffffffff16565b670de0b6b3a7640000613a6d90919063ffffffff16565b600a6000508190909055508260076000508190909055508160086000508190909055508060096000508190909055507f8c217e55a331915ef034e15ec5419d5d1608219367483101082157e04ed9ab148383836040516113f6939291906182e7565b60405180910390a15b5b505050565b6000611415613af663ffffffff16565b905080505b90565b61142b61394f63ffffffff16565b611439613b6f63ffffffff16565b5b5b565b601260005060205280600052604060002060009150909054906101000a900473ffffffffffffffffffffffffffffffffffffffff1681565b611483612b8b63ffffffff16565b611491613bb963ffffffff16565b6000600260009054906101000a900473ffffffffffffffffffffffffffffffffffffffff1673ffffffffffffffffffffffffffffffffffffffff1663f34348f1836040518263ffffffff1660e01b81526004016114ee9190618162565b6101206040518083038186803b1580156115085760006000fd5b505afa15801561151d573d600060003e3d6000fd5b505050506040513d601f19601f820116820180604052508101906115419190617384565b9050611584816000015173ffffffffffffffffffffffffffffffffffffffff163373ffffffffffffffffffffffffffffffffffffffff1614613c0e63ffffffff16565b600260009054906101000a900473ffffffffffffffffffffffffffffffffffffffff1673ffffffffffffffffffffffffffffffffffffffff1663022f6bb0836115d2846132c363ffffffff16565b6040518363ffffffff1660e01b81526004016115ef9291906181a3565b600060405180830381600087803b15801561160a5760006000fd5b505af115801561161f573d600060003e3d6000fd5b50505050813373ffffffffffffffffffffffffffffffffffffffff167f8317cf6343eca83fa703bc7956cd094c3d1e5fbf6478631eea9b7a102737024e60405160405180910390a3505b5b61167861313763ffffffff16565b5b50565b600a6000505481565b600060009054906101000a900473ffffffffffffffffffffffffffffffffffffffff1681565b600f60009054906101000a900467ffffffffffffffff1681565b600560005060205280600052604060002060009150909054906101000a900460ff1681565b6116f8612b8b63ffffffff16565b611706613bb963ffffffff16565b6117c7600260009054906101000a900473ffffffffffffffffffffffffffffffffffffffff1673ffffffffffffffffffffffffffffffffffffffff16631a206e918360000151336040518363ffffffff1660e01b815260040161176a929190618174565b60206040518083038186803b1580156117835760006000fd5b505afa158015611798573d600060003e3d6000fd5b505050506040513d601f19601f820116820180604052508101906117bc9190616f3b565b613c0e63ffffffff16565b600060007f000000000000000000000000000000000000000000000000000000000000000073ffffffffffffffffffffffffffffffffffffffff1663fc6f7865846040518263ffffffff1660e01b81526004016118249190617f39565b604060405180830381600087803b15801561183f5760006000fd5b505af1158015611854573d600060003e3d6000fd5b505050506040513d601f19601f82011682018060405250810190611878919061757e565b9150915082600001513373ffffffffffffffffffffffffffffffffffffffff167fc4400c332bf10f731e8a707ec7bd95cea012bfeca431edc03dc605c73c520a3c84846040516118c99291906182ce565b60405180910390a350505b5b6118e361313763ffffffff16565b5b50565b6118f561394f63ffffffff16565b611903613c5463ffffffff16565b611911613f2063ffffffff16565b600060146000506000601360005060008573ffffffffffffffffffffffffffffffffffffffff1673ffffffffffffffffffffffffffffffffffffffff16815260200190815260200160002060009054906101000a900461ffff1661ffff1661ffff16815260200190815260200160002060006101000a81548160ff0219169083151502179055506040516119a4906178c6565b60405180910390207f78caada2f560033c9479d8c5e33f045f2e611faebe6b6d8a73874c80ec2dd3a2826040516119db9190617928565b60405180910390a25b5b50565b600060006119fa612b8b63ffffffff16565b611a08612c6a63ffffffff16565b6000611a1d84600001356140b663ffffffff16565b9050611a60816000015173ffffffffffffffffffffffffffffffffffffffff163373ffffffffffffffffffffffffffffffffffffffff1614613c0e63ffffffff16565b611a738160a0015161418663ffffffff16565b611aa68185803603810190611a889190617212565b8360000151611a9b6131cb63ffffffff16565b61368763ffffffff16565b809350819450505083600001357f1bd2c24817047e88025a4688c0fba3903e750cc05d80857de4201f42ec59bcf28484604051611ae49291906182ce565b60405180910390a282829250925050611af956505b5b611b0861313763ffffffff16565b5b915091565b600160009054906101000a900473ffffffffffffffffffffffffffffffffffffffff1673ffffffffffffffffffffffffffffffffffffffff163373ffffffffffffffffffffffffffffffffffffffff16141515611b6b5760006000fd5b600160006101000a81549073ffffffffffffffffffffffffffffffffffffffff021916905580600060006101000a81548173ffffffffffffffffffffffffffffffffffffffff021916908373ffffffffffffffffffffffffffffffffffffffff160217905550600060009054906101000a900473ffffffffffffffffffffffffffffffffffffffff1673ffffffffffffffffffffffffffffffffffffffff16639624e83e6040518163ffffffff1660e01b815260040160206040518083038186803b158015611c3a5760006000fd5b505afa158015611c4f573d600060003e3d6000fd5b505050506040513d601f19601f82011682018060405250810190611c739190616fb5565b600260006101000a81548173ffffffffffffffffffffffffffffffffffffffff021916908373ffffffffffffffffffffffffffffffffffffffff160217905550600060009054906101000a900473ffffffffffffffffffffffffffffffffffffffff1673ffffffffffffffffffffffffffffffffffffffff16638a15fcf36040518163ffffffff1660e01b815260040160206040518083038186803b158015611d1c5760006000fd5b505afa158015611d31573d600060003e3d6000fd5b505050506040513d601f19601f82011682018060405250810190611d559190617128565b600360006101000a81548173ffffffffffffffffffffffffffffffffffffffff021916908373ffffffffffffffffffffffffffffffffffffffff160217905550600060009054906101000a900473ffffffffffffffffffffffffffffffffffffffff1673ffffffffffffffffffffffffffffffffffffffff1663d478b0876040518163ffffffff1660e01b815260040160206040518083038186803b158015611dfe5760006000fd5b505afa158015611e13573d600060003e3d6000fd5b505050506040513d601f19601f82011682018060405250810190611e37919061702a565b600460006101000a81548173ffffffffffffffffffffffffffffffffffffffff021916908373ffffffffffffffffffffffffffffffffffffffff160217905550611e856141ce63ffffffff16565b8073ffffffffffffffffffffffffffffffffffffffff167f908408e307fc569b417f6cbec5d5a06f44a0a505ac0479b47d421a4b2fd6a1e660405160405180910390a25b50565b611eda612b8b63ffffffff16565b611ee8613bb963ffffffff16565b611ef6613c5463ffffffff16565b5b5b611f0661313763ffffffff16565b5b565b60086000505481565b60006000611f24612b8b63ffffffff16565b611f32612c6a63ffffffff16565b60026000611f4985600001356140b663ffffffff16565b9050611f8c816000015173ffffffffffffffffffffffffffffffffffffffff163373ffffffffffffffffffffffffffffffffffffffff1614613c0e63ffffffff16565b611f9f8160a0015161418663ffffffff16565b611fbe85803603810190611fb39190617212565b61444a63ffffffff16565b8094508195505050611ffb818660000135876020016020810190611fe29190617479565b611ff061450963ffffffff16565b61451563ffffffff16565b84600001357ffafb1711250bf0d3906bfd9c4386a9a5a5fdf9ac1facdc9dfd2addad7d3f72e785856040516120319291906182ce565b60405180910390a28283935093505061204656505b5b505b61205761313763ffffffff16565b5b915091565b600c6000505481565b600d60189054906101000a900463ffffffff1681565b61208a61394f63ffffffff16565b6706f05b59d3b20000811015156120a15760006000fd5b80600c6000508190909055506040516120b9906177d1565b60405180910390207f3a64504f0bc0c335e2aecb78638a257e0351a3fe0370861fd54ee4190b920933826040516120f09190618162565b60405180910390a25b5b50565b600061210d612b8b63ffffffff16565b61211b612c6a63ffffffff16565b6002600061213284600001356140b663ffffffff16565b9050612175816000015173ffffffffffffffffffffffffffffffffffffffff163373ffffffffffffffffffffffffffffffffffffffff1614613c0e63ffffffff16565b60146000506000826020015161ffff1661ffff16815260200190815260200160002060009054906101000a900460ff1615156121e6576040517f08c379a00000000000000000000000000000000000000000000000000000000081526004016121dd90617e7c565b60405180910390fd5b6121f58461495263ffffffff16565b9250825061221c8185600001358561221161450963ffffffff16565b614b2e63ffffffff16565b83600001357fcc5b49b47bfd2f61894e4c8977343543aa054a11ae847be904355459ce55dcd98460405161225091906180dc565b60405180910390a28292505061226256505b5b505b61227361313763ffffffff16565b5b919050565b600d60009054906101000a90046fffffffffffffffffffffffffffffffff1681565b60076000505481565b600e6000506020528060005260406000206000915090508060000160009054906101000a900467ffffffffffffffff16908060000160089054906101000a900477ffffffffffffffffffffffffffffffffffffffffffffffff16905082565b601360005060205280600052604060002060009150909054906101000a900461ffff1681565b61233761394f63ffffffff16565b80600d60006101000a8154816fffffffffffffffffffffffffffffffff02191690836fffffffffffffffffffffffffffffffff16021790555060405161237c90617802565b60405180910390207f5dcbeda12d93d481d59e4737a9a13ecea80702296bebdded1a20a76d645829c2826040516123b39190618100565b60405180910390a25b5b50565b600060006123d2612b8b63ffffffff16565b6123e0613bb963ffffffff16565b600060009054906101000a900473ffffffffffffffffffffffffffffffffffffffff1673ffffffffffffffffffffffffffffffffffffffff1663bf86d6906040518163ffffffff1660e01b815260040160206040518083038186803b1580156124495760006000fd5b505afa15801561245e573d600060003e3d6000fd5b505050506040513d601f19601f820116820180604052508101906124829190616f3b565b15156124c3576040517f08c379a00000000000000000000000000000000000000000000000000000000081526004016124ba90617ebb565b60405180910390fd5b60006124d884600001356140b663ffffffff16565b905061251b816000015173ffffffffffffffffffffffffffffffffffffffff163373ffffffffffffffffffffffffffffffffffffffff1614613c0e63ffffffff16565b612523616bf3565b600181602001901515908115158152602001505061255d828680360381019061254c9190617212565b84600001518461368763ffffffff16565b809450819550505084600001357f1bd2c24817047e88025a4688c0fba3903e750cc05d80857de4201f42ec59bcf2858560405161259b9291906182ce565b60405180910390a283839350935050506125b25650505b5b6125c161313763ffffffff16565b5b915091565b6125d561394f63ffffffff16565b80600d60106101000a81548167ffffffffffffffff021916908367ffffffffffffffff16021790555060405161260a90617895565b60405180910390207f8c68b65494af3e62909307c1f245424bec70c9d997e783ed41fdee7f54d7b4c082604051612641919061835a565b60405180910390a25b5b50565b61265c61394f63ffffffff16565b80600b6000508190909055506000600b6000505411151561267d5760006000fd5b670de0b6b3a7640000600b600050541115151561269a5760006000fd5b6040516126a690617864565b60405180910390207f3a64504f0bc0c335e2aecb78638a257e0351a3fe0370861fd54ee4190b920933826040516126dd9190618162565b60405180910390a25b5b50565b600060149054906101000a900460ff1681565b601460005060205280600052604060002060009150909054906101000a900460ff1681565b600f60089054906101000a900461ffff1681565b6010600050818154811061274957600080fd5b90600052602060002090601091828204019190066002025b9150909054906101000a900461ffff1681565b61278261394f63ffffffff16565b612832600060009054906101000a900473ffffffffffffffffffffffffffffffffffffffff1673ffffffffffffffffffffffffffffffffffffffff16638396cf696040518163ffffffff1660e01b815260040160206040518083038186803b1580156127ee5760006000fd5b505afa158015612803573d600060003e3d6000fd5b505050506040513d601f19601f820116820180604052508101906128279190617078565b614f4863ffffffff16565b600f60086101000a81548161ffff021916908361ffff1602179055506128fe600060009054906101000a900473ffffffffffffffffffffffffffffffffffffffff1673ffffffffffffffffffffffffffffffffffffffff1663ff0eccf66040518163ffffffff1660e01b815260040160206040518083038186803b1580156128ba5760006000fd5b505afa1580156128cf573d600060003e3d6000fd5b505050506040513d601f19601f820116820180604052508101906128f39190617078565b614f4863ffffffff16565b600f600a6101000a81548161ffff021916908361ffff160217905550612928613f2063ffffffff16565b612936613c5463ffffffff16565b5b5b565b60096000505481565b61295161394f63ffffffff16565b61295f613f2063ffffffff16565b61296d613c5463ffffffff16565b604051612979906178f7565b60405180910390207f78caada2f560033c9479d8c5e33f045f2e611faebe6b6d8a73874c80ec2dd3a2826040516129b09190617928565b60405180910390a25b5b50565b6129cb61394f63ffffffff16565b61012c8163ffffffff16101515156129e35760006000fd5b80600d60186101000a81548163ffffffff021916908363ffffffff160217905550604051612a1090617833565b60405180910390207f182c40dc868824a9ba74a72504cd7ec63c58ed862a8ffe9f935d6ff47bd3731482604051612a47919061832a565b60405180910390a25b5b50565b7f000000000000000000000000000000000000000000000000000000000000000081565b7f000000000000000000000000000000000000000000000000000000000000000081565b600160009054906101000a900473ffffffffffffffffffffffffffffffffffffffff1681565b600b6000505481565b600d60109054906101000a900467ffffffffffffffff1681565b600f600a9054906101000a900461ffff1681565b60006801000000000000000082101515612b7e576040517f08c379a00000000000000000000000000000000000000000000000000000000081526004018080602001828103825260118152602001807f6d6f7265207468616e203634206269747300000000000000000000000000000081526020015060200191505060405180910390fd5b819050612b86565b919050565b600460009054906101000a900473ffffffffffffffffffffffffffffffffffffffff1673ffffffffffffffffffffffffffffffffffffffff1663e97dcb626040518163ffffffff1660e01b8152600401600060405180830381600087803b158015612bf65760006000fd5b505af1158015612c0b573d600060003e3d6000fd5b50505050600260066000505414151515612c5a576040517f08c379a0000000000000000000000000000000000000000000000000000000008152600401612c5190617d80565b60405180910390fd5b600260066000508190909055505b565b612c78613bb963ffffffff16565b600060009054906101000a900473ffffffffffffffffffffffffffffffffffffffff1673ffffffffffffffffffffffffffffffffffffffff1663bf86d6906040518163ffffffff1660e01b815260040160206040518083038186803b158015612ce15760006000fd5b505afa158015612cf6573d600060003e3d6000fd5b505050506040513d601f19601f82011682018060405250810190612d1a9190616f3b565b151515612d5c576040517f08c379a0000000000000000000000000000000000000000000000000000000008152600401612d5390617c06565b60405180910390fd5b5b565b6000601360005060007f000000000000000000000000000000000000000000000000000000000000000073ffffffffffffffffffffffffffffffffffffffff16631698ee828787876040518463ffffffff1660e01b8152600401612dc5939291906179de565b60206040518083038186803b158015612dde5760006000fd5b505afa158015612df3573d600060003e3d6000fd5b505050506040513d601f19601f82011682018060405250810190612e179190616e5b565b73ffffffffffffffffffffffffffffffffffffffff1673ffffffffffffffffffffffffffffffffffffffff16815260200190815260200160002060009054906101000a900461ffff169050612e67565b9392505050565b600060006000836000015190506000846020015190506000339050612e9e83828860a0015161500463ffffffff16565b612eb382828860c0015161500463ffffffff16565b600260009054906101000a900473ffffffffffffffffffffffffffffffffffffffff1686610120019073ffffffffffffffffffffffffffffffffffffffff16908173ffffffffffffffffffffffffffffffffffffffff16815260200150507f000000000000000000000000000000000000000000000000000000000000000073ffffffffffffffffffffffffffffffffffffffff166388316456876040518263ffffffff1660e01b8152600401612f6a919061802a565b608060405180830381600087803b158015612f855760006000fd5b505af1158015612f9a573d600060003e3d6000fd5b505050506040513d601f19601f82011682018060405250810190612fbe9190617539565b9050508095508196505050612fd9838261511963ffffffff16565b612fe9828261511963ffffffff16565b5050505b915091565b600260009054906101000a900473ffffffffffffffffffffffffffffffffffffffff1673ffffffffffffffffffffffffffffffffffffffff16639586fe8d87878787336040518663ffffffff1660e01b8152600401613055959493929190618280565b600060405180830381600087803b1580156130705760006000fd5b505af1158015613085573d600060003e3d6000fd5b50505050613091616c27565b33816000019073ffffffffffffffffffffffffffffffffffffffff16908173ffffffffffffffffffffffffffffffffffffffff168152602001505085816020019061ffff16908161ffff1681526020015050848160c0019060020b908160020b81526020015050838160e0019060020b908160020b8152602001505061312d61311f826132c363ffffffff16565b888585614b2e63ffffffff16565b505b505050505050565b60016006600050819090905550600460009054906101000a900473ffffffffffffffffffffffffffffffffffffffff1673ffffffffffffffffffffffffffffffffffffffff1663e9fad8ee6040518163ffffffff1660e01b8152600401600060405180830381600087803b1580156131af5760006000fd5b505af11580156131c4573d600060003e3d6000fd5b505050505b565b6131d3616bf3565b6002600060009054906101000a900473ffffffffffffffffffffffffffffffffffffffff1673ffffffffffffffffffffffffffffffffffffffff1663055ad42e6040518163ffffffff1660e01b815260040160206040518083038186803b15801561323e5760006000fd5b505afa158015613253573d600060003e3d6000fd5b505050506040513d601f19601f820116820180604052508101906132779190617652565b60ff16108160000190151590811515815260200150505b90565b60008160020b8360c0015160020b131580156132b657508260e0015160020b8260020b125b90506132bd565b92915050565b6132cb616c27565b60006132db6151c963ffffffff16565b90506000600060009054906101000a900473ffffffffffffffffffffffffffffffffffffffff1673ffffffffffffffffffffffffffffffffffffffff166317424a4460126000506000876020015161ffff1661ffff16815260200190815260200160002060009054906101000a900473ffffffffffffffffffffffffffffffffffffffff166040518263ffffffff1660e01b815260040161337c9190617ac4565b602060405180830381600087803b1580156133975760006000fd5b505af11580156133ac573d600060003e3d6000fd5b505050506040513d601f19601f820116820180604052508101906133d0919061762b565b905060008167ffffffffffffffff161415801561340057508167ffffffffffffffff168167ffffffffffffffff16105b1561340b5780915081505b600061341c836152c063ffffffff16565b9050600085608001519050600060008267ffffffffffffffff161461344f5761344a826152c063ffffffff16565b613452565b60005b90508067ffffffffffffffff168367ffffffffffffffff1611151561347e578695505050505050613667565b61348c613c5463ffffffff16565b600061354f88600260009054906101000a900473ffffffffffffffffffffffffffffffffffffffff1673ffffffffffffffffffffffffffffffffffffffff166351ad51f78b602001516040518263ffffffff1660e01b81526004016134f19190618124565b60406040518083038186803b15801561350a5760006000fd5b505afa15801561351f573d600060003e3d6000fd5b505050506040513d601f19601f82011682018060405250810190613543919061742d565b8861534863ffffffff16565b8092508198505050600081111561365357600060009054906101000a900473ffffffffffffffffffffffffffffffffffffffff1673ffffffffffffffffffffffffffffffffffffffff1663b216cd948860000151836040518363ffffffff1660e01b81526004016135c1929190617a59565b600060405180830381600087803b1580156135dc5760006000fd5b505af11580156135f1573d600060003e3d6000fd5b505050508367ffffffffffffffff16876000015173ffffffffffffffffffffffffffffffffffffffff167f1eb16395a04fa619de6652884eb223f33b9598c6b730904df55d7e9e35211f458360405161364a9190618162565b60405180910390a35b869650505050505050613667565050505050505b919050565b600061367f42612af9909063ffffffff16565b905080505b90565b6000600085610100015185602001906fffffffffffffffffffffffffffffffff1690816fffffffffffffffffffffffffffffffff16815260200150506136db8560000151876000015161548263ffffffff16565b6136ea8561444a63ffffffff16565b809250819350505061370685600001518561548263ffffffff16565b6137218686600001518861010001518661451563ffffffff16565b600260009054906101000a900473ffffffffffffffffffffffffffffffffffffffff1673ffffffffffffffffffffffffffffffffffffffff166326879a4e86600001516040518263ffffffff1660e01b81526004016137809190618162565b600060405180830381600087803b15801561379b5760006000fd5b505af11580156137b0573d600060003e3d6000fd5b505050507f000000000000000000000000000000000000000000000000000000000000000073ffffffffffffffffffffffffffffffffffffffff166342966c6886600001516040518263ffffffff1660e01b81526004016138119190618162565b600060405180830381600087803b15801561382c5760006000fd5b505af1158015613841573d600060003e3d6000fd5b50505050818191509150613850565b94509492505050565b60008373ffffffffffffffffffffffffffffffffffffffff166370a08231306040518263ffffffff1660e01b81526004016138949190617928565b60206040518083038186803b1580156138ad5760006000fd5b505afa1580156138c2573d600060003e3d6000fd5b505050506040513d601f19601f820116820180604052508101906138e6919061751d565b905060008114156138f7575061394a565b6000613911600c60005054836155b390919063ffffffff16565b9050613936858461392b8486613a6d90919063ffffffff16565b6155d963ffffffff16565b6139478585836155d963ffffffff16565b50505b505050565b600060009054906101000a900473ffffffffffffffffffffffffffffffffffffffff1673ffffffffffffffffffffffffffffffffffffffff163373ffffffffffffffffffffffffffffffffffffffff161415156139e1576040517f08c379a00000000000000000000000000000000000000000000000000000000081526004016139d890617d41565b60405180910390fd5b5b565b60008282840191508110151515613a66576040517f08c379a000000000000000000000000000000000000000000000000000000000815260040180806020018281038252600c8152602001807f6164642d6f766572666c6f77000000000000000000000000000000000000000081526020015060200191505060405180910390fd5b5b92915050565b60008282840391508111151515613aef576040517f08c379a000000000000000000000000000000000000000000000000000000000815260040180806020018281038252600d8152602001807f7375622d756e646572666c6f770000000000000000000000000000000000000081526020015060200191505060405180910390fd5b5b92915050565b60007f00000000000000000000000000000000000000000000000000000000000000007f000000000000000000000000000000000000000000000000000000000000000067ffffffffffffffff16613b5261366c63ffffffff16565b67ffffffffffffffff16811515613b6557fe5b0403905080505b90565b6001600060146101000a81548160ff0219169083151502179055507f7acc84e34091ae817647a4c49116f5cc07f319078ba80f8f5fde37ea7e25cbd660405160405180910390a15b565b600060149054906101000a900460ff16151515613c0b576040517f08c379a0000000000000000000000000000000000000000000000000000000008152600401613c0290617dfe565b60405180910390fd5b5b565b801515613c50576040517f08c379a0000000000000000000000000000000000000000000000000000000008152600401613c4790617d41565b60405180910390fd5b5b50565b6000613c646157e563ffffffff16565b9050600f60009054906101000a900467ffffffffffffffff1667ffffffffffffffff168167ffffffffffffffff16111515613c9f5750613f1e565b6000600f60009054906101000a900467ffffffffffffffff1682039050600061384067ffffffffffffffff1662015180811515613cd857fe5b0467ffffffffffffffff16613da18367ffffffffffffffff16600060009054906101000a900473ffffffffffffffffffffffffffffffffffffffff1673ffffffffffffffffffffffffffffffffffffffff1663c375e6ed6040518163ffffffff1660e01b815260040160206040518083038186803b158015613d5a5760006000fd5b505afa158015613d6f573d600060003e3d6000fd5b505050506040513d601f19601f82011682018060405250810190613d93919061751d565b61580b90919063ffffffff16565b811515613daa57fe5b049050613de5600f60089054906101000a900461ffff16613dd9600760005054846155b390919063ffffffff16565b846158a963ffffffff16565b613e1d600f600a9054906101000a900461ffff16613e11600860005054846155b390919063ffffffff16565b846158a963ffffffff16565b60006010600050805490509050600081613e45600960005054856155b390919063ffffffff16565b811515613e4e57fe5b0490506000600090505b82811015613eb557613ea7601060005082815481101515613e7557fe5b90600052602060002090601091828204019190066002025b9054906101000a900461ffff1683876158a963ffffffff16565b5b8080600101915050613e58565b5084600f60006101000a81548167ffffffffffffffff021916908367ffffffffffffffff1602179055507f095a67d1e9698fe0eebf9cff79a22f6423cebcb4e386a0bdd7e12330d86381ed8385604051613f10929190618307565b60405180910390a150505050505b565b6000600060009054906101000a900473ffffffffffffffffffffffffffffffffffffffff1673ffffffffffffffffffffffffffffffffffffffff1663ab658be26040518163ffffffff1660e01b815260040160006040518083038186803b158015613f8b5760006000fd5b505afa158015613fa0573d600060003e3d6000fd5b505050506040513d6000823e3d601f19601f82011682018060405250810190613fc99190616e82565b9050805167ffffffffffffffff81118015613fe45760006000fd5b506040519080825280602002602001820160405280156140135781602001602082028036833780820191505090505b506010600050908051906020019061402c929190616cb2565b506000600090505b81518110156140b157614061828281518110151561404e57fe5b6020026020010151614f4863ffffffff16565b60106000508281548110151561407357fe5b90600052602060002090601091828204019190066002025b6101000a81548161ffff021916908361ffff1602179055505b8080600101915050614034565b50505b565b6140be616c27565b61417a600260009054906101000a900473ffffffffffffffffffffffffffffffffffffffff1673ffffffffffffffffffffffffffffffffffffffff1663f34348f1846040518263ffffffff1660e01b815260040161411c9190618162565b6101206040518083038186803b1580156141365760006000fd5b505afa15801561414b573d600060003e3d6000fd5b505050506040513d601f19601f8201168201806040525081019061416f9190617384565b6132c363ffffffff16565b9050614181565b919050565b43811015156141ca576040517f08c379a00000000000000000000000000000000000000000000000000000000081526004016141c190617e3d565b60405180910390fd5b5b50565b60006040518060c001604052806303a8538860e01b7bffffffffffffffffffffffffffffffffffffffffffffffffffffffff19167bffffffffffffffffffffffffffffffffffffffffffffffffffffffff19168152602001636fbb4c4860e01b7bffffffffffffffffffffffffffffffffffffffffffffffffffffffff19167bffffffffffffffffffffffffffffffffffffffffffffffffffffffff19168152602001635d130e8960e01b7bffffffffffffffffffffffffffffffffffffffffffffffffffffffff19167bffffffffffffffffffffffffffffffffffffffffffffffffffffffff1916815260200163c433c80a60e01b7bffffffffffffffffffffffffffffffffffffffffffffffffffffffff19167bffffffffffffffffffffffffffffffffffffffffffffffffffffffff19168152602001632806a74360e01b7bffffffffffffffffffffffffffffffffffffffffffffffffffffffff19167bffffffffffffffffffffffffffffffffffffffffffffffffffffffff19168152602001636bb0d48560e01b7bffffffffffffffffffffffffffffffffffffffffffffffffffffffff19167bffffffffffffffffffffffffffffffffffffffffffffffffffffffff1916815260200150905060008150600690506000600090505b818110156144445760016005600050600085846006811015156143ce57fe5b60200201517bffffffffffffffffffffffffffffffffffffffffffffffffffffffff19167bffffffffffffffffffffffffffffffffffffffffffffffffffffffff1916815260200190815260200160002060006101000a81548160ff0219169083151502179055505b80806001019150506143af565b5050505b565b600060007f000000000000000000000000000000000000000000000000000000000000000073ffffffffffffffffffffffffffffffffffffffff16630c49ccbe846040518263ffffffff1660e01b81526004016144a79190617f98565b604060405180830381600087803b1580156144c25760006000fd5b505af11580156144d7573d600060003e3d6000fd5b505050506040513d601f19601f820116820180604052508101906144fb919061757e565b91509150614504565b915091565b614511616bf3565b5b90565b6000846020015190506000601260005060008361ffff1661ffff16815260200190815260200160002060009054906101000a900473ffffffffffffffffffffffffffffffffffffffff169050600083604001516146b157600060009054906101000a900473ffffffffffffffffffffffffffffffffffffffff1673ffffffffffffffffffffffffffffffffffffffff1663d3419bf36040518163ffffffff1660e01b815260040160206040518083038186803b1580156145d55760006000fd5b505afa1580156145ea573d600060003e3d6000fd5b505050506040513d601f19601f8201168201806040525081019061460e9190617003565b73ffffffffffffffffffffffffffffffffffffffff1663fcebd71c83600d60189054906101000a900463ffffffff166040518363ffffffff1660e01b815260040161465a929190617b99565b60206040518083038186803b1580156146735760006000fd5b505afa158015614688573d600060003e3d6000fd5b505050506040513d601f19601f820116820180604052508101906146ac919061714f565b6146b7565b83606001515b905060006146f68884846146eb8a8d61010001516fffffffffffffffffffffffffffffffff16615b3b90919063ffffffff16565b615be863ffffffff16565b905061470781615d4963ffffffff16565b84602001511580156147255750614724888361329163ffffffff16565b5b80156147495750600f60089054906101000a900461ffff1661ffff168461ffff1614155b156147825761475f836000615dcd63ffffffff16565b61478183876fffffffffffffffffffffffffffffffff1661606563ffffffff16565b5b84600001511561482557600260009054906101000a900473ffffffffffffffffffffffffffffffffffffffff1673ffffffffffffffffffffffffffffffffffffffff1663e276e8f389600001518660006040518463ffffffff1660e01b81526004016147f093929190617a1d565b600060405180830381600087803b15801561480b5760006000fd5b505af1158015614820573d600060003e3d6000fd5b505050505b600260009054906101000a900473ffffffffffffffffffffffffffffffffffffffff1673ffffffffffffffffffffffffffffffffffffffff1663530c1ccb84886040518363ffffffff1660e01b8152600401614882929190617b58565b600060405180830381600087803b15801561489d5760006000fd5b505af11580156148b2573d600060003e3d6000fd5b50505050600260009054906101000a900473ffffffffffffffffffffffffffffffffffffffff1673ffffffffffffffffffffffffffffffffffffffff1663022f6bb0888a6040518363ffffffff1660e01b81526004016149139291906181a3565b600060405180830381600087803b15801561492e5760006000fd5b505af1158015614943573d600060003e3d6000fd5b50505050505050505b50505050565b6000600060007f000000000000000000000000000000000000000000000000000000000000000073ffffffffffffffffffffffffffffffffffffffff166399fbab8885600001356040518263ffffffff1660e01b81526004016149b59190618162565b6101806040518083038186803b1580156149cf5760006000fd5b505afa1580156149e4573d600060003e3d6000fd5b505050506040513d601f19601f82011682018060405250810190614a089190617679565b5050505050505050935093505050600060008383915091506000339050614a3a8382896020013561500463ffffffff16565b614a4f8282896040013561500463ffffffff16565b7f000000000000000000000000000000000000000000000000000000000000000073ffffffffffffffffffffffffffffffffffffffff1663219f5d17886040518263ffffffff1660e01b8152600401614aa89190617fe5565b606060405180830381600087803b158015614ac35760006000fd5b505af1158015614ad8573d600060003e3d6000fd5b505050506040513d601f19601f82011682018060405250810190614afc91906174a0565b90505080965050614b13838261511963ffffffff16565b614b23828261511963ffffffff16565b50505050505b919050565b6000846020015190506000601260005060008361ffff1661ffff16815260200190815260200160002060009054906101000a900473ffffffffffffffffffffffffffffffffffffffff1690506000600060009054906101000a900473ffffffffffffffffffffffffffffffffffffffff1673ffffffffffffffffffffffffffffffffffffffff1663d3419bf36040518163ffffffff1660e01b815260040160206040518083038186803b158015614be55760006000fd5b505afa158015614bfa573d600060003e3d6000fd5b505050506040513d601f19601f82011682018060405250810190614c1e9190617003565b73ffffffffffffffffffffffffffffffffffffffff1663fcebd71c83600d60189054906101000a900463ffffffff166040518363ffffffff1660e01b8152600401614c6a929190617b99565b60206040518083038186803b158015614c835760006000fd5b505afa158015614c98573d600060003e3d6000fd5b505050506040513d601f19601f82011682018060405250810190614cbc919061714f565b90506000614cfb888484614cf08a8d61010001516fffffffffffffffffffffffffffffffff166161f390919063ffffffff16565b615be863ffffffff16565b9050614d0d888361329163ffffffff16565b1515614d4e576040517f08c379a0000000000000000000000000000000000000000000000000000000008152600401614d4590617c45565b60405180910390fd5b614d5d81615d4963ffffffff16565b846000015115614dc857683ba1910bf341b000006fffffffffffffffffffffffffffffffff168111151515614dc7576040517f08c379a0000000000000000000000000000000000000000000000000000000008152600401614dbe90617d02565b60405180910390fd5b5b600f60089054906101000a900461ffff1661ffff168461ffff16141515614e0c57614e0b83876fffffffffffffffffffffffffffffffff16615dcd63ffffffff16565b5b600260009054906101000a900473ffffffffffffffffffffffffffffffffffffffff1673ffffffffffffffffffffffffffffffffffffffff16631428561d84886040518363ffffffff1660e01b8152600401614e69929190617b58565b600060405180830381600087803b158015614e845760006000fd5b505af1158015614e99573d600060003e3d6000fd5b50505050438860a00190908181526020015050600260009054906101000a900473ffffffffffffffffffffffffffffffffffffffff1673ffffffffffffffffffffffffffffffffffffffff1663022f6bb0888a6040518363ffffffff1660e01b8152600401614f099291906181a3565b600060405180830381600087803b158015614f245760006000fd5b505af1158015614f39573d600060003e3d6000fd5b50505050505050505b50505050565b6000601360005060008373ffffffffffffffffffffffffffffffffffffffff1673ffffffffffffffffffffffffffffffffffffffff16815260200190815260200160002060009054906101000a900461ffff169050805060008161ffff161415614fc057614fbb826162a063ffffffff16565b905080505b6001601460005060008361ffff1661ffff16815260200190815260200160002060006101000a81548160ff021916908315150217905550809050614fff565b919050565b600081141561501257615114565b60007f000000000000000000000000000000000000000000000000000000000000000073ffffffffffffffffffffffffffffffffffffffff168473ffffffffffffffffffffffffffffffffffffffff161480156150725750814791508110155b156150ff577f000000000000000000000000000000000000000000000000000000000000000073ffffffffffffffffffffffffffffffffffffffff1663d0e30db0826040518263ffffffff1660e01b81526004016000604051808303818588803b1580156150e05760006000fd5b505af11580156150f5573d600060003e3d6000fd5b5050505050615112565b6151118484308561657c63ffffffff16565b5b505b505050565b60008273ffffffffffffffffffffffffffffffffffffffff166370a08231306040518263ffffffff1660e01b81526004016151549190617928565b60206040518083038186803b15801561516d5760006000fd5b505afa158015615182573d600060003e3d6000fd5b505050506040513d601f19601f820116820180604052508101906151a6919061751d565b905060008111156151c3576151c28383836155d963ffffffff16565b5b505b5050565b60006151d961366c63ffffffff16565b905080506000600060009054906101000a900473ffffffffffffffffffffffffffffffffffffffff1673ffffffffffffffffffffffffffffffffffffffff1663585690816040518163ffffffff1660e01b815260040160206040518083038186803b1580156152485760006000fd5b505afa15801561525d573d600060003e3d6000fd5b505050506040513d601f19601f82011682018060405250810190615281919061762b565b905060008167ffffffffffffffff161180156152b057508167ffffffffffffffff168167ffffffffffffffff16105b156152bb5780915081505b505b90565b600061533e7f00000000000000000000000000000000000000000000000000000000000000007f000000000000000000000000000000000000000000000000000000000000000067ffffffffffffffff168467ffffffffffffffff1681151561532557fe5b0467ffffffffffffffff166167a790919063ffffffff16565b905080505b919050565b615350616c27565b6000849150815060008261010001516fffffffffffffffffffffffffffffffff1611156154265761542161539b83608001518567ffffffffffffffff166167a790919063ffffffff16565b67ffffffffffffffff1661384067ffffffffffffffff166154126153d086606001518960000151613a6d90919063ffffffff16565b6153eb87604001518a60200151613a6d90919063ffffffff16565b8761010001516fffffffffffffffffffffffffffffffff166168449092919063ffffffff16565b6168449092919063ffffffff16565b905080505b836000015182606001909081815260200150508360200151826040019090818152602001505082826080019067ffffffffffffffff16908167ffffffffffffffff168152602001505081819150915061547a565b935093915050565b7f000000000000000000000000000000000000000000000000000000000000000073ffffffffffffffffffffffffffffffffffffffff1663fc6f786560405180608001604052808581526020018473ffffffffffffffffffffffffffffffffffffffff1681526020016fffffffffffffffffffffffffffffffff6fffffffffffffffffffffffffffffffff1681526020016fffffffffffffffffffffffffffffffff6fffffffffffffffffffffffffffffffff168152602001506040518263ffffffff1660e01b81526004016155589190617f39565b604060405180830381600087803b1580156155735760006000fd5b505af1158015615588573d600060003e3d6000fd5b505050506040513d601f19601f820116820180604052508101906155ac919061757e565b50505b5050565b60006155ce8383670de0b6b3a764000061684463ffffffff16565b905080505b92915050565b600060008473ffffffffffffffffffffffffffffffffffffffff1663a9059cbb60e01b8585604051602401808373ffffffffffffffffffffffffffffffffffffffff16815260200182815260200192505050604051602081830303815290604052907bffffffffffffffffffffffffffffffffffffffffffffffffffffffff19166020820180517bffffffffffffffffffffffffffffffffffffffffffffffffffffffff83818316178352505050506040518082805190602001908083835b6020831015156156be57805182525b602082019150602081019050602083039250615698565b6001836020036101000a0380198251168184511680821785525050505050509050019150506000604051808303816000865af19150503d8060008114615720576040519150601f19603f3d011682016040523d82523d6000602084013e615725565b606091505b5091509150818015615766575060008151148061576557508080602001905160208110156157535760006000fd5b81019080805190602001909291905050505b5b15156157dd576040517f08c379a00000000000000000000000000000000000000000000000000000000081526004018080602001828103825260028152602001807f535400000000000000000000000000000000000000000000000000000000000081526020015060200191505060405180910390fd5b50505b505050565b60006158036157f86151c963ffffffff16565b6152c063ffffffff16565b905080505b90565b6000600082148061582b5750828283850292508281151561582857fe5b04145b15156158a2576040517f08c379a000000000000000000000000000000000000000000000000000000000815260040180806020018281038252600c8152602001807f6d756c2d6f766572666c6f77000000000000000000000000000000000000000081526020015060200191505060405180910390fd5b5b92915050565b6000600260009054906101000a900473ffffffffffffffffffffffffffffffffffffffff1673ffffffffffffffffffffffffffffffffffffffff166351ad51f7856040518263ffffffff1660e01b81526004016159069190618124565b60406040518083038186803b15801561591f5760006000fd5b505afa158015615934573d600060003e3d6000fd5b505050506040513d601f19601f82011682018060405250810190615958919061742d565b9050600260009054906101000a900473ffffffffffffffffffffffffffffffffffffffff1673ffffffffffffffffffffffffffffffffffffffff1663f70996078560405180604001604052806159bb8887600001516139e490919063ffffffff16565b8152602001615add615aca8867ffffffffffffffff16600260009054906101000a900473ffffffffffffffffffffffffffffffffffffffff1673ffffffffffffffffffffffffffffffffffffffff1663a135ef17601260005060008f61ffff1661ffff16815260200190815260200160002060009054906101000a900473ffffffffffffffffffffffffffffffffffffffff166040518263ffffffff1660e01b8152600401615a6a9190617ac4565b60206040518083038186803b158015615a835760006000fd5b505afa158015615a98573d600060003e3d6000fd5b505050506040513d601f19601f82011682018060405250810190615abc919061751d565b61580b90919063ffffffff16565b87602001516139e490919063ffffffff16565b8152602001506040518363ffffffff1660e01b8152600401615b0092919061813a565b600060405180830381600087803b158015615b1b5760006000fd5b505af1158015615b30573d600060003e3d6000fd5b50505050505b505050565b6000826fffffffffffffffffffffffffffffffff168284039150816fffffffffffffffffffffffffffffffff1611151515615be1576040517f08c379a000000000000000000000000000000000000000000000000000000000815260040180806020018281038252600d8152602001807f7375622d756e646572666c6f770000000000000000000000000000000000000081526020015060200191505060405180910390fd5b5b92915050565b6000600060009054906101000a900473ffffffffffffffffffffffffffffffffffffffff1673ffffffffffffffffffffffffffffffffffffffff1663d3419bf36040518163ffffffff1660e01b815260040160206040518083038186803b158015615c535760006000fd5b505afa158015615c68573d600060003e3d6000fd5b505050506040513d601f19601f82011682018060405250810190615c8c9190617003565b73ffffffffffffffffffffffffffffffffffffffff16637ce3b2dc85858860c001518960e0015187600d60189054906101000a900463ffffffff166040518763ffffffff1660e01b8152600401615ce896959493929190617aec565b60206040518083038186803b158015615d015760006000fd5b505afa158015615d16573d600060003e3d6000fd5b505050506040513d601f19601f82011682018060405250810190615d3a919061751d565b9050615d41565b949350505050565b6000811480615d885750600d60009054906101000a90046fffffffffffffffffffffffffffffffff166fffffffffffffffffffffffffffffffff168110155b1515615dc9576040517f08c379a0000000000000000000000000000000000000000000000000000000008152600401615dc090617dbf565b60405180910390fd5b5b50565b6000615ddd613af663ffffffff16565b90508067ffffffffffffffff16600e60005060008573ffffffffffffffffffffffffffffffffffffffff1673ffffffffffffffffffffffffffffffffffffffff16815260200190815260200160002060005060000160009054906101000a900467ffffffffffffffff1667ffffffffffffffff16101561605f576000615f59615f4c615e7f600b60005054670de0b6b3a7640000613a6d90919063ffffffff16565b615f3e86600260009054906101000a900473ffffffffffffffffffffffffffffffffffffffff1673ffffffffffffffffffffffffffffffffffffffff1663a135ef178a6040518263ffffffff1660e01b8152600401615ede9190617ac4565b60206040518083038186803b158015615ef75760006000fd5b505afa158015615f0c573d600060003e3d6000fd5b505050506040513d601f19601f82011682018060405250810190615f30919061751d565b6139e490919063ffffffff16565b6155b390919063ffffffff16565b616945909063ffffffff16565b905060405180604001604052808367ffffffffffffffff1681526020018277ffffffffffffffffffffffffffffffffffffffffffffffff16815260200150600e60005060008673ffffffffffffffffffffffffffffffffffffffff1673ffffffffffffffffffffffffffffffffffffffff16815260200190815260200160002060005060008201518160000160006101000a81548167ffffffffffffffff021916908367ffffffffffffffff16021790555060208201518160000160086101000a81548177ffffffffffffffffffffffffffffffffffffffffffffffff021916908377ffffffffffffffffffffffffffffffffffffffffffffffff160217905550905050505b505b5050565b600e60005060008373ffffffffffffffffffffffffffffffffffffffff1673ffffffffffffffffffffffffffffffffffffffff16815260200190815260200160002060005060000160089054906101000a900477ffffffffffffffffffffffffffffffffffffffffffffffff1677ffffffffffffffffffffffffffffffffffffffffffffffff166161ab82600260009054906101000a900473ffffffffffffffffffffffffffffffffffffffff1673ffffffffffffffffffffffffffffffffffffffff1663a135ef17866040518263ffffffff1660e01b815260040161614b9190617ac4565b60206040518083038186803b1580156161645760006000fd5b505afa158015616179573d600060003e3d6000fd5b505050506040513d601f19601f8201168201806040525081019061619d919061751d565b613a6d90919063ffffffff16565b101515156161ee576040517f08c379a00000000000000000000000000000000000000000000000000000000081526004016161e590617cc3565b60405180910390fd5b5b5050565b6000826fffffffffffffffffffffffffffffffff168284019150816fffffffffffffffffffffffffffffffff1610151515616299576040517f08c379a000000000000000000000000000000000000000000000000000000000815260040180806020018281038252600c8152602001807f6164642d6f766572666c6f77000000000000000000000000000000000000000081526020015060200191505060405180910390fd5b5b92915050565b600061ffff61ffff16601160009054906101000a900461ffff1661ffff161015156162cb5760006000fd5b601160009054906101000a900461ffff16905080506011600081819054906101000a900461ffff168092919060010191906101000a81548161ffff021916908361ffff1602179055505081601260005060008361ffff1661ffff16815260200190815260200160002060006101000a81548173ffffffffffffffffffffffffffffffffffffffff021916908373ffffffffffffffffffffffffffffffffffffffff16021790555080601360005060008473ffffffffffffffffffffffffffffffffffffffff1673ffffffffffffffffffffffffffffffffffffffff16815260200190815260200160002060006101000a81548161ffff021916908361ffff16021790555061649f8273ffffffffffffffffffffffffffffffffffffffff16630dfe16816040518163ffffffff1660e01b815260040160206040518083038186803b1580156164195760006000fd5b505afa15801561642e573d600060003e3d6000fd5b505050506040513d601f19601f820116820180604052508101906164529190616e5b565b7f00000000000000000000000000000000000000000000000000000000000000007fffffffffffffffffffffffffffffffffffffffffffffffffffffffffffffffff6169e763ffffffff16565b61656f8273ffffffffffffffffffffffffffffffffffffffff1663d21220a76040518163ffffffff1660e01b815260040160206040518083038186803b1580156164e95760006000fd5b505afa1580156164fe573d600060003e3d6000fd5b505050506040513d601f19601f820116820180604052508101906165229190616e5b565b7f00000000000000000000000000000000000000000000000000000000000000007fffffffffffffffffffffffffffffffffffffffffffffffffffffffffffffffff6169e763ffffffff16565b809050616577565b919050565b600060008573ffffffffffffffffffffffffffffffffffffffff166323b872dd60e01b868686604051602401808473ffffffffffffffffffffffffffffffffffffffff1681526020018373ffffffffffffffffffffffffffffffffffffffff1681526020018281526020019350505050604051602081830303815290604052907bffffffffffffffffffffffffffffffffffffffffffffffffffffffff19166020820180517bffffffffffffffffffffffffffffffffffffffffffffffffffffffff83818316178352505050506040518082805190602001908083835b60208310151561667f57805182525b602082019150602081019050602083039250616659565b6001836020036101000a0380198251168184511680821785525050505050509050019150506000604051808303816000865af19150503d80600081146166e1576040519150601f19603f3d011682016040523d82523d6000602084013e6166e6565b606091505b5091509150818015616727575060008151148061672657508080602001905160208110156167145760006000fd5b81019080805190602001909291905050505b5b151561679e576040517f08c379a00000000000000000000000000000000000000000000000000000000081526004018080602001828103825260038152602001807f535446000000000000000000000000000000000000000000000000000000000081526020015060200191505060405180910390fd5b50505b50505050565b60008267ffffffffffffffff1682840391508167ffffffffffffffff161115151561683d576040517f08c379a000000000000000000000000000000000000000000000000000000000815260040180806020018281038252600d8152602001807f7375622d756e646572666c6f770000000000000000000000000000000000000081526020015060200191505060405180910390fd5b5b92915050565b6000600060006000198587098587029250828110838203039150506000811415616887576000841115156168785760006000fd5b8382049250829250505061693e565b80841115156168965760006000fd5b600084868809905082811182039150808303925060008586600003169050808604955080840493506001818260000304019050808302841793508350600060028760030218905080870260020381029050805080870260020381029050805080870260020381029050805080870260020381029050805080870260020381029050805080870260020381029050805080850295508550859550505050505061693e5650505050505b9392505050565b60007801000000000000000000000000000000000000000000000000821015156169da576040517f08c379a00000000000000000000000000000000000000000000000000000000081526004018080602001828103825260128152602001807f6d6f7265207468616e203139322062697473000000000000000000000000000081526020015060200191505060405180910390fd5b8190506169e2565b919050565b600060008473ffffffffffffffffffffffffffffffffffffffff1663095ea7b360e01b8585604051602401808373ffffffffffffffffffffffffffffffffffffffff16815260200182815260200192505050604051602081830303815290604052907bffffffffffffffffffffffffffffffffffffffffffffffffffffffff19166020820180517bffffffffffffffffffffffffffffffffffffffffffffffffffffffff83818316178352505050506040518082805190602001908083835b602083101515616acc57805182525b602082019150602081019050602083039250616aa6565b6001836020036101000a0380198251168184511680821785525050505050509050019150506000604051808303816000865af19150503d8060008114616b2e576040519150601f19603f3d011682016040523d82523d6000602084013e616b33565b606091505b5091509150818015616b745750600081511480616b735750808060200190516020811015616b615760006000fd5b81019080805190602001909291905050505b5b1515616beb576040517f08c379a00000000000000000000000000000000000000000000000000000000081526004018080602001828103825260028152602001807f534100000000000000000000000000000000000000000000000000000000000081526020015060200191505060405180910390fd5b50505b505050565b6040518060800160405280600015158152602001600015158152602001600015158152602001600060020b81526020015090565b604051806101200160405280600073ffffffffffffffffffffffffffffffffffffffff168152602001600061ffff1681526020016000815260200160008152602001600067ffffffffffffffff16815260200160008152602001600060020b8152602001600060020b815260200160006fffffffffffffffffffffffffffffffff1681526020015090565b82805482825590600052602060002090600f01601090048101928215616d4b5791602002820160005b83821115616d1b57835183826101000a81548161ffff021916908361ffff1602179055509260200192600201602081600101049283019260010302616cdb565b8015616d495782816101000a81549061ffff0219169055600201602081600101049283019260010302616d1b565b505b509050616d589190616d5c565b5090565b616d61565b80821115616d7b5760008181506000905550600101616d61565b5090566184c0565b600081359050616d92816183fa565b5b919050565b600081519050616da7816183fa565b5b919050565b600081359050616dbc81618423565b5b919050565b600081519050616dd181618423565b5b919050565b600060608284031215616de8578081fd5b8190505b92915050565b600081519050616e0181618439565b5b919050565b600081519050616e168161845e565b5b919050565b600081359050616e2b81618475565b5b919050565b600081519050616e4081618475565b5b919050565b600081519050616e558161848d565b5b919050565b600060208284031215616e6c578081fd5b8151616e77816183fa565b809150505b92915050565b60006020808385031215616e94578182fd5b825167ffffffffffffffff80821115616eab578384fd5b818501915085601f8301121515616ec0578384fd5b815181811115616ecc57fe5b8381029150616edc8483016183cf565b8082825285820191508585018987868801011115616ef8578788fd5b8795505b83861015616f2a5780519450616f11856183fa565b848352868301925086810190505b600186019550616efc565b508096505050505050505b92915050565b600060208284031215616f4c578081fd5b815180151581141515616f5d578182fd5b809150505b92915050565b600060208284031215616f79578081fd5b81357fffffffff00000000000000000000000000000000000000000000000000000000811681141515616faa578182fd5b809150505b92915050565b600060208284031215616fc6578081fd5b8151616fd1816183fa565b809150505b92915050565b600060208284031215616fed578081fd5b8135616ff8816183fa565b809150505b92915050565b600060208284031215617014578081fd5b815161701f816183fa565b809150505b92915050565b60006020828403121561703b578081fd5b8151617046816183fa565b809150505b92915050565b600060208284031215617062578081fd5b813561706d816183fa565b809150505b92915050565b600060208284031215617089578081fd5b8151617094816183fa565b809150505b92915050565b600060006000604084860312156170b4578182fd5b83356170bf816183fa565b80935050602084013567ffffffffffffffff808211156170dd578384fd5b818601915086601f83011215156170f2578384fd5b813581811115617100578485fd5b876020602083028501011115617114578485fd5b6020830194508093505050505b9250925092565b600060208284031215617139578081fd5b8151617144816183fa565b809150505b92915050565b600060208284031215617160578081fd5b815161716b81618423565b809150505b92915050565b600060808284031215617187578081fd5b6040516080810181811067ffffffffffffffff821117156171a457fe5b80604052508235815260208301356171bb816183fa565b8060208301525060408301356171d081618439565b8060408301525060608301356171e581618439565b80606083015250809150505b92915050565b600060a08284031215617208578081fd5b8190505b92915050565b600060a08284031215617223578081fd5b60405160a0810181811067ffffffffffffffff8211171561724057fe5b806040525082358152602083013561725781618439565b80602083015250604083013560408201526060830135606082015260808301356080820152809150505b92915050565b600060c08284031215617298578081fd5b8190505b92915050565b600060008284036101c08112156172b7578283fd5b610160808212156172c6578384fd5b6172cf816183cf565b91506172da85616d83565b82526172e860208601616d83565b60208301526172f960408601616e1c565b604083015261730a60608601616dad565b606083015261731b60808601616dad565b608083015260a085013560a083015260c085013560c083015260e085013560e0830152610100808601358184015250610120617358818701616d83565b818401525061014080860135818401525081935061737886828701616dd7565b925050505b9250929050565b6000610120808385031215617397578182fd5b6173a0816183cf565b90506173ab83616d98565b81526173b960208401616e07565b602082015260408301516040820152606083015160608201526173de60808401616e46565b608082015260a083015160a08201526173f960c08401616dc2565b60c082015261740a60e08401616dc2565b60e082015261010061741d818501616df2565b8183015250809150505b92915050565b60006040828403121561743e578081fd5b6040516040810181811067ffffffffffffffff8211171561745b57fe5b80604052508251815260208301516020820152809150505b92915050565b60006020828403121561748a578081fd5b813561749581618439565b809150505b92915050565b600060006000606084860312156174b5578081fd5b83516174c081618439565b8093505060208401519150604084015190505b9250925092565b6000602082840312156174eb578081fd5b81356174f68161845e565b809150505b92915050565b600060208284031215617512578081fd5b813590505b92915050565b60006020828403121561752e578081fd5b815190505b92915050565b600060006000600060808587031215617550578182fd5b84519350602085015161756281618439565b8093505060408501519150606085015190505b92959194509250565b6000600060408385031215617591578182fd5b82519150602083015190505b9250929050565b600060006000606084860312156175b9578081fd5b8335925060208401359150604084013590505b9250925092565b6000602082840312156175e4578081fd5b813563ffffffff8116811415156175f9578182fd5b809150505b92915050565b600060208284031215617615578081fd5b81356176208161848d565b809150505b92915050565b60006020828403121561763c578081fd5b81516176478161848d565b809150505b92915050565b600060208284031215617663578081fd5b815161766e816184aa565b809150505b92915050565b6000600060006000600060006000600060006000600060006101808d8f0312156176a157898afd5b8c516bffffffffffffffffffffffff8116811415156176be578a8bfd5b809c50506176ce60208e01616d98565b9a506176dc60408e01616d98565b99506176ea60608e01616d98565b98506176f860808e01616e31565b975061770660a08e01616dc2565b965061771460c08e01616dc2565b955061772260e08e01616df2565b94506101008d015193506101208d015192506177416101408e01616df2565b91506177506101608e01616df2565b90505b9295989b509295989b509295989b565b73ffffffffffffffffffffffffffffffffffffffff811682525b5050565b8060020b82525b5050565b6fffffffffffffffffffffffffffffffff811682525b5050565b61ffff811682525b5050565b62ffffff811682525b5050565b67ffffffffffffffff811682525b5050565b60007f6c69717569646174696f6e50656e616c7479000000000000000000000000000082526012820190505b919050565b60007f6d696e5a6875436f756e74506572506f736974696f6e0000000000000000000082526016820190505b919050565b60007f747761704475726174696f6e00000000000000000000000000000000000000008252600c820190505b919050565b60007f6d61784c69717569646974794465637265617365506572506572696f640000008252601d820190505b919050565b60007f6d696e4c697175696469747950726f766964654475726174696f6e00000000008252601b820190505b919050565b60007f72656d6f76655265666572656e6365506f6f6c0000000000000000000000000082526013820190505b919050565b60007f6164645265666572656e6365506f6f6c0000000000000000000000000000000082526010820190505b919050565b600060208201905073ffffffffffffffffffffffffffffffffffffffff831682525b92915050565b600060808201905073ffffffffffffffffffffffffffffffffffffffff84168252823561797c816184aa565b60ff811660208401525060208301356040830152604083013560608301525b9392505050565b600060608201905073ffffffffffffffffffffffffffffffffffffffff8516825261ffff8416602083015282151560408301525b949350505050565b600060608201905073ffffffffffffffffffffffffffffffffffffffff808616835280851660208401525062ffffff831660408301525b949350505050565b600060608201905073ffffffffffffffffffffffffffffffffffffffff8516825261ffff8416602083015282151560408301525b949350505050565b600060408201905073ffffffffffffffffffffffffffffffffffffffff841682528260208301525b9392505050565b600060208201905082151582525b92915050565b600060208201905073ffffffffffffffffffffffffffffffffffffffff831682525b92915050565b600060208201905073ffffffffffffffffffffffffffffffffffffffff831682525b92915050565b600060c08201905073ffffffffffffffffffffffffffffffffffffffff881682528660020b60208301528560020b60408301528460020b60608301526fffffffffffffffffffffffffffffffff8416608083015263ffffffff831660a08301525b979650505050505050565b600060408201905073ffffffffffffffffffffffffffffffffffffffff841682526fffffffffffffffffffffffffffffffff831660208301525b9392505050565b600060408201905073ffffffffffffffffffffffffffffffffffffffff8416825263ffffffff831660208301525b9392505050565b60006060820190508460020b82528360020b60208301526fffffffffffffffffffffffffffffffff831660408301525b949350505050565b600060208252601160208301527f50726f746f636f6c2073687574646f776e00000000000000000000000000000060408301526060820190505b919050565b600060208252601660208301527f4c6971756964697479206e6f7420696e2072616e67650000000000000000000060408301526060820190505b919050565b600060208252600c60208301527f556e6b6e6f776e20706f6f6c000000000000000000000000000000000000000060408301526060820190505b919050565b600060208252601c60208301527f4d617820706572696f642077697468647261772065786365656465640000000060408301526060820190505b919050565b600060208252601560208301527f457863656564732067656e65736973206c696d6974000000000000000000000060408301526060820190505b919050565b600060208252600e60208301527f4e6f7420417574686f72697a656400000000000000000000000000000000000060408301526060820190505b919050565b600060208252600d60208301527f4c50205265656e7472616e63790000000000000000000000000000000000000060408301526060820190505b919050565b600060208252601260208301527f506f736974696f6e20746f6f20736d616c6c000000000000000000000000000060408301526060820190505b919050565b600060208252601360208301527f436f6e74726163742069732073746f707065640000000000000000000000000060408301526060820190505b919050565b600060208252601260208301527f4e6f20666c617368206c6971756964697479000000000000000000000000000060408301526060820190505b919050565b600060208252601160208301527f43616e206f6e6c7920646563726561736500000000000000000000000000000060408301526060820190505b919050565b600060208252600c60208301527f4e6f742073687574646f776e000000000000000000000000000000000000000060408301526060820190505b919050565b600060208252600c60208301527f496e76616c696420706f6f6c000000000000000000000000000000000000000060408301526060820190505b919050565b60006080820190508251825273ffffffffffffffffffffffffffffffffffffffff602084015116602083015260408301516fffffffffffffffffffffffffffffffff808216604085015280606086015116606085015250505b92915050565b600060a082019050825182526fffffffffffffffffffffffffffffffff60208401511660208301526040830151604083015260608301516060830152608083015160808301525b92915050565b600060c082019050823582526020830135602083015260408301356040830152606083013560608301526080830135608083015260a083013560a08301525b92915050565b60006101608201905061803e828451617763565b60208301516180506020840182617763565b50604083015161806360408401826177b2565b5060608301516180766060840182617781565b5060808301516180896080840182617781565b5060a083015160a083015260c083015160c083015260e083015160e0830152610100808401518184015250610120808401516180c782850182617763565b50506101408084015181840152505b92915050565b60006020820190506fffffffffffffffffffffffffffffffff831682525b92915050565b60006020820190506fffffffffffffffffffffffffffffffff831682525b92915050565b600060208201905061ffff831682525b92915050565b600060608201905061ffff8416825282516020830152602083015160408301525b9392505050565b60006020820190508282525b92915050565b600060408201905083825273ffffffffffffffffffffffffffffffffffffffff831660208301525b9392505050565b60006101408201905083825273ffffffffffffffffffffffffffffffffffffffff835116602083015260208301516181de60408401826177a6565b506040830151606083015260608301516080830152608083015161820560a08401826177bf565b5060a083015160c083015260c083015161822260e0840182617781565b5060e083015161010061823781850183617781565b8085015191505061824c61012084018261778c565b505b9392505050565b60006040820190508382526fffffffffffffffffffffffffffffffff831660208301525b9392505050565b600060a08201905086825261ffff861660208301528460020b60408301528360020b606083015273ffffffffffffffffffffffffffffffffffffffff831660808301525b9695505050505050565b60006040820190508382528260208301525b9392505050565b60006060820190508482528360208301528260408301525b949350505050565b600060408201905083825267ffffffffffffffff831660208301525b9392505050565b600060208201905063ffffffff831682525b92915050565b600060208201905063ffffffff831682525b92915050565b600060208201905067ffffffffffffffff831682525b92915050565b600060208201905067ffffffffffffffff831682525b92915050565b600060408201905067ffffffffffffffff8416825277ffffffffffffffffffffffffffffffffffffffffffffffff831660208301525b9392505050565b6000604051905081810181811067ffffffffffffffff821117156183ef57fe5b80604052505b919050565b73ffffffffffffffffffffffffffffffffffffffff81168114151561841f5760006000fd5b5b50565b8060020b811415156184355760006000fd5b5b50565b6fffffffffffffffffffffffffffffffff81168114151561845a5760006000fd5b5b50565b61ffff8116811415156184715760006000fd5b5b50565b62ffffff8116811415156184895760006000fd5b5b50565b67ffffffffffffffff8116811415156184a65760006000fd5b5b50565b60ff8116811415156184bc5760006000fd5b5b50565bfea26469706673582212206fbc2f014282f152b1cc2cfcbec88468f185a1dabab50082b245c16896d061fb64736f6c63430007060033",
  "linkReferences": {},
  "deployedLinkReferences": {}
}