{
  "_format": "hh-sol-artifact-1",
  "contractName": "Rewards",
  "sourceName": "contracts/core/logic/Rewards.sol",
  "abi": [
    {
      "inputs": [
        {
          "internalType": "contract INonfungiblePositionManager",
          "name": "_nftPositionManager",
          "type": "address"
        },
        {
          "internalType": "contract IUniswapV3Factory",
          "name": "_uniswapV3Factory",
          "type": "address"
        }
      ],
      "stateMutability": "nonpayable",
      "type": "constructor"
    },
    {
      "anonymous": false,
      "inputs": [
        {
          "indexed": true,
          "internalType": "address",
          "name": "governor",
          "type": "address"
        }
      ],
      "name": "Initialized",
      "type": "event"
    },
    {
      "anonymous": false,
      "inputs": [
        {
          "indexed": true,
          "internalType": "address",
          "name": "owner",
          "type": "address"
        },
        {
          "indexed": true,
          "internalType": "uint16",
          "name": "poolID",
          "type": "uint16"
        },
        {
          "indexed": true,
          "internalType": "uint256",
          "name": "nftID",
          "type": "uint256"
        },
        {
          "indexed": false,
          "internalType": "int24",
          "name": "tickLower",
          "type": "int24"
        },
        {
          "indexed": false,
          "internalType": "int24",
          "name": "tickUpper",
          "type": "int24"
        },
        {
          "indexed": false,
          "internalType": "uint128",
          "name": "liquidity",
          "type": "uint128"
        }
      ],
      "name": "LiquidityPositionCreated",
      "type": "event"
    },
    {
      "anonymous": false,
      "inputs": [
        {
          "indexed": true,
          "internalType": "uint256",
          "name": "nftID",
          "type": "uint256"
        },
        {
          "indexed": false,
          "internalType": "uint256",
          "name": "amount0",
          "type": "uint256"
        },
        {
          "indexed": false,
          "internalType": "uint256",
          "name": "amount1",
          "type": "uint256"
        }
      ],
      "name": "LiquidityPositionDecreased",
      "type": "event"
    },
    {
      "anonymous": false,
      "inputs": [
        {
          "indexed": true,
          "internalType": "uint256",
          "name": "nftID",
          "type": "uint256"
        },
        {
          "indexed": false,
          "internalType": "uint128",
          "name": "liquidity",
          "type": "uint128"
        }
      ],
      "name": "LiquidityPositionIncreased",
      "type": "event"
    },
    {
      "anonymous": false,
      "inputs": [
        {
          "indexed": true,
          "internalType": "uint256",
          "name": "nftID",
          "type": "uint256"
        },
        {
          "indexed": true,
          "internalType": "address",
          "name": "liquidator",
          "type": "address"
        }
      ],
      "name": "LiquidityPositionLiquidated",
      "type": "event"
    },
    {
      "anonymous": false,
      "inputs": [
        {
          "indexed": true,
          "internalType": "uint256",
          "name": "nftID",
          "type": "uint256"
        },
        {
          "indexed": false,
          "internalType": "uint256",
          "name": "amount0",
          "type": "uint256"
        },
        {
          "indexed": false,
          "internalType": "uint256",
          "name": "amount1",
          "type": "uint256"
        }
      ],
      "name": "LiquidityPositionRemoved",
      "type": "event"
    },
    {
      "anonymous": false,
      "inputs": [
        {
          "indexed": true,
          "internalType": "string",
          "name": "paramName",
          "type": "string"
        },
        {
          "indexed": false,
          "internalType": "uint256",
          "name": "value",
          "type": "uint256"
        }
      ],
      "name": "ParameterUpdated",
      "type": "event"
    },
    {
      "anonymous": false,
      "inputs": [
        {
          "indexed": true,
          "internalType": "string",
          "name": "paramName",
          "type": "string"
        },
        {
          "indexed": false,
          "internalType": "uint256",
          "name": "value",
          "type": "uint256"
        }
      ],
      "name": "ParameterUpdated128",
      "type": "event"
    },
    {
      "anonymous": false,
      "inputs": [
        {
          "indexed": true,
          "internalType": "string",
          "name": "paramName",
          "type": "string"
        },
        {
          "indexed": false,
          "internalType": "uint256",
          "name": "value",
          "type": "uint256"
        }
      ],
      "name": "ParameterUpdated32",
      "type": "event"
    },
    {
      "anonymous": false,
      "inputs": [
        {
          "indexed": true,
          "internalType": "string",
          "name": "paramName",
          "type": "string"
        },
        {
          "indexed": false,
          "internalType": "uint256",
          "name": "value",
          "type": "uint256"
        }
      ],
      "name": "ParameterUpdated64",
      "type": "event"
    },
    {
      "anonymous": false,
      "inputs": [
        {
          "indexed": true,
          "internalType": "string",
          "name": "paramName",
          "type": "string"
        },
        {
          "indexed": false,
          "internalType": "address",
          "name": "value",
          "type": "address"
        }
      ],
      "name": "ParameterUpdatedAddress",
      "type": "event"
    },
    {
      "anonymous": false,
      "inputs": [
        {
          "indexed": true,
          "internalType": "address",
          "name": "pool",
          "type": "address"
        },
        {
          "indexed": true,
          "internalType": "uint16",
          "name": "poolID",
          "type": "uint16"
        },
        {
          "indexed": false,
          "internalType": "uint64",
          "name": "rewardsPortion",
          "type": "uint64"
        }
      ],
      "name": "PoolAdded",
      "type": "event"
    },
    {
      "anonymous": false,
      "inputs": [
        {
          "indexed": true,
          "internalType": "uint16",
          "name": "poolID",
          "type": "uint16"
        },
        {
          "indexed": false,
          "internalType": "uint64",
          "name": "incentive",
          "type": "uint64"
        }
      ],
      "name": "PoolIncentiveUpdated",
      "type": "event"
    },
    {
      "anonymous": false,
      "inputs": [
        {
          "indexed": false,
          "internalType": "uint256",
          "name": "count",
          "type": "uint256"
        },
        {
          "indexed": false,
          "internalType": "uint64",
          "name": "periods",
          "type": "uint64"
        }
      ],
      "name": "RewardsAccrued",
      "type": "event"
    },
    {
      "anonymous": false,
      "inputs": [
        {
          "indexed": true,
          "internalType": "address",
          "name": "caller",
          "type": "address"
        },
        {
          "indexed": true,
          "internalType": "uint256",
          "name": "nftTokenID",
          "type": "uint256"
        },
        {
          "indexed": false,
          "internalType": "uint256",
          "name": "amount0",
          "type": "uint256"
        },
        {
          "indexed": false,
          "internalType": "uint256",
          "name": "amount1",
          "type": "uint256"
        }
      ],
      "name": "RewardsClaimed",
      "type": "event"
    },
    {
      "anonymous": false,
      "inputs": [
        {
          "indexed": true,
          "internalType": "address",
          "name": "account",
          "type": "address"
        },
        {
          "indexed": true,
          "internalType": "bool",
          "name": "isKickback",
          "type": "bool"
        },
        {
          "indexed": false,
          "internalType": "uint256",
          "name": "tcpRewards",
          "type": "uint256"
        }
      ],
      "name": "RewardsDistributed",
      "type": "event"
    },
    {
      "anonymous": false,
      "inputs": [],
      "name": "Stopped",
      "type": "event"
    },
    {
      "inputs": [],
      "name": "accrueRewards",
      "outputs": [],
      "stateMutability": "nonpayable",
      "type": "function"
    },
    {
      "inputs": [
        {
          "internalType": "contract IUniswapV3Pool",
          "name": "pool",
          "type": "address"
        },
        {
          "internalType": "uint64",
          "name": "rewardsPortion",
          "type": "uint64"
        }
      ],
      "name": "addIncentivePool",
      "outputs": [],
      "stateMutability": "nonpayable",
      "type": "function"
    },
    {
      "inputs": [
        {
          "internalType": "uint256",
          "name": "nftTokenID",
          "type": "uint256"
        },
        {
          "internalType": "uint32",
          "name": "ui",
          "type": "uint32"
        }
      ],
      "name": "claimRewards",
      "outputs": [
        {
          "internalType": "uint256",
          "name": "amount0",
          "type": "uint256"
        },
        {
          "internalType": "uint256",
          "name": "amount1",
          "type": "uint256"
        }
      ],
      "stateMutability": "nonpayable",
      "type": "function"
    },
    {
      "inputs": [],
      "name": "countPools",
      "outputs": [
        {
          "internalType": "uint16",
          "name": "",
          "type": "uint16"
        }
      ],
      "stateMutability": "view",
      "type": "function"
    },
    {
      "inputs": [
        {
          "components": [
            {
              "internalType": "address",
              "name": "token0",
              "type": "address"
            },
            {
              "internalType": "address",
              "name": "token1",
              "type": "address"
            },
            {
              "internalType": "uint24",
              "name": "fee",
              "type": "uint24"
            },
            {
              "internalType": "int24",
              "name": "tickLower",
              "type": "int24"
            },
            {
              "internalType": "int24",
              "name": "tickUpper",
              "type": "int24"
            },
            {
              "internalType": "uint256",
              "name": "amount0Desired",
              "type": "uint256"
            },
            {
              "internalType": "uint256",
              "name": "amount1Desired",
              "type": "uint256"
            },
            {
              "internalType": "uint256",
              "name": "amount0Min",
              "type": "uint256"
            },
            {
              "internalType": "uint256",
              "name": "amount1Min",
              "type": "uint256"
            },
            {
              "internalType": "address",
              "name": "recipient",
              "type": "address"
            },
            {
              "internalType": "uint256",
              "name": "deadline",
              "type": "uint256"
            }
          ],
          "internalType": "struct INonfungiblePositionManager.MintParams",
          "name": "params",
          "type": "tuple"
        },
        {
          "internalType": "uint32",
          "name": "ui",
          "type": "uint32"
        }
      ],
      "name": "createLiquidityPosition",
      "outputs": [
        {
          "internalType": "uint256",
          "name": "nftTokenID",
          "type": "uint256"
        },
        {
          "internalType": "uint128",
          "name": "liquidity",
          "type": "uint128"
        }
      ],
      "stateMutability": "payable",
      "type": "function"
    },
    {
      "inputs": [],
      "name": "currentPeriod",
      "outputs": [
        {
          "internalType": "uint64",
          "name": "period",
          "type": "uint64"
        }
      ],
      "stateMutability": "view",
      "type": "function"
    },
    {
      "inputs": [
        {
          "components": [
            {
              "internalType": "uint256",
              "name": "tokenId",
              "type": "uint256"
            },
            {
              "internalType": "uint128",
              "name": "liquidity",
              "type": "uint128"
            },
            {
              "internalType": "uint256",
              "name": "amount0Min",
              "type": "uint256"
            },
            {
              "internalType": "uint256",
              "name": "amount1Min",
              "type": "uint256"
            },
            {
              "internalType": "uint256",
              "name": "deadline",
              "type": "uint256"
            }
          ],
          "internalType": "struct INonfungiblePositionManager.DecreaseLiquidityParams",
          "name": "params",
          "type": "tuple"
        },
        {
          "internalType": "uint32",
          "name": "ui",
          "type": "uint32"
        }
      ],
      "name": "decreaseLiquidityPosition",
      "outputs": [
        {
          "internalType": "uint256",
          "name": "amount0",
          "type": "uint256"
        },
        {
          "internalType": "uint256",
          "name": "amount1",
          "type": "uint256"
        }
      ],
      "stateMutability": "nonpayable",
      "type": "function"
    },
    {
      "inputs": [],
      "name": "deployer",
      "outputs": [
        {
          "internalType": "address",
          "name": "",
          "type": "address"
        }
      ],
      "stateMutability": "view",
      "type": "function"
    },
    {
      "inputs": [
        {
          "internalType": "contract IUniswapV3Pool",
          "name": "_collateralPool",
          "type": "address"
        },
        {
          "internalType": "contract IUniswapV3Pool",
          "name": "_protocolPool",
          "type": "address"
        }
      ],
      "name": "finalizeInitialization",
      "outputs": [],
      "stateMutability": "nonpayable",
      "type": "function"
    },
    {
      "inputs": [],
      "name": "firstPeriod",
      "outputs": [
        {
          "internalType": "uint64",
          "name": "",
          "type": "uint64"
        }
      ],
      "stateMutability": "view",
      "type": "function"
    },
    {
      "inputs": [],
      "name": "governor",
      "outputs": [
        {
          "internalType": "contract IGovernor",
          "name": "",
          "type": "address"
        }
      ],
      "stateMutability": "view",
      "type": "function"
    },
    {
      "inputs": [
        {
          "components": [
            {
              "internalType": "uint256",
              "name": "tokenId",
              "type": "uint256"
            },
            {
              "internalType": "uint256",
              "name": "amount0Desired",
              "type": "uint256"
            },
            {
              "internalType": "uint256",
              "name": "amount1Desired",
              "type": "uint256"
            },
            {
              "internalType": "uint256",
              "name": "amount0Min",
              "type": "uint256"
            },
            {
              "internalType": "uint256",
              "name": "amount1Min",
              "type": "uint256"
            },
            {
              "internalType": "uint256",
              "name": "deadline",
              "type": "uint256"
            }
          ],
          "internalType": "struct INonfungiblePositionManager.IncreaseLiquidityParams",
          "name": "params",
          "type": "tuple"
        },
        {
          "internalType": "uint32",
          "name": "ui",
          "type": "uint32"
        }
      ],
      "name": "increaseLiquidityPosition",
      "outputs": [
        {
          "internalType": "uint128",
          "name": "liquidity",
          "type": "uint128"
        }
      ],
      "stateMutability": "payable",
      "type": "function"
    },
    {
      "inputs": [
        {
          "internalType": "contract IGovernor",
          "name": "_governor",
          "type": "address"
        }
      ],
      "name": "init",
      "outputs": [],
      "stateMutability": "nonpayable",
      "type": "function"
    },
    {
      "inputs": [],
      "name": "lastPeriodGlobalRewardsAccrued",
      "outputs": [
        {
          "internalType": "uint64",
          "name": "",
          "type": "uint64"
        }
      ],
      "stateMutability": "view",
      "type": "function"
    },
    {
      "inputs": [
        {
          "internalType": "contract IUniswapV3Pool",
          "name": "pool",
          "type": "address"
        },
        {
          "internalType": "uint256[]",
          "name": "nftTokenIDs",
          "type": "uint256[]"
        }
      ],
      "name": "liquidateOutofRangePositions",
      "outputs": [],
      "stateMutability": "nonpayable",
      "type": "function"
    },
    {
      "inputs": [],
      "name": "liquidationPenalty",
      "outputs": [
        {
          "internalType": "uint64",
          "name": "",
          "type": "uint64"
        }
      ],
      "stateMutability": "view",
      "type": "function"
    },
    {
      "inputs": [],
      "name": "maxCollateralLiquidityDecreasePerPeriod",
      "outputs": [
        {
          "internalType": "uint64",
          "name": "",
          "type": "uint64"
        }
      ],
      "stateMutability": "view",
      "type": "function"
    },
    {
      "inputs": [
        {
          "internalType": "contract IUniswapV3Pool",
          "name": "",
          "type": "address"
        }
      ],
      "name": "minCollateralLiquidityByPeriod",
      "outputs": [
        {
          "internalType": "uint64",
          "name": "period",
          "type": "uint64"
        },
        {
          "internalType": "uint192",
          "name": "minLiquidity",
          "type": "uint192"
        }
      ],
      "stateMutability": "view",
      "type": "function"
    },
    {
      "inputs": [],
      "name": "minHueCountPerPosition",
      "outputs": [
        {
          "internalType": "uint128",
          "name": "",
          "type": "uint128"
        }
      ],
      "stateMutability": "view",
      "type": "function"
    },
    {
      "inputs": [],
      "name": "periodLength",
      "outputs": [
        {
          "internalType": "uint64",
          "name": "",
          "type": "uint64"
        }
      ],
      "stateMutability": "view",
      "type": "function"
    },
    {
      "inputs": [
        {
          "internalType": "uint16",
          "name": "",
          "type": "uint16"
        }
      ],
      "name": "poolConfigForPoolID",
      "outputs": [
        {
          "internalType": "contract IUniswapV3Pool",
          "name": "pool",
          "type": "address"
        },
        {
          "internalType": "uint64",
          "name": "rewardsPortion",
          "type": "uint64"
        }
      ],
      "stateMutability": "view",
      "type": "function"
    },
    {
      "inputs": [
        {
          "internalType": "contract IUniswapV3Pool",
          "name": "",
          "type": "address"
        }
      ],
      "name": "poolIDForPool",
      "outputs": [
        {
          "internalType": "uint16",
          "name": "",
          "type": "uint16"
        }
      ],
      "stateMutability": "view",
      "type": "function"
    },
    {
      "inputs": [
        {
          "internalType": "uint256",
          "name": "nftTokenID",
          "type": "uint256"
        }
      ],
      "name": "removeKickback",
      "outputs": [],
      "stateMutability": "nonpayable",
      "type": "function"
    },
    {
      "inputs": [
        {
          "components": [
            {
              "internalType": "uint256",
              "name": "tokenId",
              "type": "uint256"
            },
            {
              "internalType": "uint128",
              "name": "liquidity",
              "type": "uint128"
            },
            {
              "internalType": "uint256",
              "name": "amount0Min",
              "type": "uint256"
            },
            {
              "internalType": "uint256",
              "name": "amount1Min",
              "type": "uint256"
            },
            {
              "internalType": "uint256",
              "name": "deadline",
              "type": "uint256"
            }
          ],
          "internalType": "struct INonfungiblePositionManager.DecreaseLiquidityParams",
          "name": "params",
          "type": "tuple"
        }
      ],
      "name": "removeLiquidityPosition",
      "outputs": [
        {
          "internalType": "uint256",
          "name": "amount0",
          "type": "uint256"
        },
        {
          "internalType": "uint256",
          "name": "amount1",
          "type": "uint256"
        }
      ],
      "stateMutability": "nonpayable",
      "type": "function"
    },
    {
      "inputs": [
        {
          "internalType": "uint64",
          "name": "penalty",
          "type": "uint64"
        }
      ],
      "name": "setLiquidationPenalty",
      "outputs": [],
      "stateMutability": "nonpayable",
      "type": "function"
    },
    {
      "inputs": [
        {
          "internalType": "uint64",
          "name": "decreasePortion",
          "type": "uint64"
        }
      ],
      "name": "setMaxCollateralLiquidityDecreasePerPeriod",
      "outputs": [],
      "stateMutability": "nonpayable",
      "type": "function"
    },
    {
      "inputs": [
        {
          "internalType": "uint128",
          "name": "min",
          "type": "uint128"
        }
      ],
      "name": "setMinHueCountPerPosition",
      "outputs": [],
      "stateMutability": "nonpayable",
      "type": "function"
    },
    {
      "inputs": [
        {
          "internalType": "uint32",
          "name": "duration",
          "type": "uint32"
        }
      ],
      "name": "setTwapDuration",
      "outputs": [],
      "stateMutability": "nonpayable",
      "type": "function"
    },
    {
      "inputs": [],
      "name": "stop",
      "outputs": [],
      "stateMutability": "nonpayable",
      "type": "function"
    },
    {
      "inputs": [],
      "name": "stopped",
      "outputs": [
        {
          "internalType": "bool",
          "name": "",
          "type": "bool"
        }
      ],
      "stateMutability": "view",
      "type": "function"
    },
    {
      "inputs": [],
      "name": "twapDuration",
      "outputs": [
        {
          "internalType": "uint32",
          "name": "",
          "type": "uint32"
        }
      ],
      "stateMutability": "view",
      "type": "function"
    },
    {
      "inputs": [
        {
          "internalType": "uint16",
          "name": "poolID",
          "type": "uint16"
        },
        {
          "internalType": "uint64",
          "name": "incentive",
          "type": "uint64"
        }
      ],
      "name": "updatePoolIncentive",
      "outputs": [],
      "stateMutability": "nonpayable",
      "type": "function"
    },
    {
      "inputs": [
        {
          "internalType": "bytes4",
          "name": "",
          "type": "bytes4"
        }
      ],
      "name": "validUpdate",
      "outputs": [
        {
          "internalType": "bool",
          "name": "",
          "type": "bool"
        }
      ],
      "stateMutability": "view",
      "type": "function"
    },
    {
      "stateMutability": "payable",
      "type": "receive"
    }
  ],
  "bytecode": "0x6101206040526001600660005090905567016345785d8a0000600760006101000a81548167ffffffffffffffff021916908367ffffffffffffffff16021790555066d529ae9e860000600760086101000a81548167ffffffffffffffff021916908367ffffffffffffffff160217905550686c6b935b8bbd400000600760106101000a8154816fffffffffffffffffffffffffffffffff02191690836fffffffffffffffffffffffffffffffff160217905550610708600860006101000a81548163ffffffff021916908363ffffffff1602179055506000600860046101000a81548161ffff021916908361ffff160217905550348015620001015760006000fd5b506040516200814c3803806200814c833981810160405281019062000127919062000407565b5b6138405b5b33600160006101000a81548173ffffffffffffffffffffffffffffffffffffffff021916908373ffffffffffffffffffffffffffffffffffffffff1602179055505b60018167ffffffffffffffff166200018c6200032260201b60201c565b67ffffffffffffffff16811515620001a057fe5b040367ffffffffffffffff1660a08167ffffffffffffffff1660c01b815260080150508067ffffffffffffffff1660808167ffffffffffffffff1660c01b815260080150505b508173ffffffffffffffffffffffffffffffffffffffff16634aa4a4fc6040518163ffffffff1660e01b815260040160206040518083038186803b1580156200022f5760006000fd5b505afa15801562000245573d600060003e3d6000fd5b505050506040513d601f19601f820116820180604052508101906200026b9190620003dd565b73ffffffffffffffffffffffffffffffffffffffff1660c08173ffffffffffffffffffffffffffffffffffffffff1660601b815260140150508173ffffffffffffffffffffffffffffffffffffffff1660e08173ffffffffffffffffffffffffffffffffffffffff1660601b815260140150508073ffffffffffffffffffffffffffffffffffffffff166101008173ffffffffffffffffffffffffffffffffffffffff1660601b815260140150505b505062000466565b60006200033c426200034460201b6200213017909060201c565b905080505b90565b60006801000000000000000082101515620003ca576040517f08c379a00000000000000000000000000000000000000000000000000000000081526004018080602001828103825260118152602001807f6d6f7265207468616e203634206269747300000000000000000000000000000081526020015060200191505060405180910390fd5b819050620003d3565b9190505662000465565b600060208284031215620003ef578081fd5b8151620003fc8162000448565b809150505b92915050565b60006000604083850312156200041b578081fd5b8251620004288162000448565b8092505060208301516200043c8162000448565b809150505b9250929050565b6001600160a01b03811681141515620004615760006000fd5b5b50565b5b60805160c01c60a05160c01c60c05160601c60e05160601c6101005160601c617c3362000519600039806114fa52508061020a528061299c5280612ad35280612c8b5280612ec45280613d0d5280613fe152806140c75280614c255280614cb95280614e9c528061536952508061025f5280614bd1528061524b52806152ab5280615f435280615f97525080611d985280612fed528061498d525080611eab528061300e52806149ae5250617c336000f3fe6080604052600436106102025760003560e01c80634b8295731161011d578063c433c80a116100b0578063d5f394881161007f578063f4d8977f11610064578063f4d8977f14610814578063fbc3a64314610853578063fbff7efd1461087f576102bc565b8063d5f39488146107be578063de8925f5146107ea576102bc565b8063c433c80a14610712578063c4e3a63b1461073c578063c7bd867c14610768578063d2ca211514610792576102bc565b80636fcdfed6116100ec5780636fcdfed61461064f57806375f12b211461067b57806381cc8807146106a7578063bdd266cd146106e6576102bc565b80634b8295731461057857806350b40400146105b657806361611890146105e657806361928ecf14610610576102bc565b806317c13df611610195578063265e8a6411610164578063265e8a64146104c757806326d89545146104f857806328d10de8146105245780633e9483721461054e576102bc565b806317c13df61461042f57806319ab453c146104595780631afdbce41461048357806323f5589a1461049b576102bc565b80630c340a24116101d15780630c340a241461035a5780630dae9f5214610386578063113cf1ab146103b257806315398ae7146103f0576102bc565b8063039d10e8146102c257806306040618146102ec57806307da68f5146103185780630907653114610330576102bc565b366102bc575b7f000000000000000000000000000000000000000000000000000000000000000073ffffffffffffffffffffffffffffffffffffffff163373ffffffffffffffffffffffffffffffffffffffff1614806102ad57507f000000000000000000000000000000000000000000000000000000000000000073ffffffffffffffffffffffffffffffffffffffff163373ffffffffffffffffffffffffffffffffffffffff16145b15156102b95760006000fd5b5b005b60006000fd5b3480156102cf5760006000fd5b506102ea60048036038101906102e59190616815565b6108be565b005b3480156102f95760006000fd5b50610302610cb6565b60405161030f9190617aaf565b60405180910390f35b3480156103255760006000fd5b5061032e610cce565b005b34801561033d5760006000fd5b5061035860048036038101906103539190616dfe565b610cee565b005b3480156103675760006000fd5b50610370610d96565b60405161037d91906171d7565b60405180910390f35b3480156103935760006000fd5b5061039c610dbc565b6040516103a99190617aaf565b60405180910390f35b3480156103bf5760006000fd5b506103da60048036038101906103d591906166de565b610dd6565b6040516103e791906171c3565b60405180910390f35b3480156103fd5760006000fd5b506104186004803603810190610413919061697c565b610dfb565b604051610426929190617a27565b60405180910390f35b34801561043c5760006000fd5b506104576004803603810190610452919061689e565b610f1a565b005b3480156104665760006000fd5b50610481600480360381019061047c9190616752565b611067565b005b3480156104905760006000fd5b50610499611478565b005b3480156104a85760006000fd5b506104b16114b5565b6040516104be9190617aaf565b60405180910390f35b6104e160048036038101906104dc9190616a30565b6114cf565b6040516104ef9291906179fc565b60405180910390f35b3480156105055760006000fd5b5061050e6116c4565b60405161051b9190617a7b565b60405180910390f35b3480156105315760006000fd5b5061054c60048036038101906105479190616cc7565b6116da565b005b34801561055b5760006000fd5b5061057660048036038101906105719190616d03565b6117e4565b005b3480156105855760006000fd5b506105a0600480360381019061059b91906167ee565b6118d6565b6040516105ad9190617898565b60405180910390f35b6105d060048036038101906105cb91906169f1565b6118fc565b6040516105dd9190617850565b60405180910390f35b3480156105f35760006000fd5b5061060e600480360381019061060991906168da565b6119d1565b005b34801561061d5760006000fd5b5061063860048036038101906106339190616da6565b611aee565b604051610646929190617a27565b60405180910390f35b34801561065c5760006000fd5b50610665611c5f565b6040516106729190617898565b60405180910390f35b3480156106885760006000fd5b50610691611c73565b60405161069e91906171c3565b60405180910390f35b3480156106b45760006000fd5b506106cf60048036038101906106ca91906167ee565b611c86565b6040516106dd929190617acb565b60405180910390f35b3480156106f35760006000fd5b506106fc611ce5565b6040516107099190617aaf565b60405180910390f35b34801561071f5760006000fd5b5061073a60048036038101906107359190616dd7565b611cff565b005b3480156107495760006000fd5b50610752611d96565b60405161075f9190617aaf565b60405180910390f35b3480156107755760006000fd5b50610790600480360381019061078b9190616dfe565b611dba565b005b34801561079f5760006000fd5b506107a8611ea9565b6040516107b59190617aaf565b60405180910390f35b3480156107cb5760006000fd5b506107d4611ecd565b6040516107e1919061709c565b60405180910390f35b3480156107f75760006000fd5b50610812600480360381019061080d9190616c3f565b611ef3565b005b3480156108215760006000fd5b5061083c6004803603810190610837919061693d565b611f8a565b60405161084a929190617a27565b60405180910390f35b3480156108605760006000fd5b506108696120b3565b6040516108769190617850565b60405180910390f35b34801561088c5760006000fd5b506108a760048036038101906108a29190616ca0565b6120d5565b6040516108b5929190617309565b60405180910390f35b6108cc6121c263ffffffff16565b6108da6122a163ffffffff16565b6000600a60005060008573ffffffffffffffffffffffffffffffffffffffff1673ffffffffffffffffffffffffffffffffffffffff16815260200190815260200160002060009054906101000a900461ffff16905061093e8161239663ffffffff16565b610946616473565b6000848490509050600060405180604001604052806001151581526020016109738961240763ffffffff16565b60020b8152602001509050610986616539565b61099461255563ffffffff16565b67ffffffffffffffff1681608001909081815260200150506000600090505b83811015610c9a57600260009054906101000a900473ffffffffffffffffffffffffffffffffffffffff1673ffffffffffffffffffffffffffffffffffffffff1663f34348f18989848181101515610a0757fe5b905060200201356040518263ffffffff1660e01b8152600401610a2a91906178d6565b6101806040518083038186803b158015610a445760006000fd5b505afa158015610a59573d600060003e3d6000fd5b505050506040513d601f19601f82011682018060405250810190610a7d9190616b11565b945084508561ffff16856020015161ffff16141515610a9b57610c8d565b610aaf85846020015161257063ffffffff16565b15610ab957610c8d565b610ac8856125a363ffffffff16565b945084508787828181101515610ada57fe5b905060200201358260000190908181526020015050610b0b826000015160006000886000015161299663ffffffff16565b5050610b66610b59600760089054906101000a900467ffffffffffffffff1667ffffffffffffffff168760a001516fffffffffffffffffffffffffffffffff16612bc590919063ffffffff16565b612beb909063ffffffff16565b82602001906fffffffffffffffffffffffffffffffff1690816fffffffffffffffffffffffffffffffff1681526020015050610ba88233612c8563ffffffff16565b5050610bd782602001518660a001516fffffffffffffffffffffffffffffffff16612d7090919063ffffffff16565b82602001906fffffffffffffffffffffffffffffffff1690816fffffffffffffffffffffffffffffffff1681526020015050610c1d828660000151612c8563ffffffff16565b5050610c3482600001518685612e1d63ffffffff16565b3373ffffffffffffffffffffffffffffffffffffffff168888838181101515610c5957fe5b905060200201357f6ba13b7ae6048936f291047829a5de36835ad46b52453fff379900999074709260405160405180910390a35b80806001019150506109b3565b5050505050505b5b610cb0612f5563ffffffff16565b5b505050565b6000610cc6612fe963ffffffff16565b905080505b90565b610cdc61306263ffffffff16565b610cea6130f763ffffffff16565b5b5b565b610cfc61306263ffffffff16565b6706f05b59d3b200008167ffffffffffffffff16101515610d1d5760006000fd5b80600760086101000a81548167ffffffffffffffff021916908367ffffffffffffffff160217905550604051610d5290616fb2565b60405180910390207f8c68b65494af3e62909307c1f245424bec70c9d997e783ed41fdee7f54d7b4c082604051610d899190617a93565b60405180910390a25b5b50565b600060009054906101000a900473ffffffffffffffffffffffffffffffffffffffff1681565b600c60009054906101000a900467ffffffffffffffff1681565b600560005060205280600052604060002060009150909054906101000a900460ff1681565b60006000610e0d6121c263ffffffff16565b610e1b61314163ffffffff16565b6000610e30846000015161319663ffffffff16565b9050610e4581608001516132ac63ffffffff16565b8060a0015184602001906fffffffffffffffffffffffffffffffff1690816fffffffffffffffffffffffffffffffff1681526020015050610e90848260000151612c8563ffffffff16565b8093508194505050610eba846000015182610eaf6132f463ffffffff16565b612e1d63ffffffff16565b83600001517f1bd2c24817047e88025a4688c0fba3903e750cc05d80857de4201f42ec59bcf28484604051610ef0929190617a27565b60405180910390a282829250925050610f0556505b5b610f14612f5563ffffffff16565b5b915091565b600160149054906101000a900460ff168015610f425750600160159054906101000a900460ff165b8015610f9b5750600160009054906101000a900473ffffffffffffffffffffffffffffffffffffffff1673ffffffffffffffffffffffffffffffffffffffff163373ffffffffffffffffffffffffffffffffffffffff16145b1515610fa75760006000fd5b600160146101000a81549060ff0219169055600160156101000a81549060ff0219169055600160006101000a81549073ffffffffffffffffffffffffffffffffffffffff0219169055600161ffff1661100883610bb861330063ffffffff16565b61ffff1614151561104e576040517f08c379a00000000000000000000000000000000000000000000000000000000081526004016110459061766e565b60405180910390fd5b611060816103e861330063ffffffff16565b505b5b5050565b600160009054906101000a900473ffffffffffffffffffffffffffffffffffffffff1673ffffffffffffffffffffffffffffffffffffffff163373ffffffffffffffffffffffffffffffffffffffff161415156110c45760006000fd5b600160159054906101000a900460ff161515156110e15760006000fd5b80600060006101000a81548173ffffffffffffffffffffffffffffffffffffffff021916908373ffffffffffffffffffffffffffffffffffffffff160217905550600060009054906101000a900473ffffffffffffffffffffffffffffffffffffffff1673ffffffffffffffffffffffffffffffffffffffff16639624e83e6040518163ffffffff1660e01b815260040160206040518083038186803b15801561118b5760006000fd5b505afa1580156111a0573d600060003e3d6000fd5b505050506040513d601f19601f820116820180604052508101906111c4919061672b565b600260006101000a81548173ffffffffffffffffffffffffffffffffffffffff021916908373ffffffffffffffffffffffffffffffffffffffff160217905550600060009054906101000a900473ffffffffffffffffffffffffffffffffffffffff1673ffffffffffffffffffffffffffffffffffffffff1663323741746040518163ffffffff1660e01b815260040160206040518083038186803b15801561126d5760006000fd5b505afa158015611282573d600060003e3d6000fd5b505050506040513d601f19601f820116820180604052508101906112a69190616779565b600360006101000a81548173ffffffffffffffffffffffffffffffffffffffff021916908373ffffffffffffffffffffffffffffffffffffffff160217905550600060009054906101000a900473ffffffffffffffffffffffffffffffffffffffff1673ffffffffffffffffffffffffffffffffffffffff1663d478b0876040518163ffffffff1660e01b815260040160206040518083038186803b15801561134f5760006000fd5b505afa158015611364573d600060003e3d6000fd5b505050506040513d601f19601f8201168201806040525081019061138891906167c7565b600460006101000a81548173ffffffffffffffffffffffffffffffffffffffff021916908373ffffffffffffffffffffffffffffffffffffffff1602179055506113d661376c63ffffffff16565b600160149054906101000a900460ff161561140b576001600160156101000a81548160ff021916908315150217905550611431565b600160006101000a81549073ffffffffffffffffffffffffffffffffffffffff02191690555b8073ffffffffffffffffffffffffffffffffffffffff167f908408e307fc569b417f6cbec5d5a06f44a0a505ac0479b47d421a4b2fd6a1e660405160405180910390a25b50565b6114866121c263ffffffff16565b61149461314163ffffffff16565b6114a26139fd63ffffffff16565b5b5b6114b2612f5563ffffffff16565b5b565b600760089054906101000a900467ffffffffffffffff1681565b600060006114e16121c263ffffffff16565b6114ef6122a163ffffffff16565b6000600a60005060007f000000000000000000000000000000000000000000000000000000000000000073ffffffffffffffffffffffffffffffffffffffff16631698ee82886000015189602001518a604001516040518463ffffffff1660e01b81526004016115619392919061711b565b60206040518083038186803b15801561157a5760006000fd5b505afa15801561158f573d600060003e3d6000fd5b505050506040513d601f19601f820116820180604052508101906115b3919061668a565b73ffffffffffffffffffffffffffffffffffffffff1673ffffffffffffffffffffffffffffffffffffffff16815260200190815260200160002060009054906101000a900461ffff16905061160d8161239663ffffffff16565b61161c85613c7963ffffffff16565b80935081945050506116408382876060015188608001518689613de163ffffffff16565b828161ffff163373ffffffffffffffffffffffffffffffffffffffff167f87c666eb8f5e2d1a47a2af419127c84ea830d86b5f75e12ca3dafa33323d9122886060015189608001518760405161169893929190617342565b60405180910390a4828292509250506116ad56505b5b6116bc612f5563ffffffff16565b5b9250929050565b600860009054906101000a900463ffffffff1681565b6116e861306263ffffffff16565b6116f78261239663ffffffff16565b6117056139fd63ffffffff16565b80600960005060008461ffff1661ffff16815260200190815260200160002060005060000160146101000a81548167ffffffffffffffff021916908367ffffffffffffffff1602179055506000611760613f3c63ffffffff16565b1115156117a2576040517f08c379a0000000000000000000000000000000000000000000000000000000008152600401611799906174f4565b60405180910390fd5b8161ffff167fcf476913af040a8c0a50588902fc980c73de756444694afb625e05906334404f826040516117d69190617aaf565b60405180910390a25b5b5050565b6117f26121c263ffffffff16565b6118006122a163ffffffff16565b60006118118261319663ffffffff16565b9050600081610120019063ffffffff16908163ffffffff1681526020015050600260009054906101000a900473ffffffffffffffffffffffffffffffffffffffff1673ffffffffffffffffffffffffffffffffffffffff1663816aaa2583836040518363ffffffff1660e01b815260040161188d929190617917565b600060405180830381600087803b1580156118a85760006000fd5b505af11580156118bd573d600060003e3d6000fd5b50505050505b5b6118d2612f5563ffffffff16565b5b50565b600a60005060205280600052604060002060009150909054906101000a900461ffff1681565b600061190c6121c263ffffffff16565b61191a6122a163ffffffff16565b600061192f846000013561319663ffffffff16565b90508281610120019063ffffffff16908163ffffffff168152602001505061195c84613fd963ffffffff16565b915081506119758185600001358461419163ffffffff16565b83600001357fcc5b49b47bfd2f61894e4c8977343543aa054a11ae847be904355459ce55dcd9836040516119a99190617850565b60405180910390a2819150506119bb56505b5b6119ca612f5563ffffffff16565b5b92915050565b6119df61306263ffffffff16565b6000600a60005060008473ffffffffffffffffffffffffffffffffffffffff1673ffffffffffffffffffffffffffffffffffffffff16815260200190815260200160002060009054906101000a900461ffff1661ffff16141515611a78576040517f08c379a0000000000000000000000000000000000000000000000000000000008152600401611a6f90617572565b60405180910390fd5b611a866139fd63ffffffff16565b611a96828261330063ffffffff16565b61ffff168273ffffffffffffffffffffffffffffffffffffffff167fb42c51dce17f5346a481b9dd503edc20c8b6de38b22e12b35a5c77c131fb38ac83604051611ae09190617aaf565b60405180910390a35b5b5050565b60006000611b006121c263ffffffff16565b611b0e61314163ffffffff16565b6000611b1f8561319663ffffffff16565b90508381610120019063ffffffff16908163ffffffff1681526020015050600260009054906101000a900473ffffffffffffffffffffffffffffffffffffffff1673ffffffffffffffffffffffffffffffffffffffff1663816aaa2586836040518363ffffffff1660e01b8152600401611b9a929190617917565b600060405180830381600087803b158015611bb55760006000fd5b505af1158015611bca573d600060003e3d6000fd5b50505050611be285600060003361299663ffffffff16565b8093508194505050843373ffffffffffffffffffffffffffffffffffffffff167f56253d287efacdb2c4cd76dd03624a4821c1ce721d1152e8f5f5718f6087c9bf8585604051611c33929190617a27565b60405180910390a382829250925050611c4856505b5b611c57612f5563ffffffff16565b5b9250929050565b600860049054906101000a900461ffff1681565b600060149054906101000a900460ff1681565b600b6000506020528060005260406000206000915090508060000160009054906101000a900467ffffffffffffffff16908060000160089054906101000a900477ffffffffffffffffffffffffffffffffffffffffffffffff16905082565b600760009054906101000a900467ffffffffffffffff1681565b611d0d61306263ffffffff16565b61012c8163ffffffff1610151515611d255760006000fd5b80600860006101000a81548163ffffffff021916908363ffffffff160217905550604051611d5290617014565b60405180910390207f182c40dc868824a9ba74a72504cd7ec63c58ed862a8ffe9f935d6ff47bd3731482604051611d899190617a63565b60405180910390a25b5b50565b7f000000000000000000000000000000000000000000000000000000000000000081565b611dc861306263ffffffff16565b80600760006101000a81548167ffffffffffffffff021916908367ffffffffffffffff160217905550600760009054906101000a900467ffffffffffffffff1667ffffffffffffffff166000101515611e215760006000fd5b670de0b6b3a7640000600760009054906101000a900467ffffffffffffffff1667ffffffffffffffff1611151515611e595760006000fd5b604051611e6590617045565b60405180910390207f8c68b65494af3e62909307c1f245424bec70c9d997e783ed41fdee7f54d7b4c082604051611e9c9190617a93565b60405180910390a25b5b50565b7f000000000000000000000000000000000000000000000000000000000000000081565b600160009054906101000a900473ffffffffffffffffffffffffffffffffffffffff1681565b611f0161306263ffffffff16565b80600760106101000a8154816fffffffffffffffffffffffffffffffff02191690836fffffffffffffffffffffffffffffffff160217905550604051611f4690616fe3565b60405180910390207f5dcbeda12d93d481d59e4737a9a13ecea80702296bebdded1a20a76d645829c282604051611f7d9190617874565b60405180910390a25b5b50565b60006000611f9c6121c263ffffffff16565b611faa6122a163ffffffff16565b6000611fbf856000013561319663ffffffff16565b9050611fd481608001516132ac63ffffffff16565b8381610120019063ffffffff16908163ffffffff168152602001505061201485803603810190612004919061697c565b8260000151612c8563ffffffff16565b80935081945050506120518186600001358760200160208101906120389190616c3f565b6120466132f463ffffffff16565b61440d63ffffffff16565b84600001357ffafb1711250bf0d3906bfd9c4386a9a5a5fdf9ac1facdc9dfd2addad7d3f72e78484604051612087929190617a27565b60405180910390a28182925092505061209c56505b5b6120ab612f5563ffffffff16565b5b9250929050565b600760109054906101000a90046fffffffffffffffffffffffffffffffff1681565b60096000506020528060005260406000206000915090508060000160009054906101000a900473ffffffffffffffffffffffffffffffffffffffff16908060000160149054906101000a900467ffffffffffffffff16905082565b600068010000000000000000821015156121b5576040517f08c379a00000000000000000000000000000000000000000000000000000000081526004018080602001828103825260118152602001807f6d6f7265207468616e203634206269747300000000000000000000000000000081526020015060200191505060405180910390fd5b8190506121bd565b919050565b600460009054906101000a900473ffffffffffffffffffffffffffffffffffffffff1673ffffffffffffffffffffffffffffffffffffffff1663e97dcb626040518163ffffffff1660e01b8152600401600060405180830381600087803b15801561222d5760006000fd5b505af1158015612242573d600060003e3d6000fd5b50505050600260066000505414151515612291576040517f08c379a0000000000000000000000000000000000000000000000000000000008152600401612288906174b5565b60405180910390fd5b600260066000508190909055505b565b6122af61314163ffffffff16565b600060009054906101000a900473ffffffffffffffffffffffffffffffffffffffff1673ffffffffffffffffffffffffffffffffffffffff1663bf86d6906040518163ffffffff1660e01b815260040160206040518083038186803b1580156123185760006000fd5b505afa15801561232d573d600060003e3d6000fd5b505050506040513d601f19601f8201168201806040525081019061235191906166b1565b151515612393576040517f08c379a000000000000000000000000000000000000000000000000000000000815260040161238a9061737a565b60405180910390fd5b5b565b8061ffff1660001080156123c25750600860049054906101000a900461ffff1661ffff168161ffff1611155b1515612403576040517f08c379a00000000000000000000000000000000000000000000000000000000081526004016123fa906175b1565b60405180910390fd5b5b50565b6000600060009054906101000a900473ffffffffffffffffffffffffffffffffffffffff1673ffffffffffffffffffffffffffffffffffffffff1663d3419bf36040518163ffffffff1660e01b815260040160206040518083038186803b1580156124725760006000fd5b505afa158015612487573d600060003e3d6000fd5b505050506040513d601f19601f820116820180604052508101906124ab91906167a0565b73ffffffffffffffffffffffffffffffffffffffff1663fcebd71c83600860009054906101000a900463ffffffff166040518363ffffffff1660e01b81526004016124f79291906172d4565b60206040518083038186803b1580156125105760006000fd5b505afa158015612525573d600060003e3d6000fd5b505050506040513d601f19601f820116820180604052508101906125499190616916565b9050612550565b919050565b600061256842612130909063ffffffff16565b905080505b90565b60008160020b8360e0015160020b13158015612596575082610100015160020b8260020b125b905061259d565b92915050565b6125ab616473565b60006125bb61488563ffffffff16565b905060006125ce8261498663ffffffff16565b905060008460c001519050600060008267ffffffffffffffff1614612601576125fc8261498663ffffffff16565b612604565b60005b90508067ffffffffffffffff168367ffffffffffffffff1611151561262f5785945050505050612991565b61263d6139fd63ffffffff16565b600061270087600260009054906101000a900473ffffffffffffffffffffffffffffffffffffffff1673ffffffffffffffffffffffffffffffffffffffff166351ad51f78a602001516040518263ffffffff1660e01b81526004016126a29190617898565b60406040518083038186803b1580156126bb5760006000fd5b505afa1580156126d0573d600060003e3d6000fd5b505050506040513d601f19601f820116820180604052508101906126f49190616bf3565b87614a0e63ffffffff16565b8092508197505050600081111561297f57600073ffffffffffffffffffffffffffffffffffffffff1686610140015173ffffffffffffffffffffffffffffffffffffffff16141580156127625750600086610160015167ffffffffffffffff16115b1561289357600061278b87610160015167ffffffffffffffff1683612bc590919063ffffffff16565b9050600060009054906101000a900473ffffffffffffffffffffffffffffffffffffffff1673ffffffffffffffffffffffffffffffffffffffff1663ef7a7cfa886101400151836040518363ffffffff1660e01b81526004016127ef92919061715a565b600060405180830381600087803b15801561280a5760006000fd5b505af115801561281f573d600060003e3d6000fd5b505050506001151587610140015173ffffffffffffffffffffffffffffffffffffffff167f8079a05488a0f375c08504c3ba8b3a1371f5a192b7a141bc9294ef7ad41389d98360405161287291906178d6565b60405180910390a361288d8183614b4690919063ffffffff16565b91508150505b600060009054906101000a900473ffffffffffffffffffffffffffffffffffffffff1673ffffffffffffffffffffffffffffffffffffffff1663ef7a7cfa8760000151836040518363ffffffff1660e01b81526004016128f492919061715a565b600060405180830381600087803b15801561290f5760006000fd5b505af1158015612924573d600060003e3d6000fd5b5050505060001515866000015173ffffffffffffffffffffffffffffffffffffffff167f8079a05488a0f375c08504c3ba8b3a1371f5a192b7a141bc9294ef7ad41389d98360405161297691906178d6565b60405180910390a35b85955050505050506129915650505050505b919050565b600060007f000000000000000000000000000000000000000000000000000000000000000073ffffffffffffffffffffffffffffffffffffffff1663fc6f78656040518060800160405280898152602001600073ffffffffffffffffffffffffffffffffffffffff1681526020016fffffffffffffffffffffffffffffffff6fffffffffffffffffffffffffffffffff1681526020016fffffffffffffffffffffffffffffffff6fffffffffffffffffffffffffffffffff168152602001506040518263ffffffff1660e01b8152600401612a7191906176ad565b604060405180830381600087803b158015612a8c5760006000fd5b505af1158015612aa1573d600060003e3d6000fd5b505050506040513d601f19601f82011682018060405250810190612ac59190616d80565b8092508193505050600060007f000000000000000000000000000000000000000000000000000000000000000073ffffffffffffffffffffffffffffffffffffffff166399fbab88896040518263ffffffff1660e01b8152600401612b2a91906178d6565b6101806040518083038186803b158015612b445760006000fd5b505afa158015612b59573d600060003e3d6000fd5b505050506040513d601f19601f82011682018060405250810190612b7d9190616e4c565b5050505050505050935093505050612b9c828887614bcf63ffffffff16565b612bad818787614bcf63ffffffff16565b8383935093505050612bbc5650505b94509492505050565b6000612be08383670de0b6b3a7640000614d4f63ffffffff16565b905080505b92915050565b600070010000000000000000000000000000000082101515612c78576040517f08c379a00000000000000000000000000000000000000000000000000000000081526004018080602001828103825260128152602001807f6d6f7265207468616e203132382062697473000000000000000000000000000081526020015060200191505060405180910390fd5b819050612c80565b919050565b600060007f000000000000000000000000000000000000000000000000000000000000000073ffffffffffffffffffffffffffffffffffffffff16630c49ccbe856040518263ffffffff1660e01b8152600401612ce2919061770c565b604060405180830381600087803b158015612cfd5760006000fd5b505af1158015612d12573d600060003e3d6000fd5b505050506040513d601f19601f82011682018060405250810190612d369190616d80565b8092508193505050612d5c8460000151856040015186606001518661299663ffffffff16565b5050808191509150612d69565b9250929050565b6000826fffffffffffffffffffffffffffffffff168284039150816fffffffffffffffffffffffffffffffff1611151515612e16576040517f08c379a000000000000000000000000000000000000000000000000000000000815260040180806020018281038252600d8152602001807f7375622d756e646572666c6f770000000000000000000000000000000000000081526020015060200191505060405180910390fd5b5b92915050565b612e3382848460a001518461440d63ffffffff16565b600260009054906101000a900473ffffffffffffffffffffffffffffffffffffffff1673ffffffffffffffffffffffffffffffffffffffff166326879a4e846040518263ffffffff1660e01b8152600401612e8e91906178d6565b600060405180830381600087803b158015612ea95760006000fd5b505af1158015612ebe573d600060003e3d6000fd5b505050507f000000000000000000000000000000000000000000000000000000000000000073ffffffffffffffffffffffffffffffffffffffff166342966c68846040518263ffffffff1660e01b8152600401612f1b91906178d6565b600060405180830381600087803b158015612f365760006000fd5b505af1158015612f4b573d600060003e3d6000fd5b505050505b505050565b60016006600050819090905550600460009054906101000a900473ffffffffffffffffffffffffffffffffffffffff1673ffffffffffffffffffffffffffffffffffffffff1663e9fad8ee6040518163ffffffff1660e01b8152600401600060405180830381600087803b158015612fcd5760006000fd5b505af1158015612fe2573d600060003e3d6000fd5b505050505b565b60007f00000000000000000000000000000000000000000000000000000000000000007f000000000000000000000000000000000000000000000000000000000000000067ffffffffffffffff1661304561255563ffffffff16565b67ffffffffffffffff1681151561305857fe5b0403905080505b90565b600060009054906101000a900473ffffffffffffffffffffffffffffffffffffffff1673ffffffffffffffffffffffffffffffffffffffff163373ffffffffffffffffffffffffffffffffffffffff161415156130f4576040517f08c379a00000000000000000000000000000000000000000000000000000000081526004016130eb90617476565b60405180910390fd5b5b565b6001600060146101000a81548160ff0219169083151502179055507f7acc84e34091ae817647a4c49116f5cc07f319078ba80f8f5fde37ea7e25cbd660405160405180910390a15b565b600060149054906101000a900460ff16151515613193576040517f08c379a000000000000000000000000000000000000000000000000000000000815260040161318a906175f0565b60405180910390fd5b5b565b61319e616473565b61325a600260009054906101000a900473ffffffffffffffffffffffffffffffffffffffff1673ffffffffffffffffffffffffffffffffffffffff1663f34348f1846040518263ffffffff1660e01b81526004016131fc91906178d6565b6101806040518083038186803b1580156132165760006000fd5b505afa15801561322b573d600060003e3d6000fd5b505050506040513d601f19601f8201168201806040525081019061324f9190616b11565b6125a363ffffffff16565b9050805061329f816000015173ffffffffffffffffffffffffffffffffffffffff163373ffffffffffffffffffffffffffffffffffffffff1614614e5063ffffffff16565b8090506132a7565b919050565b43811015156132f0576040517f08c379a00000000000000000000000000000000000000000000000000000000081526004016132e79061762f565b60405180910390fd5b5b50565b6132fc61657d565b5b90565b60006000600a60005060008573ffffffffffffffffffffffffffffffffffffffff1673ffffffffffffffffffffffffffffffffffffffff16815260200190815260200160002060009054906101000a900461ffff1661ffff1614151561339b576040517f08c379a000000000000000000000000000000000000000000000000000000000815260040161339290617437565b60405180910390fd5b61ffff61ffff166008600481819054906101000a900461ffff1660010191906101000a81548161ffff021916908361ffff160217905561ffff161015156133e25760006000fd5b600060009054906101000a900473ffffffffffffffffffffffffffffffffffffffff1673ffffffffffffffffffffffffffffffffffffffff1663d3419bf36040518163ffffffff1660e01b815260040160206040518083038186803b15801561344b5760006000fd5b505afa158015613460573d600060003e3d6000fd5b505050506040513d601f19601f8201168201806040525081019061348491906167a0565b73ffffffffffffffffffffffffffffffffffffffff1663407431f7846040518263ffffffff1660e01b81526004016134bc91906171ff565b600060405180830381600087803b1580156134d75760006000fd5b505af11580156134ec573d600060003e3d6000fd5b50505050600860049054906101000a900461ffff169050805060405180604001604052808473ffffffffffffffffffffffffffffffffffffffff1681526020018367ffffffffffffffff16815260200150600960005060008361ffff1661ffff16815260200190815260200160002060005060008201518160000160006101000a81548173ffffffffffffffffffffffffffffffffffffffff021916908373ffffffffffffffffffffffffffffffffffffffff16021790555060208201518160000160146101000a81548167ffffffffffffffff021916908367ffffffffffffffff16021790555090505080600a60005060008573ffffffffffffffffffffffffffffffffffffffff1673ffffffffffffffffffffffffffffffffffffffff16815260200190815260200160002060006101000a81548161ffff021916908361ffff1602179055506136c28373ffffffffffffffffffffffffffffffffffffffff16630dfe16816040518163ffffffff1660e01b815260040160206040518083038186803b15801561367e5760006000fd5b505afa158015613693573d600060003e3d6000fd5b505050506040513d601f19601f820116820180604052508101906136b7919061668a565b614e9663ffffffff16565b6137508373ffffffffffffffffffffffffffffffffffffffff1663d21220a76040518163ffffffff1660e01b815260040160206040518083038186803b15801561370c5760006000fd5b505afa158015613721573d600060003e3d6000fd5b505050506040513d601f19601f82011682018060405250810190613745919061668a565b614e9663ffffffff16565b61375e6139fd63ffffffff16565b809050613766565b92915050565b60006040518060c00160405280636161189060e01b7bffffffffffffffffffffffffffffffffffffffffffffffffffffffff19167bffffffffffffffffffffffffffffffffffffffffffffffffffffffff191681526020016328d10de860e01b7bffffffffffffffffffffffffffffffffffffffffffffffffffffffff19167bffffffffffffffffffffffffffffffffffffffffffffffffffffffff1916815260200163c7bd867c60e01b7bffffffffffffffffffffffffffffffffffffffffffffffffffffffff19167bffffffffffffffffffffffffffffffffffffffffffffffffffffffff1916815260200163de8925f560e01b7bffffffffffffffffffffffffffffffffffffffffffffffffffffffff19167bffffffffffffffffffffffffffffffffffffffffffffffffffffffff1916815260200163c433c80a60e01b7bffffffffffffffffffffffffffffffffffffffffffffffffffffffff19167bffffffffffffffffffffffffffffffffffffffffffffffffffffffff19168152602001630907653160e01b7bffffffffffffffffffffffffffffffffffffffffffffffffffffffff19167bffffffffffffffffffffffffffffffffffffffffffffffffffffffff191681526020015090506000600090505b815060068110156139dd57600160056000506000848460068110151561396757fe5b60200201517bffffffffffffffffffffffffffffffffffffffffffffffffffffffff19167bffffffffffffffffffffffffffffffffffffffffffffffffffffffff1916815260200190815260200160002060006101000a81548160ff0219169083151502179055505b8080600101915050613945565b506001600160146101000a81548160ff021916908315150217905550505b565b6000613a0d614eeb63ffffffff16565b9050600c60009054906101000a900467ffffffffffffffff1667ffffffffffffffff168167ffffffffffffffff16111515613a485750613c77565b6000600c60009054906101000a900467ffffffffffffffff1682039050600061384067ffffffffffffffff1662015180811515613a8157fe5b0467ffffffffffffffff16613b4c8367ffffffffffffffff16600060009054906101000a900473ffffffffffffffffffffffffffffffffffffffff1673ffffffffffffffffffffffffffffffffffffffff166318c7de176040518163ffffffff1660e01b8152600401602060405180830381600087803b158015613b055760006000fd5b505af1158015613b1a573d600060003e3d6000fd5b505050506040513d601f19601f82011682018060405250810190613b3e9190616d1f565b614f1390919063ffffffff16565b811515613b5557fe5b0490506000600860049054906101000a900461ffff16905060006000613b7f613f3c63ffffffff16565b90506001915081505b8261ffff168261ffff16111515613c0e57613c0082613bf4600960005060008661ffff1661ffff16815260200190815260200160002060005060000160149054906101000a900467ffffffffffffffff1667ffffffffffffffff168488614d4f9092919063ffffffff16565b87614fb163ffffffff16565b5b8180600101925050613b88565b85600c60006101000a81548167ffffffffffffffff021916908367ffffffffffffffff1602179055507f095a67d1e9698fe0eebf9cff79a22f6423cebcb4e386a0bdd7e12330d86381ed8486604051613c68929190617a40565b60405180910390a15050505050505b565b60006000613c9583600001518460a0015161524963ffffffff16565b613cad83602001518460c0015161524963ffffffff16565b600260009054906101000a900473ffffffffffffffffffffffffffffffffffffffff1683610120019073ffffffffffffffffffffffffffffffffffffffff16908173ffffffffffffffffffffffffffffffffffffffff16815260200150507f000000000000000000000000000000000000000000000000000000000000000073ffffffffffffffffffffffffffffffffffffffff166388316456846040518263ffffffff1660e01b8152600401613d64919061779e565b608060405180830381600087803b158015613d7f5760006000fd5b505af1158015613d94573d600060003e3d6000fd5b505050506040513d601f19601f82011682018060405250810190613db89190616d3b565b9050508092508193505050613ddb8360000151846020015161534963ffffffff16565b5b915091565b600260009054906101000a900473ffffffffffffffffffffffffffffffffffffffff1673ffffffffffffffffffffffffffffffffffffffff166375ea13ca33886040518363ffffffff1660e01b8152600401613e3e9291906170ec565b600060405180830381600087803b158015613e595760006000fd5b505af1158015613e6e573d600060003e3d6000fd5b50505050613e7a616473565b33816000019073ffffffffffffffffffffffffffffffffffffffff16908173ffffffffffffffffffffffffffffffffffffffff168152602001505085816020019061ffff16908161ffff1681526020015050848160e0019060020b908160020b815260200150508381610100019060020b908160020b815260200150508181610120019063ffffffff16908163ffffffff1681526020015050613f32613f25826125a363ffffffff16565b888561419163ffffffff16565b505b505050505050565b60006000600190505b600860049054906101000a900461ffff1661ffff168161ffff16111515613fcd57613fbb600960005060008361ffff1661ffff16815260200190815260200160002060005060000160149054906101000a900467ffffffffffffffff1667ffffffffffffffff168361540890919063ffffffff16565b915081505b8080600101915050613f45565b50809050613fd6565b90565b6000600060007f000000000000000000000000000000000000000000000000000000000000000073ffffffffffffffffffffffffffffffffffffffff166399fbab8885600001356040518263ffffffff1660e01b815260040161403c91906178d6565b6101806040518083038186803b1580156140565760006000fd5b505afa15801561406b573d600060003e3d6000fd5b505050506040513d601f19601f8201168201806040525081019061408f9190616e4c565b50505050505050509350935050506140b182856020013561524963ffffffff16565b6140c581856040013561524963ffffffff16565b7f000000000000000000000000000000000000000000000000000000000000000073ffffffffffffffffffffffffffffffffffffffff1663219f5d17856040518263ffffffff1660e01b815260040161411e9190617759565b606060405180830381600087803b1580156141395760006000fd5b505af115801561414e573d600060003e3d6000fd5b505050506040513d601f19601f820116820180604052508101906141729190616c66565b90505080935050614189828261534963ffffffff16565b50505b919050565b600060096000506000856020015161ffff1661ffff16815260200190815260200160002060005060000160009054906101000a900473ffffffffffffffffffffffffffffffffffffffff16905060006141ef8261240763ffffffff16565b9050614201858261257063ffffffff16565b1515614242576040517f08c379a0000000000000000000000000000000000000000000000000000000008152600401614239906173b9565b60405180910390fd5b61427c858284614271878a60a001516fffffffffffffffffffffffffffffffff1661549190919063ffffffff16565b61553e63ffffffff16565b600260009054906101000a900473ffffffffffffffffffffffffffffffffffffffff1673ffffffffffffffffffffffffffffffffffffffff16631428561d83856040518363ffffffff1660e01b81526004016142d9929190617293565b600060405180830381600087803b1580156142f45760006000fd5b505af1158015614309573d600060003e3d6000fd5b50505050670de0b6b3a7640000600760009054906101000a900467ffffffffffffffff1667ffffffffffffffff161080156143505750600161ffff16856020015161ffff16145b15614365576143648261573b63ffffffff16565b5b438560800190908181526020015050600260009054906101000a900473ffffffffffffffffffffffffffffffffffffffff1673ffffffffffffffffffffffffffffffffffffffff1663816aaa2585876040518363ffffffff1660e01b81526004016143d1929190617917565b600060405180830381600087803b1580156143ec5760006000fd5b505af1158015614401573d600060003e3d6000fd5b5050505050505b505050565b600060096000506000866020015161ffff1661ffff16815260200190815260200160002060005060000160009054906101000a900473ffffffffffffffffffffffffffffffffffffffff16905060008260000151614479576144748261240763ffffffff16565b61447f565b82602001515b90506000670de0b6b3a7640000600760009054906101000a900467ffffffffffffffff1667ffffffffffffffff161080156144c65750600161ffff16876020015161ffff16145b80156144de57506144dd878361257063ffffffff16565b5b80156145895750600060009054906101000a900473ffffffffffffffffffffffffffffffffffffffff1673ffffffffffffffffffffffffffffffffffffffff1663bf86d6906040518163ffffffff1660e01b815260040160206040518083038186803b15801561454e5760006000fd5b505afa158015614563573d600060003e3d6000fd5b505050506040513d601f19601f8201168201806040525081019061458791906166b1565b155b90506145c58783856145ba898c60a001516fffffffffffffffffffffffffffffffff16612d7090919063ffffffff16565b61553e63ffffffff16565b80156145db576145da8361573b63ffffffff16565b5b600260009054906101000a900473ffffffffffffffffffffffffffffffffffffffff1673ffffffffffffffffffffffffffffffffffffffff1663530c1ccb84876040518363ffffffff1660e01b8152600401614638929190617293565b600060405180830381600087803b1580156146535760006000fd5b505af1158015614668573d600060003e3d6000fd5b5050505080156147ea57600b60005060008473ffffffffffffffffffffffffffffffffffffffff1673ffffffffffffffffffffffffffffffffffffffff16815260200190815260200160002060005060000160089054906101000a900477ffffffffffffffffffffffffffffffffffffffffffffffff1677ffffffffffffffffffffffffffffffffffffffffffffffff16600260009054906101000a900473ffffffffffffffffffffffffffffffffffffffff1673ffffffffffffffffffffffffffffffffffffffff1663a135ef17856040518263ffffffff1660e01b815260040161475491906171ff565b60206040518083038186803b15801561476d5760006000fd5b505afa158015614782573d600060003e3d6000fd5b505050506040513d601f19601f820116820180604052508101906147a69190616d1f565b101515156147e9576040517f08c379a00000000000000000000000000000000000000000000000000000000081526004016147e0906173f8565b60405180910390fd5b5b600260009054906101000a900473ffffffffffffffffffffffffffffffffffffffff1673ffffffffffffffffffffffffffffffffffffffff1663816aaa2587896040518363ffffffff1660e01b8152600401614847929190617917565b600060405180830381600087803b1580156148625760006000fd5b505af1158015614877573d600060003e3d6000fd5b505050505050505b50505050565b6000600061489761255563ffffffff16565b90506000600060009054906101000a900473ffffffffffffffffffffffffffffffffffffffff1673ffffffffffffffffffffffffffffffffffffffff1663585690816040518163ffffffff1660e01b815260040160206040518083038186803b1580156149045760006000fd5b505afa158015614919573d600060003e3d6000fd5b505050506040513d601f19601f8201168201806040525081019061493d9190616e25565b90508067ffffffffffffffff16600010801561496c57508167ffffffffffffffff168167ffffffffffffffff16105b6149765781614978565b805b925050506149835650505b90565b6000614a047f00000000000000000000000000000000000000000000000000000000000000007f000000000000000000000000000000000000000000000000000000000000000067ffffffffffffffff168467ffffffffffffffff168115156149eb57fe5b0467ffffffffffffffff166159d590919063ffffffff16565b905080505b919050565b614a16616473565b6000849150815060008260a001516fffffffffffffffffffffffffffffffff161115614aea57614ae5614a608360c001518567ffffffffffffffff166159d590919063ffffffff16565b67ffffffffffffffff1661384067ffffffffffffffff16614ad6614a9586606001518960000151614b4690919063ffffffff16565b614ab087604001518a60200151614b4690919063ffffffff16565b8760a001516fffffffffffffffffffffffffffffffff16614d4f9092919063ffffffff16565b614d4f9092919063ffffffff16565b905080505b8360000151826060019090818152602001505083602001518260400190908181526020015050828260c0019067ffffffffffffffff16908167ffffffffffffffff1681526020015050818191509150614b3e565b935093915050565b60008282840391508111151515614bc8576040517f08c379a000000000000000000000000000000000000000000000000000000000815260040180806020018281038252600d8152602001807f7375622d756e646572666c6f770000000000000000000000000000000000000081526020015060200191505060405180910390fd5b5b92915050565b7f000000000000000000000000000000000000000000000000000000000000000073ffffffffffffffffffffffffffffffffffffffff168373ffffffffffffffffffffffffffffffffffffffff161415614cb7577f000000000000000000000000000000000000000000000000000000000000000073ffffffffffffffffffffffffffffffffffffffff166349404b7c83836040518363ffffffff1660e01b8152600401614c7e9291906178e8565b600060405180830381600087803b158015614c995760006000fd5b505af1158015614cae573d600060003e3d6000fd5b50505050614d49565b7f000000000000000000000000000000000000000000000000000000000000000073ffffffffffffffffffffffffffffffffffffffff1663df2ab5bb8484846040518463ffffffff1660e01b8152600401614d1493929190617189565b600060405180830381600087803b158015614d2f5760006000fd5b505af1158015614d44573d600060003e3d6000fd5b505050505b5b505050565b6000600060006000198587098587029250828110838203039150506000811415614d9257600084111515614d835760006000fd5b83820492508292505050614e49565b8084111515614da15760006000fd5b6000848688099050828111820391508083039250600085866000031690508086049550808404935060018182600003040190508083028417935083506000600287600302189050808702600203810290508050808702600203810290508050808702600203810290508050808702600203810290508050808702600203810290508050808702600203810290508050808502955085508595505050505050614e495650505050505b9392505050565b801515614e92576040517f08c379a0000000000000000000000000000000000000000000000000000000008152600401614e8990617476565b60405180910390fd5b5b50565b614ee7817f00000000000000000000000000000000000000000000000000000000000000007fffffffffffffffffffffffffffffffffffffffffffffffffffffffffffffffff615a7263ffffffff16565b5b50565b6000614f09614efe61488563ffffffff16565b61498663ffffffff16565b9050614f10565b90565b60006000821480614f3357508282838502925082811515614f3057fe5b04145b1515614faa576040517f08c379a000000000000000000000000000000000000000000000000000000000815260040180806020018281038252600c8152602001807f6d756c2d6f766572666c6f77000000000000000000000000000000000000000081526020015060200191505060405180910390fd5b5b92915050565b6000600260009054906101000a900473ffffffffffffffffffffffffffffffffffffffff1673ffffffffffffffffffffffffffffffffffffffff166351ad51f7856040518263ffffffff1660e01b815260040161500e9190617898565b60406040518083038186803b1580156150275760006000fd5b505afa15801561503c573d600060003e3d6000fd5b505050506040513d601f19601f820116820180604052508101906150609190616bf3565b9050600260009054906101000a900473ffffffffffffffffffffffffffffffffffffffff1673ffffffffffffffffffffffffffffffffffffffff1663f70996078560405180604001604052806150c388876000015161540890919063ffffffff16565b81526020016151eb6151d88867ffffffffffffffff16600260009054906101000a900473ffffffffffffffffffffffffffffffffffffffff1673ffffffffffffffffffffffffffffffffffffffff1663a135ef17600960005060008f61ffff1661ffff16815260200190815260200160002060005060000160009054906101000a900473ffffffffffffffffffffffffffffffffffffffff166040518263ffffffff1660e01b815260040161517891906171ff565b60206040518083038186803b1580156151915760006000fd5b505afa1580156151a6573d600060003e3d6000fd5b505050506040513d601f19601f820116820180604052508101906151ca9190616d1f565b614f1390919063ffffffff16565b876020015161540890919063ffffffff16565b8152602001506040518363ffffffff1660e01b815260040161520e9291906178ae565b600060405180830381600087803b1580156152295760006000fd5b505af115801561523e573d600060003e3d6000fd5b50505050505b505050565b7f000000000000000000000000000000000000000000000000000000000000000073ffffffffffffffffffffffffffffffffffffffff168273ffffffffffffffffffffffffffffffffffffffff161480156152a45750804710155b15615331577f000000000000000000000000000000000000000000000000000000000000000073ffffffffffffffffffffffffffffffffffffffff1663d0e30db0826040518263ffffffff1660e01b81526004016000604051808303818588803b1580156153125760006000fd5b505af1158015615327573d600060003e3d6000fd5b5050505050615344565b61534382333084615c7e63ffffffff16565b5b5b5050565b61535882615ea963ffffffff16565b61536781615ea963ffffffff16565b7f000000000000000000000000000000000000000000000000000000000000000073ffffffffffffffffffffffffffffffffffffffff166312210e8a6040518163ffffffff1660e01b8152600401600060405180830381600087803b1580156153d05760006000fd5b505af11580156153e5573d600060003e3d6000fd5b50505050600047111561540357615402334761603f63ffffffff16565b5b5b5050565b6000828284019150811015151561548a576040517f08c379a000000000000000000000000000000000000000000000000000000000815260040180806020018281038252600c8152602001807f6164642d6f766572666c6f77000000000000000000000000000000000000000081526020015060200191505060405180910390fd5b5b92915050565b6000826fffffffffffffffffffffffffffffffff168284019150816fffffffffffffffffffffffffffffffff1610151515615537576040517f08c379a000000000000000000000000000000000000000000000000000000000815260040180806020018281038252600c8152602001807f6164642d6f766572666c6f77000000000000000000000000000000000000000081526020015060200191505060405180910390fd5b5b92915050565b6000816fffffffffffffffffffffffffffffffff16141561555e57615735565b6000600060009054906101000a900473ffffffffffffffffffffffffffffffffffffffff1673ffffffffffffffffffffffffffffffffffffffff1663d3419bf36040518163ffffffff1660e01b815260040160206040518083038186803b1580156155c95760006000fd5b505afa1580156155de573d600060003e3d6000fd5b505050506040513d601f19601f8201168201806040525081019061560291906167a0565b73ffffffffffffffffffffffffffffffffffffffff16631fab230e84868860e0015189610100015187600860009054906101000a900463ffffffff166040518763ffffffff1660e01b815260040161565f96959493929190617227565b60206040518083038186803b1580156156785760006000fd5b505afa15801561568d573d600060003e3d6000fd5b505050506040513d601f19601f820116820180604052508101906156b19190616d1f565b9050600760109054906101000a90046fffffffffffffffffffffffffffffffff166fffffffffffffffffffffffffffffffff16811015806156f25750600081145b1515615733576040517f08c379a000000000000000000000000000000000000000000000000000000000815260040161572a90617533565b60405180910390fd5b505b50505050565b600061574b612fe963ffffffff16565b90508067ffffffffffffffff16600b60005060008473ffffffffffffffffffffffffffffffffffffffff1673ffffffffffffffffffffffffffffffffffffffff16815260200190815260200160002060005060000160009054906101000a900467ffffffffffffffff1667ffffffffffffffff1610156159d05760405180604001604052808267ffffffffffffffff1681526020016158e96158dc615821600760009054906101000a900467ffffffffffffffff1667ffffffffffffffff16670de0b6b3a7640000614b4690919063ffffffff16565b600260009054906101000a900473ffffffffffffffffffffffffffffffffffffffff1673ffffffffffffffffffffffffffffffffffffffff1663a135ef17886040518263ffffffff1660e01b815260040161587c91906171ff565b60206040518083038186803b1580156158955760006000fd5b505afa1580156158aa573d600060003e3d6000fd5b505050506040513d601f19601f820116820180604052508101906158ce9190616d1f565b612bc590919063ffffffff16565b6161c5909063ffffffff16565b77ffffffffffffffffffffffffffffffffffffffffffffffff16815260200150600b60005060008473ffffffffffffffffffffffffffffffffffffffff1673ffffffffffffffffffffffffffffffffffffffff16815260200190815260200160002060005060008201518160000160006101000a81548167ffffffffffffffff021916908367ffffffffffffffff16021790555060208201518160000160086101000a81548177ffffffffffffffffffffffffffffffffffffffffffffffff021916908377ffffffffffffffffffffffffffffffffffffffffffffffff1602179055509050505b505b50565b60008267ffffffffffffffff1682840391508167ffffffffffffffff1611151515615a6b576040517f08c379a000000000000000000000000000000000000000000000000000000000815260040180806020018281038252600d8152602001807f7375622d756e646572666c6f770000000000000000000000000000000000000081526020015060200191505060405180910390fd5b5b92915050565b600060008473ffffffffffffffffffffffffffffffffffffffff1663095ea7b360e01b8585604051602401808373ffffffffffffffffffffffffffffffffffffffff16815260200182815260200192505050604051602081830303815290604052907bffffffffffffffffffffffffffffffffffffffffffffffffffffffff19166020820180517bffffffffffffffffffffffffffffffffffffffffffffffffffffffff83818316178352505050506040518082805190602001908083835b602083101515615b5757805182525b602082019150602081019050602083039250615b31565b6001836020036101000a0380198251168184511680821785525050505050509050019150506000604051808303816000865af19150503d8060008114615bb9576040519150601f19603f3d011682016040523d82523d6000602084013e615bbe565b606091505b5091509150818015615bff5750600081511480615bfe5750808060200190516020811015615bec5760006000fd5b81019080805190602001909291905050505b5b1515615c76576040517f08c379a00000000000000000000000000000000000000000000000000000000081526004018080602001828103825260028152602001807f534100000000000000000000000000000000000000000000000000000000000081526020015060200191505060405180910390fd5b50505b505050565b600060008573ffffffffffffffffffffffffffffffffffffffff166323b872dd60e01b868686604051602401808473ffffffffffffffffffffffffffffffffffffffff1681526020018373ffffffffffffffffffffffffffffffffffffffff1681526020018281526020019350505050604051602081830303815290604052907bffffffffffffffffffffffffffffffffffffffffffffffffffffffff19166020820180517bffffffffffffffffffffffffffffffffffffffffffffffffffffffff83818316178352505050506040518082805190602001908083835b602083101515615d8157805182525b602082019150602081019050602083039250615d5b565b6001836020036101000a0380198251168184511680821785525050505050509050019150506000604051808303816000865af19150503d8060008114615de3576040519150601f19603f3d011682016040523d82523d6000602084013e615de8565b606091505b5091509150818015615e295750600081511480615e285750808060200190516020811015615e165760006000fd5b81019080805190602001909291905050505b5b1515615ea0576040517f08c379a00000000000000000000000000000000000000000000000000000000081526004018080602001828103825260038152602001807f535446000000000000000000000000000000000000000000000000000000000081526020015060200191505060405180910390fd5b50505b50505050565b60008173ffffffffffffffffffffffffffffffffffffffff166370a08231306040518263ffffffff1660e01b8152600401615ee491906170c4565b60206040518083038186803b158015615efd5760006000fd5b505afa158015615f12573d600060003e3d6000fd5b505050506040513d601f19601f82011682018060405250810190615f369190616d1f565b9050600081111561603a577f000000000000000000000000000000000000000000000000000000000000000073ffffffffffffffffffffffffffffffffffffffff168273ffffffffffffffffffffffffffffffffffffffff161415616027577f000000000000000000000000000000000000000000000000000000000000000073ffffffffffffffffffffffffffffffffffffffff16632e1a7d4d826040518263ffffffff1660e01b8152600401615fee91906178d6565b600060405180830381600087803b1580156160095760006000fd5b505af115801561601e573d600060003e3d6000fd5b50505050616039565b61603882338361626763ffffffff16565b5b5b505b50565b60008273ffffffffffffffffffffffffffffffffffffffff1682600067ffffffffffffffff811180156160725760006000fd5b506040519080825280601f01601f1916602001820160405280156160a55781602001600182028036833780820191505090505b506040518082805190602001908083835b6020831015156160dc57805182525b6020820191506020810190506020830392506160b6565b6001836020036101000a03801982511681845116808217855250505050505090500191505060006040518083038185875af1925050503d806000811461613e576040519150601f19603f3d011682016040523d82523d6000602084013e616143565b606091505b505090508015156161bf576040517f08c379a00000000000000000000000000000000000000000000000000000000081526004018080602001828103825260038152602001807f535445000000000000000000000000000000000000000000000000000000000081526020015060200191505060405180910390fd5b505b5050565b600078010000000000000000000000000000000000000000000000008210151561625a576040517f08c379a00000000000000000000000000000000000000000000000000000000081526004018080602001828103825260128152602001807f6d6f7265207468616e203139322062697473000000000000000000000000000081526020015060200191505060405180910390fd5b819050616262565b919050565b600060008473ffffffffffffffffffffffffffffffffffffffff1663a9059cbb60e01b8585604051602401808373ffffffffffffffffffffffffffffffffffffffff16815260200182815260200192505050604051602081830303815290604052907bffffffffffffffffffffffffffffffffffffffffffffffffffffffff19166020820180517bffffffffffffffffffffffffffffffffffffffffffffffffffffffff83818316178352505050506040518082805190602001908083835b60208310151561634c57805182525b602082019150602081019050602083039250616326565b6001836020036101000a0380198251168184511680821785525050505050509050019150506000604051808303816000865af19150503d80600081146163ae576040519150601f19603f3d011682016040523d82523d6000602084013e6163b3565b606091505b50915091508180156163f457506000815114806163f357508080602001905160208110156163e15760006000fd5b81019080805190602001909291905050505b5b151561646b576040517f08c379a00000000000000000000000000000000000000000000000000000000081526004018080602001828103825260028152602001807f535400000000000000000000000000000000000000000000000000000000000081526020015060200191505060405180910390fd5b50505b505050565b604051806101800160405280600073ffffffffffffffffffffffffffffffffffffffff168152602001600061ffff16815260200160008152602001600081526020016000815260200160006fffffffffffffffffffffffffffffffff168152602001600067ffffffffffffffff168152602001600060020b8152602001600060020b8152602001600063ffffffff168152602001600073ffffffffffffffffffffffffffffffffffffffff168152602001600067ffffffffffffffff1681526020015090565b6040518060a001604052806000815260200160006fffffffffffffffffffffffffffffffff1681526020016000815260200160008152602001600081526020015090565b6040518060400160405280600015158152602001600060020b8152602001509056617bfc565b6000813590506165b281617b33565b5b919050565b6000815190506165c781617b33565b5b919050565b6000813590506165dc81617b5c565b5b919050565b6000815190506165f181617b5c565b5b919050565b60008151905061660681617b72565b5b919050565b60008151905061661b81617b97565b5b919050565b60008135905061663081617bae565b5b919050565b60008151905061664581617bae565b5b919050565b60008135905061665a81617bc6565b5b919050565b60008151905061666f81617bc6565b5b919050565b60008151905061668481617bdf565b5b919050565b60006020828403121561669b578081fd5b81516166a681617b33565b809150505b92915050565b6000602082840312156166c2578081fd5b8151801515811415156166d3578182fd5b809150505b92915050565b6000602082840312156166ef578081fd5b81357fffffffff00000000000000000000000000000000000000000000000000000000811681141515616720578182fd5b809150505b92915050565b60006020828403121561673c578081fd5b815161674781617b33565b809150505b92915050565b600060208284031215616763578081fd5b813561676e81617b33565b809150505b92915050565b60006020828403121561678a578081fd5b815161679581617b33565b809150505b92915050565b6000602082840312156167b1578081fd5b81516167bc81617b33565b809150505b92915050565b6000602082840312156167d8578081fd5b81516167e381617b33565b809150505b92915050565b6000602082840312156167ff578081fd5b813561680a81617b33565b809150505b92915050565b6000600060006040848603121561682a578182fd5b833561683581617b33565b80935050602084013567ffffffffffffffff80821115616853578384fd5b818601915086601f8301121515616868578384fd5b813581811115616876578485fd5b87602060208302850101111561688a578485fd5b6020830194508093505050505b9250925092565b60006000604083850312156168b1578182fd5b82356168bc81617b33565b8092505060208301356168ce81617b33565b809150505b9250929050565b60006000604083850312156168ed578182fd5b82356168f881617b33565b80925050602083013561690a81617bdf565b809150505b9250929050565b600060208284031215616927578081fd5b815161693281617b5c565b809150505b92915050565b6000600082840360c0811215616951578283fd5b60a081121561695e578283fd5b5082915060a083013561697081617bc6565b809150505b9250929050565b600060a0828403121561698d578081fd5b60405160a0810181811067ffffffffffffffff821117156169aa57fe5b80604052508235815260208301356169c181617b72565b80602083015250604083013560408201526060830135606082015260808301356080820152809150505b92915050565b6000600082840360e0811215616a05578283fd5b60c0811215616a12578283fd5b5082915060c0830135616a2481617bc6565b809150505b9250929050565b60006000828403610180811215616a45578283fd5b61016080821215616a54578384fd5b616a5d81617b08565b9150616a68856165a3565b8252616a76602086016165a3565b6020830152616a8760408601616621565b6040830152616a98606086016165cd565b6060830152616aa9608086016165cd565b608083015260a085013560a083015260c085013560c083015260e085013560e0830152610100808601358184015250610120616ae68187016165a3565b8184015250610140808601358184015250819350616b0581860161664b565b925050505b9250929050565b6000610180808385031215616b24578182fd5b616b2d81617b08565b9050616b38836165b8565b8152616b466020840161660c565b6020820152604083015160408201526060830151606082015260808301516080820152616b7560a084016165f7565b60a0820152616b8660c08401616675565b60c0820152616b9760e084016165e2565b60e0820152610100616baa8185016165e2565b8183015250610120616bbd818501616660565b8183015250610140616bd08185016165b8565b8183015250610160616be3818501616675565b8183015250809150505b92915050565b600060408284031215616c04578081fd5b6040516040810181811067ffffffffffffffff82111715616c2157fe5b80604052508251815260208301516020820152809150505b92915050565b600060208284031215616c50578081fd5b8135616c5b81617b72565b809150505b92915050565b60006000600060608486031215616c7b578081fd5b8351616c8681617b72565b8093505060208401519150604084015190505b9250925092565b600060208284031215616cb1578081fd5b8135616cbc81617b97565b809150505b92915050565b6000600060408385031215616cda578182fd5b8235616ce581617b97565b809250506020830135616cf781617bdf565b809150505b9250929050565b600060208284031215616d14578081fd5b813590505b92915050565b600060208284031215616d30578081fd5b815190505b92915050565b600060006000600060808587031215616d52578182fd5b845193506020850151616d6481617b72565b8093505060408501519150606085015190505b92959194509250565b6000600060408385031215616d93578182fd5b82519150602083015190505b9250929050565b6000600060408385031215616db9578182fd5b823591506020830135616dcb81617bc6565b809150505b9250929050565b600060208284031215616de8578081fd5b8135616df381617bc6565b809150505b92915050565b600060208284031215616e0f578081fd5b8135616e1a81617bdf565b809150505b92915050565b600060208284031215616e36578081fd5b8151616e4181617bdf565b809150505b92915050565b6000600060006000600060006000600060006000600060006101808d8f031215616e7457898afd5b8c516bffffffffffffffffffffffff811681141515616e91578a8bfd5b809c5050616ea160208e016165b8565b9a50616eaf60408e016165b8565b9950616ebd60608e016165b8565b9850616ecb60808e01616636565b9750616ed960a08e016165e2565b9650616ee760c08e016165e2565b9550616ef560e08e016165f7565b94506101008d015193506101208d01519250616f146101408e016165f7565b9150616f236101608e016165f7565b90505b9295989b509295989b509295989b565b73ffffffffffffffffffffffffffffffffffffffff811682525b5050565b8060020b82525b5050565b6fffffffffffffffffffffffffffffffff811682525b5050565b61ffff811682525b5050565b62ffffff811682525b5050565b63ffffffff811682525b5050565b67ffffffffffffffff811682525b5050565b60007f6c69717569646174696f6e50656e616c7479000000000000000000000000000082526012820190505b919050565b60007f6d696e487565436f756e74506572506f736974696f6e0000000000000000000082526016820190505b919050565b60007f747761704475726174696f6e00000000000000000000000000000000000000008252600c820190505b919050565b60007f6d6178436f6c6c61746572616c4c69717569646974794465637265617365506582527f72506572696f640000000000000000000000000000000000000000000000000060208301526027820190505b919050565b600060208201905073ffffffffffffffffffffffffffffffffffffffff831682525b92915050565b600060208201905073ffffffffffffffffffffffffffffffffffffffff831682525b92915050565b600060408201905073ffffffffffffffffffffffffffffffffffffffff841682528260208301525b9392505050565b600060608201905073ffffffffffffffffffffffffffffffffffffffff808616835280851660208401525062ffffff831660408301525b949350505050565b600060408201905073ffffffffffffffffffffffffffffffffffffffff841682528260208301525b9392505050565b600060608201905073ffffffffffffffffffffffffffffffffffffffff80861683528460208401528084166040840152505b949350505050565b600060208201905082151582525b92915050565b600060208201905073ffffffffffffffffffffffffffffffffffffffff831682525b92915050565b600060208201905073ffffffffffffffffffffffffffffffffffffffff831682525b92915050565b600060c08201905073ffffffffffffffffffffffffffffffffffffffff881682528660020b60208301528560020b60408301528460020b60608301526fffffffffffffffffffffffffffffffff8416608083015263ffffffff831660a08301525b979650505050505050565b600060408201905073ffffffffffffffffffffffffffffffffffffffff841682526fffffffffffffffffffffffffffffffff831660208301525b9392505050565b600060408201905073ffffffffffffffffffffffffffffffffffffffff8416825263ffffffff831660208301525b9392505050565b600060408201905073ffffffffffffffffffffffffffffffffffffffff8416825267ffffffffffffffff831660208301525b9392505050565b60006060820190508460020b82528360020b60208301526fffffffffffffffffffffffffffffffff831660408301525b949350505050565b600060208252601160208301527f50726f746f636f6c2073687574646f776e00000000000000000000000000000060408301526060820190505b919050565b600060208252601660208301527f4c6971756964697479206e6f7420696e2072616e67650000000000000000000060408301526060820190505b919050565b600060208252601c60208301527f4d617820706572696f642077697468647261772065786365656465640000000060408301526060820190505b919050565b600060208252601260208301527f416c72656164792072656769737465726564000000000000000000000000000060408301526060820190505b919050565b600060208252600e60208301527f4e6f7420417574686f72697a656400000000000000000000000000000000000060408301526060820190505b919050565b600060208252600d60208301527f4c50205265656e7472616e63790000000000000000000000000000000000000060408301526060820190505b919050565b600060208252601460208301527f496e63656e7469766520746f74616c206973203000000000000000000000000060408301526060820190505b919050565b600060208252601260208301527f506f736974696f6e20746f6f20736d616c6c000000000000000000000000000060408301526060820190505b919050565b600060208252600b60208301527f506f6f6c2065786973747300000000000000000000000000000000000000000060408301526060820190505b919050565b600060208252600e60208301527f496e76616c696420706f6f6c494400000000000000000000000000000000000060408301526060820190505b919050565b600060208252601360208301527f436f6e74726163742069732073746f707065640000000000000000000000000060408301526060820190505b919050565b600060208252601260208301527f4e6f20666c617368206c6971756964697479000000000000000000000000000060408301526060820190505b919050565b600060208252600760208301527f496e76616c69640000000000000000000000000000000000000000000000000060408301526060820190505b919050565b60006080820190508251825273ffffffffffffffffffffffffffffffffffffffff602084015116602083015260408301516fffffffffffffffffffffffffffffffff808216604085015280606086015116606085015250505b92915050565b600060a082019050825182526fffffffffffffffffffffffffffffffff60208401511660208301526040830151604083015260608301516060830152608083015160808301525b92915050565b600060c082019050823582526020830135602083015260408301356040830152606083013560608301526080830135608083015260a083013560a08301525b92915050565b6000610160820190506177b2828451616f36565b60208301516177c46020840182616f36565b5060408301516177d76040840182616f85565b5060608301516177ea6060840182616f54565b5060808301516177fd6080840182616f54565b5060a083015160a083015260c083015160c083015260e083015160e08301526101008084015181840152506101208084015161783b82850182616f36565b50506101408084015181840152505b92915050565b60006020820190506fffffffffffffffffffffffffffffffff831682525b92915050565b60006020820190506fffffffffffffffffffffffffffffffff831682525b92915050565b600060208201905061ffff831682525b92915050565b600060608201905061ffff8416825282516020830152602083015160408301525b9392505050565b60006020820190508282525b92915050565b600060408201905083825273ffffffffffffffffffffffffffffffffffffffff831660208301525b9392505050565b60006101a082019050838252617931602083018451616f36565b60208301516179436040840182616f79565b506040830151606083015260608301516080830152608083015160a083015260a083015161797460c0840182616f5f565b5060c083015161798760e0840182616fa0565b5060e083015161010061799c81850183616f54565b808501519150506101206179b281850183616f54565b808501519150506101406179c881850183616f92565b808501519150506101606179de81850183616f36565b808501519150506179f3610180840182616fa0565b505b9392505050565b60006040820190508382526fffffffffffffffffffffffffffffffff831660208301525b9392505050565b60006040820190508382528260208301525b9392505050565b600060408201905083825267ffffffffffffffff831660208301525b9392505050565b600060208201905063ffffffff831682525b92915050565b600060208201905063ffffffff831682525b92915050565b600060208201905067ffffffffffffffff831682525b92915050565b600060208201905067ffffffffffffffff831682525b92915050565b600060408201905067ffffffffffffffff8416825277ffffffffffffffffffffffffffffffffffffffffffffffff831660208301525b9392505050565b6000604051905081810181811067ffffffffffffffff82111715617b2857fe5b80604052505b919050565b73ffffffffffffffffffffffffffffffffffffffff811681141515617b585760006000fd5b5b50565b8060020b81141515617b6e5760006000fd5b5b50565b6fffffffffffffffffffffffffffffffff811681141515617b935760006000fd5b5b50565b61ffff811681141515617baa5760006000fd5b5b50565b62ffffff811681141515617bc25760006000fd5b5b50565b63ffffffff811681141515617bdb5760006000fd5b5b50565b67ffffffffffffffff811681141515617bf85760006000fd5b5b50565bfea2646970667358221220325b24824d4bd911dbf33321c4a97bcd7adcfdc3a2be8d960716afe706ee20a664736f6c63430007060033",
  "linkReferences": {},
  "deployedLinkReferences": {}
}