{
  "_format": "hh-sol-artifact-1",
  "contractName": "Rewards",
  "sourceName": "contracts/core/logic/Rewards.sol",
  "abi": [
    {
      "inputs": [
        {
          "components": [
            {
              "internalType": "contract IGovernor",
              "name": "Governor",
              "type": "address"
            },
            {
              "internalType": "contract IProtocolLock",
              "name": "ProtocolLock",
              "type": "address"
            },
            {
              "internalType": "contract IAccounting",
              "name": "Accounting",
              "type": "address"
            },
            {
              "internalType": "address",
              "name": "Weth",
              "type": "address"
            },
            {
              "internalType": "contract INonfungiblePositionManager",
              "name": "NftPositionManager",
              "type": "address"
            },
            {
              "internalType": "contract IUniswapV3Factory",
              "name": "UniswapV3Factory",
              "type": "address"
            }
          ],
          "internalType": "struct IRewards.ConstructorParams",
          "name": "params",
          "type": "tuple"
        }
      ],
      "stateMutability": "nonpayable",
      "type": "constructor"
    },
    {
      "anonymous": false,
      "inputs": [
        {
          "indexed": false,
          "internalType": "uint64",
          "name": "penalty",
          "type": "uint64"
        }
      ],
      "name": "LiquidationPenaltyUpdated",
      "type": "event"
    },
    {
      "anonymous": false,
      "inputs": [
        {
          "indexed": true,
          "internalType": "address",
          "name": "owner",
          "type": "address"
        },
        {
          "indexed": true,
          "internalType": "uint16",
          "name": "poolID",
          "type": "uint16"
        },
        {
          "indexed": true,
          "internalType": "uint256",
          "name": "nftID",
          "type": "uint256"
        },
        {
          "indexed": false,
          "internalType": "int24",
          "name": "tickLower",
          "type": "int24"
        },
        {
          "indexed": false,
          "internalType": "int24",
          "name": "tickUpper",
          "type": "int24"
        },
        {
          "indexed": false,
          "internalType": "uint128",
          "name": "liquidity",
          "type": "uint128"
        }
      ],
      "name": "LiquidityPositionCreated",
      "type": "event"
    },
    {
      "anonymous": false,
      "inputs": [
        {
          "indexed": true,
          "internalType": "uint256",
          "name": "nftID",
          "type": "uint256"
        },
        {
          "indexed": false,
          "internalType": "uint256",
          "name": "amount0",
          "type": "uint256"
        },
        {
          "indexed": false,
          "internalType": "uint256",
          "name": "amount1",
          "type": "uint256"
        }
      ],
      "name": "LiquidityPositionDecreased",
      "type": "event"
    },
    {
      "anonymous": false,
      "inputs": [
        {
          "indexed": true,
          "internalType": "uint256",
          "name": "nftID",
          "type": "uint256"
        },
        {
          "indexed": false,
          "internalType": "uint128",
          "name": "liquidity",
          "type": "uint128"
        }
      ],
      "name": "LiquidityPositionIncreased",
      "type": "event"
    },
    {
      "anonymous": false,
      "inputs": [
        {
          "indexed": true,
          "internalType": "uint256",
          "name": "nftID",
          "type": "uint256"
        },
        {
          "indexed": true,
          "internalType": "address",
          "name": "liquidator",
          "type": "address"
        }
      ],
      "name": "LiquidityPositionLiquidated",
      "type": "event"
    },
    {
      "anonymous": false,
      "inputs": [
        {
          "indexed": true,
          "internalType": "uint256",
          "name": "nftID",
          "type": "uint256"
        },
        {
          "indexed": false,
          "internalType": "uint256",
          "name": "amount0",
          "type": "uint256"
        },
        {
          "indexed": false,
          "internalType": "uint256",
          "name": "amount1",
          "type": "uint256"
        }
      ],
      "name": "LiquidityPositionRemoved",
      "type": "event"
    },
    {
      "anonymous": false,
      "inputs": [
        {
          "indexed": false,
          "internalType": "uint64",
          "name": "decreasePortion",
          "type": "uint64"
        }
      ],
      "name": "MaxCollateralLiquidityDecreasePerPeriodUpdated",
      "type": "event"
    },
    {
      "anonymous": false,
      "inputs": [
        {
          "indexed": false,
          "internalType": "uint128",
          "name": "min",
          "type": "uint128"
        }
      ],
      "name": "MinHueCountPerPositionUpdated",
      "type": "event"
    },
    {
      "anonymous": false,
      "inputs": [
        {
          "indexed": true,
          "internalType": "address",
          "name": "pool",
          "type": "address"
        },
        {
          "indexed": true,
          "internalType": "uint16",
          "name": "poolID",
          "type": "uint16"
        },
        {
          "indexed": false,
          "internalType": "uint64",
          "name": "rewardsPortion",
          "type": "uint64"
        }
      ],
      "name": "PoolAdded",
      "type": "event"
    },
    {
      "anonymous": false,
      "inputs": [
        {
          "indexed": true,
          "internalType": "uint16",
          "name": "poolID",
          "type": "uint16"
        },
        {
          "indexed": false,
          "internalType": "uint64",
          "name": "incentive",
          "type": "uint64"
        }
      ],
      "name": "PoolIncentiveUpdated",
      "type": "event"
    },
    {
      "anonymous": false,
      "inputs": [
        {
          "indexed": false,
          "internalType": "uint256",
          "name": "count",
          "type": "uint256"
        },
        {
          "indexed": false,
          "internalType": "uint64",
          "name": "periods",
          "type": "uint64"
        }
      ],
      "name": "RewardsAccrued",
      "type": "event"
    },
    {
      "anonymous": false,
      "inputs": [
        {
          "indexed": true,
          "internalType": "address",
          "name": "caller",
          "type": "address"
        },
        {
          "indexed": true,
          "internalType": "uint256",
          "name": "nftTokenID",
          "type": "uint256"
        },
        {
          "indexed": false,
          "internalType": "uint256",
          "name": "amount0",
          "type": "uint256"
        },
        {
          "indexed": false,
          "internalType": "uint256",
          "name": "amount1",
          "type": "uint256"
        }
      ],
      "name": "RewardsClaimed",
      "type": "event"
    },
    {
      "anonymous": false,
      "inputs": [
        {
          "indexed": true,
          "internalType": "address",
          "name": "account",
          "type": "address"
        },
        {
          "indexed": true,
          "internalType": "bool",
          "name": "isKickback",
          "type": "bool"
        },
        {
          "indexed": false,
          "internalType": "uint256",
          "name": "tcpRewards",
          "type": "uint256"
        }
      ],
      "name": "RewardsDistributed",
      "type": "event"
    },
    {
      "anonymous": false,
      "inputs": [],
      "name": "Stopped",
      "type": "event"
    },
    {
      "anonymous": false,
      "inputs": [
        {
          "indexed": false,
          "internalType": "uint64",
          "name": "duration",
          "type": "uint64"
        }
      ],
      "name": "TwapDurationUpdated",
      "type": "event"
    },
    {
      "inputs": [],
      "name": "accrueRewards",
      "outputs": [],
      "stateMutability": "nonpayable",
      "type": "function"
    },
    {
      "inputs": [
        {
          "internalType": "contract IUniswapV3Pool",
          "name": "pool",
          "type": "address"
        },
        {
          "internalType": "uint64",
          "name": "rewardsPortion",
          "type": "uint64"
        }
      ],
      "name": "addIncentivePool",
      "outputs": [],
      "stateMutability": "nonpayable",
      "type": "function"
    },
    {
      "inputs": [
        {
          "internalType": "uint256",
          "name": "nftTokenID",
          "type": "uint256"
        },
        {
          "internalType": "uint32",
          "name": "ui",
          "type": "uint32"
        }
      ],
      "name": "claimRewards",
      "outputs": [
        {
          "internalType": "uint256",
          "name": "amount0",
          "type": "uint256"
        },
        {
          "internalType": "uint256",
          "name": "amount1",
          "type": "uint256"
        }
      ],
      "stateMutability": "nonpayable",
      "type": "function"
    },
    {
      "inputs": [],
      "name": "countPools",
      "outputs": [
        {
          "internalType": "uint16",
          "name": "",
          "type": "uint16"
        }
      ],
      "stateMutability": "view",
      "type": "function"
    },
    {
      "inputs": [
        {
          "components": [
            {
              "internalType": "address",
              "name": "token0",
              "type": "address"
            },
            {
              "internalType": "address",
              "name": "token1",
              "type": "address"
            },
            {
              "internalType": "uint24",
              "name": "fee",
              "type": "uint24"
            },
            {
              "internalType": "int24",
              "name": "tickLower",
              "type": "int24"
            },
            {
              "internalType": "int24",
              "name": "tickUpper",
              "type": "int24"
            },
            {
              "internalType": "uint256",
              "name": "amount0Desired",
              "type": "uint256"
            },
            {
              "internalType": "uint256",
              "name": "amount1Desired",
              "type": "uint256"
            },
            {
              "internalType": "uint256",
              "name": "amount0Min",
              "type": "uint256"
            },
            {
              "internalType": "uint256",
              "name": "amount1Min",
              "type": "uint256"
            },
            {
              "internalType": "address",
              "name": "recipient",
              "type": "address"
            },
            {
              "internalType": "uint256",
              "name": "deadline",
              "type": "uint256"
            }
          ],
          "internalType": "struct INonfungiblePositionManager.MintParams",
          "name": "params",
          "type": "tuple"
        },
        {
          "internalType": "uint32",
          "name": "ui",
          "type": "uint32"
        }
      ],
      "name": "createLiquidityPosition",
      "outputs": [
        {
          "internalType": "uint256",
          "name": "nftTokenID",
          "type": "uint256"
        },
        {
          "internalType": "uint128",
          "name": "liquidity",
          "type": "uint128"
        }
      ],
      "stateMutability": "payable",
      "type": "function"
    },
    {
      "inputs": [],
      "name": "currentPeriod",
      "outputs": [
        {
          "internalType": "uint64",
          "name": "period",
          "type": "uint64"
        }
      ],
      "stateMutability": "view",
      "type": "function"
    },
    {
      "inputs": [
        {
          "components": [
            {
              "internalType": "uint256",
              "name": "tokenId",
              "type": "uint256"
            },
            {
              "internalType": "uint128",
              "name": "liquidity",
              "type": "uint128"
            },
            {
              "internalType": "uint256",
              "name": "amount0Min",
              "type": "uint256"
            },
            {
              "internalType": "uint256",
              "name": "amount1Min",
              "type": "uint256"
            },
            {
              "internalType": "uint256",
              "name": "deadline",
              "type": "uint256"
            }
          ],
          "internalType": "struct INonfungiblePositionManager.DecreaseLiquidityParams",
          "name": "params",
          "type": "tuple"
        },
        {
          "internalType": "uint32",
          "name": "ui",
          "type": "uint32"
        }
      ],
      "name": "decreaseLiquidityPosition",
      "outputs": [
        {
          "internalType": "uint256",
          "name": "amount0",
          "type": "uint256"
        },
        {
          "internalType": "uint256",
          "name": "amount1",
          "type": "uint256"
        }
      ],
      "stateMutability": "nonpayable",
      "type": "function"
    },
    {
      "inputs": [],
      "name": "deployer",
      "outputs": [
        {
          "internalType": "address",
          "name": "",
          "type": "address"
        }
      ],
      "stateMutability": "view",
      "type": "function"
    },
    {
      "inputs": [],
      "name": "firstPeriod",
      "outputs": [
        {
          "internalType": "uint64",
          "name": "",
          "type": "uint64"
        }
      ],
      "stateMutability": "view",
      "type": "function"
    },
    {
      "inputs": [],
      "name": "governor",
      "outputs": [
        {
          "internalType": "contract IGovernor",
          "name": "",
          "type": "address"
        }
      ],
      "stateMutability": "view",
      "type": "function"
    },
    {
      "inputs": [
        {
          "components": [
            {
              "internalType": "uint256",
              "name": "tokenId",
              "type": "uint256"
            },
            {
              "internalType": "uint256",
              "name": "amount0Desired",
              "type": "uint256"
            },
            {
              "internalType": "uint256",
              "name": "amount1Desired",
              "type": "uint256"
            },
            {
              "internalType": "uint256",
              "name": "amount0Min",
              "type": "uint256"
            },
            {
              "internalType": "uint256",
              "name": "amount1Min",
              "type": "uint256"
            },
            {
              "internalType": "uint256",
              "name": "deadline",
              "type": "uint256"
            }
          ],
          "internalType": "struct INonfungiblePositionManager.IncreaseLiquidityParams",
          "name": "params",
          "type": "tuple"
        },
        {
          "internalType": "uint32",
          "name": "ui",
          "type": "uint32"
        }
      ],
      "name": "increaseLiquidityPosition",
      "outputs": [
        {
          "internalType": "uint128",
          "name": "liquidity",
          "type": "uint128"
        }
      ],
      "stateMutability": "payable",
      "type": "function"
    },
    {
      "inputs": [
        {
          "internalType": "contract IUniswapV3Pool",
          "name": "_collateralPool",
          "type": "address"
        },
        {
          "internalType": "contract IUniswapV3Pool",
          "name": "_protocolPool",
          "type": "address"
        }
      ],
      "name": "init",
      "outputs": [],
      "stateMutability": "nonpayable",
      "type": "function"
    },
    {
      "inputs": [],
      "name": "lastPeriodGlobalRewardsAccrued",
      "outputs": [
        {
          "internalType": "uint64",
          "name": "",
          "type": "uint64"
        }
      ],
      "stateMutability": "view",
      "type": "function"
    },
    {
      "inputs": [
        {
          "internalType": "contract IUniswapV3Pool",
          "name": "pool",
          "type": "address"
        },
        {
          "internalType": "uint256[]",
          "name": "nftTokenIDs",
          "type": "uint256[]"
        }
      ],
      "name": "liquidateOutofRangePositions",
      "outputs": [],
      "stateMutability": "nonpayable",
      "type": "function"
    },
    {
      "inputs": [],
      "name": "liquidationPenalty",
      "outputs": [
        {
          "internalType": "uint64",
          "name": "",
          "type": "uint64"
        }
      ],
      "stateMutability": "view",
      "type": "function"
    },
    {
      "inputs": [],
      "name": "maxCollateralLiquidityDecreasePerPeriod",
      "outputs": [
        {
          "internalType": "uint64",
          "name": "",
          "type": "uint64"
        }
      ],
      "stateMutability": "view",
      "type": "function"
    },
    {
      "inputs": [
        {
          "internalType": "contract IUniswapV3Pool",
          "name": "",
          "type": "address"
        }
      ],
      "name": "minCollateralLiquidityByPeriod",
      "outputs": [
        {
          "internalType": "uint64",
          "name": "period",
          "type": "uint64"
        },
        {
          "internalType": "uint192",
          "name": "minLiquidity",
          "type": "uint192"
        }
      ],
      "stateMutability": "view",
      "type": "function"
    },
    {
      "inputs": [],
      "name": "minHueCountPerPosition",
      "outputs": [
        {
          "internalType": "uint128",
          "name": "",
          "type": "uint128"
        }
      ],
      "stateMutability": "view",
      "type": "function"
    },
    {
      "inputs": [],
      "name": "periodLength",
      "outputs": [
        {
          "internalType": "uint64",
          "name": "",
          "type": "uint64"
        }
      ],
      "stateMutability": "view",
      "type": "function"
    },
    {
      "inputs": [
        {
          "internalType": "uint16",
          "name": "",
          "type": "uint16"
        }
      ],
      "name": "poolConfigForPoolID",
      "outputs": [
        {
          "internalType": "contract IUniswapV3Pool",
          "name": "pool",
          "type": "address"
        },
        {
          "internalType": "uint64",
          "name": "rewardsPortion",
          "type": "uint64"
        }
      ],
      "stateMutability": "view",
      "type": "function"
    },
    {
      "inputs": [
        {
          "internalType": "contract IUniswapV3Pool",
          "name": "",
          "type": "address"
        }
      ],
      "name": "poolIDForPool",
      "outputs": [
        {
          "internalType": "uint16",
          "name": "",
          "type": "uint16"
        }
      ],
      "stateMutability": "view",
      "type": "function"
    },
    {
      "inputs": [
        {
          "internalType": "uint256",
          "name": "nftTokenID",
          "type": "uint256"
        }
      ],
      "name": "removeKickback",
      "outputs": [],
      "stateMutability": "nonpayable",
      "type": "function"
    },
    {
      "inputs": [
        {
          "components": [
            {
              "internalType": "uint256",
              "name": "tokenId",
              "type": "uint256"
            },
            {
              "internalType": "uint128",
              "name": "liquidity",
              "type": "uint128"
            },
            {
              "internalType": "uint256",
              "name": "amount0Min",
              "type": "uint256"
            },
            {
              "internalType": "uint256",
              "name": "amount1Min",
              "type": "uint256"
            },
            {
              "internalType": "uint256",
              "name": "deadline",
              "type": "uint256"
            }
          ],
          "internalType": "struct INonfungiblePositionManager.DecreaseLiquidityParams",
          "name": "params",
          "type": "tuple"
        }
      ],
      "name": "removeLiquidityPosition",
      "outputs": [
        {
          "internalType": "uint256",
          "name": "amount0",
          "type": "uint256"
        },
        {
          "internalType": "uint256",
          "name": "amount1",
          "type": "uint256"
        }
      ],
      "stateMutability": "nonpayable",
      "type": "function"
    },
    {
      "inputs": [
        {
          "internalType": "uint64",
          "name": "penalty",
          "type": "uint64"
        }
      ],
      "name": "setLiquidationPenalty",
      "outputs": [],
      "stateMutability": "nonpayable",
      "type": "function"
    },
    {
      "inputs": [
        {
          "internalType": "uint64",
          "name": "decreasePortion",
          "type": "uint64"
        }
      ],
      "name": "setMaxCollateralLiquidityDecreasePerPeriod",
      "outputs": [],
      "stateMutability": "nonpayable",
      "type": "function"
    },
    {
      "inputs": [
        {
          "internalType": "uint128",
          "name": "min",
          "type": "uint128"
        }
      ],
      "name": "setMinHueCountPerPosition",
      "outputs": [],
      "stateMutability": "nonpayable",
      "type": "function"
    },
    {
      "inputs": [
        {
          "internalType": "uint32",
          "name": "duration",
          "type": "uint32"
        }
      ],
      "name": "setTwapDuration",
      "outputs": [],
      "stateMutability": "nonpayable",
      "type": "function"
    },
    {
      "inputs": [],
      "name": "stop",
      "outputs": [],
      "stateMutability": "nonpayable",
      "type": "function"
    },
    {
      "inputs": [],
      "name": "stopped",
      "outputs": [
        {
          "internalType": "bool",
          "name": "",
          "type": "bool"
        }
      ],
      "stateMutability": "view",
      "type": "function"
    },
    {
      "inputs": [],
      "name": "twapDuration",
      "outputs": [
        {
          "internalType": "uint32",
          "name": "",
          "type": "uint32"
        }
      ],
      "stateMutability": "view",
      "type": "function"
    },
    {
      "inputs": [
        {
          "internalType": "uint16",
          "name": "poolID",
          "type": "uint16"
        },
        {
          "internalType": "uint64",
          "name": "incentive",
          "type": "uint64"
        }
      ],
      "name": "updatePoolIncentive",
      "outputs": [],
      "stateMutability": "nonpayable",
      "type": "function"
    },
    {
      "inputs": [
        {
          "internalType": "bytes4",
          "name": "",
          "type": "bytes4"
        }
      ],
      "name": "validUpdate",
      "outputs": [
        {
          "internalType": "bool",
          "name": "",
          "type": "bool"
        }
      ],
      "stateMutability": "view",
      "type": "function"
    },
    {
      "stateMutability": "payable",
      "type": "receive"
    }
  ],
  "bytecode": "0x6101806040526001600260005090905567016345785d8a0000600360006101000a81548167ffffffffffffffff021916908367ffffffffffffffff16021790555066d529ae9e860000600360086101000a81548167ffffffffffffffff021916908367ffffffffffffffff160217905550686c6b935b8bbd400000600360106101000a8154816fffffffffffffffffffffffffffffffff02191690836fffffffffffffffffffffffffffffffff160217905550610708600460006101000a81548163ffffffff021916908363ffffffff1602179055506000600460046101000a81548161ffff021916908361ffff160217905550348015620001015760006000fd5b5060405162007b4138038062007b418339818101604052810190620001279190620006b7565b5b6138405b816000015182602001515b815b8073ffffffffffffffffffffffffffffffffffffffff1660808173ffffffffffffffffffffffffffffffffffffffff1660601b815260140150505b508073ffffffffffffffffffffffffffffffffffffffff1660a08173ffffffffffffffffffffffffffffffffffffffff1660601b815260140150505b505060018167ffffffffffffffff16620001cf620005e560201b60201c565b67ffffffffffffffff16811515620001e357fe5b040367ffffffffffffffff1660e08167ffffffffffffffff1660c01b815260080150508067ffffffffffffffff1660c08167ffffffffffffffff1660c01b815260080150505b50806040015173ffffffffffffffffffffffffffffffffffffffff166101608173ffffffffffffffffffffffffffffffffffffffff1660601b81526014015050806060015173ffffffffffffffffffffffffffffffffffffffff166101008173ffffffffffffffffffffffffffffffffffffffff1660601b81526014015050806080015173ffffffffffffffffffffffffffffffffffffffff166101208173ffffffffffffffffffffffffffffffffffffffff1660601b815260140150508060a0015173ffffffffffffffffffffffffffffffffffffffff166101408173ffffffffffffffffffffffffffffffffffffffff1660601b8152601401505060006040518060c00160405280636161189060e01b7bffffffffffffffffffffffffffffffffffffffffffffffffffffffff19167bffffffffffffffffffffffffffffffffffffffffffffffffffffffff191681526020016328d10de860e01b7bffffffffffffffffffffffffffffffffffffffffffffffffffffffff19167bffffffffffffffffffffffffffffffffffffffffffffffffffffffff1916815260200163c7bd867c60e01b7bffffffffffffffffffffffffffffffffffffffffffffffffffffffff19167bffffffffffffffffffffffffffffffffffffffffffffffffffffffff1916815260200163de8925f560e01b7bffffffffffffffffffffffffffffffffffffffffffffffffffffffff19167bffffffffffffffffffffffffffffffffffffffffffffffffffffffff1916815260200163c433c80a60e01b7bffffffffffffffffffffffffffffffffffffffffffffffffffffffff19167bffffffffffffffffffffffffffffffffffffffffffffffffffffffff19168152602001630907653160e01b7bffffffffffffffffffffffffffffffffffffffffffffffffffffffff19167bffffffffffffffffffffffffffffffffffffffffffffffffffffffff191681526020015090506000600090505b815060068110156200059a5760016001600050600084846006811015156200052357fe5b60200201517bffffffffffffffffffffffffffffffffffffffffffffffffffffffff19167bffffffffffffffffffffffffffffffffffffffffffffffffffffffff1916815260200190815260200160002060006101000a81548160ff0219169083151502179055505b8080600101915050620004ff565b5033600860086101000a81548173ffffffffffffffffffffffffffffffffffffffff021916908373ffffffffffffffffffffffffffffffffffffffff160217905550505b506200078c565b6000620005ff426200060760201b62001c2f17909060201c565b905080505b90565b600068010000000000000000821015156200068d576040517f08c379a00000000000000000000000000000000000000000000000000000000081526004018080602001828103825260118152602001807f6d6f7265207468616e203634206269747300000000000000000000000000000081526020015060200191505060405180910390fd5b81905062000696565b919050566200078b565b600081519050620006b1816200076e565b5b919050565b600060c08284031215620006c9578081fd5b60405160c081018181106001600160401b0382111715620006e657fe5b80604052508251620006f8816200076e565b8082525060208301516200070c816200076e565b80602083015250604083015162000723816200076e565b806040830152506200073860608401620006a0565b60608201526200074b60808401620006a0565b60808201526200075e60a08401620006a0565b60a0820152809150505b92915050565b6001600160a01b03811681141515620007875760006000fd5b5b50565b5b60805160601c60a05160601c60c05160c01c60e05160c01c6101005160601c6101205160601c6101405160601c6101605160601c617254620008ed600039806109785280611277528061158252806121ae52806129985280612d03528061310e528061324052806136d952806137cf5280613f1852806140345280614123528061484d52806148fa528061496f52806150b3525080610f3f5250806101ef52806124ff528061263652806127ee5280612a25528061316a528061343c5280613522528061455852806145ec5280614bfb528061526952508061024452806145045280614add5280614b3d528061561a528061566e5250806117c55280612b4c52806142c05250806118c45280612b6d52806142e1525080611cc35280612ac5525080610d3d5280611de45280611f7652806122f652806123fa5280612bc65280612efd52806139485280613e2452806141d25280614df452506172546000f3fe6080604052600436106101e75760003560e01c80636161189011610102578063c7bd867c11610095578063f09a401611610064578063f09a4016146107a5578063f4d8977f146107cf578063fbc3a6431461080e578063fbff7efd1461083a576102a1565b8063c7bd867c146106f9578063d2ca211514610723578063d5f394881461074f578063de8925f51461077b576102a1565b806381cc8807116100d157806381cc880714610638578063bdd266cd14610677578063c433c80a146106a3578063c4e3a63b146106cd576102a1565b8063616118901461057757806361928ecf146105a15780636fcdfed6146105e057806375f12b211461060c576102a1565b80631afdbce41161017a57806328d10de81161014957806328d10de8146104b55780633e948372146104df5780634b8295731461050957806350b4040014610547576102a1565b80631afdbce41461041457806323f5589a1461042c578063265e8a641461045857806326d8954514610489576102a1565b80630c340a24116101b65780630c340a241461033f5780630dae9f521461036b578063113cf1ab1461039757806315398ae7146103d5576102a1565b8063039d10e8146102a757806306040618146102d157806307da68f5146102fd5780630907653114610315576102a1565b366102a1575b7f000000000000000000000000000000000000000000000000000000000000000073ffffffffffffffffffffffffffffffffffffffff163373ffffffffffffffffffffffffffffffffffffffff16148061029257507f000000000000000000000000000000000000000000000000000000000000000073ffffffffffffffffffffffffffffffffffffffff163373ffffffffffffffffffffffffffffffffffffffff16145b151561029e5760006000fd5b5b005b60006000fd5b3480156102b45760006000fd5b506102cf60048036038101906102ca919061605c565b610879565b005b3480156102de5760006000fd5b506102e7610c6f565b6040516102f491906170d0565b60405180910390f35b34801561030a5760006000fd5b50610313610c87565b005b3480156103225760006000fd5b5061033d60048036038101906103389190616645565b610ca7565b005b34801561034c5760006000fd5b50610355610d3b565b6040516103629190616934565b60405180910390f35b3480156103785760006000fd5b50610381610d5f565b60405161038e91906170d0565b60405180910390f35b3480156103a45760006000fd5b506103bf60048036038101906103ba9190615fc1565b610d79565b6040516103cc9190616920565b60405180910390f35b3480156103e25760006000fd5b506103fd60048036038101906103f891906161c3565b610d9e565b60405161040b929190617064565b60405180910390f35b3480156104215760006000fd5b5061042a610ebd565b005b3480156104395760006000fd5b50610442610efa565b60405161044f91906170d0565b60405180910390f35b610472600480360381019061046d9190616277565b610f14565b604051610480929190617039565b60405180910390f35b3480156104965760006000fd5b5061049f611109565b6040516104ac91906170a0565b60405180910390f35b3480156104c25760006000fd5b506104dd60048036038101906104d8919061650e565b61111f565b005b3480156104ec5760006000fd5b506105076004803603810190610502919061654a565b611229565b005b3480156105165760006000fd5b50610531600480360381019061052c9190616035565b611319565b60405161053e9190616ed5565b60405180910390f35b610561600480360381019061055c9190616238565b61133f565b60405161056e9190616eb1565b60405180910390f35b3480156105845760006000fd5b5061059f600480360381019061059a9190616121565b611414565b005b3480156105ae5760006000fd5b506105c960048036038101906105c491906165ed565b611531565b6040516105d7929190617064565b60405180910390f35b3480156105ed5760006000fd5b506105f66116a0565b6040516106039190616ed5565b60405180910390f35b3480156106195760006000fd5b506106226116b4565b60405161062f9190616920565b60405180910390f35b3480156106455760006000fd5b50610660600480360381019061065b9190616035565b6116c7565b60405161066e9291906170ec565b60405180910390f35b3480156106845760006000fd5b5061068d611726565b60405161069a91906170d0565b60405180910390f35b3480156106b05760006000fd5b506106cb60048036038101906106c6919061661e565b611740565b005b3480156106da5760006000fd5b506106e36117c3565b6040516106f091906170d0565b60405180910390f35b3480156107065760006000fd5b50610721600480360381019061071c9190616645565b6117e7565b005b3480156107305760006000fd5b506107396118c2565b60405161074691906170d0565b60405180910390f35b34801561075c5760006000fd5b506107656118e6565b60405161077291906167f9565b60405180910390f35b3480156107885760006000fd5b506107a3600480360381019061079e9190616486565b61190c565b005b3480156107b25760006000fd5b506107cd60048036038101906107c891906160e5565b61198f565b005b3480156107dc5760006000fd5b506107f760048036038101906107f29190616184565b611a89565b604051610805929190617064565b60405180910390f35b34801561081b5760006000fd5b50610824611bb2565b6040516108319190616eb1565b60405180910390f35b3480156108475760006000fd5b50610862600480360381019061085d91906164e7565b611bd4565b604051610870929190616a66565b60405180910390f35b610887611cc163ffffffff16565b610895611dd463ffffffff16565b6000600660005060008573ffffffffffffffffffffffffffffffffffffffff1673ffffffffffffffffffffffffffffffffffffffff16815260200190815260200160002060009054906101000a900461ffff1690506108f981611f0163ffffffff16565b610901615d56565b60008484905090506000604051806040016040528060011515815260200161092e89611f7263ffffffff16565b60020b8152602001509050610941615e1c565b61094f6120be63ffffffff16565b67ffffffffffffffff1681608001909081815260200150506000600090505b83811015610c53577f000000000000000000000000000000000000000000000000000000000000000073ffffffffffffffffffffffffffffffffffffffff1663f34348f189898481811015156109c057fe5b905060200201356040518263ffffffff1660e01b81526004016109e39190616f13565b6101806040518083038186803b1580156109fd5760006000fd5b505afa158015610a12573d600060003e3d6000fd5b505050506040513d601f19601f82011682018060405250810190610a369190616358565b945084508561ffff16856020015161ffff16141515610a5457610c46565b610a688584602001516120d963ffffffff16565b15610a7257610c46565b610a818561210c63ffffffff16565b945084508787828181101515610a9357fe5b905060200201358260000190908181526020015050610ac482600001516000600088600001516124f963ffffffff16565b5050610b1f610b12600360089054906101000a900467ffffffffffffffff1667ffffffffffffffff168760a001516fffffffffffffffffffffffffffffffff1661272890919063ffffffff16565b61274e909063ffffffff16565b82602001906fffffffffffffffffffffffffffffffff1690816fffffffffffffffffffffffffffffffff1681526020015050610b6182336127e863ffffffff16565b5050610b9082602001518660a001516fffffffffffffffffffffffffffffffff166128d390919063ffffffff16565b82602001906fffffffffffffffffffffffffffffffff1690816fffffffffffffffffffffffffffffffff1681526020015050610bd68286600001516127e863ffffffff16565b5050610bed8260000151868561298063ffffffff16565b3373ffffffffffffffffffffffffffffffffffffffff168888838181101515610c1257fe5b905060200201357f6ba13b7ae6048936f291047829a5de36835ad46b52453fff379900999074709260405160405180910390a35b808060010191505061096e565b5050505050505b5b610c69612ab663ffffffff16565b5b505050565b6000610c7f612b4863ffffffff16565b905080505b90565b610c95612bc163ffffffff16565b610ca3612c2163ffffffff16565b5b5b565b610cb5612bc163ffffffff16565b6706f05b59d3b200008167ffffffffffffffff16101515610cd65760006000fd5b80600360086101000a81548167ffffffffffffffff021916908367ffffffffffffffff1602179055507f78244e8e46597270e2f0ae9c6baded3ba10f1b3f03316f89e49bbfeb1c06786881604051610d2e91906170d0565b60405180910390a15b5b50565b7f000000000000000000000000000000000000000000000000000000000000000081565b600860009054906101000a900467ffffffffffffffff1681565b600160005060205280600052604060002060009150909054906101000a900460ff1681565b60006000610db0611cc163ffffffff16565b610dbe612c6b63ffffffff16565b6000610dd38460000151612cf663ffffffff16565b9050610de88160800151612e0a63ffffffff16565b8060a0015184602001906fffffffffffffffffffffffffffffffff1690816fffffffffffffffffffffffffffffffff1681526020015050610e338482600001516127e863ffffffff16565b8093508194505050610e5d846000015182610e52612e5263ffffffff16565b61298063ffffffff16565b83600001517f1bd2c24817047e88025a4688c0fba3903e750cc05d80857de4201f42ec59bcf28484604051610e93929190617064565b60405180910390a282829250925050610ea856505b5b610eb7612ab663ffffffff16565b5b915091565b610ecb611cc163ffffffff16565b610ed9612c6b63ffffffff16565b610ee7612e5e63ffffffff16565b5b5b610ef7612ab663ffffffff16565b5b565b600360089054906101000a900467ffffffffffffffff1681565b60006000610f26611cc163ffffffff16565b610f34611dd463ffffffff16565b6000600660005060007f000000000000000000000000000000000000000000000000000000000000000073ffffffffffffffffffffffffffffffffffffffff16631698ee82886000015189602001518a604001516040518463ffffffff1660e01b8152600401610fa693929190616878565b60206040518083038186803b158015610fbf5760006000fd5b505afa158015610fd4573d600060003e3d6000fd5b505050506040513d601f19601f82011682018060405250810190610ff89190615f6d565b73ffffffffffffffffffffffffffffffffffffffff1673ffffffffffffffffffffffffffffffffffffffff16815260200190815260200160002060009054906101000a900461ffff16905061105281611f0163ffffffff16565b611061856130d863ffffffff16565b8093508194505050611085838287606001518860800151868961323e63ffffffff16565b828161ffff163373ffffffffffffffffffffffffffffffffffffffff167f87c666eb8f5e2d1a47a2af419127c84ea830d86b5f75e12ca3dafa33323d912288606001518960800151876040516110dd93929190616a9f565b60405180910390a4828292509250506110f256505b5b611101612ab663ffffffff16565b5b9250929050565b600460009054906101000a900463ffffffff1681565b61112d612bc163ffffffff16565b61113c82611f0163ffffffff16565b61114a612e5e63ffffffff16565b80600560005060008461ffff1661ffff16815260200190815260200160002060005060000160146101000a81548167ffffffffffffffff021916908367ffffffffffffffff16021790555060006111a561339763ffffffff16565b1115156111e7576040517f08c379a00000000000000000000000000000000000000000000000000000000081526004016111de90616b94565b60405180910390fd5b8161ffff167fcf476913af040a8c0a50588902fc980c73de756444694afb625e05906334404f8260405161121b91906170d0565b60405180910390a25b5b5050565b611237611cc163ffffffff16565b611245611dd463ffffffff16565b600061125682612cf663ffffffff16565b9050600081610120019063ffffffff16908163ffffffff16815260200150507f000000000000000000000000000000000000000000000000000000000000000073ffffffffffffffffffffffffffffffffffffffff1663816aaa2583836040518363ffffffff1660e01b81526004016112d0929190616f54565b600060405180830381600087803b1580156112eb5760006000fd5b505af1158015611300573d600060003e3d6000fd5b50505050505b5b611315612ab663ffffffff16565b5b50565b600660005060205280600052604060002060009150909054906101000a900461ffff1681565b600061134f611cc163ffffffff16565b61135d611dd463ffffffff16565b60006113728460000135612cf663ffffffff16565b90508281610120019063ffffffff16908163ffffffff168152602001505061139f8461343463ffffffff16565b915081506113b8818560000135846135ec63ffffffff16565b83600001357fcc5b49b47bfd2f61894e4c8977343543aa054a11ae847be904355459ce55dcd9836040516113ec9190616eb1565b60405180910390a2819150506113fe56505b5b61140d612ab663ffffffff16565b5b92915050565b611422612bc163ffffffff16565b6000600660005060008473ffffffffffffffffffffffffffffffffffffffff1673ffffffffffffffffffffffffffffffffffffffff16815260200190815260200160002060009054906101000a900461ffff1661ffff161415156114bb576040517f08c379a00000000000000000000000000000000000000000000000000000000081526004016114b290616c12565b60405180910390fd5b6114c9612e5e63ffffffff16565b6114d9828261386463ffffffff16565b61ffff168273ffffffffffffffffffffffffffffffffffffffff167fb42c51dce17f5346a481b9dd503edc20c8b6de38b22e12b35a5c77c131fb38ac8360405161152391906170d0565b60405180910390a35b5b5050565b60006000611543611cc163ffffffff16565b611551612c6b63ffffffff16565b600061156285612cf663ffffffff16565b90508381610120019063ffffffff16908163ffffffff16815260200150507f000000000000000000000000000000000000000000000000000000000000000073ffffffffffffffffffffffffffffffffffffffff1663816aaa2586836040518363ffffffff1660e01b81526004016115db929190616f54565b600060405180830381600087803b1580156115f65760006000fd5b505af115801561160b573d600060003e3d6000fd5b505050506116238560006000336124f963ffffffff16565b8093508194505050843373ffffffffffffffffffffffffffffffffffffffff167f56253d287efacdb2c4cd76dd03624a4821c1ce721d1152e8f5f5718f6087c9bf8585604051611674929190617064565b60405180910390a38282925092505061168956505b5b611698612ab663ffffffff16565b5b9250929050565b600460049054906101000a900461ffff1681565b600060009054906101000a900460ff1681565b60076000506020528060005260406000206000915090508060000160009054906101000a900467ffffffffffffffff16908060000160089054906101000a900477ffffffffffffffffffffffffffffffffffffffffffffffff16905082565b600360009054906101000a900467ffffffffffffffff1681565b61174e612bc163ffffffff16565b61012c8163ffffffff16101515156117665760006000fd5b80600460006101000a81548163ffffffff021916908363ffffffff1602179055507f811ba52920ff121eccd59ee98068330fc6736094b9a3fab10ada70fb0cd2f370816040516117b691906170b8565b60405180910390a15b5b50565b7f000000000000000000000000000000000000000000000000000000000000000081565b6117f5612bc163ffffffff16565b80600360006101000a81548167ffffffffffffffff021916908367ffffffffffffffff160217905550600360009054906101000a900467ffffffffffffffff1667ffffffffffffffff16600010151561184e5760006000fd5b670de0b6b3a7640000600360009054906101000a900467ffffffffffffffff1667ffffffffffffffff16111515156118865760006000fd5b7f41785a43e8509555b296851de25b00003ca4ca1c572c807cb301d4a0fb9582d4816040516118b591906170d0565b60405180910390a15b5b50565b7f000000000000000000000000000000000000000000000000000000000000000081565b600860089054906101000a900473ffffffffffffffffffffffffffffffffffffffff1681565b61191a612bc163ffffffff16565b80600360106101000a8154816fffffffffffffffffffffffffffffffff02191690836fffffffffffffffffffffffffffffffff1602179055507f755043e33e8e4c87253e98c56c011cc9905bf88318997b89b3520a54b3c5f170816040516119829190616eb1565b60405180910390a15b5b50565b6119ee600860089054906101000a900473ffffffffffffffffffffffffffffffffffffffff1673ffffffffffffffffffffffffffffffffffffffff163373ffffffffffffffffffffffffffffffffffffffff1614613cce63ffffffff16565b600860086101000a81549073ffffffffffffffffffffffffffffffffffffffff0219169055600161ffff16611a2b83610bb861386463ffffffff16565b61ffff16141515611a71576040517f08c379a0000000000000000000000000000000000000000000000000000000008152600401611a6890616ccf565b60405180910390fd5b611a83816103e861386463ffffffff16565b505b5050565b60006000611a9b611cc163ffffffff16565b611aa9611dd463ffffffff16565b6000611abe8560000135612cf663ffffffff16565b9050611ad38160800151612e0a63ffffffff16565b8381610120019063ffffffff16908163ffffffff1681526020015050611b1385803603810190611b0391906161c3565b82600001516127e863ffffffff16565b8093508194505050611b50818660000135876020016020810190611b379190616486565b611b45612e5263ffffffff16565b613d4a63ffffffff16565b84600001357ffafb1711250bf0d3906bfd9c4386a9a5a5fdf9ac1facdc9dfd2addad7d3f72e78484604051611b86929190617064565b60405180910390a281829250925050611b9b56505b5b611baa612ab663ffffffff16565b5b9250929050565b600360109054906101000a90046fffffffffffffffffffffffffffffffff1681565b60056000506020528060005260406000206000915090508060000160009054906101000a900473ffffffffffffffffffffffffffffffffffffffff16908060000160149054906101000a900467ffffffffffffffff16905082565b60006801000000000000000082101515611cb4576040517f08c379a00000000000000000000000000000000000000000000000000000000081526004018080602001828103825260118152602001807f6d6f7265207468616e203634206269747300000000000000000000000000000081526020015060200191505060405180910390fd5b819050611cbc565b919050565b7f000000000000000000000000000000000000000000000000000000000000000073ffffffffffffffffffffffffffffffffffffffff1663e97dcb626040518163ffffffff1660e01b8152600401600060405180830381600087803b158015611d2a5760006000fd5b505af1158015611d3f573d600060003e3d6000fd5b50505050600260026000505414151515611dc4576040517f08c379a000000000000000000000000000000000000000000000000000000000815260040180806020018281038252600d8152602001807f4c50205265656e7472616e63790000000000000000000000000000000000000081526020015060200191505060405180910390fd5b600260026000508190909055505b565b611de2612c6b63ffffffff16565b7f000000000000000000000000000000000000000000000000000000000000000073ffffffffffffffffffffffffffffffffffffffff1663bf86d6906040518163ffffffff1660e01b815260040160206040518083038186803b158015611e495760006000fd5b505afa158015611e5e573d600060003e3d6000fd5b505050506040513d6020811015611e755760006000fd5b8101908080519060200190929190505050151515611efe576040517f08c379a00000000000000000000000000000000000000000000000000000000081526004018080602001828103825260118152602001807f50726f746f636f6c2073687574646f776e00000000000000000000000000000081526020015060200191505060405180910390fd5b5b565b8061ffff166000108015611f2d5750600460049054906101000a900461ffff1661ffff168161ffff1611155b1515611f6e576040517f08c379a0000000000000000000000000000000000000000000000000000000008152600401611f6590616c51565b60405180910390fd5b5b50565b60007f000000000000000000000000000000000000000000000000000000000000000073ffffffffffffffffffffffffffffffffffffffff1663d3419bf36040518163ffffffff1660e01b815260040160206040518083038186803b158015611fdb5760006000fd5b505afa158015611ff0573d600060003e3d6000fd5b505050506040513d601f19601f82011682018060405250810190612014919061600e565b73ffffffffffffffffffffffffffffffffffffffff1663fcebd71c83600460009054906101000a900463ffffffff166040518363ffffffff1660e01b8152600401612060929190616a31565b60206040518083038186803b1580156120795760006000fd5b505afa15801561208e573d600060003e3d6000fd5b505050506040513d601f19601f820116820180604052508101906120b2919061615d565b90506120b9565b919050565b60006120d142611c2f909063ffffffff16565b905080505b90565b60008160020b8360e0015160020b131580156120ff575082610100015160020b8260020b125b9050612106565b92915050565b612114615d56565b60006121246141ba63ffffffff16565b90506000612137826142b963ffffffff16565b905060008460c001519050600060008267ffffffffffffffff161461216a57612165826142b963ffffffff16565b61216d565b60005b90508067ffffffffffffffff168367ffffffffffffffff1611151561219857859450505050506124f4565b6121a6612e5e63ffffffff16565b6000612267877f000000000000000000000000000000000000000000000000000000000000000073ffffffffffffffffffffffffffffffffffffffff166351ad51f78a602001516040518263ffffffff1660e01b81526004016122099190616ed5565b60406040518083038186803b1580156122225760006000fd5b505afa158015612237573d600060003e3d6000fd5b505050506040513d601f19601f8201168201806040525081019061225b919061643a565b8761434163ffffffff16565b809250819750505060008111156124e257600073ffffffffffffffffffffffffffffffffffffffff1686610140015173ffffffffffffffffffffffffffffffffffffffff16141580156122c95750600086610160015167ffffffffffffffff16115b156123f85760006122f287610160015167ffffffffffffffff168361272890919063ffffffff16565b90507f000000000000000000000000000000000000000000000000000000000000000073ffffffffffffffffffffffffffffffffffffffff1663ef7a7cfa886101400151836040518363ffffffff1660e01b81526004016123549291906168b7565b600060405180830381600087803b15801561236f5760006000fd5b505af1158015612384573d600060003e3d6000fd5b505050506001151587610140015173ffffffffffffffffffffffffffffffffffffffff167f8079a05488a0f375c08504c3ba8b3a1371f5a192b7a141bc9294ef7ad41389d9836040516123d79190616f13565b60405180910390a36123f2818361447990919063ffffffff16565b91508150505b7f000000000000000000000000000000000000000000000000000000000000000073ffffffffffffffffffffffffffffffffffffffff1663ef7a7cfa8760000151836040518363ffffffff1660e01b81526004016124579291906168b7565b600060405180830381600087803b1580156124725760006000fd5b505af1158015612487573d600060003e3d6000fd5b5050505060001515866000015173ffffffffffffffffffffffffffffffffffffffff167f8079a05488a0f375c08504c3ba8b3a1371f5a192b7a141bc9294ef7ad41389d9836040516124d99190616f13565b60405180910390a35b85955050505050506124f45650505050505b919050565b600060007f000000000000000000000000000000000000000000000000000000000000000073ffffffffffffffffffffffffffffffffffffffff1663fc6f78656040518060800160405280898152602001600073ffffffffffffffffffffffffffffffffffffffff1681526020016fffffffffffffffffffffffffffffffff6fffffffffffffffffffffffffffffffff1681526020016fffffffffffffffffffffffffffffffff6fffffffffffffffffffffffffffffffff168152602001506040518263ffffffff1660e01b81526004016125d49190616d0e565b604060405180830381600087803b1580156125ef5760006000fd5b505af1158015612604573d600060003e3d6000fd5b505050506040513d601f19601f8201168201806040525081019061262891906165c7565b8092508193505050600060007f000000000000000000000000000000000000000000000000000000000000000073ffffffffffffffffffffffffffffffffffffffff166399fbab88896040518263ffffffff1660e01b815260040161268d9190616f13565b6101806040518083038186803b1580156126a75760006000fd5b505afa1580156126bc573d600060003e3d6000fd5b505050506040513d601f19601f820116820180604052508101906126e09190616693565b50505050505050509350935050506126ff82888761450263ffffffff16565b61271081878761450263ffffffff16565b838393509350505061271f5650505b94509492505050565b60006127438383670de0b6b3a764000061468263ffffffff16565b905080505b92915050565b6000700100000000000000000000000000000000821015156127db576040517f08c379a00000000000000000000000000000000000000000000000000000000081526004018080602001828103825260128152602001807f6d6f7265207468616e203132382062697473000000000000000000000000000081526020015060200191505060405180910390fd5b8190506127e3565b919050565b600060007f000000000000000000000000000000000000000000000000000000000000000073ffffffffffffffffffffffffffffffffffffffff16630c49ccbe856040518263ffffffff1660e01b81526004016128459190616d6d565b604060405180830381600087803b1580156128605760006000fd5b505af1158015612875573d600060003e3d6000fd5b505050506040513d601f19601f8201168201806040525081019061289991906165c7565b80925081935050506128bf846000015185604001518660600151866124f963ffffffff16565b50508081915091506128cc565b9250929050565b6000826fffffffffffffffffffffffffffffffff168284039150816fffffffffffffffffffffffffffffffff1611151515612979576040517f08c379a000000000000000000000000000000000000000000000000000000000815260040180806020018281038252600d8152602001807f7375622d756e646572666c6f770000000000000000000000000000000000000081526020015060200191505060405180910390fd5b5b92915050565b61299682848460a0015184613d4a63ffffffff16565b7f000000000000000000000000000000000000000000000000000000000000000073ffffffffffffffffffffffffffffffffffffffff166326879a4e846040518263ffffffff1660e01b81526004016129ef9190616f13565b600060405180830381600087803b158015612a0a5760006000fd5b505af1158015612a1f573d600060003e3d6000fd5b505050507f000000000000000000000000000000000000000000000000000000000000000073ffffffffffffffffffffffffffffffffffffffff166342966c68846040518263ffffffff1660e01b8152600401612a7c9190616f13565b600060405180830381600087803b158015612a975760006000fd5b505af1158015612aac573d600060003e3d6000fd5b505050505b505050565b600160026000508190909055507f000000000000000000000000000000000000000000000000000000000000000073ffffffffffffffffffffffffffffffffffffffff1663e9fad8ee6040518163ffffffff1660e01b8152600401600060405180830381600087803b158015612b2c5760006000fd5b505af1158015612b41573d600060003e3d6000fd5b505050505b565b60007f00000000000000000000000000000000000000000000000000000000000000007f000000000000000000000000000000000000000000000000000000000000000067ffffffffffffffff16612ba46120be63ffffffff16565b67ffffffffffffffff16811515612bb757fe5b0403905080505b90565b612c1e7f000000000000000000000000000000000000000000000000000000000000000073ffffffffffffffffffffffffffffffffffffffff163373ffffffffffffffffffffffffffffffffffffffff1614613cce63ffffffff16565b5b565b6001600060006101000a81548160ff0219169083151502179055507f7acc84e34091ae817647a4c49116f5cc07f319078ba80f8f5fde37ea7e25cbd660405160405180910390a15b565b600060009054906101000a900460ff16151515612cf3576040517f08c379a00000000000000000000000000000000000000000000000000000000081526004018080602001828103825260138152602001807f436f6e74726163742069732073746f707065640000000000000000000000000081526020015060200191505060405180910390fd5b5b565b612cfe615d56565b612db87f000000000000000000000000000000000000000000000000000000000000000073ffffffffffffffffffffffffffffffffffffffff1663f34348f1846040518263ffffffff1660e01b8152600401612d5a9190616f13565b6101806040518083038186803b158015612d745760006000fd5b505afa158015612d89573d600060003e3d6000fd5b505050506040513d601f19601f82011682018060405250810190612dad9190616358565b61210c63ffffffff16565b90508050612dfd816000015173ffffffffffffffffffffffffffffffffffffffff163373ffffffffffffffffffffffffffffffffffffffff1614613cce63ffffffff16565b809050612e05565b919050565b4381101515612e4e576040517f08c379a0000000000000000000000000000000000000000000000000000000008152600401612e4590616c90565b60405180910390fd5b5b50565b612e5a615e60565b5b90565b6000612e6e61478363ffffffff16565b9050600860009054906101000a900467ffffffffffffffff1667ffffffffffffffff168167ffffffffffffffff16111515612ea957506130d6565b6000600860009054906101000a900467ffffffffffffffff1682039050600061384067ffffffffffffffff1662015180811515612ee257fe5b0467ffffffffffffffff16612fab8367ffffffffffffffff167f000000000000000000000000000000000000000000000000000000000000000073ffffffffffffffffffffffffffffffffffffffff166318c7de176040518163ffffffff1660e01b8152600401602060405180830381600087803b158015612f645760006000fd5b505af1158015612f79573d600060003e3d6000fd5b505050506040513d601f19601f82011682018060405250810190612f9d9190616566565b6147ab90919063ffffffff16565b811515612fb457fe5b0490506000600460049054906101000a900461ffff16905060006000612fde61339763ffffffff16565b90506001915081505b8261ffff168261ffff1611151561306d5761305f82613053600560005060008661ffff1661ffff16815260200190815260200160002060005060000160149054906101000a900467ffffffffffffffff1667ffffffffffffffff1684886146829092919063ffffffff16565b8761484963ffffffff16565b5b8180600101925050612fe7565b85600860006101000a81548167ffffffffffffffff021916908367ffffffffffffffff1602179055507f095a67d1e9698fe0eebf9cff79a22f6423cebcb4e386a0bdd7e12330d86381ed84866040516130c792919061707d565b60405180910390a15050505050505b565b600060006130f483600001518460a00151614adb63ffffffff16565b61310c83602001518460c00151614adb63ffffffff16565b7f000000000000000000000000000000000000000000000000000000000000000083610120019073ffffffffffffffffffffffffffffffffffffffff16908173ffffffffffffffffffffffffffffffffffffffff16815260200150507f000000000000000000000000000000000000000000000000000000000000000073ffffffffffffffffffffffffffffffffffffffff166388316456846040518263ffffffff1660e01b81526004016131c19190616dff565b608060405180830381600087803b1580156131dc5760006000fd5b505af11580156131f1573d600060003e3d6000fd5b505050506040513d601f19601f820116820180604052508101906132159190616582565b905050809250819350505061323883600001518460200151614bdb63ffffffff16565b5b915091565b7f000000000000000000000000000000000000000000000000000000000000000073ffffffffffffffffffffffffffffffffffffffff166375ea13ca33886040518363ffffffff1660e01b8152600401613299929190616849565b600060405180830381600087803b1580156132b45760006000fd5b505af11580156132c9573d600060003e3d6000fd5b505050506132d5615d56565b33816000019073ffffffffffffffffffffffffffffffffffffffff16908173ffffffffffffffffffffffffffffffffffffffff168152602001505085816020019061ffff16908161ffff1681526020015050848160e0019060020b908160020b815260200150508381610100019060020b908160020b815260200150508181610120019063ffffffff16908163ffffffff168152602001505061338d6133808261210c63ffffffff16565b88856135ec63ffffffff16565b505b505050505050565b60006000600190505b600460049054906101000a900461ffff1661ffff168161ffff1611151561342857613416600560005060008361ffff1661ffff16815260200190815260200160002060005060000160149054906101000a900467ffffffffffffffff1667ffffffffffffffff1683614c9a90919063ffffffff16565b915081505b80806001019150506133a0565b50809050613431565b90565b6000600060007f000000000000000000000000000000000000000000000000000000000000000073ffffffffffffffffffffffffffffffffffffffff166399fbab8885600001356040518263ffffffff1660e01b81526004016134979190616f13565b6101806040518083038186803b1580156134b15760006000fd5b505afa1580156134c6573d600060003e3d6000fd5b505050506040513d601f19601f820116820180604052508101906134ea9190616693565b505050505050505093509350505061350c828560200135614adb63ffffffff16565b613520818560400135614adb63ffffffff16565b7f000000000000000000000000000000000000000000000000000000000000000073ffffffffffffffffffffffffffffffffffffffff1663219f5d17856040518263ffffffff1660e01b81526004016135799190616dba565b606060405180830381600087803b1580156135945760006000fd5b505af11580156135a9573d600060003e3d6000fd5b505050506040513d601f19601f820116820180604052508101906135cd91906164ad565b905050809350506135e48282614bdb63ffffffff16565b50505b919050565b600060056000506000856020015161ffff1661ffff16815260200190815260200160002060005060000160009054906101000a900473ffffffffffffffffffffffffffffffffffffffff169050600061364a82611f7263ffffffff16565b905061365c85826120d963ffffffff16565b151561369d576040517f08c379a000000000000000000000000000000000000000000000000000000000815260040161369490616ad7565b60405180910390fd5b6136d78582846136cc878a60a001516fffffffffffffffffffffffffffffffff16614d2390919063ffffffff16565b614dd063ffffffff16565b7f000000000000000000000000000000000000000000000000000000000000000073ffffffffffffffffffffffffffffffffffffffff16631428561d83856040518363ffffffff1660e01b81526004016137329291906169f0565b600060405180830381600087803b15801561374d5760006000fd5b505af1158015613762573d600060003e3d6000fd5b50505050670de0b6b3a7640000600360009054906101000a900467ffffffffffffffff1667ffffffffffffffff161080156137a95750600161ffff16856020015161ffff16145b156137be576137bd82614fcb63ffffffff16565b5b4385608001909081815260200150507f000000000000000000000000000000000000000000000000000000000000000073ffffffffffffffffffffffffffffffffffffffff1663816aaa2585876040518363ffffffff1660e01b8152600401613828929190616f54565b600060405180830381600087803b1580156138435760006000fd5b505af1158015613858573d600060003e3d6000fd5b5050505050505b505050565b60006000600660005060008573ffffffffffffffffffffffffffffffffffffffff1673ffffffffffffffffffffffffffffffffffffffff16815260200190815260200160002060009054906101000a900461ffff1661ffff161415156138ff576040517f08c379a00000000000000000000000000000000000000000000000000000000081526004016138f690616b55565b60405180910390fd5b61ffff61ffff166004600481819054906101000a900461ffff1660010191906101000a81548161ffff021916908361ffff160217905561ffff161015156139465760006000fd5b7f000000000000000000000000000000000000000000000000000000000000000073ffffffffffffffffffffffffffffffffffffffff1663d3419bf36040518163ffffffff1660e01b815260040160206040518083038186803b1580156139ad5760006000fd5b505afa1580156139c2573d600060003e3d6000fd5b505050506040513d601f19601f820116820180604052508101906139e6919061600e565b73ffffffffffffffffffffffffffffffffffffffff1663407431f7846040518263ffffffff1660e01b8152600401613a1e919061695c565b600060405180830381600087803b158015613a395760006000fd5b505af1158015613a4e573d600060003e3d6000fd5b50505050600460049054906101000a900461ffff169050805060405180604001604052808473ffffffffffffffffffffffffffffffffffffffff1681526020018367ffffffffffffffff16815260200150600560005060008361ffff1661ffff16815260200190815260200160002060005060008201518160000160006101000a81548173ffffffffffffffffffffffffffffffffffffffff021916908373ffffffffffffffffffffffffffffffffffffffff16021790555060208201518160000160146101000a81548167ffffffffffffffff021916908367ffffffffffffffff16021790555090505080600660005060008573ffffffffffffffffffffffffffffffffffffffff1673ffffffffffffffffffffffffffffffffffffffff16815260200190815260200160002060006101000a81548161ffff021916908361ffff160217905550613c248373ffffffffffffffffffffffffffffffffffffffff16630dfe16816040518163ffffffff1660e01b815260040160206040518083038186803b158015613be05760006000fd5b505afa158015613bf5573d600060003e3d6000fd5b505050506040513d601f19601f82011682018060405250810190613c199190615f6d565b61526363ffffffff16565b613cb28373ffffffffffffffffffffffffffffffffffffffff1663d21220a76040518163ffffffff1660e01b815260040160206040518083038186803b158015613c6e5760006000fd5b505afa158015613c83573d600060003e3d6000fd5b505050506040513d601f19601f82011682018060405250810190613ca79190615f6d565b61526363ffffffff16565b613cc0612e5e63ffffffff16565b809050613cc8565b92915050565b801515613d46576040517f08c379a000000000000000000000000000000000000000000000000000000000815260040180806020018281038252600e8152602001807f4e6f7420417574686f72697a656400000000000000000000000000000000000081526020015060200191505060405180910390fd5b5b50565b600060056000506000866020015161ffff1661ffff16815260200190815260200160002060005060000160009054906101000a900473ffffffffffffffffffffffffffffffffffffffff16905060008260000151613db657613db182611f7263ffffffff16565b613dbc565b82602001515b90506000670de0b6b3a7640000600360009054906101000a900467ffffffffffffffff1667ffffffffffffffff16108015613e035750600161ffff16876020015161ffff16145b8015613e1b5750613e1a87836120d963ffffffff16565b5b8015613ec457507f000000000000000000000000000000000000000000000000000000000000000073ffffffffffffffffffffffffffffffffffffffff1663bf86d6906040518163ffffffff1660e01b815260040160206040518083038186803b158015613e895760006000fd5b505afa158015613e9e573d600060003e3d6000fd5b505050506040513d601f19601f82011682018060405250810190613ec29190615f94565b155b9050613f00878385613ef5898c60a001516fffffffffffffffffffffffffffffffff166128d390919063ffffffff16565b614dd063ffffffff16565b8015613f1657613f1583614fcb63ffffffff16565b5b7f000000000000000000000000000000000000000000000000000000000000000073ffffffffffffffffffffffffffffffffffffffff1663530c1ccb84876040518363ffffffff1660e01b8152600401613f719291906169f0565b600060405180830381600087803b158015613f8c5760006000fd5b505af1158015613fa1573d600060003e3d6000fd5b50505050801561412157600760005060008473ffffffffffffffffffffffffffffffffffffffff1673ffffffffffffffffffffffffffffffffffffffff16815260200190815260200160002060005060000160089054906101000a900477ffffffffffffffffffffffffffffffffffffffffffffffff1677ffffffffffffffffffffffffffffffffffffffffffffffff167f000000000000000000000000000000000000000000000000000000000000000073ffffffffffffffffffffffffffffffffffffffff1663a135ef17856040518263ffffffff1660e01b815260040161408b919061695c565b60206040518083038186803b1580156140a45760006000fd5b505afa1580156140b9573d600060003e3d6000fd5b505050506040513d601f19601f820116820180604052508101906140dd9190616566565b10151515614120576040517f08c379a000000000000000000000000000000000000000000000000000000000815260040161411790616b16565b60405180910390fd5b5b7f000000000000000000000000000000000000000000000000000000000000000073ffffffffffffffffffffffffffffffffffffffff1663816aaa2587896040518363ffffffff1660e01b815260040161417c929190616f54565b600060405180830381600087803b1580156141975760006000fd5b505af11580156141ac573d600060003e3d6000fd5b505050505050505b50505050565b600060006141cc6120be63ffffffff16565b905060007f000000000000000000000000000000000000000000000000000000000000000073ffffffffffffffffffffffffffffffffffffffff1663585690816040518163ffffffff1660e01b815260040160206040518083038186803b1580156142375760006000fd5b505afa15801561424c573d600060003e3d6000fd5b505050506040513d601f19601f82011682018060405250810190614270919061666c565b90508067ffffffffffffffff16600010801561429f57508167ffffffffffffffff168167ffffffffffffffff16105b6142a957816142ab565b805b925050506142b65650505b90565b60006143377f00000000000000000000000000000000000000000000000000000000000000007f000000000000000000000000000000000000000000000000000000000000000067ffffffffffffffff168467ffffffffffffffff1681151561431e57fe5b0467ffffffffffffffff166152b890919063ffffffff16565b905080505b919050565b614349615d56565b6000849150815060008260a001516fffffffffffffffffffffffffffffffff16111561441d576144186143938360c001518567ffffffffffffffff166152b890919063ffffffff16565b67ffffffffffffffff1661384067ffffffffffffffff166144096143c88660600151896000015161447990919063ffffffff16565b6143e387604001518a6020015161447990919063ffffffff16565b8760a001516fffffffffffffffffffffffffffffffff166146829092919063ffffffff16565b6146829092919063ffffffff16565b905080505b8360000151826060019090818152602001505083602001518260400190908181526020015050828260c0019067ffffffffffffffff16908167ffffffffffffffff1681526020015050818191509150614471565b935093915050565b600082828403915081111515156144fb576040517f08c379a000000000000000000000000000000000000000000000000000000000815260040180806020018281038252600d8152602001807f7375622d756e646572666c6f770000000000000000000000000000000000000081526020015060200191505060405180910390fd5b5b92915050565b7f000000000000000000000000000000000000000000000000000000000000000073ffffffffffffffffffffffffffffffffffffffff168373ffffffffffffffffffffffffffffffffffffffff1614156145ea577f000000000000000000000000000000000000000000000000000000000000000073ffffffffffffffffffffffffffffffffffffffff166349404b7c83836040518363ffffffff1660e01b81526004016145b1929190616f25565b600060405180830381600087803b1580156145cc5760006000fd5b505af11580156145e1573d600060003e3d6000fd5b5050505061467c565b7f000000000000000000000000000000000000000000000000000000000000000073ffffffffffffffffffffffffffffffffffffffff1663df2ab5bb8484846040518463ffffffff1660e01b8152600401614647939291906168e6565b600060405180830381600087803b1580156146625760006000fd5b505af1158015614677573d600060003e3d6000fd5b505050505b5b505050565b60006000600060001985870985870292508281108382030391505060008114156146c5576000841115156146b65760006000fd5b8382049250829250505061477c565b80841115156146d45760006000fd5b600084868809905082811182039150808303925060008586600003169050808604955080840493506001818260000304019050808302841793508350600060028760030218905080870260020381029050805080870260020381029050805080870260020381029050805080870260020381029050805080870260020381029050805080870260020381029050805080850295508550859550505050505061477c5650505050505b9392505050565b60006147a16147966141ba63ffffffff16565b6142b963ffffffff16565b90506147a8565b90565b600060008214806147cb575082828385029250828115156147c857fe5b04145b1515614842576040517f08c379a000000000000000000000000000000000000000000000000000000000815260040180806020018281038252600c8152602001807f6d756c2d6f766572666c6f77000000000000000000000000000000000000000081526020015060200191505060405180910390fd5b5b92915050565b60007f000000000000000000000000000000000000000000000000000000000000000073ffffffffffffffffffffffffffffffffffffffff166351ad51f7856040518263ffffffff1660e01b81526004016148a49190616ed5565b60406040518083038186803b1580156148bd5760006000fd5b505afa1580156148d2573d600060003e3d6000fd5b505050506040513d601f19601f820116820180604052508101906148f6919061643a565b90507f000000000000000000000000000000000000000000000000000000000000000073ffffffffffffffffffffffffffffffffffffffff1663f7099607856040518060400160405280614957888760000151614c9a90919063ffffffff16565b8152602001614a7d614a6a8867ffffffffffffffff167f000000000000000000000000000000000000000000000000000000000000000073ffffffffffffffffffffffffffffffffffffffff1663a135ef17600560005060008f61ffff1661ffff16815260200190815260200160002060005060000160009054906101000a900473ffffffffffffffffffffffffffffffffffffffff166040518263ffffffff1660e01b8152600401614a0a919061695c565b60206040518083038186803b158015614a235760006000fd5b505afa158015614a38573d600060003e3d6000fd5b505050506040513d601f19601f82011682018060405250810190614a5c9190616566565b6147ab90919063ffffffff16565b8760200151614c9a90919063ffffffff16565b8152602001506040518363ffffffff1660e01b8152600401614aa0929190616eeb565b600060405180830381600087803b158015614abb5760006000fd5b505af1158015614ad0573d600060003e3d6000fd5b50505050505b505050565b7f000000000000000000000000000000000000000000000000000000000000000073ffffffffffffffffffffffffffffffffffffffff168273ffffffffffffffffffffffffffffffffffffffff16148015614b365750804710155b15614bc3577f000000000000000000000000000000000000000000000000000000000000000073ffffffffffffffffffffffffffffffffffffffff1663d0e30db0826040518263ffffffff1660e01b81526004016000604051808303818588803b158015614ba45760006000fd5b505af1158015614bb9573d600060003e3d6000fd5b5050505050614bd6565b614bd58233308461535563ffffffff16565b5b5b5050565b614bea8261558063ffffffff16565b614bf98161558063ffffffff16565b7f000000000000000000000000000000000000000000000000000000000000000073ffffffffffffffffffffffffffffffffffffffff166312210e8a6040518163ffffffff1660e01b8152600401600060405180830381600087803b158015614c625760006000fd5b505af1158015614c77573d600060003e3d6000fd5b505050506000471115614c9557614c94334761571663ffffffff16565b5b5b5050565b60008282840191508110151515614d1c576040517f08c379a000000000000000000000000000000000000000000000000000000000815260040180806020018281038252600c8152602001807f6164642d6f766572666c6f77000000000000000000000000000000000000000081526020015060200191505060405180910390fd5b5b92915050565b6000826fffffffffffffffffffffffffffffffff168284019150816fffffffffffffffffffffffffffffffff1610151515614dc9576040517f08c379a000000000000000000000000000000000000000000000000000000000815260040180806020018281038252600c8152602001807f6164642d6f766572666c6f77000000000000000000000000000000000000000081526020015060200191505060405180910390fd5b5b92915050565b6000816fffffffffffffffffffffffffffffffff161415614df057614fc5565b60007f000000000000000000000000000000000000000000000000000000000000000073ffffffffffffffffffffffffffffffffffffffff1663d3419bf36040518163ffffffff1660e01b815260040160206040518083038186803b158015614e595760006000fd5b505afa158015614e6e573d600060003e3d6000fd5b505050506040513d601f19601f82011682018060405250810190614e92919061600e565b73ffffffffffffffffffffffffffffffffffffffff16631fab230e84868860e0015189610100015187600460009054906101000a900463ffffffff166040518763ffffffff1660e01b8152600401614eef96959493929190616984565b60206040518083038186803b158015614f085760006000fd5b505afa158015614f1d573d600060003e3d6000fd5b505050506040513d601f19601f82011682018060405250810190614f419190616566565b9050600360109054906101000a90046fffffffffffffffffffffffffffffffff166fffffffffffffffffffffffffffffffff1681101580614f825750600081145b1515614fc3576040517f08c379a0000000000000000000000000000000000000000000000000000000008152600401614fba90616bd3565b60405180910390fd5b505b50505050565b6000614fdb612b4863ffffffff16565b90508067ffffffffffffffff16600760005060008473ffffffffffffffffffffffffffffffffffffffff1673ffffffffffffffffffffffffffffffffffffffff16815260200190815260200160002060005060000160009054906101000a900467ffffffffffffffff1667ffffffffffffffff16101561525e5760405180604001604052808267ffffffffffffffff16815260200161517761516a6150b1600360009054906101000a900467ffffffffffffffff1667ffffffffffffffff16670de0b6b3a764000061447990919063ffffffff16565b7f000000000000000000000000000000000000000000000000000000000000000073ffffffffffffffffffffffffffffffffffffffff1663a135ef17886040518263ffffffff1660e01b815260040161510a919061695c565b60206040518083038186803b1580156151235760006000fd5b505afa158015615138573d600060003e3d6000fd5b505050506040513d601f19601f8201168201806040525081019061515c9190616566565b61272890919063ffffffff16565b61589c909063ffffffff16565b77ffffffffffffffffffffffffffffffffffffffffffffffff16815260200150600760005060008473ffffffffffffffffffffffffffffffffffffffff1673ffffffffffffffffffffffffffffffffffffffff16815260200190815260200160002060005060008201518160000160006101000a81548167ffffffffffffffff021916908367ffffffffffffffff16021790555060208201518160000160086101000a81548177ffffffffffffffffffffffffffffffffffffffffffffffff021916908377ffffffffffffffffffffffffffffffffffffffffffffffff1602179055509050505b505b50565b6152b4817f00000000000000000000000000000000000000000000000000000000000000007fffffffffffffffffffffffffffffffffffffffffffffffffffffffffffffffff61593e63ffffffff16565b5b50565b60008267ffffffffffffffff1682840391508167ffffffffffffffff161115151561534e576040517f08c379a000000000000000000000000000000000000000000000000000000000815260040180806020018281038252600d8152602001807f7375622d756e646572666c6f770000000000000000000000000000000000000081526020015060200191505060405180910390fd5b5b92915050565b600060008573ffffffffffffffffffffffffffffffffffffffff166323b872dd60e01b868686604051602401808473ffffffffffffffffffffffffffffffffffffffff1681526020018373ffffffffffffffffffffffffffffffffffffffff1681526020018281526020019350505050604051602081830303815290604052907bffffffffffffffffffffffffffffffffffffffffffffffffffffffff19166020820180517bffffffffffffffffffffffffffffffffffffffffffffffffffffffff83818316178352505050506040518082805190602001908083835b60208310151561545857805182525b602082019150602081019050602083039250615432565b6001836020036101000a0380198251168184511680821785525050505050509050019150506000604051808303816000865af19150503d80600081146154ba576040519150601f19603f3d011682016040523d82523d6000602084013e6154bf565b606091505b509150915081801561550057506000815114806154ff57508080602001905160208110156154ed5760006000fd5b81019080805190602001909291905050505b5b1515615577576040517f08c379a00000000000000000000000000000000000000000000000000000000081526004018080602001828103825260038152602001807f535446000000000000000000000000000000000000000000000000000000000081526020015060200191505060405180910390fd5b50505b50505050565b60008173ffffffffffffffffffffffffffffffffffffffff166370a08231306040518263ffffffff1660e01b81526004016155bb9190616821565b60206040518083038186803b1580156155d45760006000fd5b505afa1580156155e9573d600060003e3d6000fd5b505050506040513d601f19601f8201168201806040525081019061560d9190616566565b90506000811115615711577f000000000000000000000000000000000000000000000000000000000000000073ffffffffffffffffffffffffffffffffffffffff168273ffffffffffffffffffffffffffffffffffffffff1614156156fe577f000000000000000000000000000000000000000000000000000000000000000073ffffffffffffffffffffffffffffffffffffffff16632e1a7d4d826040518263ffffffff1660e01b81526004016156c59190616f13565b600060405180830381600087803b1580156156e05760006000fd5b505af11580156156f5573d600060003e3d6000fd5b50505050615710565b61570f823383615b4a63ffffffff16565b5b5b505b50565b60008273ffffffffffffffffffffffffffffffffffffffff1682600067ffffffffffffffff811180156157495760006000fd5b506040519080825280601f01601f19166020018201604052801561577c5781602001600182028036833780820191505090505b506040518082805190602001908083835b6020831015156157b357805182525b60208201915060208101905060208303925061578d565b6001836020036101000a03801982511681845116808217855250505050505090500191505060006040518083038185875af1925050503d8060008114615815576040519150601f19603f3d011682016040523d82523d6000602084013e61581a565b606091505b50509050801515615896576040517f08c379a00000000000000000000000000000000000000000000000000000000081526004018080602001828103825260038152602001807f535445000000000000000000000000000000000000000000000000000000000081526020015060200191505060405180910390fd5b505b5050565b6000780100000000000000000000000000000000000000000000000082101515615931576040517f08c379a00000000000000000000000000000000000000000000000000000000081526004018080602001828103825260128152602001807f6d6f7265207468616e203139322062697473000000000000000000000000000081526020015060200191505060405180910390fd5b819050615939565b919050565b600060008473ffffffffffffffffffffffffffffffffffffffff1663095ea7b360e01b8585604051602401808373ffffffffffffffffffffffffffffffffffffffff16815260200182815260200192505050604051602081830303815290604052907bffffffffffffffffffffffffffffffffffffffffffffffffffffffff19166020820180517bffffffffffffffffffffffffffffffffffffffffffffffffffffffff83818316178352505050506040518082805190602001908083835b602083101515615a2357805182525b6020820191506020810190506020830392506159fd565b6001836020036101000a0380198251168184511680821785525050505050509050019150506000604051808303816000865af19150503d8060008114615a85576040519150601f19603f3d011682016040523d82523d6000602084013e615a8a565b606091505b5091509150818015615acb5750600081511480615aca5750808060200190516020811015615ab85760006000fd5b81019080805190602001909291905050505b5b1515615b42576040517f08c379a00000000000000000000000000000000000000000000000000000000081526004018080602001828103825260028152602001807f534100000000000000000000000000000000000000000000000000000000000081526020015060200191505060405180910390fd5b50505b505050565b600060008473ffffffffffffffffffffffffffffffffffffffff1663a9059cbb60e01b8585604051602401808373ffffffffffffffffffffffffffffffffffffffff16815260200182815260200192505050604051602081830303815290604052907bffffffffffffffffffffffffffffffffffffffffffffffffffffffff19166020820180517bffffffffffffffffffffffffffffffffffffffffffffffffffffffff83818316178352505050506040518082805190602001908083835b602083101515615c2f57805182525b602082019150602081019050602083039250615c09565b6001836020036101000a0380198251168184511680821785525050505050509050019150506000604051808303816000865af19150503d8060008114615c91576040519150601f19603f3d011682016040523d82523d6000602084013e615c96565b606091505b5091509150818015615cd75750600081511480615cd65750808060200190516020811015615cc45760006000fd5b81019080805190602001909291905050505b5b1515615d4e576040517f08c379a00000000000000000000000000000000000000000000000000000000081526004018080602001828103825260028152602001807f535400000000000000000000000000000000000000000000000000000000000081526020015060200191505060405180910390fd5b50505b505050565b604051806101800160405280600073ffffffffffffffffffffffffffffffffffffffff168152602001600061ffff16815260200160008152602001600081526020016000815260200160006fffffffffffffffffffffffffffffffff168152602001600067ffffffffffffffff168152602001600060020b8152602001600060020b8152602001600063ffffffff168152602001600073ffffffffffffffffffffffffffffffffffffffff168152602001600067ffffffffffffffff1681526020015090565b6040518060a001604052806000815260200160006fffffffffffffffffffffffffffffffff1681526020016000815260200160008152602001600081526020015090565b6040518060400160405280600015158152602001600060020b815260200150905661721d565b600081359050615e9581617154565b5b919050565b600081519050615eaa81617154565b5b919050565b600081359050615ebf8161717d565b5b919050565b600081519050615ed48161717d565b5b919050565b600081519050615ee981617193565b5b919050565b600081519050615efe816171b8565b5b919050565b600081359050615f13816171cf565b5b919050565b600081519050615f28816171cf565b5b919050565b600081359050615f3d816171e7565b5b919050565b600081519050615f52816171e7565b5b919050565b600081519050615f6781617200565b5b919050565b600060208284031215615f7e578081fd5b8151615f8981617154565b809150505b92915050565b600060208284031215615fa5578081fd5b815180151581141515615fb6578182fd5b809150505b92915050565b600060208284031215615fd2578081fd5b81357fffffffff00000000000000000000000000000000000000000000000000000000811681141515616003578182fd5b809150505b92915050565b60006020828403121561601f578081fd5b815161602a81617154565b809150505b92915050565b600060208284031215616046578081fd5b813561605181617154565b809150505b92915050565b60006000600060408486031215616071578182fd5b833561607c81617154565b80935050602084013567ffffffffffffffff8082111561609a578384fd5b818601915086601f83011215156160af578384fd5b8135818111156160bd578485fd5b8760206020830285010111156160d1578485fd5b6020830194508093505050505b9250925092565b60006000604083850312156160f8578182fd5b823561610381617154565b80925050602083013561611581617154565b809150505b9250929050565b6000600060408385031215616134578182fd5b823561613f81617154565b80925050602083013561615181617200565b809150505b9250929050565b60006020828403121561616e578081fd5b81516161798161717d565b809150505b92915050565b6000600082840360c0811215616198578283fd5b60a08112156161a5578283fd5b5082915060a08301356161b7816171e7565b809150505b9250929050565b600060a082840312156161d4578081fd5b60405160a0810181811067ffffffffffffffff821117156161f157fe5b806040525082358152602083013561620881617193565b80602083015250604083013560408201526060830135606082015260808301356080820152809150505b92915050565b6000600082840360e081121561624c578283fd5b60c0811215616259578283fd5b5082915060c083013561626b816171e7565b809150505b9250929050565b6000600082840361018081121561628c578283fd5b6101608082121561629b578384fd5b6162a481617129565b91506162af85615e86565b82526162bd60208601615e86565b60208301526162ce60408601615f04565b60408301526162df60608601615eb0565b60608301526162f060808601615eb0565b608083015260a085013560a083015260c085013560c083015260e085013560e083015261010080860135818401525061012061632d818701615e86565b818401525061014080860135818401525081935061634c818601615f2e565b925050505b9250929050565b600061018080838503121561636b578182fd5b61637481617129565b905061637f83615e9b565b815261638d60208401615eef565b60208201526040830151604082015260608301516060820152608083015160808201526163bc60a08401615eda565b60a08201526163cd60c08401615f58565b60c08201526163de60e08401615ec5565b60e08201526101006163f1818501615ec5565b8183015250610120616404818501615f43565b8183015250610140616417818501615e9b565b818301525061016061642a818501615f58565b8183015250809150505b92915050565b60006040828403121561644b578081fd5b6040516040810181811067ffffffffffffffff8211171561646857fe5b80604052508251815260208301516020820152809150505b92915050565b600060208284031215616497578081fd5b81356164a281617193565b809150505b92915050565b600060006000606084860312156164c2578081fd5b83516164cd81617193565b8093505060208401519150604084015190505b9250925092565b6000602082840312156164f8578081fd5b8135616503816171b8565b809150505b92915050565b6000600060408385031215616521578182fd5b823561652c816171b8565b80925050602083013561653e81617200565b809150505b9250929050565b60006020828403121561655b578081fd5b813590505b92915050565b600060208284031215616577578081fd5b815190505b92915050565b600060006000600060808587031215616599578182fd5b8451935060208501516165ab81617193565b8093505060408501519150606085015190505b92959194509250565b60006000604083850312156165da578182fd5b82519150602083015190505b9250929050565b6000600060408385031215616600578182fd5b823591506020830135616612816171e7565b809150505b9250929050565b60006020828403121561662f578081fd5b813561663a816171e7565b809150505b92915050565b600060208284031215616656578081fd5b813561666181617200565b809150505b92915050565b60006020828403121561667d578081fd5b815161668881617200565b809150505b92915050565b6000600060006000600060006000600060006000600060006101808d8f0312156166bb57898afd5b8c516bffffffffffffffffffffffff8116811415156166d8578a8bfd5b809c50506166e860208e01615e9b565b9a506166f660408e01615e9b565b995061670460608e01615e9b565b985061671260808e01615f19565b975061672060a08e01615ec5565b965061672e60c08e01615ec5565b955061673c60e08e01615eda565b94506101008d015193506101208d0151925061675b6101408e01615eda565b915061676a6101608e01615eda565b90505b9295989b509295989b509295989b565b73ffffffffffffffffffffffffffffffffffffffff811682525b5050565b8060020b82525b5050565b6fffffffffffffffffffffffffffffffff811682525b5050565b61ffff811682525b5050565b62ffffff811682525b5050565b63ffffffff811682525b5050565b67ffffffffffffffff811682525b5050565b600060208201905073ffffffffffffffffffffffffffffffffffffffff831682525b92915050565b600060208201905073ffffffffffffffffffffffffffffffffffffffff831682525b92915050565b600060408201905073ffffffffffffffffffffffffffffffffffffffff841682528260208301525b9392505050565b600060608201905073ffffffffffffffffffffffffffffffffffffffff808616835280851660208401525062ffffff831660408301525b949350505050565b600060408201905073ffffffffffffffffffffffffffffffffffffffff841682528260208301525b9392505050565b600060608201905073ffffffffffffffffffffffffffffffffffffffff80861683528460208401528084166040840152505b949350505050565b600060208201905082151582525b92915050565b600060208201905073ffffffffffffffffffffffffffffffffffffffff831682525b92915050565b600060208201905073ffffffffffffffffffffffffffffffffffffffff831682525b92915050565b600060c08201905073ffffffffffffffffffffffffffffffffffffffff881682528660020b60208301528560020b60408301528460020b60608301526fffffffffffffffffffffffffffffffff8416608083015263ffffffff831660a08301525b979650505050505050565b600060408201905073ffffffffffffffffffffffffffffffffffffffff841682526fffffffffffffffffffffffffffffffff831660208301525b9392505050565b600060408201905073ffffffffffffffffffffffffffffffffffffffff8416825263ffffffff831660208301525b9392505050565b600060408201905073ffffffffffffffffffffffffffffffffffffffff8416825267ffffffffffffffff831660208301525b9392505050565b60006060820190508460020b82528360020b60208301526fffffffffffffffffffffffffffffffff831660408301525b949350505050565b600060208252601660208301527f4c6971756964697479206e6f7420696e2072616e67650000000000000000000060408301526060820190505b919050565b600060208252601c60208301527f4d617820706572696f642077697468647261772065786365656465640000000060408301526060820190505b919050565b600060208252601260208301527f416c72656164792072656769737465726564000000000000000000000000000060408301526060820190505b919050565b600060208252601460208301527f496e63656e7469766520746f74616c206973203000000000000000000000000060408301526060820190505b919050565b600060208252601260208301527f506f736974696f6e20746f6f20736d616c6c000000000000000000000000000060408301526060820190505b919050565b600060208252600b60208301527f506f6f6c2065786973747300000000000000000000000000000000000000000060408301526060820190505b919050565b600060208252600e60208301527f496e76616c696420706f6f6c494400000000000000000000000000000000000060408301526060820190505b919050565b600060208252601260208301527f4e6f20666c617368206c6971756964697479000000000000000000000000000060408301526060820190505b919050565b600060208252600760208301527f496e76616c69640000000000000000000000000000000000000000000000000060408301526060820190505b919050565b60006080820190508251825273ffffffffffffffffffffffffffffffffffffffff602084015116602083015260408301516fffffffffffffffffffffffffffffffff808216604085015280606086015116606085015250505b92915050565b600060a082019050825182526fffffffffffffffffffffffffffffffff60208401511660208301526040830151604083015260608301516060830152608083015160808301525b92915050565b600060c082019050823582526020830135602083015260408301356040830152606083013560608301526080830135608083015260a083013560a08301525b92915050565b600061016082019050616e1382845161677d565b6020830151616e25602084018261677d565b506040830151616e3860408401826167cc565b506060830151616e4b606084018261679b565b506080830151616e5e608084018261679b565b5060a083015160a083015260c083015160c083015260e083015160e083015261010080840151818401525061012080840151616e9c8285018261677d565b50506101408084015181840152505b92915050565b60006020820190506fffffffffffffffffffffffffffffffff831682525b92915050565b600060208201905061ffff831682525b92915050565b600060608201905061ffff8416825282516020830152602083015160408301525b9392505050565b60006020820190508282525b92915050565b600060408201905083825273ffffffffffffffffffffffffffffffffffffffff831660208301525b9392505050565b60006101a082019050838252616f6e60208301845161677d565b6020830151616f8060408401826167c0565b506040830151606083015260608301516080830152608083015160a083015260a0830151616fb160c08401826167a6565b5060c0830151616fc460e08401826167e7565b5060e0830151610100616fd98185018361679b565b80850151915050610120616fef8185018361679b565b80850151915050610140617005818501836167d9565b8085015191505061016061701b8185018361677d565b808501519150506170306101808401826167e7565b505b9392505050565b60006040820190508382526fffffffffffffffffffffffffffffffff831660208301525b9392505050565b60006040820190508382528260208301525b9392505050565b600060408201905083825267ffffffffffffffff831660208301525b9392505050565b600060208201905063ffffffff831682525b92915050565b600060208201905063ffffffff831682525b92915050565b600060208201905067ffffffffffffffff831682525b92915050565b600060408201905067ffffffffffffffff8416825277ffffffffffffffffffffffffffffffffffffffffffffffff831660208301525b9392505050565b6000604051905081810181811067ffffffffffffffff8211171561714957fe5b80604052505b919050565b73ffffffffffffffffffffffffffffffffffffffff8116811415156171795760006000fd5b5b50565b8060020b8114151561718f5760006000fd5b5b50565b6fffffffffffffffffffffffffffffffff8116811415156171b45760006000fd5b5b50565b61ffff8116811415156171cb5760006000fd5b5b50565b62ffffff8116811415156171e35760006000fd5b5b50565b63ffffffff8116811415156171fc5760006000fd5b5b50565b67ffffffffffffffff8116811415156172195760006000fd5b5b50565bfea26469706673582212205071c364b78a1f17245bccfb4f95214a951ada03e5f349305027af2e850f486464736f6c63430007060033",
  "linkReferences": {},
  "deployedLinkReferences": {}
}