{
  "_format": "hh-sol-artifact-1",
  "contractName": "RewardsTestable",
  "sourceName": "contracts/mocks/RewardsTestable.sol",
  "abi": [
    {
      "inputs": [
        {
          "internalType": "contract INonfungiblePositionManager",
          "name": "nftPositionManager",
          "type": "address"
        },
        {
          "internalType": "contract IUniswapV3Factory",
          "name": "uniswapV3Factory",
          "type": "address"
        },
        {
          "internalType": "contract IWETH9",
          "name": "weth",
          "type": "address"
        }
      ],
      "stateMutability": "nonpayable",
      "type": "constructor"
    },
    {
      "anonymous": false,
      "inputs": [
        {
          "indexed": true,
          "internalType": "address",
          "name": "owner",
          "type": "address"
        },
        {
          "indexed": true,
          "internalType": "uint256",
          "name": "nftTokenID",
          "type": "uint256"
        }
      ],
      "name": "ClaimedInflationRewards",
      "type": "event"
    },
    {
      "anonymous": false,
      "inputs": [
        {
          "indexed": true,
          "internalType": "address",
          "name": "owner",
          "type": "address"
        },
        {
          "indexed": true,
          "internalType": "uint256",
          "name": "nftTokenID",
          "type": "uint256"
        },
        {
          "indexed": false,
          "internalType": "uint256",
          "name": "amount0",
          "type": "uint256"
        },
        {
          "indexed": false,
          "internalType": "uint256",
          "name": "amount1",
          "type": "uint256"
        }
      ],
      "name": "CollectedFees",
      "type": "event"
    },
    {
      "anonymous": false,
      "inputs": [
        {
          "indexed": true,
          "internalType": "address",
          "name": "governor",
          "type": "address"
        }
      ],
      "name": "Initialized",
      "type": "event"
    },
    {
      "anonymous": false,
      "inputs": [
        {
          "indexed": true,
          "internalType": "address",
          "name": "owner",
          "type": "address"
        },
        {
          "indexed": true,
          "internalType": "uint16",
          "name": "poolID",
          "type": "uint16"
        },
        {
          "indexed": true,
          "internalType": "uint256",
          "name": "nftID",
          "type": "uint256"
        },
        {
          "indexed": false,
          "internalType": "int24",
          "name": "tickLower",
          "type": "int24"
        },
        {
          "indexed": false,
          "internalType": "int24",
          "name": "tickUpper",
          "type": "int24"
        },
        {
          "indexed": false,
          "internalType": "uint128",
          "name": "liquidity",
          "type": "uint128"
        }
      ],
      "name": "LiquidityPositionCreated",
      "type": "event"
    },
    {
      "anonymous": false,
      "inputs": [
        {
          "indexed": true,
          "internalType": "uint256",
          "name": "nftID",
          "type": "uint256"
        },
        {
          "indexed": false,
          "internalType": "uint256",
          "name": "amount0",
          "type": "uint256"
        },
        {
          "indexed": false,
          "internalType": "uint256",
          "name": "amount1",
          "type": "uint256"
        }
      ],
      "name": "LiquidityPositionDecreased",
      "type": "event"
    },
    {
      "anonymous": false,
      "inputs": [
        {
          "indexed": true,
          "internalType": "uint256",
          "name": "nftID",
          "type": "uint256"
        },
        {
          "indexed": false,
          "internalType": "uint128",
          "name": "liquidity",
          "type": "uint128"
        }
      ],
      "name": "LiquidityPositionIncreased",
      "type": "event"
    },
    {
      "anonymous": false,
      "inputs": [
        {
          "indexed": true,
          "internalType": "uint256",
          "name": "nftID",
          "type": "uint256"
        },
        {
          "indexed": false,
          "internalType": "uint256",
          "name": "amount0",
          "type": "uint256"
        },
        {
          "indexed": false,
          "internalType": "uint256",
          "name": "amount1",
          "type": "uint256"
        }
      ],
      "name": "LiquidityPositionLiquidated",
      "type": "event"
    },
    {
      "anonymous": false,
      "inputs": [
        {
          "indexed": true,
          "internalType": "uint256",
          "name": "nftID",
          "type": "uint256"
        },
        {
          "indexed": false,
          "internalType": "uint256",
          "name": "amount0",
          "type": "uint256"
        },
        {
          "indexed": false,
          "internalType": "uint256",
          "name": "amount1",
          "type": "uint256"
        }
      ],
      "name": "LiquidityPositionRemoved",
      "type": "event"
    },
    {
      "anonymous": false,
      "inputs": [
        {
          "indexed": true,
          "internalType": "string",
          "name": "paramName",
          "type": "string"
        },
        {
          "indexed": false,
          "internalType": "uint256",
          "name": "value",
          "type": "uint256"
        }
      ],
      "name": "ParameterUpdated",
      "type": "event"
    },
    {
      "anonymous": false,
      "inputs": [
        {
          "indexed": true,
          "internalType": "string",
          "name": "paramName",
          "type": "string"
        },
        {
          "indexed": false,
          "internalType": "uint256",
          "name": "value",
          "type": "uint256"
        }
      ],
      "name": "ParameterUpdated128",
      "type": "event"
    },
    {
      "anonymous": false,
      "inputs": [
        {
          "indexed": true,
          "internalType": "string",
          "name": "paramName",
          "type": "string"
        },
        {
          "indexed": false,
          "internalType": "uint256",
          "name": "value",
          "type": "uint256"
        }
      ],
      "name": "ParameterUpdated32",
      "type": "event"
    },
    {
      "anonymous": false,
      "inputs": [
        {
          "indexed": true,
          "internalType": "string",
          "name": "paramName",
          "type": "string"
        },
        {
          "indexed": false,
          "internalType": "uint256",
          "name": "value",
          "type": "uint256"
        }
      ],
      "name": "ParameterUpdated64",
      "type": "event"
    },
    {
      "anonymous": false,
      "inputs": [
        {
          "indexed": true,
          "internalType": "string",
          "name": "paramName",
          "type": "string"
        },
        {
          "indexed": false,
          "internalType": "address",
          "name": "value",
          "type": "address"
        }
      ],
      "name": "ParameterUpdatedAddress",
      "type": "event"
    },
    {
      "anonymous": false,
      "inputs": [
        {
          "indexed": false,
          "internalType": "uint256",
          "name": "count",
          "type": "uint256"
        },
        {
          "indexed": false,
          "internalType": "uint64",
          "name": "periods",
          "type": "uint64"
        }
      ],
      "name": "RewardsAccrued",
      "type": "event"
    },
    {
      "anonymous": false,
      "inputs": [
        {
          "indexed": true,
          "internalType": "address",
          "name": "account",
          "type": "address"
        },
        {
          "indexed": true,
          "internalType": "uint64",
          "name": "period",
          "type": "uint64"
        },
        {
          "indexed": false,
          "internalType": "uint256",
          "name": "tcpRewards",
          "type": "uint256"
        }
      ],
      "name": "RewardsDistributed",
      "type": "event"
    },
    {
      "anonymous": false,
      "inputs": [
        {
          "indexed": false,
          "internalType": "uint256",
          "name": "protocolPortion",
          "type": "uint256"
        },
        {
          "indexed": false,
          "internalType": "uint256",
          "name": "collateralPortion",
          "type": "uint256"
        },
        {
          "indexed": false,
          "internalType": "uint256",
          "name": "referencePortion",
          "type": "uint256"
        }
      ],
      "name": "RewardsPortionsUpdated",
      "type": "event"
    },
    {
      "anonymous": false,
      "inputs": [],
      "name": "Stopped",
      "type": "event"
    },
    {
      "inputs": [],
      "name": "accrueRewards",
      "outputs": [],
      "stateMutability": "nonpayable",
      "type": "function"
    },
    {
      "inputs": [
        {
          "internalType": "contract IUniswapV3Pool",
          "name": "pool",
          "type": "address"
        }
      ],
      "name": "addReferencePool",
      "outputs": [],
      "stateMutability": "nonpayable",
      "type": "function"
    },
    {
      "inputs": [],
      "name": "borrowRewardsPortion",
      "outputs": [
        {
          "internalType": "uint256",
          "name": "",
          "type": "uint256"
        }
      ],
      "stateMutability": "view",
      "type": "function"
    },
    {
      "inputs": [
        {
          "components": [
            {
              "internalType": "address",
              "name": "owner",
              "type": "address"
            },
            {
              "internalType": "uint16",
              "name": "poolID",
              "type": "uint16"
            },
            {
              "internalType": "uint256",
              "name": "cumulativeLiquidity",
              "type": "uint256"
            },
            {
              "internalType": "uint256",
              "name": "totalRewards",
              "type": "uint256"
            },
            {
              "internalType": "uint64",
              "name": "lastTimeRewarded",
              "type": "uint64"
            },
            {
              "internalType": "uint256",
              "name": "lastBlockPositionIncreased",
              "type": "uint256"
            },
            {
              "internalType": "int24",
              "name": "tickLower",
              "type": "int24"
            },
            {
              "internalType": "int24",
              "name": "tickUpper",
              "type": "int24"
            },
            {
              "internalType": "uint128",
              "name": "liquidity",
              "type": "uint128"
            }
          ],
          "internalType": "struct IAccounting.PoolPosition",
          "name": "_pt",
          "type": "tuple"
        },
        {
          "components": [
            {
              "internalType": "uint256",
              "name": "totalRewards",
              "type": "uint256"
            },
            {
              "internalType": "uint256",
              "name": "cumulativeLiquidity",
              "type": "uint256"
            }
          ],
          "internalType": "struct IAccounting.RewardStatus",
          "name": "rs",
          "type": "tuple"
        },
        {
          "internalType": "uint64",
          "name": "timeNow",
          "type": "uint64"
        }
      ],
      "name": "calculateUpdatedLiquidityPosition",
      "outputs": [
        {
          "components": [
            {
              "internalType": "address",
              "name": "owner",
              "type": "address"
            },
            {
              "internalType": "uint16",
              "name": "poolID",
              "type": "uint16"
            },
            {
              "internalType": "uint256",
              "name": "cumulativeLiquidity",
              "type": "uint256"
            },
            {
              "internalType": "uint256",
              "name": "totalRewards",
              "type": "uint256"
            },
            {
              "internalType": "uint64",
              "name": "lastTimeRewarded",
              "type": "uint64"
            },
            {
              "internalType": "uint256",
              "name": "lastBlockPositionIncreased",
              "type": "uint256"
            },
            {
              "internalType": "int24",
              "name": "tickLower",
              "type": "int24"
            },
            {
              "internalType": "int24",
              "name": "tickUpper",
              "type": "int24"
            },
            {
              "internalType": "uint128",
              "name": "liquidity",
              "type": "uint128"
            }
          ],
          "internalType": "struct IAccounting.PoolPosition",
          "name": "pt",
          "type": "tuple"
        },
        {
          "internalType": "uint256",
          "name": "rewards",
          "type": "uint256"
        }
      ],
      "stateMutability": "pure",
      "type": "function"
    },
    {
      "inputs": [
        {
          "internalType": "uint256",
          "name": "nftTokenID",
          "type": "uint256"
        }
      ],
      "name": "claimRewards",
      "outputs": [],
      "stateMutability": "nonpayable",
      "type": "function"
    },
    {
      "inputs": [],
      "name": "collateralPool",
      "outputs": [
        {
          "internalType": "uint16",
          "name": "",
          "type": "uint16"
        }
      ],
      "stateMutability": "view",
      "type": "function"
    },
    {
      "inputs": [],
      "name": "collateralPoolRewardsPortion",
      "outputs": [
        {
          "internalType": "uint256",
          "name": "",
          "type": "uint256"
        }
      ],
      "stateMutability": "view",
      "type": "function"
    },
    {
      "inputs": [
        {
          "components": [
            {
              "internalType": "uint256",
              "name": "tokenId",
              "type": "uint256"
            },
            {
              "internalType": "address",
              "name": "recipient",
              "type": "address"
            },
            {
              "internalType": "uint128",
              "name": "amount0Max",
              "type": "uint128"
            },
            {
              "internalType": "uint128",
              "name": "amount1Max",
              "type": "uint128"
            }
          ],
          "internalType": "struct INonfungiblePositionManager.CollectParams",
          "name": "params",
          "type": "tuple"
        }
      ],
      "name": "collectPositionFees",
      "outputs": [],
      "stateMutability": "nonpayable",
      "type": "function"
    },
    {
      "inputs": [],
      "name": "completeSetup",
      "outputs": [],
      "stateMutability": "nonpayable",
      "type": "function"
    },
    {
      "inputs": [
        {
          "components": [
            {
              "internalType": "address",
              "name": "token0",
              "type": "address"
            },
            {
              "internalType": "address",
              "name": "token1",
              "type": "address"
            },
            {
              "internalType": "uint24",
              "name": "fee",
              "type": "uint24"
            },
            {
              "internalType": "int24",
              "name": "tickLower",
              "type": "int24"
            },
            {
              "internalType": "int24",
              "name": "tickUpper",
              "type": "int24"
            },
            {
              "internalType": "uint256",
              "name": "amount0Desired",
              "type": "uint256"
            },
            {
              "internalType": "uint256",
              "name": "amount1Desired",
              "type": "uint256"
            },
            {
              "internalType": "uint256",
              "name": "amount0Min",
              "type": "uint256"
            },
            {
              "internalType": "uint256",
              "name": "amount1Min",
              "type": "uint256"
            },
            {
              "internalType": "address",
              "name": "recipient",
              "type": "address"
            },
            {
              "internalType": "uint256",
              "name": "deadline",
              "type": "uint256"
            }
          ],
          "internalType": "struct INonfungiblePositionManager.MintParams",
          "name": "params",
          "type": "tuple"
        },
        {
          "components": [
            {
              "internalType": "uint8",
              "name": "v",
              "type": "uint8"
            },
            {
              "internalType": "bytes32",
              "name": "r",
              "type": "bytes32"
            },
            {
              "internalType": "bytes32",
              "name": "s",
              "type": "bytes32"
            }
          ],
          "internalType": "struct IGovernor.GenesisAuth",
          "name": "ga",
          "type": "tuple"
        }
      ],
      "name": "createLiquidityPosition",
      "outputs": [
        {
          "internalType": "uint256",
          "name": "nftTokenID",
          "type": "uint256"
        },
        {
          "internalType": "uint128",
          "name": "liquidity",
          "type": "uint128"
        }
      ],
      "stateMutability": "payable",
      "type": "function"
    },
    {
      "inputs": [
        {
          "internalType": "uint16",
          "name": "",
          "type": "uint16"
        }
      ],
      "name": "current",
      "outputs": [
        {
          "internalType": "bool",
          "name": "",
          "type": "bool"
        }
      ],
      "stateMutability": "view",
      "type": "function"
    },
    {
      "inputs": [],
      "name": "currentPeriod",
      "outputs": [
        {
          "internalType": "uint64",
          "name": "period",
          "type": "uint64"
        }
      ],
      "stateMutability": "view",
      "type": "function"
    },
    {
      "inputs": [
        {
          "components": [
            {
              "internalType": "uint256",
              "name": "tokenId",
              "type": "uint256"
            },
            {
              "internalType": "uint128",
              "name": "liquidity",
              "type": "uint128"
            },
            {
              "internalType": "uint256",
              "name": "amount0Min",
              "type": "uint256"
            },
            {
              "internalType": "uint256",
              "name": "amount1Min",
              "type": "uint256"
            },
            {
              "internalType": "uint256",
              "name": "deadline",
              "type": "uint256"
            }
          ],
          "internalType": "struct INonfungiblePositionManager.DecreaseLiquidityParams",
          "name": "params",
          "type": "tuple"
        }
      ],
      "name": "decreaseLiquidityPosition",
      "outputs": [
        {
          "internalType": "uint256",
          "name": "amount0",
          "type": "uint256"
        },
        {
          "internalType": "uint256",
          "name": "amount1",
          "type": "uint256"
        }
      ],
      "stateMutability": "nonpayable",
      "type": "function"
    },
    {
      "inputs": [],
      "name": "deployer",
      "outputs": [
        {
          "internalType": "address",
          "name": "",
          "type": "address"
        }
      ],
      "stateMutability": "view",
      "type": "function"
    },
    {
      "inputs": [],
      "name": "firstPeriod",
      "outputs": [
        {
          "internalType": "uint64",
          "name": "",
          "type": "uint64"
        }
      ],
      "stateMutability": "view",
      "type": "function"
    },
    {
      "inputs": [
        {
          "components": [
            {
              "internalType": "address",
              "name": "owner",
              "type": "address"
            },
            {
              "internalType": "uint16",
              "name": "poolID",
              "type": "uint16"
            },
            {
              "internalType": "uint256",
              "name": "cumulativeLiquidity",
              "type": "uint256"
            },
            {
              "internalType": "uint256",
              "name": "totalRewards",
              "type": "uint256"
            },
            {
              "internalType": "uint64",
              "name": "lastTimeRewarded",
              "type": "uint64"
            },
            {
              "internalType": "uint256",
              "name": "lastBlockPositionIncreased",
              "type": "uint256"
            },
            {
              "internalType": "int24",
              "name": "tickLower",
              "type": "int24"
            },
            {
              "internalType": "int24",
              "name": "tickUpper",
              "type": "int24"
            },
            {
              "internalType": "uint128",
              "name": "liquidity",
              "type": "uint128"
            }
          ],
          "internalType": "struct IAccounting.PoolPosition",
          "name": "position",
          "type": "tuple"
        },
        {
          "internalType": "contract IUniswapV3Pool",
          "name": "pool",
          "type": "address"
        },
        {
          "internalType": "int24",
          "name": "tick",
          "type": "int24"
        },
        {
          "internalType": "uint128",
          "name": "liquidity",
          "type": "uint128"
        }
      ],
      "name": "getRealHueCount",
      "outputs": [
        {
          "internalType": "uint256",
          "name": "",
          "type": "uint256"
        }
      ],
      "stateMutability": "view",
      "type": "function"
    },
    {
      "inputs": [],
      "name": "governor",
      "outputs": [
        {
          "internalType": "contract IGovernor",
          "name": "",
          "type": "address"
        }
      ],
      "stateMutability": "view",
      "type": "function"
    },
    {
      "inputs": [
        {
          "components": [
            {
              "internalType": "uint256",
              "name": "tokenId",
              "type": "uint256"
            },
            {
              "internalType": "uint256",
              "name": "amount0Desired",
              "type": "uint256"
            },
            {
              "internalType": "uint256",
              "name": "amount1Desired",
              "type": "uint256"
            },
            {
              "internalType": "uint256",
              "name": "amount0Min",
              "type": "uint256"
            },
            {
              "internalType": "uint256",
              "name": "amount1Min",
              "type": "uint256"
            },
            {
              "internalType": "uint256",
              "name": "deadline",
              "type": "uint256"
            }
          ],
          "internalType": "struct INonfungiblePositionManager.IncreaseLiquidityParams",
          "name": "params",
          "type": "tuple"
        }
      ],
      "name": "increaseLiquidityPosition",
      "outputs": [
        {
          "internalType": "uint128",
          "name": "liquidity",
          "type": "uint128"
        }
      ],
      "stateMutability": "payable",
      "type": "function"
    },
    {
      "inputs": [
        {
          "internalType": "contract IGovernor",
          "name": "_governor",
          "type": "address"
        }
      ],
      "name": "init",
      "outputs": [],
      "stateMutability": "nonpayable",
      "type": "function"
    },
    {
      "inputs": [
        {
          "components": [
            {
              "internalType": "address",
              "name": "owner",
              "type": "address"
            },
            {
              "internalType": "uint16",
              "name": "poolID",
              "type": "uint16"
            },
            {
              "internalType": "uint256",
              "name": "cumulativeLiquidity",
              "type": "uint256"
            },
            {
              "internalType": "uint256",
              "name": "totalRewards",
              "type": "uint256"
            },
            {
              "internalType": "uint64",
              "name": "lastTimeRewarded",
              "type": "uint64"
            },
            {
              "internalType": "uint256",
              "name": "lastBlockPositionIncreased",
              "type": "uint256"
            },
            {
              "internalType": "int24",
              "name": "tickLower",
              "type": "int24"
            },
            {
              "internalType": "int24",
              "name": "tickUpper",
              "type": "int24"
            },
            {
              "internalType": "uint128",
              "name": "liquidity",
              "type": "uint128"
            }
          ],
          "internalType": "struct IAccounting.PoolPosition",
          "name": "position",
          "type": "tuple"
        },
        {
          "internalType": "int24",
          "name": "tick",
          "type": "int24"
        }
      ],
      "name": "isLiquidityInRange",
      "outputs": [
        {
          "internalType": "bool",
          "name": "",
          "type": "bool"
        }
      ],
      "stateMutability": "pure",
      "type": "function"
    },
    {
      "inputs": [],
      "name": "lastPeriodGlobalRewardsAccrued",
      "outputs": [
        {
          "internalType": "uint64",
          "name": "",
          "type": "uint64"
        }
      ],
      "stateMutability": "view",
      "type": "function"
    },
    {
      "inputs": [
        {
          "internalType": "contract IUniswapV3Pool",
          "name": "pool",
          "type": "address"
        },
        {
          "internalType": "uint256[]",
          "name": "nftTokenIDs",
          "type": "uint256[]"
        }
      ],
      "name": "liquidateOutofRangePositions",
      "outputs": [],
      "stateMutability": "nonpayable",
      "type": "function"
    },
    {
      "inputs": [],
      "name": "liquidationPenalty",
      "outputs": [
        {
          "internalType": "uint256",
          "name": "",
          "type": "uint256"
        }
      ],
      "stateMutability": "view",
      "type": "function"
    },
    {
      "inputs": [],
      "name": "maxLiquidityDecreasePerPeriod",
      "outputs": [
        {
          "internalType": "uint256",
          "name": "",
          "type": "uint256"
        }
      ],
      "stateMutability": "view",
      "type": "function"
    },
    {
      "inputs": [],
      "name": "minHueCountPerPosition",
      "outputs": [
        {
          "internalType": "uint128",
          "name": "",
          "type": "uint128"
        }
      ],
      "stateMutability": "view",
      "type": "function"
    },
    {
      "inputs": [
        {
          "internalType": "contract IUniswapV3Pool",
          "name": "",
          "type": "address"
        }
      ],
      "name": "minLiquidityByPeriod",
      "outputs": [
        {
          "internalType": "uint64",
          "name": "period",
          "type": "uint64"
        },
        {
          "internalType": "uint192",
          "name": "minLiquidity",
          "type": "uint192"
        }
      ],
      "stateMutability": "view",
      "type": "function"
    },
    {
      "inputs": [],
      "name": "minLiquidityProvideDuration",
      "outputs": [
        {
          "internalType": "uint64",
          "name": "",
          "type": "uint64"
        }
      ],
      "stateMutability": "view",
      "type": "function"
    },
    {
      "inputs": [],
      "name": "periodLength",
      "outputs": [
        {
          "internalType": "uint64",
          "name": "",
          "type": "uint64"
        }
      ],
      "stateMutability": "view",
      "type": "function"
    },
    {
      "inputs": [
        {
          "internalType": "uint16",
          "name": "",
          "type": "uint16"
        }
      ],
      "name": "poolForPoolID",
      "outputs": [
        {
          "internalType": "contract IUniswapV3Pool",
          "name": "",
          "type": "address"
        }
      ],
      "stateMutability": "view",
      "type": "function"
    },
    {
      "inputs": [
        {
          "internalType": "contract IUniswapV3Pool",
          "name": "",
          "type": "address"
        }
      ],
      "name": "poolIDForPool",
      "outputs": [
        {
          "internalType": "uint16",
          "name": "",
          "type": "uint16"
        }
      ],
      "stateMutability": "view",
      "type": "function"
    },
    {
      "inputs": [],
      "name": "protocolPool",
      "outputs": [
        {
          "internalType": "uint16",
          "name": "",
          "type": "uint16"
        }
      ],
      "stateMutability": "view",
      "type": "function"
    },
    {
      "inputs": [],
      "name": "protocolPoolRewardsPortion",
      "outputs": [
        {
          "internalType": "uint256",
          "name": "",
          "type": "uint256"
        }
      ],
      "stateMutability": "view",
      "type": "function"
    },
    {
      "inputs": [],
      "name": "referencePoolRewardsPortion",
      "outputs": [
        {
          "internalType": "uint256",
          "name": "",
          "type": "uint256"
        }
      ],
      "stateMutability": "view",
      "type": "function"
    },
    {
      "inputs": [
        {
          "internalType": "uint256",
          "name": "",
          "type": "uint256"
        }
      ],
      "name": "referencePools",
      "outputs": [
        {
          "internalType": "uint16",
          "name": "",
          "type": "uint16"
        }
      ],
      "stateMutability": "view",
      "type": "function"
    },
    {
      "inputs": [
        {
          "components": [
            {
              "internalType": "uint256",
              "name": "tokenId",
              "type": "uint256"
            },
            {
              "internalType": "uint128",
              "name": "liquidity",
              "type": "uint128"
            },
            {
              "internalType": "uint256",
              "name": "amount0Min",
              "type": "uint256"
            },
            {
              "internalType": "uint256",
              "name": "amount1Min",
              "type": "uint256"
            },
            {
              "internalType": "uint256",
              "name": "deadline",
              "type": "uint256"
            }
          ],
          "internalType": "struct INonfungiblePositionManager.DecreaseLiquidityParams",
          "name": "params",
          "type": "tuple"
        }
      ],
      "name": "removeLiquidityPosition",
      "outputs": [
        {
          "internalType": "uint256",
          "name": "amount0",
          "type": "uint256"
        },
        {
          "internalType": "uint256",
          "name": "amount1",
          "type": "uint256"
        }
      ],
      "stateMutability": "nonpayable",
      "type": "function"
    },
    {
      "inputs": [
        {
          "components": [
            {
              "internalType": "uint256",
              "name": "tokenId",
              "type": "uint256"
            },
            {
              "internalType": "uint128",
              "name": "liquidity",
              "type": "uint128"
            },
            {
              "internalType": "uint256",
              "name": "amount0Min",
              "type": "uint256"
            },
            {
              "internalType": "uint256",
              "name": "amount1Min",
              "type": "uint256"
            },
            {
              "internalType": "uint256",
              "name": "deadline",
              "type": "uint256"
            }
          ],
          "internalType": "struct INonfungiblePositionManager.DecreaseLiquidityParams",
          "name": "params",
          "type": "tuple"
        }
      ],
      "name": "removeLiquidityPositionAfterShutdown",
      "outputs": [
        {
          "internalType": "uint256",
          "name": "amount0",
          "type": "uint256"
        },
        {
          "internalType": "uint256",
          "name": "amount1",
          "type": "uint256"
        }
      ],
      "stateMutability": "nonpayable",
      "type": "function"
    },
    {
      "inputs": [
        {
          "internalType": "contract IUniswapV3Pool",
          "name": "pool",
          "type": "address"
        }
      ],
      "name": "removeReferencePool",
      "outputs": [],
      "stateMutability": "nonpayable",
      "type": "function"
    },
    {
      "inputs": [
        {
          "internalType": "bool",
          "name": "authorized",
          "type": "bool"
        }
      ],
      "name": "requireAuthorized",
      "outputs": [],
      "stateMutability": "pure",
      "type": "function"
    },
    {
      "inputs": [
        {
          "internalType": "uint256",
          "name": "__hueCount",
          "type": "uint256"
        }
      ],
      "name": "requirePositionLargeEnough",
      "outputs": [],
      "stateMutability": "view",
      "type": "function"
    },
    {
      "inputs": [
        {
          "internalType": "uint256",
          "name": "penalty",
          "type": "uint256"
        }
      ],
      "name": "setLiquidationPenalty",
      "outputs": [],
      "stateMutability": "nonpayable",
      "type": "function"
    },
    {
      "inputs": [
        {
          "internalType": "uint256",
          "name": "decreasePortion",
          "type": "uint256"
        }
      ],
      "name": "setMaxLiquidityDecreasePerPeriod",
      "outputs": [],
      "stateMutability": "nonpayable",
      "type": "function"
    },
    {
      "inputs": [
        {
          "internalType": "uint128",
          "name": "min",
          "type": "uint128"
        }
      ],
      "name": "setMinHueCountPerPosition",
      "outputs": [],
      "stateMutability": "nonpayable",
      "type": "function"
    },
    {
      "inputs": [
        {
          "internalType": "uint64",
          "name": "min",
          "type": "uint64"
        }
      ],
      "name": "setMinLiquidityProvideDuration",
      "outputs": [],
      "stateMutability": "nonpayable",
      "type": "function"
    },
    {
      "inputs": [
        {
          "internalType": "uint256",
          "name": "_protocol",
          "type": "uint256"
        },
        {
          "internalType": "uint256",
          "name": "_collateral",
          "type": "uint256"
        },
        {
          "internalType": "uint256",
          "name": "_reference",
          "type": "uint256"
        }
      ],
      "name": "setRewardsPortions",
      "outputs": [],
      "stateMutability": "nonpayable",
      "type": "function"
    },
    {
      "inputs": [
        {
          "internalType": "uint32",
          "name": "duration",
          "type": "uint32"
        }
      ],
      "name": "setTwapDuration",
      "outputs": [],
      "stateMutability": "nonpayable",
      "type": "function"
    },
    {
      "inputs": [],
      "name": "stop",
      "outputs": [],
      "stateMutability": "nonpayable",
      "type": "function"
    },
    {
      "inputs": [],
      "name": "stopped",
      "outputs": [
        {
          "internalType": "bool",
          "name": "",
          "type": "bool"
        }
      ],
      "stateMutability": "view",
      "type": "function"
    },
    {
      "inputs": [],
      "name": "twapDuration",
      "outputs": [
        {
          "internalType": "uint32",
          "name": "",
          "type": "uint32"
        }
      ],
      "stateMutability": "view",
      "type": "function"
    },
    {
      "inputs": [
        {
          "internalType": "bytes4",
          "name": "",
          "type": "bytes4"
        }
      ],
      "name": "validUpdate",
      "outputs": [
        {
          "internalType": "bool",
          "name": "",
          "type": "bool"
        }
      ],
      "stateMutability": "view",
      "type": "function"
    }
  ],
  "bytecode": "0x6101206040526001600660005090905567016345785d8a00006007600050909055670214e8348c4f0000600860005090905567016345785d8a00006009600050909055670905438e60010000600a60005090905567016345785d8a0000600b60005090905566d529ae9e860000600c600050909055683635c9adc5dea00000600d60006101000a8154816fffffffffffffffffffffffffffffffff02191690836fffffffffffffffffffffffffffffffff160217905550610708600d60106101000a81548167ffffffffffffffff021916908367ffffffffffffffff160217905550610e10600d60186101000a81548163ffffffff021916908363ffffffff1602179055506001601160006101000a81548161ffff021916908361ffff160217905550348015620001305760006000fd5b5060405162008de938038062008de9833981810160405281019062000156919062000392565b5b8282825b6138405b5b33600160006101000a81548173ffffffffffffffffffffffffffffffffffffffff021916908373ffffffffffffffffffffffffffffffffffffffff1602179055505b60018167ffffffffffffffff16620001bf620002d760201b60201c565b67ffffffffffffffff16811515620001d357fe5b040367ffffffffffffffff1660a08167ffffffffffffffff1660c01b815260080150508067ffffffffffffffff1660808167ffffffffffffffff1660c01b815260080150505b508273ffffffffffffffffffffffffffffffffffffffff1660e08173ffffffffffffffffffffffffffffffffffffffff1660601b815260140150508173ffffffffffffffffffffffffffffffffffffffff166101008173ffffffffffffffffffffffffffffffffffffffff1660601b815260140150508073ffffffffffffffffffffffffffffffffffffffff1660c08173ffffffffffffffffffffffffffffffffffffffff1660601b815260140150505b5050505b50505062000407565b6000620002f142620002f960201b62002cd217909060201c565b905080505b90565b600068010000000000000000821015156200037f576040517f08c379a00000000000000000000000000000000000000000000000000000000081526004018080602001828103825260118152602001807f6d6f7265207468616e203634206269747300000000000000000000000000000081526020015060200191505060405180910390fd5b81905062000388565b9190505662000406565b60006000600060608486031215620003a8578283fd5b8351620003b581620003e9565b809350506020840151620003c981620003e9565b809250506040840151620003dd81620003e9565b809150505b9250925092565b6001600160a01b03811681141515620004025760006000fd5b5b50565b5b60805160c01c60a05160c01c60c05160601c60e05160601c6101005160601c61895262000497600039806130a4525080611935528061324d5280613af0528061478a5280614c945280614d8b5280615842528061662d52806166fd52508061550e5280615571525080612b575280613e3452806157bf525080612b7b5280613e5552806157e052506189526000f3fe6080604052600436106103205760003560e01c806349447c00116101a5578063a0e8ed3a116100ec578063d5f3948811610095578063eeb90ad11161006f578063eeb90ad114610b5e578063fb640e0e14610b8a578063fbc3a64314610bc8578063ff0eccf614610bf457610320565b8063d5f3948814610adc578063de8925f514610b08578063e2e8247514610b3257610320565b8063c433c80a116100c6578063c433c80a14610a5a578063c4e3a63b14610a84578063d2ca211514610ab057610320565b8063a0e8ed3a146109da578063b848d56814610a06578063c381c1e614610a3057610320565b8063818bc6491161014e5780638aea8f71116101285780638aea8f71146109595780638d545450146109715780638efaed89146109b057610320565b8063818bc649146108b15780638396cf69146108ef57806384333cc71461091b57610320565b80636bb0d4851161017f5780636bb0d485146108315780636fbb4c481461085b57806375f12b211461088557610320565b806349447c00146107755780634b829573146107b457806363bf66d2146107f257610320565b80631421b91c11610269578063237f822a116102125780632806a743116101ec5780632806a743146106ef57806328323694146107195780633beb9d331461074957610320565b8063237f822a1461065857806323f5589a1461069757806326d89545146106c357610320565b806319ab453c1161024357806319ab453c146105ea5780631afdbce4146106145780631e0a221c1461062c57610320565b80631421b91c14610557578063150147d71461058157806315398ae7146105ab57610320565b80630806ce23116102cb5780630c340a24116102a55780630c340a24146104c15780630dae9f52146104ed578063113cf1ab1461051957610320565b80630806ce231461042d5780630962ef791461046b5780630a86f1091461049557610320565b806303a85388116102fc57806303a85388146103bf57806306040618146103e957806307da68f51461041557610320565b80623bae7b1461032657806273235e14610364578063039d10e81461039557610320565b60006000fd5b3480156103335760006000fd5b5061034e6004803603810190610349919061770c565b610c20565b60405161035b9190618639565b60405180910390f35b61037e60048036038101906103799190617581565b610c43565b60405161038c92919061869b565b60405180910390f35b3480156103a25760006000fd5b506103bd60048036038101906103b891906173a5565b610f12565b005b3480156103cc5760006000fd5b506103e760048036038101906103e291906179cc565b6114af565b005b3480156103f65760006000fd5b506103ff61156d565b60405161040c91906187bc565b60405180910390f35b3480156104225760006000fd5b5061042b611585565b005b34801561043a5760006000fd5b5061045560048036038101906104509190617902565b6115a5565b6040516104629190617f79565b60405180910390f35b3480156104785760006000fd5b50610493600480360381019061048e9190617929565b6115dd565b005b3480156104a25760006000fd5b506104ab6117e4565b6040516104b89190618639565b60405180910390f35b3480156104ce5760006000fd5b506104d76117ed565b6040516104e49190617f51565b60405180910390f35b3480156104fa5760006000fd5b50610503611813565b60405161051091906187bc565b60405180910390f35b3480156105265760006000fd5b50610541600480360381019061053c9190617247565b61182d565b60405161054e9190617f3d565b60405180910390f35b3480156105645760006000fd5b5061057f600480360381019061057a9190617455565b611852565b005b34801561058e5760006000fd5b506105a960048036038101906105a49190617357565b611a4f565b005b3480156105b85760006000fd5b506105d360048036038101906105ce91906174d6565b611b50565b6040516105e1929190618714565b60405180910390f35b3480156105f75760006000fd5b50610612600480360381019061060d91906172bb565b611c76565b005b3480156106215760006000fd5b5061062a612034565b005b3480156106395760006000fd5b50610642612071565b60405161064f9190618639565b60405180910390f35b3480156106655760006000fd5b50610680600480360381019061067b91906174d6565b61207a565b60405161068e929190618714565b60405180910390f35b3480156106a45760006000fd5b506106ad6121c5565b6040516106ba9190618639565b60405180910390f35b3480156106d05760006000fd5b506106d96121ce565b6040516106e69190618788565b60405180910390f35b3480156106fc5760006000fd5b5061071760048036038101906107129190617929565b6121e4565b005b610733600480360381019061072e9190617566565b612265565b60405161074091906185b3565b60405180910390f35b3480156107565760006000fd5b5061075f6123e1565b60405161076c9190618639565b60405180910390f35b3480156107825760006000fd5b5061079d60048036038101906107989190617357565b6123ea565b6040516107ab9291906187d8565b60405180910390f35b3480156107c15760006000fd5b506107dc60048036038101906107d79190617357565b612449565b6040516107e991906185fb565b60405180910390f35b3480156107ff5760006000fd5b5061081a600480360381019061081591906174d6565b61246f565b604051610828929190618714565b60405180910390f35b34801561083e5760006000fd5b5061085960048036038101906108549190617a2c565b612676565b005b3480156108685760006000fd5b50610883600480360381019061087e9190617929565b6126fd565b005b3480156108925760006000fd5b5061089b612799565b6040516108a89190617f3d565b60405180910390f35b3480156108be5760006000fd5b506108d960048036038101906108d49190617902565b6127ac565b6040516108e69190617f3d565b60405180910390f35b3480156108fc5760006000fd5b506109056127d1565b60405161091291906185fb565b60405180910390f35b3480156109285760006000fd5b50610943600480360381019061093e9190617929565b6127e5565b60405161095091906185fb565b60405180910390f35b3480156109665760006000fd5b5061096f612823565b005b34801561097e5760006000fd5b50610999600480360381019061099491906177ae565b6129e9565b6040516109a7929190618591565b60405180910390f35b3480156109bd5760006000fd5b506109d860048036038101906109d391906171f9565b612a15565b005b3480156109e75760006000fd5b506109f0612a28565b6040516109fd9190618639565b60405180910390f35b348015610a135760006000fd5b50610a2e6004803603810190610a299190617929565b612a31565b005b348015610a3d5760006000fd5b50610a586004803603810190610a539190617357565b612a44565b005b348015610a675760006000fd5b50610a826004803603810190610a7d91906179fb565b612abe565b005b348015610a915760006000fd5b50610a9a612b55565b604051610aa791906187bc565b60405180910390f35b348015610abd5760006000fd5b50610ac6612b79565b604051610ad391906187bc565b60405180910390f35b348015610ae95760006000fd5b50610af2612b9d565b604051610aff9190617ddd565b60405180910390f35b348015610b155760006000fd5b50610b306004803603810190610b2b91906178a1565b612bc3565b005b348015610b3f5760006000fd5b50610b48612c5a565b604051610b559190618639565b60405180910390f35b348015610b6b5760006000fd5b50610b74612c63565b604051610b8191906187bc565b60405180910390f35b348015610b975760006000fd5b50610bb26004803603810190610bad9190617773565b612c7d565b604051610bbf9190617f3d565b60405180910390f35b348015610bd55760006000fd5b50610bde612c9c565b604051610beb91906185b3565b60405180910390f35b348015610c015760006000fd5b50610c0a612cbe565b604051610c1791906185fb565b60405180910390f35b6000610c3485858585612d6463ffffffff16565b9050610c3b565b949350505050565b60006000610c55612ec563ffffffff16565b610c63612fa463ffffffff16565b6000610c8285600001518660200151876040015161309963ffffffff16565b9050601460005060008261ffff1661ffff16815260200190815260200160002060009054906101000a900460ff161515610cf1576040517f08c379a0000000000000000000000000000000000000000000000000000000008152600401610ce8906183af565b60405180910390fd5b610cf9616dcc565b600060009054906101000a900473ffffffffffffffffffffffffffffffffffffffff1673ffffffffffffffffffffffffffffffffffffffff1663b8e5748433876040518363ffffffff1660e01b8152600401610d56929190617e05565b60206040518083038186803b158015610d6f5760006000fd5b505afa158015610d84573d600060003e3d6000fd5b505050506040513d601f19601f82011682018060405250810190610da89190617220565b816000019015159081151581526020015050806000015115610e5957600260009054906101000a900473ffffffffffffffffffffffffffffffffffffffff1673ffffffffffffffffffffffffffffffffffffffff1663e276e8f3338460016040518463ffffffff1660e01b8152600401610e2493929190617e57565b600060405180830381600087803b158015610e3f5760006000fd5b505af1158015610e54573d600060003e3d6000fd5b505050505b610e68866131a863ffffffff16565b8094508195505050610e8c848388606001518960800151878661332c63ffffffff16565b838261ffff163373ffffffffffffffffffffffffffffffffffffffff167f87c666eb8f5e2d1a47a2af419127c84ea830d86b5f75e12ca3dafa33323d912289606001518a6080015188604051610ee493929190618083565b60405180910390a48383935093505050610efb5650505b5b610f0a61347163ffffffff16565b5b9250929050565b610f20612ec563ffffffff16565b610f2e612fa463ffffffff16565b6000601360005060008573ffffffffffffffffffffffffffffffffffffffff1673ffffffffffffffffffffffffffffffffffffffff16815260200190815260200160002060009054906101000a900461ffff16905060008161ffff16111515610fcc576040517f08c379a0000000000000000000000000000000000000000000000000000000008152600401610fc390618139565b60405180910390fd5b6000339050610fd9616e00565b600085859050905060008773ffffffffffffffffffffffffffffffffffffffff16630dfe16816040518163ffffffff1660e01b815260040160206040518083038186803b15801561102a5760006000fd5b505afa15801561103f573d600060003e3d6000fd5b505050506040513d601f19601f820116820180604052508101906110639190617119565b905060008873ffffffffffffffffffffffffffffffffffffffff1663d21220a76040518163ffffffff1660e01b815260040160206040518083038186803b1580156110ae5760006000fd5b505afa1580156110c3573d600060003e3d6000fd5b505050506040513d601f19601f820116820180604052508101906110e79190617119565b90506000600060006110fd61350563ffffffff16565b9050600060009054906101000a900473ffffffffffffffffffffffffffffffffffffffff1673ffffffffffffffffffffffffffffffffffffffff1663d3419bf36040518163ffffffff1660e01b815260040160206040518083038186803b1580156111685760006000fd5b505afa15801561117d573d600060003e3d6000fd5b505050506040513d601f19601f820116820180604052508101906111a19190617309565b73ffffffffffffffffffffffffffffffffffffffff1663fcebd71c8d600d60189054906101000a900463ffffffff166040518363ffffffff1660e01b81526004016111ed92919061804e565b60206040518083038186803b1580156112065760006000fd5b505afa15801561121b573d600060003e3d6000fd5b505050506040513d601f19601f8201168201806040525081019061123f919061742e565b816060019060020b908160020b8152602001505060018160400190151590811515815260200150506000600090505b8681101561148f57600260009054906101000a900473ffffffffffffffffffffffffffffffffffffffff1673ffffffffffffffffffffffffffffffffffffffff1663f34348f18d8d8481811015156112c257fe5b905060200201356040518263ffffffff1660e01b81526004016112e59190618639565b6101206040518083038186803b1580156112ff5760006000fd5b505afa158015611314573d600060003e3d6000fd5b505050506040513d601f19601f820116820180604052508101906113389190617663565b975087508961ffff16886020015161ffff1614151561135657611482565b61136a8883606001516135cb63ffffffff16565b1561137457611482565b611401611386896135fd63ffffffff16565b6040518060a001604052808f8f86818110151561139f57fe5b9050602002013581526020018b61010001516fffffffffffffffffffffffffffffffff16815260200160008152602001600081526020016113e46139a663ffffffff16565b67ffffffffffffffff1681526020015030856139c163ffffffff16565b809450819550505061141e868a8a60000151613b9363ffffffff16565b611433858a8a60000151613b9363ffffffff16565b8b8b82818110151561144157fe5b905060200201357fd606f13f519715bb4411edb6272f4f71cbf32d833557d19f0dfcf5a4b7f342968585604051611479929190618714565b60405180910390a25b808060010191505061126e565b505050505050505050505b5b6114a961347163ffffffff16565b5b505050565b6114bd613c8963ffffffff16565b6114fc6114e5826114d78587613d1e90919063ffffffff16565b613d1e90919063ffffffff16565b670de0b6b3a7640000613da790919063ffffffff16565b600a6000508190909055508260076000508190909055508160086000508190909055508060096000508190909055507f8c217e55a331915ef034e15ec5419d5d1608219367483101082157e04ed9ab1483838360405161155e9392919061872d565b60405180910390a15b5b505050565b600061157d613e3063ffffffff16565b905080505b90565b611593613c8963ffffffff16565b6115a1613ea963ffffffff16565b5b5b565b601260005060205280600052604060002060009150909054906101000a900473ffffffffffffffffffffffffffffffffffffffff1681565b6115eb612ec563ffffffff16565b6115f9613ef363ffffffff16565b6000600260009054906101000a900473ffffffffffffffffffffffffffffffffffffffff1673ffffffffffffffffffffffffffffffffffffffff1663f34348f1836040518263ffffffff1660e01b81526004016116569190618639565b6101206040518083038186803b1580156116705760006000fd5b505afa158015611685573d600060003e3d6000fd5b505050506040513d601f19601f820116820180604052508101906116a99190617663565b90506116ec816000015173ffffffffffffffffffffffffffffffffffffffff163373ffffffffffffffffffffffffffffffffffffffff1614613f4863ffffffff16565b600260009054906101000a900473ffffffffffffffffffffffffffffffffffffffff1673ffffffffffffffffffffffffffffffffffffffff1663022f6bb08361173a846135fd63ffffffff16565b6040518363ffffffff1660e01b815260040161175792919061867a565b600060405180830381600087803b1580156117725760006000fd5b505af1158015611787573d600060003e3d6000fd5b50505050813373ffffffffffffffffffffffffffffffffffffffff167f8317cf6343eca83fa703bc7956cd094c3d1e5fbf6478631eea9b7a102737024e60405160405180910390a3505b5b6117e061347163ffffffff16565b5b50565b600a6000505481565b600060009054906101000a900473ffffffffffffffffffffffffffffffffffffffff1681565b600f60009054906101000a900467ffffffffffffffff1681565b600560005060205280600052604060002060009150909054906101000a900460ff1681565b611860612ec563ffffffff16565b61186e613ef363ffffffff16565b61192f600260009054906101000a900473ffffffffffffffffffffffffffffffffffffffff1673ffffffffffffffffffffffffffffffffffffffff16631a206e918360000151336040518363ffffffff1660e01b81526004016118d292919061864b565b60206040518083038186803b1580156118eb5760006000fd5b505afa158015611900573d600060003e3d6000fd5b505050506040513d601f19601f820116820180604052508101906119249190617220565b613f4863ffffffff16565b600060007f000000000000000000000000000000000000000000000000000000000000000073ffffffffffffffffffffffffffffffffffffffff1663fc6f7865846040518263ffffffff1660e01b815260040161198c91906183ee565b604060405180830381600087803b1580156119a75760006000fd5b505af11580156119bc573d600060003e3d6000fd5b505050506040513d601f19601f820116820180604052508101906119e091906179a6565b9150915082600001513373ffffffffffffffffffffffffffffffffffffffff167fc4400c332bf10f731e8a707ec7bd95cea012bfeca431edc03dc605c73c520a3c8484604051611a31929190618714565b60405180910390a350505b5b611a4b61347163ffffffff16565b5b50565b611a5d613c8963ffffffff16565b611a6b613f8e63ffffffff16565b611a7961425a63ffffffff16565b600060146000506000601360005060008573ffffffffffffffffffffffffffffffffffffffff1673ffffffffffffffffffffffffffffffffffffffff16815260200190815260200160002060009054906101000a900461ffff1661ffff1661ffff16815260200190815260200160002060006101000a81548160ff021916908315150217905550604051611b0c90617d7b565b60405180910390207f78caada2f560033c9479d8c5e33f045f2e611faebe6b6d8a73874c80ec2dd3a282604051611b439190617ddd565b60405180910390a25b5b50565b60006000611b62612ec563ffffffff16565b611b70612fa463ffffffff16565b6000611b8584600001356143f063ffffffff16565b9050611bc8816000015173ffffffffffffffffffffffffffffffffffffffff163373ffffffffffffffffffffffffffffffffffffffff1614613f4863ffffffff16565b611bdb8160a001516144c063ffffffff16565b611c0e8185803603810190611bf091906174f1565b8360000151611c0361350563ffffffff16565b6139c163ffffffff16565b809350819450505083600001357f1bd2c24817047e88025a4688c0fba3903e750cc05d80857de4201f42ec59bcf28484604051611c4c929190618714565b60405180910390a282829250925050611c6156505b5b611c7061347163ffffffff16565b5b915091565b600160009054906101000a900473ffffffffffffffffffffffffffffffffffffffff1673ffffffffffffffffffffffffffffffffffffffff163373ffffffffffffffffffffffffffffffffffffffff16141515611cd35760006000fd5b600160006101000a81549073ffffffffffffffffffffffffffffffffffffffff021916905580600060006101000a81548173ffffffffffffffffffffffffffffffffffffffff021916908373ffffffffffffffffffffffffffffffffffffffff160217905550600060009054906101000a900473ffffffffffffffffffffffffffffffffffffffff1673ffffffffffffffffffffffffffffffffffffffff16639624e83e6040518163ffffffff1660e01b815260040160206040518083038186803b158015611da25760006000fd5b505afa158015611db7573d600060003e3d6000fd5b505050506040513d601f19601f82011682018060405250810190611ddb9190617294565b600260006101000a81548173ffffffffffffffffffffffffffffffffffffffff021916908373ffffffffffffffffffffffffffffffffffffffff160217905550600060009054906101000a900473ffffffffffffffffffffffffffffffffffffffff1673ffffffffffffffffffffffffffffffffffffffff1663323741746040518163ffffffff1660e01b815260040160206040518083038186803b158015611e845760006000fd5b505afa158015611e99573d600060003e3d6000fd5b505050506040513d601f19601f82011682018060405250810190611ebd91906172e2565b600360006101000a81548173ffffffffffffffffffffffffffffffffffffffff021916908373ffffffffffffffffffffffffffffffffffffffff160217905550600060009054906101000a900473ffffffffffffffffffffffffffffffffffffffff1673ffffffffffffffffffffffffffffffffffffffff1663d478b0876040518163ffffffff1660e01b815260040160206040518083038186803b158015611f665760006000fd5b505afa158015611f7b573d600060003e3d6000fd5b505050506040513d601f19601f82011682018060405250810190611f9f9190617330565b600460006101000a81548173ffffffffffffffffffffffffffffffffffffffff021916908373ffffffffffffffffffffffffffffffffffffffff160217905550611fed61450863ffffffff16565b8073ffffffffffffffffffffffffffffffffffffffff167f908408e307fc569b417f6cbec5d5a06f44a0a505ac0479b47d421a4b2fd6a1e660405160405180910390a25b50565b612042612ec563ffffffff16565b612050613ef363ffffffff16565b61205e613f8e63ffffffff16565b5b5b61206e61347163ffffffff16565b5b565b60086000505481565b6000600061208c612ec563ffffffff16565b61209a612fa463ffffffff16565b600260006120b185600001356143f063ffffffff16565b90506120f4816000015173ffffffffffffffffffffffffffffffffffffffff163373ffffffffffffffffffffffffffffffffffffffff1614613f4863ffffffff16565b6121078160a001516144c063ffffffff16565b6121268580360381019061211b91906174f1565b61478463ffffffff16565b809450819550505061216381866000013587602001602081019061214a91906178a1565b61215861484363ffffffff16565b61484f63ffffffff16565b84600001357ffafb1711250bf0d3906bfd9c4386a9a5a5fdf9ac1facdc9dfd2addad7d3f72e78585604051612199929190618714565b60405180910390a2828393509350506121ae56505b5b505b6121bf61347163ffffffff16565b5b915091565b600c6000505481565b600d60189054906101000a900463ffffffff1681565b6121f2613c8963ffffffff16565b6706f05b59d3b20000811015156122095760006000fd5b80600c60005081909090555060405161222190617c86565b60405180910390207f3a64504f0bc0c335e2aecb78638a257e0351a3fe0370861fd54ee4190b920933826040516122589190618639565b60405180910390a25b5b50565b6000612275612ec563ffffffff16565b612283612fa463ffffffff16565b6002600061229a84600001356143f063ffffffff16565b90506122dd816000015173ffffffffffffffffffffffffffffffffffffffff163373ffffffffffffffffffffffffffffffffffffffff1614613f4863ffffffff16565b60146000506000826020015161ffff1661ffff16815260200190815260200160002060009054906101000a900460ff16151561234e576040517f08c379a000000000000000000000000000000000000000000000000000000000815260040161234590618331565b60405180910390fd5b61235d84614c8c63ffffffff16565b925082506123848185600001358561237961484363ffffffff16565b614e6863ffffffff16565b83600001357fcc5b49b47bfd2f61894e4c8977343543aa054a11ae847be904355459ce55dcd9846040516123b891906185b3565b60405180910390a2829250506123ca56505b5b505b6123db61347163ffffffff16565b5b919050565b60076000505481565b600e6000506020528060005260406000206000915090508060000160009054906101000a900467ffffffffffffffff16908060000160089054906101000a900477ffffffffffffffffffffffffffffffffffffffffffffffff16905082565b601360005060205280600052604060002060009150909054906101000a900461ffff1681565b60006000612481612ec563ffffffff16565b61248f613ef363ffffffff16565b600060009054906101000a900473ffffffffffffffffffffffffffffffffffffffff1673ffffffffffffffffffffffffffffffffffffffff1663bf86d6906040518163ffffffff1660e01b815260040160206040518083038186803b1580156124f85760006000fd5b505afa15801561250d573d600060003e3d6000fd5b505050506040513d601f19601f820116820180604052508101906125319190617220565b1515612572576040517f08c379a000000000000000000000000000000000000000000000000000000000815260040161256990618370565b60405180910390fd5b600061258784600001356143f063ffffffff16565b90506125ca816000015173ffffffffffffffffffffffffffffffffffffffff163373ffffffffffffffffffffffffffffffffffffffff1614613f4863ffffffff16565b6125d2616dcc565b600181602001901515908115158152602001505061260c82868036038101906125fb91906174f1565b8460000151846139c163ffffffff16565b809450819550505084600001357f1bd2c24817047e88025a4688c0fba3903e750cc05d80857de4201f42ec59bcf2858560405161264a929190618714565b60405180910390a283839350935050506126615650505b5b61267061347163ffffffff16565b5b915091565b612684613c8963ffffffff16565b80600d60106101000a81548167ffffffffffffffff021916908367ffffffffffffffff1602179055506040516126b990617d4a565b60405180910390207f8c68b65494af3e62909307c1f245424bec70c9d997e783ed41fdee7f54d7b4c0826040516126f091906187a0565b60405180910390a25b5b50565b61270b613c8963ffffffff16565b80600b6000508190909055506000600b6000505411151561272c5760006000fd5b670de0b6b3a7640000600b60005054111515156127495760006000fd5b60405161275590617d19565b60405180910390207f3a64504f0bc0c335e2aecb78638a257e0351a3fe0370861fd54ee4190b9209338260405161278c9190618639565b60405180910390a25b5b50565b600060149054906101000a900460ff1681565b601460005060205280600052604060002060009150909054906101000a900460ff1681565b600f60089054906101000a900461ffff1681565b601060005081815481106127f857600080fd5b90600052602060002090601091828204019190066002025b9150909054906101000a900461ffff1681565b612831613c8963ffffffff16565b6128e1600060009054906101000a900473ffffffffffffffffffffffffffffffffffffffff1673ffffffffffffffffffffffffffffffffffffffff16638396cf696040518163ffffffff1660e01b815260040160206040518083038186803b15801561289d5760006000fd5b505afa1580156128b2573d600060003e3d6000fd5b505050506040513d601f19601f820116820180604052508101906128d6919061737e565b61528263ffffffff16565b600f60086101000a81548161ffff021916908361ffff1602179055506129ad600060009054906101000a900473ffffffffffffffffffffffffffffffffffffffff1673ffffffffffffffffffffffffffffffffffffffff1663ff0eccf66040518163ffffffff1660e01b815260040160206040518083038186803b1580156129695760006000fd5b505afa15801561297e573d600060003e3d6000fd5b505050506040513d601f19601f820116820180604052508101906129a2919061737e565b61528263ffffffff16565b600f600a6101000a81548161ffff021916908361ffff1602179055506129d761425a63ffffffff16565b6129e5613f8e63ffffffff16565b5b5b565b6129f1616e00565b6000612a0485858561533e63ffffffff16565b91509150612a0d565b935093915050565b612a2481613f4863ffffffff16565b5b50565b60096000505481565b612a408161547863ffffffff16565b5b50565b612a52613c8963ffffffff16565b612a6061425a63ffffffff16565b612a6e613f8e63ffffffff16565b604051612a7a90617dac565b60405180910390207f78caada2f560033c9479d8c5e33f045f2e611faebe6b6d8a73874c80ec2dd3a282604051612ab19190617ddd565b60405180910390a25b5b50565b612acc613c8963ffffffff16565b61012c8163ffffffff1610151515612ae45760006000fd5b80600d60186101000a81548163ffffffff021916908363ffffffff160217905550604051612b1190617ce8565b60405180910390207f182c40dc868824a9ba74a72504cd7ec63c58ed862a8ffe9f935d6ff47bd3731482604051612b489190618770565b60405180910390a25b5b50565b7f000000000000000000000000000000000000000000000000000000000000000081565b7f000000000000000000000000000000000000000000000000000000000000000081565b600160009054906101000a900473ffffffffffffffffffffffffffffffffffffffff1681565b612bd1613c8963ffffffff16565b80600d60006101000a8154816fffffffffffffffffffffffffffffffff02191690836fffffffffffffffffffffffffffffffff160217905550604051612c1690617cb7565b60405180910390207f5dcbeda12d93d481d59e4737a9a13ecea80702296bebdded1a20a76d645829c282604051612c4d91906185d7565b60405180910390a25b5b50565b600b6000505481565b600d60109054906101000a900467ffffffffffffffff1681565b6000612c8f83836135cb63ffffffff16565b9050612c96565b92915050565b600d60009054906101000a90046fffffffffffffffffffffffffffffffff1681565b600f600a9054906101000a900461ffff1681565b60006801000000000000000082101515612d57576040517f08c379a00000000000000000000000000000000000000000000000000000000081526004018080602001828103825260118152602001807f6d6f7265207468616e203634206269747300000000000000000000000000000081526020015060200191505060405180910390fd5b819050612d5f565b919050565b6000600060009054906101000a900473ffffffffffffffffffffffffffffffffffffffff1673ffffffffffffffffffffffffffffffffffffffff1663d3419bf36040518163ffffffff1660e01b815260040160206040518083038186803b158015612dcf5760006000fd5b505afa158015612de4573d600060003e3d6000fd5b505050506040513d601f19601f82011682018060405250810190612e089190617309565b73ffffffffffffffffffffffffffffffffffffffff16631fab230e85858860c001518960e0015187600d60189054906101000a900463ffffffff166040518763ffffffff1660e01b8152600401612e6496959493929190617fa1565b60206040518083038186803b158015612e7d5760006000fd5b505afa158015612e92573d600060003e3d6000fd5b505050506040513d601f19601f82011682018060405250810190612eb69190617945565b9050612ebd565b949350505050565b600460009054906101000a900473ffffffffffffffffffffffffffffffffffffffff1673ffffffffffffffffffffffffffffffffffffffff1663e97dcb626040518163ffffffff1660e01b8152600401600060405180830381600087803b158015612f305760006000fd5b505af1158015612f45573d600060003e3d6000fd5b50505050600260066000505414151515612f94576040517f08c379a0000000000000000000000000000000000000000000000000000000008152600401612f8b90618235565b60405180910390fd5b600260066000508190909055505b565b612fb2613ef363ffffffff16565b600060009054906101000a900473ffffffffffffffffffffffffffffffffffffffff1673ffffffffffffffffffffffffffffffffffffffff1663bf86d6906040518163ffffffff1660e01b815260040160206040518083038186803b15801561301b5760006000fd5b505afa158015613030573d600060003e3d6000fd5b505050506040513d601f19601f820116820180604052508101906130549190617220565b151515613096576040517f08c379a000000000000000000000000000000000000000000000000000000000815260040161308d906180bb565b60405180910390fd5b5b565b6000601360005060007f000000000000000000000000000000000000000000000000000000000000000073ffffffffffffffffffffffffffffffffffffffff16631698ee828787876040518463ffffffff1660e01b81526004016130ff93929190617e93565b60206040518083038186803b1580156131185760006000fd5b505afa15801561312d573d600060003e3d6000fd5b505050506040513d601f19601f820116820180604052508101906131519190617119565b73ffffffffffffffffffffffffffffffffffffffff1673ffffffffffffffffffffffffffffffffffffffff16815260200190815260200160002060009054906101000a900461ffff1690506131a1565b9392505050565b6000600060008360000151905060008460200151905060003390506131d883828860a001516154fc63ffffffff16565b6131ed82828860c001516154fc63ffffffff16565b600260009054906101000a900473ffffffffffffffffffffffffffffffffffffffff1686610120019073ffffffffffffffffffffffffffffffffffffffff16908173ffffffffffffffffffffffffffffffffffffffff16815260200150507f000000000000000000000000000000000000000000000000000000000000000073ffffffffffffffffffffffffffffffffffffffff166388316456876040518263ffffffff1660e01b81526004016132a491906184df565b608060405180830381600087803b1580156132bf5760006000fd5b505af11580156132d4573d600060003e3d6000fd5b505050506040513d601f19601f820116820180604052508101906132f89190617961565b9050508095508196505050613313838261561163ffffffff16565b613323828261561163ffffffff16565b5050505b915091565b600260009054906101000a900473ffffffffffffffffffffffffffffffffffffffff1673ffffffffffffffffffffffffffffffffffffffff16639586fe8d87878787336040518663ffffffff1660e01b815260040161338f9594939291906186c6565b600060405180830381600087803b1580156133aa5760006000fd5b505af11580156133bf573d600060003e3d6000fd5b505050506133cb616e00565b33816000019073ffffffffffffffffffffffffffffffffffffffff16908173ffffffffffffffffffffffffffffffffffffffff168152602001505085816020019061ffff16908161ffff1681526020015050848160c0019060020b908160020b81526020015050838160e0019060020b908160020b81526020015050613467613459826135fd63ffffffff16565b888585614e6863ffffffff16565b505b505050505050565b60016006600050819090905550600460009054906101000a900473ffffffffffffffffffffffffffffffffffffffff1673ffffffffffffffffffffffffffffffffffffffff1663e9fad8ee6040518163ffffffff1660e01b8152600401600060405180830381600087803b1580156134e95760006000fd5b505af11580156134fe573d600060003e3d6000fd5b505050505b565b61350d616dcc565b6002600060009054906101000a900473ffffffffffffffffffffffffffffffffffffffff1673ffffffffffffffffffffffffffffffffffffffff1663055ad42e6040518163ffffffff1660e01b815260040160206040518083038186803b1580156135785760006000fd5b505afa15801561358d573d600060003e3d6000fd5b505050506040513d601f19601f820116820180604052508101906135b19190617a7a565b60ff16108160000190151590811515815260200150505b90565b60008160020b8360c0015160020b131580156135f057508260e0015160020b8260020b125b90506135f7565b92915050565b613605616e00565b60006136156156c163ffffffff16565b90506000600060009054906101000a900473ffffffffffffffffffffffffffffffffffffffff1673ffffffffffffffffffffffffffffffffffffffff166317424a4460126000506000876020015161ffff1661ffff16815260200190815260200160002060009054906101000a900473ffffffffffffffffffffffffffffffffffffffff166040518263ffffffff1660e01b81526004016136b69190617f79565b602060405180830381600087803b1580156136d15760006000fd5b505af11580156136e6573d600060003e3d6000fd5b505050506040513d601f19601f8201168201806040525081019061370a9190617a53565b905060008167ffffffffffffffff161415801561373a57508167ffffffffffffffff168167ffffffffffffffff16105b156137455780915081505b6000613756836157b863ffffffff16565b9050600085608001519050600060008267ffffffffffffffff161461378957613784826157b863ffffffff16565b61378c565b60005b90508067ffffffffffffffff168367ffffffffffffffff161115156137b85786955050505050506139a1565b6137c6613f8e63ffffffff16565b600061388988600260009054906101000a900473ffffffffffffffffffffffffffffffffffffffff1673ffffffffffffffffffffffffffffffffffffffff166351ad51f78b602001516040518263ffffffff1660e01b815260040161382b91906185fb565b60406040518083038186803b1580156138445760006000fd5b505afa158015613859573d600060003e3d6000fd5b505050506040513d601f19601f8201168201806040525081019061387d9190617855565b8861533e63ffffffff16565b8092508198505050600081111561398d57600060009054906101000a900473ffffffffffffffffffffffffffffffffffffffff1673ffffffffffffffffffffffffffffffffffffffff1663b216cd948860000151836040518363ffffffff1660e01b81526004016138fb929190617f0e565b600060405180830381600087803b1580156139165760006000fd5b505af115801561392b573d600060003e3d6000fd5b505050508367ffffffffffffffff16876000015173ffffffffffffffffffffffffffffffffffffffff167f1eb16395a04fa619de6652884eb223f33b9598c6b730904df55d7e9e35211f45836040516139849190618639565b60405180910390a35b8696505050505050506139a1565050505050505b919050565b60006139b942612cd2909063ffffffff16565b905080505b90565b6000600085610100015185602001906fffffffffffffffffffffffffffffffff1690816fffffffffffffffffffffffffffffffff1681526020015050613a158560000151876000015161584063ffffffff16565b613a248561478463ffffffff16565b8092508193505050613a4085600001518561584063ffffffff16565b613a5b8686600001518861010001518661484f63ffffffff16565b600260009054906101000a900473ffffffffffffffffffffffffffffffffffffffff1673ffffffffffffffffffffffffffffffffffffffff166326879a4e86600001516040518263ffffffff1660e01b8152600401613aba9190618639565b600060405180830381600087803b158015613ad55760006000fd5b505af1158015613aea573d600060003e3d6000fd5b505050507f000000000000000000000000000000000000000000000000000000000000000073ffffffffffffffffffffffffffffffffffffffff166342966c6886600001516040518263ffffffff1660e01b8152600401613b4b9190618639565b600060405180830381600087803b158015613b665760006000fd5b505af1158015613b7b573d600060003e3d6000fd5b50505050818191509150613b8a565b94509492505050565b60008373ffffffffffffffffffffffffffffffffffffffff166370a08231306040518263ffffffff1660e01b8152600401613bce9190617ddd565b60206040518083038186803b158015613be75760006000fd5b505afa158015613bfc573d600060003e3d6000fd5b505050506040513d601f19601f82011682018060405250810190613c209190617945565b90506000811415613c315750613c84565b6000613c4b600c600050548361597190919063ffffffff16565b9050613c708584613c658486613da790919063ffffffff16565b61599763ffffffff16565b613c8185858361599763ffffffff16565b50505b505050565b600060009054906101000a900473ffffffffffffffffffffffffffffffffffffffff1673ffffffffffffffffffffffffffffffffffffffff163373ffffffffffffffffffffffffffffffffffffffff16141515613d1b576040517f08c379a0000000000000000000000000000000000000000000000000000000008152600401613d12906181f6565b60405180910390fd5b5b565b60008282840191508110151515613da0576040517f08c379a000000000000000000000000000000000000000000000000000000000815260040180806020018281038252600c8152602001807f6164642d6f766572666c6f77000000000000000000000000000000000000000081526020015060200191505060405180910390fd5b5b92915050565b60008282840391508111151515613e29576040517f08c379a000000000000000000000000000000000000000000000000000000000815260040180806020018281038252600d8152602001807f7375622d756e646572666c6f770000000000000000000000000000000000000081526020015060200191505060405180910390fd5b5b92915050565b60007f00000000000000000000000000000000000000000000000000000000000000007f000000000000000000000000000000000000000000000000000000000000000067ffffffffffffffff16613e8c6139a663ffffffff16565b67ffffffffffffffff16811515613e9f57fe5b0403905080505b90565b6001600060146101000a81548160ff0219169083151502179055507f7acc84e34091ae817647a4c49116f5cc07f319078ba80f8f5fde37ea7e25cbd660405160405180910390a15b565b600060149054906101000a900460ff16151515613f45576040517f08c379a0000000000000000000000000000000000000000000000000000000008152600401613f3c906182b3565b60405180910390fd5b5b565b801515613f8a576040517f08c379a0000000000000000000000000000000000000000000000000000000008152600401613f81906181f6565b60405180910390fd5b5b50565b6000613f9e615ba363ffffffff16565b9050600f60009054906101000a900467ffffffffffffffff1667ffffffffffffffff168167ffffffffffffffff16111515613fd95750614258565b6000600f60009054906101000a900467ffffffffffffffff1682039050600061384067ffffffffffffffff166201518081151561401257fe5b0467ffffffffffffffff166140db8367ffffffffffffffff16600060009054906101000a900473ffffffffffffffffffffffffffffffffffffffff1673ffffffffffffffffffffffffffffffffffffffff1663c375e6ed6040518163ffffffff1660e01b815260040160206040518083038186803b1580156140945760006000fd5b505afa1580156140a9573d600060003e3d6000fd5b505050506040513d601f19601f820116820180604052508101906140cd9190617945565b615bc990919063ffffffff16565b8115156140e457fe5b04905061411f600f60089054906101000a900461ffff166141136007600050548461597190919063ffffffff16565b84615c6763ffffffff16565b614157600f600a9054906101000a900461ffff1661414b6008600050548461597190919063ffffffff16565b84615c6763ffffffff16565b6000601060005080549050905060008161417f6009600050548561597190919063ffffffff16565b81151561418857fe5b0490506000600090505b828110156141ef576141e16010600050828154811015156141af57fe5b90600052602060002090601091828204019190066002025b9054906101000a900461ffff168387615c6763ffffffff16565b5b8080600101915050614192565b5084600f60006101000a81548167ffffffffffffffff021916908367ffffffffffffffff1602179055507f095a67d1e9698fe0eebf9cff79a22f6423cebcb4e386a0bdd7e12330d86381ed838560405161424a92919061874d565b60405180910390a150505050505b565b6000600060009054906101000a900473ffffffffffffffffffffffffffffffffffffffff1673ffffffffffffffffffffffffffffffffffffffff1663ab658be26040518163ffffffff1660e01b815260040160006040518083038186803b1580156142c55760006000fd5b505afa1580156142da573d600060003e3d6000fd5b505050506040513d6000823e3d601f19601f820116820180604052508101906143039190617140565b9050805167ffffffffffffffff8111801561431e5760006000fd5b5060405190808252806020026020018201604052801561434d5781602001602082028036833780820191505090505b5060106000509080519060200190614366929190616e8b565b506000600090505b81518110156143eb5761439b828281518110151561438857fe5b602002602001015161528263ffffffff16565b6010600050828154811015156143ad57fe5b90600052602060002090601091828204019190066002025b6101000a81548161ffff021916908361ffff1602179055505b808060010191505061436e565b50505b565b6143f8616e00565b6144b4600260009054906101000a900473ffffffffffffffffffffffffffffffffffffffff1673ffffffffffffffffffffffffffffffffffffffff1663f34348f1846040518263ffffffff1660e01b81526004016144569190618639565b6101206040518083038186803b1580156144705760006000fd5b505afa158015614485573d600060003e3d6000fd5b505050506040513d601f19601f820116820180604052508101906144a99190617663565b6135fd63ffffffff16565b90506144bb565b919050565b4381101515614504576040517f08c379a00000000000000000000000000000000000000000000000000000000081526004016144fb906182f2565b60405180910390fd5b5b50565b60006040518060c001604052806303a8538860e01b7bffffffffffffffffffffffffffffffffffffffffffffffffffffffff19167bffffffffffffffffffffffffffffffffffffffffffffffffffffffff19168152602001636fbb4c4860e01b7bffffffffffffffffffffffffffffffffffffffffffffffffffffffff19167bffffffffffffffffffffffffffffffffffffffffffffffffffffffff1916815260200163de8925f560e01b7bffffffffffffffffffffffffffffffffffffffffffffffffffffffff19167bffffffffffffffffffffffffffffffffffffffffffffffffffffffff1916815260200163c433c80a60e01b7bffffffffffffffffffffffffffffffffffffffffffffffffffffffff19167bffffffffffffffffffffffffffffffffffffffffffffffffffffffff19168152602001632806a74360e01b7bffffffffffffffffffffffffffffffffffffffffffffffffffffffff19167bffffffffffffffffffffffffffffffffffffffffffffffffffffffff19168152602001636bb0d48560e01b7bffffffffffffffffffffffffffffffffffffffffffffffffffffffff19167bffffffffffffffffffffffffffffffffffffffffffffffffffffffff1916815260200150905060008150600690506000600090505b8181101561477e57600160056000506000858460068110151561470857fe5b60200201517bffffffffffffffffffffffffffffffffffffffffffffffffffffffff19167bffffffffffffffffffffffffffffffffffffffffffffffffffffffff1916815260200190815260200160002060006101000a81548160ff0219169083151502179055505b80806001019150506146e9565b5050505b565b600060007f000000000000000000000000000000000000000000000000000000000000000073ffffffffffffffffffffffffffffffffffffffff16630c49ccbe846040518263ffffffff1660e01b81526004016147e1919061844d565b604060405180830381600087803b1580156147fc5760006000fd5b505af1158015614811573d600060003e3d6000fd5b505050506040513d601f19601f8201168201806040525081019061483591906179a6565b9150915061483e565b915091565b61484b616dcc565b5b90565b6000846020015190506000601260005060008361ffff1661ffff16815260200190815260200160002060009054906101000a900473ffffffffffffffffffffffffffffffffffffffff169050600083604001516149eb57600060009054906101000a900473ffffffffffffffffffffffffffffffffffffffff1673ffffffffffffffffffffffffffffffffffffffff1663d3419bf36040518163ffffffff1660e01b815260040160206040518083038186803b15801561490f5760006000fd5b505afa158015614924573d600060003e3d6000fd5b505050506040513d601f19601f820116820180604052508101906149489190617309565b73ffffffffffffffffffffffffffffffffffffffff1663fcebd71c83600d60189054906101000a900463ffffffff166040518363ffffffff1660e01b815260040161499492919061804e565b60206040518083038186803b1580156149ad5760006000fd5b505afa1580156149c2573d600060003e3d6000fd5b505050506040513d601f19601f820116820180604052508101906149e6919061742e565b6149f1565b83606001515b90506000614a30888484614a258a8d61010001516fffffffffffffffffffffffffffffffff16615ef990919063ffffffff16565b612d6463ffffffff16565b9050614a418161547863ffffffff16565b8460200151158015614a5f5750614a5e88836135cb63ffffffff16565b5b8015614a835750600f60089054906101000a900461ffff1661ffff168461ffff1614155b15614abc57614a99836000615fa663ffffffff16565b614abb83876fffffffffffffffffffffffffffffffff1661623e63ffffffff16565b5b846000015115614b5f57600260009054906101000a900473ffffffffffffffffffffffffffffffffffffffff1673ffffffffffffffffffffffffffffffffffffffff1663e276e8f389600001518660006040518463ffffffff1660e01b8152600401614b2a93929190617ed2565b600060405180830381600087803b158015614b455760006000fd5b505af1158015614b5a573d600060003e3d6000fd5b505050505b600260009054906101000a900473ffffffffffffffffffffffffffffffffffffffff1673ffffffffffffffffffffffffffffffffffffffff1663530c1ccb84886040518363ffffffff1660e01b8152600401614bbc92919061800d565b600060405180830381600087803b158015614bd75760006000fd5b505af1158015614bec573d600060003e3d6000fd5b50505050600260009054906101000a900473ffffffffffffffffffffffffffffffffffffffff1673ffffffffffffffffffffffffffffffffffffffff1663022f6bb0888a6040518363ffffffff1660e01b8152600401614c4d92919061867a565b600060405180830381600087803b158015614c685760006000fd5b505af1158015614c7d573d600060003e3d6000fd5b50505050505050505b50505050565b6000600060007f000000000000000000000000000000000000000000000000000000000000000073ffffffffffffffffffffffffffffffffffffffff166399fbab8885600001356040518263ffffffff1660e01b8152600401614cef9190618639565b6101806040518083038186803b158015614d095760006000fd5b505afa158015614d1e573d600060003e3d6000fd5b505050506040513d601f19601f82011682018060405250810190614d429190617aa1565b5050505050505050935093505050600060008383915091506000339050614d74838289602001356154fc63ffffffff16565b614d89828289604001356154fc63ffffffff16565b7f000000000000000000000000000000000000000000000000000000000000000073ffffffffffffffffffffffffffffffffffffffff1663219f5d17886040518263ffffffff1660e01b8152600401614de2919061849a565b606060405180830381600087803b158015614dfd5760006000fd5b505af1158015614e12573d600060003e3d6000fd5b505050506040513d601f19601f82011682018060405250810190614e3691906178c8565b90505080965050614e4d838261561163ffffffff16565b614e5d828261561163ffffffff16565b50505050505b919050565b6000846020015190506000601260005060008361ffff1661ffff16815260200190815260200160002060009054906101000a900473ffffffffffffffffffffffffffffffffffffffff1690506000600060009054906101000a900473ffffffffffffffffffffffffffffffffffffffff1673ffffffffffffffffffffffffffffffffffffffff1663d3419bf36040518163ffffffff1660e01b815260040160206040518083038186803b158015614f1f5760006000fd5b505afa158015614f34573d600060003e3d6000fd5b505050506040513d601f19601f82011682018060405250810190614f589190617309565b73ffffffffffffffffffffffffffffffffffffffff1663fcebd71c83600d60189054906101000a900463ffffffff166040518363ffffffff1660e01b8152600401614fa492919061804e565b60206040518083038186803b158015614fbd5760006000fd5b505afa158015614fd2573d600060003e3d6000fd5b505050506040513d601f19601f82011682018060405250810190614ff6919061742e565b9050600061503588848461502a8a8d61010001516fffffffffffffffffffffffffffffffff166163cc90919063ffffffff16565b612d6463ffffffff16565b905061504788836135cb63ffffffff16565b1515615088576040517f08c379a000000000000000000000000000000000000000000000000000000000815260040161507f906180fa565b60405180910390fd5b6150978161547863ffffffff16565b84600001511561510257683ba1910bf341b000006fffffffffffffffffffffffffffffffff168111151515615101576040517f08c379a00000000000000000000000000000000000000000000000000000000081526004016150f8906181b7565b60405180910390fd5b5b600f60089054906101000a900461ffff1661ffff168461ffff161415156151465761514583876fffffffffffffffffffffffffffffffff16615fa663ffffffff16565b5b600260009054906101000a900473ffffffffffffffffffffffffffffffffffffffff1673ffffffffffffffffffffffffffffffffffffffff16631428561d84886040518363ffffffff1660e01b81526004016151a392919061800d565b600060405180830381600087803b1580156151be5760006000fd5b505af11580156151d3573d600060003e3d6000fd5b50505050438860a00190908181526020015050600260009054906101000a900473ffffffffffffffffffffffffffffffffffffffff1673ffffffffffffffffffffffffffffffffffffffff1663022f6bb0888a6040518363ffffffff1660e01b815260040161524392919061867a565b600060405180830381600087803b15801561525e5760006000fd5b505af1158015615273573d600060003e3d6000fd5b50505050505050505b50505050565b6000601360005060008373ffffffffffffffffffffffffffffffffffffffff1673ffffffffffffffffffffffffffffffffffffffff16815260200190815260200160002060009054906101000a900461ffff169050805060008161ffff1614156152fa576152f58261647963ffffffff16565b905080505b6001601460005060008361ffff1661ffff16815260200190815260200160002060006101000a81548160ff021916908315150217905550809050615339565b919050565b615346616e00565b6000849150815060008261010001516fffffffffffffffffffffffffffffffff16111561541c5761541761539183608001518567ffffffffffffffff1661675590919063ffffffff16565b67ffffffffffffffff1661384067ffffffffffffffff166154086153c686606001518960000151613da790919063ffffffff16565b6153e187604001518a60200151613da790919063ffffffff16565b8761010001516fffffffffffffffffffffffffffffffff166167f29092919063ffffffff16565b6167f29092919063ffffffff16565b905080505b836000015182606001909081815260200150508360200151826040019090818152602001505082826080019067ffffffffffffffff16908167ffffffffffffffff1681526020015050818191509150615470565b935093915050565b60008114806154b75750600d60009054906101000a90046fffffffffffffffffffffffffffffffff166fffffffffffffffffffffffffffffffff168110155b15156154f8576040517f08c379a00000000000000000000000000000000000000000000000000000000081526004016154ef90618274565b60405180910390fd5b5b50565b600081141561550a5761560c565b60007f000000000000000000000000000000000000000000000000000000000000000073ffffffffffffffffffffffffffffffffffffffff168473ffffffffffffffffffffffffffffffffffffffff1614801561556a5750814791508110155b156155f7577f000000000000000000000000000000000000000000000000000000000000000073ffffffffffffffffffffffffffffffffffffffff1663d0e30db0826040518263ffffffff1660e01b81526004016000604051808303818588803b1580156155d85760006000fd5b505af11580156155ed573d600060003e3d6000fd5b505050505061560a565b615609848430856168f363ffffffff16565b5b505b505050565b60008273ffffffffffffffffffffffffffffffffffffffff166370a08231306040518263ffffffff1660e01b815260040161564c9190617ddd565b60206040518083038186803b1580156156655760006000fd5b505afa15801561567a573d600060003e3d6000fd5b505050506040513d601f19601f8201168201806040525081019061569e9190617945565b905060008111156156bb576156ba83838361599763ffffffff16565b5b505b5050565b60006156d16139a663ffffffff16565b905080506000600060009054906101000a900473ffffffffffffffffffffffffffffffffffffffff1673ffffffffffffffffffffffffffffffffffffffff1663585690816040518163ffffffff1660e01b815260040160206040518083038186803b1580156157405760006000fd5b505afa158015615755573d600060003e3d6000fd5b505050506040513d601f19601f820116820180604052508101906157799190617a53565b905060008167ffffffffffffffff161180156157a857508167ffffffffffffffff168167ffffffffffffffff16105b156157b35780915081505b505b90565b60006158367f00000000000000000000000000000000000000000000000000000000000000007f000000000000000000000000000000000000000000000000000000000000000067ffffffffffffffff168467ffffffffffffffff1681151561581d57fe5b0467ffffffffffffffff1661675590919063ffffffff16565b905080505b919050565b7f000000000000000000000000000000000000000000000000000000000000000073ffffffffffffffffffffffffffffffffffffffff1663fc6f786560405180608001604052808581526020018473ffffffffffffffffffffffffffffffffffffffff1681526020016fffffffffffffffffffffffffffffffff6fffffffffffffffffffffffffffffffff1681526020016fffffffffffffffffffffffffffffffff6fffffffffffffffffffffffffffffffff168152602001506040518263ffffffff1660e01b815260040161591691906183ee565b604060405180830381600087803b1580156159315760006000fd5b505af1158015615946573d600060003e3d6000fd5b505050506040513d601f19601f8201168201806040525081019061596a91906179a6565b50505b5050565b600061598c8383670de0b6b3a76400006167f263ffffffff16565b905080505b92915050565b600060008473ffffffffffffffffffffffffffffffffffffffff1663a9059cbb60e01b8585604051602401808373ffffffffffffffffffffffffffffffffffffffff16815260200182815260200192505050604051602081830303815290604052907bffffffffffffffffffffffffffffffffffffffffffffffffffffffff19166020820180517bffffffffffffffffffffffffffffffffffffffffffffffffffffffff83818316178352505050506040518082805190602001908083835b602083101515615a7c57805182525b602082019150602081019050602083039250615a56565b6001836020036101000a0380198251168184511680821785525050505050509050019150506000604051808303816000865af19150503d8060008114615ade576040519150601f19603f3d011682016040523d82523d6000602084013e615ae3565b606091505b5091509150818015615b245750600081511480615b235750808060200190516020811015615b115760006000fd5b81019080805190602001909291905050505b5b1515615b9b576040517f08c379a00000000000000000000000000000000000000000000000000000000081526004018080602001828103825260028152602001807f535400000000000000000000000000000000000000000000000000000000000081526020015060200191505060405180910390fd5b50505b505050565b6000615bc1615bb66156c163ffffffff16565b6157b863ffffffff16565b905080505b90565b60006000821480615be957508282838502925082811515615be657fe5b04145b1515615c60576040517f08c379a000000000000000000000000000000000000000000000000000000000815260040180806020018281038252600c8152602001807f6d756c2d6f766572666c6f77000000000000000000000000000000000000000081526020015060200191505060405180910390fd5b5b92915050565b6000600260009054906101000a900473ffffffffffffffffffffffffffffffffffffffff1673ffffffffffffffffffffffffffffffffffffffff166351ad51f7856040518263ffffffff1660e01b8152600401615cc491906185fb565b60406040518083038186803b158015615cdd5760006000fd5b505afa158015615cf2573d600060003e3d6000fd5b505050506040513d601f19601f82011682018060405250810190615d169190617855565b9050600260009054906101000a900473ffffffffffffffffffffffffffffffffffffffff1673ffffffffffffffffffffffffffffffffffffffff1663f7099607856040518060400160405280615d79888760000151613d1e90919063ffffffff16565b8152602001615e9b615e888867ffffffffffffffff16600260009054906101000a900473ffffffffffffffffffffffffffffffffffffffff1673ffffffffffffffffffffffffffffffffffffffff1663a135ef17601260005060008f61ffff1661ffff16815260200190815260200160002060009054906101000a900473ffffffffffffffffffffffffffffffffffffffff166040518263ffffffff1660e01b8152600401615e289190617f79565b60206040518083038186803b158015615e415760006000fd5b505afa158015615e56573d600060003e3d6000fd5b505050506040513d601f19601f82011682018060405250810190615e7a9190617945565b615bc990919063ffffffff16565b8760200151613d1e90919063ffffffff16565b8152602001506040518363ffffffff1660e01b8152600401615ebe929190618611565b600060405180830381600087803b158015615ed95760006000fd5b505af1158015615eee573d600060003e3d6000fd5b50505050505b505050565b6000826fffffffffffffffffffffffffffffffff168284039150816fffffffffffffffffffffffffffffffff1611151515615f9f576040517f08c379a000000000000000000000000000000000000000000000000000000000815260040180806020018281038252600d8152602001807f7375622d756e646572666c6f770000000000000000000000000000000000000081526020015060200191505060405180910390fd5b5b92915050565b6000615fb6613e3063ffffffff16565b90508067ffffffffffffffff16600e60005060008573ffffffffffffffffffffffffffffffffffffffff1673ffffffffffffffffffffffffffffffffffffffff16815260200190815260200160002060005060000160009054906101000a900467ffffffffffffffff1667ffffffffffffffff161015616238576000616132616125616058600b60005054670de0b6b3a7640000613da790919063ffffffff16565b61611786600260009054906101000a900473ffffffffffffffffffffffffffffffffffffffff1673ffffffffffffffffffffffffffffffffffffffff1663a135ef178a6040518263ffffffff1660e01b81526004016160b79190617f79565b60206040518083038186803b1580156160d05760006000fd5b505afa1580156160e5573d600060003e3d6000fd5b505050506040513d601f19601f820116820180604052508101906161099190617945565b613d1e90919063ffffffff16565b61597190919063ffffffff16565b616b1e909063ffffffff16565b905060405180604001604052808367ffffffffffffffff1681526020018277ffffffffffffffffffffffffffffffffffffffffffffffff16815260200150600e60005060008673ffffffffffffffffffffffffffffffffffffffff1673ffffffffffffffffffffffffffffffffffffffff16815260200190815260200160002060005060008201518160000160006101000a81548167ffffffffffffffff021916908367ffffffffffffffff16021790555060208201518160000160086101000a81548177ffffffffffffffffffffffffffffffffffffffffffffffff021916908377ffffffffffffffffffffffffffffffffffffffffffffffff160217905550905050505b505b5050565b600e60005060008373ffffffffffffffffffffffffffffffffffffffff1673ffffffffffffffffffffffffffffffffffffffff16815260200190815260200160002060005060000160089054906101000a900477ffffffffffffffffffffffffffffffffffffffffffffffff1677ffffffffffffffffffffffffffffffffffffffffffffffff1661638482600260009054906101000a900473ffffffffffffffffffffffffffffffffffffffff1673ffffffffffffffffffffffffffffffffffffffff1663a135ef17866040518263ffffffff1660e01b81526004016163249190617f79565b60206040518083038186803b15801561633d5760006000fd5b505afa158015616352573d600060003e3d6000fd5b505050506040513d601f19601f820116820180604052508101906163769190617945565b613da790919063ffffffff16565b101515156163c7576040517f08c379a00000000000000000000000000000000000000000000000000000000081526004016163be90618178565b60405180910390fd5b5b5050565b6000826fffffffffffffffffffffffffffffffff168284019150816fffffffffffffffffffffffffffffffff1610151515616472576040517f08c379a000000000000000000000000000000000000000000000000000000000815260040180806020018281038252600c8152602001807f6164642d6f766572666c6f77000000000000000000000000000000000000000081526020015060200191505060405180910390fd5b5b92915050565b600061ffff61ffff16601160009054906101000a900461ffff1661ffff161015156164a45760006000fd5b601160009054906101000a900461ffff16905080506011600081819054906101000a900461ffff168092919060010191906101000a81548161ffff021916908361ffff1602179055505081601260005060008361ffff1661ffff16815260200190815260200160002060006101000a81548173ffffffffffffffffffffffffffffffffffffffff021916908373ffffffffffffffffffffffffffffffffffffffff16021790555080601360005060008473ffffffffffffffffffffffffffffffffffffffff1673ffffffffffffffffffffffffffffffffffffffff16815260200190815260200160002060006101000a81548161ffff021916908361ffff1602179055506166788273ffffffffffffffffffffffffffffffffffffffff16630dfe16816040518163ffffffff1660e01b815260040160206040518083038186803b1580156165f25760006000fd5b505afa158015616607573d600060003e3d6000fd5b505050506040513d601f19601f8201168201806040525081019061662b9190617119565b7f00000000000000000000000000000000000000000000000000000000000000007fffffffffffffffffffffffffffffffffffffffffffffffffffffffffffffffff616bc063ffffffff16565b6167488273ffffffffffffffffffffffffffffffffffffffff1663d21220a76040518163ffffffff1660e01b815260040160206040518083038186803b1580156166c25760006000fd5b505afa1580156166d7573d600060003e3d6000fd5b505050506040513d601f19601f820116820180604052508101906166fb9190617119565b7f00000000000000000000000000000000000000000000000000000000000000007fffffffffffffffffffffffffffffffffffffffffffffffffffffffffffffffff616bc063ffffffff16565b809050616750565b919050565b60008267ffffffffffffffff1682840391508167ffffffffffffffff16111515156167eb576040517f08c379a000000000000000000000000000000000000000000000000000000000815260040180806020018281038252600d8152602001807f7375622d756e646572666c6f770000000000000000000000000000000000000081526020015060200191505060405180910390fd5b5b92915050565b6000600060006000198587098587029250828110838203039150506000811415616835576000841115156168265760006000fd5b838204925082925050506168ec565b80841115156168445760006000fd5b60008486880990508281118203915080830392506000858660000316905080860495508084049350600181826000030401905080830284179350835060006002876003021890508087026002038102905080508087026002038102905080508087026002038102905080508087026002038102905080508087026002038102905080508087026002038102905080508085029550855085955050505050506168ec5650505050505b9392505050565b600060008573ffffffffffffffffffffffffffffffffffffffff166323b872dd60e01b868686604051602401808473ffffffffffffffffffffffffffffffffffffffff1681526020018373ffffffffffffffffffffffffffffffffffffffff1681526020018281526020019350505050604051602081830303815290604052907bffffffffffffffffffffffffffffffffffffffffffffffffffffffff19166020820180517bffffffffffffffffffffffffffffffffffffffffffffffffffffffff83818316178352505050506040518082805190602001908083835b6020831015156169f657805182525b6020820191506020810190506020830392506169d0565b6001836020036101000a0380198251168184511680821785525050505050509050019150506000604051808303816000865af19150503d8060008114616a58576040519150601f19603f3d011682016040523d82523d6000602084013e616a5d565b606091505b5091509150818015616a9e5750600081511480616a9d5750808060200190516020811015616a8b5760006000fd5b81019080805190602001909291905050505b5b1515616b15576040517f08c379a00000000000000000000000000000000000000000000000000000000081526004018080602001828103825260038152602001807f535446000000000000000000000000000000000000000000000000000000000081526020015060200191505060405180910390fd5b50505b50505050565b6000780100000000000000000000000000000000000000000000000082101515616bb3576040517f08c379a00000000000000000000000000000000000000000000000000000000081526004018080602001828103825260128152602001807f6d6f7265207468616e203139322062697473000000000000000000000000000081526020015060200191505060405180910390fd5b819050616bbb565b919050565b600060008473ffffffffffffffffffffffffffffffffffffffff1663095ea7b360e01b8585604051602401808373ffffffffffffffffffffffffffffffffffffffff16815260200182815260200192505050604051602081830303815290604052907bffffffffffffffffffffffffffffffffffffffffffffffffffffffff19166020820180517bffffffffffffffffffffffffffffffffffffffffffffffffffffffff83818316178352505050506040518082805190602001908083835b602083101515616ca557805182525b602082019150602081019050602083039250616c7f565b6001836020036101000a0380198251168184511680821785525050505050509050019150506000604051808303816000865af19150503d8060008114616d07576040519150601f19603f3d011682016040523d82523d6000602084013e616d0c565b606091505b5091509150818015616d4d5750600081511480616d4c5750808060200190516020811015616d3a5760006000fd5b81019080805190602001909291905050505b5b1515616dc4576040517f08c379a00000000000000000000000000000000000000000000000000000000081526004018080602001828103825260028152602001807f534100000000000000000000000000000000000000000000000000000000000081526020015060200191505060405180910390fd5b50505b505050565b6040518060800160405280600015158152602001600015158152602001600015158152602001600060020b81526020015090565b604051806101200160405280600073ffffffffffffffffffffffffffffffffffffffff168152602001600061ffff1681526020016000815260200160008152602001600067ffffffffffffffff16815260200160008152602001600060020b8152602001600060020b815260200160006fffffffffffffffffffffffffffffffff1681526020015090565b82805482825590600052602060002090600f01601090048101928215616f245791602002820160005b83821115616ef457835183826101000a81548161ffff021916908361ffff1602179055509260200192600201602081600101049283019260010302616eb4565b8015616f225782816101000a81549061ffff0219169055600201602081600101049283019260010302616ef4565b505b509050616f319190616f35565b5090565b616f3a565b80821115616f545760008181506000905550600101616f3a565b50905661891b565b600081359050616f6b81618840565b5b919050565b600081519050616f8081618840565b5b919050565b600081359050616f958161887e565b5b919050565b600081519050616faa8161887e565b5b919050565b600060608284031215616fc1578081fd5b8190505b92915050565b6000610120808385031215616fde578182fd5b616fe781618815565b915050616ff382616f5c565b81526170016020830161709b565b60208201526040820135604082015260608201356060820152617026608083016170ef565b608082015260a082013560a082015261704160c08301616f86565b60c082015261705260e08301616f86565b60e0820152610100617065818401617071565b81830152505b92915050565b60008135905061708081618894565b5b919050565b60008151905061709581618894565b5b919050565b6000813590506170aa816188b9565b5b919050565b6000815190506170bf816188b9565b5b919050565b6000813590506170d4816188d0565b5b919050565b6000815190506170e9816188d0565b5b919050565b6000813590506170fe816188e8565b5b919050565b600081519050617113816188e8565b5b919050565b60006020828403121561712a578081fd5b815161713581618840565b809150505b92915050565b60006020808385031215617152578182fd5b825167ffffffffffffffff80821115617169578384fd5b818501915085601f830112151561717e578384fd5b81518181111561718a57fe5b838102915061719a848301618815565b80828252858201915085850189878688010111156171b6578788fd5b8795505b838610156171e857805194506171cf85618840565b848352868301925086810190505b6001860195506171ba565b508096505050505050505b92915050565b60006020828403121561720a578081fd5b813561721581618869565b809150505b92915050565b600060208284031215617231578081fd5b815161723c81618869565b809150505b92915050565b600060208284031215617258578081fd5b81357fffffffff00000000000000000000000000000000000000000000000000000000811681141515617289578182fd5b809150505b92915050565b6000602082840312156172a5578081fd5b81516172b081618840565b809150505b92915050565b6000602082840312156172cc578081fd5b81356172d781618840565b809150505b92915050565b6000602082840312156172f3578081fd5b81516172fe81618840565b809150505b92915050565b60006020828403121561731a578081fd5b815161732581618840565b809150505b92915050565b600060208284031215617341578081fd5b815161734c81618840565b809150505b92915050565b600060208284031215617368578081fd5b813561737381618840565b809150505b92915050565b60006020828403121561738f578081fd5b815161739a81618840565b809150505b92915050565b600060006000604084860312156173ba578182fd5b83356173c581618840565b80935050602084013567ffffffffffffffff808211156173e3578384fd5b818601915086601f83011215156173f8578384fd5b813581811115617406578485fd5b87602060208302850101111561741a578485fd5b6020830194508093505050505b9250925092565b60006020828403121561743f578081fd5b815161744a8161887e565b809150505b92915050565b600060808284031215617466578081fd5b6040516080810181811067ffffffffffffffff8211171561748357fe5b806040525082358152602083013561749a81618840565b8060208301525060408301356174af81618894565b8060408301525060608301356174c481618894565b80606083015250809150505b92915050565b600060a082840312156174e7578081fd5b8190505b92915050565b600060a08284031215617502578081fd5b60405160a0810181811067ffffffffffffffff8211171561751f57fe5b806040525082358152602083013561753681618894565b80602083015250604083013560408201526060830135606082015260808301356080820152809150505b92915050565b600060c08284031215617577578081fd5b8190505b92915050565b600060008284036101c0811215617596578283fd5b610160808212156175a5578384fd5b6175ae81618815565b91506175b985616f5c565b82526175c760208601616f5c565b60208301526175d8604086016170c5565b60408301526175e960608601616f86565b60608301526175fa60808601616f86565b608083015260a085013560a083015260c085013560c083015260e085013560e0830152610100808601358184015250610120617637818701616f5c565b818401525061014080860135818401525081935061765786828701616fb0565b925050505b9250929050565b6000610120808385031215617676578182fd5b61767f81618815565b905061768a83616f71565b8152617698602084016170b0565b602082015260408301516040820152606083015160608201526176bd60808401617104565b608082015260a083015160a08201526176d860c08401616f9b565b60c08201526176e960e08401616f9b565b60e08201526101006176fc818501617086565b8183015250809150505b92915050565b60006000600060006101808587031215617724578182fd5b61772e8686616fcb565b935061012085013561773f81618840565b809350506101408501356177528161887e565b8092505061016085013561776581618894565b809150505b92959194509250565b600060006101408385031215617787578182fd5b6177918484616fcb565b91506101208301356177a28161887e565b809150505b9250929050565b6000600060008385036101808112156177c5578182fd5b6177cf8686616fcb565b935060407ffffffffffffffffffffffffffffffffffffffffffffffffffffffffffffffee082011215617800578182fd5b506040516040810181811067ffffffffffffffff8211171561781e57fe5b80604052506101208501358152610140850135602082015280925050610160840135617849816188e8565b809150505b9250925092565b600060408284031215617866578081fd5b6040516040810181811067ffffffffffffffff8211171561788357fe5b80604052508251815260208301516020820152809150505b92915050565b6000602082840312156178b2578081fd5b81356178bd81618894565b809150505b92915050565b600060006000606084860312156178dd578081fd5b83516178e881618894565b8093505060208401519150604084015190505b9250925092565b600060208284031215617913578081fd5b813561791e816188b9565b809150505b92915050565b60006020828403121561793a578081fd5b813590505b92915050565b600060208284031215617956578081fd5b815190505b92915050565b600060006000600060808587031215617978578182fd5b84519350602085015161798a81618894565b8093505060408501519150606085015190505b92959194509250565b60006000604083850312156179b9578182fd5b82519150602083015190505b9250929050565b600060006000606084860312156179e1578081fd5b8335925060208401359150604084013590505b9250925092565b600060208284031215617a0c578081fd5b813563ffffffff811681141515617a21578182fd5b809150505b92915050565b600060208284031215617a3d578081fd5b8135617a48816188e8565b809150505b92915050565b600060208284031215617a64578081fd5b8151617a6f816188e8565b809150505b92915050565b600060208284031215617a8b578081fd5b8151617a9681618905565b809150505b92915050565b6000600060006000600060006000600060006000600060006101808d8f031215617ac957898afd5b8c516bffffffffffffffffffffffff811681141515617ae6578a8bfd5b809c5050617af660208e01616f71565b9a50617b0460408e01616f71565b9950617b1260608e01616f71565b9850617b2060808e016170da565b9750617b2e60a08e01616f9b565b9650617b3c60c08e01616f9b565b9550617b4a60e08e01617086565b94506101008d015193506101208d01519250617b696101408e01617086565b9150617b786101608e01617086565b90505b9295989b509295989b509295989b565b73ffffffffffffffffffffffffffffffffffffffff811682525b5050565b8060020b82525b5050565b73ffffffffffffffffffffffffffffffffffffffff815116825261ffff602082015116602083015260408101516040830152606081015160608301526080810151617c026080840182617c74565b5060a081015160a083015260c0810151617c1f60c0840182617ba9565b5060e0810151617c3260e0840182617ba9565b5061010080820151617c4682850182617c4d565b50505b5050565b6fffffffffffffffffffffffffffffffff811682525b5050565b62ffffff811682525b5050565b67ffffffffffffffff811682525b5050565b60007f6c69717569646174696f6e50656e616c7479000000000000000000000000000082526012820190505b919050565b60007f6d696e487565436f756e74506572506f736974696f6e0000000000000000000082526016820190505b919050565b60007f747761704475726174696f6e00000000000000000000000000000000000000008252600c820190505b919050565b60007f6d61784c69717569646974794465637265617365506572506572696f640000008252601d820190505b919050565b60007f6d696e4c697175696469747950726f766964654475726174696f6e00000000008252601b820190505b919050565b60007f72656d6f76655265666572656e6365506f6f6c0000000000000000000000000082526013820190505b919050565b60007f6164645265666572656e6365506f6f6c0000000000000000000000000000000082526010820190505b919050565b600060208201905073ffffffffffffffffffffffffffffffffffffffff831682525b92915050565b600060808201905073ffffffffffffffffffffffffffffffffffffffff841682528235617e3181618905565b60ff811660208401525060208301356040830152604083013560608301525b9392505050565b600060608201905073ffffffffffffffffffffffffffffffffffffffff8516825261ffff8416602083015282151560408301525b949350505050565b600060608201905073ffffffffffffffffffffffffffffffffffffffff808616835280851660208401525062ffffff831660408301525b949350505050565b600060608201905073ffffffffffffffffffffffffffffffffffffffff8516825261ffff8416602083015282151560408301525b949350505050565b600060408201905073ffffffffffffffffffffffffffffffffffffffff841682528260208301525b9392505050565b600060208201905082151582525b92915050565b600060208201905073ffffffffffffffffffffffffffffffffffffffff831682525b92915050565b600060208201905073ffffffffffffffffffffffffffffffffffffffff831682525b92915050565b600060c08201905073ffffffffffffffffffffffffffffffffffffffff881682528660020b60208301528560020b60408301528460020b60608301526fffffffffffffffffffffffffffffffff8416608083015263ffffffff831660a08301525b979650505050505050565b600060408201905073ffffffffffffffffffffffffffffffffffffffff841682526fffffffffffffffffffffffffffffffff831660208301525b9392505050565b600060408201905073ffffffffffffffffffffffffffffffffffffffff8416825263ffffffff831660208301525b9392505050565b60006060820190508460020b82528360020b60208301526fffffffffffffffffffffffffffffffff831660408301525b949350505050565b600060208252601160208301527f50726f746f636f6c2073687574646f776e00000000000000000000000000000060408301526060820190505b919050565b600060208252601660208301527f4c6971756964697479206e6f7420696e2072616e67650000000000000000000060408301526060820190505b919050565b600060208252600c60208301527f556e6b6e6f776e20706f6f6c000000000000000000000000000000000000000060408301526060820190505b919050565b600060208252601c60208301527f4d617820706572696f642077697468647261772065786365656465640000000060408301526060820190505b919050565b600060208252601560208301527f457863656564732067656e65736973206c696d6974000000000000000000000060408301526060820190505b919050565b600060208252600e60208301527f4e6f7420417574686f72697a656400000000000000000000000000000000000060408301526060820190505b919050565b600060208252600d60208301527f4c50205265656e7472616e63790000000000000000000000000000000000000060408301526060820190505b919050565b600060208252601260208301527f506f736974696f6e20746f6f20736d616c6c000000000000000000000000000060408301526060820190505b919050565b600060208252601360208301527f436f6e74726163742069732073746f707065640000000000000000000000000060408301526060820190505b919050565b600060208252601260208301527f4e6f20666c617368206c6971756964697479000000000000000000000000000060408301526060820190505b919050565b600060208252601160208301527f43616e206f6e6c7920646563726561736500000000000000000000000000000060408301526060820190505b919050565b600060208252600c60208301527f4e6f742073687574646f776e000000000000000000000000000000000000000060408301526060820190505b919050565b600060208252600c60208301527f496e76616c696420706f6f6c000000000000000000000000000000000000000060408301526060820190505b919050565b60006080820190508251825273ffffffffffffffffffffffffffffffffffffffff602084015116602083015260408301516fffffffffffffffffffffffffffffffff808216604085015280606086015116606085015250505b92915050565b600060a082019050825182526fffffffffffffffffffffffffffffffff60208401511660208301526040830151604083015260608301516060830152608083015160808301525b92915050565b600060c082019050823582526020830135602083015260408301356040830152606083013560608301526080830135608083015260a083013560a08301525b92915050565b6000610160820190506184f3828451617b8b565b60208301516185056020840182617b8b565b5060408301516185186040840182617c67565b50606083015161852b6060840182617ba9565b50608083015161853e6080840182617ba9565b5060a083015160a083015260c083015160c083015260e083015160e08301526101008084015181840152506101208084015161857c82850182617b8b565b50506101408084015181840152505b92915050565b6000610140820190506185a48285617bb4565b826101208301525b9392505050565b60006020820190506fffffffffffffffffffffffffffffffff831682525b92915050565b60006020820190506fffffffffffffffffffffffffffffffff831682525b92915050565b600060208201905061ffff831682525b92915050565b600060608201905061ffff8416825282516020830152602083015160408301525b9392505050565b60006020820190508282525b92915050565b600060408201905083825273ffffffffffffffffffffffffffffffffffffffff831660208301525b9392505050565b6000610140820190508382526186936020830184617bb4565b5b9392505050565b60006040820190508382526fffffffffffffffffffffffffffffffff831660208301525b9392505050565b600060a08201905086825261ffff861660208301528460020b60408301528360020b606083015273ffffffffffffffffffffffffffffffffffffffff831660808301525b9695505050505050565b60006040820190508382528260208301525b9392505050565b60006060820190508482528360208301528260408301525b949350505050565b600060408201905083825267ffffffffffffffff831660208301525b9392505050565b600060208201905063ffffffff831682525b92915050565b600060208201905063ffffffff831682525b92915050565b600060208201905067ffffffffffffffff831682525b92915050565b600060208201905067ffffffffffffffff831682525b92915050565b600060408201905067ffffffffffffffff8416825277ffffffffffffffffffffffffffffffffffffffffffffffff831660208301525b9392505050565b6000604051905081810181811067ffffffffffffffff8211171561883557fe5b80604052505b919050565b73ffffffffffffffffffffffffffffffffffffffff8116811415156188655760006000fd5b5b50565b8015158114151561887a5760006000fd5b5b50565b8060020b811415156188905760006000fd5b5b50565b6fffffffffffffffffffffffffffffffff8116811415156188b55760006000fd5b5b50565b61ffff8116811415156188cc5760006000fd5b5b50565b62ffffff8116811415156188e45760006000fd5b5b50565b67ffffffffffffffff8116811415156189015760006000fd5b5b50565b60ff8116811415156189175760006000fd5b5b50565bfea2646970667358221220e4efef8e76dbd60f0a93e0e06eb72f390b7f8c8eefe9bfa29351c5ca788b041064736f6c63430007060033",
  "linkReferences": {},
  "deployedLinkReferences": {}
}