{
  "_format": "hh-sol-artifact-1",
  "contractName": "RewardsTestable",
  "sourceName": "contracts/mocks/RewardsTestable.sol",
  "abi": [
    {
      "inputs": [
        {
          "components": [
            {
              "internalType": "contract IGovernor",
              "name": "Governor",
              "type": "address"
            },
            {
              "internalType": "contract IProtocolLock",
              "name": "ProtocolLock",
              "type": "address"
            },
            {
              "internalType": "contract IAccounting",
              "name": "Accounting",
              "type": "address"
            },
            {
              "internalType": "address",
              "name": "Weth",
              "type": "address"
            },
            {
              "internalType": "contract INonfungiblePositionManager",
              "name": "NftPositionManager",
              "type": "address"
            },
            {
              "internalType": "contract IUniswapV3Factory",
              "name": "UniswapV3Factory",
              "type": "address"
            }
          ],
          "internalType": "struct IRewards.ConstructorParams",
          "name": "params",
          "type": "tuple"
        }
      ],
      "stateMutability": "nonpayable",
      "type": "constructor"
    },
    {
      "anonymous": false,
      "inputs": [
        {
          "indexed": false,
          "internalType": "uint64",
          "name": "penalty",
          "type": "uint64"
        }
      ],
      "name": "LiquidationPenaltyUpdated",
      "type": "event"
    },
    {
      "anonymous": false,
      "inputs": [
        {
          "indexed": true,
          "internalType": "address",
          "name": "owner",
          "type": "address"
        },
        {
          "indexed": true,
          "internalType": "uint16",
          "name": "poolID",
          "type": "uint16"
        },
        {
          "indexed": true,
          "internalType": "uint256",
          "name": "nftID",
          "type": "uint256"
        },
        {
          "indexed": false,
          "internalType": "int24",
          "name": "tickLower",
          "type": "int24"
        },
        {
          "indexed": false,
          "internalType": "int24",
          "name": "tickUpper",
          "type": "int24"
        },
        {
          "indexed": false,
          "internalType": "uint128",
          "name": "liquidity",
          "type": "uint128"
        }
      ],
      "name": "LiquidityPositionCreated",
      "type": "event"
    },
    {
      "anonymous": false,
      "inputs": [
        {
          "indexed": true,
          "internalType": "uint256",
          "name": "nftID",
          "type": "uint256"
        },
        {
          "indexed": false,
          "internalType": "uint256",
          "name": "amount0",
          "type": "uint256"
        },
        {
          "indexed": false,
          "internalType": "uint256",
          "name": "amount1",
          "type": "uint256"
        }
      ],
      "name": "LiquidityPositionDecreased",
      "type": "event"
    },
    {
      "anonymous": false,
      "inputs": [
        {
          "indexed": true,
          "internalType": "uint256",
          "name": "nftID",
          "type": "uint256"
        },
        {
          "indexed": false,
          "internalType": "uint128",
          "name": "liquidity",
          "type": "uint128"
        }
      ],
      "name": "LiquidityPositionIncreased",
      "type": "event"
    },
    {
      "anonymous": false,
      "inputs": [
        {
          "indexed": true,
          "internalType": "uint256",
          "name": "nftID",
          "type": "uint256"
        },
        {
          "indexed": true,
          "internalType": "address",
          "name": "liquidator",
          "type": "address"
        }
      ],
      "name": "LiquidityPositionLiquidated",
      "type": "event"
    },
    {
      "anonymous": false,
      "inputs": [
        {
          "indexed": true,
          "internalType": "uint256",
          "name": "nftID",
          "type": "uint256"
        },
        {
          "indexed": false,
          "internalType": "uint256",
          "name": "amount0",
          "type": "uint256"
        },
        {
          "indexed": false,
          "internalType": "uint256",
          "name": "amount1",
          "type": "uint256"
        }
      ],
      "name": "LiquidityPositionRemoved",
      "type": "event"
    },
    {
      "anonymous": false,
      "inputs": [
        {
          "indexed": false,
          "internalType": "uint64",
          "name": "decreasePortion",
          "type": "uint64"
        }
      ],
      "name": "MaxCollateralLiquidityDecreasePerPeriodUpdated",
      "type": "event"
    },
    {
      "anonymous": false,
      "inputs": [
        {
          "indexed": false,
          "internalType": "uint128",
          "name": "min",
          "type": "uint128"
        }
      ],
      "name": "MinHueCountPerPositionUpdated",
      "type": "event"
    },
    {
      "anonymous": false,
      "inputs": [
        {
          "indexed": true,
          "internalType": "address",
          "name": "pool",
          "type": "address"
        },
        {
          "indexed": true,
          "internalType": "uint16",
          "name": "poolID",
          "type": "uint16"
        },
        {
          "indexed": false,
          "internalType": "uint64",
          "name": "rewardsPortion",
          "type": "uint64"
        }
      ],
      "name": "PoolAdded",
      "type": "event"
    },
    {
      "anonymous": false,
      "inputs": [
        {
          "indexed": true,
          "internalType": "uint16",
          "name": "poolID",
          "type": "uint16"
        },
        {
          "indexed": false,
          "internalType": "uint64",
          "name": "incentive",
          "type": "uint64"
        }
      ],
      "name": "PoolIncentiveUpdated",
      "type": "event"
    },
    {
      "anonymous": false,
      "inputs": [
        {
          "indexed": false,
          "internalType": "uint256",
          "name": "count",
          "type": "uint256"
        },
        {
          "indexed": false,
          "internalType": "uint64",
          "name": "periods",
          "type": "uint64"
        }
      ],
      "name": "RewardsAccrued",
      "type": "event"
    },
    {
      "anonymous": false,
      "inputs": [
        {
          "indexed": true,
          "internalType": "address",
          "name": "caller",
          "type": "address"
        },
        {
          "indexed": true,
          "internalType": "uint256",
          "name": "nftTokenID",
          "type": "uint256"
        },
        {
          "indexed": false,
          "internalType": "uint256",
          "name": "amount0",
          "type": "uint256"
        },
        {
          "indexed": false,
          "internalType": "uint256",
          "name": "amount1",
          "type": "uint256"
        }
      ],
      "name": "RewardsClaimed",
      "type": "event"
    },
    {
      "anonymous": false,
      "inputs": [
        {
          "indexed": true,
          "internalType": "address",
          "name": "account",
          "type": "address"
        },
        {
          "indexed": true,
          "internalType": "bool",
          "name": "isKickback",
          "type": "bool"
        },
        {
          "indexed": false,
          "internalType": "uint256",
          "name": "tcpRewards",
          "type": "uint256"
        }
      ],
      "name": "RewardsDistributed",
      "type": "event"
    },
    {
      "anonymous": false,
      "inputs": [],
      "name": "Stopped",
      "type": "event"
    },
    {
      "anonymous": false,
      "inputs": [
        {
          "indexed": false,
          "internalType": "uint64",
          "name": "duration",
          "type": "uint64"
        }
      ],
      "name": "TwapDurationUpdated",
      "type": "event"
    },
    {
      "inputs": [],
      "name": "accrueRewards",
      "outputs": [],
      "stateMutability": "nonpayable",
      "type": "function"
    },
    {
      "inputs": [
        {
          "internalType": "contract IUniswapV3Pool",
          "name": "pool",
          "type": "address"
        },
        {
          "internalType": "uint64",
          "name": "rewardsPortion",
          "type": "uint64"
        }
      ],
      "name": "addIncentivePool",
      "outputs": [],
      "stateMutability": "nonpayable",
      "type": "function"
    },
    {
      "inputs": [
        {
          "components": [
            {
              "internalType": "address",
              "name": "owner",
              "type": "address"
            },
            {
              "internalType": "uint16",
              "name": "poolID",
              "type": "uint16"
            },
            {
              "internalType": "uint256",
              "name": "cumulativeLiquidity",
              "type": "uint256"
            },
            {
              "internalType": "uint256",
              "name": "totalRewards",
              "type": "uint256"
            },
            {
              "internalType": "uint256",
              "name": "lastBlockPositionIncreased",
              "type": "uint256"
            },
            {
              "internalType": "uint128",
              "name": "liquidity",
              "type": "uint128"
            },
            {
              "internalType": "uint64",
              "name": "lastTimeRewarded",
              "type": "uint64"
            },
            {
              "internalType": "int24",
              "name": "tickLower",
              "type": "int24"
            },
            {
              "internalType": "int24",
              "name": "tickUpper",
              "type": "int24"
            },
            {
              "internalType": "uint32",
              "name": "ui",
              "type": "uint32"
            },
            {
              "internalType": "address",
              "name": "kickbackDestination",
              "type": "address"
            },
            {
              "internalType": "uint64",
              "name": "kickbackPortion",
              "type": "uint64"
            }
          ],
          "internalType": "struct IAccounting.PoolPosition",
          "name": "_pt",
          "type": "tuple"
        },
        {
          "components": [
            {
              "internalType": "uint256",
              "name": "totalRewards",
              "type": "uint256"
            },
            {
              "internalType": "uint256",
              "name": "cumulativeLiquidity",
              "type": "uint256"
            }
          ],
          "internalType": "struct IAccounting.RewardStatus",
          "name": "rs",
          "type": "tuple"
        },
        {
          "internalType": "uint64",
          "name": "timeNow",
          "type": "uint64"
        }
      ],
      "name": "calculateUpdatedLiquidityPosition",
      "outputs": [
        {
          "components": [
            {
              "internalType": "address",
              "name": "owner",
              "type": "address"
            },
            {
              "internalType": "uint16",
              "name": "poolID",
              "type": "uint16"
            },
            {
              "internalType": "uint256",
              "name": "cumulativeLiquidity",
              "type": "uint256"
            },
            {
              "internalType": "uint256",
              "name": "totalRewards",
              "type": "uint256"
            },
            {
              "internalType": "uint256",
              "name": "lastBlockPositionIncreased",
              "type": "uint256"
            },
            {
              "internalType": "uint128",
              "name": "liquidity",
              "type": "uint128"
            },
            {
              "internalType": "uint64",
              "name": "lastTimeRewarded",
              "type": "uint64"
            },
            {
              "internalType": "int24",
              "name": "tickLower",
              "type": "int24"
            },
            {
              "internalType": "int24",
              "name": "tickUpper",
              "type": "int24"
            },
            {
              "internalType": "uint32",
              "name": "ui",
              "type": "uint32"
            },
            {
              "internalType": "address",
              "name": "kickbackDestination",
              "type": "address"
            },
            {
              "internalType": "uint64",
              "name": "kickbackPortion",
              "type": "uint64"
            }
          ],
          "internalType": "struct IAccounting.PoolPosition",
          "name": "pt",
          "type": "tuple"
        },
        {
          "internalType": "uint256",
          "name": "rewards",
          "type": "uint256"
        }
      ],
      "stateMutability": "pure",
      "type": "function"
    },
    {
      "inputs": [
        {
          "internalType": "uint256",
          "name": "nftTokenID",
          "type": "uint256"
        },
        {
          "internalType": "uint32",
          "name": "ui",
          "type": "uint32"
        }
      ],
      "name": "claimRewards",
      "outputs": [
        {
          "internalType": "uint256",
          "name": "amount0",
          "type": "uint256"
        },
        {
          "internalType": "uint256",
          "name": "amount1",
          "type": "uint256"
        }
      ],
      "stateMutability": "nonpayable",
      "type": "function"
    },
    {
      "inputs": [],
      "name": "countPools",
      "outputs": [
        {
          "internalType": "uint16",
          "name": "",
          "type": "uint16"
        }
      ],
      "stateMutability": "view",
      "type": "function"
    },
    {
      "inputs": [
        {
          "components": [
            {
              "internalType": "address",
              "name": "token0",
              "type": "address"
            },
            {
              "internalType": "address",
              "name": "token1",
              "type": "address"
            },
            {
              "internalType": "uint24",
              "name": "fee",
              "type": "uint24"
            },
            {
              "internalType": "int24",
              "name": "tickLower",
              "type": "int24"
            },
            {
              "internalType": "int24",
              "name": "tickUpper",
              "type": "int24"
            },
            {
              "internalType": "uint256",
              "name": "amount0Desired",
              "type": "uint256"
            },
            {
              "internalType": "uint256",
              "name": "amount1Desired",
              "type": "uint256"
            },
            {
              "internalType": "uint256",
              "name": "amount0Min",
              "type": "uint256"
            },
            {
              "internalType": "uint256",
              "name": "amount1Min",
              "type": "uint256"
            },
            {
              "internalType": "address",
              "name": "recipient",
              "type": "address"
            },
            {
              "internalType": "uint256",
              "name": "deadline",
              "type": "uint256"
            }
          ],
          "internalType": "struct INonfungiblePositionManager.MintParams",
          "name": "params",
          "type": "tuple"
        },
        {
          "internalType": "uint32",
          "name": "ui",
          "type": "uint32"
        }
      ],
      "name": "createLiquidityPosition",
      "outputs": [
        {
          "internalType": "uint256",
          "name": "nftTokenID",
          "type": "uint256"
        },
        {
          "internalType": "uint128",
          "name": "liquidity",
          "type": "uint128"
        }
      ],
      "stateMutability": "payable",
      "type": "function"
    },
    {
      "inputs": [],
      "name": "currentPeriod",
      "outputs": [
        {
          "internalType": "uint64",
          "name": "period",
          "type": "uint64"
        }
      ],
      "stateMutability": "view",
      "type": "function"
    },
    {
      "inputs": [
        {
          "components": [
            {
              "internalType": "uint256",
              "name": "tokenId",
              "type": "uint256"
            },
            {
              "internalType": "uint128",
              "name": "liquidity",
              "type": "uint128"
            },
            {
              "internalType": "uint256",
              "name": "amount0Min",
              "type": "uint256"
            },
            {
              "internalType": "uint256",
              "name": "amount1Min",
              "type": "uint256"
            },
            {
              "internalType": "uint256",
              "name": "deadline",
              "type": "uint256"
            }
          ],
          "internalType": "struct INonfungiblePositionManager.DecreaseLiquidityParams",
          "name": "params",
          "type": "tuple"
        },
        {
          "internalType": "uint32",
          "name": "ui",
          "type": "uint32"
        }
      ],
      "name": "decreaseLiquidityPosition",
      "outputs": [
        {
          "internalType": "uint256",
          "name": "amount0",
          "type": "uint256"
        },
        {
          "internalType": "uint256",
          "name": "amount1",
          "type": "uint256"
        }
      ],
      "stateMutability": "nonpayable",
      "type": "function"
    },
    {
      "inputs": [],
      "name": "deployer",
      "outputs": [
        {
          "internalType": "address",
          "name": "",
          "type": "address"
        }
      ],
      "stateMutability": "view",
      "type": "function"
    },
    {
      "inputs": [],
      "name": "firstPeriod",
      "outputs": [
        {
          "internalType": "uint64",
          "name": "",
          "type": "uint64"
        }
      ],
      "stateMutability": "view",
      "type": "function"
    },
    {
      "inputs": [],
      "name": "governor",
      "outputs": [
        {
          "internalType": "contract IGovernor",
          "name": "",
          "type": "address"
        }
      ],
      "stateMutability": "view",
      "type": "function"
    },
    {
      "inputs": [
        {
          "components": [
            {
              "internalType": "uint256",
              "name": "tokenId",
              "type": "uint256"
            },
            {
              "internalType": "uint256",
              "name": "amount0Desired",
              "type": "uint256"
            },
            {
              "internalType": "uint256",
              "name": "amount1Desired",
              "type": "uint256"
            },
            {
              "internalType": "uint256",
              "name": "amount0Min",
              "type": "uint256"
            },
            {
              "internalType": "uint256",
              "name": "amount1Min",
              "type": "uint256"
            },
            {
              "internalType": "uint256",
              "name": "deadline",
              "type": "uint256"
            }
          ],
          "internalType": "struct INonfungiblePositionManager.IncreaseLiquidityParams",
          "name": "params",
          "type": "tuple"
        },
        {
          "internalType": "uint32",
          "name": "ui",
          "type": "uint32"
        }
      ],
      "name": "increaseLiquidityPosition",
      "outputs": [
        {
          "internalType": "uint128",
          "name": "liquidity",
          "type": "uint128"
        }
      ],
      "stateMutability": "payable",
      "type": "function"
    },
    {
      "inputs": [
        {
          "internalType": "contract IUniswapV3Pool",
          "name": "_collateralPool",
          "type": "address"
        },
        {
          "internalType": "contract IUniswapV3Pool",
          "name": "_protocolPool",
          "type": "address"
        }
      ],
      "name": "init",
      "outputs": [],
      "stateMutability": "nonpayable",
      "type": "function"
    },
    {
      "inputs": [
        {
          "components": [
            {
              "internalType": "address",
              "name": "owner",
              "type": "address"
            },
            {
              "internalType": "uint16",
              "name": "poolID",
              "type": "uint16"
            },
            {
              "internalType": "uint256",
              "name": "cumulativeLiquidity",
              "type": "uint256"
            },
            {
              "internalType": "uint256",
              "name": "totalRewards",
              "type": "uint256"
            },
            {
              "internalType": "uint256",
              "name": "lastBlockPositionIncreased",
              "type": "uint256"
            },
            {
              "internalType": "uint128",
              "name": "liquidity",
              "type": "uint128"
            },
            {
              "internalType": "uint64",
              "name": "lastTimeRewarded",
              "type": "uint64"
            },
            {
              "internalType": "int24",
              "name": "tickLower",
              "type": "int24"
            },
            {
              "internalType": "int24",
              "name": "tickUpper",
              "type": "int24"
            },
            {
              "internalType": "uint32",
              "name": "ui",
              "type": "uint32"
            },
            {
              "internalType": "address",
              "name": "kickbackDestination",
              "type": "address"
            },
            {
              "internalType": "uint64",
              "name": "kickbackPortion",
              "type": "uint64"
            }
          ],
          "internalType": "struct IAccounting.PoolPosition",
          "name": "position",
          "type": "tuple"
        },
        {
          "internalType": "int24",
          "name": "tick",
          "type": "int24"
        }
      ],
      "name": "isLiquidityInRange",
      "outputs": [
        {
          "internalType": "bool",
          "name": "",
          "type": "bool"
        }
      ],
      "stateMutability": "pure",
      "type": "function"
    },
    {
      "inputs": [],
      "name": "lastPeriodGlobalRewardsAccrued",
      "outputs": [
        {
          "internalType": "uint64",
          "name": "",
          "type": "uint64"
        }
      ],
      "stateMutability": "view",
      "type": "function"
    },
    {
      "inputs": [
        {
          "internalType": "contract IUniswapV3Pool",
          "name": "pool",
          "type": "address"
        },
        {
          "internalType": "uint256[]",
          "name": "nftTokenIDs",
          "type": "uint256[]"
        }
      ],
      "name": "liquidateOutofRangePositions",
      "outputs": [],
      "stateMutability": "nonpayable",
      "type": "function"
    },
    {
      "inputs": [],
      "name": "liquidationPenalty",
      "outputs": [
        {
          "internalType": "uint64",
          "name": "",
          "type": "uint64"
        }
      ],
      "stateMutability": "view",
      "type": "function"
    },
    {
      "inputs": [],
      "name": "maxCollateralLiquidityDecreasePerPeriod",
      "outputs": [
        {
          "internalType": "uint64",
          "name": "",
          "type": "uint64"
        }
      ],
      "stateMutability": "view",
      "type": "function"
    },
    {
      "inputs": [
        {
          "internalType": "contract IUniswapV3Pool",
          "name": "",
          "type": "address"
        }
      ],
      "name": "minCollateralLiquidityByPeriod",
      "outputs": [
        {
          "internalType": "uint64",
          "name": "period",
          "type": "uint64"
        },
        {
          "internalType": "uint192",
          "name": "minLiquidity",
          "type": "uint192"
        }
      ],
      "stateMutability": "view",
      "type": "function"
    },
    {
      "inputs": [],
      "name": "minHueCountPerPosition",
      "outputs": [
        {
          "internalType": "uint128",
          "name": "",
          "type": "uint128"
        }
      ],
      "stateMutability": "view",
      "type": "function"
    },
    {
      "inputs": [],
      "name": "periodLength",
      "outputs": [
        {
          "internalType": "uint64",
          "name": "",
          "type": "uint64"
        }
      ],
      "stateMutability": "view",
      "type": "function"
    },
    {
      "inputs": [
        {
          "internalType": "uint16",
          "name": "",
          "type": "uint16"
        }
      ],
      "name": "poolConfigForPoolID",
      "outputs": [
        {
          "internalType": "contract IUniswapV3Pool",
          "name": "pool",
          "type": "address"
        },
        {
          "internalType": "uint64",
          "name": "rewardsPortion",
          "type": "uint64"
        }
      ],
      "stateMutability": "view",
      "type": "function"
    },
    {
      "inputs": [
        {
          "internalType": "contract IUniswapV3Pool",
          "name": "",
          "type": "address"
        }
      ],
      "name": "poolIDForPool",
      "outputs": [
        {
          "internalType": "uint16",
          "name": "",
          "type": "uint16"
        }
      ],
      "stateMutability": "view",
      "type": "function"
    },
    {
      "inputs": [
        {
          "internalType": "uint256",
          "name": "nftTokenID",
          "type": "uint256"
        }
      ],
      "name": "removeKickback",
      "outputs": [],
      "stateMutability": "nonpayable",
      "type": "function"
    },
    {
      "inputs": [
        {
          "components": [
            {
              "internalType": "uint256",
              "name": "tokenId",
              "type": "uint256"
            },
            {
              "internalType": "uint128",
              "name": "liquidity",
              "type": "uint128"
            },
            {
              "internalType": "uint256",
              "name": "amount0Min",
              "type": "uint256"
            },
            {
              "internalType": "uint256",
              "name": "amount1Min",
              "type": "uint256"
            },
            {
              "internalType": "uint256",
              "name": "deadline",
              "type": "uint256"
            }
          ],
          "internalType": "struct INonfungiblePositionManager.DecreaseLiquidityParams",
          "name": "params",
          "type": "tuple"
        }
      ],
      "name": "removeLiquidityPosition",
      "outputs": [
        {
          "internalType": "uint256",
          "name": "amount0",
          "type": "uint256"
        },
        {
          "internalType": "uint256",
          "name": "amount1",
          "type": "uint256"
        }
      ],
      "stateMutability": "nonpayable",
      "type": "function"
    },
    {
      "inputs": [
        {
          "internalType": "bool",
          "name": "authorized",
          "type": "bool"
        }
      ],
      "name": "requireAuthorized",
      "outputs": [],
      "stateMutability": "pure",
      "type": "function"
    },
    {
      "inputs": [
        {
          "internalType": "uint64",
          "name": "penalty",
          "type": "uint64"
        }
      ],
      "name": "setLiquidationPenalty",
      "outputs": [],
      "stateMutability": "nonpayable",
      "type": "function"
    },
    {
      "inputs": [
        {
          "internalType": "uint64",
          "name": "decreasePortion",
          "type": "uint64"
        }
      ],
      "name": "setMaxCollateralLiquidityDecreasePerPeriod",
      "outputs": [],
      "stateMutability": "nonpayable",
      "type": "function"
    },
    {
      "inputs": [
        {
          "internalType": "uint128",
          "name": "min",
          "type": "uint128"
        }
      ],
      "name": "setMinHueCountPerPosition",
      "outputs": [],
      "stateMutability": "nonpayable",
      "type": "function"
    },
    {
      "inputs": [
        {
          "internalType": "uint32",
          "name": "duration",
          "type": "uint32"
        }
      ],
      "name": "setTwapDuration",
      "outputs": [],
      "stateMutability": "nonpayable",
      "type": "function"
    },
    {
      "inputs": [],
      "name": "stop",
      "outputs": [],
      "stateMutability": "nonpayable",
      "type": "function"
    },
    {
      "inputs": [],
      "name": "stopped",
      "outputs": [
        {
          "internalType": "bool",
          "name": "",
          "type": "bool"
        }
      ],
      "stateMutability": "view",
      "type": "function"
    },
    {
      "inputs": [],
      "name": "twapDuration",
      "outputs": [
        {
          "internalType": "uint32",
          "name": "",
          "type": "uint32"
        }
      ],
      "stateMutability": "view",
      "type": "function"
    },
    {
      "inputs": [
        {
          "internalType": "uint16",
          "name": "poolID",
          "type": "uint16"
        },
        {
          "internalType": "uint64",
          "name": "incentive",
          "type": "uint64"
        }
      ],
      "name": "updatePoolIncentive",
      "outputs": [],
      "stateMutability": "nonpayable",
      "type": "function"
    },
    {
      "inputs": [
        {
          "internalType": "bytes4",
          "name": "",
          "type": "bytes4"
        }
      ],
      "name": "validUpdate",
      "outputs": [
        {
          "internalType": "bool",
          "name": "",
          "type": "bool"
        }
      ],
      "stateMutability": "view",
      "type": "function"
    },
    {
      "stateMutability": "payable",
      "type": "receive"
    }
  ],
  "bytecode": "0x6101806040526001600260005090905567016345785d8a0000600360006101000a81548167ffffffffffffffff021916908367ffffffffffffffff16021790555066d529ae9e860000600360086101000a81548167ffffffffffffffff021916908367ffffffffffffffff160217905550686c6b935b8bbd400000600360106101000a8154816fffffffffffffffffffffffffffffffff02191690836fffffffffffffffffffffffffffffffff160217905550610708600460006101000a81548163ffffffff021916908363ffffffff1602179055506000600460046101000a81548161ffff021916908361ffff160217905550348015620001015760006000fd5b5060405162007efd38038062007efd8339818101604052810190620001279190620006bb565b5b805b6138405b816000015182602001515b815b8073ffffffffffffffffffffffffffffffffffffffff1660808173ffffffffffffffffffffffffffffffffffffffff1660601b815260140150505b508073ffffffffffffffffffffffffffffffffffffffff1660a08173ffffffffffffffffffffffffffffffffffffffff1660601b815260140150505b505060018167ffffffffffffffff16620001d1620005e960201b60201c565b67ffffffffffffffff16811515620001e557fe5b040367ffffffffffffffff1660e08167ffffffffffffffff1660c01b815260080150508067ffffffffffffffff1660c08167ffffffffffffffff1660c01b815260080150505b50806040015173ffffffffffffffffffffffffffffffffffffffff166101608173ffffffffffffffffffffffffffffffffffffffff1660601b81526014015050806060015173ffffffffffffffffffffffffffffffffffffffff166101008173ffffffffffffffffffffffffffffffffffffffff1660601b81526014015050806080015173ffffffffffffffffffffffffffffffffffffffff166101208173ffffffffffffffffffffffffffffffffffffffff1660601b815260140150508060a0015173ffffffffffffffffffffffffffffffffffffffff166101408173ffffffffffffffffffffffffffffffffffffffff1660601b8152601401505060006040518060c00160405280636161189060e01b7bffffffffffffffffffffffffffffffffffffffffffffffffffffffff19167bffffffffffffffffffffffffffffffffffffffffffffffffffffffff191681526020016328d10de860e01b7bffffffffffffffffffffffffffffffffffffffffffffffffffffffff19167bffffffffffffffffffffffffffffffffffffffffffffffffffffffff1916815260200163c7bd867c60e01b7bffffffffffffffffffffffffffffffffffffffffffffffffffffffff19167bffffffffffffffffffffffffffffffffffffffffffffffffffffffff1916815260200163de8925f560e01b7bffffffffffffffffffffffffffffffffffffffffffffffffffffffff19167bffffffffffffffffffffffffffffffffffffffffffffffffffffffff1916815260200163c433c80a60e01b7bffffffffffffffffffffffffffffffffffffffffffffffffffffffff19167bffffffffffffffffffffffffffffffffffffffffffffffffffffffff19168152602001630907653160e01b7bffffffffffffffffffffffffffffffffffffffffffffffffffffffff19167bffffffffffffffffffffffffffffffffffffffffffffffffffffffff191681526020015090506000600090505b815060068110156200059c5760016001600050600084846006811015156200052557fe5b60200201517bffffffffffffffffffffffffffffffffffffffffffffffffffffffff19167bffffffffffffffffffffffffffffffffffffffffffffffffffffffff1916815260200190815260200160002060006101000a81548160ff0219169083151502179055505b808060010191505062000501565b5033600860086101000a81548173ffffffffffffffffffffffffffffffffffffffff021916908373ffffffffffffffffffffffffffffffffffffffff160217905550505b505b5062000790565b600062000603426200060b60201b62001d8517909060201c565b905080505b90565b6000680100000000000000008210151562000691576040517f08c379a00000000000000000000000000000000000000000000000000000000081526004018080602001828103825260118152602001807f6d6f7265207468616e203634206269747300000000000000000000000000000081526020015060200191505060405180910390fd5b8190506200069a565b919050566200078f565b600081519050620006b58162000772565b5b919050565b600060c08284031215620006cd578081fd5b60405160c081018181106001600160401b0382111715620006ea57fe5b80604052508251620006fc8162000772565b808252506020830151620007108162000772565b806020830152506040830151620007278162000772565b806040830152506200073c60608401620006a4565b60608201526200074f60808401620006a4565b60808201526200076260a08401620006a4565b60a0820152809150505b92915050565b6001600160a01b038116811415156200078b5760006000fd5b5b50565b5b60805160601c60a05160601c60c05160c01c60e05160c01c6101005160601c6101205160601c6101405160601c6101605160601c61760c620008f160003980610a70528061136f528061169952806123045280612aee5280612e5952806132645280613396528061382f528061392552806141a652806142c252806143b152806149a35280614a505280614ac552806152095250806110375250806102405280612655528061278c52806129445280612b7b52806132c05280613592528061367852806146ae52806147425280614d5152806153bf525080610295528061465a5280614c335280614c93528061577052806157c452508061191b5280612ca2528061454e525080611a1a5280612cc3528061456f525080611e195280612c1b525080610e355280611f3a52806120cc528061244c52806125505280612d1c52806130535280613a9e52806140b252806144605280614f4a525061760c6000f3fe6080604052600436106102385760003560e01c80636161189011610138578063c4e3a63b116100b0578063de8925f51161007f578063f4d8977f11610064578063f4d8977f146108c7578063fbc3a64314610906578063fbff7efd14610932576102f2565b8063de8925f514610873578063f09a40161461089d576102f2565b8063c4e3a63b146107c5578063c7bd867c146107f1578063d2ca21151461081b578063d5f3948814610847576102f2565b80637af36e3f116101075780638efaed89116100ec5780638efaed8914610745578063bdd266cd1461076f578063c433c80a1461079b576102f2565b80637af36e3f146106c757806381cc880714610706576102f2565b8063616118901461060657806361928ecf146106305780636fcdfed61461066f57806375f12b211461069b576102f2565b80631afdbce4116101cb57806328d10de81161019a5780634b257c241161017f5780634b257c241461055a5780634b8295731461059857806350b40400146105d6576102f2565b806328d10de8146105065780633e94837214610530576102f2565b80631afdbce41461046557806323f5589a1461047d578063265e8a64146104a957806326d89545146104da576102f2565b80630c340a24116102075780630c340a24146103905780630dae9f52146103bc578063113cf1ab146103e857806315398ae714610426576102f2565b8063039d10e8146102f8578063060406181461032257806307da68f51461034e5780630907653114610366576102f2565b366102f2575b7f000000000000000000000000000000000000000000000000000000000000000073ffffffffffffffffffffffffffffffffffffffff163373ffffffffffffffffffffffffffffffffffffffff1614806102e357507f000000000000000000000000000000000000000000000000000000000000000073ffffffffffffffffffffffffffffffffffffffff163373ffffffffffffffffffffffffffffffffffffffff16145b15156102ef5760006000fd5b5b005b60006000fd5b3480156103055760006000fd5b50610320600480360381019061031b91906162f1565b610971565b005b34801561032f5760006000fd5b50610338610d67565b6040516103459190617473565b60405180910390f35b34801561035b5760006000fd5b50610364610d7f565b005b3480156103735760006000fd5b5061038e600480360381019061038991906169bc565b610d9f565b005b34801561039d5760006000fd5b506103a6610e33565b6040516103b39190616d79565b60405180910390f35b3480156103c95760006000fd5b506103d2610e57565b6040516103df9190617473565b60405180910390f35b3480156103f55760006000fd5b50610410600480360381019061040b9190616256565b610e71565b60405161041d9190616d65565b60405180910390f35b3480156104335760006000fd5b5061044e60048036038101906104499190616458565b610e96565b60405161045c929190617407565b60405180910390f35b3480156104725760006000fd5b5061047b610fb5565b005b34801561048a5760006000fd5b50610493610ff2565b6040516104a09190617473565b60405180910390f35b6104c360048036038101906104be919061650c565b61100c565b6040516104d19291906173dc565b60405180910390f35b3480156104e75760006000fd5b506104f0611201565b6040516104fd9190617443565b60405180910390f35b3480156105135760006000fd5b5061052e60048036038101906105299190616885565b611217565b005b34801561053d5760006000fd5b50610558600480360381019061055391906168c1565b611321565b005b3480156105675760006000fd5b50610582600480360381019061057d91906166cf565b611411565b60405161058f9190616d65565b60405180910390f35b3480156105a55760006000fd5b506105c060048036038101906105bb91906162ca565b611430565b6040516105cd919061733c565b60405180910390f35b6105f060048036038101906105eb91906164cd565b611456565b6040516105fd9190617318565b60405180910390f35b3480156106135760006000fd5b5061062e600480360381019061062991906163b6565b61152b565b005b34801561063d5760006000fd5b5061065860048036038101906106539190616964565b611648565b604051610666929190617407565b60405180910390f35b34801561067c5760006000fd5b506106856117b7565b604051610692919061733c565b60405180910390f35b3480156106a85760006000fd5b506106b16117cb565b6040516106be9190616d65565b60405180910390f35b3480156106d45760006000fd5b506106ef60048036038101906106ea919061670a565b6117de565b6040516106fd9291906172f6565b60405180910390f35b3480156107135760006000fd5b5061072e600480360381019061072991906162ca565b61180a565b60405161073c92919061748f565b60405180910390f35b3480156107525760006000fd5b5061076d60048036038101906107689190616208565b611869565b005b34801561077c5760006000fd5b5061078561187c565b6040516107929190617473565b60405180910390f35b3480156107a85760006000fd5b506107c360048036038101906107be9190616995565b611896565b005b3480156107d25760006000fd5b506107db611919565b6040516107e89190617473565b60405180910390f35b3480156107fe5760006000fd5b50610819600480360381019061081491906169bc565b61193d565b005b3480156108285760006000fd5b50610831611a18565b60405161083e9190617473565b60405180910390f35b3480156108545760006000fd5b5061085d611a3c565b60405161086a9190616c3e565b60405180910390f35b3480156108805760006000fd5b5061089b600480360381019061089691906167fd565b611a62565b005b3480156108aa5760006000fd5b506108c560048036038101906108c0919061637a565b611ae5565b005b3480156108d45760006000fd5b506108ef60048036038101906108ea9190616419565b611bdf565b6040516108fd929190617407565b60405180910390f35b3480156109135760006000fd5b5061091c611d08565b6040516109299190617318565b60405180910390f35b34801561093f5760006000fd5b5061095a6004803603810190610955919061685e565b611d2a565b604051610968929190616eab565b60405180910390f35b61097f611e1763ffffffff16565b61098d611f2a63ffffffff16565b6000600660005060008573ffffffffffffffffffffffffffffffffffffffff1673ffffffffffffffffffffffffffffffffffffffff16815260200190815260200160002060009054906101000a900461ffff1690506109f18161205763ffffffff16565b6109f9615eac565b600084849050905060006040518060400160405280600115158152602001610a26896120c863ffffffff16565b60020b8152602001509050610a39615f72565b610a4761221463ffffffff16565b67ffffffffffffffff1681608001909081815260200150506000600090505b83811015610d4b577f000000000000000000000000000000000000000000000000000000000000000073ffffffffffffffffffffffffffffffffffffffff1663f34348f18989848181101515610ab857fe5b905060200201356040518263ffffffff1660e01b8152600401610adb919061737a565b6101806040518083038186803b158015610af55760006000fd5b505afa158015610b0a573d600060003e3d6000fd5b505050506040513d601f19601f82011682018060405250810190610b2e91906165ed565b945084508561ffff16856020015161ffff16141515610b4c57610d3e565b610b6085846020015161222f63ffffffff16565b15610b6a57610d3e565b610b798561226263ffffffff16565b945084508787828181101515610b8b57fe5b905060200201358260000190908181526020015050610bbc826000015160006000886000015161264f63ffffffff16565b5050610c17610c0a600360089054906101000a900467ffffffffffffffff1667ffffffffffffffff168760a001516fffffffffffffffffffffffffffffffff1661287e90919063ffffffff16565b6128a4909063ffffffff16565b82602001906fffffffffffffffffffffffffffffffff1690816fffffffffffffffffffffffffffffffff1681526020015050610c59823361293e63ffffffff16565b5050610c8882602001518660a001516fffffffffffffffffffffffffffffffff16612a2990919063ffffffff16565b82602001906fffffffffffffffffffffffffffffffff1690816fffffffffffffffffffffffffffffffff1681526020015050610cce82866000015161293e63ffffffff16565b5050610ce582600001518685612ad663ffffffff16565b3373ffffffffffffffffffffffffffffffffffffffff168888838181101515610d0a57fe5b905060200201357f6ba13b7ae6048936f291047829a5de36835ad46b52453fff379900999074709260405160405180910390a35b8080600101915050610a66565b5050505050505b5b610d61612c0c63ffffffff16565b5b505050565b6000610d77612c9e63ffffffff16565b905080505b90565b610d8d612d1763ffffffff16565b610d9b612d7763ffffffff16565b5b5b565b610dad612d1763ffffffff16565b6706f05b59d3b200008167ffffffffffffffff16101515610dce5760006000fd5b80600360086101000a81548167ffffffffffffffff021916908367ffffffffffffffff1602179055507f78244e8e46597270e2f0ae9c6baded3ba10f1b3f03316f89e49bbfeb1c06786881604051610e269190617473565b60405180910390a15b5b50565b7f000000000000000000000000000000000000000000000000000000000000000081565b600860009054906101000a900467ffffffffffffffff1681565b600160005060205280600052604060002060009150909054906101000a900460ff1681565b60006000610ea8611e1763ffffffff16565b610eb6612dc163ffffffff16565b6000610ecb8460000151612e4c63ffffffff16565b9050610ee08160800151612f6063ffffffff16565b8060a0015184602001906fffffffffffffffffffffffffffffffff1690816fffffffffffffffffffffffffffffffff1681526020015050610f2b84826000015161293e63ffffffff16565b8093508194505050610f55846000015182610f4a612fa863ffffffff16565b612ad663ffffffff16565b83600001517f1bd2c24817047e88025a4688c0fba3903e750cc05d80857de4201f42ec59bcf28484604051610f8b929190617407565b60405180910390a282829250925050610fa056505b5b610faf612c0c63ffffffff16565b5b915091565b610fc3611e1763ffffffff16565b610fd1612dc163ffffffff16565b610fdf612fb463ffffffff16565b5b5b610fef612c0c63ffffffff16565b5b565b600360089054906101000a900467ffffffffffffffff1681565b6000600061101e611e1763ffffffff16565b61102c611f2a63ffffffff16565b6000600660005060007f000000000000000000000000000000000000000000000000000000000000000073ffffffffffffffffffffffffffffffffffffffff16631698ee82886000015189602001518a604001516040518463ffffffff1660e01b815260040161109e93929190616cbd565b60206040518083038186803b1580156110b75760006000fd5b505afa1580156110cc573d600060003e3d6000fd5b505050506040513d601f19601f820116820180604052508101906110f091906161e1565b73ffffffffffffffffffffffffffffffffffffffff1673ffffffffffffffffffffffffffffffffffffffff16815260200190815260200160002060009054906101000a900461ffff16905061114a8161205763ffffffff16565b6111598561322e63ffffffff16565b809350819450505061117d838287606001518860800151868961339463ffffffff16565b828161ffff163373ffffffffffffffffffffffffffffffffffffffff167f87c666eb8f5e2d1a47a2af419127c84ea830d86b5f75e12ca3dafa33323d912288606001518960800151876040516111d593929190616ee4565b60405180910390a4828292509250506111ea56505b5b6111f9612c0c63ffffffff16565b5b9250929050565b600460009054906101000a900463ffffffff1681565b611225612d1763ffffffff16565b6112348261205763ffffffff16565b611242612fb463ffffffff16565b80600560005060008461ffff1661ffff16815260200190815260200160002060005060000160146101000a81548167ffffffffffffffff021916908367ffffffffffffffff160217905550600061129d6134ed63ffffffff16565b1115156112df576040517f08c379a00000000000000000000000000000000000000000000000000000000081526004016112d690616fd9565b60405180910390fd5b8161ffff167fcf476913af040a8c0a50588902fc980c73de756444694afb625e05906334404f826040516113139190617473565b60405180910390a25b5b5050565b61132f611e1763ffffffff16565b61133d611f2a63ffffffff16565b600061134e82612e4c63ffffffff16565b9050600081610120019063ffffffff16908163ffffffff16815260200150507f000000000000000000000000000000000000000000000000000000000000000073ffffffffffffffffffffffffffffffffffffffff1663816aaa2583836040518363ffffffff1660e01b81526004016113c89291906173bb565b600060405180830381600087803b1580156113e35760006000fd5b505af11580156113f8573d600060003e3d6000fd5b50505050505b5b61140d612c0c63ffffffff16565b5b50565b6000611423838361222f63ffffffff16565b905061142a565b92915050565b600660005060205280600052604060002060009150909054906101000a900461ffff1681565b6000611466611e1763ffffffff16565b611474611f2a63ffffffff16565b60006114898460000135612e4c63ffffffff16565b90508281610120019063ffffffff16908163ffffffff16815260200150506114b68461358a63ffffffff16565b915081506114cf8185600001358461374263ffffffff16565b83600001357fcc5b49b47bfd2f61894e4c8977343543aa054a11ae847be904355459ce55dcd9836040516115039190617318565b60405180910390a28191505061151556505b5b611524612c0c63ffffffff16565b5b92915050565b611539612d1763ffffffff16565b6000600660005060008473ffffffffffffffffffffffffffffffffffffffff1673ffffffffffffffffffffffffffffffffffffffff16815260200190815260200160002060009054906101000a900461ffff1661ffff161415156115d2576040517f08c379a00000000000000000000000000000000000000000000000000000000081526004016115c990617057565b60405180910390fd5b6115e0612fb463ffffffff16565b6115f082826139ba63ffffffff16565b61ffff168273ffffffffffffffffffffffffffffffffffffffff167fb42c51dce17f5346a481b9dd503edc20c8b6de38b22e12b35a5c77c131fb38ac8360405161163a9190617473565b60405180910390a35b5b5050565b6000600061165a611e1763ffffffff16565b611668612dc163ffffffff16565b600061167985612e4c63ffffffff16565b90508381610120019063ffffffff16908163ffffffff16815260200150507f000000000000000000000000000000000000000000000000000000000000000073ffffffffffffffffffffffffffffffffffffffff1663816aaa2586836040518363ffffffff1660e01b81526004016116f29291906173bb565b600060405180830381600087803b15801561170d5760006000fd5b505af1158015611722573d600060003e3d6000fd5b5050505061173a85600060003361264f63ffffffff16565b8093508194505050843373ffffffffffffffffffffffffffffffffffffffff167f56253d287efacdb2c4cd76dd03624a4821c1ce721d1152e8f5f5718f6087c9bf858560405161178b929190617407565b60405180910390a3828292509250506117a056505b5b6117af612c0c63ffffffff16565b5b9250929050565b600460049054906101000a900461ffff1681565b600060009054906101000a900460ff1681565b6117e6615eac565b60006117f9858585613e2463ffffffff16565b91509150611802565b935093915050565b60076000506020528060005260406000206000915090508060000160009054906101000a900467ffffffffffffffff16908060000160089054906101000a900477ffffffffffffffffffffffffffffffffffffffffffffffff16905082565b61187881613f5c63ffffffff16565b5b50565b600360009054906101000a900467ffffffffffffffff1681565b6118a4612d1763ffffffff16565b61012c8163ffffffff16101515156118bc5760006000fd5b80600460006101000a81548163ffffffff021916908363ffffffff1602179055507f811ba52920ff121eccd59ee98068330fc6736094b9a3fab10ada70fb0cd2f3708160405161190c919061745b565b60405180910390a15b5b50565b7f000000000000000000000000000000000000000000000000000000000000000081565b61194b612d1763ffffffff16565b80600360006101000a81548167ffffffffffffffff021916908367ffffffffffffffff160217905550600360009054906101000a900467ffffffffffffffff1667ffffffffffffffff1660001015156119a45760006000fd5b670de0b6b3a7640000600360009054906101000a900467ffffffffffffffff1667ffffffffffffffff16111515156119dc5760006000fd5b7f41785a43e8509555b296851de25b00003ca4ca1c572c807cb301d4a0fb9582d481604051611a0b9190617473565b60405180910390a15b5b50565b7f000000000000000000000000000000000000000000000000000000000000000081565b600860089054906101000a900473ffffffffffffffffffffffffffffffffffffffff1681565b611a70612d1763ffffffff16565b80600360106101000a8154816fffffffffffffffffffffffffffffffff02191690836fffffffffffffffffffffffffffffffff1602179055507f755043e33e8e4c87253e98c56c011cc9905bf88318997b89b3520a54b3c5f17081604051611ad89190617318565b60405180910390a15b5b50565b611b44600860089054906101000a900473ffffffffffffffffffffffffffffffffffffffff1673ffffffffffffffffffffffffffffffffffffffff163373ffffffffffffffffffffffffffffffffffffffff1614613f5c63ffffffff16565b600860086101000a81549073ffffffffffffffffffffffffffffffffffffffff0219169055600161ffff16611b8183610bb86139ba63ffffffff16565b61ffff16141515611bc7576040517f08c379a0000000000000000000000000000000000000000000000000000000008152600401611bbe90617114565b60405180910390fd5b611bd9816103e86139ba63ffffffff16565b505b5050565b60006000611bf1611e1763ffffffff16565b611bff611f2a63ffffffff16565b6000611c148560000135612e4c63ffffffff16565b9050611c298160800151612f6063ffffffff16565b8381610120019063ffffffff16908163ffffffff1681526020015050611c6985803603810190611c599190616458565b826000015161293e63ffffffff16565b8093508194505050611ca6818660000135876020016020810190611c8d91906167fd565b611c9b612fa863ffffffff16565b613fd863ffffffff16565b84600001357ffafb1711250bf0d3906bfd9c4386a9a5a5fdf9ac1facdc9dfd2addad7d3f72e78484604051611cdc929190617407565b60405180910390a281829250925050611cf156505b5b611d00612c0c63ffffffff16565b5b9250929050565b600360109054906101000a90046fffffffffffffffffffffffffffffffff1681565b60056000506020528060005260406000206000915090508060000160009054906101000a900473ffffffffffffffffffffffffffffffffffffffff16908060000160149054906101000a900467ffffffffffffffff16905082565b60006801000000000000000082101515611e0a576040517f08c379a00000000000000000000000000000000000000000000000000000000081526004018080602001828103825260118152602001807f6d6f7265207468616e203634206269747300000000000000000000000000000081526020015060200191505060405180910390fd5b819050611e12565b919050565b7f000000000000000000000000000000000000000000000000000000000000000073ffffffffffffffffffffffffffffffffffffffff1663e97dcb626040518163ffffffff1660e01b8152600401600060405180830381600087803b158015611e805760006000fd5b505af1158015611e95573d600060003e3d6000fd5b50505050600260026000505414151515611f1a576040517f08c379a000000000000000000000000000000000000000000000000000000000815260040180806020018281038252600d8152602001807f4c50205265656e7472616e63790000000000000000000000000000000000000081526020015060200191505060405180910390fd5b600260026000508190909055505b565b611f38612dc163ffffffff16565b7f000000000000000000000000000000000000000000000000000000000000000073ffffffffffffffffffffffffffffffffffffffff1663bf86d6906040518163ffffffff1660e01b815260040160206040518083038186803b158015611f9f5760006000fd5b505afa158015611fb4573d600060003e3d6000fd5b505050506040513d6020811015611fcb5760006000fd5b8101908080519060200190929190505050151515612054576040517f08c379a00000000000000000000000000000000000000000000000000000000081526004018080602001828103825260118152602001807f50726f746f636f6c2073687574646f776e00000000000000000000000000000081526020015060200191505060405180910390fd5b5b565b8061ffff1660001080156120835750600460049054906101000a900461ffff1661ffff168161ffff1611155b15156120c4576040517f08c379a00000000000000000000000000000000000000000000000000000000081526004016120bb90617096565b60405180910390fd5b5b50565b60007f000000000000000000000000000000000000000000000000000000000000000073ffffffffffffffffffffffffffffffffffffffff1663d3419bf36040518163ffffffff1660e01b815260040160206040518083038186803b1580156121315760006000fd5b505afa158015612146573d600060003e3d6000fd5b505050506040513d601f19601f8201168201806040525081019061216a91906162a3565b73ffffffffffffffffffffffffffffffffffffffff1663fcebd71c83600460009054906101000a900463ffffffff166040518363ffffffff1660e01b81526004016121b6929190616e76565b60206040518083038186803b1580156121cf5760006000fd5b505afa1580156121e4573d600060003e3d6000fd5b505050506040513d601f19601f8201168201806040525081019061220891906163f2565b905061220f565b919050565b600061222742611d85909063ffffffff16565b905080505b90565b60008160020b8360e0015160020b13158015612255575082610100015160020b8260020b125b905061225c565b92915050565b61226a615eac565b600061227a61444863ffffffff16565b9050600061228d8261454763ffffffff16565b905060008460c001519050600060008267ffffffffffffffff16146122c0576122bb8261454763ffffffff16565b6122c3565b60005b90508067ffffffffffffffff168367ffffffffffffffff161115156122ee578594505050505061264a565b6122fc612fb463ffffffff16565b60006123bd877f000000000000000000000000000000000000000000000000000000000000000073ffffffffffffffffffffffffffffffffffffffff166351ad51f78a602001516040518263ffffffff1660e01b815260040161235f919061733c565b60406040518083038186803b1580156123785760006000fd5b505afa15801561238d573d600060003e3d6000fd5b505050506040513d601f19601f820116820180604052508101906123b191906167b1565b87613e2463ffffffff16565b8092508197505050600081111561263857600073ffffffffffffffffffffffffffffffffffffffff1686610140015173ffffffffffffffffffffffffffffffffffffffff161415801561241f5750600086610160015167ffffffffffffffff16115b1561254e57600061244887610160015167ffffffffffffffff168361287e90919063ffffffff16565b90507f000000000000000000000000000000000000000000000000000000000000000073ffffffffffffffffffffffffffffffffffffffff1663ef7a7cfa886101400151836040518363ffffffff1660e01b81526004016124aa929190616cfc565b600060405180830381600087803b1580156124c55760006000fd5b505af11580156124da573d600060003e3d6000fd5b505050506001151587610140015173ffffffffffffffffffffffffffffffffffffffff167f8079a05488a0f375c08504c3ba8b3a1371f5a192b7a141bc9294ef7ad41389d98360405161252d919061737a565b60405180910390a361254881836145cf90919063ffffffff16565b91508150505b7f000000000000000000000000000000000000000000000000000000000000000073ffffffffffffffffffffffffffffffffffffffff1663ef7a7cfa8760000151836040518363ffffffff1660e01b81526004016125ad929190616cfc565b600060405180830381600087803b1580156125c85760006000fd5b505af11580156125dd573d600060003e3d6000fd5b5050505060001515866000015173ffffffffffffffffffffffffffffffffffffffff167f8079a05488a0f375c08504c3ba8b3a1371f5a192b7a141bc9294ef7ad41389d98360405161262f919061737a565b60405180910390a35b859550505050505061264a5650505050505b919050565b600060007f000000000000000000000000000000000000000000000000000000000000000073ffffffffffffffffffffffffffffffffffffffff1663fc6f78656040518060800160405280898152602001600073ffffffffffffffffffffffffffffffffffffffff1681526020016fffffffffffffffffffffffffffffffff6fffffffffffffffffffffffffffffffff1681526020016fffffffffffffffffffffffffffffffff6fffffffffffffffffffffffffffffffff168152602001506040518263ffffffff1660e01b815260040161272a9190617153565b604060405180830381600087803b1580156127455760006000fd5b505af115801561275a573d600060003e3d6000fd5b505050506040513d601f19601f8201168201806040525081019061277e919061693e565b8092508193505050600060007f000000000000000000000000000000000000000000000000000000000000000073ffffffffffffffffffffffffffffffffffffffff166399fbab88896040518263ffffffff1660e01b81526004016127e3919061737a565b6101806040518083038186803b1580156127fd5760006000fd5b505afa158015612812573d600060003e3d6000fd5b505050506040513d601f19601f820116820180604052508101906128369190616a0a565b505050505050505093509350505061285582888761465863ffffffff16565b61286681878761465863ffffffff16565b83839350935050506128755650505b94509492505050565b60006128998383670de0b6b3a76400006147d863ffffffff16565b905080505b92915050565b600070010000000000000000000000000000000082101515612931576040517f08c379a00000000000000000000000000000000000000000000000000000000081526004018080602001828103825260128152602001807f6d6f7265207468616e203132382062697473000000000000000000000000000081526020015060200191505060405180910390fd5b819050612939565b919050565b600060007f000000000000000000000000000000000000000000000000000000000000000073ffffffffffffffffffffffffffffffffffffffff16630c49ccbe856040518263ffffffff1660e01b815260040161299b91906171b2565b604060405180830381600087803b1580156129b65760006000fd5b505af11580156129cb573d600060003e3d6000fd5b505050506040513d601f19601f820116820180604052508101906129ef919061693e565b8092508193505050612a158460000151856040015186606001518661264f63ffffffff16565b5050808191509150612a22565b9250929050565b6000826fffffffffffffffffffffffffffffffff168284039150816fffffffffffffffffffffffffffffffff1611151515612acf576040517f08c379a000000000000000000000000000000000000000000000000000000000815260040180806020018281038252600d8152602001807f7375622d756e646572666c6f770000000000000000000000000000000000000081526020015060200191505060405180910390fd5b5b92915050565b612aec82848460a0015184613fd863ffffffff16565b7f000000000000000000000000000000000000000000000000000000000000000073ffffffffffffffffffffffffffffffffffffffff166326879a4e846040518263ffffffff1660e01b8152600401612b45919061737a565b600060405180830381600087803b158015612b605760006000fd5b505af1158015612b75573d600060003e3d6000fd5b505050507f000000000000000000000000000000000000000000000000000000000000000073ffffffffffffffffffffffffffffffffffffffff166342966c68846040518263ffffffff1660e01b8152600401612bd2919061737a565b600060405180830381600087803b158015612bed5760006000fd5b505af1158015612c02573d600060003e3d6000fd5b505050505b505050565b600160026000508190909055507f000000000000000000000000000000000000000000000000000000000000000073ffffffffffffffffffffffffffffffffffffffff1663e9fad8ee6040518163ffffffff1660e01b8152600401600060405180830381600087803b158015612c825760006000fd5b505af1158015612c97573d600060003e3d6000fd5b505050505b565b60007f00000000000000000000000000000000000000000000000000000000000000007f000000000000000000000000000000000000000000000000000000000000000067ffffffffffffffff16612cfa61221463ffffffff16565b67ffffffffffffffff16811515612d0d57fe5b0403905080505b90565b612d747f000000000000000000000000000000000000000000000000000000000000000073ffffffffffffffffffffffffffffffffffffffff163373ffffffffffffffffffffffffffffffffffffffff1614613f5c63ffffffff16565b5b565b6001600060006101000a81548160ff0219169083151502179055507f7acc84e34091ae817647a4c49116f5cc07f319078ba80f8f5fde37ea7e25cbd660405160405180910390a15b565b600060009054906101000a900460ff16151515612e49576040517f08c379a00000000000000000000000000000000000000000000000000000000081526004018080602001828103825260138152602001807f436f6e74726163742069732073746f707065640000000000000000000000000081526020015060200191505060405180910390fd5b5b565b612e54615eac565b612f0e7f000000000000000000000000000000000000000000000000000000000000000073ffffffffffffffffffffffffffffffffffffffff1663f34348f1846040518263ffffffff1660e01b8152600401612eb0919061737a565b6101806040518083038186803b158015612eca5760006000fd5b505afa158015612edf573d600060003e3d6000fd5b505050506040513d601f19601f82011682018060405250810190612f0391906165ed565b61226263ffffffff16565b90508050612f53816000015173ffffffffffffffffffffffffffffffffffffffff163373ffffffffffffffffffffffffffffffffffffffff1614613f5c63ffffffff16565b809050612f5b565b919050565b4381101515612fa4576040517f08c379a0000000000000000000000000000000000000000000000000000000008152600401612f9b906170d5565b60405180910390fd5b5b50565b612fb0615fb6565b5b90565b6000612fc46148d963ffffffff16565b9050600860009054906101000a900467ffffffffffffffff1667ffffffffffffffff168167ffffffffffffffff16111515612fff575061322c565b6000600860009054906101000a900467ffffffffffffffff1682039050600061384067ffffffffffffffff166201518081151561303857fe5b0467ffffffffffffffff166131018367ffffffffffffffff167f000000000000000000000000000000000000000000000000000000000000000073ffffffffffffffffffffffffffffffffffffffff166318c7de176040518163ffffffff1660e01b8152600401602060405180830381600087803b1580156130ba5760006000fd5b505af11580156130cf573d600060003e3d6000fd5b505050506040513d601f19601f820116820180604052508101906130f391906168dd565b61490190919063ffffffff16565b81151561310a57fe5b0490506000600460049054906101000a900461ffff169050600060006131346134ed63ffffffff16565b90506001915081505b8261ffff168261ffff161115156131c3576131b5826131a9600560005060008661ffff1661ffff16815260200190815260200160002060005060000160149054906101000a900467ffffffffffffffff1667ffffffffffffffff1684886147d89092919063ffffffff16565b8761499f63ffffffff16565b5b818060010192505061313d565b85600860006101000a81548167ffffffffffffffff021916908367ffffffffffffffff1602179055507f095a67d1e9698fe0eebf9cff79a22f6423cebcb4e386a0bdd7e12330d86381ed848660405161321d929190617420565b60405180910390a15050505050505b565b6000600061324a83600001518460a00151614c3163ffffffff16565b61326283602001518460c00151614c3163ffffffff16565b7f000000000000000000000000000000000000000000000000000000000000000083610120019073ffffffffffffffffffffffffffffffffffffffff16908173ffffffffffffffffffffffffffffffffffffffff16815260200150507f000000000000000000000000000000000000000000000000000000000000000073ffffffffffffffffffffffffffffffffffffffff166388316456846040518263ffffffff1660e01b81526004016133179190617244565b608060405180830381600087803b1580156133325760006000fd5b505af1158015613347573d600060003e3d6000fd5b505050506040513d601f19601f8201168201806040525081019061336b91906168f9565b905050809250819350505061338e83600001518460200151614d3163ffffffff16565b5b915091565b7f000000000000000000000000000000000000000000000000000000000000000073ffffffffffffffffffffffffffffffffffffffff166375ea13ca33886040518363ffffffff1660e01b81526004016133ef929190616c8e565b600060405180830381600087803b15801561340a5760006000fd5b505af115801561341f573d600060003e3d6000fd5b5050505061342b615eac565b33816000019073ffffffffffffffffffffffffffffffffffffffff16908173ffffffffffffffffffffffffffffffffffffffff168152602001505085816020019061ffff16908161ffff1681526020015050848160e0019060020b908160020b815260200150508381610100019060020b908160020b815260200150508181610120019063ffffffff16908163ffffffff16815260200150506134e36134d68261226263ffffffff16565b888561374263ffffffff16565b505b505050505050565b60006000600190505b600460049054906101000a900461ffff1661ffff168161ffff1611151561357e5761356c600560005060008361ffff1661ffff16815260200190815260200160002060005060000160149054906101000a900467ffffffffffffffff1667ffffffffffffffff1683614df090919063ffffffff16565b915081505b80806001019150506134f6565b50809050613587565b90565b6000600060007f000000000000000000000000000000000000000000000000000000000000000073ffffffffffffffffffffffffffffffffffffffff166399fbab8885600001356040518263ffffffff1660e01b81526004016135ed919061737a565b6101806040518083038186803b1580156136075760006000fd5b505afa15801561361c573d600060003e3d6000fd5b505050506040513d601f19601f820116820180604052508101906136409190616a0a565b5050505050505050935093505050613662828560200135614c3163ffffffff16565b613676818560400135614c3163ffffffff16565b7f000000000000000000000000000000000000000000000000000000000000000073ffffffffffffffffffffffffffffffffffffffff1663219f5d17856040518263ffffffff1660e01b81526004016136cf91906171ff565b606060405180830381600087803b1580156136ea5760006000fd5b505af11580156136ff573d600060003e3d6000fd5b505050506040513d601f19601f820116820180604052508101906137239190616824565b9050508093505061373a8282614d3163ffffffff16565b50505b919050565b600060056000506000856020015161ffff1661ffff16815260200190815260200160002060005060000160009054906101000a900473ffffffffffffffffffffffffffffffffffffffff16905060006137a0826120c863ffffffff16565b90506137b2858261222f63ffffffff16565b15156137f3576040517f08c379a00000000000000000000000000000000000000000000000000000000081526004016137ea90616f1c565b60405180910390fd5b61382d858284613822878a60a001516fffffffffffffffffffffffffffffffff16614e7990919063ffffffff16565b614f2663ffffffff16565b7f000000000000000000000000000000000000000000000000000000000000000073ffffffffffffffffffffffffffffffffffffffff16631428561d83856040518363ffffffff1660e01b8152600401613888929190616e35565b600060405180830381600087803b1580156138a35760006000fd5b505af11580156138b8573d600060003e3d6000fd5b50505050670de0b6b3a7640000600360009054906101000a900467ffffffffffffffff1667ffffffffffffffff161080156138ff5750600161ffff16856020015161ffff16145b15613914576139138261512163ffffffff16565b5b4385608001909081815260200150507f000000000000000000000000000000000000000000000000000000000000000073ffffffffffffffffffffffffffffffffffffffff1663816aaa2585876040518363ffffffff1660e01b815260040161397e9291906173bb565b600060405180830381600087803b1580156139995760006000fd5b505af11580156139ae573d600060003e3d6000fd5b5050505050505b505050565b60006000600660005060008573ffffffffffffffffffffffffffffffffffffffff1673ffffffffffffffffffffffffffffffffffffffff16815260200190815260200160002060009054906101000a900461ffff1661ffff16141515613a55576040517f08c379a0000000000000000000000000000000000000000000000000000000008152600401613a4c90616f9a565b60405180910390fd5b61ffff61ffff166004600481819054906101000a900461ffff1660010191906101000a81548161ffff021916908361ffff160217905561ffff16101515613a9c5760006000fd5b7f000000000000000000000000000000000000000000000000000000000000000073ffffffffffffffffffffffffffffffffffffffff1663d3419bf36040518163ffffffff1660e01b815260040160206040518083038186803b158015613b035760006000fd5b505afa158015613b18573d600060003e3d6000fd5b505050506040513d601f19601f82011682018060405250810190613b3c91906162a3565b73ffffffffffffffffffffffffffffffffffffffff1663407431f7846040518263ffffffff1660e01b8152600401613b749190616da1565b600060405180830381600087803b158015613b8f5760006000fd5b505af1158015613ba4573d600060003e3d6000fd5b50505050600460049054906101000a900461ffff169050805060405180604001604052808473ffffffffffffffffffffffffffffffffffffffff1681526020018367ffffffffffffffff16815260200150600560005060008361ffff1661ffff16815260200190815260200160002060005060008201518160000160006101000a81548173ffffffffffffffffffffffffffffffffffffffff021916908373ffffffffffffffffffffffffffffffffffffffff16021790555060208201518160000160146101000a81548167ffffffffffffffff021916908367ffffffffffffffff16021790555090505080600660005060008573ffffffffffffffffffffffffffffffffffffffff1673ffffffffffffffffffffffffffffffffffffffff16815260200190815260200160002060006101000a81548161ffff021916908361ffff160217905550613d7a8373ffffffffffffffffffffffffffffffffffffffff16630dfe16816040518163ffffffff1660e01b815260040160206040518083038186803b158015613d365760006000fd5b505afa158015613d4b573d600060003e3d6000fd5b505050506040513d601f19601f82011682018060405250810190613d6f91906161e1565b6153b963ffffffff16565b613e088373ffffffffffffffffffffffffffffffffffffffff1663d21220a76040518163ffffffff1660e01b815260040160206040518083038186803b158015613dc45760006000fd5b505afa158015613dd9573d600060003e3d6000fd5b505050506040513d601f19601f82011682018060405250810190613dfd91906161e1565b6153b963ffffffff16565b613e16612fb463ffffffff16565b809050613e1e565b92915050565b613e2c615eac565b6000849150815060008260a001516fffffffffffffffffffffffffffffffff161115613f0057613efb613e768360c001518567ffffffffffffffff1661540e90919063ffffffff16565b67ffffffffffffffff1661384067ffffffffffffffff16613eec613eab866060015189600001516145cf90919063ffffffff16565b613ec687604001518a602001516145cf90919063ffffffff16565b8760a001516fffffffffffffffffffffffffffffffff166147d89092919063ffffffff16565b6147d89092919063ffffffff16565b905080505b8360000151826060019090818152602001505083602001518260400190908181526020015050828260c0019067ffffffffffffffff16908167ffffffffffffffff1681526020015050818191509150613f54565b935093915050565b801515613fd4576040517f08c379a000000000000000000000000000000000000000000000000000000000815260040180806020018281038252600e8152602001807f4e6f7420417574686f72697a656400000000000000000000000000000000000081526020015060200191505060405180910390fd5b5b50565b600060056000506000866020015161ffff1661ffff16815260200190815260200160002060005060000160009054906101000a900473ffffffffffffffffffffffffffffffffffffffff169050600082600001516140445761403f826120c863ffffffff16565b61404a565b82602001515b90506000670de0b6b3a7640000600360009054906101000a900467ffffffffffffffff1667ffffffffffffffff161080156140915750600161ffff16876020015161ffff16145b80156140a957506140a8878361222f63ffffffff16565b5b801561415257507f000000000000000000000000000000000000000000000000000000000000000073ffffffffffffffffffffffffffffffffffffffff1663bf86d6906040518163ffffffff1660e01b815260040160206040518083038186803b1580156141175760006000fd5b505afa15801561412c573d600060003e3d6000fd5b505050506040513d601f19601f82011682018060405250810190614150919061622f565b155b905061418e878385614183898c60a001516fffffffffffffffffffffffffffffffff16612a2990919063ffffffff16565b614f2663ffffffff16565b80156141a4576141a38361512163ffffffff16565b5b7f000000000000000000000000000000000000000000000000000000000000000073ffffffffffffffffffffffffffffffffffffffff1663530c1ccb84876040518363ffffffff1660e01b81526004016141ff929190616e35565b600060405180830381600087803b15801561421a5760006000fd5b505af115801561422f573d600060003e3d6000fd5b5050505080156143af57600760005060008473ffffffffffffffffffffffffffffffffffffffff1673ffffffffffffffffffffffffffffffffffffffff16815260200190815260200160002060005060000160089054906101000a900477ffffffffffffffffffffffffffffffffffffffffffffffff1677ffffffffffffffffffffffffffffffffffffffffffffffff167f000000000000000000000000000000000000000000000000000000000000000073ffffffffffffffffffffffffffffffffffffffff1663a135ef17856040518263ffffffff1660e01b81526004016143199190616da1565b60206040518083038186803b1580156143325760006000fd5b505afa158015614347573d600060003e3d6000fd5b505050506040513d601f19601f8201168201806040525081019061436b91906168dd565b101515156143ae576040517f08c379a00000000000000000000000000000000000000000000000000000000081526004016143a590616f5b565b60405180910390fd5b5b7f000000000000000000000000000000000000000000000000000000000000000073ffffffffffffffffffffffffffffffffffffffff1663816aaa2587896040518363ffffffff1660e01b815260040161440a9291906173bb565b600060405180830381600087803b1580156144255760006000fd5b505af115801561443a573d600060003e3d6000fd5b505050505050505b50505050565b6000600061445a61221463ffffffff16565b905060007f000000000000000000000000000000000000000000000000000000000000000073ffffffffffffffffffffffffffffffffffffffff1663585690816040518163ffffffff1660e01b815260040160206040518083038186803b1580156144c55760006000fd5b505afa1580156144da573d600060003e3d6000fd5b505050506040513d601f19601f820116820180604052508101906144fe91906169e3565b90508067ffffffffffffffff16600010801561452d57508167ffffffffffffffff168167ffffffffffffffff16105b6145375781614539565b805b925050506145445650505b90565b60006145c57f00000000000000000000000000000000000000000000000000000000000000007f000000000000000000000000000000000000000000000000000000000000000067ffffffffffffffff168467ffffffffffffffff168115156145ac57fe5b0467ffffffffffffffff1661540e90919063ffffffff16565b905080505b919050565b60008282840391508111151515614651576040517f08c379a000000000000000000000000000000000000000000000000000000000815260040180806020018281038252600d8152602001807f7375622d756e646572666c6f770000000000000000000000000000000000000081526020015060200191505060405180910390fd5b5b92915050565b7f000000000000000000000000000000000000000000000000000000000000000073ffffffffffffffffffffffffffffffffffffffff168373ffffffffffffffffffffffffffffffffffffffff161415614740577f000000000000000000000000000000000000000000000000000000000000000073ffffffffffffffffffffffffffffffffffffffff166349404b7c83836040518363ffffffff1660e01b815260040161470792919061738c565b600060405180830381600087803b1580156147225760006000fd5b505af1158015614737573d600060003e3d6000fd5b505050506147d2565b7f000000000000000000000000000000000000000000000000000000000000000073ffffffffffffffffffffffffffffffffffffffff1663df2ab5bb8484846040518463ffffffff1660e01b815260040161479d93929190616d2b565b600060405180830381600087803b1580156147b85760006000fd5b505af11580156147cd573d600060003e3d6000fd5b505050505b5b505050565b600060006000600019858709858702925082811083820303915050600081141561481b5760008411151561480c5760006000fd5b838204925082925050506148d2565b808411151561482a5760006000fd5b60008486880990508281118203915080830392506000858660000316905080860495508084049350600181826000030401905080830284179350835060006002876003021890508087026002038102905080508087026002038102905080508087026002038102905080508087026002038102905080508087026002038102905080508087026002038102905080508085029550855085955050505050506148d25650505050505b9392505050565b60006148f76148ec61444863ffffffff16565b61454763ffffffff16565b90506148fe565b90565b600060008214806149215750828283850292508281151561491e57fe5b04145b1515614998576040517f08c379a000000000000000000000000000000000000000000000000000000000815260040180806020018281038252600c8152602001807f6d756c2d6f766572666c6f77000000000000000000000000000000000000000081526020015060200191505060405180910390fd5b5b92915050565b60007f000000000000000000000000000000000000000000000000000000000000000073ffffffffffffffffffffffffffffffffffffffff166351ad51f7856040518263ffffffff1660e01b81526004016149fa919061733c565b60406040518083038186803b158015614a135760006000fd5b505afa158015614a28573d600060003e3d6000fd5b505050506040513d601f19601f82011682018060405250810190614a4c91906167b1565b90507f000000000000000000000000000000000000000000000000000000000000000073ffffffffffffffffffffffffffffffffffffffff1663f7099607856040518060400160405280614aad888760000151614df090919063ffffffff16565b8152602001614bd3614bc08867ffffffffffffffff167f000000000000000000000000000000000000000000000000000000000000000073ffffffffffffffffffffffffffffffffffffffff1663a135ef17600560005060008f61ffff1661ffff16815260200190815260200160002060005060000160009054906101000a900473ffffffffffffffffffffffffffffffffffffffff166040518263ffffffff1660e01b8152600401614b609190616da1565b60206040518083038186803b158015614b795760006000fd5b505afa158015614b8e573d600060003e3d6000fd5b505050506040513d601f19601f82011682018060405250810190614bb291906168dd565b61490190919063ffffffff16565b8760200151614df090919063ffffffff16565b8152602001506040518363ffffffff1660e01b8152600401614bf6929190617352565b600060405180830381600087803b158015614c115760006000fd5b505af1158015614c26573d600060003e3d6000fd5b50505050505b505050565b7f000000000000000000000000000000000000000000000000000000000000000073ffffffffffffffffffffffffffffffffffffffff168273ffffffffffffffffffffffffffffffffffffffff16148015614c8c5750804710155b15614d19577f000000000000000000000000000000000000000000000000000000000000000073ffffffffffffffffffffffffffffffffffffffff1663d0e30db0826040518263ffffffff1660e01b81526004016000604051808303818588803b158015614cfa5760006000fd5b505af1158015614d0f573d600060003e3d6000fd5b5050505050614d2c565b614d2b823330846154ab63ffffffff16565b5b5b5050565b614d40826156d663ffffffff16565b614d4f816156d663ffffffff16565b7f000000000000000000000000000000000000000000000000000000000000000073ffffffffffffffffffffffffffffffffffffffff166312210e8a6040518163ffffffff1660e01b8152600401600060405180830381600087803b158015614db85760006000fd5b505af1158015614dcd573d600060003e3d6000fd5b505050506000471115614deb57614dea334761586c63ffffffff16565b5b5b5050565b60008282840191508110151515614e72576040517f08c379a000000000000000000000000000000000000000000000000000000000815260040180806020018281038252600c8152602001807f6164642d6f766572666c6f77000000000000000000000000000000000000000081526020015060200191505060405180910390fd5b5b92915050565b6000826fffffffffffffffffffffffffffffffff168284019150816fffffffffffffffffffffffffffffffff1610151515614f1f576040517f08c379a000000000000000000000000000000000000000000000000000000000815260040180806020018281038252600c8152602001807f6164642d6f766572666c6f77000000000000000000000000000000000000000081526020015060200191505060405180910390fd5b5b92915050565b6000816fffffffffffffffffffffffffffffffff161415614f465761511b565b60007f000000000000000000000000000000000000000000000000000000000000000073ffffffffffffffffffffffffffffffffffffffff1663d3419bf36040518163ffffffff1660e01b815260040160206040518083038186803b158015614faf5760006000fd5b505afa158015614fc4573d600060003e3d6000fd5b505050506040513d601f19601f82011682018060405250810190614fe891906162a3565b73ffffffffffffffffffffffffffffffffffffffff16631fab230e84868860e0015189610100015187600460009054906101000a900463ffffffff166040518763ffffffff1660e01b815260040161504596959493929190616dc9565b60206040518083038186803b15801561505e5760006000fd5b505afa158015615073573d600060003e3d6000fd5b505050506040513d601f19601f8201168201806040525081019061509791906168dd565b9050600360109054906101000a90046fffffffffffffffffffffffffffffffff166fffffffffffffffffffffffffffffffff16811015806150d85750600081145b1515615119576040517f08c379a000000000000000000000000000000000000000000000000000000000815260040161511090617018565b60405180910390fd5b505b50505050565b6000615131612c9e63ffffffff16565b90508067ffffffffffffffff16600760005060008473ffffffffffffffffffffffffffffffffffffffff1673ffffffffffffffffffffffffffffffffffffffff16815260200190815260200160002060005060000160009054906101000a900467ffffffffffffffff1667ffffffffffffffff1610156153b45760405180604001604052808267ffffffffffffffff1681526020016152cd6152c0615207600360009054906101000a900467ffffffffffffffff1667ffffffffffffffff16670de0b6b3a76400006145cf90919063ffffffff16565b7f000000000000000000000000000000000000000000000000000000000000000073ffffffffffffffffffffffffffffffffffffffff1663a135ef17886040518263ffffffff1660e01b81526004016152609190616da1565b60206040518083038186803b1580156152795760006000fd5b505afa15801561528e573d600060003e3d6000fd5b505050506040513d601f19601f820116820180604052508101906152b291906168dd565b61287e90919063ffffffff16565b6159f2909063ffffffff16565b77ffffffffffffffffffffffffffffffffffffffffffffffff16815260200150600760005060008473ffffffffffffffffffffffffffffffffffffffff1673ffffffffffffffffffffffffffffffffffffffff16815260200190815260200160002060005060008201518160000160006101000a81548167ffffffffffffffff021916908367ffffffffffffffff16021790555060208201518160000160086101000a81548177ffffffffffffffffffffffffffffffffffffffffffffffff021916908377ffffffffffffffffffffffffffffffffffffffffffffffff1602179055509050505b505b50565b61540a817f00000000000000000000000000000000000000000000000000000000000000007fffffffffffffffffffffffffffffffffffffffffffffffffffffffffffffffff615a9463ffffffff16565b5b50565b60008267ffffffffffffffff1682840391508167ffffffffffffffff16111515156154a4576040517f08c379a000000000000000000000000000000000000000000000000000000000815260040180806020018281038252600d8152602001807f7375622d756e646572666c6f770000000000000000000000000000000000000081526020015060200191505060405180910390fd5b5b92915050565b600060008573ffffffffffffffffffffffffffffffffffffffff166323b872dd60e01b868686604051602401808473ffffffffffffffffffffffffffffffffffffffff1681526020018373ffffffffffffffffffffffffffffffffffffffff1681526020018281526020019350505050604051602081830303815290604052907bffffffffffffffffffffffffffffffffffffffffffffffffffffffff19166020820180517bffffffffffffffffffffffffffffffffffffffffffffffffffffffff83818316178352505050506040518082805190602001908083835b6020831015156155ae57805182525b602082019150602081019050602083039250615588565b6001836020036101000a0380198251168184511680821785525050505050509050019150506000604051808303816000865af19150503d8060008114615610576040519150601f19603f3d011682016040523d82523d6000602084013e615615565b606091505b5091509150818015615656575060008151148061565557508080602001905160208110156156435760006000fd5b81019080805190602001909291905050505b5b15156156cd576040517f08c379a00000000000000000000000000000000000000000000000000000000081526004018080602001828103825260038152602001807f535446000000000000000000000000000000000000000000000000000000000081526020015060200191505060405180910390fd5b50505b50505050565b60008173ffffffffffffffffffffffffffffffffffffffff166370a08231306040518263ffffffff1660e01b81526004016157119190616c66565b60206040518083038186803b15801561572a5760006000fd5b505afa15801561573f573d600060003e3d6000fd5b505050506040513d601f19601f8201168201806040525081019061576391906168dd565b90506000811115615867577f000000000000000000000000000000000000000000000000000000000000000073ffffffffffffffffffffffffffffffffffffffff168273ffffffffffffffffffffffffffffffffffffffff161415615854577f000000000000000000000000000000000000000000000000000000000000000073ffffffffffffffffffffffffffffffffffffffff16632e1a7d4d826040518263ffffffff1660e01b815260040161581b919061737a565b600060405180830381600087803b1580156158365760006000fd5b505af115801561584b573d600060003e3d6000fd5b50505050615866565b615865823383615ca063ffffffff16565b5b5b505b50565b60008273ffffffffffffffffffffffffffffffffffffffff1682600067ffffffffffffffff8111801561589f5760006000fd5b506040519080825280601f01601f1916602001820160405280156158d25781602001600182028036833780820191505090505b506040518082805190602001908083835b60208310151561590957805182525b6020820191506020810190506020830392506158e3565b6001836020036101000a03801982511681845116808217855250505050505090500191505060006040518083038185875af1925050503d806000811461596b576040519150601f19603f3d011682016040523d82523d6000602084013e615970565b606091505b505090508015156159ec576040517f08c379a00000000000000000000000000000000000000000000000000000000081526004018080602001828103825260038152602001807f535445000000000000000000000000000000000000000000000000000000000081526020015060200191505060405180910390fd5b505b5050565b6000780100000000000000000000000000000000000000000000000082101515615a87576040517f08c379a00000000000000000000000000000000000000000000000000000000081526004018080602001828103825260128152602001807f6d6f7265207468616e203139322062697473000000000000000000000000000081526020015060200191505060405180910390fd5b819050615a8f565b919050565b600060008473ffffffffffffffffffffffffffffffffffffffff1663095ea7b360e01b8585604051602401808373ffffffffffffffffffffffffffffffffffffffff16815260200182815260200192505050604051602081830303815290604052907bffffffffffffffffffffffffffffffffffffffffffffffffffffffff19166020820180517bffffffffffffffffffffffffffffffffffffffffffffffffffffffff83818316178352505050506040518082805190602001908083835b602083101515615b7957805182525b602082019150602081019050602083039250615b53565b6001836020036101000a0380198251168184511680821785525050505050509050019150506000604051808303816000865af19150503d8060008114615bdb576040519150601f19603f3d011682016040523d82523d6000602084013e615be0565b606091505b5091509150818015615c215750600081511480615c205750808060200190516020811015615c0e5760006000fd5b81019080805190602001909291905050505b5b1515615c98576040517f08c379a00000000000000000000000000000000000000000000000000000000081526004018080602001828103825260028152602001807f534100000000000000000000000000000000000000000000000000000000000081526020015060200191505060405180910390fd5b50505b505050565b600060008473ffffffffffffffffffffffffffffffffffffffff1663a9059cbb60e01b8585604051602401808373ffffffffffffffffffffffffffffffffffffffff16815260200182815260200192505050604051602081830303815290604052907bffffffffffffffffffffffffffffffffffffffffffffffffffffffff19166020820180517bffffffffffffffffffffffffffffffffffffffffffffffffffffffff83818316178352505050506040518082805190602001908083835b602083101515615d8557805182525b602082019150602081019050602083039250615d5f565b6001836020036101000a0380198251168184511680821785525050505050509050019150506000604051808303816000865af19150503d8060008114615de7576040519150601f19603f3d011682016040523d82523d6000602084013e615dec565b606091505b5091509150818015615e2d5750600081511480615e2c5750808060200190516020811015615e1a5760006000fd5b81019080805190602001909291905050505b5b1515615ea4576040517f08c379a00000000000000000000000000000000000000000000000000000000081526004018080602001828103825260028152602001807f535400000000000000000000000000000000000000000000000000000000000081526020015060200191505060405180910390fd5b50505b505050565b604051806101800160405280600073ffffffffffffffffffffffffffffffffffffffff168152602001600061ffff16815260200160008152602001600081526020016000815260200160006fffffffffffffffffffffffffffffffff168152602001600067ffffffffffffffff168152602001600060020b8152602001600060020b8152602001600063ffffffff168152602001600073ffffffffffffffffffffffffffffffffffffffff168152602001600067ffffffffffffffff1681526020015090565b6040518060a001604052806000815260200160006fffffffffffffffffffffffffffffffff1681526020016000815260200160008152602001600081526020015090565b6040518060400160405280600015158152602001600060020b81526020015090566175d5565b600081359050615feb816174f7565b5b919050565b600081519050616000816174f7565b5b919050565b60008135905061601581617535565b5b919050565b60008151905061602a81617535565b5b919050565b6000610180808385031215616043578182fd5b61604c816174cc565b91505061605882615fdc565b815261606660208301616139565b602082015260408201356040820152606082013560608201526080820135608082015261609560a0830161610f565b60a08201526160a660c083016161b7565b60c08201526160b760e08301616006565b60e08201526101006160ca818401616006565b81830152506101206160dd81840161618d565b81830152506101406160f0818401615fdc565b81830152506101606161038184016161b7565b81830152505b92915050565b60008135905061611e8161754b565b5b919050565b6000815190506161338161754b565b5b919050565b60008135905061614881617570565b5b919050565b60008151905061615d81617570565b5b919050565b60008135905061617281617587565b5b919050565b60008151905061618781617587565b5b919050565b60008135905061619c8161759f565b5b919050565b6000815190506161b18161759f565b5b919050565b6000813590506161c6816175b8565b5b919050565b6000815190506161db816175b8565b5b919050565b6000602082840312156161f2578081fd5b81516161fd816174f7565b809150505b92915050565b600060208284031215616219578081fd5b813561622481617520565b809150505b92915050565b600060208284031215616240578081fd5b815161624b81617520565b809150505b92915050565b600060208284031215616267578081fd5b81357fffffffff00000000000000000000000000000000000000000000000000000000811681141515616298578182fd5b809150505b92915050565b6000602082840312156162b4578081fd5b81516162bf816174f7565b809150505b92915050565b6000602082840312156162db578081fd5b81356162e6816174f7565b809150505b92915050565b60006000600060408486031215616306578182fd5b8335616311816174f7565b80935050602084013567ffffffffffffffff8082111561632f578384fd5b818601915086601f8301121515616344578384fd5b813581811115616352578485fd5b876020602083028501011115616366578485fd5b6020830194508093505050505b9250925092565b600060006040838503121561638d578182fd5b8235616398816174f7565b8092505060208301356163aa816174f7565b809150505b9250929050565b60006000604083850312156163c9578182fd5b82356163d4816174f7565b8092505060208301356163e6816175b8565b809150505b9250929050565b600060208284031215616403578081fd5b815161640e81617535565b809150505b92915050565b6000600082840360c081121561642d578283fd5b60a081121561643a578283fd5b5082915060a083013561644c8161759f565b809150505b9250929050565b600060a08284031215616469578081fd5b60405160a0810181811067ffffffffffffffff8211171561648657fe5b806040525082358152602083013561649d8161754b565b80602083015250604083013560408201526060830135606082015260808301356080820152809150505b92915050565b6000600082840360e08112156164e1578283fd5b60c08112156164ee578283fd5b5082915060c08301356165008161759f565b809150505b9250929050565b60006000828403610180811215616521578283fd5b61016080821215616530578384fd5b616539816174cc565b915061654485615fdc565b825261655260208601615fdc565b602083015261656360408601616163565b604083015261657460608601616006565b606083015261658560808601616006565b608083015260a085013560a083015260c085013560c083015260e085013560e08301526101008086013581840152506101206165c2818701615fdc565b81840152506101408086013581840152508193506165e181860161618d565b925050505b9250929050565b6000610180808385031215616600578182fd5b616609816174cc565b905061661483615ff1565b81526166226020840161614e565b602082015260408301516040820152606083015160608201526080830151608082015261665160a08401616124565b60a082015261666260c084016161cc565b60c082015261667360e0840161601b565b60e082015261010061668681850161601b565b81830152506101206166998185016161a2565b81830152506101406166ac818501615ff1565b81830152506101606166bf8185016161cc565b8183015250809150505b92915050565b600060006101a083850312156166e3578182fd5b6166ed8484616030565b91506101808301356166fe81617535565b809150505b9250929050565b6000600060008385036101e0811215616721578182fd5b61672b8686616030565b935060407ffffffffffffffffffffffffffffffffffffffffffffffffffffffffffffffe808201121561675c578182fd5b506040516040810181811067ffffffffffffffff8211171561677a57fe5b806040525061018085013581526101a08501356020820152809250506101c08401356167a5816175b8565b809150505b9250925092565b6000604082840312156167c2578081fd5b6040516040810181811067ffffffffffffffff821117156167df57fe5b80604052508251815260208301516020820152809150505b92915050565b60006020828403121561680e578081fd5b81356168198161754b565b809150505b92915050565b60006000600060608486031215616839578081fd5b83516168448161754b565b8093505060208401519150604084015190505b9250925092565b60006020828403121561686f578081fd5b813561687a81617570565b809150505b92915050565b6000600060408385031215616898578182fd5b82356168a381617570565b8092505060208301356168b5816175b8565b809150505b9250929050565b6000602082840312156168d2578081fd5b813590505b92915050565b6000602082840312156168ee578081fd5b815190505b92915050565b600060006000600060808587031215616910578182fd5b8451935060208501516169228161754b565b8093505060408501519150606085015190505b92959194509250565b6000600060408385031215616951578182fd5b82519150602083015190505b9250929050565b6000600060408385031215616977578182fd5b8235915060208301356169898161759f565b809150505b9250929050565b6000602082840312156169a6578081fd5b81356169b18161759f565b809150505b92915050565b6000602082840312156169cd578081fd5b81356169d8816175b8565b809150505b92915050565b6000602082840312156169f4578081fd5b81516169ff816175b8565b809150505b92915050565b6000600060006000600060006000600060006000600060006101808d8f031215616a3257898afd5b8c516bffffffffffffffffffffffff811681141515616a4f578a8bfd5b809c5050616a5f60208e01615ff1565b9a50616a6d60408e01615ff1565b9950616a7b60608e01615ff1565b9850616a8960808e01616178565b9750616a9760a08e0161601b565b9650616aa560c08e0161601b565b9550616ab360e08e01616124565b94506101008d015193506101208d01519250616ad26101408e01616124565b9150616ae16101608e01616124565b90505b9295989b509295989b509295989b565b73ffffffffffffffffffffffffffffffffffffffff811682525b5050565b8060020b82525b5050565b616b28828251616af4565b6020810151616b3a6020840182616c05565b5060408101516040830152606081015160608301526080810151608083015260a0810151616b6b60a0840182616beb565b5060c0810151616b7e60c0840182616c2c565b5060e0810151616b9160e0840182616b12565b5061010080820151616ba582850182616b12565b505061012080820151616bba82850182616c1e565b505061014080820151616bcf82850182616af4565b505061016080820151616be482850182616c2c565b50505b5050565b6fffffffffffffffffffffffffffffffff811682525b5050565b61ffff811682525b5050565b62ffffff811682525b5050565b63ffffffff811682525b5050565b67ffffffffffffffff811682525b5050565b600060208201905073ffffffffffffffffffffffffffffffffffffffff831682525b92915050565b600060208201905073ffffffffffffffffffffffffffffffffffffffff831682525b92915050565b600060408201905073ffffffffffffffffffffffffffffffffffffffff841682528260208301525b9392505050565b600060608201905073ffffffffffffffffffffffffffffffffffffffff808616835280851660208401525062ffffff831660408301525b949350505050565b600060408201905073ffffffffffffffffffffffffffffffffffffffff841682528260208301525b9392505050565b600060608201905073ffffffffffffffffffffffffffffffffffffffff80861683528460208401528084166040840152505b949350505050565b600060208201905082151582525b92915050565b600060208201905073ffffffffffffffffffffffffffffffffffffffff831682525b92915050565b600060208201905073ffffffffffffffffffffffffffffffffffffffff831682525b92915050565b600060c08201905073ffffffffffffffffffffffffffffffffffffffff881682528660020b60208301528560020b60408301528460020b60608301526fffffffffffffffffffffffffffffffff8416608083015263ffffffff831660a08301525b979650505050505050565b600060408201905073ffffffffffffffffffffffffffffffffffffffff841682526fffffffffffffffffffffffffffffffff831660208301525b9392505050565b600060408201905073ffffffffffffffffffffffffffffffffffffffff8416825263ffffffff831660208301525b9392505050565b600060408201905073ffffffffffffffffffffffffffffffffffffffff8416825267ffffffffffffffff831660208301525b9392505050565b60006060820190508460020b82528360020b60208301526fffffffffffffffffffffffffffffffff831660408301525b949350505050565b600060208252601660208301527f4c6971756964697479206e6f7420696e2072616e67650000000000000000000060408301526060820190505b919050565b600060208252601c60208301527f4d617820706572696f642077697468647261772065786365656465640000000060408301526060820190505b919050565b600060208252601260208301527f416c72656164792072656769737465726564000000000000000000000000000060408301526060820190505b919050565b600060208252601460208301527f496e63656e7469766520746f74616c206973203000000000000000000000000060408301526060820190505b919050565b600060208252601260208301527f506f736974696f6e20746f6f20736d616c6c000000000000000000000000000060408301526060820190505b919050565b600060208252600b60208301527f506f6f6c2065786973747300000000000000000000000000000000000000000060408301526060820190505b919050565b600060208252600e60208301527f496e76616c696420706f6f6c494400000000000000000000000000000000000060408301526060820190505b919050565b600060208252601260208301527f4e6f20666c617368206c6971756964697479000000000000000000000000000060408301526060820190505b919050565b600060208252600760208301527f496e76616c69640000000000000000000000000000000000000000000000000060408301526060820190505b919050565b60006080820190508251825273ffffffffffffffffffffffffffffffffffffffff602084015116602083015260408301516fffffffffffffffffffffffffffffffff808216604085015280606086015116606085015250505b92915050565b600060a082019050825182526fffffffffffffffffffffffffffffffff60208401511660208301526040830151604083015260608301516060830152608083015160808301525b92915050565b600060c082019050823582526020830135602083015260408301356040830152606083013560608301526080830135608083015260a083013560a08301525b92915050565b600061016082019050617258828451616af4565b602083015161726a6020840182616af4565b50604083015161727d6040840182616c11565b5060608301516172906060840182616b12565b5060808301516172a36080840182616b12565b5060a083015160a083015260c083015160c083015260e083015160e0830152610100808401518184015250610120808401516172e182850182616af4565b50506101408084015181840152505b92915050565b60006101a0820190506173098285616b1d565b826101808301525b9392505050565b60006020820190506fffffffffffffffffffffffffffffffff831682525b92915050565b600060208201905061ffff831682525b92915050565b600060608201905061ffff8416825282516020830152602083015160408301525b9392505050565b60006020820190508282525b92915050565b600060408201905083825273ffffffffffffffffffffffffffffffffffffffff831660208301525b9392505050565b60006101a0820190508382526173d46020830184616b1d565b5b9392505050565b60006040820190508382526fffffffffffffffffffffffffffffffff831660208301525b9392505050565b60006040820190508382528260208301525b9392505050565b600060408201905083825267ffffffffffffffff831660208301525b9392505050565b600060208201905063ffffffff831682525b92915050565b600060208201905063ffffffff831682525b92915050565b600060208201905067ffffffffffffffff831682525b92915050565b600060408201905067ffffffffffffffff8416825277ffffffffffffffffffffffffffffffffffffffffffffffff831660208301525b9392505050565b6000604051905081810181811067ffffffffffffffff821117156174ec57fe5b80604052505b919050565b73ffffffffffffffffffffffffffffffffffffffff81168114151561751c5760006000fd5b5b50565b801515811415156175315760006000fd5b5b50565b8060020b811415156175475760006000fd5b5b50565b6fffffffffffffffffffffffffffffffff81168114151561756c5760006000fd5b5b50565b61ffff8116811415156175835760006000fd5b5b50565b62ffffff81168114151561759b5760006000fd5b5b50565b63ffffffff8116811415156175b45760006000fd5b5b50565b67ffffffffffffffff8116811415156175d15760006000fd5b5b50565bfea26469706673582212200e47b968480f18a4ac1882a8cf495de9921a08006dfb5f09e8058193ad28f2bb64736f6c63430007060033",
  "linkReferences": {},
  "deployedLinkReferences": {}
}