{
  "_format": "hh-sol-artifact-1",
  "contractName": "RewardsTestable",
  "sourceName": "contracts/mocks/RewardsTestable.sol",
  "abi": [
    {
      "inputs": [
        {
          "components": [
            {
              "internalType": "contract IGovernor",
              "name": "Governor",
              "type": "address"
            },
            {
              "internalType": "contract IProtocolLock",
              "name": "ProtocolLock",
              "type": "address"
            },
            {
              "internalType": "contract IAccounting",
              "name": "Accounting",
              "type": "address"
            },
            {
              "internalType": "address",
              "name": "Weth",
              "type": "address"
            },
            {
              "internalType": "contract INonfungiblePositionManager",
              "name": "NftPositionManager",
              "type": "address"
            },
            {
              "internalType": "contract IUniswapV3Factory",
              "name": "UniswapV3Factory",
              "type": "address"
            }
          ],
          "internalType": "struct IRewards.ConstructorParams",
          "name": "params",
          "type": "tuple"
        }
      ],
      "stateMutability": "nonpayable",
      "type": "constructor"
    },
    {
      "anonymous": false,
      "inputs": [
        {
          "indexed": false,
          "internalType": "uint64",
          "name": "penalty",
          "type": "uint64"
        }
      ],
      "name": "LiquidationPenaltyUpdated",
      "type": "event"
    },
    {
      "anonymous": false,
      "inputs": [
        {
          "indexed": true,
          "internalType": "address",
          "name": "owner",
          "type": "address"
        },
        {
          "indexed": true,
          "internalType": "uint16",
          "name": "poolID",
          "type": "uint16"
        },
        {
          "indexed": true,
          "internalType": "uint256",
          "name": "nftID",
          "type": "uint256"
        },
        {
          "indexed": false,
          "internalType": "int24",
          "name": "tickLower",
          "type": "int24"
        },
        {
          "indexed": false,
          "internalType": "int24",
          "name": "tickUpper",
          "type": "int24"
        },
        {
          "indexed": false,
          "internalType": "uint128",
          "name": "liquidity",
          "type": "uint128"
        }
      ],
      "name": "LiquidityPositionCreated",
      "type": "event"
    },
    {
      "anonymous": false,
      "inputs": [
        {
          "indexed": true,
          "internalType": "uint256",
          "name": "nftID",
          "type": "uint256"
        },
        {
          "indexed": false,
          "internalType": "uint256",
          "name": "amount0",
          "type": "uint256"
        },
        {
          "indexed": false,
          "internalType": "uint256",
          "name": "amount1",
          "type": "uint256"
        }
      ],
      "name": "LiquidityPositionDecreased",
      "type": "event"
    },
    {
      "anonymous": false,
      "inputs": [
        {
          "indexed": true,
          "internalType": "uint256",
          "name": "nftID",
          "type": "uint256"
        },
        {
          "indexed": false,
          "internalType": "uint128",
          "name": "liquidity",
          "type": "uint128"
        }
      ],
      "name": "LiquidityPositionIncreased",
      "type": "event"
    },
    {
      "anonymous": false,
      "inputs": [
        {
          "indexed": true,
          "internalType": "uint256",
          "name": "nftID",
          "type": "uint256"
        },
        {
          "indexed": true,
          "internalType": "address",
          "name": "liquidator",
          "type": "address"
        }
      ],
      "name": "LiquidityPositionLiquidated",
      "type": "event"
    },
    {
      "anonymous": false,
      "inputs": [
        {
          "indexed": true,
          "internalType": "uint256",
          "name": "nftID",
          "type": "uint256"
        },
        {
          "indexed": false,
          "internalType": "uint256",
          "name": "amount0",
          "type": "uint256"
        },
        {
          "indexed": false,
          "internalType": "uint256",
          "name": "amount1",
          "type": "uint256"
        }
      ],
      "name": "LiquidityPositionRemoved",
      "type": "event"
    },
    {
      "anonymous": false,
      "inputs": [
        {
          "indexed": false,
          "internalType": "uint64",
          "name": "decreasePortion",
          "type": "uint64"
        }
      ],
      "name": "MaxCollateralLiquidityDecreasePerPeriodUpdated",
      "type": "event"
    },
    {
      "anonymous": false,
      "inputs": [
        {
          "indexed": false,
          "internalType": "uint128",
          "name": "min",
          "type": "uint128"
        }
      ],
      "name": "MinHueCountPerPositionUpdated",
      "type": "event"
    },
    {
      "anonymous": false,
      "inputs": [
        {
          "indexed": true,
          "internalType": "address",
          "name": "pool",
          "type": "address"
        },
        {
          "indexed": true,
          "internalType": "uint16",
          "name": "poolID",
          "type": "uint16"
        },
        {
          "indexed": false,
          "internalType": "uint64",
          "name": "rewardsPortion",
          "type": "uint64"
        }
      ],
      "name": "PoolAdded",
      "type": "event"
    },
    {
      "anonymous": false,
      "inputs": [
        {
          "indexed": true,
          "internalType": "uint16",
          "name": "poolID",
          "type": "uint16"
        },
        {
          "indexed": false,
          "internalType": "uint64",
          "name": "incentive",
          "type": "uint64"
        }
      ],
      "name": "PoolIncentiveUpdated",
      "type": "event"
    },
    {
      "anonymous": false,
      "inputs": [
        {
          "indexed": false,
          "internalType": "uint256",
          "name": "count",
          "type": "uint256"
        },
        {
          "indexed": false,
          "internalType": "uint64",
          "name": "periods",
          "type": "uint64"
        }
      ],
      "name": "RewardsAccrued",
      "type": "event"
    },
    {
      "anonymous": false,
      "inputs": [
        {
          "indexed": true,
          "internalType": "address",
          "name": "caller",
          "type": "address"
        },
        {
          "indexed": true,
          "internalType": "uint256",
          "name": "nftTokenID",
          "type": "uint256"
        },
        {
          "indexed": false,
          "internalType": "uint256",
          "name": "amount0",
          "type": "uint256"
        },
        {
          "indexed": false,
          "internalType": "uint256",
          "name": "amount1",
          "type": "uint256"
        }
      ],
      "name": "RewardsClaimed",
      "type": "event"
    },
    {
      "anonymous": false,
      "inputs": [
        {
          "indexed": true,
          "internalType": "address",
          "name": "account",
          "type": "address"
        },
        {
          "indexed": true,
          "internalType": "bool",
          "name": "isKickback",
          "type": "bool"
        },
        {
          "indexed": false,
          "internalType": "uint256",
          "name": "tcpRewards",
          "type": "uint256"
        }
      ],
      "name": "RewardsDistributed",
      "type": "event"
    },
    {
      "anonymous": false,
      "inputs": [],
      "name": "Stopped",
      "type": "event"
    },
    {
      "anonymous": false,
      "inputs": [
        {
          "indexed": false,
          "internalType": "uint64",
          "name": "duration",
          "type": "uint64"
        }
      ],
      "name": "TwapDurationUpdated",
      "type": "event"
    },
    {
      "inputs": [],
      "name": "accounting",
      "outputs": [
        {
          "internalType": "contract IAccounting",
          "name": "",
          "type": "address"
        }
      ],
      "stateMutability": "view",
      "type": "function"
    },
    {
      "inputs": [],
      "name": "accrueRewards",
      "outputs": [],
      "stateMutability": "nonpayable",
      "type": "function"
    },
    {
      "inputs": [
        {
          "internalType": "contract IUniswapV3Pool",
          "name": "pool",
          "type": "address"
        },
        {
          "internalType": "uint64",
          "name": "rewardsPortion",
          "type": "uint64"
        }
      ],
      "name": "addIncentivePool",
      "outputs": [],
      "stateMutability": "nonpayable",
      "type": "function"
    },
    {
      "inputs": [
        {
          "components": [
            {
              "internalType": "address",
              "name": "owner",
              "type": "address"
            },
            {
              "internalType": "uint16",
              "name": "poolID",
              "type": "uint16"
            },
            {
              "internalType": "uint256",
              "name": "cumulativeLiquidity",
              "type": "uint256"
            },
            {
              "internalType": "uint256",
              "name": "totalRewards",
              "type": "uint256"
            },
            {
              "internalType": "uint256",
              "name": "lastBlockPositionIncreased",
              "type": "uint256"
            },
            {
              "internalType": "uint128",
              "name": "liquidity",
              "type": "uint128"
            },
            {
              "internalType": "uint64",
              "name": "lastTimeRewarded",
              "type": "uint64"
            },
            {
              "internalType": "int24",
              "name": "tickLower",
              "type": "int24"
            },
            {
              "internalType": "int24",
              "name": "tickUpper",
              "type": "int24"
            },
            {
              "internalType": "uint32",
              "name": "ui",
              "type": "uint32"
            },
            {
              "internalType": "address",
              "name": "kickbackDestination",
              "type": "address"
            },
            {
              "internalType": "uint64",
              "name": "kickbackPortion",
              "type": "uint64"
            }
          ],
          "internalType": "struct IAccounting.PoolPosition",
          "name": "_pt",
          "type": "tuple"
        },
        {
          "components": [
            {
              "internalType": "uint256",
              "name": "totalRewards",
              "type": "uint256"
            },
            {
              "internalType": "uint256",
              "name": "cumulativeLiquidity",
              "type": "uint256"
            }
          ],
          "internalType": "struct IAccounting.RewardStatus",
          "name": "rs",
          "type": "tuple"
        },
        {
          "internalType": "uint64",
          "name": "timeNow",
          "type": "uint64"
        }
      ],
      "name": "calculateUpdatedLiquidityPosition",
      "outputs": [
        {
          "components": [
            {
              "internalType": "address",
              "name": "owner",
              "type": "address"
            },
            {
              "internalType": "uint16",
              "name": "poolID",
              "type": "uint16"
            },
            {
              "internalType": "uint256",
              "name": "cumulativeLiquidity",
              "type": "uint256"
            },
            {
              "internalType": "uint256",
              "name": "totalRewards",
              "type": "uint256"
            },
            {
              "internalType": "uint256",
              "name": "lastBlockPositionIncreased",
              "type": "uint256"
            },
            {
              "internalType": "uint128",
              "name": "liquidity",
              "type": "uint128"
            },
            {
              "internalType": "uint64",
              "name": "lastTimeRewarded",
              "type": "uint64"
            },
            {
              "internalType": "int24",
              "name": "tickLower",
              "type": "int24"
            },
            {
              "internalType": "int24",
              "name": "tickUpper",
              "type": "int24"
            },
            {
              "internalType": "uint32",
              "name": "ui",
              "type": "uint32"
            },
            {
              "internalType": "address",
              "name": "kickbackDestination",
              "type": "address"
            },
            {
              "internalType": "uint64",
              "name": "kickbackPortion",
              "type": "uint64"
            }
          ],
          "internalType": "struct IAccounting.PoolPosition",
          "name": "pt",
          "type": "tuple"
        },
        {
          "internalType": "uint256",
          "name": "rewards",
          "type": "uint256"
        }
      ],
      "stateMutability": "pure",
      "type": "function"
    },
    {
      "inputs": [
        {
          "internalType": "uint256",
          "name": "nftTokenID",
          "type": "uint256"
        },
        {
          "internalType": "uint32",
          "name": "ui",
          "type": "uint32"
        }
      ],
      "name": "claimRewards",
      "outputs": [
        {
          "internalType": "uint256",
          "name": "amount0",
          "type": "uint256"
        },
        {
          "internalType": "uint256",
          "name": "amount1",
          "type": "uint256"
        }
      ],
      "stateMutability": "nonpayable",
      "type": "function"
    },
    {
      "inputs": [],
      "name": "countPools",
      "outputs": [
        {
          "internalType": "uint16",
          "name": "",
          "type": "uint16"
        }
      ],
      "stateMutability": "view",
      "type": "function"
    },
    {
      "inputs": [
        {
          "components": [
            {
              "internalType": "address",
              "name": "token0",
              "type": "address"
            },
            {
              "internalType": "address",
              "name": "token1",
              "type": "address"
            },
            {
              "internalType": "uint24",
              "name": "fee",
              "type": "uint24"
            },
            {
              "internalType": "int24",
              "name": "tickLower",
              "type": "int24"
            },
            {
              "internalType": "int24",
              "name": "tickUpper",
              "type": "int24"
            },
            {
              "internalType": "uint256",
              "name": "amount0Desired",
              "type": "uint256"
            },
            {
              "internalType": "uint256",
              "name": "amount1Desired",
              "type": "uint256"
            },
            {
              "internalType": "uint256",
              "name": "amount0Min",
              "type": "uint256"
            },
            {
              "internalType": "uint256",
              "name": "amount1Min",
              "type": "uint256"
            },
            {
              "internalType": "address",
              "name": "recipient",
              "type": "address"
            },
            {
              "internalType": "uint256",
              "name": "deadline",
              "type": "uint256"
            }
          ],
          "internalType": "struct INonfungiblePositionManager.MintParams",
          "name": "params",
          "type": "tuple"
        },
        {
          "internalType": "uint32",
          "name": "ui",
          "type": "uint32"
        }
      ],
      "name": "createLiquidityPosition",
      "outputs": [
        {
          "internalType": "uint256",
          "name": "nftTokenID",
          "type": "uint256"
        },
        {
          "internalType": "uint128",
          "name": "liquidity",
          "type": "uint128"
        }
      ],
      "stateMutability": "payable",
      "type": "function"
    },
    {
      "inputs": [],
      "name": "currentPeriod",
      "outputs": [
        {
          "internalType": "uint64",
          "name": "period",
          "type": "uint64"
        }
      ],
      "stateMutability": "view",
      "type": "function"
    },
    {
      "inputs": [
        {
          "components": [
            {
              "internalType": "uint256",
              "name": "tokenId",
              "type": "uint256"
            },
            {
              "internalType": "uint128",
              "name": "liquidity",
              "type": "uint128"
            },
            {
              "internalType": "uint256",
              "name": "amount0Min",
              "type": "uint256"
            },
            {
              "internalType": "uint256",
              "name": "amount1Min",
              "type": "uint256"
            },
            {
              "internalType": "uint256",
              "name": "deadline",
              "type": "uint256"
            }
          ],
          "internalType": "struct INonfungiblePositionManager.DecreaseLiquidityParams",
          "name": "params",
          "type": "tuple"
        },
        {
          "internalType": "uint32",
          "name": "ui",
          "type": "uint32"
        }
      ],
      "name": "decreaseLiquidityPosition",
      "outputs": [
        {
          "internalType": "uint256",
          "name": "amount0",
          "type": "uint256"
        },
        {
          "internalType": "uint256",
          "name": "amount1",
          "type": "uint256"
        }
      ],
      "stateMutability": "nonpayable",
      "type": "function"
    },
    {
      "inputs": [],
      "name": "deployer",
      "outputs": [
        {
          "internalType": "address",
          "name": "",
          "type": "address"
        }
      ],
      "stateMutability": "view",
      "type": "function"
    },
    {
      "inputs": [],
      "name": "firstPeriod",
      "outputs": [
        {
          "internalType": "uint64",
          "name": "",
          "type": "uint64"
        }
      ],
      "stateMutability": "view",
      "type": "function"
    },
    {
      "inputs": [],
      "name": "governor",
      "outputs": [
        {
          "internalType": "contract IGovernor",
          "name": "",
          "type": "address"
        }
      ],
      "stateMutability": "view",
      "type": "function"
    },
    {
      "inputs": [
        {
          "components": [
            {
              "internalType": "uint256",
              "name": "tokenId",
              "type": "uint256"
            },
            {
              "internalType": "uint256",
              "name": "amount0Desired",
              "type": "uint256"
            },
            {
              "internalType": "uint256",
              "name": "amount1Desired",
              "type": "uint256"
            },
            {
              "internalType": "uint256",
              "name": "amount0Min",
              "type": "uint256"
            },
            {
              "internalType": "uint256",
              "name": "amount1Min",
              "type": "uint256"
            },
            {
              "internalType": "uint256",
              "name": "deadline",
              "type": "uint256"
            }
          ],
          "internalType": "struct INonfungiblePositionManager.IncreaseLiquidityParams",
          "name": "params",
          "type": "tuple"
        },
        {
          "internalType": "uint32",
          "name": "ui",
          "type": "uint32"
        }
      ],
      "name": "increaseLiquidityPosition",
      "outputs": [
        {
          "internalType": "uint128",
          "name": "liquidity",
          "type": "uint128"
        }
      ],
      "stateMutability": "payable",
      "type": "function"
    },
    {
      "inputs": [
        {
          "internalType": "contract IUniswapV3Pool",
          "name": "_collateralPool",
          "type": "address"
        },
        {
          "internalType": "contract IUniswapV3Pool",
          "name": "_protocolPool",
          "type": "address"
        }
      ],
      "name": "init",
      "outputs": [],
      "stateMutability": "nonpayable",
      "type": "function"
    },
    {
      "inputs": [
        {
          "components": [
            {
              "internalType": "address",
              "name": "owner",
              "type": "address"
            },
            {
              "internalType": "uint16",
              "name": "poolID",
              "type": "uint16"
            },
            {
              "internalType": "uint256",
              "name": "cumulativeLiquidity",
              "type": "uint256"
            },
            {
              "internalType": "uint256",
              "name": "totalRewards",
              "type": "uint256"
            },
            {
              "internalType": "uint256",
              "name": "lastBlockPositionIncreased",
              "type": "uint256"
            },
            {
              "internalType": "uint128",
              "name": "liquidity",
              "type": "uint128"
            },
            {
              "internalType": "uint64",
              "name": "lastTimeRewarded",
              "type": "uint64"
            },
            {
              "internalType": "int24",
              "name": "tickLower",
              "type": "int24"
            },
            {
              "internalType": "int24",
              "name": "tickUpper",
              "type": "int24"
            },
            {
              "internalType": "uint32",
              "name": "ui",
              "type": "uint32"
            },
            {
              "internalType": "address",
              "name": "kickbackDestination",
              "type": "address"
            },
            {
              "internalType": "uint64",
              "name": "kickbackPortion",
              "type": "uint64"
            }
          ],
          "internalType": "struct IAccounting.PoolPosition",
          "name": "position",
          "type": "tuple"
        },
        {
          "internalType": "int24",
          "name": "tick",
          "type": "int24"
        }
      ],
      "name": "isLiquidityInRange",
      "outputs": [
        {
          "internalType": "bool",
          "name": "",
          "type": "bool"
        }
      ],
      "stateMutability": "pure",
      "type": "function"
    },
    {
      "inputs": [],
      "name": "lastPeriodGlobalRewardsAccrued",
      "outputs": [
        {
          "internalType": "uint64",
          "name": "",
          "type": "uint64"
        }
      ],
      "stateMutability": "view",
      "type": "function"
    },
    {
      "inputs": [
        {
          "internalType": "contract IUniswapV3Pool",
          "name": "pool",
          "type": "address"
        },
        {
          "internalType": "uint256[]",
          "name": "nftTokenIDs",
          "type": "uint256[]"
        }
      ],
      "name": "liquidateOutofRangePositions",
      "outputs": [],
      "stateMutability": "nonpayable",
      "type": "function"
    },
    {
      "inputs": [],
      "name": "liquidationPenalty",
      "outputs": [
        {
          "internalType": "uint64",
          "name": "",
          "type": "uint64"
        }
      ],
      "stateMutability": "view",
      "type": "function"
    },
    {
      "inputs": [],
      "name": "maxCollateralLiquidityDecreasePerPeriod",
      "outputs": [
        {
          "internalType": "uint64",
          "name": "",
          "type": "uint64"
        }
      ],
      "stateMutability": "view",
      "type": "function"
    },
    {
      "inputs": [
        {
          "internalType": "contract IUniswapV3Pool",
          "name": "",
          "type": "address"
        }
      ],
      "name": "minCollateralLiquidityByPeriod",
      "outputs": [
        {
          "internalType": "uint64",
          "name": "period",
          "type": "uint64"
        },
        {
          "internalType": "uint192",
          "name": "minLiquidity",
          "type": "uint192"
        }
      ],
      "stateMutability": "view",
      "type": "function"
    },
    {
      "inputs": [],
      "name": "minHueCountPerPosition",
      "outputs": [
        {
          "internalType": "uint128",
          "name": "",
          "type": "uint128"
        }
      ],
      "stateMutability": "view",
      "type": "function"
    },
    {
      "inputs": [],
      "name": "nftPositionManager",
      "outputs": [
        {
          "internalType": "contract INonfungiblePositionManager",
          "name": "",
          "type": "address"
        }
      ],
      "stateMutability": "view",
      "type": "function"
    },
    {
      "inputs": [],
      "name": "periodLength",
      "outputs": [
        {
          "internalType": "uint64",
          "name": "",
          "type": "uint64"
        }
      ],
      "stateMutability": "view",
      "type": "function"
    },
    {
      "inputs": [
        {
          "internalType": "uint16",
          "name": "",
          "type": "uint16"
        }
      ],
      "name": "poolConfigForPoolID",
      "outputs": [
        {
          "internalType": "contract IUniswapV3Pool",
          "name": "pool",
          "type": "address"
        },
        {
          "internalType": "uint64",
          "name": "rewardsPortion",
          "type": "uint64"
        }
      ],
      "stateMutability": "view",
      "type": "function"
    },
    {
      "inputs": [
        {
          "internalType": "contract IUniswapV3Pool",
          "name": "",
          "type": "address"
        }
      ],
      "name": "poolIDForPool",
      "outputs": [
        {
          "internalType": "uint16",
          "name": "",
          "type": "uint16"
        }
      ],
      "stateMutability": "view",
      "type": "function"
    },
    {
      "inputs": [
        {
          "internalType": "uint256",
          "name": "nftTokenID",
          "type": "uint256"
        }
      ],
      "name": "removeKickback",
      "outputs": [],
      "stateMutability": "nonpayable",
      "type": "function"
    },
    {
      "inputs": [
        {
          "components": [
            {
              "internalType": "uint256",
              "name": "tokenId",
              "type": "uint256"
            },
            {
              "internalType": "uint128",
              "name": "liquidity",
              "type": "uint128"
            },
            {
              "internalType": "uint256",
              "name": "amount0Min",
              "type": "uint256"
            },
            {
              "internalType": "uint256",
              "name": "amount1Min",
              "type": "uint256"
            },
            {
              "internalType": "uint256",
              "name": "deadline",
              "type": "uint256"
            }
          ],
          "internalType": "struct INonfungiblePositionManager.DecreaseLiquidityParams",
          "name": "params",
          "type": "tuple"
        }
      ],
      "name": "removeLiquidityPosition",
      "outputs": [
        {
          "internalType": "uint256",
          "name": "amount0",
          "type": "uint256"
        },
        {
          "internalType": "uint256",
          "name": "amount1",
          "type": "uint256"
        }
      ],
      "stateMutability": "nonpayable",
      "type": "function"
    },
    {
      "inputs": [
        {
          "internalType": "bool",
          "name": "authorized",
          "type": "bool"
        }
      ],
      "name": "requireAuthorized",
      "outputs": [],
      "stateMutability": "pure",
      "type": "function"
    },
    {
      "inputs": [
        {
          "internalType": "uint64",
          "name": "penalty",
          "type": "uint64"
        }
      ],
      "name": "setLiquidationPenalty",
      "outputs": [],
      "stateMutability": "nonpayable",
      "type": "function"
    },
    {
      "inputs": [
        {
          "internalType": "uint64",
          "name": "decreasePortion",
          "type": "uint64"
        }
      ],
      "name": "setMaxCollateralLiquidityDecreasePerPeriod",
      "outputs": [],
      "stateMutability": "nonpayable",
      "type": "function"
    },
    {
      "inputs": [
        {
          "internalType": "uint128",
          "name": "min",
          "type": "uint128"
        }
      ],
      "name": "setMinHueCountPerPosition",
      "outputs": [],
      "stateMutability": "nonpayable",
      "type": "function"
    },
    {
      "inputs": [
        {
          "internalType": "uint32",
          "name": "duration",
          "type": "uint32"
        }
      ],
      "name": "setTwapDuration",
      "outputs": [],
      "stateMutability": "nonpayable",
      "type": "function"
    },
    {
      "inputs": [],
      "name": "stop",
      "outputs": [],
      "stateMutability": "nonpayable",
      "type": "function"
    },
    {
      "inputs": [],
      "name": "stopped",
      "outputs": [
        {
          "internalType": "bool",
          "name": "",
          "type": "bool"
        }
      ],
      "stateMutability": "view",
      "type": "function"
    },
    {
      "inputs": [],
      "name": "twapDuration",
      "outputs": [
        {
          "internalType": "uint32",
          "name": "",
          "type": "uint32"
        }
      ],
      "stateMutability": "view",
      "type": "function"
    },
    {
      "inputs": [],
      "name": "uniswapV3Factory",
      "outputs": [
        {
          "internalType": "contract IUniswapV3Factory",
          "name": "",
          "type": "address"
        }
      ],
      "stateMutability": "view",
      "type": "function"
    },
    {
      "inputs": [
        {
          "internalType": "uint16",
          "name": "poolID",
          "type": "uint16"
        },
        {
          "internalType": "uint64",
          "name": "incentive",
          "type": "uint64"
        }
      ],
      "name": "updatePoolIncentive",
      "outputs": [],
      "stateMutability": "nonpayable",
      "type": "function"
    },
    {
      "inputs": [
        {
          "internalType": "bytes4",
          "name": "",
          "type": "bytes4"
        }
      ],
      "name": "validUpdate",
      "outputs": [
        {
          "internalType": "bool",
          "name": "",
          "type": "bool"
        }
      ],
      "stateMutability": "view",
      "type": "function"
    },
    {
      "inputs": [],
      "name": "weth",
      "outputs": [
        {
          "internalType": "address",
          "name": "",
          "type": "address"
        }
      ],
      "stateMutability": "view",
      "type": "function"
    },
    {
      "stateMutability": "payable",
      "type": "receive"
    }
  ],
  "bytecode": "0x6101806040526001600260005090905567016345785d8a0000600360006101000a81548167ffffffffffffffff021916908367ffffffffffffffff16021790555066d529ae9e860000600360086101000a81548167ffffffffffffffff021916908367ffffffffffffffff160217905550686c6b935b8bbd400000600360106101000a8154816fffffffffffffffffffffffffffffffff02191690836fffffffffffffffffffffffffffffffff160217905550610708600460006101000a81548163ffffffff021916908363ffffffff1602179055506000600460046101000a81548161ffff021916908361ffff160217905550348015620001015760006000fd5b5060405162008135380380620081358339818101604052810190620001279190620006bb565b5b805b6138405b816000015182602001515b815b8073ffffffffffffffffffffffffffffffffffffffff1660808173ffffffffffffffffffffffffffffffffffffffff1660601b815260140150505b508073ffffffffffffffffffffffffffffffffffffffff1660a08173ffffffffffffffffffffffffffffffffffffffff1660601b815260140150505b505060018167ffffffffffffffff16620001d1620005e960201b60201c565b67ffffffffffffffff16811515620001e557fe5b040367ffffffffffffffff1660e08167ffffffffffffffff1660c01b815260080150508067ffffffffffffffff1660c08167ffffffffffffffff1660c01b815260080150505b50806040015173ffffffffffffffffffffffffffffffffffffffff166101608173ffffffffffffffffffffffffffffffffffffffff1660601b81526014015050806060015173ffffffffffffffffffffffffffffffffffffffff166101008173ffffffffffffffffffffffffffffffffffffffff1660601b81526014015050806080015173ffffffffffffffffffffffffffffffffffffffff166101208173ffffffffffffffffffffffffffffffffffffffff1660601b815260140150508060a0015173ffffffffffffffffffffffffffffffffffffffff166101408173ffffffffffffffffffffffffffffffffffffffff1660601b8152601401505060006040518060c00160405280636161189060e01b7bffffffffffffffffffffffffffffffffffffffffffffffffffffffff19167bffffffffffffffffffffffffffffffffffffffffffffffffffffffff191681526020016328d10de860e01b7bffffffffffffffffffffffffffffffffffffffffffffffffffffffff19167bffffffffffffffffffffffffffffffffffffffffffffffffffffffff1916815260200163c7bd867c60e01b7bffffffffffffffffffffffffffffffffffffffffffffffffffffffff19167bffffffffffffffffffffffffffffffffffffffffffffffffffffffff1916815260200163de8925f560e01b7bffffffffffffffffffffffffffffffffffffffffffffffffffffffff19167bffffffffffffffffffffffffffffffffffffffffffffffffffffffff1916815260200163c433c80a60e01b7bffffffffffffffffffffffffffffffffffffffffffffffffffffffff19167bffffffffffffffffffffffffffffffffffffffffffffffffffffffff19168152602001630907653160e01b7bffffffffffffffffffffffffffffffffffffffffffffffffffffffff19167bffffffffffffffffffffffffffffffffffffffffffffffffffffffff191681526020015090506000600090505b815060068110156200059c5760016001600050600084846006811015156200052557fe5b60200201517bffffffffffffffffffffffffffffffffffffffffffffffffffffffff19167bffffffffffffffffffffffffffffffffffffffffffffffffffffffff1916815260200190815260200160002060006101000a81548160ff0219169083151502179055505b808060010191505062000501565b5033600860086101000a81548173ffffffffffffffffffffffffffffffffffffffff021916908373ffffffffffffffffffffffffffffffffffffffff160217905550505b505b5062000790565b600062000603426200060b60201b62001f3117909060201c565b905080505b90565b6000680100000000000000008210151562000691576040517f08c379a00000000000000000000000000000000000000000000000000000000081526004018080602001828103825260118152602001807f6d6f7265207468616e203634206269747300000000000000000000000000000081526020015060200191505060405180910390fd5b8190506200069a565b919050566200078f565b600081519050620006b58162000772565b5b919050565b600060c08284031215620006cd578081fd5b60405160c081018181106001600160401b0382111715620006ea57fe5b80604052508251620006fc8162000772565b808252506020830151620007108162000772565b806020830152506040830151620007278162000772565b806040830152506200073c60608401620006a4565b60608201526200074f60808401620006a4565b60808201526200076260a08401620006a4565b60a0820152809150505b92915050565b6001600160a01b038116811415156200078b5760006000fd5b5b50565b5b60805160601c60a05160601c60c05160c01c60e05160c01c6101005160601c6101205160601c6101405160601c6101605160601c6178306200090560003980610b8c528061148b52806117fd5280611a0652806124b05280612c9a52806130055280613410528061354252806139db5280613ad15280614352528061446e528061455d5280614b4f5280614bfc5280614c7152806153b5525080611153528061166d5250806102ac52806119cf528061280152806129385280612af05280612d27528061346c528061373e5280613824528061485a52806148ee5280614efd528061556b525080610301528061152f52806148065280614ddf5280614e3f528061591c5280615970525080611ac75280612e4e52806146fa525080611bc65280612e6f528061471b525080611fc55280612dc7525080610f5152806120e6528061227852806125f852806126fc5280612ec852806131ff5280613c4a528061425e528061460c52806150f652506178306000f3fe6080604052600436106102a45760003560e01c8063616118901161016e578063c433c80a116100cb578063de8925f51161007f578063f4d8977f11610064578063f4d8977f146109e3578063fbc3a64314610a22578063fbff7efd14610a4e5761035e565b8063de8925f51461098f578063f09a4016146109b95761035e565b8063c7bd867c116100b0578063c7bd867c1461090d578063d2ca211514610937578063d5f39488146109635761035e565b8063c433c80a146108b7578063c4e3a63b146108e15761035e565b806381cc8807116101225780638efaed89116101075780638efaed89146108355780639624e83e1461085f578063bdd266cd1461088b5761035e565b806381cc8807146107ca57806384397888146108095761035e565b80636fcdfed6116101535780636fcdfed61461073357806375f12b211461075f5780637af36e3f1461078b5761035e565b806361611890146106ca57806361928ecf146106f45761035e565b806323f5589a1161021c5780633fc8cef3116101d05780634b829573116101b55780634b8295731461063057806350b404001461066e5780635b5491821461069e5761035e565b80633fc8cef3146105c65780634b257c24146105f25761035e565b806326d895451161020157806326d895451461054657806328d10de8146105725780633e9483721461059c5761035e565b806323f5589a146104e9578063265e8a64146105155761035e565b80630c340a2411610273578063113cf1ab11610258578063113cf1ab1461045457806315398ae7146104925780631afdbce4146104d15761035e565b80630c340a24146103fc5780630dae9f52146104285761035e565b8063039d10e814610364578063060406181461038e57806307da68f5146103ba57806309076531146103d25761035e565b3661035e575b7f000000000000000000000000000000000000000000000000000000000000000073ffffffffffffffffffffffffffffffffffffffff163373ffffffffffffffffffffffffffffffffffffffff16148061034f57507f000000000000000000000000000000000000000000000000000000000000000073ffffffffffffffffffffffffffffffffffffffff163373ffffffffffffffffffffffffffffffffffffffff16145b151561035b5760006000fd5b5b005b60006000fd5b3480156103715760006000fd5b5061038c6004803603810190610387919061649d565b610a8d565b005b34801561039b5760006000fd5b506103a4610e83565b6040516103b19190617697565b60405180910390f35b3480156103c75760006000fd5b506103d0610e9b565b005b3480156103df5760006000fd5b506103fa60048036038101906103f59190616b68565b610ebb565b005b3480156104095760006000fd5b50610412610f4f565b60405161041f9190616f4d565b60405180910390f35b3480156104355760006000fd5b5061043e610f73565b60405161044b9190617697565b60405180910390f35b3480156104615760006000fd5b5061047c60048036038101906104779190616402565b610f8d565b6040516104899190616f11565b60405180910390f35b34801561049f5760006000fd5b506104ba60048036038101906104b59190616604565b610fb2565b6040516104c892919061762b565b60405180910390f35b3480156104de5760006000fd5b506104e76110d1565b005b3480156104f65760006000fd5b506104ff61110e565b60405161050c9190617697565b60405180910390f35b61052f600480360381019061052a91906166b8565b611128565b60405161053d929190617600565b60405180910390f35b3480156105535760006000fd5b5061055c61131d565b6040516105699190617667565b60405180910390f35b34801561057f5760006000fd5b5061059a60048036038101906105959190616a31565b611333565b005b3480156105a95760006000fd5b506105c460048036038101906105bf9190616a6d565b61143d565b005b3480156105d35760006000fd5b506105dc61152d565b6040516105e99190616dea565b60405180910390f35b3480156105ff5760006000fd5b5061061a6004803603810190610615919061687b565b611551565b6040516106279190616f11565b60405180910390f35b34801561063d5760006000fd5b5061065860048036038101906106539190616476565b611570565b6040516106659190617560565b60405180910390f35b61068860048036038101906106839190616679565b611596565b604051610695919061753c565b60405180910390f35b3480156106ab5760006000fd5b506106b461166b565b6040516106c19190616f9d565b60405180910390f35b3480156106d75760006000fd5b506106f260048036038101906106ed9190616562565b61168f565b005b3480156107015760006000fd5b5061071c60048036038101906107179190616b10565b6117ac565b60405161072a92919061762b565b60405180910390f35b3480156107405760006000fd5b5061074961191b565b6040516107569190617560565b60405180910390f35b34801561076c5760006000fd5b5061077561192f565b6040516107829190616f11565b60405180910390f35b3480156107985760006000fd5b506107b360048036038101906107ae91906168b6565b611942565b6040516107c192919061751a565b60405180910390f35b3480156107d75760006000fd5b506107f260048036038101906107ed9190616476565b61196e565b6040516108009291906176b3565b60405180910390f35b3480156108165760006000fd5b5061081f6119cd565b60405161082c9190616f75565b60405180910390f35b3480156108425760006000fd5b5061085d600480360381019061085891906163b4565b6119f1565b005b34801561086c5760006000fd5b50610875611a04565b6040516108829190616f25565b60405180910390f35b3480156108985760006000fd5b506108a1611a28565b6040516108ae9190617697565b60405180910390f35b3480156108c45760006000fd5b506108df60048036038101906108da9190616b41565b611a42565b005b3480156108ee5760006000fd5b506108f7611ac5565b6040516109049190617697565b60405180910390f35b34801561091a5760006000fd5b5061093560048036038101906109309190616b68565b611ae9565b005b3480156109445760006000fd5b5061094d611bc4565b60405161095a9190617697565b60405180910390f35b3480156109705760006000fd5b50610979611be8565b6040516109869190616dea565b60405180910390f35b34801561099c5760006000fd5b506109b760048036038101906109b291906169a9565b611c0e565b005b3480156109c65760006000fd5b506109e160048036038101906109dc9190616526565b611c91565b005b3480156109f05760006000fd5b50610a0b6004803603810190610a0691906165c5565b611d8b565b604051610a1992919061762b565b60405180910390f35b348015610a2f5760006000fd5b50610a38611eb4565b604051610a45919061753c565b60405180910390f35b348015610a5b5760006000fd5b50610a766004803603810190610a719190616a0a565b611ed6565b604051610a849291906170cf565b60405180910390f35b610a9b611fc363ffffffff16565b610aa96120d663ffffffff16565b6000600660005060008573ffffffffffffffffffffffffffffffffffffffff1673ffffffffffffffffffffffffffffffffffffffff16815260200190815260200160002060009054906101000a900461ffff169050610b0d8161220363ffffffff16565b610b15616058565b600084849050905060006040518060400160405280600115158152602001610b428961227463ffffffff16565b60020b8152602001509050610b5561611e565b610b636123c063ffffffff16565b67ffffffffffffffff1681608001909081815260200150506000600090505b83811015610e67577f000000000000000000000000000000000000000000000000000000000000000073ffffffffffffffffffffffffffffffffffffffff1663f34348f18989848181101515610bd457fe5b905060200201356040518263ffffffff1660e01b8152600401610bf7919061759e565b6101806040518083038186803b158015610c115760006000fd5b505afa158015610c26573d600060003e3d6000fd5b505050506040513d601f19601f82011682018060405250810190610c4a9190616799565b945084508561ffff16856020015161ffff16141515610c6857610e5a565b610c7c8584602001516123db63ffffffff16565b15610c8657610e5a565b610c958561240e63ffffffff16565b945084508787828181101515610ca757fe5b905060200201358260000190908181526020015050610cd882600001516000600088600001516127fb63ffffffff16565b5050610d33610d26600360089054906101000a900467ffffffffffffffff1667ffffffffffffffff168760a001516fffffffffffffffffffffffffffffffff16612a2a90919063ffffffff16565b612a50909063ffffffff16565b82602001906fffffffffffffffffffffffffffffffff1690816fffffffffffffffffffffffffffffffff1681526020015050610d758233612aea63ffffffff16565b5050610da482602001518660a001516fffffffffffffffffffffffffffffffff16612bd590919063ffffffff16565b82602001906fffffffffffffffffffffffffffffffff1690816fffffffffffffffffffffffffffffffff1681526020015050610dea828660000151612aea63ffffffff16565b5050610e0182600001518685612c8263ffffffff16565b3373ffffffffffffffffffffffffffffffffffffffff168888838181101515610e2657fe5b905060200201357f6ba13b7ae6048936f291047829a5de36835ad46b52453fff379900999074709260405160405180910390a35b8080600101915050610b82565b5050505050505b5b610e7d612db863ffffffff16565b5b505050565b6000610e93612e4a63ffffffff16565b905080505b90565b610ea9612ec363ffffffff16565b610eb7612f2363ffffffff16565b5b5b565b610ec9612ec363ffffffff16565b6706f05b59d3b200008167ffffffffffffffff16101515610eea5760006000fd5b80600360086101000a81548167ffffffffffffffff021916908367ffffffffffffffff1602179055507f78244e8e46597270e2f0ae9c6baded3ba10f1b3f03316f89e49bbfeb1c06786881604051610f429190617697565b60405180910390a15b5b50565b7f000000000000000000000000000000000000000000000000000000000000000081565b600860009054906101000a900467ffffffffffffffff1681565b600160005060205280600052604060002060009150909054906101000a900460ff1681565b60006000610fc4611fc363ffffffff16565b610fd2612f6d63ffffffff16565b6000610fe78460000151612ff863ffffffff16565b9050610ffc816080015161310c63ffffffff16565b8060a0015184602001906fffffffffffffffffffffffffffffffff1690816fffffffffffffffffffffffffffffffff1681526020015050611047848260000151612aea63ffffffff16565b809350819450505061107184600001518261106661315463ffffffff16565b612c8263ffffffff16565b83600001517f1bd2c24817047e88025a4688c0fba3903e750cc05d80857de4201f42ec59bcf284846040516110a792919061762b565b60405180910390a2828292509250506110bc56505b5b6110cb612db863ffffffff16565b5b915091565b6110df611fc363ffffffff16565b6110ed612f6d63ffffffff16565b6110fb61316063ffffffff16565b5b5b61110b612db863ffffffff16565b5b565b600360089054906101000a900467ffffffffffffffff1681565b6000600061113a611fc363ffffffff16565b6111486120d663ffffffff16565b6000600660005060007f000000000000000000000000000000000000000000000000000000000000000073ffffffffffffffffffffffffffffffffffffffff16631698ee82886000015189602001518a604001516040518463ffffffff1660e01b81526004016111ba93929190616e69565b60206040518083038186803b1580156111d35760006000fd5b505afa1580156111e8573d600060003e3d6000fd5b505050506040513d601f19601f8201168201806040525081019061120c919061638d565b73ffffffffffffffffffffffffffffffffffffffff1673ffffffffffffffffffffffffffffffffffffffff16815260200190815260200160002060009054906101000a900461ffff1690506112668161220363ffffffff16565b611275856133da63ffffffff16565b8093508194505050611299838287606001518860800151868961354063ffffffff16565b828161ffff163373ffffffffffffffffffffffffffffffffffffffff167f87c666eb8f5e2d1a47a2af419127c84ea830d86b5f75e12ca3dafa33323d912288606001518960800151876040516112f193929190617108565b60405180910390a48282925092505061130656505b5b611315612db863ffffffff16565b5b9250929050565b600460009054906101000a900463ffffffff1681565b611341612ec363ffffffff16565b6113508261220363ffffffff16565b61135e61316063ffffffff16565b80600560005060008461ffff1661ffff16815260200190815260200160002060005060000160146101000a81548167ffffffffffffffff021916908367ffffffffffffffff16021790555060006113b961369963ffffffff16565b1115156113fb576040517f08c379a00000000000000000000000000000000000000000000000000000000081526004016113f2906171fd565b60405180910390fd5b8161ffff167fcf476913af040a8c0a50588902fc980c73de756444694afb625e05906334404f8260405161142f9190617697565b60405180910390a25b5b5050565b61144b611fc363ffffffff16565b6114596120d663ffffffff16565b600061146a82612ff863ffffffff16565b9050600081610120019063ffffffff16908163ffffffff16815260200150507f000000000000000000000000000000000000000000000000000000000000000073ffffffffffffffffffffffffffffffffffffffff1663816aaa2583836040518363ffffffff1660e01b81526004016114e49291906175df565b600060405180830381600087803b1580156114ff5760006000fd5b505af1158015611514573d600060003e3d6000fd5b50505050505b5b611529612db863ffffffff16565b5b50565b7f000000000000000000000000000000000000000000000000000000000000000081565b600061156383836123db63ffffffff16565b905061156a565b92915050565b600660005060205280600052604060002060009150909054906101000a900461ffff1681565b60006115a6611fc363ffffffff16565b6115b46120d663ffffffff16565b60006115c98460000135612ff863ffffffff16565b90508281610120019063ffffffff16908163ffffffff16815260200150506115f68461373663ffffffff16565b9150815061160f818560000135846138ee63ffffffff16565b83600001357fcc5b49b47bfd2f61894e4c8977343543aa054a11ae847be904355459ce55dcd983604051611643919061753c565b60405180910390a28191505061165556505b5b611664612db863ffffffff16565b5b92915050565b7f000000000000000000000000000000000000000000000000000000000000000081565b61169d612ec363ffffffff16565b6000600660005060008473ffffffffffffffffffffffffffffffffffffffff1673ffffffffffffffffffffffffffffffffffffffff16815260200190815260200160002060009054906101000a900461ffff1661ffff16141515611736576040517f08c379a000000000000000000000000000000000000000000000000000000000815260040161172d9061727b565b60405180910390fd5b61174461316063ffffffff16565b6117548282613b6663ffffffff16565b61ffff168273ffffffffffffffffffffffffffffffffffffffff167fb42c51dce17f5346a481b9dd503edc20c8b6de38b22e12b35a5c77c131fb38ac8360405161179e9190617697565b60405180910390a35b5b5050565b600060006117be611fc363ffffffff16565b6117cc612f6d63ffffffff16565b60006117dd85612ff863ffffffff16565b90508381610120019063ffffffff16908163ffffffff16815260200150507f000000000000000000000000000000000000000000000000000000000000000073ffffffffffffffffffffffffffffffffffffffff1663816aaa2586836040518363ffffffff1660e01b81526004016118569291906175df565b600060405180830381600087803b1580156118715760006000fd5b505af1158015611886573d600060003e3d6000fd5b5050505061189e8560006000336127fb63ffffffff16565b8093508194505050843373ffffffffffffffffffffffffffffffffffffffff167f56253d287efacdb2c4cd76dd03624a4821c1ce721d1152e8f5f5718f6087c9bf85856040516118ef92919061762b565b60405180910390a38282925092505061190456505b5b611913612db863ffffffff16565b5b9250929050565b600460049054906101000a900461ffff1681565b600060009054906101000a900460ff1681565b61194a616058565b600061195d858585613fd063ffffffff16565b91509150611966565b935093915050565b60076000506020528060005260406000206000915090508060000160009054906101000a900467ffffffffffffffff16908060000160089054906101000a900477ffffffffffffffffffffffffffffffffffffffffffffffff16905082565b7f000000000000000000000000000000000000000000000000000000000000000081565b611a008161410863ffffffff16565b5b50565b7f000000000000000000000000000000000000000000000000000000000000000081565b600360009054906101000a900467ffffffffffffffff1681565b611a50612ec363ffffffff16565b61012c8163ffffffff1610151515611a685760006000fd5b80600460006101000a81548163ffffffff021916908363ffffffff1602179055507f811ba52920ff121eccd59ee98068330fc6736094b9a3fab10ada70fb0cd2f37081604051611ab8919061767f565b60405180910390a15b5b50565b7f000000000000000000000000000000000000000000000000000000000000000081565b611af7612ec363ffffffff16565b80600360006101000a81548167ffffffffffffffff021916908367ffffffffffffffff160217905550600360009054906101000a900467ffffffffffffffff1667ffffffffffffffff166000101515611b505760006000fd5b670de0b6b3a7640000600360009054906101000a900467ffffffffffffffff1667ffffffffffffffff1611151515611b885760006000fd5b7f41785a43e8509555b296851de25b00003ca4ca1c572c807cb301d4a0fb9582d481604051611bb79190617697565b60405180910390a15b5b50565b7f000000000000000000000000000000000000000000000000000000000000000081565b600860089054906101000a900473ffffffffffffffffffffffffffffffffffffffff1681565b611c1c612ec363ffffffff16565b80600360106101000a8154816fffffffffffffffffffffffffffffffff02191690836fffffffffffffffffffffffffffffffff1602179055507f755043e33e8e4c87253e98c56c011cc9905bf88318997b89b3520a54b3c5f17081604051611c84919061753c565b60405180910390a15b5b50565b611cf0600860089054906101000a900473ffffffffffffffffffffffffffffffffffffffff1673ffffffffffffffffffffffffffffffffffffffff163373ffffffffffffffffffffffffffffffffffffffff161461410863ffffffff16565b600860086101000a81549073ffffffffffffffffffffffffffffffffffffffff0219169055600161ffff16611d2d83610bb8613b6663ffffffff16565b61ffff16141515611d73576040517f08c379a0000000000000000000000000000000000000000000000000000000008152600401611d6a90617338565b60405180910390fd5b611d85816103e8613b6663ffffffff16565b505b5050565b60006000611d9d611fc363ffffffff16565b611dab6120d663ffffffff16565b6000611dc08560000135612ff863ffffffff16565b9050611dd5816080015161310c63ffffffff16565b8381610120019063ffffffff16908163ffffffff1681526020015050611e1585803603810190611e059190616604565b8260000151612aea63ffffffff16565b8093508194505050611e52818660000135876020016020810190611e3991906169a9565b611e4761315463ffffffff16565b61418463ffffffff16565b84600001357ffafb1711250bf0d3906bfd9c4386a9a5a5fdf9ac1facdc9dfd2addad7d3f72e78484604051611e8892919061762b565b60405180910390a281829250925050611e9d56505b5b611eac612db863ffffffff16565b5b9250929050565b600360109054906101000a90046fffffffffffffffffffffffffffffffff1681565b60056000506020528060005260406000206000915090508060000160009054906101000a900473ffffffffffffffffffffffffffffffffffffffff16908060000160149054906101000a900467ffffffffffffffff16905082565b60006801000000000000000082101515611fb6576040517f08c379a00000000000000000000000000000000000000000000000000000000081526004018080602001828103825260118152602001807f6d6f7265207468616e203634206269747300000000000000000000000000000081526020015060200191505060405180910390fd5b819050611fbe565b919050565b7f000000000000000000000000000000000000000000000000000000000000000073ffffffffffffffffffffffffffffffffffffffff1663e97dcb626040518163ffffffff1660e01b8152600401600060405180830381600087803b15801561202c5760006000fd5b505af1158015612041573d600060003e3d6000fd5b505050506002600260005054141515156120c6576040517f08c379a000000000000000000000000000000000000000000000000000000000815260040180806020018281038252600d8152602001807f4c50205265656e7472616e63790000000000000000000000000000000000000081526020015060200191505060405180910390fd5b600260026000508190909055505b565b6120e4612f6d63ffffffff16565b7f000000000000000000000000000000000000000000000000000000000000000073ffffffffffffffffffffffffffffffffffffffff1663bf86d6906040518163ffffffff1660e01b815260040160206040518083038186803b15801561214b5760006000fd5b505afa158015612160573d600060003e3d6000fd5b505050506040513d60208110156121775760006000fd5b8101908080519060200190929190505050151515612200576040517f08c379a00000000000000000000000000000000000000000000000000000000081526004018080602001828103825260118152602001807f50726f746f636f6c2073687574646f776e00000000000000000000000000000081526020015060200191505060405180910390fd5b5b565b8061ffff16600010801561222f5750600460049054906101000a900461ffff1661ffff168161ffff1611155b1515612270576040517f08c379a0000000000000000000000000000000000000000000000000000000008152600401612267906172ba565b60405180910390fd5b5b50565b60007f000000000000000000000000000000000000000000000000000000000000000073ffffffffffffffffffffffffffffffffffffffff1663d3419bf36040518163ffffffff1660e01b815260040160206040518083038186803b1580156122dd5760006000fd5b505afa1580156122f2573d600060003e3d6000fd5b505050506040513d601f19601f82011682018060405250810190612316919061644f565b73ffffffffffffffffffffffffffffffffffffffff1663fcebd71c83600460009054906101000a900463ffffffff166040518363ffffffff1660e01b815260040161236292919061709a565b60206040518083038186803b15801561237b5760006000fd5b505afa158015612390573d600060003e3d6000fd5b505050506040513d601f19601f820116820180604052508101906123b4919061659e565b90506123bb565b919050565b60006123d342611f31909063ffffffff16565b905080505b90565b60008160020b8360e0015160020b13158015612401575082610100015160020b8260020b125b9050612408565b92915050565b612416616058565b60006124266145f463ffffffff16565b90506000612439826146f363ffffffff16565b905060008460c001519050600060008267ffffffffffffffff161461246c57612467826146f363ffffffff16565b61246f565b60005b90508067ffffffffffffffff168367ffffffffffffffff1611151561249a57859450505050506127f6565b6124a861316063ffffffff16565b6000612569877f000000000000000000000000000000000000000000000000000000000000000073ffffffffffffffffffffffffffffffffffffffff166351ad51f78a602001516040518263ffffffff1660e01b815260040161250b9190617560565b60406040518083038186803b1580156125245760006000fd5b505afa158015612539573d600060003e3d6000fd5b505050506040513d601f19601f8201168201806040525081019061255d919061695d565b87613fd063ffffffff16565b809250819750505060008111156127e457600073ffffffffffffffffffffffffffffffffffffffff1686610140015173ffffffffffffffffffffffffffffffffffffffff16141580156125cb5750600086610160015167ffffffffffffffff16115b156126fa5760006125f487610160015167ffffffffffffffff1683612a2a90919063ffffffff16565b90507f000000000000000000000000000000000000000000000000000000000000000073ffffffffffffffffffffffffffffffffffffffff1663ef7a7cfa886101400151836040518363ffffffff1660e01b8152600401612656929190616ea8565b600060405180830381600087803b1580156126715760006000fd5b505af1158015612686573d600060003e3d6000fd5b505050506001151587610140015173ffffffffffffffffffffffffffffffffffffffff167f8079a05488a0f375c08504c3ba8b3a1371f5a192b7a141bc9294ef7ad41389d9836040516126d9919061759e565b60405180910390a36126f4818361477b90919063ffffffff16565b91508150505b7f000000000000000000000000000000000000000000000000000000000000000073ffffffffffffffffffffffffffffffffffffffff1663ef7a7cfa8760000151836040518363ffffffff1660e01b8152600401612759929190616ea8565b600060405180830381600087803b1580156127745760006000fd5b505af1158015612789573d600060003e3d6000fd5b5050505060001515866000015173ffffffffffffffffffffffffffffffffffffffff167f8079a05488a0f375c08504c3ba8b3a1371f5a192b7a141bc9294ef7ad41389d9836040516127db919061759e565b60405180910390a35b85955050505050506127f65650505050505b919050565b600060007f000000000000000000000000000000000000000000000000000000000000000073ffffffffffffffffffffffffffffffffffffffff1663fc6f78656040518060800160405280898152602001600073ffffffffffffffffffffffffffffffffffffffff1681526020016fffffffffffffffffffffffffffffffff6fffffffffffffffffffffffffffffffff1681526020016fffffffffffffffffffffffffffffffff6fffffffffffffffffffffffffffffffff168152602001506040518263ffffffff1660e01b81526004016128d69190617377565b604060405180830381600087803b1580156128f15760006000fd5b505af1158015612906573d600060003e3d6000fd5b505050506040513d601f19601f8201168201806040525081019061292a9190616aea565b8092508193505050600060007f000000000000000000000000000000000000000000000000000000000000000073ffffffffffffffffffffffffffffffffffffffff166399fbab88896040518263ffffffff1660e01b815260040161298f919061759e565b6101806040518083038186803b1580156129a95760006000fd5b505afa1580156129be573d600060003e3d6000fd5b505050506040513d601f19601f820116820180604052508101906129e29190616bb6565b5050505050505050935093505050612a0182888761480463ffffffff16565b612a1281878761480463ffffffff16565b8383935093505050612a215650505b94509492505050565b6000612a458383670de0b6b3a764000061498463ffffffff16565b905080505b92915050565b600070010000000000000000000000000000000082101515612add576040517f08c379a00000000000000000000000000000000000000000000000000000000081526004018080602001828103825260128152602001807f6d6f7265207468616e203132382062697473000000000000000000000000000081526020015060200191505060405180910390fd5b819050612ae5565b919050565b600060007f000000000000000000000000000000000000000000000000000000000000000073ffffffffffffffffffffffffffffffffffffffff16630c49ccbe856040518263ffffffff1660e01b8152600401612b4791906173d6565b604060405180830381600087803b158015612b625760006000fd5b505af1158015612b77573d600060003e3d6000fd5b505050506040513d601f19601f82011682018060405250810190612b9b9190616aea565b8092508193505050612bc1846000015185604001518660600151866127fb63ffffffff16565b5050808191509150612bce565b9250929050565b6000826fffffffffffffffffffffffffffffffff168284039150816fffffffffffffffffffffffffffffffff1611151515612c7b576040517f08c379a000000000000000000000000000000000000000000000000000000000815260040180806020018281038252600d8152602001807f7375622d756e646572666c6f770000000000000000000000000000000000000081526020015060200191505060405180910390fd5b5b92915050565b612c9882848460a001518461418463ffffffff16565b7f000000000000000000000000000000000000000000000000000000000000000073ffffffffffffffffffffffffffffffffffffffff166326879a4e846040518263ffffffff1660e01b8152600401612cf1919061759e565b600060405180830381600087803b158015612d0c5760006000fd5b505af1158015612d21573d600060003e3d6000fd5b505050507f000000000000000000000000000000000000000000000000000000000000000073ffffffffffffffffffffffffffffffffffffffff166342966c68846040518263ffffffff1660e01b8152600401612d7e919061759e565b600060405180830381600087803b158015612d995760006000fd5b505af1158015612dae573d600060003e3d6000fd5b505050505b505050565b600160026000508190909055507f000000000000000000000000000000000000000000000000000000000000000073ffffffffffffffffffffffffffffffffffffffff1663e9fad8ee6040518163ffffffff1660e01b8152600401600060405180830381600087803b158015612e2e5760006000fd5b505af1158015612e43573d600060003e3d6000fd5b505050505b565b60007f00000000000000000000000000000000000000000000000000000000000000007f000000000000000000000000000000000000000000000000000000000000000067ffffffffffffffff16612ea66123c063ffffffff16565b67ffffffffffffffff16811515612eb957fe5b0403905080505b90565b612f207f000000000000000000000000000000000000000000000000000000000000000073ffffffffffffffffffffffffffffffffffffffff163373ffffffffffffffffffffffffffffffffffffffff161461410863ffffffff16565b5b565b6001600060006101000a81548160ff0219169083151502179055507f7acc84e34091ae817647a4c49116f5cc07f319078ba80f8f5fde37ea7e25cbd660405160405180910390a15b565b600060009054906101000a900460ff16151515612ff5576040517f08c379a00000000000000000000000000000000000000000000000000000000081526004018080602001828103825260138152602001807f436f6e74726163742069732073746f707065640000000000000000000000000081526020015060200191505060405180910390fd5b5b565b613000616058565b6130ba7f000000000000000000000000000000000000000000000000000000000000000073ffffffffffffffffffffffffffffffffffffffff1663f34348f1846040518263ffffffff1660e01b815260040161305c919061759e565b6101806040518083038186803b1580156130765760006000fd5b505afa15801561308b573d600060003e3d6000fd5b505050506040513d601f19601f820116820180604052508101906130af9190616799565b61240e63ffffffff16565b905080506130ff816000015173ffffffffffffffffffffffffffffffffffffffff163373ffffffffffffffffffffffffffffffffffffffff161461410863ffffffff16565b809050613107565b919050565b4381101515613150576040517f08c379a0000000000000000000000000000000000000000000000000000000008152600401613147906172f9565b60405180910390fd5b5b50565b61315c616162565b5b90565b6000613170614a8563ffffffff16565b9050600860009054906101000a900467ffffffffffffffff1667ffffffffffffffff168167ffffffffffffffff161115156131ab57506133d8565b6000600860009054906101000a900467ffffffffffffffff1682039050600061384067ffffffffffffffff16620151808115156131e457fe5b0467ffffffffffffffff166132ad8367ffffffffffffffff167f000000000000000000000000000000000000000000000000000000000000000073ffffffffffffffffffffffffffffffffffffffff166318c7de176040518163ffffffff1660e01b8152600401602060405180830381600087803b1580156132665760006000fd5b505af115801561327b573d600060003e3d6000fd5b505050506040513d601f19601f8201168201806040525081019061329f9190616a89565b614aad90919063ffffffff16565b8115156132b657fe5b0490506000600460049054906101000a900461ffff169050600060006132e061369963ffffffff16565b90506001915081505b8261ffff168261ffff1611151561336f5761336182613355600560005060008661ffff1661ffff16815260200190815260200160002060005060000160149054906101000a900467ffffffffffffffff1667ffffffffffffffff1684886149849092919063ffffffff16565b87614b4b63ffffffff16565b5b81806001019250506132e9565b85600860006101000a81548167ffffffffffffffff021916908367ffffffffffffffff1602179055507f095a67d1e9698fe0eebf9cff79a22f6423cebcb4e386a0bdd7e12330d86381ed84866040516133c9929190617644565b60405180910390a15050505050505b565b600060006133f683600001518460a00151614ddd63ffffffff16565b61340e83602001518460c00151614ddd63ffffffff16565b7f000000000000000000000000000000000000000000000000000000000000000083610120019073ffffffffffffffffffffffffffffffffffffffff16908173ffffffffffffffffffffffffffffffffffffffff16815260200150507f000000000000000000000000000000000000000000000000000000000000000073ffffffffffffffffffffffffffffffffffffffff166388316456846040518263ffffffff1660e01b81526004016134c39190617468565b608060405180830381600087803b1580156134de5760006000fd5b505af11580156134f3573d600060003e3d6000fd5b505050506040513d601f19601f820116820180604052508101906135179190616aa5565b905050809250819350505061353a83600001518460200151614edd63ffffffff16565b5b915091565b7f000000000000000000000000000000000000000000000000000000000000000073ffffffffffffffffffffffffffffffffffffffff166375ea13ca33886040518363ffffffff1660e01b815260040161359b929190616e3a565b600060405180830381600087803b1580156135b65760006000fd5b505af11580156135cb573d600060003e3d6000fd5b505050506135d7616058565b33816000019073ffffffffffffffffffffffffffffffffffffffff16908173ffffffffffffffffffffffffffffffffffffffff168152602001505085816020019061ffff16908161ffff1681526020015050848160e0019060020b908160020b815260200150508381610100019060020b908160020b815260200150508181610120019063ffffffff16908163ffffffff168152602001505061368f6136828261240e63ffffffff16565b88856138ee63ffffffff16565b505b505050505050565b60006000600190505b600460049054906101000a900461ffff1661ffff168161ffff1611151561372a57613718600560005060008361ffff1661ffff16815260200190815260200160002060005060000160149054906101000a900467ffffffffffffffff1667ffffffffffffffff1683614f9c90919063ffffffff16565b915081505b80806001019150506136a2565b50809050613733565b90565b6000600060007f000000000000000000000000000000000000000000000000000000000000000073ffffffffffffffffffffffffffffffffffffffff166399fbab8885600001356040518263ffffffff1660e01b8152600401613799919061759e565b6101806040518083038186803b1580156137b35760006000fd5b505afa1580156137c8573d600060003e3d6000fd5b505050506040513d601f19601f820116820180604052508101906137ec9190616bb6565b505050505050505093509350505061380e828560200135614ddd63ffffffff16565b613822818560400135614ddd63ffffffff16565b7f000000000000000000000000000000000000000000000000000000000000000073ffffffffffffffffffffffffffffffffffffffff1663219f5d17856040518263ffffffff1660e01b815260040161387b9190617423565b606060405180830381600087803b1580156138965760006000fd5b505af11580156138ab573d600060003e3d6000fd5b505050506040513d601f19601f820116820180604052508101906138cf91906169d0565b905050809350506138e68282614edd63ffffffff16565b50505b919050565b600060056000506000856020015161ffff1661ffff16815260200190815260200160002060005060000160009054906101000a900473ffffffffffffffffffffffffffffffffffffffff169050600061394c8261227463ffffffff16565b905061395e85826123db63ffffffff16565b151561399f576040517f08c379a000000000000000000000000000000000000000000000000000000000815260040161399690617140565b60405180910390fd5b6139d98582846139ce878a60a001516fffffffffffffffffffffffffffffffff1661502590919063ffffffff16565b6150d263ffffffff16565b7f000000000000000000000000000000000000000000000000000000000000000073ffffffffffffffffffffffffffffffffffffffff16631428561d83856040518363ffffffff1660e01b8152600401613a34929190617059565b600060405180830381600087803b158015613a4f5760006000fd5b505af1158015613a64573d600060003e3d6000fd5b50505050670de0b6b3a7640000600360009054906101000a900467ffffffffffffffff1667ffffffffffffffff16108015613aab5750600161ffff16856020015161ffff16145b15613ac057613abf826152cd63ffffffff16565b5b4385608001909081815260200150507f000000000000000000000000000000000000000000000000000000000000000073ffffffffffffffffffffffffffffffffffffffff1663816aaa2585876040518363ffffffff1660e01b8152600401613b2a9291906175df565b600060405180830381600087803b158015613b455760006000fd5b505af1158015613b5a573d600060003e3d6000fd5b5050505050505b505050565b60006000600660005060008573ffffffffffffffffffffffffffffffffffffffff1673ffffffffffffffffffffffffffffffffffffffff16815260200190815260200160002060009054906101000a900461ffff1661ffff16141515613c01576040517f08c379a0000000000000000000000000000000000000000000000000000000008152600401613bf8906171be565b60405180910390fd5b61ffff61ffff166004600481819054906101000a900461ffff1660010191906101000a81548161ffff021916908361ffff160217905561ffff16101515613c485760006000fd5b7f000000000000000000000000000000000000000000000000000000000000000073ffffffffffffffffffffffffffffffffffffffff1663d3419bf36040518163ffffffff1660e01b815260040160206040518083038186803b158015613caf5760006000fd5b505afa158015613cc4573d600060003e3d6000fd5b505050506040513d601f19601f82011682018060405250810190613ce8919061644f565b73ffffffffffffffffffffffffffffffffffffffff1663407431f7846040518263ffffffff1660e01b8152600401613d209190616fc5565b600060405180830381600087803b158015613d3b5760006000fd5b505af1158015613d50573d600060003e3d6000fd5b50505050600460049054906101000a900461ffff169050805060405180604001604052808473ffffffffffffffffffffffffffffffffffffffff1681526020018367ffffffffffffffff16815260200150600560005060008361ffff1661ffff16815260200190815260200160002060005060008201518160000160006101000a81548173ffffffffffffffffffffffffffffffffffffffff021916908373ffffffffffffffffffffffffffffffffffffffff16021790555060208201518160000160146101000a81548167ffffffffffffffff021916908367ffffffffffffffff16021790555090505080600660005060008573ffffffffffffffffffffffffffffffffffffffff1673ffffffffffffffffffffffffffffffffffffffff16815260200190815260200160002060006101000a81548161ffff021916908361ffff160217905550613f268373ffffffffffffffffffffffffffffffffffffffff16630dfe16816040518163ffffffff1660e01b815260040160206040518083038186803b158015613ee25760006000fd5b505afa158015613ef7573d600060003e3d6000fd5b505050506040513d601f19601f82011682018060405250810190613f1b919061638d565b61556563ffffffff16565b613fb48373ffffffffffffffffffffffffffffffffffffffff1663d21220a76040518163ffffffff1660e01b815260040160206040518083038186803b158015613f705760006000fd5b505afa158015613f85573d600060003e3d6000fd5b505050506040513d601f19601f82011682018060405250810190613fa9919061638d565b61556563ffffffff16565b613fc261316063ffffffff16565b809050613fca565b92915050565b613fd8616058565b6000849150815060008260a001516fffffffffffffffffffffffffffffffff1611156140ac576140a76140228360c001518567ffffffffffffffff166155ba90919063ffffffff16565b67ffffffffffffffff1661384067ffffffffffffffff166140986140578660600151896000015161477b90919063ffffffff16565b61407287604001518a6020015161477b90919063ffffffff16565b8760a001516fffffffffffffffffffffffffffffffff166149849092919063ffffffff16565b6149849092919063ffffffff16565b905080505b8360000151826060019090818152602001505083602001518260400190908181526020015050828260c0019067ffffffffffffffff16908167ffffffffffffffff1681526020015050818191509150614100565b935093915050565b801515614180576040517f08c379a000000000000000000000000000000000000000000000000000000000815260040180806020018281038252600e8152602001807f4e6f7420417574686f72697a656400000000000000000000000000000000000081526020015060200191505060405180910390fd5b5b50565b600060056000506000866020015161ffff1661ffff16815260200190815260200160002060005060000160009054906101000a900473ffffffffffffffffffffffffffffffffffffffff169050600082600001516141f0576141eb8261227463ffffffff16565b6141f6565b82602001515b90506000670de0b6b3a7640000600360009054906101000a900467ffffffffffffffff1667ffffffffffffffff1610801561423d5750600161ffff16876020015161ffff16145b8015614255575061425487836123db63ffffffff16565b5b80156142fe57507f000000000000000000000000000000000000000000000000000000000000000073ffffffffffffffffffffffffffffffffffffffff1663bf86d6906040518163ffffffff1660e01b815260040160206040518083038186803b1580156142c35760006000fd5b505afa1580156142d8573d600060003e3d6000fd5b505050506040513d601f19601f820116820180604052508101906142fc91906163db565b155b905061433a87838561432f898c60a001516fffffffffffffffffffffffffffffffff16612bd590919063ffffffff16565b6150d263ffffffff16565b80156143505761434f836152cd63ffffffff16565b5b7f000000000000000000000000000000000000000000000000000000000000000073ffffffffffffffffffffffffffffffffffffffff1663530c1ccb84876040518363ffffffff1660e01b81526004016143ab929190617059565b600060405180830381600087803b1580156143c65760006000fd5b505af11580156143db573d600060003e3d6000fd5b50505050801561455b57600760005060008473ffffffffffffffffffffffffffffffffffffffff1673ffffffffffffffffffffffffffffffffffffffff16815260200190815260200160002060005060000160089054906101000a900477ffffffffffffffffffffffffffffffffffffffffffffffff1677ffffffffffffffffffffffffffffffffffffffffffffffff167f000000000000000000000000000000000000000000000000000000000000000073ffffffffffffffffffffffffffffffffffffffff1663a135ef17856040518263ffffffff1660e01b81526004016144c59190616fc5565b60206040518083038186803b1580156144de5760006000fd5b505afa1580156144f3573d600060003e3d6000fd5b505050506040513d601f19601f820116820180604052508101906145179190616a89565b1015151561455a576040517f08c379a00000000000000000000000000000000000000000000000000000000081526004016145519061717f565b60405180910390fd5b5b7f000000000000000000000000000000000000000000000000000000000000000073ffffffffffffffffffffffffffffffffffffffff1663816aaa2587896040518363ffffffff1660e01b81526004016145b69291906175df565b600060405180830381600087803b1580156145d15760006000fd5b505af11580156145e6573d600060003e3d6000fd5b505050505050505b50505050565b600060006146066123c063ffffffff16565b905060007f000000000000000000000000000000000000000000000000000000000000000073ffffffffffffffffffffffffffffffffffffffff1663585690816040518163ffffffff1660e01b815260040160206040518083038186803b1580156146715760006000fd5b505afa158015614686573d600060003e3d6000fd5b505050506040513d601f19601f820116820180604052508101906146aa9190616b8f565b90508067ffffffffffffffff1660001080156146d957508167ffffffffffffffff168167ffffffffffffffff16105b6146e357816146e5565b805b925050506146f05650505b90565b60006147717f00000000000000000000000000000000000000000000000000000000000000007f000000000000000000000000000000000000000000000000000000000000000067ffffffffffffffff168467ffffffffffffffff1681151561475857fe5b0467ffffffffffffffff166155ba90919063ffffffff16565b905080505b919050565b600082828403915081111515156147fd576040517f08c379a000000000000000000000000000000000000000000000000000000000815260040180806020018281038252600d8152602001807f7375622d756e646572666c6f770000000000000000000000000000000000000081526020015060200191505060405180910390fd5b5b92915050565b7f000000000000000000000000000000000000000000000000000000000000000073ffffffffffffffffffffffffffffffffffffffff168373ffffffffffffffffffffffffffffffffffffffff1614156148ec577f000000000000000000000000000000000000000000000000000000000000000073ffffffffffffffffffffffffffffffffffffffff166349404b7c83836040518363ffffffff1660e01b81526004016148b39291906175b0565b600060405180830381600087803b1580156148ce5760006000fd5b505af11580156148e3573d600060003e3d6000fd5b5050505061497e565b7f000000000000000000000000000000000000000000000000000000000000000073ffffffffffffffffffffffffffffffffffffffff1663df2ab5bb8484846040518463ffffffff1660e01b815260040161494993929190616ed7565b600060405180830381600087803b1580156149645760006000fd5b505af1158015614979573d600060003e3d6000fd5b505050505b5b505050565b60006000600060001985870985870292508281108382030391505060008114156149c7576000841115156149b85760006000fd5b83820492508292505050614a7e565b80841115156149d65760006000fd5b6000848688099050828111820391508083039250600085866000031690508086049550808404935060018182600003040190508083028417935083506000600287600302189050808702600203810290508050808702600203810290508050808702600203810290508050808702600203810290508050808702600203810290508050808702600203810290508050808502955085508595505050505050614a7e5650505050505b9392505050565b6000614aa3614a986145f463ffffffff16565b6146f363ffffffff16565b9050614aaa565b90565b60006000821480614acd57508282838502925082811515614aca57fe5b04145b1515614b44576040517f08c379a000000000000000000000000000000000000000000000000000000000815260040180806020018281038252600c8152602001807f6d756c2d6f766572666c6f77000000000000000000000000000000000000000081526020015060200191505060405180910390fd5b5b92915050565b60007f000000000000000000000000000000000000000000000000000000000000000073ffffffffffffffffffffffffffffffffffffffff166351ad51f7856040518263ffffffff1660e01b8152600401614ba69190617560565b60406040518083038186803b158015614bbf5760006000fd5b505afa158015614bd4573d600060003e3d6000fd5b505050506040513d601f19601f82011682018060405250810190614bf8919061695d565b90507f000000000000000000000000000000000000000000000000000000000000000073ffffffffffffffffffffffffffffffffffffffff1663f7099607856040518060400160405280614c59888760000151614f9c90919063ffffffff16565b8152602001614d7f614d6c8867ffffffffffffffff167f000000000000000000000000000000000000000000000000000000000000000073ffffffffffffffffffffffffffffffffffffffff1663a135ef17600560005060008f61ffff1661ffff16815260200190815260200160002060005060000160009054906101000a900473ffffffffffffffffffffffffffffffffffffffff166040518263ffffffff1660e01b8152600401614d0c9190616fc5565b60206040518083038186803b158015614d255760006000fd5b505afa158015614d3a573d600060003e3d6000fd5b505050506040513d601f19601f82011682018060405250810190614d5e9190616a89565b614aad90919063ffffffff16565b8760200151614f9c90919063ffffffff16565b8152602001506040518363ffffffff1660e01b8152600401614da2929190617576565b600060405180830381600087803b158015614dbd5760006000fd5b505af1158015614dd2573d600060003e3d6000fd5b50505050505b505050565b7f000000000000000000000000000000000000000000000000000000000000000073ffffffffffffffffffffffffffffffffffffffff168273ffffffffffffffffffffffffffffffffffffffff16148015614e385750804710155b15614ec5577f000000000000000000000000000000000000000000000000000000000000000073ffffffffffffffffffffffffffffffffffffffff1663d0e30db0826040518263ffffffff1660e01b81526004016000604051808303818588803b158015614ea65760006000fd5b505af1158015614ebb573d600060003e3d6000fd5b5050505050614ed8565b614ed78233308461565763ffffffff16565b5b5b5050565b614eec8261588263ffffffff16565b614efb8161588263ffffffff16565b7f000000000000000000000000000000000000000000000000000000000000000073ffffffffffffffffffffffffffffffffffffffff166312210e8a6040518163ffffffff1660e01b8152600401600060405180830381600087803b158015614f645760006000fd5b505af1158015614f79573d600060003e3d6000fd5b505050506000471115614f9757614f963347615a1863ffffffff16565b5b5b5050565b6000828284019150811015151561501e576040517f08c379a000000000000000000000000000000000000000000000000000000000815260040180806020018281038252600c8152602001807f6164642d6f766572666c6f77000000000000000000000000000000000000000081526020015060200191505060405180910390fd5b5b92915050565b6000826fffffffffffffffffffffffffffffffff168284019150816fffffffffffffffffffffffffffffffff16101515156150cb576040517f08c379a000000000000000000000000000000000000000000000000000000000815260040180806020018281038252600c8152602001807f6164642d6f766572666c6f77000000000000000000000000000000000000000081526020015060200191505060405180910390fd5b5b92915050565b6000816fffffffffffffffffffffffffffffffff1614156150f2576152c7565b60007f000000000000000000000000000000000000000000000000000000000000000073ffffffffffffffffffffffffffffffffffffffff1663d3419bf36040518163ffffffff1660e01b815260040160206040518083038186803b15801561515b5760006000fd5b505afa158015615170573d600060003e3d6000fd5b505050506040513d601f19601f82011682018060405250810190615194919061644f565b73ffffffffffffffffffffffffffffffffffffffff16631fab230e84868860e0015189610100015187600460009054906101000a900463ffffffff166040518763ffffffff1660e01b81526004016151f196959493929190616fed565b60206040518083038186803b15801561520a5760006000fd5b505afa15801561521f573d600060003e3d6000fd5b505050506040513d601f19601f820116820180604052508101906152439190616a89565b9050600360109054906101000a90046fffffffffffffffffffffffffffffffff166fffffffffffffffffffffffffffffffff16811015806152845750600081145b15156152c5576040517f08c379a00000000000000000000000000000000000000000000000000000000081526004016152bc9061723c565b60405180910390fd5b505b50505050565b60006152dd612e4a63ffffffff16565b90508067ffffffffffffffff16600760005060008473ffffffffffffffffffffffffffffffffffffffff1673ffffffffffffffffffffffffffffffffffffffff16815260200190815260200160002060005060000160009054906101000a900467ffffffffffffffff1667ffffffffffffffff1610156155605760405180604001604052808267ffffffffffffffff16815260200161547961546c6153b3600360009054906101000a900467ffffffffffffffff1667ffffffffffffffff16670de0b6b3a764000061477b90919063ffffffff16565b7f000000000000000000000000000000000000000000000000000000000000000073ffffffffffffffffffffffffffffffffffffffff1663a135ef17886040518263ffffffff1660e01b815260040161540c9190616fc5565b60206040518083038186803b1580156154255760006000fd5b505afa15801561543a573d600060003e3d6000fd5b505050506040513d601f19601f8201168201806040525081019061545e9190616a89565b612a2a90919063ffffffff16565b615b9e909063ffffffff16565b77ffffffffffffffffffffffffffffffffffffffffffffffff16815260200150600760005060008473ffffffffffffffffffffffffffffffffffffffff1673ffffffffffffffffffffffffffffffffffffffff16815260200190815260200160002060005060008201518160000160006101000a81548167ffffffffffffffff021916908367ffffffffffffffff16021790555060208201518160000160086101000a81548177ffffffffffffffffffffffffffffffffffffffffffffffff021916908377ffffffffffffffffffffffffffffffffffffffffffffffff1602179055509050505b505b50565b6155b6817f00000000000000000000000000000000000000000000000000000000000000007fffffffffffffffffffffffffffffffffffffffffffffffffffffffffffffffff615c4063ffffffff16565b5b50565b60008267ffffffffffffffff1682840391508167ffffffffffffffff1611151515615650576040517f08c379a000000000000000000000000000000000000000000000000000000000815260040180806020018281038252600d8152602001807f7375622d756e646572666c6f770000000000000000000000000000000000000081526020015060200191505060405180910390fd5b5b92915050565b600060008573ffffffffffffffffffffffffffffffffffffffff166323b872dd60e01b868686604051602401808473ffffffffffffffffffffffffffffffffffffffff1681526020018373ffffffffffffffffffffffffffffffffffffffff1681526020018281526020019350505050604051602081830303815290604052907bffffffffffffffffffffffffffffffffffffffffffffffffffffffff19166020820180517bffffffffffffffffffffffffffffffffffffffffffffffffffffffff83818316178352505050506040518082805190602001908083835b60208310151561575a57805182525b602082019150602081019050602083039250615734565b6001836020036101000a0380198251168184511680821785525050505050509050019150506000604051808303816000865af19150503d80600081146157bc576040519150601f19603f3d011682016040523d82523d6000602084013e6157c1565b606091505b5091509150818015615802575060008151148061580157508080602001905160208110156157ef5760006000fd5b81019080805190602001909291905050505b5b1515615879576040517f08c379a00000000000000000000000000000000000000000000000000000000081526004018080602001828103825260038152602001807f535446000000000000000000000000000000000000000000000000000000000081526020015060200191505060405180910390fd5b50505b50505050565b60008173ffffffffffffffffffffffffffffffffffffffff166370a08231306040518263ffffffff1660e01b81526004016158bd9190616e12565b60206040518083038186803b1580156158d65760006000fd5b505afa1580156158eb573d600060003e3d6000fd5b505050506040513d601f19601f8201168201806040525081019061590f9190616a89565b90506000811115615a13577f000000000000000000000000000000000000000000000000000000000000000073ffffffffffffffffffffffffffffffffffffffff168273ffffffffffffffffffffffffffffffffffffffff161415615a00577f000000000000000000000000000000000000000000000000000000000000000073ffffffffffffffffffffffffffffffffffffffff16632e1a7d4d826040518263ffffffff1660e01b81526004016159c7919061759e565b600060405180830381600087803b1580156159e25760006000fd5b505af11580156159f7573d600060003e3d6000fd5b50505050615a12565b615a11823383615e4c63ffffffff16565b5b5b505b50565b60008273ffffffffffffffffffffffffffffffffffffffff1682600067ffffffffffffffff81118015615a4b5760006000fd5b506040519080825280601f01601f191660200182016040528015615a7e5781602001600182028036833780820191505090505b506040518082805190602001908083835b602083101515615ab557805182525b602082019150602081019050602083039250615a8f565b6001836020036101000a03801982511681845116808217855250505050505090500191505060006040518083038185875af1925050503d8060008114615b17576040519150601f19603f3d011682016040523d82523d6000602084013e615b1c565b606091505b50509050801515615b98576040517f08c379a00000000000000000000000000000000000000000000000000000000081526004018080602001828103825260038152602001807f535445000000000000000000000000000000000000000000000000000000000081526020015060200191505060405180910390fd5b505b5050565b6000780100000000000000000000000000000000000000000000000082101515615c33576040517f08c379a00000000000000000000000000000000000000000000000000000000081526004018080602001828103825260128152602001807f6d6f7265207468616e203139322062697473000000000000000000000000000081526020015060200191505060405180910390fd5b819050615c3b565b919050565b600060008473ffffffffffffffffffffffffffffffffffffffff1663095ea7b360e01b8585604051602401808373ffffffffffffffffffffffffffffffffffffffff16815260200182815260200192505050604051602081830303815290604052907bffffffffffffffffffffffffffffffffffffffffffffffffffffffff19166020820180517bffffffffffffffffffffffffffffffffffffffffffffffffffffffff83818316178352505050506040518082805190602001908083835b602083101515615d2557805182525b602082019150602081019050602083039250615cff565b6001836020036101000a0380198251168184511680821785525050505050509050019150506000604051808303816000865af19150503d8060008114615d87576040519150601f19603f3d011682016040523d82523d6000602084013e615d8c565b606091505b5091509150818015615dcd5750600081511480615dcc5750808060200190516020811015615dba5760006000fd5b81019080805190602001909291905050505b5b1515615e44576040517f08c379a00000000000000000000000000000000000000000000000000000000081526004018080602001828103825260028152602001807f534100000000000000000000000000000000000000000000000000000000000081526020015060200191505060405180910390fd5b50505b505050565b600060008473ffffffffffffffffffffffffffffffffffffffff1663a9059cbb60e01b8585604051602401808373ffffffffffffffffffffffffffffffffffffffff16815260200182815260200192505050604051602081830303815290604052907bffffffffffffffffffffffffffffffffffffffffffffffffffffffff19166020820180517bffffffffffffffffffffffffffffffffffffffffffffffffffffffff83818316178352505050506040518082805190602001908083835b602083101515615f3157805182525b602082019150602081019050602083039250615f0b565b6001836020036101000a0380198251168184511680821785525050505050509050019150506000604051808303816000865af19150503d8060008114615f93576040519150601f19603f3d011682016040523d82523d6000602084013e615f98565b606091505b5091509150818015615fd95750600081511480615fd85750808060200190516020811015615fc65760006000fd5b81019080805190602001909291905050505b5b1515616050576040517f08c379a00000000000000000000000000000000000000000000000000000000081526004018080602001828103825260028152602001807f535400000000000000000000000000000000000000000000000000000000000081526020015060200191505060405180910390fd5b50505b505050565b604051806101800160405280600073ffffffffffffffffffffffffffffffffffffffff168152602001600061ffff16815260200160008152602001600081526020016000815260200160006fffffffffffffffffffffffffffffffff168152602001600067ffffffffffffffff168152602001600060020b8152602001600060020b8152602001600063ffffffff168152602001600073ffffffffffffffffffffffffffffffffffffffff168152602001600067ffffffffffffffff1681526020015090565b6040518060a001604052806000815260200160006fffffffffffffffffffffffffffffffff1681526020016000815260200160008152602001600081526020015090565b6040518060400160405280600015158152602001600060020b81526020015090566177f9565b6000813590506161978161771b565b5b919050565b6000815190506161ac8161771b565b5b919050565b6000813590506161c181617759565b5b919050565b6000815190506161d681617759565b5b919050565b60006101808083850312156161ef578182fd5b6161f8816176f0565b91505061620482616188565b8152616212602083016162e5565b602082015260408201356040820152606082013560608201526080820135608082015261624160a083016162bb565b60a082015261625260c08301616363565b60c082015261626360e083016161b2565b60e08201526101006162768184016161b2565b8183015250610120616289818401616339565b818301525061014061629c818401616188565b81830152506101606162af818401616363565b81830152505b92915050565b6000813590506162ca8161776f565b5b919050565b6000815190506162df8161776f565b5b919050565b6000813590506162f481617794565b5b919050565b60008151905061630981617794565b5b919050565b60008135905061631e816177ab565b5b919050565b600081519050616333816177ab565b5b919050565b600081359050616348816177c3565b5b919050565b60008151905061635d816177c3565b5b919050565b600081359050616372816177dc565b5b919050565b600081519050616387816177dc565b5b919050565b60006020828403121561639e578081fd5b81516163a98161771b565b809150505b92915050565b6000602082840312156163c5578081fd5b81356163d081617744565b809150505b92915050565b6000602082840312156163ec578081fd5b81516163f781617744565b809150505b92915050565b600060208284031215616413578081fd5b81357fffffffff00000000000000000000000000000000000000000000000000000000811681141515616444578182fd5b809150505b92915050565b600060208284031215616460578081fd5b815161646b8161771b565b809150505b92915050565b600060208284031215616487578081fd5b81356164928161771b565b809150505b92915050565b600060006000604084860312156164b2578182fd5b83356164bd8161771b565b80935050602084013567ffffffffffffffff808211156164db578384fd5b818601915086601f83011215156164f0578384fd5b8135818111156164fe578485fd5b876020602083028501011115616512578485fd5b6020830194508093505050505b9250925092565b6000600060408385031215616539578182fd5b82356165448161771b565b8092505060208301356165568161771b565b809150505b9250929050565b6000600060408385031215616575578182fd5b82356165808161771b565b809250506020830135616592816177dc565b809150505b9250929050565b6000602082840312156165af578081fd5b81516165ba81617759565b809150505b92915050565b6000600082840360c08112156165d9578283fd5b60a08112156165e6578283fd5b5082915060a08301356165f8816177c3565b809150505b9250929050565b600060a08284031215616615578081fd5b60405160a0810181811067ffffffffffffffff8211171561663257fe5b80604052508235815260208301356166498161776f565b80602083015250604083013560408201526060830135606082015260808301356080820152809150505b92915050565b6000600082840360e081121561668d578283fd5b60c081121561669a578283fd5b5082915060c08301356166ac816177c3565b809150505b9250929050565b600060008284036101808112156166cd578283fd5b610160808212156166dc578384fd5b6166e5816176f0565b91506166f085616188565b82526166fe60208601616188565b602083015261670f6040860161630f565b6040830152616720606086016161b2565b6060830152616731608086016161b2565b608083015260a085013560a083015260c085013560c083015260e085013560e083015261010080860135818401525061012061676e818701616188565b818401525061014080860135818401525081935061678d818601616339565b925050505b9250929050565b60006101808083850312156167ac578182fd5b6167b5816176f0565b90506167c08361619d565b81526167ce602084016162fa565b60208201526040830151604082015260608301516060820152608083015160808201526167fd60a084016162d0565b60a082015261680e60c08401616378565b60c082015261681f60e084016161c7565b60e08201526101006168328185016161c7565b818301525061012061684581850161634e565b818301525061014061685881850161619d565b818301525061016061686b818501616378565b8183015250809150505b92915050565b600060006101a0838503121561688f578182fd5b61689984846161dc565b91506101808301356168aa81617759565b809150505b9250929050565b6000600060008385036101e08112156168cd578182fd5b6168d786866161dc565b935060407ffffffffffffffffffffffffffffffffffffffffffffffffffffffffffffffe8082011215616908578182fd5b506040516040810181811067ffffffffffffffff8211171561692657fe5b806040525061018085013581526101a08501356020820152809250506101c0840135616951816177dc565b809150505b9250925092565b60006040828403121561696e578081fd5b6040516040810181811067ffffffffffffffff8211171561698b57fe5b80604052508251815260208301516020820152809150505b92915050565b6000602082840312156169ba578081fd5b81356169c58161776f565b809150505b92915050565b600060006000606084860312156169e5578081fd5b83516169f08161776f565b8093505060208401519150604084015190505b9250925092565b600060208284031215616a1b578081fd5b8135616a2681617794565b809150505b92915050565b6000600060408385031215616a44578182fd5b8235616a4f81617794565b809250506020830135616a61816177dc565b809150505b9250929050565b600060208284031215616a7e578081fd5b813590505b92915050565b600060208284031215616a9a578081fd5b815190505b92915050565b600060006000600060808587031215616abc578182fd5b845193506020850151616ace8161776f565b8093505060408501519150606085015190505b92959194509250565b6000600060408385031215616afd578182fd5b82519150602083015190505b9250929050565b6000600060408385031215616b23578182fd5b823591506020830135616b35816177c3565b809150505b9250929050565b600060208284031215616b52578081fd5b8135616b5d816177c3565b809150505b92915050565b600060208284031215616b79578081fd5b8135616b84816177dc565b809150505b92915050565b600060208284031215616ba0578081fd5b8151616bab816177dc565b809150505b92915050565b6000600060006000600060006000600060006000600060006101808d8f031215616bde57898afd5b8c516bffffffffffffffffffffffff811681141515616bfb578a8bfd5b809c5050616c0b60208e0161619d565b9a50616c1960408e0161619d565b9950616c2760608e0161619d565b9850616c3560808e01616324565b9750616c4360a08e016161c7565b9650616c5160c08e016161c7565b9550616c5f60e08e016162d0565b94506101008d015193506101208d01519250616c7e6101408e016162d0565b9150616c8d6101608e016162d0565b90505b9295989b509295989b509295989b565b73ffffffffffffffffffffffffffffffffffffffff811682525b5050565b8060020b82525b5050565b616cd4828251616ca0565b6020810151616ce66020840182616db1565b5060408101516040830152606081015160608301526080810151608083015260a0810151616d1760a0840182616d97565b5060c0810151616d2a60c0840182616dd8565b5060e0810151616d3d60e0840182616cbe565b5061010080820151616d5182850182616cbe565b505061012080820151616d6682850182616dca565b505061014080820151616d7b82850182616ca0565b505061016080820151616d9082850182616dd8565b50505b5050565b6fffffffffffffffffffffffffffffffff811682525b5050565b61ffff811682525b5050565b62ffffff811682525b5050565b63ffffffff811682525b5050565b67ffffffffffffffff811682525b5050565b600060208201905073ffffffffffffffffffffffffffffffffffffffff831682525b92915050565b600060208201905073ffffffffffffffffffffffffffffffffffffffff831682525b92915050565b600060408201905073ffffffffffffffffffffffffffffffffffffffff841682528260208301525b9392505050565b600060608201905073ffffffffffffffffffffffffffffffffffffffff808616835280851660208401525062ffffff831660408301525b949350505050565b600060408201905073ffffffffffffffffffffffffffffffffffffffff841682528260208301525b9392505050565b600060608201905073ffffffffffffffffffffffffffffffffffffffff80861683528460208401528084166040840152505b949350505050565b600060208201905082151582525b92915050565b600060208201905073ffffffffffffffffffffffffffffffffffffffff831682525b92915050565b600060208201905073ffffffffffffffffffffffffffffffffffffffff831682525b92915050565b600060208201905073ffffffffffffffffffffffffffffffffffffffff831682525b92915050565b600060208201905073ffffffffffffffffffffffffffffffffffffffff831682525b92915050565b600060208201905073ffffffffffffffffffffffffffffffffffffffff831682525b92915050565b600060c08201905073ffffffffffffffffffffffffffffffffffffffff881682528660020b60208301528560020b60408301528460020b60608301526fffffffffffffffffffffffffffffffff8416608083015263ffffffff831660a08301525b979650505050505050565b600060408201905073ffffffffffffffffffffffffffffffffffffffff841682526fffffffffffffffffffffffffffffffff831660208301525b9392505050565b600060408201905073ffffffffffffffffffffffffffffffffffffffff8416825263ffffffff831660208301525b9392505050565b600060408201905073ffffffffffffffffffffffffffffffffffffffff8416825267ffffffffffffffff831660208301525b9392505050565b60006060820190508460020b82528360020b60208301526fffffffffffffffffffffffffffffffff831660408301525b949350505050565b600060208252601660208301527f4c6971756964697479206e6f7420696e2072616e67650000000000000000000060408301526060820190505b919050565b600060208252601c60208301527f4d617820706572696f642077697468647261772065786365656465640000000060408301526060820190505b919050565b600060208252601260208301527f416c72656164792072656769737465726564000000000000000000000000000060408301526060820190505b919050565b600060208252601460208301527f496e63656e7469766520746f74616c206973203000000000000000000000000060408301526060820190505b919050565b600060208252601260208301527f506f736974696f6e20746f6f20736d616c6c000000000000000000000000000060408301526060820190505b919050565b600060208252600b60208301527f506f6f6c2065786973747300000000000000000000000000000000000000000060408301526060820190505b919050565b600060208252600e60208301527f496e76616c696420706f6f6c494400000000000000000000000000000000000060408301526060820190505b919050565b600060208252601260208301527f4e6f20666c617368206c6971756964697479000000000000000000000000000060408301526060820190505b919050565b600060208252600760208301527f496e76616c69640000000000000000000000000000000000000000000000000060408301526060820190505b919050565b60006080820190508251825273ffffffffffffffffffffffffffffffffffffffff602084015116602083015260408301516fffffffffffffffffffffffffffffffff808216604085015280606086015116606085015250505b92915050565b600060a082019050825182526fffffffffffffffffffffffffffffffff60208401511660208301526040830151604083015260608301516060830152608083015160808301525b92915050565b600060c082019050823582526020830135602083015260408301356040830152606083013560608301526080830135608083015260a083013560a08301525b92915050565b60006101608201905061747c828451616ca0565b602083015161748e6020840182616ca0565b5060408301516174a16040840182616dbd565b5060608301516174b46060840182616cbe565b5060808301516174c76080840182616cbe565b5060a083015160a083015260c083015160c083015260e083015160e08301526101008084015181840152506101208084015161750582850182616ca0565b50506101408084015181840152505b92915050565b60006101a08201905061752d8285616cc9565b826101808301525b9392505050565b60006020820190506fffffffffffffffffffffffffffffffff831682525b92915050565b600060208201905061ffff831682525b92915050565b600060608201905061ffff8416825282516020830152602083015160408301525b9392505050565b60006020820190508282525b92915050565b600060408201905083825273ffffffffffffffffffffffffffffffffffffffff831660208301525b9392505050565b60006101a0820190508382526175f86020830184616cc9565b5b9392505050565b60006040820190508382526fffffffffffffffffffffffffffffffff831660208301525b9392505050565b60006040820190508382528260208301525b9392505050565b600060408201905083825267ffffffffffffffff831660208301525b9392505050565b600060208201905063ffffffff831682525b92915050565b600060208201905063ffffffff831682525b92915050565b600060208201905067ffffffffffffffff831682525b92915050565b600060408201905067ffffffffffffffff8416825277ffffffffffffffffffffffffffffffffffffffffffffffff831660208301525b9392505050565b6000604051905081810181811067ffffffffffffffff8211171561771057fe5b80604052505b919050565b73ffffffffffffffffffffffffffffffffffffffff8116811415156177405760006000fd5b5b50565b801515811415156177555760006000fd5b5b50565b8060020b8114151561776b5760006000fd5b5b50565b6fffffffffffffffffffffffffffffffff8116811415156177905760006000fd5b5b50565b61ffff8116811415156177a75760006000fd5b5b50565b62ffffff8116811415156177bf5760006000fd5b5b50565b63ffffffff8116811415156177d85760006000fd5b5b50565b67ffffffffffffffff8116811415156177f55760006000fd5b5b50565bfea26469706673582212209c000bf0de258b6a4e1bd52540ceaa33cecc6a8088c93b03150df315cd5329f764736f6c63430007060033",
  "linkReferences": {},
  "deployedLinkReferences": {}
}