{
  "_format": "hh-sol-artifact-1",
  "contractName": "TCPSafeMath",
  "sourceName": "contracts/core/utils/TCPSafeMath.sol",
  "abi": [
    {
      "inputs": [],
      "name": "ONE",
      "outputs": [
        {
          "internalType": "uint256",
          "name": "",
          "type": "uint256"
        }
      ],
      "stateMutability": "view",
      "type": "function"
    }
  ],
  "bytecode": "0x609a610027600b82828239805160001a6073141515601957fe5b30600052607381538281f350fe730000000000000000000000000000000000000000301460806040526004361060365760003560e01c8063c2ee3a0814603c576036565b60006000fd5b60426058565b6040518082815260200191505060405180910390f35b670de0b6b3a76400008156fea2646970667358221220fce29e20a8aa68c7c8c2728ea61e907c5f5c55e0c2119e2518e8f6e1a8fd0bfe64736f6c63430007060033",
  "linkReferences": {},
  "deployedLinkReferences": {}
}