{
  "_format": "hh-sol-artifact-1",
  "contractName": "Auctions",
  "sourceName": "contracts/core/logic/Auctions.sol",
  "abi": [
    {
      "anonymous": false,
      "inputs": [
        {
          "indexed": true,
          "internalType": "uint64",
          "name": "auctionID",
          "type": "uint64"
        },
        {
          "indexed": true,
          "internalType": "address",
          "name": "bidder",
          "type": "address"
        },
        {
          "indexed": false,
          "internalType": "uint256",
          "name": "bid",
          "type": "uint256"
        }
      ],
      "name": "DeficitAuctionBid",
      "type": "event"
    },
    {
      "anonymous": false,
      "inputs": [
        {
          "indexed": true,
          "internalType": "uint64",
          "name": "auctionID",
          "type": "uint64"
        },
        {
          "indexed": true,
          "internalType": "address",
          "name": "winner",
          "type": "address"
        }
      ],
      "name": "DeficitAuctionSettled",
      "type": "event"
    },
    {
      "anonymous": false,
      "inputs": [
        {
          "indexed": true,
          "internalType": "uint64",
          "name": "auctionID",
          "type": "uint64"
        },
        {
          "indexed": true,
          "internalType": "uint256",
          "name": "count",
          "type": "uint256"
        },
        {
          "indexed": false,
          "internalType": "uint64",
          "name": "maxEndTime",
          "type": "uint64"
        }
      ],
      "name": "DeficitAuctionStarted",
      "type": "event"
    },
    {
      "anonymous": false,
      "inputs": [
        {
          "indexed": true,
          "internalType": "address",
          "name": "governor",
          "type": "address"
        }
      ],
      "name": "Initialized",
      "type": "event"
    },
    {
      "anonymous": false,
      "inputs": [
        {
          "indexed": true,
          "internalType": "string",
          "name": "paramName",
          "type": "string"
        },
        {
          "indexed": false,
          "internalType": "uint256",
          "name": "value",
          "type": "uint256"
        }
      ],
      "name": "ParameterUpdated",
      "type": "event"
    },
    {
      "anonymous": false,
      "inputs": [
        {
          "indexed": true,
          "internalType": "string",
          "name": "paramName",
          "type": "string"
        },
        {
          "indexed": false,
          "internalType": "uint64",
          "name": "value",
          "type": "uint64"
        }
      ],
      "name": "ParameterUpdated64",
      "type": "event"
    },
    {
      "anonymous": false,
      "inputs": [],
      "name": "Stopped",
      "type": "event"
    },
    {
      "anonymous": false,
      "inputs": [
        {
          "indexed": true,
          "internalType": "uint64",
          "name": "auctionID",
          "type": "uint64"
        },
        {
          "indexed": true,
          "internalType": "address",
          "name": "bidder",
          "type": "address"
        },
        {
          "indexed": false,
          "internalType": "uint256",
          "name": "bid",
          "type": "uint256"
        }
      ],
      "name": "SurplusAuctionBid",
      "type": "event"
    },
    {
      "anonymous": false,
      "inputs": [
        {
          "indexed": true,
          "internalType": "uint64",
          "name": "auctionID",
          "type": "uint64"
        },
        {
          "indexed": true,
          "internalType": "address",
          "name": "winner",
          "type": "address"
        }
      ],
      "name": "SurplusAuctionSettled",
      "type": "event"
    },
    {
      "anonymous": false,
      "inputs": [
        {
          "indexed": true,
          "internalType": "uint64",
          "name": "auctionID",
          "type": "uint64"
        },
        {
          "indexed": true,
          "internalType": "uint256",
          "name": "count",
          "type": "uint256"
        },
        {
          "indexed": false,
          "internalType": "uint64",
          "name": "maxEndTime",
          "type": "uint64"
        }
      ],
      "name": "SurplusAuctionStarted",
      "type": "event"
    },
    {
      "inputs": [
        {
          "internalType": "uint64",
          "name": "auctionID",
          "type": "uint64"
        },
        {
          "internalType": "uint128",
          "name": "bid",
          "type": "uint128"
        }
      ],
      "name": "bidDeficitAuction",
      "outputs": [],
      "stateMutability": "nonpayable",
      "type": "function"
    },
    {
      "inputs": [
        {
          "internalType": "uint64",
          "name": "auctionID",
          "type": "uint64"
        },
        {
          "internalType": "uint128",
          "name": "bid",
          "type": "uint128"
        }
      ],
      "name": "bidSurplusAuction",
      "outputs": [],
      "stateMutability": "nonpayable",
      "type": "function"
    },
    {
      "inputs": [],
      "name": "checkReservesAndStartAuctions",
      "outputs": [],
      "stateMutability": "nonpayable",
      "type": "function"
    },
    {
      "inputs": [
        {
          "internalType": "uint64",
          "name": "",
          "type": "uint64"
        }
      ],
      "name": "deficitAuction",
      "outputs": [
        {
          "internalType": "uint128",
          "name": "count",
          "type": "uint128"
        },
        {
          "internalType": "uint128",
          "name": "bid",
          "type": "uint128"
        },
        {
          "internalType": "address",
          "name": "bidder",
          "type": "address"
        },
        {
          "internalType": "uint48",
          "name": "endTime",
          "type": "uint48"
        },
        {
          "internalType": "uint48",
          "name": "maxEndTime",
          "type": "uint48"
        }
      ],
      "stateMutability": "view",
      "type": "function"
    },
    {
      "inputs": [
        {
          "internalType": "uint64",
          "name": "auctionID",
          "type": "uint64"
        }
      ],
      "name": "deficitAuctionComplete",
      "outputs": [
        {
          "internalType": "bool",
          "name": "",
          "type": "bool"
        }
      ],
      "stateMutability": "view",
      "type": "function"
    },
    {
      "inputs": [],
      "name": "deficitAuctionCount",
      "outputs": [
        {
          "internalType": "uint64",
          "name": "",
          "type": "uint64"
        }
      ],
      "stateMutability": "view",
      "type": "function"
    },
    {
      "inputs": [
        {
          "internalType": "uint64",
          "name": "auctionID",
          "type": "uint64"
        }
      ],
      "name": "deficitAuctionLive",
      "outputs": [
        {
          "internalType": "bool",
          "name": "",
          "type": "bool"
        }
      ],
      "stateMutability": "view",
      "type": "function"
    },
    {
      "inputs": [],
      "name": "deployer",
      "outputs": [
        {
          "internalType": "address",
          "name": "",
          "type": "address"
        }
      ],
      "stateMutability": "view",
      "type": "function"
    },
    {
      "inputs": [],
      "name": "extensionPerBid",
      "outputs": [
        {
          "internalType": "uint64",
          "name": "",
          "type": "uint64"
        }
      ],
      "stateMutability": "view",
      "type": "function"
    },
    {
      "inputs": [
        {
          "internalType": "uint64",
          "name": "start",
          "type": "uint64"
        },
        {
          "internalType": "bool",
          "name": "surplus",
          "type": "bool"
        }
      ],
      "name": "getAllAuctions",
      "outputs": [
        {
          "components": [
            {
              "internalType": "uint128",
              "name": "count",
              "type": "uint128"
            },
            {
              "internalType": "uint128",
              "name": "bid",
              "type": "uint128"
            },
            {
              "internalType": "address",
              "name": "bidder",
              "type": "address"
            },
            {
              "internalType": "uint48",
              "name": "endTime",
              "type": "uint48"
            },
            {
              "internalType": "uint48",
              "name": "maxEndTime",
              "type": "uint48"
            }
          ],
          "internalType": "struct IAuctions.Auction[]",
          "name": "_auctions",
          "type": "tuple[]"
        },
        {
          "internalType": "uint256[]",
          "name": "_auctionIDs",
          "type": "uint256[]"
        },
        {
          "internalType": "bool[]",
          "name": "_isComplete",
          "type": "bool[]"
        }
      ],
      "stateMutability": "view",
      "type": "function"
    },
    {
      "inputs": [],
      "name": "governor",
      "outputs": [
        {
          "internalType": "contract IGovernor",
          "name": "",
          "type": "address"
        }
      ],
      "stateMutability": "view",
      "type": "function"
    },
    {
      "inputs": [],
      "name": "hueToBeBought",
      "outputs": [
        {
          "internalType": "uint256",
          "name": "",
          "type": "uint256"
        }
      ],
      "stateMutability": "view",
      "type": "function"
    },
    {
      "inputs": [],
      "name": "hueToBeSold",
      "outputs": [
        {
          "internalType": "uint256",
          "name": "",
          "type": "uint256"
        }
      ],
      "stateMutability": "view",
      "type": "function"
    },
    {
      "inputs": [
        {
          "internalType": "contract IGovernor",
          "name": "_governor",
          "type": "address"
        }
      ],
      "name": "init",
      "outputs": [],
      "stateMutability": "nonpayable",
      "type": "function"
    },
    {
      "inputs": [],
      "name": "latestAuctionCompletionTime",
      "outputs": [
        {
          "internalType": "uint64",
          "name": "",
          "type": "uint64"
        }
      ],
      "stateMutability": "view",
      "type": "function"
    },
    {
      "inputs": [],
      "name": "maxAuctionDuration",
      "outputs": [
        {
          "internalType": "uint64",
          "name": "",
          "type": "uint64"
        }
      ],
      "stateMutability": "view",
      "type": "function"
    },
    {
      "inputs": [],
      "name": "maxBatchSize",
      "outputs": [
        {
          "internalType": "uint64",
          "name": "",
          "type": "uint64"
        }
      ],
      "stateMutability": "view",
      "type": "function"
    },
    {
      "inputs": [],
      "name": "maxDeficitLotSize",
      "outputs": [
        {
          "internalType": "uint256",
          "name": "",
          "type": "uint256"
        }
      ],
      "stateMutability": "view",
      "type": "function"
    },
    {
      "inputs": [],
      "name": "maxSurplusLotSize",
      "outputs": [
        {
          "internalType": "uint256",
          "name": "",
          "type": "uint256"
        }
      ],
      "stateMutability": "view",
      "type": "function"
    },
    {
      "inputs": [],
      "name": "minAuctionDuration",
      "outputs": [
        {
          "internalType": "uint64",
          "name": "",
          "type": "uint64"
        }
      ],
      "stateMutability": "view",
      "type": "function"
    },
    {
      "inputs": [],
      "name": "minBidDelta",
      "outputs": [
        {
          "internalType": "uint256",
          "name": "",
          "type": "uint256"
        }
      ],
      "stateMutability": "view",
      "type": "function"
    },
    {
      "inputs": [],
      "name": "minLotSize",
      "outputs": [
        {
          "internalType": "uint256",
          "name": "",
          "type": "uint256"
        }
      ],
      "stateMutability": "view",
      "type": "function"
    },
    {
      "inputs": [],
      "name": "reservesBufferLowerBound",
      "outputs": [
        {
          "internalType": "uint256",
          "name": "",
          "type": "uint256"
        }
      ],
      "stateMutability": "view",
      "type": "function"
    },
    {
      "inputs": [],
      "name": "reservesBufferUpperBound",
      "outputs": [
        {
          "internalType": "uint256",
          "name": "",
          "type": "uint256"
        }
      ],
      "stateMutability": "view",
      "type": "function"
    },
    {
      "inputs": [
        {
          "internalType": "uint64",
          "name": "extension",
          "type": "uint64"
        }
      ],
      "name": "setExtensionPerBid",
      "outputs": [],
      "stateMutability": "nonpayable",
      "type": "function"
    },
    {
      "inputs": [
        {
          "internalType": "uint64",
          "name": "duration",
          "type": "uint64"
        }
      ],
      "name": "setMaxAuctionDuration",
      "outputs": [],
      "stateMutability": "nonpayable",
      "type": "function"
    },
    {
      "inputs": [
        {
          "internalType": "uint64",
          "name": "size",
          "type": "uint64"
        }
      ],
      "name": "setMaxBatchSize",
      "outputs": [],
      "stateMutability": "nonpayable",
      "type": "function"
    },
    {
      "inputs": [
        {
          "internalType": "uint256",
          "name": "size",
          "type": "uint256"
        }
      ],
      "name": "setMaxDeficitLotSize",
      "outputs": [],
      "stateMutability": "nonpayable",
      "type": "function"
    },
    {
      "inputs": [
        {
          "internalType": "uint256",
          "name": "size",
          "type": "uint256"
        }
      ],
      "name": "setMaxSurplusLotSize",
      "outputs": [],
      "stateMutability": "nonpayable",
      "type": "function"
    },
    {
      "inputs": [
        {
          "internalType": "uint64",
          "name": "duration",
          "type": "uint64"
        }
      ],
      "name": "setMinAuctionDuration",
      "outputs": [],
      "stateMutability": "nonpayable",
      "type": "function"
    },
    {
      "inputs": [
        {
          "internalType": "uint256",
          "name": "delta",
          "type": "uint256"
        }
      ],
      "name": "setMinBidDelta",
      "outputs": [],
      "stateMutability": "nonpayable",
      "type": "function"
    },
    {
      "inputs": [
        {
          "internalType": "uint256",
          "name": "size",
          "type": "uint256"
        }
      ],
      "name": "setMinLotSize",
      "outputs": [],
      "stateMutability": "nonpayable",
      "type": "function"
    },
    {
      "inputs": [
        {
          "internalType": "uint256",
          "name": "bound",
          "type": "uint256"
        }
      ],
      "name": "setReservesBufferLowerBound",
      "outputs": [],
      "stateMutability": "nonpayable",
      "type": "function"
    },
    {
      "inputs": [
        {
          "internalType": "uint256",
          "name": "bound",
          "type": "uint256"
        }
      ],
      "name": "setReservesBufferUpperBound",
      "outputs": [],
      "stateMutability": "nonpayable",
      "type": "function"
    },
    {
      "inputs": [
        {
          "internalType": "uint32",
          "name": "duration",
          "type": "uint32"
        }
      ],
      "name": "setTwapDuration",
      "outputs": [],
      "stateMutability": "nonpayable",
      "type": "function"
    },
    {
      "inputs": [
        {
          "internalType": "uint64",
          "name": "auctionID",
          "type": "uint64"
        }
      ],
      "name": "settleDeficitAuction",
      "outputs": [],
      "stateMutability": "nonpayable",
      "type": "function"
    },
    {
      "inputs": [
        {
          "internalType": "uint64",
          "name": "auctionID",
          "type": "uint64"
        }
      ],
      "name": "settleSurplusAuction",
      "outputs": [],
      "stateMutability": "nonpayable",
      "type": "function"
    },
    {
      "inputs": [],
      "name": "shouldStartAuctions",
      "outputs": [
        {
          "internalType": "uint256",
          "name": "surplusAmount",
          "type": "uint256"
        },
        {
          "internalType": "uint256",
          "name": "deficitAmount",
          "type": "uint256"
        }
      ],
      "stateMutability": "view",
      "type": "function"
    },
    {
      "inputs": [],
      "name": "stop",
      "outputs": [],
      "stateMutability": "nonpayable",
      "type": "function"
    },
    {
      "inputs": [],
      "name": "stopped",
      "outputs": [
        {
          "internalType": "bool",
          "name": "",
          "type": "bool"
        }
      ],
      "stateMutability": "view",
      "type": "function"
    },
    {
      "inputs": [
        {
          "internalType": "uint64",
          "name": "",
          "type": "uint64"
        }
      ],
      "name": "surplusAuction",
      "outputs": [
        {
          "internalType": "uint128",
          "name": "count",
          "type": "uint128"
        },
        {
          "internalType": "uint128",
          "name": "bid",
          "type": "uint128"
        },
        {
          "internalType": "address",
          "name": "bidder",
          "type": "address"
        },
        {
          "internalType": "uint48",
          "name": "endTime",
          "type": "uint48"
        },
        {
          "internalType": "uint48",
          "name": "maxEndTime",
          "type": "uint48"
        }
      ],
      "stateMutability": "view",
      "type": "function"
    },
    {
      "inputs": [
        {
          "internalType": "uint64",
          "name": "auctionID",
          "type": "uint64"
        }
      ],
      "name": "surplusAuctionComplete",
      "outputs": [
        {
          "internalType": "bool",
          "name": "",
          "type": "bool"
        }
      ],
      "stateMutability": "view",
      "type": "function"
    },
    {
      "inputs": [],
      "name": "surplusAuctionCount",
      "outputs": [
        {
          "internalType": "uint64",
          "name": "",
          "type": "uint64"
        }
      ],
      "stateMutability": "view",
      "type": "function"
    },
    {
      "inputs": [
        {
          "internalType": "uint64",
          "name": "auctionID",
          "type": "uint64"
        }
      ],
      "name": "surplusAuctionLive",
      "outputs": [
        {
          "internalType": "bool",
          "name": "",
          "type": "bool"
        }
      ],
      "stateMutability": "view",
      "type": "function"
    },
    {
      "inputs": [],
      "name": "tcp",
      "outputs": [
        {
          "internalType": "contract ITCP",
          "name": "",
          "type": "address"
        }
      ],
      "stateMutability": "view",
      "type": "function"
    },
    {
      "inputs": [],
      "name": "twapDuration",
      "outputs": [
        {
          "internalType": "uint32",
          "name": "",
          "type": "uint32"
        }
      ],
      "stateMutability": "view",
      "type": "function"
    },
    {
      "inputs": [
        {
          "internalType": "bytes4",
          "name": "",
          "type": "bytes4"
        }
      ],
      "name": "validUpdate",
      "outputs": [
        {
          "internalType": "bool",
          "name": "",
          "type": "bool"
        }
      ],
      "stateMutability": "view",
      "type": "function"
    }
  ],
  "bytecode": "0x608060405260016006600050909055670e4b4b8af6a70000600760005090905568878678326eac900000600860005090905569043c33c1937564800000600960005090905569043c33c1937564800000600a600050909055662386f26fc10000600b60005090905566b1a2bc2ec50000600c6000509090556005600d60006101000a81548167ffffffffffffffff021916908367ffffffffffffffff160217905550610708600d60086101000a81548167ffffffffffffffff021916908367ffffffffffffffff16021790555062015180600d60106101000a81548167ffffffffffffffff021916908367ffffffffffffffff1602179055506202a300600d60186101000a81548167ffffffffffffffff021916908367ffffffffffffffff160217905550610708601060186101000a81548163ffffffff021916908363ffffffff160217905550348015620001555760006000fd5b505b33600160006101000a81548173ffffffffffffffffffffffffffffffffffffffff021916908373ffffffffffffffffffffffffffffffffffffffff1602179055505b6200019f565b615f0080620001af6000396000f3fe60806040523480156100115760006000fd5b506004361061031a5760003560e01c806354f634fb116101a85780639052537e116100ef578063caa98b6011610098578063d7abba0c11610072578063d7abba0c1461089f578063ddf31e67146108bb578063faf95d2d146108d75761031a565b8063caa98b6014610835578063d005d2eb14610865578063d5f39488146108815761031a565b8063afea44ef116100c9578063afea44ef146107df578063c2b6722a146107fb578063c433c80a146108195761031a565b80639052537e1461079b57806399e1998f146107b9578063a958c033146107d55761031a565b806375f12b211161015157806387d2fecd1161012b57806387d2fecd14610745578063887c67d9146107635780638d56248a1461077f5761031a565b806375f12b21146106d75780637d695351146106f55780637eb12af7146107275761031a565b8063616cb0cf11610182578063616cb0cf14610669578063651cf64d1461068757806375d0ef52146106bb5761031a565b806354f634fb146105fd578063597e899f1461061b57806360aad9bf1461064b5761031a565b80633427c4ef1161026c5780634079b8fc116102155780634ae8470d116101ef5780634ae8470d146105a557806354134876146105c157806354cccf08146105df5761031a565b80634079b8fc1461053b57806348c9581e1461056b5780634a2304b1146105895761031a565b806337ca44fc1161024657806337ca44fc146104d35780633a3a63df146104ef57806340601add1461050b5761031a565b80633427c4ef1461046557806334b144751461049957806336fc02f4146104b55761031a565b806319ab453c116102ce57806326d89545116102a857806326d895451461040b57806327399e21146104295780632913daa0146104475761031a565b806319ab453c146103b25780631b875768146103ce57806325df9538146103ec5761031a565b80630fb4e2b3116102ff5780630fb4e2b3146103485780630fe8690714610364578063113cf1ab146103825761031a565b806307da68f5146103205780630c340a241461032a5761031a565b60006000fd5b6103286108f5565b005b610332610915565b60405161033f9190615a5e565b60405180910390f35b610362600480360381019061035d919061558c565b61093b565b005b61036c6109c2565b6040516103799190615e2c565b60405180910390f35b61039c600480360381019061039791906153c5565b6109cb565b6040516103a99190615a4a565b60405180910390f35b6103cc60048036038101906103c79190615460565b6109f0565b005b6103d6610e01565b6040516103e39190615e6f565b60405180910390f35b6103f4610e1b565b604051610402929190615e3e565b60405180910390f35b61041361116e565b6040516104209190615e57565b60405180910390f35b610431611184565b60405161043e9190615e2c565b60405180910390f35b61044f61118d565b60405161045c9190615e6f565b60405180910390f35b61047f600480360381019061047a919061558c565b6111a7565b604051610490959493929190615dc6565b60405180910390f35b6104b360048036038101906104ae9190615523565b61125c565b005b6104bd61130d565b6040516104ca9190615a86565b60405180910390f35b6104ed60048036038101906104e8919061558c565b611333565b005b61050960048036038101906105049190615523565b611409565b005b6105256004803603810190610520919061558c565b61148c565b6040516105329190615a4a565b60405180910390f35b6105556004803603810190610550919061558c565b6114f1565b6040516105629190615a4a565b60405180910390f35b610573611556565b6040516105809190615e6f565b60405180910390f35b6105a3600480360381019061059e919061558c565b611570565b005b6105bf60048036038101906105ba9190615523565b6119c5565b005b6105c9611a64565b6040516105d69190615e6f565b60405180910390f35b6105e7611a7e565b6040516105f49190615e2c565b60405180910390f35b610605611a87565b6040516106129190615e2c565b60405180910390f35b6106356004803603810190610630919061558c565b611a90565b6040516106429190615a4a565b60405180910390f35b610653611af4565b6040516106609190615e2c565b60405180910390f35b610671611afd565b60405161067e9190615e2c565b60405180910390f35b6106a1600480360381019061069c919061558c565b611b06565b6040516106b2959493929190615dc6565b60405180910390f35b6106d560048036038101906106d0919061558c565b611bbb565b005b6106df611c91565b6040516106ec9190615a4a565b60405180910390f35b61070f600480360381019061070a91906155af565b611ca4565b60405161071e93929190615970565b60405180910390f35b61072f6122a0565b60405161073c9190615e6f565b60405180910390f35b61074d6122ba565b60405161075a9190615e2c565b60405180910390f35b61077d60048036038101906107789190615523565b6122c3565b005b61079960048036038101906107949190615523565b612346565b005b6107a36123c9565b6040516107b09190615e2c565b60405180910390f35b6107d360048036038101906107ce91906155e7565b6123d2565b005b6107dd612a74565b005b6107f960048036038101906107f4919061558c565b612b35565b005b610803612bec565b6040516108109190615e6f565b60405180910390f35b610833600480360381019061082e919061555b565b612c06565b005b61084f600480360381019061084a919061558c565b612ca3565b60405161085c9190615a4a565b60405180910390f35b61087f600480360381019061087a919061558c565b612d07565b005b610889613135565b60405161089691906158d8565b60405180910390f35b6108b960048036038101906108b491906155e7565b61315b565b005b6108d560048036038101906108d09190615523565b6138a4565b005b6108df61392a565b6040516108ec9190615e6f565b60405180910390f35b61090361394463ffffffff16565b6109116139d963ffffffff16565b5b5b565b600060009054906101000a900473ffffffffffffffffffffffffffffffffffffffff1681565b61094961394463ffffffff16565b80600d60086101000a81548167ffffffffffffffff021916908367ffffffffffffffff16021790555060405161097e906156ee565b60405180910390207f6293347933ad2997134e224ac8cd2e39908a4a22aeed9af52127b4bbf7652978826040516109b59190615e6f565b60405180910390a25b5b50565b600a6000505481565b600560005060205280600052604060002060009150909054906101000a900460ff1681565b600160009054906101000a900473ffffffffffffffffffffffffffffffffffffffff1673ffffffffffffffffffffffffffffffffffffffff163373ffffffffffffffffffffffffffffffffffffffff16141515610a4d5760006000fd5b600160159054906101000a900460ff16151515610a6a5760006000fd5b80600060006101000a81548173ffffffffffffffffffffffffffffffffffffffff021916908373ffffffffffffffffffffffffffffffffffffffff160217905550600060009054906101000a900473ffffffffffffffffffffffffffffffffffffffff1673ffffffffffffffffffffffffffffffffffffffff16639624e83e6040518163ffffffff1660e01b815260040160206040518083038186803b158015610b145760006000fd5b505afa158015610b29573d600060003e3d6000fd5b505050506040513d601f19601f82011682018060405250810190610b4d9190615412565b600260006101000a81548173ffffffffffffffffffffffffffffffffffffffff021916908373ffffffffffffffffffffffffffffffffffffffff160217905550600060009054906101000a900473ffffffffffffffffffffffffffffffffffffffff1673ffffffffffffffffffffffffffffffffffffffff1663323741746040518163ffffffff1660e01b815260040160206040518083038186803b158015610bf65760006000fd5b505afa158015610c0b573d600060003e3d6000fd5b505050506040513d601f19601f82011682018060405250810190610c2f9190615487565b600360006101000a81548173ffffffffffffffffffffffffffffffffffffffff021916908373ffffffffffffffffffffffffffffffffffffffff160217905550600060009054906101000a900473ffffffffffffffffffffffffffffffffffffffff1673ffffffffffffffffffffffffffffffffffffffff1663d478b0876040518163ffffffff1660e01b815260040160206040518083038186803b158015610cd85760006000fd5b505afa158015610ced573d600060003e3d6000fd5b505050506040513d601f19601f82011682018060405250810190610d1191906154d5565b600460006101000a81548173ffffffffffffffffffffffffffffffffffffffff021916908373ffffffffffffffffffffffffffffffffffffffff160217905550610d5f613a2363ffffffff16565b600160149054906101000a900460ff1615610d94576001600160156101000a81548160ff021916908315150217905550610dba565b600160006101000a81549073ffffffffffffffffffffffffffffffffffffffff02191690555b8073ffffffffffffffffffffffffffffffffffffffff167f908408e307fc569b417f6cbec5d5a06f44a0a505ac0479b47d421a4b2fd6a1e660405160405180910390a25b50565b601060109054906101000a900467ffffffffffffffff1681565b600060003073ffffffffffffffffffffffffffffffffffffffff16600060009054906101000a900473ffffffffffffffffffffffffffffffffffffffff1673ffffffffffffffffffffffffffffffffffffffff166385aa61036040518163ffffffff1660e01b815260040160206040518083038186803b158015610e9f5760006000fd5b505afa158015610eb4573d600060003e3d6000fd5b505050506040513d601f19601f82011682018060405250810190610ed89190615439565b73ffffffffffffffffffffffffffffffffffffffff16141515610f30576040517f08c379a0000000000000000000000000000000000000000000000000000000008152600401610f2790615baa565b60405180910390fd5b6000600360009054906101000a900473ffffffffffffffffffffffffffffffffffffffff1673ffffffffffffffffffffffffffffffffffffffff166375172a8b6040518163ffffffff1660e01b815260040160206040518083038186803b158015610f9b5760006000fd5b505afa158015610fb0573d600060003e3d6000fd5b505050506040513d601f19601f82011682018060405250810190610fd4919061553f565b90506000600260009054906101000a900473ffffffffffffffffffffffffffffffffffffffff1673ffffffffffffffffffffffffffffffffffffffff16630dca59c16040518163ffffffff1660e01b815260040160206040518083038186803b1580156110415760006000fd5b505afa158015611056573d600060003e3d6000fd5b505050506040513d601f19601f8201168201806040525081019061107a919061553f565b90506000611096600c6000505483613ef390919063ffffffff16565b905060006110b2600b6000505484613ef390919063ffffffff16565b90506000600a6110cb8385613f1990919063ffffffff16565b8115156110d457fe5b049050826110f060116000505487613f1990919063ffffffff16565b111561111f578083601160005054870303019650865060086000505487101561111a576000965086505b611164565b8161113860126000505487613fa290919063ffffffff16565b10156111635780601260005054860183030195508550600860005054861015611162576000955085505b5b5b50505050505b9091565b601060189054906101000a900463ffffffff1681565b60116000505481565b600d60009054906101000a900467ffffffffffffffff1681565b600e6000506020528060005260406000206000915090508060000160009054906101000a90046fffffffffffffffffffffffffffffffff16908060000160109054906101000a90046fffffffffffffffffffffffffffffffff16908060010160009054906101000a900473ffffffffffffffffffffffffffffffffffffffff16908060010160149054906101000a900465ffffffffffff169080600101601a9054906101000a900465ffffffffffff16905085565b61126a61394463ffffffff16565b806008600050819090905550600860005054600010151561128b5760006000fd5b6009600050546008600050541015156112a45760006000fd5b600a600050546008600050541015156112bd5760006000fd5b6040516112c990615845565b60405180910390207f3a64504f0bc0c335e2aecb78638a257e0351a3fe0370861fd54ee4190b920933826040516113009190615e2c565b60405180910390a25b5b50565b601360009054906101000a900473ffffffffffffffffffffffffffffffffffffffff1681565b61134161394463ffffffff16565b80600d60186101000a81548167ffffffffffffffff021916908367ffffffffffffffff160217905550600d60189054906101000a900467ffffffffffffffff1667ffffffffffffffff16600d60109054906101000a900467ffffffffffffffff1667ffffffffffffffff161015156113b95760006000fd5b6040516113c590615781565b60405180910390207f6293347933ad2997134e224ac8cd2e39908a4a22aeed9af52127b4bbf7652978826040516113fc9190615e6f565b60405180910390a25b5b50565b61141761394463ffffffff16565b80600a600050819090905550600a6000505460086000505410151561143c5760006000fd5b60405161144890615750565b60405180910390207f3a64504f0bc0c335e2aecb78638a257e0351a3fe0370861fd54ee4190b9209338260405161147f9190615e2c565b60405180910390a25b5b50565b600061149d8261402b63ffffffff16565b6114a85760006114e5565b6114e3600f60005060008467ffffffffffffffff1667ffffffffffffffff16815260200190815260200160002060005061409b63ffffffff16565b155b90506114ec565b919050565b60006115028261411a63ffffffff16565b61150d57600061154a565b611548600e60005060008467ffffffffffffffff1667ffffffffffffffff16815260200190815260200160002060005061409b63ffffffff16565b155b9050611551565b919050565b600d60189054906101000a900467ffffffffffffffff1681565b61157e61418a63ffffffff16565b61158c61426963ffffffff16565b61159b81611a9063ffffffff16565b15156115dc576040517f08c379a00000000000000000000000000000000000000000000000000000000081526004016115d390615b2c565b60405180910390fd5b6000600f60005060008367ffffffffffffffff1667ffffffffffffffff1681526020019081526020016000206000506040518060a00160405290816000820160009054906101000a90046fffffffffffffffffffffffffffffffff166fffffffffffffffffffffffffffffffff166fffffffffffffffffffffffffffffffff1681526020016000820160109054906101000a90046fffffffffffffffffffffffffffffffff166fffffffffffffffffffffffffffffffff166fffffffffffffffffffffffffffffffff1681526020016001820160009054906101000a900473ffffffffffffffffffffffffffffffffffffffff1673ffffffffffffffffffffffffffffffffffffffff1673ffffffffffffffffffffffffffffffffffffffff1681526020016001820160149054906101000a900465ffffffffffff1665ffffffffffff1665ffffffffffff16815260200160018201601a9054906101000a900465ffffffffffff1665ffffffffffff1665ffffffffffff16815260200150509050600073ffffffffffffffffffffffffffffffffffffffff16816040015173ffffffffffffffffffffffffffffffffffffffff16141580156117b45750600081602001516fffffffffffffffffffffffffffffffff16115b1561185757600060009054906101000a900473ffffffffffffffffffffffffffffffffffffffff1673ffffffffffffffffffffffffffffffffffffffff1663ef7a7cfa826040015183602001516040518363ffffffff1660e01b815260040161181e929190615900565b600060405180830381600087803b1580156118395760006000fd5b505af115801561184e573d600060003e3d6000fd5b50505050611891565b61188581600001516fffffffffffffffffffffffffffffffff16601260005054613f1990919063ffffffff16565b60126000508190909055505b806040015173ffffffffffffffffffffffffffffffffffffffff168267ffffffffffffffff167fd1b34ce351dc1a4cb6c40bb878ba19a12c4c44d35e7bdbeca7b5ebe947da312f60405160405180910390a3600f60005060008367ffffffffffffffff1667ffffffffffffffff16815260200190815260200160002060006000820160006101000a8154906fffffffffffffffffffffffffffffffff02191690556000820160106101000a8154906fffffffffffffffffffffffffffffffff02191690556001820160006101000a81549073ffffffffffffffffffffffffffffffffffffffff02191690556001820160146101000a81549065ffffffffffff021916905560018201601a6101000a81549065ffffffffffff02191690555050505b5b6119c16142be63ffffffff16565b5b50565b6119d361394463ffffffff16565b80600c600050819090905550600c60005054600b600050541015156119f85760006000fd5b670de0b6b3a7640000600c60005054101515611a145760006000fd5b604051611a20906158a7565b60405180910390207f3a64504f0bc0c335e2aecb78638a257e0351a3fe0370861fd54ee4190b92093382604051611a579190615e2c565b60405180910390a25b5b50565b600d60109054906101000a900467ffffffffffffffff1681565b600c6000505481565b60076000505481565b6000611aa18261402b63ffffffff16565b611aac576000611ae8565b611ae7600f60005060008467ffffffffffffffff1667ffffffffffffffff16815260200190815260200160002060005061409b63ffffffff16565b5b9050611aef565b919050565b60096000505481565b600b6000505481565b600f6000506020528060005260406000206000915090508060000160009054906101000a90046fffffffffffffffffffffffffffffffff16908060000160109054906101000a90046fffffffffffffffffffffffffffffffff16908060010160009054906101000a900473ffffffffffffffffffffffffffffffffffffffff16908060010160149054906101000a900465ffffffffffff169080600101601a9054906101000a900465ffffffffffff16905085565b611bc961394463ffffffff16565b80600d60106101000a81548167ffffffffffffffff021916908367ffffffffffffffff160217905550600d60189054906101000a900467ffffffffffffffff1667ffffffffffffffff16600d60109054906101000a900467ffffffffffffffff1667ffffffffffffffff16101515611c415760006000fd5b604051611c4d906157e3565b60405180910390207f6293347933ad2997134e224ac8cd2e39908a4a22aeed9af52127b4bbf765297882604051611c849190615e6f565b60405180910390a25b5b50565b600060149054906101000a900460ff1681565b606060606060600084611ccd57601060089054906101000a900467ffffffffffffffff16611ce5565b601060009054906101000a900467ffffffffffffffff165b67ffffffffffffffff169050600060008790505b828167ffffffffffffffff161015611d505786611d2457611d1f8161402b63ffffffff16565b611d34565b611d338161411a63ffffffff16565b5b15611d425781806001019250505b5b8080600101915050611cf9565b508067ffffffffffffffff81118015611d695760006000fd5b50604051908082528060200260200182016040528015611da357816020015b611d906152f9565b815260200190600190039081611d885790505b50945084508067ffffffffffffffff81118015611dc05760006000fd5b50604051908082528060200260200182016040528015611def5781602001602082028036833780820191505090505b50935083508067ffffffffffffffff81118015611e0c5760006000fd5b50604051908082528060200260200182016040528015611e3b5781602001602082028036833780820191505090505b5092508250600060008890505b838167ffffffffffffffff16101561229457871561207157611e6f8161411a63ffffffff16565b1515611e7a57612287565b600e60005060008267ffffffffffffffff1667ffffffffffffffff1681526020019081526020016000206000506040518060a00160405290816000820160009054906101000a90046fffffffffffffffffffffffffffffffff166fffffffffffffffffffffffffffffffff166fffffffffffffffffffffffffffffffff1681526020016000820160109054906101000a90046fffffffffffffffffffffffffffffffff166fffffffffffffffffffffffffffffffff166fffffffffffffffffffffffffffffffff1681526020016001820160009054906101000a900473ffffffffffffffffffffffffffffffffffffffff1673ffffffffffffffffffffffffffffffffffffffff1673ffffffffffffffffffffffffffffffffffffffff1681526020016001820160149054906101000a900465ffffffffffff1665ffffffffffff1665ffffffffffff16815260200160018201601a9054906101000a900465ffffffffffff1665ffffffffffff1665ffffffffffff1681526020015050878381518110151561200557fe5b60200260200101819052508067ffffffffffffffff16868381518110151561202957fe5b602002602001019090818152602001505061204981612ca363ffffffff16565b858381518110151561205757fe5b60200260200101901515908115158152602001505061227e565b6120808161402b63ffffffff16565b151561208b57612287565b600f60005060008267ffffffffffffffff1667ffffffffffffffff1681526020019081526020016000206000506040518060a00160405290816000820160009054906101000a90046fffffffffffffffffffffffffffffffff166fffffffffffffffffffffffffffffffff166fffffffffffffffffffffffffffffffff1681526020016000820160109054906101000a90046fffffffffffffffffffffffffffffffff166fffffffffffffffffffffffffffffffff166fffffffffffffffffffffffffffffffff1681526020016001820160009054906101000a900473ffffffffffffffffffffffffffffffffffffffff1673ffffffffffffffffffffffffffffffffffffffff1673ffffffffffffffffffffffffffffffffffffffff1681526020016001820160149054906101000a900465ffffffffffff1665ffffffffffff1665ffffffffffff16815260200160018201601a9054906101000a900465ffffffffffff1665ffffffffffff1665ffffffffffff1681526020015050878381518110151561221657fe5b60200260200101819052508067ffffffffffffffff16868381518110151561223a57fe5b602002602001019090818152602001505061225a81611a9063ffffffff16565b858381518110151561226857fe5b6020026020010190151590811515815260200150505b81806001019250505b8080600101915050611e48565b505050505b9250925092565b601060089054906101000a900467ffffffffffffffff1681565b60126000505481565b6122d161394463ffffffff16565b80600b600050819090905550600c60005054600b600050541015156122f65760006000fd5b60405161230290615876565b60405180910390207f3a64504f0bc0c335e2aecb78638a257e0351a3fe0370861fd54ee4190b920933826040516123399190615e2c565b60405180910390a25b5b50565b61235461394463ffffffff16565b8060096000508190909055506009600050546008600050541015156123795760006000fd5b604051612385906157b2565b60405180910390207f3a64504f0bc0c335e2aecb78638a257e0351a3fe0370861fd54ee4190b920933826040516123bc9190615e2c565b60405180910390a25b5b50565b60086000505481565b6123e061418a63ffffffff16565b6123ee61426963ffffffff16565b6123fd8261148c63ffffffff16565b151561243e576040517f08c379a000000000000000000000000000000000000000000000000000000000815260040161243590615d63565b60405180910390fd5b6000600f60005060008467ffffffffffffffff1667ffffffffffffffff1681526020019081526020016000206000506040518060a00160405290816000820160009054906101000a90046fffffffffffffffffffffffffffffffff166fffffffffffffffffffffffffffffffff166fffffffffffffffffffffffffffffffff1681526020016000820160109054906101000a90046fffffffffffffffffffffffffffffffff166fffffffffffffffffffffffffffffffff166fffffffffffffffffffffffffffffffff1681526020016001820160009054906101000a900473ffffffffffffffffffffffffffffffffffffffff1673ffffffffffffffffffffffffffffffffffffffff1673ffffffffffffffffffffffffffffffffffffffff1681526020016001820160149054906101000a900465ffffffffffff1665ffffffffffff1665ffffffffffff16815260200160018201601a9054906101000a900465ffffffffffff1665ffffffffffff1665ffffffffffff1681526020015050905060003390506000600073ffffffffffffffffffffffffffffffffffffffff16836040015173ffffffffffffffffffffffffffffffffffffffff1614156126f157612637600a61262985600001516fffffffffffffffffffffffffffffffff1661435263ffffffff16565b6144b090919063ffffffff16565b846fffffffffffffffffffffffffffffffff1610151561268c576040517f08c379a000000000000000000000000000000000000000000000000000000000815260040161268390615ca6565b60405180910390fd5b6126ba83600001516fffffffffffffffffffffffffffffffff16601260005054613f1990919063ffffffff16565b6012600050819090905550600360009054906101000a900473ffffffffffffffffffffffffffffffffffffffff169050805061277f565b61271f60076000505484602001516fffffffffffffffffffffffffffffffff1661454e90919063ffffffff16565b846fffffffffffffffffffffffffffffffff1611151515612775576040517f08c379a000000000000000000000000000000000000000000000000000000000815260040161276c90615b6b565b60405180910390fd5b8260400151905080505b81836040019073ffffffffffffffffffffffffffffffffffffffff16908173ffffffffffffffffffffffffffffffffffffffff16815260200150508383602001906fffffffffffffffffffffffffffffffff1690816fffffffffffffffffffffffffffffffff1681526020015050600061282e612817600d60089054906101000a900467ffffffffffffffff1661457463ffffffff16565b67ffffffffffffffff166145aa909063ffffffff16565b90508065ffffffffffff16846060015165ffffffffffff16101561286c5780846060019065ffffffffffff16908165ffffffffffff16815260200150505b83600f60005060008867ffffffffffffffff1667ffffffffffffffff16815260200190815260200160002060005060008201518160000160006101000a8154816fffffffffffffffffffffffffffffffff02191690836fffffffffffffffffffffffffffffffff16021790555060208201518160000160106101000a8154816fffffffffffffffffffffffffffffffff02191690836fffffffffffffffffffffffffffffffff16021790555060408201518160010160006101000a81548173ffffffffffffffffffffffffffffffffffffffff021916908373ffffffffffffffffffffffffffffffffffffffff16021790555060608201518160010160146101000a81548165ffffffffffff021916908365ffffffffffff160217905550608082015181600101601a6101000a81548165ffffffffffff021916908365ffffffffffff160217905550905050612a02600360009054906101000a900473ffffffffffffffffffffffffffffffffffffffff16848487600001516fffffffffffffffffffffffffffffffff1661463a63ffffffff16565b8273ffffffffffffffffffffffffffffffffffffffff168667ffffffffffffffff167f3e40664282966c0a42567d60514e22e8d06206cbcaa7d79f53dc8fcd8c72424687604051612a539190615da2565b60405180910390a3505050505b5b612a6f6142be63ffffffff16565b5b5050565b612a8261418a63ffffffff16565b612a9061486563ffffffff16565b60006000612aa2610e1b63ffffffff16565b915091506000821115612ac557612ac082600161495a63ffffffff16565b612b20565b6000811115612ae457612adf81600061495a63ffffffff16565b612b1f565b6040517f08c379a0000000000000000000000000000000000000000000000000000000008152600401612b1690615d24565b60405180910390fd5b5b50505b5b612b326142be63ffffffff16565b5b565b612b4361394463ffffffff16565b80600d60006101000a81548167ffffffffffffffff021916908367ffffffffffffffff1602179055506000600d60009054906101000a900467ffffffffffffffff1667ffffffffffffffff16111515612b9c5760006000fd5b604051612ba8906156bd565b60405180910390207f6293347933ad2997134e224ac8cd2e39908a4a22aeed9af52127b4bbf765297882604051612bdf9190615e6f565b60405180910390a25b5b50565b601060009054906101000a900467ffffffffffffffff1681565b612c1461394463ffffffff16565b61012c8163ffffffff1610151515612c2c5760006000fd5b80601060186101000a81548163ffffffff021916908363ffffffff160217905550604051612c599061571f565b60405180910390207f6293347933ad2997134e224ac8cd2e39908a4a22aeed9af52127b4bbf76529788263ffffffff16604051612c969190615e6f565b60405180910390a25b5b50565b6000612cb48261411a63ffffffff16565b612cbf576000612cfb565b612cfa600e60005060008467ffffffffffffffff1667ffffffffffffffff16815260200190815260200160002060005061409b63ffffffff16565b5b9050612d02565b919050565b612d1561418a63ffffffff16565b612d2361426963ffffffff16565b612d3281612ca363ffffffff16565b1515612d73576040517f08c379a0000000000000000000000000000000000000000000000000000000008152600401612d6a90615b2c565b60405180910390fd5b6000600e60005060008367ffffffffffffffff1667ffffffffffffffff1681526020019081526020016000206000506040518060a00160405290816000820160009054906101000a90046fffffffffffffffffffffffffffffffff166fffffffffffffffffffffffffffffffff166fffffffffffffffffffffffffffffffff1681526020016000820160109054906101000a90046fffffffffffffffffffffffffffffffff166fffffffffffffffffffffffffffffffff166fffffffffffffffffffffffffffffffff1681526020016001820160009054906101000a900473ffffffffffffffffffffffffffffffffffffffff1673ffffffffffffffffffffffffffffffffffffffff1673ffffffffffffffffffffffffffffffffffffffff1681526020016001820160149054906101000a900465ffffffffffff1665ffffffffffff1665ffffffffffff16815260200160018201601a9054906101000a900465ffffffffffff1665ffffffffffff1665ffffffffffff16815260200150509050612f2281600001516fffffffffffffffffffffffffffffffff16601160005054613f1990919063ffffffff16565b6011600050819090905550600073ffffffffffffffffffffffffffffffffffffffff16816040015173ffffffffffffffffffffffffffffffffffffffff1614151561300157600360009054906101000a900473ffffffffffffffffffffffffffffffffffffffff1673ffffffffffffffffffffffffffffffffffffffff166316f9428f826040015183600001516040518363ffffffff1660e01b8152600401612fcc929190615900565b600060405180830381600087803b158015612fe75760006000fd5b505af1158015612ffc573d600060003e3d6000fd5b505050505b806040015173ffffffffffffffffffffffffffffffffffffffff168267ffffffffffffffff167f596e5ff4197d4a01b2406d4c0717653cbc9166cf6ab2bdf78272eb99d191a09360405160405180910390a3600e60005060008367ffffffffffffffff1667ffffffffffffffff16815260200190815260200160002060006000820160006101000a8154906fffffffffffffffffffffffffffffffff02191690556000820160106101000a8154906fffffffffffffffffffffffffffffffff02191690556001820160006101000a81549073ffffffffffffffffffffffffffffffffffffffff02191690556001820160146101000a81549065ffffffffffff021916905560018201601a6101000a81549065ffffffffffff02191690555050505b5b6131316142be63ffffffff16565b5b50565b600160009054906101000a900473ffffffffffffffffffffffffffffffffffffffff1681565b61316961418a63ffffffff16565b61317761426963ffffffff16565b613186826114f163ffffffff16565b15156131c7576040517f08c379a00000000000000000000000000000000000000000000000000000000081526004016131be90615d63565b60405180910390fd5b60003390506000600e60005060008567ffffffffffffffff1667ffffffffffffffff1681526020019081526020016000206000506040518060a00160405290816000820160009054906101000a90046fffffffffffffffffffffffffffffffff166fffffffffffffffffffffffffffffffff166fffffffffffffffffffffffffffffffff1681526020016000820160109054906101000a90046fffffffffffffffffffffffffffffffff166fffffffffffffffffffffffffffffffff166fffffffffffffffffffffffffffffffff1681526020016001820160009054906101000a900473ffffffffffffffffffffffffffffffffffffffff1673ffffffffffffffffffffffffffffffffffffffff1673ffffffffffffffffffffffffffffffffffffffff1681526020016001820160149054906101000a900465ffffffffffff1665ffffffffffff1665ffffffffffff16815260200160018201601a9054906101000a900465ffffffffffff1665ffffffffffff1665ffffffffffff16815260200150509050600060006000600073ffffffffffffffffffffffffffffffffffffffff16846040015173ffffffffffffffffffffffffffffffffffffffff16141561342e57600a6133b385600001516fffffffffffffffffffffffffffffffff1661435263ffffffff16565b8115156133bc57fe5b04866fffffffffffffffffffffffffffffffff16111515613412576040517f08c379a000000000000000000000000000000000000000000000000000000000815260040161340990615aed565b60405180910390fd5b856fffffffffffffffffffffffffffffffff1692508250613504565b61345c60076000505485602001516fffffffffffffffffffffffffffffffff16613ef390919063ffffffff16565b866fffffffffffffffffffffffffffffffff16101515156134b2576040517f08c379a00000000000000000000000000000000000000000000000000000000081526004016134a990615be9565b60405180910390fd5b8360200151915081508360400151905080506134ff84602001516fffffffffffffffffffffffffffffffff16876fffffffffffffffffffffffffffffffff16613f1990919063ffffffff16565b925082505b84846040019073ffffffffffffffffffffffffffffffffffffffff16908173ffffffffffffffffffffffffffffffffffffffff16815260200150508584602001906fffffffffffffffffffffffffffffffff1690816fffffffffffffffffffffffffffffffff168152602001505060006135b361359c600d60089054906101000a900467ffffffffffffffff1661457463ffffffff16565b67ffffffffffffffff166145aa909063ffffffff16565b90508065ffffffffffff16856060015165ffffffffffff1610156135f15780856060019065ffffffffffff16908165ffffffffffff16815260200150505b84600e60005060008a67ffffffffffffffff1667ffffffffffffffff16815260200190815260200160002060005060008201518160000160006101000a8154816fffffffffffffffffffffffffffffffff02191690836fffffffffffffffffffffffffffffffff16021790555060208201518160000160106101000a8154816fffffffffffffffffffffffffffffffff02191690836fffffffffffffffffffffffffffffffff16021790555060408201518160010160006101000a81548173ffffffffffffffffffffffffffffffffffffffff021916908373ffffffffffffffffffffffffffffffffffffffff16021790555060608201518160010160146101000a81548165ffffffffffff021916908365ffffffffffff160217905550608082015181600101601a6101000a81548165ffffffffffff021916908365ffffffffffff1602179055509050506000836fffffffffffffffffffffffffffffffff16111561379f5761379e601360009054906101000a900473ffffffffffffffffffffffffffffffffffffffff168784866fffffffffffffffffffffffffffffffff1661463a63ffffffff16565b5b601360009054906101000a900473ffffffffffffffffffffffffffffffffffffffff1673ffffffffffffffffffffffffffffffffffffffff166379cc679087866040518363ffffffff1660e01b81526004016137fc929190615941565b600060405180830381600087803b1580156138175760006000fd5b505af115801561382c573d600060003e3d6000fd5b505050508573ffffffffffffffffffffffffffffffffffffffff168867ffffffffffffffff167fd428196c29fb7877242c66ff296d926b10a5051d369acf8fe5eb3ea21bb6ec98896040516138819190615da2565b60405180910390a35050505050505b5b61389f6142be63ffffffff16565b5b5050565b6138b261394463ffffffff16565b806007600050819090905550670de0b6b3a76400006007600050541115156138da5760006000fd5b6040516138e690615814565b60405180910390207f3a64504f0bc0c335e2aecb78638a257e0351a3fe0370861fd54ee4190b9209338260405161391d9190615e2c565b60405180910390a25b5b50565b600d60089054906101000a900467ffffffffffffffff1681565b600060009054906101000a900473ffffffffffffffffffffffffffffffffffffffff1673ffffffffffffffffffffffffffffffffffffffff163373ffffffffffffffffffffffffffffffffffffffff161415156139d6576040517f08c379a00000000000000000000000000000000000000000000000000000000081526004016139cd90615c28565b60405180910390fd5b5b565b6001600060146101000a81548160ff0219169083151502179055507f7acc84e34091ae817647a4c49116f5cc07f319078ba80f8f5fde37ea7e25cbd660405160405180910390a15b565b600060009054906101000a900473ffffffffffffffffffffffffffffffffffffffff1673ffffffffffffffffffffffffffffffffffffffff166336fc02f46040518163ffffffff1660e01b815260040160206040518083038186803b158015613a8c5760006000fd5b505afa158015613aa1573d600060003e3d6000fd5b505050506040513d601f19601f82011682018060405250810190613ac591906154fc565b601360006101000a81548173ffffffffffffffffffffffffffffffffffffffff021916908373ffffffffffffffffffffffffffffffffffffffff160217905550600060405180610160016040528063ddf31e6760e01b7bffffffffffffffffffffffffffffffffffffffffffffffffffffffff19167bffffffffffffffffffffffffffffffffffffffffffffffffffffffff191681526020016334b1447560e01b7bffffffffffffffffffffffffffffffffffffffffffffffffffffffff19167bffffffffffffffffffffffffffffffffffffffffffffffffffffffff19168152602001638d56248a60e01b7bffffffffffffffffffffffffffffffffffffffffffffffffffffffff19167bffffffffffffffffffffffffffffffffffffffffffffffffffffffff19168152602001633a3a63df60e01b7bffffffffffffffffffffffffffffffffffffffffffffffffffffffff19167bffffffffffffffffffffffffffffffffffffffffffffffffffffffff1916815260200163887c67d960e01b7bffffffffffffffffffffffffffffffffffffffffffffffffffffffff19167bffffffffffffffffffffffffffffffffffffffffffffffffffffffff19168152602001634ae8470d60e01b7bffffffffffffffffffffffffffffffffffffffffffffffffffffffff19167bffffffffffffffffffffffffffffffffffffffffffffffffffffffff1916815260200163afea44ef60e01b7bffffffffffffffffffffffffffffffffffffffffffffffffffffffff19167bffffffffffffffffffffffffffffffffffffffffffffffffffffffff19168152602001630fb4e2b360e01b7bffffffffffffffffffffffffffffffffffffffffffffffffffffffff19167bffffffffffffffffffffffffffffffffffffffffffffffffffffffff191681526020016375d0ef5260e01b7bffffffffffffffffffffffffffffffffffffffffffffffffffffffff19167bffffffffffffffffffffffffffffffffffffffffffffffffffffffff191681526020016337ca44fc60e01b7bffffffffffffffffffffffffffffffffffffffffffffffffffffffff19167bffffffffffffffffffffffffffffffffffffffffffffffffffffffff1916815260200163c433c80a60e01b7bffffffffffffffffffffffffffffffffffffffffffffffffffffffff19167bffffffffffffffffffffffffffffffffffffffffffffffffffffffff191681526020015090506000600090505b8150600b811015613eee576001600560005060008484600b81101515613e7857fe5b60200201517bffffffffffffffffffffffffffffffffffffffffffffffffffffffff19167bffffffffffffffffffffffffffffffffffffffffffffffffffffffff1916815260200190815260200160002060006101000a81548160ff0219169083151502179055505b8080600101915050613e56565b50505b565b6000613f0e8383670de0b6b3a7640000614a1f63ffffffff16565b905080505b92915050565b60008282840391508111151515613f9b576040517f08c379a000000000000000000000000000000000000000000000000000000000815260040180806020018281038252600d8152602001807f7375622d756e646572666c6f770000000000000000000000000000000000000081526020015060200191505060405180910390fd5b5b92915050565b60008282840191508110151515614024576040517f08c379a000000000000000000000000000000000000000000000000000000000815260040180806020018281038252600c8152602001807f6164642d6f766572666c6f77000000000000000000000000000000000000000081526020015060200191505060405180910390fd5b5b92915050565b60006000600f60005060008467ffffffffffffffff1667ffffffffffffffff16815260200190815260200160002060005060000160009054906101000a90046fffffffffffffffffffffffffffffffff166fffffffffffffffffffffffffffffffff16119050614096565b919050565b600060006140ad614b2063ffffffff16565b90508067ffffffffffffffff168360010160149054906101000a900465ffffffffffff1665ffffffffffff16108061410c57508067ffffffffffffffff1683600101601a9054906101000a900465ffffffffffff1665ffffffffffff16105b91505061411556505b919050565b60006000600e60005060008467ffffffffffffffff1667ffffffffffffffff16815260200190815260200160002060005060000160009054906101000a90046fffffffffffffffffffffffffffffffff166fffffffffffffffffffffffffffffffff16119050614185565b919050565b600460009054906101000a900473ffffffffffffffffffffffffffffffffffffffff1673ffffffffffffffffffffffffffffffffffffffff1663e97dcb626040518163ffffffff1660e01b8152600401600060405180830381600087803b1580156141f55760006000fd5b505af115801561420a573d600060003e3d6000fd5b50505050600260066000505414151515614259576040517f08c379a000000000000000000000000000000000000000000000000000000000815260040161425090615c67565b60405180910390fd5b600260066000508190909055505b565b600060149054906101000a900460ff161515156142bb576040517f08c379a00000000000000000000000000000000000000000000000000000000081526004016142b290615ce5565b60405180910390fd5b5b565b60016006600050819090905550600460009054906101000a900473ffffffffffffffffffffffffffffffffffffffff1673ffffffffffffffffffffffffffffffffffffffff1663e9fad8ee6040518163ffffffff1660e01b8152600401600060405180830381600087803b1580156143365760006000fd5b505af115801561434b573d600060003e3d6000fd5b505050505b565b60006144a4600060009054906101000a900473ffffffffffffffffffffffffffffffffffffffff1673ffffffffffffffffffffffffffffffffffffffff1663d3419bf36040518163ffffffff1660e01b815260040160206040518083038186803b1580156143c05760006000fd5b505afa1580156143d5573d600060003e3d6000fd5b505050506040513d601f19601f820116820180604052508101906143f991906154ae565b73ffffffffffffffffffffffffffffffffffffffff16638d02a08a601060189054906101000a900463ffffffff166040518263ffffffff1660e01b81526004016144439190615e57565b60206040518083038186803b15801561445c5760006000fd5b505afa158015614471573d600060003e3d6000fd5b505050506040513d601f19601f82011682018060405250810190614495919061553f565b8361454e90919063ffffffff16565b90506144ab565b919050565b600060008214806144d0575082828385029250828115156144cd57fe5b04145b1515614547576040517f08c379a000000000000000000000000000000000000000000000000000000000815260040180806020018281038252600c8152602001807f6d756c2d6f766572666c6f77000000000000000000000000000000000000000081526020015060200191505060405180910390fd5b5b92915050565b600061456983670de0b6b3a764000084614a1f63ffffffff16565b905080505b92915050565b60006145a082614588614b2063ffffffff16565b67ffffffffffffffff16614b3b90919063ffffffff16565b905080505b919050565b600066010000000000008210151561462d576040517f08c379a00000000000000000000000000000000000000000000000000000000081526004018080602001828103825260118152602001807f6d6f7265207468616e203438206269747300000000000000000000000000000081526020015060200191505060405180910390fd5b819050614635565b919050565b600060008573ffffffffffffffffffffffffffffffffffffffff166323b872dd60e01b868686604051602401808473ffffffffffffffffffffffffffffffffffffffff1681526020018373ffffffffffffffffffffffffffffffffffffffff1681526020018281526020019350505050604051602081830303815290604052907bffffffffffffffffffffffffffffffffffffffffffffffffffffffff19166020820180517bffffffffffffffffffffffffffffffffffffffffffffffffffffffff83818316178352505050506040518082805190602001908083835b60208310151561473d57805182525b602082019150602081019050602083039250614717565b6001836020036101000a0380198251168184511680821785525050505050509050019150506000604051808303816000865af19150503d806000811461479f576040519150601f19603f3d011682016040523d82523d6000602084013e6147a4565b606091505b50915091508180156147e557506000815114806147e457508080602001905160208110156147d25760006000fd5b81019080805190602001909291905050505b5b151561485c576040517f08c379a00000000000000000000000000000000000000000000000000000000081526004018080602001828103825260038152602001807f535446000000000000000000000000000000000000000000000000000000000081526020015060200191505060405180910390fd5b50505b50505050565b61487361426963ffffffff16565b600060009054906101000a900473ffffffffffffffffffffffffffffffffffffffff1673ffffffffffffffffffffffffffffffffffffffff1663bf86d6906040518163ffffffff1660e01b815260040160206040518083038186803b1580156148dc5760006000fd5b505afa1580156148f1573d600060003e3d6000fd5b505050506040513d601f19601f82011682018060405250810190614915919061539e565b151515614957576040517f08c379a000000000000000000000000000000000000000000000000000000000815260040161494e90615aae565b60405180910390fd5b5b565b60008161496c57600a60005054614973565b6009600050545b90506149858382614bd863ffffffff16565b9250825081156149b7576149a783601160005054613fa290919063ffffffff16565b60116000508190909055506149db565b6149cf83601260005054613fa290919063ffffffff16565b60126000508190909055505b60005b6149f18285614c6190919063ffffffff16565b90508050614a058184614c7f63ffffffff16565b808403935083505b6000841115156149de575b50505b5050565b6000600060006000198587098587029250828110838203039150506000811415614a6257600084111515614a535760006000fd5b83820492508292505050614b19565b8084111515614a715760006000fd5b6000848688099050828111820391508083039250600085866000031690508086049550808404935060018182600003040190508083028417935083506000600287600302189050808702600203810290508050808702600203810290508050808702600203810290508050808702600203810290508050808702600203810290508050808702600203810290508050808502955085508595505050505050614b195650505050505b9392505050565b6000614b33426151cd909063ffffffff16565b905080505b90565b60008267ffffffffffffffff1682840191508167ffffffffffffffff1610151515614bd1576040517f08c379a000000000000000000000000000000000000000000000000000000000815260040180806020018281038252600c8152602001807f6164642d6f766572666c6f77000000000000000000000000000000000000000081526020015060200191505060405180910390fd5b5b92915050565b60006000614c0f600d60009054906101000a900467ffffffffffffffff1667ffffffffffffffff16846144b090919063ffffffff16565b905060008385811515614c1e57fe5b06905060006008600050548210614c355785614c39565b8186035b9050614c4e8184614c6190919063ffffffff16565b9350505050614c5b565050505b92915050565b6000818310614c705781614c72565b825b9050614c79565b92915050565b6000614ca6600d60189054906101000a900467ffffffffffffffff1661457463ffffffff16565b90508067ffffffffffffffff16601060109054906101000a900467ffffffffffffffff1667ffffffffffffffff161015614d045780601060106101000a81548167ffffffffffffffff021916908367ffffffffffffffff1602179055505b60006040518060a00160405280614d228661525f909063ffffffff16565b6fffffffffffffffffffffffffffffffff16815260200160006fffffffffffffffffffffffffffffffff168152602001600073ffffffffffffffffffffffffffffffffffffffff168152602001614dae614d97600d60109054906101000a900467ffffffffffffffff1661457463ffffffff16565b67ffffffffffffffff166145aa909063ffffffff16565b65ffffffffffff168152602001614dd68467ffffffffffffffff166145aa909063ffffffff16565b65ffffffffffff1681526020015090508215614fdb5780600e6000506000601060009054906101000a900467ffffffffffffffff1667ffffffffffffffff1667ffffffffffffffff16815260200190815260200160002060005060008201518160000160006101000a8154816fffffffffffffffffffffffffffffffff02191690836fffffffffffffffffffffffffffffffff16021790555060208201518160000160106101000a8154816fffffffffffffffffffffffffffffffff02191690836fffffffffffffffffffffffffffffffff16021790555060408201518160010160006101000a81548173ffffffffffffffffffffffffffffffffffffffff021916908373ffffffffffffffffffffffffffffffffffffffff16021790555060608201518160010160146101000a81548165ffffffffffff021916908365ffffffffffff160217905550608082015181600101601a6101000a81548165ffffffffffff021916908365ffffffffffff160217905550905050836010600081819054906101000a900467ffffffffffffffff168092919060010191906101000a81548167ffffffffffffffff021916908367ffffffffffffffff16021790555067ffffffffffffffff167fb706108f90fb9e0fadc5f3feaa02b4c23b9d569ad7b46408c64eb4f224eba7cd84604051614fce9190615e6f565b60405180910390a36151c6565b80600f6000506000601060089054906101000a900467ffffffffffffffff1667ffffffffffffffff1667ffffffffffffffff16815260200190815260200160002060005060008201518160000160006101000a8154816fffffffffffffffffffffffffffffffff02191690836fffffffffffffffffffffffffffffffff16021790555060208201518160000160106101000a8154816fffffffffffffffffffffffffffffffff02191690836fffffffffffffffffffffffffffffffff16021790555060408201518160010160006101000a81548173ffffffffffffffffffffffffffffffffffffffff021916908373ffffffffffffffffffffffffffffffffffffffff16021790555060608201518160010160146101000a81548165ffffffffffff021916908365ffffffffffff160217905550608082015181600101601a6101000a81548165ffffffffffff021916908365ffffffffffff160217905550905050836010600881819054906101000a900467ffffffffffffffff168092919060010191906101000a81548167ffffffffffffffff021916908367ffffffffffffffff16021790555067ffffffffffffffff167f4e673c0fa7786d8c4c1cba0d1678d726ef2cb772cc6abbe3cea73c1a6d9a681e846040516151bd9190615e6f565b60405180910390a35b50505b5050565b60006801000000000000000082101515615252576040517f08c379a00000000000000000000000000000000000000000000000000000000081526004018080602001828103825260118152602001807f6d6f7265207468616e203634206269747300000000000000000000000000000081526020015060200191505060405180910390fd5b81905061525a565b919050565b6000700100000000000000000000000000000000821015156152ec576040517f08c379a00000000000000000000000000000000000000000000000000000000081526004018080602001828103825260128152602001807f6d6f7265207468616e203132382062697473000000000000000000000000000081526020015060200191505060405180910390fd5b8190506152f4565b919050565b6040518060a0016040528060006fffffffffffffffffffffffffffffffff16815260200160006fffffffffffffffffffffffffffffffff168152602001600073ffffffffffffffffffffffffffffffffffffffff168152602001600065ffffffffffff168152602001600065ffffffffffff168152602001509056615ec9565b60008135905067ffffffffffffffff8116811415156153985760006000fd5b5b919050565b6000602082840312156153af578081fd5b81516153ba81615e8b565b809150505b92915050565b6000602082840312156153d6578081fd5b81357fffffffff00000000000000000000000000000000000000000000000000000000811681141515615407578182fd5b809150505b92915050565b600060208284031215615423578081fd5b815161542e81615ea0565b809150505b92915050565b60006020828403121561544a578081fd5b815161545581615ea0565b809150505b92915050565b600060208284031215615471578081fd5b813561547c81615ea0565b809150505b92915050565b600060208284031215615498578081fd5b81516154a381615ea0565b809150505b92915050565b6000602082840312156154bf578081fd5b81516154ca81615ea0565b809150505b92915050565b6000602082840312156154e6578081fd5b81516154f181615ea0565b809150505b92915050565b60006020828403121561550d578081fd5b815161551881615ea0565b809150505b92915050565b600060208284031215615534578081fd5b813590505b92915050565b600060208284031215615550578081fd5b815190505b92915050565b60006020828403121561556c578081fd5b813563ffffffff811681141515615581578182fd5b809150505b92915050565b60006020828403121561559d578081fd5b6155a682615379565b90505b92915050565b60006000604083850312156155c2578081fd5b6155cb83615379565b915060208301356155db81615e8b565b809150505b9250929050565b60006000604083850312156155fa578081fd5b61560383615379565b915060208301356fffffffffffffffffffffffffffffffff811681141515615629578182fd5b809150505b9250929050565b6000815180845260208085019450808401835b8381101561566c57815115158752828701965082820191505b600181019050615648565b505050508290505b92915050565b6000815180845260208085019450808401835b838110156156af5781518752828701965082820191505b60018101905061568d565b505050508290505b92915050565b60007f6d6178426174636853697a6500000000000000000000000000000000000000008252600c820190505b919050565b60007f657874656e73696f6e50657242696400000000000000000000000000000000008252600f820190505b919050565b60007f747761704475726174696f6e00000000000000000000000000000000000000008252600c820190505b919050565b60007f6d6178446566696369744c6f7453697a6500000000000000000000000000000082526011820190505b919050565b60007f6d617841756374696f6e4475726174696f6e000000000000000000000000000082526012820190505b919050565b60007f6d6178537572706c75734c6f7453697a6500000000000000000000000000000082526011820190505b919050565b60007f6d696e41756374696f6e4475726174696f6e000000000000000000000000000082526012820190505b919050565b60007f6d696e42696444656c74610000000000000000000000000000000000000000008252600b820190505b919050565b60007f6d696e4c6f7453697a65000000000000000000000000000000000000000000008252600a820190505b919050565b60007f72657365727665734275666665724c6f776572426f756e64000000000000000082526018820190505b919050565b60007f72657365727665734275666665725570706572426f756e64000000000000000082526018820190505b919050565b600060208201905073ffffffffffffffffffffffffffffffffffffffff831682525b92915050565b600060408201905073ffffffffffffffffffffffffffffffffffffffff841682526fffffffffffffffffffffffffffffffff831660208301525b9392505050565b600060408201905073ffffffffffffffffffffffffffffffffffffffff841682528260208301525b9392505050565b600060608083018184528087518083526080925082860191506020808a01865b83811015615a135781516fffffffffffffffffffffffffffffffff8082511687528085830151168588015250604073ffffffffffffffffffffffffffffffffffffffff818301511681880152508781015165ffffffffffff8082168a8901528089840151168989015250505060a08501945082820191505b600181019050615990565b5050868303818801525050615a28818861567a565b925050508281036040840152615a3e8185615635565b9150505b949350505050565b600060208201905082151582525b92915050565b600060208201905073ffffffffffffffffffffffffffffffffffffffff831682525b92915050565b600060208201905073ffffffffffffffffffffffffffffffffffffffff831682525b92915050565b600060208252601160208301527f50726f746f636f6c2073687574646f776e00000000000000000000000000000060408301526060820190505b919050565b600060208252600b60208301527f42696420746f6f206c6f7700000000000000000000000000000000000000000060408301526060820190505b919050565b600060208252601460208301527f41756374696f6e206e6f7420636f6d706c65746500000000000000000000000060408301526060820190505b919050565b600060208252601160208301527f446964206e6f7420756e6465722062696400000000000000000000000000000060408301526060820190505b919050565b600060208252601360208301527f557365206c617465737420636f6e74726163740000000000000000000000000060408301526060820190505b919050565b600060208252600f60208301527f446964206e6f74206f757420626964000000000000000000000000000000000060408301526060820190505b919050565b600060208252600e60208301527f4e6f7420417574686f72697a656400000000000000000000000000000000000060408301526060820190505b919050565b600060208252600d60208301527f4c50205265656e7472616e63790000000000000000000000000000000000000060408301526060820190505b919050565b600060208252600c60208301527f42696420746f6f2068696768000000000000000000000000000000000000000060408301526060820190505b919050565b600060208252601360208301527f436f6e74726163742069732073746f707065640000000000000000000000000060408301526060820190505b919050565b600060208252601460208301527f4e6f2061756374696f6e7320746f20737461727400000000000000000000000060408301526060820190505b919050565b600060208252601060208301527f41756374696f6e206e6f74206c6976650000000000000000000000000000000060408301526060820190505b919050565b60006020820190506fffffffffffffffffffffffffffffffff831682525b92915050565b600060a0820190506fffffffffffffffffffffffffffffffff808816835280871660208401525073ffffffffffffffffffffffffffffffffffffffff8516604083015265ffffffffffff80851660608401528084166080840152505b9695505050505050565b60006020820190508282525b92915050565b60006040820190508382528260208301525b9392505050565b600060208201905063ffffffff831682525b92915050565b600060208201905067ffffffffffffffff831682525b92915050565b80151581141515615e9c5760006000fd5b5b50565b73ffffffffffffffffffffffffffffffffffffffff811681141515615ec55760006000fd5b5b50565bfea2646970667358221220aa0adccc6bdba23e7fe2e4dfba2b87ceb0094e2996b63cac76d510f4419d4ec464736f6c63430007060033",
  "linkReferences": {},
  "deployedLinkReferences": {}
}