{
  "_format": "hh-sol-artifact-1",
  "contractName": "Auctions",
  "sourceName": "contracts/core/logic/Auctions.sol",
  "abi": [
    {
      "anonymous": false,
      "inputs": [
        {
          "indexed": true,
          "internalType": "uint64",
          "name": "auctionID",
          "type": "uint64"
        },
        {
          "indexed": true,
          "internalType": "address",
          "name": "bidder",
          "type": "address"
        },
        {
          "indexed": false,
          "internalType": "uint256",
          "name": "bid",
          "type": "uint256"
        }
      ],
      "name": "DeficitAuctionBid",
      "type": "event"
    },
    {
      "anonymous": false,
      "inputs": [
        {
          "indexed": true,
          "internalType": "uint64",
          "name": "auctionID",
          "type": "uint64"
        },
        {
          "indexed": true,
          "internalType": "address",
          "name": "winner",
          "type": "address"
        }
      ],
      "name": "DeficitAuctionSettled",
      "type": "event"
    },
    {
      "anonymous": false,
      "inputs": [
        {
          "indexed": true,
          "internalType": "uint64",
          "name": "auctionID",
          "type": "uint64"
        },
        {
          "indexed": true,
          "internalType": "uint256",
          "name": "count",
          "type": "uint256"
        },
        {
          "indexed": false,
          "internalType": "uint64",
          "name": "maxEndTime",
          "type": "uint64"
        }
      ],
      "name": "DeficitAuctionStarted",
      "type": "event"
    },
    {
      "anonymous": false,
      "inputs": [
        {
          "indexed": true,
          "internalType": "address",
          "name": "governor",
          "type": "address"
        }
      ],
      "name": "Initialized",
      "type": "event"
    },
    {
      "anonymous": false,
      "inputs": [
        {
          "indexed": true,
          "internalType": "string",
          "name": "paramName",
          "type": "string"
        },
        {
          "indexed": false,
          "internalType": "uint256",
          "name": "value",
          "type": "uint256"
        }
      ],
      "name": "ParameterUpdated",
      "type": "event"
    },
    {
      "anonymous": false,
      "inputs": [
        {
          "indexed": true,
          "internalType": "string",
          "name": "paramName",
          "type": "string"
        },
        {
          "indexed": false,
          "internalType": "uint64",
          "name": "value",
          "type": "uint64"
        }
      ],
      "name": "ParameterUpdated64",
      "type": "event"
    },
    {
      "anonymous": false,
      "inputs": [],
      "name": "Stopped",
      "type": "event"
    },
    {
      "anonymous": false,
      "inputs": [
        {
          "indexed": true,
          "internalType": "uint64",
          "name": "auctionID",
          "type": "uint64"
        },
        {
          "indexed": true,
          "internalType": "address",
          "name": "bidder",
          "type": "address"
        },
        {
          "indexed": false,
          "internalType": "uint256",
          "name": "bid",
          "type": "uint256"
        }
      ],
      "name": "SurplusAuctionBid",
      "type": "event"
    },
    {
      "anonymous": false,
      "inputs": [
        {
          "indexed": true,
          "internalType": "uint64",
          "name": "auctionID",
          "type": "uint64"
        },
        {
          "indexed": true,
          "internalType": "address",
          "name": "winner",
          "type": "address"
        }
      ],
      "name": "SurplusAuctionSettled",
      "type": "event"
    },
    {
      "anonymous": false,
      "inputs": [
        {
          "indexed": true,
          "internalType": "uint64",
          "name": "auctionID",
          "type": "uint64"
        },
        {
          "indexed": true,
          "internalType": "uint256",
          "name": "count",
          "type": "uint256"
        },
        {
          "indexed": false,
          "internalType": "uint64",
          "name": "maxEndTime",
          "type": "uint64"
        }
      ],
      "name": "SurplusAuctionStarted",
      "type": "event"
    },
    {
      "inputs": [
        {
          "internalType": "uint64",
          "name": "auctionID",
          "type": "uint64"
        },
        {
          "internalType": "uint128",
          "name": "bid",
          "type": "uint128"
        }
      ],
      "name": "bidDeficitAuction",
      "outputs": [],
      "stateMutability": "nonpayable",
      "type": "function"
    },
    {
      "inputs": [
        {
          "internalType": "uint64",
          "name": "auctionID",
          "type": "uint64"
        },
        {
          "internalType": "uint128",
          "name": "bid",
          "type": "uint128"
        }
      ],
      "name": "bidSurplusAuction",
      "outputs": [],
      "stateMutability": "nonpayable",
      "type": "function"
    },
    {
      "inputs": [],
      "name": "checkReservesAndStartAuctions",
      "outputs": [],
      "stateMutability": "nonpayable",
      "type": "function"
    },
    {
      "inputs": [],
      "name": "collateralPool",
      "outputs": [
        {
          "internalType": "contract IUniswapV3Pool",
          "name": "",
          "type": "address"
        }
      ],
      "stateMutability": "view",
      "type": "function"
    },
    {
      "inputs": [],
      "name": "completeSetup",
      "outputs": [],
      "stateMutability": "nonpayable",
      "type": "function"
    },
    {
      "inputs": [
        {
          "internalType": "uint64",
          "name": "",
          "type": "uint64"
        }
      ],
      "name": "deficitAuction",
      "outputs": [
        {
          "internalType": "uint128",
          "name": "count",
          "type": "uint128"
        },
        {
          "internalType": "uint128",
          "name": "bid",
          "type": "uint128"
        },
        {
          "internalType": "address",
          "name": "bidder",
          "type": "address"
        },
        {
          "internalType": "uint48",
          "name": "endTime",
          "type": "uint48"
        },
        {
          "internalType": "uint48",
          "name": "maxEndTime",
          "type": "uint48"
        }
      ],
      "stateMutability": "view",
      "type": "function"
    },
    {
      "inputs": [
        {
          "internalType": "uint64",
          "name": "auctionID",
          "type": "uint64"
        }
      ],
      "name": "deficitAuctionComplete",
      "outputs": [
        {
          "internalType": "bool",
          "name": "",
          "type": "bool"
        }
      ],
      "stateMutability": "view",
      "type": "function"
    },
    {
      "inputs": [],
      "name": "deficitAuctionCount",
      "outputs": [
        {
          "internalType": "uint64",
          "name": "",
          "type": "uint64"
        }
      ],
      "stateMutability": "view",
      "type": "function"
    },
    {
      "inputs": [
        {
          "internalType": "uint64",
          "name": "auctionID",
          "type": "uint64"
        }
      ],
      "name": "deficitAuctionLive",
      "outputs": [
        {
          "internalType": "bool",
          "name": "",
          "type": "bool"
        }
      ],
      "stateMutability": "view",
      "type": "function"
    },
    {
      "inputs": [],
      "name": "deployer",
      "outputs": [
        {
          "internalType": "address",
          "name": "",
          "type": "address"
        }
      ],
      "stateMutability": "view",
      "type": "function"
    },
    {
      "inputs": [],
      "name": "extensionPerBid",
      "outputs": [
        {
          "internalType": "uint64",
          "name": "",
          "type": "uint64"
        }
      ],
      "stateMutability": "view",
      "type": "function"
    },
    {
      "inputs": [
        {
          "internalType": "uint64",
          "name": "start",
          "type": "uint64"
        },
        {
          "internalType": "bool",
          "name": "surplus",
          "type": "bool"
        }
      ],
      "name": "getAllAuctions",
      "outputs": [
        {
          "components": [
            {
              "internalType": "uint128",
              "name": "count",
              "type": "uint128"
            },
            {
              "internalType": "uint128",
              "name": "bid",
              "type": "uint128"
            },
            {
              "internalType": "address",
              "name": "bidder",
              "type": "address"
            },
            {
              "internalType": "uint48",
              "name": "endTime",
              "type": "uint48"
            },
            {
              "internalType": "uint48",
              "name": "maxEndTime",
              "type": "uint48"
            }
          ],
          "internalType": "struct IAuctions.Auction[]",
          "name": "_auctions",
          "type": "tuple[]"
        },
        {
          "internalType": "uint256[]",
          "name": "_auctionIDs",
          "type": "uint256[]"
        },
        {
          "internalType": "bool[]",
          "name": "_isComplete",
          "type": "bool[]"
        }
      ],
      "stateMutability": "view",
      "type": "function"
    },
    {
      "inputs": [],
      "name": "governor",
      "outputs": [
        {
          "internalType": "contract IGovernor",
          "name": "",
          "type": "address"
        }
      ],
      "stateMutability": "view",
      "type": "function"
    },
    {
      "inputs": [
        {
          "internalType": "contract IGovernor",
          "name": "_governor",
          "type": "address"
        }
      ],
      "name": "init",
      "outputs": [],
      "stateMutability": "nonpayable",
      "type": "function"
    },
    {
      "inputs": [],
      "name": "latestAuctionCompletionTime",
      "outputs": [
        {
          "internalType": "uint64",
          "name": "",
          "type": "uint64"
        }
      ],
      "stateMutability": "view",
      "type": "function"
    },
    {
      "inputs": [],
      "name": "maxAuctionDuration",
      "outputs": [
        {
          "internalType": "uint64",
          "name": "",
          "type": "uint64"
        }
      ],
      "stateMutability": "view",
      "type": "function"
    },
    {
      "inputs": [],
      "name": "maxBatchSize",
      "outputs": [
        {
          "internalType": "uint64",
          "name": "",
          "type": "uint64"
        }
      ],
      "stateMutability": "view",
      "type": "function"
    },
    {
      "inputs": [],
      "name": "maxDeficitLotSize",
      "outputs": [
        {
          "internalType": "uint256",
          "name": "",
          "type": "uint256"
        }
      ],
      "stateMutability": "view",
      "type": "function"
    },
    {
      "inputs": [],
      "name": "maxSurplusLotSize",
      "outputs": [
        {
          "internalType": "uint256",
          "name": "",
          "type": "uint256"
        }
      ],
      "stateMutability": "view",
      "type": "function"
    },
    {
      "inputs": [],
      "name": "minAuctionDuration",
      "outputs": [
        {
          "internalType": "uint64",
          "name": "",
          "type": "uint64"
        }
      ],
      "stateMutability": "view",
      "type": "function"
    },
    {
      "inputs": [],
      "name": "minBidDelta",
      "outputs": [
        {
          "internalType": "uint256",
          "name": "",
          "type": "uint256"
        }
      ],
      "stateMutability": "view",
      "type": "function"
    },
    {
      "inputs": [],
      "name": "minLotSize",
      "outputs": [
        {
          "internalType": "uint256",
          "name": "",
          "type": "uint256"
        }
      ],
      "stateMutability": "view",
      "type": "function"
    },
    {
      "inputs": [],
      "name": "protocolPool",
      "outputs": [
        {
          "internalType": "contract IUniswapV3Pool",
          "name": "",
          "type": "address"
        }
      ],
      "stateMutability": "view",
      "type": "function"
    },
    {
      "inputs": [],
      "name": "reservesBufferLowerBound",
      "outputs": [
        {
          "internalType": "uint256",
          "name": "",
          "type": "uint256"
        }
      ],
      "stateMutability": "view",
      "type": "function"
    },
    {
      "inputs": [],
      "name": "reservesBufferUpperBound",
      "outputs": [
        {
          "internalType": "uint256",
          "name": "",
          "type": "uint256"
        }
      ],
      "stateMutability": "view",
      "type": "function"
    },
    {
      "inputs": [
        {
          "internalType": "uint64",
          "name": "extension",
          "type": "uint64"
        }
      ],
      "name": "setExtensionPerBid",
      "outputs": [],
      "stateMutability": "nonpayable",
      "type": "function"
    },
    {
      "inputs": [
        {
          "internalType": "uint64",
          "name": "duration",
          "type": "uint64"
        }
      ],
      "name": "setMaxAuctionDuration",
      "outputs": [],
      "stateMutability": "nonpayable",
      "type": "function"
    },
    {
      "inputs": [
        {
          "internalType": "uint64",
          "name": "size",
          "type": "uint64"
        }
      ],
      "name": "setMaxBatchSize",
      "outputs": [],
      "stateMutability": "nonpayable",
      "type": "function"
    },
    {
      "inputs": [
        {
          "internalType": "uint256",
          "name": "size",
          "type": "uint256"
        }
      ],
      "name": "setMaxDeficitLotSize",
      "outputs": [],
      "stateMutability": "nonpayable",
      "type": "function"
    },
    {
      "inputs": [
        {
          "internalType": "uint256",
          "name": "size",
          "type": "uint256"
        }
      ],
      "name": "setMaxSurplusLotSize",
      "outputs": [],
      "stateMutability": "nonpayable",
      "type": "function"
    },
    {
      "inputs": [
        {
          "internalType": "uint64",
          "name": "duration",
          "type": "uint64"
        }
      ],
      "name": "setMinAuctionDuration",
      "outputs": [],
      "stateMutability": "nonpayable",
      "type": "function"
    },
    {
      "inputs": [
        {
          "internalType": "uint256",
          "name": "delta",
          "type": "uint256"
        }
      ],
      "name": "setMinBidDelta",
      "outputs": [],
      "stateMutability": "nonpayable",
      "type": "function"
    },
    {
      "inputs": [
        {
          "internalType": "uint256",
          "name": "size",
          "type": "uint256"
        }
      ],
      "name": "setMinLotSize",
      "outputs": [],
      "stateMutability": "nonpayable",
      "type": "function"
    },
    {
      "inputs": [
        {
          "internalType": "uint256",
          "name": "bound",
          "type": "uint256"
        }
      ],
      "name": "setReservesBufferLowerBound",
      "outputs": [],
      "stateMutability": "nonpayable",
      "type": "function"
    },
    {
      "inputs": [
        {
          "internalType": "uint256",
          "name": "bound",
          "type": "uint256"
        }
      ],
      "name": "setReservesBufferUpperBound",
      "outputs": [],
      "stateMutability": "nonpayable",
      "type": "function"
    },
    {
      "inputs": [
        {
          "internalType": "uint32",
          "name": "duration",
          "type": "uint32"
        }
      ],
      "name": "setTwapDuration",
      "outputs": [],
      "stateMutability": "nonpayable",
      "type": "function"
    },
    {
      "inputs": [
        {
          "internalType": "uint64",
          "name": "auctionID",
          "type": "uint64"
        }
      ],
      "name": "settleDeficitAuction",
      "outputs": [],
      "stateMutability": "nonpayable",
      "type": "function"
    },
    {
      "inputs": [
        {
          "internalType": "uint64",
          "name": "auctionID",
          "type": "uint64"
        }
      ],
      "name": "settleSurplusAuction",
      "outputs": [],
      "stateMutability": "nonpayable",
      "type": "function"
    },
    {
      "inputs": [],
      "name": "shouldStartAuctions",
      "outputs": [
        {
          "internalType": "uint256",
          "name": "surplusAmount",
          "type": "uint256"
        },
        {
          "internalType": "uint256",
          "name": "deficitAmount",
          "type": "uint256"
        }
      ],
      "stateMutability": "view",
      "type": "function"
    },
    {
      "inputs": [],
      "name": "stop",
      "outputs": [],
      "stateMutability": "nonpayable",
      "type": "function"
    },
    {
      "inputs": [],
      "name": "stopped",
      "outputs": [
        {
          "internalType": "bool",
          "name": "",
          "type": "bool"
        }
      ],
      "stateMutability": "view",
      "type": "function"
    },
    {
      "inputs": [
        {
          "internalType": "uint64",
          "name": "",
          "type": "uint64"
        }
      ],
      "name": "surplusAuction",
      "outputs": [
        {
          "internalType": "uint128",
          "name": "count",
          "type": "uint128"
        },
        {
          "internalType": "uint128",
          "name": "bid",
          "type": "uint128"
        },
        {
          "internalType": "address",
          "name": "bidder",
          "type": "address"
        },
        {
          "internalType": "uint48",
          "name": "endTime",
          "type": "uint48"
        },
        {
          "internalType": "uint48",
          "name": "maxEndTime",
          "type": "uint48"
        }
      ],
      "stateMutability": "view",
      "type": "function"
    },
    {
      "inputs": [
        {
          "internalType": "uint64",
          "name": "auctionID",
          "type": "uint64"
        }
      ],
      "name": "surplusAuctionComplete",
      "outputs": [
        {
          "internalType": "bool",
          "name": "",
          "type": "bool"
        }
      ],
      "stateMutability": "view",
      "type": "function"
    },
    {
      "inputs": [],
      "name": "surplusAuctionCount",
      "outputs": [
        {
          "internalType": "uint64",
          "name": "",
          "type": "uint64"
        }
      ],
      "stateMutability": "view",
      "type": "function"
    },
    {
      "inputs": [
        {
          "internalType": "uint64",
          "name": "auctionID",
          "type": "uint64"
        }
      ],
      "name": "surplusAuctionLive",
      "outputs": [
        {
          "internalType": "bool",
          "name": "",
          "type": "bool"
        }
      ],
      "stateMutability": "view",
      "type": "function"
    },
    {
      "inputs": [],
      "name": "tcp",
      "outputs": [
        {
          "internalType": "contract ITCP",
          "name": "",
          "type": "address"
        }
      ],
      "stateMutability": "view",
      "type": "function"
    },
    {
      "inputs": [],
      "name": "twapDuration",
      "outputs": [
        {
          "internalType": "uint32",
          "name": "",
          "type": "uint32"
        }
      ],
      "stateMutability": "view",
      "type": "function"
    },
    {
      "inputs": [
        {
          "internalType": "bytes4",
          "name": "",
          "type": "bytes4"
        }
      ],
      "name": "validUpdate",
      "outputs": [
        {
          "internalType": "bool",
          "name": "",
          "type": "bool"
        }
      ],
      "stateMutability": "view",
      "type": "function"
    },
    {
      "inputs": [],
      "name": "zhuToBeBought",
      "outputs": [
        {
          "internalType": "uint256",
          "name": "",
          "type": "uint256"
        }
      ],
      "stateMutability": "view",
      "type": "function"
    },
    {
      "inputs": [],
      "name": "zhuToBeSold",
      "outputs": [
        {
          "internalType": "uint256",
          "name": "",
          "type": "uint256"
        }
      ],
      "stateMutability": "view",
      "type": "function"
    }
  ],
  "bytecode": "0x608060405260016006600050909055670e4b4b8af6a70000600760005090905568878678326eac900000600860005090905569043c33c1937564800000600960005090905569043c33c1937564800000600a600050909055662386f26fc10000600b60005090905566b1a2bc2ec50000600c6000509090556005600d60006101000a81548167ffffffffffffffff021916908367ffffffffffffffff160217905550610708600d60086101000a81548167ffffffffffffffff021916908367ffffffffffffffff16021790555062015180600d60106101000a81548167ffffffffffffffff021916908367ffffffffffffffff1602179055506202a300600d60186101000a81548167ffffffffffffffff021916908367ffffffffffffffff160217905550610e10601060186101000a81548163ffffffff021916908363ffffffff160217905550348015620001555760006000fd5b505b33600160006101000a81548173ffffffffffffffffffffffffffffffffffffffff021916908373ffffffffffffffffffffffffffffffffffffffff1602179055505b6200019f565b61618580620001af6000396000f3fe60806040523480156100115760006000fd5b506004361061033b5760003560e01c806360aad9bf116101b35780639052537e116100fa578063caa98b60116100a3578063d7abba0c1161007d578063d7abba0c146108e8578063ddf31e6714610904578063faf95d2d14610920578063ff0eccf61461093e5761033b565b8063caa98b601461087e578063d005d2eb146108ae578063d5f39488146108ca5761033b565b8063afea44ef116100d4578063afea44ef14610828578063c2b6722a14610844578063c433c80a146108625761033b565b80639052537e146107e457806399e1998f14610802578063a958c0331461081e5761033b565b80637e9eeaa21161015c578063887c67d911610136578063887c67d9146107a25780638aea8f71146107be5780638d56248a146107c85761033b565b80637e9eeaa2146107485780637eb12af7146107665780638396cf69146107845761033b565b806375d0ef521161018d57806375d0ef52146106dc57806375f12b21146106f85780637d695351146107165761033b565b806360aad9bf1461066c578063616cb0cf1461068a578063651cf64d146106a85761033b565b806336fc02f41161028257806349830f161161022b578063541348761161020557806354134876146105e257806354cccf081461060057806354f634fb1461061e578063597e899f1461063c5761033b565b806349830f161461058c5780634a2304b1146105aa5780634ae8470d146105c65761033b565b806340601add1161025c57806340601add1461050e5780634079b8fc1461053e57806348c9581e1461056e5761033b565b806336fc02f4146104b857806337ca44fc146104d65780633a3a63df146104f25761033b565b80631b875768116102e45780632913daa0116102be5780632913daa01461044a5780633427c4ef1461046857806334b144751461049c5761033b565b80631b875768146103ef57806325df95381461040d57806326d895451461042c5761033b565b80630fe86907116103155780630fe8690714610385578063113cf1ab146103a357806319ab453c146103d35761033b565b806307da68f5146103415780630c340a241461034b5780630fb4e2b3146103695761033b565b60006000fd5b61034961095c565b005b61035361097c565b6040516103609190615cbb565b60405180910390f35b610383600480360381019061037e91906157e9565b6109a2565b005b61038d610a29565b60405161039a91906160b1565b60405180910390f35b6103bd60048036038101906103b891906155fb565b610a32565b6040516103ca9190615ca7565b60405180910390f35b6103ed60048036038101906103e89190615696565b610a57565b005b6103f7610e15565b60405161040491906160f4565b60405180910390f35b610415610e2f565b6040516104239291906160c3565b60405180910390f35b610434611182565b60405161044191906160dc565b60405180910390f35b610452611198565b60405161045f91906160f4565b60405180910390f35b610482600480360381019061047d91906157e9565b6111b2565b60405161049395949392919061604b565b60405180910390f35b6104b660048036038101906104b19190615780565b611267565b005b6104c0611318565b6040516104cd9190615ce3565b60405180910390f35b6104f060048036038101906104eb91906157e9565b61133e565b005b61050c60048036038101906105079190615780565b611414565b005b610528600480360381019061052391906157e9565b611497565b6040516105359190615ca7565b60405180910390f35b610558600480360381019061055391906157e9565b6114fc565b6040516105659190615ca7565b60405180910390f35b610576611561565b60405161058391906160f4565b60405180910390f35b61059461157b565b6040516105a191906160b1565b60405180910390f35b6105c460048036038101906105bf91906157e9565b611584565b005b6105e060048036038101906105db9190615780565b6119d9565b005b6105ea611a78565b6040516105f791906160f4565b60405180910390f35b610608611a92565b60405161061591906160b1565b60405180910390f35b610626611a9b565b60405161063391906160b1565b60405180910390f35b610656600480360381019061065191906157e9565b611aa4565b6040516106639190615ca7565b60405180910390f35b610674611b08565b60405161068191906160b1565b60405180910390f35b610692611b11565b60405161069f91906160b1565b60405180910390f35b6106c260048036038101906106bd91906157e9565b611b1a565b6040516106d395949392919061604b565b60405180910390f35b6106f660048036038101906106f191906157e9565b611bcf565b005b610700611ca5565b60405161070d9190615ca7565b60405180910390f35b610730600480360381019061072b919061580c565b611cb8565b60405161073f93929190615bcd565b60405180910390f35b6107506122b4565b60405161075d91906160b1565b60405180910390f35b61076e6122bd565b60405161077b91906160f4565b60405180910390f35b61078c6122d7565b6040516107999190615d0b565b60405180910390f35b6107bc60048036038101906107b79190615780565b6122fd565b005b6107c6612380565b005b6107e260048036038101906107dd9190615780565b612556565b005b6107ec6125d9565b6040516107f991906160b1565b60405180910390f35b61081c60048036038101906108179190615844565b6125e2565b005b610826612c84565b005b610842600480360381019061083d91906157e9565b612d45565b005b61084c612dfc565b60405161085991906160f4565b60405180910390f35b61087c600480360381019061087791906157b8565b612e16565b005b610898600480360381019061089391906157e9565b612eb3565b6040516108a59190615ca7565b60405180910390f35b6108c860048036038101906108c391906157e9565b612f17565b005b6108d2613345565b6040516108df9190615b35565b60405180910390f35b61090260048036038101906108fd9190615844565b61336b565b005b61091e60048036038101906109199190615780565b613ab4565b005b610928613b3a565b60405161093591906160f4565b60405180910390f35b610946613b54565b6040516109539190615d0b565b60405180910390f35b61096a613b7a63ffffffff16565b610978613c0f63ffffffff16565b5b5b565b600060009054906101000a900473ffffffffffffffffffffffffffffffffffffffff1681565b6109b0613b7a63ffffffff16565b80600d60086101000a81548167ffffffffffffffff021916908367ffffffffffffffff1602179055506040516109e59061594b565b60405180910390207f6293347933ad2997134e224ac8cd2e39908a4a22aeed9af52127b4bbf765297882604051610a1c91906160f4565b60405180910390a25b5b50565b600a6000505481565b600560005060205280600052604060002060009150909054906101000a900460ff1681565b600160009054906101000a900473ffffffffffffffffffffffffffffffffffffffff1673ffffffffffffffffffffffffffffffffffffffff163373ffffffffffffffffffffffffffffffffffffffff16141515610ab45760006000fd5b600160006101000a81549073ffffffffffffffffffffffffffffffffffffffff021916905580600060006101000a81548173ffffffffffffffffffffffffffffffffffffffff021916908373ffffffffffffffffffffffffffffffffffffffff160217905550600060009054906101000a900473ffffffffffffffffffffffffffffffffffffffff1673ffffffffffffffffffffffffffffffffffffffff16639624e83e6040518163ffffffff1660e01b815260040160206040518083038186803b158015610b835760006000fd5b505afa158015610b98573d600060003e3d6000fd5b505050506040513d601f19601f82011682018060405250810190610bbc9190615648565b600260006101000a81548173ffffffffffffffffffffffffffffffffffffffff021916908373ffffffffffffffffffffffffffffffffffffffff160217905550600060009054906101000a900473ffffffffffffffffffffffffffffffffffffffff1673ffffffffffffffffffffffffffffffffffffffff16638a15fcf36040518163ffffffff1660e01b815260040160206040518083038186803b158015610c655760006000fd5b505afa158015610c7a573d600060003e3d6000fd5b505050506040513d601f19601f82011682018060405250810190610c9e9190615759565b600360006101000a81548173ffffffffffffffffffffffffffffffffffffffff021916908373ffffffffffffffffffffffffffffffffffffffff160217905550600060009054906101000a900473ffffffffffffffffffffffffffffffffffffffff1673ffffffffffffffffffffffffffffffffffffffff1663d478b0876040518163ffffffff1660e01b815260040160206040518083038186803b158015610d475760006000fd5b505afa158015610d5c573d600060003e3d6000fd5b505050506040513d601f19601f82011682018060405250810190610d8091906156e4565b600460006101000a81548173ffffffffffffffffffffffffffffffffffffffff021916908373ffffffffffffffffffffffffffffffffffffffff160217905550610dce613c5963ffffffff16565b8073ffffffffffffffffffffffffffffffffffffffff167f908408e307fc569b417f6cbec5d5a06f44a0a505ac0479b47d421a4b2fd6a1e660405160405180910390a25b50565b601060109054906101000a900467ffffffffffffffff1681565b600060003073ffffffffffffffffffffffffffffffffffffffff16600060009054906101000a900473ffffffffffffffffffffffffffffffffffffffff1673ffffffffffffffffffffffffffffffffffffffff166385aa61036040518163ffffffff1660e01b815260040160206040518083038186803b158015610eb35760006000fd5b505afa158015610ec8573d600060003e3d6000fd5b505050506040513d601f19601f82011682018060405250810190610eec919061566f565b73ffffffffffffffffffffffffffffffffffffffff16141515610f44576040517f08c379a0000000000000000000000000000000000000000000000000000000008152600401610f3b90615e2f565b60405180910390fd5b6000600360009054906101000a900473ffffffffffffffffffffffffffffffffffffffff1673ffffffffffffffffffffffffffffffffffffffff166375172a8b6040518163ffffffff1660e01b815260040160206040518083038186803b158015610faf5760006000fd5b505afa158015610fc4573d600060003e3d6000fd5b505050506040513d601f19601f82011682018060405250810190610fe8919061579c565b90506000600260009054906101000a900473ffffffffffffffffffffffffffffffffffffffff1673ffffffffffffffffffffffffffffffffffffffff16630dca59c16040518163ffffffff1660e01b815260040160206040518083038186803b1580156110555760006000fd5b505afa15801561106a573d600060003e3d6000fd5b505050506040513d601f19601f8201168201806040525081019061108e919061579c565b905060006110aa600c600050548361412990919063ffffffff16565b905060006110c6600b600050548461412990919063ffffffff16565b90506000600a6110df838561414f90919063ffffffff16565b8115156110e857fe5b049050826111046011600050548761414f90919063ffffffff16565b1115611133578083601160005054870303019650865060086000505487101561112e576000965086505b611178565b8161114c601260005054876141d890919063ffffffff16565b10156111775780601260005054860183030195508550600860005054861015611176576000955085505b5b5b50505050505b9091565b601060189054906101000a900463ffffffff1681565b600d60009054906101000a900467ffffffffffffffff1681565b600e6000506020528060005260406000206000915090508060000160009054906101000a90046fffffffffffffffffffffffffffffffff16908060000160109054906101000a90046fffffffffffffffffffffffffffffffff16908060010160009054906101000a900473ffffffffffffffffffffffffffffffffffffffff16908060010160149054906101000a900465ffffffffffff169080600101601a9054906101000a900465ffffffffffff16905085565b611275613b7a63ffffffff16565b80600860005081909090555060086000505460001015156112965760006000fd5b6009600050546008600050541015156112af5760006000fd5b600a600050546008600050541015156112c85760006000fd5b6040516112d490615aa2565b60405180910390207f3a64504f0bc0c335e2aecb78638a257e0351a3fe0370861fd54ee4190b9209338260405161130b91906160b1565b60405180910390a25b5b50565b601360009054906101000a900473ffffffffffffffffffffffffffffffffffffffff1681565b61134c613b7a63ffffffff16565b80600d60186101000a81548167ffffffffffffffff021916908367ffffffffffffffff160217905550600d60189054906101000a900467ffffffffffffffff1667ffffffffffffffff16600d60109054906101000a900467ffffffffffffffff1667ffffffffffffffff161015156113c45760006000fd5b6040516113d0906159de565b60405180910390207f6293347933ad2997134e224ac8cd2e39908a4a22aeed9af52127b4bbf76529788260405161140791906160f4565b60405180910390a25b5b50565b611422613b7a63ffffffff16565b80600a600050819090905550600a600050546008600050541015156114475760006000fd5b604051611453906159ad565b60405180910390207f3a64504f0bc0c335e2aecb78638a257e0351a3fe0370861fd54ee4190b9209338260405161148a91906160b1565b60405180910390a25b5b50565b60006114a88261426163ffffffff16565b6114b35760006114f0565b6114ee600f60005060008467ffffffffffffffff1667ffffffffffffffff1681526020019081526020016000206000506142d163ffffffff16565b155b90506114f7565b919050565b600061150d8261435063ffffffff16565b611518576000611555565b611553600e60005060008467ffffffffffffffff1667ffffffffffffffff1681526020019081526020016000206000506142d163ffffffff16565b155b905061155c565b919050565b600d60189054906101000a900467ffffffffffffffff1681565b60116000505481565b6115926143c063ffffffff16565b6115a061449f63ffffffff16565b6115af81611aa463ffffffff16565b15156115f0576040517f08c379a00000000000000000000000000000000000000000000000000000000081526004016115e790615db1565b60405180910390fd5b6000600f60005060008367ffffffffffffffff1667ffffffffffffffff1681526020019081526020016000206000506040518060a00160405290816000820160009054906101000a90046fffffffffffffffffffffffffffffffff166fffffffffffffffffffffffffffffffff166fffffffffffffffffffffffffffffffff1681526020016000820160109054906101000a90046fffffffffffffffffffffffffffffffff166fffffffffffffffffffffffffffffffff166fffffffffffffffffffffffffffffffff1681526020016001820160009054906101000a900473ffffffffffffffffffffffffffffffffffffffff1673ffffffffffffffffffffffffffffffffffffffff1673ffffffffffffffffffffffffffffffffffffffff1681526020016001820160149054906101000a900465ffffffffffff1665ffffffffffff1665ffffffffffff16815260200160018201601a9054906101000a900465ffffffffffff1665ffffffffffff1665ffffffffffff16815260200150509050600073ffffffffffffffffffffffffffffffffffffffff16816040015173ffffffffffffffffffffffffffffffffffffffff16141580156117c85750600081602001516fffffffffffffffffffffffffffffffff16115b1561186b57600060009054906101000a900473ffffffffffffffffffffffffffffffffffffffff1673ffffffffffffffffffffffffffffffffffffffff1663ef7a7cfa826040015183602001516040518363ffffffff1660e01b8152600401611832929190615b5d565b600060405180830381600087803b15801561184d5760006000fd5b505af1158015611862573d600060003e3d6000fd5b505050506118a5565b61189981600001516fffffffffffffffffffffffffffffffff1660126000505461414f90919063ffffffff16565b60126000508190909055505b806040015173ffffffffffffffffffffffffffffffffffffffff168267ffffffffffffffff167fd1b34ce351dc1a4cb6c40bb878ba19a12c4c44d35e7bdbeca7b5ebe947da312f60405160405180910390a3600f60005060008367ffffffffffffffff1667ffffffffffffffff16815260200190815260200160002060006000820160006101000a8154906fffffffffffffffffffffffffffffffff02191690556000820160106101000a8154906fffffffffffffffffffffffffffffffff02191690556001820160006101000a81549073ffffffffffffffffffffffffffffffffffffffff02191690556001820160146101000a81549065ffffffffffff021916905560018201601a6101000a81549065ffffffffffff02191690555050505b5b6119d56144f463ffffffff16565b5b50565b6119e7613b7a63ffffffff16565b80600c600050819090905550600c60005054600b60005054101515611a0c5760006000fd5b670de0b6b3a7640000600c60005054101515611a285760006000fd5b604051611a3490615b04565b60405180910390207f3a64504f0bc0c335e2aecb78638a257e0351a3fe0370861fd54ee4190b92093382604051611a6b91906160b1565b60405180910390a25b5b50565b600d60109054906101000a900467ffffffffffffffff1681565b600c6000505481565b60076000505481565b6000611ab58261426163ffffffff16565b611ac0576000611afc565b611afb600f60005060008467ffffffffffffffff1667ffffffffffffffff1681526020019081526020016000206000506142d163ffffffff16565b5b9050611b03565b919050565b60096000505481565b600b6000505481565b600f6000506020528060005260406000206000915090508060000160009054906101000a90046fffffffffffffffffffffffffffffffff16908060000160109054906101000a90046fffffffffffffffffffffffffffffffff16908060010160009054906101000a900473ffffffffffffffffffffffffffffffffffffffff16908060010160149054906101000a900465ffffffffffff169080600101601a9054906101000a900465ffffffffffff16905085565b611bdd613b7a63ffffffff16565b80600d60106101000a81548167ffffffffffffffff021916908367ffffffffffffffff160217905550600d60189054906101000a900467ffffffffffffffff1667ffffffffffffffff16600d60109054906101000a900467ffffffffffffffff1667ffffffffffffffff16101515611c555760006000fd5b604051611c6190615a40565b60405180910390207f6293347933ad2997134e224ac8cd2e39908a4a22aeed9af52127b4bbf765297882604051611c9891906160f4565b60405180910390a25b5b50565b600060149054906101000a900460ff1681565b606060606060600084611ce157601060089054906101000a900467ffffffffffffffff16611cf9565b601060009054906101000a900467ffffffffffffffff165b67ffffffffffffffff169050600060008790505b828167ffffffffffffffff161015611d645786611d3857611d338161426163ffffffff16565b611d48565b611d478161435063ffffffff16565b5b15611d565781806001019250505b5b8080600101915050611d0d565b508067ffffffffffffffff81118015611d7d5760006000fd5b50604051908082528060200260200182016040528015611db757816020015b611da461552f565b815260200190600190039081611d9c5790505b50945084508067ffffffffffffffff81118015611dd45760006000fd5b50604051908082528060200260200182016040528015611e035781602001602082028036833780820191505090505b50935083508067ffffffffffffffff81118015611e205760006000fd5b50604051908082528060200260200182016040528015611e4f5781602001602082028036833780820191505090505b5092508250600060008890505b838167ffffffffffffffff1610156122a857871561208557611e838161435063ffffffff16565b1515611e8e5761229b565b600e60005060008267ffffffffffffffff1667ffffffffffffffff1681526020019081526020016000206000506040518060a00160405290816000820160009054906101000a90046fffffffffffffffffffffffffffffffff166fffffffffffffffffffffffffffffffff166fffffffffffffffffffffffffffffffff1681526020016000820160109054906101000a90046fffffffffffffffffffffffffffffffff166fffffffffffffffffffffffffffffffff166fffffffffffffffffffffffffffffffff1681526020016001820160009054906101000a900473ffffffffffffffffffffffffffffffffffffffff1673ffffffffffffffffffffffffffffffffffffffff1673ffffffffffffffffffffffffffffffffffffffff1681526020016001820160149054906101000a900465ffffffffffff1665ffffffffffff1665ffffffffffff16815260200160018201601a9054906101000a900465ffffffffffff1665ffffffffffff1665ffffffffffff1681526020015050878381518110151561201957fe5b60200260200101819052508067ffffffffffffffff16868381518110151561203d57fe5b602002602001019090818152602001505061205d81612eb363ffffffff16565b858381518110151561206b57fe5b602002602001019015159081151581526020015050612292565b6120948161426163ffffffff16565b151561209f5761229b565b600f60005060008267ffffffffffffffff1667ffffffffffffffff1681526020019081526020016000206000506040518060a00160405290816000820160009054906101000a90046fffffffffffffffffffffffffffffffff166fffffffffffffffffffffffffffffffff166fffffffffffffffffffffffffffffffff1681526020016000820160109054906101000a90046fffffffffffffffffffffffffffffffff166fffffffffffffffffffffffffffffffff166fffffffffffffffffffffffffffffffff1681526020016001820160009054906101000a900473ffffffffffffffffffffffffffffffffffffffff1673ffffffffffffffffffffffffffffffffffffffff1673ffffffffffffffffffffffffffffffffffffffff1681526020016001820160149054906101000a900465ffffffffffff1665ffffffffffff1665ffffffffffff16815260200160018201601a9054906101000a900465ffffffffffff1665ffffffffffff1665ffffffffffff1681526020015050878381518110151561222a57fe5b60200260200101819052508067ffffffffffffffff16868381518110151561224e57fe5b602002602001019090818152602001505061226e81611aa463ffffffff16565b858381518110151561227c57fe5b6020026020010190151590811515815260200150505b81806001019250505b8080600101915050611e5c565b505050505b9250925092565b60126000505481565b601060089054906101000a900467ffffffffffffffff1681565b601460009054906101000a900473ffffffffffffffffffffffffffffffffffffffff1681565b61230b613b7a63ffffffff16565b80600b600050819090905550600c60005054600b600050541015156123305760006000fd5b60405161233c90615ad3565b60405180910390207f3a64504f0bc0c335e2aecb78638a257e0351a3fe0370861fd54ee4190b9209338260405161237391906160b1565b60405180910390a25b5b50565b61238e613b7a63ffffffff16565b600060009054906101000a900473ffffffffffffffffffffffffffffffffffffffff1673ffffffffffffffffffffffffffffffffffffffff16638396cf696040518163ffffffff1660e01b815260040160206040518083038186803b1580156123f75760006000fd5b505afa15801561240c573d600060003e3d6000fd5b505050506040513d601f19601f820116820180604052508101906124309190615732565b601460006101000a81548173ffffffffffffffffffffffffffffffffffffffff021916908373ffffffffffffffffffffffffffffffffffffffff160217905550600060009054906101000a900473ffffffffffffffffffffffffffffffffffffffff1673ffffffffffffffffffffffffffffffffffffffff1663ff0eccf66040518163ffffffff1660e01b815260040160206040518083038186803b1580156124d95760006000fd5b505afa1580156124ee573d600060003e3d6000fd5b505050506040513d601f19601f820116820180604052508101906125129190615732565b601560006101000a81548173ffffffffffffffffffffffffffffffffffffffff021916908373ffffffffffffffffffffffffffffffffffffffff1602179055505b5b565b612564613b7a63ffffffff16565b8060096000508190909055506009600050546008600050541015156125895760006000fd5b60405161259590615a0f565b60405180910390207f3a64504f0bc0c335e2aecb78638a257e0351a3fe0370861fd54ee4190b920933826040516125cc91906160b1565b60405180910390a25b5b50565b60086000505481565b6125f06143c063ffffffff16565b6125fe61449f63ffffffff16565b61260d8261149763ffffffff16565b151561264e576040517f08c379a000000000000000000000000000000000000000000000000000000000815260040161264590615fe8565b60405180910390fd5b6000600f60005060008467ffffffffffffffff1667ffffffffffffffff1681526020019081526020016000206000506040518060a00160405290816000820160009054906101000a90046fffffffffffffffffffffffffffffffff166fffffffffffffffffffffffffffffffff166fffffffffffffffffffffffffffffffff1681526020016000820160109054906101000a90046fffffffffffffffffffffffffffffffff166fffffffffffffffffffffffffffffffff166fffffffffffffffffffffffffffffffff1681526020016001820160009054906101000a900473ffffffffffffffffffffffffffffffffffffffff1673ffffffffffffffffffffffffffffffffffffffff1673ffffffffffffffffffffffffffffffffffffffff1681526020016001820160149054906101000a900465ffffffffffff1665ffffffffffff1665ffffffffffff16815260200160018201601a9054906101000a900465ffffffffffff1665ffffffffffff1665ffffffffffff1681526020015050905060003390506000600073ffffffffffffffffffffffffffffffffffffffff16836040015173ffffffffffffffffffffffffffffffffffffffff16141561290157612847600a61283985600001516fffffffffffffffffffffffffffffffff1661458863ffffffff16565b6146e690919063ffffffff16565b846fffffffffffffffffffffffffffffffff1610151561289c576040517f08c379a000000000000000000000000000000000000000000000000000000000815260040161289390615f2b565b60405180910390fd5b6128ca83600001516fffffffffffffffffffffffffffffffff1660126000505461414f90919063ffffffff16565b6012600050819090905550600360009054906101000a900473ffffffffffffffffffffffffffffffffffffffff169050805061298f565b61292f60076000505484602001516fffffffffffffffffffffffffffffffff1661478490919063ffffffff16565b846fffffffffffffffffffffffffffffffff1611151515612985576040517f08c379a000000000000000000000000000000000000000000000000000000000815260040161297c90615df0565b60405180910390fd5b8260400151905080505b81836040019073ffffffffffffffffffffffffffffffffffffffff16908173ffffffffffffffffffffffffffffffffffffffff16815260200150508383602001906fffffffffffffffffffffffffffffffff1690816fffffffffffffffffffffffffffffffff16815260200150506000612a3e612a27600d60089054906101000a900467ffffffffffffffff166147aa63ffffffff16565b67ffffffffffffffff166147e0909063ffffffff16565b90508065ffffffffffff16846060015165ffffffffffff161015612a7c5780846060019065ffffffffffff16908165ffffffffffff16815260200150505b83600f60005060008867ffffffffffffffff1667ffffffffffffffff16815260200190815260200160002060005060008201518160000160006101000a8154816fffffffffffffffffffffffffffffffff02191690836fffffffffffffffffffffffffffffffff16021790555060208201518160000160106101000a8154816fffffffffffffffffffffffffffffffff02191690836fffffffffffffffffffffffffffffffff16021790555060408201518160010160006101000a81548173ffffffffffffffffffffffffffffffffffffffff021916908373ffffffffffffffffffffffffffffffffffffffff16021790555060608201518160010160146101000a81548165ffffffffffff021916908365ffffffffffff160217905550608082015181600101601a6101000a81548165ffffffffffff021916908365ffffffffffff160217905550905050612c12600360009054906101000a900473ffffffffffffffffffffffffffffffffffffffff16848487600001516fffffffffffffffffffffffffffffffff1661487063ffffffff16565b8273ffffffffffffffffffffffffffffffffffffffff168667ffffffffffffffff167f3e40664282966c0a42567d60514e22e8d06206cbcaa7d79f53dc8fcd8c72424687604051612c639190616027565b60405180910390a3505050505b5b612c7f6144f463ffffffff16565b5b5050565b612c926143c063ffffffff16565b612ca0614a9b63ffffffff16565b60006000612cb2610e2f63ffffffff16565b915091506000821115612cd557612cd0826001614b9063ffffffff16565b612d30565b6000811115612cf457612cef816000614b9063ffffffff16565b612d2f565b6040517f08c379a0000000000000000000000000000000000000000000000000000000008152600401612d2690615fa9565b60405180910390fd5b5b50505b5b612d426144f463ffffffff16565b5b565b612d53613b7a63ffffffff16565b80600d60006101000a81548167ffffffffffffffff021916908367ffffffffffffffff1602179055506000600d60009054906101000a900467ffffffffffffffff1667ffffffffffffffff16111515612dac5760006000fd5b604051612db89061591a565b60405180910390207f6293347933ad2997134e224ac8cd2e39908a4a22aeed9af52127b4bbf765297882604051612def91906160f4565b60405180910390a25b5b50565b601060009054906101000a900467ffffffffffffffff1681565b612e24613b7a63ffffffff16565b61012c8163ffffffff1610151515612e3c5760006000fd5b80601060186101000a81548163ffffffff021916908363ffffffff160217905550604051612e699061597c565b60405180910390207f6293347933ad2997134e224ac8cd2e39908a4a22aeed9af52127b4bbf76529788263ffffffff16604051612ea691906160f4565b60405180910390a25b5b50565b6000612ec48261435063ffffffff16565b612ecf576000612f0b565b612f0a600e60005060008467ffffffffffffffff1667ffffffffffffffff1681526020019081526020016000206000506142d163ffffffff16565b5b9050612f12565b919050565b612f256143c063ffffffff16565b612f3361449f63ffffffff16565b612f4281612eb363ffffffff16565b1515612f83576040517f08c379a0000000000000000000000000000000000000000000000000000000008152600401612f7a90615db1565b60405180910390fd5b6000600e60005060008367ffffffffffffffff1667ffffffffffffffff1681526020019081526020016000206000506040518060a00160405290816000820160009054906101000a90046fffffffffffffffffffffffffffffffff166fffffffffffffffffffffffffffffffff166fffffffffffffffffffffffffffffffff1681526020016000820160109054906101000a90046fffffffffffffffffffffffffffffffff166fffffffffffffffffffffffffffffffff166fffffffffffffffffffffffffffffffff1681526020016001820160009054906101000a900473ffffffffffffffffffffffffffffffffffffffff1673ffffffffffffffffffffffffffffffffffffffff1673ffffffffffffffffffffffffffffffffffffffff1681526020016001820160149054906101000a900465ffffffffffff1665ffffffffffff1665ffffffffffff16815260200160018201601a9054906101000a900465ffffffffffff1665ffffffffffff1665ffffffffffff1681526020015050905061313281600001516fffffffffffffffffffffffffffffffff1660116000505461414f90919063ffffffff16565b6011600050819090905550600073ffffffffffffffffffffffffffffffffffffffff16816040015173ffffffffffffffffffffffffffffffffffffffff1614151561321157600360009054906101000a900473ffffffffffffffffffffffffffffffffffffffff1673ffffffffffffffffffffffffffffffffffffffff166316f9428f826040015183600001516040518363ffffffff1660e01b81526004016131dc929190615b5d565b600060405180830381600087803b1580156131f75760006000fd5b505af115801561320c573d600060003e3d6000fd5b505050505b806040015173ffffffffffffffffffffffffffffffffffffffff168267ffffffffffffffff167f596e5ff4197d4a01b2406d4c0717653cbc9166cf6ab2bdf78272eb99d191a09360405160405180910390a3600e60005060008367ffffffffffffffff1667ffffffffffffffff16815260200190815260200160002060006000820160006101000a8154906fffffffffffffffffffffffffffffffff02191690556000820160106101000a8154906fffffffffffffffffffffffffffffffff02191690556001820160006101000a81549073ffffffffffffffffffffffffffffffffffffffff02191690556001820160146101000a81549065ffffffffffff021916905560018201601a6101000a81549065ffffffffffff02191690555050505b5b6133416144f463ffffffff16565b5b50565b600160009054906101000a900473ffffffffffffffffffffffffffffffffffffffff1681565b6133796143c063ffffffff16565b61338761449f63ffffffff16565b613396826114fc63ffffffff16565b15156133d7576040517f08c379a00000000000000000000000000000000000000000000000000000000081526004016133ce90615fe8565b60405180910390fd5b60003390506000600e60005060008567ffffffffffffffff1667ffffffffffffffff1681526020019081526020016000206000506040518060a00160405290816000820160009054906101000a90046fffffffffffffffffffffffffffffffff166fffffffffffffffffffffffffffffffff166fffffffffffffffffffffffffffffffff1681526020016000820160109054906101000a90046fffffffffffffffffffffffffffffffff166fffffffffffffffffffffffffffffffff166fffffffffffffffffffffffffffffffff1681526020016001820160009054906101000a900473ffffffffffffffffffffffffffffffffffffffff1673ffffffffffffffffffffffffffffffffffffffff1673ffffffffffffffffffffffffffffffffffffffff1681526020016001820160149054906101000a900465ffffffffffff1665ffffffffffff1665ffffffffffff16815260200160018201601a9054906101000a900465ffffffffffff1665ffffffffffff1665ffffffffffff16815260200150509050600060006000600073ffffffffffffffffffffffffffffffffffffffff16846040015173ffffffffffffffffffffffffffffffffffffffff16141561363e57600a6135c385600001516fffffffffffffffffffffffffffffffff1661458863ffffffff16565b8115156135cc57fe5b04866fffffffffffffffffffffffffffffffff16111515613622576040517f08c379a000000000000000000000000000000000000000000000000000000000815260040161361990615d72565b60405180910390fd5b856fffffffffffffffffffffffffffffffff1692508250613714565b61366c60076000505485602001516fffffffffffffffffffffffffffffffff1661412990919063ffffffff16565b866fffffffffffffffffffffffffffffffff16101515156136c2576040517f08c379a00000000000000000000000000000000000000000000000000000000081526004016136b990615e6e565b60405180910390fd5b83602001519150815083604001519050805061370f84602001516fffffffffffffffffffffffffffffffff16876fffffffffffffffffffffffffffffffff1661414f90919063ffffffff16565b925082505b84846040019073ffffffffffffffffffffffffffffffffffffffff16908173ffffffffffffffffffffffffffffffffffffffff16815260200150508584602001906fffffffffffffffffffffffffffffffff1690816fffffffffffffffffffffffffffffffff168152602001505060006137c36137ac600d60089054906101000a900467ffffffffffffffff166147aa63ffffffff16565b67ffffffffffffffff166147e0909063ffffffff16565b90508065ffffffffffff16856060015165ffffffffffff1610156138015780856060019065ffffffffffff16908165ffffffffffff16815260200150505b84600e60005060008a67ffffffffffffffff1667ffffffffffffffff16815260200190815260200160002060005060008201518160000160006101000a8154816fffffffffffffffffffffffffffffffff02191690836fffffffffffffffffffffffffffffffff16021790555060208201518160000160106101000a8154816fffffffffffffffffffffffffffffffff02191690836fffffffffffffffffffffffffffffffff16021790555060408201518160010160006101000a81548173ffffffffffffffffffffffffffffffffffffffff021916908373ffffffffffffffffffffffffffffffffffffffff16021790555060608201518160010160146101000a81548165ffffffffffff021916908365ffffffffffff160217905550608082015181600101601a6101000a81548165ffffffffffff021916908365ffffffffffff1602179055509050506000836fffffffffffffffffffffffffffffffff1611156139af576139ae601360009054906101000a900473ffffffffffffffffffffffffffffffffffffffff168784866fffffffffffffffffffffffffffffffff1661487063ffffffff16565b5b601360009054906101000a900473ffffffffffffffffffffffffffffffffffffffff1673ffffffffffffffffffffffffffffffffffffffff166379cc679087866040518363ffffffff1660e01b8152600401613a0c929190615b9e565b600060405180830381600087803b158015613a275760006000fd5b505af1158015613a3c573d600060003e3d6000fd5b505050508573ffffffffffffffffffffffffffffffffffffffff168867ffffffffffffffff167fd428196c29fb7877242c66ff296d926b10a5051d369acf8fe5eb3ea21bb6ec9889604051613a919190616027565b60405180910390a35050505050505b5b613aaf6144f463ffffffff16565b5b5050565b613ac2613b7a63ffffffff16565b806007600050819090905550670de0b6b3a7640000600760005054111515613aea5760006000fd5b604051613af690615a71565b60405180910390207f3a64504f0bc0c335e2aecb78638a257e0351a3fe0370861fd54ee4190b92093382604051613b2d91906160b1565b60405180910390a25b5b50565b600d60089054906101000a900467ffffffffffffffff1681565b601560009054906101000a900473ffffffffffffffffffffffffffffffffffffffff1681565b600060009054906101000a900473ffffffffffffffffffffffffffffffffffffffff1673ffffffffffffffffffffffffffffffffffffffff163373ffffffffffffffffffffffffffffffffffffffff16141515613c0c576040517f08c379a0000000000000000000000000000000000000000000000000000000008152600401613c0390615ead565b60405180910390fd5b5b565b6001600060146101000a81548160ff0219169083151502179055507f7acc84e34091ae817647a4c49116f5cc07f319078ba80f8f5fde37ea7e25cbd660405160405180910390a15b565b600060009054906101000a900473ffffffffffffffffffffffffffffffffffffffff1673ffffffffffffffffffffffffffffffffffffffff166336fc02f46040518163ffffffff1660e01b815260040160206040518083038186803b158015613cc25760006000fd5b505afa158015613cd7573d600060003e3d6000fd5b505050506040513d601f19601f82011682018060405250810190613cfb919061570b565b601360006101000a81548173ffffffffffffffffffffffffffffffffffffffff021916908373ffffffffffffffffffffffffffffffffffffffff160217905550600060405180610160016040528063ddf31e6760e01b7bffffffffffffffffffffffffffffffffffffffffffffffffffffffff19167bffffffffffffffffffffffffffffffffffffffffffffffffffffffff191681526020016334b1447560e01b7bffffffffffffffffffffffffffffffffffffffffffffffffffffffff19167bffffffffffffffffffffffffffffffffffffffffffffffffffffffff19168152602001638d56248a60e01b7bffffffffffffffffffffffffffffffffffffffffffffffffffffffff19167bffffffffffffffffffffffffffffffffffffffffffffffffffffffff19168152602001633a3a63df60e01b7bffffffffffffffffffffffffffffffffffffffffffffffffffffffff19167bffffffffffffffffffffffffffffffffffffffffffffffffffffffff1916815260200163887c67d960e01b7bffffffffffffffffffffffffffffffffffffffffffffffffffffffff19167bffffffffffffffffffffffffffffffffffffffffffffffffffffffff19168152602001634ae8470d60e01b7bffffffffffffffffffffffffffffffffffffffffffffffffffffffff19167bffffffffffffffffffffffffffffffffffffffffffffffffffffffff1916815260200163afea44ef60e01b7bffffffffffffffffffffffffffffffffffffffffffffffffffffffff19167bffffffffffffffffffffffffffffffffffffffffffffffffffffffff19168152602001630fb4e2b360e01b7bffffffffffffffffffffffffffffffffffffffffffffffffffffffff19167bffffffffffffffffffffffffffffffffffffffffffffffffffffffff191681526020016375d0ef5260e01b7bffffffffffffffffffffffffffffffffffffffffffffffffffffffff19167bffffffffffffffffffffffffffffffffffffffffffffffffffffffff191681526020016337ca44fc60e01b7bffffffffffffffffffffffffffffffffffffffffffffffffffffffff19167bffffffffffffffffffffffffffffffffffffffffffffffffffffffff1916815260200163c433c80a60e01b7bffffffffffffffffffffffffffffffffffffffffffffffffffffffff19167bffffffffffffffffffffffffffffffffffffffffffffffffffffffff191681526020015090506000600090505b8150600b811015614124576001600560005060008484600b811015156140ae57fe5b60200201517bffffffffffffffffffffffffffffffffffffffffffffffffffffffff19167bffffffffffffffffffffffffffffffffffffffffffffffffffffffff1916815260200190815260200160002060006101000a81548160ff0219169083151502179055505b808060010191505061408c565b50505b565b60006141448383670de0b6b3a7640000614c5563ffffffff16565b905080505b92915050565b600082828403915081111515156141d1576040517f08c379a000000000000000000000000000000000000000000000000000000000815260040180806020018281038252600d8152602001807f7375622d756e646572666c6f770000000000000000000000000000000000000081526020015060200191505060405180910390fd5b5b92915050565b6000828284019150811015151561425a576040517f08c379a000000000000000000000000000000000000000000000000000000000815260040180806020018281038252600c8152602001807f6164642d6f766572666c6f77000000000000000000000000000000000000000081526020015060200191505060405180910390fd5b5b92915050565b60006000600f60005060008467ffffffffffffffff1667ffffffffffffffff16815260200190815260200160002060005060000160009054906101000a90046fffffffffffffffffffffffffffffffff166fffffffffffffffffffffffffffffffff161190506142cc565b919050565b600060006142e3614d5663ffffffff16565b90508067ffffffffffffffff168360010160149054906101000a900465ffffffffffff1665ffffffffffff16108061434257508067ffffffffffffffff1683600101601a9054906101000a900465ffffffffffff1665ffffffffffff16105b91505061434b56505b919050565b60006000600e60005060008467ffffffffffffffff1667ffffffffffffffff16815260200190815260200160002060005060000160009054906101000a90046fffffffffffffffffffffffffffffffff166fffffffffffffffffffffffffffffffff161190506143bb565b919050565b600460009054906101000a900473ffffffffffffffffffffffffffffffffffffffff1673ffffffffffffffffffffffffffffffffffffffff1663e97dcb626040518163ffffffff1660e01b8152600401600060405180830381600087803b15801561442b5760006000fd5b505af1158015614440573d600060003e3d6000fd5b5050505060026006600050541415151561448f576040517f08c379a000000000000000000000000000000000000000000000000000000000815260040161448690615eec565b60405180910390fd5b600260066000508190909055505b565b600060149054906101000a900460ff161515156144f1576040517f08c379a00000000000000000000000000000000000000000000000000000000081526004016144e890615f6a565b60405180910390fd5b5b565b60016006600050819090905550600460009054906101000a900473ffffffffffffffffffffffffffffffffffffffff1673ffffffffffffffffffffffffffffffffffffffff1663e9fad8ee6040518163ffffffff1660e01b8152600401600060405180830381600087803b15801561456c5760006000fd5b505af1158015614581573d600060003e3d6000fd5b505050505b565b60006146da600060009054906101000a900473ffffffffffffffffffffffffffffffffffffffff1673ffffffffffffffffffffffffffffffffffffffff1663d3419bf36040518163ffffffff1660e01b815260040160206040518083038186803b1580156145f65760006000fd5b505afa15801561460b573d600060003e3d6000fd5b505050506040513d601f19601f8201168201806040525081019061462f91906156bd565b73ffffffffffffffffffffffffffffffffffffffff1663cb75e31b601060189054906101000a900463ffffffff166040518263ffffffff1660e01b815260040161467991906160dc565b60206040518083038186803b1580156146925760006000fd5b505afa1580156146a7573d600060003e3d6000fd5b505050506040513d601f19601f820116820180604052508101906146cb919061579c565b8361478490919063ffffffff16565b90506146e1565b919050565b600060008214806147065750828283850292508281151561470357fe5b04145b151561477d576040517f08c379a000000000000000000000000000000000000000000000000000000000815260040180806020018281038252600c8152602001807f6d756c2d6f766572666c6f77000000000000000000000000000000000000000081526020015060200191505060405180910390fd5b5b92915050565b600061479f83670de0b6b3a764000084614c5563ffffffff16565b905080505b92915050565b60006147d6826147be614d5663ffffffff16565b67ffffffffffffffff16614d7190919063ffffffff16565b905080505b919050565b6000660100000000000082101515614863576040517f08c379a00000000000000000000000000000000000000000000000000000000081526004018080602001828103825260118152602001807f6d6f7265207468616e203438206269747300000000000000000000000000000081526020015060200191505060405180910390fd5b81905061486b565b919050565b600060008573ffffffffffffffffffffffffffffffffffffffff166323b872dd60e01b868686604051602401808473ffffffffffffffffffffffffffffffffffffffff1681526020018373ffffffffffffffffffffffffffffffffffffffff1681526020018281526020019350505050604051602081830303815290604052907bffffffffffffffffffffffffffffffffffffffffffffffffffffffff19166020820180517bffffffffffffffffffffffffffffffffffffffffffffffffffffffff83818316178352505050506040518082805190602001908083835b60208310151561497357805182525b60208201915060208101905060208303925061494d565b6001836020036101000a0380198251168184511680821785525050505050509050019150506000604051808303816000865af19150503d80600081146149d5576040519150601f19603f3d011682016040523d82523d6000602084013e6149da565b606091505b5091509150818015614a1b5750600081511480614a1a5750808060200190516020811015614a085760006000fd5b81019080805190602001909291905050505b5b1515614a92576040517f08c379a00000000000000000000000000000000000000000000000000000000081526004018080602001828103825260038152602001807f535446000000000000000000000000000000000000000000000000000000000081526020015060200191505060405180910390fd5b50505b50505050565b614aa961449f63ffffffff16565b600060009054906101000a900473ffffffffffffffffffffffffffffffffffffffff1673ffffffffffffffffffffffffffffffffffffffff1663bf86d6906040518163ffffffff1660e01b815260040160206040518083038186803b158015614b125760006000fd5b505afa158015614b27573d600060003e3d6000fd5b505050506040513d601f19601f82011682018060405250810190614b4b91906155d4565b151515614b8d576040517f08c379a0000000000000000000000000000000000000000000000000000000008152600401614b8490615d33565b60405180910390fd5b5b565b600081614ba257600a60005054614ba9565b6009600050545b9050614bbb8382614e0e63ffffffff16565b925082508115614bed57614bdd836011600050546141d890919063ffffffff16565b6011600050819090905550614c11565b614c05836012600050546141d890919063ffffffff16565b60126000508190909055505b60005b614c278285614e9790919063ffffffff16565b90508050614c3b8184614eb563ffffffff16565b808403935083505b600084111515614c14575b50505b5050565b6000600060006000198587098587029250828110838203039150506000811415614c9857600084111515614c895760006000fd5b83820492508292505050614d4f565b8084111515614ca75760006000fd5b6000848688099050828111820391508083039250600085866000031690508086049550808404935060018182600003040190508083028417935083506000600287600302189050808702600203810290508050808702600203810290508050808702600203810290508050808702600203810290508050808702600203810290508050808702600203810290508050808502955085508595505050505050614d4f5650505050505b9392505050565b6000614d6942615403909063ffffffff16565b905080505b90565b60008267ffffffffffffffff1682840191508167ffffffffffffffff1610151515614e07576040517f08c379a000000000000000000000000000000000000000000000000000000000815260040180806020018281038252600c8152602001807f6164642d6f766572666c6f77000000000000000000000000000000000000000081526020015060200191505060405180910390fd5b5b92915050565b60006000614e45600d60009054906101000a900467ffffffffffffffff1667ffffffffffffffff16846146e690919063ffffffff16565b905060008385811515614e5457fe5b06905060006008600050548210614e6b5785614e6f565b8186035b9050614e848184614e9790919063ffffffff16565b9350505050614e91565050505b92915050565b6000818310614ea65781614ea8565b825b9050614eaf565b92915050565b6000614edc600d60189054906101000a900467ffffffffffffffff166147aa63ffffffff16565b90508067ffffffffffffffff16601060109054906101000a900467ffffffffffffffff1667ffffffffffffffff161015614f3a5780601060106101000a81548167ffffffffffffffff021916908367ffffffffffffffff1602179055505b60006040518060a00160405280614f5886615495909063ffffffff16565b6fffffffffffffffffffffffffffffffff16815260200160006fffffffffffffffffffffffffffffffff168152602001600073ffffffffffffffffffffffffffffffffffffffff168152602001614fe4614fcd600d60109054906101000a900467ffffffffffffffff166147aa63ffffffff16565b67ffffffffffffffff166147e0909063ffffffff16565b65ffffffffffff16815260200161500c8467ffffffffffffffff166147e0909063ffffffff16565b65ffffffffffff16815260200150905082156152115780600e6000506000601060009054906101000a900467ffffffffffffffff1667ffffffffffffffff1667ffffffffffffffff16815260200190815260200160002060005060008201518160000160006101000a8154816fffffffffffffffffffffffffffffffff02191690836fffffffffffffffffffffffffffffffff16021790555060208201518160000160106101000a8154816fffffffffffffffffffffffffffffffff02191690836fffffffffffffffffffffffffffffffff16021790555060408201518160010160006101000a81548173ffffffffffffffffffffffffffffffffffffffff021916908373ffffffffffffffffffffffffffffffffffffffff16021790555060608201518160010160146101000a81548165ffffffffffff021916908365ffffffffffff160217905550608082015181600101601a6101000a81548165ffffffffffff021916908365ffffffffffff160217905550905050836010600081819054906101000a900467ffffffffffffffff168092919060010191906101000a81548167ffffffffffffffff021916908367ffffffffffffffff16021790555067ffffffffffffffff167fb706108f90fb9e0fadc5f3feaa02b4c23b9d569ad7b46408c64eb4f224eba7cd8460405161520491906160f4565b60405180910390a36153fc565b80600f6000506000601060089054906101000a900467ffffffffffffffff1667ffffffffffffffff1667ffffffffffffffff16815260200190815260200160002060005060008201518160000160006101000a8154816fffffffffffffffffffffffffffffffff02191690836fffffffffffffffffffffffffffffffff16021790555060208201518160000160106101000a8154816fffffffffffffffffffffffffffffffff02191690836fffffffffffffffffffffffffffffffff16021790555060408201518160010160006101000a81548173ffffffffffffffffffffffffffffffffffffffff021916908373ffffffffffffffffffffffffffffffffffffffff16021790555060608201518160010160146101000a81548165ffffffffffff021916908365ffffffffffff160217905550608082015181600101601a6101000a81548165ffffffffffff021916908365ffffffffffff160217905550905050836010600881819054906101000a900467ffffffffffffffff168092919060010191906101000a81548167ffffffffffffffff021916908367ffffffffffffffff16021790555067ffffffffffffffff167f4e673c0fa7786d8c4c1cba0d1678d726ef2cb772cc6abbe3cea73c1a6d9a681e846040516153f391906160f4565b60405180910390a35b50505b5050565b60006801000000000000000082101515615488576040517f08c379a00000000000000000000000000000000000000000000000000000000081526004018080602001828103825260118152602001807f6d6f7265207468616e203634206269747300000000000000000000000000000081526020015060200191505060405180910390fd5b819050615490565b919050565b600070010000000000000000000000000000000082101515615522576040517f08c379a00000000000000000000000000000000000000000000000000000000081526004018080602001828103825260128152602001807f6d6f7265207468616e203132382062697473000000000000000000000000000081526020015060200191505060405180910390fd5b81905061552a565b919050565b6040518060a0016040528060006fffffffffffffffffffffffffffffffff16815260200160006fffffffffffffffffffffffffffffffff168152602001600073ffffffffffffffffffffffffffffffffffffffff168152602001600065ffffffffffff168152602001600065ffffffffffff16815260200150905661614e565b60008135905067ffffffffffffffff8116811415156155ce5760006000fd5b5b919050565b6000602082840312156155e5578081fd5b81516155f081616110565b809150505b92915050565b60006020828403121561560c578081fd5b81357fffffffff0000000000000000000000000000000000000000000000000000000081168114151561563d578182fd5b809150505b92915050565b600060208284031215615659578081fd5b815161566481616125565b809150505b92915050565b600060208284031215615680578081fd5b815161568b81616125565b809150505b92915050565b6000602082840312156156a7578081fd5b81356156b281616125565b809150505b92915050565b6000602082840312156156ce578081fd5b81516156d981616125565b809150505b92915050565b6000602082840312156156f5578081fd5b815161570081616125565b809150505b92915050565b60006020828403121561571c578081fd5b815161572781616125565b809150505b92915050565b600060208284031215615743578081fd5b815161574e81616125565b809150505b92915050565b60006020828403121561576a578081fd5b815161577581616125565b809150505b92915050565b600060208284031215615791578081fd5b813590505b92915050565b6000602082840312156157ad578081fd5b815190505b92915050565b6000602082840312156157c9578081fd5b813563ffffffff8116811415156157de578182fd5b809150505b92915050565b6000602082840312156157fa578081fd5b615803826155af565b90505b92915050565b600060006040838503121561581f578081fd5b615828836155af565b9150602083013561583881616110565b809150505b9250929050565b6000600060408385031215615857578182fd5b615860836155af565b915060208301356fffffffffffffffffffffffffffffffff811681141515615886578182fd5b809150505b9250929050565b6000815180845260208085019450808401835b838110156158c957815115158752828701965082820191505b6001810190506158a5565b505050508290505b92915050565b6000815180845260208085019450808401835b8381101561590c5781518752828701965082820191505b6001810190506158ea565b505050508290505b92915050565b60007f6d6178426174636853697a6500000000000000000000000000000000000000008252600c820190505b919050565b60007f657874656e73696f6e50657242696400000000000000000000000000000000008252600f820190505b919050565b60007f747761704475726174696f6e00000000000000000000000000000000000000008252600c820190505b919050565b60007f6d6178446566696369744c6f7453697a6500000000000000000000000000000082526011820190505b919050565b60007f6d617841756374696f6e4475726174696f6e000000000000000000000000000082526012820190505b919050565b60007f6d6178537572706c75734c6f7453697a6500000000000000000000000000000082526011820190505b919050565b60007f6d696e41756374696f6e4475726174696f6e000000000000000000000000000082526012820190505b919050565b60007f6d696e42696444656c74610000000000000000000000000000000000000000008252600b820190505b919050565b60007f6d696e4c6f7453697a65000000000000000000000000000000000000000000008252600a820190505b919050565b60007f72657365727665734275666665724c6f776572426f756e64000000000000000082526018820190505b919050565b60007f72657365727665734275666665725570706572426f756e64000000000000000082526018820190505b919050565b600060208201905073ffffffffffffffffffffffffffffffffffffffff831682525b92915050565b600060408201905073ffffffffffffffffffffffffffffffffffffffff841682526fffffffffffffffffffffffffffffffff831660208301525b9392505050565b600060408201905073ffffffffffffffffffffffffffffffffffffffff841682528260208301525b9392505050565b600060608083018184528087518083526080925082860191506020808a01865b83811015615c705781516fffffffffffffffffffffffffffffffff8082511687528085830151168588015250604073ffffffffffffffffffffffffffffffffffffffff818301511681880152508781015165ffffffffffff8082168a8901528089840151168989015250505060a08501945082820191505b600181019050615bed565b5050868303818801525050615c8581886158d7565b925050508281036040840152615c9b8185615892565b9150505b949350505050565b600060208201905082151582525b92915050565b600060208201905073ffffffffffffffffffffffffffffffffffffffff831682525b92915050565b600060208201905073ffffffffffffffffffffffffffffffffffffffff831682525b92915050565b600060208201905073ffffffffffffffffffffffffffffffffffffffff831682525b92915050565b600060208252601160208301527f50726f746f636f6c2073687574646f776e00000000000000000000000000000060408301526060820190505b919050565b600060208252600b60208301527f42696420746f6f206c6f7700000000000000000000000000000000000000000060408301526060820190505b919050565b600060208252601460208301527f41756374696f6e206e6f7420636f6d706c65746500000000000000000000000060408301526060820190505b919050565b600060208252601160208301527f446964206e6f7420756e6465722062696400000000000000000000000000000060408301526060820190505b919050565b600060208252601360208301527f557365206c617465737420636f6e74726163740000000000000000000000000060408301526060820190505b919050565b600060208252600f60208301527f446964206e6f74206f757420626964000000000000000000000000000000000060408301526060820190505b919050565b600060208252600e60208301527f4e6f7420417574686f72697a656400000000000000000000000000000000000060408301526060820190505b919050565b600060208252600d60208301527f4c50205265656e7472616e63790000000000000000000000000000000000000060408301526060820190505b919050565b600060208252600c60208301527f42696420746f6f2068696768000000000000000000000000000000000000000060408301526060820190505b919050565b600060208252601360208301527f436f6e74726163742069732073746f707065640000000000000000000000000060408301526060820190505b919050565b600060208252601460208301527f4e6f2061756374696f6e7320746f20737461727400000000000000000000000060408301526060820190505b919050565b600060208252601060208301527f41756374696f6e206e6f74206c6976650000000000000000000000000000000060408301526060820190505b919050565b60006020820190506fffffffffffffffffffffffffffffffff831682525b92915050565b600060a0820190506fffffffffffffffffffffffffffffffff808816835280871660208401525073ffffffffffffffffffffffffffffffffffffffff8516604083015265ffffffffffff80851660608401528084166080840152505b9695505050505050565b60006020820190508282525b92915050565b60006040820190508382528260208301525b9392505050565b600060208201905063ffffffff831682525b92915050565b600060208201905067ffffffffffffffff831682525b92915050565b801515811415156161215760006000fd5b5b50565b73ffffffffffffffffffffffffffffffffffffffff81168114151561614a5760006000fd5b5b50565bfea2646970667358221220b7a71ee51c5d42ffc4bb9c66ce9b015644d22f8c01aded13c6522a5b51ceba2564736f6c63430007060033",
  "linkReferences": {},
  "deployedLinkReferences": {}
}