{
  "_format": "hh-sol-artifact-1",
  "contractName": "TDaoPositionNFT",
  "sourceName": "contracts/core/TDao/TDaoPositionNFT.sol",
  "abi": [
    {
      "inputs": [
        {
          "internalType": "address",
          "name": "_admin",
          "type": "address"
        },
        {
          "internalType": "contract ITDaoPositionNFTDescriptor",
          "name": "_descriptor",
          "type": "address"
        }
      ],
      "stateMutability": "nonpayable",
      "type": "constructor"
    },
    {
      "anonymous": false,
      "inputs": [
        {
          "indexed": true,
          "internalType": "address",
          "name": "owner",
          "type": "address"
        },
        {
          "indexed": true,
          "internalType": "address",
          "name": "approved",
          "type": "address"
        },
        {
          "indexed": true,
          "internalType": "uint256",
          "name": "tokenId",
          "type": "uint256"
        }
      ],
      "name": "Approval",
      "type": "event"
    },
    {
      "anonymous": false,
      "inputs": [
        {
          "indexed": true,
          "internalType": "address",
          "name": "owner",
          "type": "address"
        },
        {
          "indexed": true,
          "internalType": "address",
          "name": "operator",
          "type": "address"
        },
        {
          "indexed": false,
          "internalType": "bool",
          "name": "approved",
          "type": "bool"
        }
      ],
      "name": "ApprovalForAll",
      "type": "event"
    },
    {
      "anonymous": false,
      "inputs": [],
      "name": "PositionDescriptorUpdateAbdicated",
      "type": "event"
    },
    {
      "anonymous": false,
      "inputs": [
        {
          "indexed": true,
          "internalType": "contract ITDaoPositionNFTDescriptor",
          "name": "newPositionDescriptor",
          "type": "address"
        }
      ],
      "name": "PositionDescriptorUpdated",
      "type": "event"
    },
    {
      "anonymous": false,
      "inputs": [
        {
          "indexed": true,
          "internalType": "address",
          "name": "from",
          "type": "address"
        },
        {
          "indexed": true,
          "internalType": "address",
          "name": "to",
          "type": "address"
        },
        {
          "indexed": true,
          "internalType": "uint256",
          "name": "tokenId",
          "type": "uint256"
        }
      ],
      "name": "Transfer",
      "type": "event"
    },
    {
      "inputs": [],
      "name": "abdicateDescriptorUpdate",
      "outputs": [],
      "stateMutability": "nonpayable",
      "type": "function"
    },
    {
      "inputs": [],
      "name": "admin",
      "outputs": [
        {
          "internalType": "address",
          "name": "",
          "type": "address"
        }
      ],
      "stateMutability": "view",
      "type": "function"
    },
    {
      "inputs": [
        {
          "internalType": "address",
          "name": "to",
          "type": "address"
        },
        {
          "internalType": "uint256",
          "name": "tokenId",
          "type": "uint256"
        }
      ],
      "name": "approve",
      "outputs": [],
      "stateMutability": "nonpayable",
      "type": "function"
    },
    {
      "inputs": [
        {
          "internalType": "address",
          "name": "owner",
          "type": "address"
        }
      ],
      "name": "balanceOf",
      "outputs": [
        {
          "internalType": "uint256",
          "name": "",
          "type": "uint256"
        }
      ],
      "stateMutability": "view",
      "type": "function"
    },
    {
      "inputs": [],
      "name": "baseURI",
      "outputs": [
        {
          "internalType": "string",
          "name": "",
          "type": "string"
        }
      ],
      "stateMutability": "view",
      "type": "function"
    },
    {
      "inputs": [
        {
          "internalType": "uint256",
          "name": "tokenId",
          "type": "uint256"
        }
      ],
      "name": "burn",
      "outputs": [],
      "stateMutability": "nonpayable",
      "type": "function"
    },
    {
      "inputs": [
        {
          "internalType": "uint64",
          "name": "tokenID",
          "type": "uint64"
        }
      ],
      "name": "burn",
      "outputs": [],
      "stateMutability": "nonpayable",
      "type": "function"
    },
    {
      "inputs": [],
      "name": "canUpdateDescriptor",
      "outputs": [
        {
          "internalType": "bool",
          "name": "",
          "type": "bool"
        }
      ],
      "stateMutability": "view",
      "type": "function"
    },
    {
      "inputs": [],
      "name": "descriptor",
      "outputs": [
        {
          "internalType": "contract ITDaoPositionNFTDescriptor",
          "name": "",
          "type": "address"
        }
      ],
      "stateMutability": "view",
      "type": "function"
    },
    {
      "inputs": [
        {
          "internalType": "uint256",
          "name": "tokenId",
          "type": "uint256"
        }
      ],
      "name": "getApproved",
      "outputs": [
        {
          "internalType": "address",
          "name": "",
          "type": "address"
        }
      ],
      "stateMutability": "view",
      "type": "function"
    },
    {
      "inputs": [
        {
          "internalType": "address",
          "name": "owner",
          "type": "address"
        },
        {
          "internalType": "address",
          "name": "operator",
          "type": "address"
        }
      ],
      "name": "isApprovedForAll",
      "outputs": [
        {
          "internalType": "bool",
          "name": "",
          "type": "bool"
        }
      ],
      "stateMutability": "view",
      "type": "function"
    },
    {
      "inputs": [
        {
          "internalType": "address",
          "name": "account",
          "type": "address"
        },
        {
          "internalType": "uint256",
          "name": "tokenID",
          "type": "uint256"
        }
      ],
      "name": "isApprovedOrOwner",
      "outputs": [
        {
          "internalType": "bool",
          "name": "",
          "type": "bool"
        }
      ],
      "stateMutability": "view",
      "type": "function"
    },
    {
      "inputs": [
        {
          "internalType": "address",
          "name": "dest",
          "type": "address"
        }
      ],
      "name": "mintTo",
      "outputs": [
        {
          "internalType": "uint64",
          "name": "id",
          "type": "uint64"
        }
      ],
      "stateMutability": "nonpayable",
      "type": "function"
    },
    {
      "inputs": [],
      "name": "name",
      "outputs": [
        {
          "internalType": "string",
          "name": "",
          "type": "string"
        }
      ],
      "stateMutability": "view",
      "type": "function"
    },
    {
      "inputs": [],
      "name": "nextPositionID",
      "outputs": [
        {
          "internalType": "uint64",
          "name": "",
          "type": "uint64"
        }
      ],
      "stateMutability": "view",
      "type": "function"
    },
    {
      "inputs": [
        {
          "internalType": "uint256",
          "name": "tokenId",
          "type": "uint256"
        }
      ],
      "name": "ownerOf",
      "outputs": [
        {
          "internalType": "address",
          "name": "",
          "type": "address"
        }
      ],
      "stateMutability": "view",
      "type": "function"
    },
    {
      "inputs": [
        {
          "internalType": "address",
          "name": "account",
          "type": "address"
        }
      ],
      "name": "positionIDs",
      "outputs": [
        {
          "internalType": "uint64[]",
          "name": "IDs",
          "type": "uint64[]"
        }
      ],
      "stateMutability": "view",
      "type": "function"
    },
    {
      "inputs": [
        {
          "internalType": "address",
          "name": "from",
          "type": "address"
        },
        {
          "internalType": "address",
          "name": "to",
          "type": "address"
        },
        {
          "internalType": "uint256",
          "name": "tokenId",
          "type": "uint256"
        }
      ],
      "name": "safeTransferFrom",
      "outputs": [],
      "stateMutability": "nonpayable",
      "type": "function"
    },
    {
      "inputs": [
        {
          "internalType": "address",
          "name": "from",
          "type": "address"
        },
        {
          "internalType": "address",
          "name": "to",
          "type": "address"
        },
        {
          "internalType": "uint256",
          "name": "tokenId",
          "type": "uint256"
        },
        {
          "internalType": "bytes",
          "name": "_data",
          "type": "bytes"
        }
      ],
      "name": "safeTransferFrom",
      "outputs": [],
      "stateMutability": "nonpayable",
      "type": "function"
    },
    {
      "inputs": [
        {
          "internalType": "address",
          "name": "operator",
          "type": "address"
        },
        {
          "internalType": "bool",
          "name": "approved",
          "type": "bool"
        }
      ],
      "name": "setApprovalForAll",
      "outputs": [],
      "stateMutability": "nonpayable",
      "type": "function"
    },
    {
      "inputs": [
        {
          "internalType": "contract ITDaoPositionNFTDescriptor",
          "name": "_descriptor",
          "type": "address"
        }
      ],
      "name": "setPositionDescriptor",
      "outputs": [],
      "stateMutability": "nonpayable",
      "type": "function"
    },
    {
      "inputs": [
        {
          "internalType": "bytes4",
          "name": "interfaceId",
          "type": "bytes4"
        }
      ],
      "name": "supportsInterface",
      "outputs": [
        {
          "internalType": "bool",
          "name": "",
          "type": "bool"
        }
      ],
      "stateMutability": "view",
      "type": "function"
    },
    {
      "inputs": [],
      "name": "symbol",
      "outputs": [
        {
          "internalType": "string",
          "name": "",
          "type": "string"
        }
      ],
      "stateMutability": "view",
      "type": "function"
    },
    {
      "inputs": [
        {
          "internalType": "uint256",
          "name": "index",
          "type": "uint256"
        }
      ],
      "name": "tokenByIndex",
      "outputs": [
        {
          "internalType": "uint256",
          "name": "",
          "type": "uint256"
        }
      ],
      "stateMutability": "view",
      "type": "function"
    },
    {
      "inputs": [
        {
          "internalType": "address",
          "name": "owner",
          "type": "address"
        },
        {
          "internalType": "uint256",
          "name": "index",
          "type": "uint256"
        }
      ],
      "name": "tokenOfOwnerByIndex",
      "outputs": [
        {
          "internalType": "uint256",
          "name": "",
          "type": "uint256"
        }
      ],
      "stateMutability": "view",
      "type": "function"
    },
    {
      "inputs": [
        {
          "internalType": "uint256",
          "name": "tokenID",
          "type": "uint256"
        }
      ],
      "name": "tokenURI",
      "outputs": [
        {
          "internalType": "string",
          "name": "",
          "type": "string"
        }
      ],
      "stateMutability": "view",
      "type": "function"
    },
    {
      "inputs": [],
      "name": "totalSupply",
      "outputs": [
        {
          "internalType": "uint256",
          "name": "",
          "type": "uint256"
        }
      ],
      "stateMutability": "view",
      "type": "function"
    },
    {
      "inputs": [
        {
          "internalType": "address",
          "name": "from",
          "type": "address"
        },
        {
          "internalType": "address",
          "name": "to",
          "type": "address"
        },
        {
          "internalType": "uint256",
          "name": "tokenId",
          "type": "uint256"
        }
      ],
      "name": "transferFrom",
      "outputs": [],
      "stateMutability": "nonpayable",
      "type": "function"
    }
  ],
  "bytecode": "0x60a06040526001600a601c6101000a81548160ff0219169083151502179055503480156200002d5760006000fd5b5060405162003cb138038062003cb183398181016040528101906200005391906200042d565b5b6040518060400160405280601a81526020017f54727573746c6573732046696e616e636520506f736974696f6e0000000000008152602001506040518060400160405280600c81526020017f5444616f506f736974696f6e00000000000000000000000000000000000000008152602001505b81815b5b620000e36301ffc9a760e01b6200025360201b60201c565b5b8160066000509080519060200190620000ff92919062000366565b5080600760005090805190602001906200011b92919062000366565b50620001346380ac58cd60e01b6200025360201b60201c565b6200014c635b5e139f60e01b6200025360201b60201c565b6200016463780e9d6360e01b6200025360201b60201c565b5b50505b505080600a60086101000a81548173ffffffffffffffffffffffffffffffffffffffff021916908373ffffffffffffffffffffffffffffffffffffffff1602179055508173ffffffffffffffffffffffffffffffffffffffff1660808173ffffffffffffffffffffffffffffffffffffffff1660601b81526014015050600a60089054906101000a900473ffffffffffffffffffffffffffffffffffffffff1673ffffffffffffffffffffffffffffffffffffffff167fbe261926e6f803a22831f49bbb304297a70132e30e6ef1aed7a304b2a7dfea9460405160405180910390a25b50506200048c565b63ffffffff60e01b817bffffffffffffffffffffffffffffffffffffffffffffffffffffffff191614151515620002f5576040517f08c379a000000000000000000000000000000000000000000000000000000000815260040180806020018281038252601c8152602001807f4552433136353a20696e76616c696420696e746572666163652069640000000081526020015060200191505060405180910390fd5b600160006000506000837bffffffffffffffffffffffffffffffffffffffffffffffffffffffff19167bffffffffffffffffffffffffffffffffffffffffffffffffffffffff1916815260200190815260200160002060006101000a81548160ff0219169083151502179055505b50565b828054600181600116156101000203166002900490600052602060002090601f0160209004810192826200039e5760008555620003ef565b82601f10620003b957805160ff1916838001178555620003ef565b82800160010185558215620003ef579182015b82811115620003ee5782518260005090905591602001919060010190620003cc565b5b509050620003fe919062000402565b5090565b62000408565b8082111562000424576000818150600090555060010162000408565b5090566200048b565b600060006040838503121562000441578182fd5b82516200044e816200046e565b80925050602083015162000462816200046e565b809150505b9250929050565b6001600160a01b03811681141515620004875760006000fd5b5b50565b5b60805160601c6137f3620004be60003980610ce8528061103f52806116fb5280611dd0528061204152506137f36000f3fe60806040523480156100115760006000fd5b50600436106101c95760003560e01c80636352211e116100fa5780639dbead4211610098578063c87b56dd11610072578063c87b56dd1461051d578063d4d5efb61461054d578063e985e9c51461056b578063f851a4401461059b576101c9565b80639dbead42146104c9578063a22cb465146104e5578063b88d4fde14610501576101c9565b806370a08231116100d457806370a082311461042f578063755edd171461045f57806392208f371461048f57806395d89b41146104ab576101c9565b80636352211e146103d75780636c0360eb14610407578063701d99b014610425576101c9565b80632f745c591161016757806342966c681161014157806342966c681461032b578063430c2081146103475780634f6ccce7146103775780635a11a9ad146103a7576101c9565b80632f745c59146102c1578063303e74df146102f157806342842e0e1461030f576101c9565b8063095ea7b3116101a3578063095ea7b31461024d57806318160ddd146102695780631c8249051461028757806323b872dd146102a5576101c9565b806301ffc9a7146101cf57806306fdde03146101ff578063081812fc1461021d576101c9565b60006000fd5b6101e960048036038101906101e4919061319e565b6105b9565b6040516101f69190613364565b60405180910390f35b610207610629565b60405161021491906133a0565b60405180910390f35b61023760048036038101906102329190613293565b6106d3565b60405161024491906132e4565b60405180910390f35b6102676004803603810190610262919061316d565b61077e565b005b6102716108e5565b60405161027e9190613472565b60405180910390f35b61028f610906565b60405161029c9190613484565b60405180910390f35b6102bf60048036038101906102ba9190613030565b610920565b005b6102db60048036038101906102d6919061316d565b6109ab565b6040516102e89190613472565b60405180910390f35b6102f9610a11565b6040516103069190613378565b60405180910390f35b61032960048036038101906103249190613030565b610a37565b005b61034560048036038101906103409190613293565b610a61565b005b610361600480360381019061035c919061316d565b610ae8565b60405161036e9190613364565b60405180910390f35b610391600480360381019061038c9190613293565b610b07565b60405161039e9190613472565b60405180910390f35b6103c160048036038101906103bc9190612fcd565b610b34565b6040516103ce919061330c565b60405180910390f35b6103f160048036038101906103ec9190613293565b610bfd565b6040516103fe91906132e4565b60405180910390f35b61040f610c3c565b60405161041c91906133a0565b60405180910390f35b61042d610ce6565b005b61044960048036038101906104449190612fcd565b610d95565b6040516104569190613472565b60405180910390f35b61047960048036038101906104749190612fcd565b610e80565b6040516104869190613484565b60405180910390f35b6104a960048036038101906104a491906131eb565b61103d565b005b6104b36111c9565b6040516104c091906133a0565b60405180910390f35b6104e360048036038101906104de91906132af565b611273565b005b6104ff60048036038101906104fa919061312b565b611316565b005b61051b60048036038101906105169190613075565b6114ea565b005b61053760048036038101906105329190613293565b611577565b60405161054491906133a0565b60405180910390f35b610555611647565b6040516105629190613364565b60405180910390f35b61058560048036038101906105809190612ff4565b61165a565b6040516105929190613364565b60405180910390f35b6105a36116f9565b6040516105b091906132e4565b60405180910390f35b600060006000506000837bffffffffffffffffffffffffffffffffffffffffffffffffffffffff19167bffffffffffffffffffffffffffffffffffffffffffffffffffffffff1916815260200190815260200160002060009054906101000a900460ff169050610624565b919050565b606060066000508054600181600116156101000203166002900480601f0160208091040260200160405190810160405280929190818152602001828054600181600116156101000203166002900480156106c45780601f10610699576101008083540402835291602001916106c4565b820191906000526020600020905b8154815290600101906020018083116106a757829003601f168201915b505050505090506106d0565b90565b60006106e48261171d63ffffffff16565b151561073b576040517f08c379a000000000000000000000000000000000000000000000000000000000815260040180806020018281038252602c8152602001806136e7602c913960400191505060405180910390fd5b6004600050600083815260200190815260200160002060009054906101000a900473ffffffffffffffffffffffffffffffffffffffff169050610779565b919050565b600061078f82610bfd63ffffffff16565b90508073ffffffffffffffffffffffffffffffffffffffff168373ffffffffffffffffffffffffffffffffffffffff1614151515610818576040517f08c379a000000000000000000000000000000000000000000000000000000000815260040180806020018281038252602181526020018061373c6021913960400191505060405180910390fd5b8073ffffffffffffffffffffffffffffffffffffffff1661083d61174263ffffffff16565b73ffffffffffffffffffffffffffffffffffffffff16148061087857506108778161086c61174263ffffffff16565b61165a63ffffffff16565b5b15156108cf576040517f08c379a000000000000000000000000000000000000000000000000000000000815260040180806020018281038252603881526020018061363a6038913960400191505060405180910390fd5b6108df838361174f63ffffffff16565b505b5050565b60006108fc6002600050611812909063ffffffff16565b9050610903565b90565b600a60009054906101000a900467ffffffffffffffff1681565b61093d61093161174263ffffffff16565b8261183563ffffffff16565b1515610994576040517f08c379a000000000000000000000000000000000000000000000000000000000815260040180806020018281038252603181526020018061375d6031913960400191505060405180910390fd5b6109a583838361194963ffffffff16565b5b505050565b6000610a0482600160005060008673ffffffffffffffffffffffffffffffffffffffff1673ffffffffffffffffffffffffffffffffffffffff168152602001908152602001600020600050611bb290919063ffffffff16565b9050610a0b565b92915050565b600a60089054906101000a900473ffffffffffffffffffffffffffffffffffffffff1681565b610a5b838383604051806020016040528060008152602001506114ea63ffffffff16565b5b505050565b610a7e610a7261174263ffffffff16565b8261183563ffffffff16565b1515610ad5576040517f08c379a000000000000000000000000000000000000000000000000000000000815260040180806020018281038252603081526020018061378e6030913960400191505060405180910390fd5b610ae481611bda63ffffffff16565b5b50565b6000610afa838361183563ffffffff16565b9050610b01565b92915050565b60006000610b22836002600050611d3b90919063ffffffff16565b50905080915050610b2f56505b919050565b60606000610b4783610d9563ffffffff16565b90508067ffffffffffffffff81118015610b615760006000fd5b50604051908082528060200260200182016040528015610b905781602001602082028036833780820191505090505b50915081506000600090505b81811015610bf557610bb484826109ab63ffffffff16565b8382815181101515610bc257fe5b602002602001019067ffffffffffffffff16908167ffffffffffffffff16815260200150505b8080600101915050610b9c565b50505b919050565b6000610c308260405180606001604052806029815260200161369c602991396002600050611d7c9092919063ffffffff16565b9050610c37565b919050565b606060096000508054600181600116156101000203166002900480601f016020809104026020016040519081016040528092919081815260200182805460018160011615610100020316600290048015610cd75780601f10610cac57610100808354040283529160200191610cd7565b820191906000526020600020905b815481529060010190602001808311610cba57829003601f168201915b50505050509050610ce3565b90565b7f000000000000000000000000000000000000000000000000000000000000000073ffffffffffffffffffffffffffffffffffffffff163373ffffffffffffffffffffffffffffffffffffffff16141515610d76576040517f08c379a0000000000000000000000000000000000000000000000000000000008152600401610d6d906133f4565b60405180910390fd5b6000600a601c6101000a81548160ff0219169083151502179055505b5b565b6000600073ffffffffffffffffffffffffffffffffffffffff168273ffffffffffffffffffffffffffffffffffffffff1614151515610e1f576040517f08c379a000000000000000000000000000000000000000000000000000000000815260040180806020018281038252602a815260200180613672602a913960400191505060405180910390fd5b610e74600160005060008473ffffffffffffffffffffffffffffffffffffffff1673ffffffffffffffffffffffffffffffffffffffff168152602001908152602001600020600050611da9909063ffffffff16565b9050610e7b565b919050565b6000610e9133611dcc63ffffffff16565b1515610f08576040517f08c379a000000000000000000000000000000000000000000000000000000000815260040180806020018281038252600e8152602001807f4e6f7420417574686f72697a656400000000000000000000000000000000000081526020015060200191505060405180910390fd5b67ffffffffffffffff67ffffffffffffffff16600a60009054906101000a900467ffffffffffffffff1667ffffffffffffffff16101515610fb4576040517f08c379a00000000000000000000000000000000000000000000000000000000081526004018080602001828103825260088152602001807f4f766572666c6f7700000000000000000000000000000000000000000000000081526020015060200191505060405180910390fd5b600a60009054906101000a900467ffffffffffffffff1690508050600a600081819054906101000a900467ffffffffffffffff168092919060010191906101000a81548167ffffffffffffffff021916908367ffffffffffffffff16021790555050611030828267ffffffffffffffff16611e2963ffffffff16565b809050611038565b919050565b7f000000000000000000000000000000000000000000000000000000000000000073ffffffffffffffffffffffffffffffffffffffff163373ffffffffffffffffffffffffffffffffffffffff161415156110cd576040517f08c379a00000000000000000000000000000000000000000000000000000000081526004016110c4906133f4565b60405180910390fd5b600a601c9054906101000a900460ff16151561111e576040517f08c379a000000000000000000000000000000000000000000000000000000000815260040161111590613433565b60405180910390fd5b80600a60086101000a81548173ffffffffffffffffffffffffffffffffffffffff021916908373ffffffffffffffffffffffffffffffffffffffff160217905550600a60089054906101000a900473ffffffffffffffffffffffffffffffffffffffff1673ffffffffffffffffffffffffffffffffffffffff167fbe261926e6f803a22831f49bbb304297a70132e30e6ef1aed7a304b2a7dfea9460405160405180910390a25b5b50565b606060076000508054600181600116156101000203166002900480601f0160208091040260200160405190810160405280929190818152602001828054600181600116156101000203166002900480156112645780601f1061123957610100808354040283529160200191611264565b820191906000526020600020905b81548152906001019060200180831161124757829003601f168201915b50505050509050611270565b90565b6112823361203d63ffffffff16565b15156112f9576040517f08c379a000000000000000000000000000000000000000000000000000000000815260040180806020018281038252600e8152602001807f4e6f7420417574686f72697a656400000000000000000000000000000000000081526020015060200191505060405180910390fd5b6113128167ffffffffffffffff16611bda63ffffffff16565b5b50565b61132461174263ffffffff16565b73ffffffffffffffffffffffffffffffffffffffff168273ffffffffffffffffffffffffffffffffffffffff16141515156113ca576040517f08c379a00000000000000000000000000000000000000000000000000000000081526004018080602001828103825260198152602001807f4552433732313a20617070726f766520746f2063616c6c65720000000000000081526020015060200191505060405180910390fd5b80600560005060006113e061174263ffffffff16565b73ffffffffffffffffffffffffffffffffffffffff1673ffffffffffffffffffffffffffffffffffffffff16815260200190815260200160002060005060008473ffffffffffffffffffffffffffffffffffffffff1673ffffffffffffffffffffffffffffffffffffffff16815260200190815260200160002060006101000a81548160ff0219169083151502179055508173ffffffffffffffffffffffffffffffffffffffff1661149661174263ffffffff16565b73ffffffffffffffffffffffffffffffffffffffff167f17307eab39ab6107e8899845ad3d59bd9653f200f220920489ca2b5937696c318360405180821515815260200191505060405180910390a35b5050565b6115076114fb61174263ffffffff16565b8361183563ffffffff16565b151561155e576040517f08c379a000000000000000000000000000000000000000000000000000000000815260040180806020018281038252603181526020018061375d6031913960400191505060405180910390fd5b6115708484848461209a63ffffffff16565b5b50505050565b6060600a60089054906101000a900473ffffffffffffffffffffffffffffffffffffffff1673ffffffffffffffffffffffffffffffffffffffff16632bf2bc8f6115c88461211b909063ffffffff16565b6040518263ffffffff1660e01b81526004016115e49190613484565b60006040518083038186803b1580156115fd5760006000fd5b505afa158015611612573d600060003e3d6000fd5b505050506040513d6000823e3d601f19601f8201168201806040525081019061163b9190613212565b9050611642565b919050565b600a601c9054906101000a900460ff1681565b6000600560005060008473ffffffffffffffffffffffffffffffffffffffff1673ffffffffffffffffffffffffffffffffffffffff16815260200190815260200160002060005060008373ffffffffffffffffffffffffffffffffffffffff1673ffffffffffffffffffffffffffffffffffffffff16815260200190815260200160002060009054906101000a900460ff1690506116f3565b92915050565b7f000000000000000000000000000000000000000000000000000000000000000081565b60006117368260026000506121ad90919063ffffffff16565b905061173d565b919050565b600033905061174c565b90565b816004600050600083815260200190815260200160002060006101000a81548173ffffffffffffffffffffffffffffffffffffffff021916908373ffffffffffffffffffffffffffffffffffffffff160217905550808273ffffffffffffffffffffffffffffffffffffffff166117cb83610bfd63ffffffff16565b73ffffffffffffffffffffffffffffffffffffffff167f8c5be1e5ebec7d5bd14f71427d1e84f3dd0314c0f7b2291e5b200ac8c7c3b92560405160405180910390a45b5050565b6000611829826000016000506121d563ffffffff16565b9050611830565b919050565b60006118468261171d63ffffffff16565b151561189d576040517f08c379a000000000000000000000000000000000000000000000000000000000815260040180806020018281038252602c81526020018061360e602c913960400191505060405180910390fd5b60006118ae83610bfd63ffffffff16565b90508073ffffffffffffffffffffffffffffffffffffffff168473ffffffffffffffffffffffffffffffffffffffff16148061192357508373ffffffffffffffffffffffffffffffffffffffff1661190b846106d363ffffffff16565b73ffffffffffffffffffffffffffffffffffffffff16145b8061193a5750611939818561165a63ffffffff16565b5b91505061194356505b92915050565b8273ffffffffffffffffffffffffffffffffffffffff1661196f82610bfd63ffffffff16565b73ffffffffffffffffffffffffffffffffffffffff161415156119dd576040517f08c379a00000000000000000000000000000000000000000000000000000000081526004018080602001828103825260298152602001806137136029913960400191505060405180910390fd5b600073ffffffffffffffffffffffffffffffffffffffff168273ffffffffffffffffffffffffffffffffffffffff1614151515611a65576040517f08c379a00000000000000000000000000000000000000000000000000000000081526004018080602001828103825260248152602001806135c46024913960400191505060405180910390fd5b611a768383836121ee63ffffffff16565b611a8760008261174f63ffffffff16565b611ade81600160005060008673ffffffffffffffffffffffffffffffffffffffff1673ffffffffffffffffffffffffffffffffffffffff1681526020019081526020016000206000506121f490919063ffffffff16565b50611b3681600160005060008573ffffffffffffffffffffffffffffffffffffffff1673ffffffffffffffffffffffffffffffffffffffff16815260200190815260200160002060005061221c90919063ffffffff16565b50611b50818360026000506122449092919063ffffffff16565b50808273ffffffffffffffffffffffffffffffffffffffff168473ffffffffffffffffffffffffffffffffffffffff167fddf252ad1be2c89b69c2b068fc378daa952ba7f163c4a11628f55a4df523b3ef60405160405180910390a45b505050565b6000611bca836000016000508361228763ffffffff16565b60001c9050611bd4565b92915050565b6000611beb82610bfd63ffffffff16565b9050611bff816000846121ee63ffffffff16565b611c1060008361174f63ffffffff16565b600060086000506000848152602001908152602001600020600050805460018160011615610100020316600290049050141515611c6a57600860005060008381526020019081526020016000206000611c699190612f5e565b5b611cc182600160005060008473ffffffffffffffffffffffffffffffffffffffff1673ffffffffffffffffffffffffffffffffffffffff1681526020019081526020016000206000506121f490919063ffffffff16565b50611cd982600260005061231e90919063ffffffff16565b5081600073ffffffffffffffffffffffffffffffffffffffff168273ffffffffffffffffffffffffffffffffffffffff167fddf252ad1be2c89b69c2b068fc378daa952ba7f163c4a11628f55a4df523b3ef60405160405180910390a4505b50565b6000600060006000611d59866000016000508661234663ffffffff16565b915091508160001c8160001c809050935093505050611d755650505b9250929050565b6000611d98846000016000508460001b846123fa63ffffffff16565b60001c9050611da2565b9392505050565b6000611dc08260000160005061251463ffffffff16565b9050611dc7565b919050565b60007f000000000000000000000000000000000000000000000000000000000000000073ffffffffffffffffffffffffffffffffffffffff168273ffffffffffffffffffffffffffffffffffffffff16149050611e24565b919050565b600073ffffffffffffffffffffffffffffffffffffffff168273ffffffffffffffffffffffffffffffffffffffff1614151515611ed1576040517f08c379a00000000000000000000000000000000000000000000000000000000081526004018080602001828103825260208152602001807f4552433732313a206d696e7420746f20746865207a65726f206164647265737381526020015060200191505060405180910390fd5b611ee08161171d63ffffffff16565b151515611f58576040517f08c379a000000000000000000000000000000000000000000000000000000000815260040180806020018281038252601c8152602001807f4552433732313a20746f6b656e20616c7265616479206d696e7465640000000081526020015060200191505060405180910390fd5b611f6a600083836121ee63ffffffff16565b611fc181600160005060008573ffffffffffffffffffffffffffffffffffffffff1673ffffffffffffffffffffffffffffffffffffffff16815260200190815260200160002060005061221c90919063ffffffff16565b50611fdb818360026000506122449092919063ffffffff16565b50808273ffffffffffffffffffffffffffffffffffffffff16600073ffffffffffffffffffffffffffffffffffffffff167fddf252ad1be2c89b69c2b068fc378daa952ba7f163c4a11628f55a4df523b3ef60405160405180910390a45b5050565b60007f000000000000000000000000000000000000000000000000000000000000000073ffffffffffffffffffffffffffffffffffffffff168273ffffffffffffffffffffffffffffffffffffffff16149050612095565b919050565b6120ab84848461194963ffffffff16565b6120bd8484848461252d63ffffffff16565b1515612114576040517f08c379a00000000000000000000000000000000000000000000000000000000081526004018080602001828103825260328152602001806135926032913960400191505060405180910390fd5b5b50505050565b600068010000000000000000821015156121a0576040517f08c379a00000000000000000000000000000000000000000000000000000000081526004018080602001828103825260118152602001807f6d6f7265207468616e203634206269747300000000000000000000000000000081526020015060200191505060405180910390fd5b8190506121a8565b919050565b60006121c8836000016000508360001b61275e63ffffffff16565b90506121cf565b92915050565b6000816000016000508054905090506121e9565b919050565b5b505050565b600061220f836000016000508360001b61279563ffffffff16565b9050612216565b92915050565b6000612237836000016000508360001b6128e063ffffffff16565b905061223e565b92915050565b6000612279846000016000508460001b8473ffffffffffffffffffffffffffffffffffffffff1660001b61297f63ffffffff16565b9050612280565b9392505050565b60008183600001600050805490501115156122ed576040517f08c379a00000000000000000000000000000000000000000000000000000000081526004018080602001828103825260228152602001806135706022913960400191505060405180910390fd5b826000016000508281548110151561230157fe5b906000526020600020900160005b50549050612318565b92915050565b6000612339836000016000508360001b612aba63ffffffff16565b9050612340565b92915050565b600060008284600001600050805490501115156123ae576040517f08c379a00000000000000000000000000000000000000000000000000000000081526004018080602001828103825260228152602001806136c56022913960400191505060405180910390fd5b600084600001600050848154811015156123c457fe5b906000526020600020906002020160005b5090508060000160005054816001016000505492509250506123f356505b9250929050565b6000600084600101600050600085600019166000191681526020019081526020016000206000505490506000811415839015156124d3576040517f08c379a00000000000000000000000000000000000000000000000000000000081526004018080602001828103825283818151815260200191508051906020019080838360005b838110156124985780820151818401525b60208101905061247c565b50505050905090810190601f1680156124c55780820380516001836020036101000a031916815260200191505b509250505060405180910390fd5b5084600001600050600182038154811015156124eb57fe5b906000526020600020906002020160005b506001016000505491505061250d56505b9392505050565b600081600001600050805490509050612528565b919050565b60006125568473ffffffffffffffffffffffffffffffffffffffff16612c4c909063ffffffff16565b15156125655760019050612756565b60006126d663150b7a0260e01b61258061174263ffffffff16565b888787604051602401808573ffffffffffffffffffffffffffffffffffffffff1681526020018473ffffffffffffffffffffffffffffffffffffffff16815260200183815260200180602001828103825283818151815260200191508051906020019080838360005b838110156126055780820151818401525b6020810190506125e9565b50505050905090810190601f1680156126325780820380516001836020036101000a031916815260200191505b5095505050505050604051602081830303815290604052907bffffffffffffffffffffffffffffffffffffffffffffffffffffffff19166020820180517bffffffffffffffffffffffffffffffffffffffffffffffffffffffff8381831617835250505050604051806060016040528060328152602001613592603291398773ffffffffffffffffffffffffffffffffffffffff16612c669092919063ffffffff16565b905060008180602001905160208110156126f05760006000fd5b8101908080519060200190929190505050905063150b7a0260e01b7bffffffffffffffffffffffffffffffffffffffffffffffffffffffff1916817bffffffffffffffffffffffffffffffffffffffffffffffffffffffff191614925050506127565650505b949350505050565b600060008360010160005060008460001916600019168152602001908152602001600020600050541415905061278f565b92915050565b6000600083600101600050600084600019166000191681526020019081526020016000206000505490506000811415156128ce576000600182039050600060018660000160005080549050039050600086600001600050828154811015156127f957fe5b906000526020600020900160005b5054905080876000016000508481548110151561282057fe5b906000526020600020900160005b508190906000191690555060018301876001016000506000836000191660001916815260200190815260200160002060005081909090555086600001600050805480151561287857fe5b600190038181906000526020600020900160005b5060009055905586600101600050600087600019166000191681526020019081526020016000206000506000905560019450505050506128da565050506128d8565b60009150506128da565b505b92915050565b60006128f28383612c8963ffffffff16565b151561296f578260000160005082908060018154018082558091505060019003906000526020600020900160005b9091909190915090600019169055826000016000508054905083600101600050600084600019166000191681526020019081526020016000206000508190909055506001905061297956612978565b60009050612979565b5b92915050565b6000600084600101600050600085600019166000191681526020019081526020016000206000505490506000811415612a6d57846000016000506040518060400160405280866000191681526020018560001916815260200150908060018154018082558091505060019003906000526020600020906002020160005b9091909190915060008201518160000160005090600019169055602082015181600101600050906000191690555050846000016000508054905085600101600050600086600019166000191681526020019081526020016000206000508190909055506001915050612ab356612ab1565b828560000160005060018303815481101515612a8557fe5b906000526020600020906002020160005b50600101600050819090600019169055506000915050612ab3565b505b9392505050565b600060008360010160005060008460001916600019168152602001908152602001600020600050549050600081141515612c3a57600060018203905060006001866000016000508054905003905060008660000160005082815481101515612b1e57fe5b906000526020600020906002020160005b509050808760000160005084815481101515612b4757fe5b906000526020600020906002020160005b50600082016000505481600001600050906000191690556001820160005054816001016000509060001916905590505060018301876001016000506000836000016000505460001916600019168152602001908152602001600020600050819090905550866000016000508054801515612bce57fe5b600190038181906000526020600020906002020160005b60008201600050600090556001820160005060009055505090558660010160005060008760001916600019168152602001908152602001600020600050600090556001945050505050612c4656505050612c44565b6000915050612c46565b505b92915050565b60006000823b905060008111915050612c6156505b919050565b6060612c7b8484600085612cc063ffffffff16565b9050612c82565b9392505050565b6000600083600101600050600084600019166000191681526020019081526020016000206000505414159050612cba565b92915050565b6060824710151515612d1d576040517f08c379a00000000000000000000000000000000000000000000000000000000081526004018080602001828103825260268152602001806135e86026913960400191505060405180910390fd5b612d2c85612c4c63ffffffff16565b1515612da3576040517f08c379a000000000000000000000000000000000000000000000000000000000815260040180806020018281038252601d8152602001807f416464726573733a2063616c6c20746f206e6f6e2d636f6e747261637400000081526020015060200191505060405180910390fd5b600060008673ffffffffffffffffffffffffffffffffffffffff1685876040518082805190602001908083835b602083101515612df657805182525b602082019150602081019050602083039250612dd0565b6001836020036101000a03801982511681845116808217855250505050505090500191505060006040518083038185875af1925050503d8060008114612e58576040519150601f19603f3d011682016040523d82523d6000602084013e612e5d565b606091505b5091509150612e73828286612e8663ffffffff16565b92505050612e7e5650505b949350505050565b60608315612e9a57829050612f5756612f56565b600083511115612eb25782518084602001fd50612f55565b816040517f08c379a00000000000000000000000000000000000000000000000000000000081526004018080602001828103825283818151815260200191508051906020019080838360005b83811015612f1a5780820151818401525b602081019050612efe565b50505050905090810190601f168015612f475780820380516001836020036101000a031916815260200191505b509250505060405180910390fd5b5b5b9392505050565b50805460018160011615610100020316600290046000825580601f10612f845750612fa3565b601f016020900490600052602060002090810190612fa29190612fa6565b5b50565b612fab565b80821115612fc55760008181506000905550600101612fab565b50905661356e565b600060208284031215612fde578081fd5b8135612fe981613545565b809150505b92915050565b6000600060408385031215613007578081fd5b823561301281613545565b80925050602083013561302481613545565b809150505b9250929050565b60006000600060608486031215613045578081fd5b833561305081613545565b80935050602084013561306281613545565b80925050604084013590505b9250925092565b60006000600060006080858703121561308c578081fd5b843561309781613545565b8094505060208501356130a981613545565b8093505060408501359150606085013567ffffffffffffffff8111156130cd578182fd5b808601905086601f82011215156130e2578182fd5b80356130f56130f0826134cb565b6134a0565b818152886020838501011115613109578384fd5b8160208401602083013783602083830101528093505050505b92959194509250565b600060006040838503121561313e578182fd5b823561314981613545565b80925050602083013580151581141515613161578182fd5b809150505b9250929050565b6000600060408385031215613180578182fd5b823561318b81613545565b80925050602083013590505b9250929050565b6000602082840312156131af578081fd5b81357fffffffff000000000000000000000000000000000000000000000000000000008116811415156131e0578182fd5b809150505b92915050565b6000602082840312156131fc578081fd5b813561320781613545565b809150505b92915050565b600060208284031215613223578081fd5b815167ffffffffffffffff811115613239578182fd5b808301905083601f820112151561324e578182fd5b805161326161325c826134cb565b6134a0565b818152856020838501011115613275578384fd5b613286826020830160208601613510565b8093505050505b92915050565b6000602082840312156132a4578081fd5b813590505b92915050565b6000602082840312156132c0578081fd5b813567ffffffffffffffff8116811415156132d9578182fd5b809150505b92915050565b600060208201905073ffffffffffffffffffffffffffffffffffffffff831682525b92915050565b600060208083018184528085518083526040860191508387019250845b818110156133555767ffffffffffffffff8451168352848301925084840193505b600181019050613329565b50508093505050505b92915050565b600060208201905082151582525b92915050565b600060208201905073ffffffffffffffffffffffffffffffffffffffff831682525b92915050565b60006020825282518060208401526133bf816040850160208701613510565b60407fffffffffffffffffffffffffffffffffffffffffffffffffffffffffffffffe0601f8301168401019150505b92915050565b600060208252600e60208301527f4e6f7420417574686f72697a656400000000000000000000000000000000000060408301526060820190505b919050565b600060208252600b60208301527f43616e742075706461746500000000000000000000000000000000000000000060408301526060820190505b919050565b60006020820190508282525b92915050565b600060208201905067ffffffffffffffff831682525b92915050565b6000604051905081810181811067ffffffffffffffff821117156134c057fe5b80604052505b919050565b600067ffffffffffffffff8211156134df57fe5b60207fffffffffffffffffffffffffffffffffffffffffffffffffffffffffffffffe0601f8401160190505b919050565b60005b8381101561352f5780820151818401525b602081019050613513565b8381111561353e576000848401525b505b505050565b73ffffffffffffffffffffffffffffffffffffffff81168114151561356a5760006000fd5b5b50565bfe456e756d657261626c655365743a20696e646578206f7574206f6620626f756e64734552433732313a207472616e7366657220746f206e6f6e20455243373231526563656976657220696d706c656d656e7465724552433732313a207472616e7366657220746f20746865207a65726f2061646472657373416464726573733a20696e73756666696369656e742062616c616e636520666f722063616c6c4552433732313a206f70657261746f7220717565727920666f72206e6f6e6578697374656e7420746f6b656e4552433732313a20617070726f76652063616c6c6572206973206e6f74206f776e6572206e6f7220617070726f76656420666f7220616c6c4552433732313a2062616c616e636520717565727920666f7220746865207a65726f20616464726573734552433732313a206f776e657220717565727920666f72206e6f6e6578697374656e7420746f6b656e456e756d657261626c654d61703a20696e646578206f7574206f6620626f756e64734552433732313a20617070726f76656420717565727920666f72206e6f6e6578697374656e7420746f6b656e4552433732313a207472616e73666572206f6620746f6b656e2074686174206973206e6f74206f776e4552433732313a20617070726f76616c20746f2063757272656e74206f776e65724552433732313a207472616e736665722063616c6c6572206973206e6f74206f776e6572206e6f7220617070726f7665644552433732314275726e61626c653a2063616c6c6572206973206e6f74206f776e6572206e6f7220617070726f766564a2646970667358221220940e0c7be3352b753c22f1580202d4d2383fbd1b928353e55a760cb67e6c5d7964736f6c63430007060033",
  "linkReferences": {},
  "deployedLinkReferences": {}
}