{
  "_format": "hh-sol-artifact-1",
  "contractName": "TDaoPositionNFT",
  "sourceName": "contracts/core/TDao/TDaoPositionNFT.sol",
  "abi": [
    {
      "inputs": [
        {
          "internalType": "address",
          "name": "_administrator",
          "type": "address"
        }
      ],
      "stateMutability": "nonpayable",
      "type": "constructor"
    },
    {
      "anonymous": false,
      "inputs": [
        {
          "indexed": true,
          "internalType": "address",
          "name": "owner",
          "type": "address"
        },
        {
          "indexed": true,
          "internalType": "address",
          "name": "approved",
          "type": "address"
        },
        {
          "indexed": true,
          "internalType": "uint256",
          "name": "tokenId",
          "type": "uint256"
        }
      ],
      "name": "Approval",
      "type": "event"
    },
    {
      "anonymous": false,
      "inputs": [
        {
          "indexed": true,
          "internalType": "address",
          "name": "owner",
          "type": "address"
        },
        {
          "indexed": true,
          "internalType": "address",
          "name": "operator",
          "type": "address"
        },
        {
          "indexed": false,
          "internalType": "bool",
          "name": "approved",
          "type": "bool"
        }
      ],
      "name": "ApprovalForAll",
      "type": "event"
    },
    {
      "anonymous": false,
      "inputs": [
        {
          "indexed": true,
          "internalType": "address",
          "name": "from",
          "type": "address"
        },
        {
          "indexed": true,
          "internalType": "address",
          "name": "to",
          "type": "address"
        },
        {
          "indexed": true,
          "internalType": "uint256",
          "name": "tokenId",
          "type": "uint256"
        }
      ],
      "name": "Transfer",
      "type": "event"
    },
    {
      "inputs": [],
      "name": "administrator",
      "outputs": [
        {
          "internalType": "address",
          "name": "",
          "type": "address"
        }
      ],
      "stateMutability": "view",
      "type": "function"
    },
    {
      "inputs": [
        {
          "internalType": "address",
          "name": "to",
          "type": "address"
        },
        {
          "internalType": "uint256",
          "name": "tokenId",
          "type": "uint256"
        }
      ],
      "name": "approve",
      "outputs": [],
      "stateMutability": "nonpayable",
      "type": "function"
    },
    {
      "inputs": [
        {
          "internalType": "address",
          "name": "owner",
          "type": "address"
        }
      ],
      "name": "balanceOf",
      "outputs": [
        {
          "internalType": "uint256",
          "name": "",
          "type": "uint256"
        }
      ],
      "stateMutability": "view",
      "type": "function"
    },
    {
      "inputs": [],
      "name": "baseURI",
      "outputs": [
        {
          "internalType": "string",
          "name": "",
          "type": "string"
        }
      ],
      "stateMutability": "view",
      "type": "function"
    },
    {
      "inputs": [
        {
          "internalType": "uint256",
          "name": "tokenId",
          "type": "uint256"
        }
      ],
      "name": "burn",
      "outputs": [],
      "stateMutability": "nonpayable",
      "type": "function"
    },
    {
      "inputs": [
        {
          "internalType": "uint64",
          "name": "tokenID",
          "type": "uint64"
        }
      ],
      "name": "burn",
      "outputs": [],
      "stateMutability": "nonpayable",
      "type": "function"
    },
    {
      "inputs": [
        {
          "internalType": "uint256",
          "name": "tokenId",
          "type": "uint256"
        }
      ],
      "name": "getApproved",
      "outputs": [
        {
          "internalType": "address",
          "name": "",
          "type": "address"
        }
      ],
      "stateMutability": "view",
      "type": "function"
    },
    {
      "inputs": [
        {
          "internalType": "address",
          "name": "owner",
          "type": "address"
        },
        {
          "internalType": "address",
          "name": "operator",
          "type": "address"
        }
      ],
      "name": "isApprovedForAll",
      "outputs": [
        {
          "internalType": "bool",
          "name": "",
          "type": "bool"
        }
      ],
      "stateMutability": "view",
      "type": "function"
    },
    {
      "inputs": [
        {
          "internalType": "address",
          "name": "account",
          "type": "address"
        },
        {
          "internalType": "uint256",
          "name": "tokenID",
          "type": "uint256"
        }
      ],
      "name": "isApprovedOrOwner",
      "outputs": [
        {
          "internalType": "bool",
          "name": "",
          "type": "bool"
        }
      ],
      "stateMutability": "view",
      "type": "function"
    },
    {
      "inputs": [
        {
          "internalType": "address",
          "name": "dest",
          "type": "address"
        }
      ],
      "name": "mintTo",
      "outputs": [
        {
          "internalType": "uint64",
          "name": "id",
          "type": "uint64"
        }
      ],
      "stateMutability": "nonpayable",
      "type": "function"
    },
    {
      "inputs": [],
      "name": "name",
      "outputs": [
        {
          "internalType": "string",
          "name": "",
          "type": "string"
        }
      ],
      "stateMutability": "view",
      "type": "function"
    },
    {
      "inputs": [],
      "name": "nextPositionID",
      "outputs": [
        {
          "internalType": "uint64",
          "name": "",
          "type": "uint64"
        }
      ],
      "stateMutability": "view",
      "type": "function"
    },
    {
      "inputs": [
        {
          "internalType": "uint256",
          "name": "tokenId",
          "type": "uint256"
        }
      ],
      "name": "ownerOf",
      "outputs": [
        {
          "internalType": "address",
          "name": "",
          "type": "address"
        }
      ],
      "stateMutability": "view",
      "type": "function"
    },
    {
      "inputs": [
        {
          "internalType": "address",
          "name": "account",
          "type": "address"
        }
      ],
      "name": "positionIDs",
      "outputs": [
        {
          "internalType": "uint64[]",
          "name": "IDs",
          "type": "uint64[]"
        }
      ],
      "stateMutability": "view",
      "type": "function"
    },
    {
      "inputs": [
        {
          "internalType": "address",
          "name": "from",
          "type": "address"
        },
        {
          "internalType": "address",
          "name": "to",
          "type": "address"
        },
        {
          "internalType": "uint256",
          "name": "tokenId",
          "type": "uint256"
        }
      ],
      "name": "safeTransferFrom",
      "outputs": [],
      "stateMutability": "nonpayable",
      "type": "function"
    },
    {
      "inputs": [
        {
          "internalType": "address",
          "name": "from",
          "type": "address"
        },
        {
          "internalType": "address",
          "name": "to",
          "type": "address"
        },
        {
          "internalType": "uint256",
          "name": "tokenId",
          "type": "uint256"
        },
        {
          "internalType": "bytes",
          "name": "_data",
          "type": "bytes"
        }
      ],
      "name": "safeTransferFrom",
      "outputs": [],
      "stateMutability": "nonpayable",
      "type": "function"
    },
    {
      "inputs": [
        {
          "internalType": "address",
          "name": "operator",
          "type": "address"
        },
        {
          "internalType": "bool",
          "name": "approved",
          "type": "bool"
        }
      ],
      "name": "setApprovalForAll",
      "outputs": [],
      "stateMutability": "nonpayable",
      "type": "function"
    },
    {
      "inputs": [
        {
          "internalType": "bytes4",
          "name": "interfaceId",
          "type": "bytes4"
        }
      ],
      "name": "supportsInterface",
      "outputs": [
        {
          "internalType": "bool",
          "name": "",
          "type": "bool"
        }
      ],
      "stateMutability": "view",
      "type": "function"
    },
    {
      "inputs": [],
      "name": "symbol",
      "outputs": [
        {
          "internalType": "string",
          "name": "",
          "type": "string"
        }
      ],
      "stateMutability": "view",
      "type": "function"
    },
    {
      "inputs": [
        {
          "internalType": "uint256",
          "name": "index",
          "type": "uint256"
        }
      ],
      "name": "tokenByIndex",
      "outputs": [
        {
          "internalType": "uint256",
          "name": "",
          "type": "uint256"
        }
      ],
      "stateMutability": "view",
      "type": "function"
    },
    {
      "inputs": [
        {
          "internalType": "address",
          "name": "owner",
          "type": "address"
        },
        {
          "internalType": "uint256",
          "name": "index",
          "type": "uint256"
        }
      ],
      "name": "tokenOfOwnerByIndex",
      "outputs": [
        {
          "internalType": "uint256",
          "name": "",
          "type": "uint256"
        }
      ],
      "stateMutability": "view",
      "type": "function"
    },
    {
      "inputs": [
        {
          "internalType": "uint256",
          "name": "tokenId",
          "type": "uint256"
        }
      ],
      "name": "tokenURI",
      "outputs": [
        {
          "internalType": "string",
          "name": "",
          "type": "string"
        }
      ],
      "stateMutability": "view",
      "type": "function"
    },
    {
      "inputs": [],
      "name": "totalSupply",
      "outputs": [
        {
          "internalType": "uint256",
          "name": "",
          "type": "uint256"
        }
      ],
      "stateMutability": "view",
      "type": "function"
    },
    {
      "inputs": [
        {
          "internalType": "address",
          "name": "from",
          "type": "address"
        },
        {
          "internalType": "address",
          "name": "to",
          "type": "address"
        },
        {
          "internalType": "uint256",
          "name": "tokenId",
          "type": "uint256"
        }
      ],
      "name": "transferFrom",
      "outputs": [],
      "stateMutability": "nonpayable",
      "type": "function"
    }
  ],
  "bytecode": "0x60a0604052348015620000125760006000fd5b5060405162003c2938038062003c2983398181016040526020811015620000395760006000fd5b81019080805190602001909291905050505b6040518060400160405280601a81526020017f54727573746c6573732046696e616e636520506f736974696f6e0000000000008152602001506040518060400160405280600c81526020017f5444616f506f736974696f6e00000000000000000000000000000000000000008152602001505b81815b5b620000da6301ffc9a760e01b620001a360201b60201c565b5b8160066000509080519060200190620000f6929190620002b6565b50806007600050908051906020019062000112929190620002b6565b506200012b6380ac58cd60e01b620001a360201b60201c565b62000143635b5e139f60e01b620001a360201b60201c565b6200015b63780e9d6360e01b620001a360201b60201c565b5b50505b50508073ffffffffffffffffffffffffffffffffffffffff1660808173ffffffffffffffffffffffffffffffffffffffff1660601b815260140150505b5062000378565b63ffffffff60e01b817bffffffffffffffffffffffffffffffffffffffffffffffffffffffff19161415151562000245576040517f08c379a000000000000000000000000000000000000000000000000000000000815260040180806020018281038252601c8152602001807f4552433136353a20696e76616c696420696e746572666163652069640000000081526020015060200191505060405180910390fd5b600160006000506000837bffffffffffffffffffffffffffffffffffffffffffffffffffffffff19167bffffffffffffffffffffffffffffffffffffffffffffffffffffffff1916815260200190815260200160002060006101000a81548160ff0219169083151502179055505b50565b828054600181600116156101000203166002900490600052602060002090601f016020900481019282620002ee57600085556200033f565b82601f106200030957805160ff19168380011785556200033f565b828001600101855582156200033f579182015b828111156200033e57825182600050909055916020019190600101906200031c565b5b5090506200034e919062000352565b5090565b62000358565b8082111562000374576000818150600090555060010162000358565b5090565b60805160601c613889620003a060003980611c35528061230a528061257b52506138896000f3fe60806040523480156100115760006000fd5b506004361061019d5760003560e01c80635a11a9ad116100e45780639dbead421161008d578063c87b56dd11610067578063c87b56dd146109e0578063e985e9c514610a89578063f53d0a8e14610b045761019d565b80639dbead4214610849578063a22cb46514610882578063b88d4fde146108d35761019d565b806370a08231116100be57806370a0823114610709578063755edd171461076257806395d89b41146107c55761019d565b80635a11a9ad146105915780636352211e1461062c5780636c0360eb146106855761019d565b806323b872dd1161014657806342966c681161012057806342966c68146104ba578063430c2081146104e95780634f6ccce71461054e5761019d565b806323b872dd146103795780632f745c59146103e857806342842e0e1461044b5761019d565b8063095ea7b311610177578063095ea7b3146102e457806318160ddd146103335780631c824905146103515761019d565b806301ffc9a7146101a357806306fdde0314610207578063081812fc1461028b5761019d565b60006000fd5b6101ef600480360360208110156101ba5760006000fd5b8101908080357bffffffffffffffffffffffffffffffffffffffffffffffffffffffff19169060200190929190505050610b38565b60405180821515815260200191505060405180910390f35b61020f610ba8565b6040518080602001828103825283818151815260200191508051906020019080838360005b838110156102505780820151818401525b602081019050610234565b50505050905090810190601f16801561027d5780820380516001836020036101000a031916815260200191505b509250505060405180910390f35b6102b8600480360360208110156102a25760006000fd5b8101908080359060200190929190505050610c52565b604051808273ffffffffffffffffffffffffffffffffffffffff16815260200191505060405180910390f35b610331600480360360408110156102fb5760006000fd5b81019080803573ffffffffffffffffffffffffffffffffffffffff16906020019092919080359060200190929190505050610cfd565b005b61033b610e64565b6040518082815260200191505060405180910390f35b610359610e85565b604051808267ffffffffffffffff16815260200191505060405180910390f35b6103e6600480360360608110156103905760006000fd5b81019080803573ffffffffffffffffffffffffffffffffffffffff169060200190929190803573ffffffffffffffffffffffffffffffffffffffff16906020019092919080359060200190929190505050610e9f565b005b610435600480360360408110156103ff5760006000fd5b81019080803573ffffffffffffffffffffffffffffffffffffffff16906020019092919080359060200190929190505050610f2a565b6040518082815260200191505060405180910390f35b6104b8600480360360608110156104625760006000fd5b81019080803573ffffffffffffffffffffffffffffffffffffffff169060200190929190803573ffffffffffffffffffffffffffffffffffffffff16906020019092919080359060200190929190505050610f90565b005b6104e7600480360360208110156104d15760006000fd5b8101908080359060200190929190505050610fba565b005b610536600480360360408110156105005760006000fd5b81019080803573ffffffffffffffffffffffffffffffffffffffff16906020019092919080359060200190929190505050611041565b60405180821515815260200191505060405180910390f35b61057b600480360360208110156105655760006000fd5b8101908080359060200190929190505050611060565b6040518082815260200191505060405180910390f35b6105d4600480360360208110156105a85760006000fd5b81019080803573ffffffffffffffffffffffffffffffffffffffff16906020019092919050505061108d565b6040518080602001828103825283818151815260200191508051906020019060200280838360005b838110156106185780820151818401525b6020810190506105fc565b505050509050019250505060405180910390f35b610659600480360360208110156106435760006000fd5b8101908080359060200190929190505050611156565b604051808273ffffffffffffffffffffffffffffffffffffffff16815260200191505060405180910390f35b61068d611195565b6040518080602001828103825283818151815260200191508051906020019080838360005b838110156106ce5780820151818401525b6020810190506106b2565b50505050905090810190601f1680156106fb5780820380516001836020036101000a031916815260200191505b509250505060405180910390f35b61074c600480360360208110156107205760006000fd5b81019080803573ffffffffffffffffffffffffffffffffffffffff16906020019092919050505061123f565b6040518082815260200191505060405180910390f35b6107a5600480360360208110156107795760006000fd5b81019080803573ffffffffffffffffffffffffffffffffffffffff16906020019092919050505061132a565b604051808267ffffffffffffffff16815260200191505060405180910390f35b6107cd6114e7565b6040518080602001828103825283818151815260200191508051906020019080838360005b8381101561080e5780820151818401525b6020810190506107f2565b50505050905090810190601f16801561083b5780820380516001836020036101000a031916815260200191505b509250505060405180910390f35b610880600480360360208110156108605760006000fd5b81019080803567ffffffffffffffff169060200190929190505050611591565b005b6108d1600480360360408110156108995760006000fd5b81019080803573ffffffffffffffffffffffffffffffffffffffff169060200190929190803515159060200190929190505050611634565b005b6109de600480360360808110156108ea5760006000fd5b81019080803573ffffffffffffffffffffffffffffffffffffffff169060200190929190803573ffffffffffffffffffffffffffffffffffffffff16906020019092919080359060200190929190803590602001906401000000008111156109525760006000fd5b8201836020820111156109655760006000fd5b803590602001918460018302840111640100000000831117156109885760006000fd5b91908080601f016020809104026020016040519081016040528093929190818152602001838380828437600081840152601f19601f82011690508083019250505050505050909091929090919290505050611808565b005b610a0d600480360360208110156109f75760006000fd5b8101908080359060200190929190505050611895565b6040518080602001828103825283818151815260200191508051906020019080838360005b83811015610a4e5780820151818401525b602081019050610a32565b50505050905090810190601f168015610a7b5780820380516001836020036101000a031916815260200191505b509250505060405180910390f35b610aec60048036036040811015610aa05760006000fd5b81019080803573ffffffffffffffffffffffffffffffffffffffff169060200190929190803573ffffffffffffffffffffffffffffffffffffffff169060200190929190505050611b94565b60405180821515815260200191505060405180910390f35b610b0c611c33565b604051808273ffffffffffffffffffffffffffffffffffffffff16815260200191505060405180910390f35b600060006000506000837bffffffffffffffffffffffffffffffffffffffffffffffffffffffff19167bffffffffffffffffffffffffffffffffffffffffffffffffffffffff1916815260200190815260200160002060009054906101000a900460ff169050610ba3565b919050565b606060066000508054600181600116156101000203166002900480601f016020809104026020016040519081016040528092919081815260200182805460018160011615610100020316600290048015610c435780601f10610c1857610100808354040283529160200191610c43565b820191906000526020600020905b815481529060010190602001808311610c2657829003601f168201915b50505050509050610c4f565b90565b6000610c6382611c5763ffffffff16565b1515610cba576040517f08c379a000000000000000000000000000000000000000000000000000000000815260040180806020018281038252602c81526020018061374e602c913960400191505060405180910390fd5b6004600050600083815260200190815260200160002060009054906101000a900473ffffffffffffffffffffffffffffffffffffffff169050610cf8565b919050565b6000610d0e8261115663ffffffff16565b90508073ffffffffffffffffffffffffffffffffffffffff168373ffffffffffffffffffffffffffffffffffffffff1614151515610d97576040517f08c379a00000000000000000000000000000000000000000000000000000000081526004018080602001828103825260218152602001806137d26021913960400191505060405180910390fd5b8073ffffffffffffffffffffffffffffffffffffffff16610dbc611c7c63ffffffff16565b73ffffffffffffffffffffffffffffffffffffffff161480610df75750610df681610deb611c7c63ffffffff16565b611b9463ffffffff16565b5b1515610e4e576040517f08c379a00000000000000000000000000000000000000000000000000000000081526004018080602001828103825260388152602001806136a16038913960400191505060405180910390fd5b610e5e8383611c8963ffffffff16565b505b5050565b6000610e7b6002600050611d4c909063ffffffff16565b9050610e82565b90565b600a60009054906101000a900467ffffffffffffffff1681565b610ebc610eb0611c7c63ffffffff16565b82611d6f63ffffffff16565b1515610f13576040517f08c379a00000000000000000000000000000000000000000000000000000000081526004018080602001828103825260318152602001806137f36031913960400191505060405180910390fd5b610f24838383611e8363ffffffff16565b5b505050565b6000610f8382600160005060008673ffffffffffffffffffffffffffffffffffffffff1673ffffffffffffffffffffffffffffffffffffffff1681526020019081526020016000206000506120ec90919063ffffffff16565b9050610f8a565b92915050565b610fb48383836040518060200160405280600081526020015061180863ffffffff16565b5b505050565b610fd7610fcb611c7c63ffffffff16565b82611d6f63ffffffff16565b151561102e576040517f08c379a00000000000000000000000000000000000000000000000000000000081526004018080602001828103825260308152602001806138246030913960400191505060405180910390fd5b61103d8161211463ffffffff16565b5b50565b60006110538383611d6f63ffffffff16565b905061105a565b92915050565b6000600061107b83600260005061227590919063ffffffff16565b5090508091505061108856505b919050565b606060006110a08361123f63ffffffff16565b90508067ffffffffffffffff811180156110ba5760006000fd5b506040519080825280602002602001820160405280156110e95781602001602082028036833780820191505090505b50915081506000600090505b8181101561114e5761110d8482610f2a63ffffffff16565b838281518110151561111b57fe5b602002602001019067ffffffffffffffff16908167ffffffffffffffff16815260200150505b80806001019150506110f5565b50505b919050565b6000611189826040518060600160405280602981526020016137036029913960026000506122b69092919063ffffffff16565b9050611190565b919050565b606060096000508054600181600116156101000203166002900480601f0160208091040260200160405190810160405280929190818152602001828054600181600116156101000203166002900480156112305780601f1061120557610100808354040283529160200191611230565b820191906000526020600020905b81548152906001019060200180831161121357829003601f168201915b5050505050905061123c565b90565b6000600073ffffffffffffffffffffffffffffffffffffffff168273ffffffffffffffffffffffffffffffffffffffff16141515156112c9576040517f08c379a000000000000000000000000000000000000000000000000000000000815260040180806020018281038252602a8152602001806136d9602a913960400191505060405180910390fd5b61131e600160005060008473ffffffffffffffffffffffffffffffffffffffff1673ffffffffffffffffffffffffffffffffffffffff1681526020019081526020016000206000506122e3909063ffffffff16565b9050611325565b919050565b600061133b3361230663ffffffff16565b15156113b2576040517f08c379a000000000000000000000000000000000000000000000000000000000815260040180806020018281038252600e8152602001807f4e6f7420417574686f72697a656400000000000000000000000000000000000081526020015060200191505060405180910390fd5b67ffffffffffffffff67ffffffffffffffff16600a60009054906101000a900467ffffffffffffffff1667ffffffffffffffff1610151561145e576040517f08c379a00000000000000000000000000000000000000000000000000000000081526004018080602001828103825260088152602001807f4f766572666c6f7700000000000000000000000000000000000000000000000081526020015060200191505060405180910390fd5b600a60009054906101000a900467ffffffffffffffff1690508050600a600081819054906101000a900467ffffffffffffffff168092919060010191906101000a81548167ffffffffffffffff021916908367ffffffffffffffff160217905550506114da828267ffffffffffffffff1661236363ffffffff16565b8090506114e2565b919050565b606060076000508054600181600116156101000203166002900480601f0160208091040260200160405190810160405280929190818152602001828054600181600116156101000203166002900480156115825780601f1061155757610100808354040283529160200191611582565b820191906000526020600020905b81548152906001019060200180831161156557829003601f168201915b5050505050905061158e565b90565b6115a03361257763ffffffff16565b1515611617576040517f08c379a000000000000000000000000000000000000000000000000000000000815260040180806020018281038252600e8152602001807f4e6f7420417574686f72697a656400000000000000000000000000000000000081526020015060200191505060405180910390fd5b6116308167ffffffffffffffff1661211463ffffffff16565b5b50565b611642611c7c63ffffffff16565b73ffffffffffffffffffffffffffffffffffffffff168273ffffffffffffffffffffffffffffffffffffffff16141515156116e8576040517f08c379a00000000000000000000000000000000000000000000000000000000081526004018080602001828103825260198152602001807f4552433732313a20617070726f766520746f2063616c6c65720000000000000081526020015060200191505060405180910390fd5b80600560005060006116fe611c7c63ffffffff16565b73ffffffffffffffffffffffffffffffffffffffff1673ffffffffffffffffffffffffffffffffffffffff16815260200190815260200160002060005060008473ffffffffffffffffffffffffffffffffffffffff1673ffffffffffffffffffffffffffffffffffffffff16815260200190815260200160002060006101000a81548160ff0219169083151502179055508173ffffffffffffffffffffffffffffffffffffffff166117b4611c7c63ffffffff16565b73ffffffffffffffffffffffffffffffffffffffff167f17307eab39ab6107e8899845ad3d59bd9653f200f220920489ca2b5937696c318360405180821515815260200191505060405180910390a35b5050565b611825611819611c7c63ffffffff16565b83611d6f63ffffffff16565b151561187c576040517f08c379a00000000000000000000000000000000000000000000000000000000081526004018080602001828103825260318152602001806137f36031913960400191505060405180910390fd5b61188e848484846125d463ffffffff16565b5b50505050565b60606118a682611c5763ffffffff16565b15156118fd576040517f08c379a000000000000000000000000000000000000000000000000000000000815260040180806020018281038252602f8152602001806137a3602f913960400191505060405180910390fd5b6000600860005060008481526020019081526020016000206000508054600181600116156101000203166002900480601f0160208091040260200160405190810160405280929190818152602001828054600181600116156101000203166002900480156119ac5780601f10611981576101008083540402835291602001916119ac565b820191906000526020600020905b81548152906001019060200180831161198f57829003601f168201915b5050505050905060006119c361119563ffffffff16565b90506000815114156119d9578192505050611b8f565b600082511115611ab05780826040516020018083805190602001908083835b602083101515611a1e57805182525b6020820191506020810190506020830392506119f8565b6001836020036101000a03801982511681845116808217855250505050505090500182805190602001908083835b602083101515611a7257805182525b602082019150602081019050602083039250611a4c565b6001836020036101000a0380198251168184511680821785525050505050509050019250505060405160208183030381529060405292505050611b8f565b80611ac285612655909063ffffffff16565b6040516020018083805190602001908083835b602083101515611afb57805182525b602082019150602081019050602083039250611ad5565b6001836020036101000a03801982511681845116808217855250505050505090500182805190602001908083835b602083101515611b4f57805182525b602082019150602081019050602083039250611b29565b6001836020036101000a0380198251168184511680821785525050505050509050019250505060405160208183030381529060405292505050611b8f5650505b919050565b6000600560005060008473ffffffffffffffffffffffffffffffffffffffff1673ffffffffffffffffffffffffffffffffffffffff16815260200190815260200160002060005060008373ffffffffffffffffffffffffffffffffffffffff1673ffffffffffffffffffffffffffffffffffffffff16815260200190815260200160002060009054906101000a900460ff169050611c2d565b92915050565b7f000000000000000000000000000000000000000000000000000000000000000081565b6000611c708260026000506127ba90919063ffffffff16565b9050611c77565b919050565b6000339050611c86565b90565b816004600050600083815260200190815260200160002060006101000a81548173ffffffffffffffffffffffffffffffffffffffff021916908373ffffffffffffffffffffffffffffffffffffffff160217905550808273ffffffffffffffffffffffffffffffffffffffff16611d058361115663ffffffff16565b73ffffffffffffffffffffffffffffffffffffffff167f8c5be1e5ebec7d5bd14f71427d1e84f3dd0314c0f7b2291e5b200ac8c7c3b92560405160405180910390a45b5050565b6000611d63826000016000506127e263ffffffff16565b9050611d6a565b919050565b6000611d8082611c5763ffffffff16565b1515611dd7576040517f08c379a000000000000000000000000000000000000000000000000000000000815260040180806020018281038252602c815260200180613675602c913960400191505060405180910390fd5b6000611de88361115663ffffffff16565b90508073ffffffffffffffffffffffffffffffffffffffff168473ffffffffffffffffffffffffffffffffffffffff161480611e5d57508373ffffffffffffffffffffffffffffffffffffffff16611e4584610c5263ffffffff16565b73ffffffffffffffffffffffffffffffffffffffff16145b80611e745750611e738185611b9463ffffffff16565b5b915050611e7d56505b92915050565b8273ffffffffffffffffffffffffffffffffffffffff16611ea98261115663ffffffff16565b73ffffffffffffffffffffffffffffffffffffffff16141515611f17576040517f08c379a000000000000000000000000000000000000000000000000000000000815260040180806020018281038252602981526020018061377a6029913960400191505060405180910390fd5b600073ffffffffffffffffffffffffffffffffffffffff168273ffffffffffffffffffffffffffffffffffffffff1614151515611f9f576040517f08c379a000000000000000000000000000000000000000000000000000000000815260040180806020018281038252602481526020018061362b6024913960400191505060405180910390fd5b611fb08383836127fb63ffffffff16565b611fc1600082611c8963ffffffff16565b61201881600160005060008673ffffffffffffffffffffffffffffffffffffffff1673ffffffffffffffffffffffffffffffffffffffff16815260200190815260200160002060005061280190919063ffffffff16565b5061207081600160005060008573ffffffffffffffffffffffffffffffffffffffff1673ffffffffffffffffffffffffffffffffffffffff16815260200190815260200160002060005061282990919063ffffffff16565b5061208a818360026000506128519092919063ffffffff16565b50808273ffffffffffffffffffffffffffffffffffffffff168473ffffffffffffffffffffffffffffffffffffffff167fddf252ad1be2c89b69c2b068fc378daa952ba7f163c4a11628f55a4df523b3ef60405160405180910390a45b505050565b6000612104836000016000508361289463ffffffff16565b60001c905061210e565b92915050565b60006121258261115663ffffffff16565b9050612139816000846127fb63ffffffff16565b61214a600083611c8963ffffffff16565b6000600860005060008481526020019081526020016000206000508054600181600116156101000203166002900490501415156121a4576008600050600083815260200190815260200160002060006121a3919061356b565b5b6121fb82600160005060008473ffffffffffffffffffffffffffffffffffffffff1673ffffffffffffffffffffffffffffffffffffffff16815260200190815260200160002060005061280190919063ffffffff16565b5061221382600260005061292b90919063ffffffff16565b5081600073ffffffffffffffffffffffffffffffffffffffff168273ffffffffffffffffffffffffffffffffffffffff167fddf252ad1be2c89b69c2b068fc378daa952ba7f163c4a11628f55a4df523b3ef60405160405180910390a4505b50565b6000600060006000612293866000016000508661295363ffffffff16565b915091508160001c8160001c8090509350935050506122af5650505b9250929050565b60006122d2846000016000508460001b84612a0763ffffffff16565b60001c90506122dc565b9392505050565b60006122fa82600001600050612b2163ffffffff16565b9050612301565b919050565b60007f000000000000000000000000000000000000000000000000000000000000000073ffffffffffffffffffffffffffffffffffffffff168273ffffffffffffffffffffffffffffffffffffffff1614905061235e565b919050565b600073ffffffffffffffffffffffffffffffffffffffff168273ffffffffffffffffffffffffffffffffffffffff161415151561240b576040517f08c379a00000000000000000000000000000000000000000000000000000000081526004018080602001828103825260208152602001807f4552433732313a206d696e7420746f20746865207a65726f206164647265737381526020015060200191505060405180910390fd5b61241a81611c5763ffffffff16565b151515612492576040517f08c379a000000000000000000000000000000000000000000000000000000000815260040180806020018281038252601c8152602001807f4552433732313a20746f6b656e20616c7265616479206d696e7465640000000081526020015060200191505060405180910390fd5b6124a4600083836127fb63ffffffff16565b6124fb81600160005060008573ffffffffffffffffffffffffffffffffffffffff1673ffffffffffffffffffffffffffffffffffffffff16815260200190815260200160002060005061282990919063ffffffff16565b50612515818360026000506128519092919063ffffffff16565b50808273ffffffffffffffffffffffffffffffffffffffff16600073ffffffffffffffffffffffffffffffffffffffff167fddf252ad1be2c89b69c2b068fc378daa952ba7f163c4a11628f55a4df523b3ef60405160405180910390a45b5050565b60007f000000000000000000000000000000000000000000000000000000000000000073ffffffffffffffffffffffffffffffffffffffff168273ffffffffffffffffffffffffffffffffffffffff161490506125cf565b919050565b6125e5848484611e8363ffffffff16565b6125f784848484612b3a63ffffffff16565b151561264e576040517f08c379a00000000000000000000000000000000000000000000000000000000081526004018080602001828103825260328152602001806135f96032913960400191505060405180910390fd5b5b50505050565b606060008214156126a0576040518060400160405280600181526020017f300000000000000000000000000000000000000000000000000000000000000081526020015090506127b5565b600082905060005b6000821415156126d0578080600101915050600a828115156126c657fe5b04915081506126a8565b60008167ffffffffffffffff811180156126ea5760006000fd5b506040519080825280601f01601f19166020018201604052801561271d5781602001600182028036833780820191505090505b509050600060018303905085935083505b6000841415156127a557600a8481151561274457fe5b0660300160f81b82828060019003935081518110151561276057fe5b60200101907effffffffffffffffffffffffffffffffffffffffffffffffffffffffffffff1916908160001a905350600a8481151561279b57fe5b049350835061272e565b819450505050506127b556505050505b919050565b60006127d5836000016000508360001b612d6b63ffffffff16565b90506127dc565b92915050565b6000816000016000508054905090506127f6565b919050565b5b505050565b600061281c836000016000508360001b612da263ffffffff16565b9050612823565b92915050565b6000612844836000016000508360001b612eed63ffffffff16565b905061284b565b92915050565b6000612886846000016000508460001b8473ffffffffffffffffffffffffffffffffffffffff1660001b612f8c63ffffffff16565b905061288d565b9392505050565b60008183600001600050805490501115156128fa576040517f08c379a00000000000000000000000000000000000000000000000000000000081526004018080602001828103825260228152602001806135d76022913960400191505060405180910390fd5b826000016000508281548110151561290e57fe5b906000526020600020900160005b50549050612925565b92915050565b6000612946836000016000508360001b6130c763ffffffff16565b905061294d565b92915050565b600060008284600001600050805490501115156129bb576040517f08c379a000000000000000000000000000000000000000000000000000000000815260040180806020018281038252602281526020018061372c6022913960400191505060405180910390fd5b600084600001600050848154811015156129d157fe5b906000526020600020906002020160005b509050806000016000505481600101600050549250925050612a0056505b9250929050565b600060008460010160005060008560001916600019168152602001908152602001600020600050549050600081141583901515612ae0576040517f08c379a00000000000000000000000000000000000000000000000000000000081526004018080602001828103825283818151815260200191508051906020019080838360005b83811015612aa55780820151818401525b602081019050612a89565b50505050905090810190601f168015612ad25780820380516001836020036101000a031916815260200191505b509250505060405180910390fd5b508460000160005060018203815481101515612af857fe5b906000526020600020906002020160005b5060010160005054915050612b1a56505b9392505050565b600081600001600050805490509050612b35565b919050565b6000612b638473ffffffffffffffffffffffffffffffffffffffff16613259909063ffffffff16565b1515612b725760019050612d63565b6000612ce363150b7a0260e01b612b8d611c7c63ffffffff16565b888787604051602401808573ffffffffffffffffffffffffffffffffffffffff1681526020018473ffffffffffffffffffffffffffffffffffffffff16815260200183815260200180602001828103825283818151815260200191508051906020019080838360005b83811015612c125780820151818401525b602081019050612bf6565b50505050905090810190601f168015612c3f5780820380516001836020036101000a031916815260200191505b5095505050505050604051602081830303815290604052907bffffffffffffffffffffffffffffffffffffffffffffffffffffffff19166020820180517bffffffffffffffffffffffffffffffffffffffffffffffffffffffff83818316178352505050506040518060600160405280603281526020016135f9603291398773ffffffffffffffffffffffffffffffffffffffff166132739092919063ffffffff16565b90506000818060200190516020811015612cfd5760006000fd5b8101908080519060200190929190505050905063150b7a0260e01b7bffffffffffffffffffffffffffffffffffffffffffffffffffffffff1916817bffffffffffffffffffffffffffffffffffffffffffffffffffffffff19161492505050612d635650505b949350505050565b6000600083600101600050600084600019166000191681526020019081526020016000206000505414159050612d9c565b92915050565b600060008360010160005060008460001916600019168152602001908152602001600020600050549050600081141515612edb57600060018203905060006001866000016000508054905003905060008660000160005082815481101515612e0657fe5b906000526020600020900160005b50549050808760000160005084815481101515612e2d57fe5b906000526020600020900160005b5081909060001916905550600183018760010160005060008360001916600019168152602001908152602001600020600050819090905550866000016000508054801515612e8557fe5b600190038181906000526020600020900160005b506000905590558660010160005060008760001916600019168152602001908152602001600020600050600090556001945050505050612ee756505050612ee5565b6000915050612ee7565b505b92915050565b6000612eff838361329663ffffffff16565b1515612f7c578260000160005082908060018154018082558091505060019003906000526020600020900160005b90919091909150906000191690558260000160005080549050836001016000506000846000191660001916815260200190815260200160002060005081909090555060019050612f8656612f85565b60009050612f86565b5b92915050565b600060008460010160005060008560001916600019168152602001908152602001600020600050549050600081141561307a57846000016000506040518060400160405280866000191681526020018560001916815260200150908060018154018082558091505060019003906000526020600020906002020160005b90919091909150600082015181600001600050906000191690556020820151816001016000509060001916905550508460000160005080549050856001016000506000866000191660001916815260200190815260200160002060005081909090555060019150506130c0566130be565b82856000016000506001830381548110151561309257fe5b906000526020600020906002020160005b506001016000508190906000191690555060009150506130c0565b505b9392505050565b6000600083600101600050600084600019166000191681526020019081526020016000206000505490506000811415156132475760006001820390506000600186600001600050805490500390506000866000016000508281548110151561312b57fe5b906000526020600020906002020160005b50905080876000016000508481548110151561315457fe5b906000526020600020906002020160005b506000820160005054816000016000509060001916905560018201600050548160010160005090600019169055905050600183018760010160005060008360000160005054600019166000191681526020019081526020016000206000508190909055508660000160005080548015156131db57fe5b600190038181906000526020600020906002020160005b6000820160005060009055600182016000506000905550509055866001016000506000876000191660001916815260200190815260200160002060005060009055600194505050505061325356505050613251565b6000915050613253565b505b92915050565b60006000823b90506000811191505061326e56505b919050565b606061328884846000856132cd63ffffffff16565b905061328f565b9392505050565b60006000836001016000506000846000191660001916815260200190815260200160002060005054141590506132c7565b92915050565b606082471015151561332a576040517f08c379a000000000000000000000000000000000000000000000000000000000815260040180806020018281038252602681526020018061364f6026913960400191505060405180910390fd5b6133398561325963ffffffff16565b15156133b0576040517f08c379a000000000000000000000000000000000000000000000000000000000815260040180806020018281038252601d8152602001807f416464726573733a2063616c6c20746f206e6f6e2d636f6e747261637400000081526020015060200191505060405180910390fd5b600060008673ffffffffffffffffffffffffffffffffffffffff1685876040518082805190602001908083835b60208310151561340357805182525b6020820191506020810190506020830392506133dd565b6001836020036101000a03801982511681845116808217855250505050505090500191505060006040518083038185875af1925050503d8060008114613465576040519150601f19603f3d011682016040523d82523d6000602084013e61346a565b606091505b509150915061348082828661349363ffffffff16565b9250505061348b5650505b949350505050565b606083156134a75782905061356456613563565b6000835111156134bf5782518084602001fd50613562565b816040517f08c379a00000000000000000000000000000000000000000000000000000000081526004018080602001828103825283818151815260200191508051906020019080838360005b838110156135275780820151818401525b60208101905061350b565b50505050905090810190601f1680156135545780820380516001836020036101000a031916815260200191505b509250505060405180910390fd5b5b5b9392505050565b50805460018160011615610100020316600290046000825580601f1061359157506135b0565b601f0160209004906000526020600020908101906135af91906135b3565b5b50565b6135b8565b808211156135d257600081815060009055506001016135b8565b509056fe456e756d657261626c655365743a20696e646578206f7574206f6620626f756e64734552433732313a207472616e7366657220746f206e6f6e20455243373231526563656976657220696d706c656d656e7465724552433732313a207472616e7366657220746f20746865207a65726f2061646472657373416464726573733a20696e73756666696369656e742062616c616e636520666f722063616c6c4552433732313a206f70657261746f7220717565727920666f72206e6f6e6578697374656e7420746f6b656e4552433732313a20617070726f76652063616c6c6572206973206e6f74206f776e6572206e6f7220617070726f76656420666f7220616c6c4552433732313a2062616c616e636520717565727920666f7220746865207a65726f20616464726573734552433732313a206f776e657220717565727920666f72206e6f6e6578697374656e7420746f6b656e456e756d657261626c654d61703a20696e646578206f7574206f6620626f756e64734552433732313a20617070726f76656420717565727920666f72206e6f6e6578697374656e7420746f6b656e4552433732313a207472616e73666572206f6620746f6b656e2074686174206973206e6f74206f776e4552433732314d657461646174613a2055524920717565727920666f72206e6f6e6578697374656e7420746f6b656e4552433732313a20617070726f76616c20746f2063757272656e74206f776e65724552433732313a207472616e736665722063616c6c6572206973206e6f74206f776e6572206e6f7220617070726f7665644552433732314275726e61626c653a2063616c6c6572206973206e6f74206f776e6572206e6f7220617070726f766564a264697066735822122065282ef914adfa88e945d64b7b317b536c72aa034897607069a97188f0ba3f1964736f6c63430007060033",
  "linkReferences": {},
  "deployedLinkReferences": {}
}