{
  "_format": "hh-sol-artifact-1",
  "contractName": "SafeMath128Testable",
  "sourceName": "contracts/mocks/SafeMath128Testable.sol",
  "abi": [
    {
      "inputs": [
        {
          "internalType": "uint128",
          "name": "a",
          "type": "uint128"
        },
        {
          "internalType": "uint128",
          "name": "b",
          "type": "uint128"
        }
      ],
      "name": "add",
      "outputs": [
        {
          "internalType": "uint128",
          "name": "r",
          "type": "uint128"
        }
      ],
      "stateMutability": "pure",
      "type": "function"
    },
    {
      "inputs": [
        {
          "internalType": "uint128",
          "name": "a",
          "type": "uint128"
        },
        {
          "internalType": "uint128",
          "name": "b",
          "type": "uint128"
        }
      ],
      "name": "mul",
      "outputs": [
        {
          "internalType": "uint128",
          "name": "r",
          "type": "uint128"
        }
      ],
      "stateMutability": "pure",
      "type": "function"
    },
    {
      "inputs": [
        {
          "internalType": "uint128",
          "name": "a",
          "type": "uint128"
        },
        {
          "internalType": "uint128",
          "name": "b",
          "type": "uint128"
        }
      ],
      "name": "sub",
      "outputs": [
        {
          "internalType": "uint128",
          "name": "r",
          "type": "uint128"
        }
      ],
      "stateMutability": "pure",
      "type": "function"
    }
  ],
  "bytecode": "0x60806040523480156100115760006000fd5b50610017565b6104f3806100266000396000f3fe60806040523480156100115760006000fd5b50600436106100465760003560e01c8063a6fd00851461004c578063e856528a146100cf578063feb993901461015257610046565b60006000fd5b6100a7600480360360408110156100635760006000fd5b8101908080356fffffffffffffffffffffffffffffffff16906020019092919080356fffffffffffffffffffffffffffffffff1690602001909291905050506101d5565b60405180826fffffffffffffffffffffffffffffffff16815260200191505060405180910390f35b61012a600480360360408110156100e65760006000fd5b8101908080356fffffffffffffffffffffffffffffffff16906020019092919080356fffffffffffffffffffffffffffffffff169060200190929190505050610207565b60405180826fffffffffffffffffffffffffffffffff16815260200191505060405180910390f35b6101ad600480360360408110156101695760006000fd5b8101908080356fffffffffffffffffffffffffffffffff16906020019092919080356fffffffffffffffffffffffffffffffff169060200190929190505050610239565b60405180826fffffffffffffffffffffffffffffffff16815260200191505060405180910390f35b60006101fc82846fffffffffffffffffffffffffffffffff1661026b90919063ffffffff16565b905080505b92915050565b600061022e82846fffffffffffffffffffffffffffffffff1661031890919063ffffffff16565b905080505b92915050565b600061026082846fffffffffffffffffffffffffffffffff1661041090919063ffffffff16565b905080505b92915050565b6000826fffffffffffffffffffffffffffffffff168284039150816fffffffffffffffffffffffffffffffff1611151515610311576040517f08c379a000000000000000000000000000000000000000000000000000000000815260040180806020018281038252600d8152602001807f7375622d756e646572666c6f770000000000000000000000000000000000000081526020015060200191505060405180910390fd5b5b92915050565b60006000826fffffffffffffffffffffffffffffffff1614806103925750826fffffffffffffffffffffffffffffffff16826fffffffffffffffffffffffffffffffff168385029250826fffffffffffffffffffffffffffffffff1681151561037d57fe5b046fffffffffffffffffffffffffffffffff16145b1515610409576040517f08c379a000000000000000000000000000000000000000000000000000000000815260040180806020018281038252600c8152602001807f6d756c2d6f766572666c6f77000000000000000000000000000000000000000081526020015060200191505060405180910390fd5b5b92915050565b6000826fffffffffffffffffffffffffffffffff168284019150816fffffffffffffffffffffffffffffffff16101515156104b6576040517f08c379a000000000000000000000000000000000000000000000000000000000815260040180806020018281038252600c8152602001807f6164642d6f766572666c6f77000000000000000000000000000000000000000081526020015060200191505060405180910390fd5b5b9291505056fea26469706673582212200caf83906c1aeaaaf15a2c75ca9d02c8d2afacc2d1127521050ff1b51aa212fe64736f6c63430007060033",
  "linkReferences": {},
  "deployedLinkReferences": {}
}