{
  "_format": "hh-sol-artifact-1",
  "contractName": "MockTFInflationIncentiveDistributionContract",
  "sourceName": "contracts/mocks/MockTFInflationIncentiveDistributionContract.sol",
  "abi": [
    {
      "inputs": [],
      "stateMutability": "nonpayable",
      "type": "constructor"
    },
    {
      "inputs": [],
      "name": "val",
      "outputs": [
        {
          "internalType": "uint256",
          "name": "",
          "type": "uint256"
        }
      ],
      "stateMutability": "view",
      "type": "function"
    }
  ],
  "bytecode": "0x60806040523480156100115760006000fd5b505b600160006000508190909055505b610026565b608d806100346000396000f3fe608060405234801560105760006000fd5b5060043610602c5760003560e01c80633c6bb43614603257602c565b60006000fd5b6038604e565b6040518082815260200191505060405180910390f35b6000600050548156fea2646970667358221220f99ec4297897f3c8f182011d91b0cd57c03f71fe55a697417096c8a1273f349b64736f6c63430007060033",
  "linkReferences": {},
  "deployedLinkReferences": {}
}