{
  "contracts/mocks/TcpMulticallViewOnly.sol": {
    "TcpMulticallViewOnly": {
      "abi": [
        {
          "inputs": [
            {
              "components": [
                {
                  "internalType": "address",
                  "name": "target",
                  "type": "address"
                },
                {
                  "internalType": "bytes",
                  "name": "callData",
                  "type": "bytes"
                }
              ],
              "internalType": "struct TcpMulticall.Call[]",
              "name": "calls",
              "type": "tuple[]"
            }
          ],
          "name": "all",
          "outputs": [
            {
              "internalType": "uint256",
              "name": "blockNumber",
              "type": "uint256"
            },
            {
              "internalType": "bytes[]",
              "name": "returnData",
              "type": "bytes[]"
            }
          ],
          "stateMutability": "view",
          "type": "function"
        }
      ],
      "devdoc": {
        "kind": "dev",
        "methods": {},
        "version": 1
      },
      "evm": {
        "bytecode": {
          "linkReferences": {},
          "object": "60806040523480156100115760006000fd5b50610017565b61020c806100266000396000f3fe60806040523480156100115760006000fd5b50600436106100305760003560e01c80638f1316d51461003657610030565b60006000fd5b610050600480360381019061004b9190610077565b610067565b60405161005e9291906100ec565b60405180910390f35b600060605b9250929050566101d5565b600060006020838503121561008a578182fd5b823567ffffffffffffffff808211156100a1578384fd5b818501915085601f83011215156100b6578384fd5b8135818111156100c4578485fd5b8660206020830285010111156100d8578485fd5b6020830194508093505050505b9250929050565b600060408201848352602060408185015281855180845260608601915060608382028701019350828701855b828110156101c4577fffffffffffffffffffffffffffffffffffffffffffffffffffffffffffffffa088870301845281518051808852885b8181101561016f5787818401015188828b0101525b8781019050610150565b8181111561017f578988838b0101525b50867fffffffffffffffffffffffffffffffffffffffffffffffffffffffffffffffe0601f83011689010197505050848201915084840193505b600181019050610118565b5050505050809150505b9392505050565bfea2646970667358221220e397d9305641e1d543bd68813e0992f5ad0a94f5fd2361b24efaf0e5b802bdae64736f6c63430007060033",
          "opcodes": "PUSH1 0x80 PUSH1 0x40 MSTORE CALLVALUE DUP1 ISZERO PUSH2 0x11 JUMPI PUSH1 0x0 PUSH1 0x0 REVERT JUMPDEST POP PUSH2 0x17 JUMP JUMPDEST PUSH2 0x20C DUP1 PUSH2 0x26 PUSH1 0x0 CODECOPY PUSH1 0x0 RETURN INVALID PUSH1 0x80 PUSH1 0x40 MSTORE CALLVALUE DUP1 ISZERO PUSH2 0x11 JUMPI PUSH1 0x0 PUSH1 0x0 REVERT JUMPDEST POP PUSH1 0x4 CALLDATASIZE LT PUSH2 0x30 JUMPI PUSH1 0x0 CALLDATALOAD PUSH1 0xE0 SHR DUP1 PUSH4 0x8F1316D5 EQ PUSH2 0x36 JUMPI PUSH2 0x30 JUMP JUMPDEST PUSH1 0x0 PUSH1 0x0 REVERT JUMPDEST PUSH2 0x50 PUSH1 0x4 DUP1 CALLDATASIZE SUB DUP2 ADD SWAP1 PUSH2 0x4B SWAP2 SWAP1 PUSH2 0x77 JUMP JUMPDEST PUSH2 0x67 JUMP JUMPDEST PUSH1 0x40 MLOAD PUSH2 0x5E SWAP3 SWAP2 SWAP1 PUSH2 0xEC JUMP JUMPDEST PUSH1 0x40 MLOAD DUP1 SWAP2 SUB SWAP1 RETURN JUMPDEST PUSH1 0x0 PUSH1 0x60 JUMPDEST SWAP3 POP SWAP3 SWAP1 POP JUMP PUSH2 0x1D5 JUMP JUMPDEST PUSH1 0x0 PUSH1 0x0 PUSH1 0x20 DUP4 DUP6 SUB SLT ISZERO PUSH2 0x8A JUMPI DUP2 DUP3 REVERT JUMPDEST DUP3 CALLDATALOAD PUSH8 0xFFFFFFFFFFFFFFFF DUP1 DUP3 GT ISZERO PUSH2 0xA1 JUMPI DUP4 DUP5 REVERT JUMPDEST DUP2 DUP6 ADD SWAP2 POP DUP6 PUSH1 0x1F DUP4 ADD SLT ISZERO ISZERO PUSH2 0xB6 JUMPI DUP4 DUP5 REVERT JUMPDEST DUP2 CALLDATALOAD DUP2 DUP2 GT ISZERO PUSH2 0xC4 JUMPI DUP5 DUP6 REVERT JUMPDEST DUP7 PUSH1 0x20 PUSH1 0x20 DUP4 MUL DUP6 ADD ADD GT ISZERO PUSH2 0xD8 JUMPI DUP5 DUP6 REVERT JUMPDEST PUSH1 0x20 DUP4 ADD SWAP5 POP DUP1 SWAP4 POP POP POP POP JUMPDEST SWAP3 POP SWAP3 SWAP1 POP JUMP JUMPDEST PUSH1 0x0 PUSH1 0x40 DUP3 ADD DUP5 DUP4 MSTORE PUSH1 0x20 PUSH1 0x40 DUP2 DUP6 ADD MSTORE DUP2 DUP6 MLOAD DUP1 DUP5 MSTORE PUSH1 0x60 DUP7 ADD SWAP2 POP PUSH1 0x60 DUP4 DUP3 MUL DUP8 ADD ADD SWAP4 POP DUP3 DUP8 ADD DUP6 JUMPDEST DUP3 DUP2 LT ISZERO PUSH2 0x1C4 JUMPI PUSH32 0xFFFFFFFFFFFFFFFFFFFFFFFFFFFFFFFFFFFFFFFFFFFFFFFFFFFFFFFFFFFFFFA0 DUP9 DUP8 SUB ADD DUP5 MSTORE DUP2 MLOAD DUP1 MLOAD DUP1 DUP9 MSTORE DUP9 JUMPDEST DUP2 DUP2 LT ISZERO PUSH2 0x16F JUMPI DUP8 DUP2 DUP5 ADD ADD MLOAD DUP9 DUP3 DUP12 ADD ADD MSTORE JUMPDEST DUP8 DUP2 ADD SWAP1 POP PUSH2 0x150 JUMP JUMPDEST DUP2 DUP2 GT ISZERO PUSH2 0x17F JUMPI DUP10 DUP9 DUP4 DUP12 ADD ADD MSTORE JUMPDEST POP DUP7 PUSH32 0xFFFFFFFFFFFFFFFFFFFFFFFFFFFFFFFFFFFFFFFFFFFFFFFFFFFFFFFFFFFFFFE0 PUSH1 0x1F DUP4 ADD AND DUP10 ADD ADD SWAP8 POP POP POP DUP5 DUP3 ADD SWAP2 POP DUP5 DUP5 ADD SWAP4 POP JUMPDEST PUSH1 0x1 DUP2 ADD SWAP1 POP PUSH2 0x118 JUMP JUMPDEST POP POP POP POP POP DUP1 SWAP2 POP POP JUMPDEST SWAP4 SWAP3 POP POP POP JUMP JUMPDEST INVALID LOG2 PUSH5 0x6970667358 0x22 SLT KECCAK256 0xE3 SWAP8 0xD9 ADDRESS JUMP COINBASE 0xE1 0xD5 NUMBER 0xBD PUSH9 0x813E0992F5AD0A94F5 REVERT 0x23 PUSH2 0xB24E STATICCALL CREATE 0xE5 0xB8 MUL 0xBD 0xAE PUSH5 0x736F6C6343 STOP SMOD MOD STOP CALLER "
        },
        "gasEstimates": {
          "creation": {
            "codeDepositCost": "104800",
            "executionCost": "165",
            "totalCost": "104965"
          },
          "external": {
            "all((address,bytes)[])": "infinite"
          }
        },
        "methodIdentifiers": {
          "all((address,bytes)[])": "8f1316d5"
        }
      },
      "storageLayout": {
        "storage": [],
        "types": null
      },
      "userdoc": {
        "kind": "user",
        "methods": {},
        "version": 1
      }
    }
  }
}