{
  "contracts/mocks/TcpMulticall.sol": {
    "TcpMulticall": {
      "abi": [
        {
          "inputs": [
            {
              "components": [
                {
                  "internalType": "address",
                  "name": "target",
                  "type": "address"
                },
                {
                  "internalType": "bytes",
                  "name": "callData",
                  "type": "bytes"
                }
              ],
              "internalType": "struct TcpMulticall.Call[]",
              "name": "calls",
              "type": "tuple[]"
            }
          ],
          "name": "all",
          "outputs": [
            {
              "internalType": "uint256",
              "name": "blockNumber",
              "type": "uint256"
            },
            {
              "internalType": "bytes[]",
              "name": "returnData",
              "type": "bytes[]"
            }
          ],
          "stateMutability": "nonpayable",
          "type": "function"
        }
      ],
      "devdoc": {
        "kind": "dev",
        "methods": {},
        "version": 1
      },
      "evm": {
        "bytecode": {
          "linkReferences": {},
          "object": "60806040523480156100115760006000fd5b50610017565b610502806100266000396000f3fe60806040523480156100115760006000fd5b50600436106100305760003560e01c80638f1316d51461003657610030565b60006000fd5b610050600480360381019061004b9190610261565b610067565b60405161005e92919061032d565b60405180910390f35b600060608383905067ffffffffffffffff811180156100865760006000fd5b506040519080825280602002602001820160405280156100ba57816020015b60608152602001906001900390816100a55790505b50905080506000600090505b8484905081101561020957600085858381811015156100e157fe5b90506020028101906100f39190610489565b60000160208101906101059190610220565b73ffffffffffffffffffffffffffffffffffffffff16868684818110151561012957fe5b905060200281019061013b9190610489565b806020019061014a9190610416565b6040516101589291906102d6565b6000604051808303816000865af19150503d8060008114610195576040519150601f19603f3d011682016040523d82523d6000602084013e61019a565b606091505b5084848151811015156101a957fe5b6020026020010181905281925050508015156101fa576040517f08c379a00000000000000000000000000000000000000000000000000000000081526004016101f1906102ee565b60405180910390fd5b505b80806001019150506100c6565b50818191509150610215565b9250929050566104cb565b600060208284031215610231578081fd5b813573ffffffffffffffffffffffffffffffffffffffff811681141515610256578182fd5b809150505b92915050565b6000600060208385031215610274578081fd5b823567ffffffffffffffff8082111561028b578283fd5b818501915085601f83011215156102a0578283fd5b8135818111156102ae578384fd5b8660206020830285010111156102c2578384fd5b6020830194508093505050505b9250929050565b600082848337828201818152809150505b9392505050565b600060208252602060208301527f4d756c746963616c6c206167677265676174653a2063616c6c206661696c656460408301526060820190505b919050565b600060408201848352602060408185015281855180845260608601915060608382028701019350828701855b82811015610405577fffffffffffffffffffffffffffffffffffffffffffffffffffffffffffffffa088870301845281518051808852885b818110156103b05787818401015188828b0101525b8781019050610391565b818111156103c0578988838b0101525b50867fffffffffffffffffffffffffffffffffffffffffffffffffffffffffffffffe0601f83011689010197505050848201915084840193505b600181019050610359565b5050505050809150505b9392505050565b6000600083357fffffffffffffffffffffffffffffffffffffffffffffffffffffffffffffffe1843603018112151561044d578283fd5b80840190508035915067ffffffffffffffff82111561046a578283fd5b602081019250508036038213156104815760006000fd5b5b9250929050565b600082357fffffffffffffffffffffffffffffffffffffffffffffffffffffffffffffffc183360301811215156104be578182fd5b8083019150505b92915050565bfea264697066735822122006bf4eb8f2b1cfd7de401c5f68fdea4300b88cbf93501383f3b02b4dc70231e064736f6c63430007060033",
          "opcodes": "PUSH1 0x80 PUSH1 0x40 MSTORE CALLVALUE DUP1 ISZERO PUSH2 0x11 JUMPI PUSH1 0x0 PUSH1 0x0 REVERT JUMPDEST POP PUSH2 0x17 JUMP JUMPDEST PUSH2 0x502 DUP1 PUSH2 0x26 PUSH1 0x0 CODECOPY PUSH1 0x0 RETURN INVALID PUSH1 0x80 PUSH1 0x40 MSTORE CALLVALUE DUP1 ISZERO PUSH2 0x11 JUMPI PUSH1 0x0 PUSH1 0x0 REVERT JUMPDEST POP PUSH1 0x4 CALLDATASIZE LT PUSH2 0x30 JUMPI PUSH1 0x0 CALLDATALOAD PUSH1 0xE0 SHR DUP1 PUSH4 0x8F1316D5 EQ PUSH2 0x36 JUMPI PUSH2 0x30 JUMP JUMPDEST PUSH1 0x0 PUSH1 0x0 REVERT JUMPDEST PUSH2 0x50 PUSH1 0x4 DUP1 CALLDATASIZE SUB DUP2 ADD SWAP1 PUSH2 0x4B SWAP2 SWAP1 PUSH2 0x261 JUMP JUMPDEST PUSH2 0x67 JUMP JUMPDEST PUSH1 0x40 MLOAD PUSH2 0x5E SWAP3 SWAP2 SWAP1 PUSH2 0x32D JUMP JUMPDEST PUSH1 0x40 MLOAD DUP1 SWAP2 SUB SWAP1 RETURN JUMPDEST PUSH1 0x0 PUSH1 0x60 DUP4 DUP4 SWAP1 POP PUSH8 0xFFFFFFFFFFFFFFFF DUP2 GT DUP1 ISZERO PUSH2 0x86 JUMPI PUSH1 0x0 PUSH1 0x0 REVERT JUMPDEST POP PUSH1 0x40 MLOAD SWAP1 DUP1 DUP3 MSTORE DUP1 PUSH1 0x20 MUL PUSH1 0x20 ADD DUP3 ADD PUSH1 0x40 MSTORE DUP1 ISZERO PUSH2 0xBA JUMPI DUP2 PUSH1 0x20 ADD JUMPDEST PUSH1 0x60 DUP2 MSTORE PUSH1 0x20 ADD SWAP1 PUSH1 0x1 SWAP1 SUB SWAP1 DUP2 PUSH2 0xA5 JUMPI SWAP1 POP JUMPDEST POP SWAP1 POP DUP1 POP PUSH1 0x0 PUSH1 0x0 SWAP1 POP JUMPDEST DUP5 DUP5 SWAP1 POP DUP2 LT ISZERO PUSH2 0x209 JUMPI PUSH1 0x0 DUP6 DUP6 DUP4 DUP2 DUP2 LT ISZERO ISZERO PUSH2 0xE1 JUMPI INVALID JUMPDEST SWAP1 POP PUSH1 0x20 MUL DUP2 ADD SWAP1 PUSH2 0xF3 SWAP2 SWAP1 PUSH2 0x489 JUMP JUMPDEST PUSH1 0x0 ADD PUSH1 0x20 DUP2 ADD SWAP1 PUSH2 0x105 SWAP2 SWAP1 PUSH2 0x220 JUMP JUMPDEST PUSH20 0xFFFFFFFFFFFFFFFFFFFFFFFFFFFFFFFFFFFFFFFF AND DUP7 DUP7 DUP5 DUP2 DUP2 LT ISZERO ISZERO PUSH2 0x129 JUMPI INVALID JUMPDEST SWAP1 POP PUSH1 0x20 MUL DUP2 ADD SWAP1 PUSH2 0x13B SWAP2 SWAP1 PUSH2 0x489 JUMP JUMPDEST DUP1 PUSH1 0x20 ADD SWAP1 PUSH2 0x14A SWAP2 SWAP1 PUSH2 0x416 JUMP JUMPDEST PUSH1 0x40 MLOAD PUSH2 0x158 SWAP3 SWAP2 SWAP1 PUSH2 0x2D6 JUMP JUMPDEST PUSH1 0x0 PUSH1 0x40 MLOAD DUP1 DUP4 SUB DUP2 PUSH1 0x0 DUP7 GAS CALL SWAP2 POP POP RETURNDATASIZE DUP1 PUSH1 0x0 DUP2 EQ PUSH2 0x195 JUMPI PUSH1 0x40 MLOAD SWAP2 POP PUSH1 0x1F NOT PUSH1 0x3F RETURNDATASIZE ADD AND DUP3 ADD PUSH1 0x40 MSTORE RETURNDATASIZE DUP3 MSTORE RETURNDATASIZE PUSH1 0x0 PUSH1 0x20 DUP5 ADD RETURNDATACOPY PUSH2 0x19A JUMP JUMPDEST PUSH1 0x60 SWAP2 POP JUMPDEST POP DUP5 DUP5 DUP2 MLOAD DUP2 LT ISZERO ISZERO PUSH2 0x1A9 JUMPI INVALID JUMPDEST PUSH1 0x20 MUL PUSH1 0x20 ADD ADD DUP2 SWAP1 MSTORE DUP2 SWAP3 POP POP POP DUP1 ISZERO ISZERO PUSH2 0x1FA JUMPI PUSH1 0x40 MLOAD PUSH32 0x8C379A000000000000000000000000000000000000000000000000000000000 DUP2 MSTORE PUSH1 0x4 ADD PUSH2 0x1F1 SWAP1 PUSH2 0x2EE JUMP JUMPDEST PUSH1 0x40 MLOAD DUP1 SWAP2 SUB SWAP1 REVERT JUMPDEST POP JUMPDEST DUP1 DUP1 PUSH1 0x1 ADD SWAP2 POP POP PUSH2 0xC6 JUMP JUMPDEST POP DUP2 DUP2 SWAP2 POP SWAP2 POP PUSH2 0x215 JUMP JUMPDEST SWAP3 POP SWAP3 SWAP1 POP JUMP PUSH2 0x4CB JUMP JUMPDEST PUSH1 0x0 PUSH1 0x20 DUP3 DUP5 SUB SLT ISZERO PUSH2 0x231 JUMPI DUP1 DUP2 REVERT JUMPDEST DUP2 CALLDATALOAD PUSH20 0xFFFFFFFFFFFFFFFFFFFFFFFFFFFFFFFFFFFFFFFF DUP2 AND DUP2 EQ ISZERO ISZERO PUSH2 0x256 JUMPI DUP2 DUP3 REVERT JUMPDEST DUP1 SWAP2 POP POP JUMPDEST SWAP3 SWAP2 POP POP JUMP JUMPDEST PUSH1 0x0 PUSH1 0x0 PUSH1 0x20 DUP4 DUP6 SUB SLT ISZERO PUSH2 0x274 JUMPI DUP1 DUP2 REVERT JUMPDEST DUP3 CALLDATALOAD PUSH8 0xFFFFFFFFFFFFFFFF DUP1 DUP3 GT ISZERO PUSH2 0x28B JUMPI DUP3 DUP4 REVERT JUMPDEST DUP2 DUP6 ADD SWAP2 POP DUP6 PUSH1 0x1F DUP4 ADD SLT ISZERO ISZERO PUSH2 0x2A0 JUMPI DUP3 DUP4 REVERT JUMPDEST DUP2 CALLDATALOAD DUP2 DUP2 GT ISZERO PUSH2 0x2AE JUMPI DUP4 DUP5 REVERT JUMPDEST DUP7 PUSH1 0x20 PUSH1 0x20 DUP4 MUL DUP6 ADD ADD GT ISZERO PUSH2 0x2C2 JUMPI DUP4 DUP5 REVERT JUMPDEST PUSH1 0x20 DUP4 ADD SWAP5 POP DUP1 SWAP4 POP POP POP POP JUMPDEST SWAP3 POP SWAP3 SWAP1 POP JUMP JUMPDEST PUSH1 0x0 DUP3 DUP5 DUP4 CALLDATACOPY DUP3 DUP3 ADD DUP2 DUP2 MSTORE DUP1 SWAP2 POP POP JUMPDEST SWAP4 SWAP3 POP POP POP JUMP JUMPDEST PUSH1 0x0 PUSH1 0x20 DUP3 MSTORE PUSH1 0x20 PUSH1 0x20 DUP4 ADD MSTORE PUSH32 0x4D756C746963616C6C206167677265676174653A2063616C6C206661696C6564 PUSH1 0x40 DUP4 ADD MSTORE PUSH1 0x60 DUP3 ADD SWAP1 POP JUMPDEST SWAP2 SWAP1 POP JUMP JUMPDEST PUSH1 0x0 PUSH1 0x40 DUP3 ADD DUP5 DUP4 MSTORE PUSH1 0x20 PUSH1 0x40 DUP2 DUP6 ADD MSTORE DUP2 DUP6 MLOAD DUP1 DUP5 MSTORE PUSH1 0x60 DUP7 ADD SWAP2 POP PUSH1 0x60 DUP4 DUP3 MUL DUP8 ADD ADD SWAP4 POP DUP3 DUP8 ADD DUP6 JUMPDEST DUP3 DUP2 LT ISZERO PUSH2 0x405 JUMPI PUSH32 0xFFFFFFFFFFFFFFFFFFFFFFFFFFFFFFFFFFFFFFFFFFFFFFFFFFFFFFFFFFFFFFA0 DUP9 DUP8 SUB ADD DUP5 MSTORE DUP2 MLOAD DUP1 MLOAD DUP1 DUP9 MSTORE DUP9 JUMPDEST DUP2 DUP2 LT ISZERO PUSH2 0x3B0 JUMPI DUP8 DUP2 DUP5 ADD ADD MLOAD DUP9 DUP3 DUP12 ADD ADD MSTORE JUMPDEST DUP8 DUP2 ADD SWAP1 POP PUSH2 0x391 JUMP JUMPDEST DUP2 DUP2 GT ISZERO PUSH2 0x3C0 JUMPI DUP10 DUP9 DUP4 DUP12 ADD ADD MSTORE JUMPDEST POP DUP7 PUSH32 0xFFFFFFFFFFFFFFFFFFFFFFFFFFFFFFFFFFFFFFFFFFFFFFFFFFFFFFFFFFFFFFE0 PUSH1 0x1F DUP4 ADD AND DUP10 ADD ADD SWAP8 POP POP POP DUP5 DUP3 ADD SWAP2 POP DUP5 DUP5 ADD SWAP4 POP JUMPDEST PUSH1 0x1 DUP2 ADD SWAP1 POP PUSH2 0x359 JUMP JUMPDEST POP POP POP POP POP DUP1 SWAP2 POP POP JUMPDEST SWAP4 SWAP3 POP POP POP JUMP JUMPDEST PUSH1 0x0 PUSH1 0x0 DUP4 CALLDATALOAD PUSH32 0xFFFFFFFFFFFFFFFFFFFFFFFFFFFFFFFFFFFFFFFFFFFFFFFFFFFFFFFFFFFFFFE1 DUP5 CALLDATASIZE SUB ADD DUP2 SLT ISZERO ISZERO PUSH2 0x44D JUMPI DUP3 DUP4 REVERT JUMPDEST DUP1 DUP5 ADD SWAP1 POP DUP1 CALLDATALOAD SWAP2 POP PUSH8 0xFFFFFFFFFFFFFFFF DUP3 GT ISZERO PUSH2 0x46A JUMPI DUP3 DUP4 REVERT JUMPDEST PUSH1 0x20 DUP2 ADD SWAP3 POP POP DUP1 CALLDATASIZE SUB DUP3 SGT ISZERO PUSH2 0x481 JUMPI PUSH1 0x0 PUSH1 0x0 REVERT JUMPDEST JUMPDEST SWAP3 POP SWAP3 SWAP1 POP JUMP JUMPDEST PUSH1 0x0 DUP3 CALLDATALOAD PUSH32 0xFFFFFFFFFFFFFFFFFFFFFFFFFFFFFFFFFFFFFFFFFFFFFFFFFFFFFFFFFFFFFFC1 DUP4 CALLDATASIZE SUB ADD DUP2 SLT ISZERO ISZERO PUSH2 0x4BE JUMPI DUP2 DUP3 REVERT JUMPDEST DUP1 DUP4 ADD SWAP2 POP POP JUMPDEST SWAP3 SWAP2 POP POP JUMP JUMPDEST INVALID LOG2 PUSH5 0x6970667358 0x22 SLT KECCAK256 MOD 0xBF 0x4E 0xB8 CALLCODE 0xB1 0xCF 0xD7 0xDE BLOCKHASH SHR 0x5F PUSH9 0xFDEA4300B88CBF9350 SGT DUP4 RETURN 0xB0 0x2B 0x4D 0xC7 MUL BALANCE 0xE0 PUSH5 0x736F6C6343 STOP SMOD MOD STOP CALLER "
        },
        "gasEstimates": {
          "creation": {
            "codeDepositCost": "256400",
            "executionCost": "312",
            "totalCost": "256712"
          },
          "external": {
            "all((address,bytes)[])": "infinite"
          }
        },
        "methodIdentifiers": {
          "all((address,bytes)[])": "8f1316d5"
        }
      },
      "storageLayout": {
        "storage": [],
        "types": null
      },
      "userdoc": {
        "kind": "user",
        "methods": {},
        "version": 1
      }
    }
  }
}