{
  "_format": "hh-sol-artifact-1",
  "contractName": "AccountingTestable",
  "sourceName": "contracts/mocks/AccountingTestable.sol",
  "abi": [
    {
      "inputs": [
        {
          "internalType": "contract INonfungiblePositionManager",
          "name": "nftPositionManager",
          "type": "address"
        }
      ],
      "stateMutability": "nonpayable",
      "type": "constructor"
    },
    {
      "anonymous": false,
      "inputs": [],
      "name": "DebtPositionIndexingDisabled",
      "type": "event"
    },
    {
      "anonymous": false,
      "inputs": [
        {
          "indexed": true,
          "internalType": "address",
          "name": "governor",
          "type": "address"
        }
      ],
      "name": "Initialized",
      "type": "event"
    },
    {
      "anonymous": false,
      "inputs": [],
      "name": "PoolPositionIndexingDisabled",
      "type": "event"
    },
    {
      "anonymous": false,
      "inputs": [],
      "name": "Stopped",
      "type": "event"
    },
    {
      "anonymous": false,
      "inputs": [
        {
          "indexed": false,
          "internalType": "uint32[]",
          "name": "uis",
          "type": "uint32[]"
        }
      ],
      "name": "UIsApproved",
      "type": "event"
    },
    {
      "anonymous": false,
      "inputs": [
        {
          "indexed": false,
          "internalType": "uint32[]",
          "name": "uis",
          "type": "uint32[]"
        }
      ],
      "name": "UIsDisapproved",
      "type": "event"
    },
    {
      "inputs": [],
      "name": "TICK_SPACING",
      "outputs": [
        {
          "internalType": "int24",
          "name": "",
          "type": "int24"
        }
      ],
      "stateMutability": "view",
      "type": "function"
    },
    {
      "inputs": [
        {
          "internalType": "address",
          "name": "owner",
          "type": "address"
        },
        {
          "internalType": "uint256",
          "name": "nftID",
          "type": "uint256"
        }
      ],
      "name": "__addPositionToIndex",
      "outputs": [],
      "stateMutability": "nonpayable",
      "type": "function"
    },
    {
      "inputs": [
        {
          "internalType": "address",
          "name": "owner",
          "type": "address"
        },
        {
          "internalType": "uint256",
          "name": "nftID",
          "type": "uint256"
        }
      ],
      "name": "addPositionToIndex",
      "outputs": [],
      "stateMutability": "nonpayable",
      "type": "function"
    },
    {
      "inputs": [
        {
          "internalType": "uint32[]",
          "name": "ids",
          "type": "uint32[]"
        }
      ],
      "name": "approveUIs",
      "outputs": [],
      "stateMutability": "nonpayable",
      "type": "function"
    },
    {
      "inputs": [],
      "name": "debt",
      "outputs": [
        {
          "internalType": "uint256",
          "name": "",
          "type": "uint256"
        }
      ],
      "stateMutability": "view",
      "type": "function"
    },
    {
      "inputs": [],
      "name": "debtPositionIndexingEnabled",
      "outputs": [
        {
          "internalType": "bool",
          "name": "",
          "type": "bool"
        }
      ],
      "stateMutability": "view",
      "type": "function"
    },
    {
      "inputs": [
        {
          "internalType": "uint256",
          "name": "count",
          "type": "uint256"
        }
      ],
      "name": "decreaseDebt",
      "outputs": [],
      "stateMutability": "nonpayable",
      "type": "function"
    },
    {
      "inputs": [
        {
          "internalType": "contract IUniswapV3Pool",
          "name": "pool",
          "type": "address"
        },
        {
          "internalType": "uint256",
          "name": "liquidity",
          "type": "uint256"
        }
      ],
      "name": "decreasePoolLiquidity",
      "outputs": [],
      "stateMutability": "nonpayable",
      "type": "function"
    },
    {
      "inputs": [
        {
          "internalType": "uint256",
          "name": "nftID",
          "type": "uint256"
        }
      ],
      "name": "deletePoolPosition",
      "outputs": [],
      "stateMutability": "nonpayable",
      "type": "function"
    },
    {
      "inputs": [],
      "name": "deployer",
      "outputs": [
        {
          "internalType": "address",
          "name": "",
          "type": "address"
        }
      ],
      "stateMutability": "view",
      "type": "function"
    },
    {
      "inputs": [
        {
          "internalType": "uint32[]",
          "name": "ids",
          "type": "uint32[]"
        }
      ],
      "name": "disapproveUIs",
      "outputs": [],
      "stateMutability": "nonpayable",
      "type": "function"
    },
    {
      "inputs": [
        {
          "internalType": "uint64",
          "name": "positionID",
          "type": "uint64"
        }
      ],
      "name": "getBasicPositionInfo",
      "outputs": [
        {
          "internalType": "uint256",
          "name": "debtCount",
          "type": "uint256"
        },
        {
          "internalType": "uint256",
          "name": "collateralCount",
          "type": "uint256"
        }
      ],
      "stateMutability": "view",
      "type": "function"
    },
    {
      "inputs": [
        {
          "internalType": "uint256",
          "name": "nftID",
          "type": "uint256"
        }
      ],
      "name": "getPoolPosition",
      "outputs": [
        {
          "components": [
            {
              "internalType": "address",
              "name": "owner",
              "type": "address"
            },
            {
              "internalType": "uint16",
              "name": "poolID",
              "type": "uint16"
            },
            {
              "internalType": "uint256",
              "name": "cumulativeLiquidity",
              "type": "uint256"
            },
            {
              "internalType": "uint256",
              "name": "totalRewards",
              "type": "uint256"
            },
            {
              "internalType": "uint256",
              "name": "lastBlockPositionIncreased",
              "type": "uint256"
            },
            {
              "internalType": "uint128",
              "name": "liquidity",
              "type": "uint128"
            },
            {
              "internalType": "uint64",
              "name": "lastTimeRewarded",
              "type": "uint64"
            },
            {
              "internalType": "int24",
              "name": "tickLower",
              "type": "int24"
            },
            {
              "internalType": "int24",
              "name": "tickUpper",
              "type": "int24"
            },
            {
              "internalType": "uint32",
              "name": "ui",
              "type": "uint32"
            },
            {
              "internalType": "address",
              "name": "kickbackDestination",
              "type": "address"
            },
            {
              "internalType": "uint64",
              "name": "kickbackPortion",
              "type": "uint64"
            }
          ],
          "internalType": "struct IAccounting.PoolPosition",
          "name": "pp",
          "type": "tuple"
        }
      ],
      "stateMutability": "view",
      "type": "function"
    },
    {
      "inputs": [
        {
          "internalType": "address",
          "name": "owner",
          "type": "address"
        }
      ],
      "name": "getPoolPositionNftIdsByOwner",
      "outputs": [
        {
          "internalType": "uint128[]",
          "name": "",
          "type": "uint128[]"
        }
      ],
      "stateMutability": "view",
      "type": "function"
    },
    {
      "inputs": [
        {
          "internalType": "uint64",
          "name": "positionID",
          "type": "uint64"
        }
      ],
      "name": "getPosition",
      "outputs": [
        {
          "components": [
            {
              "internalType": "uint256",
              "name": "startCumulativeDebt",
              "type": "uint256"
            },
            {
              "internalType": "uint256",
              "name": "collateral",
              "type": "uint256"
            },
            {
              "internalType": "uint256",
              "name": "debt",
              "type": "uint256"
            },
            {
              "internalType": "uint256",
              "name": "startDebtExchangeRate",
              "type": "uint256"
            },
            {
              "internalType": "uint256",
              "name": "startTCPRewards",
              "type": "uint256"
            },
            {
              "internalType": "uint64",
              "name": "lastTimeUpdated",
              "type": "uint64"
            },
            {
              "internalType": "uint64",
              "name": "lastBorrowTime",
              "type": "uint64"
            },
            {
              "internalType": "int24",
              "name": "tick",
              "type": "int24"
            },
            {
              "internalType": "bool",
              "name": "tickSet",
              "type": "bool"
            },
            {
              "internalType": "uint64",
              "name": "tickIndex",
              "type": "uint64"
            },
            {
              "internalType": "uint32",
              "name": "ui",
              "type": "uint32"
            },
            {
              "internalType": "address",
              "name": "kickbackDestination",
              "type": "address"
            },
            {
              "internalType": "uint64",
              "name": "kickbackPortion",
              "type": "uint64"
            }
          ],
          "internalType": "struct IAccounting.DebtPosition",
          "name": "dp",
          "type": "tuple"
        }
      ],
      "stateMutability": "view",
      "type": "function"
    },
    {
      "inputs": [
        {
          "internalType": "uint16",
          "name": "poolID",
          "type": "uint16"
        }
      ],
      "name": "getRewardStatus",
      "outputs": [
        {
          "components": [
            {
              "internalType": "uint256",
              "name": "totalRewards",
              "type": "uint256"
            },
            {
              "internalType": "uint256",
              "name": "cumulativeLiquidity",
              "type": "uint256"
            }
          ],
          "internalType": "struct IAccounting.RewardStatus",
          "name": "",
          "type": "tuple"
        }
      ],
      "stateMutability": "view",
      "type": "function"
    },
    {
      "inputs": [],
      "name": "getSystemDebtInfo",
      "outputs": [
        {
          "components": [
            {
              "internalType": "uint256",
              "name": "debt",
              "type": "uint256"
            },
            {
              "internalType": "uint256",
              "name": "totalTCPRewards",
              "type": "uint256"
            },
            {
              "internalType": "uint256",
              "name": "cumulativeDebt",
              "type": "uint256"
            },
            {
              "internalType": "uint256",
              "name": "debtExchangeRate",
              "type": "uint256"
            }
          ],
          "internalType": "struct IAccounting.SystemDebtInfo",
          "name": "",
          "type": "tuple"
        }
      ],
      "stateMutability": "view",
      "type": "function"
    },
    {
      "inputs": [
        {
          "internalType": "uint256",
          "name": "collateralCount",
          "type": "uint256"
        },
        {
          "internalType": "uint256",
          "name": "debtCount",
          "type": "uint256"
        }
      ],
      "name": "getTick",
      "outputs": [
        {
          "internalType": "int24",
          "name": "",
          "type": "int24"
        }
      ],
      "stateMutability": "pure",
      "type": "function"
    },
    {
      "inputs": [
        {
          "internalType": "uint32",
          "name": "start",
          "type": "uint32"
        },
        {
          "internalType": "uint32",
          "name": "end",
          "type": "uint32"
        }
      ],
      "name": "getUIs",
      "outputs": [
        {
          "components": [
            {
              "internalType": "address",
              "name": "kickbackDestination",
              "type": "address"
            },
            {
              "internalType": "uint64",
              "name": "kickbackPortion",
              "type": "uint64"
            },
            {
              "internalType": "enum IAccounting.UIGovernanceRating",
              "name": "governanceRating",
              "type": "uint8"
            },
            {
              "internalType": "uint24",
              "name": "tags",
              "type": "uint24"
            },
            {
              "internalType": "string",
              "name": "ipfsHash",
              "type": "string"
            }
          ],
          "internalType": "struct IAccounting.UserInterface[]",
          "name": "uis",
          "type": "tuple[]"
        }
      ],
      "stateMutability": "view",
      "type": "function"
    },
    {
      "inputs": [],
      "name": "governor",
      "outputs": [
        {
          "internalType": "contract IGovernor",
          "name": "",
          "type": "address"
        }
      ],
      "stateMutability": "view",
      "type": "function"
    },
    {
      "inputs": [
        {
          "internalType": "uint256",
          "name": "count",
          "type": "uint256"
        }
      ],
      "name": "increaseDebt",
      "outputs": [],
      "stateMutability": "nonpayable",
      "type": "function"
    },
    {
      "inputs": [
        {
          "internalType": "uint256",
          "name": "count",
          "type": "uint256"
        }
      ],
      "name": "increaseLentHue",
      "outputs": [],
      "stateMutability": "nonpayable",
      "type": "function"
    },
    {
      "inputs": [
        {
          "internalType": "contract IUniswapV3Pool",
          "name": "pool",
          "type": "address"
        },
        {
          "internalType": "uint256",
          "name": "liquidity",
          "type": "uint256"
        }
      ],
      "name": "increasePoolLiquidity",
      "outputs": [],
      "stateMutability": "nonpayable",
      "type": "function"
    },
    {
      "inputs": [
        {
          "internalType": "contract IGovernor",
          "name": "_governor",
          "type": "address"
        }
      ],
      "name": "init",
      "outputs": [],
      "stateMutability": "nonpayable",
      "type": "function"
    },
    {
      "inputs": [],
      "name": "lentHue",
      "outputs": [
        {
          "internalType": "uint256",
          "name": "",
          "type": "uint256"
        }
      ],
      "stateMutability": "view",
      "type": "function"
    },
    {
      "inputs": [],
      "name": "nextUserInterfaceID",
      "outputs": [
        {
          "internalType": "uint32",
          "name": "",
          "type": "uint32"
        }
      ],
      "stateMutability": "view",
      "type": "function"
    },
    {
      "inputs": [
        {
          "internalType": "address",
          "name": "",
          "type": "address"
        },
        {
          "internalType": "address",
          "name": "",
          "type": "address"
        },
        {
          "internalType": "uint256",
          "name": "",
          "type": "uint256"
        },
        {
          "internalType": "bytes",
          "name": "",
          "type": "bytes"
        }
      ],
      "name": "onERC721Received",
      "outputs": [
        {
          "internalType": "bytes4",
          "name": "",
          "type": "bytes4"
        }
      ],
      "stateMutability": "pure",
      "type": "function"
    },
    {
      "inputs": [
        {
          "internalType": "address",
          "name": "newRewards",
          "type": "address"
        }
      ],
      "name": "onRewardsUpgrade",
      "outputs": [],
      "stateMutability": "nonpayable",
      "type": "function"
    },
    {
      "inputs": [
        {
          "internalType": "contract IUniswapV3Pool",
          "name": "",
          "type": "address"
        }
      ],
      "name": "poolLiquidity",
      "outputs": [
        {
          "internalType": "uint256",
          "name": "",
          "type": "uint256"
        }
      ],
      "stateMutability": "view",
      "type": "function"
    },
    {
      "inputs": [],
      "name": "poolPositionIndexingEnabled",
      "outputs": [
        {
          "internalType": "bool",
          "name": "",
          "type": "bool"
        }
      ],
      "stateMutability": "view",
      "type": "function"
    },
    {
      "inputs": [
        {
          "internalType": "int24",
          "name": "tick",
          "type": "int24"
        }
      ],
      "name": "positionsForTick",
      "outputs": [
        {
          "internalType": "uint64[]",
          "name": "",
          "type": "uint64[]"
        }
      ],
      "stateMutability": "view",
      "type": "function"
    },
    {
      "inputs": [
        {
          "internalType": "uint64",
          "name": "kickbackPortion",
          "type": "uint64"
        },
        {
          "internalType": "uint24",
          "name": "tags",
          "type": "uint24"
        },
        {
          "internalType": "string",
          "name": "ipfsHash",
          "type": "string"
        }
      ],
      "name": "registerUI",
      "outputs": [
        {
          "internalType": "uint32",
          "name": "",
          "type": "uint32"
        }
      ],
      "stateMutability": "nonpayable",
      "type": "function"
    },
    {
      "inputs": [
        {
          "internalType": "address payable",
          "name": "dest",
          "type": "address"
        },
        {
          "internalType": "uint256",
          "name": "count",
          "type": "uint256"
        }
      ],
      "name": "sendCollateral",
      "outputs": [],
      "stateMutability": "nonpayable",
      "type": "function"
    },
    {
      "inputs": [
        {
          "internalType": "address",
          "name": "dest",
          "type": "address"
        },
        {
          "internalType": "uint256",
          "name": "count",
          "type": "uint256"
        }
      ],
      "name": "sendLentHue",
      "outputs": [],
      "stateMutability": "nonpayable",
      "type": "function"
    },
    {
      "inputs": [
        {
          "internalType": "uint256",
          "name": "nftID",
          "type": "uint256"
        },
        {
          "components": [
            {
              "internalType": "address",
              "name": "owner",
              "type": "address"
            },
            {
              "internalType": "uint16",
              "name": "poolID",
              "type": "uint16"
            },
            {
              "internalType": "uint256",
              "name": "cumulativeLiquidity",
              "type": "uint256"
            },
            {
              "internalType": "uint256",
              "name": "totalRewards",
              "type": "uint256"
            },
            {
              "internalType": "uint256",
              "name": "lastBlockPositionIncreased",
              "type": "uint256"
            },
            {
              "internalType": "uint128",
              "name": "liquidity",
              "type": "uint128"
            },
            {
              "internalType": "uint64",
              "name": "lastTimeRewarded",
              "type": "uint64"
            },
            {
              "internalType": "int24",
              "name": "tickLower",
              "type": "int24"
            },
            {
              "internalType": "int24",
              "name": "tickUpper",
              "type": "int24"
            },
            {
              "internalType": "uint32",
              "name": "ui",
              "type": "uint32"
            },
            {
              "internalType": "address",
              "name": "kickbackDestination",
              "type": "address"
            },
            {
              "internalType": "uint64",
              "name": "kickbackPortion",
              "type": "uint64"
            }
          ],
          "internalType": "struct IAccounting.PoolPosition",
          "name": "pp",
          "type": "tuple"
        }
      ],
      "name": "setPoolPosition",
      "outputs": [],
      "stateMutability": "nonpayable",
      "type": "function"
    },
    {
      "inputs": [
        {
          "internalType": "uint64",
          "name": "positionID",
          "type": "uint64"
        },
        {
          "components": [
            {
              "internalType": "uint256",
              "name": "startCumulativeDebt",
              "type": "uint256"
            },
            {
              "internalType": "uint256",
              "name": "collateral",
              "type": "uint256"
            },
            {
              "internalType": "uint256",
              "name": "debt",
              "type": "uint256"
            },
            {
              "internalType": "uint256",
              "name": "startDebtExchangeRate",
              "type": "uint256"
            },
            {
              "internalType": "uint256",
              "name": "startTCPRewards",
              "type": "uint256"
            },
            {
              "internalType": "uint64",
              "name": "lastTimeUpdated",
              "type": "uint64"
            },
            {
              "internalType": "uint64",
              "name": "lastBorrowTime",
              "type": "uint64"
            },
            {
              "internalType": "int24",
              "name": "tick",
              "type": "int24"
            },
            {
              "internalType": "bool",
              "name": "tickSet",
              "type": "bool"
            },
            {
              "internalType": "uint64",
              "name": "tickIndex",
              "type": "uint64"
            },
            {
              "internalType": "uint32",
              "name": "ui",
              "type": "uint32"
            },
            {
              "internalType": "address",
              "name": "kickbackDestination",
              "type": "address"
            },
            {
              "internalType": "uint64",
              "name": "kickbackPortion",
              "type": "uint64"
            }
          ],
          "internalType": "struct IAccounting.DebtPosition",
          "name": "dp",
          "type": "tuple"
        }
      ],
      "name": "setPosition",
      "outputs": [],
      "stateMutability": "nonpayable",
      "type": "function"
    },
    {
      "inputs": [
        {
          "internalType": "uint16",
          "name": "poolID",
          "type": "uint16"
        },
        {
          "components": [
            {
              "internalType": "uint256",
              "name": "totalRewards",
              "type": "uint256"
            },
            {
              "internalType": "uint256",
              "name": "cumulativeLiquidity",
              "type": "uint256"
            }
          ],
          "internalType": "struct IAccounting.RewardStatus",
          "name": "rs",
          "type": "tuple"
        }
      ],
      "name": "setRewardStatus",
      "outputs": [],
      "stateMutability": "nonpayable",
      "type": "function"
    },
    {
      "inputs": [
        {
          "components": [
            {
              "internalType": "uint256",
              "name": "debt",
              "type": "uint256"
            },
            {
              "internalType": "uint256",
              "name": "totalTCPRewards",
              "type": "uint256"
            },
            {
              "internalType": "uint256",
              "name": "cumulativeDebt",
              "type": "uint256"
            },
            {
              "internalType": "uint256",
              "name": "debtExchangeRate",
              "type": "uint256"
            }
          ],
          "internalType": "struct IAccounting.SystemDebtInfo",
          "name": "_sdi",
          "type": "tuple"
        }
      ],
      "name": "setSystemDebtInfo",
      "outputs": [],
      "stateMutability": "nonpayable",
      "type": "function"
    },
    {
      "inputs": [
        {
          "internalType": "int24",
          "name": "rawTick",
          "type": "int24"
        },
        {
          "internalType": "int24",
          "name": "tickSpacing",
          "type": "int24"
        }
      ],
      "name": "snapRawTickToSpacing",
      "outputs": [
        {
          "internalType": "int24",
          "name": "",
          "type": "int24"
        }
      ],
      "stateMutability": "pure",
      "type": "function"
    },
    {
      "inputs": [],
      "name": "stopIndexingDebtPositions",
      "outputs": [],
      "stateMutability": "nonpayable",
      "type": "function"
    },
    {
      "inputs": [],
      "name": "stopIndexingPoolPositions",
      "outputs": [],
      "stateMutability": "nonpayable",
      "type": "function"
    },
    {
      "inputs": [],
      "name": "stopped",
      "outputs": [
        {
          "internalType": "bool",
          "name": "",
          "type": "bool"
        }
      ],
      "stateMutability": "view",
      "type": "function"
    },
    {
      "inputs": [],
      "name": "sweepHue",
      "outputs": [],
      "stateMutability": "nonpayable",
      "type": "function"
    },
    {
      "inputs": [
        {
          "internalType": "uint256",
          "name": "",
          "type": "uint256"
        }
      ],
      "name": "userInterfaces",
      "outputs": [
        {
          "internalType": "address",
          "name": "kickbackDestination",
          "type": "address"
        },
        {
          "internalType": "uint64",
          "name": "kickbackPortion",
          "type": "uint64"
        },
        {
          "internalType": "enum IAccounting.UIGovernanceRating",
          "name": "governanceRating",
          "type": "uint8"
        },
        {
          "internalType": "uint24",
          "name": "tags",
          "type": "uint24"
        },
        {
          "internalType": "string",
          "name": "ipfsHash",
          "type": "string"
        }
      ],
      "stateMutability": "view",
      "type": "function"
    },
    {
      "inputs": [
        {
          "internalType": "bytes4",
          "name": "",
          "type": "bytes4"
        }
      ],
      "name": "validUpdate",
      "outputs": [
        {
          "internalType": "bool",
          "name": "",
          "type": "bool"
        }
      ],
      "stateMutability": "view",
      "type": "function"
    },
    {
      "stateMutability": "payable",
      "type": "receive"
    }
  ],
  "bytecode": "0x60a0604052600160066000509090556001600860006101000a81548160ff0219169083151502179055506001600860016101000a81548160ff0219169083151502179055506001601260006101000a81548163ffffffff021916908363ffffffff160217905550348015620000745760006000fd5b5060405162007b2038038062007b2083398181016040528101906200009a919062000129565b5b805b5b33600160006101000a81548173ffffffffffffffffffffffffffffffffffffffff021916908373ffffffffffffffffffffffffffffffffffffffff1602179055505b8073ffffffffffffffffffffffffffffffffffffffff1660808173ffffffffffffffffffffffffffffffffffffffff1660601b815260140150505b505b5062000160566200015f565b6000602082840312156200013b578081fd5b81516001600160a01b0381168114151562000154578182fd5b809150505b92915050565b5b60805160601c61799d620001836000398061324a5280614eb2525061799d6000f3fe6080604052600436106102f65760003560e01c8063602db56b1161018f578063b87e8d58116100e1578063d99f57261161008a578063f34348f111610064578063f34348f114610ba6578063f709960714610be4578063fd9c749214610c0e576103d7565b8063d99f572614610afe578063dd88486314610b3c578063e2b1e9e314610b7a576103d7565b8063c7711db4116100bb578063c7711db414610a56578063d159b4ae14610a94578063d5f3948814610ad2576103d7565b8063b87e8d58146109c2578063bdb2a49614610a00578063c3c837ba14610a18576103d7565b806378efc6b011610143578063a135ef171161011d578063a135ef1714610930578063a678f3361461096e578063b241bbac14610998576103d7565b806378efc6b0146108b05780637f250c61146108da578063816aaa2514610906576103d7565b80636594da9f116101745780636594da9f1461081b57806375ea13ca1461085a57806375f12b2114610884576103d7565b8063602db56b146107d957806362502169146107f1576103d7565b8063230173e011610248578063397d3592116101fc57806351ad51f7116101d657806351ad51f714610747578063530c1ccb146107855780635a6beaf4146107af576103d7565b8063397d3592146106d9578063461054a31461070357806346ca626b1461071b576103d7565b80632a7ba1f71161022d5780632a7ba1f71461065b5780632b7c7b11146106855780632c73f09e146106af576103d7565b8063230173e01461060757806326879a4e14610631576103d7565b80630f85fc5a116102aa578063150b7a0211610284578063150b7a021461055d57806318a15e791461059b57806319ab453c146105dd576103d7565b80630f85fc5a146104b7578063113cf1ab146104f55780631428561d14610533576103d7565b80630b218d24116102db5780630b218d24146104355780630c340a241461045f5780630dca59c11461048b576103d7565b806306ef2d80146103dd578063092a26c314610409576103d7565b366103d7575b600060009054906101000a900473ffffffffffffffffffffffffffffffffffffffff1673ffffffffffffffffffffffffffffffffffffffff166380f556056040518163ffffffff1660e01b815260040160206040518083038186803b1580156103655760006000fd5b505afa15801561037a573d600060003e3d6000fd5b505050506040513d601f19601f8201168201806040525081019061039e91906169a3565b73ffffffffffffffffffffffffffffffffffffffff163373ffffffffffffffffffffffffffffffffffffffff161415156103d457fe5b5b005b60006000fd5b3480156103ea5760006000fd5b506103f3610c3a565b604051610400919061784b565b60405180910390f35b3480156104165760006000fd5b5061041f610c5a565b60405161042c9190617478565b60405180910390f35b3480156104425760006000fd5b5061045d6004803603810190610458919061682d565b610c6d565b005b34801561046c5760006000fd5b50610475610d2f565b60405161048291906174c0565b60405180910390f35b3480156104985760006000fd5b506104a1610d55565b6040516104ae919061787c565b60405180910390f35b3480156104c45760006000fd5b506104df60048036038101906104da9190616d94565b610d98565b6040516104ec9190617677565b60405180910390f35b3480156105025760006000fd5b5061051d600480360381019061051891906168e1565b610eb7565b60405161052a9190617478565b60405180910390f35b3480156105405760006000fd5b5061055b60048036038101906105569190616a3f565b610edc565b005b34801561056a5760006000fd5b5061058560048036038101906105809190616756565b61107f565b604051610592919061748c565b60405180910390f35b3480156105a85760006000fd5b506105c360048036038101906105be9190616be4565b6110c5565b6040516105d495949392919061721e565b60405180910390f35b3480156105ea5760006000fd5b5061060560048036038101906106009190616955565b6111e9565b005b3480156106145760006000fd5b5061062f600480360381019061062a91906167fc565b6115fa565b005b34801561063e5760006000fd5b5061065960048036038101906106549190616be4565b61160f565b005b3480156106685760006000fd5b50610683600480360381019061067e9190616be4565b611883565b005b3480156106925760006000fd5b506106ad60048036038101906106a89190616be4565b611949565b005b3480156106bc5760006000fd5b506106d760048036038101906106d29190616be4565b611adf565b005b3480156106e65760006000fd5b5061070160048036038101906106fc919061682d565b611c01565b005b3480156107105760006000fd5b50610719611cc3565b005b3480156107285760006000fd5b50610731611d1c565b60405161073e91906174e8565b60405180910390f35b3480156107545760006000fd5b5061076f600480360381019061076a9190616b33565b611d21565b60405161077c919061782e565b60405180910390f35b3480156107925760006000fd5b506107ad60048036038101906107a89190616a3f565b611d7e565b005b3480156107bc5760006000fd5b506107d760048036038101906107d29190616db7565b611f21565b005b3480156107e65760006000fd5b506107ef61211c565b005b3480156107fe5760006000fd5b5061081960048036038101906108149190616725565b612175565b005b3480156108285760006000fd5b50610843600480360381019061083e9190616d94565b6121ed565b60405161085192919061788e565b60405180910390f35b3480156108675760006000fd5b50610882600480360381019061087d91906167fc565b6123a0565b005b3480156108915760006000fd5b5061089a6124ae565b6040516108a79190617478565b60405180910390f35b3480156108bd5760006000fd5b506108d860048036038101906108d39190616ad3565b6124c1565b005b3480156108e75760006000fd5b506108f06125cf565b6040516108fd919061787c565b60405180910390f35b3480156109135760006000fd5b5061092e60048036038101906109299190616c1c565b6125d8565b005b34801561093d5760006000fd5b5061095860048036038101906109539190616a18565b6126e8565b604051610965919061787c565b60405180910390f35b34801561097b5760006000fd5b50610996600480360381019061099191906166fe565b612703565b005b3480156109a55760006000fd5b506109c060048036038101906109bb91906167fc565b612725565b005b3480156109cf5760006000fd5b506109ea60048036038101906109e591906166fe565b61287b565b6040516109f7919061736c565b60405180910390f35b348015610a0d5760006000fd5b50610a166128de565b005b348015610a255760006000fd5b50610a406004803603810190610a3b9190616d60565b612a16565b604051610a4d9190617282565b60405180910390f35b348015610a635760006000fd5b50610a7e6004803603810190610a799190616a70565b612c85565b604051610a8b9190617420565b60405180910390f35b348015610aa15760006000fd5b50610abc6004803603810190610ab79190616d3a565b612d45565b604051610ac991906174e8565b60405180910390f35b348015610adf5760006000fd5b50610ae8612ddb565b604051610af5919061719d565b60405180910390f35b348015610b0b5760006000fd5b50610b266004803603810190610b219190616a97565b612e01565b604051610b3391906174e8565b60405180910390f35b348015610b495760006000fd5b50610b646004803603810190610b5f9190616ee2565b612e72565b604051610b7191906178a7565b60405180910390f35b348015610b875760006000fd5b50610b906130d3565b604051610b9d91906178a7565b60405180910390f35b348015610bb35760006000fd5b50610bce6004803603810190610bc99190616be4565b6130e9565b604051610bdb9190617755565b60405180910390f35b348015610bf15760006000fd5b50610c0c6004803603810190610c079190616b56565b613391565b005b348015610c1b5760006000fd5b50610c246134d4565b604051610c319190617478565b60405180910390f35b610c4261630b565b610c506134e763ffffffff16565b9050610c57565b90565b600860009054906101000a900460ff1681565b610c7b61366763ffffffff16565b6000600090505b8151811015610cf2576002601360005060008484815181101515610ca257fe5b602002602001015163ffffffff168152602001908152602001600020600050600001601c6101000a81548160ff02191690836002811115610cdf57fe5b02179055505b8080600101915050610c82565b507f7264e0084cbb7692193b834f40153b973ff4f827f8ed45da32ae6d8e486bb0c781604051610d2291906173cc565b60405180910390a15b5b50565b600060009054906101000a900473ffffffffffffffffffffffffffffffffffffffff1681565b6000600b60005060010160009054906101000a90046fffffffffffffffffffffffffffffffff166fffffffffffffffffffffffffffffffff169050610d95565b90565b610da0616336565b610daf826136fc63ffffffff16565b90508050600081610140015163ffffffff161115610eaa576013600050600082610140015163ffffffff16815260200190815260200160002060005060000160009054906101000a900473ffffffffffffffffffffffffffffffffffffffff1681610160019073ffffffffffffffffffffffffffffffffffffffff16908173ffffffffffffffffffffffffffffffffffffffff16815260200150506013600050600082610140015163ffffffff16815260200190815260200160002060005060000160149054906101000a900467ffffffffffffffff1681610180019067ffffffffffffffff16908167ffffffffffffffff16815260200150505b809050610eb2565b919050565b600560005060205280600052604060002060009150909054906101000a900460ff1681565b610eea613a9863ffffffff16565b610fc8600060009054906101000a900473ffffffffffffffffffffffffffffffffffffffff1673ffffffffffffffffffffffffffffffffffffffff16639ec5a8946040518163ffffffff1660e01b815260040160206040518083038186803b158015610f565760006000fd5b505afa158015610f6b573d600060003e3d6000fd5b505050506040513d601f19601f82011682018060405250810190610f8f91906169f1565b73ffffffffffffffffffffffffffffffffffffffff163373ffffffffffffffffffffffffffffffffffffffff1614613af363ffffffff16565b61102081601060005060008573ffffffffffffffffffffffffffffffffffffffff1673ffffffffffffffffffffffffffffffffffffffff16815260200190815260200160002060005054613b3990919063ffffffff16565b601060005060008473ffffffffffffffffffffffffffffffffffffffff1673ffffffffffffffffffffffffffffffffffffffff1681526020019081526020016000206000508190909055505b61107a613bc263ffffffff16565b5b5050565b60006040517f08c379a00000000000000000000000000000000000000000000000000000000081526004016110b3906175f9565b60405180910390fd5b95945050505050565b60136000506020528060005260406000206000915090508060000160009054906101000a900473ffffffffffffffffffffffffffffffffffffffff16908060000160149054906101000a900467ffffffffffffffff169080600001601c9054906101000a900460ff169080600001601d9054906101000a900462ffffff1690806001016000508054600181600116156101000203166002900480601f0160208091040260200160405190810160405280929190818152602001828054600181600116156101000203166002900480156111df5780601f106111b4576101008083540402835291602001916111df565b820191906000526020600020905b8154815290600101906020018083116111c257829003601f168201915b5050505050905085565b600160009054906101000a900473ffffffffffffffffffffffffffffffffffffffff1673ffffffffffffffffffffffffffffffffffffffff163373ffffffffffffffffffffffffffffffffffffffff161415156112465760006000fd5b600160159054906101000a900460ff161515156112635760006000fd5b80600060006101000a81548173ffffffffffffffffffffffffffffffffffffffff021916908373ffffffffffffffffffffffffffffffffffffffff160217905550600060009054906101000a900473ffffffffffffffffffffffffffffffffffffffff1673ffffffffffffffffffffffffffffffffffffffff16639624e83e6040518163ffffffff1660e01b815260040160206040518083038186803b15801561130d5760006000fd5b505afa158015611322573d600060003e3d6000fd5b505050506040513d601f19601f82011682018060405250810190611346919061692e565b600260006101000a81548173ffffffffffffffffffffffffffffffffffffffff021916908373ffffffffffffffffffffffffffffffffffffffff160217905550600060009054906101000a900473ffffffffffffffffffffffffffffffffffffffff1673ffffffffffffffffffffffffffffffffffffffff1663323741746040518163ffffffff1660e01b815260040160206040518083038186803b1580156113ef5760006000fd5b505afa158015611404573d600060003e3d6000fd5b505050506040513d601f19601f82011682018060405250810190611428919061697c565b600360006101000a81548173ffffffffffffffffffffffffffffffffffffffff021916908373ffffffffffffffffffffffffffffffffffffffff160217905550600060009054906101000a900473ffffffffffffffffffffffffffffffffffffffff1673ffffffffffffffffffffffffffffffffffffffff1663d478b0876040518163ffffffff1660e01b815260040160206040518083038186803b1580156114d15760006000fd5b505afa1580156114e6573d600060003e3d6000fd5b505050506040513d601f19601f8201168201806040525081019061150a91906169ca565b600460006101000a81548173ffffffffffffffffffffffffffffffffffffffff021916908373ffffffffffffffffffffffffffffffffffffffff160217905550611558613bd263ffffffff16565b600160149054906101000a900460ff161561158d576001600160156101000a81548160ff0219169083151502179055506115b3565b600160006101000a81549073ffffffffffffffffffffffffffffffffffffffff02191690555b8073ffffffffffffffffffffffffffffffffffffffff167f908408e307fc569b417f6cbec5d5a06f44a0a505ac0479b47d421a4b2fd6a1e660405160405180910390a25b50565b61160a8282613eac63ffffffff16565b5b5050565b61161d613a9863ffffffff16565b6116fb600060009054906101000a900473ffffffffffffffffffffffffffffffffffffffff1673ffffffffffffffffffffffffffffffffffffffff16639ec5a8946040518163ffffffff1660e01b815260040160206040518083038186803b1580156116895760006000fd5b505afa15801561169e573d600060003e3d6000fd5b505050506040513d601f19601f820116820180604052508101906116c291906169f1565b73ffffffffffffffffffffffffffffffffffffffff163373ffffffffffffffffffffffffffffffffffffffff1614613af363ffffffff16565b61179e61170f82613f19909063ffffffff16565b60116000506000600f600050600086815260200190815260200160002060005060000160009054906101000a900473ffffffffffffffffffffffffffffffffffffffff1673ffffffffffffffffffffffffffffffffffffffff1673ffffffffffffffffffffffffffffffffffffffff168152602001908152602001600020600050613fb390919063ffffffff16565b50600f600050600082815260200190815260200160002060006000820160006101000a81549073ffffffffffffffffffffffffffffffffffffffff02191690556000820160146101000a81549061ffff02191690556000820160166101000a81549063ffffffff021916905560018201600050600090556002820160006101000a81549075ffffffffffffffffffffffffffffffffffffffffffff02191690556002820160166101000a81549064ffffffffff021916905560028201601b6101000a81549064ffffffffff021916905550505b61187f613bc263ffffffff16565b5b50565b611891613a9863ffffffff16565b61189f6141ca63ffffffff16565b6118f86118eb82600b60005060010160009054906101000a90046fffffffffffffffffffffffffffffffff166fffffffffffffffffffffffffffffffff1661425a90919063ffffffff16565b613f19909063ffffffff16565b600b60005060010160006101000a8154816fffffffffffffffffffffffffffffffff02191690836fffffffffffffffffffffffffffffffff1602179055505b611945613bc263ffffffff16565b5b50565b611957613a9863ffffffff16565b611a35600060009054906101000a900473ffffffffffffffffffffffffffffffffffffffff1673ffffffffffffffffffffffffffffffffffffffff166380f556056040518163ffffffff1660e01b815260040160206040518083038186803b1580156119c35760006000fd5b505afa1580156119d8573d600060003e3d6000fd5b505050506040513d601f19601f820116820180604052508101906119fc91906169a3565b73ffffffffffffffffffffffffffffffffffffffff163373ffffffffffffffffffffffffffffffffffffffff1614613af363ffffffff16565b611a8e611a8182600b60005060010160009054906101000a90046fffffffffffffffffffffffffffffffff166fffffffffffffffffffffffffffffffff16613b3990919063ffffffff16565b613f19909063ffffffff16565b600b60005060010160006101000a8154816fffffffffffffffffffffffffffffffff02191690836fffffffffffffffffffffffffffffffff1602179055505b611adb613bc263ffffffff16565b5b50565b611aed613a9863ffffffff16565b611bcb600060009054906101000a900473ffffffffffffffffffffffffffffffffffffffff1673ffffffffffffffffffffffffffffffffffffffff166380f556056040518163ffffffff1660e01b815260040160206040518083038186803b158015611b595760006000fd5b505afa158015611b6e573d600060003e3d6000fd5b505050506040513d601f19601f82011682018060405250810190611b9291906169a3565b73ffffffffffffffffffffffffffffffffffffffff163373ffffffffffffffffffffffffffffffffffffffff1614613af363ffffffff16565b611be381600a60005054613b3990919063ffffffff16565b600a6000508190909055505b611bfd613bc263ffffffff16565b5b50565b611c0f61366763ffffffff16565b6000600090505b8151811015611c86576001601360005060008484815181101515611c3657fe5b602002602001015163ffffffff168152602001908152602001600020600050600001601c6101000a81548160ff02191690836002811115611c7357fe5b02179055505b8080600101915050611c16565b507f2e54370527117fb69828eac075cb3ed33fe59712134dfd3ef6efc9bd8b60c1ec81604051611cb691906173cc565b60405180910390a15b5b50565b611cd161366763ffffffff16565b6000600860006101000a81548160ff0219169083151502179055507f262b602ad12e3e551a407d5246b500f4ca5a01cc76bbf03e925db643a62a692f60405160405180910390a15b5b565b60c881565b611d296163ea565b600e60005060008361ffff1661ffff168152602001908152602001600020600050604051806040016040529081600082016000505481526020016001820160005054815260200150509050611d79565b919050565b611d8c613a9863ffffffff16565b611e6a600060009054906101000a900473ffffffffffffffffffffffffffffffffffffffff1673ffffffffffffffffffffffffffffffffffffffff16639ec5a8946040518163ffffffff1660e01b815260040160206040518083038186803b158015611df85760006000fd5b505afa158015611e0d573d600060003e3d6000fd5b505050506040513d601f19601f82011682018060405250810190611e3191906169f1565b73ffffffffffffffffffffffffffffffffffffffff163373ffffffffffffffffffffffffffffffffffffffff1614613af363ffffffff16565b611ec281601060005060008573ffffffffffffffffffffffffffffffffffffffff1673ffffffffffffffffffffffffffffffffffffffff1681526020019081526020016000206000505461425a90919063ffffffff16565b601060005060008473ffffffffffffffffffffffffffffffffffffffff1673ffffffffffffffffffffffffffffffffffffffff1681526020019081526020016000206000508190909055505b611f1c613bc263ffffffff16565b5b5050565b611f2f613a9863ffffffff16565b611f3d6141ca63ffffffff16565b600860009054906101000a900460ff168015611f64575060008267ffffffffffffffff1614155b15611f7e57611f7982826142e363ffffffff16565b905080505b60008160200151148015611f96575060008160400151145b156120f757600760005060008367ffffffffffffffff1667ffffffffffffffff168152602001908152602001600020600060008201600050600090556001820160006101000a8154906fffffffffffffffffffffffffffffffff02191690556001820160106101000a8154906fffffffffffffffffffffffffffffffff02191690556002820160006101000a8154906fffffffffffffffffffffffffffffffff02191690556002820160106101000a8154906fffffffffffffffffffffffffffffffff02191690556003820160006101000a81549067ffffffffffffffff02191690556003820160086101000a81549067ffffffffffffffff02191690556003820160106101000a81549062ffffff02191690556003820160136101000a81549060ff02191690556003820160146101000a81549067ffffffffffffffff021916905560038201601c6101000a81549063ffffffff02191690555050612108565b612107828261469e63ffffffff16565b5b5b612117613bc263ffffffff16565b5b5050565b61212a61366763ffffffff16565b6000600860016101000a81548160ff0219169083151502179055507fc4f6661464541d662c51191d4da5a7a1cc8bca2631698fd030e21b52520a549c60405160405180910390a15b5b565b612183613a9863ffffffff16565b6121916141ca63ffffffff16565b8173ffffffffffffffffffffffffffffffffffffffff166108fc829081150290604051600060405180830381858888f193505050501580156121d8573d600060003e3d6000fd5b505b6121e8613bc263ffffffff16565b5b5050565b60006000600760005060008467ffffffffffffffff1667ffffffffffffffff16815260200190815260200160002060005060010160109054906101000a90046fffffffffffffffffffffffffffffffff166fffffffffffffffffffffffffffffffff1691508150600760005060008467ffffffffffffffff1667ffffffffffffffff16815260200190815260200160002060005060010160009054906101000a90046fffffffffffffffffffffffffffffffff166fffffffffffffffffffffffffffffffff16905080506000600760005060008567ffffffffffffffff1667ffffffffffffffff16815260200190815260200160002060005060020160009054906101000a90046fffffffffffffffffffffffffffffffff166fffffffffffffffffffffffffffffffff16905060008314806123295750600081145b1561233a578282925092505061239b565b6000600b60005060010160109054906101000a90046fffffffffffffffffffffffffffffffff166fffffffffffffffffffffffffffffffff169050808214151561239857612393818386614a0c9092919063ffffffff16565b935083505b50505b915091565b600860019054906101000a900460ff1615156123bb576124aa565b612499600060009054906101000a900473ffffffffffffffffffffffffffffffffffffffff1673ffffffffffffffffffffffffffffffffffffffff16639ec5a8946040518163ffffffff1660e01b815260040160206040518083038186803b1580156124275760006000fd5b505afa15801561243c573d600060003e3d6000fd5b505050506040513d601f19601f8201168201806040525081019061246091906169f1565b73ffffffffffffffffffffffffffffffffffffffff163373ffffffffffffffffffffffffffffffffffffffff1614613af363ffffffff16565b6124a98282613eac63ffffffff16565b5b5050565b600060149054906101000a900460ff1681565b6124cf613a9863ffffffff16565b6125ad600060009054906101000a900473ffffffffffffffffffffffffffffffffffffffff1673ffffffffffffffffffffffffffffffffffffffff166380f556056040518163ffffffff1660e01b815260040160206040518083038186803b15801561253b5760006000fd5b505afa158015612550573d600060003e3d6000fd5b505050506040513d601f19601f8201168201806040525081019061257491906169a3565b73ffffffffffffffffffffffffffffffffffffffff163373ffffffffffffffffffffffffffffffffffffffff1614613af363ffffffff16565b6125bc81614b0d63ffffffff16565b5b6125cb613bc263ffffffff16565b5b50565b600a6000505481565b6125e6613a9863ffffffff16565b6126c4600060009054906101000a900473ffffffffffffffffffffffffffffffffffffffff1673ffffffffffffffffffffffffffffffffffffffff16639ec5a8946040518163ffffffff1660e01b815260040160206040518083038186803b1580156126525760006000fd5b505afa158015612667573d600060003e3d6000fd5b505050506040513d601f19601f8201168201806040525081019061268b91906169f1565b73ffffffffffffffffffffffffffffffffffffffff163373ffffffffffffffffffffffffffffffffffffffff1614613af363ffffffff16565b6126d48282614c7f63ffffffff16565b5b6126e3613bc263ffffffff16565b5b5050565b60106000506020528060005260406000206000915090505481565b61271161366763ffffffff16565b61272081614eb063ffffffff16565b5b5b50565b612733613a9863ffffffff16565b612811600060009054906101000a900473ffffffffffffffffffffffffffffffffffffffff1673ffffffffffffffffffffffffffffffffffffffff166380f556056040518163ffffffff1660e01b815260040160206040518083038186803b15801561279f5760006000fd5b505afa1580156127b4573d600060003e3d6000fd5b505050506040513d601f19601f820116820180604052508101906127d891906169a3565b73ffffffffffffffffffffffffffffffffffffffff163373ffffffffffffffffffffffffffffffffffffffff1614613af363ffffffff16565b61282981600a6000505461425a90919063ffffffff16565b600a600050819090905550612867600360009054906101000a900473ffffffffffffffffffffffffffffffffffffffff168383614f4463ffffffff16565b5b612876613bc263ffffffff16565b5b5050565b60606128d2601160005060008473ffffffffffffffffffffffffffffffffffffffff1673ffffffffffffffffffffffffffffffffffffffff168152602001908152602001600020600050615150909063ffffffff16565b90506128d9565b919050565b6128ec613a9863ffffffff16565b612a04600360009054906101000a900473ffffffffffffffffffffffffffffffffffffffff16600360009054906101000a900473ffffffffffffffffffffffffffffffffffffffff166129f9600a60005054600360009054906101000a900473ffffffffffffffffffffffffffffffffffffffff1673ffffffffffffffffffffffffffffffffffffffff166370a08231306040518263ffffffff1660e01b815260040161299991906171c5565b60206040518083038186803b1580156129b25760006000fd5b505afa1580156129c7573d600060003e3d6000fd5b505050506040513d601f19601f820116820180604052508101906129eb9190616c00565b61425a90919063ffffffff16565b614f4463ffffffff16565b5b612a13613bc263ffffffff16565b5b565b60608163ffffffff168363ffffffff16101515612a335760006000fd5b82820363ffffffff1667ffffffffffffffff81118015612a535760006000fd5b50604051908082528060200260200182016040528015612a8d57816020015b612a7a616407565b815260200190600190039081612a725790505b509050805060005b8263ffffffff168463ffffffff161015612c7d57601360005060008580600101965063ffffffff1681526020019081526020016000206000506040518060a00160405290816000820160009054906101000a900473ffffffffffffffffffffffffffffffffffffffff1673ffffffffffffffffffffffffffffffffffffffff1673ffffffffffffffffffffffffffffffffffffffff1681526020016000820160149054906101000a900467ffffffffffffffff1667ffffffffffffffff1667ffffffffffffffff16815260200160008201601c9054906101000a900460ff166002811115612b7f57fe5b6002811115612b8a57fe5b815260200160008201601d9054906101000a900462ffffff1662ffffff1662ffffff168152602001600182016000508054600181600116156101000203166002900480601f016020809104026020016040519081016040528092919081815260200182805460018160011615610100020316600290048015612c4d5780601f10612c2257610100808354040283529160200191612c4d565b820191906000526020600020905b815481529060010190602001808311612c3057829003601f168201915b5050505050815260200150508282806001019350815181101515612c6d57fe5b6020026020010181905250612a95565b505b92915050565b606060096000506000612c9f8460c8612e0163ffffffff16565b60020b60020b8152602001908152602001600020600050805480602002602001604051908101604052809291908181526020018280548015612d3457602002820191906000526020600020906000905b82829054906101000a900467ffffffffffffffff1667ffffffffffffffff1681526020019060080190602082600701049283019260010382029150808411612cef5790505b50505050509050612d40565b919050565b60006000821415612d5b57627fffff9050612dd5565b600083111515612da0576040517f08c379a0000000000000000000000000000000000000000000000000000000008152600401612d97906175ba565b60405180910390fd5b612dce612dc1612db685856151f663ffffffff16565b61525e63ffffffff16565b60c8612e0163ffffffff16565b9050612dd5565b92915050565b600160009054906101000a900473ffffffffffffffffffffffffffffffffffffffff1681565b600060008360020b905060008360020b82811515612e1b57fe5b0790506000811415612e31578492505050612e6c565b600060008313612e48578460020b82840303612e4c565b8183035b9050612e5f81615672909063ffffffff16565b9350505050612e6c565050505b92915050565b6000612e82613a9863ffffffff16565b6703782dace9d9000067ffffffffffffffff168467ffffffffffffffff1611151515612ee3576040517f08c379a0000000000000000000000000000000000000000000000000000000008152600401612eda90617638565b60405180910390fd5b63ffffffff63ffffffff16601260009054906101000a900463ffffffff1663ffffffff16101515612f145760006000fd5b60006012600081819054906101000a900463ffffffff168092919060010191906101000a81548163ffffffff021916908363ffffffff16021790555090506040518060a001604052803373ffffffffffffffffffffffffffffffffffffffff1681526020018667ffffffffffffffff16815260200160006002811115612f9657fe5b81526020018562ffffff16815260200184815260200150601360005060008363ffffffff16815260200190815260200160002060005060008201518160000160006101000a81548173ffffffffffffffffffffffffffffffffffffffff021916908373ffffffffffffffffffffffffffffffffffffffff16021790555060208201518160000160146101000a81548167ffffffffffffffff021916908367ffffffffffffffff160217905550604082015181600001601c6101000a81548160ff0219169083600281111561306657fe5b0217905550606082015181600001601d6101000a81548162ffffff021916908362ffffff16021790555060808201518160010160005090805190602001906130af929190616469565b50905050809150506130bd56505b6130cb613bc263ffffffff16565b5b9392505050565b601260009054906101000a900463ffffffff1681565b6130f16164fc565b6131008261572a63ffffffff16565b905080506000816020015161ffff16111515613151576040517f08c379a00000000000000000000000000000000000000000000000000000000081526004016131489061757b565b60405180910390fd5b600081610120015163ffffffff161115613248576013600050600082610120015163ffffffff16815260200190815260200160002060005060000160149054906101000a900467ffffffffffffffff1681610160019067ffffffffffffffff16908167ffffffffffffffff16815260200150506013600050600082610120015163ffffffff16815260200190815260200160002060005060000160009054906101000a900473ffffffffffffffffffffffffffffffffffffffff1681610140019073ffffffffffffffffffffffffffffffffffffffff16908173ffffffffffffffffffffffffffffffffffffffff16815260200150505b7f000000000000000000000000000000000000000000000000000000000000000073ffffffffffffffffffffffffffffffffffffffff166399fbab88836040518263ffffffff1660e01b81526004016132a1919061787c565b6101806040518083038186803b1580156132bb5760006000fd5b505afa1580156132d0573d600060003e3d6000fd5b505050506040513d601f19601f820116820180604052508101906132f49190616fb3565b909192939495969798999a509091929394959697989950909192939495969798509091929394959697509091929394959650909192509091509050508360e00184610100018560a0018390906fffffffffffffffffffffffffffffffff166fffffffffffffffffffffffffffffffff1681526020015083909060020b60020b81526020015083909060020b60020b8152602001505050505b919050565b61339f613a9863ffffffff16565b61347d600060009054906101000a900473ffffffffffffffffffffffffffffffffffffffff1673ffffffffffffffffffffffffffffffffffffffff16639ec5a8946040518163ffffffff1660e01b815260040160206040518083038186803b15801561340b5760006000fd5b505afa158015613420573d600060003e3d6000fd5b505050506040513d601f19601f8201168201806040525081019061344491906169f1565b73ffffffffffffffffffffffffffffffffffffffff163373ffffffffffffffffffffffffffffffffffffffff1614613af363ffffffff16565b80600e60005060008461ffff1661ffff1681526020019081526020016000206000506000820151816000016000509090556020820151816001016000509090559050505b6134cf613bc263ffffffff16565b5b5050565b600860019054906101000a900460ff1681565b6134ef61630b565b6000600b600050604051806080016040529081600082016000505481526020016001820160009054906101000a90046fffffffffffffffffffffffffffffffff166fffffffffffffffffffffffffffffffff166fffffffffffffffffffffffffffffffff1681526020016001820160109054906101000a90046fffffffffffffffffffffffffffffffff166fffffffffffffffffffffffffffffffff166fffffffffffffffffffffffffffffffff1681526020016002820160009054906101000a90046fffffffffffffffffffffffffffffffff166fffffffffffffffffffffffffffffffff166fffffffffffffffffffffffffffffffff16815260200150509050604051806080016040528082602001516fffffffffffffffffffffffffffffffff16815260200182606001516fffffffffffffffffffffffffffffffff1681526020018260000151815260200182604001516fffffffffffffffffffffffffffffffff1681526020015091505061366456505b90565b600060009054906101000a900473ffffffffffffffffffffffffffffffffffffffff1673ffffffffffffffffffffffffffffffffffffffff163373ffffffffffffffffffffffffffffffffffffffff161415156136f9576040517f08c379a00000000000000000000000000000000000000000000000000000000081526004016136f09061753c565b60405180910390fd5b5b565b613704616336565b6000600760005060008467ffffffffffffffff1667ffffffffffffffff16815260200190815260200160002060005060405180610160016040529081600082016000505481526020016001820160009054906101000a90046fffffffffffffffffffffffffffffffff166fffffffffffffffffffffffffffffffff166fffffffffffffffffffffffffffffffff1681526020016001820160109054906101000a90046fffffffffffffffffffffffffffffffff166fffffffffffffffffffffffffffffffff166fffffffffffffffffffffffffffffffff1681526020016002820160009054906101000a90046fffffffffffffffffffffffffffffffff166fffffffffffffffffffffffffffffffff166fffffffffffffffffffffffffffffffff1681526020016002820160109054906101000a90046fffffffffffffffffffffffffffffffff166fffffffffffffffffffffffffffffffff166fffffffffffffffffffffffffffffffff1681526020016003820160009054906101000a900467ffffffffffffffff1667ffffffffffffffff1667ffffffffffffffff1681526020016003820160089054906101000a900467ffffffffffffffff1667ffffffffffffffff1667ffffffffffffffff1681526020016003820160109054906101000a900460020b60020b60020b81526020016003820160139054906101000a900460ff161515151581526020016003820160149054906101000a900467ffffffffffffffff1667ffffffffffffffff1667ffffffffffffffff16815260200160038201601c9054906101000a900463ffffffff1663ffffffff1663ffffffff16815260200150509050604051806101a001604052808260000151815260200182602001516fffffffffffffffffffffffffffffffff16815260200182604001516fffffffffffffffffffffffffffffffff16815260200182606001516fffffffffffffffffffffffffffffffff16815260200182608001516fffffffffffffffffffffffffffffffff1681526020018260a0015167ffffffffffffffff1681526020018260c0015167ffffffffffffffff1681526020018260e0015160020b81526020018261010001511515815260200182610120015167ffffffffffffffff16815260200182610140015163ffffffff168152602001600073ffffffffffffffffffffffffffffffffffffffff168152602001600067ffffffffffffffff16815260200150915050613a9356505b919050565b600260066000505414151515613ae3576040517f08c379a0000000000000000000000000000000000000000000000000000000008152600401613ada906174fd565b60405180910390fd5b600260066000508190909055505b565b801515613b35576040517f08c379a0000000000000000000000000000000000000000000000000000000008152600401613b2c9061753c565b60405180910390fd5b5b50565b60008282840191508110151515613bbb576040517f08c379a000000000000000000000000000000000000000000000000000000000815260040180806020018281038252600c8152602001807f6164642d6f766572666c6f77000000000000000000000000000000000000000081526020015060200191505060405180910390fd5b5b92915050565b600160066000508190909055505b565b613beb670de0b6b3a7640000613f19909063ffffffff16565b600b60005060010160106101000a8154816fffffffffffffffffffffffffffffffff02191690836fffffffffffffffffffffffffffffffff160217905550613cd9600060009054906101000a900473ffffffffffffffffffffffffffffffffffffffff1673ffffffffffffffffffffffffffffffffffffffff16639ec5a8946040518163ffffffff1660e01b815260040160206040518083038186803b158015613c955760006000fd5b505afa158015613caa573d600060003e3d6000fd5b505050506040513d601f19601f82011682018060405250810190613cce91906169f1565b614eb063ffffffff16565b60016005600050600063461054a360e01b7bffffffffffffffffffffffffffffffffffffffffffffffffffffffff19167bffffffffffffffffffffffffffffffffffffffffffffffffffffffff1916815260200190815260200160002060006101000a81548160ff02191690831515021790555060016005600050600063602db56b60e01b7bffffffffffffffffffffffffffffffffffffffffffffffffffffffff19167bffffffffffffffffffffffffffffffffffffffffffffffffffffffff1916815260200190815260200160002060006101000a81548160ff02191690831515021790555060016005600050600063397d359260e01b7bffffffffffffffffffffffffffffffffffffffffffffffffffffffff19167bffffffffffffffffffffffffffffffffffffffffffffffffffffffff1916815260200190815260200160002060006101000a81548160ff021916908315150217905550600160056000506000630b218d2460e01b7bffffffffffffffffffffffffffffffffffffffffffffffffffffffff19167bffffffffffffffffffffffffffffffffffffffffffffffffffffffff1916815260200190815260200160002060006101000a81548160ff0219169083151502179055505b565b613f13613ec082613f19909063ffffffff16565b601160005060008573ffffffffffffffffffffffffffffffffffffffff1673ffffffffffffffffffffffffffffffffffffffff1681526020019081526020016000206000506159c090919063ffffffff16565b505b5050565b600070010000000000000000000000000000000082101515613fa6576040517f08c379a00000000000000000000000000000000000000000000000000000000081526004018080602001828103825260128152602001807f6d6f7265207468616e203132382062697473000000000000000000000000000081526020015060200191505060405180910390fd5b819050613fae565b919050565b60006000836001016000506000846fffffffffffffffffffffffffffffffff166fffffffffffffffffffffffffffffffff1681526020019081526020016000206000505490506000811415156141b85760006001820390506000600186600001600050805490500390506000866000016000508281548110151561403357fe5b90600052602060002090600291828204019190066010025b9054906101000a90046fffffffffffffffffffffffffffffffff16905080876000016000508481548110151561407d57fe5b90600052602060002090600291828204019190066010025b6101000a8154816fffffffffffffffffffffffffffffffff02191690836fffffffffffffffffffffffffffffffff16021790555060018301876001016000506000836fffffffffffffffffffffffffffffffff166fffffffffffffffffffffffffffffffff16815260200190815260200160002060005081909090555086600001600050805480151561412457fe5b60019003818190600052602060002090600291828204019190066010025b6101000a8154906fffffffffffffffffffffffffffffffff02191690559055866001016000506000876fffffffffffffffffffffffffffffffff166fffffffffffffffffffffffffffffffff1681526020019081526020016000206000506000905560019450505050506141c4565050506141c2565b60009150506141c4565b505b92915050565b600060009054906101000a900473ffffffffffffffffffffffffffffffffffffffff1673ffffffffffffffffffffffffffffffffffffffff16637c114fed336040518263ffffffff1660e01b815260040161422591906171c5565b60006040518083038186803b15801561423e5760006000fd5b505afa158015614253573d600060003e3d6000fd5b505050505b565b600082828403915081111515156142dc576040517f08c379a000000000000000000000000000000000000000000000000000000000815260040180806020018281038252600d8152602001807f7375622d756e646572666c6f770000000000000000000000000000000000000081526020015060200191505060405180910390fd5b5b92915050565b6142eb616336565b6000600760005060008567ffffffffffffffff1667ffffffffffffffff16815260200190815260200160002060005060030160139054906101000a900460ff16905060008161433d57627fffff61437c565b600760005060008667ffffffffffffffff1667ffffffffffffffff16815260200190815260200160002060005060030160109054906101000a900460020b5b90506000600760005060008767ffffffffffffffff1667ffffffffffffffff16815260200190815260200160002060005060030160149054906101000a900467ffffffffffffffff16905060006143e186602001518760400151612d4563ffffffff16565b90508060020b8360020b14151561468857808660e0019060020b908160020b815260200150506000627fffff60020b8460020b12156145ae57600960005060008560020b60020b81526020019081526020016000206000509050805060006144576001838054905003615ab1909063ffffffff16565b90508067ffffffffffffffff168467ffffffffffffffff1614151561456b576000828267ffffffffffffffff1681548110151561449057fe5b90600052602060002090600491828204019190066008025b9054906101000a900467ffffffffffffffff16905080838667ffffffffffffffff168154811015156144d657fe5b90600052602060002090600491828204019190066008025b6101000a81548167ffffffffffffffff021916908367ffffffffffffffff16021790555084600760005060008367ffffffffffffffff1667ffffffffffffffff16815260200190815260200160002060005060030160146101000a81548167ffffffffffffffff021916908367ffffffffffffffff160217905550505b81805480151561457757fe5b60019003818190600052602060002090600491828204019190066008025b6101000a81549067ffffffffffffffff02191690559055505b627fffff60020b8260020b121561468657600960005060008360020b60020b8152602001908152602001600020600050905080506145f78180549050615ab1909063ffffffff16565b87610120019067ffffffffffffffff16908167ffffffffffffffff1681526020015050600187610100019015159081151581526020015050808890806001815401808255809150506001900390600052602060002090600491828204019190066008025b9091909190916101000a81548167ffffffffffffffff021916908367ffffffffffffffff1602179055505b505b8594505050505061469856505050505b92915050565b604051806101600160405280826000015181526020016146c98360200151613f19909063ffffffff16565b6fffffffffffffffffffffffffffffffff1681526020016146f58360400151613f19909063ffffffff16565b6fffffffffffffffffffffffffffffffff1681526020016147218360600151613f19909063ffffffff16565b6fffffffffffffffffffffffffffffffff16815260200161474d8360800151613f19909063ffffffff16565b6fffffffffffffffffffffffffffffffff1681526020018260a0015167ffffffffffffffff1681526020018260c0015167ffffffffffffffff1681526020018260e0015160020b81526020018261010001511515815260200182610120015167ffffffffffffffff16815260200182610140015163ffffffff16815260200150600760005060008467ffffffffffffffff1667ffffffffffffffff16815260200190815260200160002060005060008201518160000160005090905560208201518160010160006101000a8154816fffffffffffffffffffffffffffffffff02191690836fffffffffffffffffffffffffffffffff16021790555060408201518160010160106101000a8154816fffffffffffffffffffffffffffffffff02191690836fffffffffffffffffffffffffffffffff16021790555060608201518160020160006101000a8154816fffffffffffffffffffffffffffffffff02191690836fffffffffffffffffffffffffffffffff16021790555060808201518160020160106101000a8154816fffffffffffffffffffffffffffffffff02191690836fffffffffffffffffffffffffffffffff16021790555060a08201518160030160006101000a81548167ffffffffffffffff021916908367ffffffffffffffff16021790555060c08201518160030160086101000a81548167ffffffffffffffff021916908367ffffffffffffffff16021790555060e08201518160030160106101000a81548162ffffff021916908360020b62ffffff1602179055506101008201518160030160136101000a81548160ff0219169083151502179055506101208201518160030160146101000a81548167ffffffffffffffff021916908367ffffffffffffffff16021790555061014082015181600301601c6101000a81548163ffffffff021916908363ffffffff1602179055509050505b5050565b6000600060006000198587098587029250828110838203039150506000811415614a4f57600084111515614a405760006000fd5b83820492508292505050614b06565b8084111515614a5e5760006000fd5b6000848688099050828111820391508083039250600085866000031690508086049550808404935060018182600003040190508083028417935083506000600287600302189050808702600203810290508050808702600203810290508050808702600203810290508050808702600203810290508050808702600203810290508050808702600203810290508050808502955085508595505050505050614b065650505050505b9392505050565b604051806080016040528082604001518152602001614b378360000151613f19909063ffffffff16565b6fffffffffffffffffffffffffffffffff168152602001614b638360600151613f19909063ffffffff16565b6fffffffffffffffffffffffffffffffff168152602001614b8f8360200151613f19909063ffffffff16565b6fffffffffffffffffffffffffffffffff16815260200150600b60005060008201518160000160005090905560208201518160010160006101000a8154816fffffffffffffffffffffffffffffffff02191690836fffffffffffffffffffffffffffffffff16021790555060408201518160010160106101000a8154816fffffffffffffffffffffffffffffffff02191690836fffffffffffffffffffffffffffffffff16021790555060608201518160020160006101000a8154816fffffffffffffffffffffffffffffffff02191690836fffffffffffffffffffffffffffffffff1602179055509050505b50565b6040518060e00160405280826000015173ffffffffffffffffffffffffffffffffffffffff168152602001826020015161ffff16815260200182610120015163ffffffff16815260200182604001518152602001614ce88360600151615b43909063ffffffff16565b75ffffffffffffffffffffffffffffffffffffffffffff168152602001614d248360c0015167ffffffffffffffff16615be3909063ffffffff16565b64ffffffffff168152602001614d458360800151615be3909063ffffffff16565b64ffffffffff16815260200150600f600050600084815260200190815260200160002060005060008201518160000160006101000a81548173ffffffffffffffffffffffffffffffffffffffff021916908373ffffffffffffffffffffffffffffffffffffffff16021790555060208201518160000160146101000a81548161ffff021916908361ffff16021790555060408201518160000160166101000a81548163ffffffff021916908363ffffffff16021790555060608201518160010160005090905560808201518160020160006101000a81548175ffffffffffffffffffffffffffffffffffffffffffff021916908375ffffffffffffffffffffffffffffffffffffffffffff16021790555060a08201518160020160166101000a81548164ffffffffff021916908364ffffffffff16021790555060c082015181600201601b6101000a81548164ffffffffff021916908364ffffffffff1602179055509050505b5050565b7f000000000000000000000000000000000000000000000000000000000000000073ffffffffffffffffffffffffffffffffffffffff1663a22cb4658260016040518363ffffffff1660e01b8152600401614f0c9291906171ed565b600060405180830381600087803b158015614f275760006000fd5b505af1158015614f3c573d600060003e3d6000fd5b505050505b50565b600060008473ffffffffffffffffffffffffffffffffffffffff1663a9059cbb60e01b8585604051602401808373ffffffffffffffffffffffffffffffffffffffff16815260200182815260200192505050604051602081830303815290604052907bffffffffffffffffffffffffffffffffffffffffffffffffffffffff19166020820180517bffffffffffffffffffffffffffffffffffffffffffffffffffffffff83818316178352505050506040518082805190602001908083835b60208310151561502957805182525b602082019150602081019050602083039250615003565b6001836020036101000a0380198251168184511680821785525050505050509050019150506000604051808303816000865af19150503d806000811461508b576040519150601f19603f3d011682016040523d82523d6000602084013e615090565b606091505b50915091508180156150d157506000815114806150d057508080602001905160208110156150be5760006000fd5b81019080805190602001909291905050505b5b1515615148576040517f08c379a00000000000000000000000000000000000000000000000000000000081526004018080602001828103825260028152602001807f535400000000000000000000000000000000000000000000000000000000000081526020015060200191505060405180910390fd5b50505b505050565b6060816000016000508054806020026020016040519081016040528092919081815260200182805480156151e757602002820191906000526020600020906000905b82829054906101000a90046fffffffffffffffffffffffffffffffff166fffffffffffffffffffffffffffffffff1681526020019060100190602082600f010492830192600103820291508084116151925790505b5050505050905080505b919050565b6000615251615244660100000000000061523661522b6c010000000000000000000000008789614a0c9092919063ffffffff16565b615c7263ffffffff16565b615ce590919063ffffffff16565b615d83909063ffffffff16565b9050615258565b92915050565b60006401000276a373ffffffffffffffffffffffffffffffffffffffff168273ffffffffffffffffffffffffffffffffffffffff16101580156152e0575073fffd8963efd1fc6a506488495d951d5263988d2673ffffffffffffffffffffffffffffffffffffffff168273ffffffffffffffffffffffffffffffffffffffff16105b1515615357576040517f08c379a00000000000000000000000000000000000000000000000000000000081526004018080602001828103825260018152602001807f520000000000000000000000000000000000000000000000000000000000000081526020015060200191505060405180910390fd5b600060208373ffffffffffffffffffffffffffffffffffffffff16901b905060008190506000600090506fffffffffffffffffffffffffffffffff821160071b808217915082811c92505067ffffffffffffffff821160061b808217915082811c92505063ffffffff821160051b808217915082811c92505061ffff821160041b808217915082811c92505060ff821160031b808217915082811c925050600f821160021b808217915082811c9250506003821160011b808217915082811c9250506001821180821791505060808110151561543d57607f810383901c91508150615449565b80607f0383901b915081505b6000604060808303901b9050828302607f1c92508260801c80603f1b8217915083811c935050828302607f1c92508260801c80603e1b8217915083811c935050828302607f1c92508260801c80603d1b8217915083811c935050828302607f1c92508260801c80603c1b8217915083811c935050828302607f1c92508260801c80603b1b8217915083811c935050828302607f1c92508260801c80603a1b8217915083811c935050828302607f1c92508260801c8060391b8217915083811c935050828302607f1c92508260801c8060381b8217915083811c935050828302607f1c92508260801c8060371b8217915083811c935050828302607f1c92508260801c8060361b8217915083811c935050828302607f1c92508260801c8060351b8217915083811c935050828302607f1c92508260801c8060341b8217915083811c935050828302607f1c92508260801c8060331b8217915083811c935050828302607f1c92508260801c8060321b82179150506000693627a301d71055774c8582029050600060806f028f6481ab7f045a5af012a19d003aaa8303901d9050600060806fdb2df09e81959a81455e260799a0632f8401901d90508060020b8260020b1461565f578873ffffffffffffffffffffffffffffffffffffffff1661563682615e2163ffffffff16565b73ffffffffffffffffffffffffffffffffffffffff161115615658578161565a565b805b615661565b815b97508750505050505050505b919050565b60007fffffffffffffffffffffffffffffffffffffffffffffffffffffffffff80000082121580156156a657506280000082125b151561571d576040517f08c379a00000000000000000000000000000000000000000000000000000000081526004018080602001828103825260118152602001807f6d6f7265207468616e203234206269747300000000000000000000000000000081526020015060200191505060405180910390fd5b819050615725565b919050565b6157326164fc565b6000600f60005060008481526020019081526020016000206000506040518060e00160405290816000820160009054906101000a900473ffffffffffffffffffffffffffffffffffffffff1673ffffffffffffffffffffffffffffffffffffffff1673ffffffffffffffffffffffffffffffffffffffff1681526020016000820160149054906101000a900461ffff1661ffff1661ffff1681526020016000820160169054906101000a900463ffffffff1663ffffffff1663ffffffff168152602001600182016000505481526020016002820160009054906101000a900475ffffffffffffffffffffffffffffffffffffffffffff1675ffffffffffffffffffffffffffffffffffffffffffff1675ffffffffffffffffffffffffffffffffffffffffffff1681526020016002820160169054906101000a900464ffffffffff1664ffffffffff1664ffffffffff16815260200160028201601b9054906101000a900464ffffffffff1664ffffffffff1664ffffffffff16815260200150509050604051806101800160405280826000015173ffffffffffffffffffffffffffffffffffffffff168152602001826020015161ffff16815260200182606001518152602001826080015175ffffffffffffffffffffffffffffffffffffffffffff1681526020018260c0015164ffffffffff16815260200160006fffffffffffffffffffffffffffffffff1681526020018260a0015164ffffffffff1667ffffffffffffffff168152602001600060020b8152602001600060020b8152602001826040015163ffffffff168152602001600073ffffffffffffffffffffffffffffffffffffffff168152602001600067ffffffffffffffff168152602001509150506159bb56505b919050565b60006159d283836162b863ffffffff16565b1515615aa157826000016000508290806001815401808255809150506001900390600052602060002090600291828204019190066010025b9091909190916101000a8154816fffffffffffffffffffffffffffffffff02191690836fffffffffffffffffffffffffffffffff1602179055508260000160005080549050836001016000506000846fffffffffffffffffffffffffffffffff166fffffffffffffffffffffffffffffffff16815260200190815260200160002060005081909090555060019050615aab56615aaa565b60009050615aab565b5b92915050565b60006801000000000000000082101515615b36576040517f08c379a00000000000000000000000000000000000000000000000000000000081526004018080602001828103825260118152602001807f6d6f7265207468616e203634206269747300000000000000000000000000000081526020015060200191505060405180910390fd5b819050615b3e565b919050565b600076010000000000000000000000000000000000000000000082101515615bd6576040517f08c379a00000000000000000000000000000000000000000000000000000000081526004018080602001828103825260128152602001807f6d6f7265207468616e203137362062697473000000000000000000000000000081526020015060200191505060405180910390fd5b819050615bde565b919050565b60006501000000000082101515615c65576040517f08c379a00000000000000000000000000000000000000000000000000000000081526004018080602001828103825260118152602001807f6d6f7265207468616e203430206269747300000000000000000000000000000081526020015060200191505060405180910390fd5b819050615c6d565b919050565b60006003821115615ccd57819050805060006001600284811515615c9257fe5b040190505b81811015615cc75780915081506002818285811515615cb257fe5b0401811515615cbd57fe5b0490508050615c97565b50615cdf565b600082141515615cde576001905080505b5b5b919050565b60006000821480615d0557508282838502925082811515615d0257fe5b04145b1515615d7c576040517f08c379a000000000000000000000000000000000000000000000000000000000815260040180806020018281038252600c8152602001807f6d756c2d6f766572666c6f77000000000000000000000000000000000000000081526020015060200191505060405180910390fd5b5b92915050565b60007401000000000000000000000000000000000000000082101515615e14576040517f08c379a00000000000000000000000000000000000000000000000000000000081526004018080602001828103825260128152602001807f6d6f7265207468616e203136302062697473000000000000000000000000000081526020015060200191505060405180910390fd5b819050615e1c565b919050565b6000600060008360020b12615e39578260020b615e41565b8260020b6000035b90507ffffffffffffffffffffffffffffffffffffffffffffffffffffffffffff2761860000360020b8111151515615ee4576040517f08c379a00000000000000000000000000000000000000000000000000000000081526004018080602001828103825260018152602001807f540000000000000000000000000000000000000000000000000000000000000081526020015060200191505060405180910390fd5b60006000600183161415615f0957700100000000000000000000000000000000615f1b565b6ffffcb933bd6fad37aa2d162d1a5940015b70ffffffffffffffffffffffffffffffffff169050600060028316141515615f595760806ffff97272373d413259a46990580e213a8202901c905080505b600060048316141515615f825760806ffff2e50f5f656932ef12357cf3c7fdcc8202901c905080505b600060088316141515615fab5760806fffe5caca7e10e4e61c3624eaa0941cd08202901c905080505b600060108316141515615fd45760806fffcb9843d60f6159c9db58835c9266448202901c905080505b600060208316141515615ffd5760806fff973b41fa98c081472e6896dfb254c08202901c905080505b6000604083161415156160265760806fff2ea16466c96a3843ec78b326b528618202901c905080505b60006080831614151561604f5760806ffe5dee046a99a2a811c461f1969c30538202901c905080505b600061010083161415156160795760806ffcbe86c7900a88aedcffc83b479aa3a48202901c905080505b600061020083161415156160a35760806ff987a7253ac413176f2b074cf7815e548202901c905080505b600061040083161415156160cd5760806ff3392b0822b70005940c7a398e4b70f38202901c905080505b600061080083161415156160f75760806fe7159475a2c29b7443b29c7fa6e889d98202901c905080505b600061100083161415156161215760806fd097f3bdfd2022b8845ad8f792aa58258202901c905080505b6000612000831614151561614b5760806fa9f746462d870fdf8a65dc1f90e061e58202901c905080505b600061400083161415156161755760806f70d869a156d2a1b890bb3df62baf32f78202901c905080505b6000618000831614151561619f5760806f31be135f97d08fd981231505542fcfa68202901c905080505b60006201000083161415156161ca5760806f09aa508b5b7a84e1c677de54f3e99bc98202901c905080505b60006202000083161415156161f45760806e5d6af8dedb81196699c329225ee6048202901c905080505b600062040000831614151561621d5760806d2216e584f5fa1ea926041bedfe988202901c905080505b60006208000083161415156162445760806b048a170391f7dc42444e8fa28202901c905080505b60008460020b131561628157807fffffffffffffffffffffffffffffffffffffffffffffffffffffffffffffffff81151561627b57fe5b04905080505b60006401000000008281151561629357fe5b06146162a05760016162a3565b60005b60ff16602082901c019250825050505b919050565b60006000836001016000506000846fffffffffffffffffffffffffffffffff166fffffffffffffffffffffffffffffffff1681526020019081526020016000206000505414159050616305565b92915050565b6040518060800160405280600081526020016000815260200160008152602001600081526020015090565b604051806101a001604052806000815260200160008152602001600081526020016000815260200160008152602001600067ffffffffffffffff168152602001600067ffffffffffffffff168152602001600060020b8152602001600015158152602001600067ffffffffffffffff168152602001600063ffffffff168152602001600073ffffffffffffffffffffffffffffffffffffffff168152602001600067ffffffffffffffff1681526020015090565b604051806040016040528060008152602001600081526020015090565b6040518060a00160405280600073ffffffffffffffffffffffffffffffffffffffff168152602001600067ffffffffffffffff1681526020016000600281111561644d57fe5b8152602001600062ffffff168152602001606081526020015090565b828054600181600116156101000203166002900490600052602060002090601f01602090048101928261649f57600085556164eb565b82601f106164b857805160ff19168380011785556164eb565b828001600101855582156164eb579182015b828111156164ea57825182600050909055916020019190600101906164ca565b5b5090506164f891906165c2565b5090565b604051806101800160405280600073ffffffffffffffffffffffffffffffffffffffff168152602001600061ffff16815260200160008152602001600081526020016000815260200160006fffffffffffffffffffffffffffffffff168152602001600067ffffffffffffffff168152602001600060020b8152602001600060020b8152602001600063ffffffff168152602001600073ffffffffffffffffffffffffffffffffffffffff168152602001600067ffffffffffffffff1681526020015090565b6165c7565b808211156165e157600081815060009055506001016165c7565b509056617966565b6000813590506165f8816178ea565b5b919050565b60008151905061660d816178ea565b5b919050565b6000813590508015158114151561662a5760006000fd5b5b919050565b60008135905061663f81617913565b5b919050565b60008151905061665481617913565b5b919050565b60008135905061666981617929565b5b919050565b60008151905061667e81617929565b5b919050565b60008135905061ffff81168114151561669d5760006000fd5b5b919050565b6000815190506166b28161794e565b5b919050565b60008135905063ffffffff8116811415156166d35760006000fd5b5b919050565b60008135905067ffffffffffffffff8116811415156166f85760006000fd5b5b919050565b60006020828403121561670f578081fd5b813561671a816178ea565b809150505b92915050565b6000600060408385031215616738578081fd5b8235616743816178ea565b80925050602083013590505b9250929050565b600060006000600060006080868803121561676f578081fd5b853561677a816178ea565b80955050602086013561678c816178ea565b8094505060408601359250606086013567ffffffffffffffff808211156167b1578283fd5b818801915088601f83011215156167c6578283fd5b8135818111156167d4578384fd5b8960208285010111156167e5578384fd5b6020830194508093505050505b9295509295909350565b600060006040838503121561680f578182fd5b823561681a816178ea565b80925050602083013590505b9250929050565b6000602080838503121561683f578182fd5b823567ffffffffffffffff80821115616856578384fd5b818501915085601f830112151561686b578384fd5b81358181111561687757fe5b83810291506168878483016178bf565b80828252858201915085850189878688010111156168a3578788fd5b8795505b838610156168d0576168b8816166b8565b8352868301925086810190505b6001860195506168a7565b508096505050505050505b92915050565b6000602082840312156168f2578081fd5b81357fffffffff00000000000000000000000000000000000000000000000000000000811681141515616923578182fd5b809150505b92915050565b60006020828403121561693f578081fd5b815161694a816178ea565b809150505b92915050565b600060208284031215616966578081fd5b8135616971816178ea565b809150505b92915050565b60006020828403121561698d578081fd5b8151616998816178ea565b809150505b92915050565b6000602082840312156169b4578081fd5b81516169bf816178ea565b809150505b92915050565b6000602082840312156169db578081fd5b81516169e6816178ea565b809150505b92915050565b600060208284031215616a02578081fd5b8151616a0d816178ea565b809150505b92915050565b600060208284031215616a29578081fd5b8135616a34816178ea565b809150505b92915050565b6000600060408385031215616a52578182fd5b8235616a5d816178ea565b80925050602083013590505b9250929050565b600060208284031215616a81578081fd5b8135616a8c81617913565b809150505b92915050565b6000600060408385031215616aaa578182fd5b8235616ab581617913565b809250506020830135616ac781617913565b809150505b9250929050565b600060808284031215616ae4578081fd5b6040516080810181811067ffffffffffffffff82111715616b0157fe5b806040525082358152602083013560208201526040830135604082015260608301356060820152809150505b92915050565b600060208284031215616b44578081fd5b616b4d82616684565b90505b92915050565b600060008284036060811215616b6a578283fd5b616b7384616684565b925060407fffffffffffffffffffffffffffffffffffffffffffffffffffffffffffffffe082011215616ba4578182fd5b506040516040810181811067ffffffffffffffff82111715616bc257fe5b80604052506020840135815260408401356020820152809150505b9250929050565b600060208284031215616bf5578081fd5b813590505b92915050565b600060208284031215616c11578081fd5b815190505b92915050565b600060008284036101a0811215616c31578283fd5b83359250610180807fffffffffffffffffffffffffffffffffffffffffffffffffffffffffffffffe083011215616c66578283fd5b616c6f816178bf565b9150616c7d602086016165e9565b8252616c8b60408601616684565b6020830152606085013560408301526080850135606083015260a08501356080830152616cba60c0860161665a565b60a0830152616ccb60e086016166d9565b60c0830152610100616cde818701616630565b60e0840152610120616cf1818801616630565b828501526101409150616d058288016166b8565b8185015250610160616d188188016165e9565b82850152616d278388016166d9565b81850152505050809150505b9250929050565b6000600060408385031215616d4d578182fd5b82359150602083013590505b9250929050565b6000600060408385031215616d73578182fd5b616d7c836166b8565b9150616d8a602084016166b8565b90505b9250929050565b600060208284031215616da5578081fd5b616dae826166d9565b90505b92915050565b600060008284036101c0811215616dcc578283fd5b616dd5846166d9565b92506101a0807fffffffffffffffffffffffffffffffffffffffffffffffffffffffffffffffe083011215616e08578283fd5b616e11816178bf565b91506020850135825260408501356020830152606085013560408301526080850135606083015260a08501356080830152616e4e60c086016166d9565b60a0830152616e5f60e086016166d9565b60c0830152610100616e72818701616630565b60e0840152610120616e85818801616613565b828501526101409150616e998288016166d9565b8185015250610160616eac8188016166b8565b828501526101809150616ec08288016165e9565b8185015250616ed08287016166d9565b818401525050809150505b9250929050565b60006000600060608486031215616ef7578081fd5b616f00846166d9565b9250602080850135616f118161794e565b80935050604085013567ffffffffffffffff80821115616f2f578384fd5b818701915087601f8301121515616f44578384fd5b813581811115616f5057fe5b616f80847fffffffffffffffffffffffffffffffffffffffffffffffffffffffffffffffe0601f840116016178bf565b91508082528884828501011115616f95578485fd5b808484018584013784848284010152508093505050505b9250925092565b6000600060006000600060006000600060006000600060006101808d8f031215616fdb57898afd5b8c516bffffffffffffffffffffffff811681141515616ff8578a8bfd5b809c505061700860208e016165fe565b9a5061701660408e016165fe565b995061702460608e016165fe565b985061703260808e016166a3565b975061704060a08e01616645565b965061704e60c08e01616645565b955061705c60e08e0161666f565b94506101008d015193506101208d0151925061707b6101408e0161666f565b915061708a6101608e0161666f565b90505b9295989b509295989b509295989b565b73ffffffffffffffffffffffffffffffffffffffff811682525b5050565b80151582525b5050565b6003811015156170d157fe5b8082525b5050565b8060020b82525b5050565b60008151808452815b81811015617110576020808286010151818388010152505b6020810190506170ed565b818111156171215782602083870101525b5060207fffffffffffffffffffffffffffffffffffffffffffffffffffffffffffffffe0601f8301168501019150505b92915050565b6fffffffffffffffffffffffffffffffff811682525b5050565b61ffff811682525b5050565b63ffffffff811682525b5050565b67ffffffffffffffff811682525b5050565b600060208201905073ffffffffffffffffffffffffffffffffffffffff831682525b92915050565b600060208201905073ffffffffffffffffffffffffffffffffffffffff831682525b92915050565b600060408201905073ffffffffffffffffffffffffffffffffffffffff8416825282151560208301525b9392505050565b600073ffffffffffffffffffffffffffffffffffffffff8716825267ffffffffffffffff8616602083015261725660408301866170c5565b62ffffff8416606083015260a0608083015261727560a08301846170e4565b90505b9695505050505050565b6000602080830181845280855180835260409250828601915082848202870101848801865b8381101561735b577fffffffffffffffffffffffffffffffffffffffffffffffffffffffffffffffc0898403018552815160a073ffffffffffffffffffffffffffffffffffffffff825116855267ffffffffffffffff89830151168986015287820151617316898701826170c5565b50606062ffffff818401511681870152506080808301519250818187015250617341818601836170e4565b94505050868201915086850194505b6001810190506172a7565b505080955050505050505b92915050565b600060208083018184528085518083526040860191508387019250845b818110156173bd576fffffffffffffffffffffffffffffffff8451168352848301925084840193505b600181019050617389565b50508093505050505b92915050565b600060208083018184528085518083526040860191508387019250845b818110156174115763ffffffff8451168352848301925084840193505b6001810190506173e9565b50508093505050505b92915050565b600060208083018184528085518083526040860191508387019250845b818110156174695767ffffffffffffffff8451168352848301925084840193505b60018101905061743d565b50508093505050505b92915050565b600060208201905082151582525b92915050565b60006020820190507fffffffff00000000000000000000000000000000000000000000000000000000831682525b92915050565b600060208201905073ffffffffffffffffffffffffffffffffffffffff831682525b92915050565b60006020820190508260020b82525b92915050565b600060208252600d60208301527f4c43205265656e7472616e63790000000000000000000000000000000000000060408301526060820190505b919050565b600060208252600e60208301527f4e6f7420417574686f72697a656400000000000000000000000000000000000060408301526060820190505b919050565b600060208252600c60208301527f506f736974696f6e20444e45000000000000000000000000000000000000000060408301526060820190505b919050565b600060208252601760208301527f4465627420776974686f757420636f6c6c61746572616c00000000000000000060408301526060820190505b919050565b600060208252601d60208301527f446f6573206e6f7420616363657074204e465473206469726563746c7900000060408301526060820190505b919050565b600060208252601560208301527f4d6178206b69636b6261636b206578636565646564000000000000000000000060408301526060820190505b919050565b60006101a082019050825182526020830151602083015260408301516040830152606083015160608301526080830151608083015260a08301516176be60a084018261718b565b5060c08301516176d160c084018261718b565b5060e08301516176e460e08401826170d9565b50610100808401516176f8828501826170bb565b50506101208084015161770d8285018261718b565b5050610140808401516177228285018261717d565b5050610160808401516177378285018261709d565b50506101808084015161774c8285018261718b565b50505b92915050565b60006101808201905061776982845161709d565b602083015161777b6020840182617171565b5060408301516040830152606083015160608301526080830151608083015260a08301516177ac60a0840182617157565b5060c08301516177bf60c084018261718b565b5060e08301516177d260e08401826170d9565b50610100808401516177e6828501826170d9565b5050610120808401516177fb8285018261717d565b5050610140808401516178108285018261709d565b5050610160808401516178258285018261718b565b50505b92915050565b600060408201905082518252602083015160208301525b92915050565b6000608082019050825182526020830151602083015260408301516040830152606083015160608301525b92915050565b60006020820190508282525b92915050565b60006040820190508382528260208301525b9392505050565b600060208201905063ffffffff831682525b92915050565b6000604051905081810181811067ffffffffffffffff821117156178df57fe5b80604052505b919050565b73ffffffffffffffffffffffffffffffffffffffff81168114151561790f5760006000fd5b5b50565b8060020b811415156179255760006000fd5b5b50565b6fffffffffffffffffffffffffffffffff81168114151561794a5760006000fd5b5b50565b62ffffff8116811415156179625760006000fd5b5b50565bfea2646970667358221220bd6b1ae220791f4f73b84c1d62bc37878bc5c5634a1a023bd7f7a7fd7e1d5d7e64736f6c63430007060033",
  "linkReferences": {},
  "deployedLinkReferences": {}
}